{
	"contracts/contracts/LQTY/LQTYVault.sol": {
		"LQTYVault": {
			"abi": [
				{
					"inputs": [
						{
							"internalType": "address",
							"name": "_stakingContract",
							"type": "address"
						}
					],
					"stateMutability": "nonpayable",
					"type": "constructor"
				},
				{
					"anonymous": false,
					"inputs": [
						{
							"indexed": false,
							"internalType": "address",
							"name": "_token",
							"type": "address"
						}
					],
					"name": "TokenAddressSet",
					"type": "event"
				},
				{
					"inputs": [],
					"name": "isTokenSet",
					"outputs": [
						{
							"internalType": "bool",
							"name": "",
							"type": "bool"
						}
					],
					"stateMutability": "view",
					"type": "function"
				},
				{
					"inputs": [],
					"name": "owner",
					"outputs": [
						{
							"internalType": "address",
							"name": "",
							"type": "address"
						}
					],
					"stateMutability": "view",
					"type": "function"
				},
				{
					"inputs": [],
					"name": "renounceOwnership",
					"outputs": [],
					"stateMutability": "nonpayable",
					"type": "function"
				},
				{
					"inputs": [
						{
							"internalType": "address",
							"name": "_token",
							"type": "address"
						}
					],
					"name": "setToken",
					"outputs": [],
					"stateMutability": "nonpayable",
					"type": "function"
				},
				{
					"inputs": [],
					"name": "stakingContract",
					"outputs": [
						{
							"internalType": "address",
							"name": "",
							"type": "address"
						}
					],
					"stateMutability": "view",
					"type": "function"
				},
				{
					"inputs": [],
					"name": "token",
					"outputs": [
						{
							"internalType": "contract ILQTYToken",
							"name": "",
							"type": "address"
						}
					],
					"stateMutability": "view",
					"type": "function"
				}
			],
			"devdoc": {
				"kind": "dev",
				"methods": {},
				"version": 1
			},
			"evm": {
				"assembly": "    /* \"contracts/contracts/LQTY/LQTYVault.sol\":98:1166  contract LQTYVault  {... */\n  mstore(0x40, 0x80)\n    /* \"contracts/contracts/LQTY/LQTYVault.sol\":390:590  constructor(address _stakingContract) public {... */\n  callvalue\n  dup1\n  iszero\n  tag_1\n  jumpi\n  0x00\n  dup1\n  revert\ntag_1:\n  pop\n  mload(0x40)\n  sub(codesize, bytecodeSize)\n  dup1\n  bytecodeSize\n  dup4\n  codecopy\n  dup2\n  dup2\n  add\n  0x40\n  mstore\n  0x20\n  dup2\n  lt\n  iszero\n  tag_2\n  jumpi\n  0x00\n  dup1\n  revert\ntag_2:\n  pop\n  mload\n  sub(shl(0xa0, 0x01), 0x01)\n    /* \"contracts/contracts/LQTY/LQTYVault.sol\":453:483  _stakingContract != address(0) */\n  dup2\n  and\n    /* \"contracts/contracts/LQTY/LQTYVault.sol\":445:511  require(_stakingContract != address(0),\"Invalid contract address\") */\n  tag_5\n  jumpi\n  0x40\n  dup1\n  mload\n  shl(0xe5, 0x461bcd)\n  dup2\n  mstore\n  0x20\n  0x04\n  dup3\n  add\n  mstore\n  0x18\n  0x24\n  dup3\n  add\n  mstore\n  0x496e76616c696420636f6e747261637420616464726573730000000000000000\n  0x44\n  dup3\n  add\n  mstore\n  swap1\n  mload\n  swap1\n  dup2\n  swap1\n  sub\n  0x64\n  add\n  swap1\n  revert\ntag_5:\n    /* \"contracts/contracts/LQTY/LQTYVault.sol\":521:536  stakingContract */\n  0x01\n    /* \"contracts/contracts/LQTY/LQTYVault.sol\":521:555  stakingContract = _stakingContract */\n  dup1\n  sload\n  sub(shl(0xa0, 0x01), 0x01)\n  swap1\n  swap3\n  and\n  not(sub(shl(0xa0, 0x01), 0x01))\n  swap3\n  dup4\n  and\n  or\n  swap1\n  sstore\n    /* \"contracts/contracts/LQTY/LQTYVault.sol\":565:570  owner */\n  0x02\n    /* \"contracts/contracts/LQTY/LQTYVault.sol\":565:583  owner = msg.sender */\n  dup1\n  sload\n  swap1\n  swap2\n  and\n    /* \"contracts/contracts/LQTY/LQTYVault.sol\":573:583  msg.sender */\n  caller\n    /* \"contracts/contracts/LQTY/LQTYVault.sol\":565:583  owner = msg.sender */\n  or\n  swap1\n  sstore\n    /* \"contracts/contracts/LQTY/LQTYVault.sol\":98:1166  contract LQTYVault  {... */\n  dataSize(sub_0)\n  dup1\n  dataOffset(sub_0)\n  0x00\n  codecopy\n  0x00\n  return\nstop\n\nsub_0: assembly {\n        /* \"contracts/contracts/LQTY/LQTYVault.sol\":98:1166  contract LQTYVault  {... */\n      mstore(0x40, 0x80)\n      callvalue\n      dup1\n      iszero\n      tag_1\n      jumpi\n      0x00\n      dup1\n      revert\n    tag_1:\n      pop\n      jumpi(tag_2, lt(calldatasize, 0x04))\n      shr(0xe0, calldataload(0x00))\n      dup1\n      0x144fa6d7\n      eq\n      tag_3\n      jumpi\n      dup1\n      0x715018a6\n      eq\n      tag_4\n      jumpi\n      dup1\n      0x8da5cb5b\n      eq\n      tag_5\n      jumpi\n      dup1\n      0x9ee7138c\n      eq\n      tag_6\n      jumpi\n      dup1\n      0xee99205c\n      eq\n      tag_7\n      jumpi\n      dup1\n      0xfc0c546a\n      eq\n      tag_8\n      jumpi\n    tag_2:\n      0x00\n      dup1\n      revert\n        /* \"contracts/contracts/LQTY/LQTYVault.sol\":596:1018  function setToken(address _token) external onlyOwner {... */\n    tag_3:\n      tag_9\n      0x04\n      dup1\n      calldatasize\n      sub\n      0x20\n      dup2\n      lt\n      iszero\n      tag_10\n      jumpi\n      0x00\n      dup1\n      revert\n    tag_10:\n      pop\n      calldataload\n      sub(shl(0xa0, 0x01), 0x01)\n      and\n      tag_11\n      jump\t// in\n    tag_9:\n      stop\n        /* \"contracts/contracts/LQTY/LQTYVault.sol\":1024:1164  function renounceOwnership() external onlyOwner {... */\n    tag_4:\n      tag_9\n      tag_13\n      jump\t// in\n        /* \"contracts/contracts/LQTY/LQTYVault.sol\":218:238  address public owner */\n    tag_5:\n      tag_14\n      tag_15\n      jump\t// in\n    tag_14:\n      0x40\n      dup1\n      mload\n      sub(shl(0xa0, 0x01), 0x01)\n      swap1\n      swap3\n      and\n      dup3\n      mstore\n      mload\n      swap1\n      dup2\n      swap1\n      sub\n      0x20\n      add\n      swap1\n      return\n        /* \"contracts/contracts/LQTY/LQTYVault.sol\":190:212  bool public isTokenSet */\n    tag_6:\n      tag_16\n      tag_17\n      jump\t// in\n    tag_16:\n      0x40\n      dup1\n      mload\n      swap2\n      iszero\n      iszero\n      dup3\n      mstore\n      mload\n      swap1\n      dup2\n      swap1\n      sub\n      0x20\n      add\n      swap1\n      return\n        /* \"contracts/contracts/LQTY/LQTYVault.sol\":154:184  address public stakingContract */\n    tag_7:\n      tag_14\n      tag_19\n      jump\t// in\n        /* \"contracts/contracts/LQTY/LQTYVault.sol\":125:148  ILQTYToken public token */\n    tag_8:\n      tag_14\n      tag_21\n      jump\t// in\n        /* \"contracts/contracts/LQTY/LQTYVault.sol\":596:1018  function setToken(address _token) external onlyOwner {... */\n    tag_11:\n        /* \"contracts/contracts/LQTY/LQTYVault.sol\":298:303  owner */\n      and(sub(shl(0xa0, 0x01), 0x01), sload(0x02))\n        /* \"contracts/contracts/LQTY/LQTYVault.sol\":284:294  msg.sender */\n      caller\n        /* \"contracts/contracts/LQTY/LQTYVault.sol\":284:303  msg.sender == owner */\n      eq\n        /* \"contracts/contracts/LQTY/LQTYVault.sol\":276:321  require(msg.sender == owner, \"Not the owner\") */\n      tag_23\n      jumpi\n      0x40\n      dup1\n      mload\n      shl(0xe5, 0x461bcd)\n      dup2\n      mstore\n      0x20\n      0x04\n      dup3\n      add\n      mstore\n      0x0d\n      0x24\n      dup3\n      add\n      mstore\n      shl(0x99, 0x2737ba103a34329037bbb732b9)\n      0x44\n      dup3\n      add\n      mstore\n      swap1\n      mload\n      swap1\n      dup2\n      swap1\n      sub\n      0x64\n      add\n      swap1\n      revert\n    tag_23:\n        /* \"contracts/contracts/LQTY/LQTYVault.sol\":668:678  isTokenSet */\n      sload(0x01)\n      shl(0xa0, 0x01)\n      swap1\n      div\n      0xff\n      and\n        /* \"contracts/contracts/LQTY/LQTYVault.sol\":667:678  !isTokenSet */\n      iszero\n        /* \"contracts/contracts/LQTY/LQTYVault.sol\":659:703  require(!isTokenSet, \"Token is already set\") */\n      tag_25\n      jumpi\n      0x40\n      dup1\n      mload\n      shl(0xe5, 0x461bcd)\n      dup2\n      mstore\n      0x20\n      0x04\n      dup3\n      add\n      mstore\n      0x14\n      0x24\n      dup3\n      add\n      mstore\n      shl(0x62, 0x151bdad95b881a5cc8185b1c9958591e481cd95d)\n      0x44\n      dup3\n      add\n      mstore\n      swap1\n      mload\n      swap1\n      dup2\n      swap1\n      sub\n      0x64\n      add\n      swap1\n      revert\n    tag_25:\n      sub(shl(0xa0, 0x01), 0x01)\n        /* \"contracts/contracts/LQTY/LQTYVault.sol\":722:742  _token != address(0) */\n      dup2\n      and\n        /* \"contracts/contracts/LQTY/LQTYVault.sol\":713:767  require (_token != address(0),\"Invalid token address\") */\n      tag_26\n      jumpi\n      0x40\n      dup1\n      mload\n      shl(0xe5, 0x461bcd)\n      dup2\n      mstore\n      0x20\n      0x04\n      dup3\n      add\n      mstore\n      0x15\n      0x24\n      dup3\n      add\n      mstore\n      shl(0x58, 0x496e76616c696420746f6b656e2061646472657373)\n      0x44\n      dup3\n      add\n      mstore\n      swap1\n      mload\n      swap1\n      dup2\n      swap1\n      sub\n      0x64\n      add\n      swap1\n      revert\n    tag_26:\n        /* \"contracts/contracts/LQTY/LQTYVault.sol\":777:782  token */\n      0x00\n        /* \"contracts/contracts/LQTY/LQTYVault.sol\":777:803  token = ILQTYToken(_token) */\n      dup1\n      sload\n      sub(shl(0xa0, 0x01), 0x01)\n      dup1\n      dup5\n      and\n      not(sub(shl(0xa0, 0x01), 0x01))\n      swap1\n      swap3\n      and\n      swap2\n      swap1\n      swap2\n      or\n      dup1\n      dup4\n      sstore\n      0x01\n        /* \"contracts/contracts/LQTY/LQTYVault.sol\":813:830  isTokenSet = true */\n      dup1\n      sload\n      not(shl(0xa0, 0xff))\n      and\n      shl(0xa0, 0x01)\n      or\n      swap1\n      dup2\n      swap1\n      sstore\n        /* \"contracts/contracts/LQTY/LQTYVault.sol\":919:968  token.approve(stakingContract, type(uint256).max) */\n      0x40\n      dup1\n      mload\n      shl(0xe0, 0x095ea7b3)\n      dup2\n      mstore\n        /* \"contracts/contracts/LQTY/LQTYVault.sol\":933:948  stakingContract */\n      swap2\n      dup5\n      and\n        /* \"contracts/contracts/LQTY/LQTYVault.sol\":919:968  token.approve(stakingContract, type(uint256).max) */\n      0x04\n      dup4\n      add\n      mstore\n      not(0x00)\n      0x24\n      dup4\n      add\n      mstore\n      mload\n        /* \"contracts/contracts/LQTY/LQTYVault.sol\":919:924  token */\n      swap2\n      swap1\n      swap3\n      and\n      swap3\n        /* \"contracts/contracts/LQTY/LQTYVault.sol\":919:932  token.approve */\n      0x095ea7b3\n      swap3\n        /* \"contracts/contracts/LQTY/LQTYVault.sol\":919:968  token.approve(stakingContract, type(uint256).max) */\n      0x44\n      dup1\n      dup3\n      add\n      swap4\n      0x20\n      swap4\n      swap1\n      swap3\n      dup4\n      swap1\n      sub\n      swap1\n      swap2\n      add\n      swap1\n      dup3\n      swap1\n        /* \"contracts/contracts/LQTY/LQTYVault.sol\":919:924  token */\n      dup8\n        /* \"contracts/contracts/LQTY/LQTYVault.sol\":919:968  token.approve(stakingContract, type(uint256).max) */\n      dup1\n      extcodesize\n      iszero\n      dup1\n      iszero\n      tag_27\n      jumpi\n      0x00\n      dup1\n      revert\n    tag_27:\n      pop\n      gas\n      call\n      iszero\n      dup1\n      iszero\n      tag_29\n      jumpi\n      returndatasize\n      0x00\n      dup1\n      returndatacopy\n      revert(0x00, returndatasize)\n    tag_29:\n      pop\n      pop\n      pop\n      pop\n      mload(0x40)\n      returndatasize\n      0x20\n      dup2\n      lt\n      iszero\n      tag_30\n      jumpi\n      0x00\n      dup1\n      revert\n    tag_30:\n      pop\n      pop\n        /* \"contracts/contracts/LQTY/LQTYVault.sol\":988:1011  TokenAddressSet(_token) */\n      0x40\n      dup1\n      mload\n      sub(shl(0xa0, 0x01), 0x01)\n      dup4\n      and\n      dup2\n      mstore\n      swap1\n      mload\n      0xd82cad5fdc98633445b90f806f2e1a61a5409f92187ee9cd87f1da18c9069266\n      swap2\n      dup2\n      swap1\n      sub\n        /* \"contracts/contracts/LQTY/LQTYVault.sol\":919:968  token.approve(stakingContract, type(uint256).max) */\n      0x20\n        /* \"contracts/contracts/LQTY/LQTYVault.sol\":988:1011  TokenAddressSet(_token) */\n      add\n      swap1\n      log1\n        /* \"contracts/contracts/LQTY/LQTYVault.sol\":596:1018  function setToken(address _token) external onlyOwner {... */\n      pop\n      jump\t// out\n        /* \"contracts/contracts/LQTY/LQTYVault.sol\":1024:1164  function renounceOwnership() external onlyOwner {... */\n    tag_13:\n        /* \"contracts/contracts/LQTY/LQTYVault.sol\":298:303  owner */\n      and(sub(shl(0xa0, 0x01), 0x01), sload(0x02))\n        /* \"contracts/contracts/LQTY/LQTYVault.sol\":284:294  msg.sender */\n      caller\n        /* \"contracts/contracts/LQTY/LQTYVault.sol\":284:303  msg.sender == owner */\n      eq\n        /* \"contracts/contracts/LQTY/LQTYVault.sol\":276:321  require(msg.sender == owner, \"Not the owner\") */\n      tag_32\n      jumpi\n      0x40\n      dup1\n      mload\n      shl(0xe5, 0x461bcd)\n      dup2\n      mstore\n      0x20\n      0x04\n      dup3\n      add\n      mstore\n      0x0d\n      0x24\n      dup3\n      add\n      mstore\n      shl(0x99, 0x2737ba103a34329037bbb732b9)\n      0x44\n      dup3\n      add\n      mstore\n      swap1\n      mload\n      swap1\n      dup2\n      swap1\n      sub\n      0x64\n      add\n      swap1\n      revert\n    tag_32:\n        /* \"contracts/contracts/LQTY/LQTYVault.sol\":1090:1100  isTokenSet */\n      sload(0x01)\n      shl(0xa0, 0x01)\n      swap1\n      div\n      0xff\n      and\n        /* \"contracts/contracts/LQTY/LQTYVault.sol\":1082:1129  require(isTokenSet,\"Token address not yet set\") */\n      tag_34\n      jumpi\n      0x40\n      dup1\n      mload\n      shl(0xe5, 0x461bcd)\n      dup2\n      mstore\n      0x20\n      0x04\n      dup3\n      add\n      mstore\n      0x19\n      0x24\n      dup3\n      add\n      mstore\n      0x546f6b656e2061646472657373206e6f74207965742073657400000000000000\n      0x44\n      dup3\n      add\n      mstore\n      swap1\n      mload\n      swap1\n      dup2\n      swap1\n      sub\n      0x64\n      add\n      swap1\n      revert\n    tag_34:\n        /* \"contracts/contracts/LQTY/LQTYVault.sol\":1139:1144  owner */\n      0x02\n        /* \"contracts/contracts/LQTY/LQTYVault.sol\":1139:1157  owner = address(0) */\n      dup1\n      sload\n      not(sub(shl(0xa0, 0x01), 0x01))\n      and\n      swap1\n      sstore\n        /* \"contracts/contracts/LQTY/LQTYVault.sol\":1024:1164  function renounceOwnership() external onlyOwner {... */\n      jump\t// out\n        /* \"contracts/contracts/LQTY/LQTYVault.sol\":218:238  address public owner */\n    tag_15:\n      and(sub(shl(0xa0, 0x01), 0x01), sload(0x02))\n      dup2\n      jump\t// out\n        /* \"contracts/contracts/LQTY/LQTYVault.sol\":190:212  bool public isTokenSet */\n    tag_17:\n      sload(0x01)\n      shl(0xa0, 0x01)\n      swap1\n      div\n      0xff\n      and\n      dup2\n      jump\t// out\n        /* \"contracts/contracts/LQTY/LQTYVault.sol\":154:184  address public stakingContract */\n    tag_19:\n      and(sub(shl(0xa0, 0x01), 0x01), sload(0x01))\n      dup2\n      jump\t// out\n        /* \"contracts/contracts/LQTY/LQTYVault.sol\":125:148  ILQTYToken public token */\n    tag_21:\n      and(sub(shl(0xa0, 0x01), 0x01), sload(0x00))\n      dup2\n      jump\t// out\n\n    auxdata: 0xa26469706673582212208598b7156be62f346d624aa94aa416f5e5a77870d13126fcb409e7eec333f61164736f6c634300060b0033\n}\n",
				"bytecode": {
					"linkReferences": {},
					"object": "608060405234801561001057600080fd5b506040516104c83803806104c88339818101604052602081101561003357600080fd5b50516001600160a01b038116610090576040805162461bcd60e51b815260206004820152601860248201527f496e76616c696420636f6e747261637420616464726573730000000000000000604482015290519081900360640190fd5b600180546001600160a01b039092166001600160a01b03199283161790556002805490911633179055610400806100c86000396000f3fe608060405234801561001057600080fd5b50600436106100625760003560e01c8063144fa6d714610067578063715018a61461008f5780638da5cb5b146100975780639ee7138c146100bb578063ee99205c146100d7578063fc0c546a146100df575b600080fd5b61008d6004803603602081101561007d57600080fd5b50356001600160a01b03166100e7565b005b61008d6102ce565b61009f61038d565b604080516001600160a01b039092168252519081900360200190f35b6100c361039c565b604080519115158252519081900360200190f35b61009f6103ac565b61009f6103bb565b6002546001600160a01b03163314610136576040805162461bcd60e51b815260206004820152600d60248201526c2737ba103a34329037bbb732b960991b604482015290519081900360640190fd5b600154600160a01b900460ff161561018c576040805162461bcd60e51b8152602060048201526014602482015273151bdad95b881a5cc8185b1c9958591e481cd95d60621b604482015290519081900360640190fd5b6001600160a01b0381166101df576040805162461bcd60e51b8152602060048201526015602482015274496e76616c696420746f6b656e206164647265737360581b604482015290519081900360640190fd5b600080546001600160a01b038084166001600160a01b0319909216919091178083556001805460ff60a01b1916600160a01b17908190556040805163095ea7b360e01b81529184166004830152600019602483015251919092169263095ea7b392604480820193602093909283900390910190829087803b15801561026357600080fd5b505af1158015610277573d6000803e3d6000fd5b505050506040513d602081101561028d57600080fd5b5050604080516001600160a01b038316815290517fd82cad5fdc98633445b90f806f2e1a61a5409f92187ee9cd87f1da18c90692669181900360200190a150565b6002546001600160a01b0316331461031d576040805162461bcd60e51b815260206004820152600d60248201526c2737ba103a34329037bbb732b960991b604482015290519081900360640190fd5b600154600160a01b900460ff1661037b576040805162461bcd60e51b815260206004820152601960248201527f546f6b656e2061646472657373206e6f74207965742073657400000000000000604482015290519081900360640190fd5b600280546001600160a01b0319169055565b6002546001600160a01b031681565b600154600160a01b900460ff1681565b6001546001600160a01b031681565b6000546001600160a01b03168156fea26469706673582212208598b7156be62f346d624aa94aa416f5e5a77870d13126fcb409e7eec333f61164736f6c634300060b0033",
					"opcodes": "PUSH1 0x80 PUSH1 0x40 MSTORE CALLVALUE DUP1 ISZERO PUSH2 0x10 JUMPI PUSH1 0x0 DUP1 REVERT JUMPDEST POP PUSH1 0x40 MLOAD PUSH2 0x4C8 CODESIZE SUB DUP1 PUSH2 0x4C8 DUP4 CODECOPY DUP2 DUP2 ADD PUSH1 0x40 MSTORE PUSH1 0x20 DUP2 LT ISZERO PUSH2 0x33 JUMPI PUSH1 0x0 DUP1 REVERT JUMPDEST POP MLOAD PUSH1 0x1 PUSH1 0x1 PUSH1 0xA0 SHL SUB DUP2 AND PUSH2 0x90 JUMPI PUSH1 0x40 DUP1 MLOAD PUSH3 0x461BCD PUSH1 0xE5 SHL DUP2 MSTORE PUSH1 0x20 PUSH1 0x4 DUP3 ADD MSTORE PUSH1 0x18 PUSH1 0x24 DUP3 ADD MSTORE PUSH32 0x496E76616C696420636F6E747261637420616464726573730000000000000000 PUSH1 0x44 DUP3 ADD MSTORE SWAP1 MLOAD SWAP1 DUP2 SWAP1 SUB PUSH1 0x64 ADD SWAP1 REVERT JUMPDEST PUSH1 0x1 DUP1 SLOAD PUSH1 0x1 PUSH1 0x1 PUSH1 0xA0 SHL SUB SWAP1 SWAP3 AND PUSH1 0x1 PUSH1 0x1 PUSH1 0xA0 SHL SUB NOT SWAP3 DUP4 AND OR SWAP1 SSTORE PUSH1 0x2 DUP1 SLOAD SWAP1 SWAP2 AND CALLER OR SWAP1 SSTORE PUSH2 0x400 DUP1 PUSH2 0xC8 PUSH1 0x0 CODECOPY PUSH1 0x0 RETURN INVALID PUSH1 0x80 PUSH1 0x40 MSTORE CALLVALUE DUP1 ISZERO PUSH2 0x10 JUMPI PUSH1 0x0 DUP1 REVERT JUMPDEST POP PUSH1 0x4 CALLDATASIZE LT PUSH2 0x62 JUMPI PUSH1 0x0 CALLDATALOAD PUSH1 0xE0 SHR DUP1 PUSH4 0x144FA6D7 EQ PUSH2 0x67 JUMPI DUP1 PUSH4 0x715018A6 EQ PUSH2 0x8F JUMPI DUP1 PUSH4 0x8DA5CB5B EQ PUSH2 0x97 JUMPI DUP1 PUSH4 0x9EE7138C EQ PUSH2 0xBB JUMPI DUP1 PUSH4 0xEE99205C EQ PUSH2 0xD7 JUMPI DUP1 PUSH4 0xFC0C546A EQ PUSH2 0xDF JUMPI JUMPDEST PUSH1 0x0 DUP1 REVERT JUMPDEST PUSH2 0x8D PUSH1 0x4 DUP1 CALLDATASIZE SUB PUSH1 0x20 DUP2 LT ISZERO PUSH2 0x7D JUMPI PUSH1 0x0 DUP1 REVERT JUMPDEST POP CALLDATALOAD PUSH1 0x1 PUSH1 0x1 PUSH1 0xA0 SHL SUB AND PUSH2 0xE7 JUMP JUMPDEST STOP JUMPDEST PUSH2 0x8D PUSH2 0x2CE JUMP JUMPDEST PUSH2 0x9F PUSH2 0x38D JUMP JUMPDEST PUSH1 0x40 DUP1 MLOAD PUSH1 0x1 PUSH1 0x1 PUSH1 0xA0 SHL SUB SWAP1 SWAP3 AND DUP3 MSTORE MLOAD SWAP1 DUP2 SWAP1 SUB PUSH1 0x20 ADD SWAP1 RETURN JUMPDEST PUSH2 0xC3 PUSH2 0x39C JUMP JUMPDEST PUSH1 0x40 DUP1 MLOAD SWAP2 ISZERO ISZERO DUP3 MSTORE MLOAD SWAP1 DUP2 SWAP1 SUB PUSH1 0x20 ADD SWAP1 RETURN JUMPDEST PUSH2 0x9F PUSH2 0x3AC JUMP JUMPDEST PUSH2 0x9F PUSH2 0x3BB JUMP JUMPDEST PUSH1 0x2 SLOAD PUSH1 0x1 PUSH1 0x1 PUSH1 0xA0 SHL SUB AND CALLER EQ PUSH2 0x136 JUMPI PUSH1 0x40 DUP1 MLOAD PUSH3 0x461BCD PUSH1 0xE5 SHL DUP2 MSTORE PUSH1 0x20 PUSH1 0x4 DUP3 ADD MSTORE PUSH1 0xD PUSH1 0x24 DUP3 ADD MSTORE PUSH13 0x2737BA103A34329037BBB732B9 PUSH1 0x99 SHL PUSH1 0x44 DUP3 ADD MSTORE SWAP1 MLOAD SWAP1 DUP2 SWAP1 SUB PUSH1 0x64 ADD SWAP1 REVERT JUMPDEST PUSH1 0x1 SLOAD PUSH1 0x1 PUSH1 0xA0 SHL SWAP1 DIV PUSH1 0xFF AND ISZERO PUSH2 0x18C JUMPI PUSH1 0x40 DUP1 MLOAD PUSH3 0x461BCD PUSH1 0xE5 SHL DUP2 MSTORE PUSH1 0x20 PUSH1 0x4 DUP3 ADD MSTORE PUSH1 0x14 PUSH1 0x24 DUP3 ADD MSTORE PUSH20 0x151BDAD95B881A5CC8185B1C9958591E481CD95D PUSH1 0x62 SHL PUSH1 0x44 DUP3 ADD MSTORE SWAP1 MLOAD SWAP1 DUP2 SWAP1 SUB PUSH1 0x64 ADD SWAP1 REVERT JUMPDEST PUSH1 0x1 PUSH1 0x1 PUSH1 0xA0 SHL SUB DUP2 AND PUSH2 0x1DF JUMPI PUSH1 0x40 DUP1 MLOAD PUSH3 0x461BCD PUSH1 0xE5 SHL DUP2 MSTORE PUSH1 0x20 PUSH1 0x4 DUP3 ADD MSTORE PUSH1 0x15 PUSH1 0x24 DUP3 ADD MSTORE PUSH21 0x496E76616C696420746F6B656E2061646472657373 PUSH1 0x58 SHL PUSH1 0x44 DUP3 ADD MSTORE SWAP1 MLOAD SWAP1 DUP2 SWAP1 SUB PUSH1 0x64 ADD SWAP1 REVERT JUMPDEST PUSH1 0x0 DUP1 SLOAD PUSH1 0x1 PUSH1 0x1 PUSH1 0xA0 SHL SUB DUP1 DUP5 AND PUSH1 0x1 PUSH1 0x1 PUSH1 0xA0 SHL SUB NOT SWAP1 SWAP3 AND SWAP2 SWAP1 SWAP2 OR DUP1 DUP4 SSTORE PUSH1 0x1 DUP1 SLOAD PUSH1 0xFF PUSH1 0xA0 SHL NOT AND PUSH1 0x1 PUSH1 0xA0 SHL OR SWAP1 DUP2 SWAP1 SSTORE PUSH1 0x40 DUP1 MLOAD PUSH4 0x95EA7B3 PUSH1 0xE0 SHL DUP2 MSTORE SWAP2 DUP5 AND PUSH1 0x4 DUP4 ADD MSTORE PUSH1 0x0 NOT PUSH1 0x24 DUP4 ADD MSTORE MLOAD SWAP2 SWAP1 SWAP3 AND SWAP3 PUSH4 0x95EA7B3 SWAP3 PUSH1 0x44 DUP1 DUP3 ADD SWAP4 PUSH1 0x20 SWAP4 SWAP1 SWAP3 DUP4 SWAP1 SUB SWAP1 SWAP2 ADD SWAP1 DUP3 SWAP1 DUP8 DUP1 EXTCODESIZE ISZERO DUP1 ISZERO PUSH2 0x263 JUMPI PUSH1 0x0 DUP1 REVERT JUMPDEST POP GAS CALL ISZERO DUP1 ISZERO PUSH2 0x277 JUMPI RETURNDATASIZE PUSH1 0x0 DUP1 RETURNDATACOPY RETURNDATASIZE PUSH1 0x0 REVERT JUMPDEST POP POP POP POP PUSH1 0x40 MLOAD RETURNDATASIZE PUSH1 0x20 DUP2 LT ISZERO PUSH2 0x28D JUMPI PUSH1 0x0 DUP1 REVERT JUMPDEST POP POP PUSH1 0x40 DUP1 MLOAD PUSH1 0x1 PUSH1 0x1 PUSH1 0xA0 SHL SUB DUP4 AND DUP2 MSTORE SWAP1 MLOAD PUSH32 0xD82CAD5FDC98633445B90F806F2E1A61A5409F92187EE9CD87F1DA18C9069266 SWAP2 DUP2 SWAP1 SUB PUSH1 0x20 ADD SWAP1 LOG1 POP JUMP JUMPDEST PUSH1 0x2 SLOAD PUSH1 0x1 PUSH1 0x1 PUSH1 0xA0 SHL SUB AND CALLER EQ PUSH2 0x31D JUMPI PUSH1 0x40 DUP1 MLOAD PUSH3 0x461BCD PUSH1 0xE5 SHL DUP2 MSTORE PUSH1 0x20 PUSH1 0x4 DUP3 ADD MSTORE PUSH1 0xD PUSH1 0x24 DUP3 ADD MSTORE PUSH13 0x2737BA103A34329037BBB732B9 PUSH1 0x99 SHL PUSH1 0x44 DUP3 ADD MSTORE SWAP1 MLOAD SWAP1 DUP2 SWAP1 SUB PUSH1 0x64 ADD SWAP1 REVERT JUMPDEST PUSH1 0x1 SLOAD PUSH1 0x1 PUSH1 0xA0 SHL SWAP1 DIV PUSH1 0xFF AND PUSH2 0x37B JUMPI PUSH1 0x40 DUP1 MLOAD PUSH3 0x461BCD PUSH1 0xE5 SHL DUP2 MSTORE PUSH1 0x20 PUSH1 0x4 DUP3 ADD MSTORE PUSH1 0x19 PUSH1 0x24 DUP3 ADD MSTORE PUSH32 0x546F6B656E2061646472657373206E6F74207965742073657400000000000000 PUSH1 0x44 DUP3 ADD MSTORE SWAP1 MLOAD SWAP1 DUP2 SWAP1 SUB PUSH1 0x64 ADD SWAP1 REVERT JUMPDEST PUSH1 0x2 DUP1 SLOAD PUSH1 0x1 PUSH1 0x1 PUSH1 0xA0 SHL SUB NOT AND SWAP1 SSTORE JUMP JUMPDEST PUSH1 0x2 SLOAD PUSH1 0x1 PUSH1 0x1 PUSH1 0xA0 SHL SUB AND DUP2 JUMP JUMPDEST PUSH1 0x1 SLOAD PUSH1 0x1 PUSH1 0xA0 SHL SWAP1 DIV PUSH1 0xFF AND DUP2 JUMP JUMPDEST PUSH1 0x1 SLOAD PUSH1 0x1 PUSH1 0x1 PUSH1 0xA0 SHL SUB AND DUP2 JUMP JUMPDEST PUSH1 0x0 SLOAD PUSH1 0x1 PUSH1 0x1 PUSH1 0xA0 SHL SUB AND DUP2 JUMP INVALID LOG2 PUSH5 0x6970667358 0x22 SLT KECCAK256 DUP6 SWAP9 0xB7 ISZERO PUSH12 0xE62F346D624AA94AA416F5E5 0xA7 PUSH25 0x70D13126FCB409E7EEC333F61164736F6C634300060B003300 "
				},
				"gasEstimates": {
					"creation": {
						"codeDepositCost": "204800",
						"executionCost": "infinite",
						"totalCost": "infinite"
					},
					"external": {
						"isTokenSet()": "1071",
						"owner()": "1059",
						"renounceOwnership()": "22654",
						"setToken(address)": "infinite",
						"stakingContract()": "1103",
						"token()": "1125"
					}
				},
				"methodIdentifiers": {
					"isTokenSet()": "9ee7138c",
					"owner()": "8da5cb5b",
					"renounceOwnership()": "715018a6",
					"setToken(address)": "144fa6d7",
					"stakingContract()": "ee99205c",
					"token()": "fc0c546a"
				}
			},
			"storageLayout": {
				"storage": [
					{
						"astId": 193,
						"contract": "contracts/contracts/LQTY/LQTYVault.sol:LQTYVault",
						"label": "token",
						"offset": 0,
						"slot": "0",
						"type": "t_contract(ILQTYToken)188"
					},
					{
						"astId": 195,
						"contract": "contracts/contracts/LQTY/LQTYVault.sol:LQTYVault",
						"label": "stakingContract",
						"offset": 0,
						"slot": "1",
						"type": "t_address"
					},
					{
						"astId": 197,
						"contract": "contracts/contracts/LQTY/LQTYVault.sol:LQTYVault",
						"label": "isTokenSet",
						"offset": 20,
						"slot": "1",
						"type": "t_bool"
					},
					{
						"astId": 199,
						"contract": "contracts/contracts/LQTY/LQTYVault.sol:LQTYVault",
						"label": "owner",
						"offset": 0,
						"slot": "2",
						"type": "t_address"
					}
				],
				"types": {
					"t_address": {
						"encoding": "inplace",
						"label": "address",
						"numberOfBytes": "20"
					},
					"t_bool": {
						"encoding": "inplace",
						"label": "bool",
						"numberOfBytes": "1"
					},
					"t_contract(ILQTYToken)188": {
						"encoding": "inplace",
						"label": "contract ILQTYToken",
						"numberOfBytes": "20"
					}
				}
			},
			"userdoc": {
				"kind": "user",
				"methods": {},
				"version": 1
			}
		}
	}
}