{
	"contracts/contracts/LQTY/LockupContract.sol": {
		"LockupContract": {
			"abi": [
				{
					"inputs": [
						{
							"internalType": "address",
							"name": "_lqtyTokenAddress",
							"type": "address"
						},
						{
							"internalType": "address",
							"name": "_beneficiary",
							"type": "address"
						},
						{
							"internalType": "uint256",
							"name": "_unlockTime",
							"type": "uint256"
						}
					],
					"stateMutability": "nonpayable",
					"type": "constructor"
				},
				{
					"anonymous": false,
					"inputs": [
						{
							"indexed": false,
							"internalType": "address",
							"name": "_beneficiary",
							"type": "address"
						},
						{
							"indexed": false,
							"internalType": "uint256",
							"name": "_unlockTime",
							"type": "uint256"
						}
					],
					"name": "LockupContractCreated",
					"type": "event"
				},
				{
					"anonymous": false,
					"inputs": [
						{
							"indexed": false,
							"internalType": "uint256",
							"name": "_LQTYwithdrawal",
							"type": "uint256"
						}
					],
					"name": "LockupContractEmptied",
					"type": "event"
				},
				{
					"inputs": [],
					"name": "NAME",
					"outputs": [
						{
							"internalType": "string",
							"name": "",
							"type": "string"
						}
					],
					"stateMutability": "view",
					"type": "function"
				},
				{
					"inputs": [],
					"name": "SECONDS_IN_ONE_YEAR",
					"outputs": [
						{
							"internalType": "uint256",
							"name": "",
							"type": "uint256"
						}
					],
					"stateMutability": "view",
					"type": "function"
				},
				{
					"inputs": [],
					"name": "beneficiary",
					"outputs": [
						{
							"internalType": "address",
							"name": "",
							"type": "address"
						}
					],
					"stateMutability": "view",
					"type": "function"
				},
				{
					"inputs": [],
					"name": "lqtyToken",
					"outputs": [
						{
							"internalType": "contract ILQTYToken",
							"name": "",
							"type": "address"
						}
					],
					"stateMutability": "view",
					"type": "function"
				},
				{
					"inputs": [],
					"name": "unlockTime",
					"outputs": [
						{
							"internalType": "uint256",
							"name": "",
							"type": "uint256"
						}
					],
					"stateMutability": "view",
					"type": "function"
				},
				{
					"inputs": [],
					"name": "withdrawLQTY",
					"outputs": [],
					"stateMutability": "nonpayable",
					"type": "function"
				}
			],
			"devdoc": {
				"kind": "dev",
				"methods": {},
				"version": 1
			},
			"evm": {
				"assembly": "    /* \"contracts/contracts/LQTY/LockupContract.sol\":966:3172  contract LockupContract {... */\n  mstore(0x40, 0xa0)\n    /* \"contracts/contracts/LQTY/LockupContract.sol\":1526:2104  constructor ... */\n  callvalue\n  dup1\n  iszero\n  tag_1\n  jumpi\n  0x00\n  dup1\n  revert\ntag_1:\n  pop\n  mload(0x40)\n  sub(codesize, bytecodeSize)\n  dup1\n  bytecodeSize\n  dup4\n  codecopy\n  dup2\n  dup2\n  add\n  0x40\n  mstore\n  0x60\n  dup2\n  lt\n  iszero\n  tag_2\n  jumpi\n  0x00\n  dup1\n  revert\ntag_2:\n  pop\n  dup1\n  mload\n  0x20\n  dup3\n  add\n  mload\n  0x40\n  swap1\n  swap3\n  add\n  mload\n    /* \"contracts/contracts/LQTY/LockupContract.sol\":1673:1682  lqtyToken */\n  0x00\n    /* \"contracts/contracts/LQTY/LockupContract.sol\":1673:1714  lqtyToken = ILQTYToken(_lqtyTokenAddress) */\n  dup1\n  sload\n  not(sub(shl(0xa0, 0x01), 0x01))\n  and\n  sub(shl(0xa0, 0x01), 0x01)\n  dup5\n  and\n  or\n  swap1\n  sstore\n    /* \"contracts/contracts/LQTY/LockupContract.sol\":1526:2104  constructor ... */\n  swap1\n  swap2\n  swap1\n    /* \"contracts/contracts/LQTY/LockupContract.sol\":1886:1954  _requireUnlockTimeIsAtLeastOneYearAfterSystemDeployment(_unlockTime) */\n  tag_5\n    /* \"contracts/contracts/LQTY/LockupContract.sol\":1526:2104  constructor ... */\n  dup2\n    /* \"contracts/contracts/LQTY/LockupContract.sol\":1886:1941  _requireUnlockTimeIsAtLeastOneYearAfterSystemDeployment */\n  tag_6\n    /* \"contracts/contracts/LQTY/LockupContract.sol\":1886:1954  _requireUnlockTimeIsAtLeastOneYearAfterSystemDeployment(_unlockTime) */\n  jump\t// in\ntag_5:\n    /* \"contracts/contracts/LQTY/LockupContract.sol\":1964:1974  unlockTime */\n  0x01\n    /* \"contracts/contracts/LQTY/LockupContract.sol\":1964:1988  unlockTime = _unlockTime */\n  dup2\n  swap1\n  sstore\n  not(sub(shl(0x60, 0x01), 0x01))\n    /* \"contracts/contracts/LQTY/LockupContract.sol\":2007:2034  beneficiary =  _beneficiary */\n  0x60\n  dup4\n  swap1\n  shl\n  and\n  0x80\n  mstore\n    /* \"contracts/contracts/LQTY/LockupContract.sol\":2049:2097  LockupContractCreated(_beneficiary, _unlockTime) */\n  0x40\n  dup1\n  mload\n  sub(shl(0xa0, 0x01), 0x01)\n    /* \"contracts/contracts/LQTY/LockupContract.sol\":2007:2034  beneficiary =  _beneficiary */\n  dup5\n  and\n    /* \"contracts/contracts/LQTY/LockupContract.sol\":2049:2097  LockupContractCreated(_beneficiary, _unlockTime) */\n  dup2\n  mstore\n  0x20\n  dup2\n  add\n  dup4\n  swap1\n  mstore\n  dup2\n  mload\n  0x5faee922186516bf77266643c1fda130acefc439d571400e8697106c6aed9b54\n  swap3\n  swap2\n  dup2\n  swap1\n  sub\n  swap1\n  swap2\n  add\n  swap1\n  log1\n    /* \"contracts/contracts/LQTY/LockupContract.sol\":1526:2104  constructor ... */\n  pop\n  pop\n  pop\n    /* \"contracts/contracts/LQTY/LockupContract.sol\":966:3172  contract LockupContract {... */\n  jump(tag_7)\n    /* \"contracts/contracts/LQTY/LockupContract.sol\":2834:3170  function _requireUnlockTimeIsAtLeastOneYearAfterSystemDeployment(uint _unlockTime) internal view {... */\ntag_6:\n    /* \"contracts/contracts/LQTY/LockupContract.sol\":2941:2966  uint systemDeploymentTime */\n  0x00\n    /* \"contracts/contracts/LQTY/LockupContract.sol\":2969:2978  lqtyToken */\n  dup1\n  0x00\n  swap1\n  sload\n  swap1\n  0x0100\n  exp\n  swap1\n  div\n  sub(shl(0xa0, 0x01), 0x01)\n  and\n  sub(shl(0xa0, 0x01), 0x01)\n    /* \"contracts/contracts/LQTY/LockupContract.sol\":2969:3001  lqtyToken.getDeploymentStartTime */\n  and\n  0x3c84b7c2\n    /* \"contracts/contracts/LQTY/LockupContract.sol\":2969:3003  lqtyToken.getDeploymentStartTime() */\n  mload(0x40)\n  dup2\n  0xffffffff\n  and\n  0xe0\n  shl\n  dup2\n  mstore\n  0x04\n  add\n  0x20\n  mload(0x40)\n  dup1\n  dup4\n  sub\n  dup2\n  dup7\n  dup1\n  extcodesize\n  iszero\n  dup1\n  iszero\n  tag_9\n  jumpi\n  0x00\n  dup1\n  revert\ntag_9:\n  pop\n  gas\n  staticcall\n  iszero\n  dup1\n  iszero\n  tag_11\n  jumpi\n  returndatasize\n  0x00\n  dup1\n  returndatacopy\n  revert(0x00, returndatasize)\ntag_11:\n  pop\n  pop\n  pop\n  pop\n  mload(0x40)\n  returndatasize\n  0x20\n  dup2\n  lt\n  iszero\n  tag_12\n  jumpi\n  0x00\n  dup1\n  revert\ntag_12:\n  pop\n  mload\n  swap1\n  pop\n    /* \"contracts/contracts/LQTY/LockupContract.sol\":3036:3081  systemDeploymentTime.add(SECONDS_IN_ONE_YEAR) */\n  tag_13\n    /* \"contracts/contracts/LQTY/LockupContract.sol\":2969:3003  lqtyToken.getDeploymentStartTime() */\n  dup2\n    /* \"contracts/contracts/LQTY/LockupContract.sol\":1142:1150  31536000 */\n  0x01e13380\n    /* \"contracts/contracts/LQTY/LockupContract.sol\":3036:3060  systemDeploymentTime.add */\n  tag_14\n    /* \"contracts/contracts/LQTY/LockupContract.sol\":2969:3003  lqtyToken.getDeploymentStartTime() */\n  0x20\n    /* \"contracts/contracts/LQTY/LockupContract.sol\":3036:3060  systemDeploymentTime.add */\n  swap1\n  dup2\n  shl\n  tag_0_25\n  or\n    /* \"contracts/contracts/LQTY/LockupContract.sol\":3036:3081  systemDeploymentTime.add(SECONDS_IN_ONE_YEAR) */\n  swap1\n  shr\n  jump\t// in\ntag_13:\n    /* \"contracts/contracts/LQTY/LockupContract.sol\":3021:3032  _unlockTime */\n  dup3\n    /* \"contracts/contracts/LQTY/LockupContract.sol\":3021:3081  _unlockTime >= systemDeploymentTime.add(SECONDS_IN_ONE_YEAR) */\n  lt\n  iszero\n    /* \"contracts/contracts/LQTY/LockupContract.sol\":3013:3163  require(_unlockTime >= systemDeploymentTime.add(SECONDS_IN_ONE_YEAR), \"LockupContract: unlock time must be at least one year after system deployment\") */\n  tag_15\n  jumpi\n  mload(0x40)\n  shl(0xe5, 0x461bcd)\n  dup2\n  mstore\n  0x04\n  add\n  dup1\n  dup1\n  0x20\n  add\n  dup3\n  dup2\n  sub\n  dup3\n  mstore\n  0x4d\n  dup2\n  mstore\n  0x20\n  add\n  dup1\n  data_fa7d35d8ba3cb9477f8d2991ae59b8bd5517f50c9caee3c407d66859f000d267\n  0x4d\n  swap2\n  codecopy\n  0x60\n  add\n  swap2\n  pop\n  pop\n  mload(0x40)\n  dup1\n  swap2\n  sub\n  swap1\n  revert\ntag_15:\n    /* \"contracts/contracts/LQTY/LockupContract.sol\":2834:3170  function _requireUnlockTimeIsAtLeastOneYearAfterSystemDeployment(uint _unlockTime) internal view {... */\n  pop\n  pop\n  jump\t// out\n    /* \"contracts/contracts/Dependencies/SafeMath.sol\":1005:1181  function add(uint256 a, uint256 b) internal pure returns (uint256) {... */\ntag_14:\n    /* \"contracts/contracts/Dependencies/SafeMath.sol\":1063:1070  uint256 */\n  0x00\n    /* \"contracts/contracts/Dependencies/SafeMath.sol\":1094:1099  a + b */\n  dup3\n  dup3\n  add\n    /* \"contracts/contracts/Dependencies/SafeMath.sol\":1117:1123  c >= a */\n  dup4\n  dup2\n  lt\n  iszero\n    /* \"contracts/contracts/Dependencies/SafeMath.sol\":1109:1155  require(c >= a, \"SafeMath: addition overflow\") */\n  tag_17\n  jumpi\n  0x40\n  dup1\n  mload\n  shl(0xe5, 0x461bcd)\n  dup2\n  mstore\n  0x20\n  0x04\n  dup3\n  add\n  mstore\n  0x1b\n  0x24\n  dup3\n  add\n  mstore\n  0x536166654d6174683a206164646974696f6e206f766572666c6f770000000000\n  0x44\n  dup3\n  add\n  mstore\n  swap1\n  mload\n  swap1\n  dup2\n  swap1\n  sub\n  0x64\n  add\n  swap1\n  revert\ntag_17:\n    /* \"contracts/contracts/Dependencies/SafeMath.sol\":1173:1174  c */\n  swap4\n    /* \"contracts/contracts/Dependencies/SafeMath.sol\":1005:1181  function add(uint256 a, uint256 b) internal pure returns (uint256) {... */\n  swap3\n  pop\n  pop\n  pop\n  jump\t// out\n    /* \"contracts/contracts/LQTY/LockupContract.sol\":966:3172  contract LockupContract {... */\ntag_7:\n  shr(0x60, mload(0x80))\n  codecopy(0x00, dataOffset(sub_0), dataSize(sub_0))\n  assignImmutable(\"0x0a5704b831f80607deaeb221a4d2eb7efb42b57a7915894b2d2f932b0cf5a43e\")\n  return(0x00, dataSize(sub_0))\nstop\ndata_fa7d35d8ba3cb9477f8d2991ae59b8bd5517f50c9caee3c407d66859f000d267 4c6f636b7570436f6e74726163743a20756e6c6f636b2074696d65206d757374206265206174206c65617374206f6e6520796561722061667465722073797374656d206465706c6f796d656e74\n\nsub_0: assembly {\n        /* \"contracts/contracts/LQTY/LockupContract.sol\":966:3172  contract LockupContract {... */\n      mstore(0x40, 0x80)\n      callvalue\n      dup1\n      iszero\n      tag_1\n      jumpi\n      0x00\n      dup1\n      revert\n    tag_1:\n      pop\n      jumpi(tag_2, lt(calldatasize, 0x04))\n      shr(0xe0, calldataload(0x00))\n      dup1\n      0x1f7af3c3\n      eq\n      tag_3\n      jumpi\n      dup1\n      0x251c1aa3\n      eq\n      tag_4\n      jumpi\n      dup1\n      0x38af3eed\n      eq\n      tag_5\n      jumpi\n      dup1\n      0x98e5f3c4\n      eq\n      tag_6\n      jumpi\n      dup1\n      0xa3f4df7e\n      eq\n      tag_7\n      jumpi\n      dup1\n      0xb9470a46\n      eq\n      tag_8\n      jumpi\n    tag_2:\n      0x00\n      dup1\n      revert\n        /* \"contracts/contracts/LQTY/LockupContract.sol\":1201:1228  ILQTYToken public lqtyToken */\n    tag_3:\n      tag_9\n      tag_10\n      jump\t// in\n    tag_9:\n      0x40\n      dup1\n      mload\n      sub(shl(0xa0, 0x01), 0x01)\n      swap1\n      swap3\n      and\n      dup3\n      mstore\n      mload\n      swap1\n      dup2\n      swap1\n      sub\n      0x20\n      add\n      swap1\n      return\n        /* \"contracts/contracts/LQTY/LockupContract.sol\":1319:1341  uint public unlockTime */\n    tag_4:\n      tag_11\n      tag_12\n      jump\t// in\n    tag_11:\n      0x40\n      dup1\n      mload\n      swap2\n      dup3\n      mstore\n      mload\n      swap1\n      dup2\n      swap1\n      sub\n      0x20\n      add\n      swap1\n      return\n        /* \"contracts/contracts/LQTY/LockupContract.sol\":1158:1194  address public immutable beneficiary */\n    tag_5:\n      tag_9\n      tag_14\n      jump\t// in\n        /* \"contracts/contracts/LQTY/LockupContract.sol\":1099:1150  uint constant public SECONDS_IN_ONE_YEAR = 31536000 */\n    tag_6:\n      tag_11\n      tag_16\n      jump\t// in\n        /* \"contracts/contracts/LQTY/LockupContract.sol\":1046:1092  string constant public NAME = \"LockupContract\" */\n    tag_7:\n      tag_17\n      tag_18\n      jump\t// in\n    tag_17:\n      0x40\n      dup1\n      mload\n      0x20\n      dup1\n      dup3\n      mstore\n      dup4\n      mload\n      dup2\n      dup4\n      add\n      mstore\n      dup4\n      mload\n      swap2\n      swap3\n      dup4\n      swap3\n      swap1\n      dup4\n      add\n      swap2\n      dup6\n      add\n      swap1\n      dup1\n      dup4\n      dup4\n      0x00\n    tag_19:\n      dup4\n      dup2\n      lt\n      iszero\n      tag_21\n      jumpi\n      dup2\n      dup2\n      add\n      mload\n      dup4\n      dup3\n      add\n      mstore\n      0x20\n      add\n      jump(tag_19)\n    tag_21:\n      pop\n      pop\n      pop\n      pop\n      swap1\n      pop\n      swap1\n      dup2\n      add\n      swap1\n      0x1f\n      and\n      dup1\n      iszero\n      tag_22\n      jumpi\n      dup1\n      dup3\n      sub\n      dup1\n      mload\n      0x01\n      dup4\n      0x20\n      sub\n      0x0100\n      exp\n      sub\n      not\n      and\n      dup2\n      mstore\n      0x20\n      add\n      swap2\n      pop\n    tag_22:\n      pop\n      swap3\n      pop\n      pop\n      pop\n      mload(0x40)\n      dup1\n      swap2\n      sub\n      swap1\n      return\n        /* \"contracts/contracts/LQTY/LockupContract.sol\":2110:2459  function withdrawLQTY() external {... */\n    tag_8:\n      tag_23\n      tag_24\n      jump\t// in\n    tag_23:\n      stop\n        /* \"contracts/contracts/LQTY/LockupContract.sol\":1201:1228  ILQTYToken public lqtyToken */\n    tag_10:\n      and(sub(shl(0xa0, 0x01), 0x01), sload(0x00))\n      dup2\n      jump\t// out\n        /* \"contracts/contracts/LQTY/LockupContract.sol\":1319:1341  uint public unlockTime */\n    tag_12:\n      sload(0x01)\n      dup2\n      jump\t// out\n        /* \"contracts/contracts/LQTY/LockupContract.sol\":1158:1194  address public immutable beneficiary */\n    tag_14:\n      immutable(\"0x0a5704b831f80607deaeb221a4d2eb7efb42b57a7915894b2d2f932b0cf5a43e\")\n      dup2\n      jump\t// out\n        /* \"contracts/contracts/LQTY/LockupContract.sol\":1099:1150  uint constant public SECONDS_IN_ONE_YEAR = 31536000 */\n    tag_16:\n        /* \"contracts/contracts/LQTY/LockupContract.sol\":1142:1150  31536000 */\n      0x01e13380\n        /* \"contracts/contracts/LQTY/LockupContract.sol\":1099:1150  uint constant public SECONDS_IN_ONE_YEAR = 31536000 */\n      dup2\n      jump\t// out\n        /* \"contracts/contracts/LQTY/LockupContract.sol\":1046:1092  string constant public NAME = \"LockupContract\" */\n    tag_18:\n      mload(0x40)\n      dup1\n      0x40\n      add\n      0x40\n      mstore\n      dup1\n      0x0e\n      dup2\n      mstore\n      0x20\n      add\n      shl(0x92, 0x131bd8dadd5c10dbdb9d1c9858dd)\n      dup2\n      mstore\n      pop\n      dup2\n      jump\t// out\n        /* \"contracts/contracts/LQTY/LockupContract.sol\":2110:2459  function withdrawLQTY() external {... */\n    tag_24:\n        /* \"contracts/contracts/LQTY/LockupContract.sol\":2153:2182  _requireCallerIsBeneficiary() */\n      tag_27\n        /* \"contracts/contracts/LQTY/LockupContract.sol\":2153:2180  _requireCallerIsBeneficiary */\n      tag_28\n        /* \"contracts/contracts/LQTY/LockupContract.sol\":2153:2182  _requireCallerIsBeneficiary() */\n      jump\t// in\n    tag_27:\n        /* \"contracts/contracts/LQTY/LockupContract.sol\":2192:2225  _requireLockupDurationHasPassed() */\n      tag_29\n        /* \"contracts/contracts/LQTY/LockupContract.sol\":2192:2223  _requireLockupDurationHasPassed */\n      tag_30\n        /* \"contracts/contracts/LQTY/LockupContract.sol\":2192:2225  _requireLockupDurationHasPassed() */\n      jump\t// in\n    tag_29:\n        /* \"contracts/contracts/LQTY/LockupContract.sol\":2236:2262  ILQTYToken lqtyTokenCached */\n      0x00\n        /* \"contracts/contracts/LQTY/LockupContract.sol\":2265:2274  lqtyToken */\n      dup1\n      sload\n        /* \"contracts/contracts/LQTY/LockupContract.sol\":2303:2343  lqtyTokenCached.balanceOf(address(this)) */\n      0x40\n      dup1\n      mload\n      shl(0xe0, 0x70a08231)\n      dup2\n      mstore\n        /* \"contracts/contracts/LQTY/LockupContract.sol\":2337:2341  this */\n      address\n        /* \"contracts/contracts/LQTY/LockupContract.sol\":2303:2343  lqtyTokenCached.balanceOf(address(this)) */\n      0x04\n      dup3\n      add\n      mstore\n      swap1\n      mload\n      sub(shl(0xa0, 0x01), 0x01)\n        /* \"contracts/contracts/LQTY/LockupContract.sol\":2265:2274  lqtyToken */\n      swap1\n      swap3\n      and\n      swap3\n        /* \"contracts/contracts/LQTY/LockupContract.sol\":2236:2262  ILQTYToken lqtyTokenCached */\n      swap2\n        /* \"contracts/contracts/LQTY/LockupContract.sol\":2265:2274  lqtyToken */\n      dup4\n      swap2\n        /* \"contracts/contracts/LQTY/LockupContract.sol\":2303:2328  lqtyTokenCached.balanceOf */\n      0x70a08231\n      swap2\n        /* \"contracts/contracts/LQTY/LockupContract.sol\":2303:2343  lqtyTokenCached.balanceOf(address(this)) */\n      0x24\n      dup1\n      dup4\n      add\n      swap3\n      0x20\n      swap3\n      swap2\n      swap1\n      dup3\n      swap1\n      sub\n      add\n      dup2\n        /* \"contracts/contracts/LQTY/LockupContract.sol\":2265:2274  lqtyToken */\n      dup7\n        /* \"contracts/contracts/LQTY/LockupContract.sol\":2303:2343  lqtyTokenCached.balanceOf(address(this)) */\n      dup1\n      extcodesize\n      iszero\n      dup1\n      iszero\n      tag_31\n      jumpi\n      0x00\n      dup1\n      revert\n    tag_31:\n      pop\n      gas\n      staticcall\n      iszero\n      dup1\n      iszero\n      tag_33\n      jumpi\n      returndatasize\n      0x00\n      dup1\n      returndatacopy\n      revert(0x00, returndatasize)\n    tag_33:\n      pop\n      pop\n      pop\n      pop\n      mload(0x40)\n      returndatasize\n      0x20\n      dup2\n      lt\n      iszero\n      tag_34\n      jumpi\n      0x00\n      dup1\n      revert\n    tag_34:\n      pop\n      mload\n        /* \"contracts/contracts/LQTY/LockupContract.sol\":2353:2403  lqtyTokenCached.transfer(beneficiary, LQTYBalance) */\n      0x40\n      dup1\n      mload\n      shl(0xe0, 0xa9059cbb)\n      dup2\n      mstore\n      sub(shl(0xa0, 0x01), 0x01)\n        /* \"contracts/contracts/LQTY/LockupContract.sol\":2378:2389  beneficiary */\n      immutable(\"0x0a5704b831f80607deaeb221a4d2eb7efb42b57a7915894b2d2f932b0cf5a43e\")\n        /* \"contracts/contracts/LQTY/LockupContract.sol\":2353:2403  lqtyTokenCached.transfer(beneficiary, LQTYBalance) */\n      dup2\n      and\n      0x04\n      dup4\n      add\n      mstore\n      0x24\n      dup3\n      add\n      dup5\n      swap1\n      mstore\n      swap2\n      mload\n        /* \"contracts/contracts/LQTY/LockupContract.sol\":2303:2343  lqtyTokenCached.balanceOf(address(this)) */\n      swap3\n      swap4\n      pop\n        /* \"contracts/contracts/LQTY/LockupContract.sol\":2353:2377  lqtyTokenCached.transfer */\n      swap1\n      dup5\n      and\n      swap2\n      0xa9059cbb\n      swap2\n        /* \"contracts/contracts/LQTY/LockupContract.sol\":2353:2403  lqtyTokenCached.transfer(beneficiary, LQTYBalance) */\n      0x44\n      dup1\n      dup3\n      add\n      swap3\n        /* \"contracts/contracts/LQTY/LockupContract.sol\":2303:2343  lqtyTokenCached.balanceOf(address(this)) */\n      0x20\n      swap3\n        /* \"contracts/contracts/LQTY/LockupContract.sol\":2353:2403  lqtyTokenCached.transfer(beneficiary, LQTYBalance) */\n      swap1\n      swap2\n      swap1\n      dup3\n      swap1\n      sub\n      add\n      dup2\n      0x00\n        /* \"contracts/contracts/LQTY/LockupContract.sol\":2353:2377  lqtyTokenCached.transfer */\n      dup8\n        /* \"contracts/contracts/LQTY/LockupContract.sol\":2353:2403  lqtyTokenCached.transfer(beneficiary, LQTYBalance) */\n      dup1\n      extcodesize\n      iszero\n      dup1\n      iszero\n      tag_35\n      jumpi\n      0x00\n      dup1\n      revert\n    tag_35:\n      pop\n      gas\n      call\n      iszero\n      dup1\n      iszero\n      tag_37\n      jumpi\n      returndatasize\n      0x00\n      dup1\n      returndatacopy\n      revert(0x00, returndatasize)\n    tag_37:\n      pop\n      pop\n      pop\n      pop\n      mload(0x40)\n      returndatasize\n      0x20\n      dup2\n      lt\n      iszero\n      tag_38\n      jumpi\n      0x00\n      dup1\n      revert\n    tag_38:\n      pop\n      pop\n        /* \"contracts/contracts/LQTY/LockupContract.sol\":2418:2452  LockupContractEmptied(LQTYBalance) */\n      0x40\n      dup1\n      mload\n      dup3\n      dup2\n      mstore\n      swap1\n      mload\n      0x7d17cbc0f78ccfed33842dd29dab2872e8347bf3981293ab2cfe35ca16371a2f\n      swap2\n      dup2\n      swap1\n      sub\n        /* \"contracts/contracts/LQTY/LockupContract.sol\":2353:2403  lqtyTokenCached.transfer(beneficiary, LQTYBalance) */\n      0x20\n        /* \"contracts/contracts/LQTY/LockupContract.sol\":2418:2452  LockupContractEmptied(LQTYBalance) */\n      add\n      swap1\n      log1\n        /* \"contracts/contracts/LQTY/LockupContract.sol\":2110:2459  function withdrawLQTY() external {... */\n      pop\n      pop\n      jump\t// out\n        /* \"contracts/contracts/Dependencies/SafeMath.sol\":1005:1181  function add(uint256 a, uint256 b) internal pure returns (uint256) {... */\n    tag_25:\n        /* \"contracts/contracts/Dependencies/SafeMath.sol\":1063:1070  uint256 */\n      0x00\n        /* \"contracts/contracts/Dependencies/SafeMath.sol\":1094:1099  a + b */\n      dup3\n      dup3\n      add\n        /* \"contracts/contracts/Dependencies/SafeMath.sol\":1117:1123  c >= a */\n      dup4\n      dup2\n      lt\n      iszero\n        /* \"contracts/contracts/Dependencies/SafeMath.sol\":1109:1155  require(c >= a, \"SafeMath: addition overflow\") */\n      tag_40\n      jumpi\n      0x40\n      dup1\n      mload\n      shl(0xe5, 0x461bcd)\n      dup2\n      mstore\n      0x20\n      0x04\n      dup3\n      add\n      mstore\n      0x1b\n      0x24\n      dup3\n      add\n      mstore\n      shl(0x28, 0x536166654d6174683a206164646974696f6e206f766572666c6f77)\n      0x44\n      dup3\n      add\n      mstore\n      swap1\n      mload\n      swap1\n      dup2\n      swap1\n      sub\n      0x64\n      add\n      swap1\n      revert\n    tag_40:\n        /* \"contracts/contracts/Dependencies/SafeMath.sol\":1173:1174  c */\n      swap4\n        /* \"contracts/contracts/Dependencies/SafeMath.sol\":1005:1181  function add(uint256 a, uint256 b) internal pure returns (uint256) {... */\n      swap3\n      pop\n      pop\n      pop\n      jump\t// out\n        /* \"contracts/contracts/LQTY/LockupContract.sol\":2501:2654  function _requireCallerIsBeneficiary() internal view {... */\n    tag_28:\n        /* \"contracts/contracts/LQTY/LockupContract.sol\":2572:2582  msg.sender */\n      caller\n      sub(shl(0xa0, 0x01), 0x01)\n        /* \"contracts/contracts/LQTY/LockupContract.sol\":2586:2597  beneficiary */\n      immutable(\"0x0a5704b831f80607deaeb221a4d2eb7efb42b57a7915894b2d2f932b0cf5a43e\")\n        /* \"contracts/contracts/LQTY/LockupContract.sol\":2572:2597  msg.sender == beneficiary */\n      and\n      eq\n        /* \"contracts/contracts/LQTY/LockupContract.sol\":2564:2647  require(msg.sender == beneficiary, \"LockupContract: caller is not the beneficiary\") */\n      tag_42\n      jumpi\n      mload(0x40)\n      shl(0xe5, 0x461bcd)\n      dup2\n      mstore\n      0x04\n      add\n      dup1\n      dup1\n      0x20\n      add\n      dup3\n      dup2\n      sub\n      dup3\n      mstore\n      0x2d\n      dup2\n      mstore\n      0x20\n      add\n      dup1\n      data_6f5fe979492a2f2b3c19a6f112e727f4f83bf91814c82ad68c2db485f3e9d318\n      0x2d\n      swap2\n      codecopy\n      0x40\n      add\n      swap2\n      pop\n      pop\n      mload(0x40)\n      dup1\n      swap2\n      sub\n      swap1\n      revert\n    tag_42:\n        /* \"contracts/contracts/LQTY/LockupContract.sol\":2501:2654  function _requireCallerIsBeneficiary() internal view {... */\n      jump\t// out\n        /* \"contracts/contracts/LQTY/LockupContract.sol\":2660:2828  function _requireLockupDurationHasPassed() internal view {... */\n    tag_30:\n        /* \"contracts/contracts/LQTY/LockupContract.sol\":2754:2764  unlockTime */\n      sload(0x01)\n        /* \"contracts/contracts/LQTY/LockupContract.sol\":2735:2750  block.timestamp */\n      timestamp\n        /* \"contracts/contracts/LQTY/LockupContract.sol\":2735:2764  block.timestamp >= unlockTime */\n      lt\n      iszero\n        /* \"contracts/contracts/LQTY/LockupContract.sol\":2727:2821  require(block.timestamp >= unlockTime, \"LockupContract: The lockup duration must have passed\") */\n      tag_42\n      jumpi\n      mload(0x40)\n      shl(0xe5, 0x461bcd)\n      dup2\n      mstore\n      0x04\n      add\n      dup1\n      dup1\n      0x20\n      add\n      dup3\n      dup2\n      sub\n      dup3\n      mstore\n      0x34\n      dup2\n      mstore\n      0x20\n      add\n      dup1\n      data_167fa4388ff18b329f1218be189e73142e4068aca57040f1c4871fc96244dff5\n      0x34\n      swap2\n      codecopy\n      0x40\n      add\n      swap2\n      pop\n      pop\n      mload(0x40)\n      dup1\n      swap2\n      sub\n      swap1\n      revert\n    stop\n    data_167fa4388ff18b329f1218be189e73142e4068aca57040f1c4871fc96244dff5 4c6f636b7570436f6e74726163743a20546865206c6f636b7570206475726174696f6e206d757374206861766520706173736564\n    data_6f5fe979492a2f2b3c19a6f112e727f4f83bf91814c82ad68c2db485f3e9d318 4c6f636b7570436f6e74726163743a2063616c6c6572206973206e6f74207468652062656e6566696369617279\n\n    auxdata: 0xa264697066735822122055133c497278793adc27c7bf8747eb013fdf258611c2d5e0e5ac3cf27f4fcbfe64736f6c634300060b0033\n}\n",
				"bytecode": {
					"linkReferences": {},
					"object": "60a060405234801561001057600080fd5b506040516107223803806107228339818101604052606081101561003357600080fd5b5080516020820151604090920151600080546001600160a01b0319166001600160a01b038416179055909190610068816100cb565b60018190556001600160601b0319606083901b16608052604080516001600160a01b03841681526020810183905281517f5faee922186516bf77266643c1fda130acefc439d571400e8697106c6aed9b54929181900390910190a1505050610204565b60008060009054906101000a90046001600160a01b03166001600160a01b0316633c84b7c26040518163ffffffff1660e01b815260040160206040518083038186803b15801561011a57600080fd5b505afa15801561012e573d6000803e3d6000fd5b505050506040513d602081101561014457600080fd5b50519050610161816301e133806101a3602090811b61030a17901c565b82101561019f5760405162461bcd60e51b815260040180806020018281038252604d8152602001806106d5604d913960600191505060405180910390fd5b5050565b6000828201838110156101fd576040805162461bcd60e51b815260206004820152601b60248201527f536166654d6174683a206164646974696f6e206f766572666c6f770000000000604482015290519081900360640190fd5b9392505050565b60805160601c6104aa61022b600039806101535280610249528061037452506104aa6000f3fe608060405234801561001057600080fd5b50600436106100625760003560e01c80631f7af3c314610067578063251c1aa31461008b57806338af3eed146100a557806398e5f3c4146100ad578063a3f4df7e146100b5578063b9470a4614610132575b600080fd5b61006f61013c565b604080516001600160a01b039092168252519081900360200190f35b61009361014b565b60408051918252519081900360200190f35b61006f610151565b610093610175565b6100bd61017d565b6040805160208082528351818301528351919283929083019185019080838360005b838110156100f75781810151838201526020016100df565b50505050905090810190601f1680156101245780820380516001836020036101000a031916815260200191505b509250505060405180910390f35b61013a6101a7565b005b6000546001600160a01b031681565b60015481565b7f000000000000000000000000000000000000000000000000000000000000000081565b6301e1338081565b6040518060400160405280600e81526020016d131bd8dadd5c10dbdb9d1c9858dd60921b81525081565b6101af610369565b6101b76103d2565b60008054604080516370a0823160e01b815230600482015290516001600160a01b03909216929183916370a08231916024808301926020929190829003018186803b15801561020557600080fd5b505afa158015610219573d6000803e3d6000fd5b505050506040513d602081101561022f57600080fd5b50516040805163a9059cbb60e01b81526001600160a01b037f0000000000000000000000000000000000000000000000000000000000000000811660048301526024820184905291519293509084169163a9059cbb916044808201926020929091908290030181600087803b1580156102a757600080fd5b505af11580156102bb573d6000803e3d6000fd5b505050506040513d60208110156102d157600080fd5b50506040805182815290517f7d17cbc0f78ccfed33842dd29dab2872e8347bf3981293ab2cfe35ca16371a2f9181900360200190a15050565b600082820183811015610362576040805162461bcd60e51b815260206004820152601b60248201527a536166654d6174683a206164646974696f6e206f766572666c6f7760281b604482015290519081900360640190fd5b9392505050565b336001600160a01b037f000000000000000000000000000000000000000000000000000000000000000016146103d05760405162461bcd60e51b815260040180806020018281038252602d815260200180610448602d913960400191505060405180910390fd5b565b6001544210156103d05760405162461bcd60e51b81526004018080602001828103825260348152602001806104146034913960400191505060405180910390fdfe4c6f636b7570436f6e74726163743a20546865206c6f636b7570206475726174696f6e206d7573742068617665207061737365644c6f636b7570436f6e74726163743a2063616c6c6572206973206e6f74207468652062656e6566696369617279a264697066735822122055133c497278793adc27c7bf8747eb013fdf258611c2d5e0e5ac3cf27f4fcbfe64736f6c634300060b00334c6f636b7570436f6e74726163743a20756e6c6f636b2074696d65206d757374206265206174206c65617374206f6e6520796561722061667465722073797374656d206465706c6f796d656e74",
					"opcodes": "PUSH1 0xA0 PUSH1 0x40 MSTORE CALLVALUE DUP1 ISZERO PUSH2 0x10 JUMPI PUSH1 0x0 DUP1 REVERT JUMPDEST POP PUSH1 0x40 MLOAD PUSH2 0x722 CODESIZE SUB DUP1 PUSH2 0x722 DUP4 CODECOPY DUP2 DUP2 ADD PUSH1 0x40 MSTORE PUSH1 0x60 DUP2 LT ISZERO PUSH2 0x33 JUMPI PUSH1 0x0 DUP1 REVERT JUMPDEST POP DUP1 MLOAD PUSH1 0x20 DUP3 ADD MLOAD PUSH1 0x40 SWAP1 SWAP3 ADD MLOAD PUSH1 0x0 DUP1 SLOAD PUSH1 0x1 PUSH1 0x1 PUSH1 0xA0 SHL SUB NOT AND PUSH1 0x1 PUSH1 0x1 PUSH1 0xA0 SHL SUB DUP5 AND OR SWAP1 SSTORE SWAP1 SWAP2 SWAP1 PUSH2 0x68 DUP2 PUSH2 0xCB JUMP JUMPDEST PUSH1 0x1 DUP2 SWAP1 SSTORE PUSH1 0x1 PUSH1 0x1 PUSH1 0x60 SHL SUB NOT PUSH1 0x60 DUP4 SWAP1 SHL AND PUSH1 0x80 MSTORE PUSH1 0x40 DUP1 MLOAD PUSH1 0x1 PUSH1 0x1 PUSH1 0xA0 SHL SUB DUP5 AND DUP2 MSTORE PUSH1 0x20 DUP2 ADD DUP4 SWAP1 MSTORE DUP2 MLOAD PUSH32 0x5FAEE922186516BF77266643C1FDA130ACEFC439D571400E8697106C6AED9B54 SWAP3 SWAP2 DUP2 SWAP1 SUB SWAP1 SWAP2 ADD SWAP1 LOG1 POP POP POP PUSH2 0x204 JUMP JUMPDEST PUSH1 0x0 DUP1 PUSH1 0x0 SWAP1 SLOAD SWAP1 PUSH2 0x100 EXP SWAP1 DIV PUSH1 0x1 PUSH1 0x1 PUSH1 0xA0 SHL SUB AND PUSH1 0x1 PUSH1 0x1 PUSH1 0xA0 SHL SUB AND PUSH4 0x3C84B7C2 PUSH1 0x40 MLOAD DUP2 PUSH4 0xFFFFFFFF AND PUSH1 0xE0 SHL DUP2 MSTORE PUSH1 0x4 ADD PUSH1 0x20 PUSH1 0x40 MLOAD DUP1 DUP4 SUB DUP2 DUP7 DUP1 EXTCODESIZE ISZERO DUP1 ISZERO PUSH2 0x11A JUMPI PUSH1 0x0 DUP1 REVERT JUMPDEST POP GAS STATICCALL ISZERO DUP1 ISZERO PUSH2 0x12E JUMPI RETURNDATASIZE PUSH1 0x0 DUP1 RETURNDATACOPY RETURNDATASIZE PUSH1 0x0 REVERT JUMPDEST POP POP POP POP PUSH1 0x40 MLOAD RETURNDATASIZE PUSH1 0x20 DUP2 LT ISZERO PUSH2 0x144 JUMPI PUSH1 0x0 DUP1 REVERT JUMPDEST POP MLOAD SWAP1 POP PUSH2 0x161 DUP2 PUSH4 0x1E13380 PUSH2 0x1A3 PUSH1 0x20 SWAP1 DUP2 SHL PUSH2 0x30A OR SWAP1 SHR JUMP JUMPDEST DUP3 LT ISZERO PUSH2 0x19F JUMPI PUSH1 0x40 MLOAD PUSH3 0x461BCD PUSH1 0xE5 SHL DUP2 MSTORE PUSH1 0x4 ADD DUP1 DUP1 PUSH1 0x20 ADD DUP3 DUP2 SUB DUP3 MSTORE PUSH1 0x4D DUP2 MSTORE PUSH1 0x20 ADD DUP1 PUSH2 0x6D5 PUSH1 0x4D SWAP2 CODECOPY PUSH1 0x60 ADD SWAP2 POP POP PUSH1 0x40 MLOAD DUP1 SWAP2 SUB SWAP1 REVERT JUMPDEST POP POP JUMP JUMPDEST PUSH1 0x0 DUP3 DUP3 ADD DUP4 DUP2 LT ISZERO PUSH2 0x1FD JUMPI PUSH1 0x40 DUP1 MLOAD PUSH3 0x461BCD PUSH1 0xE5 SHL DUP2 MSTORE PUSH1 0x20 PUSH1 0x4 DUP3 ADD MSTORE PUSH1 0x1B PUSH1 0x24 DUP3 ADD MSTORE PUSH32 0x536166654D6174683A206164646974696F6E206F766572666C6F770000000000 PUSH1 0x44 DUP3 ADD MSTORE SWAP1 MLOAD SWAP1 DUP2 SWAP1 SUB PUSH1 0x64 ADD SWAP1 REVERT JUMPDEST SWAP4 SWAP3 POP POP POP JUMP JUMPDEST PUSH1 0x80 MLOAD PUSH1 0x60 SHR PUSH2 0x4AA PUSH2 0x22B PUSH1 0x0 CODECOPY DUP1 PUSH2 0x153 MSTORE DUP1 PUSH2 0x249 MSTORE DUP1 PUSH2 0x374 MSTORE POP PUSH2 0x4AA PUSH1 0x0 RETURN INVALID PUSH1 0x80 PUSH1 0x40 MSTORE CALLVALUE DUP1 ISZERO PUSH2 0x10 JUMPI PUSH1 0x0 DUP1 REVERT JUMPDEST POP PUSH1 0x4 CALLDATASIZE LT PUSH2 0x62 JUMPI PUSH1 0x0 CALLDATALOAD PUSH1 0xE0 SHR DUP1 PUSH4 0x1F7AF3C3 EQ PUSH2 0x67 JUMPI DUP1 PUSH4 0x251C1AA3 EQ PUSH2 0x8B JUMPI DUP1 PUSH4 0x38AF3EED EQ PUSH2 0xA5 JUMPI DUP1 PUSH4 0x98E5F3C4 EQ PUSH2 0xAD JUMPI DUP1 PUSH4 0xA3F4DF7E EQ PUSH2 0xB5 JUMPI DUP1 PUSH4 0xB9470A46 EQ PUSH2 0x132 JUMPI JUMPDEST PUSH1 0x0 DUP1 REVERT JUMPDEST PUSH2 0x6F PUSH2 0x13C JUMP JUMPDEST PUSH1 0x40 DUP1 MLOAD PUSH1 0x1 PUSH1 0x1 PUSH1 0xA0 SHL SUB SWAP1 SWAP3 AND DUP3 MSTORE MLOAD SWAP1 DUP2 SWAP1 SUB PUSH1 0x20 ADD SWAP1 RETURN JUMPDEST PUSH2 0x93 PUSH2 0x14B JUMP JUMPDEST PUSH1 0x40 DUP1 MLOAD SWAP2 DUP3 MSTORE MLOAD SWAP1 DUP2 SWAP1 SUB PUSH1 0x20 ADD SWAP1 RETURN JUMPDEST PUSH2 0x6F PUSH2 0x151 JUMP JUMPDEST PUSH2 0x93 PUSH2 0x175 JUMP JUMPDEST PUSH2 0xBD PUSH2 0x17D JUMP JUMPDEST PUSH1 0x40 DUP1 MLOAD PUSH1 0x20 DUP1 DUP3 MSTORE DUP4 MLOAD DUP2 DUP4 ADD MSTORE DUP4 MLOAD SWAP2 SWAP3 DUP4 SWAP3 SWAP1 DUP4 ADD SWAP2 DUP6 ADD SWAP1 DUP1 DUP4 DUP4 PUSH1 0x0 JUMPDEST DUP4 DUP2 LT ISZERO PUSH2 0xF7 JUMPI DUP2 DUP2 ADD MLOAD DUP4 DUP3 ADD MSTORE PUSH1 0x20 ADD PUSH2 0xDF JUMP JUMPDEST POP POP POP POP SWAP1 POP SWAP1 DUP2 ADD SWAP1 PUSH1 0x1F AND DUP1 ISZERO PUSH2 0x124 JUMPI DUP1 DUP3 SUB DUP1 MLOAD PUSH1 0x1 DUP4 PUSH1 0x20 SUB PUSH2 0x100 EXP SUB NOT AND DUP2 MSTORE PUSH1 0x20 ADD SWAP2 POP JUMPDEST POP SWAP3 POP POP POP PUSH1 0x40 MLOAD DUP1 SWAP2 SUB SWAP1 RETURN JUMPDEST PUSH2 0x13A PUSH2 0x1A7 JUMP JUMPDEST STOP JUMPDEST PUSH1 0x0 SLOAD PUSH1 0x1 PUSH1 0x1 PUSH1 0xA0 SHL SUB AND DUP2 JUMP JUMPDEST PUSH1 0x1 SLOAD DUP2 JUMP JUMPDEST PUSH32 0x0 DUP2 JUMP JUMPDEST PUSH4 0x1E13380 DUP2 JUMP JUMPDEST PUSH1 0x40 MLOAD DUP1 PUSH1 0x40 ADD PUSH1 0x40 MSTORE DUP1 PUSH1 0xE DUP2 MSTORE PUSH1 0x20 ADD PUSH14 0x131BD8DADD5C10DBDB9D1C9858DD PUSH1 0x92 SHL DUP2 MSTORE POP DUP2 JUMP JUMPDEST PUSH2 0x1AF PUSH2 0x369 JUMP JUMPDEST PUSH2 0x1B7 PUSH2 0x3D2 JUMP JUMPDEST PUSH1 0x0 DUP1 SLOAD PUSH1 0x40 DUP1 MLOAD PUSH4 0x70A08231 PUSH1 0xE0 SHL DUP2 MSTORE ADDRESS PUSH1 0x4 DUP3 ADD MSTORE SWAP1 MLOAD PUSH1 0x1 PUSH1 0x1 PUSH1 0xA0 SHL SUB SWAP1 SWAP3 AND SWAP3 SWAP2 DUP4 SWAP2 PUSH4 0x70A08231 SWAP2 PUSH1 0x24 DUP1 DUP4 ADD SWAP3 PUSH1 0x20 SWAP3 SWAP2 SWAP1 DUP3 SWAP1 SUB ADD DUP2 DUP7 DUP1 EXTCODESIZE ISZERO DUP1 ISZERO PUSH2 0x205 JUMPI PUSH1 0x0 DUP1 REVERT JUMPDEST POP GAS STATICCALL ISZERO DUP1 ISZERO PUSH2 0x219 JUMPI RETURNDATASIZE PUSH1 0x0 DUP1 RETURNDATACOPY RETURNDATASIZE PUSH1 0x0 REVERT JUMPDEST POP POP POP POP PUSH1 0x40 MLOAD RETURNDATASIZE PUSH1 0x20 DUP2 LT ISZERO PUSH2 0x22F JUMPI PUSH1 0x0 DUP1 REVERT JUMPDEST POP MLOAD PUSH1 0x40 DUP1 MLOAD PUSH4 0xA9059CBB PUSH1 0xE0 SHL DUP2 MSTORE PUSH1 0x1 PUSH1 0x1 PUSH1 0xA0 SHL SUB PUSH32 0x0 DUP2 AND PUSH1 0x4 DUP4 ADD MSTORE PUSH1 0x24 DUP3 ADD DUP5 SWAP1 MSTORE SWAP2 MLOAD SWAP3 SWAP4 POP SWAP1 DUP5 AND SWAP2 PUSH4 0xA9059CBB SWAP2 PUSH1 0x44 DUP1 DUP3 ADD SWAP3 PUSH1 0x20 SWAP3 SWAP1 SWAP2 SWAP1 DUP3 SWAP1 SUB ADD DUP2 PUSH1 0x0 DUP8 DUP1 EXTCODESIZE ISZERO DUP1 ISZERO PUSH2 0x2A7 JUMPI PUSH1 0x0 DUP1 REVERT JUMPDEST POP GAS CALL ISZERO DUP1 ISZERO PUSH2 0x2BB JUMPI RETURNDATASIZE PUSH1 0x0 DUP1 RETURNDATACOPY RETURNDATASIZE PUSH1 0x0 REVERT JUMPDEST POP POP POP POP PUSH1 0x40 MLOAD RETURNDATASIZE PUSH1 0x20 DUP2 LT ISZERO PUSH2 0x2D1 JUMPI PUSH1 0x0 DUP1 REVERT JUMPDEST POP POP PUSH1 0x40 DUP1 MLOAD DUP3 DUP2 MSTORE SWAP1 MLOAD PUSH32 0x7D17CBC0F78CCFED33842DD29DAB2872E8347BF3981293AB2CFE35CA16371A2F SWAP2 DUP2 SWAP1 SUB PUSH1 0x20 ADD SWAP1 LOG1 POP POP JUMP JUMPDEST PUSH1 0x0 DUP3 DUP3 ADD DUP4 DUP2 LT ISZERO PUSH2 0x362 JUMPI PUSH1 0x40 DUP1 MLOAD PUSH3 0x461BCD PUSH1 0xE5 SHL DUP2 MSTORE PUSH1 0x20 PUSH1 0x4 DUP3 ADD MSTORE PUSH1 0x1B PUSH1 0x24 DUP3 ADD MSTORE PUSH27 0x536166654D6174683A206164646974696F6E206F766572666C6F77 PUSH1 0x28 SHL PUSH1 0x44 DUP3 ADD MSTORE SWAP1 MLOAD SWAP1 DUP2 SWAP1 SUB PUSH1 0x64 ADD SWAP1 REVERT JUMPDEST SWAP4 SWAP3 POP POP POP JUMP JUMPDEST CALLER PUSH1 0x1 PUSH1 0x1 PUSH1 0xA0 SHL SUB PUSH32 0x0 AND EQ PUSH2 0x3D0 JUMPI PUSH1 0x40 MLOAD PUSH3 0x461BCD PUSH1 0xE5 SHL DUP2 MSTORE PUSH1 0x4 ADD DUP1 DUP1 PUSH1 0x20 ADD DUP3 DUP2 SUB DUP3 MSTORE PUSH1 0x2D DUP2 MSTORE PUSH1 0x20 ADD DUP1 PUSH2 0x448 PUSH1 0x2D SWAP2 CODECOPY PUSH1 0x40 ADD SWAP2 POP POP PUSH1 0x40 MLOAD DUP1 SWAP2 SUB SWAP1 REVERT JUMPDEST JUMP JUMPDEST PUSH1 0x1 SLOAD TIMESTAMP LT ISZERO PUSH2 0x3D0 JUMPI PUSH1 0x40 MLOAD PUSH3 0x461BCD PUSH1 0xE5 SHL DUP2 MSTORE PUSH1 0x4 ADD DUP1 DUP1 PUSH1 0x20 ADD DUP3 DUP2 SUB DUP3 MSTORE PUSH1 0x34 DUP2 MSTORE PUSH1 0x20 ADD DUP1 PUSH2 0x414 PUSH1 0x34 SWAP2 CODECOPY PUSH1 0x40 ADD SWAP2 POP POP PUSH1 0x40 MLOAD DUP1 SWAP2 SUB SWAP1 REVERT INVALID 0x4C PUSH16 0x636B7570436F6E74726163743A205468 PUSH6 0x206C6F636B75 PUSH17 0x206475726174696F6E206D757374206861 PUSH23 0x65207061737365644C6F636B7570436F6E74726163743A KECCAK256 PUSH4 0x616C6C65 PUSH19 0x206973206E6F74207468652062656E65666963 PUSH10 0x617279A2646970667358 0x22 SLT KECCAK256 SSTORE SGT EXTCODECOPY 0x49 PUSH19 0x78793ADC27C7BF8747EB013FDF258611C2D5E0 0xE5 0xAC EXTCODECOPY CALLCODE PUSH32 0x4FCBFE64736F6C634300060B00334C6F636B7570436F6E74726163743A20756E PUSH13 0x6F636B2074696D65206D757374 KECCAK256 PUSH3 0x652061 PUSH21 0x206C65617374206F6E652079656172206166746572 KECCAK256 PUSH20 0x797374656D206465706C6F796D656E7400000000 "
				},
				"gasEstimates": {
					"creation": {
						"codeDepositCost": "238800",
						"executionCost": "infinite",
						"totalCost": "infinite"
					},
					"external": {
						"NAME()": "infinite",
						"SECONDS_IN_ONE_YEAR()": "242",
						"beneficiary()": "infinite",
						"lqtyToken()": "1015",
						"unlockTime()": "998",
						"withdrawLQTY()": "infinite"
					},
					"internal": {
						"_requireCallerIsBeneficiary()": "infinite",
						"_requireLockupDurationHasPassed()": "infinite",
						"_requireUnlockTimeIsAtLeastOneYearAfterSystemDeployment(uint256)": "infinite"
					}
				},
				"methodIdentifiers": {
					"NAME()": "a3f4df7e",
					"SECONDS_IN_ONE_YEAR()": "98e5f3c4",
					"beneficiary()": "38af3eed",
					"lqtyToken()": "1f7af3c3",
					"unlockTime()": "251c1aa3",
					"withdrawLQTY()": "b9470a46"
				}
			},
			"storageLayout": {
				"storage": [
					{
						"astId": 401,
						"contract": "contracts/contracts/LQTY/LockupContract.sol:LockupContract",
						"label": "lqtyToken",
						"offset": 0,
						"slot": "0",
						"type": "t_contract(ILQTYToken)384"
					},
					{
						"astId": 403,
						"contract": "contracts/contracts/LQTY/LockupContract.sol:LockupContract",
						"label": "unlockTime",
						"offset": 0,
						"slot": "1",
						"type": "t_uint256"
					}
				],
				"types": {
					"t_contract(ILQTYToken)384": {
						"encoding": "inplace",
						"label": "contract ILQTYToken",
						"numberOfBytes": "20"
					},
					"t_uint256": {
						"encoding": "inplace",
						"label": "uint256",
						"numberOfBytes": "32"
					}
				}
			},
			"userdoc": {
				"kind": "user",
				"methods": {},
				"version": 1
			}
		}
	}
}