{
	"contracts/LQTY/LockupContract.sol": {
		"LockupContract": {
			"abi": [
				{
					"inputs": [
						{
							"internalType": "address",
							"name": "_lqtyTokenAddress",
							"type": "address"
						},
						{
							"internalType": "address",
							"name": "_beneficiary",
							"type": "address"
						},
						{
							"internalType": "uint256",
							"name": "_unlockTime",
							"type": "uint256"
						}
					],
					"stateMutability": "nonpayable",
					"type": "constructor"
				},
				{
					"anonymous": false,
					"inputs": [
						{
							"indexed": false,
							"internalType": "address",
							"name": "_beneficiary",
							"type": "address"
						},
						{
							"indexed": false,
							"internalType": "uint256",
							"name": "_unlockTime",
							"type": "uint256"
						}
					],
					"name": "LockupContractCreated",
					"type": "event"
				},
				{
					"anonymous": false,
					"inputs": [
						{
							"indexed": false,
							"internalType": "uint256",
							"name": "_LQTYwithdrawal",
							"type": "uint256"
						}
					],
					"name": "LockupContractEmptied",
					"type": "event"
				},
				{
					"inputs": [],
					"name": "NAME",
					"outputs": [
						{
							"internalType": "string",
							"name": "",
							"type": "string"
						}
					],
					"stateMutability": "view",
					"type": "function"
				},
				{
					"inputs": [],
					"name": "SECONDS_IN_ONE_YEAR",
					"outputs": [
						{
							"internalType": "uint256",
							"name": "",
							"type": "uint256"
						}
					],
					"stateMutability": "view",
					"type": "function"
				},
				{
					"inputs": [],
					"name": "beneficiary",
					"outputs": [
						{
							"internalType": "address",
							"name": "",
							"type": "address"
						}
					],
					"stateMutability": "view",
					"type": "function"
				},
				{
					"inputs": [],
					"name": "lqtyToken",
					"outputs": [
						{
							"internalType": "contract ILQTYToken",
							"name": "",
							"type": "address"
						}
					],
					"stateMutability": "view",
					"type": "function"
				},
				{
					"inputs": [],
					"name": "unlockTime",
					"outputs": [
						{
							"internalType": "uint256",
							"name": "",
							"type": "uint256"
						}
					],
					"stateMutability": "view",
					"type": "function"
				},
				{
					"inputs": [],
					"name": "withdrawLQTY",
					"outputs": [],
					"stateMutability": "nonpayable",
					"type": "function"
				}
			],
			"devdoc": {
				"kind": "dev",
				"methods": {},
				"version": 1
			},
			"evm": {
				"assembly": "    /* \"contracts/LQTY/LockupContract.sol\":966:3156  contract LockupContract {... */\n  mstore(0x40, 0xa0)\n    /* \"contracts/LQTY/LockupContract.sol\":1526:2088  constructor ... */\n  callvalue\n  dup1\n  iszero\n  tag_1\n  jumpi\n  0x00\n  dup1\n  revert\ntag_1:\n  pop\n  mload(0x40)\n  sub(codesize, bytecodeSize)\n  dup1\n  bytecodeSize\n  dup4\n  codecopy\n  dup2\n  add\n  0x40\n  dup2\n  swap1\n  mstore\n  tag_2\n  swap2\n  tag_3\n  jump\t// in\ntag_2:\n    /* \"contracts/LQTY/LockupContract.sol\":1657:1666  lqtyToken */\n  0x00\n    /* \"contracts/LQTY/LockupContract.sol\":1657:1698  lqtyToken = ILQTYToken(_lqtyTokenAddress) */\n  dup1\n  sload\n  not(sub(shl(0xa0, 0x01), 0x01))\n  and\n  sub(shl(0xa0, 0x01), 0x01)\n  dup6\n  and\n  or\n  swap1\n  sstore\n    /* \"contracts/LQTY/LockupContract.sol\":1870:1938  _requireUnlockTimeIsAtLeastOneYearAfterSystemDeployment(_unlockTime) */\n  tag_6\n    /* \"contracts/LQTY/LockupContract.sol\":1926:1937  _unlockTime */\n  dup2\n    /* \"contracts/LQTY/LockupContract.sol\":1870:1925  _requireUnlockTimeIsAtLeastOneYearAfterSystemDeployment */\n  tag_7\n    /* \"contracts/LQTY/LockupContract.sol\":1870:1938  _requireUnlockTimeIsAtLeastOneYearAfterSystemDeployment(_unlockTime) */\n  jump\t// in\ntag_6:\n    /* \"contracts/LQTY/LockupContract.sol\":1948:1958  unlockTime */\n  0x01\n    /* \"contracts/LQTY/LockupContract.sol\":1948:1972  unlockTime = _unlockTime */\n  dup2\n  swap1\n  sstore\n  sub(shl(0xa0, 0x01), 0x01)\n    /* \"contracts/LQTY/LockupContract.sol\":1991:2018  beneficiary =  _beneficiary */\n  dup3\n  and\n  0x80\n  dup2\n  swap1\n  mstore\n    /* \"contracts/LQTY/LockupContract.sol\":2033:2081  LockupContractCreated(_beneficiary, _unlockTime) */\n  0x40\n  dup1\n  mload\n    /* \"#utility.yul\":729:780   */\n  swap2\n  dup3\n  mstore\n    /* \"#utility.yul\":811:813   */\n  0x20\n    /* \"#utility.yul\":796:814   */\n  dup3\n  add\n    /* \"#utility.yul\":789:823   */\n  dup4\n  swap1\n  mstore\n    /* \"contracts/LQTY/LockupContract.sol\":2033:2081  LockupContractCreated(_beneficiary, _unlockTime) */\n  0x5faee922186516bf77266643c1fda130acefc439d571400e8697106c6aed9b54\n  swap2\n    /* \"#utility.yul\":702:720   */\n  add\n    /* \"contracts/LQTY/LockupContract.sol\":2033:2081  LockupContractCreated(_beneficiary, _unlockTime) */\n  mload(0x40)\n  dup1\n  swap2\n  sub\n  swap1\n  log1\n    /* \"contracts/LQTY/LockupContract.sol\":1526:2088  constructor ... */\n  pop\n  pop\n  pop\n    /* \"contracts/LQTY/LockupContract.sol\":966:3156  contract LockupContract {... */\n  jump(tag_28)\n    /* \"contracts/LQTY/LockupContract.sol\":2818:3154  function _requireUnlockTimeIsAtLeastOneYearAfterSystemDeployment(uint _unlockTime) internal view {... */\ntag_7:\n    /* \"contracts/LQTY/LockupContract.sol\":2925:2950  uint systemDeploymentTime */\n  0x00\n    /* \"contracts/LQTY/LockupContract.sol\":2953:2962  lqtyToken */\n  dup1\n  0x00\n  swap1\n  sload\n  swap1\n  0x0100\n  exp\n  swap1\n  div\n  sub(shl(0xa0, 0x01), 0x01)\n  and\n  sub(shl(0xa0, 0x01), 0x01)\n    /* \"contracts/LQTY/LockupContract.sol\":2953:2985  lqtyToken.getDeploymentStartTime */\n  and\n  0x3c84b7c2\n    /* \"contracts/LQTY/LockupContract.sol\":2953:2987  lqtyToken.getDeploymentStartTime() */\n  mload(0x40)\n  dup2\n  0xffffffff\n  and\n  0xe0\n  shl\n  dup2\n  mstore\n  0x04\n  add\n  0x20\n  mload(0x40)\n  dup1\n  dup4\n  sub\n  dup2\n  dup7\n  gas\n  staticcall\n  iszero\n  dup1\n  iszero\n  tag_13\n  jumpi\n  returndatasize\n  0x00\n  dup1\n  returndatacopy\n  revert(0x00, returndatasize)\ntag_13:\n  pop\n  pop\n  pop\n  pop\n  mload(0x40)\n  returndatasize\n  not(0x1f)\n  0x1f\n  dup3\n  add\n  and\n  dup3\n  add\n  dup1\n  0x40\n  mstore\n  pop\n  dup2\n  add\n  swap1\n  tag_14\n  swap2\n  swap1\n  tag_15\n  jump\t// in\ntag_14:\n    /* \"contracts/LQTY/LockupContract.sol\":2925:2987  uint systemDeploymentTime = lqtyToken.getDeploymentStartTime() */\n  swap1\n  pop\n    /* \"contracts/LQTY/LockupContract.sol\":3020:3065  systemDeploymentTime.add(SECONDS_IN_ONE_YEAR) */\n  tag_16\n    /* \"contracts/LQTY/LockupContract.sol\":2925:2987  uint systemDeploymentTime = lqtyToken.getDeploymentStartTime() */\n  dup2\n    /* \"contracts/LQTY/LockupContract.sol\":1142:1150  31536000 */\n  0x01e13380\n    /* \"contracts/LQTY/LockupContract.sol\":3020:3044  systemDeploymentTime.add */\n  tag_17\n    /* \"contracts/LQTY/LockupContract.sol\":3020:3065  systemDeploymentTime.add(SECONDS_IN_ONE_YEAR) */\n  jump\t// in\ntag_16:\n    /* \"contracts/LQTY/LockupContract.sol\":3005:3016  _unlockTime */\n  dup3\n    /* \"contracts/LQTY/LockupContract.sol\":3005:3065  _unlockTime >= systemDeploymentTime.add(SECONDS_IN_ONE_YEAR) */\n  lt\n  iszero\n    /* \"contracts/LQTY/LockupContract.sol\":2997:3147  require(_unlockTime >= systemDeploymentTime.add(SECONDS_IN_ONE_YEAR), \"LockupContract: unlock time must be at least one year after system deployment\") */\n  tag_18\n  jumpi\n  mload(0x40)\n  shl(0xe5, 0x461bcd)\n  dup2\n  mstore\n    /* \"#utility.yul\":1225:1227   */\n  0x20\n    /* \"contracts/LQTY/LockupContract.sol\":2997:3147  require(_unlockTime >= systemDeploymentTime.add(SECONDS_IN_ONE_YEAR), \"LockupContract: unlock time must be at least one year after system deployment\") */\n  0x04\n  dup3\n  add\n    /* \"#utility.yul\":1207:1228   */\n  mstore\n    /* \"#utility.yul\":1264:1266   */\n  0x4d\n    /* \"#utility.yul\":1244:1262   */\n  0x24\n  dup3\n  add\n    /* \"#utility.yul\":1237:1267   */\n  mstore\n    /* \"#utility.yul\":1303:1337   */\n  0x4c6f636b7570436f6e74726163743a20756e6c6f636b2074696d65206d757374\n    /* \"#utility.yul\":1283:1301   */\n  0x44\n  dup3\n  add\n    /* \"#utility.yul\":1276:1338   */\n  mstore\n    /* \"#utility.yul\":1374:1408   */\n  0x206265206174206c65617374206f6e6520796561722061667465722073797374\n    /* \"#utility.yul\":1354:1372   */\n  0x64\n  dup3\n  add\n    /* \"#utility.yul\":1347:1409   */\n  mstore\n  shl(0x9a, 0x195b4819195c1b1bde5b595b9d)\n    /* \"#utility.yul\":1425:1444   */\n  0x84\n  dup3\n  add\n    /* \"#utility.yul\":1418:1462   */\n  mstore\n    /* \"#utility.yul\":1479:1498   */\n  0xa4\n  add\n    /* \"contracts/LQTY/LockupContract.sol\":2997:3147  require(_unlockTime >= systemDeploymentTime.add(SECONDS_IN_ONE_YEAR), \"LockupContract: unlock time must be at least one year after system deployment\") */\ntag_19:\n  mload(0x40)\n  dup1\n  swap2\n  sub\n  swap1\n  revert\ntag_18:\n    /* \"contracts/LQTY/LockupContract.sol\":2915:3154  {... */\n  pop\n    /* \"contracts/LQTY/LockupContract.sol\":2818:3154  function _requireUnlockTimeIsAtLeastOneYearAfterSystemDeployment(uint _unlockTime) internal view {... */\n  pop\n  jump\t// out\n    /* \"contracts/Dependencies/SafeMath.sol\":1005:1181  function add(uint256 a, uint256 b) internal pure returns (uint256) {... */\ntag_17:\n    /* \"contracts/Dependencies/SafeMath.sol\":1063:1070  uint256 */\n  0x00\n  dup1\n    /* \"contracts/Dependencies/SafeMath.sol\":1094:1099  a + b */\n  tag_22\n    /* \"contracts/Dependencies/SafeMath.sol\":1098:1099  b */\n  dup4\n    /* \"contracts/Dependencies/SafeMath.sol\":1094:1095  a */\n  dup6\n    /* \"contracts/Dependencies/SafeMath.sol\":1094:1099  a + b */\n  tag_23\n  jump\t// in\ntag_22:\n    /* \"contracts/Dependencies/SafeMath.sol\":1082:1099  uint256 c = a + b */\n  swap1\n  pop\n    /* \"contracts/Dependencies/SafeMath.sol\":1122:1123  a */\n  dup4\n    /* \"contracts/Dependencies/SafeMath.sol\":1117:1118  c */\n  dup2\n    /* \"contracts/Dependencies/SafeMath.sol\":1117:1123  c >= a */\n  lt\n  iszero\n    /* \"contracts/Dependencies/SafeMath.sol\":1109:1155  require(c >= a, \"SafeMath: addition overflow\") */\n  tag_24\n  jumpi\n  mload(0x40)\n  shl(0xe5, 0x461bcd)\n  dup2\n  mstore\n    /* \"#utility.yul\":1938:1940   */\n  0x20\n    /* \"contracts/Dependencies/SafeMath.sol\":1109:1155  require(c >= a, \"SafeMath: addition overflow\") */\n  0x04\n  dup3\n  add\n    /* \"#utility.yul\":1920:1941   */\n  mstore\n    /* \"#utility.yul\":1977:1979   */\n  0x1b\n    /* \"#utility.yul\":1957:1975   */\n  0x24\n  dup3\n  add\n    /* \"#utility.yul\":1950:1980   */\n  mstore\n    /* \"#utility.yul\":2016:2045   */\n  0x536166654d6174683a206164646974696f6e206f766572666c6f770000000000\n    /* \"#utility.yul\":1996:2014   */\n  0x44\n  dup3\n  add\n    /* \"#utility.yul\":1989:2046   */\n  mstore\n    /* \"#utility.yul\":2063:2081   */\n  0x64\n  add\n    /* \"contracts/Dependencies/SafeMath.sol\":1109:1155  require(c >= a, \"SafeMath: addition overflow\") */\n  tag_19\n    /* \"#utility.yul\":1736:2087   */\n  jump\n    /* \"contracts/Dependencies/SafeMath.sol\":1109:1155  require(c >= a, \"SafeMath: addition overflow\") */\ntag_24:\n    /* \"contracts/Dependencies/SafeMath.sol\":1173:1174  c */\n  swap1\n  pop\n    /* \"contracts/Dependencies/SafeMath.sol\":1005:1181  function add(uint256 a, uint256 b) internal pure returns (uint256) {... */\ntag_21:\n  swap3\n  swap2\n  pop\n  pop\n  jump\t// out\n    /* \"#utility.yul\":14:191   */\ntag_27:\n    /* \"#utility.yul\":93:106   */\n  dup1\n  mload\n  sub(shl(0xa0, 0x01), 0x01)\n    /* \"#utility.yul\":135:166   */\n  dup2\n  and\n    /* \"#utility.yul\":125:167   */\n  dup2\n  eq\n    /* \"#utility.yul\":115:185   */\n  tag_30\n  jumpi\n    /* \"#utility.yul\":181:182   */\n  0x00\n    /* \"#utility.yul\":178:179   */\n  dup1\n    /* \"#utility.yul\":171:183   */\n  revert\n    /* \"#utility.yul\":115:185   */\ntag_30:\n    /* \"#utility.yul\":14:191   */\n  swap2\n  swap1\n  pop\n  jump\t// out\n    /* \"#utility.yul\":196:550   */\ntag_3:\n    /* \"#utility.yul\":284:290   */\n  0x00\n    /* \"#utility.yul\":292:298   */\n  dup1\n    /* \"#utility.yul\":300:306   */\n  0x00\n    /* \"#utility.yul\":353:355   */\n  0x60\n    /* \"#utility.yul\":341:350   */\n  dup5\n    /* \"#utility.yul\":332:339   */\n  dup7\n    /* \"#utility.yul\":328:351   */\n  sub\n    /* \"#utility.yul\":324:356   */\n  slt\n    /* \"#utility.yul\":321:373   */\n  iszero\n  tag_32\n  jumpi\n    /* \"#utility.yul\":369:370   */\n  0x00\n    /* \"#utility.yul\":366:367   */\n  dup1\n    /* \"#utility.yul\":359:371   */\n  revert\n    /* \"#utility.yul\":321:373   */\ntag_32:\n    /* \"#utility.yul\":392:432   */\n  tag_33\n    /* \"#utility.yul\":422:431   */\n  dup5\n    /* \"#utility.yul\":392:432   */\n  tag_27\n  jump\t// in\ntag_33:\n    /* \"#utility.yul\":382:432   */\n  swap3\n  pop\n    /* \"#utility.yul\":451:500   */\n  tag_34\n    /* \"#utility.yul\":496:498   */\n  0x20\n    /* \"#utility.yul\":485:494   */\n  dup6\n    /* \"#utility.yul\":481:499   */\n  add\n    /* \"#utility.yul\":451:500   */\n  tag_27\n  jump\t// in\ntag_34:\n    /* \"#utility.yul\":441:500   */\n  swap2\n  pop\n    /* \"#utility.yul\":540:542   */\n  0x40\n    /* \"#utility.yul\":529:538   */\n  dup5\n    /* \"#utility.yul\":525:543   */\n  add\n    /* \"#utility.yul\":519:544   */\n  mload\n    /* \"#utility.yul\":509:544   */\n  swap1\n  pop\n    /* \"#utility.yul\":196:550   */\n  swap3\n  pop\n  swap3\n  pop\n  swap3\n  jump\t// out\n    /* \"#utility.yul\":834:1018   */\ntag_15:\n    /* \"#utility.yul\":904:910   */\n  0x00\n    /* \"#utility.yul\":957:959   */\n  0x20\n    /* \"#utility.yul\":945:954   */\n  dup3\n    /* \"#utility.yul\":936:943   */\n  dup5\n    /* \"#utility.yul\":932:955   */\n  sub\n    /* \"#utility.yul\":928:960   */\n  slt\n    /* \"#utility.yul\":925:977   */\n  iszero\n  tag_37\n  jumpi\n    /* \"#utility.yul\":973:974   */\n  0x00\n    /* \"#utility.yul\":970:971   */\n  dup1\n    /* \"#utility.yul\":963:975   */\n  revert\n    /* \"#utility.yul\":925:977   */\ntag_37:\n  pop\n    /* \"#utility.yul\":996:1012   */\n  mload\n  swap2\n    /* \"#utility.yul\":834:1018   */\n  swap1\n  pop\n  jump\t// out\n    /* \"#utility.yul\":1509:1731   */\ntag_23:\n    /* \"#utility.yul\":1574:1583   */\n  dup1\n  dup3\n  add\n    /* \"#utility.yul\":1595:1605   */\n  dup1\n  dup3\n  gt\n    /* \"#utility.yul\":1592:1725   */\n  iszero\n  tag_21\n  jumpi\n    /* \"#utility.yul\":1647:1657   */\n  0x4e487b71\n    /* \"#utility.yul\":1642:1645   */\n  0xe0\n    /* \"#utility.yul\":1638:1658   */\n  shl\n    /* \"#utility.yul\":1635:1636   */\n  0x00\n    /* \"#utility.yul\":1628:1659   */\n  mstore\n    /* \"#utility.yul\":1682:1686   */\n  0x11\n    /* \"#utility.yul\":1679:1680   */\n  0x04\n    /* \"#utility.yul\":1672:1687   */\n  mstore\n    /* \"#utility.yul\":1710:1714   */\n  0x24\n    /* \"#utility.yul\":1707:1708   */\n  0x00\n    /* \"#utility.yul\":1700:1715   */\n  revert\n    /* \"#utility.yul\":1736:2087   */\ntag_28:\n    /* \"contracts/LQTY/LockupContract.sol\":966:3156  contract LockupContract {... */\n  mload(0x80)\n  codecopy(0x00, dataOffset(sub_0), dataSize(sub_0))\n  0x00\n  assignImmutable(\"0x0a5704b831f80607deaeb221a4d2eb7efb42b57a7915894b2d2f932b0cf5a43e\")\n  return(0x00, dataSize(sub_0))\nstop\n\nsub_0: assembly {\n        /* \"contracts/LQTY/LockupContract.sol\":966:3156  contract LockupContract {... */\n      mstore(0x40, 0x80)\n      callvalue\n      dup1\n      iszero\n      tag_1\n      jumpi\n      0x00\n      dup1\n      revert\n    tag_1:\n      pop\n      jumpi(tag_2, lt(calldatasize, 0x04))\n      shr(0xe0, calldataload(0x00))\n      dup1\n      0x1f7af3c3\n      eq\n      tag_3\n      jumpi\n      dup1\n      0x251c1aa3\n      eq\n      tag_4\n      jumpi\n      dup1\n      0x38af3eed\n      eq\n      tag_5\n      jumpi\n      dup1\n      0x98e5f3c4\n      eq\n      tag_6\n      jumpi\n      dup1\n      0xa3f4df7e\n      eq\n      tag_7\n      jumpi\n      dup1\n      0xb9470a46\n      eq\n      tag_8\n      jumpi\n    tag_2:\n      0x00\n      dup1\n      revert\n        /* \"contracts/LQTY/LockupContract.sol\":1201:1228  ILQTYToken public lqtyToken */\n    tag_3:\n      sload(0x00)\n      tag_9\n      swap1\n      sub(shl(0xa0, 0x01), 0x01)\n      and\n      dup2\n      jump\n    tag_9:\n      mload(0x40)\n      sub(shl(0xa0, 0x01), 0x01)\n        /* \"#utility.yul\":196:228   */\n      swap1\n      swap2\n      and\n        /* \"#utility.yul\":178:229   */\n      dup2\n      mstore\n        /* \"#utility.yul\":166:168   */\n      0x20\n        /* \"#utility.yul\":151:169   */\n      add\n        /* \"contracts/LQTY/LockupContract.sol\":1201:1228  ILQTYToken public lqtyToken */\n    tag_11:\n      mload(0x40)\n      dup1\n      swap2\n      sub\n      swap1\n      return\n        /* \"contracts/LQTY/LockupContract.sol\":1319:1341  uint public unlockTime */\n    tag_4:\n      tag_13\n      sload(0x01)\n      dup2\n      jump\n    tag_13:\n      mload(0x40)\n        /* \"#utility.yul\":386:411   */\n      swap1\n      dup2\n      mstore\n        /* \"#utility.yul\":374:376   */\n      0x20\n        /* \"#utility.yul\":359:377   */\n      add\n        /* \"contracts/LQTY/LockupContract.sol\":1319:1341  uint public unlockTime */\n      tag_11\n        /* \"#utility.yul\":240:417   */\n      jump\n        /* \"contracts/LQTY/LockupContract.sol\":1158:1194  address public immutable beneficiary */\n    tag_5:\n      tag_9\n      immutable(\"0x0a5704b831f80607deaeb221a4d2eb7efb42b57a7915894b2d2f932b0cf5a43e\")\n      dup2\n      jump\n        /* \"contracts/LQTY/LockupContract.sol\":1099:1150  uint constant public SECONDS_IN_ONE_YEAR = 31536000 */\n    tag_6:\n      tag_13\n        /* \"contracts/LQTY/LockupContract.sol\":1142:1150  31536000 */\n      0x01e13380\n        /* \"contracts/LQTY/LockupContract.sol\":1099:1150  uint constant public SECONDS_IN_ONE_YEAR = 31536000 */\n      dup2\n      jump\n        /* \"contracts/LQTY/LockupContract.sol\":1046:1092  string constant public NAME = \"LockupContract\" */\n    tag_7:\n      tag_24\n      mload(0x40)\n      dup1\n      0x40\n      add\n      0x40\n      mstore\n      dup1\n      0x0e\n      dup2\n      mstore\n      0x20\n      add\n      shl(0x92, 0x131bd8dadd5c10dbdb9d1c9858dd)\n      dup2\n      mstore\n      pop\n      dup2\n      jump\n    tag_24:\n      mload(0x40)\n      tag_11\n      swap2\n      swap1\n      tag_27\n      jump\t// in\n        /* \"contracts/LQTY/LockupContract.sol\":2094:2443  function withdrawLQTY() external {... */\n    tag_8:\n      tag_28\n      tag_29\n      jump\t// in\n    tag_28:\n      stop\n    tag_29:\n        /* \"contracts/LQTY/LockupContract.sol\":2137:2166  _requireCallerIsBeneficiary() */\n      tag_31\n        /* \"contracts/LQTY/LockupContract.sol\":2137:2164  _requireCallerIsBeneficiary */\n      tag_32\n        /* \"contracts/LQTY/LockupContract.sol\":2137:2166  _requireCallerIsBeneficiary() */\n      jump\t// in\n    tag_31:\n        /* \"contracts/LQTY/LockupContract.sol\":2176:2209  _requireLockupDurationHasPassed() */\n      tag_33\n        /* \"contracts/LQTY/LockupContract.sol\":2176:2207  _requireLockupDurationHasPassed */\n      tag_34\n        /* \"contracts/LQTY/LockupContract.sol\":2176:2209  _requireLockupDurationHasPassed() */\n      jump\t// in\n    tag_33:\n        /* \"contracts/LQTY/LockupContract.sol\":2220:2246  ILQTYToken lqtyTokenCached */\n      0x00\n        /* \"contracts/LQTY/LockupContract.sol\":2249:2258  lqtyToken */\n      dup1\n      sload\n        /* \"contracts/LQTY/LockupContract.sol\":2287:2327  lqtyTokenCached.balanceOf(address(this)) */\n      mload(0x40)\n      shl(0xe0, 0x70a08231)\n      dup2\n      mstore\n        /* \"contracts/LQTY/LockupContract.sol\":2321:2325  this */\n      address\n        /* \"contracts/LQTY/LockupContract.sol\":2287:2327  lqtyTokenCached.balanceOf(address(this)) */\n      0x04\n      dup3\n      add\n        /* \"#utility.yul\":178:229   */\n      mstore\n      sub(shl(0xa0, 0x01), 0x01)\n        /* \"contracts/LQTY/LockupContract.sol\":2249:2258  lqtyToken */\n      swap1\n      swap2\n      and\n      swap2\n        /* \"contracts/LQTY/LockupContract.sol\":2220:2246  ILQTYToken lqtyTokenCached */\n      swap1\n        /* \"contracts/LQTY/LockupContract.sol\":2249:2258  lqtyToken */\n      dup3\n      swap1\n        /* \"contracts/LQTY/LockupContract.sol\":2287:2312  lqtyTokenCached.balanceOf */\n      0x70a08231\n      swap1\n        /* \"#utility.yul\":151:169   */\n      0x24\n      add\n        /* \"contracts/LQTY/LockupContract.sol\":2287:2327  lqtyTokenCached.balanceOf(address(this)) */\n      0x20\n      mload(0x40)\n      dup1\n      dup4\n      sub\n      dup2\n      dup7\n      gas\n      staticcall\n      iszero\n      dup1\n      iszero\n      tag_37\n      jumpi\n      returndatasize\n      0x00\n      dup1\n      returndatacopy\n      revert(0x00, returndatasize)\n    tag_37:\n      pop\n      pop\n      pop\n      pop\n      mload(0x40)\n      returndatasize\n      not(0x1f)\n      0x1f\n      dup3\n      add\n      and\n      dup3\n      add\n      dup1\n      0x40\n      mstore\n      pop\n      dup2\n      add\n      swap1\n      tag_38\n      swap2\n      swap1\n      tag_39\n      jump\t// in\n    tag_38:\n        /* \"contracts/LQTY/LockupContract.sol\":2337:2387  lqtyTokenCached.transfer(beneficiary, LQTYBalance) */\n      mload(0x40)\n      shl(0xe0, 0xa9059cbb)\n      dup2\n      mstore\n      sub(shl(0xa0, 0x01), 0x01)\n        /* \"contracts/LQTY/LockupContract.sol\":2362:2373  beneficiary */\n      immutable(\"0x0a5704b831f80607deaeb221a4d2eb7efb42b57a7915894b2d2f932b0cf5a43e\")\n        /* \"#utility.yul\":1564:1596   */\n      dup2\n      and\n        /* \"contracts/LQTY/LockupContract.sol\":2337:2387  lqtyTokenCached.transfer(beneficiary, LQTYBalance) */\n      0x04\n      dup4\n      add\n        /* \"#utility.yul\":1546:1597   */\n      mstore\n        /* \"#utility.yul\":1613:1631   */\n      0x24\n      dup3\n      add\n        /* \"#utility.yul\":1606:1640   */\n      dup4\n      swap1\n      mstore\n      swap2\n      swap3\n      pop\n        /* \"contracts/LQTY/LockupContract.sol\":2337:2361  lqtyTokenCached.transfer */\n      swap1\n      dup4\n      and\n      swap1\n      0xa9059cbb\n      swap1\n        /* \"#utility.yul\":1519:1537   */\n      0x44\n      add\n        /* \"contracts/LQTY/LockupContract.sol\":2337:2387  lqtyTokenCached.transfer(beneficiary, LQTYBalance) */\n      0x20\n      mload(0x40)\n      dup1\n      dup4\n      sub\n      dup2\n      0x00\n      dup8\n      gas\n      call\n      iszero\n      dup1\n      iszero\n      tag_43\n      jumpi\n      returndatasize\n      0x00\n      dup1\n      returndatacopy\n      revert(0x00, returndatasize)\n    tag_43:\n      pop\n      pop\n      pop\n      pop\n      mload(0x40)\n      returndatasize\n      not(0x1f)\n      0x1f\n      dup3\n      add\n      and\n      dup3\n      add\n      dup1\n      0x40\n      mstore\n      pop\n      dup2\n      add\n      swap1\n      tag_44\n      swap2\n      swap1\n      tag_45\n      jump\t// in\n    tag_44:\n      pop\n        /* \"contracts/LQTY/LockupContract.sol\":2402:2436  LockupContractEmptied(LQTYBalance) */\n      mload(0x40)\n        /* \"#utility.yul\":386:411   */\n      dup2\n      dup2\n      mstore\n        /* \"contracts/LQTY/LockupContract.sol\":2402:2436  LockupContractEmptied(LQTYBalance) */\n      0x7d17cbc0f78ccfed33842dd29dab2872e8347bf3981293ab2cfe35ca16371a2f\n      swap1\n        /* \"#utility.yul\":374:376   */\n      0x20\n        /* \"#utility.yul\":359:377   */\n      add\n        /* \"contracts/LQTY/LockupContract.sol\":2402:2436  LockupContractEmptied(LQTYBalance) */\n      mload(0x40)\n      dup1\n      swap2\n      sub\n      swap1\n      log1\n        /* \"contracts/LQTY/LockupContract.sol\":2127:2443  {... */\n      pop\n      pop\n        /* \"contracts/LQTY/LockupContract.sol\":2094:2443  function withdrawLQTY() external {... */\n      jump\t// out\n        /* \"contracts/LQTY/LockupContract.sol\":2485:2638  function _requireCallerIsBeneficiary() internal view {... */\n    tag_32:\n        /* \"contracts/LQTY/LockupContract.sol\":2556:2566  msg.sender */\n      caller\n      sub(shl(0xa0, 0x01), 0x01)\n        /* \"contracts/LQTY/LockupContract.sol\":2570:2581  beneficiary */\n      immutable(\"0x0a5704b831f80607deaeb221a4d2eb7efb42b57a7915894b2d2f932b0cf5a43e\")\n        /* \"contracts/LQTY/LockupContract.sol\":2556:2581  msg.sender == beneficiary */\n      and\n      eq\n        /* \"contracts/LQTY/LockupContract.sol\":2548:2631  require(msg.sender == beneficiary, \"LockupContract: caller is not the beneficiary\") */\n      tag_48\n      jumpi\n      mload(0x40)\n      shl(0xe5, 0x461bcd)\n      dup2\n      mstore\n        /* \"#utility.yul\":2135:2137   */\n      0x20\n        /* \"contracts/LQTY/LockupContract.sol\":2548:2631  require(msg.sender == beneficiary, \"LockupContract: caller is not the beneficiary\") */\n      0x04\n      dup3\n      add\n        /* \"#utility.yul\":2117:2138   */\n      mstore\n        /* \"#utility.yul\":2174:2176   */\n      0x2d\n        /* \"#utility.yul\":2154:2172   */\n      0x24\n      dup3\n      add\n        /* \"#utility.yul\":2147:2177   */\n      mstore\n        /* \"#utility.yul\":2213:2247   */\n      0x4c6f636b7570436f6e74726163743a2063616c6c6572206973206e6f74207468\n        /* \"#utility.yul\":2193:2211   */\n      0x44\n      dup3\n      add\n        /* \"#utility.yul\":2186:2248   */\n      mstore\n      shl(0x98, 0x652062656e6566696369617279)\n        /* \"#utility.yul\":2264:2282   */\n      0x64\n      dup3\n      add\n        /* \"#utility.yul\":2257:2300   */\n      mstore\n        /* \"#utility.yul\":2317:2336   */\n      0x84\n      add\n        /* \"contracts/LQTY/LockupContract.sol\":2548:2631  require(msg.sender == beneficiary, \"LockupContract: caller is not the beneficiary\") */\n    tag_49:\n      mload(0x40)\n      dup1\n      swap2\n      sub\n      swap1\n      revert\n    tag_48:\n        /* \"contracts/LQTY/LockupContract.sol\":2485:2638  function _requireCallerIsBeneficiary() internal view {... */\n      jump\t// out\n        /* \"contracts/LQTY/LockupContract.sol\":2644:2812  function _requireLockupDurationHasPassed() internal view {... */\n    tag_34:\n        /* \"contracts/LQTY/LockupContract.sol\":2738:2748  unlockTime */\n      sload(0x01)\n        /* \"contracts/LQTY/LockupContract.sol\":2719:2734  block.timestamp */\n      timestamp\n        /* \"contracts/LQTY/LockupContract.sol\":2719:2748  block.timestamp >= unlockTime */\n      lt\n      iszero\n        /* \"contracts/LQTY/LockupContract.sol\":2711:2805  require(block.timestamp >= unlockTime, \"LockupContract: The lockup duration must have passed\") */\n      tag_48\n      jumpi\n      mload(0x40)\n      shl(0xe5, 0x461bcd)\n      dup2\n      mstore\n        /* \"#utility.yul\":2549:2551   */\n      0x20\n        /* \"contracts/LQTY/LockupContract.sol\":2711:2805  require(block.timestamp >= unlockTime, \"LockupContract: The lockup duration must have passed\") */\n      0x04\n      dup3\n      add\n        /* \"#utility.yul\":2531:2552   */\n      mstore\n        /* \"#utility.yul\":2588:2590   */\n      0x34\n        /* \"#utility.yul\":2568:2586   */\n      0x24\n      dup3\n      add\n        /* \"#utility.yul\":2561:2591   */\n      mstore\n        /* \"#utility.yul\":2627:2661   */\n      0x4c6f636b7570436f6e74726163743a20546865206c6f636b7570206475726174\n        /* \"#utility.yul\":2607:2625   */\n      0x44\n      dup3\n      add\n        /* \"#utility.yul\":2600:2662   */\n      mstore\n      shl(0x62, 0x1a5bdb881b5d5cdd081a185d99481c185cdcd959)\n        /* \"#utility.yul\":2678:2696   */\n      0x64\n      dup3\n      add\n        /* \"#utility.yul\":2671:2721   */\n      mstore\n        /* \"#utility.yul\":2738:2757   */\n      0x84\n      add\n        /* \"contracts/LQTY/LockupContract.sol\":2711:2805  require(block.timestamp >= unlockTime, \"LockupContract: The lockup duration must have passed\") */\n      tag_49\n        /* \"#utility.yul\":2347:2763   */\n      jump\n        /* \"#utility.yul\":630:1178   */\n    tag_27:\n        /* \"#utility.yul\":742:746   */\n      0x00\n        /* \"#utility.yul\":771:773   */\n      0x20\n        /* \"#utility.yul\":800:802   */\n      dup1\n        /* \"#utility.yul\":789:798   */\n      dup4\n        /* \"#utility.yul\":782:803   */\n      mstore\n        /* \"#utility.yul\":832:838   */\n      dup4\n        /* \"#utility.yul\":826:839   */\n      mload\n        /* \"#utility.yul\":875:881   */\n      dup1\n        /* \"#utility.yul\":870:872   */\n      dup3\n        /* \"#utility.yul\":859:868   */\n      dup6\n        /* \"#utility.yul\":855:873   */\n      add\n        /* \"#utility.yul\":848:882   */\n      mstore\n        /* \"#utility.yul\":900:901   */\n      0x00\n        /* \"#utility.yul\":910:1050   */\n    tag_60:\n        /* \"#utility.yul\":924:930   */\n      dup2\n        /* \"#utility.yul\":921:922   */\n      dup2\n        /* \"#utility.yul\":918:931   */\n      lt\n        /* \"#utility.yul\":910:1050   */\n      iszero\n      tag_62\n      jumpi\n        /* \"#utility.yul\":1019:1033   */\n      dup6\n      dup2\n      add\n        /* \"#utility.yul\":1015:1038   */\n      dup4\n      add\n        /* \"#utility.yul\":1009:1039   */\n      mload\n        /* \"#utility.yul\":985:1002   */\n      dup6\n      dup3\n      add\n        /* \"#utility.yul\":1004:1006   */\n      0x40\n        /* \"#utility.yul\":981:1007   */\n      add\n        /* \"#utility.yul\":974:1040   */\n      mstore\n        /* \"#utility.yul\":939:949   */\n      dup3\n      add\n        /* \"#utility.yul\":910:1050   */\n      jump(tag_60)\n    tag_62:\n        /* \"#utility.yul\":914:917   */\n      pop\n        /* \"#utility.yul\":1099:1100   */\n      0x00\n        /* \"#utility.yul\":1094:1096   */\n      0x40\n        /* \"#utility.yul\":1085:1091   */\n      dup3\n        /* \"#utility.yul\":1074:1083   */\n      dup7\n        /* \"#utility.yul\":1070:1092   */\n      add\n        /* \"#utility.yul\":1066:1097   */\n      add\n        /* \"#utility.yul\":1059:1101   */\n      mstore\n        /* \"#utility.yul\":1169:1171   */\n      0x40\n        /* \"#utility.yul\":1162:1164   */\n      0x1f\n        /* \"#utility.yul\":1158:1165   */\n      not\n        /* \"#utility.yul\":1153:1155   */\n      0x1f\n        /* \"#utility.yul\":1145:1151   */\n      dup4\n        /* \"#utility.yul\":1141:1156   */\n      add\n        /* \"#utility.yul\":1137:1166   */\n      and\n        /* \"#utility.yul\":1126:1135   */\n      dup6\n        /* \"#utility.yul\":1122:1167   */\n      add\n        /* \"#utility.yul\":1118:1172   */\n      add\n        /* \"#utility.yul\":1110:1172   */\n      swap3\n      pop\n      pop\n      pop\n        /* \"#utility.yul\":630:1178   */\n      swap3\n      swap2\n      pop\n      pop\n      jump\t// out\n        /* \"#utility.yul\":1183:1367   */\n    tag_39:\n        /* \"#utility.yul\":1253:1259   */\n      0x00\n        /* \"#utility.yul\":1306:1308   */\n      0x20\n        /* \"#utility.yul\":1294:1303   */\n      dup3\n        /* \"#utility.yul\":1285:1292   */\n      dup5\n        /* \"#utility.yul\":1281:1304   */\n      sub\n        /* \"#utility.yul\":1277:1309   */\n      slt\n        /* \"#utility.yul\":1274:1326   */\n      iszero\n      tag_64\n      jumpi\n        /* \"#utility.yul\":1322:1323   */\n      0x00\n        /* \"#utility.yul\":1319:1320   */\n      dup1\n        /* \"#utility.yul\":1312:1324   */\n      revert\n        /* \"#utility.yul\":1274:1326   */\n    tag_64:\n      pop\n        /* \"#utility.yul\":1345:1361   */\n      mload\n      swap2\n        /* \"#utility.yul\":1183:1367   */\n      swap1\n      pop\n      jump\t// out\n        /* \"#utility.yul\":1651:1928   */\n    tag_45:\n        /* \"#utility.yul\":1718:1724   */\n      0x00\n        /* \"#utility.yul\":1771:1773   */\n      0x20\n        /* \"#utility.yul\":1759:1768   */\n      dup3\n        /* \"#utility.yul\":1750:1757   */\n      dup5\n        /* \"#utility.yul\":1746:1769   */\n      sub\n        /* \"#utility.yul\":1742:1774   */\n      slt\n        /* \"#utility.yul\":1739:1791   */\n      iszero\n      tag_67\n      jumpi\n        /* \"#utility.yul\":1787:1788   */\n      0x00\n        /* \"#utility.yul\":1784:1785   */\n      dup1\n        /* \"#utility.yul\":1777:1789   */\n      revert\n        /* \"#utility.yul\":1739:1791   */\n    tag_67:\n        /* \"#utility.yul\":1819:1828   */\n      dup2\n        /* \"#utility.yul\":1813:1829   */\n      mload\n        /* \"#utility.yul\":1872:1877   */\n      dup1\n        /* \"#utility.yul\":1865:1878   */\n      iszero\n        /* \"#utility.yul\":1858:1879   */\n      iszero\n        /* \"#utility.yul\":1851:1856   */\n      dup2\n        /* \"#utility.yul\":1848:1880   */\n      eq\n        /* \"#utility.yul\":1838:1898   */\n      tag_68\n      jumpi\n        /* \"#utility.yul\":1894:1895   */\n      0x00\n        /* \"#utility.yul\":1891:1892   */\n      dup1\n        /* \"#utility.yul\":1884:1896   */\n      revert\n        /* \"#utility.yul\":1838:1898   */\n    tag_68:\n        /* \"#utility.yul\":1917:1922   */\n      swap4\n        /* \"#utility.yul\":1651:1928   */\n      swap3\n      pop\n      pop\n      pop\n      jump\t// out\n\n    auxdata: 0xa2646970667358221220891d0360991374b9dc9342ea3300de49b8db76d663668ee7f938f229a5571f0664736f6c63430008140033\n}\n",
				"bytecode": {
					"linkReferences": {},
					"object": "60a060405234801561001057600080fd5b5060405161072338038061072383398101604081905261002f91610248565b600080546001600160a01b0319166001600160a01b038516179055610053816100a8565b60018190556001600160a01b038216608081905260408051918252602082018390527f5faee922186516bf77266643c1fda130acefc439d571400e8697106c6aed9b54910160405180910390a15050506102be565b60008060009054906101000a90046001600160a01b03166001600160a01b0316633c84b7c26040518163ffffffff1660e01b8152600401602060405180830381865afa1580156100fc573d6000803e3d6000fd5b505050506040513d601f19601f820116820180604052508101906101209190610284565b9050610130816301e133806101c4565b8210156101c05760405162461bcd60e51b815260206004820152604d60248201527f4c6f636b7570436f6e74726163743a20756e6c6f636b2074696d65206d75737460448201527f206265206174206c65617374206f6e652079656172206166746572207379737460648201526c195b4819195c1b1bde5b595b9d609a1b608482015260a4015b60405180910390fd5b5050565b6000806101d1838561029d565b9050838110156102235760405162461bcd60e51b815260206004820152601b60248201527f536166654d6174683a206164646974696f6e206f766572666c6f77000000000060448201526064016101b7565b90505b92915050565b80516001600160a01b038116811461024357600080fd5b919050565b60008060006060848603121561025d57600080fd5b6102668461022c565b92506102746020850161022c565b9150604084015190509250925092565b60006020828403121561029657600080fd5b5051919050565b8082018082111561022657634e487b7160e01b600052601160045260246000fd5b60805161043d6102e66000396000818160b3015281816101bb015261027e015261043d6000f3fe608060405234801561001057600080fd5b50600436106100625760003560e01c80631f7af3c314610067578063251c1aa31461009757806338af3eed146100ae57806398e5f3c4146100d5578063a3f4df7e146100e0578063b9470a461461011a575b600080fd5b60005461007a906001600160a01b031681565b6040516001600160a01b0390911681526020015b60405180910390f35b6100a060015481565b60405190815260200161008e565b61007a7f000000000000000000000000000000000000000000000000000000000000000081565b6100a06301e1338081565b61010d6040518060400160405280600e81526020016d131bd8dadd5c10dbdb9d1c9858dd60921b81525081565b60405161008e9190610377565b610122610124565b005b61012c610273565b610134610308565b600080546040516370a0823160e01b81523060048201526001600160a01b03909116919082906370a0823190602401602060405180830381865afa158015610180573d6000803e3d6000fd5b505050506040513d601f19601f820116820180604052508101906101a491906103c5565b60405163a9059cbb60e01b81526001600160a01b037f000000000000000000000000000000000000000000000000000000000000000081166004830152602482018390529192509083169063a9059cbb906044016020604051808303816000875af1158015610217573d6000803e3d6000fd5b505050506040513d601f19601f8201168201806040525081019061023b91906103de565b506040518181527f7d17cbc0f78ccfed33842dd29dab2872e8347bf3981293ab2cfe35ca16371a2f9060200160405180910390a15050565b336001600160a01b037f000000000000000000000000000000000000000000000000000000000000000016146103065760405162461bcd60e51b815260206004820152602d60248201527f4c6f636b7570436f6e74726163743a2063616c6c6572206973206e6f7420746860448201526c652062656e656669636961727960981b60648201526084015b60405180910390fd5b565b6001544210156103065760405162461bcd60e51b815260206004820152603460248201527f4c6f636b7570436f6e74726163743a20546865206c6f636b75702064757261746044820152731a5bdb881b5d5cdd081a185d99481c185cdcd95960621b60648201526084016102fd565b600060208083528351808285015260005b818110156103a457858101830151858201604001528201610388565b506000604082860101526040601f19601f8301168501019250505092915050565b6000602082840312156103d757600080fd5b5051919050565b6000602082840312156103f057600080fd5b8151801515811461040057600080fd5b939250505056fea2646970667358221220891d0360991374b9dc9342ea3300de49b8db76d663668ee7f938f229a5571f0664736f6c63430008140033",
					"opcodes": "PUSH1 0xA0 PUSH1 0x40 MSTORE CALLVALUE DUP1 ISZERO PUSH2 0x10 JUMPI PUSH1 0x0 DUP1 REVERT JUMPDEST POP PUSH1 0x40 MLOAD PUSH2 0x723 CODESIZE SUB DUP1 PUSH2 0x723 DUP4 CODECOPY DUP2 ADD PUSH1 0x40 DUP2 SWAP1 MSTORE PUSH2 0x2F SWAP2 PUSH2 0x248 JUMP JUMPDEST PUSH1 0x0 DUP1 SLOAD PUSH1 0x1 PUSH1 0x1 PUSH1 0xA0 SHL SUB NOT AND PUSH1 0x1 PUSH1 0x1 PUSH1 0xA0 SHL SUB DUP6 AND OR SWAP1 SSTORE PUSH2 0x53 DUP2 PUSH2 0xA8 JUMP JUMPDEST PUSH1 0x1 DUP2 SWAP1 SSTORE PUSH1 0x1 PUSH1 0x1 PUSH1 0xA0 SHL SUB DUP3 AND PUSH1 0x80 DUP2 SWAP1 MSTORE PUSH1 0x40 DUP1 MLOAD SWAP2 DUP3 MSTORE PUSH1 0x20 DUP3 ADD DUP4 SWAP1 MSTORE PUSH32 0x5FAEE922186516BF77266643C1FDA130ACEFC439D571400E8697106C6AED9B54 SWAP2 ADD PUSH1 0x40 MLOAD DUP1 SWAP2 SUB SWAP1 LOG1 POP POP POP PUSH2 0x2BE JUMP JUMPDEST PUSH1 0x0 DUP1 PUSH1 0x0 SWAP1 SLOAD SWAP1 PUSH2 0x100 EXP SWAP1 DIV PUSH1 0x1 PUSH1 0x1 PUSH1 0xA0 SHL SUB AND PUSH1 0x1 PUSH1 0x1 PUSH1 0xA0 SHL SUB AND PUSH4 0x3C84B7C2 PUSH1 0x40 MLOAD DUP2 PUSH4 0xFFFFFFFF AND PUSH1 0xE0 SHL DUP2 MSTORE PUSH1 0x4 ADD PUSH1 0x20 PUSH1 0x40 MLOAD DUP1 DUP4 SUB DUP2 DUP7 GAS STATICCALL ISZERO DUP1 ISZERO PUSH2 0xFC JUMPI RETURNDATASIZE PUSH1 0x0 DUP1 RETURNDATACOPY RETURNDATASIZE PUSH1 0x0 REVERT JUMPDEST POP POP POP POP PUSH1 0x40 MLOAD RETURNDATASIZE PUSH1 0x1F NOT PUSH1 0x1F DUP3 ADD AND DUP3 ADD DUP1 PUSH1 0x40 MSTORE POP DUP2 ADD SWAP1 PUSH2 0x120 SWAP2 SWAP1 PUSH2 0x284 JUMP JUMPDEST SWAP1 POP PUSH2 0x130 DUP2 PUSH4 0x1E13380 PUSH2 0x1C4 JUMP JUMPDEST DUP3 LT ISZERO PUSH2 0x1C0 JUMPI PUSH1 0x40 MLOAD PUSH3 0x461BCD PUSH1 0xE5 SHL DUP2 MSTORE PUSH1 0x20 PUSH1 0x4 DUP3 ADD MSTORE PUSH1 0x4D PUSH1 0x24 DUP3 ADD MSTORE PUSH32 0x4C6F636B7570436F6E74726163743A20756E6C6F636B2074696D65206D757374 PUSH1 0x44 DUP3 ADD MSTORE PUSH32 0x206265206174206C65617374206F6E6520796561722061667465722073797374 PUSH1 0x64 DUP3 ADD MSTORE PUSH13 0x195B4819195C1B1BDE5B595B9D PUSH1 0x9A SHL PUSH1 0x84 DUP3 ADD MSTORE PUSH1 0xA4 ADD JUMPDEST PUSH1 0x40 MLOAD DUP1 SWAP2 SUB SWAP1 REVERT JUMPDEST POP POP JUMP JUMPDEST PUSH1 0x0 DUP1 PUSH2 0x1D1 DUP4 DUP6 PUSH2 0x29D JUMP JUMPDEST SWAP1 POP DUP4 DUP2 LT ISZERO PUSH2 0x223 JUMPI PUSH1 0x40 MLOAD PUSH3 0x461BCD PUSH1 0xE5 SHL DUP2 MSTORE PUSH1 0x20 PUSH1 0x4 DUP3 ADD MSTORE PUSH1 0x1B PUSH1 0x24 DUP3 ADD MSTORE PUSH32 0x536166654D6174683A206164646974696F6E206F766572666C6F770000000000 PUSH1 0x44 DUP3 ADD MSTORE PUSH1 0x64 ADD PUSH2 0x1B7 JUMP JUMPDEST SWAP1 POP JUMPDEST SWAP3 SWAP2 POP POP JUMP JUMPDEST DUP1 MLOAD PUSH1 0x1 PUSH1 0x1 PUSH1 0xA0 SHL SUB DUP2 AND DUP2 EQ PUSH2 0x243 JUMPI PUSH1 0x0 DUP1 REVERT JUMPDEST SWAP2 SWAP1 POP JUMP JUMPDEST PUSH1 0x0 DUP1 PUSH1 0x0 PUSH1 0x60 DUP5 DUP7 SUB SLT ISZERO PUSH2 0x25D JUMPI PUSH1 0x0 DUP1 REVERT JUMPDEST PUSH2 0x266 DUP5 PUSH2 0x22C JUMP JUMPDEST SWAP3 POP PUSH2 0x274 PUSH1 0x20 DUP6 ADD PUSH2 0x22C JUMP JUMPDEST SWAP2 POP PUSH1 0x40 DUP5 ADD MLOAD SWAP1 POP SWAP3 POP SWAP3 POP SWAP3 JUMP JUMPDEST PUSH1 0x0 PUSH1 0x20 DUP3 DUP5 SUB SLT ISZERO PUSH2 0x296 JUMPI PUSH1 0x0 DUP1 REVERT JUMPDEST POP MLOAD SWAP2 SWAP1 POP JUMP JUMPDEST DUP1 DUP3 ADD DUP1 DUP3 GT ISZERO PUSH2 0x226 JUMPI PUSH4 0x4E487B71 PUSH1 0xE0 SHL PUSH1 0x0 MSTORE PUSH1 0x11 PUSH1 0x4 MSTORE PUSH1 0x24 PUSH1 0x0 REVERT JUMPDEST PUSH1 0x80 MLOAD PUSH2 0x43D PUSH2 0x2E6 PUSH1 0x0 CODECOPY PUSH1 0x0 DUP2 DUP2 PUSH1 0xB3 ADD MSTORE DUP2 DUP2 PUSH2 0x1BB ADD MSTORE PUSH2 0x27E ADD MSTORE PUSH2 0x43D PUSH1 0x0 RETURN INVALID PUSH1 0x80 PUSH1 0x40 MSTORE CALLVALUE DUP1 ISZERO PUSH2 0x10 JUMPI PUSH1 0x0 DUP1 REVERT JUMPDEST POP PUSH1 0x4 CALLDATASIZE LT PUSH2 0x62 JUMPI PUSH1 0x0 CALLDATALOAD PUSH1 0xE0 SHR DUP1 PUSH4 0x1F7AF3C3 EQ PUSH2 0x67 JUMPI DUP1 PUSH4 0x251C1AA3 EQ PUSH2 0x97 JUMPI DUP1 PUSH4 0x38AF3EED EQ PUSH2 0xAE JUMPI DUP1 PUSH4 0x98E5F3C4 EQ PUSH2 0xD5 JUMPI DUP1 PUSH4 0xA3F4DF7E EQ PUSH2 0xE0 JUMPI DUP1 PUSH4 0xB9470A46 EQ PUSH2 0x11A JUMPI JUMPDEST PUSH1 0x0 DUP1 REVERT JUMPDEST PUSH1 0x0 SLOAD PUSH2 0x7A SWAP1 PUSH1 0x1 PUSH1 0x1 PUSH1 0xA0 SHL SUB AND DUP2 JUMP JUMPDEST PUSH1 0x40 MLOAD PUSH1 0x1 PUSH1 0x1 PUSH1 0xA0 SHL SUB SWAP1 SWAP2 AND DUP2 MSTORE PUSH1 0x20 ADD JUMPDEST PUSH1 0x40 MLOAD DUP1 SWAP2 SUB SWAP1 RETURN JUMPDEST PUSH2 0xA0 PUSH1 0x1 SLOAD DUP2 JUMP JUMPDEST PUSH1 0x40 MLOAD SWAP1 DUP2 MSTORE PUSH1 0x20 ADD PUSH2 0x8E JUMP JUMPDEST PUSH2 0x7A PUSH32 0x0 DUP2 JUMP JUMPDEST PUSH2 0xA0 PUSH4 0x1E13380 DUP2 JUMP JUMPDEST PUSH2 0x10D PUSH1 0x40 MLOAD DUP1 PUSH1 0x40 ADD PUSH1 0x40 MSTORE DUP1 PUSH1 0xE DUP2 MSTORE PUSH1 0x20 ADD PUSH14 0x131BD8DADD5C10DBDB9D1C9858DD PUSH1 0x92 SHL DUP2 MSTORE POP DUP2 JUMP JUMPDEST PUSH1 0x40 MLOAD PUSH2 0x8E SWAP2 SWAP1 PUSH2 0x377 JUMP JUMPDEST PUSH2 0x122 PUSH2 0x124 JUMP JUMPDEST STOP JUMPDEST PUSH2 0x12C PUSH2 0x273 JUMP JUMPDEST PUSH2 0x134 PUSH2 0x308 JUMP JUMPDEST PUSH1 0x0 DUP1 SLOAD PUSH1 0x40 MLOAD PUSH4 0x70A08231 PUSH1 0xE0 SHL DUP2 MSTORE ADDRESS PUSH1 0x4 DUP3 ADD MSTORE PUSH1 0x1 PUSH1 0x1 PUSH1 0xA0 SHL SUB SWAP1 SWAP2 AND SWAP2 SWAP1 DUP3 SWAP1 PUSH4 0x70A08231 SWAP1 PUSH1 0x24 ADD PUSH1 0x20 PUSH1 0x40 MLOAD DUP1 DUP4 SUB DUP2 DUP7 GAS STATICCALL ISZERO DUP1 ISZERO PUSH2 0x180 JUMPI RETURNDATASIZE PUSH1 0x0 DUP1 RETURNDATACOPY RETURNDATASIZE PUSH1 0x0 REVERT JUMPDEST POP POP POP POP PUSH1 0x40 MLOAD RETURNDATASIZE PUSH1 0x1F NOT PUSH1 0x1F DUP3 ADD AND DUP3 ADD DUP1 PUSH1 0x40 MSTORE POP DUP2 ADD SWAP1 PUSH2 0x1A4 SWAP2 SWAP1 PUSH2 0x3C5 JUMP JUMPDEST PUSH1 0x40 MLOAD PUSH4 0xA9059CBB PUSH1 0xE0 SHL DUP2 MSTORE PUSH1 0x1 PUSH1 0x1 PUSH1 0xA0 SHL SUB PUSH32 0x0 DUP2 AND PUSH1 0x4 DUP4 ADD MSTORE PUSH1 0x24 DUP3 ADD DUP4 SWAP1 MSTORE SWAP2 SWAP3 POP SWAP1 DUP4 AND SWAP1 PUSH4 0xA9059CBB SWAP1 PUSH1 0x44 ADD PUSH1 0x20 PUSH1 0x40 MLOAD DUP1 DUP4 SUB DUP2 PUSH1 0x0 DUP8 GAS CALL ISZERO DUP1 ISZERO PUSH2 0x217 JUMPI RETURNDATASIZE PUSH1 0x0 DUP1 RETURNDATACOPY RETURNDATASIZE PUSH1 0x0 REVERT JUMPDEST POP POP POP POP PUSH1 0x40 MLOAD RETURNDATASIZE PUSH1 0x1F NOT PUSH1 0x1F DUP3 ADD AND DUP3 ADD DUP1 PUSH1 0x40 MSTORE POP DUP2 ADD SWAP1 PUSH2 0x23B SWAP2 SWAP1 PUSH2 0x3DE JUMP JUMPDEST POP PUSH1 0x40 MLOAD DUP2 DUP2 MSTORE PUSH32 0x7D17CBC0F78CCFED33842DD29DAB2872E8347BF3981293AB2CFE35CA16371A2F SWAP1 PUSH1 0x20 ADD PUSH1 0x40 MLOAD DUP1 SWAP2 SUB SWAP1 LOG1 POP POP JUMP JUMPDEST CALLER PUSH1 0x1 PUSH1 0x1 PUSH1 0xA0 SHL SUB PUSH32 0x0 AND EQ PUSH2 0x306 JUMPI PUSH1 0x40 MLOAD PUSH3 0x461BCD PUSH1 0xE5 SHL DUP2 MSTORE PUSH1 0x20 PUSH1 0x4 DUP3 ADD MSTORE PUSH1 0x2D PUSH1 0x24 DUP3 ADD MSTORE PUSH32 0x4C6F636B7570436F6E74726163743A2063616C6C6572206973206E6F74207468 PUSH1 0x44 DUP3 ADD MSTORE PUSH13 0x652062656E6566696369617279 PUSH1 0x98 SHL PUSH1 0x64 DUP3 ADD MSTORE PUSH1 0x84 ADD JUMPDEST PUSH1 0x40 MLOAD DUP1 SWAP2 SUB SWAP1 REVERT JUMPDEST JUMP JUMPDEST PUSH1 0x1 SLOAD TIMESTAMP LT ISZERO PUSH2 0x306 JUMPI PUSH1 0x40 MLOAD PUSH3 0x461BCD PUSH1 0xE5 SHL DUP2 MSTORE PUSH1 0x20 PUSH1 0x4 DUP3 ADD MSTORE PUSH1 0x34 PUSH1 0x24 DUP3 ADD MSTORE PUSH32 0x4C6F636B7570436F6E74726163743A20546865206C6F636B7570206475726174 PUSH1 0x44 DUP3 ADD MSTORE PUSH20 0x1A5BDB881B5D5CDD081A185D99481C185CDCD959 PUSH1 0x62 SHL PUSH1 0x64 DUP3 ADD MSTORE PUSH1 0x84 ADD PUSH2 0x2FD JUMP JUMPDEST PUSH1 0x0 PUSH1 0x20 DUP1 DUP4 MSTORE DUP4 MLOAD DUP1 DUP3 DUP6 ADD MSTORE PUSH1 0x0 JUMPDEST DUP2 DUP2 LT ISZERO PUSH2 0x3A4 JUMPI DUP6 DUP2 ADD DUP4 ADD MLOAD DUP6 DUP3 ADD PUSH1 0x40 ADD MSTORE DUP3 ADD PUSH2 0x388 JUMP JUMPDEST POP PUSH1 0x0 PUSH1 0x40 DUP3 DUP7 ADD ADD MSTORE PUSH1 0x40 PUSH1 0x1F NOT PUSH1 0x1F DUP4 ADD AND DUP6 ADD ADD SWAP3 POP POP POP SWAP3 SWAP2 POP POP JUMP JUMPDEST PUSH1 0x0 PUSH1 0x20 DUP3 DUP5 SUB SLT ISZERO PUSH2 0x3D7 JUMPI PUSH1 0x0 DUP1 REVERT JUMPDEST POP MLOAD SWAP2 SWAP1 POP JUMP JUMPDEST PUSH1 0x0 PUSH1 0x20 DUP3 DUP5 SUB SLT ISZERO PUSH2 0x3F0 JUMPI PUSH1 0x0 DUP1 REVERT JUMPDEST DUP2 MLOAD DUP1 ISZERO ISZERO DUP2 EQ PUSH2 0x400 JUMPI PUSH1 0x0 DUP1 REVERT JUMPDEST SWAP4 SWAP3 POP POP POP JUMP INVALID LOG2 PUSH5 0x6970667358 0x22 SLT KECCAK256 DUP10 SAR SUB PUSH1 0x99 SGT PUSH21 0xB9DC9342EA3300DE49B8DB76D663668EE7F938F229 0xA5 JUMPI 0x1F MOD PUSH5 0x736F6C6343 STOP ADDMOD EQ STOP CALLER "
				},
				"gasEstimates": {
					"creation": {
						"codeDepositCost": "217000",
						"executionCost": "infinite",
						"totalCost": "infinite"
					},
					"external": {
						"NAME()": "infinite",
						"SECONDS_IN_ONE_YEAR()": "239",
						"beneficiary()": "infinite",
						"lqtyToken()": "2304",
						"unlockTime()": "2295",
						"withdrawLQTY()": "infinite"
					},
					"internal": {
						"_requireCallerIsBeneficiary()": "infinite",
						"_requireLockupDurationHasPassed()": "infinite",
						"_requireUnlockTimeIsAtLeastOneYearAfterSystemDeployment(uint256)": "infinite"
					}
				},
				"methodIdentifiers": {
					"NAME()": "a3f4df7e",
					"SECONDS_IN_ONE_YEAR()": "98e5f3c4",
					"beneficiary()": "38af3eed",
					"lqtyToken()": "1f7af3c3",
					"unlockTime()": "251c1aa3",
					"withdrawLQTY()": "b9470a46"
				}
			},
			"storageLayout": {
				"storage": [
					{
						"astId": 402,
						"contract": "contracts/LQTY/LockupContract.sol:LockupContract",
						"label": "lqtyToken",
						"offset": 0,
						"slot": "0",
						"type": "t_contract(ILQTYToken)384"
					},
					{
						"astId": 404,
						"contract": "contracts/LQTY/LockupContract.sol:LockupContract",
						"label": "unlockTime",
						"offset": 0,
						"slot": "1",
						"type": "t_uint256"
					}
				],
				"types": {
					"t_contract(ILQTYToken)384": {
						"encoding": "inplace",
						"label": "contract ILQTYToken",
						"numberOfBytes": "20"
					},
					"t_uint256": {
						"encoding": "inplace",
						"label": "uint256",
						"numberOfBytes": "32"
					}
				}
			},
			"userdoc": {
				"kind": "user",
				"methods": {},
				"version": 1
			}
		}
	}
}