{
	"contracts/PriceFeed.sol": {
		"PriceFeed": {
			"abi": [
				{
					"inputs": [
						{
							"internalType": "address",
							"name": "DIAOracleAddress",
							"type": "address"
						},
						{
							"internalType": "address",
							"name": "fallbackOracle",
							"type": "address"
						},
						{
							"internalType": "address",
							"name": "baseCurrency",
							"type": "address"
						},
						{
							"internalType": "uint256",
							"name": "baseCurrencyUnit",
							"type": "uint256"
						},
						{
							"internalType": "uint256",
							"name": "priceAgeLimit",
							"type": "uint256"
						}
					],
					"stateMutability": "nonpayable",
					"type": "constructor"
				},
				{
					"anonymous": false,
					"inputs": [
						{
							"indexed": true,
							"internalType": "address",
							"name": "asset",
							"type": "address"
						},
						{
							"indexed": true,
							"internalType": "string",
							"name": "key",
							"type": "string"
						}
					],
					"name": "AssetKeyUpdated",
					"type": "event"
				},
				{
					"anonymous": false,
					"inputs": [
						{
							"indexed": true,
							"internalType": "address",
							"name": "baseCurrency",
							"type": "address"
						},
						{
							"indexed": false,
							"internalType": "uint256",
							"name": "baseCurrencyUnit",
							"type": "uint256"
						}
					],
					"name": "BaseCurrencySet",
					"type": "event"
				},
				{
					"anonymous": false,
					"inputs": [
						{
							"indexed": true,
							"internalType": "address",
							"name": "diaOracleAddress",
							"type": "address"
						}
					],
					"name": "DIAOracleUpdated",
					"type": "event"
				},
				{
					"anonymous": false,
					"inputs": [
						{
							"indexed": false,
							"internalType": "address",
							"name": "asset",
							"type": "address"
						}
					],
					"name": "EthAddressUpdated",
					"type": "event"
				},
				{
					"anonymous": false,
					"inputs": [
						{
							"indexed": true,
							"internalType": "address",
							"name": "fallbackOracle",
							"type": "address"
						}
					],
					"name": "FallbackOracleUpdated",
					"type": "event"
				},
				{
					"anonymous": false,
					"inputs": [
						{
							"indexed": true,
							"internalType": "address",
							"name": "previousOwner",
							"type": "address"
						},
						{
							"indexed": true,
							"internalType": "address",
							"name": "newOwner",
							"type": "address"
						}
					],
					"name": "OwnershipTransferred",
					"type": "event"
				},
				{
					"inputs": [],
					"name": "BASE_CURRENCY",
					"outputs": [
						{
							"internalType": "address",
							"name": "",
							"type": "address"
						}
					],
					"stateMutability": "view",
					"type": "function"
				},
				{
					"inputs": [],
					"name": "BASE_CURRENCY_UNIT",
					"outputs": [
						{
							"internalType": "uint256",
							"name": "",
							"type": "uint256"
						}
					],
					"stateMutability": "view",
					"type": "function"
				},
				{
					"inputs": [],
					"name": "CONVERSION_FACTOR",
					"outputs": [
						{
							"internalType": "uint256",
							"name": "",
							"type": "uint256"
						}
					],
					"stateMutability": "view",
					"type": "function"
				},
				{
					"inputs": [],
					"name": "fetchPrice",
					"outputs": [
						{
							"internalType": "uint256",
							"name": "",
							"type": "uint256"
						}
					],
					"stateMutability": "view",
					"type": "function"
				},
				{
					"inputs": [],
					"name": "getFallbackOracle",
					"outputs": [
						{
							"internalType": "address",
							"name": "",
							"type": "address"
						}
					],
					"stateMutability": "view",
					"type": "function"
				},
				{
					"inputs": [],
					"name": "getMasterOracle",
					"outputs": [
						{
							"internalType": "address",
							"name": "",
							"type": "address"
						}
					],
					"stateMutability": "view",
					"type": "function"
				},
				{
					"inputs": [],
					"name": "getMaxPriceAgeLimit",
					"outputs": [
						{
							"internalType": "uint256",
							"name": "",
							"type": "uint256"
						}
					],
					"stateMutability": "view",
					"type": "function"
				},
				{
					"inputs": [
						{
							"internalType": "address",
							"name": "asset",
							"type": "address"
						}
					],
					"name": "getSourceOfAsset",
					"outputs": [
						{
							"internalType": "string",
							"name": "",
							"type": "string"
						}
					],
					"stateMutability": "view",
					"type": "function"
				},
				{
					"inputs": [],
					"name": "isOwner",
					"outputs": [
						{
							"internalType": "bool",
							"name": "",
							"type": "bool"
						}
					],
					"stateMutability": "view",
					"type": "function"
				},
				{
					"inputs": [],
					"name": "owner",
					"outputs": [
						{
							"internalType": "address",
							"name": "",
							"type": "address"
						}
					],
					"stateMutability": "view",
					"type": "function"
				},
				{
					"inputs": [
						{
							"internalType": "address",
							"name": "asset",
							"type": "address"
						},
						{
							"internalType": "string",
							"name": "key",
							"type": "string"
						}
					],
					"name": "setAssetKey",
					"outputs": [],
					"stateMutability": "nonpayable",
					"type": "function"
				},
				{
					"inputs": [
						{
							"internalType": "address",
							"name": "diaOracleAddress",
							"type": "address"
						}
					],
					"name": "setDIAOracle",
					"outputs": [],
					"stateMutability": "nonpayable",
					"type": "function"
				},
				{
					"inputs": [
						{
							"internalType": "address",
							"name": "fallbackOracle",
							"type": "address"
						}
					],
					"name": "setFallbackOracle",
					"outputs": [],
					"stateMutability": "nonpayable",
					"type": "function"
				},
				{
					"inputs": [
						{
							"internalType": "uint256",
							"name": "AgeLimit",
							"type": "uint256"
						}
					],
					"name": "setMaxPriceAgeLimit",
					"outputs": [],
					"stateMutability": "nonpayable",
					"type": "function"
				},
				{
					"inputs": [
						{
							"internalType": "address",
							"name": "asset",
							"type": "address"
						}
					],
					"name": "setwEthAddress",
					"outputs": [],
					"stateMutability": "nonpayable",
					"type": "function"
				}
			],
			"devdoc": {
				"author": "Meridian Finance",
				"kind": "dev",
				"methods": {
					"constructor": {
						"params": {
							"DIAOracleAddress": "The address of the master oracle to use",
							"baseCurrency": "the base currency used for the price quotes. If USD is used, base currency is 0x0",
							"baseCurrencyUnit": "the unit of the base currency",
							"fallbackOracle": "The address of the fallback oracle to use if the data of an aggregator is not consistent",
							"priceAgeLimit": "the max permitted age of oracle price before call is forwarded to fallback oracle"
						}
					},
					"getFallbackOracle()": {
						"returns": {
							"_0": "address The addres of the fallback oracle"
						}
					},
					"getMasterOracle()": {
						"returns": {
							"_0": "address The addres of the DIA oracle"
						}
					},
					"getMaxPriceAgeLimit()": {
						"returns": {
							"_0": "the max age in seconds"
						}
					},
					"getSourceOfAsset(address)": {
						"returns": {
							"_0": "The DIA key string"
						}
					},
					"isOwner()": {
						"details": "Returns true if the caller is the current owner."
					},
					"owner()": {
						"details": "Returns the address of the current owner."
					},
					"setAssetKey(address,string)": {
						"params": {
							"asset": "The address of the asset to be set",
							"key": "The DIA keys/symbol of the source of each asset"
						}
					},
					"setDIAOracle(address)": {
						"params": {
							"diaOracleAddress": "The address of the MasterOracle"
						}
					},
					"setFallbackOracle(address)": {
						"params": {
							"fallbackOracle": "The address of the fallbackOracle"
						}
					},
					"setMaxPriceAgeLimit(uint256)": {
						"params": {
							"AgeLimit": "max age in seconds of latest price"
						}
					}
				},
				"title": "PriceFeed",
				"version": 1
			},
			"evm": {
				"assembly": "    /* \"contracts/PriceFeed.sol\":704:5790  contract PriceFeed is Ownable {... */\n  mstore(0x40, 0xe0)\n    /* \"contracts/PriceFeed.sol\":1341:1352  10000000000 */\n  0x02540be400\n    /* \"contracts/PriceFeed.sol\":1296:1352  uint256 public immutable CONVERSION_FACTOR = 10000000000 */\n  0xc0\n  mstore\n    /* \"contracts/PriceFeed.sol\":1906:2319  constructor(... */\n  callvalue\n  dup1\n  iszero\n  tag_1\n  jumpi\n  0x00\n  dup1\n  revert\ntag_1:\n  pop\n  mload(0x40)\n  sub(codesize, bytecodeSize)\n  dup1\n  bytecodeSize\n  dup4\n  codecopy\n  dup2\n  add\n  0x40\n  dup2\n  swap1\n  mstore\n  tag_2\n  swap2\n  tag_3\n  jump\t// in\ntag_2:\n    /* \"contracts/Dependencies/Ownable.sol\":829:835  _owner */\n  0x00\n    /* \"contracts/Dependencies/Ownable.sol\":829:848  _owner = msg.sender */\n  dup1\n  sload\n  not(sub(shl(0xa0, 0x01), 0x01))\n  and\n    /* \"contracts/Dependencies/Ownable.sol\":838:848  msg.sender */\n  caller\n    /* \"contracts/Dependencies/Ownable.sol\":829:848  _owner = msg.sender */\n  swap1\n  dup2\n  or\n  dup3\n  sstore\n    /* \"contracts/Dependencies/Ownable.sol\":863:907  OwnershipTransferred(address(0), msg.sender) */\n  mload(0x40)\n    /* \"contracts/Dependencies/Ownable.sol\":838:848  msg.sender */\n  swap1\n  swap2\n    /* \"contracts/Dependencies/Ownable.sol\":829:835  _owner */\n  swap1\n    /* \"contracts/Dependencies/Ownable.sol\":863:907  OwnershipTransferred(address(0), msg.sender) */\n  0x8be0079c531659141344cd1fd0a4f28419497f9722a3daafe3b4186f6b6457e0\n  swap1\n    /* \"contracts/Dependencies/Ownable.sol\":829:835  _owner */\n  dup3\n  swap1\n    /* \"contracts/Dependencies/Ownable.sol\":863:907  OwnershipTransferred(address(0), msg.sender) */\n  log3\n    /* \"contracts/PriceFeed.sol\":2070:2101  _setDIAOracle(DIAOracleAddress) */\n  tag_8\n    /* \"contracts/PriceFeed.sol\":2084:2100  DIAOracleAddress */\n  dup6\n    /* \"contracts/PriceFeed.sol\":2070:2083  _setDIAOracle */\n  tag_9\n    /* \"contracts/PriceFeed.sol\":2070:2101  _setDIAOracle(DIAOracleAddress) */\n  jump\t// in\ntag_8:\n    /* \"contracts/PriceFeed.sol\":2107:2141  _setFallbackOracle(fallbackOracle) */\n  tag_10\n    /* \"contracts/PriceFeed.sol\":2126:2140  fallbackOracle */\n  dup5\n    /* \"contracts/PriceFeed.sol\":2107:2125  _setFallbackOracle */\n  tag_11\n    /* \"contracts/PriceFeed.sol\":2107:2141  _setFallbackOracle(fallbackOracle) */\n  jump\t// in\ntag_10:\n    /* \"contracts/PriceFeed.sol\":2147:2163  maxPriceAgeLimit */\n  0x04\n    /* \"contracts/PriceFeed.sol\":2147:2179  maxPriceAgeLimit = priceAgeLimit */\n  dup2\n  swap1\n  sstore\n  sub(shl(0xa0, 0x01), 0x01)\n    /* \"contracts/PriceFeed.sol\":2185:2213  BASE_CURRENCY = baseCurrency */\n  dup4\n  and\n  0x80\n  dup2\n  swap1\n  mstore\n    /* \"contracts/PriceFeed.sol\":2219:2256  BASE_CURRENCY_UNIT = baseCurrencyUnit */\n  0xa0\n  dup4\n  swap1\n  mstore\n    /* \"contracts/PriceFeed.sol\":2267:2314  BaseCurrencySet(baseCurrency, baseCurrencyUnit) */\n  mload(0x40)\n    /* \"#utility.yul\":849:874   */\n  dup4\n  dup2\n  mstore\n    /* \"contracts/PriceFeed.sol\":2267:2314  BaseCurrencySet(baseCurrency, baseCurrencyUnit) */\n  0xe27c4c1372396a3d15a9922f74f9dfc7c72b1ad6d63868470787249c356454c1\n  swap1\n    /* \"#utility.yul\":837:839   */\n  0x20\n    /* \"#utility.yul\":822:840   */\n  add\n    /* \"contracts/PriceFeed.sol\":2267:2314  BaseCurrencySet(baseCurrency, baseCurrencyUnit) */\n  mload(0x40)\n  dup1\n  swap2\n  sub\n  swap1\n  log2\n    /* \"contracts/PriceFeed.sol\":1906:2319  constructor(... */\n  pop\n  pop\n  pop\n  pop\n  pop\n    /* \"contracts/PriceFeed.sol\":704:5790  contract PriceFeed is Ownable {... */\n  jump(tag_18)\n    /* \"contracts/PriceFeed.sol\":3825:3978  function _setDIAOracle(address diaOracleAddress) internal {    ... */\ntag_9:\n    /* \"contracts/PriceFeed.sol\":3893:3896  DIA */\n  0x05\n    /* \"contracts/PriceFeed.sol\":3893:3928  DIA = DIAOracleV2(diaOracleAddress) */\n  dup1\n  sload\n  not(sub(shl(0xa0, 0x01), 0x01))\n  and\n  sub(shl(0xa0, 0x01), 0x01)\n  dup4\n  and\n  swap1\n  dup2\n  or\n  swap1\n  swap2\n  sstore\n    /* \"contracts/PriceFeed.sol\":3939:3973  DIAOracleUpdated(diaOracleAddress) */\n  mload(0x40)\n  0x535b93d9e0be2f8cf2ba1e1f1f8c174e03aa29676b42aad916bc7190d29abe90\n  swap1\n  0x00\n  swap1\n  log2\n    /* \"contracts/PriceFeed.sol\":3825:3978  function _setDIAOracle(address diaOracleAddress) internal {    ... */\n  pop\n  jump\t// out\n    /* \"contracts/PriceFeed.sol\":4102:4274  function _setFallbackOracle(address fallbackOracle) internal {... */\ntag_11:\n    /* \"contracts/PriceFeed.sol\":4169:4184  _fallbackOracle */\n  0x03\n    /* \"contracts/PriceFeed.sol\":4169:4221  _fallbackOracle = IPriceOracleGetter(fallbackOracle) */\n  dup1\n  sload\n  not(sub(shl(0xa0, 0x01), 0x01))\n  and\n  sub(shl(0xa0, 0x01), 0x01)\n  dup4\n  and\n  swap1\n  dup2\n  or\n  swap1\n  swap2\n  sstore\n    /* \"contracts/PriceFeed.sol\":4232:4269  FallbackOracleUpdated(fallbackOracle) */\n  mload(0x40)\n  0xce7a780d33665b1ea097af5f155e3821b809ecbaa839d3b33aa83ba28168cefb\n  swap1\n  0x00\n  swap1\n  log2\n    /* \"contracts/PriceFeed.sol\":4102:4274  function _setFallbackOracle(address fallbackOracle) internal {... */\n  pop\n  jump\t// out\n    /* \"#utility.yul\":14:191   */\ntag_17:\n    /* \"#utility.yul\":93:106   */\n  dup1\n  mload\n  sub(shl(0xa0, 0x01), 0x01)\n    /* \"#utility.yul\":135:166   */\n  dup2\n  and\n    /* \"#utility.yul\":125:167   */\n  dup2\n  eq\n    /* \"#utility.yul\":115:185   */\n  tag_20\n  jumpi\n    /* \"#utility.yul\":181:182   */\n  0x00\n    /* \"#utility.yul\":178:179   */\n  dup1\n    /* \"#utility.yul\":171:183   */\n  revert\n    /* \"#utility.yul\":115:185   */\ntag_20:\n    /* \"#utility.yul\":14:191   */\n  swap2\n  swap1\n  pop\n  jump\t// out\n    /* \"#utility.yul\":196:698   */\ntag_3:\n    /* \"#utility.yul\":302:308   */\n  0x00\n    /* \"#utility.yul\":310:316   */\n  dup1\n    /* \"#utility.yul\":318:324   */\n  0x00\n    /* \"#utility.yul\":326:332   */\n  dup1\n    /* \"#utility.yul\":334:340   */\n  0x00\n    /* \"#utility.yul\":387:390   */\n  0xa0\n    /* \"#utility.yul\":375:384   */\n  dup7\n    /* \"#utility.yul\":366:373   */\n  dup9\n    /* \"#utility.yul\":362:385   */\n  sub\n    /* \"#utility.yul\":358:391   */\n  slt\n    /* \"#utility.yul\":355:408   */\n  iszero\n  tag_22\n  jumpi\n    /* \"#utility.yul\":404:405   */\n  0x00\n    /* \"#utility.yul\":401:402   */\n  dup1\n    /* \"#utility.yul\":394:406   */\n  revert\n    /* \"#utility.yul\":355:408   */\ntag_22:\n    /* \"#utility.yul\":427:467   */\n  tag_23\n    /* \"#utility.yul\":457:466   */\n  dup7\n    /* \"#utility.yul\":427:467   */\n  tag_17\n  jump\t// in\ntag_23:\n    /* \"#utility.yul\":417:467   */\n  swap5\n  pop\n    /* \"#utility.yul\":486:535   */\n  tag_24\n    /* \"#utility.yul\":531:533   */\n  0x20\n    /* \"#utility.yul\":520:529   */\n  dup8\n    /* \"#utility.yul\":516:534   */\n  add\n    /* \"#utility.yul\":486:535   */\n  tag_17\n  jump\t// in\ntag_24:\n    /* \"#utility.yul\":476:535   */\n  swap4\n  pop\n    /* \"#utility.yul\":554:603   */\n  tag_25\n    /* \"#utility.yul\":599:601   */\n  0x40\n    /* \"#utility.yul\":588:597   */\n  dup8\n    /* \"#utility.yul\":584:602   */\n  add\n    /* \"#utility.yul\":554:603   */\n  tag_17\n  jump\t// in\ntag_25:\n    /* \"#utility.yul\":643:645   */\n  0x60\n    /* \"#utility.yul\":628:646   */\n  dup8\n  add\n    /* \"#utility.yul\":622:647   */\n  mload\n    /* \"#utility.yul\":687:690   */\n  0x80\n    /* \"#utility.yul\":672:691   */\n  swap1\n  swap8\n  add\n    /* \"#utility.yul\":666:692   */\n  mload\n    /* \"#utility.yul\":196:698   */\n  swap6\n  swap9\n  swap5\n  swap8\n  pop\n    /* \"#utility.yul\":544:603   */\n  swap6\n    /* \"#utility.yul\":622:647   */\n  swap5\n    /* \"#utility.yul\":666:692   */\n  swap4\n    /* \"#utility.yul\":196:698   */\n  swap3\n  pop\n  pop\n  pop\n  jump\t// out\n    /* \"#utility.yul\":703:880   */\ntag_18:\n    /* \"contracts/PriceFeed.sol\":704:5790  contract PriceFeed is Ownable {... */\n  mload(0x80)\n  mload(0xa0)\n  mload(0xc0)\n  codecopy(0x00, dataOffset(sub_0), dataSize(sub_0))\n  0x00\n  assignImmutable(\"0x06a86cedc6cacd68c72b41c10c237851dfed5ce85910507dd1c9be6a7d822d04\")\n  0x00\n  assignImmutable(\"0x51863e56b7cfaa34136dd39904ea52747b45d5dc781efc9504f80805fc45ebbd\")\n  0x00\n  assignImmutable(\"0xbf1fcd4bbdcfbc55a741fb1df45db5ad6a5122c50e7ade06e72a5499ae322de6\")\n  return(0x00, dataSize(sub_0))\nstop\n\nsub_0: assembly {\n        /* \"contracts/PriceFeed.sol\":704:5790  contract PriceFeed is Ownable {... */\n      mstore(0x40, 0x80)\n      callvalue\n      dup1\n      iszero\n      tag_1\n      jumpi\n      0x00\n      dup1\n      revert\n    tag_1:\n      pop\n      jumpi(tag_2, lt(calldatasize, 0x04))\n      shr(0xe0, calldataload(0x00))\n      dup1\n      0x8f32d59b\n      gt\n      tag_18\n      jumpi\n      dup1\n      0xd5725f1c\n      gt\n      tag_19\n      jumpi\n      dup1\n      0xd5725f1c\n      eq\n      tag_14\n      jumpi\n      dup1\n      0xdece273f\n      eq\n      tag_15\n      jumpi\n      dup1\n      0xe19f4700\n      eq\n      tag_16\n      jumpi\n      dup1\n      0xf8cdd014\n      eq\n      tag_17\n      jumpi\n      0x00\n      dup1\n      revert\n    tag_19:\n      dup1\n      0x8f32d59b\n      eq\n      tag_10\n      jumpi\n      dup1\n      0x92a1aebf\n      eq\n      tag_11\n      jumpi\n      dup1\n      0x92bf2be0\n      eq\n      tag_12\n      jumpi\n      dup1\n      0xbd252281\n      eq\n      tag_13\n      jumpi\n      0x00\n      dup1\n      revert\n    tag_18:\n      dup1\n      0x6210308c\n      gt\n      tag_20\n      jumpi\n      dup1\n      0x6210308c\n      eq\n      tag_6\n      jumpi\n      dup1\n      0x85152e45\n      eq\n      tag_7\n      jumpi\n      dup1\n      0x8c89b64f\n      eq\n      tag_8\n      jumpi\n      dup1\n      0x8da5cb5b\n      eq\n      tag_9\n      jumpi\n      0x00\n      dup1\n      revert\n    tag_20:\n      dup1\n      0x0fdb11cf\n      eq\n      tag_3\n      jumpi\n      dup1\n      0x170aee73\n      eq\n      tag_4\n      jumpi\n      dup1\n      0x57fc3614\n      eq\n      tag_5\n      jumpi\n    tag_2:\n      0x00\n      dup1\n      revert\n        /* \"contracts/PriceFeed.sol\":4308:4896  function fetchPrice() external view returns (uint256) {... */\n    tag_3:\n      tag_21\n      tag_22\n      jump\t// in\n    tag_21:\n      mload(0x40)\n        /* \"#utility.yul\":160:185   */\n      swap1\n      dup2\n      mstore\n        /* \"#utility.yul\":148:150   */\n      0x20\n        /* \"#utility.yul\":133:151   */\n      add\n        /* \"contracts/PriceFeed.sol\":4308:4896  function fetchPrice() external view returns (uint256) {... */\n    tag_23:\n      mload(0x40)\n      dup1\n      swap2\n      sub\n      swap1\n      return\n        /* \"contracts/PriceFeed.sol\":3299:3414  function setFallbackOracle(address fallbackOracle) external onlyOwner {... */\n    tag_4:\n      tag_25\n      tag_26\n      calldatasize\n      0x04\n      tag_27\n      jump\t// in\n    tag_26:\n      tag_28\n      jump\t// in\n    tag_25:\n      stop\n        /* \"contracts/PriceFeed.sol\":3086:3195  function setDIAOracle(address diaOracleAddress) external onlyOwner {... */\n    tag_5:\n      tag_25\n      tag_30\n      calldatasize\n      0x04\n      tag_27\n      jump\t// in\n    tag_30:\n      tag_31\n      jump\t// in\n        /* \"contracts/PriceFeed.sol\":5445:5548  function getFallbackOracle() external view returns (address) {... */\n    tag_6:\n        /* \"contracts/PriceFeed.sol\":5527:5542  _fallbackOracle */\n      and(sub(shl(0xa0, 0x01), 0x01), sload(0x03))\n        /* \"contracts/PriceFeed.sol\":5445:5548  function getFallbackOracle() external view returns (address) {... */\n    tag_32:\n      mload(0x40)\n      sub(shl(0xa0, 0x01), 0x01)\n        /* \"#utility.yul\":729:761   */\n      swap1\n      swap2\n      and\n        /* \"#utility.yul\":711:762   */\n      dup2\n      mstore\n        /* \"#utility.yul\":699:701   */\n      0x20\n        /* \"#utility.yul\":684:702   */\n      add\n        /* \"contracts/PriceFeed.sol\":5445:5548  function getFallbackOracle() external view returns (address) {... */\n      tag_23\n        /* \"#utility.yul\":565:768   */\n      jump\n        /* \"contracts/PriceFeed.sol\":5242:5331  function getMasterOracle() external view returns (address) {... */\n    tag_7:\n        /* \"contracts/PriceFeed.sol\":5322:5325  DIA */\n      and(sub(shl(0xa0, 0x01), 0x01), sload(0x05))\n        /* \"contracts/PriceFeed.sol\":5242:5331  function getMasterOracle() external view returns (address) {... */\n      jump(tag_32)\n        /* \"contracts/PriceFeed.sol\":1249:1292  uint256 public immutable BASE_CURRENCY_UNIT */\n    tag_8:\n      tag_21\n      immutable(\"0x51863e56b7cfaa34136dd39904ea52747b45d5dc781efc9504f80805fc45ebbd\")\n      dup2\n      jump\n        /* \"contracts/Dependencies/Ownable.sol\":990:1067  function owner() public view returns (address) {... */\n    tag_9:\n        /* \"contracts/Dependencies/Ownable.sol\":1028:1035  address */\n      0x00\n        /* \"contracts/Dependencies/Ownable.sol\":1054:1060  _owner */\n      sload\n      sub(shl(0xa0, 0x01), 0x01)\n      and\n        /* \"contracts/Dependencies/Ownable.sol\":990:1067  function owner() public view returns (address) {... */\n      jump(tag_32)\n        /* \"contracts/Dependencies/Ownable.sol\":1341:1431  function isOwner() public view returns (bool) {... */\n    tag_10:\n        /* \"contracts/Dependencies/Ownable.sol\":1381:1385  bool */\n      0x00\n        /* \"contracts/Dependencies/Ownable.sol\":1418:1424  _owner */\n      sload\n      sub(shl(0xa0, 0x01), 0x01)\n      and\n        /* \"contracts/Dependencies/Ownable.sol\":1404:1414  msg.sender */\n      caller\n        /* \"contracts/Dependencies/Ownable.sol\":1404:1424  msg.sender == _owner */\n      eq\n        /* \"contracts/Dependencies/Ownable.sol\":1341:1431  function isOwner() public view returns (bool) {... */\n      mload(0x40)\n        /* \"#utility.yul\":938:952   */\n      swap1\n      iszero\n        /* \"#utility.yul\":931:953   */\n      iszero\n        /* \"#utility.yul\":913:954   */\n      dup2\n      mstore\n        /* \"#utility.yul\":901:903   */\n      0x20\n        /* \"#utility.yul\":886:904   */\n      add\n        /* \"contracts/Dependencies/Ownable.sol\":1341:1431  function isOwner() public view returns (bool) {... */\n      tag_23\n        /* \"#utility.yul\":773:960   */\n      jump\n        /* \"contracts/PriceFeed.sol\":2799:2984  function setwEthAddress(address asset) external onlyOwner {... */\n    tag_11:\n      tag_25\n      tag_50\n      calldatasize\n      0x04\n      tag_27\n      jump\t// in\n    tag_50:\n      tag_51\n      jump\t// in\n        /* \"contracts/PriceFeed.sol\":5013:5135  function getSourceOfAsset(address asset) external view returns (string memory) {... */\n    tag_12:\n      tag_52\n      tag_53\n      calldatasize\n      0x04\n      tag_27\n      jump\t// in\n    tag_53:\n      tag_54\n      jump\t// in\n    tag_52:\n      mload(0x40)\n      tag_23\n      swap2\n      swap1\n      tag_56\n      jump\t// in\n        /* \"contracts/PriceFeed.sol\":1296:1352  uint256 public immutable CONVERSION_FACTOR = 10000000000 */\n    tag_13:\n      tag_21\n      immutable(\"0x06a86cedc6cacd68c72b41c10c237851dfed5ce85910507dd1c9be6a7d822d04\")\n      dup2\n      jump\n        /* \"contracts/PriceFeed.sol\":2557:2793  function setAssetKey(address asset, string calldata key) external onlyOwner {... */\n    tag_14:\n      tag_25\n      tag_61\n      calldatasize\n      0x04\n      tag_62\n      jump\t// in\n    tag_61:\n      tag_63\n      jump\t// in\n        /* \"contracts/PriceFeed.sol\":3567:3671  function setMaxPriceAgeLimit(uint256 AgeLimit) external onlyOwner {... */\n    tag_15:\n      tag_25\n      tag_65\n      calldatasize\n      0x04\n      tag_66\n      jump\t// in\n    tag_65:\n      tag_67\n      jump\t// in\n        /* \"contracts/PriceFeed.sol\":1205:1243  address public immutable BASE_CURRENCY */\n    tag_16:\n      tag_32\n      immutable(\"0xbf1fcd4bbdcfbc55a741fb1df45db5ad6a5122c50e7ade06e72a5499ae322de6\")\n      dup2\n      jump\n        /* \"contracts/PriceFeed.sol\":5691:5788  function getMaxPriceAgeLimit() external view returns (uint256) {... */\n    tag_17:\n        /* \"contracts/PriceFeed.sol\":5767:5783  maxPriceAgeLimit */\n      sload(0x04)\n        /* \"contracts/PriceFeed.sol\":5691:5788  function getMaxPriceAgeLimit() external view returns (uint256) {... */\n      jump(tag_21)\n        /* \"contracts/PriceFeed.sol\":4308:4896  function fetchPrice() external view returns (uint256) {... */\n    tag_22:\n        /* \"contracts/PriceFeed.sol\":4384:4395  wEthAddress */\n      and(sub(shl(0xa0, 0x01), 0x01), sload(0x02))\n        /* \"contracts/PriceFeed.sol\":4353:4360  uint256 */\n      0x00\n        /* \"contracts/PriceFeed.sol\":4421:4438  assetsKeys[asset] */\n      dup2\n      dup2\n      mstore\n        /* \"contracts/PriceFeed.sol\":4384:4395  wEthAddress */\n      0x01\n        /* \"contracts/PriceFeed.sol\":4421:4438  assetsKeys[asset] */\n      0x20\n      mstore\n      0x40\n      dup2\n      keccak256\n        /* \"contracts/PriceFeed.sol\":4401:4438  string memory key = assetsKeys[asset] */\n      dup1\n      sload\n        /* \"contracts/PriceFeed.sol\":4353:4360  uint256 */\n      swap2\n      swap3\n        /* \"contracts/PriceFeed.sol\":4384:4395  wEthAddress */\n      swap2\n        /* \"contracts/PriceFeed.sol\":4353:4360  uint256 */\n      dup4\n      swap2\n        /* \"contracts/PriceFeed.sol\":4421:4438  assetsKeys[asset] */\n      swap1\n        /* \"contracts/PriceFeed.sol\":4401:4438  string memory key = assetsKeys[asset] */\n      tag_75\n      swap1\n      tag_76\n      jump\t// in\n    tag_75:\n      dup1\n      0x1f\n      add\n      0x20\n      dup1\n      swap2\n      div\n      mul\n      0x20\n      add\n      mload(0x40)\n      swap1\n      dup2\n      add\n      0x40\n      mstore\n      dup1\n      swap3\n      swap2\n      swap1\n      dup2\n      dup2\n      mstore\n      0x20\n      add\n      dup3\n      dup1\n      sload\n      tag_77\n      swap1\n      tag_76\n      jump\t// in\n    tag_77:\n      dup1\n      iszero\n      tag_78\n      jumpi\n      dup1\n      0x1f\n      lt\n      tag_79\n      jumpi\n      0x0100\n      dup1\n      dup4\n      sload\n      div\n      mul\n      dup4\n      mstore\n      swap2\n      0x20\n      add\n      swap2\n      jump(tag_78)\n    tag_79:\n      dup3\n      add\n      swap2\n      swap1\n      0x00\n      mstore\n      keccak256(0x00, 0x20)\n      swap1\n    tag_80:\n      dup2\n      sload\n      dup2\n      mstore\n      swap1\n      0x01\n      add\n      swap1\n      0x20\n      add\n      dup1\n      dup4\n      gt\n      tag_80\n      jumpi\n      dup3\n      swap1\n      sub\n      0x1f\n      and\n      dup3\n      add\n      swap2\n    tag_78:\n      pop\n      pop\n      pop\n      pop\n      pop\n      swap1\n      pop\n        /* \"contracts/PriceFeed.sol\":4458:4471  BASE_CURRENCY */\n      immutable(\"0xbf1fcd4bbdcfbc55a741fb1df45db5ad6a5122c50e7ade06e72a5499ae322de6\")\n      sub(shl(0xa0, 0x01), 0x01)\n        /* \"contracts/PriceFeed.sol\":4449:4471  asset == BASE_CURRENCY */\n      and\n        /* \"contracts/PriceFeed.sol\":4449:4454  asset */\n      dup3\n      sub(shl(0xa0, 0x01), 0x01)\n        /* \"contracts/PriceFeed.sol\":4449:4471  asset == BASE_CURRENCY */\n      and\n      sub\n        /* \"contracts/PriceFeed.sol\":4445:4892  if (asset == BASE_CURRENCY) {... */\n      tag_81\n      jumpi\n        /* \"contracts/PriceFeed.sol\":4488:4506  BASE_CURRENCY_UNIT */\n      immutable(\"0x51863e56b7cfaa34136dd39904ea52747b45d5dc781efc9504f80805fc45ebbd\")\n        /* \"contracts/PriceFeed.sol\":4481:4506  return BASE_CURRENCY_UNIT */\n      swap3\n      pop\n      pop\n      pop\n        /* \"contracts/PriceFeed.sol\":4308:4896  function fetchPrice() external view returns (uint256) {... */\n      swap1\n      jump\t// out\n        /* \"contracts/PriceFeed.sol\":4445:4892  if (asset == BASE_CURRENCY) {... */\n    tag_81:\n        /* \"contracts/PriceFeed.sol\":4529:4532  key */\n      dup1\n        /* \"contracts/PriceFeed.sol\":4523:4540  bytes(key).length */\n      mload\n        /* \"contracts/PriceFeed.sol\":4544:4545  0 */\n      0x00\n        /* \"contracts/PriceFeed.sol\":4523:4545  bytes(key).length == 0 */\n      sub\n        /* \"contracts/PriceFeed.sol\":4519:4892  if (bytes(key).length == 0) {    ... */\n      tag_83\n      jumpi\n        /* \"contracts/PriceFeed.sol\":4566:4581  _fallbackOracle */\n      sload(0x03)\n        /* \"contracts/PriceFeed.sol\":4566:4602  _fallbackOracle.getAssetPrice(asset) */\n      mload(0x40)\n      shl(0xe0, 0xb3596f07)\n      dup2\n      mstore\n      sub(shl(0xa0, 0x01), 0x01)\n        /* \"#utility.yul\":729:761   */\n      dup5\n      dup2\n      and\n        /* \"contracts/PriceFeed.sol\":4566:4602  _fallbackOracle.getAssetPrice(asset) */\n      0x04\n      dup4\n      add\n        /* \"#utility.yul\":711:762   */\n      mstore\n        /* \"contracts/PriceFeed.sol\":4566:4581  _fallbackOracle */\n      swap1\n      swap2\n      and\n      swap1\n        /* \"contracts/PriceFeed.sol\":4566:4595  _fallbackOracle.getAssetPrice */\n      0xb3596f07\n      swap1\n        /* \"#utility.yul\":684:702   */\n      0x24\n      add\n        /* \"contracts/PriceFeed.sol\":4566:4602  _fallbackOracle.getAssetPrice(asset) */\n      0x20\n      mload(0x40)\n      dup1\n      dup4\n      sub\n      dup2\n      dup7\n      gas\n      staticcall\n      iszero\n      dup1\n      iszero\n      tag_86\n      jumpi\n      returndatasize\n      0x00\n      dup1\n      returndatacopy\n      revert(0x00, returndatasize)\n    tag_86:\n      pop\n      pop\n      pop\n      pop\n      mload(0x40)\n      returndatasize\n      not(0x1f)\n      0x1f\n      dup3\n      add\n      and\n      dup3\n      add\n      dup1\n      0x40\n      mstore\n      pop\n      dup2\n      add\n      swap1\n      tag_87\n      swap2\n      swap1\n      tag_88\n      jump\t// in\n    tag_87:\n        /* \"contracts/PriceFeed.sol\":4559:4602  return _fallbackOracle.getAssetPrice(asset) */\n      swap3\n      pop\n      pop\n      pop\n        /* \"contracts/PriceFeed.sol\":4308:4896  function fetchPrice() external view returns (uint256) {... */\n      swap1\n      jump\t// out\n        /* \"contracts/PriceFeed.sol\":4519:4892  if (bytes(key).length == 0) {    ... */\n    tag_83:\n        /* \"contracts/PriceFeed.sol\":4660:4663  DIA */\n      sload(0x05)\n        /* \"contracts/PriceFeed.sol\":4660:4677  DIA.getValue(key) */\n      mload(0x40)\n      shl(0xe5, 0x04b01c25)\n      dup2\n      mstore\n        /* \"contracts/PriceFeed.sol\":4624:4637  uint128 price */\n      0x00\n      swap2\n      dup3\n      swap2\n      sub(shl(0xa0, 0x01), 0x01)\n        /* \"contracts/PriceFeed.sol\":4660:4663  DIA */\n      swap1\n      swap2\n      and\n      swap1\n        /* \"contracts/PriceFeed.sol\":4660:4672  DIA.getValue */\n      0x960384a0\n      swap1\n        /* \"contracts/PriceFeed.sol\":4660:4677  DIA.getValue(key) */\n      tag_90\n      swap1\n        /* \"contracts/PriceFeed.sol\":4673:4676  key */\n      dup7\n      swap1\n        /* \"contracts/PriceFeed.sol\":4660:4677  DIA.getValue(key) */\n      0x04\n      add\n      tag_56\n      jump\t// in\n    tag_90:\n      0x40\n      dup1\n      mload\n      dup1\n      dup4\n      sub\n      dup2\n      dup7\n      gas\n      staticcall\n      iszero\n      dup1\n      iszero\n      tag_92\n      jumpi\n      returndatasize\n      0x00\n      dup1\n      returndatacopy\n      revert(0x00, returndatasize)\n    tag_92:\n      pop\n      pop\n      pop\n      pop\n      mload(0x40)\n      returndatasize\n      not(0x1f)\n      0x1f\n      dup3\n      add\n      and\n      dup3\n      add\n      dup1\n      0x40\n      mstore\n      pop\n      dup2\n      add\n      swap1\n      tag_93\n      swap2\n      swap1\n      tag_94\n      jump\t// in\n    tag_93:\n        /* \"contracts/PriceFeed.sol\":4623:4677  (uint128 price, uint128 timeStamp) = DIA.getValue(key) */\n      swap2\n      pop\n      swap2\n      pop\n        /* \"contracts/PriceFeed.sol\":4703:4704  0 */\n      0x00\n        /* \"contracts/PriceFeed.sol\":4695:4700  price */\n      dup3\n      sub(shl(0x80, 0x01), 0x01)\n        /* \"contracts/PriceFeed.sol\":4695:4704  price > 0 */\n      and\n      gt\n        /* \"contracts/PriceFeed.sol\":4695:4756  price > 0 && (block.timestamp - timeStamp) < maxPriceAgeLimit */\n      dup1\n      iszero\n      tag_95\n      jumpi\n      pop\n        /* \"contracts/PriceFeed.sol\":4740:4756  maxPriceAgeLimit */\n      sload(0x04)\n        /* \"contracts/PriceFeed.sol\":4709:4736  block.timestamp - timeStamp */\n      tag_96\n      sub(shl(0x80, 0x01), 0x01)\n      dup4\n      and\n        /* \"contracts/PriceFeed.sol\":4709:4724  block.timestamp */\n      timestamp\n        /* \"contracts/PriceFeed.sol\":4709:4736  block.timestamp - timeStamp */\n      tag_97\n      jump\t// in\n    tag_96:\n        /* \"contracts/PriceFeed.sol\":4708:4756  (block.timestamp - timeStamp) < maxPriceAgeLimit */\n      lt\n        /* \"contracts/PriceFeed.sol\":4695:4756  price > 0 && (block.timestamp - timeStamp) < maxPriceAgeLimit */\n    tag_95:\n        /* \"contracts/PriceFeed.sol\":4691:4886  if (price > 0 && (block.timestamp - timeStamp) < maxPriceAgeLimit) {... */\n      iszero\n      tag_98\n      jumpi\n        /* \"contracts/PriceFeed.sol\":4775:4809  uint256(price) * CONVERSION_FACTOR */\n      tag_99\n        /* \"contracts/PriceFeed.sol\":4792:4809  CONVERSION_FACTOR */\n      immutable(\"0x06a86cedc6cacd68c72b41c10c237851dfed5ce85910507dd1c9be6a7d822d04\")\n      sub(shl(0x80, 0x01), 0x01)\n        /* \"contracts/PriceFeed.sol\":4775:4789  uint256(price) */\n      dup5\n      and\n        /* \"contracts/PriceFeed.sol\":4775:4809  uint256(price) * CONVERSION_FACTOR */\n      tag_100\n      jump\t// in\n    tag_99:\n        /* \"contracts/PriceFeed.sol\":4768:4809  return uint256(price) * CONVERSION_FACTOR */\n      swap5\n      pop\n      pop\n      pop\n      pop\n      pop\n        /* \"contracts/PriceFeed.sol\":4308:4896  function fetchPrice() external view returns (uint256) {... */\n      swap1\n      jump\t// out\n        /* \"contracts/PriceFeed.sol\":4691:4886  if (price > 0 && (block.timestamp - timeStamp) < maxPriceAgeLimit) {... */\n    tag_98:\n        /* \"contracts/PriceFeed.sol\":4841:4856  _fallbackOracle */\n      sload(0x03)\n        /* \"contracts/PriceFeed.sol\":4841:4877  _fallbackOracle.getAssetPrice(asset) */\n      mload(0x40)\n      shl(0xe0, 0xb3596f07)\n      dup2\n      mstore\n      sub(shl(0xa0, 0x01), 0x01)\n        /* \"#utility.yul\":729:761   */\n      dup7\n      dup2\n      and\n        /* \"contracts/PriceFeed.sol\":4841:4877  _fallbackOracle.getAssetPrice(asset) */\n      0x04\n      dup4\n      add\n        /* \"#utility.yul\":711:762   */\n      mstore\n        /* \"contracts/PriceFeed.sol\":4841:4856  _fallbackOracle */\n      swap1\n      swap2\n      and\n      swap1\n        /* \"contracts/PriceFeed.sol\":4841:4870  _fallbackOracle.getAssetPrice */\n      0xb3596f07\n      swap1\n        /* \"#utility.yul\":684:702   */\n      0x24\n      add\n        /* \"contracts/PriceFeed.sol\":4841:4877  _fallbackOracle.getAssetPrice(asset) */\n      0x20\n      mload(0x40)\n      dup1\n      dup4\n      sub\n      dup2\n      dup7\n      gas\n      staticcall\n      iszero\n      dup1\n      iszero\n      tag_104\n      jumpi\n      returndatasize\n      0x00\n      dup1\n      returndatacopy\n      revert(0x00, returndatasize)\n    tag_104:\n      pop\n      pop\n      pop\n      pop\n      mload(0x40)\n      returndatasize\n      not(0x1f)\n      0x1f\n      dup3\n      add\n      and\n      dup3\n      add\n      dup1\n      0x40\n      mstore\n      pop\n      dup2\n      add\n      swap1\n      tag_99\n      swap2\n      swap1\n      tag_88\n      jump\t// in\n        /* \"contracts/PriceFeed.sol\":3299:3414  function setFallbackOracle(address fallbackOracle) external onlyOwner {... */\n    tag_28:\n        /* \"contracts/Dependencies/Ownable.sol\":1381:1385  bool */\n      0x00\n        /* \"contracts/Dependencies/Ownable.sol\":1418:1424  _owner */\n      sload\n      sub(shl(0xa0, 0x01), 0x01)\n      and\n        /* \"contracts/Dependencies/Ownable.sol\":1404:1414  msg.sender */\n      caller\n        /* \"contracts/Dependencies/Ownable.sol\":1404:1424  msg.sender == _owner */\n      eq\n        /* \"contracts/Dependencies/Ownable.sol\":1186:1240  require(isOwner(), \"Ownable: caller is not the owner\") */\n      tag_108\n      jumpi\n      mload(0x40)\n      shl(0xe5, 0x461bcd)\n      dup2\n      mstore\n      0x04\n      add\n      tag_109\n      swap1\n      tag_110\n      jump\t// in\n    tag_109:\n      mload(0x40)\n      dup1\n      swap2\n      sub\n      swap1\n      revert\n    tag_108:\n        /* \"contracts/PriceFeed.sol\":3375:3409  _setFallbackOracle(fallbackOracle) */\n      tag_112\n        /* \"contracts/PriceFeed.sol\":3394:3408  fallbackOracle */\n      dup2\n        /* \"contracts/PriceFeed.sol\":3375:3393  _setFallbackOracle */\n      tag_113\n        /* \"contracts/PriceFeed.sol\":3375:3409  _setFallbackOracle(fallbackOracle) */\n      jump\t// in\n    tag_112:\n        /* \"contracts/PriceFeed.sol\":3299:3414  function setFallbackOracle(address fallbackOracle) external onlyOwner {... */\n      pop\n      jump\t// out\n        /* \"contracts/PriceFeed.sol\":3086:3195  function setDIAOracle(address diaOracleAddress) external onlyOwner {... */\n    tag_31:\n        /* \"contracts/Dependencies/Ownable.sol\":1381:1385  bool */\n      0x00\n        /* \"contracts/Dependencies/Ownable.sol\":1418:1424  _owner */\n      sload\n      sub(shl(0xa0, 0x01), 0x01)\n      and\n        /* \"contracts/Dependencies/Ownable.sol\":1404:1414  msg.sender */\n      caller\n        /* \"contracts/Dependencies/Ownable.sol\":1404:1424  msg.sender == _owner */\n      eq\n        /* \"contracts/Dependencies/Ownable.sol\":1186:1240  require(isOwner(), \"Ownable: caller is not the owner\") */\n      tag_116\n      jumpi\n      mload(0x40)\n      shl(0xe5, 0x461bcd)\n      dup2\n      mstore\n      0x04\n      add\n      tag_109\n      swap1\n      tag_110\n      jump\t// in\n    tag_116:\n        /* \"contracts/PriceFeed.sol\":3159:3190  _setDIAOracle(diaOracleAddress) */\n      tag_112\n        /* \"contracts/PriceFeed.sol\":3173:3189  diaOracleAddress */\n      dup2\n        /* \"contracts/PriceFeed.sol\":3159:3172  _setDIAOracle */\n      tag_120\n        /* \"contracts/PriceFeed.sol\":3159:3190  _setDIAOracle(diaOracleAddress) */\n      jump\t// in\n        /* \"contracts/PriceFeed.sol\":2799:2984  function setwEthAddress(address asset) external onlyOwner {... */\n    tag_51:\n        /* \"contracts/Dependencies/Ownable.sol\":1381:1385  bool */\n      0x00\n        /* \"contracts/Dependencies/Ownable.sol\":1418:1424  _owner */\n      sload\n      sub(shl(0xa0, 0x01), 0x01)\n      and\n        /* \"contracts/Dependencies/Ownable.sol\":1404:1414  msg.sender */\n      caller\n        /* \"contracts/Dependencies/Ownable.sol\":1404:1424  msg.sender == _owner */\n      eq\n        /* \"contracts/Dependencies/Ownable.sol\":1186:1240  require(isOwner(), \"Ownable: caller is not the owner\") */\n      tag_127\n      jumpi\n      mload(0x40)\n      shl(0xe5, 0x461bcd)\n      dup2\n      mstore\n      0x04\n      add\n      tag_109\n      swap1\n      tag_110\n      jump\t// in\n    tag_127:\n      sub(shl(0xa0, 0x01), 0x01)\n        /* \"contracts/PriceFeed.sol\":2872:2891  asset != address(0) */\n      dup2\n      and\n        /* \"contracts/PriceFeed.sol\":2863:2915  require((asset != address(0)), 'Invalid parameters') */\n      tag_130\n      jumpi\n      mload(0x40)\n      shl(0xe5, 0x461bcd)\n      dup2\n      mstore\n        /* \"#utility.yul\":4444:4446   */\n      0x20\n        /* \"contracts/PriceFeed.sol\":2863:2915  require((asset != address(0)), 'Invalid parameters') */\n      0x04\n      dup3\n      add\n        /* \"#utility.yul\":4426:4447   */\n      mstore\n        /* \"#utility.yul\":4483:4485   */\n      0x12\n        /* \"#utility.yul\":4463:4481   */\n      0x24\n      dup3\n      add\n        /* \"#utility.yul\":4456:4486   */\n      mstore\n      shl(0x70, 0x496e76616c696420706172616d6574657273)\n        /* \"#utility.yul\":4502:4520   */\n      0x44\n      dup3\n      add\n        /* \"#utility.yul\":4495:4543   */\n      mstore\n        /* \"#utility.yul\":4560:4578   */\n      0x64\n      add\n        /* \"contracts/PriceFeed.sol\":2863:2915  require((asset != address(0)), 'Invalid parameters') */\n      tag_109\n        /* \"#utility.yul\":4242:4584   */\n      jump\n        /* \"contracts/PriceFeed.sol\":2863:2915  require((asset != address(0)), 'Invalid parameters') */\n    tag_130:\n        /* \"contracts/PriceFeed.sol\":2923:2934  wEthAddress */\n      0x02\n        /* \"contracts/PriceFeed.sol\":2923:2942  wEthAddress = asset */\n      dup1\n      sload\n      not(sub(shl(0xa0, 0x01), 0x01))\n      and\n      sub(shl(0xa0, 0x01), 0x01)\n      dup4\n      and\n      swap1\n      dup2\n      or\n      swap1\n      swap2\n      sstore\n        /* \"contracts/PriceFeed.sol\":2955:2979  EthAddressUpdated(asset) */\n      mload(0x40)\n        /* \"#utility.yul\":711:762   */\n      swap1\n      dup2\n      mstore\n        /* \"contracts/PriceFeed.sol\":2955:2979  EthAddressUpdated(asset) */\n      0x58c18391fbfb633ee2f4d79e1c0c1d62597d97bc2c460d144c2583b13a2740e2\n      swap1\n        /* \"#utility.yul\":699:701   */\n      0x20\n        /* \"#utility.yul\":684:702   */\n      add\n        /* \"contracts/PriceFeed.sol\":2955:2979  EthAddressUpdated(asset) */\n      mload(0x40)\n      dup1\n      swap2\n      sub\n      swap1\n      log1\n        /* \"contracts/PriceFeed.sol\":2799:2984  function setwEthAddress(address asset) external onlyOwner {... */\n      pop\n      jump\t// out\n        /* \"contracts/PriceFeed.sol\":5013:5135  function getSourceOfAsset(address asset) external view returns (string memory) {... */\n    tag_54:\n      sub(shl(0xa0, 0x01), 0x01)\n        /* \"contracts/PriceFeed.sol\":5112:5129  assetsKeys[asset] */\n      dup2\n      and\n      0x00\n      swap1\n      dup2\n      mstore\n        /* \"contracts/PriceFeed.sol\":5112:5122  assetsKeys */\n      0x01\n        /* \"contracts/PriceFeed.sol\":5112:5129  assetsKeys[asset] */\n      0x20\n      mstore\n      0x40\n      swap1\n      keccak256\n        /* \"contracts/PriceFeed.sol\":5098:5130  return string(assetsKeys[asset]) */\n      dup1\n      sload\n        /* \"contracts/PriceFeed.sol\":5077:5090  string memory */\n      0x60\n      swap2\n        /* \"contracts/PriceFeed.sol\":5112:5129  assetsKeys[asset] */\n      swap1\n        /* \"contracts/PriceFeed.sol\":5098:5130  return string(assetsKeys[asset]) */\n      tag_135\n      swap1\n      tag_76\n      jump\t// in\n    tag_135:\n      dup1\n      0x1f\n      add\n      0x20\n      dup1\n      swap2\n      div\n      mul\n      0x20\n      add\n      mload(0x40)\n      swap1\n      dup2\n      add\n      0x40\n      mstore\n      dup1\n      swap3\n      swap2\n      swap1\n      dup2\n      dup2\n      mstore\n      0x20\n      add\n      dup3\n      dup1\n      sload\n      tag_136\n      swap1\n      tag_76\n      jump\t// in\n    tag_136:\n      dup1\n      iszero\n      tag_137\n      jumpi\n      dup1\n      0x1f\n      lt\n      tag_138\n      jumpi\n      0x0100\n      dup1\n      dup4\n      sload\n      div\n      mul\n      dup4\n      mstore\n      swap2\n      0x20\n      add\n      swap2\n      jump(tag_137)\n    tag_138:\n      dup3\n      add\n      swap2\n      swap1\n      0x00\n      mstore\n      keccak256(0x00, 0x20)\n      swap1\n    tag_139:\n      dup2\n      sload\n      dup2\n      mstore\n      swap1\n      0x01\n      add\n      swap1\n      0x20\n      add\n      dup1\n      dup4\n      gt\n      tag_139\n      jumpi\n      dup3\n      swap1\n      sub\n      0x1f\n      and\n      dup3\n      add\n      swap2\n    tag_137:\n      pop\n      pop\n      pop\n      pop\n      pop\n      swap1\n      pop\n        /* \"contracts/PriceFeed.sol\":5013:5135  function getSourceOfAsset(address asset) external view returns (string memory) {... */\n      swap2\n      swap1\n      pop\n      jump\t// out\n        /* \"contracts/PriceFeed.sol\":2557:2793  function setAssetKey(address asset, string calldata key) external onlyOwner {... */\n    tag_63:\n        /* \"contracts/Dependencies/Ownable.sol\":1381:1385  bool */\n      0x00\n        /* \"contracts/Dependencies/Ownable.sol\":1418:1424  _owner */\n      sload\n      sub(shl(0xa0, 0x01), 0x01)\n      and\n        /* \"contracts/Dependencies/Ownable.sol\":1404:1414  msg.sender */\n      caller\n        /* \"contracts/Dependencies/Ownable.sol\":1404:1424  msg.sender == _owner */\n      eq\n        /* \"contracts/Dependencies/Ownable.sol\":1186:1240  require(isOwner(), \"Ownable: caller is not the owner\") */\n      tag_142\n      jumpi\n      mload(0x40)\n      shl(0xe5, 0x461bcd)\n      dup2\n      mstore\n      0x04\n      add\n      tag_109\n      swap1\n      tag_110\n      jump\t// in\n    tag_142:\n      sub(shl(0xa0, 0x01), 0x01)\n        /* \"contracts/PriceFeed.sol\":2648:2667  asset != address(0) */\n      dup4\n      and\n      iszero\n      dup1\n      iszero\n      swap1\n        /* \"contracts/PriceFeed.sol\":2648:2693  asset != address(0) && bytes(key).length != 0 */\n      tag_145\n      jumpi\n      pop\n        /* \"contracts/PriceFeed.sol\":2671:2693  bytes(key).length != 0 */\n      dup1\n      iszero\n      iszero\n        /* \"contracts/PriceFeed.sol\":2648:2693  asset != address(0) && bytes(key).length != 0 */\n    tag_145:\n        /* \"contracts/PriceFeed.sol\":2639:2717  require((asset != address(0) && bytes(key).length != 0), 'Invalid parameters') */\n      tag_146\n      jumpi\n      mload(0x40)\n      shl(0xe5, 0x461bcd)\n      dup2\n      mstore\n        /* \"#utility.yul\":4444:4446   */\n      0x20\n        /* \"contracts/PriceFeed.sol\":2639:2717  require((asset != address(0) && bytes(key).length != 0), 'Invalid parameters') */\n      0x04\n      dup3\n      add\n        /* \"#utility.yul\":4426:4447   */\n      mstore\n        /* \"#utility.yul\":4483:4485   */\n      0x12\n        /* \"#utility.yul\":4463:4481   */\n      0x24\n      dup3\n      add\n        /* \"#utility.yul\":4456:4486   */\n      mstore\n      shl(0x70, 0x496e76616c696420706172616d6574657273)\n        /* \"#utility.yul\":4502:4520   */\n      0x44\n      dup3\n      add\n        /* \"#utility.yul\":4495:4543   */\n      mstore\n        /* \"#utility.yul\":4560:4578   */\n      0x64\n      add\n        /* \"contracts/PriceFeed.sol\":2639:2717  require((asset != address(0) && bytes(key).length != 0), 'Invalid parameters') */\n      tag_109\n        /* \"#utility.yul\":4242:4584   */\n      jump\n        /* \"contracts/PriceFeed.sol\":2639:2717  require((asset != address(0) && bytes(key).length != 0), 'Invalid parameters') */\n    tag_146:\n      sub(shl(0xa0, 0x01), 0x01)\n        /* \"contracts/PriceFeed.sol\":2725:2742  assetsKeys[asset] */\n      dup4\n      and\n      0x00\n      swap1\n      dup2\n      mstore\n        /* \"contracts/PriceFeed.sol\":2725:2735  assetsKeys */\n      0x01\n        /* \"contracts/PriceFeed.sol\":2725:2742  assetsKeys[asset] */\n      0x20\n      mstore\n      0x40\n      swap1\n      keccak256\n        /* \"contracts/PriceFeed.sol\":2725:2748  assetsKeys[asset] = key */\n      tag_148\n        /* \"contracts/PriceFeed.sol\":2745:2748  key */\n      dup3\n      dup5\n        /* \"contracts/PriceFeed.sol\":2725:2742  assetsKeys[asset] */\n      dup4\n        /* \"contracts/PriceFeed.sol\":2725:2748  assetsKeys[asset] = key */\n      tag_149\n      jump\t// in\n    tag_148:\n      pop\n        /* \"contracts/PriceFeed.sol\":2784:2787  key */\n      dup2\n      dup2\n        /* \"contracts/PriceFeed.sol\":2761:2788  AssetKeyUpdated(asset, key) */\n      mload(0x40)\n      tag_150\n      swap3\n      swap2\n      swap1\n      tag_151\n      jump\t// in\n    tag_150:\n      mload(0x40)\n      swap1\n      dup2\n      swap1\n      sub\n      dup2\n      keccak256\n      swap1\n      sub(shl(0xa0, 0x01), 0x01)\n      dup6\n      and\n      swap1\n      0x1346085f9a075660968b9e1f053fbbcfa8642189a5f44875eea12a4c1e133b7e\n      swap1\n      0x00\n      swap1\n      log3\n        /* \"contracts/PriceFeed.sol\":2557:2793  function setAssetKey(address asset, string calldata key) external onlyOwner {... */\n      pop\n      pop\n      pop\n      jump\t// out\n        /* \"contracts/PriceFeed.sol\":3567:3671  function setMaxPriceAgeLimit(uint256 AgeLimit) external onlyOwner {... */\n    tag_67:\n        /* \"contracts/Dependencies/Ownable.sol\":1381:1385  bool */\n      0x00\n        /* \"contracts/Dependencies/Ownable.sol\":1418:1424  _owner */\n      sload\n      sub(shl(0xa0, 0x01), 0x01)\n      and\n        /* \"contracts/Dependencies/Ownable.sol\":1404:1414  msg.sender */\n      caller\n        /* \"contracts/Dependencies/Ownable.sol\":1404:1424  msg.sender == _owner */\n      eq\n        /* \"contracts/Dependencies/Ownable.sol\":1186:1240  require(isOwner(), \"Ownable: caller is not the owner\") */\n      tag_154\n      jumpi\n      mload(0x40)\n      shl(0xe5, 0x461bcd)\n      dup2\n      mstore\n      0x04\n      add\n      tag_109\n      swap1\n      tag_110\n      jump\t// in\n    tag_154:\n        /* \"contracts/PriceFeed.sol\":3639:3655  maxPriceAgeLimit */\n      0x04\n        /* \"contracts/PriceFeed.sol\":3639:3666  maxPriceAgeLimit = AgeLimit */\n      sstore\n        /* \"contracts/PriceFeed.sol\":3567:3671  function setMaxPriceAgeLimit(uint256 AgeLimit) external onlyOwner {... */\n      jump\t// out\n        /* \"contracts/PriceFeed.sol\":4102:4274  function _setFallbackOracle(address fallbackOracle) internal {... */\n    tag_113:\n        /* \"contracts/PriceFeed.sol\":4169:4184  _fallbackOracle */\n      0x03\n        /* \"contracts/PriceFeed.sol\":4169:4221  _fallbackOracle = IPriceOracleGetter(fallbackOracle) */\n      dup1\n      sload\n      not(sub(shl(0xa0, 0x01), 0x01))\n      and\n      sub(shl(0xa0, 0x01), 0x01)\n      dup4\n      and\n      swap1\n      dup2\n      or\n      swap1\n      swap2\n      sstore\n        /* \"contracts/PriceFeed.sol\":4232:4269  FallbackOracleUpdated(fallbackOracle) */\n      mload(0x40)\n      0xce7a780d33665b1ea097af5f155e3821b809ecbaa839d3b33aa83ba28168cefb\n      swap1\n      0x00\n      swap1\n      log2\n        /* \"contracts/PriceFeed.sol\":4102:4274  function _setFallbackOracle(address fallbackOracle) internal {... */\n      pop\n      jump\t// out\n        /* \"contracts/PriceFeed.sol\":3825:3978  function _setDIAOracle(address diaOracleAddress) internal {    ... */\n    tag_120:\n        /* \"contracts/PriceFeed.sol\":3893:3896  DIA */\n      0x05\n        /* \"contracts/PriceFeed.sol\":3893:3928  DIA = DIAOracleV2(diaOracleAddress) */\n      dup1\n      sload\n      not(sub(shl(0xa0, 0x01), 0x01))\n      and\n      sub(shl(0xa0, 0x01), 0x01)\n      dup4\n      and\n      swap1\n      dup2\n      or\n      swap1\n      swap2\n      sstore\n        /* \"contracts/PriceFeed.sol\":3939:3973  DIAOracleUpdated(diaOracleAddress) */\n      mload(0x40)\n      0x535b93d9e0be2f8cf2ba1e1f1f8c174e03aa29676b42aad916bc7190d29abe90\n      swap1\n      0x00\n      swap1\n      log2\n        /* \"contracts/PriceFeed.sol\":3825:3978  function _setDIAOracle(address diaOracleAddress) internal {    ... */\n      pop\n      jump\t// out\n        /* \"#utility.yul\":196:369   */\n    tag_160:\n        /* \"#utility.yul\":264:284   */\n      dup1\n      calldataload\n      sub(shl(0xa0, 0x01), 0x01)\n        /* \"#utility.yul\":313:344   */\n      dup2\n      and\n        /* \"#utility.yul\":303:345   */\n      dup2\n      eq\n        /* \"#utility.yul\":293:363   */\n      tag_170\n      jumpi\n        /* \"#utility.yul\":359:360   */\n      0x00\n        /* \"#utility.yul\":356:357   */\n      dup1\n        /* \"#utility.yul\":349:361   */\n      revert\n        /* \"#utility.yul\":293:363   */\n    tag_170:\n        /* \"#utility.yul\":196:369   */\n      swap2\n      swap1\n      pop\n      jump\t// out\n        /* \"#utility.yul\":374:560   */\n    tag_27:\n        /* \"#utility.yul\":433:439   */\n      0x00\n        /* \"#utility.yul\":486:488   */\n      0x20\n        /* \"#utility.yul\":474:483   */\n      dup3\n        /* \"#utility.yul\":465:472   */\n      dup5\n        /* \"#utility.yul\":461:484   */\n      sub\n        /* \"#utility.yul\":457:489   */\n      slt\n        /* \"#utility.yul\":454:506   */\n      iszero\n      tag_172\n      jumpi\n        /* \"#utility.yul\":502:503   */\n      0x00\n        /* \"#utility.yul\":499:500   */\n      dup1\n        /* \"#utility.yul\":492:504   */\n      revert\n        /* \"#utility.yul\":454:506   */\n    tag_172:\n        /* \"#utility.yul\":525:554   */\n      tag_173\n        /* \"#utility.yul\":544:553   */\n      dup3\n        /* \"#utility.yul\":525:554   */\n      tag_160\n      jump\t// in\n    tag_173:\n        /* \"#utility.yul\":515:554   */\n      swap4\n        /* \"#utility.yul\":374:560   */\n      swap3\n      pop\n      pop\n      pop\n      jump\t// out\n        /* \"#utility.yul\":965:1513   */\n    tag_56:\n        /* \"#utility.yul\":1077:1081   */\n      0x00\n        /* \"#utility.yul\":1106:1108   */\n      0x20\n        /* \"#utility.yul\":1135:1137   */\n      dup1\n        /* \"#utility.yul\":1124:1133   */\n      dup4\n        /* \"#utility.yul\":1117:1138   */\n      mstore\n        /* \"#utility.yul\":1167:1173   */\n      dup4\n        /* \"#utility.yul\":1161:1174   */\n      mload\n        /* \"#utility.yul\":1210:1216   */\n      dup1\n        /* \"#utility.yul\":1205:1207   */\n      dup3\n        /* \"#utility.yul\":1194:1203   */\n      dup6\n        /* \"#utility.yul\":1190:1208   */\n      add\n        /* \"#utility.yul\":1183:1217   */\n      mstore\n        /* \"#utility.yul\":1235:1236   */\n      0x00\n        /* \"#utility.yul\":1245:1385   */\n    tag_177:\n        /* \"#utility.yul\":1259:1265   */\n      dup2\n        /* \"#utility.yul\":1256:1257   */\n      dup2\n        /* \"#utility.yul\":1253:1266   */\n      lt\n        /* \"#utility.yul\":1245:1385   */\n      iszero\n      tag_179\n      jumpi\n        /* \"#utility.yul\":1354:1368   */\n      dup6\n      dup2\n      add\n        /* \"#utility.yul\":1350:1373   */\n      dup4\n      add\n        /* \"#utility.yul\":1344:1374   */\n      mload\n        /* \"#utility.yul\":1320:1337   */\n      dup6\n      dup3\n      add\n        /* \"#utility.yul\":1339:1341   */\n      0x40\n        /* \"#utility.yul\":1316:1342   */\n      add\n        /* \"#utility.yul\":1309:1375   */\n      mstore\n        /* \"#utility.yul\":1274:1284   */\n      dup3\n      add\n        /* \"#utility.yul\":1245:1385   */\n      jump(tag_177)\n    tag_179:\n        /* \"#utility.yul\":1249:1252   */\n      pop\n        /* \"#utility.yul\":1434:1435   */\n      0x00\n        /* \"#utility.yul\":1429:1431   */\n      0x40\n        /* \"#utility.yul\":1420:1426   */\n      dup3\n        /* \"#utility.yul\":1409:1418   */\n      dup7\n        /* \"#utility.yul\":1405:1427   */\n      add\n        /* \"#utility.yul\":1401:1432   */\n      add\n        /* \"#utility.yul\":1394:1436   */\n      mstore\n        /* \"#utility.yul\":1504:1506   */\n      0x40\n        /* \"#utility.yul\":1497:1499   */\n      0x1f\n        /* \"#utility.yul\":1493:1500   */\n      not\n        /* \"#utility.yul\":1488:1490   */\n      0x1f\n        /* \"#utility.yul\":1480:1486   */\n      dup4\n        /* \"#utility.yul\":1476:1491   */\n      add\n        /* \"#utility.yul\":1472:1501   */\n      and\n        /* \"#utility.yul\":1461:1470   */\n      dup6\n        /* \"#utility.yul\":1457:1502   */\n      add\n        /* \"#utility.yul\":1453:1507   */\n      add\n        /* \"#utility.yul\":1445:1507   */\n      swap3\n      pop\n      pop\n      pop\n        /* \"#utility.yul\":965:1513   */\n      swap3\n      swap2\n      pop\n      pop\n      jump\t// out\n        /* \"#utility.yul\":1518:2184   */\n    tag_62:\n        /* \"#utility.yul\":1598:1604   */\n      0x00\n        /* \"#utility.yul\":1606:1612   */\n      dup1\n        /* \"#utility.yul\":1614:1620   */\n      0x00\n        /* \"#utility.yul\":1667:1669   */\n      0x40\n        /* \"#utility.yul\":1655:1664   */\n      dup5\n        /* \"#utility.yul\":1646:1653   */\n      dup7\n        /* \"#utility.yul\":1642:1665   */\n      sub\n        /* \"#utility.yul\":1638:1670   */\n      slt\n        /* \"#utility.yul\":1635:1687   */\n      iszero\n      tag_181\n      jumpi\n        /* \"#utility.yul\":1683:1684   */\n      0x00\n        /* \"#utility.yul\":1680:1681   */\n      dup1\n        /* \"#utility.yul\":1673:1685   */\n      revert\n        /* \"#utility.yul\":1635:1687   */\n    tag_181:\n        /* \"#utility.yul\":1706:1735   */\n      tag_182\n        /* \"#utility.yul\":1725:1734   */\n      dup5\n        /* \"#utility.yul\":1706:1735   */\n      tag_160\n      jump\t// in\n    tag_182:\n        /* \"#utility.yul\":1696:1735   */\n      swap3\n      pop\n        /* \"#utility.yul\":1786:1788   */\n      0x20\n        /* \"#utility.yul\":1775:1784   */\n      dup5\n        /* \"#utility.yul\":1771:1789   */\n      add\n        /* \"#utility.yul\":1758:1790   */\n      calldataload\n        /* \"#utility.yul\":1809:1827   */\n      0xffffffffffffffff\n        /* \"#utility.yul\":1850:1852   */\n      dup1\n        /* \"#utility.yul\":1842:1848   */\n      dup3\n        /* \"#utility.yul\":1839:1853   */\n      gt\n        /* \"#utility.yul\":1836:1870   */\n      iszero\n      tag_183\n      jumpi\n        /* \"#utility.yul\":1866:1867   */\n      0x00\n        /* \"#utility.yul\":1863:1864   */\n      dup1\n        /* \"#utility.yul\":1856:1868   */\n      revert\n        /* \"#utility.yul\":1836:1870   */\n    tag_183:\n        /* \"#utility.yul\":1904:1910   */\n      dup2\n        /* \"#utility.yul\":1893:1902   */\n      dup7\n        /* \"#utility.yul\":1889:1911   */\n      add\n        /* \"#utility.yul\":1879:1911   */\n      swap2\n      pop\n        /* \"#utility.yul\":1949:1956   */\n      dup7\n        /* \"#utility.yul\":1942:1946   */\n      0x1f\n        /* \"#utility.yul\":1938:1940   */\n      dup4\n        /* \"#utility.yul\":1934:1947   */\n      add\n        /* \"#utility.yul\":1930:1957   */\n      slt\n        /* \"#utility.yul\":1920:1975   */\n      tag_184\n      jumpi\n        /* \"#utility.yul\":1971:1972   */\n      0x00\n        /* \"#utility.yul\":1968:1969   */\n      dup1\n        /* \"#utility.yul\":1961:1973   */\n      revert\n        /* \"#utility.yul\":1920:1975   */\n    tag_184:\n        /* \"#utility.yul\":2011:2013   */\n      dup2\n        /* \"#utility.yul\":1998:2014   */\n      calldataload\n        /* \"#utility.yul\":2037:2039   */\n      dup2\n        /* \"#utility.yul\":2029:2035   */\n      dup2\n        /* \"#utility.yul\":2026:2040   */\n      gt\n        /* \"#utility.yul\":2023:2057   */\n      iszero\n      tag_185\n      jumpi\n        /* \"#utility.yul\":2053:2054   */\n      0x00\n        /* \"#utility.yul\":2050:2051   */\n      dup1\n        /* \"#utility.yul\":2043:2055   */\n      revert\n        /* \"#utility.yul\":2023:2057   */\n    tag_185:\n        /* \"#utility.yul\":2098:2105   */\n      dup8\n        /* \"#utility.yul\":2093:2095   */\n      0x20\n        /* \"#utility.yul\":2084:2090   */\n      dup3\n        /* \"#utility.yul\":2080:2082   */\n      dup6\n        /* \"#utility.yul\":2076:2091   */\n      add\n        /* \"#utility.yul\":2072:2096   */\n      add\n        /* \"#utility.yul\":2069:2106   */\n      gt\n        /* \"#utility.yul\":2066:2123   */\n      iszero\n      tag_186\n      jumpi\n        /* \"#utility.yul\":2119:2120   */\n      0x00\n        /* \"#utility.yul\":2116:2117   */\n      dup1\n        /* \"#utility.yul\":2109:2121   */\n      revert\n        /* \"#utility.yul\":2066:2123   */\n    tag_186:\n        /* \"#utility.yul\":2150:2152   */\n      0x20\n        /* \"#utility.yul\":2146:2148   */\n      dup4\n        /* \"#utility.yul\":2142:2153   */\n      add\n        /* \"#utility.yul\":2132:2153   */\n      swap5\n      pop\n        /* \"#utility.yul\":2172:2178   */\n      dup1\n        /* \"#utility.yul\":2162:2178   */\n      swap4\n      pop\n      pop\n      pop\n      pop\n        /* \"#utility.yul\":1518:2184   */\n      swap3\n      pop\n      swap3\n      pop\n      swap3\n      jump\t// out\n        /* \"#utility.yul\":2189:2369   */\n    tag_66:\n        /* \"#utility.yul\":2248:2254   */\n      0x00\n        /* \"#utility.yul\":2301:2303   */\n      0x20\n        /* \"#utility.yul\":2289:2298   */\n      dup3\n        /* \"#utility.yul\":2280:2287   */\n      dup5\n        /* \"#utility.yul\":2276:2299   */\n      sub\n        /* \"#utility.yul\":2272:2304   */\n      slt\n        /* \"#utility.yul\":2269:2321   */\n      iszero\n      tag_188\n      jumpi\n        /* \"#utility.yul\":2317:2318   */\n      0x00\n        /* \"#utility.yul\":2314:2315   */\n      dup1\n        /* \"#utility.yul\":2307:2319   */\n      revert\n        /* \"#utility.yul\":2269:2321   */\n    tag_188:\n      pop\n        /* \"#utility.yul\":2340:2363   */\n      calldataload\n      swap2\n        /* \"#utility.yul\":2189:2369   */\n      swap1\n      pop\n      jump\t// out\n        /* \"#utility.yul\":2374:2754   */\n    tag_76:\n        /* \"#utility.yul\":2453:2454   */\n      0x01\n        /* \"#utility.yul\":2449:2461   */\n      dup2\n      dup2\n      shr\n      swap1\n        /* \"#utility.yul\":2496:2508   */\n      dup3\n      and\n      dup1\n        /* \"#utility.yul\":2517:2578   */\n      tag_190\n      jumpi\n        /* \"#utility.yul\":2571:2575   */\n      0x7f\n        /* \"#utility.yul\":2563:2569   */\n      dup3\n        /* \"#utility.yul\":2559:2576   */\n      and\n        /* \"#utility.yul\":2549:2576   */\n      swap2\n      pop\n        /* \"#utility.yul\":2517:2578   */\n    tag_190:\n        /* \"#utility.yul\":2624:2626   */\n      0x20\n        /* \"#utility.yul\":2616:2622   */\n      dup3\n        /* \"#utility.yul\":2613:2627   */\n      lt\n        /* \"#utility.yul\":2593:2611   */\n      dup2\n        /* \"#utility.yul\":2590:2628   */\n      sub\n        /* \"#utility.yul\":2587:2748   */\n      tag_191\n      jumpi\n        /* \"#utility.yul\":2670:2680   */\n      0x4e487b71\n        /* \"#utility.yul\":2665:2668   */\n      0xe0\n        /* \"#utility.yul\":2661:2681   */\n      shl\n        /* \"#utility.yul\":2658:2659   */\n      0x00\n        /* \"#utility.yul\":2651:2682   */\n      mstore\n        /* \"#utility.yul\":2705:2709   */\n      0x22\n        /* \"#utility.yul\":2702:2703   */\n      0x04\n        /* \"#utility.yul\":2695:2710   */\n      mstore\n        /* \"#utility.yul\":2733:2737   */\n      0x24\n        /* \"#utility.yul\":2730:2731   */\n      0x00\n        /* \"#utility.yul\":2723:2738   */\n      revert\n        /* \"#utility.yul\":2587:2748   */\n    tag_191:\n      pop\n        /* \"#utility.yul\":2374:2754   */\n      swap2\n      swap1\n      pop\n      jump\t// out\n        /* \"#utility.yul\":2759:2943   */\n    tag_88:\n        /* \"#utility.yul\":2829:2835   */\n      0x00\n        /* \"#utility.yul\":2882:2884   */\n      0x20\n        /* \"#utility.yul\":2870:2879   */\n      dup3\n        /* \"#utility.yul\":2861:2868   */\n      dup5\n        /* \"#utility.yul\":2857:2880   */\n      sub\n        /* \"#utility.yul\":2853:2885   */\n      slt\n        /* \"#utility.yul\":2850:2902   */\n      iszero\n      tag_193\n      jumpi\n        /* \"#utility.yul\":2898:2899   */\n      0x00\n        /* \"#utility.yul\":2895:2896   */\n      dup1\n        /* \"#utility.yul\":2888:2900   */\n      revert\n        /* \"#utility.yul\":2850:2902   */\n    tag_193:\n      pop\n        /* \"#utility.yul\":2921:2937   */\n      mload\n      swap2\n        /* \"#utility.yul\":2759:2943   */\n      swap1\n      pop\n      jump\t// out\n        /* \"#utility.yul\":2948:3140   */\n    tag_161:\n        /* \"#utility.yul\":3027:3040   */\n      dup1\n      mload\n      sub(shl(0x80, 0x01), 0x01)\n        /* \"#utility.yul\":3069:3115   */\n      dup2\n      and\n        /* \"#utility.yul\":3059:3116   */\n      dup2\n      eq\n        /* \"#utility.yul\":3049:3134   */\n      tag_170\n      jumpi\n        /* \"#utility.yul\":3130:3131   */\n      0x00\n        /* \"#utility.yul\":3127:3128   */\n      dup1\n        /* \"#utility.yul\":3120:3132   */\n      revert\n        /* \"#utility.yul\":3145:3438   */\n    tag_94:\n        /* \"#utility.yul\":3224:3230   */\n      0x00\n        /* \"#utility.yul\":3232:3238   */\n      dup1\n        /* \"#utility.yul\":3285:3287   */\n      0x40\n        /* \"#utility.yul\":3273:3282   */\n      dup4\n        /* \"#utility.yul\":3264:3271   */\n      dup6\n        /* \"#utility.yul\":3260:3283   */\n      sub\n        /* \"#utility.yul\":3256:3288   */\n      slt\n        /* \"#utility.yul\":3253:3305   */\n      iszero\n      tag_197\n      jumpi\n        /* \"#utility.yul\":3301:3302   */\n      0x00\n        /* \"#utility.yul\":3298:3299   */\n      dup1\n        /* \"#utility.yul\":3291:3303   */\n      revert\n        /* \"#utility.yul\":3253:3305   */\n    tag_197:\n        /* \"#utility.yul\":3324:3364   */\n      tag_198\n        /* \"#utility.yul\":3354:3363   */\n      dup4\n        /* \"#utility.yul\":3324:3364   */\n      tag_161\n      jump\t// in\n    tag_198:\n        /* \"#utility.yul\":3314:3364   */\n      swap2\n      pop\n        /* \"#utility.yul\":3383:3432   */\n      tag_199\n        /* \"#utility.yul\":3428:3430   */\n      0x20\n        /* \"#utility.yul\":3417:3426   */\n      dup5\n        /* \"#utility.yul\":3413:3431   */\n      add\n        /* \"#utility.yul\":3383:3432   */\n      tag_161\n      jump\t// in\n    tag_199:\n        /* \"#utility.yul\":3373:3432   */\n      swap1\n      pop\n        /* \"#utility.yul\":3145:3438   */\n      swap3\n      pop\n      swap3\n      swap1\n      pop\n      jump\t// out\n        /* \"#utility.yul\":3443:3570   */\n    tag_162:\n        /* \"#utility.yul\":3504:3514   */\n      0x4e487b71\n        /* \"#utility.yul\":3499:3502   */\n      0xe0\n        /* \"#utility.yul\":3495:3515   */\n      shl\n        /* \"#utility.yul\":3492:3493   */\n      0x00\n        /* \"#utility.yul\":3485:3516   */\n      mstore\n        /* \"#utility.yul\":3535:3539   */\n      0x11\n        /* \"#utility.yul\":3532:3533   */\n      0x04\n        /* \"#utility.yul\":3525:3540   */\n      mstore\n        /* \"#utility.yul\":3559:3563   */\n      0x24\n        /* \"#utility.yul\":3556:3557   */\n      0x00\n        /* \"#utility.yul\":3549:3564   */\n      revert\n        /* \"#utility.yul\":3575:3703   */\n    tag_97:\n        /* \"#utility.yul\":3642:3651   */\n      dup2\n      dup2\n      sub\n        /* \"#utility.yul\":3663:3674   */\n      dup2\n      dup2\n      gt\n        /* \"#utility.yul\":3660:3697   */\n      iszero\n      tag_203\n      jumpi\n        /* \"#utility.yul\":3677:3695   */\n      tag_203\n      tag_162\n      jump\t// in\n    tag_203:\n        /* \"#utility.yul\":3575:3703   */\n      swap3\n      swap2\n      pop\n      pop\n      jump\t// out\n        /* \"#utility.yul\":3708:3876   */\n    tag_100:\n        /* \"#utility.yul\":3781:3790   */\n      dup1\n      dup3\n      mul\n        /* \"#utility.yul\":3812:3821   */\n      dup2\n      iszero\n        /* \"#utility.yul\":3829:3844   */\n      dup3\n      dup3\n      div\n        /* \"#utility.yul\":3823:3845   */\n      dup5\n      eq\n        /* \"#utility.yul\":3809:3846   */\n      or\n        /* \"#utility.yul\":3799:3870   */\n      tag_203\n      jumpi\n        /* \"#utility.yul\":3850:3868   */\n      tag_203\n      tag_162\n      jump\t// in\n        /* \"#utility.yul\":3881:4237   */\n    tag_110:\n        /* \"#utility.yul\":4083:4085   */\n      0x20\n        /* \"#utility.yul\":4065:4086   */\n      dup1\n      dup3\n      mstore\n        /* \"#utility.yul\":4102:4120   */\n      dup2\n      dup2\n      add\n        /* \"#utility.yul\":4095:4125   */\n      mstore\n        /* \"#utility.yul\":4161:4195   */\n      0x4f776e61626c653a2063616c6c6572206973206e6f7420746865206f776e6572\n        /* \"#utility.yul\":4156:4158   */\n      0x40\n        /* \"#utility.yul\":4141:4159   */\n      dup3\n      add\n        /* \"#utility.yul\":4134:4196   */\n      mstore\n        /* \"#utility.yul\":4228:4230   */\n      0x60\n        /* \"#utility.yul\":4213:4231   */\n      add\n      swap1\n        /* \"#utility.yul\":3881:4237   */\n      jump\t// out\n        /* \"#utility.yul\":4589:4716   */\n    tag_163:\n        /* \"#utility.yul\":4650:4660   */\n      0x4e487b71\n        /* \"#utility.yul\":4645:4648   */\n      0xe0\n        /* \"#utility.yul\":4641:4661   */\n      shl\n        /* \"#utility.yul\":4638:4639   */\n      0x00\n        /* \"#utility.yul\":4631:4662   */\n      mstore\n        /* \"#utility.yul\":4681:4685   */\n      0x41\n        /* \"#utility.yul\":4678:4679   */\n      0x04\n        /* \"#utility.yul\":4671:4686   */\n      mstore\n        /* \"#utility.yul\":4705:4709   */\n      0x24\n        /* \"#utility.yul\":4702:4703   */\n      0x00\n        /* \"#utility.yul\":4695:4710   */\n      revert\n        /* \"#utility.yul\":4847:5392   */\n    tag_165:\n        /* \"#utility.yul\":4949:4951   */\n      0x1f\n        /* \"#utility.yul\":4944:4947   */\n      dup3\n        /* \"#utility.yul\":4941:4952   */\n      gt\n        /* \"#utility.yul\":4938:5386   */\n      iszero\n      tag_212\n      jumpi\n        /* \"#utility.yul\":4985:4986   */\n      0x00\n        /* \"#utility.yul\":5010:5015   */\n      dup2\n        /* \"#utility.yul\":5006:5008   */\n      dup2\n        /* \"#utility.yul\":4999:5016   */\n      mstore\n        /* \"#utility.yul\":5055:5059   */\n      0x20\n        /* \"#utility.yul\":5051:5053   */\n      dup2\n        /* \"#utility.yul\":5041:5060   */\n      keccak256\n        /* \"#utility.yul\":5125:5127   */\n      0x1f\n        /* \"#utility.yul\":5113:5123   */\n      dup6\n        /* \"#utility.yul\":5109:5128   */\n      add\n        /* \"#utility.yul\":5106:5107   */\n      0x05\n        /* \"#utility.yul\":5102:5129   */\n      shr\n        /* \"#utility.yul\":5096:5100   */\n      dup2\n        /* \"#utility.yul\":5092:5130   */\n      add\n        /* \"#utility.yul\":5161:5165   */\n      0x20\n        /* \"#utility.yul\":5149:5159   */\n      dup7\n        /* \"#utility.yul\":5146:5166   */\n      lt\n        /* \"#utility.yul\":5143:5190   */\n      iszero\n      tag_213\n      jumpi\n      pop\n        /* \"#utility.yul\":5184:5188   */\n      dup1\n        /* \"#utility.yul\":5143:5190   */\n    tag_213:\n        /* \"#utility.yul\":5239:5241   */\n      0x1f\n        /* \"#utility.yul\":5234:5237   */\n      dup6\n        /* \"#utility.yul\":5230:5242   */\n      add\n        /* \"#utility.yul\":5227:5228   */\n      0x05\n        /* \"#utility.yul\":5223:5243   */\n      shr\n        /* \"#utility.yul\":5217:5221   */\n      dup3\n        /* \"#utility.yul\":5213:5244   */\n      add\n        /* \"#utility.yul\":5203:5244   */\n      swap2\n      pop\n        /* \"#utility.yul\":5294:5376   */\n    tag_214:\n        /* \"#utility.yul\":5312:5314   */\n      dup2\n        /* \"#utility.yul\":5305:5310   */\n      dup2\n        /* \"#utility.yul\":5302:5315   */\n      lt\n        /* \"#utility.yul\":5294:5376   */\n      iszero\n      tag_216\n      jumpi\n        /* \"#utility.yul\":5357:5374   */\n      dup3\n      dup2\n      sstore\n        /* \"#utility.yul\":5338:5339   */\n      0x01\n        /* \"#utility.yul\":5327:5340   */\n      add\n        /* \"#utility.yul\":5294:5376   */\n      jump(tag_214)\n    tag_216:\n        /* \"#utility.yul\":5298:5301   */\n      pop\n      pop\n      pop\n        /* \"#utility.yul\":4938:5386   */\n    tag_212:\n        /* \"#utility.yul\":4847:5392   */\n      pop\n      pop\n      pop\n      jump\t// out\n        /* \"#utility.yul\":5568:6774   */\n    tag_149:\n        /* \"#utility.yul\":5692:5710   */\n      0xffffffffffffffff\n        /* \"#utility.yul\":5687:5690   */\n      dup4\n        /* \"#utility.yul\":5684:5711   */\n      gt\n        /* \"#utility.yul\":5681:5734   */\n      iszero\n      tag_220\n      jumpi\n        /* \"#utility.yul\":5714:5732   */\n      tag_220\n      tag_163\n      jump\t// in\n    tag_220:\n        /* \"#utility.yul\":5743:5837   */\n      tag_221\n        /* \"#utility.yul\":5833:5836   */\n      dup4\n        /* \"#utility.yul\":5793:5831   */\n      tag_222\n        /* \"#utility.yul\":5825:5829   */\n      dup4\n        /* \"#utility.yul\":5819:5830   */\n      sload\n        /* \"#utility.yul\":5793:5831   */\n      tag_76\n      jump\t// in\n    tag_222:\n        /* \"#utility.yul\":5787:5791   */\n      dup4\n        /* \"#utility.yul\":5743:5837   */\n      tag_165\n      jump\t// in\n    tag_221:\n        /* \"#utility.yul\":5863:5864   */\n      0x00\n        /* \"#utility.yul\":5888:5890   */\n      0x1f\n        /* \"#utility.yul\":5883:5886   */\n      dup5\n        /* \"#utility.yul\":5880:5891   */\n      gt\n        /* \"#utility.yul\":5905:5906   */\n      0x01\n        /* \"#utility.yul\":5900:6516   */\n      dup2\n      eq\n      tag_224\n      jumpi\n        /* \"#utility.yul\":6560:6561   */\n      0x00\n        /* \"#utility.yul\":6577:6580   */\n      dup6\n        /* \"#utility.yul\":6574:6667   */\n      iszero\n      tag_225\n      jumpi\n      pop\n        /* \"#utility.yul\":6633:6652   */\n      dup4\n      dup3\n      add\n        /* \"#utility.yul\":6620:6653   */\n      calldataload\n        /* \"#utility.yul\":6574:6667   */\n    tag_225:\n      not(0x00)\n        /* \"#utility.yul\":5525:5526   */\n      0x03\n        /* \"#utility.yul\":5521:5532   */\n      dup8\n      swap1\n      shl\n        /* \"#utility.yul\":5517:5541   */\n      shr\n        /* \"#utility.yul\":5513:5542   */\n      not\n        /* \"#utility.yul\":5503:5543   */\n      and\n        /* \"#utility.yul\":5549:5550   */\n      0x01\n        /* \"#utility.yul\":5545:5556   */\n      dup7\n      swap1\n      shl\n        /* \"#utility.yul\":5500:5557   */\n      or\n        /* \"#utility.yul\":6680:6758   */\n      dup4\n      sstore\n        /* \"#utility.yul\":5873:6768   */\n      jump(tag_223)\n        /* \"#utility.yul\":5900:6516   */\n    tag_224:\n        /* \"#utility.yul\":4794:4795   */\n      0x00\n        /* \"#utility.yul\":4787:4801   */\n      dup4\n      dup2\n      mstore\n        /* \"#utility.yul\":4831:4835   */\n      0x20\n        /* \"#utility.yul\":4818:4836   */\n      swap1\n      keccak256\n      not(0x1f)\n        /* \"#utility.yul\":5936:5953   */\n      dup7\n      and\n      swap1\n        /* \"#utility.yul\":6037:6046   */\n      dup4\n        /* \"#utility.yul\":6059:6288   */\n    tag_228:\n        /* \"#utility.yul\":6073:6080   */\n      dup3\n        /* \"#utility.yul\":6070:6071   */\n      dup2\n        /* \"#utility.yul\":6067:6081   */\n      lt\n        /* \"#utility.yul\":6059:6288   */\n      iszero\n      tag_230\n      jumpi\n        /* \"#utility.yul\":6162:6181   */\n      dup7\n      dup6\n      add\n        /* \"#utility.yul\":6149:6182   */\n      calldataload\n        /* \"#utility.yul\":6134:6183   */\n      dup3\n      sstore\n        /* \"#utility.yul\":6269:6273   */\n      0x20\n        /* \"#utility.yul\":6254:6274   */\n      swap5\n      dup6\n      add\n      swap5\n        /* \"#utility.yul\":6222:6223   */\n      0x01\n        /* \"#utility.yul\":6210:6224   */\n      swap1\n      swap3\n      add\n      swap2\n        /* \"#utility.yul\":6089:6101   */\n      add\n        /* \"#utility.yul\":6059:6288   */\n      jump(tag_228)\n    tag_230:\n        /* \"#utility.yul\":6063:6066   */\n      pop\n        /* \"#utility.yul\":6316:6319   */\n      dup7\n        /* \"#utility.yul\":6307:6314   */\n      dup3\n        /* \"#utility.yul\":6304:6320   */\n      lt\n        /* \"#utility.yul\":6301:6460   */\n      iszero\n      tag_231\n      jumpi\n        /* \"#utility.yul\":6440:6441   */\n      0x00\n        /* \"#utility.yul\":6436:6442   */\n      not\n        /* \"#utility.yul\":6430:6433   */\n      0xf8\n        /* \"#utility.yul\":6424:6427   */\n      dup9\n        /* \"#utility.yul\":6421:6422   */\n      0x03\n        /* \"#utility.yul\":6417:6428   */\n      shl\n        /* \"#utility.yul\":6413:6434   */\n      and\n        /* \"#utility.yul\":6409:6443   */\n      shr\n        /* \"#utility.yul\":6405:6444   */\n      not\n        /* \"#utility.yul\":6392:6401   */\n      dup5\n        /* \"#utility.yul\":6387:6390   */\n      dup8\n        /* \"#utility.yul\":6383:6402   */\n      add\n        /* \"#utility.yul\":6370:6403   */\n      calldataload\n        /* \"#utility.yul\":6366:6445   */\n      and\n        /* \"#utility.yul\":6358:6364   */\n      dup2\n        /* \"#utility.yul\":6351:6446   */\n      sstore\n        /* \"#utility.yul\":6301:6460   */\n    tag_231:\n      pop\n      pop\n        /* \"#utility.yul\":6503:6504   */\n      0x01\n        /* \"#utility.yul\":6497:6500   */\n      dup6\n        /* \"#utility.yul\":6494:6495   */\n      0x01\n        /* \"#utility.yul\":6490:6501   */\n      shl\n        /* \"#utility.yul\":6486:6505   */\n      add\n        /* \"#utility.yul\":6480:6484   */\n      dup4\n        /* \"#utility.yul\":6473:6506   */\n      sstore\n        /* \"#utility.yul\":5873:6768   */\n    tag_223:\n      pop\n      pop\n        /* \"#utility.yul\":5568:6774   */\n      pop\n      pop\n      pop\n      jump\t// out\n        /* \"#utility.yul\":6779:7052   */\n    tag_151:\n        /* \"#utility.yul\":6964:6970   */\n      dup2\n        /* \"#utility.yul\":6956:6962   */\n      dup4\n        /* \"#utility.yul\":6951:6954   */\n      dup3\n        /* \"#utility.yul\":6938:6971   */\n      calldatacopy\n        /* \"#utility.yul\":6920:6923   */\n      0x00\n        /* \"#utility.yul\":6990:7006   */\n      swap2\n      add\n        /* \"#utility.yul\":7015:7028   */\n      swap1\n      dup2\n      mstore\n        /* \"#utility.yul\":6990:7006   */\n      swap2\n        /* \"#utility.yul\":6779:7052   */\n      swap1\n      pop\n      jump\t// out\n\n    auxdata: 0xa264697066735822122059e0ab9a9a4447af6874cb55ec5a657d39e1c3e922977ccf9d8c7dd65ceb58aa64736f6c63430008140033\n}\n",
				"bytecode": {
					"linkReferences": {},
					"object": "60e06040526402540be40060c05234801561001957600080fd5b50604051610ecb380380610ecb8339810160408190526100389161018f565b600080546001600160a01b0319163390811782556040519091907f8be0079c531659141344cd1fd0a4f28419497f9722a3daafe3b4186f6b6457e0908290a3610080856100df565b61008984610129565b60048190556001600160a01b038316608081905260a08390526040518381527fe27c4c1372396a3d15a9922f74f9dfc7c72b1ad6d63868470787249c356454c19060200160405180910390a250505050506101e5565b600580546001600160a01b0319166001600160a01b0383169081179091556040517f535b93d9e0be2f8cf2ba1e1f1f8c174e03aa29676b42aad916bc7190d29abe9090600090a250565b600380546001600160a01b0319166001600160a01b0383169081179091556040517fce7a780d33665b1ea097af5f155e3821b809ecbaa839d3b33aa83ba28168cefb90600090a250565b80516001600160a01b038116811461018a57600080fd5b919050565b600080600080600060a086880312156101a757600080fd5b6101b086610173565b94506101be60208701610173565b93506101cc60408701610173565b6060870151608090970151959894975095949392505050565b60805160a05160c051610ca26102296000396000818161020101526104b1015260008181610178015261035e01526000818161024e01526103250152610ca26000f3fe608060405234801561001057600080fd5b50600436106100f55760003560e01c80638f32d59b11610097578063d5725f1c11610066578063d5725f1c14610223578063dece273f14610236578063e19f470014610249578063f8cdd0141461027057600080fd5b80638f32d59b146101ab57806392a1aebf146101c957806392bf2be0146101dc578063bd252281146101fc57600080fd5b80636210308c116100d35780636210308c1461013d57806385152e45146101625780638c89b64f146101735780638da5cb5b1461019a57600080fd5b80630fdb11cf146100fa578063170aee731461011557806357fc36141461012a575b600080fd5b610102610278565b6040519081526020015b60405180910390f35b610128610123366004610912565b610556565b005b610128610138366004610912565b610595565b6003546001600160a01b03165b6040516001600160a01b03909116815260200161010c565b6005546001600160a01b031661014a565b6101027f000000000000000000000000000000000000000000000000000000000000000081565b6000546001600160a01b031661014a565b6000546001600160a01b03163314604051901515815260200161010c565b6101286101d7366004610912565b6105c8565b6101ef6101ea366004610912565b610691565b60405161010c9190610934565b6101027f000000000000000000000000000000000000000000000000000000000000000081565b610128610231366004610982565b61073d565b610128610244366004610a05565b610833565b61014a7f000000000000000000000000000000000000000000000000000000000000000081565b600454610102565b6002546001600160a01b0316600081815260016020526040812080549192918391906102a390610a1e565b80601f01602080910402602001604051908101604052809291908181526020018280546102cf90610a1e565b801561031c5780601f106102f15761010080835404028352916020019161031c565b820191906000526020600020905b8154815290600101906020018083116102ff57829003601f168201915b505050505090507f00000000000000000000000000000000000000000000000000000000000000006001600160a01b0316826001600160a01b031603610384577f00000000000000000000000000000000000000000000000000000000000000009250505090565b80516000036104025760035460405163b3596f0760e01b81526001600160a01b0384811660048301529091169063b3596f0790602401602060405180830381865afa1580156103d7573d6000803e3d6000fd5b505050506040513d601f19601f820116820180604052508101906103fb9190610a58565b9250505090565b6005546040516304b01c2560e51b815260009182916001600160a01b039091169063960384a090610437908690600401610934565b6040805180830381865afa158015610453573d6000803e3d6000fd5b505050506040513d601f19601f820116820180604052508101906104779190610a88565b915091506000826001600160801b03161180156104a757506004546104a56001600160801b03831642610ad1565b105b156104e8576104df7f00000000000000000000000000000000000000000000000000000000000000006001600160801b038416610aea565b94505050505090565b60035460405163b3596f0760e01b81526001600160a01b0386811660048301529091169063b3596f0790602401602060405180830381865afa158015610532573d6000803e3d6000fd5b505050506040513d601f19601f820116820180604052508101906104df9190610a58565b6000546001600160a01b031633146105895760405162461bcd60e51b815260040161058090610b01565b60405180910390fd5b61059281610862565b50565b6000546001600160a01b031633146105bf5760405162461bcd60e51b815260040161058090610b01565b610592816108ac565b6000546001600160a01b031633146105f25760405162461bcd60e51b815260040161058090610b01565b6001600160a01b03811661063d5760405162461bcd60e51b8152602060048201526012602482015271496e76616c696420706172616d657465727360701b6044820152606401610580565b600280546001600160a01b0319166001600160a01b0383169081179091556040519081527f58c18391fbfb633ee2f4d79e1c0c1d62597d97bc2c460d144c2583b13a2740e29060200160405180910390a150565b6001600160a01b03811660009081526001602052604090208054606091906106b890610a1e565b80601f01602080910402602001604051908101604052809291908181526020018280546106e490610a1e565b80156107315780601f1061070657610100808354040283529160200191610731565b820191906000526020600020905b81548152906001019060200180831161071457829003601f168201915b50505050509050919050565b6000546001600160a01b031633146107675760405162461bcd60e51b815260040161058090610b01565b6001600160a01b0383161580159061077e57508015155b6107bf5760405162461bcd60e51b8152602060048201526012602482015271496e76616c696420706172616d657465727360701b6044820152606401610580565b6001600160a01b03831660009081526001602052604090206107e2828483610b9b565b5081816040516107f3929190610c5c565b604051908190038120906001600160a01b038516907f1346085f9a075660968b9e1f053fbbcfa8642189a5f44875eea12a4c1e133b7e90600090a3505050565b6000546001600160a01b0316331461085d5760405162461bcd60e51b815260040161058090610b01565b600455565b600380546001600160a01b0319166001600160a01b0383169081179091556040517fce7a780d33665b1ea097af5f155e3821b809ecbaa839d3b33aa83ba28168cefb90600090a250565b600580546001600160a01b0319166001600160a01b0383169081179091556040517f535b93d9e0be2f8cf2ba1e1f1f8c174e03aa29676b42aad916bc7190d29abe9090600090a250565b80356001600160a01b038116811461090d57600080fd5b919050565b60006020828403121561092457600080fd5b61092d826108f6565b9392505050565b600060208083528351808285015260005b8181101561096157858101830151858201604001528201610945565b506000604082860101526040601f19601f8301168501019250505092915050565b60008060006040848603121561099757600080fd5b6109a0846108f6565b9250602084013567ffffffffffffffff808211156109bd57600080fd5b818601915086601f8301126109d157600080fd5b8135818111156109e057600080fd5b8760208285010111156109f257600080fd5b6020830194508093505050509250925092565b600060208284031215610a1757600080fd5b5035919050565b600181811c90821680610a3257607f821691505b602082108103610a5257634e487b7160e01b600052602260045260246000fd5b50919050565b600060208284031215610a6a57600080fd5b5051919050565b80516001600160801b038116811461090d57600080fd5b60008060408385031215610a9b57600080fd5b610aa483610a71565b9150610ab260208401610a71565b90509250929050565b634e487b7160e01b600052601160045260246000fd5b81810381811115610ae457610ae4610abb565b92915050565b8082028115828204841417610ae457610ae4610abb565b6020808252818101527f4f776e61626c653a2063616c6c6572206973206e6f7420746865206f776e6572604082015260600190565b634e487b7160e01b600052604160045260246000fd5b601f821115610b9657600081815260208120601f850160051c81016020861015610b735750805b601f850160051c820191505b81811015610b9257828155600101610b7f565b5050505b505050565b67ffffffffffffffff831115610bb357610bb3610b36565b610bc783610bc18354610a1e565b83610b4c565b6000601f841160018114610bfb5760008515610be35750838201355b600019600387901b1c1916600186901b178355610c55565b600083815260209020601f19861690835b82811015610c2c5786850135825560209485019460019092019101610c0c565b5086821015610c495760001960f88860031b161c19848701351681555b505060018560011b0183555b5050505050565b818382376000910190815291905056fea264697066735822122059e0ab9a9a4447af6874cb55ec5a657d39e1c3e922977ccf9d8c7dd65ceb58aa64736f6c63430008140033",
					"opcodes": "PUSH1 0xE0 PUSH1 0x40 MSTORE PUSH5 0x2540BE400 PUSH1 0xC0 MSTORE CALLVALUE DUP1 ISZERO PUSH2 0x19 JUMPI PUSH1 0x0 DUP1 REVERT JUMPDEST POP PUSH1 0x40 MLOAD PUSH2 0xECB CODESIZE SUB DUP1 PUSH2 0xECB DUP4 CODECOPY DUP2 ADD PUSH1 0x40 DUP2 SWAP1 MSTORE PUSH2 0x38 SWAP2 PUSH2 0x18F JUMP JUMPDEST PUSH1 0x0 DUP1 SLOAD PUSH1 0x1 PUSH1 0x1 PUSH1 0xA0 SHL SUB NOT AND CALLER SWAP1 DUP2 OR DUP3 SSTORE PUSH1 0x40 MLOAD SWAP1 SWAP2 SWAP1 PUSH32 0x8BE0079C531659141344CD1FD0A4F28419497F9722A3DAAFE3B4186F6B6457E0 SWAP1 DUP3 SWAP1 LOG3 PUSH2 0x80 DUP6 PUSH2 0xDF JUMP JUMPDEST PUSH2 0x89 DUP5 PUSH2 0x129 JUMP JUMPDEST PUSH1 0x4 DUP2 SWAP1 SSTORE PUSH1 0x1 PUSH1 0x1 PUSH1 0xA0 SHL SUB DUP4 AND PUSH1 0x80 DUP2 SWAP1 MSTORE PUSH1 0xA0 DUP4 SWAP1 MSTORE PUSH1 0x40 MLOAD DUP4 DUP2 MSTORE PUSH32 0xE27C4C1372396A3D15A9922F74F9DFC7C72B1AD6D63868470787249C356454C1 SWAP1 PUSH1 0x20 ADD PUSH1 0x40 MLOAD DUP1 SWAP2 SUB SWAP1 LOG2 POP POP POP POP POP PUSH2 0x1E5 JUMP JUMPDEST PUSH1 0x5 DUP1 SLOAD PUSH1 0x1 PUSH1 0x1 PUSH1 0xA0 SHL SUB NOT AND PUSH1 0x1 PUSH1 0x1 PUSH1 0xA0 SHL SUB DUP4 AND SWAP1 DUP2 OR SWAP1 SWAP2 SSTORE PUSH1 0x40 MLOAD PUSH32 0x535B93D9E0BE2F8CF2BA1E1F1F8C174E03AA29676B42AAD916BC7190D29ABE90 SWAP1 PUSH1 0x0 SWAP1 LOG2 POP JUMP JUMPDEST PUSH1 0x3 DUP1 SLOAD PUSH1 0x1 PUSH1 0x1 PUSH1 0xA0 SHL SUB NOT AND PUSH1 0x1 PUSH1 0x1 PUSH1 0xA0 SHL SUB DUP4 AND SWAP1 DUP2 OR SWAP1 SWAP2 SSTORE PUSH1 0x40 MLOAD PUSH32 0xCE7A780D33665B1EA097AF5F155E3821B809ECBAA839D3B33AA83BA28168CEFB SWAP1 PUSH1 0x0 SWAP1 LOG2 POP JUMP JUMPDEST DUP1 MLOAD PUSH1 0x1 PUSH1 0x1 PUSH1 0xA0 SHL SUB DUP2 AND DUP2 EQ PUSH2 0x18A JUMPI PUSH1 0x0 DUP1 REVERT JUMPDEST SWAP2 SWAP1 POP JUMP JUMPDEST PUSH1 0x0 DUP1 PUSH1 0x0 DUP1 PUSH1 0x0 PUSH1 0xA0 DUP7 DUP9 SUB SLT ISZERO PUSH2 0x1A7 JUMPI PUSH1 0x0 DUP1 REVERT JUMPDEST PUSH2 0x1B0 DUP7 PUSH2 0x173 JUMP JUMPDEST SWAP5 POP PUSH2 0x1BE PUSH1 0x20 DUP8 ADD PUSH2 0x173 JUMP JUMPDEST SWAP4 POP PUSH2 0x1CC PUSH1 0x40 DUP8 ADD PUSH2 0x173 JUMP JUMPDEST PUSH1 0x60 DUP8 ADD MLOAD PUSH1 0x80 SWAP1 SWAP8 ADD MLOAD SWAP6 SWAP9 SWAP5 SWAP8 POP SWAP6 SWAP5 SWAP4 SWAP3 POP POP POP JUMP JUMPDEST PUSH1 0x80 MLOAD PUSH1 0xA0 MLOAD PUSH1 0xC0 MLOAD PUSH2 0xCA2 PUSH2 0x229 PUSH1 0x0 CODECOPY PUSH1 0x0 DUP2 DUP2 PUSH2 0x201 ADD MSTORE PUSH2 0x4B1 ADD MSTORE PUSH1 0x0 DUP2 DUP2 PUSH2 0x178 ADD MSTORE PUSH2 0x35E ADD MSTORE PUSH1 0x0 DUP2 DUP2 PUSH2 0x24E ADD MSTORE PUSH2 0x325 ADD MSTORE PUSH2 0xCA2 PUSH1 0x0 RETURN INVALID PUSH1 0x80 PUSH1 0x40 MSTORE CALLVALUE DUP1 ISZERO PUSH2 0x10 JUMPI PUSH1 0x0 DUP1 REVERT JUMPDEST POP PUSH1 0x4 CALLDATASIZE LT PUSH2 0xF5 JUMPI PUSH1 0x0 CALLDATALOAD PUSH1 0xE0 SHR DUP1 PUSH4 0x8F32D59B GT PUSH2 0x97 JUMPI DUP1 PUSH4 0xD5725F1C GT PUSH2 0x66 JUMPI DUP1 PUSH4 0xD5725F1C EQ PUSH2 0x223 JUMPI DUP1 PUSH4 0xDECE273F EQ PUSH2 0x236 JUMPI DUP1 PUSH4 0xE19F4700 EQ PUSH2 0x249 JUMPI DUP1 PUSH4 0xF8CDD014 EQ PUSH2 0x270 JUMPI PUSH1 0x0 DUP1 REVERT JUMPDEST DUP1 PUSH4 0x8F32D59B EQ PUSH2 0x1AB JUMPI DUP1 PUSH4 0x92A1AEBF EQ PUSH2 0x1C9 JUMPI DUP1 PUSH4 0x92BF2BE0 EQ PUSH2 0x1DC JUMPI DUP1 PUSH4 0xBD252281 EQ PUSH2 0x1FC JUMPI PUSH1 0x0 DUP1 REVERT JUMPDEST DUP1 PUSH4 0x6210308C GT PUSH2 0xD3 JUMPI DUP1 PUSH4 0x6210308C EQ PUSH2 0x13D JUMPI DUP1 PUSH4 0x85152E45 EQ PUSH2 0x162 JUMPI DUP1 PUSH4 0x8C89B64F EQ PUSH2 0x173 JUMPI DUP1 PUSH4 0x8DA5CB5B EQ PUSH2 0x19A JUMPI PUSH1 0x0 DUP1 REVERT JUMPDEST DUP1 PUSH4 0xFDB11CF EQ PUSH2 0xFA JUMPI DUP1 PUSH4 0x170AEE73 EQ PUSH2 0x115 JUMPI DUP1 PUSH4 0x57FC3614 EQ PUSH2 0x12A JUMPI JUMPDEST PUSH1 0x0 DUP1 REVERT JUMPDEST PUSH2 0x102 PUSH2 0x278 JUMP JUMPDEST PUSH1 0x40 MLOAD SWAP1 DUP2 MSTORE PUSH1 0x20 ADD JUMPDEST PUSH1 0x40 MLOAD DUP1 SWAP2 SUB SWAP1 RETURN JUMPDEST PUSH2 0x128 PUSH2 0x123 CALLDATASIZE PUSH1 0x4 PUSH2 0x912 JUMP JUMPDEST PUSH2 0x556 JUMP JUMPDEST STOP JUMPDEST PUSH2 0x128 PUSH2 0x138 CALLDATASIZE PUSH1 0x4 PUSH2 0x912 JUMP JUMPDEST PUSH2 0x595 JUMP JUMPDEST PUSH1 0x3 SLOAD PUSH1 0x1 PUSH1 0x1 PUSH1 0xA0 SHL SUB AND JUMPDEST PUSH1 0x40 MLOAD PUSH1 0x1 PUSH1 0x1 PUSH1 0xA0 SHL SUB SWAP1 SWAP2 AND DUP2 MSTORE PUSH1 0x20 ADD PUSH2 0x10C JUMP JUMPDEST PUSH1 0x5 SLOAD PUSH1 0x1 PUSH1 0x1 PUSH1 0xA0 SHL SUB AND PUSH2 0x14A JUMP JUMPDEST PUSH2 0x102 PUSH32 0x0 DUP2 JUMP JUMPDEST PUSH1 0x0 SLOAD PUSH1 0x1 PUSH1 0x1 PUSH1 0xA0 SHL SUB AND PUSH2 0x14A JUMP JUMPDEST PUSH1 0x0 SLOAD PUSH1 0x1 PUSH1 0x1 PUSH1 0xA0 SHL SUB AND CALLER EQ PUSH1 0x40 MLOAD SWAP1 ISZERO ISZERO DUP2 MSTORE PUSH1 0x20 ADD PUSH2 0x10C JUMP JUMPDEST PUSH2 0x128 PUSH2 0x1D7 CALLDATASIZE PUSH1 0x4 PUSH2 0x912 JUMP JUMPDEST PUSH2 0x5C8 JUMP JUMPDEST PUSH2 0x1EF PUSH2 0x1EA CALLDATASIZE PUSH1 0x4 PUSH2 0x912 JUMP JUMPDEST PUSH2 0x691 JUMP JUMPDEST PUSH1 0x40 MLOAD PUSH2 0x10C SWAP2 SWAP1 PUSH2 0x934 JUMP JUMPDEST PUSH2 0x102 PUSH32 0x0 DUP2 JUMP JUMPDEST PUSH2 0x128 PUSH2 0x231 CALLDATASIZE PUSH1 0x4 PUSH2 0x982 JUMP JUMPDEST PUSH2 0x73D JUMP JUMPDEST PUSH2 0x128 PUSH2 0x244 CALLDATASIZE PUSH1 0x4 PUSH2 0xA05 JUMP JUMPDEST PUSH2 0x833 JUMP JUMPDEST PUSH2 0x14A PUSH32 0x0 DUP2 JUMP JUMPDEST PUSH1 0x4 SLOAD PUSH2 0x102 JUMP JUMPDEST PUSH1 0x2 SLOAD PUSH1 0x1 PUSH1 0x1 PUSH1 0xA0 SHL SUB AND PUSH1 0x0 DUP2 DUP2 MSTORE PUSH1 0x1 PUSH1 0x20 MSTORE PUSH1 0x40 DUP2 KECCAK256 DUP1 SLOAD SWAP2 SWAP3 SWAP2 DUP4 SWAP2 SWAP1 PUSH2 0x2A3 SWAP1 PUSH2 0xA1E JUMP JUMPDEST DUP1 PUSH1 0x1F ADD PUSH1 0x20 DUP1 SWAP2 DIV MUL PUSH1 0x20 ADD PUSH1 0x40 MLOAD SWAP1 DUP2 ADD PUSH1 0x40 MSTORE DUP1 SWAP3 SWAP2 SWAP1 DUP2 DUP2 MSTORE PUSH1 0x20 ADD DUP3 DUP1 SLOAD PUSH2 0x2CF SWAP1 PUSH2 0xA1E JUMP JUMPDEST DUP1 ISZERO PUSH2 0x31C JUMPI DUP1 PUSH1 0x1F LT PUSH2 0x2F1 JUMPI PUSH2 0x100 DUP1 DUP4 SLOAD DIV MUL DUP4 MSTORE SWAP2 PUSH1 0x20 ADD SWAP2 PUSH2 0x31C JUMP JUMPDEST DUP3 ADD SWAP2 SWAP1 PUSH1 0x0 MSTORE PUSH1 0x20 PUSH1 0x0 KECCAK256 SWAP1 JUMPDEST DUP2 SLOAD DUP2 MSTORE SWAP1 PUSH1 0x1 ADD SWAP1 PUSH1 0x20 ADD DUP1 DUP4 GT PUSH2 0x2FF JUMPI DUP3 SWAP1 SUB PUSH1 0x1F AND DUP3 ADD SWAP2 JUMPDEST POP POP POP POP POP SWAP1 POP PUSH32 0x0 PUSH1 0x1 PUSH1 0x1 PUSH1 0xA0 SHL SUB AND DUP3 PUSH1 0x1 PUSH1 0x1 PUSH1 0xA0 SHL SUB AND SUB PUSH2 0x384 JUMPI PUSH32 0x0 SWAP3 POP POP POP SWAP1 JUMP JUMPDEST DUP1 MLOAD PUSH1 0x0 SUB PUSH2 0x402 JUMPI PUSH1 0x3 SLOAD PUSH1 0x40 MLOAD PUSH4 0xB3596F07 PUSH1 0xE0 SHL DUP2 MSTORE PUSH1 0x1 PUSH1 0x1 PUSH1 0xA0 SHL SUB DUP5 DUP2 AND PUSH1 0x4 DUP4 ADD MSTORE SWAP1 SWAP2 AND SWAP1 PUSH4 0xB3596F07 SWAP1 PUSH1 0x24 ADD PUSH1 0x20 PUSH1 0x40 MLOAD DUP1 DUP4 SUB DUP2 DUP7 GAS STATICCALL ISZERO DUP1 ISZERO PUSH2 0x3D7 JUMPI RETURNDATASIZE PUSH1 0x0 DUP1 RETURNDATACOPY RETURNDATASIZE PUSH1 0x0 REVERT JUMPDEST POP POP POP POP PUSH1 0x40 MLOAD RETURNDATASIZE PUSH1 0x1F NOT PUSH1 0x1F DUP3 ADD AND DUP3 ADD DUP1 PUSH1 0x40 MSTORE POP DUP2 ADD SWAP1 PUSH2 0x3FB SWAP2 SWAP1 PUSH2 0xA58 JUMP JUMPDEST SWAP3 POP POP POP SWAP1 JUMP JUMPDEST PUSH1 0x5 SLOAD PUSH1 0x40 MLOAD PUSH4 0x4B01C25 PUSH1 0xE5 SHL DUP2 MSTORE PUSH1 0x0 SWAP2 DUP3 SWAP2 PUSH1 0x1 PUSH1 0x1 PUSH1 0xA0 SHL SUB SWAP1 SWAP2 AND SWAP1 PUSH4 0x960384A0 SWAP1 PUSH2 0x437 SWAP1 DUP7 SWAP1 PUSH1 0x4 ADD PUSH2 0x934 JUMP JUMPDEST PUSH1 0x40 DUP1 MLOAD DUP1 DUP4 SUB DUP2 DUP7 GAS STATICCALL ISZERO DUP1 ISZERO PUSH2 0x453 JUMPI RETURNDATASIZE PUSH1 0x0 DUP1 RETURNDATACOPY RETURNDATASIZE PUSH1 0x0 REVERT JUMPDEST POP POP POP POP PUSH1 0x40 MLOAD RETURNDATASIZE PUSH1 0x1F NOT PUSH1 0x1F DUP3 ADD AND DUP3 ADD DUP1 PUSH1 0x40 MSTORE POP DUP2 ADD SWAP1 PUSH2 0x477 SWAP2 SWAP1 PUSH2 0xA88 JUMP JUMPDEST SWAP2 POP SWAP2 POP PUSH1 0x0 DUP3 PUSH1 0x1 PUSH1 0x1 PUSH1 0x80 SHL SUB AND GT DUP1 ISZERO PUSH2 0x4A7 JUMPI POP PUSH1 0x4 SLOAD PUSH2 0x4A5 PUSH1 0x1 PUSH1 0x1 PUSH1 0x80 SHL SUB DUP4 AND TIMESTAMP PUSH2 0xAD1 JUMP JUMPDEST LT JUMPDEST ISZERO PUSH2 0x4E8 JUMPI PUSH2 0x4DF PUSH32 0x0 PUSH1 0x1 PUSH1 0x1 PUSH1 0x80 SHL SUB DUP5 AND PUSH2 0xAEA JUMP JUMPDEST SWAP5 POP POP POP POP POP SWAP1 JUMP JUMPDEST PUSH1 0x3 SLOAD PUSH1 0x40 MLOAD PUSH4 0xB3596F07 PUSH1 0xE0 SHL DUP2 MSTORE PUSH1 0x1 PUSH1 0x1 PUSH1 0xA0 SHL SUB DUP7 DUP2 AND PUSH1 0x4 DUP4 ADD MSTORE SWAP1 SWAP2 AND SWAP1 PUSH4 0xB3596F07 SWAP1 PUSH1 0x24 ADD PUSH1 0x20 PUSH1 0x40 MLOAD DUP1 DUP4 SUB DUP2 DUP7 GAS STATICCALL ISZERO DUP1 ISZERO PUSH2 0x532 JUMPI RETURNDATASIZE PUSH1 0x0 DUP1 RETURNDATACOPY RETURNDATASIZE PUSH1 0x0 REVERT JUMPDEST POP POP POP POP PUSH1 0x40 MLOAD RETURNDATASIZE PUSH1 0x1F NOT PUSH1 0x1F DUP3 ADD AND DUP3 ADD DUP1 PUSH1 0x40 MSTORE POP DUP2 ADD SWAP1 PUSH2 0x4DF SWAP2 SWAP1 PUSH2 0xA58 JUMP JUMPDEST PUSH1 0x0 SLOAD PUSH1 0x1 PUSH1 0x1 PUSH1 0xA0 SHL SUB AND CALLER EQ PUSH2 0x589 JUMPI PUSH1 0x40 MLOAD PUSH3 0x461BCD PUSH1 0xE5 SHL DUP2 MSTORE PUSH1 0x4 ADD PUSH2 0x580 SWAP1 PUSH2 0xB01 JUMP JUMPDEST PUSH1 0x40 MLOAD DUP1 SWAP2 SUB SWAP1 REVERT JUMPDEST PUSH2 0x592 DUP2 PUSH2 0x862 JUMP JUMPDEST POP JUMP JUMPDEST PUSH1 0x0 SLOAD PUSH1 0x1 PUSH1 0x1 PUSH1 0xA0 SHL SUB AND CALLER EQ PUSH2 0x5BF JUMPI PUSH1 0x40 MLOAD PUSH3 0x461BCD PUSH1 0xE5 SHL DUP2 MSTORE PUSH1 0x4 ADD PUSH2 0x580 SWAP1 PUSH2 0xB01 JUMP JUMPDEST PUSH2 0x592 DUP2 PUSH2 0x8AC JUMP JUMPDEST PUSH1 0x0 SLOAD PUSH1 0x1 PUSH1 0x1 PUSH1 0xA0 SHL SUB AND CALLER EQ PUSH2 0x5F2 JUMPI PUSH1 0x40 MLOAD PUSH3 0x461BCD PUSH1 0xE5 SHL DUP2 MSTORE PUSH1 0x4 ADD PUSH2 0x580 SWAP1 PUSH2 0xB01 JUMP JUMPDEST PUSH1 0x1 PUSH1 0x1 PUSH1 0xA0 SHL SUB DUP2 AND PUSH2 0x63D JUMPI PUSH1 0x40 MLOAD PUSH3 0x461BCD PUSH1 0xE5 SHL DUP2 MSTORE PUSH1 0x20 PUSH1 0x4 DUP3 ADD MSTORE PUSH1 0x12 PUSH1 0x24 DUP3 ADD MSTORE PUSH18 0x496E76616C696420706172616D6574657273 PUSH1 0x70 SHL PUSH1 0x44 DUP3 ADD MSTORE PUSH1 0x64 ADD PUSH2 0x580 JUMP JUMPDEST PUSH1 0x2 DUP1 SLOAD PUSH1 0x1 PUSH1 0x1 PUSH1 0xA0 SHL SUB NOT AND PUSH1 0x1 PUSH1 0x1 PUSH1 0xA0 SHL SUB DUP4 AND SWAP1 DUP2 OR SWAP1 SWAP2 SSTORE PUSH1 0x40 MLOAD SWAP1 DUP2 MSTORE PUSH32 0x58C18391FBFB633EE2F4D79E1C0C1D62597D97BC2C460D144C2583B13A2740E2 SWAP1 PUSH1 0x20 ADD PUSH1 0x40 MLOAD DUP1 SWAP2 SUB SWAP1 LOG1 POP JUMP JUMPDEST PUSH1 0x1 PUSH1 0x1 PUSH1 0xA0 SHL SUB DUP2 AND PUSH1 0x0 SWAP1 DUP2 MSTORE PUSH1 0x1 PUSH1 0x20 MSTORE PUSH1 0x40 SWAP1 KECCAK256 DUP1 SLOAD PUSH1 0x60 SWAP2 SWAP1 PUSH2 0x6B8 SWAP1 PUSH2 0xA1E JUMP JUMPDEST DUP1 PUSH1 0x1F ADD PUSH1 0x20 DUP1 SWAP2 DIV MUL PUSH1 0x20 ADD PUSH1 0x40 MLOAD SWAP1 DUP2 ADD PUSH1 0x40 MSTORE DUP1 SWAP3 SWAP2 SWAP1 DUP2 DUP2 MSTORE PUSH1 0x20 ADD DUP3 DUP1 SLOAD PUSH2 0x6E4 SWAP1 PUSH2 0xA1E JUMP JUMPDEST DUP1 ISZERO PUSH2 0x731 JUMPI DUP1 PUSH1 0x1F LT PUSH2 0x706 JUMPI PUSH2 0x100 DUP1 DUP4 SLOAD DIV MUL DUP4 MSTORE SWAP2 PUSH1 0x20 ADD SWAP2 PUSH2 0x731 JUMP JUMPDEST DUP3 ADD SWAP2 SWAP1 PUSH1 0x0 MSTORE PUSH1 0x20 PUSH1 0x0 KECCAK256 SWAP1 JUMPDEST DUP2 SLOAD DUP2 MSTORE SWAP1 PUSH1 0x1 ADD SWAP1 PUSH1 0x20 ADD DUP1 DUP4 GT PUSH2 0x714 JUMPI DUP3 SWAP1 SUB PUSH1 0x1F AND DUP3 ADD SWAP2 JUMPDEST POP POP POP POP POP SWAP1 POP SWAP2 SWAP1 POP JUMP JUMPDEST PUSH1 0x0 SLOAD PUSH1 0x1 PUSH1 0x1 PUSH1 0xA0 SHL SUB AND CALLER EQ PUSH2 0x767 JUMPI PUSH1 0x40 MLOAD PUSH3 0x461BCD PUSH1 0xE5 SHL DUP2 MSTORE PUSH1 0x4 ADD PUSH2 0x580 SWAP1 PUSH2 0xB01 JUMP JUMPDEST PUSH1 0x1 PUSH1 0x1 PUSH1 0xA0 SHL SUB DUP4 AND ISZERO DUP1 ISZERO SWAP1 PUSH2 0x77E JUMPI POP DUP1 ISZERO ISZERO JUMPDEST PUSH2 0x7BF JUMPI PUSH1 0x40 MLOAD PUSH3 0x461BCD PUSH1 0xE5 SHL DUP2 MSTORE PUSH1 0x20 PUSH1 0x4 DUP3 ADD MSTORE PUSH1 0x12 PUSH1 0x24 DUP3 ADD MSTORE PUSH18 0x496E76616C696420706172616D6574657273 PUSH1 0x70 SHL PUSH1 0x44 DUP3 ADD MSTORE PUSH1 0x64 ADD PUSH2 0x580 JUMP JUMPDEST PUSH1 0x1 PUSH1 0x1 PUSH1 0xA0 SHL SUB DUP4 AND PUSH1 0x0 SWAP1 DUP2 MSTORE PUSH1 0x1 PUSH1 0x20 MSTORE PUSH1 0x40 SWAP1 KECCAK256 PUSH2 0x7E2 DUP3 DUP5 DUP4 PUSH2 0xB9B JUMP JUMPDEST POP DUP2 DUP2 PUSH1 0x40 MLOAD PUSH2 0x7F3 SWAP3 SWAP2 SWAP1 PUSH2 0xC5C JUMP JUMPDEST PUSH1 0x40 MLOAD SWAP1 DUP2 SWAP1 SUB DUP2 KECCAK256 SWAP1 PUSH1 0x1 PUSH1 0x1 PUSH1 0xA0 SHL SUB DUP6 AND SWAP1 PUSH32 0x1346085F9A075660968B9E1F053FBBCFA8642189A5F44875EEA12A4C1E133B7E SWAP1 PUSH1 0x0 SWAP1 LOG3 POP POP POP JUMP JUMPDEST PUSH1 0x0 SLOAD PUSH1 0x1 PUSH1 0x1 PUSH1 0xA0 SHL SUB AND CALLER EQ PUSH2 0x85D JUMPI PUSH1 0x40 MLOAD PUSH3 0x461BCD PUSH1 0xE5 SHL DUP2 MSTORE PUSH1 0x4 ADD PUSH2 0x580 SWAP1 PUSH2 0xB01 JUMP JUMPDEST PUSH1 0x4 SSTORE JUMP JUMPDEST PUSH1 0x3 DUP1 SLOAD PUSH1 0x1 PUSH1 0x1 PUSH1 0xA0 SHL SUB NOT AND PUSH1 0x1 PUSH1 0x1 PUSH1 0xA0 SHL SUB DUP4 AND SWAP1 DUP2 OR SWAP1 SWAP2 SSTORE PUSH1 0x40 MLOAD PUSH32 0xCE7A780D33665B1EA097AF5F155E3821B809ECBAA839D3B33AA83BA28168CEFB SWAP1 PUSH1 0x0 SWAP1 LOG2 POP JUMP JUMPDEST PUSH1 0x5 DUP1 SLOAD PUSH1 0x1 PUSH1 0x1 PUSH1 0xA0 SHL SUB NOT AND PUSH1 0x1 PUSH1 0x1 PUSH1 0xA0 SHL SUB DUP4 AND SWAP1 DUP2 OR SWAP1 SWAP2 SSTORE PUSH1 0x40 MLOAD PUSH32 0x535B93D9E0BE2F8CF2BA1E1F1F8C174E03AA29676B42AAD916BC7190D29ABE90 SWAP1 PUSH1 0x0 SWAP1 LOG2 POP JUMP JUMPDEST DUP1 CALLDATALOAD PUSH1 0x1 PUSH1 0x1 PUSH1 0xA0 SHL SUB DUP2 AND DUP2 EQ PUSH2 0x90D JUMPI PUSH1 0x0 DUP1 REVERT JUMPDEST SWAP2 SWAP1 POP JUMP JUMPDEST PUSH1 0x0 PUSH1 0x20 DUP3 DUP5 SUB SLT ISZERO PUSH2 0x924 JUMPI PUSH1 0x0 DUP1 REVERT JUMPDEST PUSH2 0x92D DUP3 PUSH2 0x8F6 JUMP JUMPDEST SWAP4 SWAP3 POP POP POP JUMP JUMPDEST PUSH1 0x0 PUSH1 0x20 DUP1 DUP4 MSTORE DUP4 MLOAD DUP1 DUP3 DUP6 ADD MSTORE PUSH1 0x0 JUMPDEST DUP2 DUP2 LT ISZERO PUSH2 0x961 JUMPI DUP6 DUP2 ADD DUP4 ADD MLOAD DUP6 DUP3 ADD PUSH1 0x40 ADD MSTORE DUP3 ADD PUSH2 0x945 JUMP JUMPDEST POP PUSH1 0x0 PUSH1 0x40 DUP3 DUP7 ADD ADD MSTORE PUSH1 0x40 PUSH1 0x1F NOT PUSH1 0x1F DUP4 ADD AND DUP6 ADD ADD SWAP3 POP POP POP SWAP3 SWAP2 POP POP JUMP JUMPDEST PUSH1 0x0 DUP1 PUSH1 0x0 PUSH1 0x40 DUP5 DUP7 SUB SLT ISZERO PUSH2 0x997 JUMPI PUSH1 0x0 DUP1 REVERT JUMPDEST PUSH2 0x9A0 DUP5 PUSH2 0x8F6 JUMP JUMPDEST SWAP3 POP PUSH1 0x20 DUP5 ADD CALLDATALOAD PUSH8 0xFFFFFFFFFFFFFFFF DUP1 DUP3 GT ISZERO PUSH2 0x9BD JUMPI PUSH1 0x0 DUP1 REVERT JUMPDEST DUP2 DUP7 ADD SWAP2 POP DUP7 PUSH1 0x1F DUP4 ADD SLT PUSH2 0x9D1 JUMPI PUSH1 0x0 DUP1 REVERT JUMPDEST DUP2 CALLDATALOAD DUP2 DUP2 GT ISZERO PUSH2 0x9E0 JUMPI PUSH1 0x0 DUP1 REVERT JUMPDEST DUP8 PUSH1 0x20 DUP3 DUP6 ADD ADD GT ISZERO PUSH2 0x9F2 JUMPI PUSH1 0x0 DUP1 REVERT JUMPDEST PUSH1 0x20 DUP4 ADD SWAP5 POP DUP1 SWAP4 POP POP POP POP SWAP3 POP SWAP3 POP SWAP3 JUMP JUMPDEST PUSH1 0x0 PUSH1 0x20 DUP3 DUP5 SUB SLT ISZERO PUSH2 0xA17 JUMPI PUSH1 0x0 DUP1 REVERT JUMPDEST POP CALLDATALOAD SWAP2 SWAP1 POP JUMP JUMPDEST PUSH1 0x1 DUP2 DUP2 SHR SWAP1 DUP3 AND DUP1 PUSH2 0xA32 JUMPI PUSH1 0x7F DUP3 AND SWAP2 POP JUMPDEST PUSH1 0x20 DUP3 LT DUP2 SUB PUSH2 0xA52 JUMPI PUSH4 0x4E487B71 PUSH1 0xE0 SHL PUSH1 0x0 MSTORE PUSH1 0x22 PUSH1 0x4 MSTORE PUSH1 0x24 PUSH1 0x0 REVERT JUMPDEST POP SWAP2 SWAP1 POP JUMP JUMPDEST PUSH1 0x0 PUSH1 0x20 DUP3 DUP5 SUB SLT ISZERO PUSH2 0xA6A JUMPI PUSH1 0x0 DUP1 REVERT JUMPDEST POP MLOAD SWAP2 SWAP1 POP JUMP JUMPDEST DUP1 MLOAD PUSH1 0x1 PUSH1 0x1 PUSH1 0x80 SHL SUB DUP2 AND DUP2 EQ PUSH2 0x90D JUMPI PUSH1 0x0 DUP1 REVERT JUMPDEST PUSH1 0x0 DUP1 PUSH1 0x40 DUP4 DUP6 SUB SLT ISZERO PUSH2 0xA9B JUMPI PUSH1 0x0 DUP1 REVERT JUMPDEST PUSH2 0xAA4 DUP4 PUSH2 0xA71 JUMP JUMPDEST SWAP2 POP PUSH2 0xAB2 PUSH1 0x20 DUP5 ADD PUSH2 0xA71 JUMP JUMPDEST SWAP1 POP SWAP3 POP SWAP3 SWAP1 POP JUMP JUMPDEST PUSH4 0x4E487B71 PUSH1 0xE0 SHL PUSH1 0x0 MSTORE PUSH1 0x11 PUSH1 0x4 MSTORE PUSH1 0x24 PUSH1 0x0 REVERT JUMPDEST DUP2 DUP2 SUB DUP2 DUP2 GT ISZERO PUSH2 0xAE4 JUMPI PUSH2 0xAE4 PUSH2 0xABB JUMP JUMPDEST SWAP3 SWAP2 POP POP JUMP JUMPDEST DUP1 DUP3 MUL DUP2 ISZERO DUP3 DUP3 DIV DUP5 EQ OR PUSH2 0xAE4 JUMPI PUSH2 0xAE4 PUSH2 0xABB JUMP JUMPDEST PUSH1 0x20 DUP1 DUP3 MSTORE DUP2 DUP2 ADD MSTORE PUSH32 0x4F776E61626C653A2063616C6C6572206973206E6F7420746865206F776E6572 PUSH1 0x40 DUP3 ADD MSTORE PUSH1 0x60 ADD SWAP1 JUMP JUMPDEST PUSH4 0x4E487B71 PUSH1 0xE0 SHL PUSH1 0x0 MSTORE PUSH1 0x41 PUSH1 0x4 MSTORE PUSH1 0x24 PUSH1 0x0 REVERT JUMPDEST PUSH1 0x1F DUP3 GT ISZERO PUSH2 0xB96 JUMPI PUSH1 0x0 DUP2 DUP2 MSTORE PUSH1 0x20 DUP2 KECCAK256 PUSH1 0x1F DUP6 ADD PUSH1 0x5 SHR DUP2 ADD PUSH1 0x20 DUP7 LT ISZERO PUSH2 0xB73 JUMPI POP DUP1 JUMPDEST PUSH1 0x1F DUP6 ADD PUSH1 0x5 SHR DUP3 ADD SWAP2 POP JUMPDEST DUP2 DUP2 LT ISZERO PUSH2 0xB92 JUMPI DUP3 DUP2 SSTORE PUSH1 0x1 ADD PUSH2 0xB7F JUMP JUMPDEST POP POP POP JUMPDEST POP POP POP JUMP JUMPDEST PUSH8 0xFFFFFFFFFFFFFFFF DUP4 GT ISZERO PUSH2 0xBB3 JUMPI PUSH2 0xBB3 PUSH2 0xB36 JUMP JUMPDEST PUSH2 0xBC7 DUP4 PUSH2 0xBC1 DUP4 SLOAD PUSH2 0xA1E JUMP JUMPDEST DUP4 PUSH2 0xB4C JUMP JUMPDEST PUSH1 0x0 PUSH1 0x1F DUP5 GT PUSH1 0x1 DUP2 EQ PUSH2 0xBFB JUMPI PUSH1 0x0 DUP6 ISZERO PUSH2 0xBE3 JUMPI POP DUP4 DUP3 ADD CALLDATALOAD JUMPDEST PUSH1 0x0 NOT PUSH1 0x3 DUP8 SWAP1 SHL SHR NOT AND PUSH1 0x1 DUP7 SWAP1 SHL OR DUP4 SSTORE PUSH2 0xC55 JUMP JUMPDEST PUSH1 0x0 DUP4 DUP2 MSTORE PUSH1 0x20 SWAP1 KECCAK256 PUSH1 0x1F NOT DUP7 AND SWAP1 DUP4 JUMPDEST DUP3 DUP2 LT ISZERO PUSH2 0xC2C JUMPI DUP7 DUP6 ADD CALLDATALOAD DUP3 SSTORE PUSH1 0x20 SWAP5 DUP6 ADD SWAP5 PUSH1 0x1 SWAP1 SWAP3 ADD SWAP2 ADD PUSH2 0xC0C JUMP JUMPDEST POP DUP7 DUP3 LT ISZERO PUSH2 0xC49 JUMPI PUSH1 0x0 NOT PUSH1 0xF8 DUP9 PUSH1 0x3 SHL AND SHR NOT DUP5 DUP8 ADD CALLDATALOAD AND DUP2 SSTORE JUMPDEST POP POP PUSH1 0x1 DUP6 PUSH1 0x1 SHL ADD DUP4 SSTORE JUMPDEST POP POP POP POP POP JUMP JUMPDEST DUP2 DUP4 DUP3 CALLDATACOPY PUSH1 0x0 SWAP2 ADD SWAP1 DUP2 MSTORE SWAP2 SWAP1 POP JUMP INVALID LOG2 PUSH5 0x6970667358 0x22 SLT KECCAK256 MSIZE 0xE0 0xAB SWAP11 SWAP11 PREVRANDAO SELFBALANCE 0xAF PUSH9 0x74CB55EC5A657D39E1 0xC3 0xE9 0x22 SWAP8 PUSH29 0xCF9D8C7DD65CEB58AA64736F6C63430008140033000000000000000000 "
				},
				"gasEstimates": {
					"creation": {
						"codeDepositCost": "646800",
						"executionCost": "infinite",
						"totalCost": "infinite"
					},
					"external": {
						"BASE_CURRENCY()": "infinite",
						"BASE_CURRENCY_UNIT()": "infinite",
						"CONVERSION_FACTOR()": "infinite",
						"fetchPrice()": "infinite",
						"getFallbackOracle()": "2343",
						"getMasterOracle()": "2376",
						"getMaxPriceAgeLimit()": "2369",
						"getSourceOfAsset(address)": "infinite",
						"isOwner()": "2332",
						"owner()": "2420",
						"setAssetKey(address,string)": "infinite",
						"setDIAOracle(address)": "27947",
						"setFallbackOracle(address)": "27925",
						"setMaxPriceAgeLimit(uint256)": "24508",
						"setwEthAddress(address)": "27844"
					},
					"internal": {
						"_setDIAOracle(address)": "25426",
						"_setFallbackOracle(address)": "25426"
					}
				},
				"methodIdentifiers": {
					"BASE_CURRENCY()": "e19f4700",
					"BASE_CURRENCY_UNIT()": "8c89b64f",
					"CONVERSION_FACTOR()": "bd252281",
					"fetchPrice()": "0fdb11cf",
					"getFallbackOracle()": "6210308c",
					"getMasterOracle()": "85152e45",
					"getMaxPriceAgeLimit()": "f8cdd014",
					"getSourceOfAsset(address)": "92bf2be0",
					"isOwner()": "8f32d59b",
					"owner()": "8da5cb5b",
					"setAssetKey(address,string)": "d5725f1c",
					"setDIAOracle(address)": "57fc3614",
					"setFallbackOracle(address)": "170aee73",
					"setMaxPriceAgeLimit(uint256)": "dece273f",
					"setwEthAddress(address)": "92a1aebf"
				}
			},
			"storageLayout": {
				"storage": [
					{
						"astId": 140,
						"contract": "contracts/PriceFeed.sol:PriceFeed",
						"label": "_owner",
						"offset": 0,
						"slot": "0",
						"type": "t_address"
					},
					{
						"astId": 280,
						"contract": "contracts/PriceFeed.sol:PriceFeed",
						"label": "assetsKeys",
						"offset": 0,
						"slot": "1",
						"type": "t_mapping(t_address,t_string_storage)"
					},
					{
						"astId": 282,
						"contract": "contracts/PriceFeed.sol:PriceFeed",
						"label": "wEthAddress",
						"offset": 0,
						"slot": "2",
						"type": "t_address"
					},
					{
						"astId": 285,
						"contract": "contracts/PriceFeed.sol:PriceFeed",
						"label": "_fallbackOracle",
						"offset": 0,
						"slot": "3",
						"type": "t_contract(IPriceOracleGetter)242"
					},
					{
						"astId": 294,
						"contract": "contracts/PriceFeed.sol:PriceFeed",
						"label": "maxPriceAgeLimit",
						"offset": 0,
						"slot": "4",
						"type": "t_uint256"
					},
					{
						"astId": 297,
						"contract": "contracts/PriceFeed.sol:PriceFeed",
						"label": "DIA",
						"offset": 0,
						"slot": "5",
						"type": "t_contract(DIAOracleV2)135"
					}
				],
				"types": {
					"t_address": {
						"encoding": "inplace",
						"label": "address",
						"numberOfBytes": "20"
					},
					"t_contract(DIAOracleV2)135": {
						"encoding": "inplace",
						"label": "contract DIAOracleV2",
						"numberOfBytes": "20"
					},
					"t_contract(IPriceOracleGetter)242": {
						"encoding": "inplace",
						"label": "contract IPriceOracleGetter",
						"numberOfBytes": "20"
					},
					"t_mapping(t_address,t_string_storage)": {
						"encoding": "mapping",
						"key": "t_address",
						"label": "mapping(address => string)",
						"numberOfBytes": "32",
						"value": "t_string_storage"
					},
					"t_string_storage": {
						"encoding": "bytes",
						"label": "string",
						"numberOfBytes": "32"
					},
					"t_uint256": {
						"encoding": "inplace",
						"label": "uint256",
						"numberOfBytes": "32"
					}
				}
			},
			"userdoc": {
				"kind": "user",
				"methods": {
					"constructor": {
						"notice": "Constructor"
					},
					"getFallbackOracle()": {
						"notice": "Gets the address of the fallback oracle"
					},
					"getMasterOracle()": {
						"notice": "Gets the address of the master oracle"
					},
					"getMaxPriceAgeLimit()": {
						"notice": "Gets the maximum age that the oracle price can be before the call is routed to fallback"
					},
					"setAssetKey(address,string)": {
						"notice": "External function called to set or replace DIA keys for assets. "
					},
					"setDIAOracle(address)": {
						"notice": "Sets the MasterOracle"
					},
					"setFallbackOracle(address)": {
						"notice": "Sets the fallbackOracle"
					},
					"setMaxPriceAgeLimit(uint256)": {
						"notice": "Sets the max age that an oracle price can be before fallback oracle is called"
					}
				},
				"notice": "Proxy smart contract to get the price of an asset from a price source, with DIA oracle         smart contracts as primary option - If the returned price by DIA is <= 0, or price is older than maxPriceAgeLimit the call is forwarded to a fallbackOracle - Owned by the OmniDex governance system, allowed to add keys for assets, replace them,   change master oracle and change the fallbackOracle",
				"version": 1
			}
		}
	}
}