{
	"contracts/contracts/DIAOracleV2.sol": {
		"DIAOracleV2": {
			"abi": [
				{
					"inputs": [],
					"stateMutability": "nonpayable",
					"type": "constructor"
				},
				{
					"anonymous": false,
					"inputs": [
						{
							"indexed": false,
							"internalType": "string",
							"name": "key",
							"type": "string"
						},
						{
							"indexed": false,
							"internalType": "uint128",
							"name": "value",
							"type": "uint128"
						},
						{
							"indexed": false,
							"internalType": "uint128",
							"name": "timestamp",
							"type": "uint128"
						}
					],
					"name": "OracleUpdate",
					"type": "event"
				},
				{
					"anonymous": false,
					"inputs": [
						{
							"indexed": false,
							"internalType": "address",
							"name": "newUpdater",
							"type": "address"
						}
					],
					"name": "UpdaterAddressChange",
					"type": "event"
				},
				{
					"inputs": [
						{
							"internalType": "string",
							"name": "key",
							"type": "string"
						}
					],
					"name": "getValue",
					"outputs": [
						{
							"internalType": "uint128",
							"name": "",
							"type": "uint128"
						},
						{
							"internalType": "uint128",
							"name": "",
							"type": "uint128"
						}
					],
					"stateMutability": "view",
					"type": "function"
				},
				{
					"inputs": [
						{
							"internalType": "string",
							"name": "key",
							"type": "string"
						},
						{
							"internalType": "uint128",
							"name": "value",
							"type": "uint128"
						},
						{
							"internalType": "uint128",
							"name": "timestamp",
							"type": "uint128"
						}
					],
					"name": "setValue",
					"outputs": [],
					"stateMutability": "nonpayable",
					"type": "function"
				},
				{
					"inputs": [
						{
							"internalType": "address",
							"name": "newOracleUpdaterAddress",
							"type": "address"
						}
					],
					"name": "updateOracleUpdaterAddress",
					"outputs": [],
					"stateMutability": "nonpayable",
					"type": "function"
				},
				{
					"inputs": [
						{
							"internalType": "string",
							"name": "",
							"type": "string"
						}
					],
					"name": "values",
					"outputs": [
						{
							"internalType": "uint256",
							"name": "",
							"type": "uint256"
						}
					],
					"stateMutability": "view",
					"type": "function"
				}
			],
			"devdoc": {
				"kind": "dev",
				"methods": {},
				"version": 1
			},
			"evm": {
				"assembly": "    /* \"contracts/contracts/DIAOracleV2.sol\":58:1166  contract DIAOracleV2 {... */\n  mstore(0x40, 0x80)\n    /* \"contracts/contracts/DIAOracleV2.sol\":291:355  constructor() public {... */\n  callvalue\n  dup1\n  iszero\n  tag_1\n  jumpi\n  0x00\n  dup1\n  revert\ntag_1:\n  pop\n    /* \"contracts/contracts/DIAOracleV2.sol\":322:335  oracleUpdater */\n  0x01\n    /* \"contracts/contracts/DIAOracleV2.sol\":322:348  oracleUpdater = msg.sender */\n  dup1\n  sload\n  not(sub(shl(0xa0, 0x01), 0x01))\n  and\n    /* \"contracts/contracts/DIAOracleV2.sol\":338:348  msg.sender */\n  caller\n    /* \"contracts/contracts/DIAOracleV2.sol\":322:348  oracleUpdater = msg.sender */\n  or\n  swap1\n  sstore\n    /* \"contracts/contracts/DIAOracleV2.sol\":58:1166  contract DIAOracleV2 {... */\n  dataSize(sub_0)\n  dup1\n  dataOffset(sub_0)\n  0x00\n  codecopy\n  0x00\n  return\nstop\n\nsub_0: assembly {\n        /* \"contracts/contracts/DIAOracleV2.sol\":58:1166  contract DIAOracleV2 {... */\n      mstore(0x40, 0x80)\n      callvalue\n      dup1\n      iszero\n      tag_1\n      jumpi\n      0x00\n      dup1\n      revert\n    tag_1:\n      pop\n      jumpi(tag_2, lt(calldatasize, 0x04))\n      shr(0xe0, calldataload(0x00))\n      dup1\n      0x5a9ade8b\n      eq\n      tag_3\n      jumpi\n      dup1\n      0x6aa45efc\n      eq\n      tag_4\n      jumpi\n      dup1\n      0x7898e0c2\n      eq\n      tag_5\n      jumpi\n      dup1\n      0x960384a0\n      eq\n      tag_6\n      jumpi\n    tag_2:\n      0x00\n      dup1\n      revert\n        /* \"contracts/contracts/DIAOracleV2.sol\":85:126  mapping (string => uint256) public values */\n    tag_3:\n      tag_7\n      0x04\n      dup1\n      calldatasize\n      sub\n      0x20\n      dup2\n      lt\n      iszero\n      tag_8\n      jumpi\n      0x00\n      dup1\n      revert\n    tag_8:\n      dup2\n      add\n      swap1\n      0x20\n      dup2\n      add\n      dup2\n      calldataload\n      0x0100000000\n      dup2\n      gt\n      iszero\n      tag_9\n      jumpi\n      0x00\n      dup1\n      revert\n    tag_9:\n      dup3\n      add\n      dup4\n      0x20\n      dup3\n      add\n      gt\n      iszero\n      tag_10\n      jumpi\n      0x00\n      dup1\n      revert\n    tag_10:\n      dup1\n      calldataload\n      swap1\n      0x20\n      add\n      swap2\n      dup5\n      0x01\n      dup4\n      mul\n      dup5\n      add\n      gt\n      0x0100000000\n      dup4\n      gt\n      or\n      iszero\n      tag_11\n      jumpi\n      0x00\n      dup1\n      revert\n    tag_11:\n      swap2\n      swap1\n      dup1\n      dup1\n      0x1f\n      add\n      0x20\n      dup1\n      swap2\n      div\n      mul\n      0x20\n      add\n      mload(0x40)\n      swap1\n      dup2\n      add\n      0x40\n      mstore\n      dup1\n      swap4\n      swap3\n      swap2\n      swap1\n      dup2\n      dup2\n      mstore\n      0x20\n      add\n      dup4\n      dup4\n      dup1\n      dup3\n      dup5\n      calldatacopy\n      0x00\n      swap3\n      add\n      swap2\n      swap1\n      swap2\n      mstore\n      pop\n      swap3\n      swap6\n      pop\n      tag_12\n      swap5\n      pop\n      pop\n      pop\n      pop\n      pop\n      jump\t// in\n    tag_7:\n      0x40\n      dup1\n      mload\n      swap2\n      dup3\n      mstore\n      mload\n      swap1\n      dup2\n      swap1\n      sub\n      0x20\n      add\n      swap1\n      return\n        /* \"contracts/contracts/DIAOracleV2.sol\":926:1164  function updateOracleUpdaterAddress(address newOracleUpdaterAddress) public {... */\n    tag_4:\n      tag_13\n      0x04\n      dup1\n      calldatasize\n      sub\n      0x20\n      dup2\n      lt\n      iszero\n      tag_14\n      jumpi\n      0x00\n      dup1\n      revert\n    tag_14:\n      pop\n      calldataload\n      sub(shl(0xa0, 0x01), 0x01)\n      and\n      tag_15\n      jump\t// in\n    tag_13:\n      stop\n        /* \"contracts/contracts/DIAOracleV2.sol\":365:642  function setValue(string memory key, uint128 value, uint128 timestamp) public {... */\n    tag_5:\n      tag_13\n      0x04\n      dup1\n      calldatasize\n      sub\n      0x60\n      dup2\n      lt\n      iszero\n      tag_17\n      jumpi\n      0x00\n      dup1\n      revert\n    tag_17:\n      dup2\n      add\n      swap1\n      0x20\n      dup2\n      add\n      dup2\n      calldataload\n      0x0100000000\n      dup2\n      gt\n      iszero\n      tag_18\n      jumpi\n      0x00\n      dup1\n      revert\n    tag_18:\n      dup3\n      add\n      dup4\n      0x20\n      dup3\n      add\n      gt\n      iszero\n      tag_19\n      jumpi\n      0x00\n      dup1\n      revert\n    tag_19:\n      dup1\n      calldataload\n      swap1\n      0x20\n      add\n      swap2\n      dup5\n      0x01\n      dup4\n      mul\n      dup5\n      add\n      gt\n      0x0100000000\n      dup4\n      gt\n      or\n      iszero\n      tag_20\n      jumpi\n      0x00\n      dup1\n      revert\n    tag_20:\n      swap2\n      swap1\n      dup1\n      dup1\n      0x1f\n      add\n      0x20\n      dup1\n      swap2\n      div\n      mul\n      0x20\n      add\n      mload(0x40)\n      swap1\n      dup2\n      add\n      0x40\n      mstore\n      dup1\n      swap4\n      swap3\n      swap2\n      swap1\n      dup2\n      dup2\n      mstore\n      0x20\n      add\n      dup4\n      dup4\n      dup1\n      dup3\n      dup5\n      calldatacopy\n      0x00\n      swap3\n      add\n      swap2\n      swap1\n      swap2\n      mstore\n      pop\n      swap3\n      swap6\n      pop\n      pop\n      sub(shl(0x80, 0x01), 0x01)\n      dup4\n      calldataload\n      dup2\n      and\n      swap5\n      pop\n      0x20\n      swap1\n      swap4\n      add\n      calldataload\n      swap1\n      swap3\n      and\n      swap2\n      pop\n      tag_21\n      swap1\n      pop\n      jump\t// in\n        /* \"contracts/contracts/DIAOracleV2.sol\":652:916  function getValue(string memory key) external view returns (uint128, uint128) {... */\n    tag_6:\n      tag_22\n      0x04\n      dup1\n      calldatasize\n      sub\n      0x20\n      dup2\n      lt\n      iszero\n      tag_23\n      jumpi\n      0x00\n      dup1\n      revert\n    tag_23:\n      dup2\n      add\n      swap1\n      0x20\n      dup2\n      add\n      dup2\n      calldataload\n      0x0100000000\n      dup2\n      gt\n      iszero\n      tag_24\n      jumpi\n      0x00\n      dup1\n      revert\n    tag_24:\n      dup3\n      add\n      dup4\n      0x20\n      dup3\n      add\n      gt\n      iszero\n      tag_25\n      jumpi\n      0x00\n      dup1\n      revert\n    tag_25:\n      dup1\n      calldataload\n      swap1\n      0x20\n      add\n      swap2\n      dup5\n      0x01\n      dup4\n      mul\n      dup5\n      add\n      gt\n      0x0100000000\n      dup4\n      gt\n      or\n      iszero\n      tag_26\n      jumpi\n      0x00\n      dup1\n      revert\n    tag_26:\n      swap2\n      swap1\n      dup1\n      dup1\n      0x1f\n      add\n      0x20\n      dup1\n      swap2\n      div\n      mul\n      0x20\n      add\n      mload(0x40)\n      swap1\n      dup2\n      add\n      0x40\n      mstore\n      dup1\n      swap4\n      swap3\n      swap2\n      swap1\n      dup2\n      dup2\n      mstore\n      0x20\n      add\n      dup4\n      dup4\n      dup1\n      dup3\n      dup5\n      calldatacopy\n      0x00\n      swap3\n      add\n      swap2\n      swap1\n      swap2\n      mstore\n      pop\n      swap3\n      swap6\n      pop\n      tag_27\n      swap5\n      pop\n      pop\n      pop\n      pop\n      pop\n      jump\t// in\n    tag_22:\n      0x40\n      dup1\n      mload\n      sub(shl(0x80, 0x01), 0x01)\n      swap4\n      dup5\n      and\n      dup2\n      mstore\n      swap2\n      swap1\n      swap3\n      and\n      0x20\n      dup3\n      add\n      mstore\n      dup2\n      mload\n      swap1\n      dup2\n      swap1\n      sub\n      swap1\n      swap2\n      add\n      swap1\n      return\n        /* \"contracts/contracts/DIAOracleV2.sol\":85:126  mapping (string => uint256) public values */\n    tag_12:\n      dup1\n      mload\n      0x20\n      dup2\n      dup4\n      add\n      dup2\n      add\n      dup1\n      mload\n      0x00\n      dup3\n      mstore\n      swap3\n      dup3\n      add\n      swap2\n      swap1\n      swap4\n      add\n      keccak256\n      swap2\n      mstore\n      sload\n      dup2\n      jump\t// out\n        /* \"contracts/contracts/DIAOracleV2.sol\":926:1164  function updateOracleUpdaterAddress(address newOracleUpdaterAddress) public {... */\n    tag_15:\n        /* \"contracts/contracts/DIAOracleV2.sol\":1034:1047  oracleUpdater */\n      and(sub(shl(0xa0, 0x01), 0x01), sload(0x01))\n        /* \"contracts/contracts/DIAOracleV2.sol\":1020:1030  msg.sender */\n      caller\n        /* \"contracts/contracts/DIAOracleV2.sol\":1020:1047  msg.sender == oracleUpdater */\n      eq\n        /* \"contracts/contracts/DIAOracleV2.sol\":1012:1048  require(msg.sender == oracleUpdater) */\n      tag_29\n      jumpi\n      0x00\n      dup1\n      revert\n    tag_29:\n        /* \"contracts/contracts/DIAOracleV2.sol\":1058:1071  oracleUpdater */\n      0x01\n        /* \"contracts/contracts/DIAOracleV2.sol\":1058:1097  oracleUpdater = newOracleUpdaterAddress */\n      dup1\n      sload\n      sub(shl(0xa0, 0x01), 0x01)\n      dup4\n      and\n      not(sub(shl(0xa0, 0x01), 0x01))\n      swap1\n      swap2\n      and\n      dup2\n      or\n      swap1\n      swap2\n      sstore\n        /* \"contracts/contracts/DIAOracleV2.sol\":1112:1157  UpdaterAddressChange(newOracleUpdaterAddress) */\n      0x40\n      dup1\n      mload\n      swap2\n      dup3\n      mstore\n      mload\n      0x121e958a4cadf7f8dadefa22cc019700365240223668418faebed197da07089f\n      swap2\n      dup2\n      swap1\n      sub\n      0x20\n      add\n      swap1\n      log1\n        /* \"contracts/contracts/DIAOracleV2.sol\":926:1164  function updateOracleUpdaterAddress(address newOracleUpdaterAddress) public {... */\n      pop\n      jump\t// out\n        /* \"contracts/contracts/DIAOracleV2.sol\":365:642  function setValue(string memory key, uint128 value, uint128 timestamp) public {... */\n    tag_21:\n        /* \"contracts/contracts/DIAOracleV2.sol\":475:488  oracleUpdater */\n      and(sub(shl(0xa0, 0x01), 0x01), sload(0x01))\n        /* \"contracts/contracts/DIAOracleV2.sol\":461:471  msg.sender */\n      caller\n        /* \"contracts/contracts/DIAOracleV2.sol\":461:488  msg.sender == oracleUpdater */\n      eq\n        /* \"contracts/contracts/DIAOracleV2.sol\":453:489  require(msg.sender == oracleUpdater) */\n      tag_31\n      jumpi\n      0x00\n      dup1\n      revert\n    tag_31:\n        /* \"contracts/contracts/DIAOracleV2.sol\":499:513  uint256 cValue */\n      0x00\n        /* \"contracts/contracts/DIAOracleV2.sol\":546:555  timestamp */\n      dup2\n      sub(shl(0x80, 0x01), 0x01)\n        /* \"contracts/contracts/DIAOracleV2.sol\":516:555  (((uint256)(value)) << 128) + timestamp */\n      and\n        /* \"contracts/contracts/DIAOracleV2.sol\":539:542  128 */\n      0x80\n        /* \"contracts/contracts/DIAOracleV2.sol\":528:533  value */\n      dup5\n      sub(shl(0x80, 0x01), 0x01)\n        /* \"contracts/contracts/DIAOracleV2.sol\":518:534  (uint256)(value) */\n      and\n        /* \"contracts/contracts/DIAOracleV2.sol\":517:542  ((uint256)(value)) << 128 */\n      swap1\n      shl\n        /* \"contracts/contracts/DIAOracleV2.sol\":516:555  (((uint256)(value)) << 128) + timestamp */\n      add\n        /* \"contracts/contracts/DIAOracleV2.sol\":499:555  uint256 cValue = (((uint256)(value)) << 128) + timestamp */\n      swap1\n      pop\n        /* \"contracts/contracts/DIAOracleV2.sol\":579:585  cValue */\n      dup1\n        /* \"contracts/contracts/DIAOracleV2.sol\":565:571  values */\n      0x00\n        /* \"contracts/contracts/DIAOracleV2.sol\":572:575  key */\n      dup6\n        /* \"contracts/contracts/DIAOracleV2.sol\":565:576  values[key] */\n      mload(0x40)\n      dup1\n      dup3\n      dup1\n      mload\n      swap1\n      0x20\n      add\n      swap1\n      dup1\n      dup4\n      dup4\n    tag_32:\n      0x20\n      dup4\n      lt\n      tag_34\n      jumpi\n      dup1\n      mload\n      dup3\n      mstore\n      not(0x1f)\n      swap1\n      swap3\n      add\n      swap2\n      0x20\n      swap2\n      dup3\n      add\n      swap2\n      add\n      jump(tag_32)\n    tag_34:\n      mload\n      dup2\n      mload\n      0x20\n      swap4\n      dup5\n      sub\n      0x0100\n      exp\n      not(0x00)\n      add\n      dup1\n      not\n      swap1\n      swap3\n      and\n      swap2\n      and\n      or\n      swap1\n      mstore\n      swap3\n      add\n      swap5\n      dup6\n      mstore\n      pop\n      0x40\n      dup1\n      mload\n      swap5\n      dup6\n      swap1\n      sub\n      dup3\n      add\n      dup6\n      keccak256\n        /* \"contracts/contracts/DIAOracleV2.sol\":565:585  values[key] = cValue */\n      swap6\n      swap1\n      swap6\n      sstore\n      sub(shl(0x80, 0x01), 0x01)\n        /* \"contracts/contracts/DIAOracleV2.sol\":600:635  OracleUpdate(key, value, timestamp) */\n      dup9\n      dup2\n      and\n      dup6\n      dup4\n      add\n      mstore\n      dup8\n      and\n      swap5\n      dup5\n      add\n      swap5\n      swap1\n      swap5\n      mstore\n      pop\n      pop\n      0x60\n      dup1\n      dup3\n      mstore\n      dup7\n      mload\n      swap1\n      dup3\n      add\n      mstore\n      dup6\n      mload\n      0xa7fc99ed7617309ee23f63ae90196a1e490d362e6f6a547a59bc809ee2291782\n      swap3\n      dup8\n      swap3\n      dup8\n      swap3\n      dup8\n      swap3\n        /* \"contracts/contracts/DIAOracleV2.sol\":565:576  values[key] */\n      dup3\n      swap2\n        /* \"contracts/contracts/DIAOracleV2.sol\":600:635  OracleUpdate(key, value, timestamp) */\n      0x80\n      dup4\n      add\n      swap2\n      dup8\n      add\n      swap1\n      dup1\n      dup4\n      dup4\n      0x00\n    tag_35:\n      dup4\n      dup2\n      lt\n      iszero\n      tag_37\n      jumpi\n      dup2\n      dup2\n      add\n      mload\n      dup4\n      dup3\n      add\n      mstore\n      0x20\n      add\n      jump(tag_35)\n    tag_37:\n      pop\n      pop\n      pop\n      pop\n      swap1\n      pop\n      swap1\n      dup2\n      add\n      swap1\n      0x1f\n      and\n      dup1\n      iszero\n      tag_38\n      jumpi\n      dup1\n      dup3\n      sub\n      dup1\n      mload\n      0x01\n      dup4\n      0x20\n      sub\n      0x0100\n      exp\n      sub\n      not\n      and\n      dup2\n      mstore\n      0x20\n      add\n      swap2\n      pop\n    tag_38:\n      pop\n      swap5\n      pop\n      pop\n      pop\n      pop\n      pop\n      mload(0x40)\n      dup1\n      swap2\n      sub\n      swap1\n      log1\n        /* \"contracts/contracts/DIAOracleV2.sol\":365:642  function setValue(string memory key, uint128 value, uint128 timestamp) public {... */\n      pop\n      pop\n      pop\n      pop\n      jump\t// out\n        /* \"contracts/contracts/DIAOracleV2.sol\":652:916  function getValue(string memory key) external view returns (uint128, uint128) {... */\n    tag_27:\n        /* \"contracts/contracts/DIAOracleV2.sol\":712:719  uint128 */\n      0x00\n        /* \"contracts/contracts/DIAOracleV2.sol\":721:728  uint128 */\n      dup1\n        /* \"contracts/contracts/DIAOracleV2.sol\":740:754  uint256 cValue */\n      0x00\n        /* \"contracts/contracts/DIAOracleV2.sol\":757:763  values */\n      dup1\n        /* \"contracts/contracts/DIAOracleV2.sol\":764:767  key */\n      dup5\n        /* \"contracts/contracts/DIAOracleV2.sol\":757:768  values[key] */\n      mload(0x40)\n      dup1\n      dup3\n      dup1\n      mload\n      swap1\n      0x20\n      add\n      swap1\n      dup1\n      dup4\n      dup4\n    tag_40:\n      0x20\n      dup4\n      lt\n      tag_42\n      jumpi\n      dup1\n      mload\n      dup3\n      mstore\n      not(0x1f)\n      swap1\n      swap3\n      add\n      swap2\n      0x20\n      swap2\n      dup3\n      add\n      swap2\n      add\n      jump(tag_40)\n    tag_42:\n      mload\n      dup2\n      mload\n      0x20\n      swap4\n      dup5\n      sub\n      0x0100\n      exp\n      not(0x00)\n      add\n      dup1\n      not\n      swap1\n      swap3\n      and\n      swap2\n      and\n      or\n      swap1\n      mstore\n      swap3\n      add\n      swap5\n      dup6\n      mstore\n      pop\n      mload(0x40)\n      swap4\n      dup5\n      swap1\n      sub\n      add\n      swap1\n      swap3\n      keccak256\n      sload\n        /* \"contracts/contracts/DIAOracleV2.sol\":870:873  128 */\n      0x80\n        /* \"contracts/contracts/DIAOracleV2.sol\":860:873  cValue >> 128 */\n      dup2\n      swap1\n      shr\n      swap8\n      sub(shl(0x80, 0x01), 0x01)\n        /* \"contracts/contracts/DIAOracleV2.sol\":808:823  cValue % 2**128 */\n      swap1\n      swap2\n      and\n      swap7\n      pop\n        /* \"contracts/contracts/DIAOracleV2.sol\":860:873  cValue >> 128 */\n      swap5\n      pop\n      pop\n      pop\n      pop\n      pop\n        /* \"contracts/contracts/DIAOracleV2.sol\":652:916  function getValue(string memory key) external view returns (uint128, uint128) {... */\n      jump\t// out\n\n    auxdata: 0xa264697066735822122055f5f00084b4f69f80a2972f2a2bb3d72be40555b19ba0b038015b07346a6eba64736f6c634300060b0033\n}\n",
				"bytecode": {
					"linkReferences": {},
					"object": "608060405234801561001057600080fd5b50600180546001600160a01b03191633179055610544806100326000396000f3fe608060405234801561001057600080fd5b506004361061004c5760003560e01c80635a9ade8b146100515780636aa45efc146101095780637898e0c214610131578063960384a0146101ed575b600080fd5b6100f76004803603602081101561006757600080fd5b81019060208101813564010000000081111561008257600080fd5b82018360208201111561009457600080fd5b803590602001918460018302840111640100000000831117156100b657600080fd5b91908080601f0160208091040260200160405190810160405280939291908181526020018383808284376000920191909152509295506102b9945050505050565b60408051918252519081900360200190f35b61012f6004803603602081101561011f57600080fd5b50356001600160a01b03166102d6565b005b61012f6004803603606081101561014757600080fd5b81019060208101813564010000000081111561016257600080fd5b82018360208201111561017457600080fd5b8035906020019184600183028401116401000000008311171561019657600080fd5b91908080601f016020809104026020016040519081016040528093929190818152602001838380828437600092019190915250929550506001600160801b0383358116945060209093013590921691506103419050565b6102936004803603602081101561020357600080fd5b81019060208101813564010000000081111561021e57600080fd5b82018360208201111561023057600080fd5b8035906020019184600183028401116401000000008311171561025257600080fd5b91908080601f016020809104026020016040519081016040528093929190818152602001838380828437600092019190915250929550610491945050505050565b604080516001600160801b03938416815291909216602082015281519081900390910190f35b805160208183018101805160008252928201919093012091525481565b6001546001600160a01b031633146102ed57600080fd5b600180546001600160a01b0383166001600160a01b0319909116811790915560408051918252517f121e958a4cadf7f8dadefa22cc019700365240223668418faebed197da07089f9181900360200190a150565b6001546001600160a01b0316331461035857600080fd5b6000816001600160801b03166080846001600160801b0316901b019050806000856040518082805190602001908083835b602083106103a85780518252601f199092019160209182019101610389565b51815160209384036101000a6000190180199092169116179052920194855250604080519485900382018520959095556001600160801b03888116858301528716948401949094525050606080825286519082015285517fa7fc99ed7617309ee23f63ae90196a1e490d362e6f6a547a59bc809ee2291782928792879287928291608083019187019080838360005b8381101561044f578181015183820152602001610437565b50505050905090810190601f16801561047c5780820380516001836020036101000a031916815260200191505b5094505050505060405180910390a150505050565b600080600080846040518082805190602001908083835b602083106104c75780518252601f1990920191602091820191016104a8565b51815160209384036101000a6000190180199092169116179052920194855250604051938490030190922054608081901c976001600160801b03909116965094505050505056fea264697066735822122055f5f00084b4f69f80a2972f2a2bb3d72be40555b19ba0b038015b07346a6eba64736f6c634300060b0033",
					"opcodes": "PUSH1 0x80 PUSH1 0x40 MSTORE CALLVALUE DUP1 ISZERO PUSH2 0x10 JUMPI PUSH1 0x0 DUP1 REVERT JUMPDEST POP PUSH1 0x1 DUP1 SLOAD PUSH1 0x1 PUSH1 0x1 PUSH1 0xA0 SHL SUB NOT AND CALLER OR SWAP1 SSTORE PUSH2 0x544 DUP1 PUSH2 0x32 PUSH1 0x0 CODECOPY PUSH1 0x0 RETURN INVALID PUSH1 0x80 PUSH1 0x40 MSTORE CALLVALUE DUP1 ISZERO PUSH2 0x10 JUMPI PUSH1 0x0 DUP1 REVERT JUMPDEST POP PUSH1 0x4 CALLDATASIZE LT PUSH2 0x4C JUMPI PUSH1 0x0 CALLDATALOAD PUSH1 0xE0 SHR DUP1 PUSH4 0x5A9ADE8B EQ PUSH2 0x51 JUMPI DUP1 PUSH4 0x6AA45EFC EQ PUSH2 0x109 JUMPI DUP1 PUSH4 0x7898E0C2 EQ PUSH2 0x131 JUMPI DUP1 PUSH4 0x960384A0 EQ PUSH2 0x1ED JUMPI JUMPDEST PUSH1 0x0 DUP1 REVERT JUMPDEST PUSH2 0xF7 PUSH1 0x4 DUP1 CALLDATASIZE SUB PUSH1 0x20 DUP2 LT ISZERO PUSH2 0x67 JUMPI PUSH1 0x0 DUP1 REVERT JUMPDEST DUP2 ADD SWAP1 PUSH1 0x20 DUP2 ADD DUP2 CALLDATALOAD PUSH5 0x100000000 DUP2 GT ISZERO PUSH2 0x82 JUMPI PUSH1 0x0 DUP1 REVERT JUMPDEST DUP3 ADD DUP4 PUSH1 0x20 DUP3 ADD GT ISZERO PUSH2 0x94 JUMPI PUSH1 0x0 DUP1 REVERT JUMPDEST DUP1 CALLDATALOAD SWAP1 PUSH1 0x20 ADD SWAP2 DUP5 PUSH1 0x1 DUP4 MUL DUP5 ADD GT PUSH5 0x100000000 DUP4 GT OR ISZERO PUSH2 0xB6 JUMPI PUSH1 0x0 DUP1 REVERT JUMPDEST SWAP2 SWAP1 DUP1 DUP1 PUSH1 0x1F ADD PUSH1 0x20 DUP1 SWAP2 DIV MUL PUSH1 0x20 ADD PUSH1 0x40 MLOAD SWAP1 DUP2 ADD PUSH1 0x40 MSTORE DUP1 SWAP4 SWAP3 SWAP2 SWAP1 DUP2 DUP2 MSTORE PUSH1 0x20 ADD DUP4 DUP4 DUP1 DUP3 DUP5 CALLDATACOPY PUSH1 0x0 SWAP3 ADD SWAP2 SWAP1 SWAP2 MSTORE POP SWAP3 SWAP6 POP PUSH2 0x2B9 SWAP5 POP POP POP POP POP JUMP JUMPDEST PUSH1 0x40 DUP1 MLOAD SWAP2 DUP3 MSTORE MLOAD SWAP1 DUP2 SWAP1 SUB PUSH1 0x20 ADD SWAP1 RETURN JUMPDEST PUSH2 0x12F PUSH1 0x4 DUP1 CALLDATASIZE SUB PUSH1 0x20 DUP2 LT ISZERO PUSH2 0x11F JUMPI PUSH1 0x0 DUP1 REVERT JUMPDEST POP CALLDATALOAD PUSH1 0x1 PUSH1 0x1 PUSH1 0xA0 SHL SUB AND PUSH2 0x2D6 JUMP JUMPDEST STOP JUMPDEST PUSH2 0x12F PUSH1 0x4 DUP1 CALLDATASIZE SUB PUSH1 0x60 DUP2 LT ISZERO PUSH2 0x147 JUMPI PUSH1 0x0 DUP1 REVERT JUMPDEST DUP2 ADD SWAP1 PUSH1 0x20 DUP2 ADD DUP2 CALLDATALOAD PUSH5 0x100000000 DUP2 GT ISZERO PUSH2 0x162 JUMPI PUSH1 0x0 DUP1 REVERT JUMPDEST DUP3 ADD DUP4 PUSH1 0x20 DUP3 ADD GT ISZERO PUSH2 0x174 JUMPI PUSH1 0x0 DUP1 REVERT JUMPDEST DUP1 CALLDATALOAD SWAP1 PUSH1 0x20 ADD SWAP2 DUP5 PUSH1 0x1 DUP4 MUL DUP5 ADD GT PUSH5 0x100000000 DUP4 GT OR ISZERO PUSH2 0x196 JUMPI PUSH1 0x0 DUP1 REVERT JUMPDEST SWAP2 SWAP1 DUP1 DUP1 PUSH1 0x1F ADD PUSH1 0x20 DUP1 SWAP2 DIV MUL PUSH1 0x20 ADD PUSH1 0x40 MLOAD SWAP1 DUP2 ADD PUSH1 0x40 MSTORE DUP1 SWAP4 SWAP3 SWAP2 SWAP1 DUP2 DUP2 MSTORE PUSH1 0x20 ADD DUP4 DUP4 DUP1 DUP3 DUP5 CALLDATACOPY PUSH1 0x0 SWAP3 ADD SWAP2 SWAP1 SWAP2 MSTORE POP SWAP3 SWAP6 POP POP PUSH1 0x1 PUSH1 0x1 PUSH1 0x80 SHL SUB DUP4 CALLDATALOAD DUP2 AND SWAP5 POP PUSH1 0x20 SWAP1 SWAP4 ADD CALLDATALOAD SWAP1 SWAP3 AND SWAP2 POP PUSH2 0x341 SWAP1 POP JUMP JUMPDEST PUSH2 0x293 PUSH1 0x4 DUP1 CALLDATASIZE SUB PUSH1 0x20 DUP2 LT ISZERO PUSH2 0x203 JUMPI PUSH1 0x0 DUP1 REVERT JUMPDEST DUP2 ADD SWAP1 PUSH1 0x20 DUP2 ADD DUP2 CALLDATALOAD PUSH5 0x100000000 DUP2 GT ISZERO PUSH2 0x21E JUMPI PUSH1 0x0 DUP1 REVERT JUMPDEST DUP3 ADD DUP4 PUSH1 0x20 DUP3 ADD GT ISZERO PUSH2 0x230 JUMPI PUSH1 0x0 DUP1 REVERT JUMPDEST DUP1 CALLDATALOAD SWAP1 PUSH1 0x20 ADD SWAP2 DUP5 PUSH1 0x1 DUP4 MUL DUP5 ADD GT PUSH5 0x100000000 DUP4 GT OR ISZERO PUSH2 0x252 JUMPI PUSH1 0x0 DUP1 REVERT JUMPDEST SWAP2 SWAP1 DUP1 DUP1 PUSH1 0x1F ADD PUSH1 0x20 DUP1 SWAP2 DIV MUL PUSH1 0x20 ADD PUSH1 0x40 MLOAD SWAP1 DUP2 ADD PUSH1 0x40 MSTORE DUP1 SWAP4 SWAP3 SWAP2 SWAP1 DUP2 DUP2 MSTORE PUSH1 0x20 ADD DUP4 DUP4 DUP1 DUP3 DUP5 CALLDATACOPY PUSH1 0x0 SWAP3 ADD SWAP2 SWAP1 SWAP2 MSTORE POP SWAP3 SWAP6 POP PUSH2 0x491 SWAP5 POP POP POP POP POP JUMP JUMPDEST PUSH1 0x40 DUP1 MLOAD PUSH1 0x1 PUSH1 0x1 PUSH1 0x80 SHL SUB SWAP4 DUP5 AND DUP2 MSTORE SWAP2 SWAP1 SWAP3 AND PUSH1 0x20 DUP3 ADD MSTORE DUP2 MLOAD SWAP1 DUP2 SWAP1 SUB SWAP1 SWAP2 ADD SWAP1 RETURN JUMPDEST DUP1 MLOAD PUSH1 0x20 DUP2 DUP4 ADD DUP2 ADD DUP1 MLOAD PUSH1 0x0 DUP3 MSTORE SWAP3 DUP3 ADD SWAP2 SWAP1 SWAP4 ADD KECCAK256 SWAP2 MSTORE SLOAD DUP2 JUMP JUMPDEST PUSH1 0x1 SLOAD PUSH1 0x1 PUSH1 0x1 PUSH1 0xA0 SHL SUB AND CALLER EQ PUSH2 0x2ED JUMPI PUSH1 0x0 DUP1 REVERT JUMPDEST PUSH1 0x1 DUP1 SLOAD PUSH1 0x1 PUSH1 0x1 PUSH1 0xA0 SHL SUB DUP4 AND PUSH1 0x1 PUSH1 0x1 PUSH1 0xA0 SHL SUB NOT SWAP1 SWAP2 AND DUP2 OR SWAP1 SWAP2 SSTORE PUSH1 0x40 DUP1 MLOAD SWAP2 DUP3 MSTORE MLOAD PUSH32 0x121E958A4CADF7F8DADEFA22CC019700365240223668418FAEBED197DA07089F SWAP2 DUP2 SWAP1 SUB PUSH1 0x20 ADD SWAP1 LOG1 POP JUMP JUMPDEST PUSH1 0x1 SLOAD PUSH1 0x1 PUSH1 0x1 PUSH1 0xA0 SHL SUB AND CALLER EQ PUSH2 0x358 JUMPI PUSH1 0x0 DUP1 REVERT JUMPDEST PUSH1 0x0 DUP2 PUSH1 0x1 PUSH1 0x1 PUSH1 0x80 SHL SUB AND PUSH1 0x80 DUP5 PUSH1 0x1 PUSH1 0x1 PUSH1 0x80 SHL SUB AND SWAP1 SHL ADD SWAP1 POP DUP1 PUSH1 0x0 DUP6 PUSH1 0x40 MLOAD DUP1 DUP3 DUP1 MLOAD SWAP1 PUSH1 0x20 ADD SWAP1 DUP1 DUP4 DUP4 JUMPDEST PUSH1 0x20 DUP4 LT PUSH2 0x3A8 JUMPI DUP1 MLOAD DUP3 MSTORE PUSH1 0x1F NOT SWAP1 SWAP3 ADD SWAP2 PUSH1 0x20 SWAP2 DUP3 ADD SWAP2 ADD PUSH2 0x389 JUMP JUMPDEST MLOAD DUP2 MLOAD PUSH1 0x20 SWAP4 DUP5 SUB PUSH2 0x100 EXP PUSH1 0x0 NOT ADD DUP1 NOT SWAP1 SWAP3 AND SWAP2 AND OR SWAP1 MSTORE SWAP3 ADD SWAP5 DUP6 MSTORE POP PUSH1 0x40 DUP1 MLOAD SWAP5 DUP6 SWAP1 SUB DUP3 ADD DUP6 KECCAK256 SWAP6 SWAP1 SWAP6 SSTORE PUSH1 0x1 PUSH1 0x1 PUSH1 0x80 SHL SUB DUP9 DUP2 AND DUP6 DUP4 ADD MSTORE DUP8 AND SWAP5 DUP5 ADD SWAP5 SWAP1 SWAP5 MSTORE POP POP PUSH1 0x60 DUP1 DUP3 MSTORE DUP7 MLOAD SWAP1 DUP3 ADD MSTORE DUP6 MLOAD PUSH32 0xA7FC99ED7617309EE23F63AE90196A1E490D362E6F6A547A59BC809EE2291782 SWAP3 DUP8 SWAP3 DUP8 SWAP3 DUP8 SWAP3 DUP3 SWAP2 PUSH1 0x80 DUP4 ADD SWAP2 DUP8 ADD SWAP1 DUP1 DUP4 DUP4 PUSH1 0x0 JUMPDEST DUP4 DUP2 LT ISZERO PUSH2 0x44F JUMPI DUP2 DUP2 ADD MLOAD DUP4 DUP3 ADD MSTORE PUSH1 0x20 ADD PUSH2 0x437 JUMP JUMPDEST POP POP POP POP SWAP1 POP SWAP1 DUP2 ADD SWAP1 PUSH1 0x1F AND DUP1 ISZERO PUSH2 0x47C JUMPI DUP1 DUP3 SUB DUP1 MLOAD PUSH1 0x1 DUP4 PUSH1 0x20 SUB PUSH2 0x100 EXP SUB NOT AND DUP2 MSTORE PUSH1 0x20 ADD SWAP2 POP JUMPDEST POP SWAP5 POP POP POP POP POP PUSH1 0x40 MLOAD DUP1 SWAP2 SUB SWAP1 LOG1 POP POP POP POP JUMP JUMPDEST PUSH1 0x0 DUP1 PUSH1 0x0 DUP1 DUP5 PUSH1 0x40 MLOAD DUP1 DUP3 DUP1 MLOAD SWAP1 PUSH1 0x20 ADD SWAP1 DUP1 DUP4 DUP4 JUMPDEST PUSH1 0x20 DUP4 LT PUSH2 0x4C7 JUMPI DUP1 MLOAD DUP3 MSTORE PUSH1 0x1F NOT SWAP1 SWAP3 ADD SWAP2 PUSH1 0x20 SWAP2 DUP3 ADD SWAP2 ADD PUSH2 0x4A8 JUMP JUMPDEST MLOAD DUP2 MLOAD PUSH1 0x20 SWAP4 DUP5 SUB PUSH2 0x100 EXP PUSH1 0x0 NOT ADD DUP1 NOT SWAP1 SWAP3 AND SWAP2 AND OR SWAP1 MSTORE SWAP3 ADD SWAP5 DUP6 MSTORE POP PUSH1 0x40 MLOAD SWAP4 DUP5 SWAP1 SUB ADD SWAP1 SWAP3 KECCAK256 SLOAD PUSH1 0x80 DUP2 SWAP1 SHR SWAP8 PUSH1 0x1 PUSH1 0x1 PUSH1 0x80 SHL SUB SWAP1 SWAP2 AND SWAP7 POP SWAP5 POP POP POP POP POP JUMP INVALID LOG2 PUSH5 0x6970667358 0x22 SLT KECCAK256 SSTORE CREATE2 CREATE STOP DUP5 0xB4 0xF6 SWAP16 DUP1 LOG2 SWAP8 0x2F 0x2A 0x2B 0xB3 0xD7 0x2B 0xE4 SDIV SSTORE 0xB1 SWAP12 LOG0 0xB0 CODESIZE ADD JUMPDEST SMOD CALLVALUE PUSH11 0x6EBA64736F6C634300060B STOP CALLER "
				},
				"gasEstimates": {
					"creation": {
						"codeDepositCost": "269600",
						"executionCost": "21147",
						"totalCost": "290747"
					},
					"external": {
						"getValue(string)": "infinite",
						"setValue(string,uint128,uint128)": "infinite",
						"updateOracleUpdaterAddress(address)": "22969",
						"values(string)": "infinite"
					}
				},
				"methodIdentifiers": {
					"getValue(string)": "960384a0",
					"setValue(string,uint128,uint128)": "7898e0c2",
					"updateOracleUpdaterAddress(address)": "6aa45efc",
					"values(string)": "5a9ade8b"
				}
			},
			"storageLayout": {
				"storage": [
					{
						"astId": 5,
						"contract": "contracts/contracts/DIAOracleV2.sol:DIAOracleV2",
						"label": "values",
						"offset": 0,
						"slot": "0",
						"type": "t_mapping(t_string_memory_ptr,t_uint256)"
					},
					{
						"astId": 7,
						"contract": "contracts/contracts/DIAOracleV2.sol:DIAOracleV2",
						"label": "oracleUpdater",
						"offset": 0,
						"slot": "1",
						"type": "t_address"
					}
				],
				"types": {
					"t_address": {
						"encoding": "inplace",
						"label": "address",
						"numberOfBytes": "20"
					},
					"t_mapping(t_string_memory_ptr,t_uint256)": {
						"encoding": "mapping",
						"key": "t_string_memory_ptr",
						"label": "mapping(string => uint256)",
						"numberOfBytes": "32",
						"value": "t_uint256"
					},
					"t_string_memory_ptr": {
						"encoding": "bytes",
						"label": "string",
						"numberOfBytes": "32"
					},
					"t_uint256": {
						"encoding": "inplace",
						"label": "uint256",
						"numberOfBytes": "32"
					}
				}
			},
			"userdoc": {
				"kind": "user",
				"methods": {},
				"version": 1
			}
		}
	}
}