{
	"contracts/contracts/PriceFeed.sol": {
		"PriceFeed": {
			"abi": [
				{
					"inputs": [
						{
							"internalType": "address",
							"name": "DIAOracleAddress",
							"type": "address"
						},
						{
							"internalType": "address",
							"name": "fallbackOracle",
							"type": "address"
						},
						{
							"internalType": "address",
							"name": "baseCurrency",
							"type": "address"
						},
						{
							"internalType": "uint256",
							"name": "baseCurrencyUnit",
							"type": "uint256"
						},
						{
							"internalType": "uint256",
							"name": "priceAgeLimit",
							"type": "uint256"
						}
					],
					"stateMutability": "nonpayable",
					"type": "constructor"
				},
				{
					"anonymous": false,
					"inputs": [
						{
							"indexed": true,
							"internalType": "address",
							"name": "asset",
							"type": "address"
						},
						{
							"indexed": true,
							"internalType": "string",
							"name": "key",
							"type": "string"
						}
					],
					"name": "AssetKeyUpdated",
					"type": "event"
				},
				{
					"anonymous": false,
					"inputs": [
						{
							"indexed": true,
							"internalType": "address",
							"name": "baseCurrency",
							"type": "address"
						},
						{
							"indexed": false,
							"internalType": "uint256",
							"name": "baseCurrencyUnit",
							"type": "uint256"
						}
					],
					"name": "BaseCurrencySet",
					"type": "event"
				},
				{
					"anonymous": false,
					"inputs": [
						{
							"indexed": true,
							"internalType": "address",
							"name": "diaOracleAddress",
							"type": "address"
						}
					],
					"name": "DIAOracleUpdated",
					"type": "event"
				},
				{
					"anonymous": false,
					"inputs": [
						{
							"indexed": false,
							"internalType": "address",
							"name": "asset",
							"type": "address"
						}
					],
					"name": "EthAddressUpdated",
					"type": "event"
				},
				{
					"anonymous": false,
					"inputs": [
						{
							"indexed": true,
							"internalType": "address",
							"name": "fallbackOracle",
							"type": "address"
						}
					],
					"name": "FallbackOracleUpdated",
					"type": "event"
				},
				{
					"anonymous": false,
					"inputs": [
						{
							"indexed": true,
							"internalType": "address",
							"name": "previousOwner",
							"type": "address"
						},
						{
							"indexed": true,
							"internalType": "address",
							"name": "newOwner",
							"type": "address"
						}
					],
					"name": "OwnershipTransferred",
					"type": "event"
				},
				{
					"inputs": [],
					"name": "BASE_CURRENCY",
					"outputs": [
						{
							"internalType": "address",
							"name": "",
							"type": "address"
						}
					],
					"stateMutability": "view",
					"type": "function"
				},
				{
					"inputs": [],
					"name": "BASE_CURRENCY_UNIT",
					"outputs": [
						{
							"internalType": "uint256",
							"name": "",
							"type": "uint256"
						}
					],
					"stateMutability": "view",
					"type": "function"
				},
				{
					"inputs": [],
					"name": "CONVERSION_FACTOR",
					"outputs": [
						{
							"internalType": "uint256",
							"name": "",
							"type": "uint256"
						}
					],
					"stateMutability": "view",
					"type": "function"
				},
				{
					"inputs": [],
					"name": "fetchPrice",
					"outputs": [
						{
							"internalType": "uint256",
							"name": "",
							"type": "uint256"
						}
					],
					"stateMutability": "view",
					"type": "function"
				},
				{
					"inputs": [],
					"name": "getFallbackOracle",
					"outputs": [
						{
							"internalType": "address",
							"name": "",
							"type": "address"
						}
					],
					"stateMutability": "view",
					"type": "function"
				},
				{
					"inputs": [],
					"name": "getMasterOracle",
					"outputs": [
						{
							"internalType": "address",
							"name": "",
							"type": "address"
						}
					],
					"stateMutability": "view",
					"type": "function"
				},
				{
					"inputs": [],
					"name": "getMaxPriceAgeLimit",
					"outputs": [
						{
							"internalType": "uint256",
							"name": "",
							"type": "uint256"
						}
					],
					"stateMutability": "view",
					"type": "function"
				},
				{
					"inputs": [
						{
							"internalType": "address",
							"name": "asset",
							"type": "address"
						}
					],
					"name": "getSourceOfAsset",
					"outputs": [
						{
							"internalType": "string",
							"name": "",
							"type": "string"
						}
					],
					"stateMutability": "view",
					"type": "function"
				},
				{
					"inputs": [],
					"name": "isOwner",
					"outputs": [
						{
							"internalType": "bool",
							"name": "",
							"type": "bool"
						}
					],
					"stateMutability": "view",
					"type": "function"
				},
				{
					"inputs": [],
					"name": "owner",
					"outputs": [
						{
							"internalType": "address",
							"name": "",
							"type": "address"
						}
					],
					"stateMutability": "view",
					"type": "function"
				},
				{
					"inputs": [
						{
							"internalType": "address",
							"name": "asset",
							"type": "address"
						},
						{
							"internalType": "string",
							"name": "key",
							"type": "string"
						}
					],
					"name": "setAssetKey",
					"outputs": [],
					"stateMutability": "nonpayable",
					"type": "function"
				},
				{
					"inputs": [
						{
							"internalType": "address",
							"name": "diaOracleAddress",
							"type": "address"
						}
					],
					"name": "setDIAOracle",
					"outputs": [],
					"stateMutability": "nonpayable",
					"type": "function"
				},
				{
					"inputs": [
						{
							"internalType": "address",
							"name": "fallbackOracle",
							"type": "address"
						}
					],
					"name": "setFallbackOracle",
					"outputs": [],
					"stateMutability": "nonpayable",
					"type": "function"
				},
				{
					"inputs": [
						{
							"internalType": "uint256",
							"name": "AgeLimit",
							"type": "uint256"
						}
					],
					"name": "setMaxPriceAgeLimit",
					"outputs": [],
					"stateMutability": "nonpayable",
					"type": "function"
				},
				{
					"inputs": [
						{
							"internalType": "address",
							"name": "asset",
							"type": "address"
						}
					],
					"name": "setwEthAddress",
					"outputs": [],
					"stateMutability": "nonpayable",
					"type": "function"
				}
			],
			"devdoc": {
				"author": "Meridian Finance",
				"kind": "dev",
				"methods": {
					"constructor": {
						"params": {
							"DIAOracleAddress": "The address of the master oracle to use",
							"baseCurrency": "the base currency used for the price quotes. If USD is used, base currency is 0x0",
							"baseCurrencyUnit": "the unit of the base currency",
							"fallbackOracle": "The address of the fallback oracle to use if the data of an aggregator is not consistent",
							"priceAgeLimit": "the max permitted age of oracle price before call is forwarded to fallback oracle"
						}
					},
					"getFallbackOracle()": {
						"returns": {
							"_0": "address The addres of the fallback oracle"
						}
					},
					"getMasterOracle()": {
						"returns": {
							"_0": "address The addres of the DIA oracle"
						}
					},
					"getMaxPriceAgeLimit()": {
						"returns": {
							"_0": "the max age in seconds"
						}
					},
					"getSourceOfAsset(address)": {
						"returns": {
							"_0": "The DIA key string"
						}
					},
					"isOwner()": {
						"details": "Returns true if the caller is the current owner."
					},
					"owner()": {
						"details": "Returns the address of the current owner."
					},
					"setAssetKey(address,string)": {
						"params": {
							"asset": "The address of the asset to be set",
							"key": "The DIA keys/symbol of the source of each asset"
						}
					},
					"setDIAOracle(address)": {
						"params": {
							"diaOracleAddress": "The address of the MasterOracle"
						}
					},
					"setFallbackOracle(address)": {
						"params": {
							"fallbackOracle": "The address of the fallbackOracle"
						}
					},
					"setMaxPriceAgeLimit(uint256)": {
						"params": {
							"AgeLimit": "max age in seconds of latest price"
						}
					}
				},
				"title": "PriceFeed",
				"version": 1
			},
			"evm": {
				"assembly": "    /* \"contracts/contracts/PriceFeed.sol\":704:5796  contract PriceFeed is Ownable {... */\n  mstore(0x40, 0xe0)\n    /* \"contracts/contracts/PriceFeed.sol\":1341:1352  10000000000 */\n  0x02540be400\n    /* \"contracts/contracts/PriceFeed.sol\":1296:1352  uint256 public immutable CONVERSION_FACTOR = 10000000000 */\n  0xc0\n  mstore\n    /* \"contracts/contracts/PriceFeed.sol\":1906:2325  constructor(... */\n  callvalue\n  dup1\n  iszero\n  tag_1\n  jumpi\n  0x00\n  dup1\n  revert\ntag_1:\n  pop\n  mload(0x40)\n  sub(codesize, bytecodeSize)\n  dup1\n  bytecodeSize\n  dup4\n  codecopy\n  dup2\n  dup2\n  add\n  0x40\n  mstore\n  0xa0\n  dup2\n  lt\n  iszero\n  tag_2\n  jumpi\n  0x00\n  dup1\n  revert\ntag_2:\n  pop\n  dup1\n  mload\n  0x20\n  dup3\n  add\n  mload\n  0x40\n  dup1\n  dup5\n  add\n  mload\n  0x60\n  dup6\n  add\n  mload\n  0x80\n  swap1\n  swap6\n  add\n  mload\n    /* \"contracts/contracts/Dependencies/Ownable.sol\":838:844  _owner */\n  0x00\n    /* \"contracts/contracts/Dependencies/Ownable.sol\":838:857  _owner = msg.sender */\n  dup1\n  sload\n  not(sub(shl(0xa0, 0x01), 0x01))\n  and\n    /* \"contracts/contracts/Dependencies/Ownable.sol\":847:857  msg.sender */\n  caller\n    /* \"contracts/contracts/Dependencies/Ownable.sol\":838:857  _owner = msg.sender */\n  swap1\n  dup2\n  or\n  dup3\n  sstore\n    /* \"contracts/contracts/Dependencies/Ownable.sol\":872:916  OwnershipTransferred(address(0), msg.sender) */\n  swap4\n  mload\n    /* \"contracts/contracts/PriceFeed.sol\":1906:2325  constructor(... */\n  swap6\n  swap7\n  swap5\n  swap6\n  swap3\n  swap5\n  swap4\n  swap2\n  swap3\n    /* \"contracts/contracts/Dependencies/Ownable.sol\":872:916  OwnershipTransferred(address(0), msg.sender) */\n  0x8be0079c531659141344cd1fd0a4f28419497f9722a3daafe3b4186f6b6457e0\n  swap1\n    /* \"contracts/contracts/Dependencies/Ownable.sol\":838:844  _owner */\n  dup3\n  swap1\n    /* \"contracts/contracts/Dependencies/Ownable.sol\":872:916  OwnershipTransferred(address(0), msg.sender) */\n  log3\n    /* \"contracts/contracts/PriceFeed.sol\":2076:2107  _setDIAOracle(DIAOracleAddress) */\n  tag_7\n    /* \"contracts/contracts/PriceFeed.sol\":2090:2106  DIAOracleAddress */\n  dup6\n  sub(shl(0xe0, 0x01), 0x01)\n    /* \"contracts/contracts/PriceFeed.sol\":2076:2089  _setDIAOracle */\n  tag_8\n    /* \"contracts/contracts/PriceFeed.sol\":2076:2107  _setDIAOracle(DIAOracleAddress) */\n  and\n  jump\t// in\ntag_7:\n    /* \"contracts/contracts/PriceFeed.sol\":2113:2147  _setFallbackOracle(fallbackOracle) */\n  tag_9\n    /* \"contracts/contracts/PriceFeed.sol\":2132:2146  fallbackOracle */\n  dup5\n  sub(shl(0xe0, 0x01), 0x01)\n    /* \"contracts/contracts/PriceFeed.sol\":2113:2131  _setFallbackOracle */\n  tag_10\n    /* \"contracts/contracts/PriceFeed.sol\":2113:2147  _setFallbackOracle(fallbackOracle) */\n  and\n  jump\t// in\ntag_9:\n    /* \"contracts/contracts/PriceFeed.sol\":2153:2169  maxPriceAgeLimit */\n  0x04\n    /* \"contracts/contracts/PriceFeed.sol\":2153:2185  maxPriceAgeLimit = priceAgeLimit */\n  dup2\n  swap1\n  sstore\n  not(sub(shl(0x60, 0x01), 0x01))\n    /* \"contracts/contracts/PriceFeed.sol\":2191:2219  BASE_CURRENCY = baseCurrency */\n  0x60\n  dup5\n  swap1\n  shl\n  and\n  0x80\n  mstore\n    /* \"contracts/contracts/PriceFeed.sol\":2225:2262  BASE_CURRENCY_UNIT = baseCurrencyUnit */\n  0xa0\n  dup3\n  swap1\n  mstore\n    /* \"contracts/contracts/PriceFeed.sol\":2273:2320  BaseCurrencySet(baseCurrency, baseCurrencyUnit) */\n  0x40\n  dup1\n  mload\n  dup4\n  dup2\n  mstore\n  swap1\n  mload\n  sub(shl(0xa0, 0x01), 0x01)\n    /* \"contracts/contracts/PriceFeed.sol\":2191:2219  BASE_CURRENCY = baseCurrency */\n  dup6\n  and\n  swap2\n    /* \"contracts/contracts/PriceFeed.sol\":2273:2320  BaseCurrencySet(baseCurrency, baseCurrencyUnit) */\n  0xe27c4c1372396a3d15a9922f74f9dfc7c72b1ad6d63868470787249c356454c1\n  swap2\n  swap1\n  dup2\n  swap1\n  sub\n  0x20\n  add\n  swap1\n  log2\n    /* \"contracts/contracts/PriceFeed.sol\":1906:2325  constructor(... */\n  pop\n  pop\n  pop\n  pop\n  pop\n    /* \"contracts/contracts/PriceFeed.sol\":704:5796  contract PriceFeed is Ownable {... */\n  jump(tag_11)\n    /* \"contracts/contracts/PriceFeed.sol\":3831:3984  function _setDIAOracle(address diaOracleAddress) internal {    ... */\ntag_8:\n    /* \"contracts/contracts/PriceFeed.sol\":3899:3902  DIA */\n  0x05\n    /* \"contracts/contracts/PriceFeed.sol\":3899:3934  DIA = DIAOracleV2(diaOracleAddress) */\n  dup1\n  sload\n  not(sub(shl(0xa0, 0x01), 0x01))\n  and\n  sub(shl(0xa0, 0x01), 0x01)\n  dup4\n  and\n  swap1\n  dup2\n  or\n  swap1\n  swap2\n  sstore\n    /* \"contracts/contracts/PriceFeed.sol\":3945:3979  DIAOracleUpdated(diaOracleAddress) */\n  mload(0x40)\n  0x535b93d9e0be2f8cf2ba1e1f1f8c174e03aa29676b42aad916bc7190d29abe90\n  swap1\n  0x00\n  swap1\n  log2\n    /* \"contracts/contracts/PriceFeed.sol\":3831:3984  function _setDIAOracle(address diaOracleAddress) internal {    ... */\n  pop\n  jump\t// out\n    /* \"contracts/contracts/PriceFeed.sol\":4108:4280  function _setFallbackOracle(address fallbackOracle) internal {... */\ntag_10:\n    /* \"contracts/contracts/PriceFeed.sol\":4175:4190  _fallbackOracle */\n  0x03\n    /* \"contracts/contracts/PriceFeed.sol\":4175:4227  _fallbackOracle = IPriceOracleGetter(fallbackOracle) */\n  dup1\n  sload\n  not(sub(shl(0xa0, 0x01), 0x01))\n  and\n  sub(shl(0xa0, 0x01), 0x01)\n  dup4\n  and\n  swap1\n  dup2\n  or\n  swap1\n  swap2\n  sstore\n    /* \"contracts/contracts/PriceFeed.sol\":4238:4275  FallbackOracleUpdated(fallbackOracle) */\n  mload(0x40)\n  0xce7a780d33665b1ea097af5f155e3821b809ecbaa839d3b33aa83ba28168cefb\n  swap1\n  0x00\n  swap1\n  log2\n    /* \"contracts/contracts/PriceFeed.sol\":4108:4280  function _setFallbackOracle(address fallbackOracle) internal {... */\n  pop\n  jump\t// out\n    /* \"contracts/contracts/PriceFeed.sol\":704:5796  contract PriceFeed is Ownable {... */\ntag_11:\n  shr(0x60, mload(0x80))\n  mload(0xa0)\n  mload(0xc0)\n  codecopy(0x00, dataOffset(sub_0), dataSize(sub_0))\n  assignImmutable(\"0x874d79415a6c1facf72c59e397422dafe50d60bcd1a0a03f27f1304ffa3c436c\")\n  assignImmutable(\"0x74b0a73c8e019485c6bf7a8191beea41ecaf2ae440157a94156a991a62e7d3a5\")\n  assignImmutable(\"0xb440c9986c01395f2aa716b5d1c22f7a6f50e50754b83b93de79b9bd54339a32\")\n  return(0x00, dataSize(sub_0))\nstop\n\nsub_0: assembly {\n        /* \"contracts/contracts/PriceFeed.sol\":704:5796  contract PriceFeed is Ownable {... */\n      mstore(0x40, 0x80)\n      callvalue\n      dup1\n      iszero\n      tag_1\n      jumpi\n      0x00\n      dup1\n      revert\n    tag_1:\n      pop\n      jumpi(tag_2, lt(calldatasize, 0x04))\n      shr(0xe0, calldataload(0x00))\n      dup1\n      0x8f32d59b\n      gt\n      tag_18\n      jumpi\n      dup1\n      0xd5725f1c\n      gt\n      tag_19\n      jumpi\n      dup1\n      0xd5725f1c\n      eq\n      tag_14\n      jumpi\n      dup1\n      0xdece273f\n      eq\n      tag_15\n      jumpi\n      dup1\n      0xe19f4700\n      eq\n      tag_16\n      jumpi\n      dup1\n      0xf8cdd014\n      eq\n      tag_17\n      jumpi\n      jump(tag_2)\n    tag_19:\n      dup1\n      0x8f32d59b\n      eq\n      tag_10\n      jumpi\n      dup1\n      0x92a1aebf\n      eq\n      tag_11\n      jumpi\n      dup1\n      0x92bf2be0\n      eq\n      tag_12\n      jumpi\n      dup1\n      0xbd252281\n      eq\n      tag_13\n      jumpi\n      jump(tag_2)\n    tag_18:\n      dup1\n      0x6210308c\n      gt\n      tag_20\n      jumpi\n      dup1\n      0x6210308c\n      eq\n      tag_6\n      jumpi\n      dup1\n      0x85152e45\n      eq\n      tag_7\n      jumpi\n      dup1\n      0x8c89b64f\n      eq\n      tag_8\n      jumpi\n      dup1\n      0x8da5cb5b\n      eq\n      tag_9\n      jumpi\n      jump(tag_2)\n    tag_20:\n      dup1\n      0x0fdb11cf\n      eq\n      tag_3\n      jumpi\n      dup1\n      0x170aee73\n      eq\n      tag_4\n      jumpi\n      dup1\n      0x57fc3614\n      eq\n      tag_5\n      jumpi\n    tag_2:\n      0x00\n      dup1\n      revert\n        /* \"contracts/contracts/PriceFeed.sol\":4314:4902  function fetchPrice() external view returns (uint256) {... */\n    tag_3:\n      tag_21\n      tag_22\n      jump\t// in\n    tag_21:\n      0x40\n      dup1\n      mload\n      swap2\n      dup3\n      mstore\n      mload\n      swap1\n      dup2\n      swap1\n      sub\n      0x20\n      add\n      swap1\n      return\n        /* \"contracts/contracts/PriceFeed.sol\":3305:3420  function setFallbackOracle(address fallbackOracle) external onlyOwner {... */\n    tag_4:\n      tag_23\n      0x04\n      dup1\n      calldatasize\n      sub\n      0x20\n      dup2\n      lt\n      iszero\n      tag_24\n      jumpi\n      0x00\n      dup1\n      revert\n    tag_24:\n      pop\n      calldataload\n      sub(shl(0xa0, 0x01), 0x01)\n      and\n      tag_25\n      jump\t// in\n    tag_23:\n      stop\n        /* \"contracts/contracts/PriceFeed.sol\":3092:3201  function setDIAOracle(address diaOracleAddress) external onlyOwner {... */\n    tag_5:\n      tag_23\n      0x04\n      dup1\n      calldatasize\n      sub\n      0x20\n      dup2\n      lt\n      iszero\n      tag_27\n      jumpi\n      0x00\n      dup1\n      revert\n    tag_27:\n      pop\n      calldataload\n      sub(shl(0xa0, 0x01), 0x01)\n      and\n      tag_28\n      jump\t// in\n        /* \"contracts/contracts/PriceFeed.sol\":5451:5554  function getFallbackOracle() external view returns (address) {... */\n    tag_6:\n      tag_29\n      tag_30\n      jump\t// in\n    tag_29:\n      0x40\n      dup1\n      mload\n      sub(shl(0xa0, 0x01), 0x01)\n      swap1\n      swap3\n      and\n      dup3\n      mstore\n      mload\n      swap1\n      dup2\n      swap1\n      sub\n      0x20\n      add\n      swap1\n      return\n        /* \"contracts/contracts/PriceFeed.sol\":5248:5337  function getMasterOracle() external view returns (address) {... */\n    tag_7:\n      tag_29\n      tag_32\n      jump\t// in\n        /* \"contracts/contracts/PriceFeed.sol\":1249:1292  uint256 public immutable BASE_CURRENCY_UNIT */\n    tag_8:\n      tag_21\n      tag_34\n      jump\t// in\n        /* \"contracts/contracts/Dependencies/Ownable.sol\":999:1076  function owner() public view returns (address) {... */\n    tag_9:\n      tag_29\n      tag_36\n      jump\t// in\n        /* \"contracts/contracts/Dependencies/Ownable.sol\":1350:1440  function isOwner() public view returns (bool) {... */\n    tag_10:\n      tag_37\n      tag_38\n      jump\t// in\n    tag_37:\n      0x40\n      dup1\n      mload\n      swap2\n      iszero\n      iszero\n      dup3\n      mstore\n      mload\n      swap1\n      dup2\n      swap1\n      sub\n      0x20\n      add\n      swap1\n      return\n        /* \"contracts/contracts/PriceFeed.sol\":2805:2990  function setwEthAddress(address asset) external onlyOwner {... */\n    tag_11:\n      tag_23\n      0x04\n      dup1\n      calldatasize\n      sub\n      0x20\n      dup2\n      lt\n      iszero\n      tag_40\n      jumpi\n      0x00\n      dup1\n      revert\n    tag_40:\n      pop\n      calldataload\n      sub(shl(0xa0, 0x01), 0x01)\n      and\n      tag_41\n      jump\t// in\n        /* \"contracts/contracts/PriceFeed.sol\":5019:5141  function getSourceOfAsset(address asset) external view returns (string memory) {... */\n    tag_12:\n      tag_42\n      0x04\n      dup1\n      calldatasize\n      sub\n      0x20\n      dup2\n      lt\n      iszero\n      tag_43\n      jumpi\n      0x00\n      dup1\n      revert\n    tag_43:\n      pop\n      calldataload\n      sub(shl(0xa0, 0x01), 0x01)\n      and\n      tag_44\n      jump\t// in\n    tag_42:\n      0x40\n      dup1\n      mload\n      0x20\n      dup1\n      dup3\n      mstore\n      dup4\n      mload\n      dup2\n      dup4\n      add\n      mstore\n      dup4\n      mload\n      swap2\n      swap3\n      dup4\n      swap3\n      swap1\n      dup4\n      add\n      swap2\n      dup6\n      add\n      swap1\n      dup1\n      dup4\n      dup4\n      0x00\n    tag_45:\n      dup4\n      dup2\n      lt\n      iszero\n      tag_47\n      jumpi\n      dup2\n      dup2\n      add\n      mload\n      dup4\n      dup3\n      add\n      mstore\n      0x20\n      add\n      jump(tag_45)\n    tag_47:\n      pop\n      pop\n      pop\n      pop\n      swap1\n      pop\n      swap1\n      dup2\n      add\n      swap1\n      0x1f\n      and\n      dup1\n      iszero\n      tag_48\n      jumpi\n      dup1\n      dup3\n      sub\n      dup1\n      mload\n      0x01\n      dup4\n      0x20\n      sub\n      0x0100\n      exp\n      sub\n      not\n      and\n      dup2\n      mstore\n      0x20\n      add\n      swap2\n      pop\n    tag_48:\n      pop\n      swap3\n      pop\n      pop\n      pop\n      mload(0x40)\n      dup1\n      swap2\n      sub\n      swap1\n      return\n        /* \"contracts/contracts/PriceFeed.sol\":1296:1352  uint256 public immutable CONVERSION_FACTOR = 10000000000 */\n    tag_13:\n      tag_21\n      tag_50\n      jump\t// in\n        /* \"contracts/contracts/PriceFeed.sol\":2563:2799  function setAssetKey(address asset, string calldata key) external onlyOwner {... */\n    tag_14:\n      tag_23\n      0x04\n      dup1\n      calldatasize\n      sub\n      0x40\n      dup2\n      lt\n      iszero\n      tag_52\n      jumpi\n      0x00\n      dup1\n      revert\n    tag_52:\n      sub(shl(0xa0, 0x01), 0x01)\n      dup3\n      calldataload\n      and\n      swap2\n      swap1\n      dup2\n      add\n      swap1\n      0x40\n      dup2\n      add\n      0x20\n      dup3\n      add\n      calldataload\n      0x0100000000\n      dup2\n      gt\n      iszero\n      tag_53\n      jumpi\n      0x00\n      dup1\n      revert\n    tag_53:\n      dup3\n      add\n      dup4\n      0x20\n      dup3\n      add\n      gt\n      iszero\n      tag_54\n      jumpi\n      0x00\n      dup1\n      revert\n    tag_54:\n      dup1\n      calldataload\n      swap1\n      0x20\n      add\n      swap2\n      dup5\n      0x01\n      dup4\n      mul\n      dup5\n      add\n      gt\n      0x0100000000\n      dup4\n      gt\n      or\n      iszero\n      tag_55\n      jumpi\n      0x00\n      dup1\n      revert\n    tag_55:\n      pop\n      swap1\n      swap3\n      pop\n      swap1\n      pop\n      tag_56\n      jump\t// in\n        /* \"contracts/contracts/PriceFeed.sol\":3573:3677  function setMaxPriceAgeLimit(uint256 AgeLimit) external onlyOwner {... */\n    tag_15:\n      tag_23\n      0x04\n      dup1\n      calldatasize\n      sub\n      0x20\n      dup2\n      lt\n      iszero\n      tag_58\n      jumpi\n      0x00\n      dup1\n      revert\n    tag_58:\n      pop\n      calldataload\n      tag_59\n      jump\t// in\n        /* \"contracts/contracts/PriceFeed.sol\":1205:1243  address public immutable BASE_CURRENCY */\n    tag_16:\n      tag_29\n      tag_61\n      jump\t// in\n        /* \"contracts/contracts/PriceFeed.sol\":5697:5794  function getMaxPriceAgeLimit() external view returns (uint256) {... */\n    tag_17:\n      tag_21\n      tag_63\n      jump\t// in\n        /* \"contracts/contracts/PriceFeed.sol\":4314:4902  function fetchPrice() external view returns (uint256) {... */\n    tag_22:\n        /* \"contracts/contracts/PriceFeed.sol\":4390:4401  wEthAddress */\n      0x02\n      dup1\n      sload\n      sub(shl(0xa0, 0x01), 0x01)\n      and\n        /* \"contracts/contracts/PriceFeed.sol\":4359:4366  uint256 */\n      0x00\n        /* \"contracts/contracts/PriceFeed.sol\":4427:4444  assetsKeys[asset] */\n      dup2\n      dup2\n      mstore\n        /* \"contracts/contracts/PriceFeed.sol\":4390:4401  wEthAddress */\n      0x01\n        /* \"contracts/contracts/PriceFeed.sol\":4427:4444  assetsKeys[asset] */\n      0x20\n      dup2\n      dup2\n      mstore\n      0x40\n      dup1\n      dup5\n      keccak256\n        /* \"contracts/contracts/PriceFeed.sol\":4407:4444  string memory key = assetsKeys[asset] */\n      dup1\n      sload\n      dup3\n      mload\n        /* \"contracts/contracts/PriceFeed.sol\":4390:4401  wEthAddress */\n      0x0100\n        /* \"contracts/contracts/PriceFeed.sol\":4407:4444  string memory key = assetsKeys[asset] */\n      swap6\n      dup3\n      and\n      iszero\n      swap6\n      swap1\n      swap6\n      mul\n      not(0x00)\n      add\n      and\n      swap7\n      swap1\n      swap7\n      div\n      0x1f\n      dup2\n      add\n      dup4\n      swap1\n      div\n      dup4\n      mul\n      dup5\n      add\n      dup4\n      add\n      swap1\n      swap2\n      mstore\n      dup1\n      dup4\n      mstore\n        /* \"contracts/contracts/PriceFeed.sol\":4359:4366  uint256 */\n      swap3\n      swap5\n        /* \"contracts/contracts/PriceFeed.sol\":4407:4424  string memory key */\n      0x60\n      swap4\n        /* \"contracts/contracts/PriceFeed.sol\":4427:4444  assetsKeys[asset] */\n      swap1\n      swap2\n        /* \"contracts/contracts/PriceFeed.sol\":4407:4444  string memory key = assetsKeys[asset] */\n      dup4\n      add\n        /* \"contracts/contracts/PriceFeed.sol\":4427:4444  assetsKeys[asset] */\n      dup3\n        /* \"contracts/contracts/PriceFeed.sol\":4407:4444  string memory key = assetsKeys[asset] */\n      dup3\n      dup1\n      iszero\n      tag_65\n      jumpi\n      dup1\n      0x1f\n      lt\n      tag_66\n      jumpi\n      0x0100\n      dup1\n      dup4\n      sload\n      div\n      mul\n      dup4\n      mstore\n      swap2\n      0x20\n      add\n      swap2\n      jump(tag_65)\n    tag_66:\n      dup3\n      add\n      swap2\n      swap1\n      0x00\n      mstore\n      keccak256(0x00, 0x20)\n      swap1\n    tag_67:\n      dup2\n      sload\n      dup2\n      mstore\n      swap1\n      0x01\n      add\n      swap1\n      0x20\n      add\n      dup1\n      dup4\n      gt\n      tag_67\n      jumpi\n      dup3\n      swap1\n      sub\n      0x1f\n      and\n      dup3\n      add\n      swap2\n    tag_65:\n      pop\n      pop\n      pop\n      pop\n      pop\n      swap1\n      pop\n        /* \"contracts/contracts/PriceFeed.sol\":4464:4477  BASE_CURRENCY */\n      immutable(\"0xb440c9986c01395f2aa716b5d1c22f7a6f50e50754b83b93de79b9bd54339a32\")\n      sub(shl(0xa0, 0x01), 0x01)\n        /* \"contracts/contracts/PriceFeed.sol\":4455:4477  asset == BASE_CURRENCY */\n      and\n        /* \"contracts/contracts/PriceFeed.sol\":4455:4460  asset */\n      dup3\n      sub(shl(0xa0, 0x01), 0x01)\n        /* \"contracts/contracts/PriceFeed.sol\":4455:4477  asset == BASE_CURRENCY */\n      and\n      eq\n        /* \"contracts/contracts/PriceFeed.sol\":4451:4898  if (asset == BASE_CURRENCY) {... */\n      iszero\n      tag_68\n      jumpi\n        /* \"contracts/contracts/PriceFeed.sol\":4494:4512  BASE_CURRENCY_UNIT */\n      immutable(\"0x74b0a73c8e019485c6bf7a8191beea41ecaf2ae440157a94156a991a62e7d3a5\")\n        /* \"contracts/contracts/PriceFeed.sol\":4487:4512  return BASE_CURRENCY_UNIT */\n      swap3\n      pop\n      pop\n      pop\n      jump(tag_64)\n        /* \"contracts/contracts/PriceFeed.sol\":4451:4898  if (asset == BASE_CURRENCY) {... */\n    tag_68:\n        /* \"contracts/contracts/PriceFeed.sol\":4529:4546  bytes(key).length */\n      dup1\n      mload\n        /* \"contracts/contracts/PriceFeed.sol\":4525:4898  if (bytes(key).length == 0) {    ... */\n      tag_70\n      jumpi\n        /* \"contracts/contracts/PriceFeed.sol\":4572:4587  _fallbackOracle */\n      sload(0x03)\n        /* \"contracts/contracts/PriceFeed.sol\":4572:4608  _fallbackOracle.getAssetPrice(asset) */\n      0x40\n      dup1\n      mload\n      shl(0xe0, 0xb3596f07)\n      dup2\n      mstore\n      sub(shl(0xa0, 0x01), 0x01)\n      dup6\n      dup2\n      and\n      0x04\n      dup4\n      add\n      mstore\n      swap2\n      mload\n        /* \"contracts/contracts/PriceFeed.sol\":4572:4587  _fallbackOracle */\n      swap2\n      swap1\n      swap3\n      and\n      swap2\n        /* \"contracts/contracts/PriceFeed.sol\":4572:4601  _fallbackOracle.getAssetPrice */\n      0xb3596f07\n      swap2\n        /* \"contracts/contracts/PriceFeed.sol\":4572:4608  _fallbackOracle.getAssetPrice(asset) */\n      0x24\n      dup1\n      dup4\n      add\n      swap3\n      0x20\n      swap3\n      swap2\n      swap1\n      dup3\n      swap1\n      sub\n      add\n      dup2\n        /* \"contracts/contracts/PriceFeed.sol\":4572:4587  _fallbackOracle */\n      dup7\n        /* \"contracts/contracts/PriceFeed.sol\":4572:4608  _fallbackOracle.getAssetPrice(asset) */\n      dup1\n      extcodesize\n      iszero\n      dup1\n      iszero\n      tag_71\n      jumpi\n      0x00\n      dup1\n      revert\n    tag_71:\n      pop\n      gas\n      staticcall\n      iszero\n      dup1\n      iszero\n      tag_73\n      jumpi\n      returndatasize\n      0x00\n      dup1\n      returndatacopy\n      revert(0x00, returndatasize)\n    tag_73:\n      pop\n      pop\n      pop\n      pop\n      mload(0x40)\n      returndatasize\n      0x20\n      dup2\n      lt\n      iszero\n      tag_74\n      jumpi\n      0x00\n      dup1\n      revert\n    tag_74:\n      pop\n      mload\n      swap3\n      pop\n        /* \"contracts/contracts/PriceFeed.sol\":4565:4608  return _fallbackOracle.getAssetPrice(asset) */\n      tag_64\n      swap2\n      pop\n      pop\n      jump\n        /* \"contracts/contracts/PriceFeed.sol\":4525:4898  if (bytes(key).length == 0) {    ... */\n    tag_70:\n        /* \"contracts/contracts/PriceFeed.sol\":4666:4669  DIA */\n      sload(0x05)\n        /* \"contracts/contracts/PriceFeed.sol\":4666:4683  DIA.getValue(key) */\n      mload(0x40)\n      shl(0xe5, 0x04b01c25)\n      dup2\n      mstore\n      0x20\n      0x04\n      dup3\n      add\n      dup2\n      dup2\n      mstore\n      dup5\n      mload\n      0x24\n      dup5\n      add\n      mstore\n      dup5\n      mload\n        /* \"contracts/contracts/PriceFeed.sol\":4630:4643  uint128 price */\n      0x00\n      swap5\n      dup6\n      swap5\n      sub(shl(0xa0, 0x01), 0x01)\n        /* \"contracts/contracts/PriceFeed.sol\":4666:4669  DIA */\n      swap1\n      swap2\n      and\n      swap4\n        /* \"contracts/contracts/PriceFeed.sol\":4666:4678  DIA.getValue */\n      0x960384a0\n      swap4\n        /* \"contracts/contracts/PriceFeed.sol\":4679:4682  key */\n      dup9\n      swap4\n        /* \"contracts/contracts/PriceFeed.sol\":4666:4683  DIA.getValue(key) */\n      swap1\n      swap3\n      dup4\n      swap3\n      0x44\n      swap1\n      swap2\n      add\n      swap2\n      swap1\n      dup6\n      add\n      swap1\n      dup1\n      dup4\n      dup4\n        /* \"contracts/contracts/PriceFeed.sol\":4630:4643  uint128 price */\n      dup12\n        /* \"contracts/contracts/PriceFeed.sol\":4666:4683  DIA.getValue(key) */\n    tag_76:\n      dup4\n      dup2\n      lt\n      iszero\n      tag_78\n      jumpi\n      dup2\n      dup2\n      add\n      mload\n      dup4\n      dup3\n      add\n      mstore\n      0x20\n      add\n      jump(tag_76)\n    tag_78:\n      pop\n      pop\n      pop\n      pop\n      swap1\n      pop\n      swap1\n      dup2\n      add\n      swap1\n      0x1f\n      and\n      dup1\n      iszero\n      tag_79\n      jumpi\n      dup1\n      dup3\n      sub\n      dup1\n      mload\n      0x01\n      dup4\n      0x20\n      sub\n      0x0100\n      exp\n      sub\n      not\n      and\n      dup2\n      mstore\n      0x20\n      add\n      swap2\n      pop\n    tag_79:\n      pop\n      swap3\n      pop\n      pop\n      pop\n      0x40\n      dup1\n      mload\n      dup1\n      dup4\n      sub\n      dup2\n      dup7\n      dup1\n      extcodesize\n      iszero\n      dup1\n      iszero\n      tag_80\n      jumpi\n      0x00\n      dup1\n      revert\n    tag_80:\n      pop\n      gas\n      staticcall\n      iszero\n      dup1\n      iszero\n      tag_82\n      jumpi\n      returndatasize\n      0x00\n      dup1\n      returndatacopy\n      revert(0x00, returndatasize)\n    tag_82:\n      pop\n      pop\n      pop\n      pop\n      mload(0x40)\n      returndatasize\n      0x40\n      dup2\n      lt\n      iszero\n      tag_83\n      jumpi\n      0x00\n      dup1\n      revert\n    tag_83:\n      pop\n      dup1\n      mload\n      0x20\n      swap1\n      swap2\n      add\n      mload\n      swap1\n      swap3\n      pop\n      swap1\n      pop\n      sub(shl(0x80, 0x01), 0x01)\n        /* \"contracts/contracts/PriceFeed.sol\":4701:4710  price > 0 */\n      dup3\n      and\n      iszero\n      dup1\n      iszero\n      swap1\n        /* \"contracts/contracts/PriceFeed.sol\":4701:4762  price > 0 && (block.timestamp - timeStamp) < maxPriceAgeLimit */\n      tag_84\n      jumpi\n      pop\n        /* \"contracts/contracts/PriceFeed.sol\":4746:4762  maxPriceAgeLimit */\n      sload(0x04)\n        /* \"contracts/contracts/PriceFeed.sol\":4733:4742  timeStamp */\n      dup2\n      sub(shl(0x80, 0x01), 0x01)\n        /* \"contracts/contracts/PriceFeed.sol\":4715:4742  block.timestamp - timeStamp */\n      and\n        /* \"contracts/contracts/PriceFeed.sol\":4715:4730  block.timestamp */\n      timestamp\n        /* \"contracts/contracts/PriceFeed.sol\":4715:4742  block.timestamp - timeStamp */\n      sub\n        /* \"contracts/contracts/PriceFeed.sol\":4714:4762  (block.timestamp - timeStamp) < maxPriceAgeLimit */\n      lt\n        /* \"contracts/contracts/PriceFeed.sol\":4701:4762  price > 0 && (block.timestamp - timeStamp) < maxPriceAgeLimit */\n    tag_84:\n        /* \"contracts/contracts/PriceFeed.sol\":4697:4892  if (price > 0 && (block.timestamp - timeStamp) < maxPriceAgeLimit) {... */\n      iszero\n      tag_85\n      jumpi\n      pop\n      sub(shl(0x80, 0x01), 0x01)\n        /* \"contracts/contracts/PriceFeed.sol\":4781:4795  uint256(price) */\n      and\n        /* \"contracts/contracts/PriceFeed.sol\":4798:4815  CONVERSION_FACTOR */\n      immutable(\"0x874d79415a6c1facf72c59e397422dafe50d60bcd1a0a03f27f1304ffa3c436c\")\n        /* \"contracts/contracts/PriceFeed.sol\":4781:4815  uint256(price) * CONVERSION_FACTOR */\n      mul\n      swap3\n      pop\n        /* \"contracts/contracts/PriceFeed.sol\":4774:4815  return uint256(price) * CONVERSION_FACTOR */\n      tag_64\n      swap2\n      pop\n      pop\n      jump\n        /* \"contracts/contracts/PriceFeed.sol\":4697:4892  if (price > 0 && (block.timestamp - timeStamp) < maxPriceAgeLimit) {... */\n    tag_85:\n        /* \"contracts/contracts/PriceFeed.sol\":4847:4862  _fallbackOracle */\n      sload(0x03)\n        /* \"contracts/contracts/PriceFeed.sol\":4847:4883  _fallbackOracle.getAssetPrice(asset) */\n      0x40\n      dup1\n      mload\n      shl(0xe0, 0xb3596f07)\n      dup2\n      mstore\n      sub(shl(0xa0, 0x01), 0x01)\n      dup8\n      dup2\n      and\n      0x04\n      dup4\n      add\n      mstore\n      swap2\n      mload\n        /* \"contracts/contracts/PriceFeed.sol\":4847:4862  _fallbackOracle */\n      swap2\n      swap1\n      swap3\n      and\n      swap2\n        /* \"contracts/contracts/PriceFeed.sol\":4847:4876  _fallbackOracle.getAssetPrice */\n      0xb3596f07\n      swap2\n        /* \"contracts/contracts/PriceFeed.sol\":4847:4883  _fallbackOracle.getAssetPrice(asset) */\n      0x24\n      dup1\n      dup4\n      add\n      swap3\n      0x20\n      swap3\n      swap2\n      swap1\n      dup3\n      swap1\n      sub\n      add\n      dup2\n        /* \"contracts/contracts/PriceFeed.sol\":4847:4862  _fallbackOracle */\n      dup7\n        /* \"contracts/contracts/PriceFeed.sol\":4847:4883  _fallbackOracle.getAssetPrice(asset) */\n      dup1\n      extcodesize\n      iszero\n      dup1\n      iszero\n      tag_87\n      jumpi\n      0x00\n      dup1\n      revert\n    tag_87:\n      pop\n      gas\n      staticcall\n      iszero\n      dup1\n      iszero\n      tag_89\n      jumpi\n      returndatasize\n      0x00\n      dup1\n      returndatacopy\n      revert(0x00, returndatasize)\n    tag_89:\n      pop\n      pop\n      pop\n      pop\n      mload(0x40)\n      returndatasize\n      0x20\n      dup2\n      lt\n      iszero\n      tag_90\n      jumpi\n      0x00\n      dup1\n      revert\n    tag_90:\n      pop\n      mload\n      swap5\n      pop\n        /* \"contracts/contracts/PriceFeed.sol\":4840:4883  return _fallbackOracle.getAssetPrice(asset) */\n      tag_64\n      swap4\n      pop\n      pop\n      pop\n      pop\n      jump\n        /* \"contracts/contracts/PriceFeed.sol\":4314:4902  function fetchPrice() external view returns (uint256) {... */\n    tag_64:\n      swap1\n      jump\t// out\n        /* \"contracts/contracts/PriceFeed.sol\":3305:3420  function setFallbackOracle(address fallbackOracle) external onlyOwner {... */\n    tag_25:\n        /* \"contracts/contracts/Dependencies/Ownable.sol\":1203:1212  isOwner() */\n      tag_92\n        /* \"contracts/contracts/Dependencies/Ownable.sol\":1203:1210  isOwner */\n      tag_38\n        /* \"contracts/contracts/Dependencies/Ownable.sol\":1203:1212  isOwner() */\n      jump\t// in\n    tag_92:\n        /* \"contracts/contracts/Dependencies/Ownable.sol\":1195:1249  require(isOwner(), \"Ownable: caller is not the owner\") */\n      tag_93\n      jumpi\n      0x40\n      dup1\n      mload\n      shl(0xe5, 0x461bcd)\n      dup2\n      mstore\n      0x20\n      0x04\n      dup3\n      add\n      dup2\n      swap1\n      mstore\n      0x24\n      dup3\n      add\n      mstore\n      0x00\n      dup1\n      mload\n      0x20\n      data_9924ebdf1add33d25d4ef888e16131f0a5687b0580a36c21b5c301a6c462effe\n      dup4\n      codecopy\n      dup2\n      mload\n      swap2\n      mstore\n      0x44\n      dup3\n      add\n      mstore\n      swap1\n      mload\n      swap1\n      dup2\n      swap1\n      sub\n      0x64\n      add\n      swap1\n      revert\n    tag_93:\n        /* \"contracts/contracts/PriceFeed.sol\":3381:3415  _setFallbackOracle(fallbackOracle) */\n      tag_95\n        /* \"contracts/contracts/PriceFeed.sol\":3400:3414  fallbackOracle */\n      dup2\n        /* \"contracts/contracts/PriceFeed.sol\":3381:3399  _setFallbackOracle */\n      tag_96\n        /* \"contracts/contracts/PriceFeed.sol\":3381:3415  _setFallbackOracle(fallbackOracle) */\n      jump\t// in\n    tag_95:\n        /* \"contracts/contracts/PriceFeed.sol\":3305:3420  function setFallbackOracle(address fallbackOracle) external onlyOwner {... */\n      pop\n      jump\t// out\n        /* \"contracts/contracts/PriceFeed.sol\":3092:3201  function setDIAOracle(address diaOracleAddress) external onlyOwner {... */\n    tag_28:\n        /* \"contracts/contracts/Dependencies/Ownable.sol\":1203:1212  isOwner() */\n      tag_98\n        /* \"contracts/contracts/Dependencies/Ownable.sol\":1203:1210  isOwner */\n      tag_38\n        /* \"contracts/contracts/Dependencies/Ownable.sol\":1203:1212  isOwner() */\n      jump\t// in\n    tag_98:\n        /* \"contracts/contracts/Dependencies/Ownable.sol\":1195:1249  require(isOwner(), \"Ownable: caller is not the owner\") */\n      tag_99\n      jumpi\n      0x40\n      dup1\n      mload\n      shl(0xe5, 0x461bcd)\n      dup2\n      mstore\n      0x20\n      0x04\n      dup3\n      add\n      dup2\n      swap1\n      mstore\n      0x24\n      dup3\n      add\n      mstore\n      0x00\n      dup1\n      mload\n      0x20\n      data_9924ebdf1add33d25d4ef888e16131f0a5687b0580a36c21b5c301a6c462effe\n      dup4\n      codecopy\n      dup2\n      mload\n      swap2\n      mstore\n      0x44\n      dup3\n      add\n      mstore\n      swap1\n      mload\n      swap1\n      dup2\n      swap1\n      sub\n      0x64\n      add\n      swap1\n      revert\n    tag_99:\n        /* \"contracts/contracts/PriceFeed.sol\":3165:3196  _setDIAOracle(diaOracleAddress) */\n      tag_95\n        /* \"contracts/contracts/PriceFeed.sol\":3179:3195  diaOracleAddress */\n      dup2\n        /* \"contracts/contracts/PriceFeed.sol\":3165:3178  _setDIAOracle */\n      tag_102\n        /* \"contracts/contracts/PriceFeed.sol\":3165:3196  _setDIAOracle(diaOracleAddress) */\n      jump\t// in\n        /* \"contracts/contracts/PriceFeed.sol\":5451:5554  function getFallbackOracle() external view returns (address) {... */\n    tag_30:\n        /* \"contracts/contracts/PriceFeed.sol\":5533:5548  _fallbackOracle */\n      and(sub(shl(0xa0, 0x01), 0x01), sload(0x03))\n        /* \"contracts/contracts/PriceFeed.sol\":5451:5554  function getFallbackOracle() external view returns (address) {... */\n      swap1\n      jump\t// out\n        /* \"contracts/contracts/PriceFeed.sol\":5248:5337  function getMasterOracle() external view returns (address) {... */\n    tag_32:\n        /* \"contracts/contracts/PriceFeed.sol\":5328:5331  DIA */\n      and(sub(shl(0xa0, 0x01), 0x01), sload(0x05))\n        /* \"contracts/contracts/PriceFeed.sol\":5248:5337  function getMasterOracle() external view returns (address) {... */\n      swap1\n      jump\t// out\n        /* \"contracts/contracts/PriceFeed.sol\":1249:1292  uint256 public immutable BASE_CURRENCY_UNIT */\n    tag_34:\n      immutable(\"0x74b0a73c8e019485c6bf7a8191beea41ecaf2ae440157a94156a991a62e7d3a5\")\n      dup2\n      jump\t// out\n        /* \"contracts/contracts/Dependencies/Ownable.sol\":999:1076  function owner() public view returns (address) {... */\n    tag_36:\n        /* \"contracts/contracts/Dependencies/Ownable.sol\":1037:1044  address */\n      0x00\n        /* \"contracts/contracts/Dependencies/Ownable.sol\":1063:1069  _owner */\n      sload\n      sub(shl(0xa0, 0x01), 0x01)\n      and\n        /* \"contracts/contracts/Dependencies/Ownable.sol\":999:1076  function owner() public view returns (address) {... */\n      swap1\n      jump\t// out\n        /* \"contracts/contracts/Dependencies/Ownable.sol\":1350:1440  function isOwner() public view returns (bool) {... */\n    tag_38:\n        /* \"contracts/contracts/Dependencies/Ownable.sol\":1390:1394  bool */\n      0x00\n        /* \"contracts/contracts/Dependencies/Ownable.sol\":1427:1433  _owner */\n      sload\n      sub(shl(0xa0, 0x01), 0x01)\n      and\n        /* \"contracts/contracts/Dependencies/Ownable.sol\":1413:1423  msg.sender */\n      caller\n        /* \"contracts/contracts/Dependencies/Ownable.sol\":1413:1433  msg.sender == _owner */\n      eq\n      swap1\n        /* \"contracts/contracts/Dependencies/Ownable.sol\":1350:1440  function isOwner() public view returns (bool) {... */\n      jump\t// out\n        /* \"contracts/contracts/PriceFeed.sol\":2805:2990  function setwEthAddress(address asset) external onlyOwner {... */\n    tag_41:\n        /* \"contracts/contracts/Dependencies/Ownable.sol\":1203:1212  isOwner() */\n      tag_108\n        /* \"contracts/contracts/Dependencies/Ownable.sol\":1203:1210  isOwner */\n      tag_38\n        /* \"contracts/contracts/Dependencies/Ownable.sol\":1203:1212  isOwner() */\n      jump\t// in\n    tag_108:\n        /* \"contracts/contracts/Dependencies/Ownable.sol\":1195:1249  require(isOwner(), \"Ownable: caller is not the owner\") */\n      tag_109\n      jumpi\n      0x40\n      dup1\n      mload\n      shl(0xe5, 0x461bcd)\n      dup2\n      mstore\n      0x20\n      0x04\n      dup3\n      add\n      dup2\n      swap1\n      mstore\n      0x24\n      dup3\n      add\n      mstore\n      0x00\n      dup1\n      mload\n      0x20\n      data_9924ebdf1add33d25d4ef888e16131f0a5687b0580a36c21b5c301a6c462effe\n      dup4\n      codecopy\n      dup2\n      mload\n      swap2\n      mstore\n      0x44\n      dup3\n      add\n      mstore\n      swap1\n      mload\n      swap1\n      dup2\n      swap1\n      sub\n      0x64\n      add\n      swap1\n      revert\n    tag_109:\n      sub(shl(0xa0, 0x01), 0x01)\n        /* \"contracts/contracts/PriceFeed.sol\":2878:2897  asset != address(0) */\n      dup2\n      and\n        /* \"contracts/contracts/PriceFeed.sol\":2869:2921  require((asset != address(0)), 'Invalid parameters') */\n      tag_111\n      jumpi\n      0x40\n      dup1\n      mload\n      shl(0xe5, 0x461bcd)\n      dup2\n      mstore\n      0x20\n      0x04\n      dup3\n      add\n      mstore\n      0x12\n      0x24\n      dup3\n      add\n      mstore\n      shl(0x70, 0x496e76616c696420706172616d6574657273)\n      0x44\n      dup3\n      add\n      mstore\n      swap1\n      mload\n      swap1\n      dup2\n      swap1\n      sub\n      0x64\n      add\n      swap1\n      revert\n    tag_111:\n        /* \"contracts/contracts/PriceFeed.sol\":2929:2940  wEthAddress */\n      0x02\n        /* \"contracts/contracts/PriceFeed.sol\":2929:2948  wEthAddress = asset */\n      dup1\n      sload\n      sub(shl(0xa0, 0x01), 0x01)\n      dup4\n      and\n      not(sub(shl(0xa0, 0x01), 0x01))\n      swap1\n      swap2\n      and\n      dup2\n      or\n      swap1\n      swap2\n      sstore\n        /* \"contracts/contracts/PriceFeed.sol\":2961:2985  EthAddressUpdated(asset) */\n      0x40\n      dup1\n      mload\n      swap2\n      dup3\n      mstore\n      mload\n      0x58c18391fbfb633ee2f4d79e1c0c1d62597d97bc2c460d144c2583b13a2740e2\n      swap2\n      dup2\n      swap1\n      sub\n      0x20\n      add\n      swap1\n      log1\n        /* \"contracts/contracts/PriceFeed.sol\":2805:2990  function setwEthAddress(address asset) external onlyOwner {... */\n      pop\n      jump\t// out\n        /* \"contracts/contracts/PriceFeed.sol\":5019:5141  function getSourceOfAsset(address asset) external view returns (string memory) {... */\n    tag_44:\n      sub(shl(0xa0, 0x01), 0x01)\n        /* \"contracts/contracts/PriceFeed.sol\":5118:5135  assetsKeys[asset] */\n      dup2\n      and\n      0x00\n      swap1\n      dup2\n      mstore\n        /* \"contracts/contracts/PriceFeed.sol\":5118:5128  assetsKeys */\n      0x01\n        /* \"contracts/contracts/PriceFeed.sol\":5118:5135  assetsKeys[asset] */\n      0x20\n      dup2\n      dup2\n      mstore\n      0x40\n      swap3\n      dup4\n      swap1\n      keccak256\n        /* \"contracts/contracts/PriceFeed.sol\":5104:5136  return string(assetsKeys[asset]) */\n      dup1\n      sload\n      dup5\n      mload\n      0x02\n      swap5\n      dup3\n      and\n      iszero\n      0x0100\n      mul\n      not(0x00)\n      add\n      swap1\n      swap2\n      and\n      swap4\n      swap1\n      swap4\n      div\n      0x1f\n      dup2\n      add\n      dup4\n      swap1\n      div\n      dup4\n      mul\n      dup5\n      add\n      dup4\n      add\n      swap1\n      swap5\n      mstore\n      dup4\n      dup4\n      mstore\n        /* \"contracts/contracts/PriceFeed.sol\":5083:5096  string memory */\n      0x60\n      swap4\n        /* \"contracts/contracts/PriceFeed.sol\":5118:5135  assetsKeys[asset] */\n      swap1\n      swap2\n        /* \"contracts/contracts/PriceFeed.sol\":5104:5136  return string(assetsKeys[asset]) */\n      dup4\n      add\n        /* \"contracts/contracts/PriceFeed.sol\":5118:5135  assetsKeys[asset] */\n      dup3\n        /* \"contracts/contracts/PriceFeed.sol\":5104:5136  return string(assetsKeys[asset]) */\n      dup3\n      dup1\n      iszero\n      tag_113\n      jumpi\n      dup1\n      0x1f\n      lt\n      tag_114\n      jumpi\n      0x0100\n      dup1\n      dup4\n      sload\n      div\n      mul\n      dup4\n      mstore\n      swap2\n      0x20\n      add\n      swap2\n      jump(tag_113)\n    tag_114:\n      dup3\n      add\n      swap2\n      swap1\n      0x00\n      mstore\n      keccak256(0x00, 0x20)\n      swap1\n    tag_115:\n      dup2\n      sload\n      dup2\n      mstore\n      swap1\n      0x01\n      add\n      swap1\n      0x20\n      add\n      dup1\n      dup4\n      gt\n      tag_115\n      jumpi\n      dup3\n      swap1\n      sub\n      0x1f\n      and\n      dup3\n      add\n      swap2\n    tag_113:\n      pop\n      pop\n      pop\n      pop\n      pop\n      swap1\n      pop\n        /* \"contracts/contracts/PriceFeed.sol\":5019:5141  function getSourceOfAsset(address asset) external view returns (string memory) {... */\n      swap2\n      swap1\n      pop\n      jump\t// out\n        /* \"contracts/contracts/PriceFeed.sol\":1296:1352  uint256 public immutable CONVERSION_FACTOR = 10000000000 */\n    tag_50:\n      immutable(\"0x874d79415a6c1facf72c59e397422dafe50d60bcd1a0a03f27f1304ffa3c436c\")\n      dup2\n      jump\t// out\n        /* \"contracts/contracts/PriceFeed.sol\":2563:2799  function setAssetKey(address asset, string calldata key) external onlyOwner {... */\n    tag_56:\n        /* \"contracts/contracts/Dependencies/Ownable.sol\":1203:1212  isOwner() */\n      tag_117\n        /* \"contracts/contracts/Dependencies/Ownable.sol\":1203:1210  isOwner */\n      tag_38\n        /* \"contracts/contracts/Dependencies/Ownable.sol\":1203:1212  isOwner() */\n      jump\t// in\n    tag_117:\n        /* \"contracts/contracts/Dependencies/Ownable.sol\":1195:1249  require(isOwner(), \"Ownable: caller is not the owner\") */\n      tag_118\n      jumpi\n      0x40\n      dup1\n      mload\n      shl(0xe5, 0x461bcd)\n      dup2\n      mstore\n      0x20\n      0x04\n      dup3\n      add\n      dup2\n      swap1\n      mstore\n      0x24\n      dup3\n      add\n      mstore\n      0x00\n      dup1\n      mload\n      0x20\n      data_9924ebdf1add33d25d4ef888e16131f0a5687b0580a36c21b5c301a6c462effe\n      dup4\n      codecopy\n      dup2\n      mload\n      swap2\n      mstore\n      0x44\n      dup3\n      add\n      mstore\n      swap1\n      mload\n      swap1\n      dup2\n      swap1\n      sub\n      0x64\n      add\n      swap1\n      revert\n    tag_118:\n      sub(shl(0xa0, 0x01), 0x01)\n        /* \"contracts/contracts/PriceFeed.sol\":2654:2673  asset != address(0) */\n      dup4\n      and\n      iszero\n      dup1\n      iszero\n      swap1\n        /* \"contracts/contracts/PriceFeed.sol\":2654:2699  asset != address(0) && bytes(key).length != 0 */\n      tag_120\n      jumpi\n      pop\n        /* \"contracts/contracts/PriceFeed.sol\":2677:2699  bytes(key).length != 0 */\n      dup1\n      iszero\n      iszero\n        /* \"contracts/contracts/PriceFeed.sol\":2654:2699  asset != address(0) && bytes(key).length != 0 */\n    tag_120:\n        /* \"contracts/contracts/PriceFeed.sol\":2645:2723  require((asset != address(0) && bytes(key).length != 0), 'Invalid parameters') */\n      tag_121\n      jumpi\n      0x40\n      dup1\n      mload\n      shl(0xe5, 0x461bcd)\n      dup2\n      mstore\n      0x20\n      0x04\n      dup3\n      add\n      mstore\n      0x12\n      0x24\n      dup3\n      add\n      mstore\n      shl(0x70, 0x496e76616c696420706172616d6574657273)\n      0x44\n      dup3\n      add\n      mstore\n      swap1\n      mload\n      swap1\n      dup2\n      swap1\n      sub\n      0x64\n      add\n      swap1\n      revert\n    tag_121:\n      sub(shl(0xa0, 0x01), 0x01)\n        /* \"contracts/contracts/PriceFeed.sol\":2731:2748  assetsKeys[asset] */\n      dup4\n      and\n      0x00\n      swap1\n      dup2\n      mstore\n        /* \"contracts/contracts/PriceFeed.sol\":2731:2741  assetsKeys */\n      0x01\n        /* \"contracts/contracts/PriceFeed.sol\":2731:2748  assetsKeys[asset] */\n      0x20\n      mstore\n      0x40\n      swap1\n      keccak256\n        /* \"contracts/contracts/PriceFeed.sol\":2731:2754  assetsKeys[asset] = key */\n      tag_122\n      swap1\n        /* \"contracts/contracts/PriceFeed.sol\":2751:2754  key */\n      dup4\n      dup4\n        /* \"contracts/contracts/PriceFeed.sol\":2731:2754  assetsKeys[asset] = key */\n      tag_123\n      jump\t// in\n    tag_122:\n      pop\n        /* \"contracts/contracts/PriceFeed.sol\":2790:2793  key */\n      dup2\n      dup2\n        /* \"contracts/contracts/PriceFeed.sol\":2767:2794  AssetKeyUpdated(asset, key) */\n      mload(0x40)\n      dup1\n      dup4\n      dup4\n      dup1\n      dup3\n      dup5\n      calldatacopy\n      mload(0x40)\n      swap3\n      add\n      dup3\n      swap1\n      sub\n      dup3\n      keccak256\n      swap5\n      pop\n      pop\n      sub(shl(0xa0, 0x01), 0x01)\n      dup8\n      and\n      swap3\n      pop\n      0x1346085f9a075660968b9e1f053fbbcfa8642189a5f44875eea12a4c1e133b7e\n      swap2\n      pop\n      0x00\n      swap1\n      log3\n        /* \"contracts/contracts/PriceFeed.sol\":2563:2799  function setAssetKey(address asset, string calldata key) external onlyOwner {... */\n      pop\n      pop\n      pop\n      jump\t// out\n        /* \"contracts/contracts/PriceFeed.sol\":3573:3677  function setMaxPriceAgeLimit(uint256 AgeLimit) external onlyOwner {... */\n    tag_59:\n        /* \"contracts/contracts/Dependencies/Ownable.sol\":1203:1212  isOwner() */\n      tag_125\n        /* \"contracts/contracts/Dependencies/Ownable.sol\":1203:1210  isOwner */\n      tag_38\n        /* \"contracts/contracts/Dependencies/Ownable.sol\":1203:1212  isOwner() */\n      jump\t// in\n    tag_125:\n        /* \"contracts/contracts/Dependencies/Ownable.sol\":1195:1249  require(isOwner(), \"Ownable: caller is not the owner\") */\n      tag_126\n      jumpi\n      0x40\n      dup1\n      mload\n      shl(0xe5, 0x461bcd)\n      dup2\n      mstore\n      0x20\n      0x04\n      dup3\n      add\n      dup2\n      swap1\n      mstore\n      0x24\n      dup3\n      add\n      mstore\n      0x00\n      dup1\n      mload\n      0x20\n      data_9924ebdf1add33d25d4ef888e16131f0a5687b0580a36c21b5c301a6c462effe\n      dup4\n      codecopy\n      dup2\n      mload\n      swap2\n      mstore\n      0x44\n      dup3\n      add\n      mstore\n      swap1\n      mload\n      swap1\n      dup2\n      swap1\n      sub\n      0x64\n      add\n      swap1\n      revert\n    tag_126:\n        /* \"contracts/contracts/PriceFeed.sol\":3645:3661  maxPriceAgeLimit */\n      0x04\n        /* \"contracts/contracts/PriceFeed.sol\":3645:3672  maxPriceAgeLimit = AgeLimit */\n      sstore\n        /* \"contracts/contracts/PriceFeed.sol\":3573:3677  function setMaxPriceAgeLimit(uint256 AgeLimit) external onlyOwner {... */\n      jump\t// out\n        /* \"contracts/contracts/PriceFeed.sol\":1205:1243  address public immutable BASE_CURRENCY */\n    tag_61:\n      immutable(\"0xb440c9986c01395f2aa716b5d1c22f7a6f50e50754b83b93de79b9bd54339a32\")\n      dup2\n      jump\t// out\n        /* \"contracts/contracts/PriceFeed.sol\":5697:5794  function getMaxPriceAgeLimit() external view returns (uint256) {... */\n    tag_63:\n        /* \"contracts/contracts/PriceFeed.sol\":5773:5789  maxPriceAgeLimit */\n      sload(0x04)\n        /* \"contracts/contracts/PriceFeed.sol\":5697:5794  function getMaxPriceAgeLimit() external view returns (uint256) {... */\n      swap1\n      jump\t// out\n        /* \"contracts/contracts/PriceFeed.sol\":4108:4280  function _setFallbackOracle(address fallbackOracle) internal {... */\n    tag_96:\n        /* \"contracts/contracts/PriceFeed.sol\":4175:4190  _fallbackOracle */\n      0x03\n        /* \"contracts/contracts/PriceFeed.sol\":4175:4227  _fallbackOracle = IPriceOracleGetter(fallbackOracle) */\n      dup1\n      sload\n      not(sub(shl(0xa0, 0x01), 0x01))\n      and\n      sub(shl(0xa0, 0x01), 0x01)\n      dup4\n      and\n      swap1\n      dup2\n      or\n      swap1\n      swap2\n      sstore\n        /* \"contracts/contracts/PriceFeed.sol\":4238:4275  FallbackOracleUpdated(fallbackOracle) */\n      mload(0x40)\n      0xce7a780d33665b1ea097af5f155e3821b809ecbaa839d3b33aa83ba28168cefb\n      swap1\n      0x00\n      swap1\n      log2\n        /* \"contracts/contracts/PriceFeed.sol\":4108:4280  function _setFallbackOracle(address fallbackOracle) internal {... */\n      pop\n      jump\t// out\n        /* \"contracts/contracts/PriceFeed.sol\":3831:3984  function _setDIAOracle(address diaOracleAddress) internal {    ... */\n    tag_102:\n        /* \"contracts/contracts/PriceFeed.sol\":3899:3902  DIA */\n      0x05\n        /* \"contracts/contracts/PriceFeed.sol\":3899:3934  DIA = DIAOracleV2(diaOracleAddress) */\n      dup1\n      sload\n      not(sub(shl(0xa0, 0x01), 0x01))\n      and\n      sub(shl(0xa0, 0x01), 0x01)\n      dup4\n      and\n      swap1\n      dup2\n      or\n      swap1\n      swap2\n      sstore\n        /* \"contracts/contracts/PriceFeed.sol\":3945:3979  DIAOracleUpdated(diaOracleAddress) */\n      mload(0x40)\n      0x535b93d9e0be2f8cf2ba1e1f1f8c174e03aa29676b42aad916bc7190d29abe90\n      swap1\n      0x00\n      swap1\n      log2\n        /* \"contracts/contracts/PriceFeed.sol\":3831:3984  function _setDIAOracle(address diaOracleAddress) internal {    ... */\n      pop\n      jump\t// out\n    tag_123:\n      dup3\n      dup1\n      sload\n      0x01\n      dup2\n      0x01\n      and\n      iszero\n      0x0100\n      mul\n      sub\n      and\n      0x02\n      swap1\n      div\n      swap1\n      0x00\n      mstore\n      keccak256(0x00, 0x20)\n      swap1\n      0x1f\n      add\n      0x20\n      swap1\n      div\n      dup2\n      add\n      swap3\n      dup3\n      0x1f\n      lt\n      tag_132\n      jumpi\n      dup3\n      dup1\n      add\n      not(0xff)\n      dup3\n      calldataload\n      and\n      or\n      dup6\n      sstore\n      jump(tag_134)\n    tag_132:\n      dup3\n      dup1\n      add\n      0x01\n      add\n      dup6\n      sstore\n      dup3\n      iszero\n      tag_134\n      jumpi\n      swap2\n      dup3\n      add\n    tag_133:\n      dup3\n      dup2\n      gt\n      iszero\n      tag_134\n      jumpi\n      dup3\n      calldataload\n      dup3\n      sstore\n      swap2\n      0x20\n      add\n      swap2\n      swap1\n      0x01\n      add\n      swap1\n      jump(tag_133)\n    tag_134:\n      pop\n      tag_135\n      swap3\n      swap2\n      pop\n      tag_136\n      jump\t// in\n    tag_135:\n      pop\n      swap1\n      jump\t// out\n    tag_136:\n      tag_64\n      swap2\n      swap1\n    tag_138:\n      dup1\n      dup3\n      gt\n      iszero\n      tag_135\n      jumpi\n      0x00\n      dup2\n      sstore\n      0x01\n      add\n      jump(tag_138)\n    stop\n    data_9924ebdf1add33d25d4ef888e16131f0a5687b0580a36c21b5c301a6c462effe 4f776e61626c653a2063616c6c6572206973206e6f7420746865206f776e6572\n\n    auxdata: 0xa26469706673582212209c8ff8f431eeea7c286efd40c675ca6034bc73788486150ea03d20ef7568a67d64736f6c634300060b0033\n}\n",
				"bytecode": {
					"linkReferences": {},
					"object": "60e06040526402540be40060c05234801561001957600080fd5b50604051610e56380380610e56833981810160405260a081101561003c57600080fd5b50805160208201516040808401516060850151608090950151600080546001600160a01b03191633908117825593519596949592949391927f8be0079c531659141344cd1fd0a4f28419497f9722a3daafe3b4186f6b6457e0908290a36100ab856001600160e01b0361012216565b6100bd846001600160e01b0361016c16565b60048190556001600160601b0319606084901b1660805260a08290526040805183815290516001600160a01b038516917fe27c4c1372396a3d15a9922f74f9dfc7c72b1ad6d63868470787249c356454c1919081900360200190a250505050506101b6565b600580546001600160a01b0319166001600160a01b0383169081179091556040517f535b93d9e0be2f8cf2ba1e1f1f8c174e03aa29676b42aad916bc7190d29abe9090600090a250565b600380546001600160a01b0319166001600160a01b0383169081179091556040517fce7a780d33665b1ea097af5f155e3821b809ecbaa839d3b33aa83ba28168cefb90600090a250565b60805160601c60a05160c051610c626101f4600039806105e1528061092f52508061041452806107565250806103da5280610ab85250610c626000f3fe608060405234801561001057600080fd5b50600436106100f55760003560e01c80638f32d59b11610097578063d5725f1c11610066578063d5725f1c14610283578063dece273f14610303578063e19f470014610320578063f8cdd01414610328576100f5565b80638f32d59b1461019e57806392a1aebf146101ba57806392bf2be0146101e0578063bd2522811461027b576100f5565b80636210308c116100d35780636210308c1461016257806385152e45146101865780638c89b64f1461018e5780638da5cb5b14610196576100f5565b80630fdb11cf146100fa578063170aee731461011457806357fc36141461013c575b600080fd5b610102610330565b60408051918252519081900360200190f35b61013a6004803603602081101561012a57600080fd5b50356001600160a01b0316610693565b005b61013a6004803603602081101561015257600080fd5b50356001600160a01b03166106e6565b61016a610736565b604080516001600160a01b039092168252519081900360200190f35b61016a610745565b610102610754565b61016a610778565b6101a6610787565b604080519115158252519081900360200190f35b61013a600480360360208110156101d057600080fd5b50356001600160a01b0316610798565b610206600480360360208110156101f657600080fd5b50356001600160a01b0316610883565b6040805160208082528351818301528351919283929083019185019080838360005b83811015610240578181015183820152602001610228565b50505050905090810190601f16801561026d5780820380516001836020036101000a031916815260200191505b509250505060405180910390f35b61010261092d565b61013a6004803603604081101561029957600080fd5b6001600160a01b0382351691908101906040810160208201356401000000008111156102c457600080fd5b8201836020820111156102d657600080fd5b803590602001918460018302840111640100000000831117156102f857600080fd5b509092509050610951565b61013a6004803603602081101561031957600080fd5b5035610a6a565b61016a610ab6565b610102610ada565b600280546001600160a01b03166000818152600160208181526040808420805482516101009582161595909502600019011696909604601f8101839004830284018301909152808352929460609390918301828280156103d15780601f106103a6576101008083540402835291602001916103d1565b820191906000526020600020905b8154815290600101906020018083116103b457829003601f168201915b505050505090507f00000000000000000000000000000000000000000000000000000000000000006001600160a01b0316826001600160a01b0316141561043c577f000000000000000000000000000000000000000000000000000000000000000092505050610690565b80516104c5576003546040805163b3596f0760e01b81526001600160a01b0385811660048301529151919092169163b3596f07916024808301926020929190829003018186803b15801561048f57600080fd5b505afa1580156104a3573d6000803e3d6000fd5b505050506040513d60208110156104b957600080fd5b50519250610690915050565b6005546040516304b01c2560e51b815260206004820181815284516024840152845160009485946001600160a01b039091169363960384a093889390928392604490910191908501908083838b5b8381101561052b578181015183820152602001610513565b50505050905090810190601f1680156105585780820380516001836020036101000a031916815260200191505b5092505050604080518083038186803b15801561057457600080fd5b505afa158015610588573d6000803e3d6000fd5b505050506040513d604081101561059e57600080fd5b50805160209091015190925090506001600160801b038216158015906105d05750600454816001600160801b03164203105b1561060b57506001600160801b03167f0000000000000000000000000000000000000000000000000000000000000000029250610690915050565b6003546040805163b3596f0760e01b81526001600160a01b0387811660048301529151919092169163b3596f07916024808301926020929190829003018186803b15801561065857600080fd5b505afa15801561066c573d6000803e3d6000fd5b505050506040513d602081101561068257600080fd5b505194506106909350505050565b90565b61069b610787565b6106da576040805162461bcd60e51b81526020600482018190526024820152600080516020610c0d833981519152604482015290519081900360640190fd5b6106e381610ae0565b50565b6106ee610787565b61072d576040805162461bcd60e51b81526020600482018190526024820152600080516020610c0d833981519152604482015290519081900360640190fd5b6106e381610b2a565b6003546001600160a01b031690565b6005546001600160a01b031690565b7f000000000000000000000000000000000000000000000000000000000000000081565b6000546001600160a01b031690565b6000546001600160a01b0316331490565b6107a0610787565b6107df576040805162461bcd60e51b81526020600482018190526024820152600080516020610c0d833981519152604482015290519081900360640190fd5b6001600160a01b03811661082f576040805162461bcd60e51b8152602060048201526012602482015271496e76616c696420706172616d657465727360701b604482015290519081900360640190fd5b600280546001600160a01b0383166001600160a01b0319909116811790915560408051918252517f58c18391fbfb633ee2f4d79e1c0c1d62597d97bc2c460d144c2583b13a2740e29181900360200190a150565b6001600160a01b03811660009081526001602081815260409283902080548451600294821615610100026000190190911693909304601f810183900483028401830190945283835260609390918301828280156109215780601f106108f657610100808354040283529160200191610921565b820191906000526020600020905b81548152906001019060200180831161090457829003601f168201915b50505050509050919050565b7f000000000000000000000000000000000000000000000000000000000000000081565b610959610787565b610998576040805162461bcd60e51b81526020600482018190526024820152600080516020610c0d833981519152604482015290519081900360640190fd5b6001600160a01b038316158015906109af57508015155b6109f5576040805162461bcd60e51b8152602060048201526012602482015271496e76616c696420706172616d657465727360701b604482015290519081900360640190fd5b6001600160a01b0383166000908152600160205260409020610a18908383610b74565b50818160405180838380828437604051920182900382209450506001600160a01b03871692507f1346085f9a075660968b9e1f053fbbcfa8642189a5f44875eea12a4c1e133b7e9150600090a3505050565b610a72610787565b610ab1576040805162461bcd60e51b81526020600482018190526024820152600080516020610c0d833981519152604482015290519081900360640190fd5b600455565b7f000000000000000000000000000000000000000000000000000000000000000081565b60045490565b600380546001600160a01b0319166001600160a01b0383169081179091556040517fce7a780d33665b1ea097af5f155e3821b809ecbaa839d3b33aa83ba28168cefb90600090a250565b600580546001600160a01b0319166001600160a01b0383169081179091556040517f535b93d9e0be2f8cf2ba1e1f1f8c174e03aa29676b42aad916bc7190d29abe9090600090a250565b828054600181600116156101000203166002900490600052602060002090601f016020900481019282601f10610bb55782800160ff19823516178555610be2565b82800160010185558215610be2579182015b82811115610be2578235825591602001919060010190610bc7565b50610bee929150610bf2565b5090565b61069091905b80821115610bee5760008155600101610bf856fe4f776e61626c653a2063616c6c6572206973206e6f7420746865206f776e6572a26469706673582212209c8ff8f431eeea7c286efd40c675ca6034bc73788486150ea03d20ef7568a67d64736f6c634300060b0033",
					"opcodes": "PUSH1 0xE0 PUSH1 0x40 MSTORE PUSH5 0x2540BE400 PUSH1 0xC0 MSTORE CALLVALUE DUP1 ISZERO PUSH2 0x19 JUMPI PUSH1 0x0 DUP1 REVERT JUMPDEST POP PUSH1 0x40 MLOAD PUSH2 0xE56 CODESIZE SUB DUP1 PUSH2 0xE56 DUP4 CODECOPY DUP2 DUP2 ADD PUSH1 0x40 MSTORE PUSH1 0xA0 DUP2 LT ISZERO PUSH2 0x3C JUMPI PUSH1 0x0 DUP1 REVERT JUMPDEST POP DUP1 MLOAD PUSH1 0x20 DUP3 ADD MLOAD PUSH1 0x40 DUP1 DUP5 ADD MLOAD PUSH1 0x60 DUP6 ADD MLOAD PUSH1 0x80 SWAP1 SWAP6 ADD MLOAD PUSH1 0x0 DUP1 SLOAD PUSH1 0x1 PUSH1 0x1 PUSH1 0xA0 SHL SUB NOT AND CALLER SWAP1 DUP2 OR DUP3 SSTORE SWAP4 MLOAD SWAP6 SWAP7 SWAP5 SWAP6 SWAP3 SWAP5 SWAP4 SWAP2 SWAP3 PUSH32 0x8BE0079C531659141344CD1FD0A4F28419497F9722A3DAAFE3B4186F6B6457E0 SWAP1 DUP3 SWAP1 LOG3 PUSH2 0xAB DUP6 PUSH1 0x1 PUSH1 0x1 PUSH1 0xE0 SHL SUB PUSH2 0x122 AND JUMP JUMPDEST PUSH2 0xBD DUP5 PUSH1 0x1 PUSH1 0x1 PUSH1 0xE0 SHL SUB PUSH2 0x16C AND JUMP JUMPDEST PUSH1 0x4 DUP2 SWAP1 SSTORE PUSH1 0x1 PUSH1 0x1 PUSH1 0x60 SHL SUB NOT PUSH1 0x60 DUP5 SWAP1 SHL AND PUSH1 0x80 MSTORE PUSH1 0xA0 DUP3 SWAP1 MSTORE PUSH1 0x40 DUP1 MLOAD DUP4 DUP2 MSTORE SWAP1 MLOAD PUSH1 0x1 PUSH1 0x1 PUSH1 0xA0 SHL SUB DUP6 AND SWAP2 PUSH32 0xE27C4C1372396A3D15A9922F74F9DFC7C72B1AD6D63868470787249C356454C1 SWAP2 SWAP1 DUP2 SWAP1 SUB PUSH1 0x20 ADD SWAP1 LOG2 POP POP POP POP POP PUSH2 0x1B6 JUMP JUMPDEST PUSH1 0x5 DUP1 SLOAD PUSH1 0x1 PUSH1 0x1 PUSH1 0xA0 SHL SUB NOT AND PUSH1 0x1 PUSH1 0x1 PUSH1 0xA0 SHL SUB DUP4 AND SWAP1 DUP2 OR SWAP1 SWAP2 SSTORE PUSH1 0x40 MLOAD PUSH32 0x535B93D9E0BE2F8CF2BA1E1F1F8C174E03AA29676B42AAD916BC7190D29ABE90 SWAP1 PUSH1 0x0 SWAP1 LOG2 POP JUMP JUMPDEST PUSH1 0x3 DUP1 SLOAD PUSH1 0x1 PUSH1 0x1 PUSH1 0xA0 SHL SUB NOT AND PUSH1 0x1 PUSH1 0x1 PUSH1 0xA0 SHL SUB DUP4 AND SWAP1 DUP2 OR SWAP1 SWAP2 SSTORE PUSH1 0x40 MLOAD PUSH32 0xCE7A780D33665B1EA097AF5F155E3821B809ECBAA839D3B33AA83BA28168CEFB SWAP1 PUSH1 0x0 SWAP1 LOG2 POP JUMP JUMPDEST PUSH1 0x80 MLOAD PUSH1 0x60 SHR PUSH1 0xA0 MLOAD PUSH1 0xC0 MLOAD PUSH2 0xC62 PUSH2 0x1F4 PUSH1 0x0 CODECOPY DUP1 PUSH2 0x5E1 MSTORE DUP1 PUSH2 0x92F MSTORE POP DUP1 PUSH2 0x414 MSTORE DUP1 PUSH2 0x756 MSTORE POP DUP1 PUSH2 0x3DA MSTORE DUP1 PUSH2 0xAB8 MSTORE POP PUSH2 0xC62 PUSH1 0x0 RETURN INVALID PUSH1 0x80 PUSH1 0x40 MSTORE CALLVALUE DUP1 ISZERO PUSH2 0x10 JUMPI PUSH1 0x0 DUP1 REVERT JUMPDEST POP PUSH1 0x4 CALLDATASIZE LT PUSH2 0xF5 JUMPI PUSH1 0x0 CALLDATALOAD PUSH1 0xE0 SHR DUP1 PUSH4 0x8F32D59B GT PUSH2 0x97 JUMPI DUP1 PUSH4 0xD5725F1C GT PUSH2 0x66 JUMPI DUP1 PUSH4 0xD5725F1C EQ PUSH2 0x283 JUMPI DUP1 PUSH4 0xDECE273F EQ PUSH2 0x303 JUMPI DUP1 PUSH4 0xE19F4700 EQ PUSH2 0x320 JUMPI DUP1 PUSH4 0xF8CDD014 EQ PUSH2 0x328 JUMPI PUSH2 0xF5 JUMP JUMPDEST DUP1 PUSH4 0x8F32D59B EQ PUSH2 0x19E JUMPI DUP1 PUSH4 0x92A1AEBF EQ PUSH2 0x1BA JUMPI DUP1 PUSH4 0x92BF2BE0 EQ PUSH2 0x1E0 JUMPI DUP1 PUSH4 0xBD252281 EQ PUSH2 0x27B JUMPI PUSH2 0xF5 JUMP JUMPDEST DUP1 PUSH4 0x6210308C GT PUSH2 0xD3 JUMPI DUP1 PUSH4 0x6210308C EQ PUSH2 0x162 JUMPI DUP1 PUSH4 0x85152E45 EQ PUSH2 0x186 JUMPI DUP1 PUSH4 0x8C89B64F EQ PUSH2 0x18E JUMPI DUP1 PUSH4 0x8DA5CB5B EQ PUSH2 0x196 JUMPI PUSH2 0xF5 JUMP JUMPDEST DUP1 PUSH4 0xFDB11CF EQ PUSH2 0xFA JUMPI DUP1 PUSH4 0x170AEE73 EQ PUSH2 0x114 JUMPI DUP1 PUSH4 0x57FC3614 EQ PUSH2 0x13C JUMPI JUMPDEST PUSH1 0x0 DUP1 REVERT JUMPDEST PUSH2 0x102 PUSH2 0x330 JUMP JUMPDEST PUSH1 0x40 DUP1 MLOAD SWAP2 DUP3 MSTORE MLOAD SWAP1 DUP2 SWAP1 SUB PUSH1 0x20 ADD SWAP1 RETURN JUMPDEST PUSH2 0x13A PUSH1 0x4 DUP1 CALLDATASIZE SUB PUSH1 0x20 DUP2 LT ISZERO PUSH2 0x12A JUMPI PUSH1 0x0 DUP1 REVERT JUMPDEST POP CALLDATALOAD PUSH1 0x1 PUSH1 0x1 PUSH1 0xA0 SHL SUB AND PUSH2 0x693 JUMP JUMPDEST STOP JUMPDEST PUSH2 0x13A PUSH1 0x4 DUP1 CALLDATASIZE SUB PUSH1 0x20 DUP2 LT ISZERO PUSH2 0x152 JUMPI PUSH1 0x0 DUP1 REVERT JUMPDEST POP CALLDATALOAD PUSH1 0x1 PUSH1 0x1 PUSH1 0xA0 SHL SUB AND PUSH2 0x6E6 JUMP JUMPDEST PUSH2 0x16A PUSH2 0x736 JUMP JUMPDEST PUSH1 0x40 DUP1 MLOAD PUSH1 0x1 PUSH1 0x1 PUSH1 0xA0 SHL SUB SWAP1 SWAP3 AND DUP3 MSTORE MLOAD SWAP1 DUP2 SWAP1 SUB PUSH1 0x20 ADD SWAP1 RETURN JUMPDEST PUSH2 0x16A PUSH2 0x745 JUMP JUMPDEST PUSH2 0x102 PUSH2 0x754 JUMP JUMPDEST PUSH2 0x16A PUSH2 0x778 JUMP JUMPDEST PUSH2 0x1A6 PUSH2 0x787 JUMP JUMPDEST PUSH1 0x40 DUP1 MLOAD SWAP2 ISZERO ISZERO DUP3 MSTORE MLOAD SWAP1 DUP2 SWAP1 SUB PUSH1 0x20 ADD SWAP1 RETURN JUMPDEST PUSH2 0x13A PUSH1 0x4 DUP1 CALLDATASIZE SUB PUSH1 0x20 DUP2 LT ISZERO PUSH2 0x1D0 JUMPI PUSH1 0x0 DUP1 REVERT JUMPDEST POP CALLDATALOAD PUSH1 0x1 PUSH1 0x1 PUSH1 0xA0 SHL SUB AND PUSH2 0x798 JUMP JUMPDEST PUSH2 0x206 PUSH1 0x4 DUP1 CALLDATASIZE SUB PUSH1 0x20 DUP2 LT ISZERO PUSH2 0x1F6 JUMPI PUSH1 0x0 DUP1 REVERT JUMPDEST POP CALLDATALOAD PUSH1 0x1 PUSH1 0x1 PUSH1 0xA0 SHL SUB AND PUSH2 0x883 JUMP JUMPDEST PUSH1 0x40 DUP1 MLOAD PUSH1 0x20 DUP1 DUP3 MSTORE DUP4 MLOAD DUP2 DUP4 ADD MSTORE DUP4 MLOAD SWAP2 SWAP3 DUP4 SWAP3 SWAP1 DUP4 ADD SWAP2 DUP6 ADD SWAP1 DUP1 DUP4 DUP4 PUSH1 0x0 JUMPDEST DUP4 DUP2 LT ISZERO PUSH2 0x240 JUMPI DUP2 DUP2 ADD MLOAD DUP4 DUP3 ADD MSTORE PUSH1 0x20 ADD PUSH2 0x228 JUMP JUMPDEST POP POP POP POP SWAP1 POP SWAP1 DUP2 ADD SWAP1 PUSH1 0x1F AND DUP1 ISZERO PUSH2 0x26D JUMPI DUP1 DUP3 SUB DUP1 MLOAD PUSH1 0x1 DUP4 PUSH1 0x20 SUB PUSH2 0x100 EXP SUB NOT AND DUP2 MSTORE PUSH1 0x20 ADD SWAP2 POP JUMPDEST POP SWAP3 POP POP POP PUSH1 0x40 MLOAD DUP1 SWAP2 SUB SWAP1 RETURN JUMPDEST PUSH2 0x102 PUSH2 0x92D JUMP JUMPDEST PUSH2 0x13A PUSH1 0x4 DUP1 CALLDATASIZE SUB PUSH1 0x40 DUP2 LT ISZERO PUSH2 0x299 JUMPI PUSH1 0x0 DUP1 REVERT JUMPDEST PUSH1 0x1 PUSH1 0x1 PUSH1 0xA0 SHL SUB DUP3 CALLDATALOAD AND SWAP2 SWAP1 DUP2 ADD SWAP1 PUSH1 0x40 DUP2 ADD PUSH1 0x20 DUP3 ADD CALLDATALOAD PUSH5 0x100000000 DUP2 GT ISZERO PUSH2 0x2C4 JUMPI PUSH1 0x0 DUP1 REVERT JUMPDEST DUP3 ADD DUP4 PUSH1 0x20 DUP3 ADD GT ISZERO PUSH2 0x2D6 JUMPI PUSH1 0x0 DUP1 REVERT JUMPDEST DUP1 CALLDATALOAD SWAP1 PUSH1 0x20 ADD SWAP2 DUP5 PUSH1 0x1 DUP4 MUL DUP5 ADD GT PUSH5 0x100000000 DUP4 GT OR ISZERO PUSH2 0x2F8 JUMPI PUSH1 0x0 DUP1 REVERT JUMPDEST POP SWAP1 SWAP3 POP SWAP1 POP PUSH2 0x951 JUMP JUMPDEST PUSH2 0x13A PUSH1 0x4 DUP1 CALLDATASIZE SUB PUSH1 0x20 DUP2 LT ISZERO PUSH2 0x319 JUMPI PUSH1 0x0 DUP1 REVERT JUMPDEST POP CALLDATALOAD PUSH2 0xA6A JUMP JUMPDEST PUSH2 0x16A PUSH2 0xAB6 JUMP JUMPDEST PUSH2 0x102 PUSH2 0xADA JUMP JUMPDEST PUSH1 0x2 DUP1 SLOAD PUSH1 0x1 PUSH1 0x1 PUSH1 0xA0 SHL SUB AND PUSH1 0x0 DUP2 DUP2 MSTORE PUSH1 0x1 PUSH1 0x20 DUP2 DUP2 MSTORE PUSH1 0x40 DUP1 DUP5 KECCAK256 DUP1 SLOAD DUP3 MLOAD PUSH2 0x100 SWAP6 DUP3 AND ISZERO SWAP6 SWAP1 SWAP6 MUL PUSH1 0x0 NOT ADD AND SWAP7 SWAP1 SWAP7 DIV PUSH1 0x1F DUP2 ADD DUP4 SWAP1 DIV DUP4 MUL DUP5 ADD DUP4 ADD SWAP1 SWAP2 MSTORE DUP1 DUP4 MSTORE SWAP3 SWAP5 PUSH1 0x60 SWAP4 SWAP1 SWAP2 DUP4 ADD DUP3 DUP3 DUP1 ISZERO PUSH2 0x3D1 JUMPI DUP1 PUSH1 0x1F LT PUSH2 0x3A6 JUMPI PUSH2 0x100 DUP1 DUP4 SLOAD DIV MUL DUP4 MSTORE SWAP2 PUSH1 0x20 ADD SWAP2 PUSH2 0x3D1 JUMP JUMPDEST DUP3 ADD SWAP2 SWAP1 PUSH1 0x0 MSTORE PUSH1 0x20 PUSH1 0x0 KECCAK256 SWAP1 JUMPDEST DUP2 SLOAD DUP2 MSTORE SWAP1 PUSH1 0x1 ADD SWAP1 PUSH1 0x20 ADD DUP1 DUP4 GT PUSH2 0x3B4 JUMPI DUP3 SWAP1 SUB PUSH1 0x1F AND DUP3 ADD SWAP2 JUMPDEST POP POP POP POP POP SWAP1 POP PUSH32 0x0 PUSH1 0x1 PUSH1 0x1 PUSH1 0xA0 SHL SUB AND DUP3 PUSH1 0x1 PUSH1 0x1 PUSH1 0xA0 SHL SUB AND EQ ISZERO PUSH2 0x43C JUMPI PUSH32 0x0 SWAP3 POP POP POP PUSH2 0x690 JUMP JUMPDEST DUP1 MLOAD PUSH2 0x4C5 JUMPI PUSH1 0x3 SLOAD PUSH1 0x40 DUP1 MLOAD PUSH4 0xB3596F07 PUSH1 0xE0 SHL DUP2 MSTORE PUSH1 0x1 PUSH1 0x1 PUSH1 0xA0 SHL SUB DUP6 DUP2 AND PUSH1 0x4 DUP4 ADD MSTORE SWAP2 MLOAD SWAP2 SWAP1 SWAP3 AND SWAP2 PUSH4 0xB3596F07 SWAP2 PUSH1 0x24 DUP1 DUP4 ADD SWAP3 PUSH1 0x20 SWAP3 SWAP2 SWAP1 DUP3 SWAP1 SUB ADD DUP2 DUP7 DUP1 EXTCODESIZE ISZERO DUP1 ISZERO PUSH2 0x48F JUMPI PUSH1 0x0 DUP1 REVERT JUMPDEST POP GAS STATICCALL ISZERO DUP1 ISZERO PUSH2 0x4A3 JUMPI RETURNDATASIZE PUSH1 0x0 DUP1 RETURNDATACOPY RETURNDATASIZE PUSH1 0x0 REVERT JUMPDEST POP POP POP POP PUSH1 0x40 MLOAD RETURNDATASIZE PUSH1 0x20 DUP2 LT ISZERO PUSH2 0x4B9 JUMPI PUSH1 0x0 DUP1 REVERT JUMPDEST POP MLOAD SWAP3 POP PUSH2 0x690 SWAP2 POP POP JUMP JUMPDEST PUSH1 0x5 SLOAD PUSH1 0x40 MLOAD PUSH4 0x4B01C25 PUSH1 0xE5 SHL DUP2 MSTORE PUSH1 0x20 PUSH1 0x4 DUP3 ADD DUP2 DUP2 MSTORE DUP5 MLOAD PUSH1 0x24 DUP5 ADD MSTORE DUP5 MLOAD PUSH1 0x0 SWAP5 DUP6 SWAP5 PUSH1 0x1 PUSH1 0x1 PUSH1 0xA0 SHL SUB SWAP1 SWAP2 AND SWAP4 PUSH4 0x960384A0 SWAP4 DUP9 SWAP4 SWAP1 SWAP3 DUP4 SWAP3 PUSH1 0x44 SWAP1 SWAP2 ADD SWAP2 SWAP1 DUP6 ADD SWAP1 DUP1 DUP4 DUP4 DUP12 JUMPDEST DUP4 DUP2 LT ISZERO PUSH2 0x52B JUMPI DUP2 DUP2 ADD MLOAD DUP4 DUP3 ADD MSTORE PUSH1 0x20 ADD PUSH2 0x513 JUMP JUMPDEST POP POP POP POP SWAP1 POP SWAP1 DUP2 ADD SWAP1 PUSH1 0x1F AND DUP1 ISZERO PUSH2 0x558 JUMPI DUP1 DUP3 SUB DUP1 MLOAD PUSH1 0x1 DUP4 PUSH1 0x20 SUB PUSH2 0x100 EXP SUB NOT AND DUP2 MSTORE PUSH1 0x20 ADD SWAP2 POP JUMPDEST POP SWAP3 POP POP POP PUSH1 0x40 DUP1 MLOAD DUP1 DUP4 SUB DUP2 DUP7 DUP1 EXTCODESIZE ISZERO DUP1 ISZERO PUSH2 0x574 JUMPI PUSH1 0x0 DUP1 REVERT JUMPDEST POP GAS STATICCALL ISZERO DUP1 ISZERO PUSH2 0x588 JUMPI RETURNDATASIZE PUSH1 0x0 DUP1 RETURNDATACOPY RETURNDATASIZE PUSH1 0x0 REVERT JUMPDEST POP POP POP POP PUSH1 0x40 MLOAD RETURNDATASIZE PUSH1 0x40 DUP2 LT ISZERO PUSH2 0x59E JUMPI PUSH1 0x0 DUP1 REVERT JUMPDEST POP DUP1 MLOAD PUSH1 0x20 SWAP1 SWAP2 ADD MLOAD SWAP1 SWAP3 POP SWAP1 POP PUSH1 0x1 PUSH1 0x1 PUSH1 0x80 SHL SUB DUP3 AND ISZERO DUP1 ISZERO SWAP1 PUSH2 0x5D0 JUMPI POP PUSH1 0x4 SLOAD DUP2 PUSH1 0x1 PUSH1 0x1 PUSH1 0x80 SHL SUB AND TIMESTAMP SUB LT JUMPDEST ISZERO PUSH2 0x60B JUMPI POP PUSH1 0x1 PUSH1 0x1 PUSH1 0x80 SHL SUB AND PUSH32 0x0 MUL SWAP3 POP PUSH2 0x690 SWAP2 POP POP JUMP JUMPDEST PUSH1 0x3 SLOAD PUSH1 0x40 DUP1 MLOAD PUSH4 0xB3596F07 PUSH1 0xE0 SHL DUP2 MSTORE PUSH1 0x1 PUSH1 0x1 PUSH1 0xA0 SHL SUB DUP8 DUP2 AND PUSH1 0x4 DUP4 ADD MSTORE SWAP2 MLOAD SWAP2 SWAP1 SWAP3 AND SWAP2 PUSH4 0xB3596F07 SWAP2 PUSH1 0x24 DUP1 DUP4 ADD SWAP3 PUSH1 0x20 SWAP3 SWAP2 SWAP1 DUP3 SWAP1 SUB ADD DUP2 DUP7 DUP1 EXTCODESIZE ISZERO DUP1 ISZERO PUSH2 0x658 JUMPI PUSH1 0x0 DUP1 REVERT JUMPDEST POP GAS STATICCALL ISZERO DUP1 ISZERO PUSH2 0x66C JUMPI RETURNDATASIZE PUSH1 0x0 DUP1 RETURNDATACOPY RETURNDATASIZE PUSH1 0x0 REVERT JUMPDEST POP POP POP POP PUSH1 0x40 MLOAD RETURNDATASIZE PUSH1 0x20 DUP2 LT ISZERO PUSH2 0x682 JUMPI PUSH1 0x0 DUP1 REVERT JUMPDEST POP MLOAD SWAP5 POP PUSH2 0x690 SWAP4 POP POP POP POP JUMP JUMPDEST SWAP1 JUMP JUMPDEST PUSH2 0x69B PUSH2 0x787 JUMP JUMPDEST PUSH2 0x6DA JUMPI PUSH1 0x40 DUP1 MLOAD PUSH3 0x461BCD PUSH1 0xE5 SHL DUP2 MSTORE PUSH1 0x20 PUSH1 0x4 DUP3 ADD DUP2 SWAP1 MSTORE PUSH1 0x24 DUP3 ADD MSTORE PUSH1 0x0 DUP1 MLOAD PUSH1 0x20 PUSH2 0xC0D DUP4 CODECOPY DUP2 MLOAD SWAP2 MSTORE PUSH1 0x44 DUP3 ADD MSTORE SWAP1 MLOAD SWAP1 DUP2 SWAP1 SUB PUSH1 0x64 ADD SWAP1 REVERT JUMPDEST PUSH2 0x6E3 DUP2 PUSH2 0xAE0 JUMP JUMPDEST POP JUMP JUMPDEST PUSH2 0x6EE PUSH2 0x787 JUMP JUMPDEST PUSH2 0x72D JUMPI PUSH1 0x40 DUP1 MLOAD PUSH3 0x461BCD PUSH1 0xE5 SHL DUP2 MSTORE PUSH1 0x20 PUSH1 0x4 DUP3 ADD DUP2 SWAP1 MSTORE PUSH1 0x24 DUP3 ADD MSTORE PUSH1 0x0 DUP1 MLOAD PUSH1 0x20 PUSH2 0xC0D DUP4 CODECOPY DUP2 MLOAD SWAP2 MSTORE PUSH1 0x44 DUP3 ADD MSTORE SWAP1 MLOAD SWAP1 DUP2 SWAP1 SUB PUSH1 0x64 ADD SWAP1 REVERT JUMPDEST PUSH2 0x6E3 DUP2 PUSH2 0xB2A JUMP JUMPDEST PUSH1 0x3 SLOAD PUSH1 0x1 PUSH1 0x1 PUSH1 0xA0 SHL SUB AND SWAP1 JUMP JUMPDEST PUSH1 0x5 SLOAD PUSH1 0x1 PUSH1 0x1 PUSH1 0xA0 SHL SUB AND SWAP1 JUMP JUMPDEST PUSH32 0x0 DUP2 JUMP JUMPDEST PUSH1 0x0 SLOAD PUSH1 0x1 PUSH1 0x1 PUSH1 0xA0 SHL SUB AND SWAP1 JUMP JUMPDEST PUSH1 0x0 SLOAD PUSH1 0x1 PUSH1 0x1 PUSH1 0xA0 SHL SUB AND CALLER EQ SWAP1 JUMP JUMPDEST PUSH2 0x7A0 PUSH2 0x787 JUMP JUMPDEST PUSH2 0x7DF JUMPI PUSH1 0x40 DUP1 MLOAD PUSH3 0x461BCD PUSH1 0xE5 SHL DUP2 MSTORE PUSH1 0x20 PUSH1 0x4 DUP3 ADD DUP2 SWAP1 MSTORE PUSH1 0x24 DUP3 ADD MSTORE PUSH1 0x0 DUP1 MLOAD PUSH1 0x20 PUSH2 0xC0D DUP4 CODECOPY DUP2 MLOAD SWAP2 MSTORE PUSH1 0x44 DUP3 ADD MSTORE SWAP1 MLOAD SWAP1 DUP2 SWAP1 SUB PUSH1 0x64 ADD SWAP1 REVERT JUMPDEST PUSH1 0x1 PUSH1 0x1 PUSH1 0xA0 SHL SUB DUP2 AND PUSH2 0x82F JUMPI PUSH1 0x40 DUP1 MLOAD PUSH3 0x461BCD PUSH1 0xE5 SHL DUP2 MSTORE PUSH1 0x20 PUSH1 0x4 DUP3 ADD MSTORE PUSH1 0x12 PUSH1 0x24 DUP3 ADD MSTORE PUSH18 0x496E76616C696420706172616D6574657273 PUSH1 0x70 SHL PUSH1 0x44 DUP3 ADD MSTORE SWAP1 MLOAD SWAP1 DUP2 SWAP1 SUB PUSH1 0x64 ADD SWAP1 REVERT JUMPDEST PUSH1 0x2 DUP1 SLOAD PUSH1 0x1 PUSH1 0x1 PUSH1 0xA0 SHL SUB DUP4 AND PUSH1 0x1 PUSH1 0x1 PUSH1 0xA0 SHL SUB NOT SWAP1 SWAP2 AND DUP2 OR SWAP1 SWAP2 SSTORE PUSH1 0x40 DUP1 MLOAD SWAP2 DUP3 MSTORE MLOAD PUSH32 0x58C18391FBFB633EE2F4D79E1C0C1D62597D97BC2C460D144C2583B13A2740E2 SWAP2 DUP2 SWAP1 SUB PUSH1 0x20 ADD SWAP1 LOG1 POP JUMP JUMPDEST PUSH1 0x1 PUSH1 0x1 PUSH1 0xA0 SHL SUB DUP2 AND PUSH1 0x0 SWAP1 DUP2 MSTORE PUSH1 0x1 PUSH1 0x20 DUP2 DUP2 MSTORE PUSH1 0x40 SWAP3 DUP4 SWAP1 KECCAK256 DUP1 SLOAD DUP5 MLOAD PUSH1 0x2 SWAP5 DUP3 AND ISZERO PUSH2 0x100 MUL PUSH1 0x0 NOT ADD SWAP1 SWAP2 AND SWAP4 SWAP1 SWAP4 DIV PUSH1 0x1F DUP2 ADD DUP4 SWAP1 DIV DUP4 MUL DUP5 ADD DUP4 ADD SWAP1 SWAP5 MSTORE DUP4 DUP4 MSTORE PUSH1 0x60 SWAP4 SWAP1 SWAP2 DUP4 ADD DUP3 DUP3 DUP1 ISZERO PUSH2 0x921 JUMPI DUP1 PUSH1 0x1F LT PUSH2 0x8F6 JUMPI PUSH2 0x100 DUP1 DUP4 SLOAD DIV MUL DUP4 MSTORE SWAP2 PUSH1 0x20 ADD SWAP2 PUSH2 0x921 JUMP JUMPDEST DUP3 ADD SWAP2 SWAP1 PUSH1 0x0 MSTORE PUSH1 0x20 PUSH1 0x0 KECCAK256 SWAP1 JUMPDEST DUP2 SLOAD DUP2 MSTORE SWAP1 PUSH1 0x1 ADD SWAP1 PUSH1 0x20 ADD DUP1 DUP4 GT PUSH2 0x904 JUMPI DUP3 SWAP1 SUB PUSH1 0x1F AND DUP3 ADD SWAP2 JUMPDEST POP POP POP POP POP SWAP1 POP SWAP2 SWAP1 POP JUMP JUMPDEST PUSH32 0x0 DUP2 JUMP JUMPDEST PUSH2 0x959 PUSH2 0x787 JUMP JUMPDEST PUSH2 0x998 JUMPI PUSH1 0x40 DUP1 MLOAD PUSH3 0x461BCD PUSH1 0xE5 SHL DUP2 MSTORE PUSH1 0x20 PUSH1 0x4 DUP3 ADD DUP2 SWAP1 MSTORE PUSH1 0x24 DUP3 ADD MSTORE PUSH1 0x0 DUP1 MLOAD PUSH1 0x20 PUSH2 0xC0D DUP4 CODECOPY DUP2 MLOAD SWAP2 MSTORE PUSH1 0x44 DUP3 ADD MSTORE SWAP1 MLOAD SWAP1 DUP2 SWAP1 SUB PUSH1 0x64 ADD SWAP1 REVERT JUMPDEST PUSH1 0x1 PUSH1 0x1 PUSH1 0xA0 SHL SUB DUP4 AND ISZERO DUP1 ISZERO SWAP1 PUSH2 0x9AF JUMPI POP DUP1 ISZERO ISZERO JUMPDEST PUSH2 0x9F5 JUMPI PUSH1 0x40 DUP1 MLOAD PUSH3 0x461BCD PUSH1 0xE5 SHL DUP2 MSTORE PUSH1 0x20 PUSH1 0x4 DUP3 ADD MSTORE PUSH1 0x12 PUSH1 0x24 DUP3 ADD MSTORE PUSH18 0x496E76616C696420706172616D6574657273 PUSH1 0x70 SHL PUSH1 0x44 DUP3 ADD MSTORE SWAP1 MLOAD SWAP1 DUP2 SWAP1 SUB PUSH1 0x64 ADD SWAP1 REVERT JUMPDEST PUSH1 0x1 PUSH1 0x1 PUSH1 0xA0 SHL SUB DUP4 AND PUSH1 0x0 SWAP1 DUP2 MSTORE PUSH1 0x1 PUSH1 0x20 MSTORE PUSH1 0x40 SWAP1 KECCAK256 PUSH2 0xA18 SWAP1 DUP4 DUP4 PUSH2 0xB74 JUMP JUMPDEST POP DUP2 DUP2 PUSH1 0x40 MLOAD DUP1 DUP4 DUP4 DUP1 DUP3 DUP5 CALLDATACOPY PUSH1 0x40 MLOAD SWAP3 ADD DUP3 SWAP1 SUB DUP3 KECCAK256 SWAP5 POP POP PUSH1 0x1 PUSH1 0x1 PUSH1 0xA0 SHL SUB DUP8 AND SWAP3 POP PUSH32 0x1346085F9A075660968B9E1F053FBBCFA8642189A5F44875EEA12A4C1E133B7E SWAP2 POP PUSH1 0x0 SWAP1 LOG3 POP POP POP JUMP JUMPDEST PUSH2 0xA72 PUSH2 0x787 JUMP JUMPDEST PUSH2 0xAB1 JUMPI PUSH1 0x40 DUP1 MLOAD PUSH3 0x461BCD PUSH1 0xE5 SHL DUP2 MSTORE PUSH1 0x20 PUSH1 0x4 DUP3 ADD DUP2 SWAP1 MSTORE PUSH1 0x24 DUP3 ADD MSTORE PUSH1 0x0 DUP1 MLOAD PUSH1 0x20 PUSH2 0xC0D DUP4 CODECOPY DUP2 MLOAD SWAP2 MSTORE PUSH1 0x44 DUP3 ADD MSTORE SWAP1 MLOAD SWAP1 DUP2 SWAP1 SUB PUSH1 0x64 ADD SWAP1 REVERT JUMPDEST PUSH1 0x4 SSTORE JUMP JUMPDEST PUSH32 0x0 DUP2 JUMP JUMPDEST PUSH1 0x4 SLOAD SWAP1 JUMP JUMPDEST PUSH1 0x3 DUP1 SLOAD PUSH1 0x1 PUSH1 0x1 PUSH1 0xA0 SHL SUB NOT AND PUSH1 0x1 PUSH1 0x1 PUSH1 0xA0 SHL SUB DUP4 AND SWAP1 DUP2 OR SWAP1 SWAP2 SSTORE PUSH1 0x40 MLOAD PUSH32 0xCE7A780D33665B1EA097AF5F155E3821B809ECBAA839D3B33AA83BA28168CEFB SWAP1 PUSH1 0x0 SWAP1 LOG2 POP JUMP JUMPDEST PUSH1 0x5 DUP1 SLOAD PUSH1 0x1 PUSH1 0x1 PUSH1 0xA0 SHL SUB NOT AND PUSH1 0x1 PUSH1 0x1 PUSH1 0xA0 SHL SUB DUP4 AND SWAP1 DUP2 OR SWAP1 SWAP2 SSTORE PUSH1 0x40 MLOAD PUSH32 0x535B93D9E0BE2F8CF2BA1E1F1F8C174E03AA29676B42AAD916BC7190D29ABE90 SWAP1 PUSH1 0x0 SWAP1 LOG2 POP JUMP JUMPDEST DUP3 DUP1 SLOAD PUSH1 0x1 DUP2 PUSH1 0x1 AND ISZERO PUSH2 0x100 MUL SUB AND PUSH1 0x2 SWAP1 DIV SWAP1 PUSH1 0x0 MSTORE PUSH1 0x20 PUSH1 0x0 KECCAK256 SWAP1 PUSH1 0x1F ADD PUSH1 0x20 SWAP1 DIV DUP2 ADD SWAP3 DUP3 PUSH1 0x1F LT PUSH2 0xBB5 JUMPI DUP3 DUP1 ADD PUSH1 0xFF NOT DUP3 CALLDATALOAD AND OR DUP6 SSTORE PUSH2 0xBE2 JUMP JUMPDEST DUP3 DUP1 ADD PUSH1 0x1 ADD DUP6 SSTORE DUP3 ISZERO PUSH2 0xBE2 JUMPI SWAP2 DUP3 ADD JUMPDEST DUP3 DUP2 GT ISZERO PUSH2 0xBE2 JUMPI DUP3 CALLDATALOAD DUP3 SSTORE SWAP2 PUSH1 0x20 ADD SWAP2 SWAP1 PUSH1 0x1 ADD SWAP1 PUSH2 0xBC7 JUMP JUMPDEST POP PUSH2 0xBEE SWAP3 SWAP2 POP PUSH2 0xBF2 JUMP JUMPDEST POP SWAP1 JUMP JUMPDEST PUSH2 0x690 SWAP2 SWAP1 JUMPDEST DUP1 DUP3 GT ISZERO PUSH2 0xBEE JUMPI PUSH1 0x0 DUP2 SSTORE PUSH1 0x1 ADD PUSH2 0xBF8 JUMP INVALID 0x4F PUSH24 0x6E61626C653A2063616C6C6572206973206E6F7420746865 KECCAK256 PUSH16 0x776E6572A26469706673582212209C8F 0xF8 DELEGATECALL BALANCE 0xEE 0xEA PUSH29 0x286EFD40C675CA6034BC73788486150EA03D20EF7568A67D64736F6C63 NUMBER STOP MOD SIGNEXTEND STOP CALLER "
				},
				"gasEstimates": {
					"creation": {
						"codeDepositCost": "634000",
						"executionCost": "infinite",
						"totalCost": "infinite"
					},
					"external": {
						"BASE_CURRENCY()": "infinite",
						"BASE_CURRENCY_UNIT()": "infinite",
						"CONVERSION_FACTOR()": "infinite",
						"fetchPrice()": "infinite",
						"getFallbackOracle()": "1060",
						"getMasterOracle()": "1082",
						"getMaxPriceAgeLimit()": "1086",
						"getSourceOfAsset(address)": "infinite",
						"isOwner()": "1050",
						"owner()": "1126",
						"setAssetKey(address,string)": "infinite",
						"setDIAOracle(address)": "infinite",
						"setFallbackOracle(address)": "infinite",
						"setMaxPriceAgeLimit(uint256)": "infinite",
						"setwEthAddress(address)": "infinite"
					},
					"internal": {
						"_setDIAOracle(address)": "22026",
						"_setFallbackOracle(address)": "22026"
					}
				},
				"methodIdentifiers": {
					"BASE_CURRENCY()": "e19f4700",
					"BASE_CURRENCY_UNIT()": "8c89b64f",
					"CONVERSION_FACTOR()": "bd252281",
					"fetchPrice()": "0fdb11cf",
					"getFallbackOracle()": "6210308c",
					"getMasterOracle()": "85152e45",
					"getMaxPriceAgeLimit()": "f8cdd014",
					"getSourceOfAsset(address)": "92bf2be0",
					"isOwner()": "8f32d59b",
					"owner()": "8da5cb5b",
					"setAssetKey(address,string)": "d5725f1c",
					"setDIAOracle(address)": "57fc3614",
					"setFallbackOracle(address)": "170aee73",
					"setMaxPriceAgeLimit(uint256)": "dece273f",
					"setwEthAddress(address)": "92a1aebf"
				}
			},
			"storageLayout": {
				"storage": [
					{
						"astId": 140,
						"contract": "contracts/contracts/PriceFeed.sol:PriceFeed",
						"label": "_owner",
						"offset": 0,
						"slot": "0",
						"type": "t_address"
					},
					{
						"astId": 280,
						"contract": "contracts/contracts/PriceFeed.sol:PriceFeed",
						"label": "assetsKeys",
						"offset": 0,
						"slot": "1",
						"type": "t_mapping(t_address,t_string_storage)"
					},
					{
						"astId": 282,
						"contract": "contracts/contracts/PriceFeed.sol:PriceFeed",
						"label": "wEthAddress",
						"offset": 0,
						"slot": "2",
						"type": "t_address"
					},
					{
						"astId": 284,
						"contract": "contracts/contracts/PriceFeed.sol:PriceFeed",
						"label": "_fallbackOracle",
						"offset": 0,
						"slot": "3",
						"type": "t_contract(IPriceOracleGetter)242"
					},
					{
						"astId": 293,
						"contract": "contracts/contracts/PriceFeed.sol:PriceFeed",
						"label": "maxPriceAgeLimit",
						"offset": 0,
						"slot": "4",
						"type": "t_uint256"
					},
					{
						"astId": 295,
						"contract": "contracts/contracts/PriceFeed.sol:PriceFeed",
						"label": "DIA",
						"offset": 0,
						"slot": "5",
						"type": "t_contract(DIAOracleV2)135"
					}
				],
				"types": {
					"t_address": {
						"encoding": "inplace",
						"label": "address",
						"numberOfBytes": "20"
					},
					"t_contract(DIAOracleV2)135": {
						"encoding": "inplace",
						"label": "contract DIAOracleV2",
						"numberOfBytes": "20"
					},
					"t_contract(IPriceOracleGetter)242": {
						"encoding": "inplace",
						"label": "contract IPriceOracleGetter",
						"numberOfBytes": "20"
					},
					"t_mapping(t_address,t_string_storage)": {
						"encoding": "mapping",
						"key": "t_address",
						"label": "mapping(address => string)",
						"numberOfBytes": "32",
						"value": "t_string_storage"
					},
					"t_string_storage": {
						"encoding": "bytes",
						"label": "string",
						"numberOfBytes": "32"
					},
					"t_uint256": {
						"encoding": "inplace",
						"label": "uint256",
						"numberOfBytes": "32"
					}
				}
			},
			"userdoc": {
				"kind": "user",
				"methods": {
					"constructor": "Constructor",
					"getFallbackOracle()": {
						"notice": "Gets the address of the fallback oracle"
					},
					"getMasterOracle()": {
						"notice": "Gets the address of the master oracle"
					},
					"getMaxPriceAgeLimit()": {
						"notice": "Gets the maximum age that the oracle price can be before the call is routed to fallback"
					},
					"setAssetKey(address,string)": {
						"notice": "External function called to set or replace DIA keys for assets. "
					},
					"setDIAOracle(address)": {
						"notice": "Sets the MasterOracle"
					},
					"setFallbackOracle(address)": {
						"notice": "Sets the fallbackOracle"
					},
					"setMaxPriceAgeLimit(uint256)": {
						"notice": "Sets the max age that an oracle price can be before fallback oracle is called"
					}
				},
				"notice": "Proxy smart contract to get the price of an asset from a price source, with DIA oracle         smart contracts as primary option - If the returned price by DIA is <= 0, or price is older than maxPriceAgeLimit the call is forwarded to a fallbackOracle - Owned by the OmniDex governance system, allowed to add keys for assets, replace them,   change master oracle and change the fallbackOracle",
				"version": 1
			}
		}
	}
}