{
	"contracts/contracts/Oracle.sol": {
		"PriceFeed": {
			"abi": [
				{
					"inputs": [
						{
							"internalType": "address",
							"name": "DIAOracleAddress",
							"type": "address"
						}
					],
					"stateMutability": "nonpayable",
					"type": "constructor"
				},
				{
					"anonymous": false,
					"inputs": [
						{
							"indexed": false,
							"internalType": "uint256",
							"name": "_lastGoodPrice",
							"type": "uint256"
						}
					],
					"name": "LastGoodPriceUpdated",
					"type": "event"
				},
				{
					"anonymous": false,
					"inputs": [
						{
							"indexed": true,
							"internalType": "address",
							"name": "previousOwner",
							"type": "address"
						},
						{
							"indexed": true,
							"internalType": "address",
							"name": "newOwner",
							"type": "address"
						}
					],
					"name": "OwnershipTransferred",
					"type": "event"
				},
				{
					"inputs": [],
					"name": "KEY",
					"outputs": [
						{
							"internalType": "string",
							"name": "",
							"type": "string"
						}
					],
					"stateMutability": "view",
					"type": "function"
				},
				{
					"inputs": [],
					"name": "fetchPrice",
					"outputs": [
						{
							"internalType": "uint256",
							"name": "",
							"type": "uint256"
						}
					],
					"stateMutability": "nonpayable",
					"type": "function"
				},
				{
					"inputs": [],
					"name": "isOwner",
					"outputs": [
						{
							"internalType": "bool",
							"name": "",
							"type": "bool"
						}
					],
					"stateMutability": "view",
					"type": "function"
				},
				{
					"inputs": [],
					"name": "owner",
					"outputs": [
						{
							"internalType": "address",
							"name": "",
							"type": "address"
						}
					],
					"stateMutability": "view",
					"type": "function"
				},
				{
					"inputs": [
						{
							"internalType": "address",
							"name": "diaOracleAddress",
							"type": "address"
						}
					],
					"name": "setDIAOracle",
					"outputs": [],
					"stateMutability": "nonpayable",
					"type": "function"
				}
			],
			"devdoc": {
				"kind": "dev",
				"methods": {
					"isOwner()": {
						"details": "Returns true if the caller is the current owner."
					},
					"owner()": {
						"details": "Returns the address of the current owner."
					}
				},
				"version": 1
			},
			"evm": {
				"assembly": "    /* \"contracts/contracts/Oracle.sol\":292:321  string public KEY = \"ETH/USD\" */\n  0xc0\n    /* \"contracts/contracts/Oracle.sol\":219:915  contract PriceFeed is IPriceFeed, Ownable {... */\n  0x40\n    /* \"contracts/contracts/Oracle.sol\":292:321  string public KEY = \"ETH/USD\" */\n  mstore\n  0x07\n    /* \"contracts/contracts/Oracle.sol\":219:915  contract PriceFeed is IPriceFeed, Ownable {... */\n  0x80\n    /* \"contracts/contracts/Oracle.sol\":292:321  string public KEY = \"ETH/USD\" */\n  dup2\n  swap1\n  mstore\n  shl(0xca, 0x1155120bd554d1)\n  0xa0\n  swap1\n  dup2\n  mstore\n  tag_1\n  swap2\n  0x02\n  swap2\n  swap1\n  tag_2\n  jump\t// in\ntag_1:\n  pop\n    /* \"contracts/contracts/Oracle.sol\":328:424  constructor( address DIAOracleAddress ) public { ... */\n  callvalue\n  dup1\n  iszero\n  tag_3\n  jumpi\n  0x00\n  dup1\n  revert\ntag_3:\n  pop\n  mload(0x40)\n  sub(codesize, bytecodeSize)\n  dup1\n  bytecodeSize\n  dup4\n  codecopy\n  dup2\n  dup2\n  add\n  0x40\n  mstore\n  0x20\n  dup2\n  lt\n  iszero\n  tag_4\n  jumpi\n  0x00\n  dup1\n  revert\ntag_4:\n  pop\n  mload\n    /* \"contracts/contracts/Dependencies/Ownable.sol\":838:844  _owner */\n  0x00\n    /* \"contracts/contracts/Dependencies/Ownable.sol\":838:857  _owner = msg.sender */\n  dup1\n  sload\n  not(sub(shl(0xa0, 0x01), 0x01))\n  and\n    /* \"contracts/contracts/Dependencies/Ownable.sol\":847:857  msg.sender */\n  caller\n    /* \"contracts/contracts/Dependencies/Ownable.sol\":838:857  _owner = msg.sender */\n  swap1\n  dup2\n  or\n  dup3\n  sstore\n    /* \"contracts/contracts/Dependencies/Ownable.sol\":872:916  OwnershipTransferred(address(0), msg.sender) */\n  mload(0x40)\n    /* \"contracts/contracts/Dependencies/Ownable.sol\":847:857  msg.sender */\n  swap1\n  swap2\n    /* \"contracts/contracts/Dependencies/Ownable.sol\":838:844  _owner */\n  swap1\n    /* \"contracts/contracts/Dependencies/Ownable.sol\":872:916  OwnershipTransferred(address(0), msg.sender) */\n  0x8be0079c531659141344cd1fd0a4f28419497f9722a3daafe3b4186f6b6457e0\n  swap1\n    /* \"contracts/contracts/Dependencies/Ownable.sol\":838:844  _owner */\n  dup3\n  swap1\n    /* \"contracts/contracts/Dependencies/Ownable.sol\":872:916  OwnershipTransferred(address(0), msg.sender) */\n  log3\n    /* \"contracts/contracts/Oracle.sol\":386:417  _setDIAOracle(DIAOracleAddress) */\n  tag_9\n    /* \"contracts/contracts/Oracle.sol\":400:416  DIAOracleAddress */\n  dup2\n  sub(shl(0xe0, 0x01), 0x01)\n    /* \"contracts/contracts/Oracle.sol\":386:399  _setDIAOracle */\n  tag_10\n    /* \"contracts/contracts/Oracle.sol\":386:417  _setDIAOracle(DIAOracleAddress) */\n  and\n  jump\t// in\ntag_9:\n    /* \"contracts/contracts/Oracle.sol\":328:424  constructor( address DIAOracleAddress ) public { ... */\n  pop\n    /* \"contracts/contracts/Oracle.sol\":219:915  contract PriceFeed is IPriceFeed, Ownable {... */\n  jump(tag_11)\n    /* \"contracts/contracts/Oracle.sol\":560:675  function _setDIAOracle(address diaOracleAddress) internal {    ... */\ntag_10:\n    /* \"contracts/contracts/Oracle.sol\":634:637  DIA */\n  0x01\n    /* \"contracts/contracts/Oracle.sol\":634:668  DIA = IDIAOracle(diaOracleAddress) */\n  dup1\n  sload\n  not(sub(shl(0xa0, 0x01), 0x01))\n  and\n  sub(shl(0xa0, 0x01), 0x01)\n  swap3\n  swap1\n  swap3\n  and\n  swap2\n  swap1\n  swap2\n  or\n  swap1\n  sstore\n    /* \"contracts/contracts/Oracle.sol\":560:675  function _setDIAOracle(address diaOracleAddress) internal {    ... */\n  jump\t// out\n    /* \"contracts/contracts/Oracle.sol\":219:915  contract PriceFeed is IPriceFeed, Ownable {... */\ntag_2:\n  dup3\n  dup1\n  sload\n  0x01\n  dup2\n  0x01\n  and\n  iszero\n  0x0100\n  mul\n  sub\n  and\n  0x02\n  swap1\n  div\n  swap1\n  0x00\n  mstore\n  keccak256(0x00, 0x20)\n  swap1\n  0x1f\n  add\n  0x20\n  swap1\n  div\n  dup2\n  add\n  swap3\n  dup3\n  0x1f\n  lt\n  tag_14\n  jumpi\n  dup1\n  mload\n  not(0xff)\n  and\n  dup4\n  dup1\n  add\n  or\n  dup6\n  sstore\n  jump(tag_16)\ntag_14:\n  dup3\n  dup1\n  add\n  0x01\n  add\n  dup6\n  sstore\n  dup3\n  iszero\n  tag_16\n  jumpi\n  swap2\n  dup3\n  add\ntag_15:\n  dup3\n  dup2\n  gt\n  iszero\n  tag_16\n  jumpi\n  dup3\n  mload\n  dup3\n  sstore\n  swap2\n  0x20\n  add\n  swap2\n  swap1\n  0x01\n  add\n  swap1\n  jump(tag_15)\ntag_16:\n  pop\n  tag_17\n  swap3\n  swap2\n  pop\n  tag_18\n  jump\t// in\ntag_17:\n  pop\n  swap1\n  jump\t// out\ntag_18:\n  tag_19\n  swap2\n  swap1\ntag_20:\n  dup1\n  dup3\n  gt\n  iszero\n  tag_17\n  jumpi\n  0x00\n  dup2\n  sstore\n  0x01\n  add\n  jump(tag_20)\ntag_19:\n  swap1\n  jump\t// out\ntag_11:\n  dataSize(sub_0)\n  dup1\n  dataOffset(sub_0)\n  0x00\n  codecopy\n  0x00\n  return\nstop\n\nsub_0: assembly {\n        /* \"contracts/contracts/Oracle.sol\":219:915  contract PriceFeed is IPriceFeed, Ownable {... */\n      mstore(0x40, 0x80)\n      callvalue\n      dup1\n      iszero\n      tag_1\n      jumpi\n      0x00\n      dup1\n      revert\n    tag_1:\n      pop\n      jumpi(tag_2, lt(calldatasize, 0x04))\n      shr(0xe0, calldataload(0x00))\n      dup1\n      0x0fdb11cf\n      eq\n      tag_3\n      jumpi\n      dup1\n      0x2dc387b3\n      eq\n      tag_4\n      jumpi\n      dup1\n      0x57fc3614\n      eq\n      tag_5\n      jumpi\n      dup1\n      0x8da5cb5b\n      eq\n      tag_6\n      jumpi\n      dup1\n      0x8f32d59b\n      eq\n      tag_7\n      jumpi\n    tag_2:\n      0x00\n      dup1\n      revert\n        /* \"contracts/contracts/Oracle.sol\":706:912  function fetchPrice() external override returns (uint256) {... */\n    tag_3:\n      tag_8\n      tag_9\n      jump\t// in\n    tag_8:\n      0x40\n      dup1\n      mload\n      swap2\n      dup3\n      mstore\n      mload\n      swap1\n      dup2\n      swap1\n      sub\n      0x20\n      add\n      swap1\n      return\n        /* \"contracts/contracts/Oracle.sol\":292:321  string public KEY = \"ETH/USD\" */\n    tag_4:\n      tag_10\n      tag_11\n      jump\t// in\n    tag_10:\n      0x40\n      dup1\n      mload\n      0x20\n      dup1\n      dup3\n      mstore\n      dup4\n      mload\n      dup2\n      dup4\n      add\n      mstore\n      dup4\n      mload\n      swap2\n      swap3\n      dup4\n      swap3\n      swap1\n      dup4\n      add\n      swap2\n      dup6\n      add\n      swap1\n      dup1\n      dup4\n      dup4\n      0x00\n    tag_12:\n      dup4\n      dup2\n      lt\n      iszero\n      tag_14\n      jumpi\n      dup2\n      dup2\n      add\n      mload\n      dup4\n      dup3\n      add\n      mstore\n      0x20\n      add\n      jump(tag_12)\n    tag_14:\n      pop\n      pop\n      pop\n      pop\n      swap1\n      pop\n      swap1\n      dup2\n      add\n      swap1\n      0x1f\n      and\n      dup1\n      iszero\n      tag_15\n      jumpi\n      dup1\n      dup3\n      sub\n      dup1\n      mload\n      0x01\n      dup4\n      0x20\n      sub\n      0x0100\n      exp\n      sub\n      not\n      and\n      dup2\n      mstore\n      0x20\n      add\n      swap2\n      pop\n    tag_15:\n      pop\n      swap3\n      pop\n      pop\n      pop\n      mload(0x40)\n      dup1\n      swap2\n      sub\n      swap1\n      return\n        /* \"contracts/contracts/Oracle.sol\":430:548  function setDIAOracle(address diaOracleAddress) external onlyOwner {... */\n    tag_5:\n      tag_16\n      0x04\n      dup1\n      calldatasize\n      sub\n      0x20\n      dup2\n      lt\n      iszero\n      tag_17\n      jumpi\n      0x00\n      dup1\n      revert\n    tag_17:\n      pop\n      calldataload\n      sub(shl(0xa0, 0x01), 0x01)\n      and\n      tag_18\n      jump\t// in\n    tag_16:\n      stop\n        /* \"contracts/contracts/Dependencies/Ownable.sol\":999:1076  function owner() public view returns (address) {... */\n    tag_6:\n      tag_19\n      tag_20\n      jump\t// in\n    tag_19:\n      0x40\n      dup1\n      mload\n      sub(shl(0xa0, 0x01), 0x01)\n      swap1\n      swap3\n      and\n      dup3\n      mstore\n      mload\n      swap1\n      dup2\n      swap1\n      sub\n      0x20\n      add\n      swap1\n      return\n        /* \"contracts/contracts/Dependencies/Ownable.sol\":1350:1440  function isOwner() public view returns (bool) {... */\n    tag_7:\n      tag_21\n      tag_22\n      jump\t// in\n    tag_21:\n      0x40\n      dup1\n      mload\n      swap2\n      iszero\n      iszero\n      dup3\n      mstore\n      mload\n      swap1\n      dup2\n      swap1\n      sub\n      0x20\n      add\n      swap1\n      return\n        /* \"contracts/contracts/Oracle.sol\":706:912  function fetchPrice() external override returns (uint256) {... */\n    tag_9:\n        /* \"contracts/contracts/Oracle.sol\":793:796  DIA */\n      0x01\n      dup1\n      sload\n        /* \"contracts/contracts/Oracle.sol\":793:810  DIA.getValue(KEY) */\n      mload(0x40)\n      shl(0xe5, 0x04b01c25)\n      dup2\n      mstore\n      0x20\n      0x04\n      dup3\n      add\n      swap1\n      dup2\n      mstore\n        /* \"contracts/contracts/Oracle.sol\":806:809  KEY */\n      0x02\n        /* \"contracts/contracts/Oracle.sol\":793:810  DIA.getValue(KEY) */\n      dup1\n      sload\n      not(0x00)\n      swap6\n      dup2\n      and\n      iszero\n        /* \"contracts/contracts/Oracle.sol\":793:796  DIA */\n      0x0100\n        /* \"contracts/contracts/Oracle.sol\":793:810  DIA.getValue(KEY) */\n      mul\n      swap6\n      swap1\n      swap6\n      add\n      swap1\n      swap5\n      and\n      dup5\n      swap1\n      div\n      0x24\n      dup4\n      add\n      dup2\n      swap1\n      mstore\n        /* \"contracts/contracts/Oracle.sol\":755:762  uint256 */\n      0x00\n      swap5\n      dup6\n      swap5\n      sub(shl(0xa0, 0x01), 0x01)\n        /* \"contracts/contracts/Oracle.sol\":793:796  DIA */\n      and\n      swap4\n        /* \"contracts/contracts/Oracle.sol\":793:805  DIA.getValue */\n      0x960384a0\n      swap4\n        /* \"contracts/contracts/Oracle.sol\":806:809  KEY */\n      swap2\n      swap3\n        /* \"contracts/contracts/Oracle.sol\":793:810  DIA.getValue(KEY) */\n      dup3\n      swap2\n      0x44\n      add\n      swap1\n        /* \"contracts/contracts/Oracle.sol\":806:809  KEY */\n      dup5\n      swap1\n        /* \"contracts/contracts/Oracle.sol\":793:810  DIA.getValue(KEY) */\n      dup1\n      iszero\n      tag_24\n      jumpi\n      dup1\n      0x1f\n      lt\n      tag_25\n      jumpi\n      0x0100\n      dup1\n      dup4\n      sload\n      div\n      mul\n      dup4\n      mstore\n      swap2\n      0x20\n      add\n      swap2\n      jump(tag_24)\n    tag_25:\n      dup3\n      add\n      swap2\n      swap1\n      0x00\n      mstore\n      keccak256(0x00, 0x20)\n      swap1\n    tag_26:\n      dup2\n      sload\n      dup2\n      mstore\n      swap1\n      0x01\n      add\n      swap1\n      0x20\n      add\n      dup1\n      dup4\n      gt\n      tag_26\n      jumpi\n      dup3\n      swap1\n      sub\n      0x1f\n      and\n      dup3\n      add\n      swap2\n    tag_24:\n      pop\n      pop\n      swap3\n      pop\n      pop\n      pop\n      0x40\n      dup1\n      mload\n      dup1\n      dup4\n      sub\n      dup2\n      dup7\n      dup1\n      extcodesize\n      iszero\n      dup1\n      iszero\n      tag_27\n      jumpi\n      0x00\n      dup1\n      revert\n    tag_27:\n      pop\n      gas\n      staticcall\n      iszero\n      dup1\n      iszero\n      tag_29\n      jumpi\n      returndatasize\n      0x00\n      dup1\n      returndatacopy\n      revert(0x00, returndatasize)\n    tag_29:\n      pop\n      pop\n      pop\n      pop\n      mload(0x40)\n      returndatasize\n      0x40\n      dup2\n      lt\n      iszero\n      tag_30\n      jumpi\n      0x00\n      dup1\n      revert\n    tag_30:\n      pop\n      mload\n      0x40\n        /* \"contracts/contracts/Oracle.sol\":856:883  LastGoodPriceUpdated(price) */\n      dup1\n      mload\n        /* \"contracts/contracts/Oracle.sol\":837:841  1e10 */\n      0x02540be400\n        /* \"contracts/contracts/Oracle.sol\":829:841  price * 1e10 */\n      swap1\n      swap3\n      mul\n      sub(shl(0x80, 0x01), 0x01)\n        /* \"contracts/contracts/Oracle.sol\":856:883  LastGoodPriceUpdated(price) */\n      dup2\n      and\n      dup4\n      mstore\n      swap1\n      mload\n        /* \"contracts/contracts/Oracle.sol\":829:841  price * 1e10 */\n      swap1\n      swap3\n      pop\n        /* \"contracts/contracts/Oracle.sol\":856:883  LastGoodPriceUpdated(price) */\n      0x4d29de21de555af78a62fc82dd4bc05e9ae5b0660a37f04729527e0f22780cd3\n      swap2\n        /* \"contracts/contracts/Oracle.sol\":793:810  DIA.getValue(KEY) */\n      0x20\n        /* \"contracts/contracts/Oracle.sol\":856:883  LastGoodPriceUpdated(price) */\n      swap1\n      dup3\n      swap1\n      sub\n      add\n      swap1\n      log1\n      sub(shl(0x80, 0x01), 0x01)\n        /* \"contracts/contracts/Oracle.sol\":893:905  return price */\n      and\n      swap1\n      pop\n        /* \"contracts/contracts/Oracle.sol\":706:912  function fetchPrice() external override returns (uint256) {... */\n      swap1\n      jump\t// out\n        /* \"contracts/contracts/Oracle.sol\":292:321  string public KEY = \"ETH/USD\" */\n    tag_11:\n      0x02\n      dup1\n      sload\n      0x40\n      dup1\n      mload\n      0x20\n      0x01\n      dup5\n      and\n      iszero\n      0x0100\n      mul\n      not(0x00)\n      add\n      swap1\n      swap4\n      and\n      dup5\n      swap1\n      div\n      0x1f\n      dup2\n      add\n      dup5\n      swap1\n      div\n      dup5\n      mul\n      dup3\n      add\n      dup5\n      add\n      swap1\n      swap3\n      mstore\n      dup2\n      dup2\n      mstore\n      swap3\n      swap2\n      dup4\n      add\n      dup3\n      dup3\n      dup1\n      iszero\n      tag_31\n      jumpi\n      dup1\n      0x1f\n      lt\n      tag_32\n      jumpi\n      0x0100\n      dup1\n      dup4\n      sload\n      div\n      mul\n      dup4\n      mstore\n      swap2\n      0x20\n      add\n      swap2\n      jump(tag_31)\n    tag_32:\n      dup3\n      add\n      swap2\n      swap1\n      0x00\n      mstore\n      keccak256(0x00, 0x20)\n      swap1\n    tag_33:\n      dup2\n      sload\n      dup2\n      mstore\n      swap1\n      0x01\n      add\n      swap1\n      0x20\n      add\n      dup1\n      dup4\n      gt\n      tag_33\n      jumpi\n      dup3\n      swap1\n      sub\n      0x1f\n      and\n      dup3\n      add\n      swap2\n    tag_31:\n      pop\n      pop\n      pop\n      pop\n      pop\n      dup2\n      jump\t// out\n        /* \"contracts/contracts/Oracle.sol\":430:548  function setDIAOracle(address diaOracleAddress) external onlyOwner {... */\n    tag_18:\n        /* \"contracts/contracts/Dependencies/Ownable.sol\":1203:1212  isOwner() */\n      tag_35\n        /* \"contracts/contracts/Dependencies/Ownable.sol\":1203:1210  isOwner */\n      tag_22\n        /* \"contracts/contracts/Dependencies/Ownable.sol\":1203:1212  isOwner() */\n      jump\t// in\n    tag_35:\n        /* \"contracts/contracts/Dependencies/Ownable.sol\":1195:1249  require(isOwner(), \"Ownable: caller is not the owner\") */\n      tag_36\n      jumpi\n      0x40\n      dup1\n      mload\n      shl(0xe5, 0x461bcd)\n      dup2\n      mstore\n      0x20\n      0x04\n      dup3\n      add\n      dup2\n      swap1\n      mstore\n      0x24\n      dup3\n      add\n      mstore\n      0x4f776e61626c653a2063616c6c6572206973206e6f7420746865206f776e6572\n      0x44\n      dup3\n      add\n      mstore\n      swap1\n      mload\n      swap1\n      dup2\n      swap1\n      sub\n      0x64\n      add\n      swap1\n      revert\n    tag_36:\n        /* \"contracts/contracts/Oracle.sol\":507:510  DIA */\n      0x01\n        /* \"contracts/contracts/Oracle.sol\":507:541  DIA = IDIAOracle(diaOracleAddress) */\n      dup1\n      sload\n      not(sub(shl(0xa0, 0x01), 0x01))\n      and\n      sub(shl(0xa0, 0x01), 0x01)\n      swap3\n      swap1\n      swap3\n      and\n      swap2\n      swap1\n      swap2\n      or\n      swap1\n      sstore\n        /* \"contracts/contracts/Oracle.sol\":430:548  function setDIAOracle(address diaOracleAddress) external onlyOwner {... */\n      jump\t// out\n        /* \"contracts/contracts/Dependencies/Ownable.sol\":999:1076  function owner() public view returns (address) {... */\n    tag_20:\n        /* \"contracts/contracts/Dependencies/Ownable.sol\":1037:1044  address */\n      0x00\n        /* \"contracts/contracts/Dependencies/Ownable.sol\":1063:1069  _owner */\n      sload\n      sub(shl(0xa0, 0x01), 0x01)\n      and\n        /* \"contracts/contracts/Dependencies/Ownable.sol\":999:1076  function owner() public view returns (address) {... */\n      swap1\n      jump\t// out\n        /* \"contracts/contracts/Dependencies/Ownable.sol\":1350:1440  function isOwner() public view returns (bool) {... */\n    tag_22:\n        /* \"contracts/contracts/Dependencies/Ownable.sol\":1390:1394  bool */\n      0x00\n        /* \"contracts/contracts/Dependencies/Ownable.sol\":1427:1433  _owner */\n      sload\n      sub(shl(0xa0, 0x01), 0x01)\n      and\n        /* \"contracts/contracts/Dependencies/Ownable.sol\":1413:1423  msg.sender */\n      caller\n        /* \"contracts/contracts/Dependencies/Ownable.sol\":1413:1433  msg.sender == _owner */\n      eq\n      swap1\n        /* \"contracts/contracts/Dependencies/Ownable.sol\":1350:1440  function isOwner() public view returns (bool) {... */\n      jump\t// out\n\n    auxdata: 0xa2646970667358221220efb3630d9ae2a58a3ef986b8fb05f391231dd0205e4c3dbf8c62aeac0ae7ab9164736f6c634300060b0033\n}\n",
				"bytecode": {
					"linkReferences": {},
					"object": "60c060405260076080819052661155120bd554d160ca1b60a090815261002891600291906100d3565b5034801561003557600080fd5b5060405161057a38038061057a8339818101604052602081101561005857600080fd5b5051600080546001600160a01b0319163390811782556040519091907f8be0079c531659141344cd1fd0a4f28419497f9722a3daafe3b4186f6b6457e0908290a36100ab816001600160e01b036100b116565b5061016e565b600180546001600160a01b0319166001600160a01b0392909216919091179055565b828054600181600116156101000203166002900490600052602060002090601f016020900481019282601f1061011457805160ff1916838001178555610141565b82800160010185558215610141579182015b82811115610141578251825591602001919060010190610126565b5061014d929150610151565b5090565b61016b91905b8082111561014d5760008155600101610157565b90565b6103fd8061017d6000396000f3fe608060405234801561001057600080fd5b50600436106100575760003560e01c80630fdb11cf1461005c5780632dc387b31461007657806357fc3614146100f35780638da5cb5b1461011b5780638f32d59b1461013f575b600080fd5b61006461015b565b60408051918252519081900360200190f35b61007e6102a1565b6040805160208082528351818301528351919283929083019185019080838360005b838110156100b85781810151838201526020016100a0565b50505050905090810190601f1680156100e55780820380516001836020036101000a031916815260200191505b509250505060405180910390f35b6101196004803603602081101561010957600080fd5b50356001600160a01b031661032c565b005b6101236103a7565b604080516001600160a01b039092168252519081900360200190f35b6101476103b6565b604080519115158252519081900360200190f35b600180546040516304b01c2560e51b8152602060048201908152600280546000199581161561010002959095019094168490046024830181905260009485946001600160a01b03169363960384a0939192829160440190849080156102015780601f106101d657610100808354040283529160200191610201565b820191906000526020600020905b8154815290600101906020018083116101e457829003601f168201915b505092505050604080518083038186803b15801561021e57600080fd5b505afa158015610232573d6000803e3d6000fd5b505050506040513d604081101561024857600080fd5b5051604080516402540be4009092026001600160801b038116835290519092507f4d29de21de555af78a62fc82dd4bc05e9ae5b0660a37f04729527e0f22780cd3916020908290030190a16001600160801b0316905090565b6002805460408051602060018416156101000260001901909316849004601f810184900484028201840190925281815292918301828280156103245780601f106102f957610100808354040283529160200191610324565b820191906000526020600020905b81548152906001019060200180831161030757829003601f168201915b505050505081565b6103346103b6565b610385576040805162461bcd60e51b815260206004820181905260248201527f4f776e61626c653a2063616c6c6572206973206e6f7420746865206f776e6572604482015290519081900360640190fd5b600180546001600160a01b0319166001600160a01b0392909216919091179055565b6000546001600160a01b031690565b6000546001600160a01b031633149056fea2646970667358221220efb3630d9ae2a58a3ef986b8fb05f391231dd0205e4c3dbf8c62aeac0ae7ab9164736f6c634300060b0033",
					"opcodes": "PUSH1 0xC0 PUSH1 0x40 MSTORE PUSH1 0x7 PUSH1 0x80 DUP2 SWAP1 MSTORE PUSH7 0x1155120BD554D1 PUSH1 0xCA SHL PUSH1 0xA0 SWAP1 DUP2 MSTORE PUSH2 0x28 SWAP2 PUSH1 0x2 SWAP2 SWAP1 PUSH2 0xD3 JUMP JUMPDEST POP CALLVALUE DUP1 ISZERO PUSH2 0x35 JUMPI PUSH1 0x0 DUP1 REVERT JUMPDEST POP PUSH1 0x40 MLOAD PUSH2 0x57A CODESIZE SUB DUP1 PUSH2 0x57A DUP4 CODECOPY DUP2 DUP2 ADD PUSH1 0x40 MSTORE PUSH1 0x20 DUP2 LT ISZERO PUSH2 0x58 JUMPI PUSH1 0x0 DUP1 REVERT JUMPDEST POP MLOAD PUSH1 0x0 DUP1 SLOAD PUSH1 0x1 PUSH1 0x1 PUSH1 0xA0 SHL SUB NOT AND CALLER SWAP1 DUP2 OR DUP3 SSTORE PUSH1 0x40 MLOAD SWAP1 SWAP2 SWAP1 PUSH32 0x8BE0079C531659141344CD1FD0A4F28419497F9722A3DAAFE3B4186F6B6457E0 SWAP1 DUP3 SWAP1 LOG3 PUSH2 0xAB DUP2 PUSH1 0x1 PUSH1 0x1 PUSH1 0xE0 SHL SUB PUSH2 0xB1 AND JUMP JUMPDEST POP PUSH2 0x16E JUMP JUMPDEST PUSH1 0x1 DUP1 SLOAD PUSH1 0x1 PUSH1 0x1 PUSH1 0xA0 SHL SUB NOT AND PUSH1 0x1 PUSH1 0x1 PUSH1 0xA0 SHL SUB SWAP3 SWAP1 SWAP3 AND SWAP2 SWAP1 SWAP2 OR SWAP1 SSTORE JUMP JUMPDEST DUP3 DUP1 SLOAD PUSH1 0x1 DUP2 PUSH1 0x1 AND ISZERO PUSH2 0x100 MUL SUB AND PUSH1 0x2 SWAP1 DIV SWAP1 PUSH1 0x0 MSTORE PUSH1 0x20 PUSH1 0x0 KECCAK256 SWAP1 PUSH1 0x1F ADD PUSH1 0x20 SWAP1 DIV DUP2 ADD SWAP3 DUP3 PUSH1 0x1F LT PUSH2 0x114 JUMPI DUP1 MLOAD PUSH1 0xFF NOT AND DUP4 DUP1 ADD OR DUP6 SSTORE PUSH2 0x141 JUMP JUMPDEST DUP3 DUP1 ADD PUSH1 0x1 ADD DUP6 SSTORE DUP3 ISZERO PUSH2 0x141 JUMPI SWAP2 DUP3 ADD JUMPDEST DUP3 DUP2 GT ISZERO PUSH2 0x141 JUMPI DUP3 MLOAD DUP3 SSTORE SWAP2 PUSH1 0x20 ADD SWAP2 SWAP1 PUSH1 0x1 ADD SWAP1 PUSH2 0x126 JUMP JUMPDEST POP PUSH2 0x14D SWAP3 SWAP2 POP PUSH2 0x151 JUMP JUMPDEST POP SWAP1 JUMP JUMPDEST PUSH2 0x16B SWAP2 SWAP1 JUMPDEST DUP1 DUP3 GT ISZERO PUSH2 0x14D JUMPI PUSH1 0x0 DUP2 SSTORE PUSH1 0x1 ADD PUSH2 0x157 JUMP JUMPDEST SWAP1 JUMP JUMPDEST PUSH2 0x3FD DUP1 PUSH2 0x17D PUSH1 0x0 CODECOPY PUSH1 0x0 RETURN INVALID PUSH1 0x80 PUSH1 0x40 MSTORE CALLVALUE DUP1 ISZERO PUSH2 0x10 JUMPI PUSH1 0x0 DUP1 REVERT JUMPDEST POP PUSH1 0x4 CALLDATASIZE LT PUSH2 0x57 JUMPI PUSH1 0x0 CALLDATALOAD PUSH1 0xE0 SHR DUP1 PUSH4 0xFDB11CF EQ PUSH2 0x5C JUMPI DUP1 PUSH4 0x2DC387B3 EQ PUSH2 0x76 JUMPI DUP1 PUSH4 0x57FC3614 EQ PUSH2 0xF3 JUMPI DUP1 PUSH4 0x8DA5CB5B EQ PUSH2 0x11B JUMPI DUP1 PUSH4 0x8F32D59B EQ PUSH2 0x13F JUMPI JUMPDEST PUSH1 0x0 DUP1 REVERT JUMPDEST PUSH2 0x64 PUSH2 0x15B JUMP JUMPDEST PUSH1 0x40 DUP1 MLOAD SWAP2 DUP3 MSTORE MLOAD SWAP1 DUP2 SWAP1 SUB PUSH1 0x20 ADD SWAP1 RETURN JUMPDEST PUSH2 0x7E PUSH2 0x2A1 JUMP JUMPDEST PUSH1 0x40 DUP1 MLOAD PUSH1 0x20 DUP1 DUP3 MSTORE DUP4 MLOAD DUP2 DUP4 ADD MSTORE DUP4 MLOAD SWAP2 SWAP3 DUP4 SWAP3 SWAP1 DUP4 ADD SWAP2 DUP6 ADD SWAP1 DUP1 DUP4 DUP4 PUSH1 0x0 JUMPDEST DUP4 DUP2 LT ISZERO PUSH2 0xB8 JUMPI DUP2 DUP2 ADD MLOAD DUP4 DUP3 ADD MSTORE PUSH1 0x20 ADD PUSH2 0xA0 JUMP JUMPDEST POP POP POP POP SWAP1 POP SWAP1 DUP2 ADD SWAP1 PUSH1 0x1F AND DUP1 ISZERO PUSH2 0xE5 JUMPI DUP1 DUP3 SUB DUP1 MLOAD PUSH1 0x1 DUP4 PUSH1 0x20 SUB PUSH2 0x100 EXP SUB NOT AND DUP2 MSTORE PUSH1 0x20 ADD SWAP2 POP JUMPDEST POP SWAP3 POP POP POP PUSH1 0x40 MLOAD DUP1 SWAP2 SUB SWAP1 RETURN JUMPDEST PUSH2 0x119 PUSH1 0x4 DUP1 CALLDATASIZE SUB PUSH1 0x20 DUP2 LT ISZERO PUSH2 0x109 JUMPI PUSH1 0x0 DUP1 REVERT JUMPDEST POP CALLDATALOAD PUSH1 0x1 PUSH1 0x1 PUSH1 0xA0 SHL SUB AND PUSH2 0x32C JUMP JUMPDEST STOP JUMPDEST PUSH2 0x123 PUSH2 0x3A7 JUMP JUMPDEST PUSH1 0x40 DUP1 MLOAD PUSH1 0x1 PUSH1 0x1 PUSH1 0xA0 SHL SUB SWAP1 SWAP3 AND DUP3 MSTORE MLOAD SWAP1 DUP2 SWAP1 SUB PUSH1 0x20 ADD SWAP1 RETURN JUMPDEST PUSH2 0x147 PUSH2 0x3B6 JUMP JUMPDEST PUSH1 0x40 DUP1 MLOAD SWAP2 ISZERO ISZERO DUP3 MSTORE MLOAD SWAP1 DUP2 SWAP1 SUB PUSH1 0x20 ADD SWAP1 RETURN JUMPDEST PUSH1 0x1 DUP1 SLOAD PUSH1 0x40 MLOAD PUSH4 0x4B01C25 PUSH1 0xE5 SHL DUP2 MSTORE PUSH1 0x20 PUSH1 0x4 DUP3 ADD SWAP1 DUP2 MSTORE PUSH1 0x2 DUP1 SLOAD PUSH1 0x0 NOT SWAP6 DUP2 AND ISZERO PUSH2 0x100 MUL SWAP6 SWAP1 SWAP6 ADD SWAP1 SWAP5 AND DUP5 SWAP1 DIV PUSH1 0x24 DUP4 ADD DUP2 SWAP1 MSTORE PUSH1 0x0 SWAP5 DUP6 SWAP5 PUSH1 0x1 PUSH1 0x1 PUSH1 0xA0 SHL SUB AND SWAP4 PUSH4 0x960384A0 SWAP4 SWAP2 SWAP3 DUP3 SWAP2 PUSH1 0x44 ADD SWAP1 DUP5 SWAP1 DUP1 ISZERO PUSH2 0x201 JUMPI DUP1 PUSH1 0x1F LT PUSH2 0x1D6 JUMPI PUSH2 0x100 DUP1 DUP4 SLOAD DIV MUL DUP4 MSTORE SWAP2 PUSH1 0x20 ADD SWAP2 PUSH2 0x201 JUMP JUMPDEST DUP3 ADD SWAP2 SWAP1 PUSH1 0x0 MSTORE PUSH1 0x20 PUSH1 0x0 KECCAK256 SWAP1 JUMPDEST DUP2 SLOAD DUP2 MSTORE SWAP1 PUSH1 0x1 ADD SWAP1 PUSH1 0x20 ADD DUP1 DUP4 GT PUSH2 0x1E4 JUMPI DUP3 SWAP1 SUB PUSH1 0x1F AND DUP3 ADD SWAP2 JUMPDEST POP POP SWAP3 POP POP POP PUSH1 0x40 DUP1 MLOAD DUP1 DUP4 SUB DUP2 DUP7 DUP1 EXTCODESIZE ISZERO DUP1 ISZERO PUSH2 0x21E JUMPI PUSH1 0x0 DUP1 REVERT JUMPDEST POP GAS STATICCALL ISZERO DUP1 ISZERO PUSH2 0x232 JUMPI RETURNDATASIZE PUSH1 0x0 DUP1 RETURNDATACOPY RETURNDATASIZE PUSH1 0x0 REVERT JUMPDEST POP POP POP POP PUSH1 0x40 MLOAD RETURNDATASIZE PUSH1 0x40 DUP2 LT ISZERO PUSH2 0x248 JUMPI PUSH1 0x0 DUP1 REVERT JUMPDEST POP MLOAD PUSH1 0x40 DUP1 MLOAD PUSH5 0x2540BE400 SWAP1 SWAP3 MUL PUSH1 0x1 PUSH1 0x1 PUSH1 0x80 SHL SUB DUP2 AND DUP4 MSTORE SWAP1 MLOAD SWAP1 SWAP3 POP PUSH32 0x4D29DE21DE555AF78A62FC82DD4BC05E9AE5B0660A37F04729527E0F22780CD3 SWAP2 PUSH1 0x20 SWAP1 DUP3 SWAP1 SUB ADD SWAP1 LOG1 PUSH1 0x1 PUSH1 0x1 PUSH1 0x80 SHL SUB AND SWAP1 POP SWAP1 JUMP JUMPDEST PUSH1 0x2 DUP1 SLOAD PUSH1 0x40 DUP1 MLOAD PUSH1 0x20 PUSH1 0x1 DUP5 AND ISZERO PUSH2 0x100 MUL PUSH1 0x0 NOT ADD SWAP1 SWAP4 AND DUP5 SWAP1 DIV PUSH1 0x1F DUP2 ADD DUP5 SWAP1 DIV DUP5 MUL DUP3 ADD DUP5 ADD SWAP1 SWAP3 MSTORE DUP2 DUP2 MSTORE SWAP3 SWAP2 DUP4 ADD DUP3 DUP3 DUP1 ISZERO PUSH2 0x324 JUMPI DUP1 PUSH1 0x1F LT PUSH2 0x2F9 JUMPI PUSH2 0x100 DUP1 DUP4 SLOAD DIV MUL DUP4 MSTORE SWAP2 PUSH1 0x20 ADD SWAP2 PUSH2 0x324 JUMP JUMPDEST DUP3 ADD SWAP2 SWAP1 PUSH1 0x0 MSTORE PUSH1 0x20 PUSH1 0x0 KECCAK256 SWAP1 JUMPDEST DUP2 SLOAD DUP2 MSTORE SWAP1 PUSH1 0x1 ADD SWAP1 PUSH1 0x20 ADD DUP1 DUP4 GT PUSH2 0x307 JUMPI DUP3 SWAP1 SUB PUSH1 0x1F AND DUP3 ADD SWAP2 JUMPDEST POP POP POP POP POP DUP2 JUMP JUMPDEST PUSH2 0x334 PUSH2 0x3B6 JUMP JUMPDEST PUSH2 0x385 JUMPI PUSH1 0x40 DUP1 MLOAD PUSH3 0x461BCD PUSH1 0xE5 SHL DUP2 MSTORE PUSH1 0x20 PUSH1 0x4 DUP3 ADD DUP2 SWAP1 MSTORE PUSH1 0x24 DUP3 ADD MSTORE PUSH32 0x4F776E61626C653A2063616C6C6572206973206E6F7420746865206F776E6572 PUSH1 0x44 DUP3 ADD MSTORE SWAP1 MLOAD SWAP1 DUP2 SWAP1 SUB PUSH1 0x64 ADD SWAP1 REVERT JUMPDEST PUSH1 0x1 DUP1 SLOAD PUSH1 0x1 PUSH1 0x1 PUSH1 0xA0 SHL SUB NOT AND PUSH1 0x1 PUSH1 0x1 PUSH1 0xA0 SHL SUB SWAP3 SWAP1 SWAP3 AND SWAP2 SWAP1 SWAP2 OR SWAP1 SSTORE JUMP JUMPDEST PUSH1 0x0 SLOAD PUSH1 0x1 PUSH1 0x1 PUSH1 0xA0 SHL SUB AND SWAP1 JUMP JUMPDEST PUSH1 0x0 SLOAD PUSH1 0x1 PUSH1 0x1 PUSH1 0xA0 SHL SUB AND CALLER EQ SWAP1 JUMP INVALID LOG2 PUSH5 0x6970667358 0x22 SLT KECCAK256 0xEF 0xB3 PUSH4 0xD9AE2A5 DUP11 RETURNDATACOPY 0xF9 DUP7 0xB8 0xFB SDIV RETURN SWAP2 0x23 SAR 0xD0 KECCAK256 0x5E 0x4C RETURNDATASIZE 0xBF DUP13 PUSH3 0xAEAC0A 0xE7 0xAB SWAP2 PUSH5 0x736F6C6343 STOP MOD SIGNEXTEND STOP CALLER "
				},
				"gasEstimates": {
					"creation": {
						"codeDepositCost": "204200",
						"executionCost": "infinite",
						"totalCost": "infinite"
					},
					"external": {
						"KEY()": "infinite",
						"fetchPrice()": "infinite",
						"isOwner()": "1093",
						"owner()": "1081",
						"setDIAOracle(address)": "21962"
					},
					"internal": {
						"_setDIAOracle(address)": "infinite"
					}
				},
				"methodIdentifiers": {
					"KEY()": "2dc387b3",
					"fetchPrice()": "0fdb11cf",
					"isOwner()": "8f32d59b",
					"owner()": "8da5cb5b",
					"setDIAOracle(address)": "57fc3614"
				}
			},
			"storageLayout": {
				"storage": [
					{
						"astId": 4,
						"contract": "contracts/contracts/Oracle.sol:PriceFeed",
						"label": "_owner",
						"offset": 0,
						"slot": "0",
						"type": "t_address"
					},
					{
						"astId": 118,
						"contract": "contracts/contracts/Oracle.sol:PriceFeed",
						"label": "DIA",
						"offset": 0,
						"slot": "1",
						"type": "t_contract(IDIAOracle)94"
					},
					{
						"astId": 121,
						"contract": "contracts/contracts/Oracle.sol:PriceFeed",
						"label": "KEY",
						"offset": 0,
						"slot": "2",
						"type": "t_string_storage"
					}
				],
				"types": {
					"t_address": {
						"encoding": "inplace",
						"label": "address",
						"numberOfBytes": "20"
					},
					"t_contract(IDIAOracle)94": {
						"encoding": "inplace",
						"label": "contract IDIAOracle",
						"numberOfBytes": "20"
					},
					"t_string_storage": {
						"encoding": "bytes",
						"label": "string",
						"numberOfBytes": "32"
					}
				}
			},
			"userdoc": {
				"kind": "user",
				"methods": {},
				"version": 1
			}
		}
	}
}