{
	"contracts/MeridianFallback.sol": {
		"MeridianFallbackOracle": {
			"abi": [
				{
					"anonymous": false,
					"inputs": [
						{
							"indexed": true,
							"internalType": "address",
							"name": "previousOwner",
							"type": "address"
						},
						{
							"indexed": true,
							"internalType": "address",
							"name": "newOwner",
							"type": "address"
						}
					],
					"name": "OwnershipTransferred",
					"type": "event"
				},
				{
					"anonymous": false,
					"inputs": [
						{
							"indexed": false,
							"internalType": "address",
							"name": "sybil",
							"type": "address"
						},
						{
							"indexed": false,
							"internalType": "address[]",
							"name": "assets",
							"type": "address[]"
						},
						{
							"indexed": false,
							"internalType": "uint128[]",
							"name": "prices",
							"type": "uint128[]"
						}
					],
					"name": "PricesSubmitted",
					"type": "event"
				},
				{
					"anonymous": false,
					"inputs": [
						{
							"indexed": true,
							"internalType": "address",
							"name": "sybil",
							"type": "address"
						}
					],
					"name": "SybilAuthorized",
					"type": "event"
				},
				{
					"anonymous": false,
					"inputs": [
						{
							"indexed": true,
							"internalType": "address",
							"name": "sybil",
							"type": "address"
						}
					],
					"name": "SybilUnauthorized",
					"type": "event"
				},
				{
					"inputs": [],
					"name": "PERCENTAGE_BASE",
					"outputs": [
						{
							"internalType": "uint256",
							"name": "",
							"type": "uint256"
						}
					],
					"stateMutability": "view",
					"type": "function"
				},
				{
					"inputs": [
						{
							"internalType": "address",
							"name": "sybil",
							"type": "address"
						}
					],
					"name": "authorizeSybil",
					"outputs": [],
					"stateMutability": "nonpayable",
					"type": "function"
				},
				{
					"inputs": [
						{
							"internalType": "address",
							"name": "asset",
							"type": "address"
						}
					],
					"name": "getAssetPrice",
					"outputs": [
						{
							"internalType": "uint256",
							"name": "",
							"type": "uint256"
						}
					],
					"stateMutability": "view",
					"type": "function"
				},
				{
					"inputs": [],
					"name": "isOwner",
					"outputs": [
						{
							"internalType": "bool",
							"name": "",
							"type": "bool"
						}
					],
					"stateMutability": "view",
					"type": "function"
				},
				{
					"inputs": [
						{
							"internalType": "address",
							"name": "sybil",
							"type": "address"
						}
					],
					"name": "isSybilWhitelisted",
					"outputs": [
						{
							"internalType": "bool",
							"name": "",
							"type": "bool"
						}
					],
					"stateMutability": "view",
					"type": "function"
				},
				{
					"inputs": [],
					"name": "owner",
					"outputs": [
						{
							"internalType": "address",
							"name": "",
							"type": "address"
						}
					],
					"stateMutability": "view",
					"type": "function"
				},
				{
					"inputs": [
						{
							"internalType": "address[]",
							"name": "assets",
							"type": "address[]"
						},
						{
							"internalType": "uint128[]",
							"name": "prices",
							"type": "uint128[]"
						}
					],
					"name": "submitPrices",
					"outputs": [],
					"stateMutability": "nonpayable",
					"type": "function"
				},
				{
					"inputs": [
						{
							"internalType": "address",
							"name": "sybil",
							"type": "address"
						}
					],
					"name": "unauthorizeSybil",
					"outputs": [],
					"stateMutability": "nonpayable",
					"type": "function"
				}
			],
			"devdoc": {
				"kind": "dev",
				"methods": {
					"getAssetPrice(address)": {
						"details": "returns the asset price USD",
						"params": {
							"asset": "the address of the asset"
						},
						"returns": {
							"_0": "the price of the asset*"
						}
					},
					"isOwner()": {
						"details": "Returns true if the caller is the current owner."
					},
					"owner()": {
						"details": "Returns the address of the current owner."
					}
				},
				"version": 1
			},
			"evm": {
				"assembly": "    /* \"contracts/MeridianFallback.sol\":260:1850  contract MeridianFallbackOracle is Ownable, IPriceOracleGetter {... */\n  mstore(0x40, 0x80)\n  callvalue\n  dup1\n  iszero\n  tag_1\n  jumpi\n  0x00\n  dup1\n  revert\ntag_1:\n  pop\n    /* \"contracts/Dependencies/Ownable.sol\":838:844  _owner */\n  0x00\n    /* \"contracts/Dependencies/Ownable.sol\":838:857  _owner = msg.sender */\n  dup1\n  sload\n  not(sub(shl(0xa0, 0x01), 0x01))\n  and\n    /* \"contracts/Dependencies/Ownable.sol\":847:857  msg.sender */\n  caller\n    /* \"contracts/Dependencies/Ownable.sol\":838:857  _owner = msg.sender */\n  swap1\n  dup2\n  or\n  dup3\n  sstore\n    /* \"contracts/Dependencies/Ownable.sol\":872:916  OwnershipTransferred(address(0), msg.sender) */\n  mload(0x40)\n    /* \"contracts/Dependencies/Ownable.sol\":847:857  msg.sender */\n  swap1\n  swap2\n    /* \"contracts/Dependencies/Ownable.sol\":838:844  _owner */\n  swap1\n    /* \"contracts/Dependencies/Ownable.sol\":872:916  OwnershipTransferred(address(0), msg.sender) */\n  0x8be0079c531659141344cd1fd0a4f28419497f9722a3daafe3b4186f6b6457e0\n  swap1\n    /* \"contracts/Dependencies/Ownable.sol\":838:844  _owner */\n  dup3\n  swap1\n    /* \"contracts/Dependencies/Ownable.sol\":872:916  OwnershipTransferred(address(0), msg.sender) */\n  log3\n    /* \"contracts/MeridianFallback.sol\":260:1850  contract MeridianFallbackOracle is Ownable, IPriceOracleGetter {... */\n  dataSize(sub_0)\n  dup1\n  dataOffset(sub_0)\n  0x00\n  codecopy\n  0x00\n  return\nstop\n\nsub_0: assembly {\n        /* \"contracts/MeridianFallback.sol\":260:1850  contract MeridianFallbackOracle is Ownable, IPriceOracleGetter {... */\n      mstore(0x40, 0x80)\n      callvalue\n      dup1\n      iszero\n      tag_1\n      jumpi\n      0x00\n      dup1\n      revert\n    tag_1:\n      pop\n      jumpi(tag_2, lt(calldatasize, 0x04))\n      shr(0xe0, calldataload(0x00))\n      dup1\n      0x0e5665e6\n      eq\n      tag_3\n      jumpi\n      dup1\n      0x30d454f0\n      eq\n      tag_4\n      jumpi\n      dup1\n      0x5e91734c\n      eq\n      tag_5\n      jumpi\n      dup1\n      0x87c13943\n      eq\n      tag_6\n      jumpi\n      dup1\n      0x8da5cb5b\n      eq\n      tag_7\n      jumpi\n      dup1\n      0x8f32d59b\n      eq\n      tag_8\n      jumpi\n      dup1\n      0xb3596f07\n      eq\n      tag_9\n      jumpi\n      dup1\n      0xf2be88cd\n      eq\n      tag_10\n      jumpi\n    tag_2:\n      0x00\n      dup1\n      revert\n        /* \"contracts/MeridianFallback.sol\":1104:1482  function submitPrices(address[] calldata assets, uint128[] calldata prices) external onlySybil {... */\n    tag_3:\n      tag_11\n      tag_12\n      calldatasize\n      0x04\n      tag_13\n      jump\t// in\n    tag_12:\n      tag_14\n      jump\t// in\n    tag_11:\n      stop\n        /* \"contracts/MeridianFallback.sol\":1616:1718  function isSybilWhitelisted(address sybil) public view returns (bool) {... */\n    tag_4:\n      tag_15\n      tag_16\n      calldatasize\n      0x04\n      tag_17\n      jump\t// in\n    tag_16:\n      tag_18\n      jump\t// in\n    tag_15:\n      mload(0x40)\n      tag_19\n      swap2\n      swap1\n      tag_20\n      jump\t// in\n    tag_19:\n      mload(0x40)\n      dup1\n      swap2\n      sub\n      swap1\n      return\n        /* \"contracts/MeridianFallback.sol\":843:967  function authorizeSybil(address sybil) external onlyOwner {... */\n    tag_5:\n      tag_11\n      tag_22\n      calldatasize\n      0x04\n      tag_17\n      jump\t// in\n    tag_22:\n      tag_23\n      jump\t// in\n        /* \"contracts/MeridianFallback.sol\":625:670  uint256 public constant PERCENTAGE_BASE = 1e4 */\n    tag_6:\n      tag_24\n      tag_25\n      jump\t// in\n    tag_24:\n      mload(0x40)\n      tag_19\n      swap2\n      swap1\n      tag_27\n      jump\t// in\n        /* \"contracts/Dependencies/Ownable.sol\":999:1076  function owner() public view returns (address) {... */\n    tag_7:\n      tag_28\n      tag_29\n      jump\t// in\n    tag_28:\n      mload(0x40)\n      tag_19\n      swap2\n      swap1\n      tag_31\n      jump\t// in\n        /* \"contracts/Dependencies/Ownable.sol\":1350:1440  function isOwner() public view returns (bool) {... */\n    tag_8:\n      tag_15\n      tag_33\n      jump\t// in\n        /* \"contracts/MeridianFallback.sol\":1486:1612  function getAssetPrice(address asset) external view override returns (uint256) {... */\n    tag_9:\n      tag_24\n      tag_36\n      calldatasize\n      0x04\n      tag_17\n      jump\t// in\n    tag_36:\n      tag_37\n      jump\t// in\n        /* \"contracts/MeridianFallback.sol\":971:1100  function unauthorizeSybil(address sybil) external onlyOwner {... */\n    tag_10:\n      tag_11\n      tag_40\n      calldatasize\n      0x04\n      tag_17\n      jump\t// in\n    tag_40:\n      tag_41\n      jump\t// in\n        /* \"contracts/MeridianFallback.sol\":1104:1482  function submitPrices(address[] calldata assets, uint128[] calldata prices) external onlySybil {... */\n    tag_14:\n        /* \"contracts/MeridianFallback.sol\":791:827  _requireWhitelistedSybil(msg.sender) */\n      tag_43\n        /* \"contracts/MeridianFallback.sol\":816:826  msg.sender */\n      caller\n        /* \"contracts/MeridianFallback.sol\":791:815  _requireWhitelistedSybil */\n      tag_44\n        /* \"contracts/MeridianFallback.sol\":791:827  _requireWhitelistedSybil(msg.sender) */\n      jump\t// in\n    tag_43:\n        /* \"contracts/MeridianFallback.sol\":1213:1243  assets.length == prices.length */\n      dup3\n      dup2\n      eq\n        /* \"contracts/MeridianFallback.sol\":1205:1274  require(assets.length == prices.length, 'INCONSISTENT_PARAMS_LENGTH') */\n      tag_46\n      jumpi\n      mload(0x40)\n      shl(0xe5, 0x461bcd)\n      dup2\n      mstore\n      0x04\n      add\n      tag_47\n      swap1\n      tag_48\n      jump\t// in\n    tag_47:\n      mload(0x40)\n      dup1\n      swap2\n      sub\n      swap1\n      revert\n    tag_46:\n        /* \"contracts/MeridianFallback.sol\":1285:1294  uint256 i */\n      0x00\n        /* \"contracts/MeridianFallback.sol\":1280:1423  for (uint256 i = 0; i < assets.length; i++) {... */\n    tag_49:\n        /* \"contracts/MeridianFallback.sol\":1300:1317  i < assets.length */\n      dup4\n      dup2\n      lt\n        /* \"contracts/MeridianFallback.sol\":1280:1423  for (uint256 i = 0; i < assets.length; i++) {... */\n      iszero\n      tag_50\n      jumpi\n        /* \"contracts/MeridianFallback.sol\":1353:1416  Price(uint64(block.number), uint64(block.timestamp), prices[i]) */\n      mload(0x40)\n      dup1\n      0x60\n      add\n      0x40\n      mstore\n      dup1\n        /* \"contracts/MeridianFallback.sol\":1366:1378  block.number */\n      number\n      sub(shl(0x40, 0x01), 0x01)\n        /* \"contracts/MeridianFallback.sol\":1353:1416  Price(uint64(block.number), uint64(block.timestamp), prices[i]) */\n      and\n      dup2\n      mstore\n      0x20\n      add\n        /* \"contracts/MeridianFallback.sol\":1388:1403  block.timestamp */\n      timestamp\n      sub(shl(0x40, 0x01), 0x01)\n        /* \"contracts/MeridianFallback.sol\":1353:1416  Price(uint64(block.number), uint64(block.timestamp), prices[i]) */\n      and\n      dup2\n      mstore\n      0x20\n      add\n        /* \"contracts/MeridianFallback.sol\":1406:1412  prices */\n      dup5\n      dup5\n        /* \"contracts/MeridianFallback.sol\":1413:1414  i */\n      dup5\n        /* \"contracts/MeridianFallback.sol\":1406:1415  prices[i] */\n      dup2\n      dup2\n      lt\n      tag_52\n      jumpi\n      invalid\n    tag_52:\n      swap1\n      pop\n      0x20\n      mul\n      add\n      0x20\n      dup2\n      add\n      swap1\n      tag_53\n      swap2\n      swap1\n      tag_54\n      jump\t// in\n    tag_53:\n      sub(shl(0x80, 0x01), 0x01)\n        /* \"contracts/MeridianFallback.sol\":1353:1416  Price(uint64(block.number), uint64(block.timestamp), prices[i]) */\n      and\n      swap1\n      mstore\n        /* \"contracts/MeridianFallback.sol\":1332:1339  _prices */\n      0x01\n        /* \"contracts/MeridianFallback.sol\":1332:1350  _prices[assets[i]] */\n      0x00\n        /* \"contracts/MeridianFallback.sol\":1340:1346  assets */\n      dup8\n      dup8\n        /* \"contracts/MeridianFallback.sol\":1347:1348  i */\n      dup6\n        /* \"contracts/MeridianFallback.sol\":1340:1349  assets[i] */\n      dup2\n      dup2\n      lt\n      tag_55\n      jumpi\n      invalid\n    tag_55:\n      swap1\n      pop\n      0x20\n      mul\n      add\n      0x20\n      dup2\n      add\n      swap1\n      tag_56\n      swap2\n      swap1\n      tag_17\n      jump\t// in\n    tag_56:\n      sub(shl(0xa0, 0x01), 0x01)\n        /* \"contracts/MeridianFallback.sol\":1332:1350  _prices[assets[i]] */\n      and\n      dup2\n      mstore\n      0x20\n      dup1\n      dup3\n      add\n      swap3\n      swap1\n      swap3\n      mstore\n      0x40\n      swap1\n      dup2\n      add\n      0x00\n      keccak256\n        /* \"contracts/MeridianFallback.sol\":1332:1416  _prices[assets[i]] = Price(uint64(block.number), uint64(block.timestamp), prices[i]) */\n      dup4\n      mload\n      dup2\n      sload\n      swap4\n      dup6\n      add\n      mload\n      swap5\n      swap1\n      swap3\n      add\n      mload\n      not(sub(shl(0x40, 0x01), 0x01))\n      swap1\n      swap4\n      and\n      sub(shl(0x40, 0x01), 0x01)\n      swap3\n      dup4\n      and\n      or\n      not(sub(shl(0x80, 0x01), shl(0x40, 0x01)))\n      and\n      shl(0x40, 0x01)\n      swap3\n      swap1\n      swap5\n      and\n      swap2\n      swap1\n      swap2\n      mul\n      swap3\n      swap1\n      swap3\n      or\n      sub(shl(0x80, 0x01), 0x01)\n      swap1\n      dup2\n      and\n      shl(0x80, 0x01)\n      swap2\n      swap1\n      swap3\n      and\n      mul\n      or\n      swap1\n      sstore\n      0x01\n        /* \"contracts/MeridianFallback.sol\":1319:1322  i++ */\n      add\n        /* \"contracts/MeridianFallback.sol\":1280:1423  for (uint256 i = 0; i < assets.length; i++) {... */\n      jump(tag_49)\n    tag_50:\n      pop\n        /* \"contracts/MeridianFallback.sol\":1434:1477  PricesSubmitted(msg.sender, assets, prices) */\n      0x995dd01082df56f242aad7e0a6f87116e5d4c972ab8377309354fa2bd0de3e59\n        /* \"contracts/MeridianFallback.sol\":1450:1460  msg.sender */\n      caller\n        /* \"contracts/MeridianFallback.sol\":1462:1468  assets */\n      dup6\n      dup6\n        /* \"contracts/MeridianFallback.sol\":1470:1476  prices */\n      dup6\n      dup6\n        /* \"contracts/MeridianFallback.sol\":1434:1477  PricesSubmitted(msg.sender, assets, prices) */\n      mload(0x40)\n      tag_57\n      swap6\n      swap5\n      swap4\n      swap3\n      swap2\n      swap1\n      tag_58\n      jump\t// in\n    tag_57:\n      mload(0x40)\n      dup1\n      swap2\n      sub\n      swap1\n      log1\n        /* \"contracts/MeridianFallback.sol\":1104:1482  function submitPrices(address[] calldata assets, uint128[] calldata prices) external onlySybil {... */\n      pop\n      pop\n      pop\n      pop\n      jump\t// out\n        /* \"contracts/MeridianFallback.sol\":1616:1718  function isSybilWhitelisted(address sybil) public view returns (bool) {... */\n    tag_18:\n      sub(shl(0xa0, 0x01), 0x01)\n        /* \"contracts/MeridianFallback.sol\":1699:1713  _sybils[sybil] */\n      and\n        /* \"contracts/MeridianFallback.sol\":1680:1684  bool */\n      0x00\n        /* \"contracts/MeridianFallback.sol\":1699:1713  _sybils[sybil] */\n      swap1\n      dup2\n      mstore\n        /* \"contracts/MeridianFallback.sol\":1699:1706  _sybils */\n      0x02\n        /* \"contracts/MeridianFallback.sol\":1699:1713  _sybils[sybil] */\n      0x20\n      mstore\n      0x40\n      swap1\n      keccak256\n      sload\n      0xff\n      and\n      swap1\n        /* \"contracts/MeridianFallback.sol\":1616:1718  function isSybilWhitelisted(address sybil) public view returns (bool) {... */\n      jump\t// out\n        /* \"contracts/MeridianFallback.sol\":843:967  function authorizeSybil(address sybil) external onlyOwner {... */\n    tag_23:\n        /* \"contracts/Dependencies/Ownable.sol\":1203:1212  isOwner() */\n      tag_61\n        /* \"contracts/Dependencies/Ownable.sol\":1203:1210  isOwner */\n      tag_33\n        /* \"contracts/Dependencies/Ownable.sol\":1203:1212  isOwner() */\n      jump\t// in\n    tag_61:\n        /* \"contracts/Dependencies/Ownable.sol\":1195:1249  require(isOwner(), \"Ownable: caller is not the owner\") */\n      tag_62\n      jumpi\n      mload(0x40)\n      shl(0xe5, 0x461bcd)\n      dup2\n      mstore\n      0x04\n      add\n      tag_47\n      swap1\n      tag_64\n      jump\t// in\n    tag_62:\n      sub(shl(0xa0, 0x01), 0x01)\n        /* \"contracts/MeridianFallback.sol\":907:921  _sybils[sybil] */\n      dup2\n      and\n      0x00\n      dup2\n      dup2\n      mstore\n        /* \"contracts/MeridianFallback.sol\":907:914  _sybils */\n      0x02\n        /* \"contracts/MeridianFallback.sol\":907:921  _sybils[sybil] */\n      0x20\n      mstore\n      0x40\n      dup1\n      dup3\n      keccak256\n        /* \"contracts/MeridianFallback.sol\":907:928  _sybils[sybil] = true */\n      dup1\n      sload\n      not(0xff)\n      and\n        /* \"contracts/MeridianFallback.sol\":924:928  true */\n      0x01\n        /* \"contracts/MeridianFallback.sol\":907:928  _sybils[sybil] = true */\n      or\n      swap1\n      sstore\n        /* \"contracts/MeridianFallback.sol\":940:962  SybilAuthorized(sybil) */\n      mload\n      0xe7d975a644451bd7331add56a59563e5d19b661497948c38d25b969487470673\n      swap2\n        /* \"contracts/MeridianFallback.sol\":907:921  _sybils[sybil] */\n      swap1\n        /* \"contracts/MeridianFallback.sol\":940:962  SybilAuthorized(sybil) */\n      log2\n        /* \"contracts/MeridianFallback.sol\":843:967  function authorizeSybil(address sybil) external onlyOwner {... */\n      pop\n      jump\t// out\n        /* \"contracts/MeridianFallback.sol\":625:670  uint256 public constant PERCENTAGE_BASE = 1e4 */\n    tag_25:\n        /* \"contracts/MeridianFallback.sol\":667:670  1e4 */\n      0x2710\n        /* \"contracts/MeridianFallback.sol\":625:670  uint256 public constant PERCENTAGE_BASE = 1e4 */\n      dup2\n      jump\t// out\n        /* \"contracts/Dependencies/Ownable.sol\":999:1076  function owner() public view returns (address) {... */\n    tag_29:\n        /* \"contracts/Dependencies/Ownable.sol\":1037:1044  address */\n      0x00\n        /* \"contracts/Dependencies/Ownable.sol\":1063:1069  _owner */\n      sload\n      sub(shl(0xa0, 0x01), 0x01)\n      and\n        /* \"contracts/Dependencies/Ownable.sol\":999:1076  function owner() public view returns (address) {... */\n      swap1\n      jump\t// out\n        /* \"contracts/Dependencies/Ownable.sol\":1350:1440  function isOwner() public view returns (bool) {... */\n    tag_33:\n        /* \"contracts/Dependencies/Ownable.sol\":1390:1394  bool */\n      0x00\n        /* \"contracts/Dependencies/Ownable.sol\":1427:1433  _owner */\n      sload\n      sub(shl(0xa0, 0x01), 0x01)\n      and\n        /* \"contracts/Dependencies/Ownable.sol\":1413:1423  msg.sender */\n      caller\n        /* \"contracts/Dependencies/Ownable.sol\":1413:1433  msg.sender == _owner */\n      eq\n      swap1\n        /* \"contracts/Dependencies/Ownable.sol\":1350:1440  function isOwner() public view returns (bool) {... */\n      jump\t// out\n        /* \"contracts/MeridianFallback.sol\":1486:1612  function getAssetPrice(address asset) external view override returns (uint256) {... */\n    tag_37:\n      sub(shl(0xa0, 0x01), 0x01)\n        /* \"contracts/MeridianFallback.sol\":1586:1600  _prices[asset] */\n      and\n        /* \"contracts/MeridianFallback.sol\":1556:1563  uint256 */\n      0x00\n        /* \"contracts/MeridianFallback.sol\":1586:1600  _prices[asset] */\n      swap1\n      dup2\n      mstore\n        /* \"contracts/MeridianFallback.sol\":1586:1593  _prices */\n      0x01\n        /* \"contracts/MeridianFallback.sol\":1586:1600  _prices[asset] */\n      0x20\n      mstore\n      0x40\n      swap1\n      keccak256\n        /* \"contracts/MeridianFallback.sol\":1586:1606  _prices[asset].price */\n      sload\n      shl(0x80, 0x01)\n      swap1\n      div\n      sub(shl(0x80, 0x01), 0x01)\n      and\n      swap1\n        /* \"contracts/MeridianFallback.sol\":1486:1612  function getAssetPrice(address asset) external view override returns (uint256) {... */\n      jump\t// out\n        /* \"contracts/MeridianFallback.sol\":971:1100  function unauthorizeSybil(address sybil) external onlyOwner {... */\n    tag_41:\n        /* \"contracts/Dependencies/Ownable.sol\":1203:1212  isOwner() */\n      tag_70\n        /* \"contracts/Dependencies/Ownable.sol\":1203:1210  isOwner */\n      tag_33\n        /* \"contracts/Dependencies/Ownable.sol\":1203:1212  isOwner() */\n      jump\t// in\n    tag_70:\n        /* \"contracts/Dependencies/Ownable.sol\":1195:1249  require(isOwner(), \"Ownable: caller is not the owner\") */\n      tag_71\n      jumpi\n      mload(0x40)\n      shl(0xe5, 0x461bcd)\n      dup2\n      mstore\n      0x04\n      add\n      tag_47\n      swap1\n      tag_64\n      jump\t// in\n    tag_71:\n      sub(shl(0xa0, 0x01), 0x01)\n        /* \"contracts/MeridianFallback.sol\":1037:1051  _sybils[sybil] */\n      dup2\n      and\n        /* \"contracts/MeridianFallback.sol\":1054:1059  false */\n      0x00\n        /* \"contracts/MeridianFallback.sol\":1037:1051  _sybils[sybil] */\n      dup2\n      dup2\n      mstore\n        /* \"contracts/MeridianFallback.sol\":1037:1044  _sybils */\n      0x02\n        /* \"contracts/MeridianFallback.sol\":1037:1051  _sybils[sybil] */\n      0x20\n      mstore\n      0x40\n      dup1\n      dup3\n      keccak256\n        /* \"contracts/MeridianFallback.sol\":1037:1059  _sybils[sybil] = false */\n      dup1\n      sload\n      not(0xff)\n      and\n      swap1\n      sstore\n        /* \"contracts/MeridianFallback.sol\":1071:1095  SybilUnauthorized(sybil) */\n      mload\n      0x8bde64628aa5dae6d1c378a97b785745a4db9beaa7d503f91a8274c7b58d2f01\n      swap2\n        /* \"contracts/MeridianFallback.sol\":1054:1059  false */\n      swap1\n        /* \"contracts/MeridianFallback.sol\":1071:1095  SybilUnauthorized(sybil) */\n      log2\n        /* \"contracts/MeridianFallback.sol\":971:1100  function unauthorizeSybil(address sybil) external onlyOwner {... */\n      pop\n      jump\t// out\n        /* \"contracts/MeridianFallback.sol\":1723:1848  function _requireWhitelistedSybil(address sybil) internal view {... */\n    tag_44:\n        /* \"contracts/MeridianFallback.sol\":1800:1825  isSybilWhitelisted(sybil) */\n      tag_75\n        /* \"contracts/MeridianFallback.sol\":1819:1824  sybil */\n      dup2\n        /* \"contracts/MeridianFallback.sol\":1800:1818  isSybilWhitelisted */\n      tag_18\n        /* \"contracts/MeridianFallback.sol\":1800:1825  isSybilWhitelisted(sybil) */\n      jump\t// in\n    tag_75:\n        /* \"contracts/MeridianFallback.sol\":1792:1843  require(isSybilWhitelisted(sybil), 'INVALID_SYBIL') */\n      tag_76\n      jumpi\n      mload(0x40)\n      shl(0xe5, 0x461bcd)\n      dup2\n      mstore\n      0x04\n      add\n      tag_47\n      swap1\n      tag_78\n      jump\t// in\n    tag_76:\n        /* \"contracts/MeridianFallback.sol\":1723:1848  function _requireWhitelistedSybil(address sybil) internal view {... */\n      pop\n      jump\t// out\n        /* \"--CODEGEN--\":5:135   */\n    tag_80:\n        /* \"--CODEGEN--\":72:92   */\n      dup1\n      calldataload\n      sub(shl(0xa0, 0x01), 0x01)\n        /* \"--CODEGEN--\":10111:10165   */\n      dup2\n      and\n        /* \"--CODEGEN--\":10694:10729   */\n      dup2\n      eq\n        /* \"--CODEGEN--\":10684:10686   */\n      tag_82\n      jumpi\n        /* \"--CODEGEN--\":10743:10744   */\n      0x00\n      dup1\n        /* \"--CODEGEN--\":10733:10745   */\n      revert\n        /* \"--CODEGEN--\":10684:10686   */\n    tag_82:\n        /* \"--CODEGEN--\":57:135   */\n      swap3\n      swap2\n      pop\n      pop\n      jump\t// out\n        /* \"--CODEGEN--\":160:512   */\n    tag_83:\n      0x00\n      dup1\n        /* \"--CODEGEN--\":290:293   */\n      dup4\n        /* \"--CODEGEN--\":283:287   */\n      0x1f\n        /* \"--CODEGEN--\":275:281   */\n      dup5\n        /* \"--CODEGEN--\":271:288   */\n      add\n        /* \"--CODEGEN--\":267:294   */\n      slt\n        /* \"--CODEGEN--\":257:259   */\n      tag_85\n      jumpi\n      dup2\n      dup3\n        /* \"--CODEGEN--\":298:310   */\n      revert\n        /* \"--CODEGEN--\":257:259   */\n    tag_85:\n      pop\n        /* \"--CODEGEN--\":328:348   */\n      dup2\n      calldataload\n      sub(shl(0x40, 0x01), 0x01)\n        /* \"--CODEGEN--\":357:387   */\n      dup2\n      gt\n        /* \"--CODEGEN--\":354:356   */\n      iszero\n      tag_86\n      jumpi\n      dup2\n      dup3\n        /* \"--CODEGEN--\":390:402   */\n      revert\n        /* \"--CODEGEN--\":354:356   */\n    tag_86:\n        /* \"--CODEGEN--\":434:438   */\n      0x20\n        /* \"--CODEGEN--\":426:432   */\n      dup4\n        /* \"--CODEGEN--\":422:439   */\n      add\n        /* \"--CODEGEN--\":410:439   */\n      swap2\n      pop\n        /* \"--CODEGEN--\":485:488   */\n      dup4\n        /* \"--CODEGEN--\":434:438   */\n      0x20\n      dup1\n        /* \"--CODEGEN--\":469:475   */\n      dup4\n        /* \"--CODEGEN--\":465:482   */\n      mul\n        /* \"--CODEGEN--\":426:432   */\n      dup6\n        /* \"--CODEGEN--\":451:483   */\n      add\n      add\n        /* \"--CODEGEN--\":448:489   */\n      gt\n        /* \"--CODEGEN--\":445:447   */\n      iszero\n      tag_87\n      jumpi\n        /* \"--CODEGEN--\":502:503   */\n      0x00\n      dup1\n        /* \"--CODEGEN--\":492:504   */\n      revert\n        /* \"--CODEGEN--\":445:447   */\n    tag_87:\n        /* \"--CODEGEN--\":250:512   */\n      swap3\n      pop\n      swap3\n      swap1\n      pop\n      jump\t// out\n        /* \"--CODEGEN--\":1035:1276   */\n    tag_17:\n      0x00\n        /* \"--CODEGEN--\":1139:1141   */\n      0x20\n        /* \"--CODEGEN--\":1127:1136   */\n      dup3\n        /* \"--CODEGEN--\":1118:1125   */\n      dup5\n        /* \"--CODEGEN--\":1114:1137   */\n      sub\n        /* \"--CODEGEN--\":1110:1142   */\n      slt\n        /* \"--CODEGEN--\":1107:1109   */\n      iszero\n      tag_89\n      jumpi\n      dup1\n      dup2\n        /* \"--CODEGEN--\":1145:1157   */\n      revert\n        /* \"--CODEGEN--\":1107:1109   */\n    tag_89:\n        /* \"--CODEGEN--\":1207:1260   */\n      tag_90\n        /* \"--CODEGEN--\":1252:1259   */\n      dup4\n        /* \"--CODEGEN--\":1228:1250   */\n      dup4\n        /* \"--CODEGEN--\":1207:1260   */\n      tag_80\n      jump\t// in\n    tag_90:\n        /* \"--CODEGEN--\":1197:1260   */\n      swap4\n        /* \"--CODEGEN--\":1101:1276   */\n      swap3\n      pop\n      pop\n      pop\n      jump\t// out\n        /* \"--CODEGEN--\":1283:1961   */\n    tag_13:\n      0x00\n      dup1\n      0x00\n      dup1\n        /* \"--CODEGEN--\":1474:1476   */\n      0x40\n        /* \"--CODEGEN--\":1462:1471   */\n      dup6\n        /* \"--CODEGEN--\":1453:1460   */\n      dup8\n        /* \"--CODEGEN--\":1449:1472   */\n      sub\n        /* \"--CODEGEN--\":1445:1477   */\n      slt\n        /* \"--CODEGEN--\":1442:1444   */\n      iszero\n      tag_92\n      jumpi\n      dup3\n      dup4\n        /* \"--CODEGEN--\":1480:1492   */\n      revert\n        /* \"--CODEGEN--\":1442:1444   */\n    tag_92:\n        /* \"--CODEGEN--\":1525:1556   */\n      dup5\n      calldataload\n      sub(shl(0x40, 0x01), 0x01)\n        /* \"--CODEGEN--\":1565:1595   */\n      dup1\n      dup3\n      gt\n        /* \"--CODEGEN--\":1562:1564   */\n      iszero\n      tag_93\n      jumpi\n      dup5\n      dup6\n        /* \"--CODEGEN--\":1598:1610   */\n      revert\n        /* \"--CODEGEN--\":1562:1564   */\n    tag_93:\n        /* \"--CODEGEN--\":1636:1716   */\n      tag_94\n        /* \"--CODEGEN--\":1708:1715   */\n      dup9\n        /* \"--CODEGEN--\":1699:1705   */\n      dup4\n        /* \"--CODEGEN--\":1688:1697   */\n      dup10\n        /* \"--CODEGEN--\":1684:1706   */\n      add\n        /* \"--CODEGEN--\":1636:1716   */\n      tag_83\n      jump\t// in\n    tag_94:\n        /* \"--CODEGEN--\":1618:1716   */\n      swap1\n      swap7\n      pop\n      swap5\n      pop\n        /* \"--CODEGEN--\":1781:1783   */\n      0x20\n        /* \"--CODEGEN--\":1766:1784   */\n      dup8\n      add\n        /* \"--CODEGEN--\":1753:1785   */\n      calldataload\n      swap2\n      pop\n        /* \"--CODEGEN--\":1794:1824   */\n      dup1\n      dup3\n      gt\n        /* \"--CODEGEN--\":1791:1793   */\n      iszero\n      tag_95\n      jumpi\n      dup4\n      dup5\n        /* \"--CODEGEN--\":1827:1839   */\n      revert\n        /* \"--CODEGEN--\":1791:1793   */\n    tag_95:\n      pop\n        /* \"--CODEGEN--\":1865:1945   */\n      tag_96\n        /* \"--CODEGEN--\":1937:1944   */\n      dup8\n        /* \"--CODEGEN--\":1928:1934   */\n      dup3\n        /* \"--CODEGEN--\":1917:1926   */\n      dup9\n        /* \"--CODEGEN--\":1913:1935   */\n      add\n        /* \"--CODEGEN--\":1865:1945   */\n      tag_83\n      jump\t// in\n    tag_96:\n        /* \"--CODEGEN--\":1436:1961   */\n      swap6\n      swap9\n      swap5\n      swap8\n      pop\n        /* \"--CODEGEN--\":1847:1945   */\n      swap6\n      pop\n      pop\n      pop\n      pop\n        /* \"--CODEGEN--\":1436:1961   */\n      jump\t// out\n        /* \"--CODEGEN--\":1968:2209   */\n    tag_54:\n      0x00\n        /* \"--CODEGEN--\":2072:2074   */\n      0x20\n        /* \"--CODEGEN--\":2060:2069   */\n      dup3\n        /* \"--CODEGEN--\":2051:2058   */\n      dup5\n        /* \"--CODEGEN--\":2047:2070   */\n      sub\n        /* \"--CODEGEN--\":2043:2075   */\n      slt\n        /* \"--CODEGEN--\":2040:2042   */\n      iszero\n      tag_98\n      jumpi\n      dup1\n      dup2\n        /* \"--CODEGEN--\":2078:2090   */\n      revert\n        /* \"--CODEGEN--\":2040:2042   */\n    tag_98:\n        /* \"--CODEGEN--\":965:985   */\n      dup2\n      calldataload\n      sub(shl(0x80, 0x01), 0x01)\n        /* \"--CODEGEN--\":9991:10037   */\n      dup2\n      and\n        /* \"--CODEGEN--\":10818:10853   */\n      dup2\n      eq\n        /* \"--CODEGEN--\":10808:10810   */\n      tag_90\n      jumpi\n      dup2\n      dup3\n        /* \"--CODEGEN--\":10857:10869   */\n      revert\n        /* \"--CODEGEN--\":2217:2390   */\n    tag_100:\n      sub(shl(0xa0, 0x01), 0x01)\n        /* \"--CODEGEN--\":10111:10165   */\n      and\n        /* \"--CODEGEN--\":2790:2827   */\n      dup2\n      mstore\n        /* \"--CODEGEN--\":2379:2383   */\n      0x20\n        /* \"--CODEGEN--\":2370:2384   */\n      add\n      swap1\n        /* \"--CODEGEN--\":2297:2390   */\n      jump\t// out\n        /* \"--CODEGEN--\":5476:5579   */\n    tag_102:\n      sub(shl(0x80, 0x01), 0x01)\n        /* \"--CODEGEN--\":9991:10037   */\n      and\n        /* \"--CODEGEN--\":5537:5574   */\n      swap1\n      mstore\n        /* \"--CODEGEN--\":5531:5579   */\n      jump\t// out\n        /* \"--CODEGEN--\":5706:5928   */\n    tag_31:\n      sub(shl(0xa0, 0x01), 0x01)\n        /* \"--CODEGEN--\":10111:10165   */\n      swap2\n      swap1\n      swap2\n      and\n        /* \"--CODEGEN--\":2790:2827   */\n      dup2\n      mstore\n        /* \"--CODEGEN--\":5833:5835   */\n      0x20\n        /* \"--CODEGEN--\":5818:5836   */\n      add\n      swap1\n        /* \"--CODEGEN--\":5804:5928   */\n      jump\t// out\n        /* \"--CODEGEN--\":5935:6731   */\n    tag_58:\n      sub(shl(0xa0, 0x01), 0x01)\n        /* \"--CODEGEN--\":10111:10165   */\n      dup7\n      and\n        /* \"--CODEGEN--\":2659:2717   */\n      dup2\n      mstore\n        /* \"--CODEGEN--\":6246:6248   */\n      0x60\n        /* \"--CODEGEN--\":6372:6374   */\n      0x20\n        /* \"--CODEGEN--\":6357:6375   */\n      dup1\n      dup4\n      add\n        /* \"--CODEGEN--\":6350:6398   */\n      dup3\n      swap1\n      mstore\n        /* \"--CODEGEN--\":5935:6731   */\n      0x00\n      swap2\n        /* \"--CODEGEN--\":6231:6249   */\n      dup4\n      add\n      swap1\n      dup2\n        /* \"--CODEGEN--\":3144:3230   */\n      tag_106\n        /* \"--CODEGEN--\":3223:3229   */\n      dup9\n        /* \"--CODEGEN--\":6231:6249   */\n      dup3\n        /* \"--CODEGEN--\":3144:3230   */\n      tag_27\n      jump\t// in\n    tag_106:\n        /* \"--CODEGEN--\":3137:3230   */\n      swap1\n      pop\n        /* \"--CODEGEN--\":3315:3336   */\n      dup9\n      swap3\n      pop\n      dup4\n        /* \"--CODEGEN--\":3342:3633   */\n    tag_108:\n        /* \"--CODEGEN--\":3367:3373   */\n      dup9\n        /* \"--CODEGEN--\":3364:3365   */\n      dup2\n        /* \"--CODEGEN--\":3361:3374   */\n      lt\n        /* \"--CODEGEN--\":3342:3633   */\n      iszero\n      tag_110\n      jumpi\n        /* \"--CODEGEN--\":6372:6374   */\n      dup3\n        /* \"--CODEGEN--\":3463:3469   */\n      dup5\n        /* \"--CODEGEN--\":9584:9596   */\n      add\n        /* \"--CODEGEN--\":3484:3547   */\n      tag_111\n        /* \"--CODEGEN--\":3543:3546   */\n      dup4\n        /* \"--CODEGEN--\":9558:9597   */\n      tag_112\n        /* \"--CODEGEN--\":9584:9596   */\n      dup4\n        /* \"--CODEGEN--\":3463:3469   */\n      dup9\n        /* \"--CODEGEN--\":9558:9597   */\n      tag_80\n      jump\t// in\n    tag_112:\n        /* \"--CODEGEN--\":3484:3547   */\n      tag_100\n      jump\t// in\n    tag_111:\n        /* \"--CODEGEN--\":3554:3626   */\n      swap1\n      swap5\n      pop\n        /* \"--CODEGEN--\":3477:3547   */\n      swap2\n      pop\n        /* \"--CODEGEN--\":3389:3390   */\n      0x01\n        /* \"--CODEGEN--\":3382:3391   */\n      add\n        /* \"--CODEGEN--\":3342:3633   */\n      jump(tag_108)\n    tag_110:\n      pop\n        /* \"--CODEGEN--\":6568:6588   */\n      dup5\n      dup2\n      sub\n        /* \"--CODEGEN--\":6563:6565   */\n      0x40\n        /* \"--CODEGEN--\":6548:6566   */\n      dup7\n      add\n        /* \"--CODEGEN--\":6541:6589   */\n      mstore\n        /* \"--CODEGEN--\":9056:9075   */\n      dup6\n      dup2\n      mstore\n        /* \"--CODEGEN--\":9096:9110   */\n      dup2\n      add\n      swap2\n      pop\n        /* \"--CODEGEN--\":4019:4040   */\n      dup6\n      dup4\n        /* \"--CODEGEN--\":4046:4337   */\n    tag_113:\n        /* \"--CODEGEN--\":4071:4077   */\n      dup7\n        /* \"--CODEGEN--\":4068:4069   */\n      dup2\n        /* \"--CODEGEN--\":4065:4078   */\n      lt\n        /* \"--CODEGEN--\":4046:4337   */\n      iszero\n      tag_115\n      jumpi\n        /* \"--CODEGEN--\":978:984   */\n      dup2\n        /* \"--CODEGEN--\":965:985   */\n      calldataload\n        /* \"--CODEGEN--\":990:1023   */\n      tag_116\n        /* \"--CODEGEN--\":1017:1022   */\n      dup2\n        /* \"--CODEGEN--\":990:1023   */\n      tag_117\n      jump\t// in\n    tag_116:\n        /* \"--CODEGEN--\":2486:2532   */\n      tag_118\n        /* \"--CODEGEN--\":2528:2531   */\n      dup6\n        /* \"--CODEGEN--\":2520:2526   */\n      dup3\n        /* \"--CODEGEN--\":2486:2532   */\n      tag_102\n      jump\t// in\n    tag_118:\n      pop\n        /* \"--CODEGEN--\":2552:2566   */\n      swap3\n      dup3\n      add\n      swap3\n        /* \"--CODEGEN--\":9712:9724   */\n      swap1\n      dup3\n      add\n      swap1\n        /* \"--CODEGEN--\":3389:3390   */\n      0x01\n        /* \"--CODEGEN--\":4086:4095   */\n      add\n        /* \"--CODEGEN--\":4046:4337   */\n      jump(tag_113)\n    tag_115:\n      pop\n        /* \"--CODEGEN--\":6595:6721   */\n      swap2\n      swap10\n        /* \"--CODEGEN--\":6217:6731   */\n      swap9\n      pop\n      pop\n      pop\n      pop\n      pop\n      pop\n      pop\n      pop\n      pop\n      jump\t// out\n        /* \"--CODEGEN--\":6738:6948   */\n    tag_20:\n        /* \"--CODEGEN--\":9903:9916   */\n      swap1\n      iszero\n        /* \"--CODEGEN--\":9896:9917   */\n      iszero\n        /* \"--CODEGEN--\":4432:4466   */\n      dup2\n      mstore\n        /* \"--CODEGEN--\":6859:6861   */\n      0x20\n        /* \"--CODEGEN--\":6844:6862   */\n      add\n      swap1\n        /* \"--CODEGEN--\":6830:6948   */\n      jump\t// out\n        /* \"--CODEGEN--\":6955:7371   */\n    tag_78:\n        /* \"--CODEGEN--\":7155:7157   */\n      0x20\n        /* \"--CODEGEN--\":7169:7216   */\n      dup1\n      dup3\n      mstore\n        /* \"--CODEGEN--\":4703:4705   */\n      0x0d\n        /* \"--CODEGEN--\":7140:7158   */\n      swap1\n      dup3\n      add\n        /* \"--CODEGEN--\":9056:9075   */\n      mstore\n      shl(0x9a, 0x1253959053125117d4d6509253)\n        /* \"--CODEGEN--\":9096:9110   */\n      0x40\n      dup3\n      add\n        /* \"--CODEGEN--\":4719:4755   */\n      mstore\n        /* \"--CODEGEN--\":4774:4786   */\n      0x60\n      add\n      swap1\n        /* \"--CODEGEN--\":7126:7371   */\n      jump\t// out\n        /* \"--CODEGEN--\":7378:7794   */\n    tag_64:\n        /* \"--CODEGEN--\":7578:7580   */\n      0x20\n        /* \"--CODEGEN--\":7592:7639   */\n      dup1\n      dup3\n      mstore\n        /* \"--CODEGEN--\":7563:7581   */\n      dup2\n      dup2\n      add\n        /* \"--CODEGEN--\":9056:9075   */\n      mstore\n        /* \"--CODEGEN--\":5061:5095   */\n      0x4f776e61626c653a2063616c6c6572206973206e6f7420746865206f776e6572\n        /* \"--CODEGEN--\":9096:9110   */\n      0x40\n      dup3\n      add\n        /* \"--CODEGEN--\":5041:5096   */\n      mstore\n        /* \"--CODEGEN--\":5115:5127   */\n      0x60\n      add\n      swap1\n        /* \"--CODEGEN--\":7549:7794   */\n      jump\t// out\n        /* \"--CODEGEN--\":7801:8217   */\n    tag_48:\n        /* \"--CODEGEN--\":8001:8003   */\n      0x20\n        /* \"--CODEGEN--\":8015:8062   */\n      dup1\n      dup3\n      mstore\n        /* \"--CODEGEN--\":5366:5368   */\n      0x1a\n        /* \"--CODEGEN--\":7986:8004   */\n      swap1\n      dup3\n      add\n        /* \"--CODEGEN--\":9056:9075   */\n      mstore\n      shl(0x33, 0x0929c869e9ca692a6a88a9ca8bea082a4829aa6be988a9c8ea89)\n        /* \"--CODEGEN--\":9096:9110   */\n      0x40\n      dup3\n      add\n        /* \"--CODEGEN--\":5382:5431   */\n      mstore\n        /* \"--CODEGEN--\":5450:5462   */\n      0x60\n      add\n      swap1\n        /* \"--CODEGEN--\":7972:8217   */\n      jump\t// out\n        /* \"--CODEGEN--\":8224:8446   */\n    tag_27:\n        /* \"--CODEGEN--\":5657:5694   */\n      swap1\n      dup2\n      mstore\n        /* \"--CODEGEN--\":8351:8353   */\n      0x20\n        /* \"--CODEGEN--\":8336:8354   */\n      add\n      swap1\n        /* \"--CODEGEN--\":8322:8446   */\n      jump\t// out\n        /* \"--CODEGEN--\":10759:10876   */\n    tag_117:\n      sub(shl(0x80, 0x01), 0x01)\n        /* \"--CODEGEN--\":9991:10037   */\n      dup2\n      and\n        /* \"--CODEGEN--\":10818:10853   */\n      dup2\n      eq\n        /* \"--CODEGEN--\":10808:10810   */\n      tag_76\n      jumpi\n        /* \"--CODEGEN--\":10867:10868   */\n      0x00\n      dup1\n        /* \"--CODEGEN--\":10857:10869   */\n      revert\n\n    auxdata: 0xa26469706673582212202ce418dadb2d37aab47c893a0f6e4beed9fd586991598f6acd35e418be76125864736f6c634300060b0033\n}\n",
				"bytecode": {
					"linkReferences": {},
					"object": "608060405234801561001057600080fd5b50600080546001600160a01b0319163390811782556040519091907f8be0079c531659141344cd1fd0a4f28419497f9722a3daafe3b4186f6b6457e0908290a36106f58061005f6000396000f3fe608060405234801561001057600080fd5b50600436106100785760003560e01c80630e5665e61461007d57806330d454f0146100925780635e91734c146100bb57806387c13943146100ce5780638da5cb5b146100e35780638f32d59b146100f8578063b3596f0714610100578063f2be88cd14610113575b600080fd5b61009061008b36600461049c565b610126565b005b6100a56100a036600461047a565b6102a1565b6040516100b29190610606565b60405180910390f35b6100906100c936600461047a565b6102bf565b6100d661032f565b6040516100b291906106a1565b6100eb610335565b6040516100b29190610549565b6100a5610344565b6100d661010e36600461047a565b610355565b61009061012136600461047a565b610380565b61012f336103ed565b8281146101575760405162461bcd60e51b815260040161014e9061066d565b60405180910390fd5b60005b8381101561025b576040518060600160405280436001600160401b03168152602001426001600160401b0316815260200184848481811061019757fe5b90506020020160208101906101ac9190610504565b6001600160801b03169052600160008787858181106101c757fe5b90506020020160208101906101dc919061047a565b6001600160a01b031681526020808201929092526040908101600020835181549385015194909201516001600160401b03199093166001600160401b0392831617600160401b600160801b031916600160401b9290941691909102929092176001600160801b03908116600160801b919092160217905560010161015a565b507f995dd01082df56f242aad7e0a6f87116e5d4c972ab8377309354fa2bd0de3e59338585858560405161029395949392919061055d565b60405180910390a150505050565b6001600160a01b031660009081526002602052604090205460ff1690565b6102c7610344565b6102e35760405162461bcd60e51b815260040161014e90610638565b6001600160a01b038116600081815260026020526040808220805460ff19166001179055517fe7d975a644451bd7331add56a59563e5d19b661497948c38d25b9694874706739190a250565b61271081565b6000546001600160a01b031690565b6000546001600160a01b0316331490565b6001600160a01b0316600090815260016020526040902054600160801b90046001600160801b031690565b610388610344565b6103a45760405162461bcd60e51b815260040161014e90610638565b6001600160a01b038116600081815260026020526040808220805460ff19169055517f8bde64628aa5dae6d1c378a97b785745a4db9beaa7d503f91a8274c7b58d2f019190a250565b6103f6816102a1565b6104125760405162461bcd60e51b815260040161014e90610611565b50565b80356001600160a01b038116811461042c57600080fd5b92915050565b60008083601f840112610443578182fd5b5081356001600160401b03811115610459578182fd5b602083019150836020808302850101111561047357600080fd5b9250929050565b60006020828403121561048b578081fd5b6104958383610415565b9392505050565b600080600080604085870312156104b1578283fd5b84356001600160401b03808211156104c7578485fd5b6104d388838901610432565b909650945060208701359150808211156104eb578384fd5b506104f887828801610432565b95989497509550505050565b600060208284031215610515578081fd5b81356001600160801b0381168114610495578182fd5b6001600160a01b0316815260200190565b6001600160801b03169052565b6001600160a01b0391909116815260200190565b6001600160a01b0386168152606060208083018290526000918301908161058488826106a1565b9050889250835b888110156105b6578284016105a9836105a48388610415565b61052b565b909450915060010161058b565b5084810360408601528581528101915085835b868110156105f75781356105dc816106aa565b6105e6858261053c565b5092820192908201906001016105c9565b50919998505050505050505050565b901515815260200190565b6020808252600d908201526c1253959053125117d4d6509253609a1b604082015260600190565b6020808252818101527f4f776e61626c653a2063616c6c6572206973206e6f7420746865206f776e6572604082015260600190565b6020808252601a90820152790929c869e9ca692a6a88a9ca8bea082a4829aa6be988a9c8ea8960331b604082015260600190565b90815260200190565b6001600160801b038116811461041257600080fdfea26469706673582212202ce418dadb2d37aab47c893a0f6e4beed9fd586991598f6acd35e418be76125864736f6c634300060b0033",
					"opcodes": "PUSH1 0x80 PUSH1 0x40 MSTORE CALLVALUE DUP1 ISZERO PUSH2 0x10 JUMPI PUSH1 0x0 DUP1 REVERT JUMPDEST POP PUSH1 0x0 DUP1 SLOAD PUSH1 0x1 PUSH1 0x1 PUSH1 0xA0 SHL SUB NOT AND CALLER SWAP1 DUP2 OR DUP3 SSTORE PUSH1 0x40 MLOAD SWAP1 SWAP2 SWAP1 PUSH32 0x8BE0079C531659141344CD1FD0A4F28419497F9722A3DAAFE3B4186F6B6457E0 SWAP1 DUP3 SWAP1 LOG3 PUSH2 0x6F5 DUP1 PUSH2 0x5F PUSH1 0x0 CODECOPY PUSH1 0x0 RETURN INVALID PUSH1 0x80 PUSH1 0x40 MSTORE CALLVALUE DUP1 ISZERO PUSH2 0x10 JUMPI PUSH1 0x0 DUP1 REVERT JUMPDEST POP PUSH1 0x4 CALLDATASIZE LT PUSH2 0x78 JUMPI PUSH1 0x0 CALLDATALOAD PUSH1 0xE0 SHR DUP1 PUSH4 0xE5665E6 EQ PUSH2 0x7D JUMPI DUP1 PUSH4 0x30D454F0 EQ PUSH2 0x92 JUMPI DUP1 PUSH4 0x5E91734C EQ PUSH2 0xBB JUMPI DUP1 PUSH4 0x87C13943 EQ PUSH2 0xCE JUMPI DUP1 PUSH4 0x8DA5CB5B EQ PUSH2 0xE3 JUMPI DUP1 PUSH4 0x8F32D59B EQ PUSH2 0xF8 JUMPI DUP1 PUSH4 0xB3596F07 EQ PUSH2 0x100 JUMPI DUP1 PUSH4 0xF2BE88CD EQ PUSH2 0x113 JUMPI JUMPDEST PUSH1 0x0 DUP1 REVERT JUMPDEST PUSH2 0x90 PUSH2 0x8B CALLDATASIZE PUSH1 0x4 PUSH2 0x49C JUMP JUMPDEST PUSH2 0x126 JUMP JUMPDEST STOP JUMPDEST PUSH2 0xA5 PUSH2 0xA0 CALLDATASIZE PUSH1 0x4 PUSH2 0x47A JUMP JUMPDEST PUSH2 0x2A1 JUMP JUMPDEST PUSH1 0x40 MLOAD PUSH2 0xB2 SWAP2 SWAP1 PUSH2 0x606 JUMP JUMPDEST PUSH1 0x40 MLOAD DUP1 SWAP2 SUB SWAP1 RETURN JUMPDEST PUSH2 0x90 PUSH2 0xC9 CALLDATASIZE PUSH1 0x4 PUSH2 0x47A JUMP JUMPDEST PUSH2 0x2BF JUMP JUMPDEST PUSH2 0xD6 PUSH2 0x32F JUMP JUMPDEST PUSH1 0x40 MLOAD PUSH2 0xB2 SWAP2 SWAP1 PUSH2 0x6A1 JUMP JUMPDEST PUSH2 0xEB PUSH2 0x335 JUMP JUMPDEST PUSH1 0x40 MLOAD PUSH2 0xB2 SWAP2 SWAP1 PUSH2 0x549 JUMP JUMPDEST PUSH2 0xA5 PUSH2 0x344 JUMP JUMPDEST PUSH2 0xD6 PUSH2 0x10E CALLDATASIZE PUSH1 0x4 PUSH2 0x47A JUMP JUMPDEST PUSH2 0x355 JUMP JUMPDEST PUSH2 0x90 PUSH2 0x121 CALLDATASIZE PUSH1 0x4 PUSH2 0x47A JUMP JUMPDEST PUSH2 0x380 JUMP JUMPDEST PUSH2 0x12F CALLER PUSH2 0x3ED JUMP JUMPDEST DUP3 DUP2 EQ PUSH2 0x157 JUMPI PUSH1 0x40 MLOAD PUSH3 0x461BCD PUSH1 0xE5 SHL DUP2 MSTORE PUSH1 0x4 ADD PUSH2 0x14E SWAP1 PUSH2 0x66D JUMP JUMPDEST PUSH1 0x40 MLOAD DUP1 SWAP2 SUB SWAP1 REVERT JUMPDEST PUSH1 0x0 JUMPDEST DUP4 DUP2 LT ISZERO PUSH2 0x25B JUMPI PUSH1 0x40 MLOAD DUP1 PUSH1 0x60 ADD PUSH1 0x40 MSTORE DUP1 NUMBER PUSH1 0x1 PUSH1 0x1 PUSH1 0x40 SHL SUB AND DUP2 MSTORE PUSH1 0x20 ADD TIMESTAMP PUSH1 0x1 PUSH1 0x1 PUSH1 0x40 SHL SUB AND DUP2 MSTORE PUSH1 0x20 ADD DUP5 DUP5 DUP5 DUP2 DUP2 LT PUSH2 0x197 JUMPI INVALID JUMPDEST SWAP1 POP PUSH1 0x20 MUL ADD PUSH1 0x20 DUP2 ADD SWAP1 PUSH2 0x1AC SWAP2 SWAP1 PUSH2 0x504 JUMP JUMPDEST PUSH1 0x1 PUSH1 0x1 PUSH1 0x80 SHL SUB AND SWAP1 MSTORE PUSH1 0x1 PUSH1 0x0 DUP8 DUP8 DUP6 DUP2 DUP2 LT PUSH2 0x1C7 JUMPI INVALID JUMPDEST SWAP1 POP PUSH1 0x20 MUL ADD PUSH1 0x20 DUP2 ADD SWAP1 PUSH2 0x1DC SWAP2 SWAP1 PUSH2 0x47A JUMP JUMPDEST PUSH1 0x1 PUSH1 0x1 PUSH1 0xA0 SHL SUB AND DUP2 MSTORE PUSH1 0x20 DUP1 DUP3 ADD SWAP3 SWAP1 SWAP3 MSTORE PUSH1 0x40 SWAP1 DUP2 ADD PUSH1 0x0 KECCAK256 DUP4 MLOAD DUP2 SLOAD SWAP4 DUP6 ADD MLOAD SWAP5 SWAP1 SWAP3 ADD MLOAD PUSH1 0x1 PUSH1 0x1 PUSH1 0x40 SHL SUB NOT SWAP1 SWAP4 AND PUSH1 0x1 PUSH1 0x1 PUSH1 0x40 SHL SUB SWAP3 DUP4 AND OR PUSH1 0x1 PUSH1 0x40 SHL PUSH1 0x1 PUSH1 0x80 SHL SUB NOT AND PUSH1 0x1 PUSH1 0x40 SHL SWAP3 SWAP1 SWAP5 AND SWAP2 SWAP1 SWAP2 MUL SWAP3 SWAP1 SWAP3 OR PUSH1 0x1 PUSH1 0x1 PUSH1 0x80 SHL SUB SWAP1 DUP2 AND PUSH1 0x1 PUSH1 0x80 SHL SWAP2 SWAP1 SWAP3 AND MUL OR SWAP1 SSTORE PUSH1 0x1 ADD PUSH2 0x15A JUMP JUMPDEST POP PUSH32 0x995DD01082DF56F242AAD7E0A6F87116E5D4C972AB8377309354FA2BD0DE3E59 CALLER DUP6 DUP6 DUP6 DUP6 PUSH1 0x40 MLOAD PUSH2 0x293 SWAP6 SWAP5 SWAP4 SWAP3 SWAP2 SWAP1 PUSH2 0x55D JUMP JUMPDEST PUSH1 0x40 MLOAD DUP1 SWAP2 SUB SWAP1 LOG1 POP POP POP POP JUMP JUMPDEST PUSH1 0x1 PUSH1 0x1 PUSH1 0xA0 SHL SUB AND PUSH1 0x0 SWAP1 DUP2 MSTORE PUSH1 0x2 PUSH1 0x20 MSTORE PUSH1 0x40 SWAP1 KECCAK256 SLOAD PUSH1 0xFF AND SWAP1 JUMP JUMPDEST PUSH2 0x2C7 PUSH2 0x344 JUMP JUMPDEST PUSH2 0x2E3 JUMPI PUSH1 0x40 MLOAD PUSH3 0x461BCD PUSH1 0xE5 SHL DUP2 MSTORE PUSH1 0x4 ADD PUSH2 0x14E SWAP1 PUSH2 0x638 JUMP JUMPDEST PUSH1 0x1 PUSH1 0x1 PUSH1 0xA0 SHL SUB DUP2 AND PUSH1 0x0 DUP2 DUP2 MSTORE PUSH1 0x2 PUSH1 0x20 MSTORE PUSH1 0x40 DUP1 DUP3 KECCAK256 DUP1 SLOAD PUSH1 0xFF NOT AND PUSH1 0x1 OR SWAP1 SSTORE MLOAD PUSH32 0xE7D975A644451BD7331ADD56A59563E5D19B661497948C38D25B969487470673 SWAP2 SWAP1 LOG2 POP JUMP JUMPDEST PUSH2 0x2710 DUP2 JUMP JUMPDEST PUSH1 0x0 SLOAD PUSH1 0x1 PUSH1 0x1 PUSH1 0xA0 SHL SUB AND SWAP1 JUMP JUMPDEST PUSH1 0x0 SLOAD PUSH1 0x1 PUSH1 0x1 PUSH1 0xA0 SHL SUB AND CALLER EQ SWAP1 JUMP JUMPDEST PUSH1 0x1 PUSH1 0x1 PUSH1 0xA0 SHL SUB AND PUSH1 0x0 SWAP1 DUP2 MSTORE PUSH1 0x1 PUSH1 0x20 MSTORE PUSH1 0x40 SWAP1 KECCAK256 SLOAD PUSH1 0x1 PUSH1 0x80 SHL SWAP1 DIV PUSH1 0x1 PUSH1 0x1 PUSH1 0x80 SHL SUB AND SWAP1 JUMP JUMPDEST PUSH2 0x388 PUSH2 0x344 JUMP JUMPDEST PUSH2 0x3A4 JUMPI PUSH1 0x40 MLOAD PUSH3 0x461BCD PUSH1 0xE5 SHL DUP2 MSTORE PUSH1 0x4 ADD PUSH2 0x14E SWAP1 PUSH2 0x638 JUMP JUMPDEST PUSH1 0x1 PUSH1 0x1 PUSH1 0xA0 SHL SUB DUP2 AND PUSH1 0x0 DUP2 DUP2 MSTORE PUSH1 0x2 PUSH1 0x20 MSTORE PUSH1 0x40 DUP1 DUP3 KECCAK256 DUP1 SLOAD PUSH1 0xFF NOT AND SWAP1 SSTORE MLOAD PUSH32 0x8BDE64628AA5DAE6D1C378A97B785745A4DB9BEAA7D503F91A8274C7B58D2F01 SWAP2 SWAP1 LOG2 POP JUMP JUMPDEST PUSH2 0x3F6 DUP2 PUSH2 0x2A1 JUMP JUMPDEST PUSH2 0x412 JUMPI PUSH1 0x40 MLOAD PUSH3 0x461BCD PUSH1 0xE5 SHL DUP2 MSTORE PUSH1 0x4 ADD PUSH2 0x14E SWAP1 PUSH2 0x611 JUMP JUMPDEST POP JUMP JUMPDEST DUP1 CALLDATALOAD PUSH1 0x1 PUSH1 0x1 PUSH1 0xA0 SHL SUB DUP2 AND DUP2 EQ PUSH2 0x42C JUMPI PUSH1 0x0 DUP1 REVERT JUMPDEST SWAP3 SWAP2 POP POP JUMP JUMPDEST PUSH1 0x0 DUP1 DUP4 PUSH1 0x1F DUP5 ADD SLT PUSH2 0x443 JUMPI DUP2 DUP3 REVERT JUMPDEST POP DUP2 CALLDATALOAD PUSH1 0x1 PUSH1 0x1 PUSH1 0x40 SHL SUB DUP2 GT ISZERO PUSH2 0x459 JUMPI DUP2 DUP3 REVERT JUMPDEST PUSH1 0x20 DUP4 ADD SWAP2 POP DUP4 PUSH1 0x20 DUP1 DUP4 MUL DUP6 ADD ADD GT ISZERO PUSH2 0x473 JUMPI PUSH1 0x0 DUP1 REVERT JUMPDEST SWAP3 POP SWAP3 SWAP1 POP JUMP JUMPDEST PUSH1 0x0 PUSH1 0x20 DUP3 DUP5 SUB SLT ISZERO PUSH2 0x48B JUMPI DUP1 DUP2 REVERT JUMPDEST PUSH2 0x495 DUP4 DUP4 PUSH2 0x415 JUMP JUMPDEST SWAP4 SWAP3 POP POP POP JUMP JUMPDEST PUSH1 0x0 DUP1 PUSH1 0x0 DUP1 PUSH1 0x40 DUP6 DUP8 SUB SLT ISZERO PUSH2 0x4B1 JUMPI DUP3 DUP4 REVERT JUMPDEST DUP5 CALLDATALOAD PUSH1 0x1 PUSH1 0x1 PUSH1 0x40 SHL SUB DUP1 DUP3 GT ISZERO PUSH2 0x4C7 JUMPI DUP5 DUP6 REVERT JUMPDEST PUSH2 0x4D3 DUP9 DUP4 DUP10 ADD PUSH2 0x432 JUMP JUMPDEST SWAP1 SWAP7 POP SWAP5 POP PUSH1 0x20 DUP8 ADD CALLDATALOAD SWAP2 POP DUP1 DUP3 GT ISZERO PUSH2 0x4EB JUMPI DUP4 DUP5 REVERT JUMPDEST POP PUSH2 0x4F8 DUP8 DUP3 DUP9 ADD PUSH2 0x432 JUMP JUMPDEST SWAP6 SWAP9 SWAP5 SWAP8 POP SWAP6 POP POP POP POP JUMP JUMPDEST PUSH1 0x0 PUSH1 0x20 DUP3 DUP5 SUB SLT ISZERO PUSH2 0x515 JUMPI DUP1 DUP2 REVERT JUMPDEST DUP2 CALLDATALOAD PUSH1 0x1 PUSH1 0x1 PUSH1 0x80 SHL SUB DUP2 AND DUP2 EQ PUSH2 0x495 JUMPI DUP2 DUP3 REVERT JUMPDEST PUSH1 0x1 PUSH1 0x1 PUSH1 0xA0 SHL SUB AND DUP2 MSTORE PUSH1 0x20 ADD SWAP1 JUMP JUMPDEST PUSH1 0x1 PUSH1 0x1 PUSH1 0x80 SHL SUB AND SWAP1 MSTORE JUMP JUMPDEST PUSH1 0x1 PUSH1 0x1 PUSH1 0xA0 SHL SUB SWAP2 SWAP1 SWAP2 AND DUP2 MSTORE PUSH1 0x20 ADD SWAP1 JUMP JUMPDEST PUSH1 0x1 PUSH1 0x1 PUSH1 0xA0 SHL SUB DUP7 AND DUP2 MSTORE PUSH1 0x60 PUSH1 0x20 DUP1 DUP4 ADD DUP3 SWAP1 MSTORE PUSH1 0x0 SWAP2 DUP4 ADD SWAP1 DUP2 PUSH2 0x584 DUP9 DUP3 PUSH2 0x6A1 JUMP JUMPDEST SWAP1 POP DUP9 SWAP3 POP DUP4 JUMPDEST DUP9 DUP2 LT ISZERO PUSH2 0x5B6 JUMPI DUP3 DUP5 ADD PUSH2 0x5A9 DUP4 PUSH2 0x5A4 DUP4 DUP9 PUSH2 0x415 JUMP JUMPDEST PUSH2 0x52B JUMP JUMPDEST SWAP1 SWAP5 POP SWAP2 POP PUSH1 0x1 ADD PUSH2 0x58B JUMP JUMPDEST POP DUP5 DUP2 SUB PUSH1 0x40 DUP7 ADD MSTORE DUP6 DUP2 MSTORE DUP2 ADD SWAP2 POP DUP6 DUP4 JUMPDEST DUP7 DUP2 LT ISZERO PUSH2 0x5F7 JUMPI DUP2 CALLDATALOAD PUSH2 0x5DC DUP2 PUSH2 0x6AA JUMP JUMPDEST PUSH2 0x5E6 DUP6 DUP3 PUSH2 0x53C JUMP JUMPDEST POP SWAP3 DUP3 ADD SWAP3 SWAP1 DUP3 ADD SWAP1 PUSH1 0x1 ADD PUSH2 0x5C9 JUMP JUMPDEST POP SWAP2 SWAP10 SWAP9 POP POP POP POP POP POP POP POP POP JUMP JUMPDEST SWAP1 ISZERO ISZERO DUP2 MSTORE PUSH1 0x20 ADD SWAP1 JUMP JUMPDEST PUSH1 0x20 DUP1 DUP3 MSTORE PUSH1 0xD SWAP1 DUP3 ADD MSTORE PUSH13 0x1253959053125117D4D6509253 PUSH1 0x9A SHL PUSH1 0x40 DUP3 ADD MSTORE PUSH1 0x60 ADD SWAP1 JUMP JUMPDEST PUSH1 0x20 DUP1 DUP3 MSTORE DUP2 DUP2 ADD MSTORE PUSH32 0x4F776E61626C653A2063616C6C6572206973206E6F7420746865206F776E6572 PUSH1 0x40 DUP3 ADD MSTORE PUSH1 0x60 ADD SWAP1 JUMP JUMPDEST PUSH1 0x20 DUP1 DUP3 MSTORE PUSH1 0x1A SWAP1 DUP3 ADD MSTORE PUSH26 0x929C869E9CA692A6A88A9CA8BEA082A4829AA6BE988A9C8EA89 PUSH1 0x33 SHL PUSH1 0x40 DUP3 ADD MSTORE PUSH1 0x60 ADD SWAP1 JUMP JUMPDEST SWAP1 DUP2 MSTORE PUSH1 0x20 ADD SWAP1 JUMP JUMPDEST PUSH1 0x1 PUSH1 0x1 PUSH1 0x80 SHL SUB DUP2 AND DUP2 EQ PUSH2 0x412 JUMPI PUSH1 0x0 DUP1 REVERT INVALID LOG2 PUSH5 0x6970667358 0x22 SLT KECCAK256 0x2C 0xE4 XOR 0xDA 0xDB 0x2D CALLDATACOPY 0xAA 0xB4 PUSH29 0x893A0F6E4BEED9FD586991598F6ACD35E418BE76125864736F6C634300 MOD SIGNEXTEND STOP CALLER "
				},
				"gasEstimates": {
					"creation": {
						"codeDepositCost": "356200",
						"executionCost": "22761",
						"totalCost": "378961"
					},
					"external": {
						"PERCENTAGE_BASE()": "272",
						"authorizeSybil(address)": "23249",
						"getAssetPrice(address)": "1420",
						"isOwner()": "1145",
						"isSybilWhitelisted(address)": "1287",
						"owner()": "1136",
						"submitPrices(address[],uint128[])": "infinite",
						"unauthorizeSybil(address)": "23353"
					},
					"internal": {
						"_requireWhitelistedSybil(address)": "infinite"
					}
				},
				"methodIdentifiers": {
					"PERCENTAGE_BASE()": "87c13943",
					"authorizeSybil(address)": "5e91734c",
					"getAssetPrice(address)": "b3596f07",
					"isOwner()": "8f32d59b",
					"isSybilWhitelisted(address)": "30d454f0",
					"owner()": "8da5cb5b",
					"submitPrices(address[],uint128[])": "0e5665e6",
					"unauthorizeSybil(address)": "f2be88cd"
				}
			},
			"storageLayout": {
				"storage": [
					{
						"astId": 4,
						"contract": "contracts/MeridianFallback.sol:MeridianFallbackOracle",
						"label": "_owner",
						"offset": 0,
						"slot": "0",
						"type": "t_address"
					},
					{
						"astId": 337,
						"contract": "contracts/MeridianFallback.sol:MeridianFallbackOracle",
						"label": "_prices",
						"offset": 0,
						"slot": "1",
						"type": "t_mapping(t_address,t_struct(Price)312_storage)"
					},
					{
						"astId": 341,
						"contract": "contracts/MeridianFallback.sol:MeridianFallbackOracle",
						"label": "_sybils",
						"offset": 0,
						"slot": "2",
						"type": "t_mapping(t_address,t_bool)"
					}
				],
				"types": {
					"t_address": {
						"encoding": "inplace",
						"label": "address",
						"numberOfBytes": "20"
					},
					"t_bool": {
						"encoding": "inplace",
						"label": "bool",
						"numberOfBytes": "1"
					},
					"t_mapping(t_address,t_bool)": {
						"encoding": "mapping",
						"key": "t_address",
						"label": "mapping(address => bool)",
						"numberOfBytes": "32",
						"value": "t_bool"
					},
					"t_mapping(t_address,t_struct(Price)312_storage)": {
						"encoding": "mapping",
						"key": "t_address",
						"label": "mapping(address => struct MeridianFallbackOracle.Price)",
						"numberOfBytes": "32",
						"value": "t_struct(Price)312_storage"
					},
					"t_struct(Price)312_storage": {
						"encoding": "inplace",
						"label": "struct MeridianFallbackOracle.Price",
						"members": [
							{
								"astId": 307,
								"contract": "contracts/MeridianFallback.sol:MeridianFallbackOracle",
								"label": "blockNumber",
								"offset": 0,
								"slot": "0",
								"type": "t_uint64"
							},
							{
								"astId": 309,
								"contract": "contracts/MeridianFallback.sol:MeridianFallbackOracle",
								"label": "blockTimestamp",
								"offset": 8,
								"slot": "0",
								"type": "t_uint64"
							},
							{
								"astId": 311,
								"contract": "contracts/MeridianFallback.sol:MeridianFallbackOracle",
								"label": "price",
								"offset": 16,
								"slot": "0",
								"type": "t_uint128"
							}
						],
						"numberOfBytes": "32"
					},
					"t_uint128": {
						"encoding": "inplace",
						"label": "uint128",
						"numberOfBytes": "16"
					},
					"t_uint64": {
						"encoding": "inplace",
						"label": "uint64",
						"numberOfBytes": "8"
					}
				}
			},
			"userdoc": {
				"kind": "user",
				"methods": {},
				"version": 1
			}
		}
	}
}