{
	"data": {
		"bytecode": {
			"linkReferences": {},
			"object": "6080604052348015600f57600080fd5b5060838061001e6000396000f3fe6080604052348015600f57600080fd5b506004361060285760003560e01c8063a20baee614602d575b600080fd5b603b670de0b6b3a764000081565b60405190815260200160405180910390f3fea26469706673582212205de6729e8604b2ea73220a6bf9996308735dc37ef7718cb7134cdde9f6d2a9f364736f6c63430008140033",
			"opcodes": "PUSH1 0x80 PUSH1 0x40 MSTORE CALLVALUE DUP1 ISZERO PUSH1 0xF JUMPI PUSH1 0x0 DUP1 REVERT JUMPDEST POP PUSH1 0x83 DUP1 PUSH2 0x1E PUSH1 0x0 CODECOPY PUSH1 0x0 RETURN INVALID PUSH1 0x80 PUSH1 0x40 MSTORE CALLVALUE DUP1 ISZERO PUSH1 0xF JUMPI PUSH1 0x0 DUP1 REVERT JUMPDEST POP PUSH1 0x4 CALLDATASIZE LT PUSH1 0x28 JUMPI PUSH1 0x0 CALLDATALOAD PUSH1 0xE0 SHR DUP1 PUSH4 0xA20BAEE6 EQ PUSH1 0x2D JUMPI JUMPDEST PUSH1 0x0 DUP1 REVERT JUMPDEST PUSH1 0x3B PUSH8 0xDE0B6B3A7640000 DUP2 JUMP JUMPDEST PUSH1 0x40 MLOAD SWAP1 DUP2 MSTORE PUSH1 0x20 ADD PUSH1 0x40 MLOAD DUP1 SWAP2 SUB SWAP1 RETURN INVALID LOG2 PUSH5 0x6970667358 0x22 SLT KECCAK256 0x5D 0xE6 PUSH19 0x9E8604B2EA73220A6BF9996308735DC37EF771 DUP13 0xB7 SGT 0x4C 0xDD 0xE9 0xF6 0xD2 0xA9 RETURN PUSH5 0x736F6C6343 STOP ADDMOD EQ STOP CALLER "
		},
		"gasEstimates": {
			"creation": {
				"codeDepositCost": "26200",
				"executionCost": "81",
				"totalCost": "26281"
			},
			"external": {
				"DECIMAL_PRECISION()": "161"
			}
		},
		"methodIdentifiers": {
			"DECIMAL_PRECISION()": "a20baee6"
		}
	},
	"abi": [
		{
			"inputs": [],
			"name": "DECIMAL_PRECISION",
			"outputs": [
				{
					"internalType": "uint256",
					"name": "",
					"type": "uint256"
				}
			],
			"stateMutability": "view",
			"type": "function"
		}
	]
}