{
	"data": {
		"bytecode": {
			"linkReferences": {},
			"object": "608060405234801561001057600080fd5b50610431806100206000396000f3fe608060405234801561001057600080fd5b50600436106100cf5760003560e01c8063741bef1a1161008c5780637f7dde4a116100665780637f7dde4a1461014a578063887105d314610152578063a20baee61461012a578063f92d34331461015a576100cf565b8063741bef1a14610132578063794e57241461013a578063795d26c314610142576100cf565b80631bf43555146100d45780632e86bbd8146100ee5780633cc74225146100f65780634870dd9a1461011a5780635733d58f1461012257806372fe25aa1461012a575b600080fd5b6100dc610162565b60408051918252519081900360200190f35b6100dc61016f565b6100fe61017c565b604080516001600160a01b039092168252519081900360200190f35b6100dc61018b565b6100dc610190565b6100dc61019c565b6100fe6101a8565b6100dc6101b7565b6100dc6101c3565b6100fe6102c4565b6100dc6102d3565b6100dc61038f565b6809c2007651b250000081565b6801158e460913d0000081565b6001546001600160a01b031681565b60c881565b6714d1120d7b16000081565b670de0b6b3a764000081565b6002546001600160a01b031681565b670f43fc2c04ee000081565b6000805460408051632f5a97e560e11b8152905183926001600160a01b031691635eb52fca916004808301926020929190829003018186803b15801561020857600080fd5b505afa15801561021c573d6000803e3d6000fd5b505050506040513d602081101561023257600080fd5b505160015460408051632f5a97e560e11b815290519293506000926001600160a01b0390921691635eb52fca91600480820192602092909190829003018186803b15801561027f57600080fd5b505afa158015610293573d6000803e3d6000fd5b505050506040513d60208110156102a957600080fd5b505190506102bd828263ffffffff61039a16565b9250505090565b6000546001600160a01b031681565b6000805460408051630a7b61df60e11b8152905183926001600160a01b0316916314f6c3be916004808301926020929190829003018186803b15801561031857600080fd5b505afa15801561032c573d6000803e3d6000fd5b505050506040513d602081101561034257600080fd5b505160015460408051630a7b61df60e11b815290519293506000926001600160a01b03909216916314f6c3be91600480820192602092909190829003018186803b15801561027f57600080fd5b6611c37937e0800081565b6000828201838110156103f4576040805162461bcd60e51b815260206004820152601b60248201527f536166654d6174683a206164646974696f6e206f766572666c6f770000000000604482015290519081900360640190fd5b939250505056fea2646970667358221220f4e46b0ae422dea28cff3a7e8a583dda900b0b1bdc8cb8d0420215557291cf9164736f6c634300060b0033",
			"opcodes": "PUSH1 0x80 PUSH1 0x40 MSTORE CALLVALUE DUP1 ISZERO PUSH2 0x10 JUMPI PUSH1 0x0 DUP1 REVERT JUMPDEST POP PUSH2 0x431 DUP1 PUSH2 0x20 PUSH1 0x0 CODECOPY PUSH1 0x0 RETURN INVALID PUSH1 0x80 PUSH1 0x40 MSTORE CALLVALUE DUP1 ISZERO PUSH2 0x10 JUMPI PUSH1 0x0 DUP1 REVERT JUMPDEST POP PUSH1 0x4 CALLDATASIZE LT PUSH2 0xCF JUMPI PUSH1 0x0 CALLDATALOAD PUSH1 0xE0 SHR DUP1 PUSH4 0x741BEF1A GT PUSH2 0x8C JUMPI DUP1 PUSH4 0x7F7DDE4A GT PUSH2 0x66 JUMPI DUP1 PUSH4 0x7F7DDE4A EQ PUSH2 0x14A JUMPI DUP1 PUSH4 0x887105D3 EQ PUSH2 0x152 JUMPI DUP1 PUSH4 0xA20BAEE6 EQ PUSH2 0x12A JUMPI DUP1 PUSH4 0xF92D3433 EQ PUSH2 0x15A JUMPI PUSH2 0xCF JUMP JUMPDEST DUP1 PUSH4 0x741BEF1A EQ PUSH2 0x132 JUMPI DUP1 PUSH4 0x794E5724 EQ PUSH2 0x13A JUMPI DUP1 PUSH4 0x795D26C3 EQ PUSH2 0x142 JUMPI PUSH2 0xCF JUMP JUMPDEST DUP1 PUSH4 0x1BF43555 EQ PUSH2 0xD4 JUMPI DUP1 PUSH4 0x2E86BBD8 EQ PUSH2 0xEE JUMPI DUP1 PUSH4 0x3CC74225 EQ PUSH2 0xF6 JUMPI DUP1 PUSH4 0x4870DD9A EQ PUSH2 0x11A JUMPI DUP1 PUSH4 0x5733D58F EQ PUSH2 0x122 JUMPI DUP1 PUSH4 0x72FE25AA EQ PUSH2 0x12A JUMPI JUMPDEST PUSH1 0x0 DUP1 REVERT JUMPDEST PUSH2 0xDC PUSH2 0x162 JUMP JUMPDEST PUSH1 0x40 DUP1 MLOAD SWAP2 DUP3 MSTORE MLOAD SWAP1 DUP2 SWAP1 SUB PUSH1 0x20 ADD SWAP1 RETURN JUMPDEST PUSH2 0xDC PUSH2 0x16F JUMP JUMPDEST PUSH2 0xFE PUSH2 0x17C JUMP JUMPDEST PUSH1 0x40 DUP1 MLOAD PUSH1 0x1 PUSH1 0x1 PUSH1 0xA0 SHL SUB SWAP1 SWAP3 AND DUP3 MSTORE MLOAD SWAP1 DUP2 SWAP1 SUB PUSH1 0x20 ADD SWAP1 RETURN JUMPDEST PUSH2 0xDC PUSH2 0x18B JUMP JUMPDEST PUSH2 0xDC PUSH2 0x190 JUMP JUMPDEST PUSH2 0xDC PUSH2 0x19C JUMP JUMPDEST PUSH2 0xFE PUSH2 0x1A8 JUMP JUMPDEST PUSH2 0xDC PUSH2 0x1B7 JUMP JUMPDEST PUSH2 0xDC PUSH2 0x1C3 JUMP JUMPDEST PUSH2 0xFE PUSH2 0x2C4 JUMP JUMPDEST PUSH2 0xDC PUSH2 0x2D3 JUMP JUMPDEST PUSH2 0xDC PUSH2 0x38F JUMP JUMPDEST PUSH9 0x9C2007651B2500000 DUP2 JUMP JUMPDEST PUSH9 0x1158E460913D00000 DUP2 JUMP JUMPDEST PUSH1 0x1 SLOAD PUSH1 0x1 PUSH1 0x1 PUSH1 0xA0 SHL SUB AND DUP2 JUMP JUMPDEST PUSH1 0xC8 DUP2 JUMP JUMPDEST PUSH8 0x14D1120D7B160000 DUP2 JUMP JUMPDEST PUSH8 0xDE0B6B3A7640000 DUP2 JUMP JUMPDEST PUSH1 0x2 SLOAD PUSH1 0x1 PUSH1 0x1 PUSH1 0xA0 SHL SUB AND DUP2 JUMP JUMPDEST PUSH8 0xF43FC2C04EE0000 DUP2 JUMP JUMPDEST PUSH1 0x0 DUP1 SLOAD PUSH1 0x40 DUP1 MLOAD PUSH4 0x2F5A97E5 PUSH1 0xE1 SHL DUP2 MSTORE SWAP1 MLOAD DUP4 SWAP3 PUSH1 0x1 PUSH1 0x1 PUSH1 0xA0 SHL SUB AND SWAP2 PUSH4 0x5EB52FCA SWAP2 PUSH1 0x4 DUP1 DUP4 ADD SWAP3 PUSH1 0x20 SWAP3 SWAP2 SWAP1 DUP3 SWAP1 SUB ADD DUP2 DUP7 DUP1 EXTCODESIZE ISZERO DUP1 ISZERO PUSH2 0x208 JUMPI PUSH1 0x0 DUP1 REVERT JUMPDEST POP GAS STATICCALL ISZERO DUP1 ISZERO PUSH2 0x21C JUMPI RETURNDATASIZE PUSH1 0x0 DUP1 RETURNDATACOPY RETURNDATASIZE PUSH1 0x0 REVERT JUMPDEST POP POP POP POP PUSH1 0x40 MLOAD RETURNDATASIZE PUSH1 0x20 DUP2 LT ISZERO PUSH2 0x232 JUMPI PUSH1 0x0 DUP1 REVERT JUMPDEST POP MLOAD PUSH1 0x1 SLOAD PUSH1 0x40 DUP1 MLOAD PUSH4 0x2F5A97E5 PUSH1 0xE1 SHL DUP2 MSTORE SWAP1 MLOAD SWAP3 SWAP4 POP PUSH1 0x0 SWAP3 PUSH1 0x1 PUSH1 0x1 PUSH1 0xA0 SHL SUB SWAP1 SWAP3 AND SWAP2 PUSH4 0x5EB52FCA SWAP2 PUSH1 0x4 DUP1 DUP3 ADD SWAP3 PUSH1 0x20 SWAP3 SWAP1 SWAP2 SWAP1 DUP3 SWAP1 SUB ADD DUP2 DUP7 DUP1 EXTCODESIZE ISZERO DUP1 ISZERO PUSH2 0x27F JUMPI PUSH1 0x0 DUP1 REVERT JUMPDEST POP GAS STATICCALL ISZERO DUP1 ISZERO PUSH2 0x293 JUMPI RETURNDATASIZE PUSH1 0x0 DUP1 RETURNDATACOPY RETURNDATASIZE PUSH1 0x0 REVERT JUMPDEST POP POP POP POP PUSH1 0x40 MLOAD RETURNDATASIZE PUSH1 0x20 DUP2 LT ISZERO PUSH2 0x2A9 JUMPI PUSH1 0x0 DUP1 REVERT JUMPDEST POP MLOAD SWAP1 POP PUSH2 0x2BD DUP3 DUP3 PUSH4 0xFFFFFFFF PUSH2 0x39A AND JUMP JUMPDEST SWAP3 POP POP POP SWAP1 JUMP JUMPDEST PUSH1 0x0 SLOAD PUSH1 0x1 PUSH1 0x1 PUSH1 0xA0 SHL SUB AND DUP2 JUMP JUMPDEST PUSH1 0x0 DUP1 SLOAD PUSH1 0x40 DUP1 MLOAD PUSH4 0xA7B61DF PUSH1 0xE1 SHL DUP2 MSTORE SWAP1 MLOAD DUP4 SWAP3 PUSH1 0x1 PUSH1 0x1 PUSH1 0xA0 SHL SUB AND SWAP2 PUSH4 0x14F6C3BE SWAP2 PUSH1 0x4 DUP1 DUP4 ADD SWAP3 PUSH1 0x20 SWAP3 SWAP2 SWAP1 DUP3 SWAP1 SUB ADD DUP2 DUP7 DUP1 EXTCODESIZE ISZERO DUP1 ISZERO PUSH2 0x318 JUMPI PUSH1 0x0 DUP1 REVERT JUMPDEST POP GAS STATICCALL ISZERO DUP1 ISZERO PUSH2 0x32C JUMPI RETURNDATASIZE PUSH1 0x0 DUP1 RETURNDATACOPY RETURNDATASIZE PUSH1 0x0 REVERT JUMPDEST POP POP POP POP PUSH1 0x40 MLOAD RETURNDATASIZE PUSH1 0x20 DUP2 LT ISZERO PUSH2 0x342 JUMPI PUSH1 0x0 DUP1 REVERT JUMPDEST POP MLOAD PUSH1 0x1 SLOAD PUSH1 0x40 DUP1 MLOAD PUSH4 0xA7B61DF PUSH1 0xE1 SHL DUP2 MSTORE SWAP1 MLOAD SWAP3 SWAP4 POP PUSH1 0x0 SWAP3 PUSH1 0x1 PUSH1 0x1 PUSH1 0xA0 SHL SUB SWAP1 SWAP3 AND SWAP2 PUSH4 0x14F6C3BE SWAP2 PUSH1 0x4 DUP1 DUP3 ADD SWAP3 PUSH1 0x20 SWAP3 SWAP1 SWAP2 SWAP1 DUP3 SWAP1 SUB ADD DUP2 DUP7 DUP1 EXTCODESIZE ISZERO DUP1 ISZERO PUSH2 0x27F JUMPI PUSH1 0x0 DUP1 REVERT JUMPDEST PUSH7 0x11C37937E08000 DUP2 JUMP JUMPDEST PUSH1 0x0 DUP3 DUP3 ADD DUP4 DUP2 LT ISZERO PUSH2 0x3F4 JUMPI PUSH1 0x40 DUP1 MLOAD PUSH3 0x461BCD PUSH1 0xE5 SHL DUP2 MSTORE PUSH1 0x20 PUSH1 0x4 DUP3 ADD MSTORE PUSH1 0x1B PUSH1 0x24 DUP3 ADD MSTORE PUSH32 0x536166654D6174683A206164646974696F6E206F766572666C6F770000000000 PUSH1 0x44 DUP3 ADD MSTORE SWAP1 MLOAD SWAP1 DUP2 SWAP1 SUB PUSH1 0x64 ADD SWAP1 REVERT JUMPDEST SWAP4 SWAP3 POP POP POP JUMP INVALID LOG2 PUSH5 0x6970667358 0x22 SLT KECCAK256 DELEGATECALL 0xE4 PUSH12 0xAE422DEA28CFF3A7E8A583D 0xDA SWAP1 SIGNEXTEND SIGNEXTEND SHL 0xDC DUP13 0xB8 0xD0 TIMESTAMP MUL ISZERO SSTORE PUSH19 0x91CF9164736F6C634300060B00330000000000 "
		},
		"gasEstimates": {
			"creation": {
				"codeDepositCost": "214600",
				"executionCost": "257",
				"totalCost": "214857"
			},
			"external": {
				"BORROWING_FEE_FLOOR()": "286",
				"CCR()": "287",
				"DECIMAL_PRECISION()": "264",
				"LUSD_GAS_COMPENSATION()": "221",
				"MCR()": "243",
				"MIN_NET_DEBT()": "199",
				"PERCENT_DIVISOR()": "265",
				"_100pct()": "309",
				"activePool()": "1059",
				"defaultPool()": "1082",
				"getEntireSystemColl()": "infinite",
				"getEntireSystemDebt()": "infinite",
				"priceFeed()": "1060"
			},
			"internal": {
				"_checkRecoveryMode(uint256)": "infinite",
				"_getCollGasCompensation(uint256)": "infinite",
				"_getCompositeDebt(uint256)": "infinite",
				"_getNetDebt(uint256)": "infinite",
				"_getTCR(uint256)": "infinite",
				"_requireUserAcceptsFee(uint256,uint256,uint256)": "infinite"
			}
		},
		"methodIdentifiers": {
			"BORROWING_FEE_FLOOR()": "f92d3433",
			"CCR()": "5733d58f",
			"DECIMAL_PRECISION()": "a20baee6",
			"LUSD_GAS_COMPENSATION()": "2e86bbd8",
			"MCR()": "794e5724",
			"MIN_NET_DEBT()": "1bf43555",
			"PERCENT_DIVISOR()": "4870dd9a",
			"_100pct()": "72fe25aa",
			"activePool()": "7f7dde4a",
			"defaultPool()": "3cc74225",
			"getEntireSystemColl()": "887105d3",
			"getEntireSystemDebt()": "795d26c3",
			"priceFeed()": "741bef1a"
		}
	},
	"abi": [
		{
			"inputs": [],
			"name": "BORROWING_FEE_FLOOR",
			"outputs": [
				{
					"internalType": "uint256",
					"name": "",
					"type": "uint256"
				}
			],
			"stateMutability": "view",
			"type": "function"
		},
		{
			"inputs": [],
			"name": "CCR",
			"outputs": [
				{
					"internalType": "uint256",
					"name": "",
					"type": "uint256"
				}
			],
			"stateMutability": "view",
			"type": "function"
		},
		{
			"inputs": [],
			"name": "DECIMAL_PRECISION",
			"outputs": [
				{
					"internalType": "uint256",
					"name": "",
					"type": "uint256"
				}
			],
			"stateMutability": "view",
			"type": "function"
		},
		{
			"inputs": [],
			"name": "LUSD_GAS_COMPENSATION",
			"outputs": [
				{
					"internalType": "uint256",
					"name": "",
					"type": "uint256"
				}
			],
			"stateMutability": "view",
			"type": "function"
		},
		{
			"inputs": [],
			"name": "MCR",
			"outputs": [
				{
					"internalType": "uint256",
					"name": "",
					"type": "uint256"
				}
			],
			"stateMutability": "view",
			"type": "function"
		},
		{
			"inputs": [],
			"name": "MIN_NET_DEBT",
			"outputs": [
				{
					"internalType": "uint256",
					"name": "",
					"type": "uint256"
				}
			],
			"stateMutability": "view",
			"type": "function"
		},
		{
			"inputs": [],
			"name": "PERCENT_DIVISOR",
			"outputs": [
				{
					"internalType": "uint256",
					"name": "",
					"type": "uint256"
				}
			],
			"stateMutability": "view",
			"type": "function"
		},
		{
			"inputs": [],
			"name": "_100pct",
			"outputs": [
				{
					"internalType": "uint256",
					"name": "",
					"type": "uint256"
				}
			],
			"stateMutability": "view",
			"type": "function"
		},
		{
			"inputs": [],
			"name": "activePool",
			"outputs": [
				{
					"internalType": "contract IActivePool",
					"name": "",
					"type": "address"
				}
			],
			"stateMutability": "view",
			"type": "function"
		},
		{
			"inputs": [],
			"name": "defaultPool",
			"outputs": [
				{
					"internalType": "contract IDefaultPool",
					"name": "",
					"type": "address"
				}
			],
			"stateMutability": "view",
			"type": "function"
		},
		{
			"inputs": [],
			"name": "getEntireSystemColl",
			"outputs": [
				{
					"internalType": "uint256",
					"name": "entireSystemColl",
					"type": "uint256"
				}
			],
			"stateMutability": "view",
			"type": "function"
		},
		{
			"inputs": [],
			"name": "getEntireSystemDebt",
			"outputs": [
				{
					"internalType": "uint256",
					"name": "entireSystemDebt",
					"type": "uint256"
				}
			],
			"stateMutability": "view",
			"type": "function"
		},
		{
			"inputs": [],
			"name": "priceFeed",
			"outputs": [
				{
					"internalType": "contract IPriceFeed",
					"name": "",
					"type": "address"
				}
			],
			"stateMutability": "view",
			"type": "function"
		}
	]
}