{
	"contracts/contracts/TestContracts/PriceFeedTestnet.sol": {
		"PriceFeedTestnet": {
			"abi": [
				{
					"anonymous": false,
					"inputs": [
						{
							"indexed": false,
							"internalType": "uint256",
							"name": "_lastGoodPrice",
							"type": "uint256"
						}
					],
					"name": "LastGoodPriceUpdated",
					"type": "event"
				},
				{
					"inputs": [],
					"name": "fetchPrice",
					"outputs": [
						{
							"internalType": "uint256",
							"name": "",
							"type": "uint256"
						}
					],
					"stateMutability": "nonpayable",
					"type": "function"
				},
				{
					"inputs": [],
					"name": "getPrice",
					"outputs": [
						{
							"internalType": "uint256",
							"name": "",
							"type": "uint256"
						}
					],
					"stateMutability": "view",
					"type": "function"
				},
				{
					"inputs": [
						{
							"internalType": "uint256",
							"name": "price",
							"type": "uint256"
						}
					],
					"name": "setPrice",
					"outputs": [
						{
							"internalType": "bool",
							"name": "",
							"type": "bool"
						}
					],
					"stateMutability": "nonpayable",
					"type": "function"
				}
			],
			"devdoc": {
				"kind": "dev",
				"methods": {},
				"version": 1
			},
			"evm": {
				"assembly": "    /* \"contracts/contracts/TestContracts/PriceFeedTestnet.sol\":287:993  contract PriceFeedTestnet is IPriceFeed {... */\n  mstore(0x40, 0x80)\n    /* \"contracts/contracts/TestContracts/PriceFeedTestnet.sol\":363:373  200 * 1e18 */\n  0x0ad78ebc5ac6200000\n    /* \"contracts/contracts/TestContracts/PriceFeedTestnet.sol\":338:373  uint256 private _price = 200 * 1e18 */\n  0x00\n  sstore\n    /* \"contracts/contracts/TestContracts/PriceFeedTestnet.sol\":287:993  contract PriceFeedTestnet is IPriceFeed {... */\n  callvalue\n  dup1\n  iszero\n  tag_1\n  jumpi\n  0x00\n  dup1\n  revert\ntag_1:\n  pop\n  dataSize(sub_0)\n  dup1\n  dataOffset(sub_0)\n  0x00\n  codecopy\n  0x00\n  return\nstop\n\nsub_0: assembly {\n        /* \"contracts/contracts/TestContracts/PriceFeedTestnet.sol\":287:993  contract PriceFeedTestnet is IPriceFeed {... */\n      mstore(0x40, 0x80)\n      callvalue\n      dup1\n      iszero\n      tag_1\n      jumpi\n      0x00\n      dup1\n      revert\n    tag_1:\n      pop\n      jumpi(tag_2, lt(calldatasize, 0x04))\n      shr(0xe0, calldataload(0x00))\n      dup1\n      0x0fdb11cf\n      eq\n      tag_3\n      jumpi\n      dup1\n      0x91b7f5ed\n      eq\n      tag_4\n      jumpi\n      dup1\n      0x98d5fdca\n      eq\n      tag_5\n      jumpi\n    tag_2:\n      0x00\n      dup1\n      revert\n        /* \"contracts/contracts/TestContracts/PriceFeedTestnet.sol\":543:839  function fetchPrice() external override returns (uint256) {... */\n    tag_3:\n      tag_6\n      tag_7\n      jump\t// in\n    tag_6:\n      0x40\n      dup1\n      mload\n      swap2\n      dup3\n      mstore\n      mload\n      swap1\n      dup2\n      swap1\n      sub\n      0x20\n      add\n      swap1\n      return\n        /* \"contracts/contracts/TestContracts/PriceFeedTestnet.sol\":882:991  function setPrice(uint256 price) external returns (bool) {... */\n    tag_4:\n      tag_8\n      0x04\n      dup1\n      calldatasize\n      sub\n      0x20\n      dup2\n      lt\n      iszero\n      tag_9\n      jumpi\n      0x00\n      dup1\n      revert\n    tag_9:\n      pop\n      calldataload\n      tag_10\n      jump\t// in\n    tag_8:\n      0x40\n      dup1\n      mload\n      swap2\n      iszero\n      iszero\n      dup3\n      mstore\n      mload\n      swap1\n      dup2\n      swap1\n      sub\n      0x20\n      add\n      swap1\n      return\n        /* \"contracts/contracts/TestContracts/PriceFeedTestnet.sol\":455:537  function getPrice() external view returns (uint256) {... */\n    tag_5:\n      tag_6\n      tag_12\n      jump\t// in\n        /* \"contracts/contracts/TestContracts/PriceFeedTestnet.sol\":543:839  function fetchPrice() external override returns (uint256) {... */\n    tag_7:\n        /* \"contracts/contracts/TestContracts/PriceFeedTestnet.sol\":592:599  uint256 */\n      0x00\n        /* \"contracts/contracts/TestContracts/PriceFeedTestnet.sol\":802:808  _price */\n      dup1\n      sload\n        /* \"contracts/contracts/TestContracts/PriceFeedTestnet.sol\":781:809  LastGoodPriceUpdated(_price) */\n      0x40\n      dup1\n      mload\n      swap2\n      dup3\n      mstore\n      mload\n      0x4d29de21de555af78a62fc82dd4bc05e9ae5b0660a37f04729527e0f22780cd3\n      swap2\n      dup2\n      swap1\n      sub\n      0x20\n      add\n      swap1\n      log1\n      pop\n        /* \"contracts/contracts/TestContracts/PriceFeedTestnet.sol\":826:832  _price */\n      sload(0x00)\n        /* \"contracts/contracts/TestContracts/PriceFeedTestnet.sol\":543:839  function fetchPrice() external override returns (uint256) {... */\n      swap1\n      jump\t// out\n        /* \"contracts/contracts/TestContracts/PriceFeedTestnet.sol\":882:991  function setPrice(uint256 price) external returns (bool) {... */\n    tag_10:\n        /* \"contracts/contracts/TestContracts/PriceFeedTestnet.sol\":933:937  bool */\n      0x00\n        /* \"contracts/contracts/TestContracts/PriceFeedTestnet.sol\":949:963  _price = price */\n      sstore\n        /* \"contracts/contracts/TestContracts/PriceFeedTestnet.sol\":980:984  true */\n      0x01\n      swap1\n        /* \"contracts/contracts/TestContracts/PriceFeedTestnet.sol\":882:991  function setPrice(uint256 price) external returns (bool) {... */\n      jump\t// out\n        /* \"contracts/contracts/TestContracts/PriceFeedTestnet.sol\":455:537  function getPrice() external view returns (uint256) {... */\n    tag_12:\n        /* \"contracts/contracts/TestContracts/PriceFeedTestnet.sol\":498:505  uint256 */\n      0x00\n        /* \"contracts/contracts/TestContracts/PriceFeedTestnet.sol\":524:530  _price */\n      sload\n        /* \"contracts/contracts/TestContracts/PriceFeedTestnet.sol\":455:537  function getPrice() external view returns (uint256) {... */\n      swap1\n      jump\t// out\n\n    auxdata: 0xa26469706673582212200a3a244ad67dd4f9787773b067d439ef6dec917431f589ba9ea343f27045f71964736f6c634300060b0033\n}\n",
				"bytecode": {
					"linkReferences": {},
					"object": "6080604052680ad78ebc5ac620000060005534801561001d57600080fd5b5061010e8061002d6000396000f3fe6080604052348015600f57600080fd5b5060043610603c5760003560e01c80630fdb11cf14604157806391b7f5ed14605957806398d5fdca146087575b600080fd5b6047608d565b60408051918252519081900360200190f35b607360048036036020811015606d57600080fd5b503560ca565b604080519115158252519081900360200190f35b604760d2565b6000805460408051918252517f4d29de21de555af78a62fc82dd4bc05e9ae5b0660a37f04729527e0f22780cd39181900360200190a15060005490565b600055600190565b6000549056fea26469706673582212200a3a244ad67dd4f9787773b067d439ef6dec917431f589ba9ea343f27045f71964736f6c634300060b0033",
					"opcodes": "PUSH1 0x80 PUSH1 0x40 MSTORE PUSH9 0xAD78EBC5AC6200000 PUSH1 0x0 SSTORE CALLVALUE DUP1 ISZERO PUSH2 0x1D JUMPI PUSH1 0x0 DUP1 REVERT JUMPDEST POP PUSH2 0x10E DUP1 PUSH2 0x2D PUSH1 0x0 CODECOPY PUSH1 0x0 RETURN INVALID PUSH1 0x80 PUSH1 0x40 MSTORE CALLVALUE DUP1 ISZERO PUSH1 0xF JUMPI PUSH1 0x0 DUP1 REVERT JUMPDEST POP PUSH1 0x4 CALLDATASIZE LT PUSH1 0x3C JUMPI PUSH1 0x0 CALLDATALOAD PUSH1 0xE0 SHR DUP1 PUSH4 0xFDB11CF EQ PUSH1 0x41 JUMPI DUP1 PUSH4 0x91B7F5ED EQ PUSH1 0x59 JUMPI DUP1 PUSH4 0x98D5FDCA EQ PUSH1 0x87 JUMPI JUMPDEST PUSH1 0x0 DUP1 REVERT JUMPDEST PUSH1 0x47 PUSH1 0x8D JUMP JUMPDEST PUSH1 0x40 DUP1 MLOAD SWAP2 DUP3 MSTORE MLOAD SWAP1 DUP2 SWAP1 SUB PUSH1 0x20 ADD SWAP1 RETURN JUMPDEST PUSH1 0x73 PUSH1 0x4 DUP1 CALLDATASIZE SUB PUSH1 0x20 DUP2 LT ISZERO PUSH1 0x6D JUMPI PUSH1 0x0 DUP1 REVERT JUMPDEST POP CALLDATALOAD PUSH1 0xCA JUMP JUMPDEST PUSH1 0x40 DUP1 MLOAD SWAP2 ISZERO ISZERO DUP3 MSTORE MLOAD SWAP1 DUP2 SWAP1 SUB PUSH1 0x20 ADD SWAP1 RETURN JUMPDEST PUSH1 0x47 PUSH1 0xD2 JUMP JUMPDEST PUSH1 0x0 DUP1 SLOAD PUSH1 0x40 DUP1 MLOAD SWAP2 DUP3 MSTORE MLOAD PUSH32 0x4D29DE21DE555AF78A62FC82DD4BC05E9AE5B0660A37F04729527E0F22780CD3 SWAP2 DUP2 SWAP1 SUB PUSH1 0x20 ADD SWAP1 LOG1 POP PUSH1 0x0 SLOAD SWAP1 JUMP JUMPDEST PUSH1 0x0 SSTORE PUSH1 0x1 SWAP1 JUMP JUMPDEST PUSH1 0x0 SLOAD SWAP1 JUMP INVALID LOG2 PUSH5 0x6970667358 0x22 SLT KECCAK256 EXP GASPRICE 0x24 0x4A 0xD6 PUSH30 0xD4F9787773B067D439EF6DEC917431F589BA9EA343F27045F71964736F6C PUSH4 0x4300060B STOP CALLER "
				},
				"gasEstimates": {
					"creation": {
						"codeDepositCost": "54000",
						"executionCost": "20111",
						"totalCost": "74111"
					},
					"external": {
						"fetchPrice()": "2835",
						"getPrice()": "1020",
						"setPrice(uint256)": "20249"
					}
				},
				"methodIdentifiers": {
					"fetchPrice()": "0fdb11cf",
					"getPrice()": "98d5fdca",
					"setPrice(uint256)": "91b7f5ed"
				}
			},
			"storageLayout": {
				"storage": [
					{
						"astId": 21,
						"contract": "contracts/contracts/TestContracts/PriceFeedTestnet.sol:PriceFeedTestnet",
						"label": "_price",
						"offset": 0,
						"slot": "0",
						"type": "t_uint256"
					}
				],
				"types": {
					"t_uint256": {
						"encoding": "inplace",
						"label": "uint256",
						"numberOfBytes": "32"
					}
				}
			},
			"userdoc": {
				"kind": "user",
				"methods": {},
				"version": 1
			}
		}
	}
}