{
	"contracts/Dependencies/TellorCaller.sol": {
		"TellorCaller": {
			"abi": [
				{
					"inputs": [
						{
							"internalType": "address",
							"name": "_tellorMasterAddress",
							"type": "address"
						}
					],
					"stateMutability": "nonpayable",
					"type": "constructor"
				},
				{
					"inputs": [
						{
							"internalType": "uint256",
							"name": "_requestId",
							"type": "uint256"
						}
					],
					"name": "getTellorCurrentValue",
					"outputs": [
						{
							"internalType": "bool",
							"name": "ifRetrieve",
							"type": "bool"
						},
						{
							"internalType": "uint256",
							"name": "value",
							"type": "uint256"
						},
						{
							"internalType": "uint256",
							"name": "_timestampRetrieved",
							"type": "uint256"
						}
					],
					"stateMutability": "view",
					"type": "function"
				},
				{
					"inputs": [],
					"name": "tellor",
					"outputs": [
						{
							"internalType": "contract ITellor",
							"name": "",
							"type": "address"
						}
					],
					"stateMutability": "view",
					"type": "function"
				}
			],
			"devdoc": {
				"kind": "dev",
				"methods": {},
				"version": 1
			},
			"evm": {
				"assembly": "    /* \"contracts/Dependencies/TellorCaller.sol\":612:1842  contract TellorCaller is ITellorCaller {... */\n  mstore(0x40, 0x80)\n    /* \"contracts/Dependencies/TellorCaller.sol\":718:823  constructor (address _tellorMasterAddress) public {... */\n  callvalue\n  dup1\n  iszero\n  tag_1\n  jumpi\n  0x00\n  dup1\n  revert\ntag_1:\n  pop\n  mload(0x40)\n  sub(codesize, bytecodeSize)\n  dup1\n  bytecodeSize\n  dup4\n  codecopy\n  dup2\n  add\n  0x40\n  dup2\n  swap1\n  mstore\n  tag_2\n  swap2\n  tag_3\n  jump\t// in\ntag_2:\n    /* \"contracts/Dependencies/TellorCaller.sol\":778:784  tellor */\n  0x00\n    /* \"contracts/Dependencies/TellorCaller.sol\":778:816  tellor = ITellor(_tellorMasterAddress) */\n  dup1\n  sload\n  not(sub(shl(0xa0, 0x01), 0x01))\n  and\n  sub(shl(0xa0, 0x01), 0x01)\n  swap3\n  swap1\n  swap3\n  and\n  swap2\n  swap1\n  swap2\n  or\n  swap1\n  sstore\n    /* \"contracts/Dependencies/TellorCaller.sol\":612:1842  contract TellorCaller is ITellorCaller {... */\n  jump(tag_7)\n    /* \"#utility.yul\":14:304   */\ntag_3:\n    /* \"#utility.yul\":84:90   */\n  0x00\n    /* \"#utility.yul\":137:139   */\n  0x20\n    /* \"#utility.yul\":125:134   */\n  dup3\n    /* \"#utility.yul\":116:123   */\n  dup5\n    /* \"#utility.yul\":112:135   */\n  sub\n    /* \"#utility.yul\":108:140   */\n  slt\n    /* \"#utility.yul\":105:157   */\n  iszero\n  tag_9\n  jumpi\n    /* \"#utility.yul\":153:154   */\n  0x00\n    /* \"#utility.yul\":150:151   */\n  dup1\n    /* \"#utility.yul\":143:155   */\n  revert\n    /* \"#utility.yul\":105:157   */\ntag_9:\n    /* \"#utility.yul\":179:195   */\n  dup2\n  mload\n  sub(shl(0xa0, 0x01), 0x01)\n    /* \"#utility.yul\":224:255   */\n  dup2\n  and\n    /* \"#utility.yul\":214:256   */\n  dup2\n  eq\n    /* \"#utility.yul\":204:274   */\n  tag_10\n  jumpi\n    /* \"#utility.yul\":270:271   */\n  0x00\n    /* \"#utility.yul\":267:268   */\n  dup1\n    /* \"#utility.yul\":260:272   */\n  revert\n    /* \"#utility.yul\":204:274   */\ntag_10:\n    /* \"#utility.yul\":293:298   */\n  swap4\n    /* \"#utility.yul\":14:304   */\n  swap3\n  pop\n  pop\n  pop\n  jump\t// out\ntag_7:\n    /* \"contracts/Dependencies/TellorCaller.sol\":612:1842  contract TellorCaller is ITellorCaller {... */\n  dataSize(sub_0)\n  dup1\n  dataOffset(sub_0)\n  0x00\n  codecopy\n  0x00\n  return\nstop\n\nsub_0: assembly {\n        /* \"contracts/Dependencies/TellorCaller.sol\":612:1842  contract TellorCaller is ITellorCaller {... */\n      mstore(0x40, 0x80)\n      callvalue\n      dup1\n      iszero\n      tag_1\n      jumpi\n      0x00\n      dup1\n      revert\n    tag_1:\n      pop\n      jumpi(tag_2, lt(calldatasize, 0x04))\n      shr(0xe0, calldataload(0x00))\n      dup1\n      0x1959ad5b\n      eq\n      tag_3\n      jumpi\n      dup1\n      0x32e6aadb\n      eq\n      tag_4\n      jumpi\n    tag_2:\n      0x00\n      dup1\n      revert\n        /* \"contracts/Dependencies/TellorCaller.sol\":690:711  ITellor public tellor */\n    tag_3:\n      sload(0x00)\n      tag_5\n      swap1\n      sub(shl(0xa0, 0x01), 0x01)\n      and\n      dup2\n      jump\n    tag_5:\n      mload(0x40)\n      sub(shl(0xa0, 0x01), 0x01)\n        /* \"#utility.yul\":193:225   */\n      swap1\n      swap2\n      and\n        /* \"#utility.yul\":175:226   */\n      dup2\n      mstore\n        /* \"#utility.yul\":163:165   */\n      0x20\n        /* \"#utility.yul\":148:166   */\n      add\n        /* \"contracts/Dependencies/TellorCaller.sol\":690:711  ITellor public tellor */\n    tag_7:\n      mload(0x40)\n      dup1\n      swap2\n      sub\n      swap1\n      return\n        /* \"contracts/Dependencies/TellorCaller.sol\":1278:1840  function getTellorCurrentValue(uint256 _requestId)... */\n    tag_4:\n      tag_9\n      tag_10\n      calldatasize\n      0x04\n      tag_11\n      jump\t// in\n    tag_10:\n      tag_12\n      jump\t// in\n    tag_9:\n      0x40\n      dup1\n      mload\n        /* \"#utility.yul\":643:657   */\n      swap4\n      iszero\n        /* \"#utility.yul\":636:658   */\n      iszero\n        /* \"#utility.yul\":618:659   */\n      dup5\n      mstore\n        /* \"#utility.yul\":690:692   */\n      0x20\n        /* \"#utility.yul\":675:693   */\n      dup5\n      add\n        /* \"#utility.yul\":668:702   */\n      swap3\n      swap1\n      swap3\n      mstore\n        /* \"#utility.yul\":718:736   */\n      swap1\n      dup3\n      add\n        /* \"#utility.yul\":711:745   */\n      mstore\n        /* \"#utility.yul\":606:608   */\n      0x60\n        /* \"#utility.yul\":591:609   */\n      add\n        /* \"contracts/Dependencies/TellorCaller.sol\":1278:1840  function getTellorCurrentValue(uint256 _requestId)... */\n      tag_7\n        /* \"#utility.yul\":422:751   */\n      jump\n        /* \"contracts/Dependencies/TellorCaller.sol\":1278:1840  function getTellorCurrentValue(uint256 _requestId)... */\n    tag_12:\n        /* \"contracts/Dependencies/TellorCaller.sol\":1406:1421  bool ifRetrieve */\n      0x00\n        /* \"contracts/Dependencies/TellorCaller.sol\":1531:1537  tellor */\n      dup1\n      sload\n        /* \"contracts/Dependencies/TellorCaller.sol\":1531:1577  tellor.getNewValueCountbyRequestId(_requestId) */\n      mload(0x40)\n      shl(0xe2, 0x11bbb871)\n      dup2\n      mstore\n      0x04\n      dup2\n      add\n        /* \"#utility.yul\":902:927   */\n      dup5\n      swap1\n      mstore\n        /* \"contracts/Dependencies/TellorCaller.sol\":1406:1421  bool ifRetrieve */\n      dup3\n      swap2\n      dup3\n      swap2\n      dup3\n      swap2\n      sub(shl(0xa0, 0x01), 0x01)\n        /* \"contracts/Dependencies/TellorCaller.sol\":1531:1537  tellor */\n      and\n      swap1\n        /* \"contracts/Dependencies/TellorCaller.sol\":1531:1565  tellor.getNewValueCountbyRequestId */\n      0x46eee1c4\n      swap1\n        /* \"#utility.yul\":875:893   */\n      0x24\n      add\n        /* \"contracts/Dependencies/TellorCaller.sol\":1531:1577  tellor.getNewValueCountbyRequestId(_requestId) */\n      0x20\n      mload(0x40)\n      dup1\n      dup4\n      sub\n      dup2\n      dup7\n      gas\n      staticcall\n      iszero\n      dup1\n      iszero\n      tag_19\n      jumpi\n      returndatasize\n      0x00\n      dup1\n      returndatacopy\n      revert(0x00, returndatasize)\n    tag_19:\n      pop\n      pop\n      pop\n      pop\n      mload(0x40)\n      returndatasize\n      not(0x1f)\n      0x1f\n      dup3\n      add\n      and\n      dup3\n      add\n      dup1\n      0x40\n      mstore\n      pop\n      dup2\n      add\n      swap1\n      tag_20\n      swap2\n      swap1\n      tag_21\n      jump\t// in\n    tag_20:\n        /* \"contracts/Dependencies/TellorCaller.sol\":1587:1600  uint256 _time */\n      0x00\n        /* \"contracts/Dependencies/TellorCaller.sol\":1615:1621  tellor */\n      dup1\n      sload\n        /* \"contracts/Dependencies/TellorCaller.sol\":1514:1577  uint256 _count = tellor.getNewValueCountbyRequestId(_requestId) */\n      swap2\n      swap3\n      pop\n        /* \"contracts/Dependencies/TellorCaller.sol\":1587:1600  uint256 _time */\n      swap1\n      sub(shl(0xa0, 0x01), 0x01)\n        /* \"contracts/Dependencies/TellorCaller.sol\":1615:1621  tellor */\n      and\n        /* \"contracts/Dependencies/TellorCaller.sol\":1615:1653  tellor.getTimestampbyRequestIDandIndex */\n      0x77fbb663\n        /* \"contracts/Dependencies/TellorCaller.sol\":1654:1664  _requestId */\n      dup8\n        /* \"contracts/Dependencies/TellorCaller.sol\":1666:1679  _count.sub(1) */\n      tag_22\n        /* \"contracts/Dependencies/TellorCaller.sol\":1514:1577  uint256 _count = tellor.getNewValueCountbyRequestId(_requestId) */\n      dup6\n        /* \"contracts/Dependencies/TellorCaller.sol\":1615:1621  tellor */\n      0x01\n        /* \"contracts/Dependencies/TellorCaller.sol\":1666:1676  _count.sub */\n      tag_23\n        /* \"contracts/Dependencies/TellorCaller.sol\":1666:1679  _count.sub(1) */\n      jump\t// in\n    tag_22:\n        /* \"contracts/Dependencies/TellorCaller.sol\":1615:1680  tellor.getTimestampbyRequestIDandIndex(_requestId, _count.sub(1)) */\n      mload(0x40)\n      not(sub(shl(0xe0, 0x01), 0x01))\n      0xe0\n      dup6\n      swap1\n      shl\n      and\n      dup2\n      mstore\n      0x04\n      dup2\n      add\n        /* \"#utility.yul\":1301:1326   */\n      swap3\n      swap1\n      swap3\n      mstore\n        /* \"#utility.yul\":1342:1360   */\n      0x24\n      dup3\n      add\n        /* \"#utility.yul\":1335:1369   */\n      mstore\n        /* \"#utility.yul\":1274:1292   */\n      0x44\n      add\n        /* \"contracts/Dependencies/TellorCaller.sol\":1615:1680  tellor.getTimestampbyRequestIDandIndex(_requestId, _count.sub(1)) */\n      0x20\n      mload(0x40)\n      dup1\n      dup4\n      sub\n      dup2\n      dup7\n      gas\n      staticcall\n      iszero\n      dup1\n      iszero\n      tag_27\n      jumpi\n      returndatasize\n      0x00\n      dup1\n      returndatacopy\n      revert(0x00, returndatasize)\n    tag_27:\n      pop\n      pop\n      pop\n      pop\n      mload(0x40)\n      returndatasize\n      not(0x1f)\n      0x1f\n      dup3\n      add\n      and\n      dup3\n      add\n      dup1\n      0x40\n      mstore\n      pop\n      dup2\n      add\n      swap1\n      tag_28\n      swap2\n      swap1\n      tag_21\n      jump\t// in\n    tag_28:\n        /* \"contracts/Dependencies/TellorCaller.sol\":1690:1704  uint256 _value */\n      0x00\n        /* \"contracts/Dependencies/TellorCaller.sol\":1707:1713  tellor */\n      dup1\n      sload\n        /* \"contracts/Dependencies/TellorCaller.sol\":1707:1745  tellor.retrieveData(_requestId, _time) */\n      mload(0x40)\n      shl(0xe0, 0x93fa4915)\n      dup2\n      mstore\n      0x04\n      dup2\n      add\n        /* \"#utility.yul\":1301:1326   */\n      dup11\n      swap1\n      mstore\n        /* \"#utility.yul\":1342:1360   */\n      0x24\n      dup2\n      add\n        /* \"#utility.yul\":1335:1369   */\n      dup5\n      swap1\n      mstore\n        /* \"contracts/Dependencies/TellorCaller.sol\":1587:1680  uint256 _time =... */\n      swap3\n      swap4\n      pop\n        /* \"contracts/Dependencies/TellorCaller.sol\":1690:1704  uint256 _value */\n      swap1\n      swap2\n      sub(shl(0xa0, 0x01), 0x01)\n        /* \"contracts/Dependencies/TellorCaller.sol\":1707:1713  tellor */\n      swap1\n      swap2\n      and\n      swap1\n        /* \"contracts/Dependencies/TellorCaller.sol\":1707:1726  tellor.retrieveData */\n      0x93fa4915\n      swap1\n        /* \"#utility.yul\":1274:1292   */\n      0x44\n      add\n        /* \"contracts/Dependencies/TellorCaller.sol\":1707:1745  tellor.retrieveData(_requestId, _time) */\n      0x20\n      mload(0x40)\n      dup1\n      dup4\n      sub\n      dup2\n      dup7\n      gas\n      staticcall\n      iszero\n      dup1\n      iszero\n      tag_31\n      jumpi\n      returndatasize\n      0x00\n      dup1\n      returndatacopy\n      revert(0x00, returndatasize)\n    tag_31:\n      pop\n      pop\n      pop\n      pop\n      mload(0x40)\n      returndatasize\n      not(0x1f)\n      0x1f\n      dup3\n      add\n      and\n      dup3\n      add\n      dup1\n      0x40\n      mstore\n      pop\n      dup2\n      add\n      swap1\n      tag_32\n      swap2\n      swap1\n      tag_21\n      jump\t// in\n    tag_32:\n        /* \"contracts/Dependencies/TellorCaller.sol\":1690:1745  uint256 _value = tellor.retrieveData(_requestId, _time) */\n      swap1\n      pop\n        /* \"contracts/Dependencies/TellorCaller.sol\":1759:1769  _value > 0 */\n      dup1\n      iszero\n        /* \"contracts/Dependencies/TellorCaller.sol\":1755:1799  if (_value > 0) return (true, _value, _time) */\n      tag_33\n      jumpi\n        /* \"contracts/Dependencies/TellorCaller.sol\":1779:1783  true */\n      0x01\n      swap6\n      pop\n        /* \"contracts/Dependencies/TellorCaller.sol\":1785:1791  _value */\n      swap4\n      pop\n        /* \"contracts/Dependencies/TellorCaller.sol\":1793:1798  _time */\n      swap2\n      pop\n        /* \"contracts/Dependencies/TellorCaller.sol\":1771:1799  return (true, _value, _time) */\n      tag_15\n      swap1\n      pop\n      jump\n        /* \"contracts/Dependencies/TellorCaller.sol\":1755:1799  if (_value > 0) return (true, _value, _time) */\n    tag_33:\n      pop\n        /* \"contracts/Dependencies/TellorCaller.sol\":1817:1822  false */\n      0x00\n      swap5\n      pop\n      dup5\n      swap4\n      pop\n        /* \"contracts/Dependencies/TellorCaller.sol\":1827:1832  _time */\n      swap2\n      pop\n      pop\n        /* \"contracts/Dependencies/TellorCaller.sol\":1278:1840  function getTellorCurrentValue(uint256 _requestId)... */\n    tag_15:\n      swap2\n      swap4\n      swap1\n      swap3\n      pop\n      jump\t// out\n        /* \"contracts/Dependencies/SafeMath.sol\":1445:1579  function sub(uint256 a, uint256 b) internal pure returns (uint256) {... */\n    tag_23:\n        /* \"contracts/Dependencies/SafeMath.sol\":1503:1510  uint256 */\n      0x00\n        /* \"contracts/Dependencies/SafeMath.sol\":1529:1572  sub(a, b, \"SafeMath: subtraction overflow\") */\n      tag_35\n        /* \"contracts/Dependencies/SafeMath.sol\":1533:1534  a */\n      dup4\n        /* \"contracts/Dependencies/SafeMath.sol\":1536:1537  b */\n      dup4\n        /* \"contracts/Dependencies/SafeMath.sol\":1529:1572  sub(a, b, \"SafeMath: subtraction overflow\") */\n      mload(0x40)\n      dup1\n      0x40\n      add\n      0x40\n      mstore\n      dup1\n      0x1e\n      dup2\n      mstore\n      0x20\n      add\n      0x536166654d6174683a207375627472616374696f6e206f766572666c6f770000\n      dup2\n      mstore\n      pop\n        /* \"contracts/Dependencies/SafeMath.sol\":1529:1532  sub */\n      tag_36\n        /* \"contracts/Dependencies/SafeMath.sol\":1529:1572  sub(a, b, \"SafeMath: subtraction overflow\") */\n      jump\t// in\n    tag_35:\n        /* \"contracts/Dependencies/SafeMath.sol\":1522:1572  return sub(a, b, \"SafeMath: subtraction overflow\") */\n      swap1\n      pop\n        /* \"contracts/Dependencies/SafeMath.sol\":1445:1579  function sub(uint256 a, uint256 b) internal pure returns (uint256) {... */\n    tag_34:\n      swap3\n      swap2\n      pop\n      pop\n      jump\t// out\n        /* \"contracts/Dependencies/SafeMath.sol\":1903:2090  function sub(uint256 a, uint256 b, string memory errorMessage) internal pure returns (uint256) {... */\n    tag_36:\n        /* \"contracts/Dependencies/SafeMath.sol\":1989:1996  uint256 */\n      0x00\n        /* \"contracts/Dependencies/SafeMath.sol\":2024:2036  errorMessage */\n      dup2\n        /* \"contracts/Dependencies/SafeMath.sol\":2016:2022  b <= a */\n      dup5\n      dup5\n      gt\n      iszero\n        /* \"contracts/Dependencies/SafeMath.sol\":2008:2037  require(b <= a, errorMessage) */\n      tag_38\n      jumpi\n      mload(0x40)\n      shl(0xe5, 0x461bcd)\n      dup2\n      mstore\n      0x04\n      add\n      tag_39\n      swap2\n      swap1\n      tag_40\n      jump\t// in\n    tag_39:\n      mload(0x40)\n      dup1\n      swap2\n      sub\n      swap1\n      revert\n    tag_38:\n      pop\n        /* \"contracts/Dependencies/SafeMath.sol\":2047:2056  uint256 c */\n      0x00\n        /* \"contracts/Dependencies/SafeMath.sol\":2059:2064  a - b */\n      tag_41\n        /* \"contracts/Dependencies/SafeMath.sol\":2063:2064  b */\n      dup5\n        /* \"contracts/Dependencies/SafeMath.sol\":2059:2060  a */\n      dup7\n        /* \"contracts/Dependencies/SafeMath.sol\":2059:2064  a - b */\n      tag_42\n      jump\t// in\n    tag_41:\n        /* \"contracts/Dependencies/SafeMath.sol\":2047:2064  uint256 c = a - b */\n      swap6\n        /* \"contracts/Dependencies/SafeMath.sol\":1903:2090  function sub(uint256 a, uint256 b, string memory errorMessage) internal pure returns (uint256) {... */\n      swap5\n      pop\n      pop\n      pop\n      pop\n      pop\n      jump\t// out\n        /* \"#utility.yul\":237:417   */\n    tag_11:\n        /* \"#utility.yul\":296:302   */\n      0x00\n        /* \"#utility.yul\":349:351   */\n      0x20\n        /* \"#utility.yul\":337:346   */\n      dup3\n        /* \"#utility.yul\":328:335   */\n      dup5\n        /* \"#utility.yul\":324:347   */\n      sub\n        /* \"#utility.yul\":320:352   */\n      slt\n        /* \"#utility.yul\":317:369   */\n      iszero\n      tag_46\n      jumpi\n        /* \"#utility.yul\":365:366   */\n      0x00\n        /* \"#utility.yul\":362:363   */\n      dup1\n        /* \"#utility.yul\":355:367   */\n      revert\n        /* \"#utility.yul\":317:369   */\n    tag_46:\n      pop\n        /* \"#utility.yul\":388:411   */\n      calldataload\n      swap2\n        /* \"#utility.yul\":237:417   */\n      swap1\n      pop\n      jump\t// out\n        /* \"#utility.yul\":938:1122   */\n    tag_21:\n        /* \"#utility.yul\":1008:1014   */\n      0x00\n        /* \"#utility.yul\":1061:1063   */\n      0x20\n        /* \"#utility.yul\":1049:1058   */\n      dup3\n        /* \"#utility.yul\":1040:1047   */\n      dup5\n        /* \"#utility.yul\":1036:1059   */\n      sub\n        /* \"#utility.yul\":1032:1064   */\n      slt\n        /* \"#utility.yul\":1029:1081   */\n      iszero\n      tag_50\n      jumpi\n        /* \"#utility.yul\":1077:1078   */\n      0x00\n        /* \"#utility.yul\":1074:1075   */\n      dup1\n        /* \"#utility.yul\":1067:1079   */\n      revert\n        /* \"#utility.yul\":1029:1081   */\n    tag_50:\n      pop\n        /* \"#utility.yul\":1100:1116   */\n      mload\n      swap2\n        /* \"#utility.yul\":938:1122   */\n      swap1\n      pop\n      jump\t// out\n        /* \"#utility.yul\":1380:1928   */\n    tag_40:\n        /* \"#utility.yul\":1492:1496   */\n      0x00\n        /* \"#utility.yul\":1521:1523   */\n      0x20\n        /* \"#utility.yul\":1550:1552   */\n      dup1\n        /* \"#utility.yul\":1539:1548   */\n      dup4\n        /* \"#utility.yul\":1532:1553   */\n      mstore\n        /* \"#utility.yul\":1582:1588   */\n      dup4\n        /* \"#utility.yul\":1576:1589   */\n      mload\n        /* \"#utility.yul\":1625:1631   */\n      dup1\n        /* \"#utility.yul\":1620:1622   */\n      dup3\n        /* \"#utility.yul\":1609:1618   */\n      dup6\n        /* \"#utility.yul\":1605:1623   */\n      add\n        /* \"#utility.yul\":1598:1632   */\n      mstore\n        /* \"#utility.yul\":1650:1651   */\n      0x00\n        /* \"#utility.yul\":1660:1800   */\n    tag_53:\n        /* \"#utility.yul\":1674:1680   */\n      dup2\n        /* \"#utility.yul\":1671:1672   */\n      dup2\n        /* \"#utility.yul\":1668:1681   */\n      lt\n        /* \"#utility.yul\":1660:1800   */\n      iszero\n      tag_55\n      jumpi\n        /* \"#utility.yul\":1769:1783   */\n      dup6\n      dup2\n      add\n        /* \"#utility.yul\":1765:1788   */\n      dup4\n      add\n        /* \"#utility.yul\":1759:1789   */\n      mload\n        /* \"#utility.yul\":1735:1752   */\n      dup6\n      dup3\n      add\n        /* \"#utility.yul\":1754:1756   */\n      0x40\n        /* \"#utility.yul\":1731:1757   */\n      add\n        /* \"#utility.yul\":1724:1790   */\n      mstore\n        /* \"#utility.yul\":1689:1699   */\n      dup3\n      add\n        /* \"#utility.yul\":1660:1800   */\n      jump(tag_53)\n    tag_55:\n        /* \"#utility.yul\":1664:1667   */\n      pop\n        /* \"#utility.yul\":1849:1850   */\n      0x00\n        /* \"#utility.yul\":1844:1846   */\n      0x40\n        /* \"#utility.yul\":1835:1841   */\n      dup3\n        /* \"#utility.yul\":1824:1833   */\n      dup7\n        /* \"#utility.yul\":1820:1842   */\n      add\n        /* \"#utility.yul\":1816:1847   */\n      add\n        /* \"#utility.yul\":1809:1851   */\n      mstore\n        /* \"#utility.yul\":1919:1921   */\n      0x40\n        /* \"#utility.yul\":1912:1914   */\n      0x1f\n        /* \"#utility.yul\":1908:1915   */\n      not\n        /* \"#utility.yul\":1903:1905   */\n      0x1f\n        /* \"#utility.yul\":1895:1901   */\n      dup4\n        /* \"#utility.yul\":1891:1906   */\n      add\n        /* \"#utility.yul\":1887:1916   */\n      and\n        /* \"#utility.yul\":1876:1885   */\n      dup6\n        /* \"#utility.yul\":1872:1917   */\n      add\n        /* \"#utility.yul\":1868:1922   */\n      add\n        /* \"#utility.yul\":1860:1922   */\n      swap3\n      pop\n      pop\n      pop\n        /* \"#utility.yul\":1380:1928   */\n      swap3\n      swap2\n      pop\n      pop\n      jump\t// out\n        /* \"#utility.yul\":1933:2158   */\n    tag_42:\n        /* \"#utility.yul\":2000:2009   */\n      dup2\n      dup2\n      sub\n        /* \"#utility.yul\":2021:2032   */\n      dup2\n      dup2\n      gt\n        /* \"#utility.yul\":2018:2152   */\n      iszero\n      tag_34\n      jumpi\n        /* \"#utility.yul\":2074:2084   */\n      0x4e487b71\n        /* \"#utility.yul\":2069:2072   */\n      0xe0\n        /* \"#utility.yul\":2065:2085   */\n      shl\n        /* \"#utility.yul\":2062:2063   */\n      0x00\n        /* \"#utility.yul\":2055:2086   */\n      mstore\n        /* \"#utility.yul\":2109:2113   */\n      0x11\n        /* \"#utility.yul\":2106:2107   */\n      0x04\n        /* \"#utility.yul\":2099:2114   */\n      mstore\n        /* \"#utility.yul\":2137:2141   */\n      0x24\n        /* \"#utility.yul\":2134:2135   */\n      0x00\n        /* \"#utility.yul\":2127:2142   */\n      revert\n\n    auxdata: 0xa2646970667358221220adee3367d16c85c128c6d609cea3d5d7a556d50dcbb1802633412e1505fb6f9164736f6c63430008140033\n}\n",
				"bytecode": {
					"linkReferences": {},
					"object": "608060405234801561001057600080fd5b5060405161043038038061043083398101604081905261002f91610054565b600080546001600160a01b0319166001600160a01b0392909216919091179055610084565b60006020828403121561006657600080fd5b81516001600160a01b038116811461007d57600080fd5b9392505050565b61039d806100936000396000f3fe608060405234801561001057600080fd5b50600436106100365760003560e01c80631959ad5b1461003b57806332e6aadb1461006b575b600080fd5b60005461004e906001600160a01b031681565b6040516001600160a01b0390911681526020015b60405180910390f35b61007e6100793660046102c6565b61009b565b604080519315158452602084019290925290820152606001610062565b600080546040516311bbb87160e21b8152600481018490528291829182916001600160a01b0316906346eee1c490602401602060405180830381865afa1580156100e9573d6000803e3d6000fd5b505050506040513d601f19601f8201168201806040525081019061010d91906102df565b60008054919250906001600160a01b03166377fbb6638761012f856001610238565b6040516001600160e01b031960e085901b16815260048101929092526024820152604401602060405180830381865afa158015610170573d6000803e3d6000fd5b505050506040513d601f19601f8201168201806040525081019061019491906102df565b600080546040516393fa491560e01b8152600481018a90526024810184905292935090916001600160a01b03909116906393fa491590604401602060405180830381865afa1580156101ea573d6000803e3d6000fd5b505050506040513d601f19601f8201168201806040525081019061020e91906102df565b905080156102255760019550935091506102319050565b50600094508493509150505b9193909250565b600061027a83836040518060400160405280601e81526020017f536166654d6174683a207375627472616374696f6e206f766572666c6f770000815250610283565b90505b92915050565b600081848411156102b05760405162461bcd60e51b81526004016102a791906102f8565b60405180910390fd5b5060006102bd8486610346565b95945050505050565b6000602082840312156102d857600080fd5b5035919050565b6000602082840312156102f157600080fd5b5051919050565b600060208083528351808285015260005b8181101561032557858101830151858201604001528201610309565b506000604082860101526040601f19601f8301168501019250505092915050565b8181038181111561027d57634e487b7160e01b600052601160045260246000fdfea2646970667358221220adee3367d16c85c128c6d609cea3d5d7a556d50dcbb1802633412e1505fb6f9164736f6c63430008140033",
					"opcodes": "PUSH1 0x80 PUSH1 0x40 MSTORE CALLVALUE DUP1 ISZERO PUSH2 0x10 JUMPI PUSH1 0x0 DUP1 REVERT JUMPDEST POP PUSH1 0x40 MLOAD PUSH2 0x430 CODESIZE SUB DUP1 PUSH2 0x430 DUP4 CODECOPY DUP2 ADD PUSH1 0x40 DUP2 SWAP1 MSTORE PUSH2 0x2F SWAP2 PUSH2 0x54 JUMP JUMPDEST PUSH1 0x0 DUP1 SLOAD PUSH1 0x1 PUSH1 0x1 PUSH1 0xA0 SHL SUB NOT AND PUSH1 0x1 PUSH1 0x1 PUSH1 0xA0 SHL SUB SWAP3 SWAP1 SWAP3 AND SWAP2 SWAP1 SWAP2 OR SWAP1 SSTORE PUSH2 0x84 JUMP JUMPDEST PUSH1 0x0 PUSH1 0x20 DUP3 DUP5 SUB SLT ISZERO PUSH2 0x66 JUMPI PUSH1 0x0 DUP1 REVERT JUMPDEST DUP2 MLOAD PUSH1 0x1 PUSH1 0x1 PUSH1 0xA0 SHL SUB DUP2 AND DUP2 EQ PUSH2 0x7D JUMPI PUSH1 0x0 DUP1 REVERT JUMPDEST SWAP4 SWAP3 POP POP POP JUMP JUMPDEST PUSH2 0x39D DUP1 PUSH2 0x93 PUSH1 0x0 CODECOPY PUSH1 0x0 RETURN INVALID PUSH1 0x80 PUSH1 0x40 MSTORE CALLVALUE DUP1 ISZERO PUSH2 0x10 JUMPI PUSH1 0x0 DUP1 REVERT JUMPDEST POP PUSH1 0x4 CALLDATASIZE LT PUSH2 0x36 JUMPI PUSH1 0x0 CALLDATALOAD PUSH1 0xE0 SHR DUP1 PUSH4 0x1959AD5B EQ PUSH2 0x3B JUMPI DUP1 PUSH4 0x32E6AADB EQ PUSH2 0x6B JUMPI JUMPDEST PUSH1 0x0 DUP1 REVERT JUMPDEST PUSH1 0x0 SLOAD PUSH2 0x4E SWAP1 PUSH1 0x1 PUSH1 0x1 PUSH1 0xA0 SHL SUB AND DUP2 JUMP JUMPDEST PUSH1 0x40 MLOAD PUSH1 0x1 PUSH1 0x1 PUSH1 0xA0 SHL SUB SWAP1 SWAP2 AND DUP2 MSTORE PUSH1 0x20 ADD JUMPDEST PUSH1 0x40 MLOAD DUP1 SWAP2 SUB SWAP1 RETURN JUMPDEST PUSH2 0x7E PUSH2 0x79 CALLDATASIZE PUSH1 0x4 PUSH2 0x2C6 JUMP JUMPDEST PUSH2 0x9B JUMP JUMPDEST PUSH1 0x40 DUP1 MLOAD SWAP4 ISZERO ISZERO DUP5 MSTORE PUSH1 0x20 DUP5 ADD SWAP3 SWAP1 SWAP3 MSTORE SWAP1 DUP3 ADD MSTORE PUSH1 0x60 ADD PUSH2 0x62 JUMP JUMPDEST PUSH1 0x0 DUP1 SLOAD PUSH1 0x40 MLOAD PUSH4 0x11BBB871 PUSH1 0xE2 SHL DUP2 MSTORE PUSH1 0x4 DUP2 ADD DUP5 SWAP1 MSTORE DUP3 SWAP2 DUP3 SWAP2 DUP3 SWAP2 PUSH1 0x1 PUSH1 0x1 PUSH1 0xA0 SHL SUB AND SWAP1 PUSH4 0x46EEE1C4 SWAP1 PUSH1 0x24 ADD PUSH1 0x20 PUSH1 0x40 MLOAD DUP1 DUP4 SUB DUP2 DUP7 GAS STATICCALL ISZERO DUP1 ISZERO PUSH2 0xE9 JUMPI RETURNDATASIZE PUSH1 0x0 DUP1 RETURNDATACOPY RETURNDATASIZE PUSH1 0x0 REVERT JUMPDEST POP POP POP POP PUSH1 0x40 MLOAD RETURNDATASIZE PUSH1 0x1F NOT PUSH1 0x1F DUP3 ADD AND DUP3 ADD DUP1 PUSH1 0x40 MSTORE POP DUP2 ADD SWAP1 PUSH2 0x10D SWAP2 SWAP1 PUSH2 0x2DF JUMP JUMPDEST PUSH1 0x0 DUP1 SLOAD SWAP2 SWAP3 POP SWAP1 PUSH1 0x1 PUSH1 0x1 PUSH1 0xA0 SHL SUB AND PUSH4 0x77FBB663 DUP8 PUSH2 0x12F DUP6 PUSH1 0x1 PUSH2 0x238 JUMP JUMPDEST PUSH1 0x40 MLOAD PUSH1 0x1 PUSH1 0x1 PUSH1 0xE0 SHL SUB NOT PUSH1 0xE0 DUP6 SWAP1 SHL AND DUP2 MSTORE PUSH1 0x4 DUP2 ADD SWAP3 SWAP1 SWAP3 MSTORE PUSH1 0x24 DUP3 ADD MSTORE PUSH1 0x44 ADD PUSH1 0x20 PUSH1 0x40 MLOAD DUP1 DUP4 SUB DUP2 DUP7 GAS STATICCALL ISZERO DUP1 ISZERO PUSH2 0x170 JUMPI RETURNDATASIZE PUSH1 0x0 DUP1 RETURNDATACOPY RETURNDATASIZE PUSH1 0x0 REVERT JUMPDEST POP POP POP POP PUSH1 0x40 MLOAD RETURNDATASIZE PUSH1 0x1F NOT PUSH1 0x1F DUP3 ADD AND DUP3 ADD DUP1 PUSH1 0x40 MSTORE POP DUP2 ADD SWAP1 PUSH2 0x194 SWAP2 SWAP1 PUSH2 0x2DF JUMP JUMPDEST PUSH1 0x0 DUP1 SLOAD PUSH1 0x40 MLOAD PUSH4 0x93FA4915 PUSH1 0xE0 SHL DUP2 MSTORE PUSH1 0x4 DUP2 ADD DUP11 SWAP1 MSTORE PUSH1 0x24 DUP2 ADD DUP5 SWAP1 MSTORE SWAP3 SWAP4 POP SWAP1 SWAP2 PUSH1 0x1 PUSH1 0x1 PUSH1 0xA0 SHL SUB SWAP1 SWAP2 AND SWAP1 PUSH4 0x93FA4915 SWAP1 PUSH1 0x44 ADD PUSH1 0x20 PUSH1 0x40 MLOAD DUP1 DUP4 SUB DUP2 DUP7 GAS STATICCALL ISZERO DUP1 ISZERO PUSH2 0x1EA JUMPI RETURNDATASIZE PUSH1 0x0 DUP1 RETURNDATACOPY RETURNDATASIZE PUSH1 0x0 REVERT JUMPDEST POP POP POP POP PUSH1 0x40 MLOAD RETURNDATASIZE PUSH1 0x1F NOT PUSH1 0x1F DUP3 ADD AND DUP3 ADD DUP1 PUSH1 0x40 MSTORE POP DUP2 ADD SWAP1 PUSH2 0x20E SWAP2 SWAP1 PUSH2 0x2DF JUMP JUMPDEST SWAP1 POP DUP1 ISZERO PUSH2 0x225 JUMPI PUSH1 0x1 SWAP6 POP SWAP4 POP SWAP2 POP PUSH2 0x231 SWAP1 POP JUMP JUMPDEST POP PUSH1 0x0 SWAP5 POP DUP5 SWAP4 POP SWAP2 POP POP JUMPDEST SWAP2 SWAP4 SWAP1 SWAP3 POP JUMP JUMPDEST PUSH1 0x0 PUSH2 0x27A DUP4 DUP4 PUSH1 0x40 MLOAD DUP1 PUSH1 0x40 ADD PUSH1 0x40 MSTORE DUP1 PUSH1 0x1E DUP2 MSTORE PUSH1 0x20 ADD PUSH32 0x536166654D6174683A207375627472616374696F6E206F766572666C6F770000 DUP2 MSTORE POP PUSH2 0x283 JUMP JUMPDEST SWAP1 POP JUMPDEST SWAP3 SWAP2 POP POP JUMP JUMPDEST PUSH1 0x0 DUP2 DUP5 DUP5 GT ISZERO PUSH2 0x2B0 JUMPI PUSH1 0x40 MLOAD PUSH3 0x461BCD PUSH1 0xE5 SHL DUP2 MSTORE PUSH1 0x4 ADD PUSH2 0x2A7 SWAP2 SWAP1 PUSH2 0x2F8 JUMP JUMPDEST PUSH1 0x40 MLOAD DUP1 SWAP2 SUB SWAP1 REVERT JUMPDEST POP PUSH1 0x0 PUSH2 0x2BD DUP5 DUP7 PUSH2 0x346 JUMP JUMPDEST SWAP6 SWAP5 POP POP POP POP POP JUMP JUMPDEST PUSH1 0x0 PUSH1 0x20 DUP3 DUP5 SUB SLT ISZERO PUSH2 0x2D8 JUMPI PUSH1 0x0 DUP1 REVERT JUMPDEST POP CALLDATALOAD SWAP2 SWAP1 POP JUMP JUMPDEST PUSH1 0x0 PUSH1 0x20 DUP3 DUP5 SUB SLT ISZERO PUSH2 0x2F1 JUMPI PUSH1 0x0 DUP1 REVERT JUMPDEST POP MLOAD SWAP2 SWAP1 POP JUMP JUMPDEST PUSH1 0x0 PUSH1 0x20 DUP1 DUP4 MSTORE DUP4 MLOAD DUP1 DUP3 DUP6 ADD MSTORE PUSH1 0x0 JUMPDEST DUP2 DUP2 LT ISZERO PUSH2 0x325 JUMPI DUP6 DUP2 ADD DUP4 ADD MLOAD DUP6 DUP3 ADD PUSH1 0x40 ADD MSTORE DUP3 ADD PUSH2 0x309 JUMP JUMPDEST POP PUSH1 0x0 PUSH1 0x40 DUP3 DUP7 ADD ADD MSTORE PUSH1 0x40 PUSH1 0x1F NOT PUSH1 0x1F DUP4 ADD AND DUP6 ADD ADD SWAP3 POP POP POP SWAP3 SWAP2 POP POP JUMP JUMPDEST DUP2 DUP2 SUB DUP2 DUP2 GT ISZERO PUSH2 0x27D JUMPI PUSH4 0x4E487B71 PUSH1 0xE0 SHL PUSH1 0x0 MSTORE PUSH1 0x11 PUSH1 0x4 MSTORE PUSH1 0x24 PUSH1 0x0 REVERT INVALID LOG2 PUSH5 0x6970667358 0x22 SLT KECCAK256 0xAD 0xEE CALLER PUSH8 0xD16C85C128C6D609 0xCE LOG3 0xD5 0xD7 0xA5 JUMP 0xD5 0xD 0xCB 0xB1 DUP1 0x26 CALLER COINBASE 0x2E ISZERO SDIV 0xFB PUSH16 0x9164736F6C6343000814003300000000 "
				},
				"gasEstimates": {
					"creation": {
						"codeDepositCost": "185000",
						"executionCost": "infinite",
						"totalCost": "infinite"
					},
					"external": {
						"getTellorCurrentValue(uint256)": "infinite",
						"tellor()": "2304"
					}
				},
				"methodIdentifiers": {
					"getTellorCurrentValue(uint256)": "32e6aadb",
					"tellor()": "1959ad5b"
				}
			},
			"storageLayout": {
				"storage": [
					{
						"astId": 701,
						"contract": "contracts/Dependencies/TellorCaller.sol:TellorCaller",
						"label": "tellor",
						"offset": 0,
						"slot": "0",
						"type": "t_contract(ITellor)492"
					}
				],
				"types": {
					"t_contract(ITellor)492": {
						"encoding": "inplace",
						"label": "contract ITellor",
						"numberOfBytes": "20"
					}
				}
			},
			"userdoc": {
				"kind": "user",
				"methods": {},
				"version": 1
			}
		}
	}
}