{
	"data": {
		"bytecode": {
			"linkReferences": {},
			"object": "608060405234801561001057600080fd5b50600080546001600160a01b0319163390811782556040519091907f8be0079c531659141344cd1fd0a4f28419497f9722a3daafe3b4186f6b6457e0908290a3610ba78061005f6000396000f3fe6080604052600436106100a65760003560e01c80630b622ab2146100f257806314f6c3be1461012357806338d995a81461014a5780634a945f8d146101765780635a4d28bb146101c15780635eb52fca146101d657806364a197f3146101eb5780638da5cb5b146102245780638f32d59b14610239578063a3f4df7e14610262578063aac1846f146102ec578063b7f8cf9b14610301578063cfb9329a14610316576100ed565b366100ed576100b3610340565b6005546100c6903463ffffffff6103a016565b60058190556040805191825251600080516020610ace8339815191529181900360200190a1005b600080fd5b3480156100fe57600080fd5b506101076103ff565b604080516001600160a01b039092168252519081900360200190f35b34801561012f57600080fd5b5061013861040e565b60408051918252519081900360200190f35b34801561015657600080fd5b506101746004803603602081101561016d57600080fd5b5035610414565b005b34801561018257600080fd5b506101746004803603608081101561019957600080fd5b506001600160a01b038135811691602081013582169160408201358116916060013516610469565b3480156101cd57600080fd5b50610107610622565b3480156101e257600080fd5b50610138610631565b3480156101f757600080fd5b506101746004803603604081101561020e57600080fd5b506001600160a01b038135169060200135610637565b34801561023057600080fd5b50610107610766565b34801561024557600080fd5b5061024e610775565b604080519115158252519081900360200190f35b34801561026e57600080fd5b50610277610786565b6040805160208082528351818301528351919283929083019185019080838360005b838110156102b1578181015183820152602001610299565b50505050905090810190601f1680156102de5780820380516001836020036101000a031916815260200191505b509250505060405180910390f35b3480156102f857600080fd5b506101076107ac565b34801561030d57600080fd5b506101076107bb565b34801561032257600080fd5b506101746004803603602081101561033957600080fd5b50356107ca565b6001546001600160a01b031633148061036357506004546001600160a01b031633145b61039e5760405162461bcd60e51b8152600401808060200182810382526031815260200180610b416031913960400191505060405180910390fd5b565b6000828201838110156103f8576040805162461bcd60e51b815260206004820152601b60248201527a536166654d6174683a206164646974696f6e206f766572666c6f7760281b604482015290519081900360640190fd5b9392505050565b6003546001600160a01b031681565b60055490565b61041c6107e5565b60065461042f908263ffffffff61085816565b600681905560408051918252517f0d4c964e4ceac5d740869d39789a7b91888a787b9c33e9365b1a658a21ffb6969181900360200190a150565b610471610775565b6104c2576040805162461bcd60e51b815260206004820181905260248201527f4f776e61626c653a2063616c6c6572206973206e6f7420746865206f776e6572604482015290519081900360640190fd5b6104cb8461089a565b6104d48361089a565b6104dd8261089a565b6104e68161089a565b600180546001600160a01b038087166001600160a01b031992831681179093556002805487831690841617905560038054868316908416179055600480549185169190921617905560408051918252517f3ca631ffcd2a9b5d9ae18543fc82f58eb4ca33af9e6ab01b7a8e95331e6ed9859181900360200190a1604080516001600160a01b038516815290517f143219c9e69b09e07e095fcc889b43d8f46ca892bba65f08dc3a0050869a56789181900360200190a1604080516001600160a01b038416815290517f82966d27eea39b038ee0fa30cd16532bb24f6e65d31cb58fb227aa5766cdcc7f9181900360200190a1604080516001600160a01b038316815290517f5ee0cae2f063ed938bb55046f6a932fb6ae792bf43624806bb90abe68a50be9b9181900360200190a161061c61094d565b50505050565b6002546001600160a01b031681565b60065490565b61063f6107e5565b600554610652908263ffffffff61085816565b60058190556040805191825251600080516020610ace8339815191529181900360200190a1604080516001600160a01b03841681526020810183905281517f6109e2559dfa766aaec7118351d48a523f0a4157f49c8d68749c8ac41318ad12929181900390910190a16040516000906001600160a01b0384169083908381818185875af1925050503d8060008114610706576040519150601f19603f3d011682016040523d82523d6000602084013e61070b565b606091505b5050905080610761576040805162461bcd60e51b815260206004820152601e60248201527f416374697665506f6f6c3a2073656e64696e6720455448206661696c65640000604482015290519081900360640190fd5b505050565b6000546001600160a01b031690565b6000546001600160a01b0316331490565b6040518060400160405280600a8152602001691058dd1a5d99541bdbdb60b21b81525081565b6004546001600160a01b031681565b6001546001600160a01b031681565b6107d2610997565b60065461042f908263ffffffff6103a016565b6001546001600160a01b031633148061080857506002546001600160a01b031633145b8061081d57506003546001600160a01b031633145b61039e5760405162461bcd60e51b8152600401808060200182810382526053815260200180610aee6053913960600191505060405180910390fd5b60006103f883836040518060400160405280601e81526020017f536166654d6174683a207375627472616374696f6e206f766572666c6f7700008152506109f5565b6001600160a01b0381166108f5576040805162461bcd60e51b815260206004820152601e60248201527f4163636f756e742063616e6e6f74206265207a65726f20616464726573730000604482015290519081900360640190fd5b803b80610949576040805162461bcd60e51b815260206004820181905260248201527f4163636f756e7420636f64652073697a652063616e6e6f74206265207a65726f604482015290519081900360640190fd5b5050565b600080546040516001600160a01b03909116907f8be0079c531659141344cd1fd0a4f28419497f9722a3daafe3b4186f6b6457e0908390a3600080546001600160a01b0319169055565b6001546001600160a01b03163314806109ba57506002546001600160a01b031633145b61039e5760405162461bcd60e51b8152600401808060200182810382526041815260200180610a8d6041913960600191505060405180910390fd5b60008184841115610a845760405162461bcd60e51b81526004018080602001828103825283818151815260200191508051906020019080838360005b83811015610a49578181015183820152602001610a31565b50505050905090810190601f168015610a765780820380516001836020036101000a031916815260200191505b509250505060405180910390fd5b50505090039056fe416374697665506f6f6c3a2043616c6c6572206973206e65697468657220426f72726f7765724f7065726174696f6e73206e6f722054726f76654d616e61676572ca232b5abb988c540b959ff6c3bfae3e97fff964fd098c508f9613c0a6bf1a80416374697665506f6f6c3a2043616c6c6572206973206e65697468657220426f72726f7765724f7065726174696f6e73206e6f722054726f76654d616e61676572206e6f722053746162696c697479506f6f6c416374697665506f6f6c3a2043616c6c6572206973206e65697468657220424f206e6f722044656661756c7420506f6f6ca2646970667358221220f3edc6ae98f2475144e0f2b002b9e7f80e3dcaec9186d49e2d98826a31f57ea964736f6c634300060b0033",
			"opcodes": "PUSH1 0x80 PUSH1 0x40 MSTORE CALLVALUE DUP1 ISZERO PUSH2 0x10 JUMPI PUSH1 0x0 DUP1 REVERT JUMPDEST POP PUSH1 0x0 DUP1 SLOAD PUSH1 0x1 PUSH1 0x1 PUSH1 0xA0 SHL SUB NOT AND CALLER SWAP1 DUP2 OR DUP3 SSTORE PUSH1 0x40 MLOAD SWAP1 SWAP2 SWAP1 PUSH32 0x8BE0079C531659141344CD1FD0A4F28419497F9722A3DAAFE3B4186F6B6457E0 SWAP1 DUP3 SWAP1 LOG3 PUSH2 0xBA7 DUP1 PUSH2 0x5F PUSH1 0x0 CODECOPY PUSH1 0x0 RETURN INVALID PUSH1 0x80 PUSH1 0x40 MSTORE PUSH1 0x4 CALLDATASIZE LT PUSH2 0xA6 JUMPI PUSH1 0x0 CALLDATALOAD PUSH1 0xE0 SHR DUP1 PUSH4 0xB622AB2 EQ PUSH2 0xF2 JUMPI DUP1 PUSH4 0x14F6C3BE EQ PUSH2 0x123 JUMPI DUP1 PUSH4 0x38D995A8 EQ PUSH2 0x14A JUMPI DUP1 PUSH4 0x4A945F8D EQ PUSH2 0x176 JUMPI DUP1 PUSH4 0x5A4D28BB EQ PUSH2 0x1C1 JUMPI DUP1 PUSH4 0x5EB52FCA EQ PUSH2 0x1D6 JUMPI DUP1 PUSH4 0x64A197F3 EQ PUSH2 0x1EB JUMPI DUP1 PUSH4 0x8DA5CB5B EQ PUSH2 0x224 JUMPI DUP1 PUSH4 0x8F32D59B EQ PUSH2 0x239 JUMPI DUP1 PUSH4 0xA3F4DF7E EQ PUSH2 0x262 JUMPI DUP1 PUSH4 0xAAC1846F EQ PUSH2 0x2EC JUMPI DUP1 PUSH4 0xB7F8CF9B EQ PUSH2 0x301 JUMPI DUP1 PUSH4 0xCFB9329A EQ PUSH2 0x316 JUMPI PUSH2 0xED JUMP JUMPDEST CALLDATASIZE PUSH2 0xED JUMPI PUSH2 0xB3 PUSH2 0x340 JUMP JUMPDEST PUSH1 0x5 SLOAD PUSH2 0xC6 SWAP1 CALLVALUE PUSH4 0xFFFFFFFF PUSH2 0x3A0 AND JUMP JUMPDEST PUSH1 0x5 DUP2 SWAP1 SSTORE PUSH1 0x40 DUP1 MLOAD SWAP2 DUP3 MSTORE MLOAD PUSH1 0x0 DUP1 MLOAD PUSH1 0x20 PUSH2 0xACE DUP4 CODECOPY DUP2 MLOAD SWAP2 MSTORE SWAP2 DUP2 SWAP1 SUB PUSH1 0x20 ADD SWAP1 LOG1 STOP JUMPDEST PUSH1 0x0 DUP1 REVERT JUMPDEST CALLVALUE DUP1 ISZERO PUSH2 0xFE JUMPI PUSH1 0x0 DUP1 REVERT JUMPDEST POP PUSH2 0x107 PUSH2 0x3FF JUMP JUMPDEST PUSH1 0x40 DUP1 MLOAD PUSH1 0x1 PUSH1 0x1 PUSH1 0xA0 SHL SUB SWAP1 SWAP3 AND DUP3 MSTORE MLOAD SWAP1 DUP2 SWAP1 SUB PUSH1 0x20 ADD SWAP1 RETURN JUMPDEST CALLVALUE DUP1 ISZERO PUSH2 0x12F JUMPI PUSH1 0x0 DUP1 REVERT JUMPDEST POP PUSH2 0x138 PUSH2 0x40E JUMP JUMPDEST PUSH1 0x40 DUP1 MLOAD SWAP2 DUP3 MSTORE MLOAD SWAP1 DUP2 SWAP1 SUB PUSH1 0x20 ADD SWAP1 RETURN JUMPDEST CALLVALUE DUP1 ISZERO PUSH2 0x156 JUMPI PUSH1 0x0 DUP1 REVERT JUMPDEST POP PUSH2 0x174 PUSH1 0x4 DUP1 CALLDATASIZE SUB PUSH1 0x20 DUP2 LT ISZERO PUSH2 0x16D JUMPI PUSH1 0x0 DUP1 REVERT JUMPDEST POP CALLDATALOAD PUSH2 0x414 JUMP JUMPDEST STOP JUMPDEST CALLVALUE DUP1 ISZERO PUSH2 0x182 JUMPI PUSH1 0x0 DUP1 REVERT JUMPDEST POP PUSH2 0x174 PUSH1 0x4 DUP1 CALLDATASIZE SUB PUSH1 0x80 DUP2 LT ISZERO PUSH2 0x199 JUMPI PUSH1 0x0 DUP1 REVERT JUMPDEST POP PUSH1 0x1 PUSH1 0x1 PUSH1 0xA0 SHL SUB DUP2 CALLDATALOAD DUP2 AND SWAP2 PUSH1 0x20 DUP2 ADD CALLDATALOAD DUP3 AND SWAP2 PUSH1 0x40 DUP3 ADD CALLDATALOAD DUP2 AND SWAP2 PUSH1 0x60 ADD CALLDATALOAD AND PUSH2 0x469 JUMP JUMPDEST CALLVALUE DUP1 ISZERO PUSH2 0x1CD JUMPI PUSH1 0x0 DUP1 REVERT JUMPDEST POP PUSH2 0x107 PUSH2 0x622 JUMP JUMPDEST CALLVALUE DUP1 ISZERO PUSH2 0x1E2 JUMPI PUSH1 0x0 DUP1 REVERT JUMPDEST POP PUSH2 0x138 PUSH2 0x631 JUMP JUMPDEST CALLVALUE DUP1 ISZERO PUSH2 0x1F7 JUMPI PUSH1 0x0 DUP1 REVERT JUMPDEST POP PUSH2 0x174 PUSH1 0x4 DUP1 CALLDATASIZE SUB PUSH1 0x40 DUP2 LT ISZERO PUSH2 0x20E JUMPI PUSH1 0x0 DUP1 REVERT JUMPDEST POP PUSH1 0x1 PUSH1 0x1 PUSH1 0xA0 SHL SUB DUP2 CALLDATALOAD AND SWAP1 PUSH1 0x20 ADD CALLDATALOAD PUSH2 0x637 JUMP JUMPDEST CALLVALUE DUP1 ISZERO PUSH2 0x230 JUMPI PUSH1 0x0 DUP1 REVERT JUMPDEST POP PUSH2 0x107 PUSH2 0x766 JUMP JUMPDEST CALLVALUE DUP1 ISZERO PUSH2 0x245 JUMPI PUSH1 0x0 DUP1 REVERT JUMPDEST POP PUSH2 0x24E PUSH2 0x775 JUMP JUMPDEST PUSH1 0x40 DUP1 MLOAD SWAP2 ISZERO ISZERO DUP3 MSTORE MLOAD SWAP1 DUP2 SWAP1 SUB PUSH1 0x20 ADD SWAP1 RETURN JUMPDEST CALLVALUE DUP1 ISZERO PUSH2 0x26E JUMPI PUSH1 0x0 DUP1 REVERT JUMPDEST POP PUSH2 0x277 PUSH2 0x786 JUMP JUMPDEST PUSH1 0x40 DUP1 MLOAD PUSH1 0x20 DUP1 DUP3 MSTORE DUP4 MLOAD DUP2 DUP4 ADD MSTORE DUP4 MLOAD SWAP2 SWAP3 DUP4 SWAP3 SWAP1 DUP4 ADD SWAP2 DUP6 ADD SWAP1 DUP1 DUP4 DUP4 PUSH1 0x0 JUMPDEST DUP4 DUP2 LT ISZERO PUSH2 0x2B1 JUMPI DUP2 DUP2 ADD MLOAD DUP4 DUP3 ADD MSTORE PUSH1 0x20 ADD PUSH2 0x299 JUMP JUMPDEST POP POP POP POP SWAP1 POP SWAP1 DUP2 ADD SWAP1 PUSH1 0x1F AND DUP1 ISZERO PUSH2 0x2DE JUMPI DUP1 DUP3 SUB DUP1 MLOAD PUSH1 0x1 DUP4 PUSH1 0x20 SUB PUSH2 0x100 EXP SUB NOT AND DUP2 MSTORE PUSH1 0x20 ADD SWAP2 POP JUMPDEST POP SWAP3 POP POP POP PUSH1 0x40 MLOAD DUP1 SWAP2 SUB SWAP1 RETURN JUMPDEST CALLVALUE DUP1 ISZERO PUSH2 0x2F8 JUMPI PUSH1 0x0 DUP1 REVERT JUMPDEST POP PUSH2 0x107 PUSH2 0x7AC JUMP JUMPDEST CALLVALUE DUP1 ISZERO PUSH2 0x30D JUMPI PUSH1 0x0 DUP1 REVERT JUMPDEST POP PUSH2 0x107 PUSH2 0x7BB JUMP JUMPDEST CALLVALUE DUP1 ISZERO PUSH2 0x322 JUMPI PUSH1 0x0 DUP1 REVERT JUMPDEST POP PUSH2 0x174 PUSH1 0x4 DUP1 CALLDATASIZE SUB PUSH1 0x20 DUP2 LT ISZERO PUSH2 0x339 JUMPI PUSH1 0x0 DUP1 REVERT JUMPDEST POP CALLDATALOAD PUSH2 0x7CA JUMP JUMPDEST PUSH1 0x1 SLOAD PUSH1 0x1 PUSH1 0x1 PUSH1 0xA0 SHL SUB AND CALLER EQ DUP1 PUSH2 0x363 JUMPI POP PUSH1 0x4 SLOAD PUSH1 0x1 PUSH1 0x1 PUSH1 0xA0 SHL SUB AND CALLER EQ JUMPDEST PUSH2 0x39E JUMPI PUSH1 0x40 MLOAD PUSH3 0x461BCD PUSH1 0xE5 SHL DUP2 MSTORE PUSH1 0x4 ADD DUP1 DUP1 PUSH1 0x20 ADD DUP3 DUP2 SUB DUP3 MSTORE PUSH1 0x31 DUP2 MSTORE PUSH1 0x20 ADD DUP1 PUSH2 0xB41 PUSH1 0x31 SWAP2 CODECOPY PUSH1 0x40 ADD SWAP2 POP POP PUSH1 0x40 MLOAD DUP1 SWAP2 SUB SWAP1 REVERT JUMPDEST JUMP JUMPDEST PUSH1 0x0 DUP3 DUP3 ADD DUP4 DUP2 LT ISZERO PUSH2 0x3F8 JUMPI PUSH1 0x40 DUP1 MLOAD PUSH3 0x461BCD PUSH1 0xE5 SHL DUP2 MSTORE PUSH1 0x20 PUSH1 0x4 DUP3 ADD MSTORE PUSH1 0x1B PUSH1 0x24 DUP3 ADD MSTORE PUSH27 0x536166654D6174683A206164646974696F6E206F766572666C6F77 PUSH1 0x28 SHL PUSH1 0x44 DUP3 ADD MSTORE SWAP1 MLOAD SWAP1 DUP2 SWAP1 SUB PUSH1 0x64 ADD SWAP1 REVERT JUMPDEST SWAP4 SWAP3 POP POP POP JUMP JUMPDEST PUSH1 0x3 SLOAD PUSH1 0x1 PUSH1 0x1 PUSH1 0xA0 SHL SUB AND DUP2 JUMP JUMPDEST PUSH1 0x5 SLOAD SWAP1 JUMP JUMPDEST PUSH2 0x41C PUSH2 0x7E5 JUMP JUMPDEST PUSH1 0x6 SLOAD PUSH2 0x42F SWAP1 DUP3 PUSH4 0xFFFFFFFF PUSH2 0x858 AND JUMP JUMPDEST PUSH1 0x6 DUP2 SWAP1 SSTORE PUSH1 0x40 DUP1 MLOAD SWAP2 DUP3 MSTORE MLOAD PUSH32 0xD4C964E4CEAC5D740869D39789A7B91888A787B9C33E9365B1A658A21FFB696 SWAP2 DUP2 SWAP1 SUB PUSH1 0x20 ADD SWAP1 LOG1 POP JUMP JUMPDEST PUSH2 0x471 PUSH2 0x775 JUMP JUMPDEST PUSH2 0x4C2 JUMPI PUSH1 0x40 DUP1 MLOAD PUSH3 0x461BCD PUSH1 0xE5 SHL DUP2 MSTORE PUSH1 0x20 PUSH1 0x4 DUP3 ADD DUP2 SWAP1 MSTORE PUSH1 0x24 DUP3 ADD MSTORE PUSH32 0x4F776E61626C653A2063616C6C6572206973206E6F7420746865206F776E6572 PUSH1 0x44 DUP3 ADD MSTORE SWAP1 MLOAD SWAP1 DUP2 SWAP1 SUB PUSH1 0x64 ADD SWAP1 REVERT JUMPDEST PUSH2 0x4CB DUP5 PUSH2 0x89A JUMP JUMPDEST PUSH2 0x4D4 DUP4 PUSH2 0x89A JUMP JUMPDEST PUSH2 0x4DD DUP3 PUSH2 0x89A JUMP JUMPDEST PUSH2 0x4E6 DUP2 PUSH2 0x89A JUMP JUMPDEST PUSH1 0x1 DUP1 SLOAD PUSH1 0x1 PUSH1 0x1 PUSH1 0xA0 SHL SUB DUP1 DUP8 AND PUSH1 0x1 PUSH1 0x1 PUSH1 0xA0 SHL SUB NOT SWAP3 DUP4 AND DUP2 OR SWAP1 SWAP4 SSTORE PUSH1 0x2 DUP1 SLOAD DUP8 DUP4 AND SWAP1 DUP5 AND OR SWAP1 SSTORE PUSH1 0x3 DUP1 SLOAD DUP7 DUP4 AND SWAP1 DUP5 AND OR SWAP1 SSTORE PUSH1 0x4 DUP1 SLOAD SWAP2 DUP6 AND SWAP2 SWAP1 SWAP3 AND OR SWAP1 SSTORE PUSH1 0x40 DUP1 MLOAD SWAP2 DUP3 MSTORE MLOAD PUSH32 0x3CA631FFCD2A9B5D9AE18543FC82F58EB4CA33AF9E6AB01B7A8E95331E6ED985 SWAP2 DUP2 SWAP1 SUB PUSH1 0x20 ADD SWAP1 LOG1 PUSH1 0x40 DUP1 MLOAD PUSH1 0x1 PUSH1 0x1 PUSH1 0xA0 SHL SUB DUP6 AND DUP2 MSTORE SWAP1 MLOAD PUSH32 0x143219C9E69B09E07E095FCC889B43D8F46CA892BBA65F08DC3A0050869A5678 SWAP2 DUP2 SWAP1 SUB PUSH1 0x20 ADD SWAP1 LOG1 PUSH1 0x40 DUP1 MLOAD PUSH1 0x1 PUSH1 0x1 PUSH1 0xA0 SHL SUB DUP5 AND DUP2 MSTORE SWAP1 MLOAD PUSH32 0x82966D27EEA39B038EE0FA30CD16532BB24F6E65D31CB58FB227AA5766CDCC7F SWAP2 DUP2 SWAP1 SUB PUSH1 0x20 ADD SWAP1 LOG1 PUSH1 0x40 DUP1 MLOAD PUSH1 0x1 PUSH1 0x1 PUSH1 0xA0 SHL SUB DUP4 AND DUP2 MSTORE SWAP1 MLOAD PUSH32 0x5EE0CAE2F063ED938BB55046F6A932FB6AE792BF43624806BB90ABE68A50BE9B SWAP2 DUP2 SWAP1 SUB PUSH1 0x20 ADD SWAP1 LOG1 PUSH2 0x61C PUSH2 0x94D JUMP JUMPDEST POP POP POP POP JUMP JUMPDEST PUSH1 0x2 SLOAD PUSH1 0x1 PUSH1 0x1 PUSH1 0xA0 SHL SUB AND DUP2 JUMP JUMPDEST PUSH1 0x6 SLOAD SWAP1 JUMP JUMPDEST PUSH2 0x63F PUSH2 0x7E5 JUMP JUMPDEST PUSH1 0x5 SLOAD PUSH2 0x652 SWAP1 DUP3 PUSH4 0xFFFFFFFF PUSH2 0x858 AND JUMP JUMPDEST PUSH1 0x5 DUP2 SWAP1 SSTORE PUSH1 0x40 DUP1 MLOAD SWAP2 DUP3 MSTORE MLOAD PUSH1 0x0 DUP1 MLOAD PUSH1 0x20 PUSH2 0xACE DUP4 CODECOPY DUP2 MLOAD SWAP2 MSTORE SWAP2 DUP2 SWAP1 SUB PUSH1 0x20 ADD SWAP1 LOG1 PUSH1 0x40 DUP1 MLOAD PUSH1 0x1 PUSH1 0x1 PUSH1 0xA0 SHL SUB DUP5 AND DUP2 MSTORE PUSH1 0x20 DUP2 ADD DUP4 SWAP1 MSTORE DUP2 MLOAD PUSH32 0x6109E2559DFA766AAEC7118351D48A523F0A4157F49C8D68749C8AC41318AD12 SWAP3 SWAP2 DUP2 SWAP1 SUB SWAP1 SWAP2 ADD SWAP1 LOG1 PUSH1 0x40 MLOAD PUSH1 0x0 SWAP1 PUSH1 0x1 PUSH1 0x1 PUSH1 0xA0 SHL SUB DUP5 AND SWAP1 DUP4 SWAP1 DUP4 DUP2 DUP2 DUP2 DUP6 DUP8 GAS CALL SWAP3 POP POP POP RETURNDATASIZE DUP1 PUSH1 0x0 DUP2 EQ PUSH2 0x706 JUMPI PUSH1 0x40 MLOAD SWAP2 POP PUSH1 0x1F NOT PUSH1 0x3F RETURNDATASIZE ADD AND DUP3 ADD PUSH1 0x40 MSTORE RETURNDATASIZE DUP3 MSTORE RETURNDATASIZE PUSH1 0x0 PUSH1 0x20 DUP5 ADD RETURNDATACOPY PUSH2 0x70B JUMP JUMPDEST PUSH1 0x60 SWAP2 POP JUMPDEST POP POP SWAP1 POP DUP1 PUSH2 0x761 JUMPI PUSH1 0x40 DUP1 MLOAD PUSH3 0x461BCD PUSH1 0xE5 SHL DUP2 MSTORE PUSH1 0x20 PUSH1 0x4 DUP3 ADD MSTORE PUSH1 0x1E PUSH1 0x24 DUP3 ADD MSTORE PUSH32 0x416374697665506F6F6C3A2073656E64696E6720455448206661696C65640000 PUSH1 0x44 DUP3 ADD MSTORE SWAP1 MLOAD SWAP1 DUP2 SWAP1 SUB PUSH1 0x64 ADD SWAP1 REVERT JUMPDEST POP POP POP JUMP JUMPDEST PUSH1 0x0 SLOAD PUSH1 0x1 PUSH1 0x1 PUSH1 0xA0 SHL SUB AND SWAP1 JUMP JUMPDEST PUSH1 0x0 SLOAD PUSH1 0x1 PUSH1 0x1 PUSH1 0xA0 SHL SUB AND CALLER EQ SWAP1 JUMP JUMPDEST PUSH1 0x40 MLOAD DUP1 PUSH1 0x40 ADD PUSH1 0x40 MSTORE DUP1 PUSH1 0xA DUP2 MSTORE PUSH1 0x20 ADD PUSH10 0x1058DD1A5D99541BDBDB PUSH1 0xB2 SHL DUP2 MSTORE POP DUP2 JUMP JUMPDEST PUSH1 0x4 SLOAD PUSH1 0x1 PUSH1 0x1 PUSH1 0xA0 SHL SUB AND DUP2 JUMP JUMPDEST PUSH1 0x1 SLOAD PUSH1 0x1 PUSH1 0x1 PUSH1 0xA0 SHL SUB AND DUP2 JUMP JUMPDEST PUSH2 0x7D2 PUSH2 0x997 JUMP JUMPDEST PUSH1 0x6 SLOAD PUSH2 0x42F SWAP1 DUP3 PUSH4 0xFFFFFFFF PUSH2 0x3A0 AND JUMP JUMPDEST PUSH1 0x1 SLOAD PUSH1 0x1 PUSH1 0x1 PUSH1 0xA0 SHL SUB AND CALLER EQ DUP1 PUSH2 0x808 JUMPI POP PUSH1 0x2 SLOAD PUSH1 0x1 PUSH1 0x1 PUSH1 0xA0 SHL SUB AND CALLER EQ JUMPDEST DUP1 PUSH2 0x81D JUMPI POP PUSH1 0x3 SLOAD PUSH1 0x1 PUSH1 0x1 PUSH1 0xA0 SHL SUB AND CALLER EQ JUMPDEST PUSH2 0x39E JUMPI PUSH1 0x40 MLOAD PUSH3 0x461BCD PUSH1 0xE5 SHL DUP2 MSTORE PUSH1 0x4 ADD DUP1 DUP1 PUSH1 0x20 ADD DUP3 DUP2 SUB DUP3 MSTORE PUSH1 0x53 DUP2 MSTORE PUSH1 0x20 ADD DUP1 PUSH2 0xAEE PUSH1 0x53 SWAP2 CODECOPY PUSH1 0x60 ADD SWAP2 POP POP PUSH1 0x40 MLOAD DUP1 SWAP2 SUB SWAP1 REVERT JUMPDEST PUSH1 0x0 PUSH2 0x3F8 DUP4 DUP4 PUSH1 0x40 MLOAD DUP1 PUSH1 0x40 ADD PUSH1 0x40 MSTORE DUP1 PUSH1 0x1E DUP2 MSTORE PUSH1 0x20 ADD PUSH32 0x536166654D6174683A207375627472616374696F6E206F766572666C6F770000 DUP2 MSTORE POP PUSH2 0x9F5 JUMP JUMPDEST PUSH1 0x1 PUSH1 0x1 PUSH1 0xA0 SHL SUB DUP2 AND PUSH2 0x8F5 JUMPI PUSH1 0x40 DUP1 MLOAD PUSH3 0x461BCD PUSH1 0xE5 SHL DUP2 MSTORE PUSH1 0x20 PUSH1 0x4 DUP3 ADD MSTORE PUSH1 0x1E PUSH1 0x24 DUP3 ADD MSTORE PUSH32 0x4163636F756E742063616E6E6F74206265207A65726F20616464726573730000 PUSH1 0x44 DUP3 ADD MSTORE SWAP1 MLOAD SWAP1 DUP2 SWAP1 SUB PUSH1 0x64 ADD SWAP1 REVERT JUMPDEST DUP1 EXTCODESIZE DUP1 PUSH2 0x949 JUMPI PUSH1 0x40 DUP1 MLOAD PUSH3 0x461BCD PUSH1 0xE5 SHL DUP2 MSTORE PUSH1 0x20 PUSH1 0x4 DUP3 ADD DUP2 SWAP1 MSTORE PUSH1 0x24 DUP3 ADD MSTORE PUSH32 0x4163636F756E7420636F64652073697A652063616E6E6F74206265207A65726F PUSH1 0x44 DUP3 ADD MSTORE SWAP1 MLOAD SWAP1 DUP2 SWAP1 SUB PUSH1 0x64 ADD SWAP1 REVERT JUMPDEST POP POP JUMP JUMPDEST PUSH1 0x0 DUP1 SLOAD PUSH1 0x40 MLOAD PUSH1 0x1 PUSH1 0x1 PUSH1 0xA0 SHL SUB SWAP1 SWAP2 AND SWAP1 PUSH32 0x8BE0079C531659141344CD1FD0A4F28419497F9722A3DAAFE3B4186F6B6457E0 SWAP1 DUP4 SWAP1 LOG3 PUSH1 0x0 DUP1 SLOAD PUSH1 0x1 PUSH1 0x1 PUSH1 0xA0 SHL SUB NOT AND SWAP1 SSTORE JUMP JUMPDEST PUSH1 0x1 SLOAD PUSH1 0x1 PUSH1 0x1 PUSH1 0xA0 SHL SUB AND CALLER EQ DUP1 PUSH2 0x9BA JUMPI POP PUSH1 0x2 SLOAD PUSH1 0x1 PUSH1 0x1 PUSH1 0xA0 SHL SUB AND CALLER EQ JUMPDEST PUSH2 0x39E JUMPI PUSH1 0x40 MLOAD PUSH3 0x461BCD PUSH1 0xE5 SHL DUP2 MSTORE PUSH1 0x4 ADD DUP1 DUP1 PUSH1 0x20 ADD DUP3 DUP2 SUB DUP3 MSTORE PUSH1 0x41 DUP2 MSTORE PUSH1 0x20 ADD DUP1 PUSH2 0xA8D PUSH1 0x41 SWAP2 CODECOPY PUSH1 0x60 ADD SWAP2 POP POP PUSH1 0x40 MLOAD DUP1 SWAP2 SUB SWAP1 REVERT JUMPDEST PUSH1 0x0 DUP2 DUP5 DUP5 GT ISZERO PUSH2 0xA84 JUMPI PUSH1 0x40 MLOAD PUSH3 0x461BCD PUSH1 0xE5 SHL DUP2 MSTORE PUSH1 0x4 ADD DUP1 DUP1 PUSH1 0x20 ADD DUP3 DUP2 SUB DUP3 MSTORE DUP4 DUP2 DUP2 MLOAD DUP2 MSTORE PUSH1 0x20 ADD SWAP2 POP DUP1 MLOAD SWAP1 PUSH1 0x20 ADD SWAP1 DUP1 DUP4 DUP4 PUSH1 0x0 JUMPDEST DUP4 DUP2 LT ISZERO PUSH2 0xA49 JUMPI DUP2 DUP2 ADD MLOAD DUP4 DUP3 ADD MSTORE PUSH1 0x20 ADD PUSH2 0xA31 JUMP JUMPDEST POP POP POP POP SWAP1 POP SWAP1 DUP2 ADD SWAP1 PUSH1 0x1F AND DUP1 ISZERO PUSH2 0xA76 JUMPI DUP1 DUP3 SUB DUP1 MLOAD PUSH1 0x1 DUP4 PUSH1 0x20 SUB PUSH2 0x100 EXP SUB NOT AND DUP2 MSTORE PUSH1 0x20 ADD SWAP2 POP JUMPDEST POP SWAP3 POP POP POP PUSH1 0x40 MLOAD DUP1 SWAP2 SUB SWAP1 REVERT JUMPDEST POP POP POP SWAP1 SUB SWAP1 JUMP INVALID COINBASE PUSH4 0x74697665 POP PUSH16 0x6F6C3A2043616C6C6572206973206E65 PUSH10 0x7468657220426F72726F PUSH24 0x65724F7065726174696F6E73206E6F722054726F76654D61 PUSH15 0x61676572CA232B5ABB988C540B959F 0xF6 0xC3 0xBF 0xAE RETURNDATACOPY SWAP8 SELFDESTRUCT 0xF9 PUSH5 0xFD098C508F SWAP7 SGT 0xC0 0xA6 0xBF BYTE DUP1 COINBASE PUSH4 0x74697665 POP PUSH16 0x6F6C3A2043616C6C6572206973206E65 PUSH10 0x7468657220426F72726F PUSH24 0x65724F7065726174696F6E73206E6F722054726F76654D61 PUSH15 0x61676572206E6F722053746162696C PUSH10 0x7479506F6F6C41637469 PUSH23 0x65506F6F6C3A2043616C6C6572206973206E6569746865 PUSH19 0x20424F206E6F722044656661756C7420506F6F PUSH13 0xA2646970667358221220F3EDC6 0xAE SWAP9 CALLCODE SELFBALANCE MLOAD DIFFICULTY 0xE0 CALLCODE 0xB0 MUL 0xB9 0xE7 0xF8 0xE RETURNDATASIZE 0xCA 0xEC SWAP2 DUP7 0xD4 SWAP15 0x2D SWAP9 DUP3 PUSH11 0x31F57EA964736F6C634300 MOD SIGNEXTEND STOP CALLER "
		},
		"gasEstimates": {
			"creation": {
				"codeDepositCost": "596600",
				"executionCost": "23000",
				"totalCost": "619600"
			},
			"external": {
				"NAME()": "infinite",
				"borrowerOperationsAddress()": "1257",
				"decreaseLUSDDebt(uint256)": "infinite",
				"defaultPoolAddress()": "1235",
				"getETH()": "998",
				"getLUSDDebt()": "1086",
				"increaseLUSDDebt(uint256)": "infinite",
				"isOwner()": "1181",
				"owner()": "1169",
				"sendETH(address,uint256)": "infinite",
				"setAddresses(address,address,address,address)": "infinite",
				"stabilityPoolAddress()": "1015",
				"troveManagerAddress()": "1103"
			},
			"internal": {
				"_requireCallerIsBOorTroveM()": "infinite",
				"_requireCallerIsBOorTroveMorSP()": "infinite",
				"_requireCallerIsBorrowerOperationsOrDefaultPool()": "infinite"
			}
		},
		"methodIdentifiers": {
			"NAME()": "a3f4df7e",
			"borrowerOperationsAddress()": "b7f8cf9b",
			"decreaseLUSDDebt(uint256)": "38d995a8",
			"defaultPoolAddress()": "aac1846f",
			"getETH()": "14f6c3be",
			"getLUSDDebt()": "5eb52fca",
			"increaseLUSDDebt(uint256)": "cfb9329a",
			"isOwner()": "8f32d59b",
			"owner()": "8da5cb5b",
			"sendETH(address,uint256)": "64a197f3",
			"setAddresses(address,address,address,address)": "4a945f8d",
			"stabilityPoolAddress()": "0b622ab2",
			"troveManagerAddress()": "5a4d28bb"
		}
	},
	"abi": [
		{
			"anonymous": false,
			"inputs": [
				{
					"indexed": false,
					"internalType": "address",
					"name": "_newActivePoolAddress",
					"type": "address"
				}
			],
			"name": "ActivePoolAddressChanged",
			"type": "event"
		},
		{
			"anonymous": false,
			"inputs": [
				{
					"indexed": false,
					"internalType": "uint256",
					"name": "_ETH",
					"type": "uint256"
				}
			],
			"name": "ActivePoolETHBalanceUpdated",
			"type": "event"
		},
		{
			"anonymous": false,
			"inputs": [
				{
					"indexed": false,
					"internalType": "uint256",
					"name": "_LUSDDebt",
					"type": "uint256"
				}
			],
			"name": "ActivePoolLUSDDebtUpdated",
			"type": "event"
		},
		{
			"anonymous": false,
			"inputs": [
				{
					"indexed": false,
					"internalType": "address",
					"name": "_newBorrowerOperationsAddress",
					"type": "address"
				}
			],
			"name": "BorrowerOperationsAddressChanged",
			"type": "event"
		},
		{
			"anonymous": false,
			"inputs": [
				{
					"indexed": false,
					"internalType": "address",
					"name": "_newDefaultPoolAddress",
					"type": "address"
				}
			],
			"name": "DefaultPoolAddressChanged",
			"type": "event"
		},
		{
			"anonymous": false,
			"inputs": [
				{
					"indexed": false,
					"internalType": "uint256",
					"name": "_newBalance",
					"type": "uint256"
				}
			],
			"name": "ETHBalanceUpdated",
			"type": "event"
		},
		{
			"anonymous": false,
			"inputs": [
				{
					"indexed": false,
					"internalType": "address",
					"name": "_to",
					"type": "address"
				},
				{
					"indexed": false,
					"internalType": "uint256",
					"name": "_amount",
					"type": "uint256"
				}
			],
			"name": "EtherSent",
			"type": "event"
		},
		{
			"anonymous": false,
			"inputs": [
				{
					"indexed": false,
					"internalType": "uint256",
					"name": "_newBalance",
					"type": "uint256"
				}
			],
			"name": "LUSDBalanceUpdated",
			"type": "event"
		},
		{
			"anonymous": false,
			"inputs": [
				{
					"indexed": true,
					"internalType": "address",
					"name": "previousOwner",
					"type": "address"
				},
				{
					"indexed": true,
					"internalType": "address",
					"name": "newOwner",
					"type": "address"
				}
			],
			"name": "OwnershipTransferred",
			"type": "event"
		},
		{
			"anonymous": false,
			"inputs": [
				{
					"indexed": false,
					"internalType": "address",
					"name": "_newStabilityPoolAddress",
					"type": "address"
				}
			],
			"name": "StabilityPoolAddressChanged",
			"type": "event"
		},
		{
			"anonymous": false,
			"inputs": [
				{
					"indexed": false,
					"internalType": "address",
					"name": "_newTroveManagerAddress",
					"type": "address"
				}
			],
			"name": "TroveManagerAddressChanged",
			"type": "event"
		},
		{
			"inputs": [],
			"name": "NAME",
			"outputs": [
				{
					"internalType": "string",
					"name": "",
					"type": "string"
				}
			],
			"stateMutability": "view",
			"type": "function"
		},
		{
			"inputs": [],
			"name": "borrowerOperationsAddress",
			"outputs": [
				{
					"internalType": "address",
					"name": "",
					"type": "address"
				}
			],
			"stateMutability": "view",
			"type": "function"
		},
		{
			"inputs": [
				{
					"internalType": "uint256",
					"name": "_amount",
					"type": "uint256"
				}
			],
			"name": "decreaseLUSDDebt",
			"outputs": [],
			"stateMutability": "nonpayable",
			"type": "function"
		},
		{
			"inputs": [],
			"name": "defaultPoolAddress",
			"outputs": [
				{
					"internalType": "address",
					"name": "",
					"type": "address"
				}
			],
			"stateMutability": "view",
			"type": "function"
		},
		{
			"inputs": [],
			"name": "getETH",
			"outputs": [
				{
					"internalType": "uint256",
					"name": "",
					"type": "uint256"
				}
			],
			"stateMutability": "view",
			"type": "function"
		},
		{
			"inputs": [],
			"name": "getLUSDDebt",
			"outputs": [
				{
					"internalType": "uint256",
					"name": "",
					"type": "uint256"
				}
			],
			"stateMutability": "view",
			"type": "function"
		},
		{
			"inputs": [
				{
					"internalType": "uint256",
					"name": "_amount",
					"type": "uint256"
				}
			],
			"name": "increaseLUSDDebt",
			"outputs": [],
			"stateMutability": "nonpayable",
			"type": "function"
		},
		{
			"inputs": [],
			"name": "isOwner",
			"outputs": [
				{
					"internalType": "bool",
					"name": "",
					"type": "bool"
				}
			],
			"stateMutability": "view",
			"type": "function"
		},
		{
			"inputs": [],
			"name": "owner",
			"outputs": [
				{
					"internalType": "address",
					"name": "",
					"type": "address"
				}
			],
			"stateMutability": "view",
			"type": "function"
		},
		{
			"inputs": [
				{
					"internalType": "address",
					"name": "_account",
					"type": "address"
				},
				{
					"internalType": "uint256",
					"name": "_amount",
					"type": "uint256"
				}
			],
			"name": "sendETH",
			"outputs": [],
			"stateMutability": "nonpayable",
			"type": "function"
		},
		{
			"inputs": [
				{
					"internalType": "address",
					"name": "_borrowerOperationsAddress",
					"type": "address"
				},
				{
					"internalType": "address",
					"name": "_troveManagerAddress",
					"type": "address"
				},
				{
					"internalType": "address",
					"name": "_stabilityPoolAddress",
					"type": "address"
				},
				{
					"internalType": "address",
					"name": "_defaultPoolAddress",
					"type": "address"
				}
			],
			"name": "setAddresses",
			"outputs": [],
			"stateMutability": "nonpayable",
			"type": "function"
		},
		{
			"inputs": [],
			"name": "stabilityPoolAddress",
			"outputs": [
				{
					"internalType": "address",
					"name": "",
					"type": "address"
				}
			],
			"stateMutability": "view",
			"type": "function"
		},
		{
			"inputs": [],
			"name": "troveManagerAddress",
			"outputs": [
				{
					"internalType": "address",
					"name": "",
					"type": "address"
				}
			],
			"stateMutability": "view",
			"type": "function"
		},
		{
			"stateMutability": "payable",
			"type": "receive"
		}
	]
}