{
	"data": {
		"bytecode": {
			"linkReferences": {},
			"object": "608060405234801561001057600080fd5b50600380546001600160a01b031916339081179091556040516000907f8be0079c531659141344cd1fd0a4f28419497f9722a3daafe3b4186f6b6457e0908290a36136f7806100606000396000f3fe608060405234801561001057600080fd5b506004361061023d5760003560e01c8063761ab22c1161013b578063a3a64017116100b8578063c4d66de81161007c578063c4d66de8146104c8578063c4fcb919146104db578063d56d6bbe146104ee578063f851a44014610501578063f92d34331461051457600080fd5b8063a3a640171461043e578063a3f4df7e14610451578063ad5c46481461048f578063ae918754146104a2578063b83f91a2146104b557600080fd5b80638bad0c0a116100ff5780638bad0c0a146103ff5780638da5cb5b146104075780638f09162b146104185780638f32d59b1461042b578063a20baee61461039857600080fd5b8063761ab22c146103ba578063794e5724146103cd578063795d26c3146103dc5780637f7dde4a146103e4578063887105d3146103f757600080fd5b80634ff81443116101c95780636f0b0c1c1161018d5780636f0b0c1c1461036a578063704b6c0214610372578063724e78da1461038557806372fe25aa14610398578063741bef1a146103a757600080fd5b80634ff814431461030f5780635530273c146103225780635733d58f146103355780635da8b1c3146103445780636c37a4af1461035757600080fd5b80632e86bbd8116102105780632e86bbd814610295578063392e53cd146102a55780633cc74225146102c95780633d83908a146102f45780634870dd9a1461030757600080fd5b806304491fa7146102425780630e704d50146102575780631184e5f81461025f5780631bf4355514610272575b600080fd5b6102556102503660046132e0565b61051c565b005b610255610534565b61025561026d36600461331c565b6108e5565b6102826809c2007651b250000081565b6040519081526020015b60405180910390f35b6102826801158e460913d0000081565b600d546102b990600160a01b900460ff1681565b604051901515815260200161028c565b6001546102dc906001600160a01b031681565b6040516001600160a01b03909116815260200161028c565b6005546102dc906001600160a01b031681565b61028260c881565b61028261031d366004613362565b6108fd565b6102556103303660046132e0565b61090e565b6102826714d1120d7b16000081565b610255610352366004613389565b610921565b6102556103653660046133f5565b61093a565b610255610cbd565b6102556103803660046134af565b610d16565b6102556103933660046134af565b610d62565b610282670de0b6b3a764000081565b6002546102dc906001600160a01b031681565b600a546102dc906001600160a01b031681565b610282670f43fc2c04ee000081565b610282610d9b565b6000546102dc906001600160a01b031681565b610282610e97565b610255610f5c565b6003546001600160a01b03166102dc565b6102556104263660046134ca565b610f85565b6003546001600160a01b031633146102b9565b6009546102dc906001600160a01b031681565b61048260405180604001604052806012815260200171426f72726f7765724f7065726174696f6e7360701b81525081565b60405161028c919061351a565b6004546102dc906001600160a01b031681565b600c546102dc906001600160a01b031681565b600b546102dc906001600160a01b031681565b6102556104d63660046134af565b61158c565b6102556104e9366004613568565b61164a565b6102556104fc3660046132e0565b611665565b600d546102dc906001600160a01b031681565b610282611678565b61052f336000808660008787600061169a565b505050565b600554600054600b546001600160a01b039283169291821691166105588333611ca7565b60025460408051630fdb11cf60e01b815290516000926001600160a01b031691630fdb11cf916004808301926020929190829003018187875af11580156105a3573d6000803e3d6000fd5b505050506040513d601f19601f820116820180604052508101906105c7919061359c565b90506105d281611d7e565b604051630b07655760e01b81523360048201526001600160a01b03851690630b07655790602401600060405180830381600087803b15801561061357600080fd5b505af1158015610627573d6000803e3d6000fd5b50506040516309019aaf60e31b8152336004820152600092506001600160a01b038716915063480cd57890602401602060405180830381865afa158015610672573d6000803e3d6000fd5b505050506040513d601f19601f82011682018060405250810190610696919061359c565b60405163d66a255360e01b81523360048201529091506000906001600160a01b0387169063d66a255390602401602060405180830381865afa1580156106e0573d6000803e3d6000fd5b505050506040513d601f19601f82011682018060405250810190610704919061359c565b9050610723843361071e6801158e460913d00000856135cb565b611dfa565b600061073483600084600088611edb565b905061073f81611f4e565b604051631fc5750960e31b81523360048201526001600160a01b0388169063fe2ba84890602401600060405180830381600087803b15801561078057600080fd5b505af1158015610794573d6000803e3d6000fd5b50506040516365e89c5760e11b81523360048201526001600160a01b038a16925063cbd138ae9150602401600060405180830381600087803b1580156107d957600080fd5b505af11580156107ed573d6000803e3d6000fd5b505060408051600080825260208201819052818301526001606082015290513393507fc3770d654ed33aeea6bf11ac8ef05d02a6a04ed4686dd2f624d853bbec43cc8b92509081900360800190a26108598686336108546801158e460913d00000876135cb565b611fde565b60075461087c90879087906001600160a01b03166801158e460913d00000611fde565b6040516364a197f360e01b81526001600160a01b038716906364a197f3906108aa90339087906004016135f4565b600060405180830381600087803b1580156108c457600080fd5b505af11580156108d8573d6000803e3d6000fd5b5050505050505050505050565b6108f73360008086600187878b61169a565b50505050565b60006109088261209e565b92915050565b61052f336000856000808787600061169a565b610931338787878787878e61169a565b50505050505050565b6003546001600160a01b0316331461096d5760405162461bcd60e51b81526004016109649061360d565b60405180910390fd5b6109768a6120b3565b61097f896120b3565b610988886120b3565b610991876120b3565b61099a866120b3565b6109a3856120b3565b6109ac846120b3565b6109b5836120b3565b6109be826120b3565b6109c7816120b3565b600580546001600160a01b03199081166001600160a01b038d81169182179093556000805483168d85161790556001805483168c85161790556006805483168b85161790556007805483168a8516179055600880548316898516179055600280548316888516179055600c80548316878516179055600b80548316868516179055600a8054831693851693841790556009805490921690921790556040519081527f143219c9e69b09e07e095fcc889b43d8f46ca892bba65f08dc3a0050869a56789060200160405180910390a16040516001600160a01b038a1681527f78f058b189175430c48dc02699e3a0031ea4ff781536dc2fab847de4babdd8829060200160405180910390a16040516001600160a01b03891681527f5ee0cae2f063ed938bb55046f6a932fb6ae792bf43624806bb90abe68a50be9b9060200160405180910390a16040516001600160a01b03881681527f82966d27eea39b038ee0fa30cd16532bb24f6e65d31cb58fb227aa5766cdcc7f9060200160405180910390a16040516001600160a01b03871681527fcfb07d791fcafc032b35837b50eb84b74df518cf4cc287e8084f47630fa70fa09060200160405180910390a16040516001600160a01b03861681527fe67f36a6e961157d6eff83b91f3af5a62131ceb6f04954ef74f51c1c05e7f88d9060200160405180910390a16040516001600160a01b03851681527f8c537274438aa850a330284665d81a85dd38267d09e4050d416bfc94142db2649060200160405180910390a16040516001600160a01b03841681527f65f4cf077bc01e4742eb5ad98326f6e95b63548ea24b17f8d5e823111fe788009060200160405180910390a16040516001600160a01b03831681527f227eec0ec317af6ab1a9587ffa1c84332522eb4c583a908f89babc05f8f339bd9060200160405180910390a16040516001600160a01b03821681527f756ebc192164c295bba134b5aacd72cc7aff8098a670d1f0a5f6b3a0b4ce67079060200160405180910390a150505050505050505050565b60085460405163b32beb5b60e01b81523360048201526001600160a01b039091169063b32beb5b90602401600060405180830381600087803b158015610d0257600080fd5b505af11580156108f7573d6000803e3d6000fd5b6003546001600160a01b03163314610d405760405162461bcd60e51b81526004016109649061360d565b600d80546001600160a01b0319166001600160a01b0392909216919091179055565b600d546001600160a01b03163314610d7957600080fd5b600280546001600160a01b0319166001600160a01b0392909216919091179055565b6000805460408051632f5a97e560e11b8152905183926001600160a01b031691635eb52fca9160048083019260209291908290030181865afa158015610de5573d6000803e3d6000fd5b505050506040513d601f19601f82011682018060405250810190610e09919061359c565b90506000600160009054906101000a90046001600160a01b03166001600160a01b0316635eb52fca6040518163ffffffff1660e01b8152600401602060405180830381865afa158015610e60573d6000803e3d6000fd5b505050506040513d601f19601f82011682018060405250810190610e84919061359c565b9050610e90828261215c565b9250505090565b6000805460408051630a7b61df60e11b8152905183926001600160a01b0316916314f6c3be9160048083019260209291908290030181865afa158015610ee1573d6000803e3d6000fd5b505050506040513d601f19601f82011682018060405250810190610f05919061359c565b90506000600160009054906101000a90046001600160a01b03166001600160a01b03166314f6c3be6040518163ffffffff1660e01b8152600401602060405180830381865afa158015610e60573d6000803e3d6000fd5b600d546001600160a01b03163314610f7357600080fd5b600d80546001600160a01b0319169055565b60408051606080820183526005546001600160a01b039081168352600080548216602080860191909152600b548316858701528551610100810187528281528082018390528087018390529384018290526080840182905260a0840182905260c0840182905260e084018290526002548651630fdb11cf60e01b8152965195969495931693630fdb11cf93600480830194919283900301908290875af1158015611033573d6000803e3d6000fd5b505050506040513d601f19601f82011682018060405250810190611057919061359c565b808252600090611066906121c2565b905061107287826121df565b825161107e90336122f3565b60408201869052806110ba5761109e83600001518460400151888a6123b3565b6020830181905260408301516110b49190613658565b60408301525b6110c7826040015161254d565b6110d4826040015161209e565b606083018190526110e7576110e7613642565b6110fa88836060015184600001516125cc565b6080830152606082015161110f9089906125fe565b60a0830152801561112c57611127826080015161262d565b61115f565b61113982608001516126ab565b6000611152896001856060015160018760000151611edb565b905061115d81611f4e565b505b8251604051635d6b480f60e01b81526001600160a01b0390911690635d6b480f906111919033906001906004016135f4565b600060405180830381600087803b1580156111ab57600080fd5b505af11580156111bf573d6000803e3d6000fd5b505084516040516372423c1760e01b81526001600160a01b0390911692506372423c1791506111f49033908c906004016135f4565b6020604051808303816000875af1158015611213573d6000803e3d6000fd5b505050506040513d601f19601f82011682018060405250810190611237919061359c565b5082516060830151604051639976cf4560e01b81526001600160a01b0390921691639976cf459161126d913391906004016135f4565b6020604051808303816000875af115801561128c573d6000803e3d6000fd5b505050506040513d601f19601f820116820180604052508101906112b0919061359c565b5082516040516382fe3eb960e01b81523360048201526001600160a01b03909116906382fe3eb990602401600060405180830381600087803b1580156112f557600080fd5b505af1158015611309573d6000803e3d6000fd5b50508451604051630c7940bd60e11b81523360048201526001600160a01b0390911692506318f2817a91506024016020604051808303816000875af1158015611356573d6000803e3d6000fd5b505050506040513d601f19601f8201168201806040525081019061137a919061359c565b60c0830152600c5460a08301516040516346f7cf8760e01b815233600482015260248101919091526001600160a01b0387811660448301528681166064830152909116906346f7cf8790608401600060405180830381600087803b1580156113e157600080fd5b505af11580156113f5573d6000803e3d6000fd5b505084516040516315d549f160e01b81523360048201526001600160a01b0390911692506315d549f191506024016020604051808303816000875af1158015611442573d6000803e3d6000fd5b505050506040513d601f19601f82011682018060405250810190611466919061359c565b60e0830181905260405190815233907f59cfd0cd754bc5748b6770e94a4ffa5f678d885cb899dcfadc5734edb97c67ab9060200160405180910390a26114b083602001518961273b565b6114c9836020015184604001513389866040015161287a565b602083015160408401516007546114f59291906001600160a01b03166801158e460913d000008061287a565b60608281015160c084015160408051928352602083018c905282015260009181019190915233907fc3770d654ed33aeea6bf11ac8ef05d02a6a04ed4686dd2f624d853bbec43cc8b9060800160405180910390a260208083015160405190815233917fa55c5f48fd29482ad55f4b59bf070cd1ac1a7132a31f7a136ebe8877ae37e1ff910160405180910390a25050505050505050565b6003546001600160a01b031633146115b65760405162461bcd60e51b81526004016109649061360d565b600d54600160a01b900460ff16156116065760405162461bcd60e51b8152602060048201526013602482015272105b1c9958591e48125b9a5d1a585b1a5e9959606a1b6044820152606401610964565b61160f816120b3565b600d805460ff60a01b1916600160a01b179055600480546001600160a01b0383166001600160a01b031990911617905561164761293b565b50565b611652612985565b6108f7838560008060008787600061169a565b61052f338460008060008787600061169a565b61168c6103e8670de0b6b3a764000061366b565b61169790600561368d565b81565b60408051606080820183526005546001600160a01b039081168352600080548216602080860191909152600b5483168587015285516101a0810187528281528082018390528087018390529384018290526080840182905260a0840182905260c0840182905260e08401829052610100840182905261012084018290526101408401829052610160840182905261018084018290526002548651630fdb11cf60e01b8152965195969495931693630fdb11cf93600480830194919283900301908290875af1158015611770573d6000803e3d6000fd5b505050506040513d601f19601f82011682018060405250810190611794919061359c565b8082526000906117a3906121c2565b905086156117be576117b584826121df565b6117be886129f3565b6117c88a8a612a69565b6117d38a8a8a612ad9565b82516117df908c611ca7565b336001600160a01b038c16148061181557506006546001600160a01b03163314801561180b575060008a115b8015611815575087155b61182157611821613642565b8251604051630b07655760e01b81526001600160a01b038d8116600483015290911690630b07655790602401600060405180830381600087803b15801561186757600080fd5b505af115801561187b573d6000803e3d6000fd5b505050506118898a8a612b71565b151560608401526020830152604082018890528680156118a7575080155b156118dd576118c0836000015184604001518a876123b3565b610120830181905260408301516118d79190613658565b60408301525b825160405163d66a255360e01b81526001600160a01b038d811660048301529091169063d66a255390602401602060405180830381865afa158015611926573d6000803e3d6000fd5b505050506040513d601f19601f8201168201806040525081019061194a919061359c565b608083015282516040516309019aaf60e31b81526001600160a01b038d811660048301529091169063480cd57890602401602060405180830381865afa158015611998573d6000803e3d6000fd5b505050506040513d601f19601f820116820180604052508101906119bc919061359c565b60a08301819052608083015183516119d59291906125cc565b8260c0018181525050611a058260a0015183608001518460200151856060015186604001518c8860000151612b90565b60e083015260a0820151891115611a1e57611a1e613642565b611a2a818a8985612bc3565b86158015611a385750600088115b15611a8657611a618260400151611a528460800151612c37565b611a5c91906135cb565b61254d565b611a7382608001518360400151612c4c565b611a8683604001518c8460400151611dfa565b611aa483600001518c8460200151856060015186604001518c612ce0565b6101408401526101608301528251604051630c7940bd60e11b81526001600160a01b038d81166004830152909116906318f2817a906024016020604051808303816000875af1158015611afb573d6000803e3d6000fd5b505050506040513d601f19601f82011682018060405250810190611b1f919061359c565b826101800181815250506000611b4d8360a0015184608001518560200151866060015187604001518d612ed2565b600c5460405163015f109360e51b81526001600160a01b038f81166004830152602482018490528a811660448301528981166064830152929350911690632be2126090608401600060405180830381600087803b158015611bad57600080fd5b505af1158015611bc1573d6000803e3d6000fd5b505050508b6001600160a01b03167fc3770d654ed33aeea6bf11ac8ef05d02a6a04ed4686dd2f624d853bbec43cc8b846101400151856101600151866101800151600280811115611c1457611c146135de565b6040805194855260208501939093529183015260ff16606082015260800160405180910390a261012083015160405190815233907fa55c5f48fd29482ad55f4b59bf070cd1ac1a7132a31f7a136ebe8877ae37e1ff9060200160405180910390a2611c998460200151856040015133866020015187606001518e8e8a60400151612f03565b505050505050505050505050565b6040516321e3780160e01b81526001600160a01b038281166004830152600091908416906321e3780190602401602060405180830381865afa158015611cf1573d6000803e3d6000fd5b505050506040513d601f19601f82011682018060405250810190611d15919061359c565b90508060011461052f5760405162461bcd60e51b815260206004820152602e60248201527f426f72726f7765724f70733a2054726f766520646f6573206e6f74206578697360448201526d1d081bdc881a5cc818db1bdcd95960921b6064820152608401610964565b611d87816121c2565b156116475760405162461bcd60e51b815260206004820152603960248201527f426f72726f7765724f70733a204f7065726174696f6e206e6f74207065726d6960448201527f7474656420647572696e67205265636f76657279204d6f6465000000000000006064820152608401610964565b6040516370a0823160e01b81526001600160a01b0383811660048301528291908516906370a0823190602401602060405180830381865afa158015611e43573d6000803e3d6000fd5b505050506040513d601f19601f82011682018060405250810190611e67919061359c565b101561052f5760405162461bcd60e51b815260206004820152603d60248201527f426f72726f7765724f70733a2043616c6c657220646f65736e7420686176652060448201527f656e6f756768204c55534420746f206d616b652072657061796d656e740000006064820152608401610964565b600080611ee6610e97565b90506000611ef2610d9b565b905086611f0857611f0388836135cb565b611f12565b611f128883613658565b915084611f2857611f2386826135cb565b611f32565b611f328682613658565b90506000611f418383876125cc565b9998505050505050505050565b6714d1120d7b1600008110156116475760405162461bcd60e51b815260206004820152604960248201527f426f72726f7765724f70733a20416e206f7065726174696f6e2074686174207760448201527f6f756c6420726573756c7420696e20544352203c20434352206973206e6f74206064820152681c195c9b5a5d1d195960ba1b608482015260a401610964565b60405163071b32b560e31b8152600481018290526001600160a01b038516906338d995a890602401600060405180830381600087803b15801561202057600080fd5b505af1158015612034573d6000803e3d6000fd5b5050604051632770a7eb60e21b81526001600160a01b0386169250639dc29fac915061206690859085906004016135f4565b600060405180830381600087803b15801561208057600080fd5b505af1158015612094573d6000803e3d6000fd5b5050505050505050565b6000610908826801158e460913d0000061215c565b6001600160a01b0381166121095760405162461bcd60e51b815260206004820152601e60248201527f4163636f756e742063616e6e6f74206265207a65726f206164647265737300006044820152606401610964565b803b806121585760405162461bcd60e51b815260206004820181905260248201527f4163636f756e7420636f64652073697a652063616e6e6f74206265207a65726f6044820152606401610964565b5050565b6000806121698385613658565b9050838110156121bb5760405162461bcd60e51b815260206004820152601b60248201527f536166654d6174683a206164646974696f6e206f766572666c6f7700000000006044820152606401610964565b9392505050565b6000806121ce83612f98565b6714d1120d7b160000119392505050565b801561225857670de0b6b3a76400008211156121585760405162461bcd60e51b815260206004820152603260248201527f4d6178206665652070657263656e74616765206d757374206c657373207468616044820152716e206f7220657175616c20746f203130302560701b6064820152608401610964565b61226c6103e8670de0b6b3a764000061366b565b61227790600561368d565b821015801561228e5750670de0b6b3a76400008211155b6121585760405162461bcd60e51b815260206004820152603060248201527f4d6178206665652070657263656e74616765206d75737420626520626574776560448201526f656e20302e352520616e64203130302560801b6064820152608401610964565b6040516321e3780160e01b81526001600160a01b038281166004830152600091908416906321e3780190602401602060405180830381865afa15801561233d573d6000803e3d6000fd5b505050506040513d601f19601f82011682018060405250810190612361919061359c565b90508060010361052f5760405162461bcd60e51b815260206004820152601c60248201527f426f72726f7765724f70733a2054726f766520697320616374697665000000006044820152606401610964565b6000846001600160a01b0316635dba4c4a6040518163ffffffff1660e01b8152600401600060405180830381600087803b1580156123f057600080fd5b505af1158015612404573d6000803e3d6000fd5b5050604051630631203b60e41b815260048101869052600092506001600160a01b038816915063631203b090602401602060405180830381865afa158015612450573d6000803e3d6000fd5b505050506040513d601f19601f82011682018060405250810190612474919061359c565b9050612481818585612fc4565b600954604051634677ffb360e01b8152600481018390526001600160a01b0390911690634677ffb390602401600060405180830381600087803b1580156124c757600080fd5b505af11580156124db573d6000803e3d6000fd5b5050600a546040516340c10f1960e01b81526001600160a01b03808a1694506340c10f19935061251192169085906004016135f4565b600060405180830381600087803b15801561252b57600080fd5b505af115801561253f573d6000803e3d6000fd5b509298975050505050505050565b6809c2007651b25000008110156116475760405162461bcd60e51b815260206004820152603a60248201527f426f72726f7765724f70733a2054726f76652773206e65742064656274206d7560448201527f73742062652067726561746572207468616e206d696e696d756d0000000000006064820152608401610964565b600082156125f35760006125ea846125e4878661302e565b906130b0565b91506121bb9050565b506000199392505050565b600081156126245761261d826125e48568056bc75e2d6310000061302e565b9050610908565b50600019610908565b6714d1120d7b1600008110156116475760405162461bcd60e51b815260206004820152603760248201527f426f72726f7765724f70733a204f7065726174696f6e206d757374206c65617660448201527f652074726f7665207769746820494352203e3d204343520000000000000000006064820152608401610964565b670f43fc2c04ee00008110156116475760405162461bcd60e51b815260206004820152604960248201527f426f72726f7765724f70733a20416e206f7065726174696f6e2074686174207760448201527f6f756c6420726573756c7420696e20494352203c204d4352206973206e6f74206064820152681c195c9b5a5d1d195960ba1b608482015260a401610964565b600480546040516323b872dd60e01b815233928101929092526001600160a01b0384811660248401526044830184905216906323b872dd906064016020604051808303816000875af1158015612795573d6000803e3d6000fd5b505050506040513d601f19601f820116820180604052508101906127b991906136a4565b61281c5760405162461bcd60e51b815260206004820152602e60248201527f426f72726f7765724f70733a2053656e64696e67205745544820746f2041637460448201526d1a5d99541bdbdb0819985a5b195960921b6064820152608401610964565b604051630409c0b360e51b8152600481018290526001600160a01b03831690638138166090602401600060405180830381600087803b15801561285e57600080fd5b505af1158015612872573d6000803e3d6000fd5b505050505050565b6040516367dc994d60e11b8152600481018290526001600160a01b0386169063cfb9329a90602401600060405180830381600087803b1580156128bc57600080fd5b505af11580156128d0573d6000803e3d6000fd5b50506040516340c10f1960e01b81526001600160a01b03871692506340c10f19915061290290869086906004016135f4565b600060405180830381600087803b15801561291c57600080fd5b505af1158015612930573d6000803e3d6000fd5b505050505050505050565b6003546040516000916001600160a01b0316907f8be0079c531659141344cd1fd0a4f28419497f9722a3daafe3b4186f6b6457e0908390a3600380546001600160a01b0319169055565b6006546001600160a01b031633146129f15760405162461bcd60e51b815260206004820152602960248201527f426f72726f7765724f70733a2043616c6c6572206973206e6f742053746162696044820152681b1a5d1e48141bdbdb60ba1b6064820152608401610964565b565b600081116116475760405162461bcd60e51b815260206004820152603760248201527f426f72726f7765724f70733a204465627420696e63726561736520726571756960448201527f726573206e6f6e2d7a65726f20646562744368616e67650000000000000000006064820152608401610964565b811580612a74575080155b6121585760405162461bcd60e51b815260206004820152603060248201527f426f72726f7765724f7065726174696f6e733a2043616e6e6f7420776974686460448201526f1c985dc8185b99081859190818dbdb1b60821b6064820152608401610964565b82151580612ae657508115155b80612af057508015155b61052f5760405162461bcd60e51b815260206004820152604660248201527f426f72726f7765724f70733a205468657265206d75737420626520656974686560448201527f72206120636f6c6c61746572616c206368616e6765206f7220612064656274206064820152656368616e676560d01b608482015260a401610964565b6000808315612b8557508290506001612b89565b8291505b9250929050565b6000806000612ba38a8a8a8a8a8a6130f2565b915091506000612bb48383876125cc565b9b9a5050505050505050505050565b8315612bfc57612bd283613130565b8115612bf757612be58160e0015161262d565b612bf78160e001518260c001516131a4565b6108f7565b612c098160e001516126ab565b612c26816020015182606001518360400151858560000151611edb565b61010082018190526108f790611f4e565b6000610908826801158e460913d0000061321a565b612c5f6801158e460913d00000836135cb565b8111156121585760405162461bcd60e51b815260206004820152604360248201527f426f72726f7765724f70733a20416d6f756e7420726570616964206d7573742060448201527f6e6f74206265206c6172676572207468616e207468652054726f76652773206460648201526219589d60ea1b608482015260a401610964565b600080600085612d605760405163d3d6f84360e01b81526001600160a01b038a169063d3d6f84390612d18908b908b906004016135f4565b6020604051808303816000875af1158015612d37573d6000803e3d6000fd5b505050506040513d601f19601f82011682018060405250810190612d5b919061359c565b612dd1565b6040516372423c1760e01b81526001600160a01b038a16906372423c1790612d8e908b908b906004016135f4565b6020604051808303816000875af1158015612dad573d6000803e3d6000fd5b505050506040513d601f19601f82011682018060405250810190612dd1919061359c565b9050600084612e5057604051630930874960e11b81526001600160a01b038b16906312610e9290612e08908c908a906004016135f4565b6020604051808303816000875af1158015612e27573d6000803e3d6000fd5b505050506040513d601f19601f82011682018060405250810190612e4b919061359c565b612ec1565b604051639976cf4560e01b81526001600160a01b038b1690639976cf4590612e7e908c908a906004016135f4565b6020604051808303816000875af1158015612e9d573d6000803e3d6000fd5b505050506040513d601f19601f82011682018060405250810190612ec1919061359c565b919a91995090975050505050505050565b6000806000612ee58989898989896130f2565b915091506000612ef583836125fe565b9a9950505050505050505050565b8115612f1b57612f16888888868561287a565b612f27565b612f2788888886611fde565b8315612f3c57612f37888661273b565b612094565b6040516364a197f360e01b81526001600160a01b038916906364a197f390612f6a90899089906004016135f4565b600060405180830381600087803b158015612f8457600080fd5b505af1158015611c99573d6000803e3d6000fd5b600080612fa3610e97565b90506000612faf610d9b565b9050612fbc8282866125cc565b949350505050565b6000612fdc836125e486670de0b6b3a764000061302e565b9050818111156108f75760405162461bcd60e51b815260206004820152601d60248201527f4665652065786365656465642070726f7669646564206d6178696d756d0000006044820152606401610964565b60008260000361304057506000610908565b600061304c838561368d565b905082613059858361366b565b146121bb5760405162461bcd60e51b815260206004820152602160248201527f536166654d6174683a206d756c7469706c69636174696f6e206f766572666c6f6044820152607760f81b6064820152608401610964565b60006121bb83836040518060400160405280601a81526020017f536166654d6174683a206469766973696f6e206279207a65726f00000000000081525061325c565b60008087878661310b57613106888b6135cb565b613115565b613115888b613658565b91508461312657612e4b868a6135cb565b612ec1868a613658565b80156116475760405162461bcd60e51b815260206004820152603e60248201527f426f72726f7765724f70733a20436f6c6c61746572616c20776974686472617760448201527f616c206e6f74207065726d6974746564205265636f76657279204d6f646500006064820152608401610964565b808210156121585760405162461bcd60e51b815260206004820152603e60248201527f426f72726f7765724f70733a2043616e6e6f7420646563726561736520796f7560448201527f722054726f766527732049435220696e205265636f76657279204d6f646500006064820152608401610964565b60006121bb83836040518060400160405280601e81526020017f536166654d6174683a207375627472616374696f6e206f766572666c6f770000815250613293565b6000818361327d5760405162461bcd60e51b8152600401610964919061351a565b50600061328a848661366b565b95945050505050565b600081848411156132b75760405162461bcd60e51b8152600401610964919061351a565b50600061328a84866135cb565b80356001600160a01b03811681146132db57600080fd5b919050565b6000806000606084860312156132f557600080fd5b83359250613305602085016132c4565b9150613313604085016132c4565b90509250925092565b6000806000806080858703121561333257600080fd5b8435935060208501359250613349604086016132c4565b9150613357606086016132c4565b905092959194509250565b60006020828403121561337457600080fd5b5035919050565b801515811461164757600080fd5b600080600080600080600060e0888a0312156133a457600080fd5b8735965060208801359550604088013594506060880135935060808801356133cb8161337b565b92506133d960a089016132c4565b91506133e760c089016132c4565b905092959891949750929550565b6000806000806000806000806000806101408b8d03121561341557600080fd5b61341e8b6132c4565b995061342c60208c016132c4565b985061343a60408c016132c4565b975061344860608c016132c4565b965061345660808c016132c4565b955061346460a08c016132c4565b945061347260c08c016132c4565b935061348060e08c016132c4565b925061348f6101008c016132c4565b915061349e6101208c016132c4565b90509295989b9194979a5092959850565b6000602082840312156134c157600080fd5b6121bb826132c4565b600080600080600060a086880312156134e257600080fd5b853594506020860135935060408601359250613500606087016132c4565b915061350e608087016132c4565b90509295509295909350565b600060208083528351808285015260005b818110156135475785810183015185820160400152820161352b565b506000604082860101526040601f19601f8301168501019250505092915050565b6000806000806080858703121561357e57600080fd5b8435935061358e602086016132c4565b9250613349604086016132c4565b6000602082840312156135ae57600080fd5b5051919050565b634e487b7160e01b600052601160045260246000fd5b81810381811115610908576109086135b5565b634e487b7160e01b600052602160045260246000fd5b6001600160a01b03929092168252602082015260400190565b6020808252818101527f4f776e61626c653a2063616c6c6572206973206e6f7420746865206f776e6572604082015260600190565b634e487b7160e01b600052600160045260246000fd5b80820180821115610908576109086135b5565b60008261368857634e487b7160e01b600052601260045260246000fd5b500490565b8082028115828204841417610908576109086135b5565b6000602082840312156136b657600080fd5b81516121bb8161337b56fea26469706673582212200b1ec34c5ef821d825262a6b304009bd6f6fda680280c3b840f3db473c7bc49164736f6c63430008140033",
			"opcodes": "PUSH1 0x80 PUSH1 0x40 MSTORE CALLVALUE DUP1 ISZERO PUSH2 0x10 JUMPI PUSH1 0x0 DUP1 REVERT JUMPDEST POP PUSH1 0x3 DUP1 SLOAD PUSH1 0x1 PUSH1 0x1 PUSH1 0xA0 SHL SUB NOT AND CALLER SWAP1 DUP2 OR SWAP1 SWAP2 SSTORE PUSH1 0x40 MLOAD PUSH1 0x0 SWAP1 PUSH32 0x8BE0079C531659141344CD1FD0A4F28419497F9722A3DAAFE3B4186F6B6457E0 SWAP1 DUP3 SWAP1 LOG3 PUSH2 0x36F7 DUP1 PUSH2 0x60 PUSH1 0x0 CODECOPY PUSH1 0x0 RETURN INVALID PUSH1 0x80 PUSH1 0x40 MSTORE CALLVALUE DUP1 ISZERO PUSH2 0x10 JUMPI PUSH1 0x0 DUP1 REVERT JUMPDEST POP PUSH1 0x4 CALLDATASIZE LT PUSH2 0x23D JUMPI PUSH1 0x0 CALLDATALOAD PUSH1 0xE0 SHR DUP1 PUSH4 0x761AB22C GT PUSH2 0x13B JUMPI DUP1 PUSH4 0xA3A64017 GT PUSH2 0xB8 JUMPI DUP1 PUSH4 0xC4D66DE8 GT PUSH2 0x7C JUMPI DUP1 PUSH4 0xC4D66DE8 EQ PUSH2 0x4C8 JUMPI DUP1 PUSH4 0xC4FCB919 EQ PUSH2 0x4DB JUMPI DUP1 PUSH4 0xD56D6BBE EQ PUSH2 0x4EE JUMPI DUP1 PUSH4 0xF851A440 EQ PUSH2 0x501 JUMPI DUP1 PUSH4 0xF92D3433 EQ PUSH2 0x514 JUMPI PUSH1 0x0 DUP1 REVERT JUMPDEST DUP1 PUSH4 0xA3A64017 EQ PUSH2 0x43E JUMPI DUP1 PUSH4 0xA3F4DF7E EQ PUSH2 0x451 JUMPI DUP1 PUSH4 0xAD5C4648 EQ PUSH2 0x48F JUMPI DUP1 PUSH4 0xAE918754 EQ PUSH2 0x4A2 JUMPI DUP1 PUSH4 0xB83F91A2 EQ PUSH2 0x4B5 JUMPI PUSH1 0x0 DUP1 REVERT JUMPDEST DUP1 PUSH4 0x8BAD0C0A GT PUSH2 0xFF JUMPI DUP1 PUSH4 0x8BAD0C0A EQ PUSH2 0x3FF JUMPI DUP1 PUSH4 0x8DA5CB5B EQ PUSH2 0x407 JUMPI DUP1 PUSH4 0x8F09162B EQ PUSH2 0x418 JUMPI DUP1 PUSH4 0x8F32D59B EQ PUSH2 0x42B JUMPI DUP1 PUSH4 0xA20BAEE6 EQ PUSH2 0x398 JUMPI PUSH1 0x0 DUP1 REVERT JUMPDEST DUP1 PUSH4 0x761AB22C EQ PUSH2 0x3BA JUMPI DUP1 PUSH4 0x794E5724 EQ PUSH2 0x3CD JUMPI DUP1 PUSH4 0x795D26C3 EQ PUSH2 0x3DC JUMPI DUP1 PUSH4 0x7F7DDE4A EQ PUSH2 0x3E4 JUMPI DUP1 PUSH4 0x887105D3 EQ PUSH2 0x3F7 JUMPI PUSH1 0x0 DUP1 REVERT JUMPDEST DUP1 PUSH4 0x4FF81443 GT PUSH2 0x1C9 JUMPI DUP1 PUSH4 0x6F0B0C1C GT PUSH2 0x18D JUMPI DUP1 PUSH4 0x6F0B0C1C EQ PUSH2 0x36A JUMPI DUP1 PUSH4 0x704B6C02 EQ PUSH2 0x372 JUMPI DUP1 PUSH4 0x724E78DA EQ PUSH2 0x385 JUMPI DUP1 PUSH4 0x72FE25AA EQ PUSH2 0x398 JUMPI DUP1 PUSH4 0x741BEF1A EQ PUSH2 0x3A7 JUMPI PUSH1 0x0 DUP1 REVERT JUMPDEST DUP1 PUSH4 0x4FF81443 EQ PUSH2 0x30F JUMPI DUP1 PUSH4 0x5530273C EQ PUSH2 0x322 JUMPI DUP1 PUSH4 0x5733D58F EQ PUSH2 0x335 JUMPI DUP1 PUSH4 0x5DA8B1C3 EQ PUSH2 0x344 JUMPI DUP1 PUSH4 0x6C37A4AF EQ PUSH2 0x357 JUMPI PUSH1 0x0 DUP1 REVERT JUMPDEST DUP1 PUSH4 0x2E86BBD8 GT PUSH2 0x210 JUMPI DUP1 PUSH4 0x2E86BBD8 EQ PUSH2 0x295 JUMPI DUP1 PUSH4 0x392E53CD EQ PUSH2 0x2A5 JUMPI DUP1 PUSH4 0x3CC74225 EQ PUSH2 0x2C9 JUMPI DUP1 PUSH4 0x3D83908A EQ PUSH2 0x2F4 JUMPI DUP1 PUSH4 0x4870DD9A EQ PUSH2 0x307 JUMPI PUSH1 0x0 DUP1 REVERT JUMPDEST DUP1 PUSH4 0x4491FA7 EQ PUSH2 0x242 JUMPI DUP1 PUSH4 0xE704D50 EQ PUSH2 0x257 JUMPI DUP1 PUSH4 0x1184E5F8 EQ PUSH2 0x25F JUMPI DUP1 PUSH4 0x1BF43555 EQ PUSH2 0x272 JUMPI JUMPDEST PUSH1 0x0 DUP1 REVERT JUMPDEST PUSH2 0x255 PUSH2 0x250 CALLDATASIZE PUSH1 0x4 PUSH2 0x32E0 JUMP JUMPDEST PUSH2 0x51C JUMP JUMPDEST STOP JUMPDEST PUSH2 0x255 PUSH2 0x534 JUMP JUMPDEST PUSH2 0x255 PUSH2 0x26D CALLDATASIZE PUSH1 0x4 PUSH2 0x331C JUMP JUMPDEST PUSH2 0x8E5 JUMP JUMPDEST PUSH2 0x282 PUSH9 0x9C2007651B2500000 DUP2 JUMP JUMPDEST PUSH1 0x40 MLOAD SWAP1 DUP2 MSTORE PUSH1 0x20 ADD JUMPDEST PUSH1 0x40 MLOAD DUP1 SWAP2 SUB SWAP1 RETURN JUMPDEST PUSH2 0x282 PUSH9 0x1158E460913D00000 DUP2 JUMP JUMPDEST PUSH1 0xD SLOAD PUSH2 0x2B9 SWAP1 PUSH1 0x1 PUSH1 0xA0 SHL SWAP1 DIV PUSH1 0xFF AND DUP2 JUMP JUMPDEST PUSH1 0x40 MLOAD SWAP1 ISZERO ISZERO DUP2 MSTORE PUSH1 0x20 ADD PUSH2 0x28C JUMP JUMPDEST PUSH1 0x1 SLOAD PUSH2 0x2DC SWAP1 PUSH1 0x1 PUSH1 0x1 PUSH1 0xA0 SHL SUB AND DUP2 JUMP JUMPDEST PUSH1 0x40 MLOAD PUSH1 0x1 PUSH1 0x1 PUSH1 0xA0 SHL SUB SWAP1 SWAP2 AND DUP2 MSTORE PUSH1 0x20 ADD PUSH2 0x28C JUMP JUMPDEST PUSH1 0x5 SLOAD PUSH2 0x2DC SWAP1 PUSH1 0x1 PUSH1 0x1 PUSH1 0xA0 SHL SUB AND DUP2 JUMP JUMPDEST PUSH2 0x282 PUSH1 0xC8 DUP2 JUMP JUMPDEST PUSH2 0x282 PUSH2 0x31D CALLDATASIZE PUSH1 0x4 PUSH2 0x3362 JUMP JUMPDEST PUSH2 0x8FD JUMP JUMPDEST PUSH2 0x255 PUSH2 0x330 CALLDATASIZE PUSH1 0x4 PUSH2 0x32E0 JUMP JUMPDEST PUSH2 0x90E JUMP JUMPDEST PUSH2 0x282 PUSH8 0x14D1120D7B160000 DUP2 JUMP JUMPDEST PUSH2 0x255 PUSH2 0x352 CALLDATASIZE PUSH1 0x4 PUSH2 0x3389 JUMP JUMPDEST PUSH2 0x921 JUMP JUMPDEST PUSH2 0x255 PUSH2 0x365 CALLDATASIZE PUSH1 0x4 PUSH2 0x33F5 JUMP JUMPDEST PUSH2 0x93A JUMP JUMPDEST PUSH2 0x255 PUSH2 0xCBD JUMP JUMPDEST PUSH2 0x255 PUSH2 0x380 CALLDATASIZE PUSH1 0x4 PUSH2 0x34AF JUMP JUMPDEST PUSH2 0xD16 JUMP JUMPDEST PUSH2 0x255 PUSH2 0x393 CALLDATASIZE PUSH1 0x4 PUSH2 0x34AF JUMP JUMPDEST PUSH2 0xD62 JUMP JUMPDEST PUSH2 0x282 PUSH8 0xDE0B6B3A7640000 DUP2 JUMP JUMPDEST PUSH1 0x2 SLOAD PUSH2 0x2DC SWAP1 PUSH1 0x1 PUSH1 0x1 PUSH1 0xA0 SHL SUB AND DUP2 JUMP JUMPDEST PUSH1 0xA SLOAD PUSH2 0x2DC SWAP1 PUSH1 0x1 PUSH1 0x1 PUSH1 0xA0 SHL SUB AND DUP2 JUMP JUMPDEST PUSH2 0x282 PUSH8 0xF43FC2C04EE0000 DUP2 JUMP JUMPDEST PUSH2 0x282 PUSH2 0xD9B JUMP JUMPDEST PUSH1 0x0 SLOAD PUSH2 0x2DC SWAP1 PUSH1 0x1 PUSH1 0x1 PUSH1 0xA0 SHL SUB AND DUP2 JUMP JUMPDEST PUSH2 0x282 PUSH2 0xE97 JUMP JUMPDEST PUSH2 0x255 PUSH2 0xF5C JUMP JUMPDEST PUSH1 0x3 SLOAD PUSH1 0x1 PUSH1 0x1 PUSH1 0xA0 SHL SUB AND PUSH2 0x2DC JUMP JUMPDEST PUSH2 0x255 PUSH2 0x426 CALLDATASIZE PUSH1 0x4 PUSH2 0x34CA JUMP JUMPDEST PUSH2 0xF85 JUMP JUMPDEST PUSH1 0x3 SLOAD PUSH1 0x1 PUSH1 0x1 PUSH1 0xA0 SHL SUB AND CALLER EQ PUSH2 0x2B9 JUMP JUMPDEST PUSH1 0x9 SLOAD PUSH2 0x2DC SWAP1 PUSH1 0x1 PUSH1 0x1 PUSH1 0xA0 SHL SUB AND DUP2 JUMP JUMPDEST PUSH2 0x482 PUSH1 0x40 MLOAD DUP1 PUSH1 0x40 ADD PUSH1 0x40 MSTORE DUP1 PUSH1 0x12 DUP2 MSTORE PUSH1 0x20 ADD PUSH18 0x426F72726F7765724F7065726174696F6E73 PUSH1 0x70 SHL DUP2 MSTORE POP DUP2 JUMP JUMPDEST PUSH1 0x40 MLOAD PUSH2 0x28C SWAP2 SWAP1 PUSH2 0x351A JUMP JUMPDEST PUSH1 0x4 SLOAD PUSH2 0x2DC SWAP1 PUSH1 0x1 PUSH1 0x1 PUSH1 0xA0 SHL SUB AND DUP2 JUMP JUMPDEST PUSH1 0xC SLOAD PUSH2 0x2DC SWAP1 PUSH1 0x1 PUSH1 0x1 PUSH1 0xA0 SHL SUB AND DUP2 JUMP JUMPDEST PUSH1 0xB SLOAD PUSH2 0x2DC SWAP1 PUSH1 0x1 PUSH1 0x1 PUSH1 0xA0 SHL SUB AND DUP2 JUMP JUMPDEST PUSH2 0x255 PUSH2 0x4D6 CALLDATASIZE PUSH1 0x4 PUSH2 0x34AF JUMP JUMPDEST PUSH2 0x158C JUMP JUMPDEST PUSH2 0x255 PUSH2 0x4E9 CALLDATASIZE PUSH1 0x4 PUSH2 0x3568 JUMP JUMPDEST PUSH2 0x164A JUMP JUMPDEST PUSH2 0x255 PUSH2 0x4FC CALLDATASIZE PUSH1 0x4 PUSH2 0x32E0 JUMP JUMPDEST PUSH2 0x1665 JUMP JUMPDEST PUSH1 0xD SLOAD PUSH2 0x2DC SWAP1 PUSH1 0x1 PUSH1 0x1 PUSH1 0xA0 SHL SUB AND DUP2 JUMP JUMPDEST PUSH2 0x282 PUSH2 0x1678 JUMP JUMPDEST PUSH2 0x52F CALLER PUSH1 0x0 DUP1 DUP7 PUSH1 0x0 DUP8 DUP8 PUSH1 0x0 PUSH2 0x169A JUMP JUMPDEST POP POP POP JUMP JUMPDEST PUSH1 0x5 SLOAD PUSH1 0x0 SLOAD PUSH1 0xB SLOAD PUSH1 0x1 PUSH1 0x1 PUSH1 0xA0 SHL SUB SWAP3 DUP4 AND SWAP3 SWAP2 DUP3 AND SWAP2 AND PUSH2 0x558 DUP4 CALLER PUSH2 0x1CA7 JUMP JUMPDEST PUSH1 0x2 SLOAD PUSH1 0x40 DUP1 MLOAD PUSH4 0xFDB11CF PUSH1 0xE0 SHL DUP2 MSTORE SWAP1 MLOAD PUSH1 0x0 SWAP3 PUSH1 0x1 PUSH1 0x1 PUSH1 0xA0 SHL SUB AND SWAP2 PUSH4 0xFDB11CF SWAP2 PUSH1 0x4 DUP1 DUP4 ADD SWAP3 PUSH1 0x20 SWAP3 SWAP2 SWAP1 DUP3 SWAP1 SUB ADD DUP2 DUP8 DUP8 GAS CALL ISZERO DUP1 ISZERO PUSH2 0x5A3 JUMPI RETURNDATASIZE PUSH1 0x0 DUP1 RETURNDATACOPY RETURNDATASIZE PUSH1 0x0 REVERT JUMPDEST POP POP POP POP PUSH1 0x40 MLOAD RETURNDATASIZE PUSH1 0x1F NOT PUSH1 0x1F DUP3 ADD AND DUP3 ADD DUP1 PUSH1 0x40 MSTORE POP DUP2 ADD SWAP1 PUSH2 0x5C7 SWAP2 SWAP1 PUSH2 0x359C JUMP JUMPDEST SWAP1 POP PUSH2 0x5D2 DUP2 PUSH2 0x1D7E JUMP JUMPDEST PUSH1 0x40 MLOAD PUSH4 0xB076557 PUSH1 0xE0 SHL DUP2 MSTORE CALLER PUSH1 0x4 DUP3 ADD MSTORE PUSH1 0x1 PUSH1 0x1 PUSH1 0xA0 SHL SUB DUP6 AND SWAP1 PUSH4 0xB076557 SWAP1 PUSH1 0x24 ADD PUSH1 0x0 PUSH1 0x40 MLOAD DUP1 DUP4 SUB DUP2 PUSH1 0x0 DUP8 DUP1 EXTCODESIZE ISZERO DUP1 ISZERO PUSH2 0x613 JUMPI PUSH1 0x0 DUP1 REVERT JUMPDEST POP GAS CALL ISZERO DUP1 ISZERO PUSH2 0x627 JUMPI RETURNDATASIZE PUSH1 0x0 DUP1 RETURNDATACOPY RETURNDATASIZE PUSH1 0x0 REVERT JUMPDEST POP POP PUSH1 0x40 MLOAD PUSH4 0x9019AAF PUSH1 0xE3 SHL DUP2 MSTORE CALLER PUSH1 0x4 DUP3 ADD MSTORE PUSH1 0x0 SWAP3 POP PUSH1 0x1 PUSH1 0x1 PUSH1 0xA0 SHL SUB DUP8 AND SWAP2 POP PUSH4 0x480CD578 SWAP1 PUSH1 0x24 ADD PUSH1 0x20 PUSH1 0x40 MLOAD DUP1 DUP4 SUB DUP2 DUP7 GAS STATICCALL ISZERO DUP1 ISZERO PUSH2 0x672 JUMPI RETURNDATASIZE PUSH1 0x0 DUP1 RETURNDATACOPY RETURNDATASIZE PUSH1 0x0 REVERT JUMPDEST POP POP POP POP PUSH1 0x40 MLOAD RETURNDATASIZE PUSH1 0x1F NOT PUSH1 0x1F DUP3 ADD AND DUP3 ADD DUP1 PUSH1 0x40 MSTORE POP DUP2 ADD SWAP1 PUSH2 0x696 SWAP2 SWAP1 PUSH2 0x359C JUMP JUMPDEST PUSH1 0x40 MLOAD PUSH4 0xD66A2553 PUSH1 0xE0 SHL DUP2 MSTORE CALLER PUSH1 0x4 DUP3 ADD MSTORE SWAP1 SWAP2 POP PUSH1 0x0 SWAP1 PUSH1 0x1 PUSH1 0x1 PUSH1 0xA0 SHL SUB DUP8 AND SWAP1 PUSH4 0xD66A2553 SWAP1 PUSH1 0x24 ADD PUSH1 0x20 PUSH1 0x40 MLOAD DUP1 DUP4 SUB DUP2 DUP7 GAS STATICCALL ISZERO DUP1 ISZERO PUSH2 0x6E0 JUMPI RETURNDATASIZE PUSH1 0x0 DUP1 RETURNDATACOPY RETURNDATASIZE PUSH1 0x0 REVERT JUMPDEST POP POP POP POP PUSH1 0x40 MLOAD RETURNDATASIZE PUSH1 0x1F NOT PUSH1 0x1F DUP3 ADD AND DUP3 ADD DUP1 PUSH1 0x40 MSTORE POP DUP2 ADD SWAP1 PUSH2 0x704 SWAP2 SWAP1 PUSH2 0x359C JUMP JUMPDEST SWAP1 POP PUSH2 0x723 DUP5 CALLER PUSH2 0x71E PUSH9 0x1158E460913D00000 DUP6 PUSH2 0x35CB JUMP JUMPDEST PUSH2 0x1DFA JUMP JUMPDEST PUSH1 0x0 PUSH2 0x734 DUP4 PUSH1 0x0 DUP5 PUSH1 0x0 DUP9 PUSH2 0x1EDB JUMP JUMPDEST SWAP1 POP PUSH2 0x73F DUP2 PUSH2 0x1F4E JUMP JUMPDEST PUSH1 0x40 MLOAD PUSH4 0x1FC57509 PUSH1 0xE3 SHL DUP2 MSTORE CALLER PUSH1 0x4 DUP3 ADD MSTORE PUSH1 0x1 PUSH1 0x1 PUSH1 0xA0 SHL SUB DUP9 AND SWAP1 PUSH4 0xFE2BA848 SWAP1 PUSH1 0x24 ADD PUSH1 0x0 PUSH1 0x40 MLOAD DUP1 DUP4 SUB DUP2 PUSH1 0x0 DUP8 DUP1 EXTCODESIZE ISZERO DUP1 ISZERO PUSH2 0x780 JUMPI PUSH1 0x0 DUP1 REVERT JUMPDEST POP GAS CALL ISZERO DUP1 ISZERO PUSH2 0x794 JUMPI RETURNDATASIZE PUSH1 0x0 DUP1 RETURNDATACOPY RETURNDATASIZE PUSH1 0x0 REVERT JUMPDEST POP POP PUSH1 0x40 MLOAD PUSH4 0x65E89C57 PUSH1 0xE1 SHL DUP2 MSTORE CALLER PUSH1 0x4 DUP3 ADD MSTORE PUSH1 0x1 PUSH1 0x1 PUSH1 0xA0 SHL SUB DUP11 AND SWAP3 POP PUSH4 0xCBD138AE SWAP2 POP PUSH1 0x24 ADD PUSH1 0x0 PUSH1 0x40 MLOAD DUP1 DUP4 SUB DUP2 PUSH1 0x0 DUP8 DUP1 EXTCODESIZE ISZERO DUP1 ISZERO PUSH2 0x7D9 JUMPI PUSH1 0x0 DUP1 REVERT JUMPDEST POP GAS CALL ISZERO DUP1 ISZERO PUSH2 0x7ED JUMPI RETURNDATASIZE PUSH1 0x0 DUP1 RETURNDATACOPY RETURNDATASIZE PUSH1 0x0 REVERT JUMPDEST POP POP PUSH1 0x40 DUP1 MLOAD PUSH1 0x0 DUP1 DUP3 MSTORE PUSH1 0x20 DUP3 ADD DUP2 SWAP1 MSTORE DUP2 DUP4 ADD MSTORE PUSH1 0x1 PUSH1 0x60 DUP3 ADD MSTORE SWAP1 MLOAD CALLER SWAP4 POP PUSH32 0xC3770D654ED33AEEA6BF11AC8EF05D02A6A04ED4686DD2F624D853BBEC43CC8B SWAP3 POP SWAP1 DUP2 SWAP1 SUB PUSH1 0x80 ADD SWAP1 LOG2 PUSH2 0x859 DUP7 DUP7 CALLER PUSH2 0x854 PUSH9 0x1158E460913D00000 DUP8 PUSH2 0x35CB JUMP JUMPDEST PUSH2 0x1FDE JUMP JUMPDEST PUSH1 0x7 SLOAD PUSH2 0x87C SWAP1 DUP8 SWAP1 DUP8 SWAP1 PUSH1 0x1 PUSH1 0x1 PUSH1 0xA0 SHL SUB AND PUSH9 0x1158E460913D00000 PUSH2 0x1FDE JUMP JUMPDEST PUSH1 0x40 MLOAD PUSH4 0x64A197F3 PUSH1 0xE0 SHL DUP2 MSTORE PUSH1 0x1 PUSH1 0x1 PUSH1 0xA0 SHL SUB DUP8 AND SWAP1 PUSH4 0x64A197F3 SWAP1 PUSH2 0x8AA SWAP1 CALLER SWAP1 DUP8 SWAP1 PUSH1 0x4 ADD PUSH2 0x35F4 JUMP JUMPDEST PUSH1 0x0 PUSH1 0x40 MLOAD DUP1 DUP4 SUB DUP2 PUSH1 0x0 DUP8 DUP1 EXTCODESIZE ISZERO DUP1 ISZERO PUSH2 0x8C4 JUMPI PUSH1 0x0 DUP1 REVERT JUMPDEST POP GAS CALL ISZERO DUP1 ISZERO PUSH2 0x8D8 JUMPI RETURNDATASIZE PUSH1 0x0 DUP1 RETURNDATACOPY RETURNDATASIZE PUSH1 0x0 REVERT JUMPDEST POP POP POP POP POP POP POP POP POP POP POP JUMP JUMPDEST PUSH2 0x8F7 CALLER PUSH1 0x0 DUP1 DUP7 PUSH1 0x1 DUP8 DUP8 DUP12 PUSH2 0x169A JUMP JUMPDEST POP POP POP POP JUMP JUMPDEST PUSH1 0x0 PUSH2 0x908 DUP3 PUSH2 0x209E JUMP JUMPDEST SWAP3 SWAP2 POP POP JUMP JUMPDEST PUSH2 0x52F CALLER PUSH1 0x0 DUP6 PUSH1 0x0 DUP1 DUP8 DUP8 PUSH1 0x0 PUSH2 0x169A JUMP JUMPDEST PUSH2 0x931 CALLER DUP8 DUP8 DUP8 DUP8 DUP8 DUP8 DUP15 PUSH2 0x169A JUMP JUMPDEST POP POP POP POP POP POP POP JUMP JUMPDEST PUSH1 0x3 SLOAD PUSH1 0x1 PUSH1 0x1 PUSH1 0xA0 SHL SUB AND CALLER EQ PUSH2 0x96D JUMPI PUSH1 0x40 MLOAD PUSH3 0x461BCD PUSH1 0xE5 SHL DUP2 MSTORE PUSH1 0x4 ADD PUSH2 0x964 SWAP1 PUSH2 0x360D JUMP JUMPDEST PUSH1 0x40 MLOAD DUP1 SWAP2 SUB SWAP1 REVERT JUMPDEST PUSH2 0x976 DUP11 PUSH2 0x20B3 JUMP JUMPDEST PUSH2 0x97F DUP10 PUSH2 0x20B3 JUMP JUMPDEST PUSH2 0x988 DUP9 PUSH2 0x20B3 JUMP JUMPDEST PUSH2 0x991 DUP8 PUSH2 0x20B3 JUMP JUMPDEST PUSH2 0x99A DUP7 PUSH2 0x20B3 JUMP JUMPDEST PUSH2 0x9A3 DUP6 PUSH2 0x20B3 JUMP JUMPDEST PUSH2 0x9AC DUP5 PUSH2 0x20B3 JUMP JUMPDEST PUSH2 0x9B5 DUP4 PUSH2 0x20B3 JUMP JUMPDEST PUSH2 0x9BE DUP3 PUSH2 0x20B3 JUMP JUMPDEST PUSH2 0x9C7 DUP2 PUSH2 0x20B3 JUMP JUMPDEST PUSH1 0x5 DUP1 SLOAD PUSH1 0x1 PUSH1 0x1 PUSH1 0xA0 SHL SUB NOT SWAP1 DUP2 AND PUSH1 0x1 PUSH1 0x1 PUSH1 0xA0 SHL SUB DUP14 DUP2 AND SWAP2 DUP3 OR SWAP1 SWAP4 SSTORE PUSH1 0x0 DUP1 SLOAD DUP4 AND DUP14 DUP6 AND OR SWAP1 SSTORE PUSH1 0x1 DUP1 SLOAD DUP4 AND DUP13 DUP6 AND OR SWAP1 SSTORE PUSH1 0x6 DUP1 SLOAD DUP4 AND DUP12 DUP6 AND OR SWAP1 SSTORE PUSH1 0x7 DUP1 SLOAD DUP4 AND DUP11 DUP6 AND OR SWAP1 SSTORE PUSH1 0x8 DUP1 SLOAD DUP4 AND DUP10 DUP6 AND OR SWAP1 SSTORE PUSH1 0x2 DUP1 SLOAD DUP4 AND DUP9 DUP6 AND OR SWAP1 SSTORE PUSH1 0xC DUP1 SLOAD DUP4 AND DUP8 DUP6 AND OR SWAP1 SSTORE PUSH1 0xB DUP1 SLOAD DUP4 AND DUP7 DUP6 AND OR SWAP1 SSTORE PUSH1 0xA DUP1 SLOAD DUP4 AND SWAP4 DUP6 AND SWAP4 DUP5 OR SWAP1 SSTORE PUSH1 0x9 DUP1 SLOAD SWAP1 SWAP3 AND SWAP1 SWAP3 OR SWAP1 SSTORE PUSH1 0x40 MLOAD SWAP1 DUP2 MSTORE PUSH32 0x143219C9E69B09E07E095FCC889B43D8F46CA892BBA65F08DC3A0050869A5678 SWAP1 PUSH1 0x20 ADD PUSH1 0x40 MLOAD DUP1 SWAP2 SUB SWAP1 LOG1 PUSH1 0x40 MLOAD PUSH1 0x1 PUSH1 0x1 PUSH1 0xA0 SHL SUB DUP11 AND DUP2 MSTORE PUSH32 0x78F058B189175430C48DC02699E3A0031EA4FF781536DC2FAB847DE4BABDD882 SWAP1 PUSH1 0x20 ADD PUSH1 0x40 MLOAD DUP1 SWAP2 SUB SWAP1 LOG1 PUSH1 0x40 MLOAD PUSH1 0x1 PUSH1 0x1 PUSH1 0xA0 SHL SUB DUP10 AND DUP2 MSTORE PUSH32 0x5EE0CAE2F063ED938BB55046F6A932FB6AE792BF43624806BB90ABE68A50BE9B SWAP1 PUSH1 0x20 ADD PUSH1 0x40 MLOAD DUP1 SWAP2 SUB SWAP1 LOG1 PUSH1 0x40 MLOAD PUSH1 0x1 PUSH1 0x1 PUSH1 0xA0 SHL SUB DUP9 AND DUP2 MSTORE PUSH32 0x82966D27EEA39B038EE0FA30CD16532BB24F6E65D31CB58FB227AA5766CDCC7F SWAP1 PUSH1 0x20 ADD PUSH1 0x40 MLOAD DUP1 SWAP2 SUB SWAP1 LOG1 PUSH1 0x40 MLOAD PUSH1 0x1 PUSH1 0x1 PUSH1 0xA0 SHL SUB DUP8 AND DUP2 MSTORE PUSH32 0xCFB07D791FCAFC032B35837B50EB84B74DF518CF4CC287E8084F47630FA70FA0 SWAP1 PUSH1 0x20 ADD PUSH1 0x40 MLOAD DUP1 SWAP2 SUB SWAP1 LOG1 PUSH1 0x40 MLOAD PUSH1 0x1 PUSH1 0x1 PUSH1 0xA0 SHL SUB DUP7 AND DUP2 MSTORE PUSH32 0xE67F36A6E961157D6EFF83B91F3AF5A62131CEB6F04954EF74F51C1C05E7F88D SWAP1 PUSH1 0x20 ADD PUSH1 0x40 MLOAD DUP1 SWAP2 SUB SWAP1 LOG1 PUSH1 0x40 MLOAD PUSH1 0x1 PUSH1 0x1 PUSH1 0xA0 SHL SUB DUP6 AND DUP2 MSTORE PUSH32 0x8C537274438AA850A330284665D81A85DD38267D09E4050D416BFC94142DB264 SWAP1 PUSH1 0x20 ADD PUSH1 0x40 MLOAD DUP1 SWAP2 SUB SWAP1 LOG1 PUSH1 0x40 MLOAD PUSH1 0x1 PUSH1 0x1 PUSH1 0xA0 SHL SUB DUP5 AND DUP2 MSTORE PUSH32 0x65F4CF077BC01E4742EB5AD98326F6E95B63548EA24B17F8D5E823111FE78800 SWAP1 PUSH1 0x20 ADD PUSH1 0x40 MLOAD DUP1 SWAP2 SUB SWAP1 LOG1 PUSH1 0x40 MLOAD PUSH1 0x1 PUSH1 0x1 PUSH1 0xA0 SHL SUB DUP4 AND DUP2 MSTORE PUSH32 0x227EEC0EC317AF6AB1A9587FFA1C84332522EB4C583A908F89BABC05F8F339BD SWAP1 PUSH1 0x20 ADD PUSH1 0x40 MLOAD DUP1 SWAP2 SUB SWAP1 LOG1 PUSH1 0x40 MLOAD PUSH1 0x1 PUSH1 0x1 PUSH1 0xA0 SHL SUB DUP3 AND DUP2 MSTORE PUSH32 0x756EBC192164C295BBA134B5AACD72CC7AFF8098A670D1F0A5F6B3A0B4CE6707 SWAP1 PUSH1 0x20 ADD PUSH1 0x40 MLOAD DUP1 SWAP2 SUB SWAP1 LOG1 POP POP POP POP POP POP POP POP POP POP JUMP JUMPDEST PUSH1 0x8 SLOAD PUSH1 0x40 MLOAD PUSH4 0xB32BEB5B PUSH1 0xE0 SHL DUP2 MSTORE CALLER PUSH1 0x4 DUP3 ADD MSTORE PUSH1 0x1 PUSH1 0x1 PUSH1 0xA0 SHL SUB SWAP1 SWAP2 AND SWAP1 PUSH4 0xB32BEB5B SWAP1 PUSH1 0x24 ADD PUSH1 0x0 PUSH1 0x40 MLOAD DUP1 DUP4 SUB DUP2 PUSH1 0x0 DUP8 DUP1 EXTCODESIZE ISZERO DUP1 ISZERO PUSH2 0xD02 JUMPI PUSH1 0x0 DUP1 REVERT JUMPDEST POP GAS CALL ISZERO DUP1 ISZERO PUSH2 0x8F7 JUMPI RETURNDATASIZE PUSH1 0x0 DUP1 RETURNDATACOPY RETURNDATASIZE PUSH1 0x0 REVERT JUMPDEST PUSH1 0x3 SLOAD PUSH1 0x1 PUSH1 0x1 PUSH1 0xA0 SHL SUB AND CALLER EQ PUSH2 0xD40 JUMPI PUSH1 0x40 MLOAD PUSH3 0x461BCD PUSH1 0xE5 SHL DUP2 MSTORE PUSH1 0x4 ADD PUSH2 0x964 SWAP1 PUSH2 0x360D JUMP JUMPDEST PUSH1 0xD DUP1 SLOAD PUSH1 0x1 PUSH1 0x1 PUSH1 0xA0 SHL SUB NOT AND PUSH1 0x1 PUSH1 0x1 PUSH1 0xA0 SHL SUB SWAP3 SWAP1 SWAP3 AND SWAP2 SWAP1 SWAP2 OR SWAP1 SSTORE JUMP JUMPDEST PUSH1 0xD SLOAD PUSH1 0x1 PUSH1 0x1 PUSH1 0xA0 SHL SUB AND CALLER EQ PUSH2 0xD79 JUMPI PUSH1 0x0 DUP1 REVERT JUMPDEST PUSH1 0x2 DUP1 SLOAD PUSH1 0x1 PUSH1 0x1 PUSH1 0xA0 SHL SUB NOT AND PUSH1 0x1 PUSH1 0x1 PUSH1 0xA0 SHL SUB SWAP3 SWAP1 SWAP3 AND SWAP2 SWAP1 SWAP2 OR SWAP1 SSTORE JUMP JUMPDEST PUSH1 0x0 DUP1 SLOAD PUSH1 0x40 DUP1 MLOAD PUSH4 0x2F5A97E5 PUSH1 0xE1 SHL DUP2 MSTORE SWAP1 MLOAD DUP4 SWAP3 PUSH1 0x1 PUSH1 0x1 PUSH1 0xA0 SHL SUB AND SWAP2 PUSH4 0x5EB52FCA SWAP2 PUSH1 0x4 DUP1 DUP4 ADD SWAP3 PUSH1 0x20 SWAP3 SWAP2 SWAP1 DUP3 SWAP1 SUB ADD DUP2 DUP7 GAS STATICCALL ISZERO DUP1 ISZERO PUSH2 0xDE5 JUMPI RETURNDATASIZE PUSH1 0x0 DUP1 RETURNDATACOPY RETURNDATASIZE PUSH1 0x0 REVERT JUMPDEST POP POP POP POP PUSH1 0x40 MLOAD RETURNDATASIZE PUSH1 0x1F NOT PUSH1 0x1F DUP3 ADD AND DUP3 ADD DUP1 PUSH1 0x40 MSTORE POP DUP2 ADD SWAP1 PUSH2 0xE09 SWAP2 SWAP1 PUSH2 0x359C JUMP JUMPDEST SWAP1 POP PUSH1 0x0 PUSH1 0x1 PUSH1 0x0 SWAP1 SLOAD SWAP1 PUSH2 0x100 EXP SWAP1 DIV PUSH1 0x1 PUSH1 0x1 PUSH1 0xA0 SHL SUB AND PUSH1 0x1 PUSH1 0x1 PUSH1 0xA0 SHL SUB AND PUSH4 0x5EB52FCA PUSH1 0x40 MLOAD DUP2 PUSH4 0xFFFFFFFF AND PUSH1 0xE0 SHL DUP2 MSTORE PUSH1 0x4 ADD PUSH1 0x20 PUSH1 0x40 MLOAD DUP1 DUP4 SUB DUP2 DUP7 GAS STATICCALL ISZERO DUP1 ISZERO PUSH2 0xE60 JUMPI RETURNDATASIZE PUSH1 0x0 DUP1 RETURNDATACOPY RETURNDATASIZE PUSH1 0x0 REVERT JUMPDEST POP POP POP POP PUSH1 0x40 MLOAD RETURNDATASIZE PUSH1 0x1F NOT PUSH1 0x1F DUP3 ADD AND DUP3 ADD DUP1 PUSH1 0x40 MSTORE POP DUP2 ADD SWAP1 PUSH2 0xE84 SWAP2 SWAP1 PUSH2 0x359C JUMP JUMPDEST SWAP1 POP PUSH2 0xE90 DUP3 DUP3 PUSH2 0x215C JUMP JUMPDEST SWAP3 POP POP POP SWAP1 JUMP JUMPDEST PUSH1 0x0 DUP1 SLOAD PUSH1 0x40 DUP1 MLOAD PUSH4 0xA7B61DF PUSH1 0xE1 SHL DUP2 MSTORE SWAP1 MLOAD DUP4 SWAP3 PUSH1 0x1 PUSH1 0x1 PUSH1 0xA0 SHL SUB AND SWAP2 PUSH4 0x14F6C3BE SWAP2 PUSH1 0x4 DUP1 DUP4 ADD SWAP3 PUSH1 0x20 SWAP3 SWAP2 SWAP1 DUP3 SWAP1 SUB ADD DUP2 DUP7 GAS STATICCALL ISZERO DUP1 ISZERO PUSH2 0xEE1 JUMPI RETURNDATASIZE PUSH1 0x0 DUP1 RETURNDATACOPY RETURNDATASIZE PUSH1 0x0 REVERT JUMPDEST POP POP POP POP PUSH1 0x40 MLOAD RETURNDATASIZE PUSH1 0x1F NOT PUSH1 0x1F DUP3 ADD AND DUP3 ADD DUP1 PUSH1 0x40 MSTORE POP DUP2 ADD SWAP1 PUSH2 0xF05 SWAP2 SWAP1 PUSH2 0x359C JUMP JUMPDEST SWAP1 POP PUSH1 0x0 PUSH1 0x1 PUSH1 0x0 SWAP1 SLOAD SWAP1 PUSH2 0x100 EXP SWAP1 DIV PUSH1 0x1 PUSH1 0x1 PUSH1 0xA0 SHL SUB AND PUSH1 0x1 PUSH1 0x1 PUSH1 0xA0 SHL SUB AND PUSH4 0x14F6C3BE PUSH1 0x40 MLOAD DUP2 PUSH4 0xFFFFFFFF AND PUSH1 0xE0 SHL DUP2 MSTORE PUSH1 0x4 ADD PUSH1 0x20 PUSH1 0x40 MLOAD DUP1 DUP4 SUB DUP2 DUP7 GAS STATICCALL ISZERO DUP1 ISZERO PUSH2 0xE60 JUMPI RETURNDATASIZE PUSH1 0x0 DUP1 RETURNDATACOPY RETURNDATASIZE PUSH1 0x0 REVERT JUMPDEST PUSH1 0xD SLOAD PUSH1 0x1 PUSH1 0x1 PUSH1 0xA0 SHL SUB AND CALLER EQ PUSH2 0xF73 JUMPI PUSH1 0x0 DUP1 REVERT JUMPDEST PUSH1 0xD DUP1 SLOAD PUSH1 0x1 PUSH1 0x1 PUSH1 0xA0 SHL SUB NOT AND SWAP1 SSTORE JUMP JUMPDEST PUSH1 0x40 DUP1 MLOAD PUSH1 0x60 DUP1 DUP3 ADD DUP4 MSTORE PUSH1 0x5 SLOAD PUSH1 0x1 PUSH1 0x1 PUSH1 0xA0 SHL SUB SWAP1 DUP2 AND DUP4 MSTORE PUSH1 0x0 DUP1 SLOAD DUP3 AND PUSH1 0x20 DUP1 DUP7 ADD SWAP2 SWAP1 SWAP2 MSTORE PUSH1 0xB SLOAD DUP4 AND DUP6 DUP8 ADD MSTORE DUP6 MLOAD PUSH2 0x100 DUP2 ADD DUP8 MSTORE DUP3 DUP2 MSTORE DUP1 DUP3 ADD DUP4 SWAP1 MSTORE DUP1 DUP8 ADD DUP4 SWAP1 MSTORE SWAP4 DUP5 ADD DUP3 SWAP1 MSTORE PUSH1 0x80 DUP5 ADD DUP3 SWAP1 MSTORE PUSH1 0xA0 DUP5 ADD DUP3 SWAP1 MSTORE PUSH1 0xC0 DUP5 ADD DUP3 SWAP1 MSTORE PUSH1 0xE0 DUP5 ADD DUP3 SWAP1 MSTORE PUSH1 0x2 SLOAD DUP7 MLOAD PUSH4 0xFDB11CF PUSH1 0xE0 SHL DUP2 MSTORE SWAP7 MLOAD SWAP6 SWAP7 SWAP5 SWAP6 SWAP4 AND SWAP4 PUSH4 0xFDB11CF SWAP4 PUSH1 0x4 DUP1 DUP4 ADD SWAP5 SWAP2 SWAP3 DUP4 SWAP1 SUB ADD SWAP1 DUP3 SWAP1 DUP8 GAS CALL ISZERO DUP1 ISZERO PUSH2 0x1033 JUMPI RETURNDATASIZE PUSH1 0x0 DUP1 RETURNDATACOPY RETURNDATASIZE PUSH1 0x0 REVERT JUMPDEST POP POP POP POP PUSH1 0x40 MLOAD RETURNDATASIZE PUSH1 0x1F NOT PUSH1 0x1F DUP3 ADD AND DUP3 ADD DUP1 PUSH1 0x40 MSTORE POP DUP2 ADD SWAP1 PUSH2 0x1057 SWAP2 SWAP1 PUSH2 0x359C JUMP JUMPDEST DUP1 DUP3 MSTORE PUSH1 0x0 SWAP1 PUSH2 0x1066 SWAP1 PUSH2 0x21C2 JUMP JUMPDEST SWAP1 POP PUSH2 0x1072 DUP8 DUP3 PUSH2 0x21DF JUMP JUMPDEST DUP3 MLOAD PUSH2 0x107E SWAP1 CALLER PUSH2 0x22F3 JUMP JUMPDEST PUSH1 0x40 DUP3 ADD DUP7 SWAP1 MSTORE DUP1 PUSH2 0x10BA JUMPI PUSH2 0x109E DUP4 PUSH1 0x0 ADD MLOAD DUP5 PUSH1 0x40 ADD MLOAD DUP9 DUP11 PUSH2 0x23B3 JUMP JUMPDEST PUSH1 0x20 DUP4 ADD DUP2 SWAP1 MSTORE PUSH1 0x40 DUP4 ADD MLOAD PUSH2 0x10B4 SWAP2 SWAP1 PUSH2 0x3658 JUMP JUMPDEST PUSH1 0x40 DUP4 ADD MSTORE JUMPDEST PUSH2 0x10C7 DUP3 PUSH1 0x40 ADD MLOAD PUSH2 0x254D JUMP JUMPDEST PUSH2 0x10D4 DUP3 PUSH1 0x40 ADD MLOAD PUSH2 0x209E JUMP JUMPDEST PUSH1 0x60 DUP4 ADD DUP2 SWAP1 MSTORE PUSH2 0x10E7 JUMPI PUSH2 0x10E7 PUSH2 0x3642 JUMP JUMPDEST PUSH2 0x10FA DUP9 DUP4 PUSH1 0x60 ADD MLOAD DUP5 PUSH1 0x0 ADD MLOAD PUSH2 0x25CC JUMP JUMPDEST PUSH1 0x80 DUP4 ADD MSTORE PUSH1 0x60 DUP3 ADD MLOAD PUSH2 0x110F SWAP1 DUP10 SWAP1 PUSH2 0x25FE JUMP JUMPDEST PUSH1 0xA0 DUP4 ADD MSTORE DUP1 ISZERO PUSH2 0x112C JUMPI PUSH2 0x1127 DUP3 PUSH1 0x80 ADD MLOAD PUSH2 0x262D JUMP JUMPDEST PUSH2 0x115F JUMP JUMPDEST PUSH2 0x1139 DUP3 PUSH1 0x80 ADD MLOAD PUSH2 0x26AB JUMP JUMPDEST PUSH1 0x0 PUSH2 0x1152 DUP10 PUSH1 0x1 DUP6 PUSH1 0x60 ADD MLOAD PUSH1 0x1 DUP8 PUSH1 0x0 ADD MLOAD PUSH2 0x1EDB JUMP JUMPDEST SWAP1 POP PUSH2 0x115D DUP2 PUSH2 0x1F4E JUMP JUMPDEST POP JUMPDEST DUP3 MLOAD PUSH1 0x40 MLOAD PUSH4 0x5D6B480F PUSH1 0xE0 SHL DUP2 MSTORE PUSH1 0x1 PUSH1 0x1 PUSH1 0xA0 SHL SUB SWAP1 SWAP2 AND SWAP1 PUSH4 0x5D6B480F SWAP1 PUSH2 0x1191 SWAP1 CALLER SWAP1 PUSH1 0x1 SWAP1 PUSH1 0x4 ADD PUSH2 0x35F4 JUMP JUMPDEST PUSH1 0x0 PUSH1 0x40 MLOAD DUP1 DUP4 SUB DUP2 PUSH1 0x0 DUP8 DUP1 EXTCODESIZE ISZERO DUP1 ISZERO PUSH2 0x11AB JUMPI PUSH1 0x0 DUP1 REVERT JUMPDEST POP GAS CALL ISZERO DUP1 ISZERO PUSH2 0x11BF JUMPI RETURNDATASIZE PUSH1 0x0 DUP1 RETURNDATACOPY RETURNDATASIZE PUSH1 0x0 REVERT JUMPDEST POP POP DUP5 MLOAD PUSH1 0x40 MLOAD PUSH4 0x72423C17 PUSH1 0xE0 SHL DUP2 MSTORE PUSH1 0x1 PUSH1 0x1 PUSH1 0xA0 SHL SUB SWAP1 SWAP2 AND SWAP3 POP PUSH4 0x72423C17 SWAP2 POP PUSH2 0x11F4 SWAP1 CALLER SWAP1 DUP13 SWAP1 PUSH1 0x4 ADD PUSH2 0x35F4 JUMP JUMPDEST PUSH1 0x20 PUSH1 0x40 MLOAD DUP1 DUP4 SUB DUP2 PUSH1 0x0 DUP8 GAS CALL ISZERO DUP1 ISZERO PUSH2 0x1213 JUMPI RETURNDATASIZE PUSH1 0x0 DUP1 RETURNDATACOPY RETURNDATASIZE PUSH1 0x0 REVERT JUMPDEST POP POP POP POP PUSH1 0x40 MLOAD RETURNDATASIZE PUSH1 0x1F NOT PUSH1 0x1F DUP3 ADD AND DUP3 ADD DUP1 PUSH1 0x40 MSTORE POP DUP2 ADD SWAP1 PUSH2 0x1237 SWAP2 SWAP1 PUSH2 0x359C JUMP JUMPDEST POP DUP3 MLOAD PUSH1 0x60 DUP4 ADD MLOAD PUSH1 0x40 MLOAD PUSH4 0x9976CF45 PUSH1 0xE0 SHL DUP2 MSTORE PUSH1 0x1 PUSH1 0x1 PUSH1 0xA0 SHL SUB SWAP1 SWAP3 AND SWAP2 PUSH4 0x9976CF45 SWAP2 PUSH2 0x126D SWAP2 CALLER SWAP2 SWAP1 PUSH1 0x4 ADD PUSH2 0x35F4 JUMP JUMPDEST PUSH1 0x20 PUSH1 0x40 MLOAD DUP1 DUP4 SUB DUP2 PUSH1 0x0 DUP8 GAS CALL ISZERO DUP1 ISZERO PUSH2 0x128C JUMPI RETURNDATASIZE PUSH1 0x0 DUP1 RETURNDATACOPY RETURNDATASIZE PUSH1 0x0 REVERT JUMPDEST POP POP POP POP PUSH1 0x40 MLOAD RETURNDATASIZE PUSH1 0x1F NOT PUSH1 0x1F DUP3 ADD AND DUP3 ADD DUP1 PUSH1 0x40 MSTORE POP DUP2 ADD SWAP1 PUSH2 0x12B0 SWAP2 SWAP1 PUSH2 0x359C JUMP JUMPDEST POP DUP3 MLOAD PUSH1 0x40 MLOAD PUSH4 0x82FE3EB9 PUSH1 0xE0 SHL DUP2 MSTORE CALLER PUSH1 0x4 DUP3 ADD MSTORE PUSH1 0x1 PUSH1 0x1 PUSH1 0xA0 SHL SUB SWAP1 SWAP2 AND SWAP1 PUSH4 0x82FE3EB9 SWAP1 PUSH1 0x24 ADD PUSH1 0x0 PUSH1 0x40 MLOAD DUP1 DUP4 SUB DUP2 PUSH1 0x0 DUP8 DUP1 EXTCODESIZE ISZERO DUP1 ISZERO PUSH2 0x12F5 JUMPI PUSH1 0x0 DUP1 REVERT JUMPDEST POP GAS CALL ISZERO DUP1 ISZERO PUSH2 0x1309 JUMPI RETURNDATASIZE PUSH1 0x0 DUP1 RETURNDATACOPY RETURNDATASIZE PUSH1 0x0 REVERT JUMPDEST POP POP DUP5 MLOAD PUSH1 0x40 MLOAD PUSH4 0xC7940BD PUSH1 0xE1 SHL DUP2 MSTORE CALLER PUSH1 0x4 DUP3 ADD MSTORE PUSH1 0x1 PUSH1 0x1 PUSH1 0xA0 SHL SUB SWAP1 SWAP2 AND SWAP3 POP PUSH4 0x18F2817A SWAP2 POP PUSH1 0x24 ADD PUSH1 0x20 PUSH1 0x40 MLOAD DUP1 DUP4 SUB DUP2 PUSH1 0x0 DUP8 GAS CALL ISZERO DUP1 ISZERO PUSH2 0x1356 JUMPI RETURNDATASIZE PUSH1 0x0 DUP1 RETURNDATACOPY RETURNDATASIZE PUSH1 0x0 REVERT JUMPDEST POP POP POP POP PUSH1 0x40 MLOAD RETURNDATASIZE PUSH1 0x1F NOT PUSH1 0x1F DUP3 ADD AND DUP3 ADD DUP1 PUSH1 0x40 MSTORE POP DUP2 ADD SWAP1 PUSH2 0x137A SWAP2 SWAP1 PUSH2 0x359C JUMP JUMPDEST PUSH1 0xC0 DUP4 ADD MSTORE PUSH1 0xC SLOAD PUSH1 0xA0 DUP4 ADD MLOAD PUSH1 0x40 MLOAD PUSH4 0x46F7CF87 PUSH1 0xE0 SHL DUP2 MSTORE CALLER PUSH1 0x4 DUP3 ADD MSTORE PUSH1 0x24 DUP2 ADD SWAP2 SWAP1 SWAP2 MSTORE PUSH1 0x1 PUSH1 0x1 PUSH1 0xA0 SHL SUB DUP8 DUP2 AND PUSH1 0x44 DUP4 ADD MSTORE DUP7 DUP2 AND PUSH1 0x64 DUP4 ADD MSTORE SWAP1 SWAP2 AND SWAP1 PUSH4 0x46F7CF87 SWAP1 PUSH1 0x84 ADD PUSH1 0x0 PUSH1 0x40 MLOAD DUP1 DUP4 SUB DUP2 PUSH1 0x0 DUP8 DUP1 EXTCODESIZE ISZERO DUP1 ISZERO PUSH2 0x13E1 JUMPI PUSH1 0x0 DUP1 REVERT JUMPDEST POP GAS CALL ISZERO DUP1 ISZERO PUSH2 0x13F5 JUMPI RETURNDATASIZE PUSH1 0x0 DUP1 RETURNDATACOPY RETURNDATASIZE PUSH1 0x0 REVERT JUMPDEST POP POP DUP5 MLOAD PUSH1 0x40 MLOAD PUSH4 0x15D549F1 PUSH1 0xE0 SHL DUP2 MSTORE CALLER PUSH1 0x4 DUP3 ADD MSTORE PUSH1 0x1 PUSH1 0x1 PUSH1 0xA0 SHL SUB SWAP1 SWAP2 AND SWAP3 POP PUSH4 0x15D549F1 SWAP2 POP PUSH1 0x24 ADD PUSH1 0x20 PUSH1 0x40 MLOAD DUP1 DUP4 SUB DUP2 PUSH1 0x0 DUP8 GAS CALL ISZERO DUP1 ISZERO PUSH2 0x1442 JUMPI RETURNDATASIZE PUSH1 0x0 DUP1 RETURNDATACOPY RETURNDATASIZE PUSH1 0x0 REVERT JUMPDEST POP POP POP POP PUSH1 0x40 MLOAD RETURNDATASIZE PUSH1 0x1F NOT PUSH1 0x1F DUP3 ADD AND DUP3 ADD DUP1 PUSH1 0x40 MSTORE POP DUP2 ADD SWAP1 PUSH2 0x1466 SWAP2 SWAP1 PUSH2 0x359C JUMP JUMPDEST PUSH1 0xE0 DUP4 ADD DUP2 SWAP1 MSTORE PUSH1 0x40 MLOAD SWAP1 DUP2 MSTORE CALLER SWAP1 PUSH32 0x59CFD0CD754BC5748B6770E94A4FFA5F678D885CB899DCFADC5734EDB97C67AB SWAP1 PUSH1 0x20 ADD PUSH1 0x40 MLOAD DUP1 SWAP2 SUB SWAP1 LOG2 PUSH2 0x14B0 DUP4 PUSH1 0x20 ADD MLOAD DUP10 PUSH2 0x273B JUMP JUMPDEST PUSH2 0x14C9 DUP4 PUSH1 0x20 ADD MLOAD DUP5 PUSH1 0x40 ADD MLOAD CALLER DUP10 DUP7 PUSH1 0x40 ADD MLOAD PUSH2 0x287A JUMP JUMPDEST PUSH1 0x20 DUP4 ADD MLOAD PUSH1 0x40 DUP5 ADD MLOAD PUSH1 0x7 SLOAD PUSH2 0x14F5 SWAP3 SWAP2 SWAP1 PUSH1 0x1 PUSH1 0x1 PUSH1 0xA0 SHL SUB AND PUSH9 0x1158E460913D00000 DUP1 PUSH2 0x287A JUMP JUMPDEST PUSH1 0x60 DUP3 DUP2 ADD MLOAD PUSH1 0xC0 DUP5 ADD MLOAD PUSH1 0x40 DUP1 MLOAD SWAP3 DUP4 MSTORE PUSH1 0x20 DUP4 ADD DUP13 SWAP1 MSTORE DUP3 ADD MSTORE PUSH1 0x0 SWAP2 DUP2 ADD SWAP2 SWAP1 SWAP2 MSTORE CALLER SWAP1 PUSH32 0xC3770D654ED33AEEA6BF11AC8EF05D02A6A04ED4686DD2F624D853BBEC43CC8B SWAP1 PUSH1 0x80 ADD PUSH1 0x40 MLOAD DUP1 SWAP2 SUB SWAP1 LOG2 PUSH1 0x20 DUP1 DUP4 ADD MLOAD PUSH1 0x40 MLOAD SWAP1 DUP2 MSTORE CALLER SWAP2 PUSH32 0xA55C5F48FD29482AD55F4B59BF070CD1AC1A7132A31F7A136EBE8877AE37E1FF SWAP2 ADD PUSH1 0x40 MLOAD DUP1 SWAP2 SUB SWAP1 LOG2 POP POP POP POP POP POP POP POP JUMP JUMPDEST PUSH1 0x3 SLOAD PUSH1 0x1 PUSH1 0x1 PUSH1 0xA0 SHL SUB AND CALLER EQ PUSH2 0x15B6 JUMPI PUSH1 0x40 MLOAD PUSH3 0x461BCD PUSH1 0xE5 SHL DUP2 MSTORE PUSH1 0x4 ADD PUSH2 0x964 SWAP1 PUSH2 0x360D JUMP JUMPDEST PUSH1 0xD SLOAD PUSH1 0x1 PUSH1 0xA0 SHL SWAP1 DIV PUSH1 0xFF AND ISZERO PUSH2 0x1606 JUMPI PUSH1 0x40 MLOAD PUSH3 0x461BCD PUSH1 0xE5 SHL DUP2 MSTORE PUSH1 0x20 PUSH1 0x4 DUP3 ADD MSTORE PUSH1 0x13 PUSH1 0x24 DUP3 ADD MSTORE PUSH19 0x105B1C9958591E48125B9A5D1A585B1A5E9959 PUSH1 0x6A SHL PUSH1 0x44 DUP3 ADD MSTORE PUSH1 0x64 ADD PUSH2 0x964 JUMP JUMPDEST PUSH2 0x160F DUP2 PUSH2 0x20B3 JUMP JUMPDEST PUSH1 0xD DUP1 SLOAD PUSH1 0xFF PUSH1 0xA0 SHL NOT AND PUSH1 0x1 PUSH1 0xA0 SHL OR SWAP1 SSTORE PUSH1 0x4 DUP1 SLOAD PUSH1 0x1 PUSH1 0x1 PUSH1 0xA0 SHL SUB DUP4 AND PUSH1 0x1 PUSH1 0x1 PUSH1 0xA0 SHL SUB NOT SWAP1 SWAP2 AND OR SWAP1 SSTORE PUSH2 0x1647 PUSH2 0x293B JUMP JUMPDEST POP JUMP JUMPDEST PUSH2 0x1652 PUSH2 0x2985 JUMP JUMPDEST PUSH2 0x8F7 DUP4 DUP6 PUSH1 0x0 DUP1 PUSH1 0x0 DUP8 DUP8 PUSH1 0x0 PUSH2 0x169A JUMP JUMPDEST PUSH2 0x52F CALLER DUP5 PUSH1 0x0 DUP1 PUSH1 0x0 DUP8 DUP8 PUSH1 0x0 PUSH2 0x169A JUMP JUMPDEST PUSH2 0x168C PUSH2 0x3E8 PUSH8 0xDE0B6B3A7640000 PUSH2 0x366B JUMP JUMPDEST PUSH2 0x1697 SWAP1 PUSH1 0x5 PUSH2 0x368D JUMP JUMPDEST DUP2 JUMP JUMPDEST PUSH1 0x40 DUP1 MLOAD PUSH1 0x60 DUP1 DUP3 ADD DUP4 MSTORE PUSH1 0x5 SLOAD PUSH1 0x1 PUSH1 0x1 PUSH1 0xA0 SHL SUB SWAP1 DUP2 AND DUP4 MSTORE PUSH1 0x0 DUP1 SLOAD DUP3 AND PUSH1 0x20 DUP1 DUP7 ADD SWAP2 SWAP1 SWAP2 MSTORE PUSH1 0xB SLOAD DUP4 AND DUP6 DUP8 ADD MSTORE DUP6 MLOAD PUSH2 0x1A0 DUP2 ADD DUP8 MSTORE DUP3 DUP2 MSTORE DUP1 DUP3 ADD DUP4 SWAP1 MSTORE DUP1 DUP8 ADD DUP4 SWAP1 MSTORE SWAP4 DUP5 ADD DUP3 SWAP1 MSTORE PUSH1 0x80 DUP5 ADD DUP3 SWAP1 MSTORE PUSH1 0xA0 DUP5 ADD DUP3 SWAP1 MSTORE PUSH1 0xC0 DUP5 ADD DUP3 SWAP1 MSTORE PUSH1 0xE0 DUP5 ADD DUP3 SWAP1 MSTORE PUSH2 0x100 DUP5 ADD DUP3 SWAP1 MSTORE PUSH2 0x120 DUP5 ADD DUP3 SWAP1 MSTORE PUSH2 0x140 DUP5 ADD DUP3 SWAP1 MSTORE PUSH2 0x160 DUP5 ADD DUP3 SWAP1 MSTORE PUSH2 0x180 DUP5 ADD DUP3 SWAP1 MSTORE PUSH1 0x2 SLOAD DUP7 MLOAD PUSH4 0xFDB11CF PUSH1 0xE0 SHL DUP2 MSTORE SWAP7 MLOAD SWAP6 SWAP7 SWAP5 SWAP6 SWAP4 AND SWAP4 PUSH4 0xFDB11CF SWAP4 PUSH1 0x4 DUP1 DUP4 ADD SWAP5 SWAP2 SWAP3 DUP4 SWAP1 SUB ADD SWAP1 DUP3 SWAP1 DUP8 GAS CALL ISZERO DUP1 ISZERO PUSH2 0x1770 JUMPI RETURNDATASIZE PUSH1 0x0 DUP1 RETURNDATACOPY RETURNDATASIZE PUSH1 0x0 REVERT JUMPDEST POP POP POP POP PUSH1 0x40 MLOAD RETURNDATASIZE PUSH1 0x1F NOT PUSH1 0x1F DUP3 ADD AND DUP3 ADD DUP1 PUSH1 0x40 MSTORE POP DUP2 ADD SWAP1 PUSH2 0x1794 SWAP2 SWAP1 PUSH2 0x359C JUMP JUMPDEST DUP1 DUP3 MSTORE PUSH1 0x0 SWAP1 PUSH2 0x17A3 SWAP1 PUSH2 0x21C2 JUMP JUMPDEST SWAP1 POP DUP7 ISZERO PUSH2 0x17BE JUMPI PUSH2 0x17B5 DUP5 DUP3 PUSH2 0x21DF JUMP JUMPDEST PUSH2 0x17BE DUP9 PUSH2 0x29F3 JUMP JUMPDEST PUSH2 0x17C8 DUP11 DUP11 PUSH2 0x2A69 JUMP JUMPDEST PUSH2 0x17D3 DUP11 DUP11 DUP11 PUSH2 0x2AD9 JUMP JUMPDEST DUP3 MLOAD PUSH2 0x17DF SWAP1 DUP13 PUSH2 0x1CA7 JUMP JUMPDEST CALLER PUSH1 0x1 PUSH1 0x1 PUSH1 0xA0 SHL SUB DUP13 AND EQ DUP1 PUSH2 0x1815 JUMPI POP PUSH1 0x6 SLOAD PUSH1 0x1 PUSH1 0x1 PUSH1 0xA0 SHL SUB AND CALLER EQ DUP1 ISZERO PUSH2 0x180B JUMPI POP PUSH1 0x0 DUP11 GT JUMPDEST DUP1 ISZERO PUSH2 0x1815 JUMPI POP DUP8 ISZERO JUMPDEST PUSH2 0x1821 JUMPI PUSH2 0x1821 PUSH2 0x3642 JUMP JUMPDEST DUP3 MLOAD PUSH1 0x40 MLOAD PUSH4 0xB076557 PUSH1 0xE0 SHL DUP2 MSTORE PUSH1 0x1 PUSH1 0x1 PUSH1 0xA0 SHL SUB DUP14 DUP2 AND PUSH1 0x4 DUP4 ADD MSTORE SWAP1 SWAP2 AND SWAP1 PUSH4 0xB076557 SWAP1 PUSH1 0x24 ADD PUSH1 0x0 PUSH1 0x40 MLOAD DUP1 DUP4 SUB DUP2 PUSH1 0x0 DUP8 DUP1 EXTCODESIZE ISZERO DUP1 ISZERO PUSH2 0x1867 JUMPI PUSH1 0x0 DUP1 REVERT JUMPDEST POP GAS CALL ISZERO DUP1 ISZERO PUSH2 0x187B JUMPI RETURNDATASIZE PUSH1 0x0 DUP1 RETURNDATACOPY RETURNDATASIZE PUSH1 0x0 REVERT JUMPDEST POP POP POP POP PUSH2 0x1889 DUP11 DUP11 PUSH2 0x2B71 JUMP JUMPDEST ISZERO ISZERO PUSH1 0x60 DUP5 ADD MSTORE PUSH1 0x20 DUP4 ADD MSTORE PUSH1 0x40 DUP3 ADD DUP9 SWAP1 MSTORE DUP7 DUP1 ISZERO PUSH2 0x18A7 JUMPI POP DUP1 ISZERO JUMPDEST ISZERO PUSH2 0x18DD JUMPI PUSH2 0x18C0 DUP4 PUSH1 0x0 ADD MLOAD DUP5 PUSH1 0x40 ADD MLOAD DUP11 DUP8 PUSH2 0x23B3 JUMP JUMPDEST PUSH2 0x120 DUP4 ADD DUP2 SWAP1 MSTORE PUSH1 0x40 DUP4 ADD MLOAD PUSH2 0x18D7 SWAP2 SWAP1 PUSH2 0x3658 JUMP JUMPDEST PUSH1 0x40 DUP4 ADD MSTORE JUMPDEST DUP3 MLOAD PUSH1 0x40 MLOAD PUSH4 0xD66A2553 PUSH1 0xE0 SHL DUP2 MSTORE PUSH1 0x1 PUSH1 0x1 PUSH1 0xA0 SHL SUB DUP14 DUP2 AND PUSH1 0x4 DUP4 ADD MSTORE SWAP1 SWAP2 AND SWAP1 PUSH4 0xD66A2553 SWAP1 PUSH1 0x24 ADD PUSH1 0x20 PUSH1 0x40 MLOAD DUP1 DUP4 SUB DUP2 DUP7 GAS STATICCALL ISZERO DUP1 ISZERO PUSH2 0x1926 JUMPI RETURNDATASIZE PUSH1 0x0 DUP1 RETURNDATACOPY RETURNDATASIZE PUSH1 0x0 REVERT JUMPDEST POP POP POP POP PUSH1 0x40 MLOAD RETURNDATASIZE PUSH1 0x1F NOT PUSH1 0x1F DUP3 ADD AND DUP3 ADD DUP1 PUSH1 0x40 MSTORE POP DUP2 ADD SWAP1 PUSH2 0x194A SWAP2 SWAP1 PUSH2 0x359C JUMP JUMPDEST PUSH1 0x80 DUP4 ADD MSTORE DUP3 MLOAD PUSH1 0x40 MLOAD PUSH4 0x9019AAF PUSH1 0xE3 SHL DUP2 MSTORE PUSH1 0x1 PUSH1 0x1 PUSH1 0xA0 SHL SUB DUP14 DUP2 AND PUSH1 0x4 DUP4 ADD MSTORE SWAP1 SWAP2 AND SWAP1 PUSH4 0x480CD578 SWAP1 PUSH1 0x24 ADD PUSH1 0x20 PUSH1 0x40 MLOAD DUP1 DUP4 SUB DUP2 DUP7 GAS STATICCALL ISZERO DUP1 ISZERO PUSH2 0x1998 JUMPI RETURNDATASIZE PUSH1 0x0 DUP1 RETURNDATACOPY RETURNDATASIZE PUSH1 0x0 REVERT JUMPDEST POP POP POP POP PUSH1 0x40 MLOAD RETURNDATASIZE PUSH1 0x1F NOT PUSH1 0x1F DUP3 ADD AND DUP3 ADD DUP1 PUSH1 0x40 MSTORE POP DUP2 ADD SWAP1 PUSH2 0x19BC SWAP2 SWAP1 PUSH2 0x359C JUMP JUMPDEST PUSH1 0xA0 DUP4 ADD DUP2 SWAP1 MSTORE PUSH1 0x80 DUP4 ADD MLOAD DUP4 MLOAD PUSH2 0x19D5 SWAP3 SWAP2 SWAP1 PUSH2 0x25CC JUMP JUMPDEST DUP3 PUSH1 0xC0 ADD DUP2 DUP2 MSTORE POP POP PUSH2 0x1A05 DUP3 PUSH1 0xA0 ADD MLOAD DUP4 PUSH1 0x80 ADD MLOAD DUP5 PUSH1 0x20 ADD MLOAD DUP6 PUSH1 0x60 ADD MLOAD DUP7 PUSH1 0x40 ADD MLOAD DUP13 DUP9 PUSH1 0x0 ADD MLOAD PUSH2 0x2B90 JUMP JUMPDEST PUSH1 0xE0 DUP4 ADD MSTORE PUSH1 0xA0 DUP3 ADD MLOAD DUP10 GT ISZERO PUSH2 0x1A1E JUMPI PUSH2 0x1A1E PUSH2 0x3642 JUMP JUMPDEST PUSH2 0x1A2A DUP2 DUP11 DUP10 DUP6 PUSH2 0x2BC3 JUMP JUMPDEST DUP7 ISZERO DUP1 ISZERO PUSH2 0x1A38 JUMPI POP PUSH1 0x0 DUP9 GT JUMPDEST ISZERO PUSH2 0x1A86 JUMPI PUSH2 0x1A61 DUP3 PUSH1 0x40 ADD MLOAD PUSH2 0x1A52 DUP5 PUSH1 0x80 ADD MLOAD PUSH2 0x2C37 JUMP JUMPDEST PUSH2 0x1A5C SWAP2 SWAP1 PUSH2 0x35CB JUMP JUMPDEST PUSH2 0x254D JUMP JUMPDEST PUSH2 0x1A73 DUP3 PUSH1 0x80 ADD MLOAD DUP4 PUSH1 0x40 ADD MLOAD PUSH2 0x2C4C JUMP JUMPDEST PUSH2 0x1A86 DUP4 PUSH1 0x40 ADD MLOAD DUP13 DUP5 PUSH1 0x40 ADD MLOAD PUSH2 0x1DFA JUMP JUMPDEST PUSH2 0x1AA4 DUP4 PUSH1 0x0 ADD MLOAD DUP13 DUP5 PUSH1 0x20 ADD MLOAD DUP6 PUSH1 0x60 ADD MLOAD DUP7 PUSH1 0x40 ADD MLOAD DUP13 PUSH2 0x2CE0 JUMP JUMPDEST PUSH2 0x140 DUP5 ADD MSTORE PUSH2 0x160 DUP4 ADD MSTORE DUP3 MLOAD PUSH1 0x40 MLOAD PUSH4 0xC7940BD PUSH1 0xE1 SHL DUP2 MSTORE PUSH1 0x1 PUSH1 0x1 PUSH1 0xA0 SHL SUB DUP14 DUP2 AND PUSH1 0x4 DUP4 ADD MSTORE SWAP1 SWAP2 AND SWAP1 PUSH4 0x18F2817A SWAP1 PUSH1 0x24 ADD PUSH1 0x20 PUSH1 0x40 MLOAD DUP1 DUP4 SUB DUP2 PUSH1 0x0 DUP8 GAS CALL ISZERO DUP1 ISZERO PUSH2 0x1AFB JUMPI RETURNDATASIZE PUSH1 0x0 DUP1 RETURNDATACOPY RETURNDATASIZE PUSH1 0x0 REVERT JUMPDEST POP POP POP POP PUSH1 0x40 MLOAD RETURNDATASIZE PUSH1 0x1F NOT PUSH1 0x1F DUP3 ADD AND DUP3 ADD DUP1 PUSH1 0x40 MSTORE POP DUP2 ADD SWAP1 PUSH2 0x1B1F SWAP2 SWAP1 PUSH2 0x359C JUMP JUMPDEST DUP3 PUSH2 0x180 ADD DUP2 DUP2 MSTORE POP POP PUSH1 0x0 PUSH2 0x1B4D DUP4 PUSH1 0xA0 ADD MLOAD DUP5 PUSH1 0x80 ADD MLOAD DUP6 PUSH1 0x20 ADD MLOAD DUP7 PUSH1 0x60 ADD MLOAD DUP8 PUSH1 0x40 ADD MLOAD DUP14 PUSH2 0x2ED2 JUMP JUMPDEST PUSH1 0xC SLOAD PUSH1 0x40 MLOAD PUSH4 0x15F1093 PUSH1 0xE5 SHL DUP2 MSTORE PUSH1 0x1 PUSH1 0x1 PUSH1 0xA0 SHL SUB DUP16 DUP2 AND PUSH1 0x4 DUP4 ADD MSTORE PUSH1 0x24 DUP3 ADD DUP5 SWAP1 MSTORE DUP11 DUP2 AND PUSH1 0x44 DUP4 ADD MSTORE DUP10 DUP2 AND PUSH1 0x64 DUP4 ADD MSTORE SWAP3 SWAP4 POP SWAP2 AND SWAP1 PUSH4 0x2BE21260 SWAP1 PUSH1 0x84 ADD PUSH1 0x0 PUSH1 0x40 MLOAD DUP1 DUP4 SUB DUP2 PUSH1 0x0 DUP8 DUP1 EXTCODESIZE ISZERO DUP1 ISZERO PUSH2 0x1BAD JUMPI PUSH1 0x0 DUP1 REVERT JUMPDEST POP GAS CALL ISZERO DUP1 ISZERO PUSH2 0x1BC1 JUMPI RETURNDATASIZE PUSH1 0x0 DUP1 RETURNDATACOPY RETURNDATASIZE PUSH1 0x0 REVERT JUMPDEST POP POP POP POP DUP12 PUSH1 0x1 PUSH1 0x1 PUSH1 0xA0 SHL SUB AND PUSH32 0xC3770D654ED33AEEA6BF11AC8EF05D02A6A04ED4686DD2F624D853BBEC43CC8B DUP5 PUSH2 0x140 ADD MLOAD DUP6 PUSH2 0x160 ADD MLOAD DUP7 PUSH2 0x180 ADD MLOAD PUSH1 0x2 DUP1 DUP2 GT ISZERO PUSH2 0x1C14 JUMPI PUSH2 0x1C14 PUSH2 0x35DE JUMP JUMPDEST PUSH1 0x40 DUP1 MLOAD SWAP5 DUP6 MSTORE PUSH1 0x20 DUP6 ADD SWAP4 SWAP1 SWAP4 MSTORE SWAP2 DUP4 ADD MSTORE PUSH1 0xFF AND PUSH1 0x60 DUP3 ADD MSTORE PUSH1 0x80 ADD PUSH1 0x40 MLOAD DUP1 SWAP2 SUB SWAP1 LOG2 PUSH2 0x120 DUP4 ADD MLOAD PUSH1 0x40 MLOAD SWAP1 DUP2 MSTORE CALLER SWAP1 PUSH32 0xA55C5F48FD29482AD55F4B59BF070CD1AC1A7132A31F7A136EBE8877AE37E1FF SWAP1 PUSH1 0x20 ADD PUSH1 0x40 MLOAD DUP1 SWAP2 SUB SWAP1 LOG2 PUSH2 0x1C99 DUP5 PUSH1 0x20 ADD MLOAD DUP6 PUSH1 0x40 ADD MLOAD CALLER DUP7 PUSH1 0x20 ADD MLOAD DUP8 PUSH1 0x60 ADD MLOAD DUP15 DUP15 DUP11 PUSH1 0x40 ADD MLOAD PUSH2 0x2F03 JUMP JUMPDEST POP POP POP POP POP POP POP POP POP POP POP POP JUMP JUMPDEST PUSH1 0x40 MLOAD PUSH4 0x21E37801 PUSH1 0xE0 SHL DUP2 MSTORE PUSH1 0x1 PUSH1 0x1 PUSH1 0xA0 SHL SUB DUP3 DUP2 AND PUSH1 0x4 DUP4 ADD MSTORE PUSH1 0x0 SWAP2 SWAP1 DUP5 AND SWAP1 PUSH4 0x21E37801 SWAP1 PUSH1 0x24 ADD PUSH1 0x20 PUSH1 0x40 MLOAD DUP1 DUP4 SUB DUP2 DUP7 GAS STATICCALL ISZERO DUP1 ISZERO PUSH2 0x1CF1 JUMPI RETURNDATASIZE PUSH1 0x0 DUP1 RETURNDATACOPY RETURNDATASIZE PUSH1 0x0 REVERT JUMPDEST POP POP POP POP PUSH1 0x40 MLOAD RETURNDATASIZE PUSH1 0x1F NOT PUSH1 0x1F DUP3 ADD AND DUP3 ADD DUP1 PUSH1 0x40 MSTORE POP DUP2 ADD SWAP1 PUSH2 0x1D15 SWAP2 SWAP1 PUSH2 0x359C JUMP JUMPDEST SWAP1 POP DUP1 PUSH1 0x1 EQ PUSH2 0x52F JUMPI PUSH1 0x40 MLOAD PUSH3 0x461BCD PUSH1 0xE5 SHL DUP2 MSTORE PUSH1 0x20 PUSH1 0x4 DUP3 ADD MSTORE PUSH1 0x2E PUSH1 0x24 DUP3 ADD MSTORE PUSH32 0x426F72726F7765724F70733A2054726F766520646F6573206E6F742065786973 PUSH1 0x44 DUP3 ADD MSTORE PUSH14 0x1D081BDC881A5CC818DB1BDCD959 PUSH1 0x92 SHL PUSH1 0x64 DUP3 ADD MSTORE PUSH1 0x84 ADD PUSH2 0x964 JUMP JUMPDEST PUSH2 0x1D87 DUP2 PUSH2 0x21C2 JUMP JUMPDEST ISZERO PUSH2 0x1647 JUMPI PUSH1 0x40 MLOAD PUSH3 0x461BCD PUSH1 0xE5 SHL DUP2 MSTORE PUSH1 0x20 PUSH1 0x4 DUP3 ADD MSTORE PUSH1 0x39 PUSH1 0x24 DUP3 ADD MSTORE PUSH32 0x426F72726F7765724F70733A204F7065726174696F6E206E6F74207065726D69 PUSH1 0x44 DUP3 ADD MSTORE PUSH32 0x7474656420647572696E67205265636F76657279204D6F646500000000000000 PUSH1 0x64 DUP3 ADD MSTORE PUSH1 0x84 ADD PUSH2 0x964 JUMP JUMPDEST PUSH1 0x40 MLOAD PUSH4 0x70A08231 PUSH1 0xE0 SHL DUP2 MSTORE PUSH1 0x1 PUSH1 0x1 PUSH1 0xA0 SHL SUB DUP4 DUP2 AND PUSH1 0x4 DUP4 ADD MSTORE DUP3 SWAP2 SWAP1 DUP6 AND SWAP1 PUSH4 0x70A08231 SWAP1 PUSH1 0x24 ADD PUSH1 0x20 PUSH1 0x40 MLOAD DUP1 DUP4 SUB DUP2 DUP7 GAS STATICCALL ISZERO DUP1 ISZERO PUSH2 0x1E43 JUMPI RETURNDATASIZE PUSH1 0x0 DUP1 RETURNDATACOPY RETURNDATASIZE PUSH1 0x0 REVERT JUMPDEST POP POP POP POP PUSH1 0x40 MLOAD RETURNDATASIZE PUSH1 0x1F NOT PUSH1 0x1F DUP3 ADD AND DUP3 ADD DUP1 PUSH1 0x40 MSTORE POP DUP2 ADD SWAP1 PUSH2 0x1E67 SWAP2 SWAP1 PUSH2 0x359C JUMP JUMPDEST LT ISZERO PUSH2 0x52F JUMPI PUSH1 0x40 MLOAD PUSH3 0x461BCD PUSH1 0xE5 SHL DUP2 MSTORE PUSH1 0x20 PUSH1 0x4 DUP3 ADD MSTORE PUSH1 0x3D PUSH1 0x24 DUP3 ADD MSTORE PUSH32 0x426F72726F7765724F70733A2043616C6C657220646F65736E74206861766520 PUSH1 0x44 DUP3 ADD MSTORE PUSH32 0x656E6F756768204C55534420746F206D616B652072657061796D656E74000000 PUSH1 0x64 DUP3 ADD MSTORE PUSH1 0x84 ADD PUSH2 0x964 JUMP JUMPDEST PUSH1 0x0 DUP1 PUSH2 0x1EE6 PUSH2 0xE97 JUMP JUMPDEST SWAP1 POP PUSH1 0x0 PUSH2 0x1EF2 PUSH2 0xD9B JUMP JUMPDEST SWAP1 POP DUP7 PUSH2 0x1F08 JUMPI PUSH2 0x1F03 DUP9 DUP4 PUSH2 0x35CB JUMP JUMPDEST PUSH2 0x1F12 JUMP JUMPDEST PUSH2 0x1F12 DUP9 DUP4 PUSH2 0x3658 JUMP JUMPDEST SWAP2 POP DUP5 PUSH2 0x1F28 JUMPI PUSH2 0x1F23 DUP7 DUP3 PUSH2 0x35CB JUMP JUMPDEST PUSH2 0x1F32 JUMP JUMPDEST PUSH2 0x1F32 DUP7 DUP3 PUSH2 0x3658 JUMP JUMPDEST SWAP1 POP PUSH1 0x0 PUSH2 0x1F41 DUP4 DUP4 DUP8 PUSH2 0x25CC JUMP JUMPDEST SWAP10 SWAP9 POP POP POP POP POP POP POP POP POP JUMP JUMPDEST PUSH8 0x14D1120D7B160000 DUP2 LT ISZERO PUSH2 0x1647 JUMPI PUSH1 0x40 MLOAD PUSH3 0x461BCD PUSH1 0xE5 SHL DUP2 MSTORE PUSH1 0x20 PUSH1 0x4 DUP3 ADD MSTORE PUSH1 0x49 PUSH1 0x24 DUP3 ADD MSTORE PUSH32 0x426F72726F7765724F70733A20416E206F7065726174696F6E20746861742077 PUSH1 0x44 DUP3 ADD MSTORE PUSH32 0x6F756C6420726573756C7420696E20544352203C20434352206973206E6F7420 PUSH1 0x64 DUP3 ADD MSTORE PUSH9 0x1C195C9B5A5D1D1959 PUSH1 0xBA SHL PUSH1 0x84 DUP3 ADD MSTORE PUSH1 0xA4 ADD PUSH2 0x964 JUMP JUMPDEST PUSH1 0x40 MLOAD PUSH4 0x71B32B5 PUSH1 0xE3 SHL DUP2 MSTORE PUSH1 0x4 DUP2 ADD DUP3 SWAP1 MSTORE PUSH1 0x1 PUSH1 0x1 PUSH1 0xA0 SHL SUB DUP6 AND SWAP1 PUSH4 0x38D995A8 SWAP1 PUSH1 0x24 ADD PUSH1 0x0 PUSH1 0x40 MLOAD DUP1 DUP4 SUB DUP2 PUSH1 0x0 DUP8 DUP1 EXTCODESIZE ISZERO DUP1 ISZERO PUSH2 0x2020 JUMPI PUSH1 0x0 DUP1 REVERT JUMPDEST POP GAS CALL ISZERO DUP1 ISZERO PUSH2 0x2034 JUMPI RETURNDATASIZE PUSH1 0x0 DUP1 RETURNDATACOPY RETURNDATASIZE PUSH1 0x0 REVERT JUMPDEST POP POP PUSH1 0x40 MLOAD PUSH4 0x2770A7EB PUSH1 0xE2 SHL DUP2 MSTORE PUSH1 0x1 PUSH1 0x1 PUSH1 0xA0 SHL SUB DUP7 AND SWAP3 POP PUSH4 0x9DC29FAC SWAP2 POP PUSH2 0x2066 SWAP1 DUP6 SWAP1 DUP6 SWAP1 PUSH1 0x4 ADD PUSH2 0x35F4 JUMP JUMPDEST PUSH1 0x0 PUSH1 0x40 MLOAD DUP1 DUP4 SUB DUP2 PUSH1 0x0 DUP8 DUP1 EXTCODESIZE ISZERO DUP1 ISZERO PUSH2 0x2080 JUMPI PUSH1 0x0 DUP1 REVERT JUMPDEST POP GAS CALL ISZERO DUP1 ISZERO PUSH2 0x2094 JUMPI RETURNDATASIZE PUSH1 0x0 DUP1 RETURNDATACOPY RETURNDATASIZE PUSH1 0x0 REVERT JUMPDEST POP POP POP POP POP POP POP POP JUMP JUMPDEST PUSH1 0x0 PUSH2 0x908 DUP3 PUSH9 0x1158E460913D00000 PUSH2 0x215C JUMP JUMPDEST PUSH1 0x1 PUSH1 0x1 PUSH1 0xA0 SHL SUB DUP2 AND PUSH2 0x2109 JUMPI PUSH1 0x40 MLOAD PUSH3 0x461BCD PUSH1 0xE5 SHL DUP2 MSTORE PUSH1 0x20 PUSH1 0x4 DUP3 ADD MSTORE PUSH1 0x1E PUSH1 0x24 DUP3 ADD MSTORE PUSH32 0x4163636F756E742063616E6E6F74206265207A65726F20616464726573730000 PUSH1 0x44 DUP3 ADD MSTORE PUSH1 0x64 ADD PUSH2 0x964 JUMP JUMPDEST DUP1 EXTCODESIZE DUP1 PUSH2 0x2158 JUMPI PUSH1 0x40 MLOAD PUSH3 0x461BCD PUSH1 0xE5 SHL DUP2 MSTORE PUSH1 0x20 PUSH1 0x4 DUP3 ADD DUP2 SWAP1 MSTORE PUSH1 0x24 DUP3 ADD MSTORE PUSH32 0x4163636F756E7420636F64652073697A652063616E6E6F74206265207A65726F PUSH1 0x44 DUP3 ADD MSTORE PUSH1 0x64 ADD PUSH2 0x964 JUMP JUMPDEST POP POP JUMP JUMPDEST PUSH1 0x0 DUP1 PUSH2 0x2169 DUP4 DUP6 PUSH2 0x3658 JUMP JUMPDEST SWAP1 POP DUP4 DUP2 LT ISZERO PUSH2 0x21BB JUMPI PUSH1 0x40 MLOAD PUSH3 0x461BCD PUSH1 0xE5 SHL DUP2 MSTORE PUSH1 0x20 PUSH1 0x4 DUP3 ADD MSTORE PUSH1 0x1B PUSH1 0x24 DUP3 ADD MSTORE PUSH32 0x536166654D6174683A206164646974696F6E206F766572666C6F770000000000 PUSH1 0x44 DUP3 ADD MSTORE PUSH1 0x64 ADD PUSH2 0x964 JUMP JUMPDEST SWAP4 SWAP3 POP POP POP JUMP JUMPDEST PUSH1 0x0 DUP1 PUSH2 0x21CE DUP4 PUSH2 0x2F98 JUMP JUMPDEST PUSH8 0x14D1120D7B160000 GT SWAP4 SWAP3 POP POP POP JUMP JUMPDEST DUP1 ISZERO PUSH2 0x2258 JUMPI PUSH8 0xDE0B6B3A7640000 DUP3 GT ISZERO PUSH2 0x2158 JUMPI PUSH1 0x40 MLOAD PUSH3 0x461BCD PUSH1 0xE5 SHL DUP2 MSTORE PUSH1 0x20 PUSH1 0x4 DUP3 ADD MSTORE PUSH1 0x32 PUSH1 0x24 DUP3 ADD MSTORE PUSH32 0x4D6178206665652070657263656E74616765206D757374206C65737320746861 PUSH1 0x44 DUP3 ADD MSTORE PUSH18 0x6E206F7220657175616C20746F2031303025 PUSH1 0x70 SHL PUSH1 0x64 DUP3 ADD MSTORE PUSH1 0x84 ADD PUSH2 0x964 JUMP JUMPDEST PUSH2 0x226C PUSH2 0x3E8 PUSH8 0xDE0B6B3A7640000 PUSH2 0x366B JUMP JUMPDEST PUSH2 0x2277 SWAP1 PUSH1 0x5 PUSH2 0x368D JUMP JUMPDEST DUP3 LT ISZERO DUP1 ISZERO PUSH2 0x228E JUMPI POP PUSH8 0xDE0B6B3A7640000 DUP3 GT ISZERO JUMPDEST PUSH2 0x2158 JUMPI PUSH1 0x40 MLOAD PUSH3 0x461BCD PUSH1 0xE5 SHL DUP2 MSTORE PUSH1 0x20 PUSH1 0x4 DUP3 ADD MSTORE PUSH1 0x30 PUSH1 0x24 DUP3 ADD MSTORE PUSH32 0x4D6178206665652070657263656E74616765206D757374206265206265747765 PUSH1 0x44 DUP3 ADD MSTORE PUSH16 0x656E20302E352520616E642031303025 PUSH1 0x80 SHL PUSH1 0x64 DUP3 ADD MSTORE PUSH1 0x84 ADD PUSH2 0x964 JUMP JUMPDEST PUSH1 0x40 MLOAD PUSH4 0x21E37801 PUSH1 0xE0 SHL DUP2 MSTORE PUSH1 0x1 PUSH1 0x1 PUSH1 0xA0 SHL SUB DUP3 DUP2 AND PUSH1 0x4 DUP4 ADD MSTORE PUSH1 0x0 SWAP2 SWAP1 DUP5 AND SWAP1 PUSH4 0x21E37801 SWAP1 PUSH1 0x24 ADD PUSH1 0x20 PUSH1 0x40 MLOAD DUP1 DUP4 SUB DUP2 DUP7 GAS STATICCALL ISZERO DUP1 ISZERO PUSH2 0x233D JUMPI RETURNDATASIZE PUSH1 0x0 DUP1 RETURNDATACOPY RETURNDATASIZE PUSH1 0x0 REVERT JUMPDEST POP POP POP POP PUSH1 0x40 MLOAD RETURNDATASIZE PUSH1 0x1F NOT PUSH1 0x1F DUP3 ADD AND DUP3 ADD DUP1 PUSH1 0x40 MSTORE POP DUP2 ADD SWAP1 PUSH2 0x2361 SWAP2 SWAP1 PUSH2 0x359C JUMP JUMPDEST SWAP1 POP DUP1 PUSH1 0x1 SUB PUSH2 0x52F JUMPI PUSH1 0x40 MLOAD PUSH3 0x461BCD PUSH1 0xE5 SHL DUP2 MSTORE PUSH1 0x20 PUSH1 0x4 DUP3 ADD MSTORE PUSH1 0x1C PUSH1 0x24 DUP3 ADD MSTORE PUSH32 0x426F72726F7765724F70733A2054726F76652069732061637469766500000000 PUSH1 0x44 DUP3 ADD MSTORE PUSH1 0x64 ADD PUSH2 0x964 JUMP JUMPDEST PUSH1 0x0 DUP5 PUSH1 0x1 PUSH1 0x1 PUSH1 0xA0 SHL SUB AND PUSH4 0x5DBA4C4A PUSH1 0x40 MLOAD DUP2 PUSH4 0xFFFFFFFF AND PUSH1 0xE0 SHL DUP2 MSTORE PUSH1 0x4 ADD PUSH1 0x0 PUSH1 0x40 MLOAD DUP1 DUP4 SUB DUP2 PUSH1 0x0 DUP8 DUP1 EXTCODESIZE ISZERO DUP1 ISZERO PUSH2 0x23F0 JUMPI PUSH1 0x0 DUP1 REVERT JUMPDEST POP GAS CALL ISZERO DUP1 ISZERO PUSH2 0x2404 JUMPI RETURNDATASIZE PUSH1 0x0 DUP1 RETURNDATACOPY RETURNDATASIZE PUSH1 0x0 REVERT JUMPDEST POP POP PUSH1 0x40 MLOAD PUSH4 0x631203B PUSH1 0xE4 SHL DUP2 MSTORE PUSH1 0x4 DUP2 ADD DUP7 SWAP1 MSTORE PUSH1 0x0 SWAP3 POP PUSH1 0x1 PUSH1 0x1 PUSH1 0xA0 SHL SUB DUP9 AND SWAP2 POP PUSH4 0x631203B0 SWAP1 PUSH1 0x24 ADD PUSH1 0x20 PUSH1 0x40 MLOAD DUP1 DUP4 SUB DUP2 DUP7 GAS STATICCALL ISZERO DUP1 ISZERO PUSH2 0x2450 JUMPI RETURNDATASIZE PUSH1 0x0 DUP1 RETURNDATACOPY RETURNDATASIZE PUSH1 0x0 REVERT JUMPDEST POP POP POP POP PUSH1 0x40 MLOAD RETURNDATASIZE PUSH1 0x1F NOT PUSH1 0x1F DUP3 ADD AND DUP3 ADD DUP1 PUSH1 0x40 MSTORE POP DUP2 ADD SWAP1 PUSH2 0x2474 SWAP2 SWAP1 PUSH2 0x359C JUMP JUMPDEST SWAP1 POP PUSH2 0x2481 DUP2 DUP6 DUP6 PUSH2 0x2FC4 JUMP JUMPDEST PUSH1 0x9 SLOAD PUSH1 0x40 MLOAD PUSH4 0x4677FFB3 PUSH1 0xE0 SHL DUP2 MSTORE PUSH1 0x4 DUP2 ADD DUP4 SWAP1 MSTORE PUSH1 0x1 PUSH1 0x1 PUSH1 0xA0 SHL SUB SWAP1 SWAP2 AND SWAP1 PUSH4 0x4677FFB3 SWAP1 PUSH1 0x24 ADD PUSH1 0x0 PUSH1 0x40 MLOAD DUP1 DUP4 SUB DUP2 PUSH1 0x0 DUP8 DUP1 EXTCODESIZE ISZERO DUP1 ISZERO PUSH2 0x24C7 JUMPI PUSH1 0x0 DUP1 REVERT JUMPDEST POP GAS CALL ISZERO DUP1 ISZERO PUSH2 0x24DB JUMPI RETURNDATASIZE PUSH1 0x0 DUP1 RETURNDATACOPY RETURNDATASIZE PUSH1 0x0 REVERT JUMPDEST POP POP PUSH1 0xA SLOAD PUSH1 0x40 MLOAD PUSH4 0x40C10F19 PUSH1 0xE0 SHL DUP2 MSTORE PUSH1 0x1 PUSH1 0x1 PUSH1 0xA0 SHL SUB DUP1 DUP11 AND SWAP5 POP PUSH4 0x40C10F19 SWAP4 POP PUSH2 0x2511 SWAP3 AND SWAP1 DUP6 SWAP1 PUSH1 0x4 ADD PUSH2 0x35F4 JUMP JUMPDEST PUSH1 0x0 PUSH1 0x40 MLOAD DUP1 DUP4 SUB DUP2 PUSH1 0x0 DUP8 DUP1 EXTCODESIZE ISZERO DUP1 ISZERO PUSH2 0x252B JUMPI PUSH1 0x0 DUP1 REVERT JUMPDEST POP GAS CALL ISZERO DUP1 ISZERO PUSH2 0x253F JUMPI RETURNDATASIZE PUSH1 0x0 DUP1 RETURNDATACOPY RETURNDATASIZE PUSH1 0x0 REVERT JUMPDEST POP SWAP3 SWAP9 SWAP8 POP POP POP POP POP POP POP POP JUMP JUMPDEST PUSH9 0x9C2007651B2500000 DUP2 LT ISZERO PUSH2 0x1647 JUMPI PUSH1 0x40 MLOAD PUSH3 0x461BCD PUSH1 0xE5 SHL DUP2 MSTORE PUSH1 0x20 PUSH1 0x4 DUP3 ADD MSTORE PUSH1 0x3A PUSH1 0x24 DUP3 ADD MSTORE PUSH32 0x426F72726F7765724F70733A2054726F76652773206E65742064656274206D75 PUSH1 0x44 DUP3 ADD MSTORE PUSH32 0x73742062652067726561746572207468616E206D696E696D756D000000000000 PUSH1 0x64 DUP3 ADD MSTORE PUSH1 0x84 ADD PUSH2 0x964 JUMP JUMPDEST PUSH1 0x0 DUP3 ISZERO PUSH2 0x25F3 JUMPI PUSH1 0x0 PUSH2 0x25EA DUP5 PUSH2 0x25E4 DUP8 DUP7 PUSH2 0x302E JUMP JUMPDEST SWAP1 PUSH2 0x30B0 JUMP JUMPDEST SWAP2 POP PUSH2 0x21BB SWAP1 POP JUMP JUMPDEST POP PUSH1 0x0 NOT SWAP4 SWAP3 POP POP POP JUMP JUMPDEST PUSH1 0x0 DUP2 ISZERO PUSH2 0x2624 JUMPI PUSH2 0x261D DUP3 PUSH2 0x25E4 DUP6 PUSH9 0x56BC75E2D63100000 PUSH2 0x302E JUMP JUMPDEST SWAP1 POP PUSH2 0x908 JUMP JUMPDEST POP PUSH1 0x0 NOT PUSH2 0x908 JUMP JUMPDEST PUSH8 0x14D1120D7B160000 DUP2 LT ISZERO PUSH2 0x1647 JUMPI PUSH1 0x40 MLOAD PUSH3 0x461BCD PUSH1 0xE5 SHL DUP2 MSTORE PUSH1 0x20 PUSH1 0x4 DUP3 ADD MSTORE PUSH1 0x37 PUSH1 0x24 DUP3 ADD MSTORE PUSH32 0x426F72726F7765724F70733A204F7065726174696F6E206D757374206C656176 PUSH1 0x44 DUP3 ADD MSTORE PUSH32 0x652074726F7665207769746820494352203E3D20434352000000000000000000 PUSH1 0x64 DUP3 ADD MSTORE PUSH1 0x84 ADD PUSH2 0x964 JUMP JUMPDEST PUSH8 0xF43FC2C04EE0000 DUP2 LT ISZERO PUSH2 0x1647 JUMPI PUSH1 0x40 MLOAD PUSH3 0x461BCD PUSH1 0xE5 SHL DUP2 MSTORE PUSH1 0x20 PUSH1 0x4 DUP3 ADD MSTORE PUSH1 0x49 PUSH1 0x24 DUP3 ADD MSTORE PUSH32 0x426F72726F7765724F70733A20416E206F7065726174696F6E20746861742077 PUSH1 0x44 DUP3 ADD MSTORE PUSH32 0x6F756C6420726573756C7420696E20494352203C204D4352206973206E6F7420 PUSH1 0x64 DUP3 ADD MSTORE PUSH9 0x1C195C9B5A5D1D1959 PUSH1 0xBA SHL PUSH1 0x84 DUP3 ADD MSTORE PUSH1 0xA4 ADD PUSH2 0x964 JUMP JUMPDEST PUSH1 0x4 DUP1 SLOAD PUSH1 0x40 MLOAD PUSH4 0x23B872DD PUSH1 0xE0 SHL DUP2 MSTORE CALLER SWAP3 DUP2 ADD SWAP3 SWAP1 SWAP3 MSTORE PUSH1 0x1 PUSH1 0x1 PUSH1 0xA0 SHL SUB DUP5 DUP2 AND PUSH1 0x24 DUP5 ADD MSTORE PUSH1 0x44 DUP4 ADD DUP5 SWAP1 MSTORE AND SWAP1 PUSH4 0x23B872DD SWAP1 PUSH1 0x64 ADD PUSH1 0x20 PUSH1 0x40 MLOAD DUP1 DUP4 SUB DUP2 PUSH1 0x0 DUP8 GAS CALL ISZERO DUP1 ISZERO PUSH2 0x2795 JUMPI RETURNDATASIZE PUSH1 0x0 DUP1 RETURNDATACOPY RETURNDATASIZE PUSH1 0x0 REVERT JUMPDEST POP POP POP POP PUSH1 0x40 MLOAD RETURNDATASIZE PUSH1 0x1F NOT PUSH1 0x1F DUP3 ADD AND DUP3 ADD DUP1 PUSH1 0x40 MSTORE POP DUP2 ADD SWAP1 PUSH2 0x27B9 SWAP2 SWAP1 PUSH2 0x36A4 JUMP JUMPDEST PUSH2 0x281C JUMPI PUSH1 0x40 MLOAD PUSH3 0x461BCD PUSH1 0xE5 SHL DUP2 MSTORE PUSH1 0x20 PUSH1 0x4 DUP3 ADD MSTORE PUSH1 0x2E PUSH1 0x24 DUP3 ADD MSTORE PUSH32 0x426F72726F7765724F70733A2053656E64696E67205745544820746F20416374 PUSH1 0x44 DUP3 ADD MSTORE PUSH14 0x1A5D99541BDBDB0819985A5B1959 PUSH1 0x92 SHL PUSH1 0x64 DUP3 ADD MSTORE PUSH1 0x84 ADD PUSH2 0x964 JUMP JUMPDEST PUSH1 0x40 MLOAD PUSH4 0x409C0B3 PUSH1 0xE5 SHL DUP2 MSTORE PUSH1 0x4 DUP2 ADD DUP3 SWAP1 MSTORE PUSH1 0x1 PUSH1 0x1 PUSH1 0xA0 SHL SUB DUP4 AND SWAP1 PUSH4 0x81381660 SWAP1 PUSH1 0x24 ADD PUSH1 0x0 PUSH1 0x40 MLOAD DUP1 DUP4 SUB DUP2 PUSH1 0x0 DUP8 DUP1 EXTCODESIZE ISZERO DUP1 ISZERO PUSH2 0x285E JUMPI PUSH1 0x0 DUP1 REVERT JUMPDEST POP GAS CALL ISZERO DUP1 ISZERO PUSH2 0x2872 JUMPI RETURNDATASIZE PUSH1 0x0 DUP1 RETURNDATACOPY RETURNDATASIZE PUSH1 0x0 REVERT JUMPDEST POP POP POP POP POP POP JUMP JUMPDEST PUSH1 0x40 MLOAD PUSH4 0x67DC994D PUSH1 0xE1 SHL DUP2 MSTORE PUSH1 0x4 DUP2 ADD DUP3 SWAP1 MSTORE PUSH1 0x1 PUSH1 0x1 PUSH1 0xA0 SHL SUB DUP7 AND SWAP1 PUSH4 0xCFB9329A SWAP1 PUSH1 0x24 ADD PUSH1 0x0 PUSH1 0x40 MLOAD DUP1 DUP4 SUB DUP2 PUSH1 0x0 DUP8 DUP1 EXTCODESIZE ISZERO DUP1 ISZERO PUSH2 0x28BC JUMPI PUSH1 0x0 DUP1 REVERT JUMPDEST POP GAS CALL ISZERO DUP1 ISZERO PUSH2 0x28D0 JUMPI RETURNDATASIZE PUSH1 0x0 DUP1 RETURNDATACOPY RETURNDATASIZE PUSH1 0x0 REVERT JUMPDEST POP POP PUSH1 0x40 MLOAD PUSH4 0x40C10F19 PUSH1 0xE0 SHL DUP2 MSTORE PUSH1 0x1 PUSH1 0x1 PUSH1 0xA0 SHL SUB DUP8 AND SWAP3 POP PUSH4 0x40C10F19 SWAP2 POP PUSH2 0x2902 SWAP1 DUP7 SWAP1 DUP7 SWAP1 PUSH1 0x4 ADD PUSH2 0x35F4 JUMP JUMPDEST PUSH1 0x0 PUSH1 0x40 MLOAD DUP1 DUP4 SUB DUP2 PUSH1 0x0 DUP8 DUP1 EXTCODESIZE ISZERO DUP1 ISZERO PUSH2 0x291C JUMPI PUSH1 0x0 DUP1 REVERT JUMPDEST POP GAS CALL ISZERO DUP1 ISZERO PUSH2 0x2930 JUMPI RETURNDATASIZE PUSH1 0x0 DUP1 RETURNDATACOPY RETURNDATASIZE PUSH1 0x0 REVERT JUMPDEST POP POP POP POP POP POP POP POP POP JUMP JUMPDEST PUSH1 0x3 SLOAD PUSH1 0x40 MLOAD PUSH1 0x0 SWAP2 PUSH1 0x1 PUSH1 0x1 PUSH1 0xA0 SHL SUB AND SWAP1 PUSH32 0x8BE0079C531659141344CD1FD0A4F28419497F9722A3DAAFE3B4186F6B6457E0 SWAP1 DUP4 SWAP1 LOG3 PUSH1 0x3 DUP1 SLOAD PUSH1 0x1 PUSH1 0x1 PUSH1 0xA0 SHL SUB NOT AND SWAP1 SSTORE JUMP JUMPDEST PUSH1 0x6 SLOAD PUSH1 0x1 PUSH1 0x1 PUSH1 0xA0 SHL SUB AND CALLER EQ PUSH2 0x29F1 JUMPI PUSH1 0x40 MLOAD PUSH3 0x461BCD PUSH1 0xE5 SHL DUP2 MSTORE PUSH1 0x20 PUSH1 0x4 DUP3 ADD MSTORE PUSH1 0x29 PUSH1 0x24 DUP3 ADD MSTORE PUSH32 0x426F72726F7765724F70733A2043616C6C6572206973206E6F74205374616269 PUSH1 0x44 DUP3 ADD MSTORE PUSH9 0x1B1A5D1E48141BDBDB PUSH1 0xBA SHL PUSH1 0x64 DUP3 ADD MSTORE PUSH1 0x84 ADD PUSH2 0x964 JUMP JUMPDEST JUMP JUMPDEST PUSH1 0x0 DUP2 GT PUSH2 0x1647 JUMPI PUSH1 0x40 MLOAD PUSH3 0x461BCD PUSH1 0xE5 SHL DUP2 MSTORE PUSH1 0x20 PUSH1 0x4 DUP3 ADD MSTORE PUSH1 0x37 PUSH1 0x24 DUP3 ADD MSTORE PUSH32 0x426F72726F7765724F70733A204465627420696E637265617365207265717569 PUSH1 0x44 DUP3 ADD MSTORE PUSH32 0x726573206E6F6E2D7A65726F20646562744368616E6765000000000000000000 PUSH1 0x64 DUP3 ADD MSTORE PUSH1 0x84 ADD PUSH2 0x964 JUMP JUMPDEST DUP2 ISZERO DUP1 PUSH2 0x2A74 JUMPI POP DUP1 ISZERO JUMPDEST PUSH2 0x2158 JUMPI PUSH1 0x40 MLOAD PUSH3 0x461BCD PUSH1 0xE5 SHL DUP2 MSTORE PUSH1 0x20 PUSH1 0x4 DUP3 ADD MSTORE PUSH1 0x30 PUSH1 0x24 DUP3 ADD MSTORE PUSH32 0x426F72726F7765724F7065726174696F6E733A2043616E6E6F74207769746864 PUSH1 0x44 DUP3 ADD MSTORE PUSH16 0x1C985DC8185B99081859190818DBDB1B PUSH1 0x82 SHL PUSH1 0x64 DUP3 ADD MSTORE PUSH1 0x84 ADD PUSH2 0x964 JUMP JUMPDEST DUP3 ISZERO ISZERO DUP1 PUSH2 0x2AE6 JUMPI POP DUP2 ISZERO ISZERO JUMPDEST DUP1 PUSH2 0x2AF0 JUMPI POP DUP1 ISZERO ISZERO JUMPDEST PUSH2 0x52F JUMPI PUSH1 0x40 MLOAD PUSH3 0x461BCD PUSH1 0xE5 SHL DUP2 MSTORE PUSH1 0x20 PUSH1 0x4 DUP3 ADD MSTORE PUSH1 0x46 PUSH1 0x24 DUP3 ADD MSTORE PUSH32 0x426F72726F7765724F70733A205468657265206D757374206265206569746865 PUSH1 0x44 DUP3 ADD MSTORE PUSH32 0x72206120636F6C6C61746572616C206368616E6765206F722061206465627420 PUSH1 0x64 DUP3 ADD MSTORE PUSH6 0x6368616E6765 PUSH1 0xD0 SHL PUSH1 0x84 DUP3 ADD MSTORE PUSH1 0xA4 ADD PUSH2 0x964 JUMP JUMPDEST PUSH1 0x0 DUP1 DUP4 ISZERO PUSH2 0x2B85 JUMPI POP DUP3 SWAP1 POP PUSH1 0x1 PUSH2 0x2B89 JUMP JUMPDEST DUP3 SWAP2 POP JUMPDEST SWAP3 POP SWAP3 SWAP1 POP JUMP JUMPDEST PUSH1 0x0 DUP1 PUSH1 0x0 PUSH2 0x2BA3 DUP11 DUP11 DUP11 DUP11 DUP11 DUP11 PUSH2 0x30F2 JUMP JUMPDEST SWAP2 POP SWAP2 POP PUSH1 0x0 PUSH2 0x2BB4 DUP4 DUP4 DUP8 PUSH2 0x25CC JUMP JUMPDEST SWAP12 SWAP11 POP POP POP POP POP POP POP POP POP POP POP JUMP JUMPDEST DUP4 ISZERO PUSH2 0x2BFC JUMPI PUSH2 0x2BD2 DUP4 PUSH2 0x3130 JUMP JUMPDEST DUP2 ISZERO PUSH2 0x2BF7 JUMPI PUSH2 0x2BE5 DUP2 PUSH1 0xE0 ADD MLOAD PUSH2 0x262D JUMP JUMPDEST PUSH2 0x2BF7 DUP2 PUSH1 0xE0 ADD MLOAD DUP3 PUSH1 0xC0 ADD MLOAD PUSH2 0x31A4 JUMP JUMPDEST PUSH2 0x8F7 JUMP JUMPDEST PUSH2 0x2C09 DUP2 PUSH1 0xE0 ADD MLOAD PUSH2 0x26AB JUMP JUMPDEST PUSH2 0x2C26 DUP2 PUSH1 0x20 ADD MLOAD DUP3 PUSH1 0x60 ADD MLOAD DUP4 PUSH1 0x40 ADD MLOAD DUP6 DUP6 PUSH1 0x0 ADD MLOAD PUSH2 0x1EDB JUMP JUMPDEST PUSH2 0x100 DUP3 ADD DUP2 SWAP1 MSTORE PUSH2 0x8F7 SWAP1 PUSH2 0x1F4E JUMP JUMPDEST PUSH1 0x0 PUSH2 0x908 DUP3 PUSH9 0x1158E460913D00000 PUSH2 0x321A JUMP JUMPDEST PUSH2 0x2C5F PUSH9 0x1158E460913D00000 DUP4 PUSH2 0x35CB JUMP JUMPDEST DUP2 GT ISZERO PUSH2 0x2158 JUMPI PUSH1 0x40 MLOAD PUSH3 0x461BCD PUSH1 0xE5 SHL DUP2 MSTORE PUSH1 0x20 PUSH1 0x4 DUP3 ADD MSTORE PUSH1 0x43 PUSH1 0x24 DUP3 ADD MSTORE PUSH32 0x426F72726F7765724F70733A20416D6F756E7420726570616964206D75737420 PUSH1 0x44 DUP3 ADD MSTORE PUSH32 0x6E6F74206265206C6172676572207468616E207468652054726F766527732064 PUSH1 0x64 DUP3 ADD MSTORE PUSH3 0x19589D PUSH1 0xEA SHL PUSH1 0x84 DUP3 ADD MSTORE PUSH1 0xA4 ADD PUSH2 0x964 JUMP JUMPDEST PUSH1 0x0 DUP1 PUSH1 0x0 DUP6 PUSH2 0x2D60 JUMPI PUSH1 0x40 MLOAD PUSH4 0xD3D6F843 PUSH1 0xE0 SHL DUP2 MSTORE PUSH1 0x1 PUSH1 0x1 PUSH1 0xA0 SHL SUB DUP11 AND SWAP1 PUSH4 0xD3D6F843 SWAP1 PUSH2 0x2D18 SWAP1 DUP12 SWAP1 DUP12 SWAP1 PUSH1 0x4 ADD PUSH2 0x35F4 JUMP JUMPDEST PUSH1 0x20 PUSH1 0x40 MLOAD DUP1 DUP4 SUB DUP2 PUSH1 0x0 DUP8 GAS CALL ISZERO DUP1 ISZERO PUSH2 0x2D37 JUMPI RETURNDATASIZE PUSH1 0x0 DUP1 RETURNDATACOPY RETURNDATASIZE PUSH1 0x0 REVERT JUMPDEST POP POP POP POP PUSH1 0x40 MLOAD RETURNDATASIZE PUSH1 0x1F NOT PUSH1 0x1F DUP3 ADD AND DUP3 ADD DUP1 PUSH1 0x40 MSTORE POP DUP2 ADD SWAP1 PUSH2 0x2D5B SWAP2 SWAP1 PUSH2 0x359C JUMP JUMPDEST PUSH2 0x2DD1 JUMP JUMPDEST PUSH1 0x40 MLOAD PUSH4 0x72423C17 PUSH1 0xE0 SHL DUP2 MSTORE PUSH1 0x1 PUSH1 0x1 PUSH1 0xA0 SHL SUB DUP11 AND SWAP1 PUSH4 0x72423C17 SWAP1 PUSH2 0x2D8E SWAP1 DUP12 SWAP1 DUP12 SWAP1 PUSH1 0x4 ADD PUSH2 0x35F4 JUMP JUMPDEST PUSH1 0x20 PUSH1 0x40 MLOAD DUP1 DUP4 SUB DUP2 PUSH1 0x0 DUP8 GAS CALL ISZERO DUP1 ISZERO PUSH2 0x2DAD JUMPI RETURNDATASIZE PUSH1 0x0 DUP1 RETURNDATACOPY RETURNDATASIZE PUSH1 0x0 REVERT JUMPDEST POP POP POP POP PUSH1 0x40 MLOAD RETURNDATASIZE PUSH1 0x1F NOT PUSH1 0x1F DUP3 ADD AND DUP3 ADD DUP1 PUSH1 0x40 MSTORE POP DUP2 ADD SWAP1 PUSH2 0x2DD1 SWAP2 SWAP1 PUSH2 0x359C JUMP JUMPDEST SWAP1 POP PUSH1 0x0 DUP5 PUSH2 0x2E50 JUMPI PUSH1 0x40 MLOAD PUSH4 0x9308749 PUSH1 0xE1 SHL DUP2 MSTORE PUSH1 0x1 PUSH1 0x1 PUSH1 0xA0 SHL SUB DUP12 AND SWAP1 PUSH4 0x12610E92 SWAP1 PUSH2 0x2E08 SWAP1 DUP13 SWAP1 DUP11 SWAP1 PUSH1 0x4 ADD PUSH2 0x35F4 JUMP JUMPDEST PUSH1 0x20 PUSH1 0x40 MLOAD DUP1 DUP4 SUB DUP2 PUSH1 0x0 DUP8 GAS CALL ISZERO DUP1 ISZERO PUSH2 0x2E27 JUMPI RETURNDATASIZE PUSH1 0x0 DUP1 RETURNDATACOPY RETURNDATASIZE PUSH1 0x0 REVERT JUMPDEST POP POP POP POP PUSH1 0x40 MLOAD RETURNDATASIZE PUSH1 0x1F NOT PUSH1 0x1F DUP3 ADD AND DUP3 ADD DUP1 PUSH1 0x40 MSTORE POP DUP2 ADD SWAP1 PUSH2 0x2E4B SWAP2 SWAP1 PUSH2 0x359C JUMP JUMPDEST PUSH2 0x2EC1 JUMP JUMPDEST PUSH1 0x40 MLOAD PUSH4 0x9976CF45 PUSH1 0xE0 SHL DUP2 MSTORE PUSH1 0x1 PUSH1 0x1 PUSH1 0xA0 SHL SUB DUP12 AND SWAP1 PUSH4 0x9976CF45 SWAP1 PUSH2 0x2E7E SWAP1 DUP13 SWAP1 DUP11 SWAP1 PUSH1 0x4 ADD PUSH2 0x35F4 JUMP JUMPDEST PUSH1 0x20 PUSH1 0x40 MLOAD DUP1 DUP4 SUB DUP2 PUSH1 0x0 DUP8 GAS CALL ISZERO DUP1 ISZERO PUSH2 0x2E9D JUMPI RETURNDATASIZE PUSH1 0x0 DUP1 RETURNDATACOPY RETURNDATASIZE PUSH1 0x0 REVERT JUMPDEST POP POP POP POP PUSH1 0x40 MLOAD RETURNDATASIZE PUSH1 0x1F NOT PUSH1 0x1F DUP3 ADD AND DUP3 ADD DUP1 PUSH1 0x40 MSTORE POP DUP2 ADD SWAP1 PUSH2 0x2EC1 SWAP2 SWAP1 PUSH2 0x359C JUMP JUMPDEST SWAP2 SWAP11 SWAP2 SWAP10 POP SWAP1 SWAP8 POP POP POP POP POP POP POP POP JUMP JUMPDEST PUSH1 0x0 DUP1 PUSH1 0x0 PUSH2 0x2EE5 DUP10 DUP10 DUP10 DUP10 DUP10 DUP10 PUSH2 0x30F2 JUMP JUMPDEST SWAP2 POP SWAP2 POP PUSH1 0x0 PUSH2 0x2EF5 DUP4 DUP4 PUSH2 0x25FE JUMP JUMPDEST SWAP11 SWAP10 POP POP POP POP POP POP POP POP POP POP JUMP JUMPDEST DUP2 ISZERO PUSH2 0x2F1B JUMPI PUSH2 0x2F16 DUP9 DUP9 DUP9 DUP7 DUP6 PUSH2 0x287A JUMP JUMPDEST PUSH2 0x2F27 JUMP JUMPDEST PUSH2 0x2F27 DUP9 DUP9 DUP9 DUP7 PUSH2 0x1FDE JUMP JUMPDEST DUP4 ISZERO PUSH2 0x2F3C JUMPI PUSH2 0x2F37 DUP9 DUP7 PUSH2 0x273B JUMP JUMPDEST PUSH2 0x2094 JUMP JUMPDEST PUSH1 0x40 MLOAD PUSH4 0x64A197F3 PUSH1 0xE0 SHL DUP2 MSTORE PUSH1 0x1 PUSH1 0x1 PUSH1 0xA0 SHL SUB DUP10 AND SWAP1 PUSH4 0x64A197F3 SWAP1 PUSH2 0x2F6A SWAP1 DUP10 SWAP1 DUP10 SWAP1 PUSH1 0x4 ADD PUSH2 0x35F4 JUMP JUMPDEST PUSH1 0x0 PUSH1 0x40 MLOAD DUP1 DUP4 SUB DUP2 PUSH1 0x0 DUP8 DUP1 EXTCODESIZE ISZERO DUP1 ISZERO PUSH2 0x2F84 JUMPI PUSH1 0x0 DUP1 REVERT JUMPDEST POP GAS CALL ISZERO DUP1 ISZERO PUSH2 0x1C99 JUMPI RETURNDATASIZE PUSH1 0x0 DUP1 RETURNDATACOPY RETURNDATASIZE PUSH1 0x0 REVERT JUMPDEST PUSH1 0x0 DUP1 PUSH2 0x2FA3 PUSH2 0xE97 JUMP JUMPDEST SWAP1 POP PUSH1 0x0 PUSH2 0x2FAF PUSH2 0xD9B JUMP JUMPDEST SWAP1 POP PUSH2 0x2FBC DUP3 DUP3 DUP7 PUSH2 0x25CC JUMP JUMPDEST SWAP5 SWAP4 POP POP POP POP JUMP JUMPDEST PUSH1 0x0 PUSH2 0x2FDC DUP4 PUSH2 0x25E4 DUP7 PUSH8 0xDE0B6B3A7640000 PUSH2 0x302E JUMP JUMPDEST SWAP1 POP DUP2 DUP2 GT ISZERO PUSH2 0x8F7 JUMPI PUSH1 0x40 MLOAD PUSH3 0x461BCD PUSH1 0xE5 SHL DUP2 MSTORE PUSH1 0x20 PUSH1 0x4 DUP3 ADD MSTORE PUSH1 0x1D PUSH1 0x24 DUP3 ADD MSTORE PUSH32 0x4665652065786365656465642070726F7669646564206D6178696D756D000000 PUSH1 0x44 DUP3 ADD MSTORE PUSH1 0x64 ADD PUSH2 0x964 JUMP JUMPDEST PUSH1 0x0 DUP3 PUSH1 0x0 SUB PUSH2 0x3040 JUMPI POP PUSH1 0x0 PUSH2 0x908 JUMP JUMPDEST PUSH1 0x0 PUSH2 0x304C DUP4 DUP6 PUSH2 0x368D JUMP JUMPDEST SWAP1 POP DUP3 PUSH2 0x3059 DUP6 DUP4 PUSH2 0x366B JUMP JUMPDEST EQ PUSH2 0x21BB JUMPI PUSH1 0x40 MLOAD PUSH3 0x461BCD PUSH1 0xE5 SHL DUP2 MSTORE PUSH1 0x20 PUSH1 0x4 DUP3 ADD MSTORE PUSH1 0x21 PUSH1 0x24 DUP3 ADD MSTORE PUSH32 0x536166654D6174683A206D756C7469706C69636174696F6E206F766572666C6F PUSH1 0x44 DUP3 ADD MSTORE PUSH1 0x77 PUSH1 0xF8 SHL PUSH1 0x64 DUP3 ADD MSTORE PUSH1 0x84 ADD PUSH2 0x964 JUMP JUMPDEST PUSH1 0x0 PUSH2 0x21BB DUP4 DUP4 PUSH1 0x40 MLOAD DUP1 PUSH1 0x40 ADD PUSH1 0x40 MSTORE DUP1 PUSH1 0x1A DUP2 MSTORE PUSH1 0x20 ADD PUSH32 0x536166654D6174683A206469766973696F6E206279207A65726F000000000000 DUP2 MSTORE POP PUSH2 0x325C JUMP JUMPDEST PUSH1 0x0 DUP1 DUP8 DUP8 DUP7 PUSH2 0x310B JUMPI PUSH2 0x3106 DUP9 DUP12 PUSH2 0x35CB JUMP JUMPDEST PUSH2 0x3115 JUMP JUMPDEST PUSH2 0x3115 DUP9 DUP12 PUSH2 0x3658 JUMP JUMPDEST SWAP2 POP DUP5 PUSH2 0x3126 JUMPI PUSH2 0x2E4B DUP7 DUP11 PUSH2 0x35CB JUMP JUMPDEST PUSH2 0x2EC1 DUP7 DUP11 PUSH2 0x3658 JUMP JUMPDEST DUP1 ISZERO PUSH2 0x1647 JUMPI PUSH1 0x40 MLOAD PUSH3 0x461BCD PUSH1 0xE5 SHL DUP2 MSTORE PUSH1 0x20 PUSH1 0x4 DUP3 ADD MSTORE PUSH1 0x3E PUSH1 0x24 DUP3 ADD MSTORE PUSH32 0x426F72726F7765724F70733A20436F6C6C61746572616C207769746864726177 PUSH1 0x44 DUP3 ADD MSTORE PUSH32 0x616C206E6F74207065726D6974746564205265636F76657279204D6F64650000 PUSH1 0x64 DUP3 ADD MSTORE PUSH1 0x84 ADD PUSH2 0x964 JUMP JUMPDEST DUP1 DUP3 LT ISZERO PUSH2 0x2158 JUMPI PUSH1 0x40 MLOAD PUSH3 0x461BCD PUSH1 0xE5 SHL DUP2 MSTORE PUSH1 0x20 PUSH1 0x4 DUP3 ADD MSTORE PUSH1 0x3E PUSH1 0x24 DUP3 ADD MSTORE PUSH32 0x426F72726F7765724F70733A2043616E6E6F7420646563726561736520796F75 PUSH1 0x44 DUP3 ADD MSTORE PUSH32 0x722054726F766527732049435220696E205265636F76657279204D6F64650000 PUSH1 0x64 DUP3 ADD MSTORE PUSH1 0x84 ADD PUSH2 0x964 JUMP JUMPDEST PUSH1 0x0 PUSH2 0x21BB DUP4 DUP4 PUSH1 0x40 MLOAD DUP1 PUSH1 0x40 ADD PUSH1 0x40 MSTORE DUP1 PUSH1 0x1E DUP2 MSTORE PUSH1 0x20 ADD PUSH32 0x536166654D6174683A207375627472616374696F6E206F766572666C6F770000 DUP2 MSTORE POP PUSH2 0x3293 JUMP JUMPDEST PUSH1 0x0 DUP2 DUP4 PUSH2 0x327D JUMPI PUSH1 0x40 MLOAD PUSH3 0x461BCD PUSH1 0xE5 SHL DUP2 MSTORE PUSH1 0x4 ADD PUSH2 0x964 SWAP2 SWAP1 PUSH2 0x351A JUMP JUMPDEST POP PUSH1 0x0 PUSH2 0x328A DUP5 DUP7 PUSH2 0x366B JUMP JUMPDEST SWAP6 SWAP5 POP POP POP POP POP JUMP JUMPDEST PUSH1 0x0 DUP2 DUP5 DUP5 GT ISZERO PUSH2 0x32B7 JUMPI PUSH1 0x40 MLOAD PUSH3 0x461BCD PUSH1 0xE5 SHL DUP2 MSTORE PUSH1 0x4 ADD PUSH2 0x964 SWAP2 SWAP1 PUSH2 0x351A JUMP JUMPDEST POP PUSH1 0x0 PUSH2 0x328A DUP5 DUP7 PUSH2 0x35CB JUMP JUMPDEST DUP1 CALLDATALOAD PUSH1 0x1 PUSH1 0x1 PUSH1 0xA0 SHL SUB DUP2 AND DUP2 EQ PUSH2 0x32DB JUMPI PUSH1 0x0 DUP1 REVERT JUMPDEST SWAP2 SWAP1 POP JUMP JUMPDEST PUSH1 0x0 DUP1 PUSH1 0x0 PUSH1 0x60 DUP5 DUP7 SUB SLT ISZERO PUSH2 0x32F5 JUMPI PUSH1 0x0 DUP1 REVERT JUMPDEST DUP4 CALLDATALOAD SWAP3 POP PUSH2 0x3305 PUSH1 0x20 DUP6 ADD PUSH2 0x32C4 JUMP JUMPDEST SWAP2 POP PUSH2 0x3313 PUSH1 0x40 DUP6 ADD PUSH2 0x32C4 JUMP JUMPDEST SWAP1 POP SWAP3 POP SWAP3 POP SWAP3 JUMP JUMPDEST PUSH1 0x0 DUP1 PUSH1 0x0 DUP1 PUSH1 0x80 DUP6 DUP8 SUB SLT ISZERO PUSH2 0x3332 JUMPI PUSH1 0x0 DUP1 REVERT JUMPDEST DUP5 CALLDATALOAD SWAP4 POP PUSH1 0x20 DUP6 ADD CALLDATALOAD SWAP3 POP PUSH2 0x3349 PUSH1 0x40 DUP7 ADD PUSH2 0x32C4 JUMP JUMPDEST SWAP2 POP PUSH2 0x3357 PUSH1 0x60 DUP7 ADD PUSH2 0x32C4 JUMP JUMPDEST SWAP1 POP SWAP3 SWAP6 SWAP2 SWAP5 POP SWAP3 POP JUMP JUMPDEST PUSH1 0x0 PUSH1 0x20 DUP3 DUP5 SUB SLT ISZERO PUSH2 0x3374 JUMPI PUSH1 0x0 DUP1 REVERT JUMPDEST POP CALLDATALOAD SWAP2 SWAP1 POP JUMP JUMPDEST DUP1 ISZERO ISZERO DUP2 EQ PUSH2 0x1647 JUMPI PUSH1 0x0 DUP1 REVERT JUMPDEST PUSH1 0x0 DUP1 PUSH1 0x0 DUP1 PUSH1 0x0 DUP1 PUSH1 0x0 PUSH1 0xE0 DUP9 DUP11 SUB SLT ISZERO PUSH2 0x33A4 JUMPI PUSH1 0x0 DUP1 REVERT JUMPDEST DUP8 CALLDATALOAD SWAP7 POP PUSH1 0x20 DUP9 ADD CALLDATALOAD SWAP6 POP PUSH1 0x40 DUP9 ADD CALLDATALOAD SWAP5 POP PUSH1 0x60 DUP9 ADD CALLDATALOAD SWAP4 POP PUSH1 0x80 DUP9 ADD CALLDATALOAD PUSH2 0x33CB DUP2 PUSH2 0x337B JUMP JUMPDEST SWAP3 POP PUSH2 0x33D9 PUSH1 0xA0 DUP10 ADD PUSH2 0x32C4 JUMP JUMPDEST SWAP2 POP PUSH2 0x33E7 PUSH1 0xC0 DUP10 ADD PUSH2 0x32C4 JUMP JUMPDEST SWAP1 POP SWAP3 SWAP6 SWAP9 SWAP2 SWAP5 SWAP8 POP SWAP3 SWAP6 POP JUMP JUMPDEST PUSH1 0x0 DUP1 PUSH1 0x0 DUP1 PUSH1 0x0 DUP1 PUSH1 0x0 DUP1 PUSH1 0x0 DUP1 PUSH2 0x140 DUP12 DUP14 SUB SLT ISZERO PUSH2 0x3415 JUMPI PUSH1 0x0 DUP1 REVERT JUMPDEST PUSH2 0x341E DUP12 PUSH2 0x32C4 JUMP JUMPDEST SWAP10 POP PUSH2 0x342C PUSH1 0x20 DUP13 ADD PUSH2 0x32C4 JUMP JUMPDEST SWAP9 POP PUSH2 0x343A PUSH1 0x40 DUP13 ADD PUSH2 0x32C4 JUMP JUMPDEST SWAP8 POP PUSH2 0x3448 PUSH1 0x60 DUP13 ADD PUSH2 0x32C4 JUMP JUMPDEST SWAP7 POP PUSH2 0x3456 PUSH1 0x80 DUP13 ADD PUSH2 0x32C4 JUMP JUMPDEST SWAP6 POP PUSH2 0x3464 PUSH1 0xA0 DUP13 ADD PUSH2 0x32C4 JUMP JUMPDEST SWAP5 POP PUSH2 0x3472 PUSH1 0xC0 DUP13 ADD PUSH2 0x32C4 JUMP JUMPDEST SWAP4 POP PUSH2 0x3480 PUSH1 0xE0 DUP13 ADD PUSH2 0x32C4 JUMP JUMPDEST SWAP3 POP PUSH2 0x348F PUSH2 0x100 DUP13 ADD PUSH2 0x32C4 JUMP JUMPDEST SWAP2 POP PUSH2 0x349E PUSH2 0x120 DUP13 ADD PUSH2 0x32C4 JUMP JUMPDEST SWAP1 POP SWAP3 SWAP6 SWAP9 SWAP12 SWAP2 SWAP5 SWAP8 SWAP11 POP SWAP3 SWAP6 SWAP9 POP JUMP JUMPDEST PUSH1 0x0 PUSH1 0x20 DUP3 DUP5 SUB SLT ISZERO PUSH2 0x34C1 JUMPI PUSH1 0x0 DUP1 REVERT JUMPDEST PUSH2 0x21BB DUP3 PUSH2 0x32C4 JUMP JUMPDEST PUSH1 0x0 DUP1 PUSH1 0x0 DUP1 PUSH1 0x0 PUSH1 0xA0 DUP7 DUP9 SUB SLT ISZERO PUSH2 0x34E2 JUMPI PUSH1 0x0 DUP1 REVERT JUMPDEST DUP6 CALLDATALOAD SWAP5 POP PUSH1 0x20 DUP7 ADD CALLDATALOAD SWAP4 POP PUSH1 0x40 DUP7 ADD CALLDATALOAD SWAP3 POP PUSH2 0x3500 PUSH1 0x60 DUP8 ADD PUSH2 0x32C4 JUMP JUMPDEST SWAP2 POP PUSH2 0x350E PUSH1 0x80 DUP8 ADD PUSH2 0x32C4 JUMP JUMPDEST SWAP1 POP SWAP3 SWAP6 POP SWAP3 SWAP6 SWAP1 SWAP4 POP JUMP JUMPDEST PUSH1 0x0 PUSH1 0x20 DUP1 DUP4 MSTORE DUP4 MLOAD DUP1 DUP3 DUP6 ADD MSTORE PUSH1 0x0 JUMPDEST DUP2 DUP2 LT ISZERO PUSH2 0x3547 JUMPI DUP6 DUP2 ADD DUP4 ADD MLOAD DUP6 DUP3 ADD PUSH1 0x40 ADD MSTORE DUP3 ADD PUSH2 0x352B JUMP JUMPDEST POP PUSH1 0x0 PUSH1 0x40 DUP3 DUP7 ADD ADD MSTORE PUSH1 0x40 PUSH1 0x1F NOT PUSH1 0x1F DUP4 ADD AND DUP6 ADD ADD SWAP3 POP POP POP SWAP3 SWAP2 POP POP JUMP JUMPDEST PUSH1 0x0 DUP1 PUSH1 0x0 DUP1 PUSH1 0x80 DUP6 DUP8 SUB SLT ISZERO PUSH2 0x357E JUMPI PUSH1 0x0 DUP1 REVERT JUMPDEST DUP5 CALLDATALOAD SWAP4 POP PUSH2 0x358E PUSH1 0x20 DUP7 ADD PUSH2 0x32C4 JUMP JUMPDEST SWAP3 POP PUSH2 0x3349 PUSH1 0x40 DUP7 ADD PUSH2 0x32C4 JUMP JUMPDEST PUSH1 0x0 PUSH1 0x20 DUP3 DUP5 SUB SLT ISZERO PUSH2 0x35AE JUMPI PUSH1 0x0 DUP1 REVERT JUMPDEST POP MLOAD SWAP2 SWAP1 POP JUMP JUMPDEST PUSH4 0x4E487B71 PUSH1 0xE0 SHL PUSH1 0x0 MSTORE PUSH1 0x11 PUSH1 0x4 MSTORE PUSH1 0x24 PUSH1 0x0 REVERT JUMPDEST DUP2 DUP2 SUB DUP2 DUP2 GT ISZERO PUSH2 0x908 JUMPI PUSH2 0x908 PUSH2 0x35B5 JUMP JUMPDEST PUSH4 0x4E487B71 PUSH1 0xE0 SHL PUSH1 0x0 MSTORE PUSH1 0x21 PUSH1 0x4 MSTORE PUSH1 0x24 PUSH1 0x0 REVERT JUMPDEST PUSH1 0x1 PUSH1 0x1 PUSH1 0xA0 SHL SUB SWAP3 SWAP1 SWAP3 AND DUP3 MSTORE PUSH1 0x20 DUP3 ADD MSTORE PUSH1 0x40 ADD SWAP1 JUMP JUMPDEST PUSH1 0x20 DUP1 DUP3 MSTORE DUP2 DUP2 ADD MSTORE PUSH32 0x4F776E61626C653A2063616C6C6572206973206E6F7420746865206F776E6572 PUSH1 0x40 DUP3 ADD MSTORE PUSH1 0x60 ADD SWAP1 JUMP JUMPDEST PUSH4 0x4E487B71 PUSH1 0xE0 SHL PUSH1 0x0 MSTORE PUSH1 0x1 PUSH1 0x4 MSTORE PUSH1 0x24 PUSH1 0x0 REVERT JUMPDEST DUP1 DUP3 ADD DUP1 DUP3 GT ISZERO PUSH2 0x908 JUMPI PUSH2 0x908 PUSH2 0x35B5 JUMP JUMPDEST PUSH1 0x0 DUP3 PUSH2 0x3688 JUMPI PUSH4 0x4E487B71 PUSH1 0xE0 SHL PUSH1 0x0 MSTORE PUSH1 0x12 PUSH1 0x4 MSTORE PUSH1 0x24 PUSH1 0x0 REVERT JUMPDEST POP DIV SWAP1 JUMP JUMPDEST DUP1 DUP3 MUL DUP2 ISZERO DUP3 DUP3 DIV DUP5 EQ OR PUSH2 0x908 JUMPI PUSH2 0x908 PUSH2 0x35B5 JUMP JUMPDEST PUSH1 0x0 PUSH1 0x20 DUP3 DUP5 SUB SLT ISZERO PUSH2 0x36B6 JUMPI PUSH1 0x0 DUP1 REVERT JUMPDEST DUP2 MLOAD PUSH2 0x21BB DUP2 PUSH2 0x337B JUMP INVALID LOG2 PUSH5 0x6970667358 0x22 SLT KECCAK256 SIGNEXTEND 0x1E 0xC3 0x4C 0x5E 0xF8 0x21 0xD8 0x25 0x26 0x2A PUSH12 0x304009BD6F6FDA680280C3B8 BLOCKHASH RETURN 0xDB SELFBALANCE EXTCODECOPY PUSH28 0xC49164736F6C63430008140033000000000000000000000000000000 "
		},
		"gasEstimates": {
			"creation": {
				"codeDepositCost": "2814200",
				"executionCost": "28837",
				"totalCost": "2843037"
			},
			"external": {
				"BORROWING_FEE_FLOOR()": "476",
				"CCR()": "274",
				"DECIMAL_PRECISION()": "317",
				"LUSD_GAS_COMPENSATION()": "230",
				"MCR()": "252",
				"MIN_NET_DEBT()": "297",
				"NAME()": "infinite",
				"PERCENT_DIVISOR()": "318",
				"WETH()": "2426",
				"_100pct()": "295",
				"activePool()": "2449",
				"addColl(uint256,address,address)": "infinite",
				"adjustTrove(uint256,uint256,uint256,uint256,bool,address,address)": "infinite",
				"admin()": "2447",
				"claimCollateral()": "infinite",
				"closeTrove()": "infinite",
				"defaultPool()": "2427",
				"getCompositeDebt(uint256)": "infinite",
				"getEntireSystemColl()": "infinite",
				"getEntireSystemDebt()": "infinite",
				"initialize(address)": "83715",
				"isInitialized()": "2395",
				"isOwner()": "2432",
				"lqtyStaking()": "2382",
				"lqtyStakingAddress()": "2383",
				"lusdToken()": "2470",
				"moveETHGainToTrove(uint256,address,address,address)": "infinite",
				"openTrove(uint256,uint256,uint256,address,address)": "infinite",
				"owner()": "2398",
				"priceFeed()": "2470",
				"renounceAdmin()": "26559",
				"repayLUSD(uint256,address,address)": "infinite",
				"setAddresses(address,address,address,address,address,address,address,address,address,address)": "infinite",
				"setAdmin(address)": "26778",
				"setPriceFeed(address)": "26800",
				"sortedTroves()": "2448",
				"troveManager()": "2449",
				"withdrawColl(uint256,address,address)": "infinite",
				"withdrawLUSD(uint256,uint256,address,address)": "infinite"
			},
			"internal": {
				"_activePoolAddColl(contract IActivePool,uint256)": "infinite",
				"_adjustTrove(address,uint256,uint256,uint256,bool,address,address,uint256)": "infinite",
				"_getCollChange(uint256,uint256)": "72",
				"_getNewICRFromTroveChange(uint256,uint256,uint256,bool,uint256,bool,uint256)": "infinite",
				"_getNewNominalICRFromTroveChange(uint256,uint256,uint256,bool,uint256,bool)": "infinite",
				"_getNewTCRFromTroveChange(uint256,bool,uint256,bool,uint256)": "infinite",
				"_getNewTroveAmounts(uint256,uint256,uint256,bool,uint256,bool)": "infinite",
				"_getUSDValue(uint256,uint256)": "infinite",
				"_moveTokensAndETHfromAdjustment(contract IActivePool,contract ILUSDToken,address,uint256,bool,uint256,bool,uint256)": "infinite",
				"_repayLUSD(contract IActivePool,contract ILUSDToken,address,uint256)": "infinite",
				"_requireAtLeastMinNetDebt(uint256)": "infinite",
				"_requireCallerIsBorrower(address)": "infinite",
				"_requireCallerIsStabilityPool()": "infinite",
				"_requireICRisAboveCCR(uint256)": "infinite",
				"_requireICRisAboveMCR(uint256)": "infinite",
				"_requireNewICRisAboveOldICR(uint256,uint256)": "infinite",
				"_requireNewTCRisAboveCCR(uint256)": "infinite",
				"_requireNoCollWithdrawal(uint256)": "infinite",
				"_requireNonZeroAdjustment(uint256,uint256,uint256)": "infinite",
				"_requireNonZeroDebtChange(uint256)": "infinite",
				"_requireNotInRecoveryMode(uint256)": "infinite",
				"_requireSingularCollChange(uint256,uint256)": "infinite",
				"_requireSufficientLUSDBalance(contract ILUSDToken,address,uint256)": "infinite",
				"_requireTroveisActive(contract ITroveManager,address)": "infinite",
				"_requireTroveisNotActive(contract ITroveManager,address)": "infinite",
				"_requireValidAdjustmentInCurrentMode(bool,uint256,bool,struct BorrowerOperations.LocalVariables_adjustTrove memory)": "infinite",
				"_requireValidLUSDRepayment(uint256,uint256)": "infinite",
				"_requireValidMaxFeePercentage(uint256,bool)": "infinite",
				"_triggerBorrowingFee(contract ITroveManager,contract ILUSDToken,uint256,uint256)": "infinite",
				"_updateTroveFromAdjustment(contract ITroveManager,address,uint256,bool,uint256,bool)": "infinite",
				"_withdrawLUSD(contract IActivePool,contract ILUSDToken,address,uint256,uint256)": "infinite"
			}
		},
		"methodIdentifiers": {
			"BORROWING_FEE_FLOOR()": "f92d3433",
			"CCR()": "5733d58f",
			"DECIMAL_PRECISION()": "a20baee6",
			"LUSD_GAS_COMPENSATION()": "2e86bbd8",
			"MCR()": "794e5724",
			"MIN_NET_DEBT()": "1bf43555",
			"NAME()": "a3f4df7e",
			"PERCENT_DIVISOR()": "4870dd9a",
			"WETH()": "ad5c4648",
			"_100pct()": "72fe25aa",
			"activePool()": "7f7dde4a",
			"addColl(uint256,address,address)": "d56d6bbe",
			"adjustTrove(uint256,uint256,uint256,uint256,bool,address,address)": "5da8b1c3",
			"admin()": "f851a440",
			"claimCollateral()": "6f0b0c1c",
			"closeTrove()": "0e704d50",
			"defaultPool()": "3cc74225",
			"getCompositeDebt(uint256)": "4ff81443",
			"getEntireSystemColl()": "887105d3",
			"getEntireSystemDebt()": "795d26c3",
			"initialize(address)": "c4d66de8",
			"isInitialized()": "392e53cd",
			"isOwner()": "8f32d59b",
			"lqtyStaking()": "a3a64017",
			"lqtyStakingAddress()": "761ab22c",
			"lusdToken()": "b83f91a2",
			"moveETHGainToTrove(uint256,address,address,address)": "c4fcb919",
			"openTrove(uint256,uint256,uint256,address,address)": "8f09162b",
			"owner()": "8da5cb5b",
			"priceFeed()": "741bef1a",
			"renounceAdmin()": "8bad0c0a",
			"repayLUSD(uint256,address,address)": "04491fa7",
			"setAddresses(address,address,address,address,address,address,address,address,address,address)": "6c37a4af",
			"setAdmin(address)": "704b6c02",
			"setPriceFeed(address)": "724e78da",
			"sortedTroves()": "ae918754",
			"troveManager()": "3d83908a",
			"withdrawColl(uint256,address,address)": "5530273c",
			"withdrawLUSD(uint256,uint256,address,address)": "1184e5f8"
		}
	},
	"abi": [
		{
			"anonymous": false,
			"inputs": [
				{
					"indexed": false,
					"internalType": "address",
					"name": "_activePoolAddress",
					"type": "address"
				}
			],
			"name": "ActivePoolAddressChanged",
			"type": "event"
		},
		{
			"anonymous": false,
			"inputs": [
				{
					"indexed": false,
					"internalType": "address",
					"name": "_collSurplusPoolAddress",
					"type": "address"
				}
			],
			"name": "CollSurplusPoolAddressChanged",
			"type": "event"
		},
		{
			"anonymous": false,
			"inputs": [
				{
					"indexed": false,
					"internalType": "address",
					"name": "_defaultPoolAddress",
					"type": "address"
				}
			],
			"name": "DefaultPoolAddressChanged",
			"type": "event"
		},
		{
			"anonymous": false,
			"inputs": [
				{
					"indexed": false,
					"internalType": "address",
					"name": "_gasPoolAddress",
					"type": "address"
				}
			],
			"name": "GasPoolAddressChanged",
			"type": "event"
		},
		{
			"anonymous": false,
			"inputs": [
				{
					"indexed": false,
					"internalType": "address",
					"name": "_lqtyStakingAddress",
					"type": "address"
				}
			],
			"name": "LQTYStakingAddressChanged",
			"type": "event"
		},
		{
			"anonymous": false,
			"inputs": [
				{
					"indexed": true,
					"internalType": "address",
					"name": "_borrower",
					"type": "address"
				},
				{
					"indexed": false,
					"internalType": "uint256",
					"name": "_LUSDFee",
					"type": "uint256"
				}
			],
			"name": "LUSDBorrowingFeePaid",
			"type": "event"
		},
		{
			"anonymous": false,
			"inputs": [
				{
					"indexed": false,
					"internalType": "address",
					"name": "_lusdTokenAddress",
					"type": "address"
				}
			],
			"name": "LUSDTokenAddressChanged",
			"type": "event"
		},
		{
			"anonymous": false,
			"inputs": [
				{
					"indexed": true,
					"internalType": "address",
					"name": "previousOwner",
					"type": "address"
				},
				{
					"indexed": true,
					"internalType": "address",
					"name": "newOwner",
					"type": "address"
				}
			],
			"name": "OwnershipTransferred",
			"type": "event"
		},
		{
			"anonymous": false,
			"inputs": [
				{
					"indexed": false,
					"internalType": "address",
					"name": "_newPriceFeedAddress",
					"type": "address"
				}
			],
			"name": "PriceFeedAddressChanged",
			"type": "event"
		},
		{
			"anonymous": false,
			"inputs": [
				{
					"indexed": false,
					"internalType": "address",
					"name": "_sortedTrovesAddress",
					"type": "address"
				}
			],
			"name": "SortedTrovesAddressChanged",
			"type": "event"
		},
		{
			"anonymous": false,
			"inputs": [
				{
					"indexed": false,
					"internalType": "address",
					"name": "_stabilityPoolAddress",
					"type": "address"
				}
			],
			"name": "StabilityPoolAddressChanged",
			"type": "event"
		},
		{
			"anonymous": false,
			"inputs": [
				{
					"indexed": true,
					"internalType": "address",
					"name": "_borrower",
					"type": "address"
				},
				{
					"indexed": false,
					"internalType": "uint256",
					"name": "arrayIndex",
					"type": "uint256"
				}
			],
			"name": "TroveCreated",
			"type": "event"
		},
		{
			"anonymous": false,
			"inputs": [
				{
					"indexed": false,
					"internalType": "address",
					"name": "_newTroveManagerAddress",
					"type": "address"
				}
			],
			"name": "TroveManagerAddressChanged",
			"type": "event"
		},
		{
			"anonymous": false,
			"inputs": [
				{
					"indexed": true,
					"internalType": "address",
					"name": "_borrower",
					"type": "address"
				},
				{
					"indexed": false,
					"internalType": "uint256",
					"name": "_debt",
					"type": "uint256"
				},
				{
					"indexed": false,
					"internalType": "uint256",
					"name": "_coll",
					"type": "uint256"
				},
				{
					"indexed": false,
					"internalType": "uint256",
					"name": "stake",
					"type": "uint256"
				},
				{
					"indexed": false,
					"internalType": "uint8",
					"name": "operation",
					"type": "uint8"
				}
			],
			"name": "TroveUpdated",
			"type": "event"
		},
		{
			"inputs": [],
			"name": "BORROWING_FEE_FLOOR",
			"outputs": [
				{
					"internalType": "uint256",
					"name": "",
					"type": "uint256"
				}
			],
			"stateMutability": "view",
			"type": "function"
		},
		{
			"inputs": [],
			"name": "CCR",
			"outputs": [
				{
					"internalType": "uint256",
					"name": "",
					"type": "uint256"
				}
			],
			"stateMutability": "view",
			"type": "function"
		},
		{
			"inputs": [],
			"name": "DECIMAL_PRECISION",
			"outputs": [
				{
					"internalType": "uint256",
					"name": "",
					"type": "uint256"
				}
			],
			"stateMutability": "view",
			"type": "function"
		},
		{
			"inputs": [],
			"name": "LUSD_GAS_COMPENSATION",
			"outputs": [
				{
					"internalType": "uint256",
					"name": "",
					"type": "uint256"
				}
			],
			"stateMutability": "view",
			"type": "function"
		},
		{
			"inputs": [],
			"name": "MCR",
			"outputs": [
				{
					"internalType": "uint256",
					"name": "",
					"type": "uint256"
				}
			],
			"stateMutability": "view",
			"type": "function"
		},
		{
			"inputs": [],
			"name": "MIN_NET_DEBT",
			"outputs": [
				{
					"internalType": "uint256",
					"name": "",
					"type": "uint256"
				}
			],
			"stateMutability": "view",
			"type": "function"
		},
		{
			"inputs": [],
			"name": "NAME",
			"outputs": [
				{
					"internalType": "string",
					"name": "",
					"type": "string"
				}
			],
			"stateMutability": "view",
			"type": "function"
		},
		{
			"inputs": [],
			"name": "PERCENT_DIVISOR",
			"outputs": [
				{
					"internalType": "uint256",
					"name": "",
					"type": "uint256"
				}
			],
			"stateMutability": "view",
			"type": "function"
		},
		{
			"inputs": [],
			"name": "WETH",
			"outputs": [
				{
					"internalType": "contract IERC20",
					"name": "",
					"type": "address"
				}
			],
			"stateMutability": "view",
			"type": "function"
		},
		{
			"inputs": [],
			"name": "_100pct",
			"outputs": [
				{
					"internalType": "uint256",
					"name": "",
					"type": "uint256"
				}
			],
			"stateMutability": "view",
			"type": "function"
		},
		{
			"inputs": [],
			"name": "activePool",
			"outputs": [
				{
					"internalType": "contract IActivePool",
					"name": "",
					"type": "address"
				}
			],
			"stateMutability": "view",
			"type": "function"
		},
		{
			"inputs": [
				{
					"internalType": "uint256",
					"name": "_collAmount",
					"type": "uint256"
				},
				{
					"internalType": "address",
					"name": "_upperHint",
					"type": "address"
				},
				{
					"internalType": "address",
					"name": "_lowerHint",
					"type": "address"
				}
			],
			"name": "addColl",
			"outputs": [],
			"stateMutability": "nonpayable",
			"type": "function"
		},
		{
			"inputs": [
				{
					"internalType": "uint256",
					"name": "_maxFeePercentage",
					"type": "uint256"
				},
				{
					"internalType": "uint256",
					"name": "_collDeposit",
					"type": "uint256"
				},
				{
					"internalType": "uint256",
					"name": "_collWithdrawal",
					"type": "uint256"
				},
				{
					"internalType": "uint256",
					"name": "_LUSDChange",
					"type": "uint256"
				},
				{
					"internalType": "bool",
					"name": "_isDebtIncrease",
					"type": "bool"
				},
				{
					"internalType": "address",
					"name": "_upperHint",
					"type": "address"
				},
				{
					"internalType": "address",
					"name": "_lowerHint",
					"type": "address"
				}
			],
			"name": "adjustTrove",
			"outputs": [],
			"stateMutability": "nonpayable",
			"type": "function"
		},
		{
			"inputs": [],
			"name": "admin",
			"outputs": [
				{
					"internalType": "address",
					"name": "",
					"type": "address"
				}
			],
			"stateMutability": "view",
			"type": "function"
		},
		{
			"inputs": [],
			"name": "claimCollateral",
			"outputs": [],
			"stateMutability": "nonpayable",
			"type": "function"
		},
		{
			"inputs": [],
			"name": "closeTrove",
			"outputs": [],
			"stateMutability": "nonpayable",
			"type": "function"
		},
		{
			"inputs": [],
			"name": "defaultPool",
			"outputs": [
				{
					"internalType": "contract IDefaultPool",
					"name": "",
					"type": "address"
				}
			],
			"stateMutability": "view",
			"type": "function"
		},
		{
			"inputs": [
				{
					"internalType": "uint256",
					"name": "_debt",
					"type": "uint256"
				}
			],
			"name": "getCompositeDebt",
			"outputs": [
				{
					"internalType": "uint256",
					"name": "",
					"type": "uint256"
				}
			],
			"stateMutability": "pure",
			"type": "function"
		},
		{
			"inputs": [],
			"name": "getEntireSystemColl",
			"outputs": [
				{
					"internalType": "uint256",
					"name": "entireSystemColl",
					"type": "uint256"
				}
			],
			"stateMutability": "view",
			"type": "function"
		},
		{
			"inputs": [],
			"name": "getEntireSystemDebt",
			"outputs": [
				{
					"internalType": "uint256",
					"name": "entireSystemDebt",
					"type": "uint256"
				}
			],
			"stateMutability": "view",
			"type": "function"
		},
		{
			"inputs": [
				{
					"internalType": "address",
					"name": "_weth",
					"type": "address"
				}
			],
			"name": "initialize",
			"outputs": [],
			"stateMutability": "nonpayable",
			"type": "function"
		},
		{
			"inputs": [],
			"name": "isInitialized",
			"outputs": [
				{
					"internalType": "bool",
					"name": "",
					"type": "bool"
				}
			],
			"stateMutability": "view",
			"type": "function"
		},
		{
			"inputs": [],
			"name": "isOwner",
			"outputs": [
				{
					"internalType": "bool",
					"name": "",
					"type": "bool"
				}
			],
			"stateMutability": "view",
			"type": "function"
		},
		{
			"inputs": [],
			"name": "lqtyStaking",
			"outputs": [
				{
					"internalType": "contract ILQTYStaking",
					"name": "",
					"type": "address"
				}
			],
			"stateMutability": "view",
			"type": "function"
		},
		{
			"inputs": [],
			"name": "lqtyStakingAddress",
			"outputs": [
				{
					"internalType": "address",
					"name": "",
					"type": "address"
				}
			],
			"stateMutability": "view",
			"type": "function"
		},
		{
			"inputs": [],
			"name": "lusdToken",
			"outputs": [
				{
					"internalType": "contract ILUSDToken",
					"name": "",
					"type": "address"
				}
			],
			"stateMutability": "view",
			"type": "function"
		},
		{
			"inputs": [
				{
					"internalType": "uint256",
					"name": "_collAmount",
					"type": "uint256"
				},
				{
					"internalType": "address",
					"name": "_borrower",
					"type": "address"
				},
				{
					"internalType": "address",
					"name": "_upperHint",
					"type": "address"
				},
				{
					"internalType": "address",
					"name": "_lowerHint",
					"type": "address"
				}
			],
			"name": "moveETHGainToTrove",
			"outputs": [],
			"stateMutability": "nonpayable",
			"type": "function"
		},
		{
			"inputs": [
				{
					"internalType": "uint256",
					"name": "_collAmount",
					"type": "uint256"
				},
				{
					"internalType": "uint256",
					"name": "_maxFeePercentage",
					"type": "uint256"
				},
				{
					"internalType": "uint256",
					"name": "_LUSDAmount",
					"type": "uint256"
				},
				{
					"internalType": "address",
					"name": "_upperHint",
					"type": "address"
				},
				{
					"internalType": "address",
					"name": "_lowerHint",
					"type": "address"
				}
			],
			"name": "openTrove",
			"outputs": [],
			"stateMutability": "nonpayable",
			"type": "function"
		},
		{
			"inputs": [],
			"name": "owner",
			"outputs": [
				{
					"internalType": "address",
					"name": "",
					"type": "address"
				}
			],
			"stateMutability": "view",
			"type": "function"
		},
		{
			"inputs": [],
			"name": "priceFeed",
			"outputs": [
				{
					"internalType": "contract IPriceFeed",
					"name": "",
					"type": "address"
				}
			],
			"stateMutability": "view",
			"type": "function"
		},
		{
			"inputs": [],
			"name": "renounceAdmin",
			"outputs": [],
			"stateMutability": "nonpayable",
			"type": "function"
		},
		{
			"inputs": [
				{
					"internalType": "uint256",
					"name": "_LUSDAmount",
					"type": "uint256"
				},
				{
					"internalType": "address",
					"name": "_upperHint",
					"type": "address"
				},
				{
					"internalType": "address",
					"name": "_lowerHint",
					"type": "address"
				}
			],
			"name": "repayLUSD",
			"outputs": [],
			"stateMutability": "nonpayable",
			"type": "function"
		},
		{
			"inputs": [
				{
					"internalType": "address",
					"name": "_troveManagerAddress",
					"type": "address"
				},
				{
					"internalType": "address",
					"name": "_activePoolAddress",
					"type": "address"
				},
				{
					"internalType": "address",
					"name": "_defaultPoolAddress",
					"type": "address"
				},
				{
					"internalType": "address",
					"name": "_stabilityPoolAddress",
					"type": "address"
				},
				{
					"internalType": "address",
					"name": "_gasPoolAddress",
					"type": "address"
				},
				{
					"internalType": "address",
					"name": "_collSurplusPoolAddress",
					"type": "address"
				},
				{
					"internalType": "address",
					"name": "_priceFeedAddress",
					"type": "address"
				},
				{
					"internalType": "address",
					"name": "_sortedTrovesAddress",
					"type": "address"
				},
				{
					"internalType": "address",
					"name": "_lusdTokenAddress",
					"type": "address"
				},
				{
					"internalType": "address",
					"name": "_lqtyStakingAddress",
					"type": "address"
				}
			],
			"name": "setAddresses",
			"outputs": [],
			"stateMutability": "nonpayable",
			"type": "function"
		},
		{
			"inputs": [
				{
					"internalType": "address",
					"name": "_admin",
					"type": "address"
				}
			],
			"name": "setAdmin",
			"outputs": [],
			"stateMutability": "nonpayable",
			"type": "function"
		},
		{
			"inputs": [
				{
					"internalType": "address",
					"name": "_priceFeedAddress",
					"type": "address"
				}
			],
			"name": "setPriceFeed",
			"outputs": [],
			"stateMutability": "nonpayable",
			"type": "function"
		},
		{
			"inputs": [],
			"name": "sortedTroves",
			"outputs": [
				{
					"internalType": "contract ISortedTroves",
					"name": "",
					"type": "address"
				}
			],
			"stateMutability": "view",
			"type": "function"
		},
		{
			"inputs": [],
			"name": "troveManager",
			"outputs": [
				{
					"internalType": "contract ITroveManager",
					"name": "",
					"type": "address"
				}
			],
			"stateMutability": "view",
			"type": "function"
		},
		{
			"inputs": [
				{
					"internalType": "uint256",
					"name": "_collWithdrawal",
					"type": "uint256"
				},
				{
					"internalType": "address",
					"name": "_upperHint",
					"type": "address"
				},
				{
					"internalType": "address",
					"name": "_lowerHint",
					"type": "address"
				}
			],
			"name": "withdrawColl",
			"outputs": [],
			"stateMutability": "nonpayable",
			"type": "function"
		},
		{
			"inputs": [
				{
					"internalType": "uint256",
					"name": "_maxFeePercentage",
					"type": "uint256"
				},
				{
					"internalType": "uint256",
					"name": "_LUSDAmount",
					"type": "uint256"
				},
				{
					"internalType": "address",
					"name": "_upperHint",
					"type": "address"
				},
				{
					"internalType": "address",
					"name": "_lowerHint",
					"type": "address"
				}
			],
			"name": "withdrawLUSD",
			"outputs": [],
			"stateMutability": "nonpayable",
			"type": "function"
		}
	]
}