{
	"data": {
		"bytecode": {
			"linkReferences": {},
			"object": "608060405234801561001057600080fd5b50600080546001600160a01b0319163390811782556040519091907f8be0079c531659141344cd1fd0a4f28419497f9722a3daafe3b4186f6b6457e0908290a3610dee8061005f6000396000f3fe608060405234801561001057600080fd5b50600436106100f55760003560e01c80638f32d59b11610097578063b08bc72211610066578063b08bc72214610236578063b32beb5b14610249578063b7f8cf9b1461025c578063c4d66de81461026f57600080fd5b80638f32d59b146101ac5780639b56d6c9146101bf578063a3f4df7e146101e8578063ad5c46481461022357600080fd5b80633f10abab116100d35780633f10abab1461014a5780635a4d28bb1461015d57806381381660146101885780638da5cb5b1461019b57600080fd5b806314f6c3be146100fa578063363bf96414610111578063392e53cd14610126575b600080fd5b6005545b6040519081526020015b60405180910390f35b61012461011f366004610c52565b610282565b005b60045461013a90600160a01b900460ff1681565b6040519015158152602001610108565b610124610158366004610c95565b6103e7565b600254610170906001600160a01b031681565b6040516001600160a01b039091168152602001610108565b610124610196366004610cbf565b610470565b6000546001600160a01b0316610170565b6000546001600160a01b0316331461013a565b6100fe6101cd366004610cd8565b6001600160a01b031660009081526006602052604090205490565b6102166040518060400160405280600f81526020016e10dbdb1b14dd5c9c1b1d5cd41bdbdb608a1b81525081565b6040516101089190610cf3565b600454610170906001600160a01b031681565b600354610170906001600160a01b031681565b610124610257366004610cd8565b61055f565b600154610170906001600160a01b031681565b61012461027d366004610cd8565b610830565b6000546001600160a01b031633146102e15760405162461bcd60e51b815260206004820181905260248201527f4f776e61626c653a2063616c6c6572206973206e6f7420746865206f776e657260448201526064015b60405180910390fd5b6102ea83610911565b6102f382610911565b6102fc81610911565b600180546001600160a01b038581166001600160a01b031992831681179093556002805486831690841617905560038054918516919092161790556040519081527f3ca631ffcd2a9b5d9ae18543fc82f58eb4ca33af9e6ab01b7a8e95331e6ed9859060200160405180910390a16040516001600160a01b03831681527f143219c9e69b09e07e095fcc889b43d8f46ca892bba65f08dc3a0050869a56789060200160405180910390a16040516001600160a01b03821681527f78f058b189175430c48dc02699e3a0031ea4ff781536dc2fab847de4babdd8829060200160405180910390a1505050565b6103ef6109b6565b6001600160a01b0382166000908152600660205260408120546104129083610a26565b6001600160a01b0384166000818152600660205260409081902083905551919250907ff0393a34d05e6567686ad4e097f9d9d2781565957394f1f0d984e5d8e6378f20906104639084815260200190565b60405180910390a2505050565b610478610a8e565b6005546104859082610a26565b600480546040516370a0823160e01b815230928101929092526001600160a01b0316906370a0823190602401602060405180830381865afa1580156104ce573d6000803e3d6000fd5b505050506040513d601f19601f820116820180604052508101906104f29190610d41565b101561054c5760405162461bcd60e51b815260206004820152602360248201527f436f6c6c537572706c7573506f6f6c3a2046756e6473206e6f742072656365696044820152621d995960ea1b60648201526084016102d8565b6005546105599082610a26565b60055550565b610567610afb565b6001600160a01b038116600090815260066020526040902054806105e75760405162461bcd60e51b815260206004820152603160248201527f436f6c6c537572706c7573506f6f6c3a204e6f20636f6c6c61746572616c20616044820152707661696c61626c6520746f20636c61696d60781b60648201526084016102d8565b600480546040516370a0823160e01b8152309281019290925282916001600160a01b03909116906370a0823190602401602060405180830381865afa158015610634573d6000803e3d6000fd5b505050506040513d601f19601f820116820180604052508101906106589190610d41565b10156106bc5760405162461bcd60e51b815260206004820152602d60248201527f436f6c6c537572706c7573506f6f6c3a20496e73756666696369656e7420667560448201526c6e647320617661696c61626c6560981b60648201526084016102d8565b6001600160a01b0382166000818152600660209081526040808320839055519182527ff0393a34d05e6567686ad4e097f9d9d2781565957394f1f0d984e5d8e6378f20910160405180910390a26005546107169082610b70565b600555604080516001600160a01b0384168152602081018390527f6109e2559dfa766aaec7118351d48a523f0a4157f49c8d68749c8ac41318ad12910160405180910390a16004805460405163a9059cbb60e01b81526001600160a01b03858116938201939093526024810184905291169063a9059cbb906044016020604051808303816000875af11580156107b0573d6000803e3d6000fd5b505050506040513d601f19601f820116820180604052508101906107d49190610d5a565b61082c5760405162461bcd60e51b815260206004820152602360248201527f436f6c6c537572706c7573506f6f6c3a2073656e64696e6720455448206661696044820152621b195960ea1b60648201526084016102d8565b5050565b6000546001600160a01b0316331461088a5760405162461bcd60e51b815260206004820181905260248201527f4f776e61626c653a2063616c6c6572206973206e6f7420746865206f776e657260448201526064016102d8565b600454600160a01b900460ff16156108da5760405162461bcd60e51b8152602060048201526013602482015272105b1c9958591e48125b9a5d1a585b1a5e9959606a1b60448201526064016102d8565b6108e381610911565b600480546001600160a01b0383166001600160a81b031990911617600160a01b17905561090e610bb2565b50565b6001600160a01b0381166109675760405162461bcd60e51b815260206004820152601e60248201527f4163636f756e742063616e6e6f74206265207a65726f2061646472657373000060448201526064016102d8565b803b8061082c5760405162461bcd60e51b815260206004820181905260248201527f4163636f756e7420636f64652073697a652063616e6e6f74206265207a65726f60448201526064016102d8565b6002546001600160a01b03163314610a245760405162461bcd60e51b815260206004820152602b60248201527f436f6c6c537572706c7573506f6f6c3a2043616c6c6572206973206e6f74205460448201526a3937bb32a6b0b730b3b2b960a91b60648201526084016102d8565b565b600080610a338385610d92565b905083811015610a855760405162461bcd60e51b815260206004820152601b60248201527f536166654d6174683a206164646974696f6e206f766572666c6f77000000000060448201526064016102d8565b90505b92915050565b6003546001600160a01b03163314610a245760405162461bcd60e51b815260206004820152602a60248201527f436f6c6c537572706c7573506f6f6c3a2043616c6c6572206973206e6f74204160448201526918dd1a5d9948141bdbdb60b21b60648201526084016102d8565b6001546001600160a01b03163314610a245760405162461bcd60e51b815260206004820152603260248201527f436f6c6c537572706c7573506f6f6c3a2043616c6c6572206973206e6f7420426044820152716f72726f776572204f7065726174696f6e7360701b60648201526084016102d8565b6000610a8583836040518060400160405280601e81526020017f536166654d6174683a207375627472616374696f6e206f766572666c6f770000815250610bfc565b600080546040516001600160a01b03909116907f8be0079c531659141344cd1fd0a4f28419497f9722a3daafe3b4186f6b6457e0908390a3600080546001600160a01b0319169055565b60008184841115610c205760405162461bcd60e51b81526004016102d89190610cf3565b506000610c2d8486610da5565b95945050505050565b80356001600160a01b0381168114610c4d57600080fd5b919050565b600080600060608486031215610c6757600080fd5b610c7084610c36565b9250610c7e60208501610c36565b9150610c8c60408501610c36565b90509250925092565b60008060408385031215610ca857600080fd5b610cb183610c36565b946020939093013593505050565b600060208284031215610cd157600080fd5b5035919050565b600060208284031215610cea57600080fd5b610a8582610c36565b600060208083528351808285015260005b81811015610d2057858101830151858201604001528201610d04565b506000604082860101526040601f19601f8301168501019250505092915050565b600060208284031215610d5357600080fd5b5051919050565b600060208284031215610d6c57600080fd5b81518015158114610a8557600080fd5b634e487b7160e01b600052601160045260246000fd5b80820180821115610a8857610a88610d7c565b81810381811115610a8857610a88610d7c56fea2646970667358221220c18aa5b70e8bc1886b22c3d988f9dd02ec86b9be0e5ee7fa6bbece3036eaef9964736f6c63430008140033",
			"opcodes": "PUSH1 0x80 PUSH1 0x40 MSTORE CALLVALUE DUP1 ISZERO PUSH2 0x10 JUMPI PUSH1 0x0 DUP1 REVERT JUMPDEST POP PUSH1 0x0 DUP1 SLOAD PUSH1 0x1 PUSH1 0x1 PUSH1 0xA0 SHL SUB NOT AND CALLER SWAP1 DUP2 OR DUP3 SSTORE PUSH1 0x40 MLOAD SWAP1 SWAP2 SWAP1 PUSH32 0x8BE0079C531659141344CD1FD0A4F28419497F9722A3DAAFE3B4186F6B6457E0 SWAP1 DUP3 SWAP1 LOG3 PUSH2 0xDEE DUP1 PUSH2 0x5F PUSH1 0x0 CODECOPY PUSH1 0x0 RETURN INVALID PUSH1 0x80 PUSH1 0x40 MSTORE CALLVALUE DUP1 ISZERO PUSH2 0x10 JUMPI PUSH1 0x0 DUP1 REVERT JUMPDEST POP PUSH1 0x4 CALLDATASIZE LT PUSH2 0xF5 JUMPI PUSH1 0x0 CALLDATALOAD PUSH1 0xE0 SHR DUP1 PUSH4 0x8F32D59B GT PUSH2 0x97 JUMPI DUP1 PUSH4 0xB08BC722 GT PUSH2 0x66 JUMPI DUP1 PUSH4 0xB08BC722 EQ PUSH2 0x236 JUMPI DUP1 PUSH4 0xB32BEB5B EQ PUSH2 0x249 JUMPI DUP1 PUSH4 0xB7F8CF9B EQ PUSH2 0x25C JUMPI DUP1 PUSH4 0xC4D66DE8 EQ PUSH2 0x26F JUMPI PUSH1 0x0 DUP1 REVERT JUMPDEST DUP1 PUSH4 0x8F32D59B EQ PUSH2 0x1AC JUMPI DUP1 PUSH4 0x9B56D6C9 EQ PUSH2 0x1BF JUMPI DUP1 PUSH4 0xA3F4DF7E EQ PUSH2 0x1E8 JUMPI DUP1 PUSH4 0xAD5C4648 EQ PUSH2 0x223 JUMPI PUSH1 0x0 DUP1 REVERT JUMPDEST DUP1 PUSH4 0x3F10ABAB GT PUSH2 0xD3 JUMPI DUP1 PUSH4 0x3F10ABAB EQ PUSH2 0x14A JUMPI DUP1 PUSH4 0x5A4D28BB EQ PUSH2 0x15D JUMPI DUP1 PUSH4 0x81381660 EQ PUSH2 0x188 JUMPI DUP1 PUSH4 0x8DA5CB5B EQ PUSH2 0x19B JUMPI PUSH1 0x0 DUP1 REVERT JUMPDEST DUP1 PUSH4 0x14F6C3BE EQ PUSH2 0xFA JUMPI DUP1 PUSH4 0x363BF964 EQ PUSH2 0x111 JUMPI DUP1 PUSH4 0x392E53CD EQ PUSH2 0x126 JUMPI JUMPDEST PUSH1 0x0 DUP1 REVERT JUMPDEST PUSH1 0x5 SLOAD JUMPDEST PUSH1 0x40 MLOAD SWAP1 DUP2 MSTORE PUSH1 0x20 ADD JUMPDEST PUSH1 0x40 MLOAD DUP1 SWAP2 SUB SWAP1 RETURN JUMPDEST PUSH2 0x124 PUSH2 0x11F CALLDATASIZE PUSH1 0x4 PUSH2 0xC52 JUMP JUMPDEST PUSH2 0x282 JUMP JUMPDEST STOP JUMPDEST PUSH1 0x4 SLOAD PUSH2 0x13A SWAP1 PUSH1 0x1 PUSH1 0xA0 SHL SWAP1 DIV PUSH1 0xFF AND DUP2 JUMP JUMPDEST PUSH1 0x40 MLOAD SWAP1 ISZERO ISZERO DUP2 MSTORE PUSH1 0x20 ADD PUSH2 0x108 JUMP JUMPDEST PUSH2 0x124 PUSH2 0x158 CALLDATASIZE PUSH1 0x4 PUSH2 0xC95 JUMP JUMPDEST PUSH2 0x3E7 JUMP JUMPDEST PUSH1 0x2 SLOAD PUSH2 0x170 SWAP1 PUSH1 0x1 PUSH1 0x1 PUSH1 0xA0 SHL SUB AND DUP2 JUMP JUMPDEST PUSH1 0x40 MLOAD PUSH1 0x1 PUSH1 0x1 PUSH1 0xA0 SHL SUB SWAP1 SWAP2 AND DUP2 MSTORE PUSH1 0x20 ADD PUSH2 0x108 JUMP JUMPDEST PUSH2 0x124 PUSH2 0x196 CALLDATASIZE PUSH1 0x4 PUSH2 0xCBF JUMP JUMPDEST PUSH2 0x470 JUMP JUMPDEST PUSH1 0x0 SLOAD PUSH1 0x1 PUSH1 0x1 PUSH1 0xA0 SHL SUB AND PUSH2 0x170 JUMP JUMPDEST PUSH1 0x0 SLOAD PUSH1 0x1 PUSH1 0x1 PUSH1 0xA0 SHL SUB AND CALLER EQ PUSH2 0x13A JUMP JUMPDEST PUSH2 0xFE PUSH2 0x1CD CALLDATASIZE PUSH1 0x4 PUSH2 0xCD8 JUMP JUMPDEST PUSH1 0x1 PUSH1 0x1 PUSH1 0xA0 SHL SUB AND PUSH1 0x0 SWAP1 DUP2 MSTORE PUSH1 0x6 PUSH1 0x20 MSTORE PUSH1 0x40 SWAP1 KECCAK256 SLOAD SWAP1 JUMP JUMPDEST PUSH2 0x216 PUSH1 0x40 MLOAD DUP1 PUSH1 0x40 ADD PUSH1 0x40 MSTORE DUP1 PUSH1 0xF DUP2 MSTORE PUSH1 0x20 ADD PUSH15 0x10DBDB1B14DD5C9C1B1D5CD41BDBDB PUSH1 0x8A SHL DUP2 MSTORE POP DUP2 JUMP JUMPDEST PUSH1 0x40 MLOAD PUSH2 0x108 SWAP2 SWAP1 PUSH2 0xCF3 JUMP JUMPDEST PUSH1 0x4 SLOAD PUSH2 0x170 SWAP1 PUSH1 0x1 PUSH1 0x1 PUSH1 0xA0 SHL SUB AND DUP2 JUMP JUMPDEST PUSH1 0x3 SLOAD PUSH2 0x170 SWAP1 PUSH1 0x1 PUSH1 0x1 PUSH1 0xA0 SHL SUB AND DUP2 JUMP JUMPDEST PUSH2 0x124 PUSH2 0x257 CALLDATASIZE PUSH1 0x4 PUSH2 0xCD8 JUMP JUMPDEST PUSH2 0x55F JUMP JUMPDEST PUSH1 0x1 SLOAD PUSH2 0x170 SWAP1 PUSH1 0x1 PUSH1 0x1 PUSH1 0xA0 SHL SUB AND DUP2 JUMP JUMPDEST PUSH2 0x124 PUSH2 0x27D CALLDATASIZE PUSH1 0x4 PUSH2 0xCD8 JUMP JUMPDEST PUSH2 0x830 JUMP JUMPDEST PUSH1 0x0 SLOAD PUSH1 0x1 PUSH1 0x1 PUSH1 0xA0 SHL SUB AND CALLER EQ PUSH2 0x2E1 JUMPI PUSH1 0x40 MLOAD PUSH3 0x461BCD PUSH1 0xE5 SHL DUP2 MSTORE PUSH1 0x20 PUSH1 0x4 DUP3 ADD DUP2 SWAP1 MSTORE PUSH1 0x24 DUP3 ADD MSTORE PUSH32 0x4F776E61626C653A2063616C6C6572206973206E6F7420746865206F776E6572 PUSH1 0x44 DUP3 ADD MSTORE PUSH1 0x64 ADD JUMPDEST PUSH1 0x40 MLOAD DUP1 SWAP2 SUB SWAP1 REVERT JUMPDEST PUSH2 0x2EA DUP4 PUSH2 0x911 JUMP JUMPDEST PUSH2 0x2F3 DUP3 PUSH2 0x911 JUMP JUMPDEST PUSH2 0x2FC DUP2 PUSH2 0x911 JUMP JUMPDEST PUSH1 0x1 DUP1 SLOAD PUSH1 0x1 PUSH1 0x1 PUSH1 0xA0 SHL SUB DUP6 DUP2 AND PUSH1 0x1 PUSH1 0x1 PUSH1 0xA0 SHL SUB NOT SWAP3 DUP4 AND DUP2 OR SWAP1 SWAP4 SSTORE PUSH1 0x2 DUP1 SLOAD DUP7 DUP4 AND SWAP1 DUP5 AND OR SWAP1 SSTORE PUSH1 0x3 DUP1 SLOAD SWAP2 DUP6 AND SWAP2 SWAP1 SWAP3 AND OR SWAP1 SSTORE PUSH1 0x40 MLOAD SWAP1 DUP2 MSTORE PUSH32 0x3CA631FFCD2A9B5D9AE18543FC82F58EB4CA33AF9E6AB01B7A8E95331E6ED985 SWAP1 PUSH1 0x20 ADD PUSH1 0x40 MLOAD DUP1 SWAP2 SUB SWAP1 LOG1 PUSH1 0x40 MLOAD PUSH1 0x1 PUSH1 0x1 PUSH1 0xA0 SHL SUB DUP4 AND DUP2 MSTORE PUSH32 0x143219C9E69B09E07E095FCC889B43D8F46CA892BBA65F08DC3A0050869A5678 SWAP1 PUSH1 0x20 ADD PUSH1 0x40 MLOAD DUP1 SWAP2 SUB SWAP1 LOG1 PUSH1 0x40 MLOAD PUSH1 0x1 PUSH1 0x1 PUSH1 0xA0 SHL SUB DUP3 AND DUP2 MSTORE PUSH32 0x78F058B189175430C48DC02699E3A0031EA4FF781536DC2FAB847DE4BABDD882 SWAP1 PUSH1 0x20 ADD PUSH1 0x40 MLOAD DUP1 SWAP2 SUB SWAP1 LOG1 POP POP POP JUMP JUMPDEST PUSH2 0x3EF PUSH2 0x9B6 JUMP JUMPDEST PUSH1 0x1 PUSH1 0x1 PUSH1 0xA0 SHL SUB DUP3 AND PUSH1 0x0 SWAP1 DUP2 MSTORE PUSH1 0x6 PUSH1 0x20 MSTORE PUSH1 0x40 DUP2 KECCAK256 SLOAD PUSH2 0x412 SWAP1 DUP4 PUSH2 0xA26 JUMP JUMPDEST PUSH1 0x1 PUSH1 0x1 PUSH1 0xA0 SHL SUB DUP5 AND PUSH1 0x0 DUP2 DUP2 MSTORE PUSH1 0x6 PUSH1 0x20 MSTORE PUSH1 0x40 SWAP1 DUP2 SWAP1 KECCAK256 DUP4 SWAP1 SSTORE MLOAD SWAP2 SWAP3 POP SWAP1 PUSH32 0xF0393A34D05E6567686AD4E097F9D9D2781565957394F1F0D984E5D8E6378F20 SWAP1 PUSH2 0x463 SWAP1 DUP5 DUP2 MSTORE PUSH1 0x20 ADD SWAP1 JUMP JUMPDEST PUSH1 0x40 MLOAD DUP1 SWAP2 SUB SWAP1 LOG2 POP POP POP JUMP JUMPDEST PUSH2 0x478 PUSH2 0xA8E JUMP JUMPDEST PUSH1 0x5 SLOAD PUSH2 0x485 SWAP1 DUP3 PUSH2 0xA26 JUMP JUMPDEST PUSH1 0x4 DUP1 SLOAD PUSH1 0x40 MLOAD PUSH4 0x70A08231 PUSH1 0xE0 SHL DUP2 MSTORE ADDRESS SWAP3 DUP2 ADD SWAP3 SWAP1 SWAP3 MSTORE PUSH1 0x1 PUSH1 0x1 PUSH1 0xA0 SHL SUB AND SWAP1 PUSH4 0x70A08231 SWAP1 PUSH1 0x24 ADD PUSH1 0x20 PUSH1 0x40 MLOAD DUP1 DUP4 SUB DUP2 DUP7 GAS STATICCALL ISZERO DUP1 ISZERO PUSH2 0x4CE JUMPI RETURNDATASIZE PUSH1 0x0 DUP1 RETURNDATACOPY RETURNDATASIZE PUSH1 0x0 REVERT JUMPDEST POP POP POP POP PUSH1 0x40 MLOAD RETURNDATASIZE PUSH1 0x1F NOT PUSH1 0x1F DUP3 ADD AND DUP3 ADD DUP1 PUSH1 0x40 MSTORE POP DUP2 ADD SWAP1 PUSH2 0x4F2 SWAP2 SWAP1 PUSH2 0xD41 JUMP JUMPDEST LT ISZERO PUSH2 0x54C JUMPI PUSH1 0x40 MLOAD PUSH3 0x461BCD PUSH1 0xE5 SHL DUP2 MSTORE PUSH1 0x20 PUSH1 0x4 DUP3 ADD MSTORE PUSH1 0x23 PUSH1 0x24 DUP3 ADD MSTORE PUSH32 0x436F6C6C537572706C7573506F6F6C3A2046756E6473206E6F74207265636569 PUSH1 0x44 DUP3 ADD MSTORE PUSH3 0x1D9959 PUSH1 0xEA SHL PUSH1 0x64 DUP3 ADD MSTORE PUSH1 0x84 ADD PUSH2 0x2D8 JUMP JUMPDEST PUSH1 0x5 SLOAD PUSH2 0x559 SWAP1 DUP3 PUSH2 0xA26 JUMP JUMPDEST PUSH1 0x5 SSTORE POP JUMP JUMPDEST PUSH2 0x567 PUSH2 0xAFB JUMP JUMPDEST PUSH1 0x1 PUSH1 0x1 PUSH1 0xA0 SHL SUB DUP2 AND PUSH1 0x0 SWAP1 DUP2 MSTORE PUSH1 0x6 PUSH1 0x20 MSTORE PUSH1 0x40 SWAP1 KECCAK256 SLOAD DUP1 PUSH2 0x5E7 JUMPI PUSH1 0x40 MLOAD PUSH3 0x461BCD PUSH1 0xE5 SHL DUP2 MSTORE PUSH1 0x20 PUSH1 0x4 DUP3 ADD MSTORE PUSH1 0x31 PUSH1 0x24 DUP3 ADD MSTORE PUSH32 0x436F6C6C537572706C7573506F6F6C3A204E6F20636F6C6C61746572616C2061 PUSH1 0x44 DUP3 ADD MSTORE PUSH17 0x7661696C61626C6520746F20636C61696D PUSH1 0x78 SHL PUSH1 0x64 DUP3 ADD MSTORE PUSH1 0x84 ADD PUSH2 0x2D8 JUMP JUMPDEST PUSH1 0x4 DUP1 SLOAD PUSH1 0x40 MLOAD PUSH4 0x70A08231 PUSH1 0xE0 SHL DUP2 MSTORE ADDRESS SWAP3 DUP2 ADD SWAP3 SWAP1 SWAP3 MSTORE DUP3 SWAP2 PUSH1 0x1 PUSH1 0x1 PUSH1 0xA0 SHL SUB SWAP1 SWAP2 AND SWAP1 PUSH4 0x70A08231 SWAP1 PUSH1 0x24 ADD PUSH1 0x20 PUSH1 0x40 MLOAD DUP1 DUP4 SUB DUP2 DUP7 GAS STATICCALL ISZERO DUP1 ISZERO PUSH2 0x634 JUMPI RETURNDATASIZE PUSH1 0x0 DUP1 RETURNDATACOPY RETURNDATASIZE PUSH1 0x0 REVERT JUMPDEST POP POP POP POP PUSH1 0x40 MLOAD RETURNDATASIZE PUSH1 0x1F NOT PUSH1 0x1F DUP3 ADD AND DUP3 ADD DUP1 PUSH1 0x40 MSTORE POP DUP2 ADD SWAP1 PUSH2 0x658 SWAP2 SWAP1 PUSH2 0xD41 JUMP JUMPDEST LT ISZERO PUSH2 0x6BC JUMPI PUSH1 0x40 MLOAD PUSH3 0x461BCD PUSH1 0xE5 SHL DUP2 MSTORE PUSH1 0x20 PUSH1 0x4 DUP3 ADD MSTORE PUSH1 0x2D PUSH1 0x24 DUP3 ADD MSTORE PUSH32 0x436F6C6C537572706C7573506F6F6C3A20496E73756666696369656E74206675 PUSH1 0x44 DUP3 ADD MSTORE PUSH13 0x6E647320617661696C61626C65 PUSH1 0x98 SHL PUSH1 0x64 DUP3 ADD MSTORE PUSH1 0x84 ADD PUSH2 0x2D8 JUMP JUMPDEST PUSH1 0x1 PUSH1 0x1 PUSH1 0xA0 SHL SUB DUP3 AND PUSH1 0x0 DUP2 DUP2 MSTORE PUSH1 0x6 PUSH1 0x20 SWAP1 DUP2 MSTORE PUSH1 0x40 DUP1 DUP4 KECCAK256 DUP4 SWAP1 SSTORE MLOAD SWAP2 DUP3 MSTORE PUSH32 0xF0393A34D05E6567686AD4E097F9D9D2781565957394F1F0D984E5D8E6378F20 SWAP2 ADD PUSH1 0x40 MLOAD DUP1 SWAP2 SUB SWAP1 LOG2 PUSH1 0x5 SLOAD PUSH2 0x716 SWAP1 DUP3 PUSH2 0xB70 JUMP JUMPDEST PUSH1 0x5 SSTORE PUSH1 0x40 DUP1 MLOAD PUSH1 0x1 PUSH1 0x1 PUSH1 0xA0 SHL SUB DUP5 AND DUP2 MSTORE PUSH1 0x20 DUP2 ADD DUP4 SWAP1 MSTORE PUSH32 0x6109E2559DFA766AAEC7118351D48A523F0A4157F49C8D68749C8AC41318AD12 SWAP2 ADD PUSH1 0x40 MLOAD DUP1 SWAP2 SUB SWAP1 LOG1 PUSH1 0x4 DUP1 SLOAD PUSH1 0x40 MLOAD PUSH4 0xA9059CBB PUSH1 0xE0 SHL DUP2 MSTORE PUSH1 0x1 PUSH1 0x1 PUSH1 0xA0 SHL SUB DUP6 DUP2 AND SWAP4 DUP3 ADD SWAP4 SWAP1 SWAP4 MSTORE PUSH1 0x24 DUP2 ADD DUP5 SWAP1 MSTORE SWAP2 AND SWAP1 PUSH4 0xA9059CBB SWAP1 PUSH1 0x44 ADD PUSH1 0x20 PUSH1 0x40 MLOAD DUP1 DUP4 SUB DUP2 PUSH1 0x0 DUP8 GAS CALL ISZERO DUP1 ISZERO PUSH2 0x7B0 JUMPI RETURNDATASIZE PUSH1 0x0 DUP1 RETURNDATACOPY RETURNDATASIZE PUSH1 0x0 REVERT JUMPDEST POP POP POP POP PUSH1 0x40 MLOAD RETURNDATASIZE PUSH1 0x1F NOT PUSH1 0x1F DUP3 ADD AND DUP3 ADD DUP1 PUSH1 0x40 MSTORE POP DUP2 ADD SWAP1 PUSH2 0x7D4 SWAP2 SWAP1 PUSH2 0xD5A JUMP JUMPDEST PUSH2 0x82C JUMPI PUSH1 0x40 MLOAD PUSH3 0x461BCD PUSH1 0xE5 SHL DUP2 MSTORE PUSH1 0x20 PUSH1 0x4 DUP3 ADD MSTORE PUSH1 0x23 PUSH1 0x24 DUP3 ADD MSTORE PUSH32 0x436F6C6C537572706C7573506F6F6C3A2073656E64696E672045544820666169 PUSH1 0x44 DUP3 ADD MSTORE PUSH3 0x1B1959 PUSH1 0xEA SHL PUSH1 0x64 DUP3 ADD MSTORE PUSH1 0x84 ADD PUSH2 0x2D8 JUMP JUMPDEST POP POP JUMP JUMPDEST PUSH1 0x0 SLOAD PUSH1 0x1 PUSH1 0x1 PUSH1 0xA0 SHL SUB AND CALLER EQ PUSH2 0x88A JUMPI PUSH1 0x40 MLOAD PUSH3 0x461BCD PUSH1 0xE5 SHL DUP2 MSTORE PUSH1 0x20 PUSH1 0x4 DUP3 ADD DUP2 SWAP1 MSTORE PUSH1 0x24 DUP3 ADD MSTORE PUSH32 0x4F776E61626C653A2063616C6C6572206973206E6F7420746865206F776E6572 PUSH1 0x44 DUP3 ADD MSTORE PUSH1 0x64 ADD PUSH2 0x2D8 JUMP JUMPDEST PUSH1 0x4 SLOAD PUSH1 0x1 PUSH1 0xA0 SHL SWAP1 DIV PUSH1 0xFF AND ISZERO PUSH2 0x8DA JUMPI PUSH1 0x40 MLOAD PUSH3 0x461BCD PUSH1 0xE5 SHL DUP2 MSTORE PUSH1 0x20 PUSH1 0x4 DUP3 ADD MSTORE PUSH1 0x13 PUSH1 0x24 DUP3 ADD MSTORE PUSH19 0x105B1C9958591E48125B9A5D1A585B1A5E9959 PUSH1 0x6A SHL PUSH1 0x44 DUP3 ADD MSTORE PUSH1 0x64 ADD PUSH2 0x2D8 JUMP JUMPDEST PUSH2 0x8E3 DUP2 PUSH2 0x911 JUMP JUMPDEST PUSH1 0x4 DUP1 SLOAD PUSH1 0x1 PUSH1 0x1 PUSH1 0xA0 SHL SUB DUP4 AND PUSH1 0x1 PUSH1 0x1 PUSH1 0xA8 SHL SUB NOT SWAP1 SWAP2 AND OR PUSH1 0x1 PUSH1 0xA0 SHL OR SWAP1 SSTORE PUSH2 0x90E PUSH2 0xBB2 JUMP JUMPDEST POP JUMP JUMPDEST PUSH1 0x1 PUSH1 0x1 PUSH1 0xA0 SHL SUB DUP2 AND PUSH2 0x967 JUMPI PUSH1 0x40 MLOAD PUSH3 0x461BCD PUSH1 0xE5 SHL DUP2 MSTORE PUSH1 0x20 PUSH1 0x4 DUP3 ADD MSTORE PUSH1 0x1E PUSH1 0x24 DUP3 ADD MSTORE PUSH32 0x4163636F756E742063616E6E6F74206265207A65726F20616464726573730000 PUSH1 0x44 DUP3 ADD MSTORE PUSH1 0x64 ADD PUSH2 0x2D8 JUMP JUMPDEST DUP1 EXTCODESIZE DUP1 PUSH2 0x82C JUMPI PUSH1 0x40 MLOAD PUSH3 0x461BCD PUSH1 0xE5 SHL DUP2 MSTORE PUSH1 0x20 PUSH1 0x4 DUP3 ADD DUP2 SWAP1 MSTORE PUSH1 0x24 DUP3 ADD MSTORE PUSH32 0x4163636F756E7420636F64652073697A652063616E6E6F74206265207A65726F PUSH1 0x44 DUP3 ADD MSTORE PUSH1 0x64 ADD PUSH2 0x2D8 JUMP JUMPDEST PUSH1 0x2 SLOAD PUSH1 0x1 PUSH1 0x1 PUSH1 0xA0 SHL SUB AND CALLER EQ PUSH2 0xA24 JUMPI PUSH1 0x40 MLOAD PUSH3 0x461BCD PUSH1 0xE5 SHL DUP2 MSTORE PUSH1 0x20 PUSH1 0x4 DUP3 ADD MSTORE PUSH1 0x2B PUSH1 0x24 DUP3 ADD MSTORE PUSH32 0x436F6C6C537572706C7573506F6F6C3A2043616C6C6572206973206E6F742054 PUSH1 0x44 DUP3 ADD MSTORE PUSH11 0x3937BB32A6B0B730B3B2B9 PUSH1 0xA9 SHL PUSH1 0x64 DUP3 ADD MSTORE PUSH1 0x84 ADD PUSH2 0x2D8 JUMP JUMPDEST JUMP JUMPDEST PUSH1 0x0 DUP1 PUSH2 0xA33 DUP4 DUP6 PUSH2 0xD92 JUMP JUMPDEST SWAP1 POP DUP4 DUP2 LT ISZERO PUSH2 0xA85 JUMPI PUSH1 0x40 MLOAD PUSH3 0x461BCD PUSH1 0xE5 SHL DUP2 MSTORE PUSH1 0x20 PUSH1 0x4 DUP3 ADD MSTORE PUSH1 0x1B PUSH1 0x24 DUP3 ADD MSTORE PUSH32 0x536166654D6174683A206164646974696F6E206F766572666C6F770000000000 PUSH1 0x44 DUP3 ADD MSTORE PUSH1 0x64 ADD PUSH2 0x2D8 JUMP JUMPDEST SWAP1 POP JUMPDEST SWAP3 SWAP2 POP POP JUMP JUMPDEST PUSH1 0x3 SLOAD PUSH1 0x1 PUSH1 0x1 PUSH1 0xA0 SHL SUB AND CALLER EQ PUSH2 0xA24 JUMPI PUSH1 0x40 MLOAD PUSH3 0x461BCD PUSH1 0xE5 SHL DUP2 MSTORE PUSH1 0x20 PUSH1 0x4 DUP3 ADD MSTORE PUSH1 0x2A PUSH1 0x24 DUP3 ADD MSTORE PUSH32 0x436F6C6C537572706C7573506F6F6C3A2043616C6C6572206973206E6F742041 PUSH1 0x44 DUP3 ADD MSTORE PUSH10 0x18DD1A5D9948141BDBDB PUSH1 0xB2 SHL PUSH1 0x64 DUP3 ADD MSTORE PUSH1 0x84 ADD PUSH2 0x2D8 JUMP JUMPDEST PUSH1 0x1 SLOAD PUSH1 0x1 PUSH1 0x1 PUSH1 0xA0 SHL SUB AND CALLER EQ PUSH2 0xA24 JUMPI PUSH1 0x40 MLOAD PUSH3 0x461BCD PUSH1 0xE5 SHL DUP2 MSTORE PUSH1 0x20 PUSH1 0x4 DUP3 ADD MSTORE PUSH1 0x32 PUSH1 0x24 DUP3 ADD MSTORE PUSH32 0x436F6C6C537572706C7573506F6F6C3A2043616C6C6572206973206E6F742042 PUSH1 0x44 DUP3 ADD MSTORE PUSH18 0x6F72726F776572204F7065726174696F6E73 PUSH1 0x70 SHL PUSH1 0x64 DUP3 ADD MSTORE PUSH1 0x84 ADD PUSH2 0x2D8 JUMP JUMPDEST PUSH1 0x0 PUSH2 0xA85 DUP4 DUP4 PUSH1 0x40 MLOAD DUP1 PUSH1 0x40 ADD PUSH1 0x40 MSTORE DUP1 PUSH1 0x1E DUP2 MSTORE PUSH1 0x20 ADD PUSH32 0x536166654D6174683A207375627472616374696F6E206F766572666C6F770000 DUP2 MSTORE POP PUSH2 0xBFC JUMP JUMPDEST PUSH1 0x0 DUP1 SLOAD PUSH1 0x40 MLOAD PUSH1 0x1 PUSH1 0x1 PUSH1 0xA0 SHL SUB SWAP1 SWAP2 AND SWAP1 PUSH32 0x8BE0079C531659141344CD1FD0A4F28419497F9722A3DAAFE3B4186F6B6457E0 SWAP1 DUP4 SWAP1 LOG3 PUSH1 0x0 DUP1 SLOAD PUSH1 0x1 PUSH1 0x1 PUSH1 0xA0 SHL SUB NOT AND SWAP1 SSTORE JUMP JUMPDEST PUSH1 0x0 DUP2 DUP5 DUP5 GT ISZERO PUSH2 0xC20 JUMPI PUSH1 0x40 MLOAD PUSH3 0x461BCD PUSH1 0xE5 SHL DUP2 MSTORE PUSH1 0x4 ADD PUSH2 0x2D8 SWAP2 SWAP1 PUSH2 0xCF3 JUMP JUMPDEST POP PUSH1 0x0 PUSH2 0xC2D DUP5 DUP7 PUSH2 0xDA5 JUMP JUMPDEST SWAP6 SWAP5 POP POP POP POP POP JUMP JUMPDEST DUP1 CALLDATALOAD PUSH1 0x1 PUSH1 0x1 PUSH1 0xA0 SHL SUB DUP2 AND DUP2 EQ PUSH2 0xC4D JUMPI PUSH1 0x0 DUP1 REVERT JUMPDEST SWAP2 SWAP1 POP JUMP JUMPDEST PUSH1 0x0 DUP1 PUSH1 0x0 PUSH1 0x60 DUP5 DUP7 SUB SLT ISZERO PUSH2 0xC67 JUMPI PUSH1 0x0 DUP1 REVERT JUMPDEST PUSH2 0xC70 DUP5 PUSH2 0xC36 JUMP JUMPDEST SWAP3 POP PUSH2 0xC7E PUSH1 0x20 DUP6 ADD PUSH2 0xC36 JUMP JUMPDEST SWAP2 POP PUSH2 0xC8C PUSH1 0x40 DUP6 ADD PUSH2 0xC36 JUMP JUMPDEST SWAP1 POP SWAP3 POP SWAP3 POP SWAP3 JUMP JUMPDEST PUSH1 0x0 DUP1 PUSH1 0x40 DUP4 DUP6 SUB SLT ISZERO PUSH2 0xCA8 JUMPI PUSH1 0x0 DUP1 REVERT JUMPDEST PUSH2 0xCB1 DUP4 PUSH2 0xC36 JUMP JUMPDEST SWAP5 PUSH1 0x20 SWAP4 SWAP1 SWAP4 ADD CALLDATALOAD SWAP4 POP POP POP JUMP JUMPDEST PUSH1 0x0 PUSH1 0x20 DUP3 DUP5 SUB SLT ISZERO PUSH2 0xCD1 JUMPI PUSH1 0x0 DUP1 REVERT JUMPDEST POP CALLDATALOAD SWAP2 SWAP1 POP JUMP JUMPDEST PUSH1 0x0 PUSH1 0x20 DUP3 DUP5 SUB SLT ISZERO PUSH2 0xCEA JUMPI PUSH1 0x0 DUP1 REVERT JUMPDEST PUSH2 0xA85 DUP3 PUSH2 0xC36 JUMP JUMPDEST PUSH1 0x0 PUSH1 0x20 DUP1 DUP4 MSTORE DUP4 MLOAD DUP1 DUP3 DUP6 ADD MSTORE PUSH1 0x0 JUMPDEST DUP2 DUP2 LT ISZERO PUSH2 0xD20 JUMPI DUP6 DUP2 ADD DUP4 ADD MLOAD DUP6 DUP3 ADD PUSH1 0x40 ADD MSTORE DUP3 ADD PUSH2 0xD04 JUMP JUMPDEST POP PUSH1 0x0 PUSH1 0x40 DUP3 DUP7 ADD ADD MSTORE PUSH1 0x40 PUSH1 0x1F NOT PUSH1 0x1F DUP4 ADD AND DUP6 ADD ADD SWAP3 POP POP POP SWAP3 SWAP2 POP POP JUMP JUMPDEST PUSH1 0x0 PUSH1 0x20 DUP3 DUP5 SUB SLT ISZERO PUSH2 0xD53 JUMPI PUSH1 0x0 DUP1 REVERT JUMPDEST POP MLOAD SWAP2 SWAP1 POP JUMP JUMPDEST PUSH1 0x0 PUSH1 0x20 DUP3 DUP5 SUB SLT ISZERO PUSH2 0xD6C JUMPI PUSH1 0x0 DUP1 REVERT JUMPDEST DUP2 MLOAD DUP1 ISZERO ISZERO DUP2 EQ PUSH2 0xA85 JUMPI PUSH1 0x0 DUP1 REVERT JUMPDEST PUSH4 0x4E487B71 PUSH1 0xE0 SHL PUSH1 0x0 MSTORE PUSH1 0x11 PUSH1 0x4 MSTORE PUSH1 0x24 PUSH1 0x0 REVERT JUMPDEST DUP1 DUP3 ADD DUP1 DUP3 GT ISZERO PUSH2 0xA88 JUMPI PUSH2 0xA88 PUSH2 0xD7C JUMP JUMPDEST DUP2 DUP2 SUB DUP2 DUP2 GT ISZERO PUSH2 0xA88 JUMPI PUSH2 0xA88 PUSH2 0xD7C JUMP INVALID LOG2 PUSH5 0x6970667358 0x22 SLT KECCAK256 0xC1 DUP11 0xA5 0xB7 0xE DUP12 0xC1 DUP9 PUSH12 0x22C3D988F9DD02EC86B9BE0E 0x5E 0xE7 STATICCALL PUSH12 0xBECE3036EAEF9964736F6C63 NUMBER STOP ADDMOD EQ STOP CALLER "
		},
		"gasEstimates": {
			"creation": {
				"codeDepositCost": "713200",
				"executionCost": "26515",
				"totalCost": "739715"
			},
			"external": {
				"NAME()": "infinite",
				"WETH()": "2426",
				"accountSurplus(address,uint256)": "infinite",
				"activePoolAddress()": "2359",
				"borrowerOperationsAddress()": "2403",
				"claimColl(address)": "infinite",
				"getCollateral(address)": "2575",
				"getETH()": "2294",
				"initialize(address)": "59542",
				"isInitialized()": "2395",
				"isOwner()": "2344",
				"owner()": "2420",
				"receiveERC20(uint256)": "infinite",
				"setAddresses(address,address,address)": "infinite",
				"troveManagerAddress()": "2382"
			},
			"internal": {
				"_requireCallerIsActivePool()": "infinite",
				"_requireCallerIsBorrowerOperations()": "infinite",
				"_requireCallerIsTroveManager()": "infinite"
			}
		},
		"methodIdentifiers": {
			"NAME()": "a3f4df7e",
			"WETH()": "ad5c4648",
			"accountSurplus(address,uint256)": "3f10abab",
			"activePoolAddress()": "b08bc722",
			"borrowerOperationsAddress()": "b7f8cf9b",
			"claimColl(address)": "b32beb5b",
			"getCollateral(address)": "9b56d6c9",
			"getETH()": "14f6c3be",
			"initialize(address)": "c4d66de8",
			"isInitialized()": "392e53cd",
			"isOwner()": "8f32d59b",
			"owner()": "8da5cb5b",
			"receiveERC20(uint256)": "81381660",
			"setAddresses(address,address,address)": "363bf964",
			"troveManagerAddress()": "5a4d28bb"
		}
	},
	"abi": [
		{
			"anonymous": false,
			"inputs": [
				{
					"indexed": false,
					"internalType": "address",
					"name": "_newActivePoolAddress",
					"type": "address"
				}
			],
			"name": "ActivePoolAddressChanged",
			"type": "event"
		},
		{
			"anonymous": false,
			"inputs": [
				{
					"indexed": false,
					"internalType": "address",
					"name": "_newBorrowerOperationsAddress",
					"type": "address"
				}
			],
			"name": "BorrowerOperationsAddressChanged",
			"type": "event"
		},
		{
			"anonymous": false,
			"inputs": [
				{
					"indexed": true,
					"internalType": "address",
					"name": "_account",
					"type": "address"
				},
				{
					"indexed": false,
					"internalType": "uint256",
					"name": "_newBalance",
					"type": "uint256"
				}
			],
			"name": "CollBalanceUpdated",
			"type": "event"
		},
		{
			"anonymous": false,
			"inputs": [
				{
					"indexed": false,
					"internalType": "address",
					"name": "_to",
					"type": "address"
				},
				{
					"indexed": false,
					"internalType": "uint256",
					"name": "_amount",
					"type": "uint256"
				}
			],
			"name": "EtherSent",
			"type": "event"
		},
		{
			"anonymous": false,
			"inputs": [
				{
					"indexed": true,
					"internalType": "address",
					"name": "previousOwner",
					"type": "address"
				},
				{
					"indexed": true,
					"internalType": "address",
					"name": "newOwner",
					"type": "address"
				}
			],
			"name": "OwnershipTransferred",
			"type": "event"
		},
		{
			"anonymous": false,
			"inputs": [
				{
					"indexed": false,
					"internalType": "address",
					"name": "_newTroveManagerAddress",
					"type": "address"
				}
			],
			"name": "TroveManagerAddressChanged",
			"type": "event"
		},
		{
			"inputs": [],
			"name": "NAME",
			"outputs": [
				{
					"internalType": "string",
					"name": "",
					"type": "string"
				}
			],
			"stateMutability": "view",
			"type": "function"
		},
		{
			"inputs": [],
			"name": "WETH",
			"outputs": [
				{
					"internalType": "contract IERC20",
					"name": "",
					"type": "address"
				}
			],
			"stateMutability": "view",
			"type": "function"
		},
		{
			"inputs": [
				{
					"internalType": "address",
					"name": "_account",
					"type": "address"
				},
				{
					"internalType": "uint256",
					"name": "_amount",
					"type": "uint256"
				}
			],
			"name": "accountSurplus",
			"outputs": [],
			"stateMutability": "nonpayable",
			"type": "function"
		},
		{
			"inputs": [],
			"name": "activePoolAddress",
			"outputs": [
				{
					"internalType": "address",
					"name": "",
					"type": "address"
				}
			],
			"stateMutability": "view",
			"type": "function"
		},
		{
			"inputs": [],
			"name": "borrowerOperationsAddress",
			"outputs": [
				{
					"internalType": "address",
					"name": "",
					"type": "address"
				}
			],
			"stateMutability": "view",
			"type": "function"
		},
		{
			"inputs": [
				{
					"internalType": "address",
					"name": "_account",
					"type": "address"
				}
			],
			"name": "claimColl",
			"outputs": [],
			"stateMutability": "nonpayable",
			"type": "function"
		},
		{
			"inputs": [
				{
					"internalType": "address",
					"name": "_account",
					"type": "address"
				}
			],
			"name": "getCollateral",
			"outputs": [
				{
					"internalType": "uint256",
					"name": "",
					"type": "uint256"
				}
			],
			"stateMutability": "view",
			"type": "function"
		},
		{
			"inputs": [],
			"name": "getETH",
			"outputs": [
				{
					"internalType": "uint256",
					"name": "",
					"type": "uint256"
				}
			],
			"stateMutability": "view",
			"type": "function"
		},
		{
			"inputs": [
				{
					"internalType": "address",
					"name": "_weth",
					"type": "address"
				}
			],
			"name": "initialize",
			"outputs": [],
			"stateMutability": "nonpayable",
			"type": "function"
		},
		{
			"inputs": [],
			"name": "isInitialized",
			"outputs": [
				{
					"internalType": "bool",
					"name": "",
					"type": "bool"
				}
			],
			"stateMutability": "view",
			"type": "function"
		},
		{
			"inputs": [],
			"name": "isOwner",
			"outputs": [
				{
					"internalType": "bool",
					"name": "",
					"type": "bool"
				}
			],
			"stateMutability": "view",
			"type": "function"
		},
		{
			"inputs": [],
			"name": "owner",
			"outputs": [
				{
					"internalType": "address",
					"name": "",
					"type": "address"
				}
			],
			"stateMutability": "view",
			"type": "function"
		},
		{
			"inputs": [
				{
					"internalType": "uint256",
					"name": "_amount",
					"type": "uint256"
				}
			],
			"name": "receiveERC20",
			"outputs": [],
			"stateMutability": "nonpayable",
			"type": "function"
		},
		{
			"inputs": [
				{
					"internalType": "address",
					"name": "_borrowerOperationsAddress",
					"type": "address"
				},
				{
					"internalType": "address",
					"name": "_troveManagerAddress",
					"type": "address"
				},
				{
					"internalType": "address",
					"name": "_activePoolAddress",
					"type": "address"
				}
			],
			"name": "setAddresses",
			"outputs": [],
			"stateMutability": "nonpayable",
			"type": "function"
		},
		{
			"inputs": [],
			"name": "troveManagerAddress",
			"outputs": [
				{
					"internalType": "address",
					"name": "",
					"type": "address"
				}
			],
			"stateMutability": "view",
			"type": "function"
		}
	]
}