{
	"data": {
		"bytecode": {
			"linkReferences": {},
			"object": "608060405234801561001057600080fd5b50600380546001600160a01b031916339081179091556040516000907f8be0079c531659141344cd1fd0a4f28419497f9722a3daafe3b4186f6b6457e0908290a36113bc806100606000396000f3fe608060405234801561001057600080fd5b506004361061014d5760003560e01c8063795d26c3116100c357806390107afe1161007c57806390107afe146102bb578063a20baee614610225578063a3f4df7e146102d0578063ae91875414610307578063c394a7fa1461031a578063f92d34331461032d57600080fd5b8063795d26c3146102565780637b41bdbe1461025e5780637f7dde4a14610271578063887105d3146102845780638da5cb5b1461028c5780638f32d59b1461029d57600080fd5b80634870dd9a116101155780634870dd9a146101fb578063525acdbb146102035780635733d58f1461021657806372fe25aa14610225578063741bef1a14610234578063794e57241461024757600080fd5b806313144dba146101525780631bf435551461018f5780632e86bbd8146101ad5780633cc74225146101bd5780633d83908a146101e8575b600080fd5b6101656101603660046111a2565b610335565b604080516001600160a01b0390941684526020840192909252908201526060015b60405180910390f35b61019f6809c2007651b250000081565b604051908152602001610186565b61019f6801158e460913d0000081565b6001546101d0906001600160a01b031681565b6040516001600160a01b039091168152602001610186565b6005546101d0906001600160a01b031681565b61019f60c881565b61019f6102113660046111a2565b610815565b61019f6714d1120d7b16000081565b61019f670de0b6b3a764000081565b6002546101d0906001600160a01b031681565b61019f670f43fc2c04ee000081565b61019f61082c565b61016561026c3660046111a2565b610928565b6000546101d0906001600160a01b031681565b61019f610c0e565b6003546001600160a01b03166101d0565b6003546001600160a01b031633146040519015158152602001610186565b6102ce6102c93660046111e6565b610cd3565b005b6102fa6040518060400160405280600b81526020016a48696e7448656c7065727360a81b81525081565b604051610186919061121f565b6004546101d0906001600160a01b031681565b61019f61032836600461126d565b610ded565b61019f610e02565b6004805460408051634d62283160e01b81529051600093849384936001600160a01b0390911692899285928592634d622831928281019260209291908290030181865afa15801561038a573d6000803e3d6000fd5b505050506040513d601f19601f820116820180604052508101906103ae919061128f565b90505b6001600160a01b038116158015906104435750600554604051630d293c7160e41b81526001600160a01b038381166004830152602482018b9052670f43fc2c04ee000092169063d293c71090604401602060405180830381865afa15801561041d573d6000803e3d6000fd5b505050506040513d601f19601f8201168201806040525081019061044191906112ac565b105b156104b957604051632dc9c0eb60e21b81526001600160a01b03828116600483015284169063b72703ac90602401602060405180830381865afa15801561048e573d6000803e3d6000fd5b505050506040513d601f19601f820116820180604052508101906104b2919061128f565b90506103b1565b809550866000036104ca5760001996505b6001600160a01b038116158015906104e25750600082115b80156104f957506000876104f5816112db565b9850115b156107fd576005546040516379a4316f60e11b81526001600160a01b038381166004830152600092169063f34862de90602401602060405180830381865afa158015610549573d6000803e3d6000fd5b505050506040513d601f19601f8201168201806040525081019061056d91906112ac565b60055460405163d66a255360e01b81526001600160a01b0385811660048301526105e292169063d66a255390602401602060405180830381865afa1580156105b9573d6000803e3d6000fd5b505050506040513d601f19601f820116820180604052508101906105dd91906112ac565b610e24565b6105ec91906112f2565b90508281111561077d576809c2007651b2500000811115610777576000610625846106206809c2007651b250000085611305565b610e39565b600554604051635d8c960960e01b81526001600160a01b03868116600483015292935060009290911690635d8c960990602401602060405180830381865afa158015610675573d6000803e3d6000fd5b505050506040513d601f19601f8201168201806040525081019061069991906112ac565b6005546040516309019aaf60e31b81526001600160a01b0387811660048301529091169063480cd57890602401602060405180830381865afa1580156106e3573d6000803e3d6000fd5b505050506040513d601f19601f8201168201806040525081019061070791906112ac565b61071191906112f2565b905060008b610728670de0b6b3a764000085611318565b6107329190611345565b61073c9083611305565b9050600061074a8486611305565b9050600061075782610e4f565b90506107638382610e64565b9a5061076f8589611305565b975050505050505b506107fd565b6107878184611305565b604051632dc9c0eb60e21b81526001600160a01b0384811660048301529194509085169063b72703ac90602401602060405180830381865afa1580156107d1573d6000803e3d6000fd5b505050506040513d601f19601f820116820180604052508101906107f5919061128f565b9150506104ca565b610807828a611305565b935050505093509350939050565b6000610822848484610e99565b90505b9392505050565b6000805460408051632f5a97e560e11b8152905183926001600160a01b031691635eb52fca9160048083019260209291908290030181865afa158015610876573d6000803e3d6000fd5b505050506040513d601f19601f8201168201806040525081019061089a91906112ac565b90506000600160009054906101000a90046001600160a01b03166001600160a01b0316635eb52fca6040518163ffffffff1660e01b8152600401602060405180830381865afa1580156108f1573d6000803e3d6000fd5b505050506040513d601f19601f8201168201806040525081019061091591906112ac565b90506109218282610ec3565b9250505090565b600080600080600560009054906101000a90046001600160a01b03166001600160a01b03166349eefeee6040518163ffffffff1660e01b8152600401602060405180830381865afa158015610981573d6000803e3d6000fd5b505050506040513d601f19601f820116820180604052508101906109a591906112ac565b9050806000036109bf576000808693509350935050610c05565b6004805460408051634d62283160e01b815290516001600160a01b0390921692634d6228319282820192602092908290030181865afa158015610a06573d6000803e3d6000fd5b505050506040513d601f19601f82011682018060405250810190610a2a919061128f565b60055460405163b0d8e18160e01b81526001600160a01b038084166004830152929650610aa4928a92169063b0d8e18190602401602060405180830381865afa158015610a7b573d6000803e3d6000fd5b505050506040513d601f19601f82011682018060405250810190610a9f91906112ac565b610f22565b925084915060015b86811015610c025760408051602081018590520160408051601f19818403018152919052805160209091012092506000610ae68385611359565b600554604051633669c91160e21b8152600481018390529192506000916001600160a01b039091169063d9a7244490602401602060405180830381865afa158015610b35573d6000803e3d6000fd5b505050506040513d601f19601f82011682018060405250810190610b59919061128f565b60055460405163b0d8e18160e01b81526001600160a01b0380841660048301529293506000929091169063b0d8e18190602401602060405180830381865afa158015610ba9573d6000803e3d6000fd5b505050506040513d601f19601f82011682018060405250810190610bcd91906112ac565b90506000610bdb828d610f22565b905087811015610bec578097508298505b84610bf68161136d565b95505050505050610aac565b50505b93509350939050565b6000805460408051630a7b61df60e11b8152905183926001600160a01b0316916314f6c3be9160048083019260209291908290030181865afa158015610c58573d6000803e3d6000fd5b505050506040513d601f19601f82011682018060405250810190610c7c91906112ac565b90506000600160009054906101000a90046001600160a01b03166001600160a01b03166314f6c3be6040518163ffffffff1660e01b8152600401602060405180830381865afa1580156108f1573d6000803e3d6000fd5b6003546001600160a01b03163314610d325760405162461bcd60e51b815260206004820181905260248201527f4f776e61626c653a2063616c6c6572206973206e6f7420746865206f776e657260448201526064015b60405180910390fd5b610d3b82610f45565b610d4481610f45565b600480546001600160a01b038481166001600160a01b0319928316811790935560058054918516919092161790556040519081527f65f4cf077bc01e4742eb5ad98326f6e95b63548ea24b17f8d5e823111fe788009060200160405180910390a16040516001600160a01b03821681527f143219c9e69b09e07e095fcc889b43d8f46ca892bba65f08dc3a0050869a56789060200160405180910390a1610de9610fea565b5050565b6000610df98383610e64565b90505b92915050565b610e166103e8670de0b6b3a7640000611345565b610e21906005611318565b81565b6000610dfc826801158e460913d00000611034565b6000818310610e485781610df9565b5090919050565b6000610dfc826801158e460913d00000610ec3565b60008115610e9057610e8982610e838568056bc75e2d63100000611076565b906110f8565b9050610dfc565b50600019610dfc565b60008215610eba576000610eb184610e838786611076565b91506108259050565b50600019610825565b600080610ed083856112f2565b905083811015610df95760405162461bcd60e51b815260206004820152601b60248201527f536166654d6174683a206164646974696f6e206f766572666c6f7700000000006044820152606401610d29565b600081831015610f3b57610f368284611034565b610df9565b610df98383611034565b6001600160a01b038116610f9b5760405162461bcd60e51b815260206004820152601e60248201527f4163636f756e742063616e6e6f74206265207a65726f206164647265737300006044820152606401610d29565b803b80610de95760405162461bcd60e51b815260206004820181905260248201527f4163636f756e7420636f64652073697a652063616e6e6f74206265207a65726f6044820152606401610d29565b6003546040516000916001600160a01b0316907f8be0079c531659141344cd1fd0a4f28419497f9722a3daafe3b4186f6b6457e0908390a3600380546001600160a01b0319169055565b6000610df983836040518060400160405280601e81526020017f536166654d6174683a207375627472616374696f6e206f766572666c6f77000081525061113a565b60008260000361108857506000610dfc565b60006110948385611318565b9050826110a18583611345565b14610df95760405162461bcd60e51b815260206004820152602160248201527f536166654d6174683a206d756c7469706c69636174696f6e206f766572666c6f6044820152607760f81b6064820152608401610d29565b6000610df983836040518060400160405280601a81526020017f536166654d6174683a206469766973696f6e206279207a65726f000000000000815250611174565b6000818484111561115e5760405162461bcd60e51b8152600401610d29919061121f565b50600061116b8486611305565b95945050505050565b600081836111955760405162461bcd60e51b8152600401610d29919061121f565b50600061116b8486611345565b6000806000606084860312156111b757600080fd5b505081359360208301359350604090920135919050565b6001600160a01b03811681146111e357600080fd5b50565b600080604083850312156111f957600080fd5b8235611204816111ce565b91506020830135611214816111ce565b809150509250929050565b600060208083528351808285015260005b8181101561124c57858101830151858201604001528201611230565b506000604082860101526040601f19601f8301168501019250505092915050565b6000806040838503121561128057600080fd5b50508035926020909101359150565b6000602082840312156112a157600080fd5b8151610df9816111ce565b6000602082840312156112be57600080fd5b5051919050565b634e487b7160e01b600052601160045260246000fd5b6000816112ea576112ea6112c5565b506000190190565b80820180821115610dfc57610dfc6112c5565b81810381811115610dfc57610dfc6112c5565b8082028115828204841417610dfc57610dfc6112c5565b634e487b7160e01b600052601260045260246000fd5b6000826113545761135461132f565b500490565b6000826113685761136861132f565b500690565b60006001820161137f5761137f6112c5565b506001019056fea26469706673582212200e87539d546e86752e787aa4c3a343a8fb10265474be265b4bd58e13b56bfe3664736f6c63430008140033",
			"opcodes": "PUSH1 0x80 PUSH1 0x40 MSTORE CALLVALUE DUP1 ISZERO PUSH2 0x10 JUMPI PUSH1 0x0 DUP1 REVERT JUMPDEST POP PUSH1 0x3 DUP1 SLOAD PUSH1 0x1 PUSH1 0x1 PUSH1 0xA0 SHL SUB NOT AND CALLER SWAP1 DUP2 OR SWAP1 SWAP2 SSTORE PUSH1 0x40 MLOAD PUSH1 0x0 SWAP1 PUSH32 0x8BE0079C531659141344CD1FD0A4F28419497F9722A3DAAFE3B4186F6B6457E0 SWAP1 DUP3 SWAP1 LOG3 PUSH2 0x13BC DUP1 PUSH2 0x60 PUSH1 0x0 CODECOPY PUSH1 0x0 RETURN INVALID PUSH1 0x80 PUSH1 0x40 MSTORE CALLVALUE DUP1 ISZERO PUSH2 0x10 JUMPI PUSH1 0x0 DUP1 REVERT JUMPDEST POP PUSH1 0x4 CALLDATASIZE LT PUSH2 0x14D JUMPI PUSH1 0x0 CALLDATALOAD PUSH1 0xE0 SHR DUP1 PUSH4 0x795D26C3 GT PUSH2 0xC3 JUMPI DUP1 PUSH4 0x90107AFE GT PUSH2 0x7C JUMPI DUP1 PUSH4 0x90107AFE EQ PUSH2 0x2BB JUMPI DUP1 PUSH4 0xA20BAEE6 EQ PUSH2 0x225 JUMPI DUP1 PUSH4 0xA3F4DF7E EQ PUSH2 0x2D0 JUMPI DUP1 PUSH4 0xAE918754 EQ PUSH2 0x307 JUMPI DUP1 PUSH4 0xC394A7FA EQ PUSH2 0x31A JUMPI DUP1 PUSH4 0xF92D3433 EQ PUSH2 0x32D JUMPI PUSH1 0x0 DUP1 REVERT JUMPDEST DUP1 PUSH4 0x795D26C3 EQ PUSH2 0x256 JUMPI DUP1 PUSH4 0x7B41BDBE EQ PUSH2 0x25E JUMPI DUP1 PUSH4 0x7F7DDE4A EQ PUSH2 0x271 JUMPI DUP1 PUSH4 0x887105D3 EQ PUSH2 0x284 JUMPI DUP1 PUSH4 0x8DA5CB5B EQ PUSH2 0x28C JUMPI DUP1 PUSH4 0x8F32D59B EQ PUSH2 0x29D JUMPI PUSH1 0x0 DUP1 REVERT JUMPDEST DUP1 PUSH4 0x4870DD9A GT PUSH2 0x115 JUMPI DUP1 PUSH4 0x4870DD9A EQ PUSH2 0x1FB JUMPI DUP1 PUSH4 0x525ACDBB EQ PUSH2 0x203 JUMPI DUP1 PUSH4 0x5733D58F EQ PUSH2 0x216 JUMPI DUP1 PUSH4 0x72FE25AA EQ PUSH2 0x225 JUMPI DUP1 PUSH4 0x741BEF1A EQ PUSH2 0x234 JUMPI DUP1 PUSH4 0x794E5724 EQ PUSH2 0x247 JUMPI PUSH1 0x0 DUP1 REVERT JUMPDEST DUP1 PUSH4 0x13144DBA EQ PUSH2 0x152 JUMPI DUP1 PUSH4 0x1BF43555 EQ PUSH2 0x18F JUMPI DUP1 PUSH4 0x2E86BBD8 EQ PUSH2 0x1AD JUMPI DUP1 PUSH4 0x3CC74225 EQ PUSH2 0x1BD JUMPI DUP1 PUSH4 0x3D83908A EQ PUSH2 0x1E8 JUMPI JUMPDEST PUSH1 0x0 DUP1 REVERT JUMPDEST PUSH2 0x165 PUSH2 0x160 CALLDATASIZE PUSH1 0x4 PUSH2 0x11A2 JUMP JUMPDEST PUSH2 0x335 JUMP JUMPDEST PUSH1 0x40 DUP1 MLOAD PUSH1 0x1 PUSH1 0x1 PUSH1 0xA0 SHL SUB SWAP1 SWAP5 AND DUP5 MSTORE PUSH1 0x20 DUP5 ADD SWAP3 SWAP1 SWAP3 MSTORE SWAP1 DUP3 ADD MSTORE PUSH1 0x60 ADD JUMPDEST PUSH1 0x40 MLOAD DUP1 SWAP2 SUB SWAP1 RETURN JUMPDEST PUSH2 0x19F PUSH9 0x9C2007651B2500000 DUP2 JUMP JUMPDEST PUSH1 0x40 MLOAD SWAP1 DUP2 MSTORE PUSH1 0x20 ADD PUSH2 0x186 JUMP JUMPDEST PUSH2 0x19F PUSH9 0x1158E460913D00000 DUP2 JUMP JUMPDEST PUSH1 0x1 SLOAD PUSH2 0x1D0 SWAP1 PUSH1 0x1 PUSH1 0x1 PUSH1 0xA0 SHL SUB AND DUP2 JUMP JUMPDEST PUSH1 0x40 MLOAD PUSH1 0x1 PUSH1 0x1 PUSH1 0xA0 SHL SUB SWAP1 SWAP2 AND DUP2 MSTORE PUSH1 0x20 ADD PUSH2 0x186 JUMP JUMPDEST PUSH1 0x5 SLOAD PUSH2 0x1D0 SWAP1 PUSH1 0x1 PUSH1 0x1 PUSH1 0xA0 SHL SUB AND DUP2 JUMP JUMPDEST PUSH2 0x19F PUSH1 0xC8 DUP2 JUMP JUMPDEST PUSH2 0x19F PUSH2 0x211 CALLDATASIZE PUSH1 0x4 PUSH2 0x11A2 JUMP JUMPDEST PUSH2 0x815 JUMP JUMPDEST PUSH2 0x19F PUSH8 0x14D1120D7B160000 DUP2 JUMP JUMPDEST PUSH2 0x19F PUSH8 0xDE0B6B3A7640000 DUP2 JUMP JUMPDEST PUSH1 0x2 SLOAD PUSH2 0x1D0 SWAP1 PUSH1 0x1 PUSH1 0x1 PUSH1 0xA0 SHL SUB AND DUP2 JUMP JUMPDEST PUSH2 0x19F PUSH8 0xF43FC2C04EE0000 DUP2 JUMP JUMPDEST PUSH2 0x19F PUSH2 0x82C JUMP JUMPDEST PUSH2 0x165 PUSH2 0x26C CALLDATASIZE PUSH1 0x4 PUSH2 0x11A2 JUMP JUMPDEST PUSH2 0x928 JUMP JUMPDEST PUSH1 0x0 SLOAD PUSH2 0x1D0 SWAP1 PUSH1 0x1 PUSH1 0x1 PUSH1 0xA0 SHL SUB AND DUP2 JUMP JUMPDEST PUSH2 0x19F PUSH2 0xC0E JUMP JUMPDEST PUSH1 0x3 SLOAD PUSH1 0x1 PUSH1 0x1 PUSH1 0xA0 SHL SUB AND PUSH2 0x1D0 JUMP JUMPDEST PUSH1 0x3 SLOAD PUSH1 0x1 PUSH1 0x1 PUSH1 0xA0 SHL SUB AND CALLER EQ PUSH1 0x40 MLOAD SWAP1 ISZERO ISZERO DUP2 MSTORE PUSH1 0x20 ADD PUSH2 0x186 JUMP JUMPDEST PUSH2 0x2CE PUSH2 0x2C9 CALLDATASIZE PUSH1 0x4 PUSH2 0x11E6 JUMP JUMPDEST PUSH2 0xCD3 JUMP JUMPDEST STOP JUMPDEST PUSH2 0x2FA PUSH1 0x40 MLOAD DUP1 PUSH1 0x40 ADD PUSH1 0x40 MSTORE DUP1 PUSH1 0xB DUP2 MSTORE PUSH1 0x20 ADD PUSH11 0x48696E7448656C70657273 PUSH1 0xA8 SHL DUP2 MSTORE POP DUP2 JUMP JUMPDEST PUSH1 0x40 MLOAD PUSH2 0x186 SWAP2 SWAP1 PUSH2 0x121F JUMP JUMPDEST PUSH1 0x4 SLOAD PUSH2 0x1D0 SWAP1 PUSH1 0x1 PUSH1 0x1 PUSH1 0xA0 SHL SUB AND DUP2 JUMP JUMPDEST PUSH2 0x19F PUSH2 0x328 CALLDATASIZE PUSH1 0x4 PUSH2 0x126D JUMP JUMPDEST PUSH2 0xDED JUMP JUMPDEST PUSH2 0x19F PUSH2 0xE02 JUMP JUMPDEST PUSH1 0x4 DUP1 SLOAD PUSH1 0x40 DUP1 MLOAD PUSH4 0x4D622831 PUSH1 0xE0 SHL DUP2 MSTORE SWAP1 MLOAD PUSH1 0x0 SWAP4 DUP5 SWAP4 DUP5 SWAP4 PUSH1 0x1 PUSH1 0x1 PUSH1 0xA0 SHL SUB SWAP1 SWAP2 AND SWAP3 DUP10 SWAP3 DUP6 SWAP3 DUP6 SWAP3 PUSH4 0x4D622831 SWAP3 DUP3 DUP2 ADD SWAP3 PUSH1 0x20 SWAP3 SWAP2 SWAP1 DUP3 SWAP1 SUB ADD DUP2 DUP7 GAS STATICCALL ISZERO DUP1 ISZERO PUSH2 0x38A JUMPI RETURNDATASIZE PUSH1 0x0 DUP1 RETURNDATACOPY RETURNDATASIZE PUSH1 0x0 REVERT JUMPDEST POP POP POP POP PUSH1 0x40 MLOAD RETURNDATASIZE PUSH1 0x1F NOT PUSH1 0x1F DUP3 ADD AND DUP3 ADD DUP1 PUSH1 0x40 MSTORE POP DUP2 ADD SWAP1 PUSH2 0x3AE SWAP2 SWAP1 PUSH2 0x128F JUMP JUMPDEST SWAP1 POP JUMPDEST PUSH1 0x1 PUSH1 0x1 PUSH1 0xA0 SHL SUB DUP2 AND ISZERO DUP1 ISZERO SWAP1 PUSH2 0x443 JUMPI POP PUSH1 0x5 SLOAD PUSH1 0x40 MLOAD PUSH4 0xD293C71 PUSH1 0xE4 SHL DUP2 MSTORE PUSH1 0x1 PUSH1 0x1 PUSH1 0xA0 SHL SUB DUP4 DUP2 AND PUSH1 0x4 DUP4 ADD MSTORE PUSH1 0x24 DUP3 ADD DUP12 SWAP1 MSTORE PUSH8 0xF43FC2C04EE0000 SWAP3 AND SWAP1 PUSH4 0xD293C710 SWAP1 PUSH1 0x44 ADD PUSH1 0x20 PUSH1 0x40 MLOAD DUP1 DUP4 SUB DUP2 DUP7 GAS STATICCALL ISZERO DUP1 ISZERO PUSH2 0x41D JUMPI RETURNDATASIZE PUSH1 0x0 DUP1 RETURNDATACOPY RETURNDATASIZE PUSH1 0x0 REVERT JUMPDEST POP POP POP POP PUSH1 0x40 MLOAD RETURNDATASIZE PUSH1 0x1F NOT PUSH1 0x1F DUP3 ADD AND DUP3 ADD DUP1 PUSH1 0x40 MSTORE POP DUP2 ADD SWAP1 PUSH2 0x441 SWAP2 SWAP1 PUSH2 0x12AC JUMP JUMPDEST LT JUMPDEST ISZERO PUSH2 0x4B9 JUMPI PUSH1 0x40 MLOAD PUSH4 0x2DC9C0EB PUSH1 0xE2 SHL DUP2 MSTORE PUSH1 0x1 PUSH1 0x1 PUSH1 0xA0 SHL SUB DUP3 DUP2 AND PUSH1 0x4 DUP4 ADD MSTORE DUP5 AND SWAP1 PUSH4 0xB72703AC SWAP1 PUSH1 0x24 ADD PUSH1 0x20 PUSH1 0x40 MLOAD DUP1 DUP4 SUB DUP2 DUP7 GAS STATICCALL ISZERO DUP1 ISZERO PUSH2 0x48E JUMPI RETURNDATASIZE PUSH1 0x0 DUP1 RETURNDATACOPY RETURNDATASIZE PUSH1 0x0 REVERT JUMPDEST POP POP POP POP PUSH1 0x40 MLOAD RETURNDATASIZE PUSH1 0x1F NOT PUSH1 0x1F DUP3 ADD AND DUP3 ADD DUP1 PUSH1 0x40 MSTORE POP DUP2 ADD SWAP1 PUSH2 0x4B2 SWAP2 SWAP1 PUSH2 0x128F JUMP JUMPDEST SWAP1 POP PUSH2 0x3B1 JUMP JUMPDEST DUP1 SWAP6 POP DUP7 PUSH1 0x0 SUB PUSH2 0x4CA JUMPI PUSH1 0x0 NOT SWAP7 POP JUMPDEST PUSH1 0x1 PUSH1 0x1 PUSH1 0xA0 SHL SUB DUP2 AND ISZERO DUP1 ISZERO SWAP1 PUSH2 0x4E2 JUMPI POP PUSH1 0x0 DUP3 GT JUMPDEST DUP1 ISZERO PUSH2 0x4F9 JUMPI POP PUSH1 0x0 DUP8 PUSH2 0x4F5 DUP2 PUSH2 0x12DB JUMP JUMPDEST SWAP9 POP GT JUMPDEST ISZERO PUSH2 0x7FD JUMPI PUSH1 0x5 SLOAD PUSH1 0x40 MLOAD PUSH4 0x79A4316F PUSH1 0xE1 SHL DUP2 MSTORE PUSH1 0x1 PUSH1 0x1 PUSH1 0xA0 SHL SUB DUP4 DUP2 AND PUSH1 0x4 DUP4 ADD MSTORE PUSH1 0x0 SWAP3 AND SWAP1 PUSH4 0xF34862DE SWAP1 PUSH1 0x24 ADD PUSH1 0x20 PUSH1 0x40 MLOAD DUP1 DUP4 SUB DUP2 DUP7 GAS STATICCALL ISZERO DUP1 ISZERO PUSH2 0x549 JUMPI RETURNDATASIZE PUSH1 0x0 DUP1 RETURNDATACOPY RETURNDATASIZE PUSH1 0x0 REVERT JUMPDEST POP POP POP POP PUSH1 0x40 MLOAD RETURNDATASIZE PUSH1 0x1F NOT PUSH1 0x1F DUP3 ADD AND DUP3 ADD DUP1 PUSH1 0x40 MSTORE POP DUP2 ADD SWAP1 PUSH2 0x56D SWAP2 SWAP1 PUSH2 0x12AC JUMP JUMPDEST PUSH1 0x5 SLOAD PUSH1 0x40 MLOAD PUSH4 0xD66A2553 PUSH1 0xE0 SHL DUP2 MSTORE PUSH1 0x1 PUSH1 0x1 PUSH1 0xA0 SHL SUB DUP6 DUP2 AND PUSH1 0x4 DUP4 ADD MSTORE PUSH2 0x5E2 SWAP3 AND SWAP1 PUSH4 0xD66A2553 SWAP1 PUSH1 0x24 ADD PUSH1 0x20 PUSH1 0x40 MLOAD DUP1 DUP4 SUB DUP2 DUP7 GAS STATICCALL ISZERO DUP1 ISZERO PUSH2 0x5B9 JUMPI RETURNDATASIZE PUSH1 0x0 DUP1 RETURNDATACOPY RETURNDATASIZE PUSH1 0x0 REVERT JUMPDEST POP POP POP POP PUSH1 0x40 MLOAD RETURNDATASIZE PUSH1 0x1F NOT PUSH1 0x1F DUP3 ADD AND DUP3 ADD DUP1 PUSH1 0x40 MSTORE POP DUP2 ADD SWAP1 PUSH2 0x5DD SWAP2 SWAP1 PUSH2 0x12AC JUMP JUMPDEST PUSH2 0xE24 JUMP JUMPDEST PUSH2 0x5EC SWAP2 SWAP1 PUSH2 0x12F2 JUMP JUMPDEST SWAP1 POP DUP3 DUP2 GT ISZERO PUSH2 0x77D JUMPI PUSH9 0x9C2007651B2500000 DUP2 GT ISZERO PUSH2 0x777 JUMPI PUSH1 0x0 PUSH2 0x625 DUP5 PUSH2 0x620 PUSH9 0x9C2007651B2500000 DUP6 PUSH2 0x1305 JUMP JUMPDEST PUSH2 0xE39 JUMP JUMPDEST PUSH1 0x5 SLOAD PUSH1 0x40 MLOAD PUSH4 0x5D8C9609 PUSH1 0xE0 SHL DUP2 MSTORE PUSH1 0x1 PUSH1 0x1 PUSH1 0xA0 SHL SUB DUP7 DUP2 AND PUSH1 0x4 DUP4 ADD MSTORE SWAP3 SWAP4 POP PUSH1 0x0 SWAP3 SWAP1 SWAP2 AND SWAP1 PUSH4 0x5D8C9609 SWAP1 PUSH1 0x24 ADD PUSH1 0x20 PUSH1 0x40 MLOAD DUP1 DUP4 SUB DUP2 DUP7 GAS STATICCALL ISZERO DUP1 ISZERO PUSH2 0x675 JUMPI RETURNDATASIZE PUSH1 0x0 DUP1 RETURNDATACOPY RETURNDATASIZE PUSH1 0x0 REVERT JUMPDEST POP POP POP POP PUSH1 0x40 MLOAD RETURNDATASIZE PUSH1 0x1F NOT PUSH1 0x1F DUP3 ADD AND DUP3 ADD DUP1 PUSH1 0x40 MSTORE POP DUP2 ADD SWAP1 PUSH2 0x699 SWAP2 SWAP1 PUSH2 0x12AC JUMP JUMPDEST PUSH1 0x5 SLOAD PUSH1 0x40 MLOAD PUSH4 0x9019AAF PUSH1 0xE3 SHL DUP2 MSTORE PUSH1 0x1 PUSH1 0x1 PUSH1 0xA0 SHL SUB DUP8 DUP2 AND PUSH1 0x4 DUP4 ADD MSTORE SWAP1 SWAP2 AND SWAP1 PUSH4 0x480CD578 SWAP1 PUSH1 0x24 ADD PUSH1 0x20 PUSH1 0x40 MLOAD DUP1 DUP4 SUB DUP2 DUP7 GAS STATICCALL ISZERO DUP1 ISZERO PUSH2 0x6E3 JUMPI RETURNDATASIZE PUSH1 0x0 DUP1 RETURNDATACOPY RETURNDATASIZE PUSH1 0x0 REVERT JUMPDEST POP POP POP POP PUSH1 0x40 MLOAD RETURNDATASIZE PUSH1 0x1F NOT PUSH1 0x1F DUP3 ADD AND DUP3 ADD DUP1 PUSH1 0x40 MSTORE POP DUP2 ADD SWAP1 PUSH2 0x707 SWAP2 SWAP1 PUSH2 0x12AC JUMP JUMPDEST PUSH2 0x711 SWAP2 SWAP1 PUSH2 0x12F2 JUMP JUMPDEST SWAP1 POP PUSH1 0x0 DUP12 PUSH2 0x728 PUSH8 0xDE0B6B3A7640000 DUP6 PUSH2 0x1318 JUMP JUMPDEST PUSH2 0x732 SWAP2 SWAP1 PUSH2 0x1345 JUMP JUMPDEST PUSH2 0x73C SWAP1 DUP4 PUSH2 0x1305 JUMP JUMPDEST SWAP1 POP PUSH1 0x0 PUSH2 0x74A DUP5 DUP7 PUSH2 0x1305 JUMP JUMPDEST SWAP1 POP PUSH1 0x0 PUSH2 0x757 DUP3 PUSH2 0xE4F JUMP JUMPDEST SWAP1 POP PUSH2 0x763 DUP4 DUP3 PUSH2 0xE64 JUMP JUMPDEST SWAP11 POP PUSH2 0x76F DUP6 DUP10 PUSH2 0x1305 JUMP JUMPDEST SWAP8 POP POP POP POP POP POP JUMPDEST POP PUSH2 0x7FD JUMP JUMPDEST PUSH2 0x787 DUP2 DUP5 PUSH2 0x1305 JUMP JUMPDEST PUSH1 0x40 MLOAD PUSH4 0x2DC9C0EB PUSH1 0xE2 SHL DUP2 MSTORE PUSH1 0x1 PUSH1 0x1 PUSH1 0xA0 SHL SUB DUP5 DUP2 AND PUSH1 0x4 DUP4 ADD MSTORE SWAP2 SWAP5 POP SWAP1 DUP6 AND SWAP1 PUSH4 0xB72703AC SWAP1 PUSH1 0x24 ADD PUSH1 0x20 PUSH1 0x40 MLOAD DUP1 DUP4 SUB DUP2 DUP7 GAS STATICCALL ISZERO DUP1 ISZERO PUSH2 0x7D1 JUMPI RETURNDATASIZE PUSH1 0x0 DUP1 RETURNDATACOPY RETURNDATASIZE PUSH1 0x0 REVERT JUMPDEST POP POP POP POP PUSH1 0x40 MLOAD RETURNDATASIZE PUSH1 0x1F NOT PUSH1 0x1F DUP3 ADD AND DUP3 ADD DUP1 PUSH1 0x40 MSTORE POP DUP2 ADD SWAP1 PUSH2 0x7F5 SWAP2 SWAP1 PUSH2 0x128F JUMP JUMPDEST SWAP2 POP POP PUSH2 0x4CA JUMP JUMPDEST PUSH2 0x807 DUP3 DUP11 PUSH2 0x1305 JUMP JUMPDEST SWAP4 POP POP POP POP SWAP4 POP SWAP4 POP SWAP4 SWAP1 POP JUMP JUMPDEST PUSH1 0x0 PUSH2 0x822 DUP5 DUP5 DUP5 PUSH2 0xE99 JUMP JUMPDEST SWAP1 POP JUMPDEST SWAP4 SWAP3 POP POP POP JUMP JUMPDEST PUSH1 0x0 DUP1 SLOAD PUSH1 0x40 DUP1 MLOAD PUSH4 0x2F5A97E5 PUSH1 0xE1 SHL DUP2 MSTORE SWAP1 MLOAD DUP4 SWAP3 PUSH1 0x1 PUSH1 0x1 PUSH1 0xA0 SHL SUB AND SWAP2 PUSH4 0x5EB52FCA SWAP2 PUSH1 0x4 DUP1 DUP4 ADD SWAP3 PUSH1 0x20 SWAP3 SWAP2 SWAP1 DUP3 SWAP1 SUB ADD DUP2 DUP7 GAS STATICCALL ISZERO DUP1 ISZERO PUSH2 0x876 JUMPI RETURNDATASIZE PUSH1 0x0 DUP1 RETURNDATACOPY RETURNDATASIZE PUSH1 0x0 REVERT JUMPDEST POP POP POP POP PUSH1 0x40 MLOAD RETURNDATASIZE PUSH1 0x1F NOT PUSH1 0x1F DUP3 ADD AND DUP3 ADD DUP1 PUSH1 0x40 MSTORE POP DUP2 ADD SWAP1 PUSH2 0x89A SWAP2 SWAP1 PUSH2 0x12AC JUMP JUMPDEST SWAP1 POP PUSH1 0x0 PUSH1 0x1 PUSH1 0x0 SWAP1 SLOAD SWAP1 PUSH2 0x100 EXP SWAP1 DIV PUSH1 0x1 PUSH1 0x1 PUSH1 0xA0 SHL SUB AND PUSH1 0x1 PUSH1 0x1 PUSH1 0xA0 SHL SUB AND PUSH4 0x5EB52FCA PUSH1 0x40 MLOAD DUP2 PUSH4 0xFFFFFFFF AND PUSH1 0xE0 SHL DUP2 MSTORE PUSH1 0x4 ADD PUSH1 0x20 PUSH1 0x40 MLOAD DUP1 DUP4 SUB DUP2 DUP7 GAS STATICCALL ISZERO DUP1 ISZERO PUSH2 0x8F1 JUMPI RETURNDATASIZE PUSH1 0x0 DUP1 RETURNDATACOPY RETURNDATASIZE PUSH1 0x0 REVERT JUMPDEST POP POP POP POP PUSH1 0x40 MLOAD RETURNDATASIZE PUSH1 0x1F NOT PUSH1 0x1F DUP3 ADD AND DUP3 ADD DUP1 PUSH1 0x40 MSTORE POP DUP2 ADD SWAP1 PUSH2 0x915 SWAP2 SWAP1 PUSH2 0x12AC JUMP JUMPDEST SWAP1 POP PUSH2 0x921 DUP3 DUP3 PUSH2 0xEC3 JUMP JUMPDEST SWAP3 POP POP POP SWAP1 JUMP JUMPDEST PUSH1 0x0 DUP1 PUSH1 0x0 DUP1 PUSH1 0x5 PUSH1 0x0 SWAP1 SLOAD SWAP1 PUSH2 0x100 EXP SWAP1 DIV PUSH1 0x1 PUSH1 0x1 PUSH1 0xA0 SHL SUB AND PUSH1 0x1 PUSH1 0x1 PUSH1 0xA0 SHL SUB AND PUSH4 0x49EEFEEE PUSH1 0x40 MLOAD DUP2 PUSH4 0xFFFFFFFF AND PUSH1 0xE0 SHL DUP2 MSTORE PUSH1 0x4 ADD PUSH1 0x20 PUSH1 0x40 MLOAD DUP1 DUP4 SUB DUP2 DUP7 GAS STATICCALL ISZERO DUP1 ISZERO PUSH2 0x981 JUMPI RETURNDATASIZE PUSH1 0x0 DUP1 RETURNDATACOPY RETURNDATASIZE PUSH1 0x0 REVERT JUMPDEST POP POP POP POP PUSH1 0x40 MLOAD RETURNDATASIZE PUSH1 0x1F NOT PUSH1 0x1F DUP3 ADD AND DUP3 ADD DUP1 PUSH1 0x40 MSTORE POP DUP2 ADD SWAP1 PUSH2 0x9A5 SWAP2 SWAP1 PUSH2 0x12AC JUMP JUMPDEST SWAP1 POP DUP1 PUSH1 0x0 SUB PUSH2 0x9BF JUMPI PUSH1 0x0 DUP1 DUP7 SWAP4 POP SWAP4 POP SWAP4 POP POP PUSH2 0xC05 JUMP JUMPDEST PUSH1 0x4 DUP1 SLOAD PUSH1 0x40 DUP1 MLOAD PUSH4 0x4D622831 PUSH1 0xE0 SHL DUP2 MSTORE SWAP1 MLOAD PUSH1 0x1 PUSH1 0x1 PUSH1 0xA0 SHL SUB SWAP1 SWAP3 AND SWAP3 PUSH4 0x4D622831 SWAP3 DUP3 DUP3 ADD SWAP3 PUSH1 0x20 SWAP3 SWAP1 DUP3 SWAP1 SUB ADD DUP2 DUP7 GAS STATICCALL ISZERO DUP1 ISZERO PUSH2 0xA06 JUMPI RETURNDATASIZE PUSH1 0x0 DUP1 RETURNDATACOPY RETURNDATASIZE PUSH1 0x0 REVERT JUMPDEST POP POP POP POP PUSH1 0x40 MLOAD RETURNDATASIZE PUSH1 0x1F NOT PUSH1 0x1F DUP3 ADD AND DUP3 ADD DUP1 PUSH1 0x40 MSTORE POP DUP2 ADD SWAP1 PUSH2 0xA2A SWAP2 SWAP1 PUSH2 0x128F JUMP JUMPDEST PUSH1 0x5 SLOAD PUSH1 0x40 MLOAD PUSH4 0xB0D8E181 PUSH1 0xE0 SHL DUP2 MSTORE PUSH1 0x1 PUSH1 0x1 PUSH1 0xA0 SHL SUB DUP1 DUP5 AND PUSH1 0x4 DUP4 ADD MSTORE SWAP3 SWAP7 POP PUSH2 0xAA4 SWAP3 DUP11 SWAP3 AND SWAP1 PUSH4 0xB0D8E181 SWAP1 PUSH1 0x24 ADD PUSH1 0x20 PUSH1 0x40 MLOAD DUP1 DUP4 SUB DUP2 DUP7 GAS STATICCALL ISZERO DUP1 ISZERO PUSH2 0xA7B JUMPI RETURNDATASIZE PUSH1 0x0 DUP1 RETURNDATACOPY RETURNDATASIZE PUSH1 0x0 REVERT JUMPDEST POP POP POP POP PUSH1 0x40 MLOAD RETURNDATASIZE PUSH1 0x1F NOT PUSH1 0x1F DUP3 ADD AND DUP3 ADD DUP1 PUSH1 0x40 MSTORE POP DUP2 ADD SWAP1 PUSH2 0xA9F SWAP2 SWAP1 PUSH2 0x12AC JUMP JUMPDEST PUSH2 0xF22 JUMP JUMPDEST SWAP3 POP DUP5 SWAP2 POP PUSH1 0x1 JUMPDEST DUP7 DUP2 LT ISZERO PUSH2 0xC02 JUMPI PUSH1 0x40 DUP1 MLOAD PUSH1 0x20 DUP2 ADD DUP6 SWAP1 MSTORE ADD PUSH1 0x40 DUP1 MLOAD PUSH1 0x1F NOT DUP2 DUP5 SUB ADD DUP2 MSTORE SWAP2 SWAP1 MSTORE DUP1 MLOAD PUSH1 0x20 SWAP1 SWAP2 ADD KECCAK256 SWAP3 POP PUSH1 0x0 PUSH2 0xAE6 DUP4 DUP6 PUSH2 0x1359 JUMP JUMPDEST PUSH1 0x5 SLOAD PUSH1 0x40 MLOAD PUSH4 0x3669C911 PUSH1 0xE2 SHL DUP2 MSTORE PUSH1 0x4 DUP2 ADD DUP4 SWAP1 MSTORE SWAP2 SWAP3 POP PUSH1 0x0 SWAP2 PUSH1 0x1 PUSH1 0x1 PUSH1 0xA0 SHL SUB SWAP1 SWAP2 AND SWAP1 PUSH4 0xD9A72444 SWAP1 PUSH1 0x24 ADD PUSH1 0x20 PUSH1 0x40 MLOAD DUP1 DUP4 SUB DUP2 DUP7 GAS STATICCALL ISZERO DUP1 ISZERO PUSH2 0xB35 JUMPI RETURNDATASIZE PUSH1 0x0 DUP1 RETURNDATACOPY RETURNDATASIZE PUSH1 0x0 REVERT JUMPDEST POP POP POP POP PUSH1 0x40 MLOAD RETURNDATASIZE PUSH1 0x1F NOT PUSH1 0x1F DUP3 ADD AND DUP3 ADD DUP1 PUSH1 0x40 MSTORE POP DUP2 ADD SWAP1 PUSH2 0xB59 SWAP2 SWAP1 PUSH2 0x128F JUMP JUMPDEST PUSH1 0x5 SLOAD PUSH1 0x40 MLOAD PUSH4 0xB0D8E181 PUSH1 0xE0 SHL DUP2 MSTORE PUSH1 0x1 PUSH1 0x1 PUSH1 0xA0 SHL SUB DUP1 DUP5 AND PUSH1 0x4 DUP4 ADD MSTORE SWAP3 SWAP4 POP PUSH1 0x0 SWAP3 SWAP1 SWAP2 AND SWAP1 PUSH4 0xB0D8E181 SWAP1 PUSH1 0x24 ADD PUSH1 0x20 PUSH1 0x40 MLOAD DUP1 DUP4 SUB DUP2 DUP7 GAS STATICCALL ISZERO DUP1 ISZERO PUSH2 0xBA9 JUMPI RETURNDATASIZE PUSH1 0x0 DUP1 RETURNDATACOPY RETURNDATASIZE PUSH1 0x0 REVERT JUMPDEST POP POP POP POP PUSH1 0x40 MLOAD RETURNDATASIZE PUSH1 0x1F NOT PUSH1 0x1F DUP3 ADD AND DUP3 ADD DUP1 PUSH1 0x40 MSTORE POP DUP2 ADD SWAP1 PUSH2 0xBCD SWAP2 SWAP1 PUSH2 0x12AC JUMP JUMPDEST SWAP1 POP PUSH1 0x0 PUSH2 0xBDB DUP3 DUP14 PUSH2 0xF22 JUMP JUMPDEST SWAP1 POP DUP8 DUP2 LT ISZERO PUSH2 0xBEC JUMPI DUP1 SWAP8 POP DUP3 SWAP9 POP JUMPDEST DUP5 PUSH2 0xBF6 DUP2 PUSH2 0x136D JUMP JUMPDEST SWAP6 POP POP POP POP POP POP PUSH2 0xAAC JUMP JUMPDEST POP POP JUMPDEST SWAP4 POP SWAP4 POP SWAP4 SWAP1 POP JUMP JUMPDEST PUSH1 0x0 DUP1 SLOAD PUSH1 0x40 DUP1 MLOAD PUSH4 0xA7B61DF PUSH1 0xE1 SHL DUP2 MSTORE SWAP1 MLOAD DUP4 SWAP3 PUSH1 0x1 PUSH1 0x1 PUSH1 0xA0 SHL SUB AND SWAP2 PUSH4 0x14F6C3BE SWAP2 PUSH1 0x4 DUP1 DUP4 ADD SWAP3 PUSH1 0x20 SWAP3 SWAP2 SWAP1 DUP3 SWAP1 SUB ADD DUP2 DUP7 GAS STATICCALL ISZERO DUP1 ISZERO PUSH2 0xC58 JUMPI RETURNDATASIZE PUSH1 0x0 DUP1 RETURNDATACOPY RETURNDATASIZE PUSH1 0x0 REVERT JUMPDEST POP POP POP POP PUSH1 0x40 MLOAD RETURNDATASIZE PUSH1 0x1F NOT PUSH1 0x1F DUP3 ADD AND DUP3 ADD DUP1 PUSH1 0x40 MSTORE POP DUP2 ADD SWAP1 PUSH2 0xC7C SWAP2 SWAP1 PUSH2 0x12AC JUMP JUMPDEST SWAP1 POP PUSH1 0x0 PUSH1 0x1 PUSH1 0x0 SWAP1 SLOAD SWAP1 PUSH2 0x100 EXP SWAP1 DIV PUSH1 0x1 PUSH1 0x1 PUSH1 0xA0 SHL SUB AND PUSH1 0x1 PUSH1 0x1 PUSH1 0xA0 SHL SUB AND PUSH4 0x14F6C3BE PUSH1 0x40 MLOAD DUP2 PUSH4 0xFFFFFFFF AND PUSH1 0xE0 SHL DUP2 MSTORE PUSH1 0x4 ADD PUSH1 0x20 PUSH1 0x40 MLOAD DUP1 DUP4 SUB DUP2 DUP7 GAS STATICCALL ISZERO DUP1 ISZERO PUSH2 0x8F1 JUMPI RETURNDATASIZE PUSH1 0x0 DUP1 RETURNDATACOPY RETURNDATASIZE PUSH1 0x0 REVERT JUMPDEST PUSH1 0x3 SLOAD PUSH1 0x1 PUSH1 0x1 PUSH1 0xA0 SHL SUB AND CALLER EQ PUSH2 0xD32 JUMPI PUSH1 0x40 MLOAD PUSH3 0x461BCD PUSH1 0xE5 SHL DUP2 MSTORE PUSH1 0x20 PUSH1 0x4 DUP3 ADD DUP2 SWAP1 MSTORE PUSH1 0x24 DUP3 ADD MSTORE PUSH32 0x4F776E61626C653A2063616C6C6572206973206E6F7420746865206F776E6572 PUSH1 0x44 DUP3 ADD MSTORE PUSH1 0x64 ADD JUMPDEST PUSH1 0x40 MLOAD DUP1 SWAP2 SUB SWAP1 REVERT JUMPDEST PUSH2 0xD3B DUP3 PUSH2 0xF45 JUMP JUMPDEST PUSH2 0xD44 DUP2 PUSH2 0xF45 JUMP JUMPDEST PUSH1 0x4 DUP1 SLOAD PUSH1 0x1 PUSH1 0x1 PUSH1 0xA0 SHL SUB DUP5 DUP2 AND PUSH1 0x1 PUSH1 0x1 PUSH1 0xA0 SHL SUB NOT SWAP3 DUP4 AND DUP2 OR SWAP1 SWAP4 SSTORE PUSH1 0x5 DUP1 SLOAD SWAP2 DUP6 AND SWAP2 SWAP1 SWAP3 AND OR SWAP1 SSTORE PUSH1 0x40 MLOAD SWAP1 DUP2 MSTORE PUSH32 0x65F4CF077BC01E4742EB5AD98326F6E95B63548EA24B17F8D5E823111FE78800 SWAP1 PUSH1 0x20 ADD PUSH1 0x40 MLOAD DUP1 SWAP2 SUB SWAP1 LOG1 PUSH1 0x40 MLOAD PUSH1 0x1 PUSH1 0x1 PUSH1 0xA0 SHL SUB DUP3 AND DUP2 MSTORE PUSH32 0x143219C9E69B09E07E095FCC889B43D8F46CA892BBA65F08DC3A0050869A5678 SWAP1 PUSH1 0x20 ADD PUSH1 0x40 MLOAD DUP1 SWAP2 SUB SWAP1 LOG1 PUSH2 0xDE9 PUSH2 0xFEA JUMP JUMPDEST POP POP JUMP JUMPDEST PUSH1 0x0 PUSH2 0xDF9 DUP4 DUP4 PUSH2 0xE64 JUMP JUMPDEST SWAP1 POP JUMPDEST SWAP3 SWAP2 POP POP JUMP JUMPDEST PUSH2 0xE16 PUSH2 0x3E8 PUSH8 0xDE0B6B3A7640000 PUSH2 0x1345 JUMP JUMPDEST PUSH2 0xE21 SWAP1 PUSH1 0x5 PUSH2 0x1318 JUMP JUMPDEST DUP2 JUMP JUMPDEST PUSH1 0x0 PUSH2 0xDFC DUP3 PUSH9 0x1158E460913D00000 PUSH2 0x1034 JUMP JUMPDEST PUSH1 0x0 DUP2 DUP4 LT PUSH2 0xE48 JUMPI DUP2 PUSH2 0xDF9 JUMP JUMPDEST POP SWAP1 SWAP2 SWAP1 POP JUMP JUMPDEST PUSH1 0x0 PUSH2 0xDFC DUP3 PUSH9 0x1158E460913D00000 PUSH2 0xEC3 JUMP JUMPDEST PUSH1 0x0 DUP2 ISZERO PUSH2 0xE90 JUMPI PUSH2 0xE89 DUP3 PUSH2 0xE83 DUP6 PUSH9 0x56BC75E2D63100000 PUSH2 0x1076 JUMP JUMPDEST SWAP1 PUSH2 0x10F8 JUMP JUMPDEST SWAP1 POP PUSH2 0xDFC JUMP JUMPDEST POP PUSH1 0x0 NOT PUSH2 0xDFC JUMP JUMPDEST PUSH1 0x0 DUP3 ISZERO PUSH2 0xEBA JUMPI PUSH1 0x0 PUSH2 0xEB1 DUP5 PUSH2 0xE83 DUP8 DUP7 PUSH2 0x1076 JUMP JUMPDEST SWAP2 POP PUSH2 0x825 SWAP1 POP JUMP JUMPDEST POP PUSH1 0x0 NOT PUSH2 0x825 JUMP JUMPDEST PUSH1 0x0 DUP1 PUSH2 0xED0 DUP4 DUP6 PUSH2 0x12F2 JUMP JUMPDEST SWAP1 POP DUP4 DUP2 LT ISZERO PUSH2 0xDF9 JUMPI PUSH1 0x40 MLOAD PUSH3 0x461BCD PUSH1 0xE5 SHL DUP2 MSTORE PUSH1 0x20 PUSH1 0x4 DUP3 ADD MSTORE PUSH1 0x1B PUSH1 0x24 DUP3 ADD MSTORE PUSH32 0x536166654D6174683A206164646974696F6E206F766572666C6F770000000000 PUSH1 0x44 DUP3 ADD MSTORE PUSH1 0x64 ADD PUSH2 0xD29 JUMP JUMPDEST PUSH1 0x0 DUP2 DUP4 LT ISZERO PUSH2 0xF3B JUMPI PUSH2 0xF36 DUP3 DUP5 PUSH2 0x1034 JUMP JUMPDEST PUSH2 0xDF9 JUMP JUMPDEST PUSH2 0xDF9 DUP4 DUP4 PUSH2 0x1034 JUMP JUMPDEST PUSH1 0x1 PUSH1 0x1 PUSH1 0xA0 SHL SUB DUP2 AND PUSH2 0xF9B JUMPI PUSH1 0x40 MLOAD PUSH3 0x461BCD PUSH1 0xE5 SHL DUP2 MSTORE PUSH1 0x20 PUSH1 0x4 DUP3 ADD MSTORE PUSH1 0x1E PUSH1 0x24 DUP3 ADD MSTORE PUSH32 0x4163636F756E742063616E6E6F74206265207A65726F20616464726573730000 PUSH1 0x44 DUP3 ADD MSTORE PUSH1 0x64 ADD PUSH2 0xD29 JUMP JUMPDEST DUP1 EXTCODESIZE DUP1 PUSH2 0xDE9 JUMPI PUSH1 0x40 MLOAD PUSH3 0x461BCD PUSH1 0xE5 SHL DUP2 MSTORE PUSH1 0x20 PUSH1 0x4 DUP3 ADD DUP2 SWAP1 MSTORE PUSH1 0x24 DUP3 ADD MSTORE PUSH32 0x4163636F756E7420636F64652073697A652063616E6E6F74206265207A65726F PUSH1 0x44 DUP3 ADD MSTORE PUSH1 0x64 ADD PUSH2 0xD29 JUMP JUMPDEST PUSH1 0x3 SLOAD PUSH1 0x40 MLOAD PUSH1 0x0 SWAP2 PUSH1 0x1 PUSH1 0x1 PUSH1 0xA0 SHL SUB AND SWAP1 PUSH32 0x8BE0079C531659141344CD1FD0A4F28419497F9722A3DAAFE3B4186F6B6457E0 SWAP1 DUP4 SWAP1 LOG3 PUSH1 0x3 DUP1 SLOAD PUSH1 0x1 PUSH1 0x1 PUSH1 0xA0 SHL SUB NOT AND SWAP1 SSTORE JUMP JUMPDEST PUSH1 0x0 PUSH2 0xDF9 DUP4 DUP4 PUSH1 0x40 MLOAD DUP1 PUSH1 0x40 ADD PUSH1 0x40 MSTORE DUP1 PUSH1 0x1E DUP2 MSTORE PUSH1 0x20 ADD PUSH32 0x536166654D6174683A207375627472616374696F6E206F766572666C6F770000 DUP2 MSTORE POP PUSH2 0x113A JUMP JUMPDEST PUSH1 0x0 DUP3 PUSH1 0x0 SUB PUSH2 0x1088 JUMPI POP PUSH1 0x0 PUSH2 0xDFC JUMP JUMPDEST PUSH1 0x0 PUSH2 0x1094 DUP4 DUP6 PUSH2 0x1318 JUMP JUMPDEST SWAP1 POP DUP3 PUSH2 0x10A1 DUP6 DUP4 PUSH2 0x1345 JUMP JUMPDEST EQ PUSH2 0xDF9 JUMPI PUSH1 0x40 MLOAD PUSH3 0x461BCD PUSH1 0xE5 SHL DUP2 MSTORE PUSH1 0x20 PUSH1 0x4 DUP3 ADD MSTORE PUSH1 0x21 PUSH1 0x24 DUP3 ADD MSTORE PUSH32 0x536166654D6174683A206D756C7469706C69636174696F6E206F766572666C6F PUSH1 0x44 DUP3 ADD MSTORE PUSH1 0x77 PUSH1 0xF8 SHL PUSH1 0x64 DUP3 ADD MSTORE PUSH1 0x84 ADD PUSH2 0xD29 JUMP JUMPDEST PUSH1 0x0 PUSH2 0xDF9 DUP4 DUP4 PUSH1 0x40 MLOAD DUP1 PUSH1 0x40 ADD PUSH1 0x40 MSTORE DUP1 PUSH1 0x1A DUP2 MSTORE PUSH1 0x20 ADD PUSH32 0x536166654D6174683A206469766973696F6E206279207A65726F000000000000 DUP2 MSTORE POP PUSH2 0x1174 JUMP JUMPDEST PUSH1 0x0 DUP2 DUP5 DUP5 GT ISZERO PUSH2 0x115E JUMPI PUSH1 0x40 MLOAD PUSH3 0x461BCD PUSH1 0xE5 SHL DUP2 MSTORE PUSH1 0x4 ADD PUSH2 0xD29 SWAP2 SWAP1 PUSH2 0x121F JUMP JUMPDEST POP PUSH1 0x0 PUSH2 0x116B DUP5 DUP7 PUSH2 0x1305 JUMP JUMPDEST SWAP6 SWAP5 POP POP POP POP POP JUMP JUMPDEST PUSH1 0x0 DUP2 DUP4 PUSH2 0x1195 JUMPI PUSH1 0x40 MLOAD PUSH3 0x461BCD PUSH1 0xE5 SHL DUP2 MSTORE PUSH1 0x4 ADD PUSH2 0xD29 SWAP2 SWAP1 PUSH2 0x121F JUMP JUMPDEST POP PUSH1 0x0 PUSH2 0x116B DUP5 DUP7 PUSH2 0x1345 JUMP JUMPDEST PUSH1 0x0 DUP1 PUSH1 0x0 PUSH1 0x60 DUP5 DUP7 SUB SLT ISZERO PUSH2 0x11B7 JUMPI PUSH1 0x0 DUP1 REVERT JUMPDEST POP POP DUP2 CALLDATALOAD SWAP4 PUSH1 0x20 DUP4 ADD CALLDATALOAD SWAP4 POP PUSH1 0x40 SWAP1 SWAP3 ADD CALLDATALOAD SWAP2 SWAP1 POP JUMP JUMPDEST PUSH1 0x1 PUSH1 0x1 PUSH1 0xA0 SHL SUB DUP2 AND DUP2 EQ PUSH2 0x11E3 JUMPI PUSH1 0x0 DUP1 REVERT JUMPDEST POP JUMP JUMPDEST PUSH1 0x0 DUP1 PUSH1 0x40 DUP4 DUP6 SUB SLT ISZERO PUSH2 0x11F9 JUMPI PUSH1 0x0 DUP1 REVERT JUMPDEST DUP3 CALLDATALOAD PUSH2 0x1204 DUP2 PUSH2 0x11CE JUMP JUMPDEST SWAP2 POP PUSH1 0x20 DUP4 ADD CALLDATALOAD PUSH2 0x1214 DUP2 PUSH2 0x11CE JUMP JUMPDEST DUP1 SWAP2 POP POP SWAP3 POP SWAP3 SWAP1 POP JUMP JUMPDEST PUSH1 0x0 PUSH1 0x20 DUP1 DUP4 MSTORE DUP4 MLOAD DUP1 DUP3 DUP6 ADD MSTORE PUSH1 0x0 JUMPDEST DUP2 DUP2 LT ISZERO PUSH2 0x124C JUMPI DUP6 DUP2 ADD DUP4 ADD MLOAD DUP6 DUP3 ADD PUSH1 0x40 ADD MSTORE DUP3 ADD PUSH2 0x1230 JUMP JUMPDEST POP PUSH1 0x0 PUSH1 0x40 DUP3 DUP7 ADD ADD MSTORE PUSH1 0x40 PUSH1 0x1F NOT PUSH1 0x1F DUP4 ADD AND DUP6 ADD ADD SWAP3 POP POP POP SWAP3 SWAP2 POP POP JUMP JUMPDEST PUSH1 0x0 DUP1 PUSH1 0x40 DUP4 DUP6 SUB SLT ISZERO PUSH2 0x1280 JUMPI PUSH1 0x0 DUP1 REVERT JUMPDEST POP POP DUP1 CALLDATALOAD SWAP3 PUSH1 0x20 SWAP1 SWAP2 ADD CALLDATALOAD SWAP2 POP JUMP JUMPDEST PUSH1 0x0 PUSH1 0x20 DUP3 DUP5 SUB SLT ISZERO PUSH2 0x12A1 JUMPI PUSH1 0x0 DUP1 REVERT JUMPDEST DUP2 MLOAD PUSH2 0xDF9 DUP2 PUSH2 0x11CE JUMP JUMPDEST PUSH1 0x0 PUSH1 0x20 DUP3 DUP5 SUB SLT ISZERO PUSH2 0x12BE JUMPI PUSH1 0x0 DUP1 REVERT JUMPDEST POP MLOAD SWAP2 SWAP1 POP JUMP JUMPDEST PUSH4 0x4E487B71 PUSH1 0xE0 SHL PUSH1 0x0 MSTORE PUSH1 0x11 PUSH1 0x4 MSTORE PUSH1 0x24 PUSH1 0x0 REVERT JUMPDEST PUSH1 0x0 DUP2 PUSH2 0x12EA JUMPI PUSH2 0x12EA PUSH2 0x12C5 JUMP JUMPDEST POP PUSH1 0x0 NOT ADD SWAP1 JUMP JUMPDEST DUP1 DUP3 ADD DUP1 DUP3 GT ISZERO PUSH2 0xDFC JUMPI PUSH2 0xDFC PUSH2 0x12C5 JUMP JUMPDEST DUP2 DUP2 SUB DUP2 DUP2 GT ISZERO PUSH2 0xDFC JUMPI PUSH2 0xDFC PUSH2 0x12C5 JUMP JUMPDEST DUP1 DUP3 MUL DUP2 ISZERO DUP3 DUP3 DIV DUP5 EQ OR PUSH2 0xDFC JUMPI PUSH2 0xDFC PUSH2 0x12C5 JUMP JUMPDEST PUSH4 0x4E487B71 PUSH1 0xE0 SHL PUSH1 0x0 MSTORE PUSH1 0x12 PUSH1 0x4 MSTORE PUSH1 0x24 PUSH1 0x0 REVERT JUMPDEST PUSH1 0x0 DUP3 PUSH2 0x1354 JUMPI PUSH2 0x1354 PUSH2 0x132F JUMP JUMPDEST POP DIV SWAP1 JUMP JUMPDEST PUSH1 0x0 DUP3 PUSH2 0x1368 JUMPI PUSH2 0x1368 PUSH2 0x132F JUMP JUMPDEST POP MOD SWAP1 JUMP JUMPDEST PUSH1 0x0 PUSH1 0x1 DUP3 ADD PUSH2 0x137F JUMPI PUSH2 0x137F PUSH2 0x12C5 JUMP JUMPDEST POP PUSH1 0x1 ADD SWAP1 JUMP INVALID LOG2 PUSH5 0x6970667358 0x22 SLT KECCAK256 0xE DUP8 MSTORE8 SWAP14 SLOAD PUSH15 0x86752E787AA4C3A343A8FB10265474 0xBE 0x26 JUMPDEST 0x4B 0xD5 DUP15 SGT 0xB5 PUSH12 0xFE3664736F6C634300081400 CALLER "
		},
		"gasEstimates": {
			"creation": {
				"codeDepositCost": "1010400",
				"executionCost": "26815",
				"totalCost": "1037215"
			},
			"external": {
				"BORROWING_FEE_FLOOR()": "487",
				"CCR()": "262",
				"DECIMAL_PRECISION()": "239",
				"LUSD_GAS_COMPENSATION()": "263",
				"MCR()": "328",
				"MIN_NET_DEBT()": "241",
				"NAME()": "infinite",
				"PERCENT_DIVISOR()": "218",
				"_100pct()": "284",
				"activePool()": "2404",
				"computeCR(uint256,uint256,uint256)": "infinite",
				"computeNominalCR(uint256,uint256)": "infinite",
				"defaultPool()": "2427",
				"getApproxHint(uint256,uint256,uint256)": "infinite",
				"getEntireSystemColl()": "infinite",
				"getEntireSystemDebt()": "infinite",
				"getRedemptionHints(uint256,uint256,uint256)": "infinite",
				"isOwner()": "2442",
				"owner()": "2442",
				"priceFeed()": "2448",
				"setAddresses(address,address)": "infinite",
				"sortedTroves()": "2425",
				"troveManager()": "2449"
			}
		},
		"methodIdentifiers": {
			"BORROWING_FEE_FLOOR()": "f92d3433",
			"CCR()": "5733d58f",
			"DECIMAL_PRECISION()": "a20baee6",
			"LUSD_GAS_COMPENSATION()": "2e86bbd8",
			"MCR()": "794e5724",
			"MIN_NET_DEBT()": "1bf43555",
			"NAME()": "a3f4df7e",
			"PERCENT_DIVISOR()": "4870dd9a",
			"_100pct()": "72fe25aa",
			"activePool()": "7f7dde4a",
			"computeCR(uint256,uint256,uint256)": "525acdbb",
			"computeNominalCR(uint256,uint256)": "c394a7fa",
			"defaultPool()": "3cc74225",
			"getApproxHint(uint256,uint256,uint256)": "7b41bdbe",
			"getEntireSystemColl()": "887105d3",
			"getEntireSystemDebt()": "795d26c3",
			"getRedemptionHints(uint256,uint256,uint256)": "13144dba",
			"isOwner()": "8f32d59b",
			"owner()": "8da5cb5b",
			"priceFeed()": "741bef1a",
			"setAddresses(address,address)": "90107afe",
			"sortedTroves()": "ae918754",
			"troveManager()": "3d83908a"
		}
	},
	"abi": [
		{
			"anonymous": false,
			"inputs": [
				{
					"indexed": true,
					"internalType": "address",
					"name": "previousOwner",
					"type": "address"
				},
				{
					"indexed": true,
					"internalType": "address",
					"name": "newOwner",
					"type": "address"
				}
			],
			"name": "OwnershipTransferred",
			"type": "event"
		},
		{
			"anonymous": false,
			"inputs": [
				{
					"indexed": false,
					"internalType": "address",
					"name": "_sortedTrovesAddress",
					"type": "address"
				}
			],
			"name": "SortedTrovesAddressChanged",
			"type": "event"
		},
		{
			"anonymous": false,
			"inputs": [
				{
					"indexed": false,
					"internalType": "address",
					"name": "_troveManagerAddress",
					"type": "address"
				}
			],
			"name": "TroveManagerAddressChanged",
			"type": "event"
		},
		{
			"inputs": [],
			"name": "BORROWING_FEE_FLOOR",
			"outputs": [
				{
					"internalType": "uint256",
					"name": "",
					"type": "uint256"
				}
			],
			"stateMutability": "view",
			"type": "function"
		},
		{
			"inputs": [],
			"name": "CCR",
			"outputs": [
				{
					"internalType": "uint256",
					"name": "",
					"type": "uint256"
				}
			],
			"stateMutability": "view",
			"type": "function"
		},
		{
			"inputs": [],
			"name": "DECIMAL_PRECISION",
			"outputs": [
				{
					"internalType": "uint256",
					"name": "",
					"type": "uint256"
				}
			],
			"stateMutability": "view",
			"type": "function"
		},
		{
			"inputs": [],
			"name": "LUSD_GAS_COMPENSATION",
			"outputs": [
				{
					"internalType": "uint256",
					"name": "",
					"type": "uint256"
				}
			],
			"stateMutability": "view",
			"type": "function"
		},
		{
			"inputs": [],
			"name": "MCR",
			"outputs": [
				{
					"internalType": "uint256",
					"name": "",
					"type": "uint256"
				}
			],
			"stateMutability": "view",
			"type": "function"
		},
		{
			"inputs": [],
			"name": "MIN_NET_DEBT",
			"outputs": [
				{
					"internalType": "uint256",
					"name": "",
					"type": "uint256"
				}
			],
			"stateMutability": "view",
			"type": "function"
		},
		{
			"inputs": [],
			"name": "NAME",
			"outputs": [
				{
					"internalType": "string",
					"name": "",
					"type": "string"
				}
			],
			"stateMutability": "view",
			"type": "function"
		},
		{
			"inputs": [],
			"name": "PERCENT_DIVISOR",
			"outputs": [
				{
					"internalType": "uint256",
					"name": "",
					"type": "uint256"
				}
			],
			"stateMutability": "view",
			"type": "function"
		},
		{
			"inputs": [],
			"name": "_100pct",
			"outputs": [
				{
					"internalType": "uint256",
					"name": "",
					"type": "uint256"
				}
			],
			"stateMutability": "view",
			"type": "function"
		},
		{
			"inputs": [],
			"name": "activePool",
			"outputs": [
				{
					"internalType": "contract IActivePool",
					"name": "",
					"type": "address"
				}
			],
			"stateMutability": "view",
			"type": "function"
		},
		{
			"inputs": [
				{
					"internalType": "uint256",
					"name": "_coll",
					"type": "uint256"
				},
				{
					"internalType": "uint256",
					"name": "_debt",
					"type": "uint256"
				},
				{
					"internalType": "uint256",
					"name": "_price",
					"type": "uint256"
				}
			],
			"name": "computeCR",
			"outputs": [
				{
					"internalType": "uint256",
					"name": "",
					"type": "uint256"
				}
			],
			"stateMutability": "pure",
			"type": "function"
		},
		{
			"inputs": [
				{
					"internalType": "uint256",
					"name": "_coll",
					"type": "uint256"
				},
				{
					"internalType": "uint256",
					"name": "_debt",
					"type": "uint256"
				}
			],
			"name": "computeNominalCR",
			"outputs": [
				{
					"internalType": "uint256",
					"name": "",
					"type": "uint256"
				}
			],
			"stateMutability": "pure",
			"type": "function"
		},
		{
			"inputs": [],
			"name": "defaultPool",
			"outputs": [
				{
					"internalType": "contract IDefaultPool",
					"name": "",
					"type": "address"
				}
			],
			"stateMutability": "view",
			"type": "function"
		},
		{
			"inputs": [
				{
					"internalType": "uint256",
					"name": "_CR",
					"type": "uint256"
				},
				{
					"internalType": "uint256",
					"name": "_numTrials",
					"type": "uint256"
				},
				{
					"internalType": "uint256",
					"name": "_inputRandomSeed",
					"type": "uint256"
				}
			],
			"name": "getApproxHint",
			"outputs": [
				{
					"internalType": "address",
					"name": "hintAddress",
					"type": "address"
				},
				{
					"internalType": "uint256",
					"name": "diff",
					"type": "uint256"
				},
				{
					"internalType": "uint256",
					"name": "latestRandomSeed",
					"type": "uint256"
				}
			],
			"stateMutability": "view",
			"type": "function"
		},
		{
			"inputs": [],
			"name": "getEntireSystemColl",
			"outputs": [
				{
					"internalType": "uint256",
					"name": "entireSystemColl",
					"type": "uint256"
				}
			],
			"stateMutability": "view",
			"type": "function"
		},
		{
			"inputs": [],
			"name": "getEntireSystemDebt",
			"outputs": [
				{
					"internalType": "uint256",
					"name": "entireSystemDebt",
					"type": "uint256"
				}
			],
			"stateMutability": "view",
			"type": "function"
		},
		{
			"inputs": [
				{
					"internalType": "uint256",
					"name": "_LUSDamount",
					"type": "uint256"
				},
				{
					"internalType": "uint256",
					"name": "_price",
					"type": "uint256"
				},
				{
					"internalType": "uint256",
					"name": "_maxIterations",
					"type": "uint256"
				}
			],
			"name": "getRedemptionHints",
			"outputs": [
				{
					"internalType": "address",
					"name": "firstRedemptionHint",
					"type": "address"
				},
				{
					"internalType": "uint256",
					"name": "partialRedemptionHintNICR",
					"type": "uint256"
				},
				{
					"internalType": "uint256",
					"name": "truncatedLUSDamount",
					"type": "uint256"
				}
			],
			"stateMutability": "view",
			"type": "function"
		},
		{
			"inputs": [],
			"name": "isOwner",
			"outputs": [
				{
					"internalType": "bool",
					"name": "",
					"type": "bool"
				}
			],
			"stateMutability": "view",
			"type": "function"
		},
		{
			"inputs": [],
			"name": "owner",
			"outputs": [
				{
					"internalType": "address",
					"name": "",
					"type": "address"
				}
			],
			"stateMutability": "view",
			"type": "function"
		},
		{
			"inputs": [],
			"name": "priceFeed",
			"outputs": [
				{
					"internalType": "contract IPriceFeed",
					"name": "",
					"type": "address"
				}
			],
			"stateMutability": "view",
			"type": "function"
		},
		{
			"inputs": [
				{
					"internalType": "address",
					"name": "_sortedTrovesAddress",
					"type": "address"
				},
				{
					"internalType": "address",
					"name": "_troveManagerAddress",
					"type": "address"
				}
			],
			"name": "setAddresses",
			"outputs": [],
			"stateMutability": "nonpayable",
			"type": "function"
		},
		{
			"inputs": [],
			"name": "sortedTroves",
			"outputs": [
				{
					"internalType": "contract ISortedTroves",
					"name": "",
					"type": "address"
				}
			],
			"stateMutability": "view",
			"type": "function"
		},
		{
			"inputs": [],
			"name": "troveManager",
			"outputs": [
				{
					"internalType": "contract ITroveManager",
					"name": "",
					"type": "address"
				}
			],
			"stateMutability": "view",
			"type": "function"
		}
	]
}