{
	"data": {
		"bytecode": {
			"linkReferences": {},
			"object": "608060405234801561001057600080fd5b50600380546001600160a01b031916339081179091556040516000907f8be0079c531659141344cd1fd0a4f28419497f9722a3daafe3b4186f6b6457e0908290a3611422806100606000396000f3fe608060405234801561001057600080fd5b506004361061011d5760003560e01c806313144dba146101225780631bf43555146101735780632e86bbd81461018d5780633cc74225146101955780633d83908a146101b95780634870dd9a146101c1578063525acdbb146101c95780635733d58f146101f257806372fe25aa146101fa578063741bef1a14610202578063794e57241461020a578063795d26c3146102125780637b41bdbe1461021a5780637f7dde4a14610243578063887105d31461024b5780638da5cb5b146102535780638f32d59b1461025b57806390107afe14610277578063a20baee6146101fa578063a3f4df7e146102a7578063ae91875414610324578063c394a7fa1461032c578063f92d34331461034f575b600080fd5b61014b6004803603606081101561013857600080fd5b5080359060208101359060400135610357565b604080516001600160a01b039094168452602084019290925282820152519081900360600190f35b61017b6108d7565b60408051918252519081900360200190f35b61017b6108e4565b61019d6108f1565b604080516001600160a01b039092168252519081900360200190f35b61019d610900565b61017b61090f565b61017b600480360360608110156101df57600080fd5b5080359060208101359060400135610914565b61017b61092b565b61017b610937565b61019d610943565b61017b610952565b61017b61095e565b61014b6004803603606081101561023057600080fd5b5080359060208101359060400135610a5f565b61019d610d70565b61017b610d7f565b61019d610e3b565b610263610e4a565b604080519115158252519081900360200190f35b6102a56004803603604081101561028d57600080fd5b506001600160a01b0381358116916020013516610e5b565b005b6102af610f6e565b6040805160208082528351818301528351919283929083019185019080838360005b838110156102e95781810151838201526020016102d1565b50505050905090810190601f1680156103165780820380516001836020036101000a031916815260200191505b509250505060405180910390f35b61019d610f95565b61017b6004803603604081101561034257600080fd5b5080359060200135610fa4565b61017b610fb9565b6004805460408051634d62283160e01b81529051600093849384936001600160a01b0390911692899285928592634d62283192828101926020929190829003018186803b1580156103a757600080fd5b505afa1580156103bb573d6000803e3d6000fd5b505050506040513d60208110156103d157600080fd5b505190505b6001600160a01b03811615801590610476575060055460408051630d293c7160e41b81526001600160a01b038481166004830152602482018c90529151670f43fc2c04ee000093929092169163d293c71091604480820192602092909190829003018186803b15801561044857600080fd5b505afa15801561045c573d6000803e3d6000fd5b505050506040513d602081101561047257600080fd5b5051105b1561050457826001600160a01b031663b72703ac826040518263ffffffff1660e01b815260040180826001600160a01b03166001600160a01b0316815260200191505060206040518083038186803b1580156104d157600080fd5b505afa1580156104e5573d6000803e3d6000fd5b505050506040513d60208110156104fb57600080fd5b505190506103d6565b945084866105125760001996505b6001600160a01b0381161580159061052a5750600082115b801561053a575060001987019615155b156108b957600554604080516379a4316f60e11b81526001600160a01b038481166004830152915160009361064b93169163f34862de916024808301926020929190829003018186803b15801561059057600080fd5b505afa1580156105a4573d6000803e3d6000fd5b505050506040513d60208110156105ba57600080fd5b50516005546040805163d66a255360e01b81526001600160a01b038781166004830152915161063f93929092169163d66a255391602480820192602092909190829003018186803b15801561060e57600080fd5b505afa158015610622573d6000803e3d6000fd5b505050506040513d602081101561063857600080fd5b5051610fc4565b9063ffffffff610fdf16565b90508281111561081c576809c2007651b250000081111561081657600061068a84610685846809c2007651b250000063ffffffff61103716565b611079565b60055460408051635d8c960960e01b81526001600160a01b0387811660048301529151939450600093610793939290921691635d8c960991602480820192602092909190829003018186803b1580156106e257600080fd5b505afa1580156106f6573d6000803e3d6000fd5b505050506040513d602081101561070c57600080fd5b5051600554604080516309019aaf60e31b81526001600160a01b0389811660048301529151919092169163480cd578916024808301926020929190829003018186803b15801561075b57600080fd5b505afa15801561076f573d6000803e3d6000fd5b505050506040513d602081101561078557600080fd5b50519063ffffffff610fdf16565b905060006107cf6107c28d6107b686670de0b6b3a764000063ffffffff61108f16565b9063ffffffff6110e816565b839063ffffffff61103716565b905060006107e3858563ffffffff61103716565b905060006107f082611127565b90506107fc8382611142565b9a5061080e888663ffffffff61103716565b975050505050505b506108b9565b61082c838263ffffffff61103716565b9250836001600160a01b031663b72703ac836040518263ffffffff1660e01b815260040180826001600160a01b03166001600160a01b0316815260200191505060206040518083038186803b15801561088457600080fd5b505afa158015610898573d6000803e3d6000fd5b505050506040513d60208110156108ae57600080fd5b505191506105129050565b6108c9898363ffffffff61103716565b935050505093509350939050565b6809c2007651b250000081565b6801158e460913d0000081565b6001546001600160a01b031681565b6005546001600160a01b031681565b60c881565b6000610921848484611177565b90505b9392505050565b6714d1120d7b16000081565b670de0b6b3a764000081565b6002546001600160a01b031681565b670f43fc2c04ee000081565b6000805460408051632f5a97e560e11b8152905183926001600160a01b031691635eb52fca916004808301926020929190829003018186803b1580156109a357600080fd5b505afa1580156109b7573d6000803e3d6000fd5b505050506040513d60208110156109cd57600080fd5b505160015460408051632f5a97e560e11b815290519293506000926001600160a01b0390921691635eb52fca91600480820192602092909190829003018186803b158015610a1a57600080fd5b505afa158015610a2e573d6000803e3d6000fd5b505050506040513d6020811015610a4457600080fd5b50519050610a58828263ffffffff610fdf16565b9250505090565b600080600080600560009054906101000a90046001600160a01b03166001600160a01b03166349eefeee6040518163ffffffff1660e01b815260040160206040518083038186803b158015610ab357600080fd5b505afa158015610ac7573d6000803e3d6000fd5b505050506040513d6020811015610add57600080fd5b5051905080610af6575060009250829150839050610d67565b6004805460408051634d62283160e01b815290516001600160a01b0390921692634d622831928282019260209290829003018186803b158015610b3857600080fd5b505afa158015610b4c573d6000803e3d6000fd5b505050506040513d6020811015610b6257600080fd5b50516005546040805163b0d8e18160e01b81526001600160a01b0380851660048301529151939750610bec938b93929092169163b0d8e18191602480820192602092909190829003018186803b158015610bbb57600080fd5b505afa158015610bcf573d6000803e3d6000fd5b505050506040513d6020811015610be557600080fd5b50516111a7565b925084915060015b86811015610d6457604080516020808201959095528151808203860181529082019091528051930192909220916000828481610c2c57fe5b0690506000600560009054906101000a90046001600160a01b03166001600160a01b031663d9a72444836040518263ffffffff1660e01b81526004018082815260200191505060206040518083038186803b158015610c8a57600080fd5b505afa158015610c9e573d6000803e3d6000fd5b505050506040513d6020811015610cb457600080fd5b50516005546040805163b0d8e18160e01b81526001600160a01b0380851660048301529151939450600093919092169163b0d8e181916024808301926020929190829003018186803b158015610d0957600080fd5b505afa158015610d1d573d6000803e3d6000fd5b505050506040513d6020811015610d3357600080fd5b505190506000610d43828d6111a7565b905087811015610d54578097508298505b505060019092019150610bf49050565b50505b93509350939050565b6000546001600160a01b031681565b6000805460408051630a7b61df60e11b8152905183926001600160a01b0316916314f6c3be916004808301926020929190829003018186803b158015610dc457600080fd5b505afa158015610dd8573d6000803e3d6000fd5b505050506040513d6020811015610dee57600080fd5b505160015460408051630a7b61df60e11b815290519293506000926001600160a01b03909216916314f6c3be91600480820192602092909190829003018186803b158015610a1a57600080fd5b6003546001600160a01b031690565b6003546001600160a01b0316331490565b610e63610e4a565b610eb4576040805162461bcd60e51b815260206004820181905260248201527f4f776e61626c653a2063616c6c6572206973206e6f7420746865206f776e6572604482015290519081900360640190fd5b610ebd826111d6565b610ec6816111d6565b600480546001600160a01b038085166001600160a01b03199283168117909355600580549185169190921617905560408051918252517f65f4cf077bc01e4742eb5ad98326f6e95b63548ea24b17f8d5e823111fe788009181900360200190a1604080516001600160a01b038316815290517f143219c9e69b09e07e095fcc889b43d8f46ca892bba65f08dc3a0050869a56789181900360200190a1610f6a611285565b5050565b6040518060400160405280600b81526020016a48696e7448656c7065727360a81b81525081565b6004546001600160a01b031681565b6000610fb08383611142565b90505b92915050565b6611c37937e0800081565b6000610fb3826801158e460913d0000063ffffffff61103716565b600082820183811015610fb0576040805162461bcd60e51b815260206004820152601b60248201527a536166654d6174683a206164646974696f6e206f766572666c6f7760281b604482015290519081900360640190fd5b6000610fb083836040518060400160405280601e81526020017f536166654d6174683a207375627472616374696f6e206f766572666c6f7700008152506112cf565b60008183106110885781610fb0565b5090919050565b60008261109e57506000610fb3565b828202828482816110ab57fe5b0414610fb05760405162461bcd60e51b81526004018080602001828103825260218152602001806113cc6021913960400191505060405180910390fd5b6000610fb083836040518060400160405280601a815260200179536166654d6174683a206469766973696f6e206279207a65726f60301b815250611366565b6000610fb3826801158e460913d0000063ffffffff610fdf16565b6000811561116e57611167826107b68568056bc75e2d6310000063ffffffff61108f16565b9050610fb3565b50600019610fb3565b6000821561119e576000611195846107b6878663ffffffff61108f16565b91506109249050565b50600019610924565b6000818310156111c6576111c1828463ffffffff61103716565b610fb0565b610fb0838363ffffffff61103716565b6001600160a01b038116611231576040805162461bcd60e51b815260206004820152601e60248201527f4163636f756e742063616e6e6f74206265207a65726f20616464726573730000604482015290519081900360640190fd5b803b80610f6a576040805162461bcd60e51b815260206004820181905260248201527f4163636f756e7420636f64652073697a652063616e6e6f74206265207a65726f604482015290519081900360640190fd5b6003546040516000916001600160a01b0316907f8be0079c531659141344cd1fd0a4f28419497f9722a3daafe3b4186f6b6457e0908390a3600380546001600160a01b0319169055565b6000818484111561135e5760405162461bcd60e51b81526004018080602001828103825283818151815260200191508051906020019080838360005b8381101561132357818101518382015260200161130b565b50505050905090810190601f1680156113505780820380516001836020036101000a031916815260200191505b509250505060405180910390fd5b505050900390565b600081836113b55760405162461bcd60e51b815260206004820181815283516024840152835190928392604490910191908501908083836000831561132357818101518382015260200161130b565b5060008385816113c157fe5b049594505050505056fe536166654d6174683a206d756c7469706c69636174696f6e206f766572666c6f77a2646970667358221220bab67d1bc6a97d07a30a9ea91214d1bbe3a017f69273ccd8ad19537be819ba1f64736f6c634300060b0033",
			"opcodes": "PUSH1 0x80 PUSH1 0x40 MSTORE CALLVALUE DUP1 ISZERO PUSH2 0x10 JUMPI PUSH1 0x0 DUP1 REVERT JUMPDEST POP PUSH1 0x3 DUP1 SLOAD PUSH1 0x1 PUSH1 0x1 PUSH1 0xA0 SHL SUB NOT AND CALLER SWAP1 DUP2 OR SWAP1 SWAP2 SSTORE PUSH1 0x40 MLOAD PUSH1 0x0 SWAP1 PUSH32 0x8BE0079C531659141344CD1FD0A4F28419497F9722A3DAAFE3B4186F6B6457E0 SWAP1 DUP3 SWAP1 LOG3 PUSH2 0x1422 DUP1 PUSH2 0x60 PUSH1 0x0 CODECOPY PUSH1 0x0 RETURN INVALID PUSH1 0x80 PUSH1 0x40 MSTORE CALLVALUE DUP1 ISZERO PUSH2 0x10 JUMPI PUSH1 0x0 DUP1 REVERT JUMPDEST POP PUSH1 0x4 CALLDATASIZE LT PUSH2 0x11D JUMPI PUSH1 0x0 CALLDATALOAD PUSH1 0xE0 SHR DUP1 PUSH4 0x13144DBA EQ PUSH2 0x122 JUMPI DUP1 PUSH4 0x1BF43555 EQ PUSH2 0x173 JUMPI DUP1 PUSH4 0x2E86BBD8 EQ PUSH2 0x18D JUMPI DUP1 PUSH4 0x3CC74225 EQ PUSH2 0x195 JUMPI DUP1 PUSH4 0x3D83908A EQ PUSH2 0x1B9 JUMPI DUP1 PUSH4 0x4870DD9A EQ PUSH2 0x1C1 JUMPI DUP1 PUSH4 0x525ACDBB EQ PUSH2 0x1C9 JUMPI DUP1 PUSH4 0x5733D58F EQ PUSH2 0x1F2 JUMPI DUP1 PUSH4 0x72FE25AA EQ PUSH2 0x1FA JUMPI DUP1 PUSH4 0x741BEF1A EQ PUSH2 0x202 JUMPI DUP1 PUSH4 0x794E5724 EQ PUSH2 0x20A JUMPI DUP1 PUSH4 0x795D26C3 EQ PUSH2 0x212 JUMPI DUP1 PUSH4 0x7B41BDBE EQ PUSH2 0x21A JUMPI DUP1 PUSH4 0x7F7DDE4A EQ PUSH2 0x243 JUMPI DUP1 PUSH4 0x887105D3 EQ PUSH2 0x24B JUMPI DUP1 PUSH4 0x8DA5CB5B EQ PUSH2 0x253 JUMPI DUP1 PUSH4 0x8F32D59B EQ PUSH2 0x25B JUMPI DUP1 PUSH4 0x90107AFE EQ PUSH2 0x277 JUMPI DUP1 PUSH4 0xA20BAEE6 EQ PUSH2 0x1FA JUMPI DUP1 PUSH4 0xA3F4DF7E EQ PUSH2 0x2A7 JUMPI DUP1 PUSH4 0xAE918754 EQ PUSH2 0x324 JUMPI DUP1 PUSH4 0xC394A7FA EQ PUSH2 0x32C JUMPI DUP1 PUSH4 0xF92D3433 EQ PUSH2 0x34F JUMPI JUMPDEST PUSH1 0x0 DUP1 REVERT JUMPDEST PUSH2 0x14B PUSH1 0x4 DUP1 CALLDATASIZE SUB PUSH1 0x60 DUP2 LT ISZERO PUSH2 0x138 JUMPI PUSH1 0x0 DUP1 REVERT JUMPDEST POP DUP1 CALLDATALOAD SWAP1 PUSH1 0x20 DUP2 ADD CALLDATALOAD SWAP1 PUSH1 0x40 ADD CALLDATALOAD PUSH2 0x357 JUMP JUMPDEST PUSH1 0x40 DUP1 MLOAD PUSH1 0x1 PUSH1 0x1 PUSH1 0xA0 SHL SUB SWAP1 SWAP5 AND DUP5 MSTORE PUSH1 0x20 DUP5 ADD SWAP3 SWAP1 SWAP3 MSTORE DUP3 DUP3 ADD MSTORE MLOAD SWAP1 DUP2 SWAP1 SUB PUSH1 0x60 ADD SWAP1 RETURN JUMPDEST PUSH2 0x17B PUSH2 0x8D7 JUMP JUMPDEST PUSH1 0x40 DUP1 MLOAD SWAP2 DUP3 MSTORE MLOAD SWAP1 DUP2 SWAP1 SUB PUSH1 0x20 ADD SWAP1 RETURN JUMPDEST PUSH2 0x17B PUSH2 0x8E4 JUMP JUMPDEST PUSH2 0x19D PUSH2 0x8F1 JUMP JUMPDEST PUSH1 0x40 DUP1 MLOAD PUSH1 0x1 PUSH1 0x1 PUSH1 0xA0 SHL SUB SWAP1 SWAP3 AND DUP3 MSTORE MLOAD SWAP1 DUP2 SWAP1 SUB PUSH1 0x20 ADD SWAP1 RETURN JUMPDEST PUSH2 0x19D PUSH2 0x900 JUMP JUMPDEST PUSH2 0x17B PUSH2 0x90F JUMP JUMPDEST PUSH2 0x17B PUSH1 0x4 DUP1 CALLDATASIZE SUB PUSH1 0x60 DUP2 LT ISZERO PUSH2 0x1DF JUMPI PUSH1 0x0 DUP1 REVERT JUMPDEST POP DUP1 CALLDATALOAD SWAP1 PUSH1 0x20 DUP2 ADD CALLDATALOAD SWAP1 PUSH1 0x40 ADD CALLDATALOAD PUSH2 0x914 JUMP JUMPDEST PUSH2 0x17B PUSH2 0x92B JUMP JUMPDEST PUSH2 0x17B PUSH2 0x937 JUMP JUMPDEST PUSH2 0x19D PUSH2 0x943 JUMP JUMPDEST PUSH2 0x17B PUSH2 0x952 JUMP JUMPDEST PUSH2 0x17B PUSH2 0x95E JUMP JUMPDEST PUSH2 0x14B PUSH1 0x4 DUP1 CALLDATASIZE SUB PUSH1 0x60 DUP2 LT ISZERO PUSH2 0x230 JUMPI PUSH1 0x0 DUP1 REVERT JUMPDEST POP DUP1 CALLDATALOAD SWAP1 PUSH1 0x20 DUP2 ADD CALLDATALOAD SWAP1 PUSH1 0x40 ADD CALLDATALOAD PUSH2 0xA5F JUMP JUMPDEST PUSH2 0x19D PUSH2 0xD70 JUMP JUMPDEST PUSH2 0x17B PUSH2 0xD7F JUMP JUMPDEST PUSH2 0x19D PUSH2 0xE3B JUMP JUMPDEST PUSH2 0x263 PUSH2 0xE4A JUMP JUMPDEST PUSH1 0x40 DUP1 MLOAD SWAP2 ISZERO ISZERO DUP3 MSTORE MLOAD SWAP1 DUP2 SWAP1 SUB PUSH1 0x20 ADD SWAP1 RETURN JUMPDEST PUSH2 0x2A5 PUSH1 0x4 DUP1 CALLDATASIZE SUB PUSH1 0x40 DUP2 LT ISZERO PUSH2 0x28D JUMPI PUSH1 0x0 DUP1 REVERT JUMPDEST POP PUSH1 0x1 PUSH1 0x1 PUSH1 0xA0 SHL SUB DUP2 CALLDATALOAD DUP2 AND SWAP2 PUSH1 0x20 ADD CALLDATALOAD AND PUSH2 0xE5B JUMP JUMPDEST STOP JUMPDEST PUSH2 0x2AF PUSH2 0xF6E JUMP JUMPDEST PUSH1 0x40 DUP1 MLOAD PUSH1 0x20 DUP1 DUP3 MSTORE DUP4 MLOAD DUP2 DUP4 ADD MSTORE DUP4 MLOAD SWAP2 SWAP3 DUP4 SWAP3 SWAP1 DUP4 ADD SWAP2 DUP6 ADD SWAP1 DUP1 DUP4 DUP4 PUSH1 0x0 JUMPDEST DUP4 DUP2 LT ISZERO PUSH2 0x2E9 JUMPI DUP2 DUP2 ADD MLOAD DUP4 DUP3 ADD MSTORE PUSH1 0x20 ADD PUSH2 0x2D1 JUMP JUMPDEST POP POP POP POP SWAP1 POP SWAP1 DUP2 ADD SWAP1 PUSH1 0x1F AND DUP1 ISZERO PUSH2 0x316 JUMPI DUP1 DUP3 SUB DUP1 MLOAD PUSH1 0x1 DUP4 PUSH1 0x20 SUB PUSH2 0x100 EXP SUB NOT AND DUP2 MSTORE PUSH1 0x20 ADD SWAP2 POP JUMPDEST POP SWAP3 POP POP POP PUSH1 0x40 MLOAD DUP1 SWAP2 SUB SWAP1 RETURN JUMPDEST PUSH2 0x19D PUSH2 0xF95 JUMP JUMPDEST PUSH2 0x17B PUSH1 0x4 DUP1 CALLDATASIZE SUB PUSH1 0x40 DUP2 LT ISZERO PUSH2 0x342 JUMPI PUSH1 0x0 DUP1 REVERT JUMPDEST POP DUP1 CALLDATALOAD SWAP1 PUSH1 0x20 ADD CALLDATALOAD PUSH2 0xFA4 JUMP JUMPDEST PUSH2 0x17B PUSH2 0xFB9 JUMP JUMPDEST PUSH1 0x4 DUP1 SLOAD PUSH1 0x40 DUP1 MLOAD PUSH4 0x4D622831 PUSH1 0xE0 SHL DUP2 MSTORE SWAP1 MLOAD PUSH1 0x0 SWAP4 DUP5 SWAP4 DUP5 SWAP4 PUSH1 0x1 PUSH1 0x1 PUSH1 0xA0 SHL SUB SWAP1 SWAP2 AND SWAP3 DUP10 SWAP3 DUP6 SWAP3 DUP6 SWAP3 PUSH4 0x4D622831 SWAP3 DUP3 DUP2 ADD SWAP3 PUSH1 0x20 SWAP3 SWAP2 SWAP1 DUP3 SWAP1 SUB ADD DUP2 DUP7 DUP1 EXTCODESIZE ISZERO DUP1 ISZERO PUSH2 0x3A7 JUMPI PUSH1 0x0 DUP1 REVERT JUMPDEST POP GAS STATICCALL ISZERO DUP1 ISZERO PUSH2 0x3BB JUMPI RETURNDATASIZE PUSH1 0x0 DUP1 RETURNDATACOPY RETURNDATASIZE PUSH1 0x0 REVERT JUMPDEST POP POP POP POP PUSH1 0x40 MLOAD RETURNDATASIZE PUSH1 0x20 DUP2 LT ISZERO PUSH2 0x3D1 JUMPI PUSH1 0x0 DUP1 REVERT JUMPDEST POP MLOAD SWAP1 POP JUMPDEST PUSH1 0x1 PUSH1 0x1 PUSH1 0xA0 SHL SUB DUP2 AND ISZERO DUP1 ISZERO SWAP1 PUSH2 0x476 JUMPI POP PUSH1 0x5 SLOAD PUSH1 0x40 DUP1 MLOAD PUSH4 0xD293C71 PUSH1 0xE4 SHL DUP2 MSTORE PUSH1 0x1 PUSH1 0x1 PUSH1 0xA0 SHL SUB DUP5 DUP2 AND PUSH1 0x4 DUP4 ADD MSTORE PUSH1 0x24 DUP3 ADD DUP13 SWAP1 MSTORE SWAP2 MLOAD PUSH8 0xF43FC2C04EE0000 SWAP4 SWAP3 SWAP1 SWAP3 AND SWAP2 PUSH4 0xD293C710 SWAP2 PUSH1 0x44 DUP1 DUP3 ADD SWAP3 PUSH1 0x20 SWAP3 SWAP1 SWAP2 SWAP1 DUP3 SWAP1 SUB ADD DUP2 DUP7 DUP1 EXTCODESIZE ISZERO DUP1 ISZERO PUSH2 0x448 JUMPI PUSH1 0x0 DUP1 REVERT JUMPDEST POP GAS STATICCALL ISZERO DUP1 ISZERO PUSH2 0x45C JUMPI RETURNDATASIZE PUSH1 0x0 DUP1 RETURNDATACOPY RETURNDATASIZE PUSH1 0x0 REVERT JUMPDEST POP POP POP POP PUSH1 0x40 MLOAD RETURNDATASIZE PUSH1 0x20 DUP2 LT ISZERO PUSH2 0x472 JUMPI PUSH1 0x0 DUP1 REVERT JUMPDEST POP MLOAD LT JUMPDEST ISZERO PUSH2 0x504 JUMPI DUP3 PUSH1 0x1 PUSH1 0x1 PUSH1 0xA0 SHL SUB AND PUSH4 0xB72703AC DUP3 PUSH1 0x40 MLOAD DUP3 PUSH4 0xFFFFFFFF AND PUSH1 0xE0 SHL DUP2 MSTORE PUSH1 0x4 ADD DUP1 DUP3 PUSH1 0x1 PUSH1 0x1 PUSH1 0xA0 SHL SUB AND PUSH1 0x1 PUSH1 0x1 PUSH1 0xA0 SHL SUB AND DUP2 MSTORE PUSH1 0x20 ADD SWAP2 POP POP PUSH1 0x20 PUSH1 0x40 MLOAD DUP1 DUP4 SUB DUP2 DUP7 DUP1 EXTCODESIZE ISZERO DUP1 ISZERO PUSH2 0x4D1 JUMPI PUSH1 0x0 DUP1 REVERT JUMPDEST POP GAS STATICCALL ISZERO DUP1 ISZERO PUSH2 0x4E5 JUMPI RETURNDATASIZE PUSH1 0x0 DUP1 RETURNDATACOPY RETURNDATASIZE PUSH1 0x0 REVERT JUMPDEST POP POP POP POP PUSH1 0x40 MLOAD RETURNDATASIZE PUSH1 0x20 DUP2 LT ISZERO PUSH2 0x4FB JUMPI PUSH1 0x0 DUP1 REVERT JUMPDEST POP MLOAD SWAP1 POP PUSH2 0x3D6 JUMP JUMPDEST SWAP5 POP DUP5 DUP7 PUSH2 0x512 JUMPI PUSH1 0x0 NOT SWAP7 POP JUMPDEST PUSH1 0x1 PUSH1 0x1 PUSH1 0xA0 SHL SUB DUP2 AND ISZERO DUP1 ISZERO SWAP1 PUSH2 0x52A JUMPI POP PUSH1 0x0 DUP3 GT JUMPDEST DUP1 ISZERO PUSH2 0x53A JUMPI POP PUSH1 0x0 NOT DUP8 ADD SWAP7 ISZERO ISZERO JUMPDEST ISZERO PUSH2 0x8B9 JUMPI PUSH1 0x5 SLOAD PUSH1 0x40 DUP1 MLOAD PUSH4 0x79A4316F PUSH1 0xE1 SHL DUP2 MSTORE PUSH1 0x1 PUSH1 0x1 PUSH1 0xA0 SHL SUB DUP5 DUP2 AND PUSH1 0x4 DUP4 ADD MSTORE SWAP2 MLOAD PUSH1 0x0 SWAP4 PUSH2 0x64B SWAP4 AND SWAP2 PUSH4 0xF34862DE SWAP2 PUSH1 0x24 DUP1 DUP4 ADD SWAP3 PUSH1 0x20 SWAP3 SWAP2 SWAP1 DUP3 SWAP1 SUB ADD DUP2 DUP7 DUP1 EXTCODESIZE ISZERO DUP1 ISZERO PUSH2 0x590 JUMPI PUSH1 0x0 DUP1 REVERT JUMPDEST POP GAS STATICCALL ISZERO DUP1 ISZERO PUSH2 0x5A4 JUMPI RETURNDATASIZE PUSH1 0x0 DUP1 RETURNDATACOPY RETURNDATASIZE PUSH1 0x0 REVERT JUMPDEST POP POP POP POP PUSH1 0x40 MLOAD RETURNDATASIZE PUSH1 0x20 DUP2 LT ISZERO PUSH2 0x5BA JUMPI PUSH1 0x0 DUP1 REVERT JUMPDEST POP MLOAD PUSH1 0x5 SLOAD PUSH1 0x40 DUP1 MLOAD PUSH4 0xD66A2553 PUSH1 0xE0 SHL DUP2 MSTORE PUSH1 0x1 PUSH1 0x1 PUSH1 0xA0 SHL SUB DUP8 DUP2 AND PUSH1 0x4 DUP4 ADD MSTORE SWAP2 MLOAD PUSH2 0x63F SWAP4 SWAP3 SWAP1 SWAP3 AND SWAP2 PUSH4 0xD66A2553 SWAP2 PUSH1 0x24 DUP1 DUP3 ADD SWAP3 PUSH1 0x20 SWAP3 SWAP1 SWAP2 SWAP1 DUP3 SWAP1 SUB ADD DUP2 DUP7 DUP1 EXTCODESIZE ISZERO DUP1 ISZERO PUSH2 0x60E JUMPI PUSH1 0x0 DUP1 REVERT JUMPDEST POP GAS STATICCALL ISZERO DUP1 ISZERO PUSH2 0x622 JUMPI RETURNDATASIZE PUSH1 0x0 DUP1 RETURNDATACOPY RETURNDATASIZE PUSH1 0x0 REVERT JUMPDEST POP POP POP POP PUSH1 0x40 MLOAD RETURNDATASIZE PUSH1 0x20 DUP2 LT ISZERO PUSH2 0x638 JUMPI PUSH1 0x0 DUP1 REVERT JUMPDEST POP MLOAD PUSH2 0xFC4 JUMP JUMPDEST SWAP1 PUSH4 0xFFFFFFFF PUSH2 0xFDF AND JUMP JUMPDEST SWAP1 POP DUP3 DUP2 GT ISZERO PUSH2 0x81C JUMPI PUSH9 0x9C2007651B2500000 DUP2 GT ISZERO PUSH2 0x816 JUMPI PUSH1 0x0 PUSH2 0x68A DUP5 PUSH2 0x685 DUP5 PUSH9 0x9C2007651B2500000 PUSH4 0xFFFFFFFF PUSH2 0x1037 AND JUMP JUMPDEST PUSH2 0x1079 JUMP JUMPDEST PUSH1 0x5 SLOAD PUSH1 0x40 DUP1 MLOAD PUSH4 0x5D8C9609 PUSH1 0xE0 SHL DUP2 MSTORE PUSH1 0x1 PUSH1 0x1 PUSH1 0xA0 SHL SUB DUP8 DUP2 AND PUSH1 0x4 DUP4 ADD MSTORE SWAP2 MLOAD SWAP4 SWAP5 POP PUSH1 0x0 SWAP4 PUSH2 0x793 SWAP4 SWAP3 SWAP1 SWAP3 AND SWAP2 PUSH4 0x5D8C9609 SWAP2 PUSH1 0x24 DUP1 DUP3 ADD SWAP3 PUSH1 0x20 SWAP3 SWAP1 SWAP2 SWAP1 DUP3 SWAP1 SUB ADD DUP2 DUP7 DUP1 EXTCODESIZE ISZERO DUP1 ISZERO PUSH2 0x6E2 JUMPI PUSH1 0x0 DUP1 REVERT JUMPDEST POP GAS STATICCALL ISZERO DUP1 ISZERO PUSH2 0x6F6 JUMPI RETURNDATASIZE PUSH1 0x0 DUP1 RETURNDATACOPY RETURNDATASIZE PUSH1 0x0 REVERT JUMPDEST POP POP POP POP PUSH1 0x40 MLOAD RETURNDATASIZE PUSH1 0x20 DUP2 LT ISZERO PUSH2 0x70C JUMPI PUSH1 0x0 DUP1 REVERT JUMPDEST POP MLOAD PUSH1 0x5 SLOAD PUSH1 0x40 DUP1 MLOAD PUSH4 0x9019AAF PUSH1 0xE3 SHL DUP2 MSTORE PUSH1 0x1 PUSH1 0x1 PUSH1 0xA0 SHL SUB DUP10 DUP2 AND PUSH1 0x4 DUP4 ADD MSTORE SWAP2 MLOAD SWAP2 SWAP1 SWAP3 AND SWAP2 PUSH4 0x480CD578 SWAP2 PUSH1 0x24 DUP1 DUP4 ADD SWAP3 PUSH1 0x20 SWAP3 SWAP2 SWAP1 DUP3 SWAP1 SUB ADD DUP2 DUP7 DUP1 EXTCODESIZE ISZERO DUP1 ISZERO PUSH2 0x75B JUMPI PUSH1 0x0 DUP1 REVERT JUMPDEST POP GAS STATICCALL ISZERO DUP1 ISZERO PUSH2 0x76F JUMPI RETURNDATASIZE PUSH1 0x0 DUP1 RETURNDATACOPY RETURNDATASIZE PUSH1 0x0 REVERT JUMPDEST POP POP POP POP PUSH1 0x40 MLOAD RETURNDATASIZE PUSH1 0x20 DUP2 LT ISZERO PUSH2 0x785 JUMPI PUSH1 0x0 DUP1 REVERT JUMPDEST POP MLOAD SWAP1 PUSH4 0xFFFFFFFF PUSH2 0xFDF AND JUMP JUMPDEST SWAP1 POP PUSH1 0x0 PUSH2 0x7CF PUSH2 0x7C2 DUP14 PUSH2 0x7B6 DUP7 PUSH8 0xDE0B6B3A7640000 PUSH4 0xFFFFFFFF PUSH2 0x108F AND JUMP JUMPDEST SWAP1 PUSH4 0xFFFFFFFF PUSH2 0x10E8 AND JUMP JUMPDEST DUP4 SWAP1 PUSH4 0xFFFFFFFF PUSH2 0x1037 AND JUMP JUMPDEST SWAP1 POP PUSH1 0x0 PUSH2 0x7E3 DUP6 DUP6 PUSH4 0xFFFFFFFF PUSH2 0x1037 AND JUMP JUMPDEST SWAP1 POP PUSH1 0x0 PUSH2 0x7F0 DUP3 PUSH2 0x1127 JUMP JUMPDEST SWAP1 POP PUSH2 0x7FC DUP4 DUP3 PUSH2 0x1142 JUMP JUMPDEST SWAP11 POP PUSH2 0x80E DUP9 DUP7 PUSH4 0xFFFFFFFF PUSH2 0x1037 AND JUMP JUMPDEST SWAP8 POP POP POP POP POP POP JUMPDEST POP PUSH2 0x8B9 JUMP JUMPDEST PUSH2 0x82C DUP4 DUP3 PUSH4 0xFFFFFFFF PUSH2 0x1037 AND JUMP JUMPDEST SWAP3 POP DUP4 PUSH1 0x1 PUSH1 0x1 PUSH1 0xA0 SHL SUB AND PUSH4 0xB72703AC DUP4 PUSH1 0x40 MLOAD DUP3 PUSH4 0xFFFFFFFF AND PUSH1 0xE0 SHL DUP2 MSTORE PUSH1 0x4 ADD DUP1 DUP3 PUSH1 0x1 PUSH1 0x1 PUSH1 0xA0 SHL SUB AND PUSH1 0x1 PUSH1 0x1 PUSH1 0xA0 SHL SUB AND DUP2 MSTORE PUSH1 0x20 ADD SWAP2 POP POP PUSH1 0x20 PUSH1 0x40 MLOAD DUP1 DUP4 SUB DUP2 DUP7 DUP1 EXTCODESIZE ISZERO DUP1 ISZERO PUSH2 0x884 JUMPI PUSH1 0x0 DUP1 REVERT JUMPDEST POP GAS STATICCALL ISZERO DUP1 ISZERO PUSH2 0x898 JUMPI RETURNDATASIZE PUSH1 0x0 DUP1 RETURNDATACOPY RETURNDATASIZE PUSH1 0x0 REVERT JUMPDEST POP POP POP POP PUSH1 0x40 MLOAD RETURNDATASIZE PUSH1 0x20 DUP2 LT ISZERO PUSH2 0x8AE JUMPI PUSH1 0x0 DUP1 REVERT JUMPDEST POP MLOAD SWAP2 POP PUSH2 0x512 SWAP1 POP JUMP JUMPDEST PUSH2 0x8C9 DUP10 DUP4 PUSH4 0xFFFFFFFF PUSH2 0x1037 AND JUMP JUMPDEST SWAP4 POP POP POP POP SWAP4 POP SWAP4 POP SWAP4 SWAP1 POP JUMP JUMPDEST PUSH9 0x9C2007651B2500000 DUP2 JUMP JUMPDEST PUSH9 0x1158E460913D00000 DUP2 JUMP JUMPDEST PUSH1 0x1 SLOAD PUSH1 0x1 PUSH1 0x1 PUSH1 0xA0 SHL SUB AND DUP2 JUMP JUMPDEST PUSH1 0x5 SLOAD PUSH1 0x1 PUSH1 0x1 PUSH1 0xA0 SHL SUB AND DUP2 JUMP JUMPDEST PUSH1 0xC8 DUP2 JUMP JUMPDEST PUSH1 0x0 PUSH2 0x921 DUP5 DUP5 DUP5 PUSH2 0x1177 JUMP JUMPDEST SWAP1 POP JUMPDEST SWAP4 SWAP3 POP POP POP JUMP JUMPDEST PUSH8 0x14D1120D7B160000 DUP2 JUMP JUMPDEST PUSH8 0xDE0B6B3A7640000 DUP2 JUMP JUMPDEST PUSH1 0x2 SLOAD PUSH1 0x1 PUSH1 0x1 PUSH1 0xA0 SHL SUB AND DUP2 JUMP JUMPDEST PUSH8 0xF43FC2C04EE0000 DUP2 JUMP JUMPDEST PUSH1 0x0 DUP1 SLOAD PUSH1 0x40 DUP1 MLOAD PUSH4 0x2F5A97E5 PUSH1 0xE1 SHL DUP2 MSTORE SWAP1 MLOAD DUP4 SWAP3 PUSH1 0x1 PUSH1 0x1 PUSH1 0xA0 SHL SUB AND SWAP2 PUSH4 0x5EB52FCA SWAP2 PUSH1 0x4 DUP1 DUP4 ADD SWAP3 PUSH1 0x20 SWAP3 SWAP2 SWAP1 DUP3 SWAP1 SUB ADD DUP2 DUP7 DUP1 EXTCODESIZE ISZERO DUP1 ISZERO PUSH2 0x9A3 JUMPI PUSH1 0x0 DUP1 REVERT JUMPDEST POP GAS STATICCALL ISZERO DUP1 ISZERO PUSH2 0x9B7 JUMPI RETURNDATASIZE PUSH1 0x0 DUP1 RETURNDATACOPY RETURNDATASIZE PUSH1 0x0 REVERT JUMPDEST POP POP POP POP PUSH1 0x40 MLOAD RETURNDATASIZE PUSH1 0x20 DUP2 LT ISZERO PUSH2 0x9CD JUMPI PUSH1 0x0 DUP1 REVERT JUMPDEST POP MLOAD PUSH1 0x1 SLOAD PUSH1 0x40 DUP1 MLOAD PUSH4 0x2F5A97E5 PUSH1 0xE1 SHL DUP2 MSTORE SWAP1 MLOAD SWAP3 SWAP4 POP PUSH1 0x0 SWAP3 PUSH1 0x1 PUSH1 0x1 PUSH1 0xA0 SHL SUB SWAP1 SWAP3 AND SWAP2 PUSH4 0x5EB52FCA SWAP2 PUSH1 0x4 DUP1 DUP3 ADD SWAP3 PUSH1 0x20 SWAP3 SWAP1 SWAP2 SWAP1 DUP3 SWAP1 SUB ADD DUP2 DUP7 DUP1 EXTCODESIZE ISZERO DUP1 ISZERO PUSH2 0xA1A JUMPI PUSH1 0x0 DUP1 REVERT JUMPDEST POP GAS STATICCALL ISZERO DUP1 ISZERO PUSH2 0xA2E JUMPI RETURNDATASIZE PUSH1 0x0 DUP1 RETURNDATACOPY RETURNDATASIZE PUSH1 0x0 REVERT JUMPDEST POP POP POP POP PUSH1 0x40 MLOAD RETURNDATASIZE PUSH1 0x20 DUP2 LT ISZERO PUSH2 0xA44 JUMPI PUSH1 0x0 DUP1 REVERT JUMPDEST POP MLOAD SWAP1 POP PUSH2 0xA58 DUP3 DUP3 PUSH4 0xFFFFFFFF PUSH2 0xFDF AND JUMP JUMPDEST SWAP3 POP POP POP SWAP1 JUMP JUMPDEST PUSH1 0x0 DUP1 PUSH1 0x0 DUP1 PUSH1 0x5 PUSH1 0x0 SWAP1 SLOAD SWAP1 PUSH2 0x100 EXP SWAP1 DIV PUSH1 0x1 PUSH1 0x1 PUSH1 0xA0 SHL SUB AND PUSH1 0x1 PUSH1 0x1 PUSH1 0xA0 SHL SUB AND PUSH4 0x49EEFEEE PUSH1 0x40 MLOAD DUP2 PUSH4 0xFFFFFFFF AND PUSH1 0xE0 SHL DUP2 MSTORE PUSH1 0x4 ADD PUSH1 0x20 PUSH1 0x40 MLOAD DUP1 DUP4 SUB DUP2 DUP7 DUP1 EXTCODESIZE ISZERO DUP1 ISZERO PUSH2 0xAB3 JUMPI PUSH1 0x0 DUP1 REVERT JUMPDEST POP GAS STATICCALL ISZERO DUP1 ISZERO PUSH2 0xAC7 JUMPI RETURNDATASIZE PUSH1 0x0 DUP1 RETURNDATACOPY RETURNDATASIZE PUSH1 0x0 REVERT JUMPDEST POP POP POP POP PUSH1 0x40 MLOAD RETURNDATASIZE PUSH1 0x20 DUP2 LT ISZERO PUSH2 0xADD JUMPI PUSH1 0x0 DUP1 REVERT JUMPDEST POP MLOAD SWAP1 POP DUP1 PUSH2 0xAF6 JUMPI POP PUSH1 0x0 SWAP3 POP DUP3 SWAP2 POP DUP4 SWAP1 POP PUSH2 0xD67 JUMP JUMPDEST PUSH1 0x4 DUP1 SLOAD PUSH1 0x40 DUP1 MLOAD PUSH4 0x4D622831 PUSH1 0xE0 SHL DUP2 MSTORE SWAP1 MLOAD PUSH1 0x1 PUSH1 0x1 PUSH1 0xA0 SHL SUB SWAP1 SWAP3 AND SWAP3 PUSH4 0x4D622831 SWAP3 DUP3 DUP3 ADD SWAP3 PUSH1 0x20 SWAP3 SWAP1 DUP3 SWAP1 SUB ADD DUP2 DUP7 DUP1 EXTCODESIZE ISZERO DUP1 ISZERO PUSH2 0xB38 JUMPI PUSH1 0x0 DUP1 REVERT JUMPDEST POP GAS STATICCALL ISZERO DUP1 ISZERO PUSH2 0xB4C JUMPI RETURNDATASIZE PUSH1 0x0 DUP1 RETURNDATACOPY RETURNDATASIZE PUSH1 0x0 REVERT JUMPDEST POP POP POP POP PUSH1 0x40 MLOAD RETURNDATASIZE PUSH1 0x20 DUP2 LT ISZERO PUSH2 0xB62 JUMPI PUSH1 0x0 DUP1 REVERT JUMPDEST POP MLOAD PUSH1 0x5 SLOAD PUSH1 0x40 DUP1 MLOAD PUSH4 0xB0D8E181 PUSH1 0xE0 SHL DUP2 MSTORE PUSH1 0x1 PUSH1 0x1 PUSH1 0xA0 SHL SUB DUP1 DUP6 AND PUSH1 0x4 DUP4 ADD MSTORE SWAP2 MLOAD SWAP4 SWAP8 POP PUSH2 0xBEC SWAP4 DUP12 SWAP4 SWAP3 SWAP1 SWAP3 AND SWAP2 PUSH4 0xB0D8E181 SWAP2 PUSH1 0x24 DUP1 DUP3 ADD SWAP3 PUSH1 0x20 SWAP3 SWAP1 SWAP2 SWAP1 DUP3 SWAP1 SUB ADD DUP2 DUP7 DUP1 EXTCODESIZE ISZERO DUP1 ISZERO PUSH2 0xBBB JUMPI PUSH1 0x0 DUP1 REVERT JUMPDEST POP GAS STATICCALL ISZERO DUP1 ISZERO PUSH2 0xBCF JUMPI RETURNDATASIZE PUSH1 0x0 DUP1 RETURNDATACOPY RETURNDATASIZE PUSH1 0x0 REVERT JUMPDEST POP POP POP POP PUSH1 0x40 MLOAD RETURNDATASIZE PUSH1 0x20 DUP2 LT ISZERO PUSH2 0xBE5 JUMPI PUSH1 0x0 DUP1 REVERT JUMPDEST POP MLOAD PUSH2 0x11A7 JUMP JUMPDEST SWAP3 POP DUP5 SWAP2 POP PUSH1 0x1 JUMPDEST DUP7 DUP2 LT ISZERO PUSH2 0xD64 JUMPI PUSH1 0x40 DUP1 MLOAD PUSH1 0x20 DUP1 DUP3 ADD SWAP6 SWAP1 SWAP6 MSTORE DUP2 MLOAD DUP1 DUP3 SUB DUP7 ADD DUP2 MSTORE SWAP1 DUP3 ADD SWAP1 SWAP2 MSTORE DUP1 MLOAD SWAP4 ADD SWAP3 SWAP1 SWAP3 KECCAK256 SWAP2 PUSH1 0x0 DUP3 DUP5 DUP2 PUSH2 0xC2C JUMPI INVALID JUMPDEST MOD SWAP1 POP PUSH1 0x0 PUSH1 0x5 PUSH1 0x0 SWAP1 SLOAD SWAP1 PUSH2 0x100 EXP SWAP1 DIV PUSH1 0x1 PUSH1 0x1 PUSH1 0xA0 SHL SUB AND PUSH1 0x1 PUSH1 0x1 PUSH1 0xA0 SHL SUB AND PUSH4 0xD9A72444 DUP4 PUSH1 0x40 MLOAD DUP3 PUSH4 0xFFFFFFFF AND PUSH1 0xE0 SHL DUP2 MSTORE PUSH1 0x4 ADD DUP1 DUP3 DUP2 MSTORE PUSH1 0x20 ADD SWAP2 POP POP PUSH1 0x20 PUSH1 0x40 MLOAD DUP1 DUP4 SUB DUP2 DUP7 DUP1 EXTCODESIZE ISZERO DUP1 ISZERO PUSH2 0xC8A JUMPI PUSH1 0x0 DUP1 REVERT JUMPDEST POP GAS STATICCALL ISZERO DUP1 ISZERO PUSH2 0xC9E JUMPI RETURNDATASIZE PUSH1 0x0 DUP1 RETURNDATACOPY RETURNDATASIZE PUSH1 0x0 REVERT JUMPDEST POP POP POP POP PUSH1 0x40 MLOAD RETURNDATASIZE PUSH1 0x20 DUP2 LT ISZERO PUSH2 0xCB4 JUMPI PUSH1 0x0 DUP1 REVERT JUMPDEST POP MLOAD PUSH1 0x5 SLOAD PUSH1 0x40 DUP1 MLOAD PUSH4 0xB0D8E181 PUSH1 0xE0 SHL DUP2 MSTORE PUSH1 0x1 PUSH1 0x1 PUSH1 0xA0 SHL SUB DUP1 DUP6 AND PUSH1 0x4 DUP4 ADD MSTORE SWAP2 MLOAD SWAP4 SWAP5 POP PUSH1 0x0 SWAP4 SWAP2 SWAP1 SWAP3 AND SWAP2 PUSH4 0xB0D8E181 SWAP2 PUSH1 0x24 DUP1 DUP4 ADD SWAP3 PUSH1 0x20 SWAP3 SWAP2 SWAP1 DUP3 SWAP1 SUB ADD DUP2 DUP7 DUP1 EXTCODESIZE ISZERO DUP1 ISZERO PUSH2 0xD09 JUMPI PUSH1 0x0 DUP1 REVERT JUMPDEST POP GAS STATICCALL ISZERO DUP1 ISZERO PUSH2 0xD1D JUMPI RETURNDATASIZE PUSH1 0x0 DUP1 RETURNDATACOPY RETURNDATASIZE PUSH1 0x0 REVERT JUMPDEST POP POP POP POP PUSH1 0x40 MLOAD RETURNDATASIZE PUSH1 0x20 DUP2 LT ISZERO PUSH2 0xD33 JUMPI PUSH1 0x0 DUP1 REVERT JUMPDEST POP MLOAD SWAP1 POP PUSH1 0x0 PUSH2 0xD43 DUP3 DUP14 PUSH2 0x11A7 JUMP JUMPDEST SWAP1 POP DUP8 DUP2 LT ISZERO PUSH2 0xD54 JUMPI DUP1 SWAP8 POP DUP3 SWAP9 POP JUMPDEST POP POP PUSH1 0x1 SWAP1 SWAP3 ADD SWAP2 POP PUSH2 0xBF4 SWAP1 POP JUMP JUMPDEST POP POP JUMPDEST SWAP4 POP SWAP4 POP SWAP4 SWAP1 POP JUMP JUMPDEST PUSH1 0x0 SLOAD PUSH1 0x1 PUSH1 0x1 PUSH1 0xA0 SHL SUB AND DUP2 JUMP JUMPDEST PUSH1 0x0 DUP1 SLOAD PUSH1 0x40 DUP1 MLOAD PUSH4 0xA7B61DF PUSH1 0xE1 SHL DUP2 MSTORE SWAP1 MLOAD DUP4 SWAP3 PUSH1 0x1 PUSH1 0x1 PUSH1 0xA0 SHL SUB AND SWAP2 PUSH4 0x14F6C3BE SWAP2 PUSH1 0x4 DUP1 DUP4 ADD SWAP3 PUSH1 0x20 SWAP3 SWAP2 SWAP1 DUP3 SWAP1 SUB ADD DUP2 DUP7 DUP1 EXTCODESIZE ISZERO DUP1 ISZERO PUSH2 0xDC4 JUMPI PUSH1 0x0 DUP1 REVERT JUMPDEST POP GAS STATICCALL ISZERO DUP1 ISZERO PUSH2 0xDD8 JUMPI RETURNDATASIZE PUSH1 0x0 DUP1 RETURNDATACOPY RETURNDATASIZE PUSH1 0x0 REVERT JUMPDEST POP POP POP POP PUSH1 0x40 MLOAD RETURNDATASIZE PUSH1 0x20 DUP2 LT ISZERO PUSH2 0xDEE JUMPI PUSH1 0x0 DUP1 REVERT JUMPDEST POP MLOAD PUSH1 0x1 SLOAD PUSH1 0x40 DUP1 MLOAD PUSH4 0xA7B61DF PUSH1 0xE1 SHL DUP2 MSTORE SWAP1 MLOAD SWAP3 SWAP4 POP PUSH1 0x0 SWAP3 PUSH1 0x1 PUSH1 0x1 PUSH1 0xA0 SHL SUB SWAP1 SWAP3 AND SWAP2 PUSH4 0x14F6C3BE SWAP2 PUSH1 0x4 DUP1 DUP3 ADD SWAP3 PUSH1 0x20 SWAP3 SWAP1 SWAP2 SWAP1 DUP3 SWAP1 SUB ADD DUP2 DUP7 DUP1 EXTCODESIZE ISZERO DUP1 ISZERO PUSH2 0xA1A JUMPI PUSH1 0x0 DUP1 REVERT JUMPDEST PUSH1 0x3 SLOAD PUSH1 0x1 PUSH1 0x1 PUSH1 0xA0 SHL SUB AND SWAP1 JUMP JUMPDEST PUSH1 0x3 SLOAD PUSH1 0x1 PUSH1 0x1 PUSH1 0xA0 SHL SUB AND CALLER EQ SWAP1 JUMP JUMPDEST PUSH2 0xE63 PUSH2 0xE4A JUMP JUMPDEST PUSH2 0xEB4 JUMPI PUSH1 0x40 DUP1 MLOAD PUSH3 0x461BCD PUSH1 0xE5 SHL DUP2 MSTORE PUSH1 0x20 PUSH1 0x4 DUP3 ADD DUP2 SWAP1 MSTORE PUSH1 0x24 DUP3 ADD MSTORE PUSH32 0x4F776E61626C653A2063616C6C6572206973206E6F7420746865206F776E6572 PUSH1 0x44 DUP3 ADD MSTORE SWAP1 MLOAD SWAP1 DUP2 SWAP1 SUB PUSH1 0x64 ADD SWAP1 REVERT JUMPDEST PUSH2 0xEBD DUP3 PUSH2 0x11D6 JUMP JUMPDEST PUSH2 0xEC6 DUP2 PUSH2 0x11D6 JUMP JUMPDEST PUSH1 0x4 DUP1 SLOAD PUSH1 0x1 PUSH1 0x1 PUSH1 0xA0 SHL SUB DUP1 DUP6 AND PUSH1 0x1 PUSH1 0x1 PUSH1 0xA0 SHL SUB NOT SWAP3 DUP4 AND DUP2 OR SWAP1 SWAP4 SSTORE PUSH1 0x5 DUP1 SLOAD SWAP2 DUP6 AND SWAP2 SWAP1 SWAP3 AND OR SWAP1 SSTORE PUSH1 0x40 DUP1 MLOAD SWAP2 DUP3 MSTORE MLOAD PUSH32 0x65F4CF077BC01E4742EB5AD98326F6E95B63548EA24B17F8D5E823111FE78800 SWAP2 DUP2 SWAP1 SUB PUSH1 0x20 ADD SWAP1 LOG1 PUSH1 0x40 DUP1 MLOAD PUSH1 0x1 PUSH1 0x1 PUSH1 0xA0 SHL SUB DUP4 AND DUP2 MSTORE SWAP1 MLOAD PUSH32 0x143219C9E69B09E07E095FCC889B43D8F46CA892BBA65F08DC3A0050869A5678 SWAP2 DUP2 SWAP1 SUB PUSH1 0x20 ADD SWAP1 LOG1 PUSH2 0xF6A PUSH2 0x1285 JUMP JUMPDEST POP POP JUMP JUMPDEST PUSH1 0x40 MLOAD DUP1 PUSH1 0x40 ADD PUSH1 0x40 MSTORE DUP1 PUSH1 0xB DUP2 MSTORE PUSH1 0x20 ADD PUSH11 0x48696E7448656C70657273 PUSH1 0xA8 SHL DUP2 MSTORE POP DUP2 JUMP JUMPDEST PUSH1 0x4 SLOAD PUSH1 0x1 PUSH1 0x1 PUSH1 0xA0 SHL SUB AND DUP2 JUMP JUMPDEST PUSH1 0x0 PUSH2 0xFB0 DUP4 DUP4 PUSH2 0x1142 JUMP JUMPDEST SWAP1 POP JUMPDEST SWAP3 SWAP2 POP POP JUMP JUMPDEST PUSH7 0x11C37937E08000 DUP2 JUMP JUMPDEST PUSH1 0x0 PUSH2 0xFB3 DUP3 PUSH9 0x1158E460913D00000 PUSH4 0xFFFFFFFF PUSH2 0x1037 AND JUMP JUMPDEST PUSH1 0x0 DUP3 DUP3 ADD DUP4 DUP2 LT ISZERO PUSH2 0xFB0 JUMPI PUSH1 0x40 DUP1 MLOAD PUSH3 0x461BCD PUSH1 0xE5 SHL DUP2 MSTORE PUSH1 0x20 PUSH1 0x4 DUP3 ADD MSTORE PUSH1 0x1B PUSH1 0x24 DUP3 ADD MSTORE PUSH27 0x536166654D6174683A206164646974696F6E206F766572666C6F77 PUSH1 0x28 SHL PUSH1 0x44 DUP3 ADD MSTORE SWAP1 MLOAD SWAP1 DUP2 SWAP1 SUB PUSH1 0x64 ADD SWAP1 REVERT JUMPDEST PUSH1 0x0 PUSH2 0xFB0 DUP4 DUP4 PUSH1 0x40 MLOAD DUP1 PUSH1 0x40 ADD PUSH1 0x40 MSTORE DUP1 PUSH1 0x1E DUP2 MSTORE PUSH1 0x20 ADD PUSH32 0x536166654D6174683A207375627472616374696F6E206F766572666C6F770000 DUP2 MSTORE POP PUSH2 0x12CF JUMP JUMPDEST PUSH1 0x0 DUP2 DUP4 LT PUSH2 0x1088 JUMPI DUP2 PUSH2 0xFB0 JUMP JUMPDEST POP SWAP1 SWAP2 SWAP1 POP JUMP JUMPDEST PUSH1 0x0 DUP3 PUSH2 0x109E JUMPI POP PUSH1 0x0 PUSH2 0xFB3 JUMP JUMPDEST DUP3 DUP3 MUL DUP3 DUP5 DUP3 DUP2 PUSH2 0x10AB JUMPI INVALID JUMPDEST DIV EQ PUSH2 0xFB0 JUMPI PUSH1 0x40 MLOAD PUSH3 0x461BCD PUSH1 0xE5 SHL DUP2 MSTORE PUSH1 0x4 ADD DUP1 DUP1 PUSH1 0x20 ADD DUP3 DUP2 SUB DUP3 MSTORE PUSH1 0x21 DUP2 MSTORE PUSH1 0x20 ADD DUP1 PUSH2 0x13CC PUSH1 0x21 SWAP2 CODECOPY PUSH1 0x40 ADD SWAP2 POP POP PUSH1 0x40 MLOAD DUP1 SWAP2 SUB SWAP1 REVERT JUMPDEST PUSH1 0x0 PUSH2 0xFB0 DUP4 DUP4 PUSH1 0x40 MLOAD DUP1 PUSH1 0x40 ADD PUSH1 0x40 MSTORE DUP1 PUSH1 0x1A DUP2 MSTORE PUSH1 0x20 ADD PUSH26 0x536166654D6174683A206469766973696F6E206279207A65726F PUSH1 0x30 SHL DUP2 MSTORE POP PUSH2 0x1366 JUMP JUMPDEST PUSH1 0x0 PUSH2 0xFB3 DUP3 PUSH9 0x1158E460913D00000 PUSH4 0xFFFFFFFF PUSH2 0xFDF AND JUMP JUMPDEST PUSH1 0x0 DUP2 ISZERO PUSH2 0x116E JUMPI PUSH2 0x1167 DUP3 PUSH2 0x7B6 DUP6 PUSH9 0x56BC75E2D63100000 PUSH4 0xFFFFFFFF PUSH2 0x108F AND JUMP JUMPDEST SWAP1 POP PUSH2 0xFB3 JUMP JUMPDEST POP PUSH1 0x0 NOT PUSH2 0xFB3 JUMP JUMPDEST PUSH1 0x0 DUP3 ISZERO PUSH2 0x119E JUMPI PUSH1 0x0 PUSH2 0x1195 DUP5 PUSH2 0x7B6 DUP8 DUP7 PUSH4 0xFFFFFFFF PUSH2 0x108F AND JUMP JUMPDEST SWAP2 POP PUSH2 0x924 SWAP1 POP JUMP JUMPDEST POP PUSH1 0x0 NOT PUSH2 0x924 JUMP JUMPDEST PUSH1 0x0 DUP2 DUP4 LT ISZERO PUSH2 0x11C6 JUMPI PUSH2 0x11C1 DUP3 DUP5 PUSH4 0xFFFFFFFF PUSH2 0x1037 AND JUMP JUMPDEST PUSH2 0xFB0 JUMP JUMPDEST PUSH2 0xFB0 DUP4 DUP4 PUSH4 0xFFFFFFFF PUSH2 0x1037 AND JUMP JUMPDEST PUSH1 0x1 PUSH1 0x1 PUSH1 0xA0 SHL SUB DUP2 AND PUSH2 0x1231 JUMPI PUSH1 0x40 DUP1 MLOAD PUSH3 0x461BCD PUSH1 0xE5 SHL DUP2 MSTORE PUSH1 0x20 PUSH1 0x4 DUP3 ADD MSTORE PUSH1 0x1E PUSH1 0x24 DUP3 ADD MSTORE PUSH32 0x4163636F756E742063616E6E6F74206265207A65726F20616464726573730000 PUSH1 0x44 DUP3 ADD MSTORE SWAP1 MLOAD SWAP1 DUP2 SWAP1 SUB PUSH1 0x64 ADD SWAP1 REVERT JUMPDEST DUP1 EXTCODESIZE DUP1 PUSH2 0xF6A JUMPI PUSH1 0x40 DUP1 MLOAD PUSH3 0x461BCD PUSH1 0xE5 SHL DUP2 MSTORE PUSH1 0x20 PUSH1 0x4 DUP3 ADD DUP2 SWAP1 MSTORE PUSH1 0x24 DUP3 ADD MSTORE PUSH32 0x4163636F756E7420636F64652073697A652063616E6E6F74206265207A65726F PUSH1 0x44 DUP3 ADD MSTORE SWAP1 MLOAD SWAP1 DUP2 SWAP1 SUB PUSH1 0x64 ADD SWAP1 REVERT JUMPDEST PUSH1 0x3 SLOAD PUSH1 0x40 MLOAD PUSH1 0x0 SWAP2 PUSH1 0x1 PUSH1 0x1 PUSH1 0xA0 SHL SUB AND SWAP1 PUSH32 0x8BE0079C531659141344CD1FD0A4F28419497F9722A3DAAFE3B4186F6B6457E0 SWAP1 DUP4 SWAP1 LOG3 PUSH1 0x3 DUP1 SLOAD PUSH1 0x1 PUSH1 0x1 PUSH1 0xA0 SHL SUB NOT AND SWAP1 SSTORE JUMP JUMPDEST PUSH1 0x0 DUP2 DUP5 DUP5 GT ISZERO PUSH2 0x135E JUMPI PUSH1 0x40 MLOAD PUSH3 0x461BCD PUSH1 0xE5 SHL DUP2 MSTORE PUSH1 0x4 ADD DUP1 DUP1 PUSH1 0x20 ADD DUP3 DUP2 SUB DUP3 MSTORE DUP4 DUP2 DUP2 MLOAD DUP2 MSTORE PUSH1 0x20 ADD SWAP2 POP DUP1 MLOAD SWAP1 PUSH1 0x20 ADD SWAP1 DUP1 DUP4 DUP4 PUSH1 0x0 JUMPDEST DUP4 DUP2 LT ISZERO PUSH2 0x1323 JUMPI DUP2 DUP2 ADD MLOAD DUP4 DUP3 ADD MSTORE PUSH1 0x20 ADD PUSH2 0x130B JUMP JUMPDEST POP POP POP POP SWAP1 POP SWAP1 DUP2 ADD SWAP1 PUSH1 0x1F AND DUP1 ISZERO PUSH2 0x1350 JUMPI DUP1 DUP3 SUB DUP1 MLOAD PUSH1 0x1 DUP4 PUSH1 0x20 SUB PUSH2 0x100 EXP SUB NOT AND DUP2 MSTORE PUSH1 0x20 ADD SWAP2 POP JUMPDEST POP SWAP3 POP POP POP PUSH1 0x40 MLOAD DUP1 SWAP2 SUB SWAP1 REVERT JUMPDEST POP POP POP SWAP1 SUB SWAP1 JUMP JUMPDEST PUSH1 0x0 DUP2 DUP4 PUSH2 0x13B5 JUMPI PUSH1 0x40 MLOAD PUSH3 0x461BCD PUSH1 0xE5 SHL DUP2 MSTORE PUSH1 0x20 PUSH1 0x4 DUP3 ADD DUP2 DUP2 MSTORE DUP4 MLOAD PUSH1 0x24 DUP5 ADD MSTORE DUP4 MLOAD SWAP1 SWAP3 DUP4 SWAP3 PUSH1 0x44 SWAP1 SWAP2 ADD SWAP2 SWAP1 DUP6 ADD SWAP1 DUP1 DUP4 DUP4 PUSH1 0x0 DUP4 ISZERO PUSH2 0x1323 JUMPI DUP2 DUP2 ADD MLOAD DUP4 DUP3 ADD MSTORE PUSH1 0x20 ADD PUSH2 0x130B JUMP JUMPDEST POP PUSH1 0x0 DUP4 DUP6 DUP2 PUSH2 0x13C1 JUMPI INVALID JUMPDEST DIV SWAP6 SWAP5 POP POP POP POP POP JUMP INVALID MSTORE8 PUSH2 0x6665 0x4D PUSH2 0x7468 GASPRICE KECCAK256 PUSH14 0x756C7469706C69636174696F6E20 PUSH16 0x766572666C6F77A26469706673582212 KECCAK256 0xBA 0xB6 PUSH30 0x1BC6A97D07A30A9EA91214D1BBE3A017F69273CCD8AD19537BE819BA1F64 PUSH20 0x6F6C634300060B00330000000000000000000000 "
		},
		"gasEstimates": {
			"creation": {
				"codeDepositCost": "1030800",
				"executionCost": "23442",
				"totalCost": "1054242"
			},
			"external": {
				"BORROWING_FEE_FLOOR()": "660",
				"CCR()": "330",
				"DECIMAL_PRECISION()": "572",
				"LUSD_GAS_COMPENSATION()": "220",
				"MCR()": "396",
				"MIN_NET_DEBT()": "198",
				"NAME()": "infinite",
				"PERCENT_DIVISOR()": "286",
				"_100pct()": "352",
				"activePool()": "1301",
				"computeCR(uint256,uint256,uint256)": "infinite",
				"computeNominalCR(uint256,uint256)": "infinite",
				"defaultPool()": "1081",
				"getApproxHint(uint256,uint256,uint256)": "infinite",
				"getEntireSystemColl()": "infinite",
				"getEntireSystemDebt()": "infinite",
				"getRedemptionHints(uint256,uint256,uint256)": "infinite",
				"isOwner()": "1357",
				"owner()": "1345",
				"priceFeed()": "1213",
				"setAddresses(address,address)": "infinite",
				"sortedTroves()": "1455",
				"troveManager()": "1103"
			}
		},
		"methodIdentifiers": {
			"BORROWING_FEE_FLOOR()": "f92d3433",
			"CCR()": "5733d58f",
			"DECIMAL_PRECISION()": "a20baee6",
			"LUSD_GAS_COMPENSATION()": "2e86bbd8",
			"MCR()": "794e5724",
			"MIN_NET_DEBT()": "1bf43555",
			"NAME()": "a3f4df7e",
			"PERCENT_DIVISOR()": "4870dd9a",
			"_100pct()": "72fe25aa",
			"activePool()": "7f7dde4a",
			"computeCR(uint256,uint256,uint256)": "525acdbb",
			"computeNominalCR(uint256,uint256)": "c394a7fa",
			"defaultPool()": "3cc74225",
			"getApproxHint(uint256,uint256,uint256)": "7b41bdbe",
			"getEntireSystemColl()": "887105d3",
			"getEntireSystemDebt()": "795d26c3",
			"getRedemptionHints(uint256,uint256,uint256)": "13144dba",
			"isOwner()": "8f32d59b",
			"owner()": "8da5cb5b",
			"priceFeed()": "741bef1a",
			"setAddresses(address,address)": "90107afe",
			"sortedTroves()": "ae918754",
			"troveManager()": "3d83908a"
		}
	},
	"abi": [
		{
			"anonymous": false,
			"inputs": [
				{
					"indexed": true,
					"internalType": "address",
					"name": "previousOwner",
					"type": "address"
				},
				{
					"indexed": true,
					"internalType": "address",
					"name": "newOwner",
					"type": "address"
				}
			],
			"name": "OwnershipTransferred",
			"type": "event"
		},
		{
			"anonymous": false,
			"inputs": [
				{
					"indexed": false,
					"internalType": "address",
					"name": "_sortedTrovesAddress",
					"type": "address"
				}
			],
			"name": "SortedTrovesAddressChanged",
			"type": "event"
		},
		{
			"anonymous": false,
			"inputs": [
				{
					"indexed": false,
					"internalType": "address",
					"name": "_troveManagerAddress",
					"type": "address"
				}
			],
			"name": "TroveManagerAddressChanged",
			"type": "event"
		},
		{
			"inputs": [],
			"name": "BORROWING_FEE_FLOOR",
			"outputs": [
				{
					"internalType": "uint256",
					"name": "",
					"type": "uint256"
				}
			],
			"stateMutability": "view",
			"type": "function"
		},
		{
			"inputs": [],
			"name": "CCR",
			"outputs": [
				{
					"internalType": "uint256",
					"name": "",
					"type": "uint256"
				}
			],
			"stateMutability": "view",
			"type": "function"
		},
		{
			"inputs": [],
			"name": "DECIMAL_PRECISION",
			"outputs": [
				{
					"internalType": "uint256",
					"name": "",
					"type": "uint256"
				}
			],
			"stateMutability": "view",
			"type": "function"
		},
		{
			"inputs": [],
			"name": "LUSD_GAS_COMPENSATION",
			"outputs": [
				{
					"internalType": "uint256",
					"name": "",
					"type": "uint256"
				}
			],
			"stateMutability": "view",
			"type": "function"
		},
		{
			"inputs": [],
			"name": "MCR",
			"outputs": [
				{
					"internalType": "uint256",
					"name": "",
					"type": "uint256"
				}
			],
			"stateMutability": "view",
			"type": "function"
		},
		{
			"inputs": [],
			"name": "MIN_NET_DEBT",
			"outputs": [
				{
					"internalType": "uint256",
					"name": "",
					"type": "uint256"
				}
			],
			"stateMutability": "view",
			"type": "function"
		},
		{
			"inputs": [],
			"name": "NAME",
			"outputs": [
				{
					"internalType": "string",
					"name": "",
					"type": "string"
				}
			],
			"stateMutability": "view",
			"type": "function"
		},
		{
			"inputs": [],
			"name": "PERCENT_DIVISOR",
			"outputs": [
				{
					"internalType": "uint256",
					"name": "",
					"type": "uint256"
				}
			],
			"stateMutability": "view",
			"type": "function"
		},
		{
			"inputs": [],
			"name": "_100pct",
			"outputs": [
				{
					"internalType": "uint256",
					"name": "",
					"type": "uint256"
				}
			],
			"stateMutability": "view",
			"type": "function"
		},
		{
			"inputs": [],
			"name": "activePool",
			"outputs": [
				{
					"internalType": "contract IActivePool",
					"name": "",
					"type": "address"
				}
			],
			"stateMutability": "view",
			"type": "function"
		},
		{
			"inputs": [
				{
					"internalType": "uint256",
					"name": "_coll",
					"type": "uint256"
				},
				{
					"internalType": "uint256",
					"name": "_debt",
					"type": "uint256"
				},
				{
					"internalType": "uint256",
					"name": "_price",
					"type": "uint256"
				}
			],
			"name": "computeCR",
			"outputs": [
				{
					"internalType": "uint256",
					"name": "",
					"type": "uint256"
				}
			],
			"stateMutability": "pure",
			"type": "function"
		},
		{
			"inputs": [
				{
					"internalType": "uint256",
					"name": "_coll",
					"type": "uint256"
				},
				{
					"internalType": "uint256",
					"name": "_debt",
					"type": "uint256"
				}
			],
			"name": "computeNominalCR",
			"outputs": [
				{
					"internalType": "uint256",
					"name": "",
					"type": "uint256"
				}
			],
			"stateMutability": "pure",
			"type": "function"
		},
		{
			"inputs": [],
			"name": "defaultPool",
			"outputs": [
				{
					"internalType": "contract IDefaultPool",
					"name": "",
					"type": "address"
				}
			],
			"stateMutability": "view",
			"type": "function"
		},
		{
			"inputs": [
				{
					"internalType": "uint256",
					"name": "_CR",
					"type": "uint256"
				},
				{
					"internalType": "uint256",
					"name": "_numTrials",
					"type": "uint256"
				},
				{
					"internalType": "uint256",
					"name": "_inputRandomSeed",
					"type": "uint256"
				}
			],
			"name": "getApproxHint",
			"outputs": [
				{
					"internalType": "address",
					"name": "hintAddress",
					"type": "address"
				},
				{
					"internalType": "uint256",
					"name": "diff",
					"type": "uint256"
				},
				{
					"internalType": "uint256",
					"name": "latestRandomSeed",
					"type": "uint256"
				}
			],
			"stateMutability": "view",
			"type": "function"
		},
		{
			"inputs": [],
			"name": "getEntireSystemColl",
			"outputs": [
				{
					"internalType": "uint256",
					"name": "entireSystemColl",
					"type": "uint256"
				}
			],
			"stateMutability": "view",
			"type": "function"
		},
		{
			"inputs": [],
			"name": "getEntireSystemDebt",
			"outputs": [
				{
					"internalType": "uint256",
					"name": "entireSystemDebt",
					"type": "uint256"
				}
			],
			"stateMutability": "view",
			"type": "function"
		},
		{
			"inputs": [
				{
					"internalType": "uint256",
					"name": "_LUSDamount",
					"type": "uint256"
				},
				{
					"internalType": "uint256",
					"name": "_price",
					"type": "uint256"
				},
				{
					"internalType": "uint256",
					"name": "_maxIterations",
					"type": "uint256"
				}
			],
			"name": "getRedemptionHints",
			"outputs": [
				{
					"internalType": "address",
					"name": "firstRedemptionHint",
					"type": "address"
				},
				{
					"internalType": "uint256",
					"name": "partialRedemptionHintNICR",
					"type": "uint256"
				},
				{
					"internalType": "uint256",
					"name": "truncatedLUSDamount",
					"type": "uint256"
				}
			],
			"stateMutability": "view",
			"type": "function"
		},
		{
			"inputs": [],
			"name": "isOwner",
			"outputs": [
				{
					"internalType": "bool",
					"name": "",
					"type": "bool"
				}
			],
			"stateMutability": "view",
			"type": "function"
		},
		{
			"inputs": [],
			"name": "owner",
			"outputs": [
				{
					"internalType": "address",
					"name": "",
					"type": "address"
				}
			],
			"stateMutability": "view",
			"type": "function"
		},
		{
			"inputs": [],
			"name": "priceFeed",
			"outputs": [
				{
					"internalType": "contract IPriceFeed",
					"name": "",
					"type": "address"
				}
			],
			"stateMutability": "view",
			"type": "function"
		},
		{
			"inputs": [
				{
					"internalType": "address",
					"name": "_sortedTrovesAddress",
					"type": "address"
				},
				{
					"internalType": "address",
					"name": "_troveManagerAddress",
					"type": "address"
				}
			],
			"name": "setAddresses",
			"outputs": [],
			"stateMutability": "nonpayable",
			"type": "function"
		},
		{
			"inputs": [],
			"name": "sortedTroves",
			"outputs": [
				{
					"internalType": "contract ISortedTroves",
					"name": "",
					"type": "address"
				}
			],
			"stateMutability": "view",
			"type": "function"
		},
		{
			"inputs": [],
			"name": "troveManager",
			"outputs": [
				{
					"internalType": "contract ITroveManager",
					"name": "",
					"type": "address"
				}
			],
			"stateMutability": "view",
			"type": "function"
		}
	]
}