{
	"data": {
		"bytecode": {
			"linkReferences": {},
			"object": "608060405234801561001057600080fd5b50600080546001600160a01b0319163390811782556040519091907f8be0079c531659141344cd1fd0a4f28419497f9722a3daafe3b4186f6b6457e0908290a36107198061005f6000396000f3fe608060405234801561001057600080fd5b50600436106100885760003560e01c80638da5cb5b1161005b5780638da5cb5b146100f35780638f32d59b14610108578063b3596f0714610110578063f2be88cd1461012357610088565b80630e5665e61461008d57806330d454f0146100a25780635e91734c146100cb57806387c13943146100de575b600080fd5b6100a061009b3660046104bc565b610136565b005b6100b56100b036600461049a565b6102c0565b6040516100c29190610627565b60405180910390f35b6100a06100d936600461049a565b6102de565b6100e661034e565b6040516100c291906106c5565b6100fb610354565b6040516100c2919061056a565b6100b5610363565b6100e661011e36600461049a565b610374565b6100a061013136600461049a565b61039f565b61013f3361040c565b8281146101675760405162461bcd60e51b815260040161015e9061068e565b60405180910390fd5b60005b8381101561027a5760405180606001604052804367ffffffffffffffff1681526020014267ffffffffffffffff1681526020018484848181106101a957fe5b90506020020160208101906101be9190610525565b6001600160801b03169052600160008787858181106101d957fe5b90506020020160208101906101ee919061049a565b6001600160a01b0316815260208082019290925260409081016000208351815493850151949092015167ffffffffffffffff1990931667ffffffffffffffff928316176fffffffffffffffff00000000000000001916680100000000000000009290941691909102929092176001600160801b03908116600160801b919092160217905560010161016a565b507f995dd01082df56f242aad7e0a6f87116e5d4c972ab8377309354fa2bd0de3e5933858585856040516102b295949392919061057e565b60405180910390a150505050565b6001600160a01b031660009081526002602052604090205460ff1690565b6102e6610363565b6103025760405162461bcd60e51b815260040161015e90610659565b6001600160a01b038116600081815260026020526040808220805460ff19166001179055517fe7d975a644451bd7331add56a59563e5d19b661497948c38d25b9694874706739190a250565b61271081565b6000546001600160a01b031690565b6000546001600160a01b0316331490565b6001600160a01b0316600090815260016020526040902054600160801b90046001600160801b031690565b6103a7610363565b6103c35760405162461bcd60e51b815260040161015e90610659565b6001600160a01b038116600081815260026020526040808220805460ff19169055517f8bde64628aa5dae6d1c378a97b785745a4db9beaa7d503f91a8274c7b58d2f019190a250565b610415816102c0565b6104315760405162461bcd60e51b815260040161015e90610632565b50565b80356001600160a01b038116811461044b57600080fd5b92915050565b60008083601f840112610462578182fd5b50813567ffffffffffffffff811115610479578182fd5b602083019150836020808302850101111561049357600080fd5b9250929050565b6000602082840312156104ab578081fd5b6104b58383610434565b9392505050565b600080600080604085870312156104d1578283fd5b843567ffffffffffffffff808211156104e8578485fd5b6104f488838901610451565b9096509450602087013591508082111561050c578384fd5b5061051987828801610451565b95989497509550505050565b600060208284031215610536578081fd5b81356001600160801b03811681146104b5578182fd5b6001600160a01b0316815260200190565b6001600160801b03169052565b6001600160a01b0391909116815260200190565b6001600160a01b038616815260606020808301829052600091830190816105a588826106c5565b9050889250835b888110156105d7578284016105ca836105c58388610434565b61054c565b90945091506001016105ac565b5084810360408601528581528101915085835b868110156106185781356105fd816106ce565b610607858261055d565b5092820192908201906001016105ea565b50919998505050505050505050565b901515815260200190565b6020808252600d908201526c1253959053125117d4d6509253609a1b604082015260600190565b6020808252818101527f4f776e61626c653a2063616c6c6572206973206e6f7420746865206f776e6572604082015260600190565b6020808252601a908201527f494e434f4e53495354454e545f504152414d535f4c454e475448000000000000604082015260600190565b90815260200190565b6001600160801b038116811461043157600080fdfea264697066735822122050c966742be1396c11b9e28d29a27f1a473658e4574937770d87d3efe63c133164736f6c634300060b0033",
			"opcodes": "PUSH1 0x80 PUSH1 0x40 MSTORE CALLVALUE DUP1 ISZERO PUSH2 0x10 JUMPI PUSH1 0x0 DUP1 REVERT JUMPDEST POP PUSH1 0x0 DUP1 SLOAD PUSH1 0x1 PUSH1 0x1 PUSH1 0xA0 SHL SUB NOT AND CALLER SWAP1 DUP2 OR DUP3 SSTORE PUSH1 0x40 MLOAD SWAP1 SWAP2 SWAP1 PUSH32 0x8BE0079C531659141344CD1FD0A4F28419497F9722A3DAAFE3B4186F6B6457E0 SWAP1 DUP3 SWAP1 LOG3 PUSH2 0x719 DUP1 PUSH2 0x5F PUSH1 0x0 CODECOPY PUSH1 0x0 RETURN INVALID PUSH1 0x80 PUSH1 0x40 MSTORE CALLVALUE DUP1 ISZERO PUSH2 0x10 JUMPI PUSH1 0x0 DUP1 REVERT JUMPDEST POP PUSH1 0x4 CALLDATASIZE LT PUSH2 0x88 JUMPI PUSH1 0x0 CALLDATALOAD PUSH1 0xE0 SHR DUP1 PUSH4 0x8DA5CB5B GT PUSH2 0x5B JUMPI DUP1 PUSH4 0x8DA5CB5B EQ PUSH2 0xF3 JUMPI DUP1 PUSH4 0x8F32D59B EQ PUSH2 0x108 JUMPI DUP1 PUSH4 0xB3596F07 EQ PUSH2 0x110 JUMPI DUP1 PUSH4 0xF2BE88CD EQ PUSH2 0x123 JUMPI PUSH2 0x88 JUMP JUMPDEST DUP1 PUSH4 0xE5665E6 EQ PUSH2 0x8D JUMPI DUP1 PUSH4 0x30D454F0 EQ PUSH2 0xA2 JUMPI DUP1 PUSH4 0x5E91734C EQ PUSH2 0xCB JUMPI DUP1 PUSH4 0x87C13943 EQ PUSH2 0xDE JUMPI JUMPDEST PUSH1 0x0 DUP1 REVERT JUMPDEST PUSH2 0xA0 PUSH2 0x9B CALLDATASIZE PUSH1 0x4 PUSH2 0x4BC JUMP JUMPDEST PUSH2 0x136 JUMP JUMPDEST STOP JUMPDEST PUSH2 0xB5 PUSH2 0xB0 CALLDATASIZE PUSH1 0x4 PUSH2 0x49A JUMP JUMPDEST PUSH2 0x2C0 JUMP JUMPDEST PUSH1 0x40 MLOAD PUSH2 0xC2 SWAP2 SWAP1 PUSH2 0x627 JUMP JUMPDEST PUSH1 0x40 MLOAD DUP1 SWAP2 SUB SWAP1 RETURN JUMPDEST PUSH2 0xA0 PUSH2 0xD9 CALLDATASIZE PUSH1 0x4 PUSH2 0x49A JUMP JUMPDEST PUSH2 0x2DE JUMP JUMPDEST PUSH2 0xE6 PUSH2 0x34E JUMP JUMPDEST PUSH1 0x40 MLOAD PUSH2 0xC2 SWAP2 SWAP1 PUSH2 0x6C5 JUMP JUMPDEST PUSH2 0xFB PUSH2 0x354 JUMP JUMPDEST PUSH1 0x40 MLOAD PUSH2 0xC2 SWAP2 SWAP1 PUSH2 0x56A JUMP JUMPDEST PUSH2 0xB5 PUSH2 0x363 JUMP JUMPDEST PUSH2 0xE6 PUSH2 0x11E CALLDATASIZE PUSH1 0x4 PUSH2 0x49A JUMP JUMPDEST PUSH2 0x374 JUMP JUMPDEST PUSH2 0xA0 PUSH2 0x131 CALLDATASIZE PUSH1 0x4 PUSH2 0x49A JUMP JUMPDEST PUSH2 0x39F JUMP JUMPDEST PUSH2 0x13F CALLER PUSH2 0x40C JUMP JUMPDEST DUP3 DUP2 EQ PUSH2 0x167 JUMPI PUSH1 0x40 MLOAD PUSH3 0x461BCD PUSH1 0xE5 SHL DUP2 MSTORE PUSH1 0x4 ADD PUSH2 0x15E SWAP1 PUSH2 0x68E JUMP JUMPDEST PUSH1 0x40 MLOAD DUP1 SWAP2 SUB SWAP1 REVERT JUMPDEST PUSH1 0x0 JUMPDEST DUP4 DUP2 LT ISZERO PUSH2 0x27A JUMPI PUSH1 0x40 MLOAD DUP1 PUSH1 0x60 ADD PUSH1 0x40 MSTORE DUP1 NUMBER PUSH8 0xFFFFFFFFFFFFFFFF AND DUP2 MSTORE PUSH1 0x20 ADD TIMESTAMP PUSH8 0xFFFFFFFFFFFFFFFF AND DUP2 MSTORE PUSH1 0x20 ADD DUP5 DUP5 DUP5 DUP2 DUP2 LT PUSH2 0x1A9 JUMPI INVALID JUMPDEST SWAP1 POP PUSH1 0x20 MUL ADD PUSH1 0x20 DUP2 ADD SWAP1 PUSH2 0x1BE SWAP2 SWAP1 PUSH2 0x525 JUMP JUMPDEST PUSH1 0x1 PUSH1 0x1 PUSH1 0x80 SHL SUB AND SWAP1 MSTORE PUSH1 0x1 PUSH1 0x0 DUP8 DUP8 DUP6 DUP2 DUP2 LT PUSH2 0x1D9 JUMPI INVALID JUMPDEST SWAP1 POP PUSH1 0x20 MUL ADD PUSH1 0x20 DUP2 ADD SWAP1 PUSH2 0x1EE SWAP2 SWAP1 PUSH2 0x49A JUMP JUMPDEST PUSH1 0x1 PUSH1 0x1 PUSH1 0xA0 SHL SUB AND DUP2 MSTORE PUSH1 0x20 DUP1 DUP3 ADD SWAP3 SWAP1 SWAP3 MSTORE PUSH1 0x40 SWAP1 DUP2 ADD PUSH1 0x0 KECCAK256 DUP4 MLOAD DUP2 SLOAD SWAP4 DUP6 ADD MLOAD SWAP5 SWAP1 SWAP3 ADD MLOAD PUSH8 0xFFFFFFFFFFFFFFFF NOT SWAP1 SWAP4 AND PUSH8 0xFFFFFFFFFFFFFFFF SWAP3 DUP4 AND OR PUSH16 0xFFFFFFFFFFFFFFFF0000000000000000 NOT AND PUSH9 0x10000000000000000 SWAP3 SWAP1 SWAP5 AND SWAP2 SWAP1 SWAP2 MUL SWAP3 SWAP1 SWAP3 OR PUSH1 0x1 PUSH1 0x1 PUSH1 0x80 SHL SUB SWAP1 DUP2 AND PUSH1 0x1 PUSH1 0x80 SHL SWAP2 SWAP1 SWAP3 AND MUL OR SWAP1 SSTORE PUSH1 0x1 ADD PUSH2 0x16A JUMP JUMPDEST POP PUSH32 0x995DD01082DF56F242AAD7E0A6F87116E5D4C972AB8377309354FA2BD0DE3E59 CALLER DUP6 DUP6 DUP6 DUP6 PUSH1 0x40 MLOAD PUSH2 0x2B2 SWAP6 SWAP5 SWAP4 SWAP3 SWAP2 SWAP1 PUSH2 0x57E JUMP JUMPDEST PUSH1 0x40 MLOAD DUP1 SWAP2 SUB SWAP1 LOG1 POP POP POP POP JUMP JUMPDEST PUSH1 0x1 PUSH1 0x1 PUSH1 0xA0 SHL SUB AND PUSH1 0x0 SWAP1 DUP2 MSTORE PUSH1 0x2 PUSH1 0x20 MSTORE PUSH1 0x40 SWAP1 KECCAK256 SLOAD PUSH1 0xFF AND SWAP1 JUMP JUMPDEST PUSH2 0x2E6 PUSH2 0x363 JUMP JUMPDEST PUSH2 0x302 JUMPI PUSH1 0x40 MLOAD PUSH3 0x461BCD PUSH1 0xE5 SHL DUP2 MSTORE PUSH1 0x4 ADD PUSH2 0x15E SWAP1 PUSH2 0x659 JUMP JUMPDEST PUSH1 0x1 PUSH1 0x1 PUSH1 0xA0 SHL SUB DUP2 AND PUSH1 0x0 DUP2 DUP2 MSTORE PUSH1 0x2 PUSH1 0x20 MSTORE PUSH1 0x40 DUP1 DUP3 KECCAK256 DUP1 SLOAD PUSH1 0xFF NOT AND PUSH1 0x1 OR SWAP1 SSTORE MLOAD PUSH32 0xE7D975A644451BD7331ADD56A59563E5D19B661497948C38D25B969487470673 SWAP2 SWAP1 LOG2 POP JUMP JUMPDEST PUSH2 0x2710 DUP2 JUMP JUMPDEST PUSH1 0x0 SLOAD PUSH1 0x1 PUSH1 0x1 PUSH1 0xA0 SHL SUB AND SWAP1 JUMP JUMPDEST PUSH1 0x0 SLOAD PUSH1 0x1 PUSH1 0x1 PUSH1 0xA0 SHL SUB AND CALLER EQ SWAP1 JUMP JUMPDEST PUSH1 0x1 PUSH1 0x1 PUSH1 0xA0 SHL SUB AND PUSH1 0x0 SWAP1 DUP2 MSTORE PUSH1 0x1 PUSH1 0x20 MSTORE PUSH1 0x40 SWAP1 KECCAK256 SLOAD PUSH1 0x1 PUSH1 0x80 SHL SWAP1 DIV PUSH1 0x1 PUSH1 0x1 PUSH1 0x80 SHL SUB AND SWAP1 JUMP JUMPDEST PUSH2 0x3A7 PUSH2 0x363 JUMP JUMPDEST PUSH2 0x3C3 JUMPI PUSH1 0x40 MLOAD PUSH3 0x461BCD PUSH1 0xE5 SHL DUP2 MSTORE PUSH1 0x4 ADD PUSH2 0x15E SWAP1 PUSH2 0x659 JUMP JUMPDEST PUSH1 0x1 PUSH1 0x1 PUSH1 0xA0 SHL SUB DUP2 AND PUSH1 0x0 DUP2 DUP2 MSTORE PUSH1 0x2 PUSH1 0x20 MSTORE PUSH1 0x40 DUP1 DUP3 KECCAK256 DUP1 SLOAD PUSH1 0xFF NOT AND SWAP1 SSTORE MLOAD PUSH32 0x8BDE64628AA5DAE6D1C378A97B785745A4DB9BEAA7D503F91A8274C7B58D2F01 SWAP2 SWAP1 LOG2 POP JUMP JUMPDEST PUSH2 0x415 DUP2 PUSH2 0x2C0 JUMP JUMPDEST PUSH2 0x431 JUMPI PUSH1 0x40 MLOAD PUSH3 0x461BCD PUSH1 0xE5 SHL DUP2 MSTORE PUSH1 0x4 ADD PUSH2 0x15E SWAP1 PUSH2 0x632 JUMP JUMPDEST POP JUMP JUMPDEST DUP1 CALLDATALOAD PUSH1 0x1 PUSH1 0x1 PUSH1 0xA0 SHL SUB DUP2 AND DUP2 EQ PUSH2 0x44B JUMPI PUSH1 0x0 DUP1 REVERT JUMPDEST SWAP3 SWAP2 POP POP JUMP JUMPDEST PUSH1 0x0 DUP1 DUP4 PUSH1 0x1F DUP5 ADD SLT PUSH2 0x462 JUMPI DUP2 DUP3 REVERT JUMPDEST POP DUP2 CALLDATALOAD PUSH8 0xFFFFFFFFFFFFFFFF DUP2 GT ISZERO PUSH2 0x479 JUMPI DUP2 DUP3 REVERT JUMPDEST PUSH1 0x20 DUP4 ADD SWAP2 POP DUP4 PUSH1 0x20 DUP1 DUP4 MUL DUP6 ADD ADD GT ISZERO PUSH2 0x493 JUMPI PUSH1 0x0 DUP1 REVERT JUMPDEST SWAP3 POP SWAP3 SWAP1 POP JUMP JUMPDEST PUSH1 0x0 PUSH1 0x20 DUP3 DUP5 SUB SLT ISZERO PUSH2 0x4AB JUMPI DUP1 DUP2 REVERT JUMPDEST PUSH2 0x4B5 DUP4 DUP4 PUSH2 0x434 JUMP JUMPDEST SWAP4 SWAP3 POP POP POP JUMP JUMPDEST PUSH1 0x0 DUP1 PUSH1 0x0 DUP1 PUSH1 0x40 DUP6 DUP8 SUB SLT ISZERO PUSH2 0x4D1 JUMPI DUP3 DUP4 REVERT JUMPDEST DUP5 CALLDATALOAD PUSH8 0xFFFFFFFFFFFFFFFF DUP1 DUP3 GT ISZERO PUSH2 0x4E8 JUMPI DUP5 DUP6 REVERT JUMPDEST PUSH2 0x4F4 DUP9 DUP4 DUP10 ADD PUSH2 0x451 JUMP JUMPDEST SWAP1 SWAP7 POP SWAP5 POP PUSH1 0x20 DUP8 ADD CALLDATALOAD SWAP2 POP DUP1 DUP3 GT ISZERO PUSH2 0x50C JUMPI DUP4 DUP5 REVERT JUMPDEST POP PUSH2 0x519 DUP8 DUP3 DUP9 ADD PUSH2 0x451 JUMP JUMPDEST SWAP6 SWAP9 SWAP5 SWAP8 POP SWAP6 POP POP POP POP JUMP JUMPDEST PUSH1 0x0 PUSH1 0x20 DUP3 DUP5 SUB SLT ISZERO PUSH2 0x536 JUMPI DUP1 DUP2 REVERT JUMPDEST DUP2 CALLDATALOAD PUSH1 0x1 PUSH1 0x1 PUSH1 0x80 SHL SUB DUP2 AND DUP2 EQ PUSH2 0x4B5 JUMPI DUP2 DUP3 REVERT JUMPDEST PUSH1 0x1 PUSH1 0x1 PUSH1 0xA0 SHL SUB AND DUP2 MSTORE PUSH1 0x20 ADD SWAP1 JUMP JUMPDEST PUSH1 0x1 PUSH1 0x1 PUSH1 0x80 SHL SUB AND SWAP1 MSTORE JUMP JUMPDEST PUSH1 0x1 PUSH1 0x1 PUSH1 0xA0 SHL SUB SWAP2 SWAP1 SWAP2 AND DUP2 MSTORE PUSH1 0x20 ADD SWAP1 JUMP JUMPDEST PUSH1 0x1 PUSH1 0x1 PUSH1 0xA0 SHL SUB DUP7 AND DUP2 MSTORE PUSH1 0x60 PUSH1 0x20 DUP1 DUP4 ADD DUP3 SWAP1 MSTORE PUSH1 0x0 SWAP2 DUP4 ADD SWAP1 DUP2 PUSH2 0x5A5 DUP9 DUP3 PUSH2 0x6C5 JUMP JUMPDEST SWAP1 POP DUP9 SWAP3 POP DUP4 JUMPDEST DUP9 DUP2 LT ISZERO PUSH2 0x5D7 JUMPI DUP3 DUP5 ADD PUSH2 0x5CA DUP4 PUSH2 0x5C5 DUP4 DUP9 PUSH2 0x434 JUMP JUMPDEST PUSH2 0x54C JUMP JUMPDEST SWAP1 SWAP5 POP SWAP2 POP PUSH1 0x1 ADD PUSH2 0x5AC JUMP JUMPDEST POP DUP5 DUP2 SUB PUSH1 0x40 DUP7 ADD MSTORE DUP6 DUP2 MSTORE DUP2 ADD SWAP2 POP DUP6 DUP4 JUMPDEST DUP7 DUP2 LT ISZERO PUSH2 0x618 JUMPI DUP2 CALLDATALOAD PUSH2 0x5FD DUP2 PUSH2 0x6CE JUMP JUMPDEST PUSH2 0x607 DUP6 DUP3 PUSH2 0x55D JUMP JUMPDEST POP SWAP3 DUP3 ADD SWAP3 SWAP1 DUP3 ADD SWAP1 PUSH1 0x1 ADD PUSH2 0x5EA JUMP JUMPDEST POP SWAP2 SWAP10 SWAP9 POP POP POP POP POP POP POP POP POP JUMP JUMPDEST SWAP1 ISZERO ISZERO DUP2 MSTORE PUSH1 0x20 ADD SWAP1 JUMP JUMPDEST PUSH1 0x20 DUP1 DUP3 MSTORE PUSH1 0xD SWAP1 DUP3 ADD MSTORE PUSH13 0x1253959053125117D4D6509253 PUSH1 0x9A SHL PUSH1 0x40 DUP3 ADD MSTORE PUSH1 0x60 ADD SWAP1 JUMP JUMPDEST PUSH1 0x20 DUP1 DUP3 MSTORE DUP2 DUP2 ADD MSTORE PUSH32 0x4F776E61626C653A2063616C6C6572206973206E6F7420746865206F776E6572 PUSH1 0x40 DUP3 ADD MSTORE PUSH1 0x60 ADD SWAP1 JUMP JUMPDEST PUSH1 0x20 DUP1 DUP3 MSTORE PUSH1 0x1A SWAP1 DUP3 ADD MSTORE PUSH32 0x494E434F4E53495354454E545F504152414D535F4C454E475448000000000000 PUSH1 0x40 DUP3 ADD MSTORE PUSH1 0x60 ADD SWAP1 JUMP JUMPDEST SWAP1 DUP2 MSTORE PUSH1 0x20 ADD SWAP1 JUMP JUMPDEST PUSH1 0x1 PUSH1 0x1 PUSH1 0x80 SHL SUB DUP2 AND DUP2 EQ PUSH2 0x431 JUMPI PUSH1 0x0 DUP1 REVERT INVALID LOG2 PUSH5 0x6970667358 0x22 SLT KECCAK256 POP 0xC9 PUSH7 0x742BE1396C11B9 0xE2 DUP14 0x29 LOG2 PUSH32 0x1A473658E4574937770D87D3EFE63C133164736F6C634300060B003300000000 "
		},
		"gasEstimates": {
			"creation": {
				"codeDepositCost": "363400",
				"executionCost": "22767",
				"totalCost": "386167"
			},
			"external": {
				"PERCENTAGE_BASE()": "295",
				"authorizeSybil(address)": "23272",
				"getAssetPrice(address)": "1354",
				"isOwner()": "1079",
				"isSybilWhitelisted(address)": "1310",
				"owner()": "1070",
				"submitPrices(address[],uint128[])": "infinite",
				"unauthorizeSybil(address)": "23287"
			},
			"internal": {
				"_requireWhitelistedSybil(address)": "infinite"
			}
		},
		"methodIdentifiers": {
			"PERCENTAGE_BASE()": "87c13943",
			"authorizeSybil(address)": "5e91734c",
			"getAssetPrice(address)": "b3596f07",
			"isOwner()": "8f32d59b",
			"isSybilWhitelisted(address)": "30d454f0",
			"owner()": "8da5cb5b",
			"submitPrices(address[],uint128[])": "0e5665e6",
			"unauthorizeSybil(address)": "f2be88cd"
		}
	},
	"abi": [
		{
			"anonymous": false,
			"inputs": [
				{
					"indexed": true,
					"internalType": "address",
					"name": "previousOwner",
					"type": "address"
				},
				{
					"indexed": true,
					"internalType": "address",
					"name": "newOwner",
					"type": "address"
				}
			],
			"name": "OwnershipTransferred",
			"type": "event"
		},
		{
			"anonymous": false,
			"inputs": [
				{
					"indexed": false,
					"internalType": "address",
					"name": "sybil",
					"type": "address"
				},
				{
					"indexed": false,
					"internalType": "address[]",
					"name": "assets",
					"type": "address[]"
				},
				{
					"indexed": false,
					"internalType": "uint128[]",
					"name": "prices",
					"type": "uint128[]"
				}
			],
			"name": "PricesSubmitted",
			"type": "event"
		},
		{
			"anonymous": false,
			"inputs": [
				{
					"indexed": true,
					"internalType": "address",
					"name": "sybil",
					"type": "address"
				}
			],
			"name": "SybilAuthorized",
			"type": "event"
		},
		{
			"anonymous": false,
			"inputs": [
				{
					"indexed": true,
					"internalType": "address",
					"name": "sybil",
					"type": "address"
				}
			],
			"name": "SybilUnauthorized",
			"type": "event"
		},
		{
			"inputs": [],
			"name": "PERCENTAGE_BASE",
			"outputs": [
				{
					"internalType": "uint256",
					"name": "",
					"type": "uint256"
				}
			],
			"stateMutability": "view",
			"type": "function"
		},
		{
			"inputs": [
				{
					"internalType": "address",
					"name": "sybil",
					"type": "address"
				}
			],
			"name": "authorizeSybil",
			"outputs": [],
			"stateMutability": "nonpayable",
			"type": "function"
		},
		{
			"inputs": [
				{
					"internalType": "address",
					"name": "asset",
					"type": "address"
				}
			],
			"name": "getAssetPrice",
			"outputs": [
				{
					"internalType": "uint256",
					"name": "",
					"type": "uint256"
				}
			],
			"stateMutability": "view",
			"type": "function"
		},
		{
			"inputs": [],
			"name": "isOwner",
			"outputs": [
				{
					"internalType": "bool",
					"name": "",
					"type": "bool"
				}
			],
			"stateMutability": "view",
			"type": "function"
		},
		{
			"inputs": [
				{
					"internalType": "address",
					"name": "sybil",
					"type": "address"
				}
			],
			"name": "isSybilWhitelisted",
			"outputs": [
				{
					"internalType": "bool",
					"name": "",
					"type": "bool"
				}
			],
			"stateMutability": "view",
			"type": "function"
		},
		{
			"inputs": [],
			"name": "owner",
			"outputs": [
				{
					"internalType": "address",
					"name": "",
					"type": "address"
				}
			],
			"stateMutability": "view",
			"type": "function"
		},
		{
			"inputs": [
				{
					"internalType": "address[]",
					"name": "assets",
					"type": "address[]"
				},
				{
					"internalType": "uint128[]",
					"name": "prices",
					"type": "uint128[]"
				}
			],
			"name": "submitPrices",
			"outputs": [],
			"stateMutability": "nonpayable",
			"type": "function"
		},
		{
			"inputs": [
				{
					"internalType": "address",
					"name": "sybil",
					"type": "address"
				}
			],
			"name": "unauthorizeSybil",
			"outputs": [],
			"stateMutability": "nonpayable",
			"type": "function"
		}
	]
}