{
	"data": {
		"bytecode": {
			"linkReferences": {},
			"object": "6080604052670de0b6b3a764000060115534801561001c57600080fd5b50600380546001600160a01b031916339081179091556040516000907f8be0079c531659141344cd1fd0a4f28419497f9722a3daafe3b4186f6b6457e0908290a36139108061006c6000396000f3fe608060405234801561001057600080fd5b50600436106103785760003560e01c806382e0a574116101d3578063ae91875411610104578063df9cd84f116100a2578063f851a4401161007c578063f851a44014610848578063f92d34331461085b578063fc7e286d14610863578063fda0101a146108b057600080fd5b8063df9cd84f1461080f578063eaa8ba7f14610822578063f5f1595d1461083557600080fd5b8063ce4b5bbe116100de578063ce4b5bbe146107df578063cef941e8146107ea578063d4ca0575146107f3578063d7fb04431461080657600080fd5b8063ae918754146107a6578063b83f91a2146107b9578063c4d66de8146107cc57600080fd5b806395fb16bb11610171578063a3f4df7e1161014b578063a3f4df7e14610708578063a4e59ac814610741578063a7bfff9714610754578063ad5c46481461079357600080fd5b806395fb16bb146106ed5780639bf2f1ac14610700578063a20baee61461059857600080fd5b80638b8fbd92116101ad5780638b8fbd92146106b85780638bad0c0a146106c15780638da5cb5b146106c95780638f32d59b146106da57600080fd5b806382e0a5741461063c57806386da082414610667578063887105d3146106b057600080fd5b8063556be101116102ad578063741bef1a1161024b578063794e572411610225578063794e5724146105ff578063795d26c31461060e5780637f7dde4a14610616578063813816601461062957600080fd5b8063741bef1a146105a757806376671808146105ba57806377553ad4146105ec57600080fd5b80635f788d65116102875780635f788d651461055f578063704b6c0214610572578063724e78da1461058557806372fe25aa1461059857600080fd5b8063556be1011461051d5780635733d58f146105305780635d2de6421461053f57600080fd5b8063335525ad1161031a5780633cc74225116102f45780633cc74225146104ce5780633d83908a146104f95780634870dd9a1461050c578063538153ca1461051457600080fd5b8063335525ad14610484578063389e92a514610497578063392e53cd146104aa57600080fd5b80631cdc4700116103565780631cdc47001461042157806328a0a04d146104345780632e54bf951461045f5780632e86bbd81461047457600080fd5b806314f6c3be1461037d57806316b9d3c5146103945780631bf4355514610411575b600080fd5b6009545b6040519081526020015b60405180910390f35b6103dd6103a2366004613551565b6010602052600090815260409020805460018201546002830154600390930154919290916001600160801b0380821691600160801b90041685565b604080519586526020860194909452928401919091526001600160801b03908116606084015216608082015260a00161038b565b6103816809c2007651b250000081565b61038161042f366004613551565b6108c3565b61038161044236600461358a565b601360209081526000928352604080842090915290825290205481565b61047261046d3660046135bd565b610961565b005b6103816801158e460913d0000081565b6104726104923660046135d6565b610b0f565b6103816104a5366004613551565b610b71565b600a546104be90600160a01b900460ff1681565b604051901515815260200161038b565b6001546104e1906001600160a01b031681565b6040516001600160a01b03909116815260200161038b565b6005546104e1906001600160a01b031681565b61038160c881565b61038160175481565b61047261052b3660046135bd565b610c06565b6103816714d1120d7b16000081565b61038161054d366004613551565b600f6020526000908152604090205481565b61047261056d3660046135f8565b610c80565b610472610580366004613551565b610e29565b610472610593366004613551565b610e7e565b610381670de0b6b3a764000081565b6002546104e1906001600160a01b031681565b6012546105d490600160801b90046001600160801b031681565b6040516001600160801b03909116815260200161038b565b6004546104e1906001600160a01b031681565b610381670f43fc2c04ee000081565b610381610eb7565b6000546104e1906001600160a01b031681565b6104726106373660046135bd565b610fb3565b61038161064a36600461358a565b601460209081526000928352604080842090915290825290205481565b6103dd610675366004613551565b600d602052600090815260409020805460018201546002830154600390930154919290916001600160801b0380821691600160801b90041685565b6103816110d6565b61038160115481565b61047261119b565b6003546001600160a01b03166104e1565b6003546001600160a01b031633146104be565b6008546104e1906001600160a01b031681565b600b54610381565b6107346040518060400160405280600d81526020016c14dd18589a5b1a5d1e541bdbdb609a1b81525081565b60405161038b9190613628565b6012546105d4906001600160801b031681565b61077e610762366004613551565b600e602052600090815260409020805460019091015460ff1682565b6040805192835290151560208301520161038b565b600a546104e1906001600160a01b031681565b6007546104e1906001600160a01b031681565b6006546104e1906001600160a01b031681565b6104726107da366004613551565b6111c4565b610381633b9aca0081565b61038160155481565b610381610801366004613551565b611275565b61038160165481565b61038161081d366004613551565b611360565b610472610830366004613676565b6113f5565b610381610843366004613551565b61166f565b6018546104e1906001600160a01b031681565b61038161175e565b610893610871366004613551565b600c60205260009081526040902080546001909101546001600160a01b031682565b604080519283526001600160a01b0390911660208301520161038b565b6104726108be36600461370c565b611780565b6001600160a01b0381166000908152600c60205260408120548082036108ec5750600092915050565b6001600160a01b0383166000908152600d60209081526040808320815160a08101835281548152600182015493810193909352600281015491830191909152600301546001600160801b038082166060840152600160801b909104166080820152906109588383611a7f565b95945050505050565b801561096f5761096f611b70565b336000908152600c602052604090205461098881611d68565b6008546001600160a01b031661099d81611dd1565b60006109a833610b71565b905060006109b5336108c3565b905060006109c38683611e46565b905060006109d18387613750565b336000818152600c60205260409020600101549192506001600160a01b03909116906109ff90879083611e5e565b6000610a0a82611360565b90506000610a188583613750565b9050610a248382611fdd565b604080518281523360208201526001600160a01b038516917f99920012339b5a3368d3a04b8606ce412c46ed92b7dcd8602d41fc8862cb8f25910160405180910390a2610a71338661211f565b6000610a7d8688613750565b9050610a8933826121a0565b60405181815233907fbce78369dccab09eec1986f4d409ab09ffbb47d65423e5148fcf98411c5111c99060200160405180910390a2604080518981526020810187905233917f51457222ebca92c335c9c86e2baa1cc0e40ffaa9084a51452980d5ba8dec2f63910160405180910390a2610b0288612315565b5050505050505050505050565b610b17612503565b600b54801580610b25575082155b15610b2f57505050565b600854610b44906001600160a01b0316611dd1565b600080610b52848685612571565b91509150610b608282612646565b610b6a8486612931565b5050505050565b6001600160a01b0381166000908152600c6020526040812054808203610b9a5750600092915050565b6001600160a01b0383166000908152600d60209081526040808320815160a08101835281548152600182015493810193909352600281015491830191909152600301546001600160801b038082166060840152600160801b909104166080820152906109588383612a63565b610c0f33612b49565b610c1833612bdb565b610c2181612c53565b336000818152600e6020526040908190208381556001908101805460ff19169091179055517f19bc932fb9e16a8b5a1e41be9f4c2de59d5ddd7567b8b81405f532ca00a9880e90610c759084815260200190565b60405180910390a250565b610c8981612cc7565b610c9233612b49565b610c9b82612d79565b336000908152600c60205260409020546008546001600160a01b0316610cc081611dd1565b81600003610cd257610cd23384612dd8565b6000610cdd33610b71565b90506000610cea336108c3565b90506000610cf88286613750565b336000818152600c60205260409020600101549192506001600160a01b0390911690610d2690869083611e5e565b6000610d3182611360565b90506000610d3f8a83613763565b9050610d4b8382611fdd565b604080518281523360208201526001600160a01b038516917f99920012339b5a3368d3a04b8606ce412c46ed92b7dcd8602d41fc8862cb8f25910160405180910390a2610d98338b612e32565b6000610da48b87613763565b9050610db033826121a0565b60405181815233907fbce78369dccab09eec1986f4d409ab09ffbb47d65423e5148fcf98411c5111c99060200160405180910390a2604080518881526020810187905233917f51457222ebca92c335c9c86e2baa1cc0e40ffaa9084a51452980d5ba8dec2f63910160405180910390a2610b0287612315565b6003546001600160a01b03163314610e5c5760405162461bcd60e51b8152600401610e5390613776565b60405180910390fd5b601880546001600160a01b0319166001600160a01b0392909216919091179055565b6018546001600160a01b03163314610e9557600080fd5b600280546001600160a01b0319166001600160a01b0392909216919091179055565b6000805460408051632f5a97e560e11b8152905183926001600160a01b031691635eb52fca9160048083019260209291908290030181865afa158015610f01573d6000803e3d6000fd5b505050506040513d601f19601f82011682018060405250810190610f2591906137ab565b90506000600160009054906101000a90046001600160a01b03166001600160a01b0316635eb52fca6040518163ffffffff1660e01b8152600401602060405180830381865afa158015610f7c573d6000803e3d6000fd5b505050506040513d601f19601f82011682018060405250810190610fa091906137ab565b9050610fac8282612eee565b9250505090565b610fbb612f4d565b80600954610fc99190613763565b600a546040516370a0823160e01b81523060048201526001600160a01b03909116906370a0823190602401602060405180830381865afa158015611011573d6000803e3d6000fd5b505050506040513d601f19601f8201168201806040525081019061103591906137ab565b101561108d5760405162461bcd60e51b815260206004820152602160248201527f53746162696c697479506f6f6c3a2046756e6473206e6f7420726563656976656044820152601960fa1b6064820152608401610e53565b8060095461109b9190613763565b60098190556040519081527fceb6d671277d4354fd29977ada70695fbd93a16612abf765d6b0e25c28dc6db39060200160405180910390a150565b6000805460408051630a7b61df60e11b8152905183926001600160a01b0316916314f6c3be9160048083019260209291908290030181865afa158015611120573d6000803e3d6000fd5b505050506040513d601f19601f8201168201806040525081019061114491906137ab565b90506000600160009054906101000a90046001600160a01b03166001600160a01b03166314f6c3be6040518163ffffffff1660e01b8152600401602060405180830381865afa158015610f7c573d6000803e3d6000fd5b6018546001600160a01b031633146111b257600080fd5b601880546001600160a01b0319169055565b6003546001600160a01b031633146111ee5760405162461bcd60e51b8152600401610e5390613776565b600a54600160a01b900460ff161561123e5760405162461bcd60e51b8152602060048201526013602482015272105b1c9958591e48125b9a5d1a585b1a5e9959606a1b6044820152606401610e53565b61124781612fb7565b600a80546001600160a01b0383166001600160a81b031990911617600160a01b17905561127261305c565b50565b6001600160a01b0381166000908152600f602052604081205480820361129e5750600092915050565b6001600160a01b0383166000908152600e6020526040812054906112ca82670de0b6b3a7640000613750565b6001600160a01b0386166000908152601060209081526040808320815160a08101835281548152600182015493810193909352600281015491830191909152600301546001600160801b038082166060840152600160801b909104166080820152919250670de0b6b3a764000061134186846130a6565b61134b90856137c4565b61135591906137db565b979650505050505050565b6001600160a01b0381166000908152600f60205260408120548082036113895750600092915050565b6001600160a01b0383166000908152601060209081526040808320815160a08101835281548152600182015493810193909352600281015491830191909152600301546001600160801b038082166060840152600160801b909104166080820152906109588383611a7f565b6003546001600160a01b0316331461141f5760405162461bcd60e51b8152600401610e5390613776565b61142887612fb7565b61143186612fb7565b61143a85612fb7565b61144384612fb7565b61144c83612fb7565b61145582612fb7565b61145e81612fb7565b600480546001600160a01b03199081166001600160a01b038a81169182179093556005805483168a8516179055600080548316898516179055600680548316888516179055600780548316878516179055600280548316868516179055600880549092169284169290921790556040519081527f3ca631ffcd2a9b5d9ae18543fc82f58eb4ca33af9e6ab01b7a8e95331e6ed9859060200160405180910390a16040516001600160a01b03871681527f143219c9e69b09e07e095fcc889b43d8f46ca892bba65f08dc3a0050869a56789060200160405180910390a16040516001600160a01b03861681527f78f058b189175430c48dc02699e3a0031ea4ff781536dc2fab847de4babdd8829060200160405180910390a16040516001600160a01b03851681527f227eec0ec317af6ab1a9587ffa1c84332522eb4c583a908f89babc05f8f339bd9060200160405180910390a16040516001600160a01b03841681527f65f4cf077bc01e4742eb5ad98326f6e95b63548ea24b17f8d5e823111fe788009060200160405180910390a16040516001600160a01b03831681527f8c537274438aa850a330284665d81a85dd38267d09e4050d416bfc94142db2649060200160405180910390a16040516001600160a01b03821681527f3055265812fb8447b9ada4a5d804ec43bd528ec40e89c952bbc7b85dc5ac68119060200160405180910390a150505050505050565b6001600160a01b0381166000908152600c60205260408120548082036116985750600092915050565b6001600160a01b038084166000908152600c60205260408120600101549091169081156116dd576001600160a01b0382166000908152600e60205260409020546116e7565b670de0b6b3a76400005b6001600160a01b0386166000908152600d60209081526040808320815160a08101835281548152600182015493810193909352600281015491830191909152600301546001600160801b038082166060840152600160801b909104166080820152919250670de0b6b3a764000061134186846130a6565b6117726103e8670de0b6b3a76400006137db565b61177d9060056137c4565b81565b336000908152600c602052604090205461179981611d68565b6117a23361311e565b6117ab33613210565b6008546001600160a01b03166117c081611dd1565b60006117cb33610b71565b905060006117d8336108c3565b905060006117e68286613750565b336000818152600c60205260409020600101549192506001600160a01b039091169061181490869083611e5e565b600061181f82611360565b90508061182c8382611fdd565b604080518281523360208201526001600160a01b038516917f99920012339b5a3368d3a04b8606ce412c46ed92b7dcd8602d41fc8862cb8f25910160405180910390a261187933866121a0565b604080518781526020810186905233917f51457222ebca92c335c9c86e2baa1cc0e40ffaa9084a51452980d5ba8dec2f63910160405180910390a260405185815233907fbce78369dccab09eec1986f4d409ab09ffbb47d65423e5148fcf98411c5111c99060200160405180910390a2856009546118f79190613750565b60098190556040519081527fceb6d671277d4354fd29977ada70695fbd93a16612abf765d6b0e25c28dc6db39060200160405180910390a160408051338152602081018890527f6109e2559dfa766aaec7118351d48a523f0a4157f49c8d68749c8ac41318ad12910160405180910390a1600a546004805460405163a9059cbb60e01b81526001600160a01b0391821692810192909252602482018990529091169063a9059cbb906044016020604051808303816000875af11580156119c1573d6000803e3d6000fd5b505050506040513d601f19601f820116820180604052508101906119e591906137fd565b611a015760405162461bcd60e51b8152600401610e539061381f565b6004805460405163c4fcb91960e01b81529182018890523360248301526001600160a01b038c811660448401528b81166064840152169063c4fcb91990608401600060405180830381600087803b158015611a5b57600080fd5b505af1158015611a6f573d6000803e3d6000fd5b5050505050505050505050505050565b6020810151606082015160808301516012546000939291906001600160801b03600160801b90910481169082161015611abe5760009350505050611b6a565b6012546000908190611ad9906001600160801b031685613287565b9050806001600160801b0316600003611b0c578460115489611afb91906137c4565b611b0591906137db565b9150611b40565b806001600160801b0316600103611b3b57633b9aca00856011548a611b3191906137c4565b611afb91906137db565b600091505b611b4e633b9aca00896137db565b821015611b6357600095505050505050611b6a565b5093505050505b92915050565b60025460408051630fdb11cf60e01b815290516000926001600160a01b031691630fdb11cf916004808301926020929190829003018187875af1158015611bbb573d6000803e3d6000fd5b505050506040513d601f19601f82011682018060405250810190611bdf91906137ab565b90506000600760009054906101000a90046001600160a01b03166001600160a01b0316634d6228316040518163ffffffff1660e01b8152600401602060405180830381865afa158015611c36573d6000803e3d6000fd5b505050506040513d601f19601f82011682018060405250810190611c5a9190613860565b600554604051630d293c7160e41b81526001600160a01b038084166004830152602482018690529293506000929091169063d293c71090604401602060405180830381865afa158015611cb1573d6000803e3d6000fd5b505050506040513d601f19601f82011682018060405250810190611cd591906137ab565b9050670f43fc2c04ee0000811015611d635760405162461bcd60e51b8152602060048201526044602482018190527f53746162696c697479506f6f6c3a2043616e6e6f742077697468647261772077908201527f68696c65207468657265206172652074726f766573207769746820494352203c6064820152631026a1a960e11b608482015260a401610e53565b505050565b600081116112725760405162461bcd60e51b815260206004820152603060248201527f53746162696c697479506f6f6c3a2055736572206d757374206861766520612060448201526f1b9bdb8b5e995c9bc819195c1bdcda5d60821b6064820152608401610e53565b6000816001600160a01b03166346ad34d96040518163ffffffff1660e01b81526004016020604051808303816000875af1158015611e13573d6000803e3d6000fd5b505050506040513d601f19601f82011682018060405250810190611e3791906137ab565b9050611e4281613310565b5050565b6000818310611e555781611e57565b825b9392505050565b6001600160a01b03811615611f23576000611e7882611275565b6040516330a6955b60e11b81526001600160a01b038481166004830152602482018390529192509085169063614d2ab690604401600060405180830381600087803b158015611ec657600080fd5b505af1158015611eda573d6000803e3d6000fd5b50505050816001600160a01b03167fcd2cdc1a4af71051394e9c6facd9a266b2ac5bd65d219a701eeda009f47682bf82604051611f1991815260200190565b60405180910390a2505b6000611f2e8361166f565b6040516330a6955b60e11b81526001600160a01b038581166004830152602482018390529192509085169063614d2ab690604401600060405180830381600087803b158015611f7c57600080fd5b505af1158015611f90573d6000803e3d6000fd5b50505050826001600160a01b03167f2608b986a6ac0f6c629ca37018e80af5561e366252ae93602a96d3ab2e73e42d82604051611fcf91815260200190565b60405180910390a250505050565b6001600160a01b0382166000908152600f60205260408120829055819003612072576001600160a01b0382166000818152601060205260408082208281556001810183905560028101839055600301829055517fbb1322f85cc7cc8bac4e172a5bc5dcc0c1959007f9a030032abf9258205f0e4591612066918190918252602082015260400190565b60405180910390a25050565b6012546011546001600160801b03600160801b8084048216600081815260146020908152604080832095909716808352948152868220546001600160a01b038a168084526010835292889020600181018890556002810182905594840286176003909501949094558651868152908101849052939591949390917fbb1322f85cc7cc8bac4e172a5bc5dcc0c1959007f9a030032abf9258205f0e45910160405180910390a2505050505050565b8060000361212b575050565b600654604051631062c15f60e11b81523060048201526001600160a01b03848116602483015260448201849052909116906320c582be90606401600060405180830381600087803b15801561217f57600080fd5b505af1158015612193573d6000803e3d6000fd5b50505050611e428161341b565b6001600160a01b0382166000908152600c60205260408120829055819003612248576001600160a01b0382166000818152600c60209081526040808320600190810180546001600160a01b0319169055600d83528184208481559081018490556002810184905560030183905580518381529182018390528101919091527f2d6cc0bcdf72c9486f6451bde6b80f44066f4558f77f44dbfedbe7d8b295225a90606001612066565b6012546011546001600160801b03600160801b808404821660008181526013602090815260408083209590971680835294815286822054838352601482528783208684528252878320546001600160a01b038b16808552600d84529389902060018101899055828155600281018290559585028717600390960195909555875187815291820181905296810184905293959194939192917f2d6cc0bcdf72c9486f6451bde6b80f44066f4558f77f44dbfedbe7d8b295225a9060600160405180910390a250505050505050565b806000036123205750565b600a546040516370a0823160e01b815230600482015282916001600160a01b0316906370a0823190602401602060405180830381865afa158015612368573d6000803e3d6000fd5b505050506040513d601f19601f8201168201806040525081019061238c91906137ab565b10156123ee5760405162461bcd60e51b815260206004820152602b60248201527f53746162696c697479506f6f6c3a20496e73756666696369656e742066756e6460448201526a7320617661696c61626c6560a81b6064820152608401610e53565b6000816009546123fe9190613750565b60098190556040518181529091507fceb6d671277d4354fd29977ada70695fbd93a16612abf765d6b0e25c28dc6db39060200160405180910390a160408051338152602081018490527f6109e2559dfa766aaec7118351d48a523f0a4157f49c8d68749c8ac41318ad12910160405180910390a1600a5460405163a9059cbb60e01b8152336004820152602481018490526001600160a01b039091169063a9059cbb906044016020604051808303816000875af11580156124c3573d6000803e3d6000fd5b505050506040513d601f19601f820116820180604052508101906124e791906137fd565b611e425760405162461bcd60e51b8152600401610e539061381f565b6005546001600160a01b0316331461256f5760405162461bcd60e51b815260206004820152602960248201527f53746162696c697479506f6f6c3a2043616c6c6572206973206e6f742054726f6044820152683b32a6b0b730b3b2b960b91b6064820152608401610e53565b565b6000806000601654670de0b6b3a76400008761258d91906137c4565b6125979190613763565b9050838511156125a9576125a961387d565b8385036125c5576000601755670de0b6b3a7640000915061261a565b6017546000906125dd670de0b6b3a7640000886137c4565b6125e79190613750565b90506125f385826137db565b6125fe906001613763565b92508061260b86856137c4565b6126159190613750565b601755505b61262484826137db565b925061263084846137c4565b61263a9082613750565b60165550935093915050565b6011546000670de0b6b3a76400008311156126635761266361387d565b600061267784670de0b6b3a7640000613750565b6012546001600160801b03600160801b8204811660008181526013602090815260408083209490951680835293905292832054939450909290916126bb878a6137c4565b905060006126c98284613763565b6001600160801b038581166000818152601360209081526040808320948b16808452948252918290208590558151858152908101929092528101919091529091507fe12e2cd2c9afa8069203ca07e7eff1edce4a075686d0736a8e7e0d593597b2079060600160405180910390a1856000036127fc576127536001600160801b038516600161346a565b601280546001600160801b03908116600160801b93821684021791829055604051929091041681527fb50f0f59e7cb5b421dc77581c3a9919e3806e076e5fa78a874c3f120cb7d874d9060200160405180910390a1601280546001600160801b0319169055604051600081527f1f9dfc70cd666adb18a39d60a797518f7b4febf4b6e24ef37d44f6e1e7219fbe9060200160405180910390a1670de0b6b3a764000096506128dd565b633b9aca00670de0b6b3a7640000612814888b6137c4565b61281e91906137db565b10156128bd57670de0b6b3a7640000633b9aca0061283c888b6137c4565b61284691906137c4565b61285091906137db565b96506128666001600160801b038616600161346a565b601280546001600160801b0319166001600160801b039290921691821790556040519081527f1f9dfc70cd666adb18a39d60a797518f7b4febf4b6e24ef37d44f6e1e7219fbe9060200160405180910390a16128dd565b670de0b6b3a76400006128d0878a6137c4565b6128da91906137db565b96505b600087116128ed576128ed61387d565b60118790556040518781527fc1a9618cb59ebca77cbdbc2949f126823c407ff13edb285fd0262519a9c18e8c9060200160405180910390a150505050505050505050565b60005460405163071b32b560e31b8152600481018390526001600160a01b039091169081906338d995a890602401600060405180830381600087803b15801561297957600080fd5b505af115801561298d573d6000803e3d6000fd5b5050505061299a8261341b565b600654604051632770a7eb60e21b8152306004820152602481018490526001600160a01b0390911690639dc29fac90604401600060405180830381600087803b1580156129e657600080fd5b505af11580156129fa573d6000803e3d6000fd5b50506040516364a197f360e01b8152306004820152602481018690526001600160a01b03841692506364a197f39150604401600060405180830381600087803b158015612a4657600080fd5b505af1158015612a5a573d6000803e3d6000fd5b50505050505050565b6080810151606082015182516020808501516001600160801b03808616600090815260138452604080822092871682529190935282205491949392918590612aac908490613750565b6001600160801b038616600090815260136020526040812091925090633b9aca009082612ada886001613893565b6001600160801b03166001600160801b0316815260200190815260200160002054612b0591906137db565b90506000670de0b6b3a764000084612b1d8486613763565b612b27908d6137c4565b612b3191906137db565b612b3b91906137db565b9a9950505050505050505050565b6001600160a01b0381166000908152600e602052604090206001015460ff16156112725760405162461bcd60e51b815260206004820152603960248201527f53746162696c697479506f6f6c3a206d757374206e6f7420616c72656164792060448201527f6265206120726567697374657265642066726f6e7420656e64000000000000006064820152608401610e53565b6001600160a01b0381166000908152600c60205260409020548015611e425760405162461bcd60e51b815260206004820152602860248201527f53746162696c697479506f6f6c3a2055736572206d7573742068617665206e6f6044820152670819195c1bdcda5d60c21b6064820152608401610e53565b670de0b6b3a76400008111156112725760405162461bcd60e51b815260206004820152603360248201527f53746162696c697479506f6f6c3a204b69636b6261636b2072617465206d75736044820152727420626520696e2072616e6765205b302c315d60681b6064820152608401610e53565b6001600160a01b0381166000908152600e602052604090206001015460ff1680612cf857506001600160a01b038116155b6112725760405162461bcd60e51b815260206004820152604660248201527f53746162696c697479506f6f6c3a20546167206d75737420626520612072656760448201527f697374657265642066726f6e7420656e642c206f7220746865207a65726f206160648201526564647265737360d01b608482015260a401610e53565b600081116112725760405162461bcd60e51b815260206004820152602660248201527f53746162696c697479506f6f6c3a20416d6f756e74206d757374206265206e6f6044820152656e2d7a65726f60d01b6064820152608401610e53565b6001600160a01b038281166000818152600c602052604080822060010180546001600160a01b0319169486169485179055517f094c08e96a8890877a8390b4f967180a7507ad8622244d05fcd0f9f8e086564e9190a35050565b600654604051632ee65eeb60e21b81526001600160a01b038481166004830152306024830152604482018490529091169063bb997bac90606401600060405180830381600087803b158015612e8657600080fd5b505af1158015612e9a573d6000803e3d6000fd5b50505050600081600b54612eae9190613763565b600b8190556040518181529091507fa8e886449d8f7e765877b4a4f54632da3943ae454d5a272bdccb1781f086ff299060200160405180910390a1505050565b600080612efb8385613763565b905083811015611e575760405162461bcd60e51b815260206004820152601b60248201527f536166654d6174683a206164646974696f6e206f766572666c6f7700000000006044820152606401610e53565b6000546001600160a01b0316331461256f5760405162461bcd60e51b815260206004820152602760248201527f53746162696c697479506f6f6c3a2043616c6c6572206973206e6f74204163746044820152661a5d99541bdbdb60ca1b6064820152608401610e53565b6001600160a01b03811661300d5760405162461bcd60e51b815260206004820152601e60248201527f4163636f756e742063616e6e6f74206265207a65726f206164647265737300006044820152606401610e53565b803b80611e425760405162461bcd60e51b815260206004820181905260248201527f4163636f756e7420636f64652073697a652063616e6e6f74206265207a65726f6044820152606401610e53565b6003546040516000916001600160a01b0316907f8be0079c531659141344cd1fd0a4f28419497f9722a3daafe3b4186f6b6457e0908390a3600380546001600160a01b0319169055565b608081015160608201516040808401516020808601516001600160801b038087166000908152601484528581209187168152925292812054909493929085906130f0908490613750565b6001600160801b038616600090815260146020526040812091925090633b9aca009082612ada886001613893565b6005546040516321e3780160e01b81526001600160a01b038381166004830152909116906321e3780190602401602060405180830381865afa158015613168573d6000803e3d6000fd5b505050506040513d601f19601f8201168201806040525081019061318c91906137ab565b6001146112725760405162461bcd60e51b815260206004820152604660248201527f53746162696c697479506f6f6c3a2063616c6c6572206d75737420686176652060448201527f616e206163746976652074726f766520746f207769746864726177204554484760648201526561696e20746f60d01b608482015260a401610e53565b600061321b82610b71565b905060008111611e425760405162461bcd60e51b815260206004820152603160248201527f53746162696c697479506f6f6c3a2063616c6c6572206d7573742068617665206044820152703737b716bd32b9379022aa241023b0b4b760791b6064820152608401610e53565b6000826001600160801b0316826001600160801b031611156132fc5760405162461bcd60e51b815260206004820152602860248201527f4c697175697479536166654d6174683132383a207375627472616374696f6e206044820152676f766572666c6f7760c01b6064820152608401610e53565b600061330883856138ba565b949350505050565b600b5480158061331e575081155b15613327575050565b600061333383836134e9565b905060006011548261334591906137c4565b6012546001600160801b03600160801b820481166000908152601460209081526040808320939094168252919091522054909150613384908290613763565b60128054600160801b8082046001600160801b0390811660009081526014602081815260408084209685168452958152858320979097559454928304821680825294865283812092909116808252918552829020548251908152938401929092528201527f2d6127771b164a9cc8827d24b5955db2a77e7a81dac389107ebb8bce9fb649689060600160405180910390a150505050565b600081600b5461342b9190613750565b600b8190556040518181529091507fa8e886449d8f7e765877b4a4f54632da3943ae454d5a272bdccb1781f086ff299060200160405180910390a15050565b6000806134778385613893565b9050836001600160801b0316816001600160801b03161015611e575760405162461bcd60e51b815260206004820152602560248201527f4c697175697479536166654d6174683132383a206164646974696f6e206f766560448201526472666c6f7760d81b6064820152608401610e53565b600080601554670de0b6b3a76400008561350391906137c4565b61350d9190613763565b9050600061351b84836137db565b905061352784826137c4565b6135319083613750565b601555949350505050565b6001600160a01b038116811461127257600080fd5b60006020828403121561356357600080fd5b8135611e578161353c565b80356001600160801b038116811461358557600080fd5b919050565b6000806040838503121561359d57600080fd5b6135a68361356e565b91506135b46020840161356e565b90509250929050565b6000602082840312156135cf57600080fd5b5035919050565b600080604083850312156135e957600080fd5b50508035926020909101359150565b6000806040838503121561360b57600080fd5b82359150602083013561361d8161353c565b809150509250929050565b600060208083528351808285015260005b8181101561365557858101830151858201604001528201613639565b506000604082860101526040601f19601f8301168501019250505092915050565b600080600080600080600060e0888a03121561369157600080fd5b873561369c8161353c565b965060208801356136ac8161353c565b955060408801356136bc8161353c565b945060608801356136cc8161353c565b935060808801356136dc8161353c565b925060a08801356136ec8161353c565b915060c08801356136fc8161353c565b8091505092959891949750929550565b6000806040838503121561371f57600080fd5b823561372a8161353c565b9150602083013561361d8161353c565b634e487b7160e01b600052601160045260246000fd5b81810381811115611b6a57611b6a61373a565b80820180821115611b6a57611b6a61373a565b6020808252818101527f4f776e61626c653a2063616c6c6572206973206e6f7420746865206f776e6572604082015260600190565b6000602082840312156137bd57600080fd5b5051919050565b8082028115828204841417611b6a57611b6a61373a565b6000826137f857634e487b7160e01b600052601260045260246000fd5b500490565b60006020828403121561380f57600080fd5b81518015158114611e5757600080fd5b60208082526021908201527f53746162696c697479506f6f6c3a2073656e64696e6720455448206661696c656040820152601960fa1b606082015260800190565b60006020828403121561387257600080fd5b8151611e578161353c565b634e487b7160e01b600052600160045260246000fd5b6001600160801b038181168382160190808211156138b3576138b361373a565b5092915050565b6001600160801b038281168282160390808211156138b3576138b361373a56fea264697066735822122061b6aa7edab86598d842c0eebdbda24ac14a0061a9348ab39f59b50c098ebb3b64736f6c63430008140033",
			"opcodes": "PUSH1 0x80 PUSH1 0x40 MSTORE PUSH8 0xDE0B6B3A7640000 PUSH1 0x11 SSTORE CALLVALUE DUP1 ISZERO PUSH2 0x1C JUMPI PUSH1 0x0 DUP1 REVERT JUMPDEST POP PUSH1 0x3 DUP1 SLOAD PUSH1 0x1 PUSH1 0x1 PUSH1 0xA0 SHL SUB NOT AND CALLER SWAP1 DUP2 OR SWAP1 SWAP2 SSTORE PUSH1 0x40 MLOAD PUSH1 0x0 SWAP1 PUSH32 0x8BE0079C531659141344CD1FD0A4F28419497F9722A3DAAFE3B4186F6B6457E0 SWAP1 DUP3 SWAP1 LOG3 PUSH2 0x3910 DUP1 PUSH2 0x6C PUSH1 0x0 CODECOPY PUSH1 0x0 RETURN INVALID PUSH1 0x80 PUSH1 0x40 MSTORE CALLVALUE DUP1 ISZERO PUSH2 0x10 JUMPI PUSH1 0x0 DUP1 REVERT JUMPDEST POP PUSH1 0x4 CALLDATASIZE LT PUSH2 0x378 JUMPI PUSH1 0x0 CALLDATALOAD PUSH1 0xE0 SHR DUP1 PUSH4 0x82E0A574 GT PUSH2 0x1D3 JUMPI DUP1 PUSH4 0xAE918754 GT PUSH2 0x104 JUMPI DUP1 PUSH4 0xDF9CD84F GT PUSH2 0xA2 JUMPI DUP1 PUSH4 0xF851A440 GT PUSH2 0x7C JUMPI DUP1 PUSH4 0xF851A440 EQ PUSH2 0x848 JUMPI DUP1 PUSH4 0xF92D3433 EQ PUSH2 0x85B JUMPI DUP1 PUSH4 0xFC7E286D EQ PUSH2 0x863 JUMPI DUP1 PUSH4 0xFDA0101A EQ PUSH2 0x8B0 JUMPI PUSH1 0x0 DUP1 REVERT JUMPDEST DUP1 PUSH4 0xDF9CD84F EQ PUSH2 0x80F JUMPI DUP1 PUSH4 0xEAA8BA7F EQ PUSH2 0x822 JUMPI DUP1 PUSH4 0xF5F1595D EQ PUSH2 0x835 JUMPI PUSH1 0x0 DUP1 REVERT JUMPDEST DUP1 PUSH4 0xCE4B5BBE GT PUSH2 0xDE JUMPI DUP1 PUSH4 0xCE4B5BBE EQ PUSH2 0x7DF JUMPI DUP1 PUSH4 0xCEF941E8 EQ PUSH2 0x7EA JUMPI DUP1 PUSH4 0xD4CA0575 EQ PUSH2 0x7F3 JUMPI DUP1 PUSH4 0xD7FB0443 EQ PUSH2 0x806 JUMPI PUSH1 0x0 DUP1 REVERT JUMPDEST DUP1 PUSH4 0xAE918754 EQ PUSH2 0x7A6 JUMPI DUP1 PUSH4 0xB83F91A2 EQ PUSH2 0x7B9 JUMPI DUP1 PUSH4 0xC4D66DE8 EQ PUSH2 0x7CC JUMPI PUSH1 0x0 DUP1 REVERT JUMPDEST DUP1 PUSH4 0x95FB16BB GT PUSH2 0x171 JUMPI DUP1 PUSH4 0xA3F4DF7E GT PUSH2 0x14B JUMPI DUP1 PUSH4 0xA3F4DF7E EQ PUSH2 0x708 JUMPI DUP1 PUSH4 0xA4E59AC8 EQ PUSH2 0x741 JUMPI DUP1 PUSH4 0xA7BFFF97 EQ PUSH2 0x754 JUMPI DUP1 PUSH4 0xAD5C4648 EQ PUSH2 0x793 JUMPI PUSH1 0x0 DUP1 REVERT JUMPDEST DUP1 PUSH4 0x95FB16BB EQ PUSH2 0x6ED JUMPI DUP1 PUSH4 0x9BF2F1AC EQ PUSH2 0x700 JUMPI DUP1 PUSH4 0xA20BAEE6 EQ PUSH2 0x598 JUMPI PUSH1 0x0 DUP1 REVERT JUMPDEST DUP1 PUSH4 0x8B8FBD92 GT PUSH2 0x1AD JUMPI DUP1 PUSH4 0x8B8FBD92 EQ PUSH2 0x6B8 JUMPI DUP1 PUSH4 0x8BAD0C0A EQ PUSH2 0x6C1 JUMPI DUP1 PUSH4 0x8DA5CB5B EQ PUSH2 0x6C9 JUMPI DUP1 PUSH4 0x8F32D59B EQ PUSH2 0x6DA JUMPI PUSH1 0x0 DUP1 REVERT JUMPDEST DUP1 PUSH4 0x82E0A574 EQ PUSH2 0x63C JUMPI DUP1 PUSH4 0x86DA0824 EQ PUSH2 0x667 JUMPI DUP1 PUSH4 0x887105D3 EQ PUSH2 0x6B0 JUMPI PUSH1 0x0 DUP1 REVERT JUMPDEST DUP1 PUSH4 0x556BE101 GT PUSH2 0x2AD JUMPI DUP1 PUSH4 0x741BEF1A GT PUSH2 0x24B JUMPI DUP1 PUSH4 0x794E5724 GT PUSH2 0x225 JUMPI DUP1 PUSH4 0x794E5724 EQ PUSH2 0x5FF JUMPI DUP1 PUSH4 0x795D26C3 EQ PUSH2 0x60E JUMPI DUP1 PUSH4 0x7F7DDE4A EQ PUSH2 0x616 JUMPI DUP1 PUSH4 0x81381660 EQ PUSH2 0x629 JUMPI PUSH1 0x0 DUP1 REVERT JUMPDEST DUP1 PUSH4 0x741BEF1A EQ PUSH2 0x5A7 JUMPI DUP1 PUSH4 0x76671808 EQ PUSH2 0x5BA JUMPI DUP1 PUSH4 0x77553AD4 EQ PUSH2 0x5EC JUMPI PUSH1 0x0 DUP1 REVERT JUMPDEST DUP1 PUSH4 0x5F788D65 GT PUSH2 0x287 JUMPI DUP1 PUSH4 0x5F788D65 EQ PUSH2 0x55F JUMPI DUP1 PUSH4 0x704B6C02 EQ PUSH2 0x572 JUMPI DUP1 PUSH4 0x724E78DA EQ PUSH2 0x585 JUMPI DUP1 PUSH4 0x72FE25AA EQ PUSH2 0x598 JUMPI PUSH1 0x0 DUP1 REVERT JUMPDEST DUP1 PUSH4 0x556BE101 EQ PUSH2 0x51D JUMPI DUP1 PUSH4 0x5733D58F EQ PUSH2 0x530 JUMPI DUP1 PUSH4 0x5D2DE642 EQ PUSH2 0x53F JUMPI PUSH1 0x0 DUP1 REVERT JUMPDEST DUP1 PUSH4 0x335525AD GT PUSH2 0x31A JUMPI DUP1 PUSH4 0x3CC74225 GT PUSH2 0x2F4 JUMPI DUP1 PUSH4 0x3CC74225 EQ PUSH2 0x4CE JUMPI DUP1 PUSH4 0x3D83908A EQ PUSH2 0x4F9 JUMPI DUP1 PUSH4 0x4870DD9A EQ PUSH2 0x50C JUMPI DUP1 PUSH4 0x538153CA EQ PUSH2 0x514 JUMPI PUSH1 0x0 DUP1 REVERT JUMPDEST DUP1 PUSH4 0x335525AD EQ PUSH2 0x484 JUMPI DUP1 PUSH4 0x389E92A5 EQ PUSH2 0x497 JUMPI DUP1 PUSH4 0x392E53CD EQ PUSH2 0x4AA JUMPI PUSH1 0x0 DUP1 REVERT JUMPDEST DUP1 PUSH4 0x1CDC4700 GT PUSH2 0x356 JUMPI DUP1 PUSH4 0x1CDC4700 EQ PUSH2 0x421 JUMPI DUP1 PUSH4 0x28A0A04D EQ PUSH2 0x434 JUMPI DUP1 PUSH4 0x2E54BF95 EQ PUSH2 0x45F JUMPI DUP1 PUSH4 0x2E86BBD8 EQ PUSH2 0x474 JUMPI PUSH1 0x0 DUP1 REVERT JUMPDEST DUP1 PUSH4 0x14F6C3BE EQ PUSH2 0x37D JUMPI DUP1 PUSH4 0x16B9D3C5 EQ PUSH2 0x394 JUMPI DUP1 PUSH4 0x1BF43555 EQ PUSH2 0x411 JUMPI JUMPDEST PUSH1 0x0 DUP1 REVERT JUMPDEST PUSH1 0x9 SLOAD JUMPDEST PUSH1 0x40 MLOAD SWAP1 DUP2 MSTORE PUSH1 0x20 ADD JUMPDEST PUSH1 0x40 MLOAD DUP1 SWAP2 SUB SWAP1 RETURN JUMPDEST PUSH2 0x3DD PUSH2 0x3A2 CALLDATASIZE PUSH1 0x4 PUSH2 0x3551 JUMP JUMPDEST PUSH1 0x10 PUSH1 0x20 MSTORE PUSH1 0x0 SWAP1 DUP2 MSTORE PUSH1 0x40 SWAP1 KECCAK256 DUP1 SLOAD PUSH1 0x1 DUP3 ADD SLOAD PUSH1 0x2 DUP4 ADD SLOAD PUSH1 0x3 SWAP1 SWAP4 ADD SLOAD SWAP2 SWAP3 SWAP1 SWAP2 PUSH1 0x1 PUSH1 0x1 PUSH1 0x80 SHL SUB DUP1 DUP3 AND SWAP2 PUSH1 0x1 PUSH1 0x80 SHL SWAP1 DIV AND DUP6 JUMP JUMPDEST PUSH1 0x40 DUP1 MLOAD SWAP6 DUP7 MSTORE PUSH1 0x20 DUP7 ADD SWAP5 SWAP1 SWAP5 MSTORE SWAP3 DUP5 ADD SWAP2 SWAP1 SWAP2 MSTORE PUSH1 0x1 PUSH1 0x1 PUSH1 0x80 SHL SUB SWAP1 DUP2 AND PUSH1 0x60 DUP5 ADD MSTORE AND PUSH1 0x80 DUP3 ADD MSTORE PUSH1 0xA0 ADD PUSH2 0x38B JUMP JUMPDEST PUSH2 0x381 PUSH9 0x9C2007651B2500000 DUP2 JUMP JUMPDEST PUSH2 0x381 PUSH2 0x42F CALLDATASIZE PUSH1 0x4 PUSH2 0x3551 JUMP JUMPDEST PUSH2 0x8C3 JUMP JUMPDEST PUSH2 0x381 PUSH2 0x442 CALLDATASIZE PUSH1 0x4 PUSH2 0x358A JUMP JUMPDEST PUSH1 0x13 PUSH1 0x20 SWAP1 DUP2 MSTORE PUSH1 0x0 SWAP3 DUP4 MSTORE PUSH1 0x40 DUP1 DUP5 KECCAK256 SWAP1 SWAP2 MSTORE SWAP1 DUP3 MSTORE SWAP1 KECCAK256 SLOAD DUP2 JUMP JUMPDEST PUSH2 0x472 PUSH2 0x46D CALLDATASIZE PUSH1 0x4 PUSH2 0x35BD JUMP JUMPDEST PUSH2 0x961 JUMP JUMPDEST STOP JUMPDEST PUSH2 0x381 PUSH9 0x1158E460913D00000 DUP2 JUMP JUMPDEST PUSH2 0x472 PUSH2 0x492 CALLDATASIZE PUSH1 0x4 PUSH2 0x35D6 JUMP JUMPDEST PUSH2 0xB0F JUMP JUMPDEST PUSH2 0x381 PUSH2 0x4A5 CALLDATASIZE PUSH1 0x4 PUSH2 0x3551 JUMP JUMPDEST PUSH2 0xB71 JUMP JUMPDEST PUSH1 0xA SLOAD PUSH2 0x4BE SWAP1 PUSH1 0x1 PUSH1 0xA0 SHL SWAP1 DIV PUSH1 0xFF AND DUP2 JUMP JUMPDEST PUSH1 0x40 MLOAD SWAP1 ISZERO ISZERO DUP2 MSTORE PUSH1 0x20 ADD PUSH2 0x38B JUMP JUMPDEST PUSH1 0x1 SLOAD PUSH2 0x4E1 SWAP1 PUSH1 0x1 PUSH1 0x1 PUSH1 0xA0 SHL SUB AND DUP2 JUMP JUMPDEST PUSH1 0x40 MLOAD PUSH1 0x1 PUSH1 0x1 PUSH1 0xA0 SHL SUB SWAP1 SWAP2 AND DUP2 MSTORE PUSH1 0x20 ADD PUSH2 0x38B JUMP JUMPDEST PUSH1 0x5 SLOAD PUSH2 0x4E1 SWAP1 PUSH1 0x1 PUSH1 0x1 PUSH1 0xA0 SHL SUB AND DUP2 JUMP JUMPDEST PUSH2 0x381 PUSH1 0xC8 DUP2 JUMP JUMPDEST PUSH2 0x381 PUSH1 0x17 SLOAD DUP2 JUMP JUMPDEST PUSH2 0x472 PUSH2 0x52B CALLDATASIZE PUSH1 0x4 PUSH2 0x35BD JUMP JUMPDEST PUSH2 0xC06 JUMP JUMPDEST PUSH2 0x381 PUSH8 0x14D1120D7B160000 DUP2 JUMP JUMPDEST PUSH2 0x381 PUSH2 0x54D CALLDATASIZE PUSH1 0x4 PUSH2 0x3551 JUMP JUMPDEST PUSH1 0xF PUSH1 0x20 MSTORE PUSH1 0x0 SWAP1 DUP2 MSTORE PUSH1 0x40 SWAP1 KECCAK256 SLOAD DUP2 JUMP JUMPDEST PUSH2 0x472 PUSH2 0x56D CALLDATASIZE PUSH1 0x4 PUSH2 0x35F8 JUMP JUMPDEST PUSH2 0xC80 JUMP JUMPDEST PUSH2 0x472 PUSH2 0x580 CALLDATASIZE PUSH1 0x4 PUSH2 0x3551 JUMP JUMPDEST PUSH2 0xE29 JUMP JUMPDEST PUSH2 0x472 PUSH2 0x593 CALLDATASIZE PUSH1 0x4 PUSH2 0x3551 JUMP JUMPDEST PUSH2 0xE7E JUMP JUMPDEST PUSH2 0x381 PUSH8 0xDE0B6B3A7640000 DUP2 JUMP JUMPDEST PUSH1 0x2 SLOAD PUSH2 0x4E1 SWAP1 PUSH1 0x1 PUSH1 0x1 PUSH1 0xA0 SHL SUB AND DUP2 JUMP JUMPDEST PUSH1 0x12 SLOAD PUSH2 0x5D4 SWAP1 PUSH1 0x1 PUSH1 0x80 SHL SWAP1 DIV PUSH1 0x1 PUSH1 0x1 PUSH1 0x80 SHL SUB AND DUP2 JUMP JUMPDEST PUSH1 0x40 MLOAD PUSH1 0x1 PUSH1 0x1 PUSH1 0x80 SHL SUB SWAP1 SWAP2 AND DUP2 MSTORE PUSH1 0x20 ADD PUSH2 0x38B JUMP JUMPDEST PUSH1 0x4 SLOAD PUSH2 0x4E1 SWAP1 PUSH1 0x1 PUSH1 0x1 PUSH1 0xA0 SHL SUB AND DUP2 JUMP JUMPDEST PUSH2 0x381 PUSH8 0xF43FC2C04EE0000 DUP2 JUMP JUMPDEST PUSH2 0x381 PUSH2 0xEB7 JUMP JUMPDEST PUSH1 0x0 SLOAD PUSH2 0x4E1 SWAP1 PUSH1 0x1 PUSH1 0x1 PUSH1 0xA0 SHL SUB AND DUP2 JUMP JUMPDEST PUSH2 0x472 PUSH2 0x637 CALLDATASIZE PUSH1 0x4 PUSH2 0x35BD JUMP JUMPDEST PUSH2 0xFB3 JUMP JUMPDEST PUSH2 0x381 PUSH2 0x64A CALLDATASIZE PUSH1 0x4 PUSH2 0x358A JUMP JUMPDEST PUSH1 0x14 PUSH1 0x20 SWAP1 DUP2 MSTORE PUSH1 0x0 SWAP3 DUP4 MSTORE PUSH1 0x40 DUP1 DUP5 KECCAK256 SWAP1 SWAP2 MSTORE SWAP1 DUP3 MSTORE SWAP1 KECCAK256 SLOAD DUP2 JUMP JUMPDEST PUSH2 0x3DD PUSH2 0x675 CALLDATASIZE PUSH1 0x4 PUSH2 0x3551 JUMP JUMPDEST PUSH1 0xD PUSH1 0x20 MSTORE PUSH1 0x0 SWAP1 DUP2 MSTORE PUSH1 0x40 SWAP1 KECCAK256 DUP1 SLOAD PUSH1 0x1 DUP3 ADD SLOAD PUSH1 0x2 DUP4 ADD SLOAD PUSH1 0x3 SWAP1 SWAP4 ADD SLOAD SWAP2 SWAP3 SWAP1 SWAP2 PUSH1 0x1 PUSH1 0x1 PUSH1 0x80 SHL SUB DUP1 DUP3 AND SWAP2 PUSH1 0x1 PUSH1 0x80 SHL SWAP1 DIV AND DUP6 JUMP JUMPDEST PUSH2 0x381 PUSH2 0x10D6 JUMP JUMPDEST PUSH2 0x381 PUSH1 0x11 SLOAD DUP2 JUMP JUMPDEST PUSH2 0x472 PUSH2 0x119B JUMP JUMPDEST PUSH1 0x3 SLOAD PUSH1 0x1 PUSH1 0x1 PUSH1 0xA0 SHL SUB AND PUSH2 0x4E1 JUMP JUMPDEST PUSH1 0x3 SLOAD PUSH1 0x1 PUSH1 0x1 PUSH1 0xA0 SHL SUB AND CALLER EQ PUSH2 0x4BE JUMP JUMPDEST PUSH1 0x8 SLOAD PUSH2 0x4E1 SWAP1 PUSH1 0x1 PUSH1 0x1 PUSH1 0xA0 SHL SUB AND DUP2 JUMP JUMPDEST PUSH1 0xB SLOAD PUSH2 0x381 JUMP JUMPDEST PUSH2 0x734 PUSH1 0x40 MLOAD DUP1 PUSH1 0x40 ADD PUSH1 0x40 MSTORE DUP1 PUSH1 0xD DUP2 MSTORE PUSH1 0x20 ADD PUSH13 0x14DD18589A5B1A5D1E541BDBDB PUSH1 0x9A SHL DUP2 MSTORE POP DUP2 JUMP JUMPDEST PUSH1 0x40 MLOAD PUSH2 0x38B SWAP2 SWAP1 PUSH2 0x3628 JUMP JUMPDEST PUSH1 0x12 SLOAD PUSH2 0x5D4 SWAP1 PUSH1 0x1 PUSH1 0x1 PUSH1 0x80 SHL SUB AND DUP2 JUMP JUMPDEST PUSH2 0x77E PUSH2 0x762 CALLDATASIZE PUSH1 0x4 PUSH2 0x3551 JUMP JUMPDEST PUSH1 0xE PUSH1 0x20 MSTORE PUSH1 0x0 SWAP1 DUP2 MSTORE PUSH1 0x40 SWAP1 KECCAK256 DUP1 SLOAD PUSH1 0x1 SWAP1 SWAP2 ADD SLOAD PUSH1 0xFF AND DUP3 JUMP JUMPDEST PUSH1 0x40 DUP1 MLOAD SWAP3 DUP4 MSTORE SWAP1 ISZERO ISZERO PUSH1 0x20 DUP4 ADD MSTORE ADD PUSH2 0x38B JUMP JUMPDEST PUSH1 0xA SLOAD PUSH2 0x4E1 SWAP1 PUSH1 0x1 PUSH1 0x1 PUSH1 0xA0 SHL SUB AND DUP2 JUMP JUMPDEST PUSH1 0x7 SLOAD PUSH2 0x4E1 SWAP1 PUSH1 0x1 PUSH1 0x1 PUSH1 0xA0 SHL SUB AND DUP2 JUMP JUMPDEST PUSH1 0x6 SLOAD PUSH2 0x4E1 SWAP1 PUSH1 0x1 PUSH1 0x1 PUSH1 0xA0 SHL SUB AND DUP2 JUMP JUMPDEST PUSH2 0x472 PUSH2 0x7DA CALLDATASIZE PUSH1 0x4 PUSH2 0x3551 JUMP JUMPDEST PUSH2 0x11C4 JUMP JUMPDEST PUSH2 0x381 PUSH4 0x3B9ACA00 DUP2 JUMP JUMPDEST PUSH2 0x381 PUSH1 0x15 SLOAD DUP2 JUMP JUMPDEST PUSH2 0x381 PUSH2 0x801 CALLDATASIZE PUSH1 0x4 PUSH2 0x3551 JUMP JUMPDEST PUSH2 0x1275 JUMP JUMPDEST PUSH2 0x381 PUSH1 0x16 SLOAD DUP2 JUMP JUMPDEST PUSH2 0x381 PUSH2 0x81D CALLDATASIZE PUSH1 0x4 PUSH2 0x3551 JUMP JUMPDEST PUSH2 0x1360 JUMP JUMPDEST PUSH2 0x472 PUSH2 0x830 CALLDATASIZE PUSH1 0x4 PUSH2 0x3676 JUMP JUMPDEST PUSH2 0x13F5 JUMP JUMPDEST PUSH2 0x381 PUSH2 0x843 CALLDATASIZE PUSH1 0x4 PUSH2 0x3551 JUMP JUMPDEST PUSH2 0x166F JUMP JUMPDEST PUSH1 0x18 SLOAD PUSH2 0x4E1 SWAP1 PUSH1 0x1 PUSH1 0x1 PUSH1 0xA0 SHL SUB AND DUP2 JUMP JUMPDEST PUSH2 0x381 PUSH2 0x175E JUMP JUMPDEST PUSH2 0x893 PUSH2 0x871 CALLDATASIZE PUSH1 0x4 PUSH2 0x3551 JUMP JUMPDEST PUSH1 0xC PUSH1 0x20 MSTORE PUSH1 0x0 SWAP1 DUP2 MSTORE PUSH1 0x40 SWAP1 KECCAK256 DUP1 SLOAD PUSH1 0x1 SWAP1 SWAP2 ADD SLOAD PUSH1 0x1 PUSH1 0x1 PUSH1 0xA0 SHL SUB AND DUP3 JUMP JUMPDEST PUSH1 0x40 DUP1 MLOAD SWAP3 DUP4 MSTORE PUSH1 0x1 PUSH1 0x1 PUSH1 0xA0 SHL SUB SWAP1 SWAP2 AND PUSH1 0x20 DUP4 ADD MSTORE ADD PUSH2 0x38B JUMP JUMPDEST PUSH2 0x472 PUSH2 0x8BE CALLDATASIZE PUSH1 0x4 PUSH2 0x370C JUMP JUMPDEST PUSH2 0x1780 JUMP JUMPDEST PUSH1 0x1 PUSH1 0x1 PUSH1 0xA0 SHL SUB DUP2 AND PUSH1 0x0 SWAP1 DUP2 MSTORE PUSH1 0xC PUSH1 0x20 MSTORE PUSH1 0x40 DUP2 KECCAK256 SLOAD DUP1 DUP3 SUB PUSH2 0x8EC JUMPI POP PUSH1 0x0 SWAP3 SWAP2 POP POP JUMP JUMPDEST PUSH1 0x1 PUSH1 0x1 PUSH1 0xA0 SHL SUB DUP4 AND PUSH1 0x0 SWAP1 DUP2 MSTORE PUSH1 0xD PUSH1 0x20 SWAP1 DUP2 MSTORE PUSH1 0x40 DUP1 DUP4 KECCAK256 DUP2 MLOAD PUSH1 0xA0 DUP2 ADD DUP4 MSTORE DUP2 SLOAD DUP2 MSTORE PUSH1 0x1 DUP3 ADD SLOAD SWAP4 DUP2 ADD SWAP4 SWAP1 SWAP4 MSTORE PUSH1 0x2 DUP2 ADD SLOAD SWAP2 DUP4 ADD SWAP2 SWAP1 SWAP2 MSTORE PUSH1 0x3 ADD SLOAD PUSH1 0x1 PUSH1 0x1 PUSH1 0x80 SHL SUB DUP1 DUP3 AND PUSH1 0x60 DUP5 ADD MSTORE PUSH1 0x1 PUSH1 0x80 SHL SWAP1 SWAP2 DIV AND PUSH1 0x80 DUP3 ADD MSTORE SWAP1 PUSH2 0x958 DUP4 DUP4 PUSH2 0x1A7F JUMP JUMPDEST SWAP6 SWAP5 POP POP POP POP POP JUMP JUMPDEST DUP1 ISZERO PUSH2 0x96F JUMPI PUSH2 0x96F PUSH2 0x1B70 JUMP JUMPDEST CALLER PUSH1 0x0 SWAP1 DUP2 MSTORE PUSH1 0xC PUSH1 0x20 MSTORE PUSH1 0x40 SWAP1 KECCAK256 SLOAD PUSH2 0x988 DUP2 PUSH2 0x1D68 JUMP JUMPDEST PUSH1 0x8 SLOAD PUSH1 0x1 PUSH1 0x1 PUSH1 0xA0 SHL SUB AND PUSH2 0x99D DUP2 PUSH2 0x1DD1 JUMP JUMPDEST PUSH1 0x0 PUSH2 0x9A8 CALLER PUSH2 0xB71 JUMP JUMPDEST SWAP1 POP PUSH1 0x0 PUSH2 0x9B5 CALLER PUSH2 0x8C3 JUMP JUMPDEST SWAP1 POP PUSH1 0x0 PUSH2 0x9C3 DUP7 DUP4 PUSH2 0x1E46 JUMP JUMPDEST SWAP1 POP PUSH1 0x0 PUSH2 0x9D1 DUP4 DUP8 PUSH2 0x3750 JUMP JUMPDEST CALLER PUSH1 0x0 DUP2 DUP2 MSTORE PUSH1 0xC PUSH1 0x20 MSTORE PUSH1 0x40 SWAP1 KECCAK256 PUSH1 0x1 ADD SLOAD SWAP2 SWAP3 POP PUSH1 0x1 PUSH1 0x1 PUSH1 0xA0 SHL SUB SWAP1 SWAP2 AND SWAP1 PUSH2 0x9FF SWAP1 DUP8 SWAP1 DUP4 PUSH2 0x1E5E JUMP JUMPDEST PUSH1 0x0 PUSH2 0xA0A DUP3 PUSH2 0x1360 JUMP JUMPDEST SWAP1 POP PUSH1 0x0 PUSH2 0xA18 DUP6 DUP4 PUSH2 0x3750 JUMP JUMPDEST SWAP1 POP PUSH2 0xA24 DUP4 DUP3 PUSH2 0x1FDD JUMP JUMPDEST PUSH1 0x40 DUP1 MLOAD DUP3 DUP2 MSTORE CALLER PUSH1 0x20 DUP3 ADD MSTORE PUSH1 0x1 PUSH1 0x1 PUSH1 0xA0 SHL SUB DUP6 AND SWAP2 PUSH32 0x99920012339B5A3368D3A04B8606CE412C46ED92B7DCD8602D41FC8862CB8F25 SWAP2 ADD PUSH1 0x40 MLOAD DUP1 SWAP2 SUB SWAP1 LOG2 PUSH2 0xA71 CALLER DUP7 PUSH2 0x211F JUMP JUMPDEST PUSH1 0x0 PUSH2 0xA7D DUP7 DUP9 PUSH2 0x3750 JUMP JUMPDEST SWAP1 POP PUSH2 0xA89 CALLER DUP3 PUSH2 0x21A0 JUMP JUMPDEST PUSH1 0x40 MLOAD DUP2 DUP2 MSTORE CALLER SWAP1 PUSH32 0xBCE78369DCCAB09EEC1986F4D409AB09FFBB47D65423E5148FCF98411C5111C9 SWAP1 PUSH1 0x20 ADD PUSH1 0x40 MLOAD DUP1 SWAP2 SUB SWAP1 LOG2 PUSH1 0x40 DUP1 MLOAD DUP10 DUP2 MSTORE PUSH1 0x20 DUP2 ADD DUP8 SWAP1 MSTORE CALLER SWAP2 PUSH32 0x51457222EBCA92C335C9C86E2BAA1CC0E40FFAA9084A51452980D5BA8DEC2F63 SWAP2 ADD PUSH1 0x40 MLOAD DUP1 SWAP2 SUB SWAP1 LOG2 PUSH2 0xB02 DUP9 PUSH2 0x2315 JUMP JUMPDEST POP POP POP POP POP POP POP POP POP POP POP JUMP JUMPDEST PUSH2 0xB17 PUSH2 0x2503 JUMP JUMPDEST PUSH1 0xB SLOAD DUP1 ISZERO DUP1 PUSH2 0xB25 JUMPI POP DUP3 ISZERO JUMPDEST ISZERO PUSH2 0xB2F JUMPI POP POP POP JUMP JUMPDEST PUSH1 0x8 SLOAD PUSH2 0xB44 SWAP1 PUSH1 0x1 PUSH1 0x1 PUSH1 0xA0 SHL SUB AND PUSH2 0x1DD1 JUMP JUMPDEST PUSH1 0x0 DUP1 PUSH2 0xB52 DUP5 DUP7 DUP6 PUSH2 0x2571 JUMP JUMPDEST SWAP2 POP SWAP2 POP PUSH2 0xB60 DUP3 DUP3 PUSH2 0x2646 JUMP JUMPDEST PUSH2 0xB6A DUP5 DUP7 PUSH2 0x2931 JUMP JUMPDEST POP POP POP POP POP JUMP JUMPDEST PUSH1 0x1 PUSH1 0x1 PUSH1 0xA0 SHL SUB DUP2 AND PUSH1 0x0 SWAP1 DUP2 MSTORE PUSH1 0xC PUSH1 0x20 MSTORE PUSH1 0x40 DUP2 KECCAK256 SLOAD DUP1 DUP3 SUB PUSH2 0xB9A JUMPI POP PUSH1 0x0 SWAP3 SWAP2 POP POP JUMP JUMPDEST PUSH1 0x1 PUSH1 0x1 PUSH1 0xA0 SHL SUB DUP4 AND PUSH1 0x0 SWAP1 DUP2 MSTORE PUSH1 0xD PUSH1 0x20 SWAP1 DUP2 MSTORE PUSH1 0x40 DUP1 DUP4 KECCAK256 DUP2 MLOAD PUSH1 0xA0 DUP2 ADD DUP4 MSTORE DUP2 SLOAD DUP2 MSTORE PUSH1 0x1 DUP3 ADD SLOAD SWAP4 DUP2 ADD SWAP4 SWAP1 SWAP4 MSTORE PUSH1 0x2 DUP2 ADD SLOAD SWAP2 DUP4 ADD SWAP2 SWAP1 SWAP2 MSTORE PUSH1 0x3 ADD SLOAD PUSH1 0x1 PUSH1 0x1 PUSH1 0x80 SHL SUB DUP1 DUP3 AND PUSH1 0x60 DUP5 ADD MSTORE PUSH1 0x1 PUSH1 0x80 SHL SWAP1 SWAP2 DIV AND PUSH1 0x80 DUP3 ADD MSTORE SWAP1 PUSH2 0x958 DUP4 DUP4 PUSH2 0x2A63 JUMP JUMPDEST PUSH2 0xC0F CALLER PUSH2 0x2B49 JUMP JUMPDEST PUSH2 0xC18 CALLER PUSH2 0x2BDB JUMP JUMPDEST PUSH2 0xC21 DUP2 PUSH2 0x2C53 JUMP JUMPDEST CALLER PUSH1 0x0 DUP2 DUP2 MSTORE PUSH1 0xE PUSH1 0x20 MSTORE PUSH1 0x40 SWAP1 DUP2 SWAP1 KECCAK256 DUP4 DUP2 SSTORE PUSH1 0x1 SWAP1 DUP2 ADD DUP1 SLOAD PUSH1 0xFF NOT AND SWAP1 SWAP2 OR SWAP1 SSTORE MLOAD PUSH32 0x19BC932FB9E16A8B5A1E41BE9F4C2DE59D5DDD7567B8B81405F532CA00A9880E SWAP1 PUSH2 0xC75 SWAP1 DUP5 DUP2 MSTORE PUSH1 0x20 ADD SWAP1 JUMP JUMPDEST PUSH1 0x40 MLOAD DUP1 SWAP2 SUB SWAP1 LOG2 POP JUMP JUMPDEST PUSH2 0xC89 DUP2 PUSH2 0x2CC7 JUMP JUMPDEST PUSH2 0xC92 CALLER PUSH2 0x2B49 JUMP JUMPDEST PUSH2 0xC9B DUP3 PUSH2 0x2D79 JUMP JUMPDEST CALLER PUSH1 0x0 SWAP1 DUP2 MSTORE PUSH1 0xC PUSH1 0x20 MSTORE PUSH1 0x40 SWAP1 KECCAK256 SLOAD PUSH1 0x8 SLOAD PUSH1 0x1 PUSH1 0x1 PUSH1 0xA0 SHL SUB AND PUSH2 0xCC0 DUP2 PUSH2 0x1DD1 JUMP JUMPDEST DUP2 PUSH1 0x0 SUB PUSH2 0xCD2 JUMPI PUSH2 0xCD2 CALLER DUP5 PUSH2 0x2DD8 JUMP JUMPDEST PUSH1 0x0 PUSH2 0xCDD CALLER PUSH2 0xB71 JUMP JUMPDEST SWAP1 POP PUSH1 0x0 PUSH2 0xCEA CALLER PUSH2 0x8C3 JUMP JUMPDEST SWAP1 POP PUSH1 0x0 PUSH2 0xCF8 DUP3 DUP7 PUSH2 0x3750 JUMP JUMPDEST CALLER PUSH1 0x0 DUP2 DUP2 MSTORE PUSH1 0xC PUSH1 0x20 MSTORE PUSH1 0x40 SWAP1 KECCAK256 PUSH1 0x1 ADD SLOAD SWAP2 SWAP3 POP PUSH1 0x1 PUSH1 0x1 PUSH1 0xA0 SHL SUB SWAP1 SWAP2 AND SWAP1 PUSH2 0xD26 SWAP1 DUP7 SWAP1 DUP4 PUSH2 0x1E5E JUMP JUMPDEST PUSH1 0x0 PUSH2 0xD31 DUP3 PUSH2 0x1360 JUMP JUMPDEST SWAP1 POP PUSH1 0x0 PUSH2 0xD3F DUP11 DUP4 PUSH2 0x3763 JUMP JUMPDEST SWAP1 POP PUSH2 0xD4B DUP4 DUP3 PUSH2 0x1FDD JUMP JUMPDEST PUSH1 0x40 DUP1 MLOAD DUP3 DUP2 MSTORE CALLER PUSH1 0x20 DUP3 ADD MSTORE PUSH1 0x1 PUSH1 0x1 PUSH1 0xA0 SHL SUB DUP6 AND SWAP2 PUSH32 0x99920012339B5A3368D3A04B8606CE412C46ED92B7DCD8602D41FC8862CB8F25 SWAP2 ADD PUSH1 0x40 MLOAD DUP1 SWAP2 SUB SWAP1 LOG2 PUSH2 0xD98 CALLER DUP12 PUSH2 0x2E32 JUMP JUMPDEST PUSH1 0x0 PUSH2 0xDA4 DUP12 DUP8 PUSH2 0x3763 JUMP JUMPDEST SWAP1 POP PUSH2 0xDB0 CALLER DUP3 PUSH2 0x21A0 JUMP JUMPDEST PUSH1 0x40 MLOAD DUP2 DUP2 MSTORE CALLER SWAP1 PUSH32 0xBCE78369DCCAB09EEC1986F4D409AB09FFBB47D65423E5148FCF98411C5111C9 SWAP1 PUSH1 0x20 ADD PUSH1 0x40 MLOAD DUP1 SWAP2 SUB SWAP1 LOG2 PUSH1 0x40 DUP1 MLOAD DUP9 DUP2 MSTORE PUSH1 0x20 DUP2 ADD DUP8 SWAP1 MSTORE CALLER SWAP2 PUSH32 0x51457222EBCA92C335C9C86E2BAA1CC0E40FFAA9084A51452980D5BA8DEC2F63 SWAP2 ADD PUSH1 0x40 MLOAD DUP1 SWAP2 SUB SWAP1 LOG2 PUSH2 0xB02 DUP8 PUSH2 0x2315 JUMP JUMPDEST PUSH1 0x3 SLOAD PUSH1 0x1 PUSH1 0x1 PUSH1 0xA0 SHL SUB AND CALLER EQ PUSH2 0xE5C JUMPI PUSH1 0x40 MLOAD PUSH3 0x461BCD PUSH1 0xE5 SHL DUP2 MSTORE PUSH1 0x4 ADD PUSH2 0xE53 SWAP1 PUSH2 0x3776 JUMP JUMPDEST PUSH1 0x40 MLOAD DUP1 SWAP2 SUB SWAP1 REVERT JUMPDEST PUSH1 0x18 DUP1 SLOAD PUSH1 0x1 PUSH1 0x1 PUSH1 0xA0 SHL SUB NOT AND PUSH1 0x1 PUSH1 0x1 PUSH1 0xA0 SHL SUB SWAP3 SWAP1 SWAP3 AND SWAP2 SWAP1 SWAP2 OR SWAP1 SSTORE JUMP JUMPDEST PUSH1 0x18 SLOAD PUSH1 0x1 PUSH1 0x1 PUSH1 0xA0 SHL SUB AND CALLER EQ PUSH2 0xE95 JUMPI PUSH1 0x0 DUP1 REVERT JUMPDEST PUSH1 0x2 DUP1 SLOAD PUSH1 0x1 PUSH1 0x1 PUSH1 0xA0 SHL SUB NOT AND PUSH1 0x1 PUSH1 0x1 PUSH1 0xA0 SHL SUB SWAP3 SWAP1 SWAP3 AND SWAP2 SWAP1 SWAP2 OR SWAP1 SSTORE JUMP JUMPDEST PUSH1 0x0 DUP1 SLOAD PUSH1 0x40 DUP1 MLOAD PUSH4 0x2F5A97E5 PUSH1 0xE1 SHL DUP2 MSTORE SWAP1 MLOAD DUP4 SWAP3 PUSH1 0x1 PUSH1 0x1 PUSH1 0xA0 SHL SUB AND SWAP2 PUSH4 0x5EB52FCA SWAP2 PUSH1 0x4 DUP1 DUP4 ADD SWAP3 PUSH1 0x20 SWAP3 SWAP2 SWAP1 DUP3 SWAP1 SUB ADD DUP2 DUP7 GAS STATICCALL ISZERO DUP1 ISZERO PUSH2 0xF01 JUMPI RETURNDATASIZE PUSH1 0x0 DUP1 RETURNDATACOPY RETURNDATASIZE PUSH1 0x0 REVERT JUMPDEST POP POP POP POP PUSH1 0x40 MLOAD RETURNDATASIZE PUSH1 0x1F NOT PUSH1 0x1F DUP3 ADD AND DUP3 ADD DUP1 PUSH1 0x40 MSTORE POP DUP2 ADD SWAP1 PUSH2 0xF25 SWAP2 SWAP1 PUSH2 0x37AB JUMP JUMPDEST SWAP1 POP PUSH1 0x0 PUSH1 0x1 PUSH1 0x0 SWAP1 SLOAD SWAP1 PUSH2 0x100 EXP SWAP1 DIV PUSH1 0x1 PUSH1 0x1 PUSH1 0xA0 SHL SUB AND PUSH1 0x1 PUSH1 0x1 PUSH1 0xA0 SHL SUB AND PUSH4 0x5EB52FCA PUSH1 0x40 MLOAD DUP2 PUSH4 0xFFFFFFFF AND PUSH1 0xE0 SHL DUP2 MSTORE PUSH1 0x4 ADD PUSH1 0x20 PUSH1 0x40 MLOAD DUP1 DUP4 SUB DUP2 DUP7 GAS STATICCALL ISZERO DUP1 ISZERO PUSH2 0xF7C JUMPI RETURNDATASIZE PUSH1 0x0 DUP1 RETURNDATACOPY RETURNDATASIZE PUSH1 0x0 REVERT JUMPDEST POP POP POP POP PUSH1 0x40 MLOAD RETURNDATASIZE PUSH1 0x1F NOT PUSH1 0x1F DUP3 ADD AND DUP3 ADD DUP1 PUSH1 0x40 MSTORE POP DUP2 ADD SWAP1 PUSH2 0xFA0 SWAP2 SWAP1 PUSH2 0x37AB JUMP JUMPDEST SWAP1 POP PUSH2 0xFAC DUP3 DUP3 PUSH2 0x2EEE JUMP JUMPDEST SWAP3 POP POP POP SWAP1 JUMP JUMPDEST PUSH2 0xFBB PUSH2 0x2F4D JUMP JUMPDEST DUP1 PUSH1 0x9 SLOAD PUSH2 0xFC9 SWAP2 SWAP1 PUSH2 0x3763 JUMP JUMPDEST PUSH1 0xA SLOAD PUSH1 0x40 MLOAD PUSH4 0x70A08231 PUSH1 0xE0 SHL DUP2 MSTORE ADDRESS PUSH1 0x4 DUP3 ADD MSTORE PUSH1 0x1 PUSH1 0x1 PUSH1 0xA0 SHL SUB SWAP1 SWAP2 AND SWAP1 PUSH4 0x70A08231 SWAP1 PUSH1 0x24 ADD PUSH1 0x20 PUSH1 0x40 MLOAD DUP1 DUP4 SUB DUP2 DUP7 GAS STATICCALL ISZERO DUP1 ISZERO PUSH2 0x1011 JUMPI RETURNDATASIZE PUSH1 0x0 DUP1 RETURNDATACOPY RETURNDATASIZE PUSH1 0x0 REVERT JUMPDEST POP POP POP POP PUSH1 0x40 MLOAD RETURNDATASIZE PUSH1 0x1F NOT PUSH1 0x1F DUP3 ADD AND DUP3 ADD DUP1 PUSH1 0x40 MSTORE POP DUP2 ADD SWAP1 PUSH2 0x1035 SWAP2 SWAP1 PUSH2 0x37AB JUMP JUMPDEST LT ISZERO PUSH2 0x108D JUMPI PUSH1 0x40 MLOAD PUSH3 0x461BCD PUSH1 0xE5 SHL DUP2 MSTORE PUSH1 0x20 PUSH1 0x4 DUP3 ADD MSTORE PUSH1 0x21 PUSH1 0x24 DUP3 ADD MSTORE PUSH32 0x53746162696C697479506F6F6C3A2046756E6473206E6F742072656365697665 PUSH1 0x44 DUP3 ADD MSTORE PUSH1 0x19 PUSH1 0xFA SHL PUSH1 0x64 DUP3 ADD MSTORE PUSH1 0x84 ADD PUSH2 0xE53 JUMP JUMPDEST DUP1 PUSH1 0x9 SLOAD PUSH2 0x109B SWAP2 SWAP1 PUSH2 0x3763 JUMP JUMPDEST PUSH1 0x9 DUP2 SWAP1 SSTORE PUSH1 0x40 MLOAD SWAP1 DUP2 MSTORE PUSH32 0xCEB6D671277D4354FD29977ADA70695FBD93A16612ABF765D6B0E25C28DC6DB3 SWAP1 PUSH1 0x20 ADD PUSH1 0x40 MLOAD DUP1 SWAP2 SUB SWAP1 LOG1 POP JUMP JUMPDEST PUSH1 0x0 DUP1 SLOAD PUSH1 0x40 DUP1 MLOAD PUSH4 0xA7B61DF PUSH1 0xE1 SHL DUP2 MSTORE SWAP1 MLOAD DUP4 SWAP3 PUSH1 0x1 PUSH1 0x1 PUSH1 0xA0 SHL SUB AND SWAP2 PUSH4 0x14F6C3BE SWAP2 PUSH1 0x4 DUP1 DUP4 ADD SWAP3 PUSH1 0x20 SWAP3 SWAP2 SWAP1 DUP3 SWAP1 SUB ADD DUP2 DUP7 GAS STATICCALL ISZERO DUP1 ISZERO PUSH2 0x1120 JUMPI RETURNDATASIZE PUSH1 0x0 DUP1 RETURNDATACOPY RETURNDATASIZE PUSH1 0x0 REVERT JUMPDEST POP POP POP POP PUSH1 0x40 MLOAD RETURNDATASIZE PUSH1 0x1F NOT PUSH1 0x1F DUP3 ADD AND DUP3 ADD DUP1 PUSH1 0x40 MSTORE POP DUP2 ADD SWAP1 PUSH2 0x1144 SWAP2 SWAP1 PUSH2 0x37AB JUMP JUMPDEST SWAP1 POP PUSH1 0x0 PUSH1 0x1 PUSH1 0x0 SWAP1 SLOAD SWAP1 PUSH2 0x100 EXP SWAP1 DIV PUSH1 0x1 PUSH1 0x1 PUSH1 0xA0 SHL SUB AND PUSH1 0x1 PUSH1 0x1 PUSH1 0xA0 SHL SUB AND PUSH4 0x14F6C3BE PUSH1 0x40 MLOAD DUP2 PUSH4 0xFFFFFFFF AND PUSH1 0xE0 SHL DUP2 MSTORE PUSH1 0x4 ADD PUSH1 0x20 PUSH1 0x40 MLOAD DUP1 DUP4 SUB DUP2 DUP7 GAS STATICCALL ISZERO DUP1 ISZERO PUSH2 0xF7C JUMPI RETURNDATASIZE PUSH1 0x0 DUP1 RETURNDATACOPY RETURNDATASIZE PUSH1 0x0 REVERT JUMPDEST PUSH1 0x18 SLOAD PUSH1 0x1 PUSH1 0x1 PUSH1 0xA0 SHL SUB AND CALLER EQ PUSH2 0x11B2 JUMPI PUSH1 0x0 DUP1 REVERT JUMPDEST PUSH1 0x18 DUP1 SLOAD PUSH1 0x1 PUSH1 0x1 PUSH1 0xA0 SHL SUB NOT AND SWAP1 SSTORE JUMP JUMPDEST PUSH1 0x3 SLOAD PUSH1 0x1 PUSH1 0x1 PUSH1 0xA0 SHL SUB AND CALLER EQ PUSH2 0x11EE JUMPI PUSH1 0x40 MLOAD PUSH3 0x461BCD PUSH1 0xE5 SHL DUP2 MSTORE PUSH1 0x4 ADD PUSH2 0xE53 SWAP1 PUSH2 0x3776 JUMP JUMPDEST PUSH1 0xA SLOAD PUSH1 0x1 PUSH1 0xA0 SHL SWAP1 DIV PUSH1 0xFF AND ISZERO PUSH2 0x123E JUMPI PUSH1 0x40 MLOAD PUSH3 0x461BCD PUSH1 0xE5 SHL DUP2 MSTORE PUSH1 0x20 PUSH1 0x4 DUP3 ADD MSTORE PUSH1 0x13 PUSH1 0x24 DUP3 ADD MSTORE PUSH19 0x105B1C9958591E48125B9A5D1A585B1A5E9959 PUSH1 0x6A SHL PUSH1 0x44 DUP3 ADD MSTORE PUSH1 0x64 ADD PUSH2 0xE53 JUMP JUMPDEST PUSH2 0x1247 DUP2 PUSH2 0x2FB7 JUMP JUMPDEST PUSH1 0xA DUP1 SLOAD PUSH1 0x1 PUSH1 0x1 PUSH1 0xA0 SHL SUB DUP4 AND PUSH1 0x1 PUSH1 0x1 PUSH1 0xA8 SHL SUB NOT SWAP1 SWAP2 AND OR PUSH1 0x1 PUSH1 0xA0 SHL OR SWAP1 SSTORE PUSH2 0x1272 PUSH2 0x305C JUMP JUMPDEST POP JUMP JUMPDEST PUSH1 0x1 PUSH1 0x1 PUSH1 0xA0 SHL SUB DUP2 AND PUSH1 0x0 SWAP1 DUP2 MSTORE PUSH1 0xF PUSH1 0x20 MSTORE PUSH1 0x40 DUP2 KECCAK256 SLOAD DUP1 DUP3 SUB PUSH2 0x129E JUMPI POP PUSH1 0x0 SWAP3 SWAP2 POP POP JUMP JUMPDEST PUSH1 0x1 PUSH1 0x1 PUSH1 0xA0 SHL SUB DUP4 AND PUSH1 0x0 SWAP1 DUP2 MSTORE PUSH1 0xE PUSH1 0x20 MSTORE PUSH1 0x40 DUP2 KECCAK256 SLOAD SWAP1 PUSH2 0x12CA DUP3 PUSH8 0xDE0B6B3A7640000 PUSH2 0x3750 JUMP JUMPDEST PUSH1 0x1 PUSH1 0x1 PUSH1 0xA0 SHL SUB DUP7 AND PUSH1 0x0 SWAP1 DUP2 MSTORE PUSH1 0x10 PUSH1 0x20 SWAP1 DUP2 MSTORE PUSH1 0x40 DUP1 DUP4 KECCAK256 DUP2 MLOAD PUSH1 0xA0 DUP2 ADD DUP4 MSTORE DUP2 SLOAD DUP2 MSTORE PUSH1 0x1 DUP3 ADD SLOAD SWAP4 DUP2 ADD SWAP4 SWAP1 SWAP4 MSTORE PUSH1 0x2 DUP2 ADD SLOAD SWAP2 DUP4 ADD SWAP2 SWAP1 SWAP2 MSTORE PUSH1 0x3 ADD SLOAD PUSH1 0x1 PUSH1 0x1 PUSH1 0x80 SHL SUB DUP1 DUP3 AND PUSH1 0x60 DUP5 ADD MSTORE PUSH1 0x1 PUSH1 0x80 SHL SWAP1 SWAP2 DIV AND PUSH1 0x80 DUP3 ADD MSTORE SWAP2 SWAP3 POP PUSH8 0xDE0B6B3A7640000 PUSH2 0x1341 DUP7 DUP5 PUSH2 0x30A6 JUMP JUMPDEST PUSH2 0x134B SWAP1 DUP6 PUSH2 0x37C4 JUMP JUMPDEST PUSH2 0x1355 SWAP2 SWAP1 PUSH2 0x37DB JUMP JUMPDEST SWAP8 SWAP7 POP POP POP POP POP POP POP JUMP JUMPDEST PUSH1 0x1 PUSH1 0x1 PUSH1 0xA0 SHL SUB DUP2 AND PUSH1 0x0 SWAP1 DUP2 MSTORE PUSH1 0xF PUSH1 0x20 MSTORE PUSH1 0x40 DUP2 KECCAK256 SLOAD DUP1 DUP3 SUB PUSH2 0x1389 JUMPI POP PUSH1 0x0 SWAP3 SWAP2 POP POP JUMP JUMPDEST PUSH1 0x1 PUSH1 0x1 PUSH1 0xA0 SHL SUB DUP4 AND PUSH1 0x0 SWAP1 DUP2 MSTORE PUSH1 0x10 PUSH1 0x20 SWAP1 DUP2 MSTORE PUSH1 0x40 DUP1 DUP4 KECCAK256 DUP2 MLOAD PUSH1 0xA0 DUP2 ADD DUP4 MSTORE DUP2 SLOAD DUP2 MSTORE PUSH1 0x1 DUP3 ADD SLOAD SWAP4 DUP2 ADD SWAP4 SWAP1 SWAP4 MSTORE PUSH1 0x2 DUP2 ADD SLOAD SWAP2 DUP4 ADD SWAP2 SWAP1 SWAP2 MSTORE PUSH1 0x3 ADD SLOAD PUSH1 0x1 PUSH1 0x1 PUSH1 0x80 SHL SUB DUP1 DUP3 AND PUSH1 0x60 DUP5 ADD MSTORE PUSH1 0x1 PUSH1 0x80 SHL SWAP1 SWAP2 DIV AND PUSH1 0x80 DUP3 ADD MSTORE SWAP1 PUSH2 0x958 DUP4 DUP4 PUSH2 0x1A7F JUMP JUMPDEST PUSH1 0x3 SLOAD PUSH1 0x1 PUSH1 0x1 PUSH1 0xA0 SHL SUB AND CALLER EQ PUSH2 0x141F JUMPI PUSH1 0x40 MLOAD PUSH3 0x461BCD PUSH1 0xE5 SHL DUP2 MSTORE PUSH1 0x4 ADD PUSH2 0xE53 SWAP1 PUSH2 0x3776 JUMP JUMPDEST PUSH2 0x1428 DUP8 PUSH2 0x2FB7 JUMP JUMPDEST PUSH2 0x1431 DUP7 PUSH2 0x2FB7 JUMP JUMPDEST PUSH2 0x143A DUP6 PUSH2 0x2FB7 JUMP JUMPDEST PUSH2 0x1443 DUP5 PUSH2 0x2FB7 JUMP JUMPDEST PUSH2 0x144C DUP4 PUSH2 0x2FB7 JUMP JUMPDEST PUSH2 0x1455 DUP3 PUSH2 0x2FB7 JUMP JUMPDEST PUSH2 0x145E DUP2 PUSH2 0x2FB7 JUMP JUMPDEST PUSH1 0x4 DUP1 SLOAD PUSH1 0x1 PUSH1 0x1 PUSH1 0xA0 SHL SUB NOT SWAP1 DUP2 AND PUSH1 0x1 PUSH1 0x1 PUSH1 0xA0 SHL SUB DUP11 DUP2 AND SWAP2 DUP3 OR SWAP1 SWAP4 SSTORE PUSH1 0x5 DUP1 SLOAD DUP4 AND DUP11 DUP6 AND OR SWAP1 SSTORE PUSH1 0x0 DUP1 SLOAD DUP4 AND DUP10 DUP6 AND OR SWAP1 SSTORE PUSH1 0x6 DUP1 SLOAD DUP4 AND DUP9 DUP6 AND OR SWAP1 SSTORE PUSH1 0x7 DUP1 SLOAD DUP4 AND DUP8 DUP6 AND OR SWAP1 SSTORE PUSH1 0x2 DUP1 SLOAD DUP4 AND DUP7 DUP6 AND OR SWAP1 SSTORE PUSH1 0x8 DUP1 SLOAD SWAP1 SWAP3 AND SWAP3 DUP5 AND SWAP3 SWAP1 SWAP3 OR SWAP1 SSTORE PUSH1 0x40 MLOAD SWAP1 DUP2 MSTORE PUSH32 0x3CA631FFCD2A9B5D9AE18543FC82F58EB4CA33AF9E6AB01B7A8E95331E6ED985 SWAP1 PUSH1 0x20 ADD PUSH1 0x40 MLOAD DUP1 SWAP2 SUB SWAP1 LOG1 PUSH1 0x40 MLOAD PUSH1 0x1 PUSH1 0x1 PUSH1 0xA0 SHL SUB DUP8 AND DUP2 MSTORE PUSH32 0x143219C9E69B09E07E095FCC889B43D8F46CA892BBA65F08DC3A0050869A5678 SWAP1 PUSH1 0x20 ADD PUSH1 0x40 MLOAD DUP1 SWAP2 SUB SWAP1 LOG1 PUSH1 0x40 MLOAD PUSH1 0x1 PUSH1 0x1 PUSH1 0xA0 SHL SUB DUP7 AND DUP2 MSTORE PUSH32 0x78F058B189175430C48DC02699E3A0031EA4FF781536DC2FAB847DE4BABDD882 SWAP1 PUSH1 0x20 ADD PUSH1 0x40 MLOAD DUP1 SWAP2 SUB SWAP1 LOG1 PUSH1 0x40 MLOAD PUSH1 0x1 PUSH1 0x1 PUSH1 0xA0 SHL SUB DUP6 AND DUP2 MSTORE PUSH32 0x227EEC0EC317AF6AB1A9587FFA1C84332522EB4C583A908F89BABC05F8F339BD SWAP1 PUSH1 0x20 ADD PUSH1 0x40 MLOAD DUP1 SWAP2 SUB SWAP1 LOG1 PUSH1 0x40 MLOAD PUSH1 0x1 PUSH1 0x1 PUSH1 0xA0 SHL SUB DUP5 AND DUP2 MSTORE PUSH32 0x65F4CF077BC01E4742EB5AD98326F6E95B63548EA24B17F8D5E823111FE78800 SWAP1 PUSH1 0x20 ADD PUSH1 0x40 MLOAD DUP1 SWAP2 SUB SWAP1 LOG1 PUSH1 0x40 MLOAD PUSH1 0x1 PUSH1 0x1 PUSH1 0xA0 SHL SUB DUP4 AND DUP2 MSTORE PUSH32 0x8C537274438AA850A330284665D81A85DD38267D09E4050D416BFC94142DB264 SWAP1 PUSH1 0x20 ADD PUSH1 0x40 MLOAD DUP1 SWAP2 SUB SWAP1 LOG1 PUSH1 0x40 MLOAD PUSH1 0x1 PUSH1 0x1 PUSH1 0xA0 SHL SUB DUP3 AND DUP2 MSTORE PUSH32 0x3055265812FB8447B9ADA4A5D804EC43BD528EC40E89C952BBC7B85DC5AC6811 SWAP1 PUSH1 0x20 ADD PUSH1 0x40 MLOAD DUP1 SWAP2 SUB SWAP1 LOG1 POP POP POP POP POP POP POP JUMP JUMPDEST PUSH1 0x1 PUSH1 0x1 PUSH1 0xA0 SHL SUB DUP2 AND PUSH1 0x0 SWAP1 DUP2 MSTORE PUSH1 0xC PUSH1 0x20 MSTORE PUSH1 0x40 DUP2 KECCAK256 SLOAD DUP1 DUP3 SUB PUSH2 0x1698 JUMPI POP PUSH1 0x0 SWAP3 SWAP2 POP POP JUMP JUMPDEST PUSH1 0x1 PUSH1 0x1 PUSH1 0xA0 SHL SUB DUP1 DUP5 AND PUSH1 0x0 SWAP1 DUP2 MSTORE PUSH1 0xC PUSH1 0x20 MSTORE PUSH1 0x40 DUP2 KECCAK256 PUSH1 0x1 ADD SLOAD SWAP1 SWAP2 AND SWAP1 DUP2 ISZERO PUSH2 0x16DD JUMPI PUSH1 0x1 PUSH1 0x1 PUSH1 0xA0 SHL SUB DUP3 AND PUSH1 0x0 SWAP1 DUP2 MSTORE PUSH1 0xE PUSH1 0x20 MSTORE PUSH1 0x40 SWAP1 KECCAK256 SLOAD PUSH2 0x16E7 JUMP JUMPDEST PUSH8 0xDE0B6B3A7640000 JUMPDEST PUSH1 0x1 PUSH1 0x1 PUSH1 0xA0 SHL SUB DUP7 AND PUSH1 0x0 SWAP1 DUP2 MSTORE PUSH1 0xD PUSH1 0x20 SWAP1 DUP2 MSTORE PUSH1 0x40 DUP1 DUP4 KECCAK256 DUP2 MLOAD PUSH1 0xA0 DUP2 ADD DUP4 MSTORE DUP2 SLOAD DUP2 MSTORE PUSH1 0x1 DUP3 ADD SLOAD SWAP4 DUP2 ADD SWAP4 SWAP1 SWAP4 MSTORE PUSH1 0x2 DUP2 ADD SLOAD SWAP2 DUP4 ADD SWAP2 SWAP1 SWAP2 MSTORE PUSH1 0x3 ADD SLOAD PUSH1 0x1 PUSH1 0x1 PUSH1 0x80 SHL SUB DUP1 DUP3 AND PUSH1 0x60 DUP5 ADD MSTORE PUSH1 0x1 PUSH1 0x80 SHL SWAP1 SWAP2 DIV AND PUSH1 0x80 DUP3 ADD MSTORE SWAP2 SWAP3 POP PUSH8 0xDE0B6B3A7640000 PUSH2 0x1341 DUP7 DUP5 PUSH2 0x30A6 JUMP JUMPDEST PUSH2 0x1772 PUSH2 0x3E8 PUSH8 0xDE0B6B3A7640000 PUSH2 0x37DB JUMP JUMPDEST PUSH2 0x177D SWAP1 PUSH1 0x5 PUSH2 0x37C4 JUMP JUMPDEST DUP2 JUMP JUMPDEST CALLER PUSH1 0x0 SWAP1 DUP2 MSTORE PUSH1 0xC PUSH1 0x20 MSTORE PUSH1 0x40 SWAP1 KECCAK256 SLOAD PUSH2 0x1799 DUP2 PUSH2 0x1D68 JUMP JUMPDEST PUSH2 0x17A2 CALLER PUSH2 0x311E JUMP JUMPDEST PUSH2 0x17AB CALLER PUSH2 0x3210 JUMP JUMPDEST PUSH1 0x8 SLOAD PUSH1 0x1 PUSH1 0x1 PUSH1 0xA0 SHL SUB AND PUSH2 0x17C0 DUP2 PUSH2 0x1DD1 JUMP JUMPDEST PUSH1 0x0 PUSH2 0x17CB CALLER PUSH2 0xB71 JUMP JUMPDEST SWAP1 POP PUSH1 0x0 PUSH2 0x17D8 CALLER PUSH2 0x8C3 JUMP JUMPDEST SWAP1 POP PUSH1 0x0 PUSH2 0x17E6 DUP3 DUP7 PUSH2 0x3750 JUMP JUMPDEST CALLER PUSH1 0x0 DUP2 DUP2 MSTORE PUSH1 0xC PUSH1 0x20 MSTORE PUSH1 0x40 SWAP1 KECCAK256 PUSH1 0x1 ADD SLOAD SWAP2 SWAP3 POP PUSH1 0x1 PUSH1 0x1 PUSH1 0xA0 SHL SUB SWAP1 SWAP2 AND SWAP1 PUSH2 0x1814 SWAP1 DUP7 SWAP1 DUP4 PUSH2 0x1E5E JUMP JUMPDEST PUSH1 0x0 PUSH2 0x181F DUP3 PUSH2 0x1360 JUMP JUMPDEST SWAP1 POP DUP1 PUSH2 0x182C DUP4 DUP3 PUSH2 0x1FDD JUMP JUMPDEST PUSH1 0x40 DUP1 MLOAD DUP3 DUP2 MSTORE CALLER PUSH1 0x20 DUP3 ADD MSTORE PUSH1 0x1 PUSH1 0x1 PUSH1 0xA0 SHL SUB DUP6 AND SWAP2 PUSH32 0x99920012339B5A3368D3A04B8606CE412C46ED92B7DCD8602D41FC8862CB8F25 SWAP2 ADD PUSH1 0x40 MLOAD DUP1 SWAP2 SUB SWAP1 LOG2 PUSH2 0x1879 CALLER DUP7 PUSH2 0x21A0 JUMP JUMPDEST PUSH1 0x40 DUP1 MLOAD DUP8 DUP2 MSTORE PUSH1 0x20 DUP2 ADD DUP7 SWAP1 MSTORE CALLER SWAP2 PUSH32 0x51457222EBCA92C335C9C86E2BAA1CC0E40FFAA9084A51452980D5BA8DEC2F63 SWAP2 ADD PUSH1 0x40 MLOAD DUP1 SWAP2 SUB SWAP1 LOG2 PUSH1 0x40 MLOAD DUP6 DUP2 MSTORE CALLER SWAP1 PUSH32 0xBCE78369DCCAB09EEC1986F4D409AB09FFBB47D65423E5148FCF98411C5111C9 SWAP1 PUSH1 0x20 ADD PUSH1 0x40 MLOAD DUP1 SWAP2 SUB SWAP1 LOG2 DUP6 PUSH1 0x9 SLOAD PUSH2 0x18F7 SWAP2 SWAP1 PUSH2 0x3750 JUMP JUMPDEST PUSH1 0x9 DUP2 SWAP1 SSTORE PUSH1 0x40 MLOAD SWAP1 DUP2 MSTORE PUSH32 0xCEB6D671277D4354FD29977ADA70695FBD93A16612ABF765D6B0E25C28DC6DB3 SWAP1 PUSH1 0x20 ADD PUSH1 0x40 MLOAD DUP1 SWAP2 SUB SWAP1 LOG1 PUSH1 0x40 DUP1 MLOAD CALLER DUP2 MSTORE PUSH1 0x20 DUP2 ADD DUP9 SWAP1 MSTORE PUSH32 0x6109E2559DFA766AAEC7118351D48A523F0A4157F49C8D68749C8AC41318AD12 SWAP2 ADD PUSH1 0x40 MLOAD DUP1 SWAP2 SUB SWAP1 LOG1 PUSH1 0xA SLOAD PUSH1 0x4 DUP1 SLOAD PUSH1 0x40 MLOAD PUSH4 0xA9059CBB PUSH1 0xE0 SHL DUP2 MSTORE PUSH1 0x1 PUSH1 0x1 PUSH1 0xA0 SHL SUB SWAP2 DUP3 AND SWAP3 DUP2 ADD SWAP3 SWAP1 SWAP3 MSTORE PUSH1 0x24 DUP3 ADD DUP10 SWAP1 MSTORE SWAP1 SWAP2 AND SWAP1 PUSH4 0xA9059CBB SWAP1 PUSH1 0x44 ADD PUSH1 0x20 PUSH1 0x40 MLOAD DUP1 DUP4 SUB DUP2 PUSH1 0x0 DUP8 GAS CALL ISZERO DUP1 ISZERO PUSH2 0x19C1 JUMPI RETURNDATASIZE PUSH1 0x0 DUP1 RETURNDATACOPY RETURNDATASIZE PUSH1 0x0 REVERT JUMPDEST POP POP POP POP PUSH1 0x40 MLOAD RETURNDATASIZE PUSH1 0x1F NOT PUSH1 0x1F DUP3 ADD AND DUP3 ADD DUP1 PUSH1 0x40 MSTORE POP DUP2 ADD SWAP1 PUSH2 0x19E5 SWAP2 SWAP1 PUSH2 0x37FD JUMP JUMPDEST PUSH2 0x1A01 JUMPI PUSH1 0x40 MLOAD PUSH3 0x461BCD PUSH1 0xE5 SHL DUP2 MSTORE PUSH1 0x4 ADD PUSH2 0xE53 SWAP1 PUSH2 0x381F JUMP JUMPDEST PUSH1 0x4 DUP1 SLOAD PUSH1 0x40 MLOAD PUSH4 0xC4FCB919 PUSH1 0xE0 SHL DUP2 MSTORE SWAP2 DUP3 ADD DUP9 SWAP1 MSTORE CALLER PUSH1 0x24 DUP4 ADD MSTORE PUSH1 0x1 PUSH1 0x1 PUSH1 0xA0 SHL SUB DUP13 DUP2 AND PUSH1 0x44 DUP5 ADD MSTORE DUP12 DUP2 AND PUSH1 0x64 DUP5 ADD MSTORE AND SWAP1 PUSH4 0xC4FCB919 SWAP1 PUSH1 0x84 ADD PUSH1 0x0 PUSH1 0x40 MLOAD DUP1 DUP4 SUB DUP2 PUSH1 0x0 DUP8 DUP1 EXTCODESIZE ISZERO DUP1 ISZERO PUSH2 0x1A5B JUMPI PUSH1 0x0 DUP1 REVERT JUMPDEST POP GAS CALL ISZERO DUP1 ISZERO PUSH2 0x1A6F JUMPI RETURNDATASIZE PUSH1 0x0 DUP1 RETURNDATACOPY RETURNDATASIZE PUSH1 0x0 REVERT JUMPDEST POP POP POP POP POP POP POP POP POP POP POP POP POP POP JUMP JUMPDEST PUSH1 0x20 DUP2 ADD MLOAD PUSH1 0x60 DUP3 ADD MLOAD PUSH1 0x80 DUP4 ADD MLOAD PUSH1 0x12 SLOAD PUSH1 0x0 SWAP4 SWAP3 SWAP2 SWAP1 PUSH1 0x1 PUSH1 0x1 PUSH1 0x80 SHL SUB PUSH1 0x1 PUSH1 0x80 SHL SWAP1 SWAP2 DIV DUP2 AND SWAP1 DUP3 AND LT ISZERO PUSH2 0x1ABE JUMPI PUSH1 0x0 SWAP4 POP POP POP POP PUSH2 0x1B6A JUMP JUMPDEST PUSH1 0x12 SLOAD PUSH1 0x0 SWAP1 DUP2 SWAP1 PUSH2 0x1AD9 SWAP1 PUSH1 0x1 PUSH1 0x1 PUSH1 0x80 SHL SUB AND DUP6 PUSH2 0x3287 JUMP JUMPDEST SWAP1 POP DUP1 PUSH1 0x1 PUSH1 0x1 PUSH1 0x80 SHL SUB AND PUSH1 0x0 SUB PUSH2 0x1B0C JUMPI DUP5 PUSH1 0x11 SLOAD DUP10 PUSH2 0x1AFB SWAP2 SWAP1 PUSH2 0x37C4 JUMP JUMPDEST PUSH2 0x1B05 SWAP2 SWAP1 PUSH2 0x37DB JUMP JUMPDEST SWAP2 POP PUSH2 0x1B40 JUMP JUMPDEST DUP1 PUSH1 0x1 PUSH1 0x1 PUSH1 0x80 SHL SUB AND PUSH1 0x1 SUB PUSH2 0x1B3B JUMPI PUSH4 0x3B9ACA00 DUP6 PUSH1 0x11 SLOAD DUP11 PUSH2 0x1B31 SWAP2 SWAP1 PUSH2 0x37C4 JUMP JUMPDEST PUSH2 0x1AFB SWAP2 SWAP1 PUSH2 0x37DB JUMP JUMPDEST PUSH1 0x0 SWAP2 POP JUMPDEST PUSH2 0x1B4E PUSH4 0x3B9ACA00 DUP10 PUSH2 0x37DB JUMP JUMPDEST DUP3 LT ISZERO PUSH2 0x1B63 JUMPI PUSH1 0x0 SWAP6 POP POP POP POP POP POP PUSH2 0x1B6A JUMP JUMPDEST POP SWAP4 POP POP POP POP JUMPDEST SWAP3 SWAP2 POP POP JUMP JUMPDEST PUSH1 0x2 SLOAD PUSH1 0x40 DUP1 MLOAD PUSH4 0xFDB11CF PUSH1 0xE0 SHL DUP2 MSTORE SWAP1 MLOAD PUSH1 0x0 SWAP3 PUSH1 0x1 PUSH1 0x1 PUSH1 0xA0 SHL SUB AND SWAP2 PUSH4 0xFDB11CF SWAP2 PUSH1 0x4 DUP1 DUP4 ADD SWAP3 PUSH1 0x20 SWAP3 SWAP2 SWAP1 DUP3 SWAP1 SUB ADD DUP2 DUP8 DUP8 GAS CALL ISZERO DUP1 ISZERO PUSH2 0x1BBB JUMPI RETURNDATASIZE PUSH1 0x0 DUP1 RETURNDATACOPY RETURNDATASIZE PUSH1 0x0 REVERT JUMPDEST POP POP POP POP PUSH1 0x40 MLOAD RETURNDATASIZE PUSH1 0x1F NOT PUSH1 0x1F DUP3 ADD AND DUP3 ADD DUP1 PUSH1 0x40 MSTORE POP DUP2 ADD SWAP1 PUSH2 0x1BDF SWAP2 SWAP1 PUSH2 0x37AB JUMP JUMPDEST SWAP1 POP PUSH1 0x0 PUSH1 0x7 PUSH1 0x0 SWAP1 SLOAD SWAP1 PUSH2 0x100 EXP SWAP1 DIV PUSH1 0x1 PUSH1 0x1 PUSH1 0xA0 SHL SUB AND PUSH1 0x1 PUSH1 0x1 PUSH1 0xA0 SHL SUB AND PUSH4 0x4D622831 PUSH1 0x40 MLOAD DUP2 PUSH4 0xFFFFFFFF AND PUSH1 0xE0 SHL DUP2 MSTORE PUSH1 0x4 ADD PUSH1 0x20 PUSH1 0x40 MLOAD DUP1 DUP4 SUB DUP2 DUP7 GAS STATICCALL ISZERO DUP1 ISZERO PUSH2 0x1C36 JUMPI RETURNDATASIZE PUSH1 0x0 DUP1 RETURNDATACOPY RETURNDATASIZE PUSH1 0x0 REVERT JUMPDEST POP POP POP POP PUSH1 0x40 MLOAD RETURNDATASIZE PUSH1 0x1F NOT PUSH1 0x1F DUP3 ADD AND DUP3 ADD DUP1 PUSH1 0x40 MSTORE POP DUP2 ADD SWAP1 PUSH2 0x1C5A SWAP2 SWAP1 PUSH2 0x3860 JUMP JUMPDEST PUSH1 0x5 SLOAD PUSH1 0x40 MLOAD PUSH4 0xD293C71 PUSH1 0xE4 SHL DUP2 MSTORE PUSH1 0x1 PUSH1 0x1 PUSH1 0xA0 SHL SUB DUP1 DUP5 AND PUSH1 0x4 DUP4 ADD MSTORE PUSH1 0x24 DUP3 ADD DUP7 SWAP1 MSTORE SWAP3 SWAP4 POP PUSH1 0x0 SWAP3 SWAP1 SWAP2 AND SWAP1 PUSH4 0xD293C710 SWAP1 PUSH1 0x44 ADD PUSH1 0x20 PUSH1 0x40 MLOAD DUP1 DUP4 SUB DUP2 DUP7 GAS STATICCALL ISZERO DUP1 ISZERO PUSH2 0x1CB1 JUMPI RETURNDATASIZE PUSH1 0x0 DUP1 RETURNDATACOPY RETURNDATASIZE PUSH1 0x0 REVERT JUMPDEST POP POP POP POP PUSH1 0x40 MLOAD RETURNDATASIZE PUSH1 0x1F NOT PUSH1 0x1F DUP3 ADD AND DUP3 ADD DUP1 PUSH1 0x40 MSTORE POP DUP2 ADD SWAP1 PUSH2 0x1CD5 SWAP2 SWAP1 PUSH2 0x37AB JUMP JUMPDEST SWAP1 POP PUSH8 0xF43FC2C04EE0000 DUP2 LT ISZERO PUSH2 0x1D63 JUMPI PUSH1 0x40 MLOAD PUSH3 0x461BCD PUSH1 0xE5 SHL DUP2 MSTORE PUSH1 0x20 PUSH1 0x4 DUP3 ADD MSTORE PUSH1 0x44 PUSH1 0x24 DUP3 ADD DUP2 SWAP1 MSTORE PUSH32 0x53746162696C697479506F6F6C3A2043616E6E6F742077697468647261772077 SWAP1 DUP3 ADD MSTORE PUSH32 0x68696C65207468657265206172652074726F766573207769746820494352203C PUSH1 0x64 DUP3 ADD MSTORE PUSH4 0x1026A1A9 PUSH1 0xE1 SHL PUSH1 0x84 DUP3 ADD MSTORE PUSH1 0xA4 ADD PUSH2 0xE53 JUMP JUMPDEST POP POP POP JUMP JUMPDEST PUSH1 0x0 DUP2 GT PUSH2 0x1272 JUMPI PUSH1 0x40 MLOAD PUSH3 0x461BCD PUSH1 0xE5 SHL DUP2 MSTORE PUSH1 0x20 PUSH1 0x4 DUP3 ADD MSTORE PUSH1 0x30 PUSH1 0x24 DUP3 ADD MSTORE PUSH32 0x53746162696C697479506F6F6C3A2055736572206D7573742068617665206120 PUSH1 0x44 DUP3 ADD MSTORE PUSH16 0x1B9BDB8B5E995C9BC819195C1BDCDA5D PUSH1 0x82 SHL PUSH1 0x64 DUP3 ADD MSTORE PUSH1 0x84 ADD PUSH2 0xE53 JUMP JUMPDEST PUSH1 0x0 DUP2 PUSH1 0x1 PUSH1 0x1 PUSH1 0xA0 SHL SUB AND PUSH4 0x46AD34D9 PUSH1 0x40 MLOAD DUP2 PUSH4 0xFFFFFFFF AND PUSH1 0xE0 SHL DUP2 MSTORE PUSH1 0x4 ADD PUSH1 0x20 PUSH1 0x40 MLOAD DUP1 DUP4 SUB DUP2 PUSH1 0x0 DUP8 GAS CALL ISZERO DUP1 ISZERO PUSH2 0x1E13 JUMPI RETURNDATASIZE PUSH1 0x0 DUP1 RETURNDATACOPY RETURNDATASIZE PUSH1 0x0 REVERT JUMPDEST POP POP POP POP PUSH1 0x40 MLOAD RETURNDATASIZE PUSH1 0x1F NOT PUSH1 0x1F DUP3 ADD AND DUP3 ADD DUP1 PUSH1 0x40 MSTORE POP DUP2 ADD SWAP1 PUSH2 0x1E37 SWAP2 SWAP1 PUSH2 0x37AB JUMP JUMPDEST SWAP1 POP PUSH2 0x1E42 DUP2 PUSH2 0x3310 JUMP JUMPDEST POP POP JUMP JUMPDEST PUSH1 0x0 DUP2 DUP4 LT PUSH2 0x1E55 JUMPI DUP2 PUSH2 0x1E57 JUMP JUMPDEST DUP3 JUMPDEST SWAP4 SWAP3 POP POP POP JUMP JUMPDEST PUSH1 0x1 PUSH1 0x1 PUSH1 0xA0 SHL SUB DUP2 AND ISZERO PUSH2 0x1F23 JUMPI PUSH1 0x0 PUSH2 0x1E78 DUP3 PUSH2 0x1275 JUMP JUMPDEST PUSH1 0x40 MLOAD PUSH4 0x30A6955B PUSH1 0xE1 SHL DUP2 MSTORE PUSH1 0x1 PUSH1 0x1 PUSH1 0xA0 SHL SUB DUP5 DUP2 AND PUSH1 0x4 DUP4 ADD MSTORE PUSH1 0x24 DUP3 ADD DUP4 SWAP1 MSTORE SWAP2 SWAP3 POP SWAP1 DUP6 AND SWAP1 PUSH4 0x614D2AB6 SWAP1 PUSH1 0x44 ADD PUSH1 0x0 PUSH1 0x40 MLOAD DUP1 DUP4 SUB DUP2 PUSH1 0x0 DUP8 DUP1 EXTCODESIZE ISZERO DUP1 ISZERO PUSH2 0x1EC6 JUMPI PUSH1 0x0 DUP1 REVERT JUMPDEST POP GAS CALL ISZERO DUP1 ISZERO PUSH2 0x1EDA JUMPI RETURNDATASIZE PUSH1 0x0 DUP1 RETURNDATACOPY RETURNDATASIZE PUSH1 0x0 REVERT JUMPDEST POP POP POP POP DUP2 PUSH1 0x1 PUSH1 0x1 PUSH1 0xA0 SHL SUB AND PUSH32 0xCD2CDC1A4AF71051394E9C6FACD9A266B2AC5BD65D219A701EEDA009F47682BF DUP3 PUSH1 0x40 MLOAD PUSH2 0x1F19 SWAP2 DUP2 MSTORE PUSH1 0x20 ADD SWAP1 JUMP JUMPDEST PUSH1 0x40 MLOAD DUP1 SWAP2 SUB SWAP1 LOG2 POP JUMPDEST PUSH1 0x0 PUSH2 0x1F2E DUP4 PUSH2 0x166F JUMP JUMPDEST PUSH1 0x40 MLOAD PUSH4 0x30A6955B PUSH1 0xE1 SHL DUP2 MSTORE PUSH1 0x1 PUSH1 0x1 PUSH1 0xA0 SHL SUB DUP6 DUP2 AND PUSH1 0x4 DUP4 ADD MSTORE PUSH1 0x24 DUP3 ADD DUP4 SWAP1 MSTORE SWAP2 SWAP3 POP SWAP1 DUP6 AND SWAP1 PUSH4 0x614D2AB6 SWAP1 PUSH1 0x44 ADD PUSH1 0x0 PUSH1 0x40 MLOAD DUP1 DUP4 SUB DUP2 PUSH1 0x0 DUP8 DUP1 EXTCODESIZE ISZERO DUP1 ISZERO PUSH2 0x1F7C JUMPI PUSH1 0x0 DUP1 REVERT JUMPDEST POP GAS CALL ISZERO DUP1 ISZERO PUSH2 0x1F90 JUMPI RETURNDATASIZE PUSH1 0x0 DUP1 RETURNDATACOPY RETURNDATASIZE PUSH1 0x0 REVERT JUMPDEST POP POP POP POP DUP3 PUSH1 0x1 PUSH1 0x1 PUSH1 0xA0 SHL SUB AND PUSH32 0x2608B986A6AC0F6C629CA37018E80AF5561E366252AE93602A96D3AB2E73E42D DUP3 PUSH1 0x40 MLOAD PUSH2 0x1FCF SWAP2 DUP2 MSTORE PUSH1 0x20 ADD SWAP1 JUMP JUMPDEST PUSH1 0x40 MLOAD DUP1 SWAP2 SUB SWAP1 LOG2 POP POP POP POP JUMP JUMPDEST PUSH1 0x1 PUSH1 0x1 PUSH1 0xA0 SHL SUB DUP3 AND PUSH1 0x0 SWAP1 DUP2 MSTORE PUSH1 0xF PUSH1 0x20 MSTORE PUSH1 0x40 DUP2 KECCAK256 DUP3 SWAP1 SSTORE DUP2 SWAP1 SUB PUSH2 0x2072 JUMPI PUSH1 0x1 PUSH1 0x1 PUSH1 0xA0 SHL SUB DUP3 AND PUSH1 0x0 DUP2 DUP2 MSTORE PUSH1 0x10 PUSH1 0x20 MSTORE PUSH1 0x40 DUP1 DUP3 KECCAK256 DUP3 DUP2 SSTORE PUSH1 0x1 DUP2 ADD DUP4 SWAP1 SSTORE PUSH1 0x2 DUP2 ADD DUP4 SWAP1 SSTORE PUSH1 0x3 ADD DUP3 SWAP1 SSTORE MLOAD PUSH32 0xBB1322F85CC7CC8BAC4E172A5BC5DCC0C1959007F9A030032ABF9258205F0E45 SWAP2 PUSH2 0x2066 SWAP2 DUP2 SWAP1 SWAP2 DUP3 MSTORE PUSH1 0x20 DUP3 ADD MSTORE PUSH1 0x40 ADD SWAP1 JUMP JUMPDEST PUSH1 0x40 MLOAD DUP1 SWAP2 SUB SWAP1 LOG2 POP POP JUMP JUMPDEST PUSH1 0x12 SLOAD PUSH1 0x11 SLOAD PUSH1 0x1 PUSH1 0x1 PUSH1 0x80 SHL SUB PUSH1 0x1 PUSH1 0x80 SHL DUP1 DUP5 DIV DUP3 AND PUSH1 0x0 DUP2 DUP2 MSTORE PUSH1 0x14 PUSH1 0x20 SWAP1 DUP2 MSTORE PUSH1 0x40 DUP1 DUP4 KECCAK256 SWAP6 SWAP1 SWAP8 AND DUP1 DUP4 MSTORE SWAP5 DUP2 MSTORE DUP7 DUP3 KECCAK256 SLOAD PUSH1 0x1 PUSH1 0x1 PUSH1 0xA0 SHL SUB DUP11 AND DUP1 DUP5 MSTORE PUSH1 0x10 DUP4 MSTORE SWAP3 DUP9 SWAP1 KECCAK256 PUSH1 0x1 DUP2 ADD DUP9 SWAP1 SSTORE PUSH1 0x2 DUP2 ADD DUP3 SWAP1 SSTORE SWAP5 DUP5 MUL DUP7 OR PUSH1 0x3 SWAP1 SWAP6 ADD SWAP5 SWAP1 SWAP5 SSTORE DUP7 MLOAD DUP7 DUP2 MSTORE SWAP1 DUP2 ADD DUP5 SWAP1 MSTORE SWAP4 SWAP6 SWAP2 SWAP5 SWAP4 SWAP1 SWAP2 PUSH32 0xBB1322F85CC7CC8BAC4E172A5BC5DCC0C1959007F9A030032ABF9258205F0E45 SWAP2 ADD PUSH1 0x40 MLOAD DUP1 SWAP2 SUB SWAP1 LOG2 POP POP POP POP POP POP JUMP JUMPDEST DUP1 PUSH1 0x0 SUB PUSH2 0x212B JUMPI POP POP JUMP JUMPDEST PUSH1 0x6 SLOAD PUSH1 0x40 MLOAD PUSH4 0x1062C15F PUSH1 0xE1 SHL DUP2 MSTORE ADDRESS PUSH1 0x4 DUP3 ADD MSTORE PUSH1 0x1 PUSH1 0x1 PUSH1 0xA0 SHL SUB DUP5 DUP2 AND PUSH1 0x24 DUP4 ADD MSTORE PUSH1 0x44 DUP3 ADD DUP5 SWAP1 MSTORE SWAP1 SWAP2 AND SWAP1 PUSH4 0x20C582BE SWAP1 PUSH1 0x64 ADD PUSH1 0x0 PUSH1 0x40 MLOAD DUP1 DUP4 SUB DUP2 PUSH1 0x0 DUP8 DUP1 EXTCODESIZE ISZERO DUP1 ISZERO PUSH2 0x217F JUMPI PUSH1 0x0 DUP1 REVERT JUMPDEST POP GAS CALL ISZERO DUP1 ISZERO PUSH2 0x2193 JUMPI RETURNDATASIZE PUSH1 0x0 DUP1 RETURNDATACOPY RETURNDATASIZE PUSH1 0x0 REVERT JUMPDEST POP POP POP POP PUSH2 0x1E42 DUP2 PUSH2 0x341B JUMP JUMPDEST PUSH1 0x1 PUSH1 0x1 PUSH1 0xA0 SHL SUB DUP3 AND PUSH1 0x0 SWAP1 DUP2 MSTORE PUSH1 0xC PUSH1 0x20 MSTORE PUSH1 0x40 DUP2 KECCAK256 DUP3 SWAP1 SSTORE DUP2 SWAP1 SUB PUSH2 0x2248 JUMPI PUSH1 0x1 PUSH1 0x1 PUSH1 0xA0 SHL SUB DUP3 AND PUSH1 0x0 DUP2 DUP2 MSTORE PUSH1 0xC PUSH1 0x20 SWAP1 DUP2 MSTORE PUSH1 0x40 DUP1 DUP4 KECCAK256 PUSH1 0x1 SWAP1 DUP2 ADD DUP1 SLOAD PUSH1 0x1 PUSH1 0x1 PUSH1 0xA0 SHL SUB NOT AND SWAP1 SSTORE PUSH1 0xD DUP4 MSTORE DUP2 DUP5 KECCAK256 DUP5 DUP2 SSTORE SWAP1 DUP2 ADD DUP5 SWAP1 SSTORE PUSH1 0x2 DUP2 ADD DUP5 SWAP1 SSTORE PUSH1 0x3 ADD DUP4 SWAP1 SSTORE DUP1 MLOAD DUP4 DUP2 MSTORE SWAP2 DUP3 ADD DUP4 SWAP1 MSTORE DUP2 ADD SWAP2 SWAP1 SWAP2 MSTORE PUSH32 0x2D6CC0BCDF72C9486F6451BDE6B80F44066F4558F77F44DBFEDBE7D8B295225A SWAP1 PUSH1 0x60 ADD PUSH2 0x2066 JUMP JUMPDEST PUSH1 0x12 SLOAD PUSH1 0x11 SLOAD PUSH1 0x1 PUSH1 0x1 PUSH1 0x80 SHL SUB PUSH1 0x1 PUSH1 0x80 SHL DUP1 DUP5 DIV DUP3 AND PUSH1 0x0 DUP2 DUP2 MSTORE PUSH1 0x13 PUSH1 0x20 SWAP1 DUP2 MSTORE PUSH1 0x40 DUP1 DUP4 KECCAK256 SWAP6 SWAP1 SWAP8 AND DUP1 DUP4 MSTORE SWAP5 DUP2 MSTORE DUP7 DUP3 KECCAK256 SLOAD DUP4 DUP4 MSTORE PUSH1 0x14 DUP3 MSTORE DUP8 DUP4 KECCAK256 DUP7 DUP5 MSTORE DUP3 MSTORE DUP8 DUP4 KECCAK256 SLOAD PUSH1 0x1 PUSH1 0x1 PUSH1 0xA0 SHL SUB DUP12 AND DUP1 DUP6 MSTORE PUSH1 0xD DUP5 MSTORE SWAP4 DUP10 SWAP1 KECCAK256 PUSH1 0x1 DUP2 ADD DUP10 SWAP1 SSTORE DUP3 DUP2 SSTORE PUSH1 0x2 DUP2 ADD DUP3 SWAP1 SSTORE SWAP6 DUP6 MUL DUP8 OR PUSH1 0x3 SWAP1 SWAP7 ADD SWAP6 SWAP1 SWAP6 SSTORE DUP8 MLOAD DUP8 DUP2 MSTORE SWAP2 DUP3 ADD DUP2 SWAP1 MSTORE SWAP7 DUP2 ADD DUP5 SWAP1 MSTORE SWAP4 SWAP6 SWAP2 SWAP5 SWAP4 SWAP2 SWAP3 SWAP2 PUSH32 0x2D6CC0BCDF72C9486F6451BDE6B80F44066F4558F77F44DBFEDBE7D8B295225A SWAP1 PUSH1 0x60 ADD PUSH1 0x40 MLOAD DUP1 SWAP2 SUB SWAP1 LOG2 POP POP POP POP POP POP POP JUMP JUMPDEST DUP1 PUSH1 0x0 SUB PUSH2 0x2320 JUMPI POP JUMP JUMPDEST PUSH1 0xA SLOAD PUSH1 0x40 MLOAD PUSH4 0x70A08231 PUSH1 0xE0 SHL DUP2 MSTORE ADDRESS PUSH1 0x4 DUP3 ADD MSTORE DUP3 SWAP2 PUSH1 0x1 PUSH1 0x1 PUSH1 0xA0 SHL SUB AND SWAP1 PUSH4 0x70A08231 SWAP1 PUSH1 0x24 ADD PUSH1 0x20 PUSH1 0x40 MLOAD DUP1 DUP4 SUB DUP2 DUP7 GAS STATICCALL ISZERO DUP1 ISZERO PUSH2 0x2368 JUMPI RETURNDATASIZE PUSH1 0x0 DUP1 RETURNDATACOPY RETURNDATASIZE PUSH1 0x0 REVERT JUMPDEST POP POP POP POP PUSH1 0x40 MLOAD RETURNDATASIZE PUSH1 0x1F NOT PUSH1 0x1F DUP3 ADD AND DUP3 ADD DUP1 PUSH1 0x40 MSTORE POP DUP2 ADD SWAP1 PUSH2 0x238C SWAP2 SWAP1 PUSH2 0x37AB JUMP JUMPDEST LT ISZERO PUSH2 0x23EE JUMPI PUSH1 0x40 MLOAD PUSH3 0x461BCD PUSH1 0xE5 SHL DUP2 MSTORE PUSH1 0x20 PUSH1 0x4 DUP3 ADD MSTORE PUSH1 0x2B PUSH1 0x24 DUP3 ADD MSTORE PUSH32 0x53746162696C697479506F6F6C3A20496E73756666696369656E742066756E64 PUSH1 0x44 DUP3 ADD MSTORE PUSH11 0x7320617661696C61626C65 PUSH1 0xA8 SHL PUSH1 0x64 DUP3 ADD MSTORE PUSH1 0x84 ADD PUSH2 0xE53 JUMP JUMPDEST PUSH1 0x0 DUP2 PUSH1 0x9 SLOAD PUSH2 0x23FE SWAP2 SWAP1 PUSH2 0x3750 JUMP JUMPDEST PUSH1 0x9 DUP2 SWAP1 SSTORE PUSH1 0x40 MLOAD DUP2 DUP2 MSTORE SWAP1 SWAP2 POP PUSH32 0xCEB6D671277D4354FD29977ADA70695FBD93A16612ABF765D6B0E25C28DC6DB3 SWAP1 PUSH1 0x20 ADD PUSH1 0x40 MLOAD DUP1 SWAP2 SUB SWAP1 LOG1 PUSH1 0x40 DUP1 MLOAD CALLER DUP2 MSTORE PUSH1 0x20 DUP2 ADD DUP5 SWAP1 MSTORE PUSH32 0x6109E2559DFA766AAEC7118351D48A523F0A4157F49C8D68749C8AC41318AD12 SWAP2 ADD PUSH1 0x40 MLOAD DUP1 SWAP2 SUB SWAP1 LOG1 PUSH1 0xA SLOAD PUSH1 0x40 MLOAD PUSH4 0xA9059CBB PUSH1 0xE0 SHL DUP2 MSTORE CALLER PUSH1 0x4 DUP3 ADD MSTORE PUSH1 0x24 DUP2 ADD DUP5 SWAP1 MSTORE PUSH1 0x1 PUSH1 0x1 PUSH1 0xA0 SHL SUB SWAP1 SWAP2 AND SWAP1 PUSH4 0xA9059CBB SWAP1 PUSH1 0x44 ADD PUSH1 0x20 PUSH1 0x40 MLOAD DUP1 DUP4 SUB DUP2 PUSH1 0x0 DUP8 GAS CALL ISZERO DUP1 ISZERO PUSH2 0x24C3 JUMPI RETURNDATASIZE PUSH1 0x0 DUP1 RETURNDATACOPY RETURNDATASIZE PUSH1 0x0 REVERT JUMPDEST POP POP POP POP PUSH1 0x40 MLOAD RETURNDATASIZE PUSH1 0x1F NOT PUSH1 0x1F DUP3 ADD AND DUP3 ADD DUP1 PUSH1 0x40 MSTORE POP DUP2 ADD SWAP1 PUSH2 0x24E7 SWAP2 SWAP1 PUSH2 0x37FD JUMP JUMPDEST PUSH2 0x1E42 JUMPI PUSH1 0x40 MLOAD PUSH3 0x461BCD PUSH1 0xE5 SHL DUP2 MSTORE PUSH1 0x4 ADD PUSH2 0xE53 SWAP1 PUSH2 0x381F JUMP JUMPDEST PUSH1 0x5 SLOAD PUSH1 0x1 PUSH1 0x1 PUSH1 0xA0 SHL SUB AND CALLER EQ PUSH2 0x256F JUMPI PUSH1 0x40 MLOAD PUSH3 0x461BCD PUSH1 0xE5 SHL DUP2 MSTORE PUSH1 0x20 PUSH1 0x4 DUP3 ADD MSTORE PUSH1 0x29 PUSH1 0x24 DUP3 ADD MSTORE PUSH32 0x53746162696C697479506F6F6C3A2043616C6C6572206973206E6F742054726F PUSH1 0x44 DUP3 ADD MSTORE PUSH9 0x3B32A6B0B730B3B2B9 PUSH1 0xB9 SHL PUSH1 0x64 DUP3 ADD MSTORE PUSH1 0x84 ADD PUSH2 0xE53 JUMP JUMPDEST JUMP JUMPDEST PUSH1 0x0 DUP1 PUSH1 0x0 PUSH1 0x16 SLOAD PUSH8 0xDE0B6B3A7640000 DUP8 PUSH2 0x258D SWAP2 SWAP1 PUSH2 0x37C4 JUMP JUMPDEST PUSH2 0x2597 SWAP2 SWAP1 PUSH2 0x3763 JUMP JUMPDEST SWAP1 POP DUP4 DUP6 GT ISZERO PUSH2 0x25A9 JUMPI PUSH2 0x25A9 PUSH2 0x387D JUMP JUMPDEST DUP4 DUP6 SUB PUSH2 0x25C5 JUMPI PUSH1 0x0 PUSH1 0x17 SSTORE PUSH8 0xDE0B6B3A7640000 SWAP2 POP PUSH2 0x261A JUMP JUMPDEST PUSH1 0x17 SLOAD PUSH1 0x0 SWAP1 PUSH2 0x25DD PUSH8 0xDE0B6B3A7640000 DUP9 PUSH2 0x37C4 JUMP JUMPDEST PUSH2 0x25E7 SWAP2 SWAP1 PUSH2 0x3750 JUMP JUMPDEST SWAP1 POP PUSH2 0x25F3 DUP6 DUP3 PUSH2 0x37DB JUMP JUMPDEST PUSH2 0x25FE SWAP1 PUSH1 0x1 PUSH2 0x3763 JUMP JUMPDEST SWAP3 POP DUP1 PUSH2 0x260B DUP7 DUP6 PUSH2 0x37C4 JUMP JUMPDEST PUSH2 0x2615 SWAP2 SWAP1 PUSH2 0x3750 JUMP JUMPDEST PUSH1 0x17 SSTORE POP JUMPDEST PUSH2 0x2624 DUP5 DUP3 PUSH2 0x37DB JUMP JUMPDEST SWAP3 POP PUSH2 0x2630 DUP5 DUP5 PUSH2 0x37C4 JUMP JUMPDEST PUSH2 0x263A SWAP1 DUP3 PUSH2 0x3750 JUMP JUMPDEST PUSH1 0x16 SSTORE POP SWAP4 POP SWAP4 SWAP2 POP POP JUMP JUMPDEST PUSH1 0x11 SLOAD PUSH1 0x0 PUSH8 0xDE0B6B3A7640000 DUP4 GT ISZERO PUSH2 0x2663 JUMPI PUSH2 0x2663 PUSH2 0x387D JUMP JUMPDEST PUSH1 0x0 PUSH2 0x2677 DUP5 PUSH8 0xDE0B6B3A7640000 PUSH2 0x3750 JUMP JUMPDEST PUSH1 0x12 SLOAD PUSH1 0x1 PUSH1 0x1 PUSH1 0x80 SHL SUB PUSH1 0x1 PUSH1 0x80 SHL DUP3 DIV DUP2 AND PUSH1 0x0 DUP2 DUP2 MSTORE PUSH1 0x13 PUSH1 0x20 SWAP1 DUP2 MSTORE PUSH1 0x40 DUP1 DUP4 KECCAK256 SWAP5 SWAP1 SWAP6 AND DUP1 DUP4 MSTORE SWAP4 SWAP1 MSTORE SWAP3 DUP4 KECCAK256 SLOAD SWAP4 SWAP5 POP SWAP1 SWAP3 SWAP1 SWAP2 PUSH2 0x26BB DUP8 DUP11 PUSH2 0x37C4 JUMP JUMPDEST SWAP1 POP PUSH1 0x0 PUSH2 0x26C9 DUP3 DUP5 PUSH2 0x3763 JUMP JUMPDEST PUSH1 0x1 PUSH1 0x1 PUSH1 0x80 SHL SUB DUP6 DUP2 AND PUSH1 0x0 DUP2 DUP2 MSTORE PUSH1 0x13 PUSH1 0x20 SWAP1 DUP2 MSTORE PUSH1 0x40 DUP1 DUP4 KECCAK256 SWAP5 DUP12 AND DUP1 DUP5 MSTORE SWAP5 DUP3 MSTORE SWAP2 DUP3 SWAP1 KECCAK256 DUP6 SWAP1 SSTORE DUP2 MLOAD DUP6 DUP2 MSTORE SWAP1 DUP2 ADD SWAP3 SWAP1 SWAP3 MSTORE DUP2 ADD SWAP2 SWAP1 SWAP2 MSTORE SWAP1 SWAP2 POP PUSH32 0xE12E2CD2C9AFA8069203CA07E7EFF1EDCE4A075686D0736A8E7E0D593597B207 SWAP1 PUSH1 0x60 ADD PUSH1 0x40 MLOAD DUP1 SWAP2 SUB SWAP1 LOG1 DUP6 PUSH1 0x0 SUB PUSH2 0x27FC JUMPI PUSH2 0x2753 PUSH1 0x1 PUSH1 0x1 PUSH1 0x80 SHL SUB DUP6 AND PUSH1 0x1 PUSH2 0x346A JUMP JUMPDEST PUSH1 0x12 DUP1 SLOAD PUSH1 0x1 PUSH1 0x1 PUSH1 0x80 SHL SUB SWAP1 DUP2 AND PUSH1 0x1 PUSH1 0x80 SHL SWAP4 DUP3 AND DUP5 MUL OR SWAP2 DUP3 SWAP1 SSTORE PUSH1 0x40 MLOAD SWAP3 SWAP1 SWAP2 DIV AND DUP2 MSTORE PUSH32 0xB50F0F59E7CB5B421DC77581C3A9919E3806E076E5FA78A874C3F120CB7D874D SWAP1 PUSH1 0x20 ADD PUSH1 0x40 MLOAD DUP1 SWAP2 SUB SWAP1 LOG1 PUSH1 0x12 DUP1 SLOAD PUSH1 0x1 PUSH1 0x1 PUSH1 0x80 SHL SUB NOT AND SWAP1 SSTORE PUSH1 0x40 MLOAD PUSH1 0x0 DUP2 MSTORE PUSH32 0x1F9DFC70CD666ADB18A39D60A797518F7B4FEBF4B6E24EF37D44F6E1E7219FBE SWAP1 PUSH1 0x20 ADD PUSH1 0x40 MLOAD DUP1 SWAP2 SUB SWAP1 LOG1 PUSH8 0xDE0B6B3A7640000 SWAP7 POP PUSH2 0x28DD JUMP JUMPDEST PUSH4 0x3B9ACA00 PUSH8 0xDE0B6B3A7640000 PUSH2 0x2814 DUP9 DUP12 PUSH2 0x37C4 JUMP JUMPDEST PUSH2 0x281E SWAP2 SWAP1 PUSH2 0x37DB JUMP JUMPDEST LT ISZERO PUSH2 0x28BD JUMPI PUSH8 0xDE0B6B3A7640000 PUSH4 0x3B9ACA00 PUSH2 0x283C DUP9 DUP12 PUSH2 0x37C4 JUMP JUMPDEST PUSH2 0x2846 SWAP2 SWAP1 PUSH2 0x37C4 JUMP JUMPDEST PUSH2 0x2850 SWAP2 SWAP1 PUSH2 0x37DB JUMP JUMPDEST SWAP7 POP PUSH2 0x2866 PUSH1 0x1 PUSH1 0x1 PUSH1 0x80 SHL SUB DUP7 AND PUSH1 0x1 PUSH2 0x346A JUMP JUMPDEST PUSH1 0x12 DUP1 SLOAD PUSH1 0x1 PUSH1 0x1 PUSH1 0x80 SHL SUB NOT AND PUSH1 0x1 PUSH1 0x1 PUSH1 0x80 SHL SUB SWAP3 SWAP1 SWAP3 AND SWAP2 DUP3 OR SWAP1 SSTORE PUSH1 0x40 MLOAD SWAP1 DUP2 MSTORE PUSH32 0x1F9DFC70CD666ADB18A39D60A797518F7B4FEBF4B6E24EF37D44F6E1E7219FBE SWAP1 PUSH1 0x20 ADD PUSH1 0x40 MLOAD DUP1 SWAP2 SUB SWAP1 LOG1 PUSH2 0x28DD JUMP JUMPDEST PUSH8 0xDE0B6B3A7640000 PUSH2 0x28D0 DUP8 DUP11 PUSH2 0x37C4 JUMP JUMPDEST PUSH2 0x28DA SWAP2 SWAP1 PUSH2 0x37DB JUMP JUMPDEST SWAP7 POP JUMPDEST PUSH1 0x0 DUP8 GT PUSH2 0x28ED JUMPI PUSH2 0x28ED PUSH2 0x387D JUMP JUMPDEST PUSH1 0x11 DUP8 SWAP1 SSTORE PUSH1 0x40 MLOAD DUP8 DUP2 MSTORE PUSH32 0xC1A9618CB59EBCA77CBDBC2949F126823C407FF13EDB285FD0262519A9C18E8C SWAP1 PUSH1 0x20 ADD PUSH1 0x40 MLOAD DUP1 SWAP2 SUB SWAP1 LOG1 POP POP POP POP POP POP POP POP POP POP JUMP JUMPDEST PUSH1 0x0 SLOAD PUSH1 0x40 MLOAD PUSH4 0x71B32B5 PUSH1 0xE3 SHL DUP2 MSTORE PUSH1 0x4 DUP2 ADD DUP4 SWAP1 MSTORE PUSH1 0x1 PUSH1 0x1 PUSH1 0xA0 SHL SUB SWAP1 SWAP2 AND SWAP1 DUP2 SWAP1 PUSH4 0x38D995A8 SWAP1 PUSH1 0x24 ADD PUSH1 0x0 PUSH1 0x40 MLOAD DUP1 DUP4 SUB DUP2 PUSH1 0x0 DUP8 DUP1 EXTCODESIZE ISZERO DUP1 ISZERO PUSH2 0x2979 JUMPI PUSH1 0x0 DUP1 REVERT JUMPDEST POP GAS CALL ISZERO DUP1 ISZERO PUSH2 0x298D JUMPI RETURNDATASIZE PUSH1 0x0 DUP1 RETURNDATACOPY RETURNDATASIZE PUSH1 0x0 REVERT JUMPDEST POP POP POP POP PUSH2 0x299A DUP3 PUSH2 0x341B JUMP JUMPDEST PUSH1 0x6 SLOAD PUSH1 0x40 MLOAD PUSH4 0x2770A7EB PUSH1 0xE2 SHL DUP2 MSTORE ADDRESS PUSH1 0x4 DUP3 ADD MSTORE PUSH1 0x24 DUP2 ADD DUP5 SWAP1 MSTORE PUSH1 0x1 PUSH1 0x1 PUSH1 0xA0 SHL SUB SWAP1 SWAP2 AND SWAP1 PUSH4 0x9DC29FAC SWAP1 PUSH1 0x44 ADD PUSH1 0x0 PUSH1 0x40 MLOAD DUP1 DUP4 SUB DUP2 PUSH1 0x0 DUP8 DUP1 EXTCODESIZE ISZERO DUP1 ISZERO PUSH2 0x29E6 JUMPI PUSH1 0x0 DUP1 REVERT JUMPDEST POP GAS CALL ISZERO DUP1 ISZERO PUSH2 0x29FA JUMPI RETURNDATASIZE PUSH1 0x0 DUP1 RETURNDATACOPY RETURNDATASIZE PUSH1 0x0 REVERT JUMPDEST POP POP PUSH1 0x40 MLOAD PUSH4 0x64A197F3 PUSH1 0xE0 SHL DUP2 MSTORE ADDRESS PUSH1 0x4 DUP3 ADD MSTORE PUSH1 0x24 DUP2 ADD DUP7 SWAP1 MSTORE PUSH1 0x1 PUSH1 0x1 PUSH1 0xA0 SHL SUB DUP5 AND SWAP3 POP PUSH4 0x64A197F3 SWAP2 POP PUSH1 0x44 ADD PUSH1 0x0 PUSH1 0x40 MLOAD DUP1 DUP4 SUB DUP2 PUSH1 0x0 DUP8 DUP1 EXTCODESIZE ISZERO DUP1 ISZERO PUSH2 0x2A46 JUMPI PUSH1 0x0 DUP1 REVERT JUMPDEST POP GAS CALL ISZERO DUP1 ISZERO PUSH2 0x2A5A JUMPI RETURNDATASIZE PUSH1 0x0 DUP1 RETURNDATACOPY RETURNDATASIZE PUSH1 0x0 REVERT JUMPDEST POP POP POP POP POP POP POP JUMP JUMPDEST PUSH1 0x80 DUP2 ADD MLOAD PUSH1 0x60 DUP3 ADD MLOAD DUP3 MLOAD PUSH1 0x20 DUP1 DUP6 ADD MLOAD PUSH1 0x1 PUSH1 0x1 PUSH1 0x80 SHL SUB DUP1 DUP7 AND PUSH1 0x0 SWAP1 DUP2 MSTORE PUSH1 0x13 DUP5 MSTORE PUSH1 0x40 DUP1 DUP3 KECCAK256 SWAP3 DUP8 AND DUP3 MSTORE SWAP2 SWAP1 SWAP4 MSTORE DUP3 KECCAK256 SLOAD SWAP2 SWAP5 SWAP4 SWAP3 SWAP2 DUP6 SWAP1 PUSH2 0x2AAC SWAP1 DUP5 SWAP1 PUSH2 0x3750 JUMP JUMPDEST PUSH1 0x1 PUSH1 0x1 PUSH1 0x80 SHL SUB DUP7 AND PUSH1 0x0 SWAP1 DUP2 MSTORE PUSH1 0x13 PUSH1 0x20 MSTORE PUSH1 0x40 DUP2 KECCAK256 SWAP2 SWAP3 POP SWAP1 PUSH4 0x3B9ACA00 SWAP1 DUP3 PUSH2 0x2ADA DUP9 PUSH1 0x1 PUSH2 0x3893 JUMP JUMPDEST PUSH1 0x1 PUSH1 0x1 PUSH1 0x80 SHL SUB AND PUSH1 0x1 PUSH1 0x1 PUSH1 0x80 SHL SUB AND DUP2 MSTORE PUSH1 0x20 ADD SWAP1 DUP2 MSTORE PUSH1 0x20 ADD PUSH1 0x0 KECCAK256 SLOAD PUSH2 0x2B05 SWAP2 SWAP1 PUSH2 0x37DB JUMP JUMPDEST SWAP1 POP PUSH1 0x0 PUSH8 0xDE0B6B3A7640000 DUP5 PUSH2 0x2B1D DUP5 DUP7 PUSH2 0x3763 JUMP JUMPDEST PUSH2 0x2B27 SWAP1 DUP14 PUSH2 0x37C4 JUMP JUMPDEST PUSH2 0x2B31 SWAP2 SWAP1 PUSH2 0x37DB JUMP JUMPDEST PUSH2 0x2B3B SWAP2 SWAP1 PUSH2 0x37DB JUMP JUMPDEST SWAP11 SWAP10 POP POP POP POP POP POP POP POP POP POP JUMP JUMPDEST PUSH1 0x1 PUSH1 0x1 PUSH1 0xA0 SHL SUB DUP2 AND PUSH1 0x0 SWAP1 DUP2 MSTORE PUSH1 0xE PUSH1 0x20 MSTORE PUSH1 0x40 SWAP1 KECCAK256 PUSH1 0x1 ADD SLOAD PUSH1 0xFF AND ISZERO PUSH2 0x1272 JUMPI PUSH1 0x40 MLOAD PUSH3 0x461BCD PUSH1 0xE5 SHL DUP2 MSTORE PUSH1 0x20 PUSH1 0x4 DUP3 ADD MSTORE PUSH1 0x39 PUSH1 0x24 DUP3 ADD MSTORE PUSH32 0x53746162696C697479506F6F6C3A206D757374206E6F7420616C726561647920 PUSH1 0x44 DUP3 ADD MSTORE PUSH32 0x6265206120726567697374657265642066726F6E7420656E6400000000000000 PUSH1 0x64 DUP3 ADD MSTORE PUSH1 0x84 ADD PUSH2 0xE53 JUMP JUMPDEST PUSH1 0x1 PUSH1 0x1 PUSH1 0xA0 SHL SUB DUP2 AND PUSH1 0x0 SWAP1 DUP2 MSTORE PUSH1 0xC PUSH1 0x20 MSTORE PUSH1 0x40 SWAP1 KECCAK256 SLOAD DUP1 ISZERO PUSH2 0x1E42 JUMPI PUSH1 0x40 MLOAD PUSH3 0x461BCD PUSH1 0xE5 SHL DUP2 MSTORE PUSH1 0x20 PUSH1 0x4 DUP3 ADD MSTORE PUSH1 0x28 PUSH1 0x24 DUP3 ADD MSTORE PUSH32 0x53746162696C697479506F6F6C3A2055736572206D7573742068617665206E6F PUSH1 0x44 DUP3 ADD MSTORE PUSH8 0x819195C1BDCDA5D PUSH1 0xC2 SHL PUSH1 0x64 DUP3 ADD MSTORE PUSH1 0x84 ADD PUSH2 0xE53 JUMP JUMPDEST PUSH8 0xDE0B6B3A7640000 DUP2 GT ISZERO PUSH2 0x1272 JUMPI PUSH1 0x40 MLOAD PUSH3 0x461BCD PUSH1 0xE5 SHL DUP2 MSTORE PUSH1 0x20 PUSH1 0x4 DUP3 ADD MSTORE PUSH1 0x33 PUSH1 0x24 DUP3 ADD MSTORE PUSH32 0x53746162696C697479506F6F6C3A204B69636B6261636B2072617465206D7573 PUSH1 0x44 DUP3 ADD MSTORE PUSH19 0x7420626520696E2072616E6765205B302C315D PUSH1 0x68 SHL PUSH1 0x64 DUP3 ADD MSTORE PUSH1 0x84 ADD PUSH2 0xE53 JUMP JUMPDEST PUSH1 0x1 PUSH1 0x1 PUSH1 0xA0 SHL SUB DUP2 AND PUSH1 0x0 SWAP1 DUP2 MSTORE PUSH1 0xE PUSH1 0x20 MSTORE PUSH1 0x40 SWAP1 KECCAK256 PUSH1 0x1 ADD SLOAD PUSH1 0xFF AND DUP1 PUSH2 0x2CF8 JUMPI POP PUSH1 0x1 PUSH1 0x1 PUSH1 0xA0 SHL SUB DUP2 AND ISZERO JUMPDEST PUSH2 0x1272 JUMPI PUSH1 0x40 MLOAD PUSH3 0x461BCD PUSH1 0xE5 SHL DUP2 MSTORE PUSH1 0x20 PUSH1 0x4 DUP3 ADD MSTORE PUSH1 0x46 PUSH1 0x24 DUP3 ADD MSTORE PUSH32 0x53746162696C697479506F6F6C3A20546167206D757374206265206120726567 PUSH1 0x44 DUP3 ADD MSTORE PUSH32 0x697374657265642066726F6E7420656E642C206F7220746865207A65726F2061 PUSH1 0x64 DUP3 ADD MSTORE PUSH6 0x646472657373 PUSH1 0xD0 SHL PUSH1 0x84 DUP3 ADD MSTORE PUSH1 0xA4 ADD PUSH2 0xE53 JUMP JUMPDEST PUSH1 0x0 DUP2 GT PUSH2 0x1272 JUMPI PUSH1 0x40 MLOAD PUSH3 0x461BCD PUSH1 0xE5 SHL DUP2 MSTORE PUSH1 0x20 PUSH1 0x4 DUP3 ADD MSTORE PUSH1 0x26 PUSH1 0x24 DUP3 ADD MSTORE PUSH32 0x53746162696C697479506F6F6C3A20416D6F756E74206D757374206265206E6F PUSH1 0x44 DUP3 ADD MSTORE PUSH6 0x6E2D7A65726F PUSH1 0xD0 SHL PUSH1 0x64 DUP3 ADD MSTORE PUSH1 0x84 ADD PUSH2 0xE53 JUMP JUMPDEST PUSH1 0x1 PUSH1 0x1 PUSH1 0xA0 SHL SUB DUP3 DUP2 AND PUSH1 0x0 DUP2 DUP2 MSTORE PUSH1 0xC PUSH1 0x20 MSTORE PUSH1 0x40 DUP1 DUP3 KECCAK256 PUSH1 0x1 ADD DUP1 SLOAD PUSH1 0x1 PUSH1 0x1 PUSH1 0xA0 SHL SUB NOT AND SWAP5 DUP7 AND SWAP5 DUP6 OR SWAP1 SSTORE MLOAD PUSH32 0x94C08E96A8890877A8390B4F967180A7507AD8622244D05FCD0F9F8E086564E SWAP2 SWAP1 LOG3 POP POP JUMP JUMPDEST PUSH1 0x6 SLOAD PUSH1 0x40 MLOAD PUSH4 0x2EE65EEB PUSH1 0xE2 SHL DUP2 MSTORE PUSH1 0x1 PUSH1 0x1 PUSH1 0xA0 SHL SUB DUP5 DUP2 AND PUSH1 0x4 DUP4 ADD MSTORE ADDRESS PUSH1 0x24 DUP4 ADD MSTORE PUSH1 0x44 DUP3 ADD DUP5 SWAP1 MSTORE SWAP1 SWAP2 AND SWAP1 PUSH4 0xBB997BAC SWAP1 PUSH1 0x64 ADD PUSH1 0x0 PUSH1 0x40 MLOAD DUP1 DUP4 SUB DUP2 PUSH1 0x0 DUP8 DUP1 EXTCODESIZE ISZERO DUP1 ISZERO PUSH2 0x2E86 JUMPI PUSH1 0x0 DUP1 REVERT JUMPDEST POP GAS CALL ISZERO DUP1 ISZERO PUSH2 0x2E9A JUMPI RETURNDATASIZE PUSH1 0x0 DUP1 RETURNDATACOPY RETURNDATASIZE PUSH1 0x0 REVERT JUMPDEST POP POP POP POP PUSH1 0x0 DUP2 PUSH1 0xB SLOAD PUSH2 0x2EAE SWAP2 SWAP1 PUSH2 0x3763 JUMP JUMPDEST PUSH1 0xB DUP2 SWAP1 SSTORE PUSH1 0x40 MLOAD DUP2 DUP2 MSTORE SWAP1 SWAP2 POP PUSH32 0xA8E886449D8F7E765877B4A4F54632DA3943AE454D5A272BDCCB1781F086FF29 SWAP1 PUSH1 0x20 ADD PUSH1 0x40 MLOAD DUP1 SWAP2 SUB SWAP1 LOG1 POP POP POP JUMP JUMPDEST PUSH1 0x0 DUP1 PUSH2 0x2EFB DUP4 DUP6 PUSH2 0x3763 JUMP JUMPDEST SWAP1 POP DUP4 DUP2 LT ISZERO PUSH2 0x1E57 JUMPI PUSH1 0x40 MLOAD PUSH3 0x461BCD PUSH1 0xE5 SHL DUP2 MSTORE PUSH1 0x20 PUSH1 0x4 DUP3 ADD MSTORE PUSH1 0x1B PUSH1 0x24 DUP3 ADD MSTORE PUSH32 0x536166654D6174683A206164646974696F6E206F766572666C6F770000000000 PUSH1 0x44 DUP3 ADD MSTORE PUSH1 0x64 ADD PUSH2 0xE53 JUMP JUMPDEST PUSH1 0x0 SLOAD PUSH1 0x1 PUSH1 0x1 PUSH1 0xA0 SHL SUB AND CALLER EQ PUSH2 0x256F JUMPI PUSH1 0x40 MLOAD PUSH3 0x461BCD PUSH1 0xE5 SHL DUP2 MSTORE PUSH1 0x20 PUSH1 0x4 DUP3 ADD MSTORE PUSH1 0x27 PUSH1 0x24 DUP3 ADD MSTORE PUSH32 0x53746162696C697479506F6F6C3A2043616C6C6572206973206E6F7420416374 PUSH1 0x44 DUP3 ADD MSTORE PUSH7 0x1A5D99541BDBDB PUSH1 0xCA SHL PUSH1 0x64 DUP3 ADD MSTORE PUSH1 0x84 ADD PUSH2 0xE53 JUMP JUMPDEST PUSH1 0x1 PUSH1 0x1 PUSH1 0xA0 SHL SUB DUP2 AND PUSH2 0x300D JUMPI PUSH1 0x40 MLOAD PUSH3 0x461BCD PUSH1 0xE5 SHL DUP2 MSTORE PUSH1 0x20 PUSH1 0x4 DUP3 ADD MSTORE PUSH1 0x1E PUSH1 0x24 DUP3 ADD MSTORE PUSH32 0x4163636F756E742063616E6E6F74206265207A65726F20616464726573730000 PUSH1 0x44 DUP3 ADD MSTORE PUSH1 0x64 ADD PUSH2 0xE53 JUMP JUMPDEST DUP1 EXTCODESIZE DUP1 PUSH2 0x1E42 JUMPI PUSH1 0x40 MLOAD PUSH3 0x461BCD PUSH1 0xE5 SHL DUP2 MSTORE PUSH1 0x20 PUSH1 0x4 DUP3 ADD DUP2 SWAP1 MSTORE PUSH1 0x24 DUP3 ADD MSTORE PUSH32 0x4163636F756E7420636F64652073697A652063616E6E6F74206265207A65726F PUSH1 0x44 DUP3 ADD MSTORE PUSH1 0x64 ADD PUSH2 0xE53 JUMP JUMPDEST PUSH1 0x3 SLOAD PUSH1 0x40 MLOAD PUSH1 0x0 SWAP2 PUSH1 0x1 PUSH1 0x1 PUSH1 0xA0 SHL SUB AND SWAP1 PUSH32 0x8BE0079C531659141344CD1FD0A4F28419497F9722A3DAAFE3B4186F6B6457E0 SWAP1 DUP4 SWAP1 LOG3 PUSH1 0x3 DUP1 SLOAD PUSH1 0x1 PUSH1 0x1 PUSH1 0xA0 SHL SUB NOT AND SWAP1 SSTORE JUMP JUMPDEST PUSH1 0x80 DUP2 ADD MLOAD PUSH1 0x60 DUP3 ADD MLOAD PUSH1 0x40 DUP1 DUP5 ADD MLOAD PUSH1 0x20 DUP1 DUP7 ADD MLOAD PUSH1 0x1 PUSH1 0x1 PUSH1 0x80 SHL SUB DUP1 DUP8 AND PUSH1 0x0 SWAP1 DUP2 MSTORE PUSH1 0x14 DUP5 MSTORE DUP6 DUP2 KECCAK256 SWAP2 DUP8 AND DUP2 MSTORE SWAP3 MSTORE SWAP3 DUP2 KECCAK256 SLOAD SWAP1 SWAP5 SWAP4 SWAP3 SWAP1 DUP6 SWAP1 PUSH2 0x30F0 SWAP1 DUP5 SWAP1 PUSH2 0x3750 JUMP JUMPDEST PUSH1 0x1 PUSH1 0x1 PUSH1 0x80 SHL SUB DUP7 AND PUSH1 0x0 SWAP1 DUP2 MSTORE PUSH1 0x14 PUSH1 0x20 MSTORE PUSH1 0x40 DUP2 KECCAK256 SWAP2 SWAP3 POP SWAP1 PUSH4 0x3B9ACA00 SWAP1 DUP3 PUSH2 0x2ADA DUP9 PUSH1 0x1 PUSH2 0x3893 JUMP JUMPDEST PUSH1 0x5 SLOAD PUSH1 0x40 MLOAD PUSH4 0x21E37801 PUSH1 0xE0 SHL DUP2 MSTORE PUSH1 0x1 PUSH1 0x1 PUSH1 0xA0 SHL SUB DUP4 DUP2 AND PUSH1 0x4 DUP4 ADD MSTORE SWAP1 SWAP2 AND SWAP1 PUSH4 0x21E37801 SWAP1 PUSH1 0x24 ADD PUSH1 0x20 PUSH1 0x40 MLOAD DUP1 DUP4 SUB DUP2 DUP7 GAS STATICCALL ISZERO DUP1 ISZERO PUSH2 0x3168 JUMPI RETURNDATASIZE PUSH1 0x0 DUP1 RETURNDATACOPY RETURNDATASIZE PUSH1 0x0 REVERT JUMPDEST POP POP POP POP PUSH1 0x40 MLOAD RETURNDATASIZE PUSH1 0x1F NOT PUSH1 0x1F DUP3 ADD AND DUP3 ADD DUP1 PUSH1 0x40 MSTORE POP DUP2 ADD SWAP1 PUSH2 0x318C SWAP2 SWAP1 PUSH2 0x37AB JUMP JUMPDEST PUSH1 0x1 EQ PUSH2 0x1272 JUMPI PUSH1 0x40 MLOAD PUSH3 0x461BCD PUSH1 0xE5 SHL DUP2 MSTORE PUSH1 0x20 PUSH1 0x4 DUP3 ADD MSTORE PUSH1 0x46 PUSH1 0x24 DUP3 ADD MSTORE PUSH32 0x53746162696C697479506F6F6C3A2063616C6C6572206D757374206861766520 PUSH1 0x44 DUP3 ADD MSTORE PUSH32 0x616E206163746976652074726F766520746F2077697468647261772045544847 PUSH1 0x64 DUP3 ADD MSTORE PUSH6 0x61696E20746F PUSH1 0xD0 SHL PUSH1 0x84 DUP3 ADD MSTORE PUSH1 0xA4 ADD PUSH2 0xE53 JUMP JUMPDEST PUSH1 0x0 PUSH2 0x321B DUP3 PUSH2 0xB71 JUMP JUMPDEST SWAP1 POP PUSH1 0x0 DUP2 GT PUSH2 0x1E42 JUMPI PUSH1 0x40 MLOAD PUSH3 0x461BCD PUSH1 0xE5 SHL DUP2 MSTORE PUSH1 0x20 PUSH1 0x4 DUP3 ADD MSTORE PUSH1 0x31 PUSH1 0x24 DUP3 ADD MSTORE PUSH32 0x53746162696C697479506F6F6C3A2063616C6C6572206D757374206861766520 PUSH1 0x44 DUP3 ADD MSTORE PUSH17 0x3737B716BD32B9379022AA241023B0B4B7 PUSH1 0x79 SHL PUSH1 0x64 DUP3 ADD MSTORE PUSH1 0x84 ADD PUSH2 0xE53 JUMP JUMPDEST PUSH1 0x0 DUP3 PUSH1 0x1 PUSH1 0x1 PUSH1 0x80 SHL SUB AND DUP3 PUSH1 0x1 PUSH1 0x1 PUSH1 0x80 SHL SUB AND GT ISZERO PUSH2 0x32FC JUMPI PUSH1 0x40 MLOAD PUSH3 0x461BCD PUSH1 0xE5 SHL DUP2 MSTORE PUSH1 0x20 PUSH1 0x4 DUP3 ADD MSTORE PUSH1 0x28 PUSH1 0x24 DUP3 ADD MSTORE PUSH32 0x4C697175697479536166654D6174683132383A207375627472616374696F6E20 PUSH1 0x44 DUP3 ADD MSTORE PUSH8 0x6F766572666C6F77 PUSH1 0xC0 SHL PUSH1 0x64 DUP3 ADD MSTORE PUSH1 0x84 ADD PUSH2 0xE53 JUMP JUMPDEST PUSH1 0x0 PUSH2 0x3308 DUP4 DUP6 PUSH2 0x38BA JUMP JUMPDEST SWAP5 SWAP4 POP POP POP POP JUMP JUMPDEST PUSH1 0xB SLOAD DUP1 ISZERO DUP1 PUSH2 0x331E JUMPI POP DUP2 ISZERO JUMPDEST ISZERO PUSH2 0x3327 JUMPI POP POP JUMP JUMPDEST PUSH1 0x0 PUSH2 0x3333 DUP4 DUP4 PUSH2 0x34E9 JUMP JUMPDEST SWAP1 POP PUSH1 0x0 PUSH1 0x11 SLOAD DUP3 PUSH2 0x3345 SWAP2 SWAP1 PUSH2 0x37C4 JUMP JUMPDEST PUSH1 0x12 SLOAD PUSH1 0x1 PUSH1 0x1 PUSH1 0x80 SHL SUB PUSH1 0x1 PUSH1 0x80 SHL DUP3 DIV DUP2 AND PUSH1 0x0 SWAP1 DUP2 MSTORE PUSH1 0x14 PUSH1 0x20 SWAP1 DUP2 MSTORE PUSH1 0x40 DUP1 DUP4 KECCAK256 SWAP4 SWAP1 SWAP5 AND DUP3 MSTORE SWAP2 SWAP1 SWAP2 MSTORE KECCAK256 SLOAD SWAP1 SWAP2 POP PUSH2 0x3384 SWAP1 DUP3 SWAP1 PUSH2 0x3763 JUMP JUMPDEST PUSH1 0x12 DUP1 SLOAD PUSH1 0x1 PUSH1 0x80 SHL DUP1 DUP3 DIV PUSH1 0x1 PUSH1 0x1 PUSH1 0x80 SHL SUB SWAP1 DUP2 AND PUSH1 0x0 SWAP1 DUP2 MSTORE PUSH1 0x14 PUSH1 0x20 DUP2 DUP2 MSTORE PUSH1 0x40 DUP1 DUP5 KECCAK256 SWAP7 DUP6 AND DUP5 MSTORE SWAP6 DUP2 MSTORE DUP6 DUP4 KECCAK256 SWAP8 SWAP1 SWAP8 SSTORE SWAP5 SLOAD SWAP3 DUP4 DIV DUP3 AND DUP1 DUP3 MSTORE SWAP5 DUP7 MSTORE DUP4 DUP2 KECCAK256 SWAP3 SWAP1 SWAP2 AND DUP1 DUP3 MSTORE SWAP2 DUP6 MSTORE DUP3 SWAP1 KECCAK256 SLOAD DUP3 MLOAD SWAP1 DUP2 MSTORE SWAP4 DUP5 ADD SWAP3 SWAP1 SWAP3 MSTORE DUP3 ADD MSTORE PUSH32 0x2D6127771B164A9CC8827D24B5955DB2A77E7A81DAC389107EBB8BCE9FB64968 SWAP1 PUSH1 0x60 ADD PUSH1 0x40 MLOAD DUP1 SWAP2 SUB SWAP1 LOG1 POP POP POP POP JUMP JUMPDEST PUSH1 0x0 DUP2 PUSH1 0xB SLOAD PUSH2 0x342B SWAP2 SWAP1 PUSH2 0x3750 JUMP JUMPDEST PUSH1 0xB DUP2 SWAP1 SSTORE PUSH1 0x40 MLOAD DUP2 DUP2 MSTORE SWAP1 SWAP2 POP PUSH32 0xA8E886449D8F7E765877B4A4F54632DA3943AE454D5A272BDCCB1781F086FF29 SWAP1 PUSH1 0x20 ADD PUSH1 0x40 MLOAD DUP1 SWAP2 SUB SWAP1 LOG1 POP POP JUMP JUMPDEST PUSH1 0x0 DUP1 PUSH2 0x3477 DUP4 DUP6 PUSH2 0x3893 JUMP JUMPDEST SWAP1 POP DUP4 PUSH1 0x1 PUSH1 0x1 PUSH1 0x80 SHL SUB AND DUP2 PUSH1 0x1 PUSH1 0x1 PUSH1 0x80 SHL SUB AND LT ISZERO PUSH2 0x1E57 JUMPI PUSH1 0x40 MLOAD PUSH3 0x461BCD PUSH1 0xE5 SHL DUP2 MSTORE PUSH1 0x20 PUSH1 0x4 DUP3 ADD MSTORE PUSH1 0x25 PUSH1 0x24 DUP3 ADD MSTORE PUSH32 0x4C697175697479536166654D6174683132383A206164646974696F6E206F7665 PUSH1 0x44 DUP3 ADD MSTORE PUSH5 0x72666C6F77 PUSH1 0xD8 SHL PUSH1 0x64 DUP3 ADD MSTORE PUSH1 0x84 ADD PUSH2 0xE53 JUMP JUMPDEST PUSH1 0x0 DUP1 PUSH1 0x15 SLOAD PUSH8 0xDE0B6B3A7640000 DUP6 PUSH2 0x3503 SWAP2 SWAP1 PUSH2 0x37C4 JUMP JUMPDEST PUSH2 0x350D SWAP2 SWAP1 PUSH2 0x3763 JUMP JUMPDEST SWAP1 POP PUSH1 0x0 PUSH2 0x351B DUP5 DUP4 PUSH2 0x37DB JUMP JUMPDEST SWAP1 POP PUSH2 0x3527 DUP5 DUP3 PUSH2 0x37C4 JUMP JUMPDEST PUSH2 0x3531 SWAP1 DUP4 PUSH2 0x3750 JUMP JUMPDEST PUSH1 0x15 SSTORE SWAP5 SWAP4 POP POP POP POP JUMP JUMPDEST PUSH1 0x1 PUSH1 0x1 PUSH1 0xA0 SHL SUB DUP2 AND DUP2 EQ PUSH2 0x1272 JUMPI PUSH1 0x0 DUP1 REVERT JUMPDEST PUSH1 0x0 PUSH1 0x20 DUP3 DUP5 SUB SLT ISZERO PUSH2 0x3563 JUMPI PUSH1 0x0 DUP1 REVERT JUMPDEST DUP2 CALLDATALOAD PUSH2 0x1E57 DUP2 PUSH2 0x353C JUMP JUMPDEST DUP1 CALLDATALOAD PUSH1 0x1 PUSH1 0x1 PUSH1 0x80 SHL SUB DUP2 AND DUP2 EQ PUSH2 0x3585 JUMPI PUSH1 0x0 DUP1 REVERT JUMPDEST SWAP2 SWAP1 POP JUMP JUMPDEST PUSH1 0x0 DUP1 PUSH1 0x40 DUP4 DUP6 SUB SLT ISZERO PUSH2 0x359D JUMPI PUSH1 0x0 DUP1 REVERT JUMPDEST PUSH2 0x35A6 DUP4 PUSH2 0x356E JUMP JUMPDEST SWAP2 POP PUSH2 0x35B4 PUSH1 0x20 DUP5 ADD PUSH2 0x356E JUMP JUMPDEST SWAP1 POP SWAP3 POP SWAP3 SWAP1 POP JUMP JUMPDEST PUSH1 0x0 PUSH1 0x20 DUP3 DUP5 SUB SLT ISZERO PUSH2 0x35CF JUMPI PUSH1 0x0 DUP1 REVERT JUMPDEST POP CALLDATALOAD SWAP2 SWAP1 POP JUMP JUMPDEST PUSH1 0x0 DUP1 PUSH1 0x40 DUP4 DUP6 SUB SLT ISZERO PUSH2 0x35E9 JUMPI PUSH1 0x0 DUP1 REVERT JUMPDEST POP POP DUP1 CALLDATALOAD SWAP3 PUSH1 0x20 SWAP1 SWAP2 ADD CALLDATALOAD SWAP2 POP JUMP JUMPDEST PUSH1 0x0 DUP1 PUSH1 0x40 DUP4 DUP6 SUB SLT ISZERO PUSH2 0x360B JUMPI PUSH1 0x0 DUP1 REVERT JUMPDEST DUP3 CALLDATALOAD SWAP2 POP PUSH1 0x20 DUP4 ADD CALLDATALOAD PUSH2 0x361D DUP2 PUSH2 0x353C JUMP JUMPDEST DUP1 SWAP2 POP POP SWAP3 POP SWAP3 SWAP1 POP JUMP JUMPDEST PUSH1 0x0 PUSH1 0x20 DUP1 DUP4 MSTORE DUP4 MLOAD DUP1 DUP3 DUP6 ADD MSTORE PUSH1 0x0 JUMPDEST DUP2 DUP2 LT ISZERO PUSH2 0x3655 JUMPI DUP6 DUP2 ADD DUP4 ADD MLOAD DUP6 DUP3 ADD PUSH1 0x40 ADD MSTORE DUP3 ADD PUSH2 0x3639 JUMP JUMPDEST POP PUSH1 0x0 PUSH1 0x40 DUP3 DUP7 ADD ADD MSTORE PUSH1 0x40 PUSH1 0x1F NOT PUSH1 0x1F DUP4 ADD AND DUP6 ADD ADD SWAP3 POP POP POP SWAP3 SWAP2 POP POP JUMP JUMPDEST PUSH1 0x0 DUP1 PUSH1 0x0 DUP1 PUSH1 0x0 DUP1 PUSH1 0x0 PUSH1 0xE0 DUP9 DUP11 SUB SLT ISZERO PUSH2 0x3691 JUMPI PUSH1 0x0 DUP1 REVERT JUMPDEST DUP8 CALLDATALOAD PUSH2 0x369C DUP2 PUSH2 0x353C JUMP JUMPDEST SWAP7 POP PUSH1 0x20 DUP9 ADD CALLDATALOAD PUSH2 0x36AC DUP2 PUSH2 0x353C JUMP JUMPDEST SWAP6 POP PUSH1 0x40 DUP9 ADD CALLDATALOAD PUSH2 0x36BC DUP2 PUSH2 0x353C JUMP JUMPDEST SWAP5 POP PUSH1 0x60 DUP9 ADD CALLDATALOAD PUSH2 0x36CC DUP2 PUSH2 0x353C JUMP JUMPDEST SWAP4 POP PUSH1 0x80 DUP9 ADD CALLDATALOAD PUSH2 0x36DC DUP2 PUSH2 0x353C JUMP JUMPDEST SWAP3 POP PUSH1 0xA0 DUP9 ADD CALLDATALOAD PUSH2 0x36EC DUP2 PUSH2 0x353C JUMP JUMPDEST SWAP2 POP PUSH1 0xC0 DUP9 ADD CALLDATALOAD PUSH2 0x36FC DUP2 PUSH2 0x353C JUMP JUMPDEST DUP1 SWAP2 POP POP SWAP3 SWAP6 SWAP9 SWAP2 SWAP5 SWAP8 POP SWAP3 SWAP6 POP JUMP JUMPDEST PUSH1 0x0 DUP1 PUSH1 0x40 DUP4 DUP6 SUB SLT ISZERO PUSH2 0x371F JUMPI PUSH1 0x0 DUP1 REVERT JUMPDEST DUP3 CALLDATALOAD PUSH2 0x372A DUP2 PUSH2 0x353C JUMP JUMPDEST SWAP2 POP PUSH1 0x20 DUP4 ADD CALLDATALOAD PUSH2 0x361D DUP2 PUSH2 0x353C JUMP JUMPDEST PUSH4 0x4E487B71 PUSH1 0xE0 SHL PUSH1 0x0 MSTORE PUSH1 0x11 PUSH1 0x4 MSTORE PUSH1 0x24 PUSH1 0x0 REVERT JUMPDEST DUP2 DUP2 SUB DUP2 DUP2 GT ISZERO PUSH2 0x1B6A JUMPI PUSH2 0x1B6A PUSH2 0x373A JUMP JUMPDEST DUP1 DUP3 ADD DUP1 DUP3 GT ISZERO PUSH2 0x1B6A JUMPI PUSH2 0x1B6A PUSH2 0x373A JUMP JUMPDEST PUSH1 0x20 DUP1 DUP3 MSTORE DUP2 DUP2 ADD MSTORE PUSH32 0x4F776E61626C653A2063616C6C6572206973206E6F7420746865206F776E6572 PUSH1 0x40 DUP3 ADD MSTORE PUSH1 0x60 ADD SWAP1 JUMP JUMPDEST PUSH1 0x0 PUSH1 0x20 DUP3 DUP5 SUB SLT ISZERO PUSH2 0x37BD JUMPI PUSH1 0x0 DUP1 REVERT JUMPDEST POP MLOAD SWAP2 SWAP1 POP JUMP JUMPDEST DUP1 DUP3 MUL DUP2 ISZERO DUP3 DUP3 DIV DUP5 EQ OR PUSH2 0x1B6A JUMPI PUSH2 0x1B6A PUSH2 0x373A JUMP JUMPDEST PUSH1 0x0 DUP3 PUSH2 0x37F8 JUMPI PUSH4 0x4E487B71 PUSH1 0xE0 SHL PUSH1 0x0 MSTORE PUSH1 0x12 PUSH1 0x4 MSTORE PUSH1 0x24 PUSH1 0x0 REVERT JUMPDEST POP DIV SWAP1 JUMP JUMPDEST PUSH1 0x0 PUSH1 0x20 DUP3 DUP5 SUB SLT ISZERO PUSH2 0x380F JUMPI PUSH1 0x0 DUP1 REVERT JUMPDEST DUP2 MLOAD DUP1 ISZERO ISZERO DUP2 EQ PUSH2 0x1E57 JUMPI PUSH1 0x0 DUP1 REVERT JUMPDEST PUSH1 0x20 DUP1 DUP3 MSTORE PUSH1 0x21 SWAP1 DUP3 ADD MSTORE PUSH32 0x53746162696C697479506F6F6C3A2073656E64696E6720455448206661696C65 PUSH1 0x40 DUP3 ADD MSTORE PUSH1 0x19 PUSH1 0xFA SHL PUSH1 0x60 DUP3 ADD MSTORE PUSH1 0x80 ADD SWAP1 JUMP JUMPDEST PUSH1 0x0 PUSH1 0x20 DUP3 DUP5 SUB SLT ISZERO PUSH2 0x3872 JUMPI PUSH1 0x0 DUP1 REVERT JUMPDEST DUP2 MLOAD PUSH2 0x1E57 DUP2 PUSH2 0x353C JUMP JUMPDEST PUSH4 0x4E487B71 PUSH1 0xE0 SHL PUSH1 0x0 MSTORE PUSH1 0x1 PUSH1 0x4 MSTORE PUSH1 0x24 PUSH1 0x0 REVERT JUMPDEST PUSH1 0x1 PUSH1 0x1 PUSH1 0x80 SHL SUB DUP2 DUP2 AND DUP4 DUP3 AND ADD SWAP1 DUP1 DUP3 GT ISZERO PUSH2 0x38B3 JUMPI PUSH2 0x38B3 PUSH2 0x373A JUMP JUMPDEST POP SWAP3 SWAP2 POP POP JUMP JUMPDEST PUSH1 0x1 PUSH1 0x1 PUSH1 0x80 SHL SUB DUP3 DUP2 AND DUP3 DUP3 AND SUB SWAP1 DUP1 DUP3 GT ISZERO PUSH2 0x38B3 JUMPI PUSH2 0x38B3 PUSH2 0x373A JUMP INVALID LOG2 PUSH5 0x6970667358 0x22 SLT KECCAK256 PUSH2 0xB6AA PUSH31 0xDAB86598D842C0EEBDBDA24AC14A0061A9348AB39F59B50C098EBB3B64736F PUSH13 0x63430008140033000000000000 "
		},
		"gasEstimates": {
			"creation": {
				"codeDepositCost": "2921600",
				"executionCost": "51074",
				"totalCost": "2972674"
			},
			"external": {
				"BORROWING_FEE_FLOOR()": "432",
				"CCR()": "275",
				"DECIMAL_PRECISION()": "296",
				"LUSD_GAS_COMPENSATION()": "319",
				"MCR()": "251",
				"MIN_NET_DEBT()": "298",
				"NAME()": "infinite",
				"P()": "2352",
				"PERCENT_DIVISOR()": "296",
				"SCALE_FACTOR()": "251",
				"WETH()": "2470",
				"_100pct()": "318",
				"activePool()": "2448",
				"admin()": "2403",
				"borrowerOperations()": "2449",
				"communityIssuance()": "2405",
				"currentEpoch()": "2444",
				"currentScale()": "2426",
				"defaultPool()": "2405",
				"depositSnapshots(address)": "9104",
				"deposits(address)": "4795",
				"epochToScaleToG(uint128,uint128)": "infinite",
				"epochToScaleToSum(uint128,uint128)": "infinite",
				"frontEndSnapshots(address)": "9105",
				"frontEndStakes(address)": "2615",
				"frontEnds(address)": "4769",
				"getCompoundedFrontEndStake(address)": "infinite",
				"getCompoundedLUSDDeposit(address)": "infinite",
				"getDepositorETHGain(address)": "infinite",
				"getDepositorLQTYGain(address)": "infinite",
				"getETH()": "2340",
				"getEntireSystemColl()": "infinite",
				"getEntireSystemDebt()": "infinite",
				"getFrontEndLQTYGain(address)": "infinite",
				"getTotalLUSDDeposits()": "2371",
				"initialize(address)": "infinite",
				"isInitialized()": "2440",
				"isOwner()": "2455",
				"lastETHError_Offset()": "2417",
				"lastLQTYError()": "2373",
				"lastLUSDLossError_Offset()": "2418",
				"lusdToken()": "2427",
				"offset(uint256,uint256)": "infinite",
				"owner()": "2443",
				"priceFeed()": "2405",
				"provideToSP(uint256,address)": "infinite",
				"receiveERC20(uint256)": "infinite",
				"registerFrontEnd(uint256)": "infinite",
				"renounceAdmin()": "26604",
				"setAddresses(address,address,address,address,address,address,address)": "infinite",
				"setAdmin(address)": "26795",
				"setPriceFeed(address)": "26817",
				"sortedTroves()": "2405",
				"troveManager()": "2427",
				"withdrawETHGainToTrove(address,address)": "infinite",
				"withdrawFromSP(uint256)": "infinite"
			},
			"internal": {
				"_computeLQTYPerUnitStaked(uint256,uint256)": "infinite",
				"_computeRewardsPerUnitStaked(uint256,uint256,uint256)": "infinite",
				"_decreaseLUSD(uint256)": "infinite",
				"_getCompoundedStakeFromSnapshots(uint256,struct StabilityPool.Snapshots memory)": "infinite",
				"_getETHGainFromSnapshots(uint256,struct StabilityPool.Snapshots memory)": "infinite",
				"_getLQTYGainFromSnapshots(uint256,struct StabilityPool.Snapshots memory)": "infinite",
				"_moveOffsetCollAndDebt(uint256,uint256)": "infinite",
				"_payOutLQTYGains(contract ICommunityIssuance,address,address)": "infinite",
				"_requireCallerIsActivePool()": "infinite",
				"_requireCallerIsTroveManager()": "infinite",
				"_requireFrontEndIsRegisteredOrZero(address)": "infinite",
				"_requireFrontEndNotRegistered(address)": "infinite",
				"_requireNoUnderCollateralizedTroves()": "infinite",
				"_requireNonZeroAmount(uint256)": "infinite",
				"_requireUserHasDeposit(uint256)": "infinite",
				"_requireUserHasETHGain(address)": "infinite",
				"_requireUserHasNoDeposit(address)": "infinite",
				"_requireUserHasTrove(address)": "infinite",
				"_requireValidKickbackRate(uint256)": "infinite",
				"_sendETHGainToDepositor(uint256)": "infinite",
				"_sendLUSDToDepositor(address,uint256)": "infinite",
				"_sendLUSDtoStabilityPool(address,uint256)": "infinite",
				"_setFrontEndTag(address,address)": "25881",
				"_triggerLQTYIssuance(contract ICommunityIssuance)": "infinite",
				"_updateDepositAndSnapshots(address,uint256)": "infinite",
				"_updateFrontEndStakeAndSnapshots(address,uint256)": "infinite",
				"_updateG(uint256)": "infinite",
				"_updateRewardSumAndProduct(uint256,uint256)": "infinite"
			}
		},
		"methodIdentifiers": {
			"BORROWING_FEE_FLOOR()": "f92d3433",
			"CCR()": "5733d58f",
			"DECIMAL_PRECISION()": "a20baee6",
			"LUSD_GAS_COMPENSATION()": "2e86bbd8",
			"MCR()": "794e5724",
			"MIN_NET_DEBT()": "1bf43555",
			"NAME()": "a3f4df7e",
			"P()": "8b8fbd92",
			"PERCENT_DIVISOR()": "4870dd9a",
			"SCALE_FACTOR()": "ce4b5bbe",
			"WETH()": "ad5c4648",
			"_100pct()": "72fe25aa",
			"activePool()": "7f7dde4a",
			"admin()": "f851a440",
			"borrowerOperations()": "77553ad4",
			"communityIssuance()": "95fb16bb",
			"currentEpoch()": "76671808",
			"currentScale()": "a4e59ac8",
			"defaultPool()": "3cc74225",
			"depositSnapshots(address)": "86da0824",
			"deposits(address)": "fc7e286d",
			"epochToScaleToG(uint128,uint128)": "82e0a574",
			"epochToScaleToSum(uint128,uint128)": "28a0a04d",
			"frontEndSnapshots(address)": "16b9d3c5",
			"frontEndStakes(address)": "5d2de642",
			"frontEnds(address)": "a7bfff97",
			"getCompoundedFrontEndStake(address)": "df9cd84f",
			"getCompoundedLUSDDeposit(address)": "1cdc4700",
			"getDepositorETHGain(address)": "389e92a5",
			"getDepositorLQTYGain(address)": "f5f1595d",
			"getETH()": "14f6c3be",
			"getEntireSystemColl()": "887105d3",
			"getEntireSystemDebt()": "795d26c3",
			"getFrontEndLQTYGain(address)": "d4ca0575",
			"getTotalLUSDDeposits()": "9bf2f1ac",
			"initialize(address)": "c4d66de8",
			"isInitialized()": "392e53cd",
			"isOwner()": "8f32d59b",
			"lastETHError_Offset()": "d7fb0443",
			"lastLQTYError()": "cef941e8",
			"lastLUSDLossError_Offset()": "538153ca",
			"lusdToken()": "b83f91a2",
			"offset(uint256,uint256)": "335525ad",
			"owner()": "8da5cb5b",
			"priceFeed()": "741bef1a",
			"provideToSP(uint256,address)": "5f788d65",
			"receiveERC20(uint256)": "81381660",
			"registerFrontEnd(uint256)": "556be101",
			"renounceAdmin()": "8bad0c0a",
			"setAddresses(address,address,address,address,address,address,address)": "eaa8ba7f",
			"setAdmin(address)": "704b6c02",
			"setPriceFeed(address)": "724e78da",
			"sortedTroves()": "ae918754",
			"troveManager()": "3d83908a",
			"withdrawETHGainToTrove(address,address)": "fda0101a",
			"withdrawFromSP(uint256)": "2e54bf95"
		}
	},
	"abi": [
		{
			"anonymous": false,
			"inputs": [
				{
					"indexed": false,
					"internalType": "address",
					"name": "_newActivePoolAddress",
					"type": "address"
				}
			],
			"name": "ActivePoolAddressChanged",
			"type": "event"
		},
		{
			"anonymous": false,
			"inputs": [
				{
					"indexed": false,
					"internalType": "address",
					"name": "_newBorrowerOperationsAddress",
					"type": "address"
				}
			],
			"name": "BorrowerOperationsAddressChanged",
			"type": "event"
		},
		{
			"anonymous": false,
			"inputs": [
				{
					"indexed": false,
					"internalType": "address",
					"name": "_newCommunityIssuanceAddress",
					"type": "address"
				}
			],
			"name": "CommunityIssuanceAddressChanged",
			"type": "event"
		},
		{
			"anonymous": false,
			"inputs": [
				{
					"indexed": false,
					"internalType": "address",
					"name": "_newDefaultPoolAddress",
					"type": "address"
				}
			],
			"name": "DefaultPoolAddressChanged",
			"type": "event"
		},
		{
			"anonymous": false,
			"inputs": [
				{
					"indexed": true,
					"internalType": "address",
					"name": "_depositor",
					"type": "address"
				},
				{
					"indexed": false,
					"internalType": "uint256",
					"name": "_P",
					"type": "uint256"
				},
				{
					"indexed": false,
					"internalType": "uint256",
					"name": "_S",
					"type": "uint256"
				},
				{
					"indexed": false,
					"internalType": "uint256",
					"name": "_G",
					"type": "uint256"
				}
			],
			"name": "DepositSnapshotUpdated",
			"type": "event"
		},
		{
			"anonymous": false,
			"inputs": [
				{
					"indexed": true,
					"internalType": "address",
					"name": "_depositor",
					"type": "address"
				},
				{
					"indexed": false,
					"internalType": "uint256",
					"name": "_ETH",
					"type": "uint256"
				},
				{
					"indexed": false,
					"internalType": "uint256",
					"name": "_LUSDLoss",
					"type": "uint256"
				}
			],
			"name": "ETHGainWithdrawn",
			"type": "event"
		},
		{
			"anonymous": false,
			"inputs": [
				{
					"indexed": false,
					"internalType": "uint128",
					"name": "_currentEpoch",
					"type": "uint128"
				}
			],
			"name": "EpochUpdated",
			"type": "event"
		},
		{
			"anonymous": false,
			"inputs": [
				{
					"indexed": false,
					"internalType": "address",
					"name": "_to",
					"type": "address"
				},
				{
					"indexed": false,
					"internalType": "uint256",
					"name": "_amount",
					"type": "uint256"
				}
			],
			"name": "EtherSent",
			"type": "event"
		},
		{
			"anonymous": false,
			"inputs": [
				{
					"indexed": true,
					"internalType": "address",
					"name": "_frontEnd",
					"type": "address"
				},
				{
					"indexed": false,
					"internalType": "uint256",
					"name": "_kickbackRate",
					"type": "uint256"
				}
			],
			"name": "FrontEndRegistered",
			"type": "event"
		},
		{
			"anonymous": false,
			"inputs": [
				{
					"indexed": true,
					"internalType": "address",
					"name": "_frontEnd",
					"type": "address"
				},
				{
					"indexed": false,
					"internalType": "uint256",
					"name": "_P",
					"type": "uint256"
				},
				{
					"indexed": false,
					"internalType": "uint256",
					"name": "_G",
					"type": "uint256"
				}
			],
			"name": "FrontEndSnapshotUpdated",
			"type": "event"
		},
		{
			"anonymous": false,
			"inputs": [
				{
					"indexed": true,
					"internalType": "address",
					"name": "_frontEnd",
					"type": "address"
				},
				{
					"indexed": false,
					"internalType": "uint256",
					"name": "_newFrontEndStake",
					"type": "uint256"
				},
				{
					"indexed": false,
					"internalType": "address",
					"name": "_depositor",
					"type": "address"
				}
			],
			"name": "FrontEndStakeChanged",
			"type": "event"
		},
		{
			"anonymous": false,
			"inputs": [
				{
					"indexed": true,
					"internalType": "address",
					"name": "_depositor",
					"type": "address"
				},
				{
					"indexed": true,
					"internalType": "address",
					"name": "_frontEnd",
					"type": "address"
				}
			],
			"name": "FrontEndTagSet",
			"type": "event"
		},
		{
			"anonymous": false,
			"inputs": [
				{
					"indexed": false,
					"internalType": "uint256",
					"name": "_G",
					"type": "uint256"
				},
				{
					"indexed": false,
					"internalType": "uint128",
					"name": "_epoch",
					"type": "uint128"
				},
				{
					"indexed": false,
					"internalType": "uint128",
					"name": "_scale",
					"type": "uint128"
				}
			],
			"name": "G_Updated",
			"type": "event"
		},
		{
			"anonymous": false,
			"inputs": [
				{
					"indexed": true,
					"internalType": "address",
					"name": "_depositor",
					"type": "address"
				},
				{
					"indexed": false,
					"internalType": "uint256",
					"name": "_LQTY",
					"type": "uint256"
				}
			],
			"name": "LQTYPaidToDepositor",
			"type": "event"
		},
		{
			"anonymous": false,
			"inputs": [
				{
					"indexed": true,
					"internalType": "address",
					"name": "_frontEnd",
					"type": "address"
				},
				{
					"indexed": false,
					"internalType": "uint256",
					"name": "_LQTY",
					"type": "uint256"
				}
			],
			"name": "LQTYPaidToFrontEnd",
			"type": "event"
		},
		{
			"anonymous": false,
			"inputs": [
				{
					"indexed": false,
					"internalType": "address",
					"name": "_newLUSDTokenAddress",
					"type": "address"
				}
			],
			"name": "LUSDTokenAddressChanged",
			"type": "event"
		},
		{
			"anonymous": false,
			"inputs": [
				{
					"indexed": true,
					"internalType": "address",
					"name": "previousOwner",
					"type": "address"
				},
				{
					"indexed": true,
					"internalType": "address",
					"name": "newOwner",
					"type": "address"
				}
			],
			"name": "OwnershipTransferred",
			"type": "event"
		},
		{
			"anonymous": false,
			"inputs": [
				{
					"indexed": false,
					"internalType": "uint256",
					"name": "_P",
					"type": "uint256"
				}
			],
			"name": "P_Updated",
			"type": "event"
		},
		{
			"anonymous": false,
			"inputs": [
				{
					"indexed": false,
					"internalType": "address",
					"name": "_newPriceFeedAddress",
					"type": "address"
				}
			],
			"name": "PriceFeedAddressChanged",
			"type": "event"
		},
		{
			"anonymous": false,
			"inputs": [
				{
					"indexed": false,
					"internalType": "uint256",
					"name": "_S",
					"type": "uint256"
				},
				{
					"indexed": false,
					"internalType": "uint128",
					"name": "_epoch",
					"type": "uint128"
				},
				{
					"indexed": false,
					"internalType": "uint128",
					"name": "_scale",
					"type": "uint128"
				}
			],
			"name": "S_Updated",
			"type": "event"
		},
		{
			"anonymous": false,
			"inputs": [
				{
					"indexed": false,
					"internalType": "uint128",
					"name": "_currentScale",
					"type": "uint128"
				}
			],
			"name": "ScaleUpdated",
			"type": "event"
		},
		{
			"anonymous": false,
			"inputs": [
				{
					"indexed": false,
					"internalType": "address",
					"name": "_newSortedTrovesAddress",
					"type": "address"
				}
			],
			"name": "SortedTrovesAddressChanged",
			"type": "event"
		},
		{
			"anonymous": false,
			"inputs": [
				{
					"indexed": false,
					"internalType": "uint256",
					"name": "_newBalance",
					"type": "uint256"
				}
			],
			"name": "StabilityPoolETHBalanceUpdated",
			"type": "event"
		},
		{
			"anonymous": false,
			"inputs": [
				{
					"indexed": false,
					"internalType": "uint256",
					"name": "_newBalance",
					"type": "uint256"
				}
			],
			"name": "StabilityPoolLUSDBalanceUpdated",
			"type": "event"
		},
		{
			"anonymous": false,
			"inputs": [
				{
					"indexed": false,
					"internalType": "address",
					"name": "_newTroveManagerAddress",
					"type": "address"
				}
			],
			"name": "TroveManagerAddressChanged",
			"type": "event"
		},
		{
			"anonymous": false,
			"inputs": [
				{
					"indexed": true,
					"internalType": "address",
					"name": "_depositor",
					"type": "address"
				},
				{
					"indexed": false,
					"internalType": "uint256",
					"name": "_newDeposit",
					"type": "uint256"
				}
			],
			"name": "UserDepositChanged",
			"type": "event"
		},
		{
			"inputs": [],
			"name": "BORROWING_FEE_FLOOR",
			"outputs": [
				{
					"internalType": "uint256",
					"name": "",
					"type": "uint256"
				}
			],
			"stateMutability": "view",
			"type": "function"
		},
		{
			"inputs": [],
			"name": "CCR",
			"outputs": [
				{
					"internalType": "uint256",
					"name": "",
					"type": "uint256"
				}
			],
			"stateMutability": "view",
			"type": "function"
		},
		{
			"inputs": [],
			"name": "DECIMAL_PRECISION",
			"outputs": [
				{
					"internalType": "uint256",
					"name": "",
					"type": "uint256"
				}
			],
			"stateMutability": "view",
			"type": "function"
		},
		{
			"inputs": [],
			"name": "LUSD_GAS_COMPENSATION",
			"outputs": [
				{
					"internalType": "uint256",
					"name": "",
					"type": "uint256"
				}
			],
			"stateMutability": "view",
			"type": "function"
		},
		{
			"inputs": [],
			"name": "MCR",
			"outputs": [
				{
					"internalType": "uint256",
					"name": "",
					"type": "uint256"
				}
			],
			"stateMutability": "view",
			"type": "function"
		},
		{
			"inputs": [],
			"name": "MIN_NET_DEBT",
			"outputs": [
				{
					"internalType": "uint256",
					"name": "",
					"type": "uint256"
				}
			],
			"stateMutability": "view",
			"type": "function"
		},
		{
			"inputs": [],
			"name": "NAME",
			"outputs": [
				{
					"internalType": "string",
					"name": "",
					"type": "string"
				}
			],
			"stateMutability": "view",
			"type": "function"
		},
		{
			"inputs": [],
			"name": "P",
			"outputs": [
				{
					"internalType": "uint256",
					"name": "",
					"type": "uint256"
				}
			],
			"stateMutability": "view",
			"type": "function"
		},
		{
			"inputs": [],
			"name": "PERCENT_DIVISOR",
			"outputs": [
				{
					"internalType": "uint256",
					"name": "",
					"type": "uint256"
				}
			],
			"stateMutability": "view",
			"type": "function"
		},
		{
			"inputs": [],
			"name": "SCALE_FACTOR",
			"outputs": [
				{
					"internalType": "uint256",
					"name": "",
					"type": "uint256"
				}
			],
			"stateMutability": "view",
			"type": "function"
		},
		{
			"inputs": [],
			"name": "WETH",
			"outputs": [
				{
					"internalType": "contract IERC20",
					"name": "",
					"type": "address"
				}
			],
			"stateMutability": "view",
			"type": "function"
		},
		{
			"inputs": [],
			"name": "_100pct",
			"outputs": [
				{
					"internalType": "uint256",
					"name": "",
					"type": "uint256"
				}
			],
			"stateMutability": "view",
			"type": "function"
		},
		{
			"inputs": [],
			"name": "activePool",
			"outputs": [
				{
					"internalType": "contract IActivePool",
					"name": "",
					"type": "address"
				}
			],
			"stateMutability": "view",
			"type": "function"
		},
		{
			"inputs": [],
			"name": "admin",
			"outputs": [
				{
					"internalType": "address",
					"name": "",
					"type": "address"
				}
			],
			"stateMutability": "view",
			"type": "function"
		},
		{
			"inputs": [],
			"name": "borrowerOperations",
			"outputs": [
				{
					"internalType": "contract IBorrowerOperations",
					"name": "",
					"type": "address"
				}
			],
			"stateMutability": "view",
			"type": "function"
		},
		{
			"inputs": [],
			"name": "communityIssuance",
			"outputs": [
				{
					"internalType": "contract ICommunityIssuance",
					"name": "",
					"type": "address"
				}
			],
			"stateMutability": "view",
			"type": "function"
		},
		{
			"inputs": [],
			"name": "currentEpoch",
			"outputs": [
				{
					"internalType": "uint128",
					"name": "",
					"type": "uint128"
				}
			],
			"stateMutability": "view",
			"type": "function"
		},
		{
			"inputs": [],
			"name": "currentScale",
			"outputs": [
				{
					"internalType": "uint128",
					"name": "",
					"type": "uint128"
				}
			],
			"stateMutability": "view",
			"type": "function"
		},
		{
			"inputs": [],
			"name": "defaultPool",
			"outputs": [
				{
					"internalType": "contract IDefaultPool",
					"name": "",
					"type": "address"
				}
			],
			"stateMutability": "view",
			"type": "function"
		},
		{
			"inputs": [
				{
					"internalType": "address",
					"name": "",
					"type": "address"
				}
			],
			"name": "depositSnapshots",
			"outputs": [
				{
					"internalType": "uint256",
					"name": "S",
					"type": "uint256"
				},
				{
					"internalType": "uint256",
					"name": "P",
					"type": "uint256"
				},
				{
					"internalType": "uint256",
					"name": "G",
					"type": "uint256"
				},
				{
					"internalType": "uint128",
					"name": "scale",
					"type": "uint128"
				},
				{
					"internalType": "uint128",
					"name": "epoch",
					"type": "uint128"
				}
			],
			"stateMutability": "view",
			"type": "function"
		},
		{
			"inputs": [
				{
					"internalType": "address",
					"name": "",
					"type": "address"
				}
			],
			"name": "deposits",
			"outputs": [
				{
					"internalType": "uint256",
					"name": "initialValue",
					"type": "uint256"
				},
				{
					"internalType": "address",
					"name": "frontEndTag",
					"type": "address"
				}
			],
			"stateMutability": "view",
			"type": "function"
		},
		{
			"inputs": [
				{
					"internalType": "uint128",
					"name": "",
					"type": "uint128"
				},
				{
					"internalType": "uint128",
					"name": "",
					"type": "uint128"
				}
			],
			"name": "epochToScaleToG",
			"outputs": [
				{
					"internalType": "uint256",
					"name": "",
					"type": "uint256"
				}
			],
			"stateMutability": "view",
			"type": "function"
		},
		{
			"inputs": [
				{
					"internalType": "uint128",
					"name": "",
					"type": "uint128"
				},
				{
					"internalType": "uint128",
					"name": "",
					"type": "uint128"
				}
			],
			"name": "epochToScaleToSum",
			"outputs": [
				{
					"internalType": "uint256",
					"name": "",
					"type": "uint256"
				}
			],
			"stateMutability": "view",
			"type": "function"
		},
		{
			"inputs": [
				{
					"internalType": "address",
					"name": "",
					"type": "address"
				}
			],
			"name": "frontEndSnapshots",
			"outputs": [
				{
					"internalType": "uint256",
					"name": "S",
					"type": "uint256"
				},
				{
					"internalType": "uint256",
					"name": "P",
					"type": "uint256"
				},
				{
					"internalType": "uint256",
					"name": "G",
					"type": "uint256"
				},
				{
					"internalType": "uint128",
					"name": "scale",
					"type": "uint128"
				},
				{
					"internalType": "uint128",
					"name": "epoch",
					"type": "uint128"
				}
			],
			"stateMutability": "view",
			"type": "function"
		},
		{
			"inputs": [
				{
					"internalType": "address",
					"name": "",
					"type": "address"
				}
			],
			"name": "frontEndStakes",
			"outputs": [
				{
					"internalType": "uint256",
					"name": "",
					"type": "uint256"
				}
			],
			"stateMutability": "view",
			"type": "function"
		},
		{
			"inputs": [
				{
					"internalType": "address",
					"name": "",
					"type": "address"
				}
			],
			"name": "frontEnds",
			"outputs": [
				{
					"internalType": "uint256",
					"name": "kickbackRate",
					"type": "uint256"
				},
				{
					"internalType": "bool",
					"name": "registered",
					"type": "bool"
				}
			],
			"stateMutability": "view",
			"type": "function"
		},
		{
			"inputs": [
				{
					"internalType": "address",
					"name": "_frontEnd",
					"type": "address"
				}
			],
			"name": "getCompoundedFrontEndStake",
			"outputs": [
				{
					"internalType": "uint256",
					"name": "",
					"type": "uint256"
				}
			],
			"stateMutability": "view",
			"type": "function"
		},
		{
			"inputs": [
				{
					"internalType": "address",
					"name": "_depositor",
					"type": "address"
				}
			],
			"name": "getCompoundedLUSDDeposit",
			"outputs": [
				{
					"internalType": "uint256",
					"name": "",
					"type": "uint256"
				}
			],
			"stateMutability": "view",
			"type": "function"
		},
		{
			"inputs": [
				{
					"internalType": "address",
					"name": "_depositor",
					"type": "address"
				}
			],
			"name": "getDepositorETHGain",
			"outputs": [
				{
					"internalType": "uint256",
					"name": "",
					"type": "uint256"
				}
			],
			"stateMutability": "view",
			"type": "function"
		},
		{
			"inputs": [
				{
					"internalType": "address",
					"name": "_depositor",
					"type": "address"
				}
			],
			"name": "getDepositorLQTYGain",
			"outputs": [
				{
					"internalType": "uint256",
					"name": "",
					"type": "uint256"
				}
			],
			"stateMutability": "view",
			"type": "function"
		},
		{
			"inputs": [],
			"name": "getETH",
			"outputs": [
				{
					"internalType": "uint256",
					"name": "",
					"type": "uint256"
				}
			],
			"stateMutability": "view",
			"type": "function"
		},
		{
			"inputs": [],
			"name": "getEntireSystemColl",
			"outputs": [
				{
					"internalType": "uint256",
					"name": "entireSystemColl",
					"type": "uint256"
				}
			],
			"stateMutability": "view",
			"type": "function"
		},
		{
			"inputs": [],
			"name": "getEntireSystemDebt",
			"outputs": [
				{
					"internalType": "uint256",
					"name": "entireSystemDebt",
					"type": "uint256"
				}
			],
			"stateMutability": "view",
			"type": "function"
		},
		{
			"inputs": [
				{
					"internalType": "address",
					"name": "_frontEnd",
					"type": "address"
				}
			],
			"name": "getFrontEndLQTYGain",
			"outputs": [
				{
					"internalType": "uint256",
					"name": "",
					"type": "uint256"
				}
			],
			"stateMutability": "view",
			"type": "function"
		},
		{
			"inputs": [],
			"name": "getTotalLUSDDeposits",
			"outputs": [
				{
					"internalType": "uint256",
					"name": "",
					"type": "uint256"
				}
			],
			"stateMutability": "view",
			"type": "function"
		},
		{
			"inputs": [
				{
					"internalType": "address",
					"name": "_weth",
					"type": "address"
				}
			],
			"name": "initialize",
			"outputs": [],
			"stateMutability": "nonpayable",
			"type": "function"
		},
		{
			"inputs": [],
			"name": "isInitialized",
			"outputs": [
				{
					"internalType": "bool",
					"name": "",
					"type": "bool"
				}
			],
			"stateMutability": "view",
			"type": "function"
		},
		{
			"inputs": [],
			"name": "isOwner",
			"outputs": [
				{
					"internalType": "bool",
					"name": "",
					"type": "bool"
				}
			],
			"stateMutability": "view",
			"type": "function"
		},
		{
			"inputs": [],
			"name": "lastETHError_Offset",
			"outputs": [
				{
					"internalType": "uint256",
					"name": "",
					"type": "uint256"
				}
			],
			"stateMutability": "view",
			"type": "function"
		},
		{
			"inputs": [],
			"name": "lastLQTYError",
			"outputs": [
				{
					"internalType": "uint256",
					"name": "",
					"type": "uint256"
				}
			],
			"stateMutability": "view",
			"type": "function"
		},
		{
			"inputs": [],
			"name": "lastLUSDLossError_Offset",
			"outputs": [
				{
					"internalType": "uint256",
					"name": "",
					"type": "uint256"
				}
			],
			"stateMutability": "view",
			"type": "function"
		},
		{
			"inputs": [],
			"name": "lusdToken",
			"outputs": [
				{
					"internalType": "contract ILUSDToken",
					"name": "",
					"type": "address"
				}
			],
			"stateMutability": "view",
			"type": "function"
		},
		{
			"inputs": [
				{
					"internalType": "uint256",
					"name": "_debtToOffset",
					"type": "uint256"
				},
				{
					"internalType": "uint256",
					"name": "_collToAdd",
					"type": "uint256"
				}
			],
			"name": "offset",
			"outputs": [],
			"stateMutability": "nonpayable",
			"type": "function"
		},
		{
			"inputs": [],
			"name": "owner",
			"outputs": [
				{
					"internalType": "address",
					"name": "",
					"type": "address"
				}
			],
			"stateMutability": "view",
			"type": "function"
		},
		{
			"inputs": [],
			"name": "priceFeed",
			"outputs": [
				{
					"internalType": "contract IPriceFeed",
					"name": "",
					"type": "address"
				}
			],
			"stateMutability": "view",
			"type": "function"
		},
		{
			"inputs": [
				{
					"internalType": "uint256",
					"name": "_amount",
					"type": "uint256"
				},
				{
					"internalType": "address",
					"name": "_frontEndTag",
					"type": "address"
				}
			],
			"name": "provideToSP",
			"outputs": [],
			"stateMutability": "nonpayable",
			"type": "function"
		},
		{
			"inputs": [
				{
					"internalType": "uint256",
					"name": "_amount",
					"type": "uint256"
				}
			],
			"name": "receiveERC20",
			"outputs": [],
			"stateMutability": "nonpayable",
			"type": "function"
		},
		{
			"inputs": [
				{
					"internalType": "uint256",
					"name": "_kickbackRate",
					"type": "uint256"
				}
			],
			"name": "registerFrontEnd",
			"outputs": [],
			"stateMutability": "nonpayable",
			"type": "function"
		},
		{
			"inputs": [],
			"name": "renounceAdmin",
			"outputs": [],
			"stateMutability": "nonpayable",
			"type": "function"
		},
		{
			"inputs": [
				{
					"internalType": "address",
					"name": "_borrowerOperationsAddress",
					"type": "address"
				},
				{
					"internalType": "address",
					"name": "_troveManagerAddress",
					"type": "address"
				},
				{
					"internalType": "address",
					"name": "_activePoolAddress",
					"type": "address"
				},
				{
					"internalType": "address",
					"name": "_lusdTokenAddress",
					"type": "address"
				},
				{
					"internalType": "address",
					"name": "_sortedTrovesAddress",
					"type": "address"
				},
				{
					"internalType": "address",
					"name": "_priceFeedAddress",
					"type": "address"
				},
				{
					"internalType": "address",
					"name": "_communityIssuanceAddress",
					"type": "address"
				}
			],
			"name": "setAddresses",
			"outputs": [],
			"stateMutability": "nonpayable",
			"type": "function"
		},
		{
			"inputs": [
				{
					"internalType": "address",
					"name": "_admin",
					"type": "address"
				}
			],
			"name": "setAdmin",
			"outputs": [],
			"stateMutability": "nonpayable",
			"type": "function"
		},
		{
			"inputs": [
				{
					"internalType": "address",
					"name": "_priceFeedAddress",
					"type": "address"
				}
			],
			"name": "setPriceFeed",
			"outputs": [],
			"stateMutability": "nonpayable",
			"type": "function"
		},
		{
			"inputs": [],
			"name": "sortedTroves",
			"outputs": [
				{
					"internalType": "contract ISortedTroves",
					"name": "",
					"type": "address"
				}
			],
			"stateMutability": "view",
			"type": "function"
		},
		{
			"inputs": [],
			"name": "troveManager",
			"outputs": [
				{
					"internalType": "contract ITroveManager",
					"name": "",
					"type": "address"
				}
			],
			"stateMutability": "view",
			"type": "function"
		},
		{
			"inputs": [
				{
					"internalType": "address",
					"name": "_upperHint",
					"type": "address"
				},
				{
					"internalType": "address",
					"name": "_lowerHint",
					"type": "address"
				}
			],
			"name": "withdrawETHGainToTrove",
			"outputs": [],
			"stateMutability": "nonpayable",
			"type": "function"
		},
		{
			"inputs": [
				{
					"internalType": "uint256",
					"name": "_amount",
					"type": "uint256"
				}
			],
			"name": "withdrawFromSP",
			"outputs": [],
			"stateMutability": "nonpayable",
			"type": "function"
		}
	]
}