{
	"data": {
		"bytecode": {
			"linkReferences": {},
			"object": "608060405234801561001057600080fd5b50600380546001600160a01b031916339081179091556040516000907f8be0079c531659141344cd1fd0a4f28419497f9722a3daafe3b4186f6b6457e0908290a3615b2980620000616000396000f3fe608060405234801561001057600080fd5b50600436106103a65760003560e01c8063048c661d146103ab578063060d49a3146103cf578063071a7541146103e95780630b076557146103f157806312610e921461041957806315d549f1146104455780631673c79a1461046b57806318f2817a146104aa5780631bf43555146104d05780631e8b1c2b146104d85780631f68f20a146105795780631f7af3c31461058157806321e378011461058957806324092669146105af57806328d28b5b146105b75780632b11551a146105bf5780632e86bbd8146105c75780632f865568146105cf5780633cc74225146105f5578063477d66cf146105fd578063480cd5781461061a5780634870dd9a1461064057806349eefeee146106485780634e443d9e146106505780635733d58f146106815780635d6b480f146106895780635d8c9609146106b55780635dba4c4a146106db57806361ec893d146106e3578063631203b0146106eb57806364cee26014610708578063653d46e71461072e57806366ca4a211461074b5780636ef6433814610753578063704b6c02146107c257806372423c17146107e8578063724e78da1461081457806372fe25aa1461083a578063741bef1a14610842578063756b253e1461084a578063794e572414610867578063795d26c31461086f578063797250e3146108775780637985c5e41461087f5780637f7dde4a146108fb578063807d138d1461090357806382fe3eb91461090b578063887105d3146109315780638bad0c0a146109395780638da5cb5b146109415780638f32d59b1461094957806396d711ff146109515780639976cf45146109595780639dd233d214610985578063a20baee61461083a578063a3a640171461098d578063a3f4df7e14610995578063ae91875414610a12578063b0d8e18114610a1a578063b7f8cf9b14610a40578063b82f263d14610a48578063b83f91a214610a65578063b91af97c14610a6d578063bcd3752614610ab9578063bf9befb114610b07578063c35bc55014610b0f578063c52861f214610b17578063c7b5548114610b1f578063cbd138ae14610b27578063d293c71014610b4d578063d380a37c14610b79578063d3d6f84314610b81578063d5b3563514610bad578063d66a255314610bca578063d9a7244414610bf0578063dba1c5f214610c0d578063e2ac77b014610c15578063f34862de14610c3b578063f36b242514610c61578063f851a44014610c69578063f92d3433146105b7578063fe2ba84814610c71575b600080fd5b6103b3610c97565b604080516001600160a01b039092168252519081900360200190f35b6103d7610ca6565b60408051918252519081900360200190f35b6103d7610cac565b6104176004803603602081101561040757600080fd5b50356001600160a01b0316610cb1565b005b6103d76004803603604081101561042f57600080fd5b506001600160a01b038135169060200135610cd9565b6103d76004803603602081101561045b57600080fd5b50356001600160a01b0316610d31565b6104916004803603602081101561048157600080fd5b50356001600160a01b0316610d55565b6040805192835260208301919091528051918290030190f35b6103d7600480360360208110156104c057600080fd5b50356001600160a01b0316610d6e565b6103d7610d81565b610417600480360360208110156104ee57600080fd5b810190602081018135600160201b81111561050857600080fd5b82018360208201111561051a57600080fd5b803590602001918460208302840111600160201b8311171561053b57600080fd5b919080806020026020016040519081016040528093929190818152602001838360200280828437600092019190915250929550610d8e945050505050565b6103d761111e565b6103b3611124565b6103d76004803603602081101561059f57600080fd5b50356001600160a01b0316611133565b6103d761115d565b6103d7611170565b6103d7611181565b6103d7611193565b610417600480360360208110156105e557600080fd5b50356001600160a01b03166111a0565b6103b3611206565b6103d76004803603602081101561061357600080fd5b5035611215565b6103d76004803603602081101561063057600080fd5b50356001600160a01b0316611228565b6103d7611246565b6103d761124b565b61066d6004803603602081101561066657600080fd5b5035611251565b604080519115158252519081900360200190f35b6103d761125c565b6104176004803603604081101561069f57600080fd5b506001600160a01b038135169060200135611268565b6103d7600480360360208110156106cb57600080fd5b50356001600160a01b03166112b4565b61041761137a565b6103d76113ce565b6103d76004803603602081101561070157600080fd5b50356113d3565b6103d76004803603602081101561071e57600080fd5b50356001600160a01b03166113e0565b6104176004803603602081101561074457600080fd5b50356113fe565b6103d761179a565b6107796004803603602081101561076957600080fd5b50356001600160a01b03166117ac565b6040518086815260200185815260200184815260200183600481111561079b57fe5b60ff1681526001600160801b03909216602083015250604080519182900301945092505050f35b610417600480360360208110156107d857600080fd5b50356001600160a01b03166117e6565b6103d7600480360360408110156107fe57600080fd5b506001600160a01b03813516906020013561184f565b6104176004803603602081101561082a57600080fd5b50356001600160a01b03166118ac565b6103d76118e5565b6103b36118f1565b6103b36004803603602081101561086057600080fd5b5035611900565b6103d7611927565b6103d7611933565b6103d7611a34565b610417600480360361016081101561089657600080fd5b506001600160a01b038135811691602081013582169160408201358116916060810135821691608082013581169160a081013582169160c082013581169160e08101358216916101008201358116916101208101358216916101409091013516611a3a565b6103b3611e21565b6103d7611e30565b6104176004803603602081101561092157600080fd5b50356001600160a01b0316611e36565b6103d7611e47565b610417611f03565b6103b3611f2c565b61066d611f3b565b6103d7611f4c565b6103d76004803603604081101561096f57600080fd5b506001600160a01b038135169060200135611f52565b6103d7611f85565b6103b3611f8b565b61099d611f9a565b6040805160208082528351818301528351919283929083019185019080838360005b838110156109d75781810151838201526020016109bf565b50505050905090810190601f168015610a045780820380516001836020036101000a031916815260200191505b509250505060405180910390f35b6103b3611fc2565b6103d760048036036020811015610a3057600080fd5b50356001600160a01b0316611fd1565b6103b3611ff8565b6103d760048036036020811015610a5e57600080fd5b5035612007565b6103b3612012565b610a9360048036036020811015610a8357600080fd5b50356001600160a01b0316612021565b604080519485526020850193909352838301919091526060830152519081900360800190f35b610417600480360360e0811015610acf57600080fd5b508035906001600160a01b03602082013581169160408101358216916060820135169060808101359060a08101359060c00135612085565b6103d7612827565b6103d761282d565b6103d7612834565b6103d7612846565b61041760048036036020811015610b3d57600080fd5b50356001600160a01b0316612852565b6103d760048036036040811015610b6357600080fd5b506001600160a01b038135169060200135612865565b6103d7612884565b6103d760048036036040811015610b9757600080fd5b506001600160a01b03813516906020013561288a565b6103d760048036036020811015610bc357600080fd5b50356128c0565b6103d760048036036020811015610be057600080fd5b50356001600160a01b03166128d3565b6103b360048036036020811015610c0657600080fd5b50356128ee565b6103d7612918565b61066d60048036036020811015610c2b57600080fd5b50356001600160a01b031661291e565b6103d760048036036020811015610c5157600080fd5b50356001600160a01b031661297c565b6103d76129ad565b6103b36129ba565b61041760048036036020811015610c8757600080fd5b50356001600160a01b03166129c9565b6005546001600160a01b031681565b60175481565b600281565b610cb96129da565b600054600154610cd6916001600160a01b03908116911683612a25565b50565b6000610ce36129da565b6001600160a01b0383166000908152600e6020526040812054610d0c908463ffffffff612b4716565b6001600160a01b0385166000908152600e602052604090208190559150505b92915050565b6000610d3b6129da565b610d4482612b90565b6001600160801b031690505b919050565b6014602052600090815260409020805460019091015482565b6000610d786129da565b610d2b82612c2a565b6809c2007651b250000081565b8051610dcb5760405162461bcd60e51b815260040180806020018281038252603681526020018061598f6036913960400191505060405180910390fd5b6000546001546005546001600160a01b03928316929182169116610ded615647565b610df5615678565b600260009054906101000a90046001600160a01b03166001600160a01b0316630fdb11cf6040518163ffffffff1660e01b8152600401602060405180830381600087803b158015610e4557600080fd5b505af1158015610e59573d6000803e3d6000fd5b505050506040513d6020811015610e6f57600080fd5b50518252604080516326fcbc6b60e21b815290516001600160a01b03851691639bf2f1ac916004808301926020929190829003018186803b158015610eb357600080fd5b505afa158015610ec7573d6000803e3d6000fd5b505050506040513d6020811015610edd57600080fd5b505160208301528151610eef90612cd9565b1580156040840152610f1757610f108585846000015185602001518a612cf6565b9050610f2f565b610f2c8585846000015185602001518a612f26565b90505b6000816020015111610f725760405162461bcd60e51b8152600401808060200182810382526022815260200180615aa36022913960400191505060405180910390fd5b826001600160a01b031663335525ad82608001518360a001516040518363ffffffff1660e01b81526004018083815260200182815260200192505050600060405180830381600087803b158015610fc857600080fd5b505af1158015610fdc573d6000803e3d6000fd5b50505050610ff485858360c001518460e00151612fee565b6101008101511561107357600754610100820151604080516364a197f360e01b81526001600160a01b039384166004820152602481019290925251918716916364a197f39160448082019260009290919082900301818387803b15801561105a57600080fd5b505af115801561106e573d6000803e3d6000fd5b505050505b61108185826040015161326f565b60208101516060830152610100810151604082015182516110b992916110ad919063ffffffff612b4716565b9063ffffffff612b4716565b6080808401829052606080850151604080860151868401518251938452602084019690965282820152918101939093525160008051602061581b8339815191529281900390910190a16111168533836060015184604001516133b6565b505050505050565b600c5481565b6009546001600160a01b031681565b6001600160a01b0381166000908152600e602052604081206003015460ff166004811115610d2b57fe5b6064670de0b6b3a76400005b0460050281565b6103e8670de0b6b3a7640000611169565b600061118e600c546134b9565b905090565b6801158e460913d0000081565b6111a9816134ef565b6040805160018082528183019092526060916020808301908036833701905050905081816000815181106111d957fe5b60200260200101906001600160a01b031690816001600160a01b03168152505061120281610d8e565b5050565b6001546001600160a01b031681565b6000610d2b61122261179a565b83613557565b6001600160a01b03166000908152600e602052604090206001015490565b60c881565b60155490565b6000610d2b82612cd9565b6714d1120d7b16000081565b6112706129da565b80600481111561127c57fe5b6001600160a01b0383166000908152600e60205260409020600301805460ff191660018360048111156112ab57fe5b02179055505050565b6001600160a01b03811660009081526014602052604081205460125482906112e2908363ffffffff612b4716565b905080158061131b575060016001600160a01b0385166000908152600e602052604090206003015460ff16600481111561131857fe5b14155b1561132b57600092505050610d50565b6001600160a01b0384166000908152600e602052604081206002015490611370670de0b6b3a7640000611364848663ffffffff61357516565b9063ffffffff6135ce16565b9695505050505050565b6113826129da565b600061138c61360d565b9050670de0b6b3a76400008111156113a057fe5b600c819055604080518281529051600080516020615a598339815191529181900360200190a1610cd6613651565b603c81565b6000610d2b6112226129ad565b6001600160a01b03166000908152600e602052604090206002015490565b6114066156c4565b506040805160e081018252600080546001600160a01b0390811683526001548116602084015292820181905260608201819052600b548316608083015260a0820181905260c082015260055490911661145d615647565b611465615678565b600260009054906101000a90046001600160a01b03166001600160a01b0316630fdb11cf6040518163ffffffff1660e01b8152600401602060405180830381600087803b1580156114b557600080fd5b505af11580156114c9573d6000803e3d6000fd5b505050506040513d60208110156114df57600080fd5b50518252604080516326fcbc6b60e21b815290516001600160a01b03851691639bf2f1ac916004808301926020929190829003018186803b15801561152357600080fd5b505afa158015611537573d6000803e3d6000fd5b505050506040513d602081101561154d57600080fd5b50516020830152815161155f90612cd9565b15801560408401526115865761157f8483600001518460200151886136ad565b90506115a6565b6115a3846000015185602001518460000151856020015189613a48565b90505b60008160200151116115e95760405162461bcd60e51b8152600401808060200182810382526022815260200180615aa36022913960400191505060405180910390fd5b826001600160a01b031663335525ad82608001518360a001516040518363ffffffff1660e01b81526004018083815260200182815260200192505050600060405180830381600087803b15801561163f57600080fd5b505af1158015611653573d6000803e3d6000fd5b50505050611673846000015185602001518360c001518460e00151612fee565b610100810151156116f4578351600754610100830151604080516364a197f360e01b81526001600160a01b03938416600482015260248101929092525191909216916364a197f391604480830192600092919082900301818387803b1580156116db57600080fd5b505af11580156116ef573d6000803e3d6000fd5b505050505b6117068460000151826040015161326f565b602081015160608301526101008101516040820151825161173292916110ad919063ffffffff612b4716565b6080808401829052606080850151604080860151868401518251938452602084019690965282820152918101939093525160008051602061581b8339815191529281900390910190a1611793846000015133836060015184604001516133b6565b5050505050565b600061118e6117a761360d565b613b7a565b600e6020526000908152604090208054600182015460028301546003909301549192909160ff81169061010090046001600160801b031685565b6117ee611f3b565b61182d576040805162461bcd60e51b815260206004820181905260248201526000805160206158c6833981519152604482015290519081900360640190fd5b601880546001600160a01b0319166001600160a01b0392909216919091179055565b60006118596129da565b6001600160a01b0383166000908152600e6020526040812060010154611885908463ffffffff613ba116565b6001600160a01b0385166000908152600e6020526040902060010181905591505092915050565b6018546001600160a01b031633146118c357600080fd5b600280546001600160a01b0319166001600160a01b0392909216919091179055565b670de0b6b3a764000081565b6002546001600160a01b031681565b6015818154811061190d57fe5b6000918252602090912001546001600160a01b0316905081565b670f43fc2c04ee000081565b6000805460408051632f5a97e560e11b8152905183926001600160a01b031691635eb52fca916004808301926020929190829003018186803b15801561197857600080fd5b505afa15801561198c573d6000803e3d6000fd5b505050506040513d60208110156119a257600080fd5b505160015460408051632f5a97e560e11b815290519293506000926001600160a01b0390921691635eb52fca91600480820192602092909190829003018186803b1580156119ef57600080fd5b505afa158015611a03573d6000803e3d6000fd5b505050506040513d6020811015611a1957600080fd5b50519050611a2d828263ffffffff613ba116565b9250505090565b60165481565b611a42611f3b565b611a81576040805162461bcd60e51b815260206004820181905260248201526000805160206158c6833981519152604482015290519081900360640190fd5b611a8a8b613bf9565b611a938a613bf9565b611a9c89613bf9565b611aa588613bf9565b611aae87613bf9565b611ab786613bf9565b611ac085613bf9565b611ac984613bf9565b611ad283613bf9565b611adb82613bf9565b611ae481613bf9565b600480546001600160a01b03199081166001600160a01b038e81169182179093556000805483168e85161790556001805483168d85161790556005805483168c85161790556006805483168b85161790556007805483168a8516179055600280548316898516179055600880548316888516179055600b80548316878516179055600980548316868516179055600a805490921692841692909217905560408051918252517f3ca631ffcd2a9b5d9ae18543fc82f58eb4ca33af9e6ab01b7a8e95331e6ed985916020908290030190a1604080516001600160a01b038c16815290517f78f058b189175430c48dc02699e3a0031ea4ff781536dc2fab847de4babdd8829181900360200190a1604080516001600160a01b038b16815290517f5ee0cae2f063ed938bb55046f6a932fb6ae792bf43624806bb90abe68a50be9b9181900360200190a1604080516001600160a01b038a16815290517f82966d27eea39b038ee0fa30cd16532bb24f6e65d31cb58fb227aa5766cdcc7f9181900360200190a1604080516001600160a01b038916815290517fcfb07d791fcafc032b35837b50eb84b74df518cf4cc287e8084f47630fa70fa09181900360200190a1604080516001600160a01b038816815290517fe67f36a6e961157d6eff83b91f3af5a62131ceb6f04954ef74f51c1c05e7f88d9181900360200190a1604080516001600160a01b038716815290517f8c537274438aa850a330284665d81a85dd38267d09e4050d416bfc94142db2649181900360200190a1604080516001600160a01b038616815290517f227eec0ec317af6ab1a9587ffa1c84332522eb4c583a908f89babc05f8f339bd9181900360200190a1604080516001600160a01b038516815290517f65f4cf077bc01e4742eb5ad98326f6e95b63548ea24b17f8d5e823111fe788009181900360200190a1604080516001600160a01b038416815290517f2ac6e99201ddc1b6eac6f8f28662d1ecafee131f6eb98c29de54528a9888a7d19181900360200190a1604080516001600160a01b038316815290517f756ebc192164c295bba134b5aacd72cc7aff8098a670d1f0a5f6b3a0b4ce67079181900360200190a1611e14613ca8565b5050505050505050505050565b6000546001600160a01b031681565b60105481565b611e3e6129da565b610cd681613cf2565b6000805460408051630a7b61df60e11b8152905183926001600160a01b0316916314f6c3be916004808301926020929190829003018186803b158015611e8c57600080fd5b505afa158015611ea0573d6000803e3d6000fd5b505050506040513d6020811015611eb657600080fd5b505160015460408051630a7b61df60e11b815290519293506000926001600160a01b03909216916314f6c3be91600480820192602092909190829003018186803b1580156119ef57600080fd5b6018546001600160a01b03163314611f1a57600080fd5b601880546001600160a01b0319169055565b6003546001600160a01b031690565b6003546001600160a01b0316331490565b60115481565b6000611f5c6129da565b6001600160a01b0383166000908152600e6020526040812054610d0c908463ffffffff613ba116565b60125481565b600a546001600160a01b031681565b6040518060400160405280600c81526020016b2a3937bb32a6b0b730b3b2b960a11b81525081565b600b546001600160a01b031681565b6000806000611fdf84613d5d565b915091506000611fef8383613de3565b95945050505050565b6004546001600160a01b031681565b6000610d2b82613e18565b6008546001600160a01b031681565b6001600160a01b0381166000908152600e60205260408120805460019091015490918061204d8561297c565b9150612058856112b4565b905061206a848363ffffffff613ba116565b935061207c838263ffffffff613ba116565b92509193509193565b61208d6156c4565b506040805160e0810182526000546001600160a01b03908116825260015481166020830152600854811692820192909252600a5482166060820152600b5482166080820152600754821660a082015260065490911660c08201526120ef615700565b6120f883613e44565b612100613e9e565b600260009054906101000a90046001600160a01b03166001600160a01b0316630fdb11cf6040518163ffffffff1660e01b8152600401602060405180830381600087803b15801561215057600080fd5b505af1158015612164573d6000803e3d6000fd5b505050506040513d602081101561217a57600080fd5b505160c0820181905261218c90613f62565b61219589613fb1565b6121a48260400151338b613ff0565b6121ac611933565b60e0820181905260408084015181516370a0823160e01b815233600482015291516001600160a01b03909116916370a08231916024808301926020929190829003018186803b1580156121fe57600080fd5b505afa158015612212573d6000803e3d6000fd5b505050506040513d602081101561222857600080fd5b5051111561223257fe5b888152608082015160c082015160009161224d918b906140b0565b15612259575087612383565b82608001516001600160a01b0316634d6228316040518163ffffffff1660e01b815260040160206040518083038186803b15801561229657600080fd5b505afa1580156122aa573d6000803e3d6000fd5b505050506040513d60208110156122c057600080fd5b505190505b6001600160a01b038116158015906122f15750670f43fc2c04ee00006122ef828460c00151612865565b105b156123835782608001516001600160a01b031663b72703ac826040518263ffffffff1660e01b815260040180826001600160a01b03166001600160a01b0316815260200191505060206040518083038186803b15801561235057600080fd5b505afa158015612364573d6000803e3d6000fd5b505050506040513d602081101561237a57600080fd5b505190506122c5565b8461238e5760001994505b6001600160a01b038116158015906123a65750815115155b80156123b25750600085115b156124e657848060019003955050600083608001516001600160a01b031663b72703ac836040518263ffffffff1660e01b815260040180826001600160a01b03166001600160a01b0316815260200191505060206040518083038186803b15801561241c57600080fd5b505afa158015612430573d6000803e3d6000fd5b505050506040513d602081101561244657600080fd5b50518451602086015191925061245c9184612a25565b612464615745565b61247b858486600001518760c001518e8e8e614223565b905080604001511561248e5750506124e6565b805160208501516124a49163ffffffff613ba116565b60208086019190915281015160408501516124c49163ffffffff613ba116565b6040850152805184516124dc9163ffffffff612b4716565b845250905061238e565b60008260400151116125295760405162461bcd60e51b81526004018080602001828103825260298152602001806157f26029913960400191505060405180910390fd5b61254082604001518360c001518460e001516144d6565b5061254e826040015161456c565b606083018190526040830151612565919086614579565b82600001516001600160a01b03166364a197f3846060015184606001516040518363ffffffff1660e01b815260040180836001600160a01b03166001600160a01b0316815260200182815260200192505050600060405180830381600087803b1580156125d157600080fd5b505af11580156125e5573d6000803e3d6000fd5b5050505082606001516001600160a01b0316631e3e2a1a83606001516040518263ffffffff1660e01b815260040180828152602001915050600060405180830381600087803b15801561263757600080fd5b505af115801561264b573d6000803e3d6000fd5b505050506060820151604083015161266291612b47565b8260800181815250507f43a3f4082a4dbc33d78e317d2497d3a730bc7fc3574159dcea1056e62e5d9ad88a8360200151846040015185606001516040518085815260200184815260200183815260200182815260200194505050505060405180910390a182604001516001600160a01b0316639dc29fac3384602001516040518363ffffffff1660e01b815260040180836001600160a01b03166001600160a01b0316815260200182815260200192505050600060405180830381600087803b15801561272e57600080fd5b505af1158015612742573d6000803e3d6000fd5b5050505082600001516001600160a01b03166338d995a883602001516040518263ffffffff1660e01b815260040180828152602001915050600060405180830381600087803b15801561279457600080fd5b505af11580156127a8573d6000803e3d6000fd5b505084516080850151604080516364a197f360e01b81523360048201526024810192909252516001600160a01b0390921693506364a197f3925060448082019260009290919082900301818387803b15801561280357600080fd5b505af1158015612817573d6000803e3d6000fd5b5050505050505050505050505050565b600f5481565b6212750081565b600061118e61284161360d565b6134b9565b670ddd4b8c6c7d70d881565b61285a6129da565b610cd68160026145ee565b600080600061287385613d5d565b915091506000611370838387614707565b600d5481565b60006128946129da565b6001600160a01b0383166000908152600e6020526040812060010154611885908463ffffffff612b4716565b6000610d2b6128cd612834565b83614737565b6001600160a01b03166000908152600e602052604090205490565b6000601582815481106128fd57fe5b6000918252602090912001546001600160a01b031692915050565b60135481565b600060016001600160a01b0383166000908152600e602052604090206003015460ff16600481111561294c57fe5b1461295957506000610d50565b506012546001600160a01b03821660009081526014602052604090205410919050565b6001600160a01b03811660009081526014602052604081206001015460135482906112e2908363ffffffff612b4716565b600061118e600c54613b7a565b6018546001600160a01b031681565b6129d16129da565b610cd681614796565b6004546001600160a01b03163314612a235760405162461bcd60e51b815260040180806020018281038252603b815260200180615954603b913960400191505060405180910390fd5b565b612a2e8161291e565b15612b4257612a3c816134ef565b6000612a47826112b4565b90506000612a548361297c565b6001600160a01b0384166000908152600e6020526040902060010154909150612a83908363ffffffff613ba116565b6001600160a01b0384166000908152600e60205260409020600181019190915554612ab4908263ffffffff613ba116565b6001600160a01b0384166000908152600e6020526040902055612ad683613cf2565b612ae2858583856147e6565b6001600160a01b0383166000818152600e602090815260408083208054600182015460029092015483519182529381019190915280820192909252606082019290925290516000805160206159348339815191529181900360800190a250505b505050565b6000612b8983836040518060400160405280601e81526020017f536166654d6174683a207375627472616374696f6e206f766572666c6f7700008152506148e8565b9392505050565b601580546001808201835560008381527f55f448fdea98c4d29eb340757ef0a66cd03dbb9538908a6a81d96026b71ec47590920180546001600160a01b0319166001600160a01b03861617905591549091612beb9190612b47565b6001600160a01b03929092166000908152600e602052604090206003018054610100600160881b0319166101006001600160801b038516021790555090565b6001600160a01b0381166000908152600e60205260408120600101548190612c519061497f565b6001600160a01b0384166000908152600e60205260409020600201805490829055600f5491925090612c9b908390612c8f908463ffffffff612b4716565b9063ffffffff613ba116565b600f81905560408051918252517f6bac5e0eb3c44eb03a60ab11ec3a2c051771616aecadbcfff2630aabae5203829181900360200190a15092915050565b600080612ce583613e18565b6714d1120d7b160000119392505050565b612cfe615678565b612d06615768565b612d0e615678565b84825260006080830152612d20611933565b60a0830152612d2d611e47565b60c0830152600060208301525b835182602001511015612f1b5783826020015181518110612d5757fe5b6020908102919091018101516001600160a01b0316606084018190526000908152600e909152604090206003015460019060ff166004811115612d9657fe5b14612da057612f0b565b612dae826060015187612865565b60408301526080820151612ead57670f43fc2c04ee0000826040015110158015612dd757508151155b15612de157612f0b565b6000612df68360c001518460a0015189614707565b9050612e138989856060015186604001518760000151868d6149bb565b60808101518451919350612e2d919063ffffffff612b4716565b8352608082015160a0840151612e489163ffffffff612b4716565b8360a0018181525050612e7d8261010001516110ad84604001516110ad8660a001518860c00151612b4790919063ffffffff16565b60c0840152612e8c8483614cee565b9350612ea18360c001518460a0015189614e05565b15608084015250612f0b565b81608001518015612ec95750670f43fc2c04ee00008260400151105b15612f0b57612ee2888884606001518560000151614e26565b60808101518351919250612efc919063ffffffff612b4716565b8252612f088382614cee565b92505b6020820180516001019052612d3a565b505095945050505050565b612f2e615678565b612f36615768565b612f3e615678565b848252600060208301525b835182602001511015612f1b5783826020015181518110612f6657fe5b60209081029190910101516001600160a01b031660608301819052612f8b9087612865565b60408301819052670f43fc2c04ee00001115612fde57612fb5888884606001518560000151614e26565b60808101518351919250612fcf919063ffffffff612b4716565b8252612fdb8382614cee565b92505b6020820180516001019052612f49565b81612ff857613269565b60165460009061301a90612c8f84670de0b6b3a764000063ffffffff61357516565b9050600061303f601754612c8f670de0b6b3a76400008761357590919063ffffffff16565b90506000613058600f54846135ce90919063ffffffff16565b90506000613071600f54846135ce90919063ffffffff16565b905061309861308b600f548461357590919063ffffffff16565b859063ffffffff612b4716565b601655600f546130c0906130b390839063ffffffff61357516565b849063ffffffff612b4716565b6017556012546130d6908363ffffffff613ba116565b6012556013546130ec908263ffffffff613ba116565b601381905560125460408051918252602082019290925281517f9f8bc8ab0daf5bceef75ecfd2085d1fcc6548c657ea970d9a23a60610d0737e3929181900390910190a1876001600160a01b03166338d995a8876040518263ffffffff1660e01b815260040180828152602001915050600060405180830381600087803b15801561317657600080fd5b505af115801561318a573d6000803e3d6000fd5b50505050866001600160a01b031663cfb9329a876040518263ffffffff1660e01b815260040180828152602001915050600060405180830381600087803b1580156131d457600080fd5b505af11580156131e8573d6000803e3d6000fd5b50505050876001600160a01b03166364a197f388876040518363ffffffff1660e01b815260040180836001600160a01b03166001600160a01b0316815260200182815260200192505050600060405180830381600087803b15801561324c57600080fd5b505af1158015613260573d6000803e3d6000fd5b50505050505050505b50505050565b600f546010819055506000826001600160a01b03166314f6c3be6040518163ffffffff1660e01b815260040160206040518083038186803b1580156132b357600080fd5b505afa1580156132c7573d6000803e3d6000fd5b505050506040513d60208110156132dd57600080fd5b505160015460408051630a7b61df60e11b815290519293506000926001600160a01b03909216916314f6c3be91600480820192602092909190829003018186803b15801561332a57600080fd5b505afa15801561333e573d6000803e3d6000fd5b505050506040513d602081101561335457600080fd5b5051905061336c81612c8f848663ffffffff612b4716565b601181905560105460408051918252602082019290925281517f51bf4c63ec3cba9d03d43238abbdd979dd91bd16d9895c74ceea9118c7baaf60929181900390910190a150505050565b81156134355760085460065460408051631062c15f60e11b81526001600160a01b039283166004820152868316602482015260448101869052905191909216916320c582be91606480830192600092919082900301818387803b15801561341c57600080fd5b505af1158015613430573d6000803e3d6000fd5b505050505b801561326957836001600160a01b03166364a197f384836040518363ffffffff1660e01b815260040180836001600160a01b03166001600160a01b0316815260200182815260200192505050600060405180830381600087803b15801561349b57600080fd5b505af11580156134af573d6000803e3d6000fd5b5050505050505050565b6000610d2b6134e1836103e8670de0b6b3a76400005b04600502613ba190919063ffffffff16565b670de0b6b3a7640000614f95565b60016001600160a01b0382166000908152600e602052604090206003015460ff16600481111561351b57fe5b14610cd65760405162461bcd60e51b815260040180806020018281038252602f815260200180615ac5602f913960400191505060405180910390fd5b6000612b89670de0b6b3a7640000611364858563ffffffff61357516565b60008261358457506000610d2b565b8282028284828161359157fe5b0414612b895760405162461bcd60e51b81526004018080602001828103825260218152602001806158a56021913960400191505060405180910390fd5b6000612b8983836040518060400160405280601a815260200179536166654d6174683a206469766973696f6e206279207a65726f60301b815250614fab565b600080613618615010565b9050600061362e670ddd4b8c6c7d70d88361502c565b9050611a2d670de0b6b3a764000061136483600c5461357590919063ffffffff16565b6000613668600d5442612b4790919063ffffffff16565b9050603c8110610cd65742600d81905560408051918252517f860f8d2f0c74dd487e89e2883e3b25b8159ce1e1b3433a291cba7b82c508f3bc9181900360200190a150565b6136b5615678565b6136bd615768565b6136c5615678565b848252600060808301526136d7611933565b60a08301526136e4611e47565b8260c001818152505086608001516001600160a01b0316634d6228316040518163ffffffff1660e01b815260040160206040518083038186803b15801561372a57600080fd5b505afa15801561373e573d6000803e3d6000fd5b505050506040513d602081101561375457600080fd5b50516001600160a01b039081166060840152608088015160408051631e22314360e01b815290516000939290921691631e22314391600480820192602092909190829003018186803b1580156137a957600080fd5b505afa1580156137bd573d6000803e3d6000fd5b505050506040513d60208110156137d357600080fd5b50516000602085015290505b8483602001511080156138085750806001600160a01b031683606001516001600160a01b031614155b15613a3d57600088608001516001600160a01b031663b72703ac85606001516040518263ffffffff1660e01b815260040180826001600160a01b03166001600160a01b0316815260200191505060206040518083038186803b15801561386d57600080fd5b505afa158015613881573d6000803e3d6000fd5b505050506040513d602081101561389757600080fd5b505160608501519091506138ab9089612865565b604085015260808401516139af57670f43fc2c04ee00008460400151101580156138d457508351155b156138df5750613a3d565b60006138f48560c001518660a001518b614707565b8a5160208c015160608801516040890151895194955061391594868f6149bb565b6080810151865191955061392f919063ffffffff612b4716565b8552608084015160a086015161394a9163ffffffff612b4716565b8560a001818152505061397f8461010001516110ad86604001516110ad8860a001518a60c00151612b4790919063ffffffff16565b60c086015261398e8685614cee565b95506139a38560c001518660a001518b614e05565b15608086015250613a1f565b836080015180156139cb5750670f43fc2c04ee00008460400151105b15613a19576139ec89600001518a6020015186606001518760000151614e26565b60808101518551919450613a06919063ffffffff612b4716565b8452613a128584614cee565b9450613a1f565b50613a3d565b6001600160a01b0316606084015260208301805160010190526137df565b505050949350505050565b613a50615678565b613a58615768565b613a60615678565b600b54858352600060208401526001600160a01b03165b8483602001511015613b6e57806001600160a01b0316634d6228316040518163ffffffff1660e01b815260040160206040518083038186803b158015613abc57600080fd5b505afa158015613ad0573d6000803e3d6000fd5b505050506040513d6020811015613ae657600080fd5b50516001600160a01b031660608401819052613b029088612865565b60408401819052670f43fc2c04ee00001115613b5957613b2c898985606001518660000151614e26565b60808101518451919350613b46919063ffffffff612b4716565b8352613b528483614cee565b9350613b5e565b613b6e565b6020830180516001019052613a77565b50505095945050505050565b6000610d2b613b94836103e8670de0b6b3a76400006134cf565b66b1a2bc2ec50000614f95565b600082820183811015612b89576040805162461bcd60e51b815260206004820152601b60248201527a536166654d6174683a206164646974696f6e206f766572666c6f7760281b604482015290519081900360640190fd5b6001600160a01b038116613c54576040805162461bcd60e51b815260206004820152601e60248201527f4163636f756e742063616e6e6f74206265207a65726f20616464726573730000604482015290519081900360640190fd5b803b80611202576040805162461bcd60e51b815260206004820181905260248201527f4163636f756e7420636f64652073697a652063616e6e6f74206265207a65726f604482015290519081900360640190fd5b6003546040516000916001600160a01b0316907f8be0079c531659141344cd1fd0a4f28419497f9722a3daafe3b4186f6b6457e0908390a3600380546001600160a01b0319169055565b601280546001600160a01b0383166000908152601460209081526040918290209283556013546001909301839055925481519081529283019190915280517fc437f324d85e369394148dd9d62f98f534b382e01ed3dd2eb98138fb6d3ab49a9281900390910190a150565b6000806000613d6b846112b4565b90506000613d788561297c565b6001600160a01b0386166000908152600e602052604081206001015491925090613da8908463ffffffff613ba116565b6001600160a01b0387166000908152600e602052604081205491925090613dd5908463ffffffff613ba116565b919550909350505050915091565b60008115613e0f57613e08826113648568056bc75e2d6310000063ffffffff61357516565b9050610d2b565b50600019610d2b565b600080613e23611e47565b90506000613e2f611933565b9050613e3c828286614707565b949350505050565b6611c37937e080008110801590613e635750670de0b6b3a76400008111155b610cd65760405162461bcd60e51b8152600401808060200182810382526030815260200180615a296030913960400191505060405180910390fd5b60095460408051631e425be160e11b815290516000926001600160a01b031691633c84b7c2916004808301926020929190829003018186803b158015613ee357600080fd5b505afa158015613ef7573d6000803e3d6000fd5b505050506040513d6020811015613f0d57600080fd5b50519050613f24816212750063ffffffff613ba116565b421015610cd65760405162461bcd60e51b81526004018080602001828103825260408152602001806158656040913960400191505060405180910390fd5b670f43fc2c04ee0000613f7482613e18565b1015610cd65760405162461bcd60e51b815260040180806020018281038252602a815260200180615a79602a913960400191505060405180910390fd5b60008111610cd65760405162461bcd60e51b815260040180806020018281038252602e8152602001806159c5602e913960400191505060405180910390fd5b80836001600160a01b03166370a08231846040518263ffffffff1660e01b815260040180826001600160a01b03166001600160a01b0316815260200191505060206040518083038186803b15801561404757600080fd5b505afa15801561405b573d6000803e3d6000fd5b505050506040513d602081101561407157600080fd5b50511015612b425760405162461bcd60e51b815260040180806020018281038252604e8152602001806158e6604e913960600191505060405180910390fd5b60006001600160a01b03831615806141475750836001600160a01b0316635dbe47e8846040518263ffffffff1660e01b815260040180826001600160a01b03166001600160a01b0316815260200191505060206040518083038186803b15801561411957600080fd5b505afa15801561412d573d6000803e3d6000fd5b505050506040513d602081101561414357600080fd5b5051155b806141625750670f43fc2c04ee00006141608484612865565b105b1561416f57506000612b89565b6000846001600160a01b031663765e0159856040518263ffffffff1660e01b815260040180826001600160a01b03166001600160a01b0316815260200191505060206040518083038186803b1580156141c757600080fd5b505afa1580156141db573d6000803e3d6000fd5b505050506040513d60208110156141f157600080fd5b505190506001600160a01b0381161580611fef5750670f43fc2c04ee00006142198285612865565b1095945050505050565b61422b615745565b6001600160a01b0387166000908152600e6020526040902054614268908790614263906801158e460913d0000063ffffffff612b4716565b614f95565b80825261428990869061136490670de0b6b3a764000063ffffffff61357516565b60208083019190915281516001600160a01b0389166000908152600e90925260408220546142bc9163ffffffff612b4716565b6020808401516001600160a01b038b166000908152600e909252604082206001015492935090916142f29163ffffffff612b4716565b90506801158e460913d0000082141561438b5761430e89614796565b6143198960046145ee565b61432e8a8a6801158e460913d00000846150d7565b886001600160a01b0316600080516020615934833981519152600080600060036040518085815260200184815260200183815260200182600381111561437057fe5b60ff16815260200194505050505060405180910390a26144c8565b60006143978284613de3565b905084811415806143b857506809c2007651b25000006143b68461528c565b105b156143cc57505060016040830152506144cb565b60808b01516040805163015f109360e51b81526001600160a01b038d81166004830152602482018590528a81166044830152898116606483015291519190921691632be2126091608480830192600092919082900301818387803b15801561443357600080fd5b505af1158015614447573d6000803e3d6000fd5b5050506001600160a01b038b166000908152600e60205260409020848155600101839055506144758a612c2a565b506001600160a01b038a166000818152600e6020908152604091829020600201548251878152918201869052818301526003606082015290516000805160206159348339815191529181900360800190a2505b50505b979650505050505050565b6000806144e161360d565b905060006144f984611364888863ffffffff61357516565b9050600061451e61451183600263ffffffff6135ce16565b849063ffffffff613ba116565b905061453281670de0b6b3a7640000614f95565b90506000811161453e57fe5b600c819055604080518281529051600080516020615a598339815191529181900360200190a1611370613651565b6000610d2b6128cd611181565b60006145978361136486670de0b6b3a764000063ffffffff61357516565b905081811115613269576040805162461bcd60e51b815260206004820152601d60248201527f4665652065786365656465642070726f7669646564206d6178696d756d000000604482015290519081900360640190fd5b60008160048111156145fc57fe5b141580156146165750600181600481111561461357fe5b14155b61461c57fe5b601554614628816152a7565b6001600160a01b0383166000908152600e60205260409020600301805483919060ff1916600183600481111561465a57fe5b02179055506001600160a01b0383166000908152600e6020908152604080832060018082018590559084905560149092528220828155015561469c8382615360565b600b5460408051631484968760e11b81526001600160a01b038681166004830152915191909216916329092d0e91602480830192600092919082900301818387803b1580156146ea57600080fd5b505af11580156146fe573d6000803e3d6000fd5b50505050505050565b6000821561472e57600061472584611364878663ffffffff61357516565b9150612b899050565b50600019612b89565b600080614756670de0b6b3a7640000611364868663ffffffff61357516565b9050828110612b895760405162461bcd60e51b81526004018080602001828103825260368152602001806159f36036913960400191505060405180910390fd5b6001600160a01b0381166000908152600e6020526040902060020154600f546147c5908263ffffffff612b4716565b600f55506001600160a01b03166000908152600e6020526040812060020155565b826001600160a01b03166338d995a8836040518263ffffffff1660e01b815260040180828152602001915050600060405180830381600087803b15801561482c57600080fd5b505af1158015614840573d6000803e3d6000fd5b50505050836001600160a01b031663cfb9329a836040518263ffffffff1660e01b815260040180828152602001915050600060405180830381600087803b15801561488a57600080fd5b505af115801561489e573d6000803e3d6000fd5b50505050826001600160a01b031663be41205f826040518263ffffffff1660e01b815260040180828152602001915050600060405180830381600087803b15801561349b57600080fd5b600081848411156149775760405162461bcd60e51b81526004018080602001828103825283818151815260200191508051906020019080838360005b8381101561493c578181015183820152602001614924565b50505050905090810190601f1680156149695780820380516001836020036101000a031916815260200191505b509250505060405180910390fd5b505050900390565b60008060115460001415614994575081610d2b565b6000601054116149a057fe5b612b896011546113646010548661357590919063ffffffff16565b6149c3615678565b6149cb6157b0565b6015546001106149db57506144cb565b6149e487612021565b60408501526020848101919091528401819052908352614a0390615507565b604083018190526801158e460913d0000060608401526020830151614a2d9163ffffffff612b4716565b8152670de0b6b3a76400008611614b3557614a528989836020015184604001516147e6565b614a5b87614796565b60006080830181905260a0830152815160c0830152805160e0830152614a828760036145ee565b866001600160a01b03166000805160206157d283398151915283600001518460200151600260405180848152602001838152602001826003811115614ac357fe5b60ff168152602001935050505060405180910390a2866001600160a01b03166000805160206159348339815191526000806000600260405180858152602001848152602001838152602001826003811115614b1a57fe5b60ff16815260200194505050505060405180910390a2614ce2565b670de0b6b3a764000086118015614b535750670f43fc2c04ee000086105b15614ba357614b6c8989836020015184604001516147e6565b614b7587614796565b81518151614b8491908761550e565b60e086015260c085015260a08401526080830152614a828760036145ee565b670f43fc2c04ee00008610158015614bba57508386105b8015614bc7575081518510155b15614cd157614be08989836020015184604001516147e6565b84614be757fe5b614bf087614796565b614c03826000015183602001518561557a565b9150614c108760036145ee565b61010082015115614c905760075461010083015160408051633f10abab60e01b81526001600160a01b038b81166004830152602482019390935290519190921691633f10abab91604480830192600092919082900301818387803b158015614c7757600080fd5b505af1158015614c8b573d6000803e3d6000fd5b505050505b866001600160a01b03166000805160206157d283398151915283600001518460a00151600260405180848152602001838152602001826003811115614ac357fe5b614cd9615678565b91506144cb9050565b50979650505050505050565b614cf6615678565b60408083015190840151614d0f9163ffffffff613ba116565b604082015260608083015190840151614d2d9163ffffffff613ba116565b606082015281516020840151614d489163ffffffff613ba116565b6020808301919091528201518351614d659163ffffffff613ba116565b815260808083015190840151614d809163ffffffff613ba116565b608082015260a08083015190840151614d9e9163ffffffff613ba116565b60a082015260c08083015190840151614dbc9163ffffffff613ba116565b60c082015260e08083015190840151614dda9163ffffffff613ba116565b60e08201526101008083015190840151614df99163ffffffff613ba116565b61010082015292915050565b600080614e13858585614707565b6714d1120d7b1600001195945050505050565b614e2e615678565b614e366157b0565b614e3f84612021565b60408501908152602085810192835286019290925291845290519051614e699188918891906147e6565b614e7284614796565b614e7f8260200151615507565b604083018190526801158e460913d0000060608401526020830151600091614ead919063ffffffff612b4716565b9050614ebe8360000151828661550e565b60e087015260c086015260a08501526080840152614edd8560036145ee565b846001600160a01b03166000805160206157d283398151915284600001518560200151600160405180848152602001838152602001826003811115614f1e57fe5b60ff168152602001935050505060405180910390a2846001600160a01b03166000805160206159348339815191526000806000600160405180858152602001848152602001838152602001826003811115614f7557fe5b60ff16815260200194505050505060405180910390a25050949350505050565b6000818310614fa45781612b89565b5090919050565b60008183614ffa5760405162461bcd60e51b815260206004820181815283516024840152835190928392604490910191908501908083836000831561493c578181015183820152602001614924565b50600083858161500657fe5b0495945050505050565b600061118e603c611364600d5442612b4790919063ffffffff16565b6000631f54050082111561504257631f54050091505b816150565750670de0b6b3a7640000610d2b565b670de0b6b3a764000083835b60018111156150cd57600281066150975761507d8283615614565b915061509081600263ffffffff6135ce16565b90506150c8565b6150a18284615614565b92506150ad8283615614565b91506150c5600261136483600163ffffffff612b4716565b90505b615062565b6113708284615614565b6040808501516006548251632770a7eb60e21b81526001600160a01b039182166004820152602481018690529251911691639dc29fac91604480830192600092919082900301818387803b15801561512e57600080fd5b505af1158015615142573d6000803e3d6000fd5b5050505083600001516001600160a01b03166338d995a8836040518263ffffffff1660e01b815260040180828152602001915050600060405180830381600087803b15801561519057600080fd5b505af11580156151a4573d6000803e3d6000fd5b505050508360a001516001600160a01b0316633f10abab84836040518363ffffffff1660e01b815260040180836001600160a01b03166001600160a01b0316815260200182815260200192505050600060405180830381600087803b15801561520c57600080fd5b505af1158015615220573d6000803e3d6000fd5b5050505083600001516001600160a01b03166364a197f38560a00151836040518363ffffffff1660e01b815260040180836001600160a01b03166001600160a01b0316815260200182815260200192505050600060405180830381600087803b15801561349b57600080fd5b6000610d2b826801158e460913d0000063ffffffff612b4716565b6001811180156153255750600b546040805163de8fa43160e01b815290516001926001600160a01b03169163de8fa431916004808301926020929190829003018186803b1580156152f757600080fd5b505afa15801561530b573d6000803e3d6000fd5b505050506040513d602081101561532157600080fd5b5051115b610cd65760405162461bcd60e51b815260040180806020018281038252602a81526020018061583b602a913960400191505060405180910390fd5b6001600160a01b0382166000908152600e602052604081206003015460ff169081600481111561538c57fe5b141580156153a6575060018160048111156153a357fe5b14155b6153ac57fe5b6001600160a01b0383166000908152600e602052604081206003015461010090046001600160801b03169083906153e4826001612b47565b905080836001600160801b031611156153f957fe5b60006015828154811061540857fe5b600091825260209091200154601580546001600160a01b03909216925082916001600160801b03871690811061543a57fe5b600091825260208083209190910180546001600160a01b0319166001600160a01b03948516179055918316808252600e83526040918290206003018054610100600160881b0319166101006001600160801b038a169081029190911790915582519182529281019290925280517f02b04ae5f7be9ca7c103293a2aa15f3c339d15d6eda53b721fef7b0e609c831a9281900390910190a160158054806154dc57fe5b600082815260209020810160001990810180546001600160a01b031916905501905550505050505050565b60c8900490565b60008080808415615564576155238786614f95565b935061553987611364888763ffffffff61357516565b925061554b878563ffffffff612b4716565b915061555d868463ffffffff612b4716565b9050615571565b5060009250829150859050845b93509350935093565b615582615678565b8381526020810183905260006155aa8361136487670f43fc2c04ee000063ffffffff61357516565b90506155b581615507565b604083018190526801158e460913d000006060840152608083018690526155e390829063ffffffff612b4716565b60a08301526155f8848263ffffffff612b4716565b61010083015250600060c0820181905260e08201529392505050565b600080615627848463ffffffff61357516565b9050613e3c670de0b6b3a7640000611364836706f05b59d3b20000613ba1565b6040518060a00160405280600081526020016000815260200160001515815260200160008152602001600081525090565b6040518061012001604052806000815260200160008152602001600081526020016000815260200160008152602001600081526020016000815260200160008152602001600081525090565b6040805160e081018252600080825260208201819052918101829052606081018290526080810182905260a0810182905260c081019190915290565b60405180610100016040528060008152602001600081526020016000815260200160008152602001600081526020016000815260200160008152602001600081525090565b604051806060016040528060008152602001600081526020016000151581525090565b6040518060e0016040528060008152602001600081526020016000815260200160006001600160a01b0316815260200160001515815260200160008152602001600081525090565b6040518060600160405280600081526020016000815260200160008152509056feea67486ed7ebe3eea8ab3390efd4a3c8aae48be5bea27df104a8af786c40843454726f76654d616e616765723a20556e61626c6520746f2072656465656d20616e7920616d6f756e744152c73dd2614c4f9fc35e8c9cf16013cd588c75b49a4c1673ecffdcbcda940354726f76654d616e616765723a204f6e6c79206f6e652074726f766520696e207468652073797374656d54726f76654d616e616765723a20526564656d7074696f6e7320617265206e6f7420616c6c6f77656420647572696e6720626f6f747374726170207068617365536166654d6174683a206d756c7469706c69636174696f6e206f766572666c6f774f776e61626c653a2063616c6c6572206973206e6f7420746865206f776e657254726f76654d616e616765723a2052657175657374656420726564656d7074696f6e20616d6f756e74206d757374206265203c3d20757365722773204c55534420746f6b656e2062616c616e6365c3770d654ed33aeea6bf11ac8ef05d02a6a04ed4686dd2f624d853bbec43cc8b54726f76654d616e616765723a2043616c6c6572206973206e6f742074686520426f72726f7765724f7065726174696f6e7320636f6e747261637454726f76654d616e616765723a2043616c6c646174612061646472657373206172726179206d757374206e6f7420626520656d70747954726f76654d616e616765723a20416d6f756e74206d7573742062652067726561746572207468616e207a65726f54726f76654d616e616765723a2046656520776f756c642065617420757020616c6c2072657475726e656420636f6c6c61746572616c4d6178206665652070657263656e74616765206d757374206265206265747765656e20302e352520616e642031303025c454ee9b76c52f782a256af821b857ca6e125d1e3333bcede402fec2bed9600c54726f76654d616e616765723a2043616e6e6f742072656465656d207768656e20544352203c204d435254726f76654d616e616765723a206e6f7468696e6720746f206c697175696461746554726f76654d616e616765723a2054726f766520646f6573206e6f74206578697374206f7220697320636c6f736564a264697066735822122073ff93655059d8153a9f30b0db17da1b8c79bc40ef42b477c1503a3cae9081cb64736f6c634300060b0033",
			"opcodes": "PUSH1 0x80 PUSH1 0x40 MSTORE CALLVALUE DUP1 ISZERO PUSH2 0x10 JUMPI PUSH1 0x0 DUP1 REVERT JUMPDEST POP PUSH1 0x3 DUP1 SLOAD PUSH1 0x1 PUSH1 0x1 PUSH1 0xA0 SHL SUB NOT AND CALLER SWAP1 DUP2 OR SWAP1 SWAP2 SSTORE PUSH1 0x40 MLOAD PUSH1 0x0 SWAP1 PUSH32 0x8BE0079C531659141344CD1FD0A4F28419497F9722A3DAAFE3B4186F6B6457E0 SWAP1 DUP3 SWAP1 LOG3 PUSH2 0x5B29 DUP1 PUSH3 0x61 PUSH1 0x0 CODECOPY PUSH1 0x0 RETURN INVALID PUSH1 0x80 PUSH1 0x40 MSTORE CALLVALUE DUP1 ISZERO PUSH2 0x10 JUMPI PUSH1 0x0 DUP1 REVERT JUMPDEST POP PUSH1 0x4 CALLDATASIZE LT PUSH2 0x3A6 JUMPI PUSH1 0x0 CALLDATALOAD PUSH1 0xE0 SHR DUP1 PUSH4 0x48C661D EQ PUSH2 0x3AB JUMPI DUP1 PUSH4 0x60D49A3 EQ PUSH2 0x3CF JUMPI DUP1 PUSH4 0x71A7541 EQ PUSH2 0x3E9 JUMPI DUP1 PUSH4 0xB076557 EQ PUSH2 0x3F1 JUMPI DUP1 PUSH4 0x12610E92 EQ PUSH2 0x419 JUMPI DUP1 PUSH4 0x15D549F1 EQ PUSH2 0x445 JUMPI DUP1 PUSH4 0x1673C79A EQ PUSH2 0x46B JUMPI DUP1 PUSH4 0x18F2817A EQ PUSH2 0x4AA JUMPI DUP1 PUSH4 0x1BF43555 EQ PUSH2 0x4D0 JUMPI DUP1 PUSH4 0x1E8B1C2B EQ PUSH2 0x4D8 JUMPI DUP1 PUSH4 0x1F68F20A EQ PUSH2 0x579 JUMPI DUP1 PUSH4 0x1F7AF3C3 EQ PUSH2 0x581 JUMPI DUP1 PUSH4 0x21E37801 EQ PUSH2 0x589 JUMPI DUP1 PUSH4 0x24092669 EQ PUSH2 0x5AF JUMPI DUP1 PUSH4 0x28D28B5B EQ PUSH2 0x5B7 JUMPI DUP1 PUSH4 0x2B11551A EQ PUSH2 0x5BF JUMPI DUP1 PUSH4 0x2E86BBD8 EQ PUSH2 0x5C7 JUMPI DUP1 PUSH4 0x2F865568 EQ PUSH2 0x5CF JUMPI DUP1 PUSH4 0x3CC74225 EQ PUSH2 0x5F5 JUMPI DUP1 PUSH4 0x477D66CF EQ PUSH2 0x5FD JUMPI DUP1 PUSH4 0x480CD578 EQ PUSH2 0x61A JUMPI DUP1 PUSH4 0x4870DD9A EQ PUSH2 0x640 JUMPI DUP1 PUSH4 0x49EEFEEE EQ PUSH2 0x648 JUMPI DUP1 PUSH4 0x4E443D9E EQ PUSH2 0x650 JUMPI DUP1 PUSH4 0x5733D58F EQ PUSH2 0x681 JUMPI DUP1 PUSH4 0x5D6B480F EQ PUSH2 0x689 JUMPI DUP1 PUSH4 0x5D8C9609 EQ PUSH2 0x6B5 JUMPI DUP1 PUSH4 0x5DBA4C4A EQ PUSH2 0x6DB JUMPI DUP1 PUSH4 0x61EC893D EQ PUSH2 0x6E3 JUMPI DUP1 PUSH4 0x631203B0 EQ PUSH2 0x6EB JUMPI DUP1 PUSH4 0x64CEE260 EQ PUSH2 0x708 JUMPI DUP1 PUSH4 0x653D46E7 EQ PUSH2 0x72E JUMPI DUP1 PUSH4 0x66CA4A21 EQ PUSH2 0x74B JUMPI DUP1 PUSH4 0x6EF64338 EQ PUSH2 0x753 JUMPI DUP1 PUSH4 0x704B6C02 EQ PUSH2 0x7C2 JUMPI DUP1 PUSH4 0x72423C17 EQ PUSH2 0x7E8 JUMPI DUP1 PUSH4 0x724E78DA EQ PUSH2 0x814 JUMPI DUP1 PUSH4 0x72FE25AA EQ PUSH2 0x83A JUMPI DUP1 PUSH4 0x741BEF1A EQ PUSH2 0x842 JUMPI DUP1 PUSH4 0x756B253E EQ PUSH2 0x84A JUMPI DUP1 PUSH4 0x794E5724 EQ PUSH2 0x867 JUMPI DUP1 PUSH4 0x795D26C3 EQ PUSH2 0x86F JUMPI DUP1 PUSH4 0x797250E3 EQ PUSH2 0x877 JUMPI DUP1 PUSH4 0x7985C5E4 EQ PUSH2 0x87F JUMPI DUP1 PUSH4 0x7F7DDE4A EQ PUSH2 0x8FB JUMPI DUP1 PUSH4 0x807D138D EQ PUSH2 0x903 JUMPI DUP1 PUSH4 0x82FE3EB9 EQ PUSH2 0x90B JUMPI DUP1 PUSH4 0x887105D3 EQ PUSH2 0x931 JUMPI DUP1 PUSH4 0x8BAD0C0A EQ PUSH2 0x939 JUMPI DUP1 PUSH4 0x8DA5CB5B EQ PUSH2 0x941 JUMPI DUP1 PUSH4 0x8F32D59B EQ PUSH2 0x949 JUMPI DUP1 PUSH4 0x96D711FF EQ PUSH2 0x951 JUMPI DUP1 PUSH4 0x9976CF45 EQ PUSH2 0x959 JUMPI DUP1 PUSH4 0x9DD233D2 EQ PUSH2 0x985 JUMPI DUP1 PUSH4 0xA20BAEE6 EQ PUSH2 0x83A JUMPI DUP1 PUSH4 0xA3A64017 EQ PUSH2 0x98D JUMPI DUP1 PUSH4 0xA3F4DF7E EQ PUSH2 0x995 JUMPI DUP1 PUSH4 0xAE918754 EQ PUSH2 0xA12 JUMPI DUP1 PUSH4 0xB0D8E181 EQ PUSH2 0xA1A JUMPI DUP1 PUSH4 0xB7F8CF9B EQ PUSH2 0xA40 JUMPI DUP1 PUSH4 0xB82F263D EQ PUSH2 0xA48 JUMPI DUP1 PUSH4 0xB83F91A2 EQ PUSH2 0xA65 JUMPI DUP1 PUSH4 0xB91AF97C EQ PUSH2 0xA6D JUMPI DUP1 PUSH4 0xBCD37526 EQ PUSH2 0xAB9 JUMPI DUP1 PUSH4 0xBF9BEFB1 EQ PUSH2 0xB07 JUMPI DUP1 PUSH4 0xC35BC550 EQ PUSH2 0xB0F JUMPI DUP1 PUSH4 0xC52861F2 EQ PUSH2 0xB17 JUMPI DUP1 PUSH4 0xC7B55481 EQ PUSH2 0xB1F JUMPI DUP1 PUSH4 0xCBD138AE EQ PUSH2 0xB27 JUMPI DUP1 PUSH4 0xD293C710 EQ PUSH2 0xB4D JUMPI DUP1 PUSH4 0xD380A37C EQ PUSH2 0xB79 JUMPI DUP1 PUSH4 0xD3D6F843 EQ PUSH2 0xB81 JUMPI DUP1 PUSH4 0xD5B35635 EQ PUSH2 0xBAD JUMPI DUP1 PUSH4 0xD66A2553 EQ PUSH2 0xBCA JUMPI DUP1 PUSH4 0xD9A72444 EQ PUSH2 0xBF0 JUMPI DUP1 PUSH4 0xDBA1C5F2 EQ PUSH2 0xC0D JUMPI DUP1 PUSH4 0xE2AC77B0 EQ PUSH2 0xC15 JUMPI DUP1 PUSH4 0xF34862DE EQ PUSH2 0xC3B JUMPI DUP1 PUSH4 0xF36B2425 EQ PUSH2 0xC61 JUMPI DUP1 PUSH4 0xF851A440 EQ PUSH2 0xC69 JUMPI DUP1 PUSH4 0xF92D3433 EQ PUSH2 0x5B7 JUMPI DUP1 PUSH4 0xFE2BA848 EQ PUSH2 0xC71 JUMPI JUMPDEST PUSH1 0x0 DUP1 REVERT JUMPDEST PUSH2 0x3B3 PUSH2 0xC97 JUMP JUMPDEST PUSH1 0x40 DUP1 MLOAD PUSH1 0x1 PUSH1 0x1 PUSH1 0xA0 SHL SUB SWAP1 SWAP3 AND DUP3 MSTORE MLOAD SWAP1 DUP2 SWAP1 SUB PUSH1 0x20 ADD SWAP1 RETURN JUMPDEST PUSH2 0x3D7 PUSH2 0xCA6 JUMP JUMPDEST PUSH1 0x40 DUP1 MLOAD SWAP2 DUP3 MSTORE MLOAD SWAP1 DUP2 SWAP1 SUB PUSH1 0x20 ADD SWAP1 RETURN JUMPDEST PUSH2 0x3D7 PUSH2 0xCAC JUMP JUMPDEST PUSH2 0x417 PUSH1 0x4 DUP1 CALLDATASIZE SUB PUSH1 0x20 DUP2 LT ISZERO PUSH2 0x407 JUMPI PUSH1 0x0 DUP1 REVERT JUMPDEST POP CALLDATALOAD PUSH1 0x1 PUSH1 0x1 PUSH1 0xA0 SHL SUB AND PUSH2 0xCB1 JUMP JUMPDEST STOP JUMPDEST PUSH2 0x3D7 PUSH1 0x4 DUP1 CALLDATASIZE SUB PUSH1 0x40 DUP2 LT ISZERO PUSH2 0x42F JUMPI PUSH1 0x0 DUP1 REVERT JUMPDEST POP PUSH1 0x1 PUSH1 0x1 PUSH1 0xA0 SHL SUB DUP2 CALLDATALOAD AND SWAP1 PUSH1 0x20 ADD CALLDATALOAD PUSH2 0xCD9 JUMP JUMPDEST PUSH2 0x3D7 PUSH1 0x4 DUP1 CALLDATASIZE SUB PUSH1 0x20 DUP2 LT ISZERO PUSH2 0x45B JUMPI PUSH1 0x0 DUP1 REVERT JUMPDEST POP CALLDATALOAD PUSH1 0x1 PUSH1 0x1 PUSH1 0xA0 SHL SUB AND PUSH2 0xD31 JUMP JUMPDEST PUSH2 0x491 PUSH1 0x4 DUP1 CALLDATASIZE SUB PUSH1 0x20 DUP2 LT ISZERO PUSH2 0x481 JUMPI PUSH1 0x0 DUP1 REVERT JUMPDEST POP CALLDATALOAD PUSH1 0x1 PUSH1 0x1 PUSH1 0xA0 SHL SUB AND PUSH2 0xD55 JUMP JUMPDEST PUSH1 0x40 DUP1 MLOAD SWAP3 DUP4 MSTORE PUSH1 0x20 DUP4 ADD SWAP2 SWAP1 SWAP2 MSTORE DUP1 MLOAD SWAP2 DUP3 SWAP1 SUB ADD SWAP1 RETURN JUMPDEST PUSH2 0x3D7 PUSH1 0x4 DUP1 CALLDATASIZE SUB PUSH1 0x20 DUP2 LT ISZERO PUSH2 0x4C0 JUMPI PUSH1 0x0 DUP1 REVERT JUMPDEST POP CALLDATALOAD PUSH1 0x1 PUSH1 0x1 PUSH1 0xA0 SHL SUB AND PUSH2 0xD6E JUMP JUMPDEST PUSH2 0x3D7 PUSH2 0xD81 JUMP JUMPDEST PUSH2 0x417 PUSH1 0x4 DUP1 CALLDATASIZE SUB PUSH1 0x20 DUP2 LT ISZERO PUSH2 0x4EE JUMPI PUSH1 0x0 DUP1 REVERT JUMPDEST DUP2 ADD SWAP1 PUSH1 0x20 DUP2 ADD DUP2 CALLDATALOAD PUSH1 0x1 PUSH1 0x20 SHL DUP2 GT ISZERO PUSH2 0x508 JUMPI PUSH1 0x0 DUP1 REVERT JUMPDEST DUP3 ADD DUP4 PUSH1 0x20 DUP3 ADD GT ISZERO PUSH2 0x51A JUMPI PUSH1 0x0 DUP1 REVERT JUMPDEST DUP1 CALLDATALOAD SWAP1 PUSH1 0x20 ADD SWAP2 DUP5 PUSH1 0x20 DUP4 MUL DUP5 ADD GT PUSH1 0x1 PUSH1 0x20 SHL DUP4 GT OR ISZERO PUSH2 0x53B JUMPI PUSH1 0x0 DUP1 REVERT JUMPDEST SWAP2 SWAP1 DUP1 DUP1 PUSH1 0x20 MUL PUSH1 0x20 ADD PUSH1 0x40 MLOAD SWAP1 DUP2 ADD PUSH1 0x40 MSTORE DUP1 SWAP4 SWAP3 SWAP2 SWAP1 DUP2 DUP2 MSTORE PUSH1 0x20 ADD DUP4 DUP4 PUSH1 0x20 MUL DUP1 DUP3 DUP5 CALLDATACOPY PUSH1 0x0 SWAP3 ADD SWAP2 SWAP1 SWAP2 MSTORE POP SWAP3 SWAP6 POP PUSH2 0xD8E SWAP5 POP POP POP POP POP JUMP JUMPDEST PUSH2 0x3D7 PUSH2 0x111E JUMP JUMPDEST PUSH2 0x3B3 PUSH2 0x1124 JUMP JUMPDEST PUSH2 0x3D7 PUSH1 0x4 DUP1 CALLDATASIZE SUB PUSH1 0x20 DUP2 LT ISZERO PUSH2 0x59F JUMPI PUSH1 0x0 DUP1 REVERT JUMPDEST POP CALLDATALOAD PUSH1 0x1 PUSH1 0x1 PUSH1 0xA0 SHL SUB AND PUSH2 0x1133 JUMP JUMPDEST PUSH2 0x3D7 PUSH2 0x115D JUMP JUMPDEST PUSH2 0x3D7 PUSH2 0x1170 JUMP JUMPDEST PUSH2 0x3D7 PUSH2 0x1181 JUMP JUMPDEST PUSH2 0x3D7 PUSH2 0x1193 JUMP JUMPDEST PUSH2 0x417 PUSH1 0x4 DUP1 CALLDATASIZE SUB PUSH1 0x20 DUP2 LT ISZERO PUSH2 0x5E5 JUMPI PUSH1 0x0 DUP1 REVERT JUMPDEST POP CALLDATALOAD PUSH1 0x1 PUSH1 0x1 PUSH1 0xA0 SHL SUB AND PUSH2 0x11A0 JUMP JUMPDEST PUSH2 0x3B3 PUSH2 0x1206 JUMP JUMPDEST PUSH2 0x3D7 PUSH1 0x4 DUP1 CALLDATASIZE SUB PUSH1 0x20 DUP2 LT ISZERO PUSH2 0x613 JUMPI PUSH1 0x0 DUP1 REVERT JUMPDEST POP CALLDATALOAD PUSH2 0x1215 JUMP JUMPDEST PUSH2 0x3D7 PUSH1 0x4 DUP1 CALLDATASIZE SUB PUSH1 0x20 DUP2 LT ISZERO PUSH2 0x630 JUMPI PUSH1 0x0 DUP1 REVERT JUMPDEST POP CALLDATALOAD PUSH1 0x1 PUSH1 0x1 PUSH1 0xA0 SHL SUB AND PUSH2 0x1228 JUMP JUMPDEST PUSH2 0x3D7 PUSH2 0x1246 JUMP JUMPDEST PUSH2 0x3D7 PUSH2 0x124B JUMP JUMPDEST PUSH2 0x66D PUSH1 0x4 DUP1 CALLDATASIZE SUB PUSH1 0x20 DUP2 LT ISZERO PUSH2 0x666 JUMPI PUSH1 0x0 DUP1 REVERT JUMPDEST POP CALLDATALOAD PUSH2 0x1251 JUMP JUMPDEST PUSH1 0x40 DUP1 MLOAD SWAP2 ISZERO ISZERO DUP3 MSTORE MLOAD SWAP1 DUP2 SWAP1 SUB PUSH1 0x20 ADD SWAP1 RETURN JUMPDEST PUSH2 0x3D7 PUSH2 0x125C JUMP JUMPDEST PUSH2 0x417 PUSH1 0x4 DUP1 CALLDATASIZE SUB PUSH1 0x40 DUP2 LT ISZERO PUSH2 0x69F JUMPI PUSH1 0x0 DUP1 REVERT JUMPDEST POP PUSH1 0x1 PUSH1 0x1 PUSH1 0xA0 SHL SUB DUP2 CALLDATALOAD AND SWAP1 PUSH1 0x20 ADD CALLDATALOAD PUSH2 0x1268 JUMP JUMPDEST PUSH2 0x3D7 PUSH1 0x4 DUP1 CALLDATASIZE SUB PUSH1 0x20 DUP2 LT ISZERO PUSH2 0x6CB JUMPI PUSH1 0x0 DUP1 REVERT JUMPDEST POP CALLDATALOAD PUSH1 0x1 PUSH1 0x1 PUSH1 0xA0 SHL SUB AND PUSH2 0x12B4 JUMP JUMPDEST PUSH2 0x417 PUSH2 0x137A JUMP JUMPDEST PUSH2 0x3D7 PUSH2 0x13CE JUMP JUMPDEST PUSH2 0x3D7 PUSH1 0x4 DUP1 CALLDATASIZE SUB PUSH1 0x20 DUP2 LT ISZERO PUSH2 0x701 JUMPI PUSH1 0x0 DUP1 REVERT JUMPDEST POP CALLDATALOAD PUSH2 0x13D3 JUMP JUMPDEST PUSH2 0x3D7 PUSH1 0x4 DUP1 CALLDATASIZE SUB PUSH1 0x20 DUP2 LT ISZERO PUSH2 0x71E JUMPI PUSH1 0x0 DUP1 REVERT JUMPDEST POP CALLDATALOAD PUSH1 0x1 PUSH1 0x1 PUSH1 0xA0 SHL SUB AND PUSH2 0x13E0 JUMP JUMPDEST PUSH2 0x417 PUSH1 0x4 DUP1 CALLDATASIZE SUB PUSH1 0x20 DUP2 LT ISZERO PUSH2 0x744 JUMPI PUSH1 0x0 DUP1 REVERT JUMPDEST POP CALLDATALOAD PUSH2 0x13FE JUMP JUMPDEST PUSH2 0x3D7 PUSH2 0x179A JUMP JUMPDEST PUSH2 0x779 PUSH1 0x4 DUP1 CALLDATASIZE SUB PUSH1 0x20 DUP2 LT ISZERO PUSH2 0x769 JUMPI PUSH1 0x0 DUP1 REVERT JUMPDEST POP CALLDATALOAD PUSH1 0x1 PUSH1 0x1 PUSH1 0xA0 SHL SUB AND PUSH2 0x17AC JUMP JUMPDEST PUSH1 0x40 MLOAD DUP1 DUP7 DUP2 MSTORE PUSH1 0x20 ADD DUP6 DUP2 MSTORE PUSH1 0x20 ADD DUP5 DUP2 MSTORE PUSH1 0x20 ADD DUP4 PUSH1 0x4 DUP2 GT ISZERO PUSH2 0x79B JUMPI INVALID JUMPDEST PUSH1 0xFF AND DUP2 MSTORE PUSH1 0x1 PUSH1 0x1 PUSH1 0x80 SHL SUB SWAP1 SWAP3 AND PUSH1 0x20 DUP4 ADD MSTORE POP PUSH1 0x40 DUP1 MLOAD SWAP2 DUP3 SWAP1 SUB ADD SWAP5 POP SWAP3 POP POP POP RETURN JUMPDEST PUSH2 0x417 PUSH1 0x4 DUP1 CALLDATASIZE SUB PUSH1 0x20 DUP2 LT ISZERO PUSH2 0x7D8 JUMPI PUSH1 0x0 DUP1 REVERT JUMPDEST POP CALLDATALOAD PUSH1 0x1 PUSH1 0x1 PUSH1 0xA0 SHL SUB AND PUSH2 0x17E6 JUMP JUMPDEST PUSH2 0x3D7 PUSH1 0x4 DUP1 CALLDATASIZE SUB PUSH1 0x40 DUP2 LT ISZERO PUSH2 0x7FE JUMPI PUSH1 0x0 DUP1 REVERT JUMPDEST POP PUSH1 0x1 PUSH1 0x1 PUSH1 0xA0 SHL SUB DUP2 CALLDATALOAD AND SWAP1 PUSH1 0x20 ADD CALLDATALOAD PUSH2 0x184F JUMP JUMPDEST PUSH2 0x417 PUSH1 0x4 DUP1 CALLDATASIZE SUB PUSH1 0x20 DUP2 LT ISZERO PUSH2 0x82A JUMPI PUSH1 0x0 DUP1 REVERT JUMPDEST POP CALLDATALOAD PUSH1 0x1 PUSH1 0x1 PUSH1 0xA0 SHL SUB AND PUSH2 0x18AC JUMP JUMPDEST PUSH2 0x3D7 PUSH2 0x18E5 JUMP JUMPDEST PUSH2 0x3B3 PUSH2 0x18F1 JUMP JUMPDEST PUSH2 0x3B3 PUSH1 0x4 DUP1 CALLDATASIZE SUB PUSH1 0x20 DUP2 LT ISZERO PUSH2 0x860 JUMPI PUSH1 0x0 DUP1 REVERT JUMPDEST POP CALLDATALOAD PUSH2 0x1900 JUMP JUMPDEST PUSH2 0x3D7 PUSH2 0x1927 JUMP JUMPDEST PUSH2 0x3D7 PUSH2 0x1933 JUMP JUMPDEST PUSH2 0x3D7 PUSH2 0x1A34 JUMP JUMPDEST PUSH2 0x417 PUSH1 0x4 DUP1 CALLDATASIZE SUB PUSH2 0x160 DUP2 LT ISZERO PUSH2 0x896 JUMPI PUSH1 0x0 DUP1 REVERT JUMPDEST POP PUSH1 0x1 PUSH1 0x1 PUSH1 0xA0 SHL SUB DUP2 CALLDATALOAD DUP2 AND SWAP2 PUSH1 0x20 DUP2 ADD CALLDATALOAD DUP3 AND SWAP2 PUSH1 0x40 DUP3 ADD CALLDATALOAD DUP2 AND SWAP2 PUSH1 0x60 DUP2 ADD CALLDATALOAD DUP3 AND SWAP2 PUSH1 0x80 DUP3 ADD CALLDATALOAD DUP2 AND SWAP2 PUSH1 0xA0 DUP2 ADD CALLDATALOAD DUP3 AND SWAP2 PUSH1 0xC0 DUP3 ADD CALLDATALOAD DUP2 AND SWAP2 PUSH1 0xE0 DUP2 ADD CALLDATALOAD DUP3 AND SWAP2 PUSH2 0x100 DUP3 ADD CALLDATALOAD DUP2 AND SWAP2 PUSH2 0x120 DUP2 ADD CALLDATALOAD DUP3 AND SWAP2 PUSH2 0x140 SWAP1 SWAP2 ADD CALLDATALOAD AND PUSH2 0x1A3A JUMP JUMPDEST PUSH2 0x3B3 PUSH2 0x1E21 JUMP JUMPDEST PUSH2 0x3D7 PUSH2 0x1E30 JUMP JUMPDEST PUSH2 0x417 PUSH1 0x4 DUP1 CALLDATASIZE SUB PUSH1 0x20 DUP2 LT ISZERO PUSH2 0x921 JUMPI PUSH1 0x0 DUP1 REVERT JUMPDEST POP CALLDATALOAD PUSH1 0x1 PUSH1 0x1 PUSH1 0xA0 SHL SUB AND PUSH2 0x1E36 JUMP JUMPDEST PUSH2 0x3D7 PUSH2 0x1E47 JUMP JUMPDEST PUSH2 0x417 PUSH2 0x1F03 JUMP JUMPDEST PUSH2 0x3B3 PUSH2 0x1F2C JUMP JUMPDEST PUSH2 0x66D PUSH2 0x1F3B JUMP JUMPDEST PUSH2 0x3D7 PUSH2 0x1F4C JUMP JUMPDEST PUSH2 0x3D7 PUSH1 0x4 DUP1 CALLDATASIZE SUB PUSH1 0x40 DUP2 LT ISZERO PUSH2 0x96F JUMPI PUSH1 0x0 DUP1 REVERT JUMPDEST POP PUSH1 0x1 PUSH1 0x1 PUSH1 0xA0 SHL SUB DUP2 CALLDATALOAD AND SWAP1 PUSH1 0x20 ADD CALLDATALOAD PUSH2 0x1F52 JUMP JUMPDEST PUSH2 0x3D7 PUSH2 0x1F85 JUMP JUMPDEST PUSH2 0x3B3 PUSH2 0x1F8B JUMP JUMPDEST PUSH2 0x99D PUSH2 0x1F9A JUMP JUMPDEST PUSH1 0x40 DUP1 MLOAD PUSH1 0x20 DUP1 DUP3 MSTORE DUP4 MLOAD DUP2 DUP4 ADD MSTORE DUP4 MLOAD SWAP2 SWAP3 DUP4 SWAP3 SWAP1 DUP4 ADD SWAP2 DUP6 ADD SWAP1 DUP1 DUP4 DUP4 PUSH1 0x0 JUMPDEST DUP4 DUP2 LT ISZERO PUSH2 0x9D7 JUMPI DUP2 DUP2 ADD MLOAD DUP4 DUP3 ADD MSTORE PUSH1 0x20 ADD PUSH2 0x9BF JUMP JUMPDEST POP POP POP POP SWAP1 POP SWAP1 DUP2 ADD SWAP1 PUSH1 0x1F AND DUP1 ISZERO PUSH2 0xA04 JUMPI DUP1 DUP3 SUB DUP1 MLOAD PUSH1 0x1 DUP4 PUSH1 0x20 SUB PUSH2 0x100 EXP SUB NOT AND DUP2 MSTORE PUSH1 0x20 ADD SWAP2 POP JUMPDEST POP SWAP3 POP POP POP PUSH1 0x40 MLOAD DUP1 SWAP2 SUB SWAP1 RETURN JUMPDEST PUSH2 0x3B3 PUSH2 0x1FC2 JUMP JUMPDEST PUSH2 0x3D7 PUSH1 0x4 DUP1 CALLDATASIZE SUB PUSH1 0x20 DUP2 LT ISZERO PUSH2 0xA30 JUMPI PUSH1 0x0 DUP1 REVERT JUMPDEST POP CALLDATALOAD PUSH1 0x1 PUSH1 0x1 PUSH1 0xA0 SHL SUB AND PUSH2 0x1FD1 JUMP JUMPDEST PUSH2 0x3B3 PUSH2 0x1FF8 JUMP JUMPDEST PUSH2 0x3D7 PUSH1 0x4 DUP1 CALLDATASIZE SUB PUSH1 0x20 DUP2 LT ISZERO PUSH2 0xA5E JUMPI PUSH1 0x0 DUP1 REVERT JUMPDEST POP CALLDATALOAD PUSH2 0x2007 JUMP JUMPDEST PUSH2 0x3B3 PUSH2 0x2012 JUMP JUMPDEST PUSH2 0xA93 PUSH1 0x4 DUP1 CALLDATASIZE SUB PUSH1 0x20 DUP2 LT ISZERO PUSH2 0xA83 JUMPI PUSH1 0x0 DUP1 REVERT JUMPDEST POP CALLDATALOAD PUSH1 0x1 PUSH1 0x1 PUSH1 0xA0 SHL SUB AND PUSH2 0x2021 JUMP JUMPDEST PUSH1 0x40 DUP1 MLOAD SWAP5 DUP6 MSTORE PUSH1 0x20 DUP6 ADD SWAP4 SWAP1 SWAP4 MSTORE DUP4 DUP4 ADD SWAP2 SWAP1 SWAP2 MSTORE PUSH1 0x60 DUP4 ADD MSTORE MLOAD SWAP1 DUP2 SWAP1 SUB PUSH1 0x80 ADD SWAP1 RETURN JUMPDEST PUSH2 0x417 PUSH1 0x4 DUP1 CALLDATASIZE SUB PUSH1 0xE0 DUP2 LT ISZERO PUSH2 0xACF JUMPI PUSH1 0x0 DUP1 REVERT JUMPDEST POP DUP1 CALLDATALOAD SWAP1 PUSH1 0x1 PUSH1 0x1 PUSH1 0xA0 SHL SUB PUSH1 0x20 DUP3 ADD CALLDATALOAD DUP2 AND SWAP2 PUSH1 0x40 DUP2 ADD CALLDATALOAD DUP3 AND SWAP2 PUSH1 0x60 DUP3 ADD CALLDATALOAD AND SWAP1 PUSH1 0x80 DUP2 ADD CALLDATALOAD SWAP1 PUSH1 0xA0 DUP2 ADD CALLDATALOAD SWAP1 PUSH1 0xC0 ADD CALLDATALOAD PUSH2 0x2085 JUMP JUMPDEST PUSH2 0x3D7 PUSH2 0x2827 JUMP JUMPDEST PUSH2 0x3D7 PUSH2 0x282D JUMP JUMPDEST PUSH2 0x3D7 PUSH2 0x2834 JUMP JUMPDEST PUSH2 0x3D7 PUSH2 0x2846 JUMP JUMPDEST PUSH2 0x417 PUSH1 0x4 DUP1 CALLDATASIZE SUB PUSH1 0x20 DUP2 LT ISZERO PUSH2 0xB3D JUMPI PUSH1 0x0 DUP1 REVERT JUMPDEST POP CALLDATALOAD PUSH1 0x1 PUSH1 0x1 PUSH1 0xA0 SHL SUB AND PUSH2 0x2852 JUMP JUMPDEST PUSH2 0x3D7 PUSH1 0x4 DUP1 CALLDATASIZE SUB PUSH1 0x40 DUP2 LT ISZERO PUSH2 0xB63 JUMPI PUSH1 0x0 DUP1 REVERT JUMPDEST POP PUSH1 0x1 PUSH1 0x1 PUSH1 0xA0 SHL SUB DUP2 CALLDATALOAD AND SWAP1 PUSH1 0x20 ADD CALLDATALOAD PUSH2 0x2865 JUMP JUMPDEST PUSH2 0x3D7 PUSH2 0x2884 JUMP JUMPDEST PUSH2 0x3D7 PUSH1 0x4 DUP1 CALLDATASIZE SUB PUSH1 0x40 DUP2 LT ISZERO PUSH2 0xB97 JUMPI PUSH1 0x0 DUP1 REVERT JUMPDEST POP PUSH1 0x1 PUSH1 0x1 PUSH1 0xA0 SHL SUB DUP2 CALLDATALOAD AND SWAP1 PUSH1 0x20 ADD CALLDATALOAD PUSH2 0x288A JUMP JUMPDEST PUSH2 0x3D7 PUSH1 0x4 DUP1 CALLDATASIZE SUB PUSH1 0x20 DUP2 LT ISZERO PUSH2 0xBC3 JUMPI PUSH1 0x0 DUP1 REVERT JUMPDEST POP CALLDATALOAD PUSH2 0x28C0 JUMP JUMPDEST PUSH2 0x3D7 PUSH1 0x4 DUP1 CALLDATASIZE SUB PUSH1 0x20 DUP2 LT ISZERO PUSH2 0xBE0 JUMPI PUSH1 0x0 DUP1 REVERT JUMPDEST POP CALLDATALOAD PUSH1 0x1 PUSH1 0x1 PUSH1 0xA0 SHL SUB AND PUSH2 0x28D3 JUMP JUMPDEST PUSH2 0x3B3 PUSH1 0x4 DUP1 CALLDATASIZE SUB PUSH1 0x20 DUP2 LT ISZERO PUSH2 0xC06 JUMPI PUSH1 0x0 DUP1 REVERT JUMPDEST POP CALLDATALOAD PUSH2 0x28EE JUMP JUMPDEST PUSH2 0x3D7 PUSH2 0x2918 JUMP JUMPDEST PUSH2 0x66D PUSH1 0x4 DUP1 CALLDATASIZE SUB PUSH1 0x20 DUP2 LT ISZERO PUSH2 0xC2B JUMPI PUSH1 0x0 DUP1 REVERT JUMPDEST POP CALLDATALOAD PUSH1 0x1 PUSH1 0x1 PUSH1 0xA0 SHL SUB AND PUSH2 0x291E JUMP JUMPDEST PUSH2 0x3D7 PUSH1 0x4 DUP1 CALLDATASIZE SUB PUSH1 0x20 DUP2 LT ISZERO PUSH2 0xC51 JUMPI PUSH1 0x0 DUP1 REVERT JUMPDEST POP CALLDATALOAD PUSH1 0x1 PUSH1 0x1 PUSH1 0xA0 SHL SUB AND PUSH2 0x297C JUMP JUMPDEST PUSH2 0x3D7 PUSH2 0x29AD JUMP JUMPDEST PUSH2 0x3B3 PUSH2 0x29BA JUMP JUMPDEST PUSH2 0x417 PUSH1 0x4 DUP1 CALLDATASIZE SUB PUSH1 0x20 DUP2 LT ISZERO PUSH2 0xC87 JUMPI PUSH1 0x0 DUP1 REVERT JUMPDEST POP CALLDATALOAD PUSH1 0x1 PUSH1 0x1 PUSH1 0xA0 SHL SUB AND PUSH2 0x29C9 JUMP JUMPDEST PUSH1 0x5 SLOAD PUSH1 0x1 PUSH1 0x1 PUSH1 0xA0 SHL SUB AND DUP2 JUMP JUMPDEST PUSH1 0x17 SLOAD DUP2 JUMP JUMPDEST PUSH1 0x2 DUP2 JUMP JUMPDEST PUSH2 0xCB9 PUSH2 0x29DA JUMP JUMPDEST PUSH1 0x0 SLOAD PUSH1 0x1 SLOAD PUSH2 0xCD6 SWAP2 PUSH1 0x1 PUSH1 0x1 PUSH1 0xA0 SHL SUB SWAP1 DUP2 AND SWAP2 AND DUP4 PUSH2 0x2A25 JUMP JUMPDEST POP JUMP JUMPDEST PUSH1 0x0 PUSH2 0xCE3 PUSH2 0x29DA JUMP JUMPDEST PUSH1 0x1 PUSH1 0x1 PUSH1 0xA0 SHL SUB DUP4 AND PUSH1 0x0 SWAP1 DUP2 MSTORE PUSH1 0xE PUSH1 0x20 MSTORE PUSH1 0x40 DUP2 KECCAK256 SLOAD PUSH2 0xD0C SWAP1 DUP5 PUSH4 0xFFFFFFFF PUSH2 0x2B47 AND JUMP JUMPDEST PUSH1 0x1 PUSH1 0x1 PUSH1 0xA0 SHL SUB DUP6 AND PUSH1 0x0 SWAP1 DUP2 MSTORE PUSH1 0xE PUSH1 0x20 MSTORE PUSH1 0x40 SWAP1 KECCAK256 DUP2 SWAP1 SSTORE SWAP2 POP POP JUMPDEST SWAP3 SWAP2 POP POP JUMP JUMPDEST PUSH1 0x0 PUSH2 0xD3B PUSH2 0x29DA JUMP JUMPDEST PUSH2 0xD44 DUP3 PUSH2 0x2B90 JUMP JUMPDEST PUSH1 0x1 PUSH1 0x1 PUSH1 0x80 SHL SUB AND SWAP1 POP JUMPDEST SWAP2 SWAP1 POP JUMP JUMPDEST PUSH1 0x14 PUSH1 0x20 MSTORE PUSH1 0x0 SWAP1 DUP2 MSTORE PUSH1 0x40 SWAP1 KECCAK256 DUP1 SLOAD PUSH1 0x1 SWAP1 SWAP2 ADD SLOAD DUP3 JUMP JUMPDEST PUSH1 0x0 PUSH2 0xD78 PUSH2 0x29DA JUMP JUMPDEST PUSH2 0xD2B DUP3 PUSH2 0x2C2A JUMP JUMPDEST PUSH9 0x9C2007651B2500000 DUP2 JUMP JUMPDEST DUP1 MLOAD PUSH2 0xDCB JUMPI PUSH1 0x40 MLOAD PUSH3 0x461BCD PUSH1 0xE5 SHL DUP2 MSTORE PUSH1 0x4 ADD DUP1 DUP1 PUSH1 0x20 ADD DUP3 DUP2 SUB DUP3 MSTORE PUSH1 0x36 DUP2 MSTORE PUSH1 0x20 ADD DUP1 PUSH2 0x598F PUSH1 0x36 SWAP2 CODECOPY PUSH1 0x40 ADD SWAP2 POP POP PUSH1 0x40 MLOAD DUP1 SWAP2 SUB SWAP1 REVERT JUMPDEST PUSH1 0x0 SLOAD PUSH1 0x1 SLOAD PUSH1 0x5 SLOAD PUSH1 0x1 PUSH1 0x1 PUSH1 0xA0 SHL SUB SWAP3 DUP4 AND SWAP3 SWAP2 DUP3 AND SWAP2 AND PUSH2 0xDED PUSH2 0x5647 JUMP JUMPDEST PUSH2 0xDF5 PUSH2 0x5678 JUMP JUMPDEST PUSH1 0x2 PUSH1 0x0 SWAP1 SLOAD SWAP1 PUSH2 0x100 EXP SWAP1 DIV PUSH1 0x1 PUSH1 0x1 PUSH1 0xA0 SHL SUB AND PUSH1 0x1 PUSH1 0x1 PUSH1 0xA0 SHL SUB AND PUSH4 0xFDB11CF PUSH1 0x40 MLOAD DUP2 PUSH4 0xFFFFFFFF AND PUSH1 0xE0 SHL DUP2 MSTORE PUSH1 0x4 ADD PUSH1 0x20 PUSH1 0x40 MLOAD DUP1 DUP4 SUB DUP2 PUSH1 0x0 DUP8 DUP1 EXTCODESIZE ISZERO DUP1 ISZERO PUSH2 0xE45 JUMPI PUSH1 0x0 DUP1 REVERT JUMPDEST POP GAS CALL ISZERO DUP1 ISZERO PUSH2 0xE59 JUMPI RETURNDATASIZE PUSH1 0x0 DUP1 RETURNDATACOPY RETURNDATASIZE PUSH1 0x0 REVERT JUMPDEST POP POP POP POP PUSH1 0x40 MLOAD RETURNDATASIZE PUSH1 0x20 DUP2 LT ISZERO PUSH2 0xE6F JUMPI PUSH1 0x0 DUP1 REVERT JUMPDEST POP MLOAD DUP3 MSTORE PUSH1 0x40 DUP1 MLOAD PUSH4 0x26FCBC6B PUSH1 0xE2 SHL DUP2 MSTORE SWAP1 MLOAD PUSH1 0x1 PUSH1 0x1 PUSH1 0xA0 SHL SUB DUP6 AND SWAP2 PUSH4 0x9BF2F1AC SWAP2 PUSH1 0x4 DUP1 DUP4 ADD SWAP3 PUSH1 0x20 SWAP3 SWAP2 SWAP1 DUP3 SWAP1 SUB ADD DUP2 DUP7 DUP1 EXTCODESIZE ISZERO DUP1 ISZERO PUSH2 0xEB3 JUMPI PUSH1 0x0 DUP1 REVERT JUMPDEST POP GAS STATICCALL ISZERO DUP1 ISZERO PUSH2 0xEC7 JUMPI RETURNDATASIZE PUSH1 0x0 DUP1 RETURNDATACOPY RETURNDATASIZE PUSH1 0x0 REVERT JUMPDEST POP POP POP POP PUSH1 0x40 MLOAD RETURNDATASIZE PUSH1 0x20 DUP2 LT ISZERO PUSH2 0xEDD JUMPI PUSH1 0x0 DUP1 REVERT JUMPDEST POP MLOAD PUSH1 0x20 DUP4 ADD MSTORE DUP2 MLOAD PUSH2 0xEEF SWAP1 PUSH2 0x2CD9 JUMP JUMPDEST ISZERO DUP1 ISZERO PUSH1 0x40 DUP5 ADD MSTORE PUSH2 0xF17 JUMPI PUSH2 0xF10 DUP6 DUP6 DUP5 PUSH1 0x0 ADD MLOAD DUP6 PUSH1 0x20 ADD MLOAD DUP11 PUSH2 0x2CF6 JUMP JUMPDEST SWAP1 POP PUSH2 0xF2F JUMP JUMPDEST PUSH2 0xF2C DUP6 DUP6 DUP5 PUSH1 0x0 ADD MLOAD DUP6 PUSH1 0x20 ADD MLOAD DUP11 PUSH2 0x2F26 JUMP JUMPDEST SWAP1 POP JUMPDEST PUSH1 0x0 DUP2 PUSH1 0x20 ADD MLOAD GT PUSH2 0xF72 JUMPI PUSH1 0x40 MLOAD PUSH3 0x461BCD PUSH1 0xE5 SHL DUP2 MSTORE PUSH1 0x4 ADD DUP1 DUP1 PUSH1 0x20 ADD DUP3 DUP2 SUB DUP3 MSTORE PUSH1 0x22 DUP2 MSTORE PUSH1 0x20 ADD DUP1 PUSH2 0x5AA3 PUSH1 0x22 SWAP2 CODECOPY PUSH1 0x40 ADD SWAP2 POP POP PUSH1 0x40 MLOAD DUP1 SWAP2 SUB SWAP1 REVERT JUMPDEST DUP3 PUSH1 0x1 PUSH1 0x1 PUSH1 0xA0 SHL SUB AND PUSH4 0x335525AD DUP3 PUSH1 0x80 ADD MLOAD DUP4 PUSH1 0xA0 ADD MLOAD PUSH1 0x40 MLOAD DUP4 PUSH4 0xFFFFFFFF AND PUSH1 0xE0 SHL DUP2 MSTORE PUSH1 0x4 ADD DUP1 DUP4 DUP2 MSTORE PUSH1 0x20 ADD DUP3 DUP2 MSTORE PUSH1 0x20 ADD SWAP3 POP POP POP PUSH1 0x0 PUSH1 0x40 MLOAD DUP1 DUP4 SUB DUP2 PUSH1 0x0 DUP8 DUP1 EXTCODESIZE ISZERO DUP1 ISZERO PUSH2 0xFC8 JUMPI PUSH1 0x0 DUP1 REVERT JUMPDEST POP GAS CALL ISZERO DUP1 ISZERO PUSH2 0xFDC JUMPI RETURNDATASIZE PUSH1 0x0 DUP1 RETURNDATACOPY RETURNDATASIZE PUSH1 0x0 REVERT JUMPDEST POP POP POP POP PUSH2 0xFF4 DUP6 DUP6 DUP4 PUSH1 0xC0 ADD MLOAD DUP5 PUSH1 0xE0 ADD MLOAD PUSH2 0x2FEE JUMP JUMPDEST PUSH2 0x100 DUP2 ADD MLOAD ISZERO PUSH2 0x1073 JUMPI PUSH1 0x7 SLOAD PUSH2 0x100 DUP3 ADD MLOAD PUSH1 0x40 DUP1 MLOAD PUSH4 0x64A197F3 PUSH1 0xE0 SHL DUP2 MSTORE PUSH1 0x1 PUSH1 0x1 PUSH1 0xA0 SHL SUB SWAP4 DUP5 AND PUSH1 0x4 DUP3 ADD MSTORE PUSH1 0x24 DUP2 ADD SWAP3 SWAP1 SWAP3 MSTORE MLOAD SWAP2 DUP8 AND SWAP2 PUSH4 0x64A197F3 SWAP2 PUSH1 0x44 DUP1 DUP3 ADD SWAP3 PUSH1 0x0 SWAP3 SWAP1 SWAP2 SWAP1 DUP3 SWAP1 SUB ADD DUP2 DUP4 DUP8 DUP1 EXTCODESIZE ISZERO DUP1 ISZERO PUSH2 0x105A JUMPI PUSH1 0x0 DUP1 REVERT JUMPDEST POP GAS CALL ISZERO DUP1 ISZERO PUSH2 0x106E JUMPI RETURNDATASIZE PUSH1 0x0 DUP1 RETURNDATACOPY RETURNDATASIZE PUSH1 0x0 REVERT JUMPDEST POP POP POP POP JUMPDEST PUSH2 0x1081 DUP6 DUP3 PUSH1 0x40 ADD MLOAD PUSH2 0x326F JUMP JUMPDEST PUSH1 0x20 DUP2 ADD MLOAD PUSH1 0x60 DUP4 ADD MSTORE PUSH2 0x100 DUP2 ADD MLOAD PUSH1 0x40 DUP3 ADD MLOAD DUP3 MLOAD PUSH2 0x10B9 SWAP3 SWAP2 PUSH2 0x10AD SWAP2 SWAP1 PUSH4 0xFFFFFFFF PUSH2 0x2B47 AND JUMP JUMPDEST SWAP1 PUSH4 0xFFFFFFFF PUSH2 0x2B47 AND JUMP JUMPDEST PUSH1 0x80 DUP1 DUP5 ADD DUP3 SWAP1 MSTORE PUSH1 0x60 DUP1 DUP6 ADD MLOAD PUSH1 0x40 DUP1 DUP7 ADD MLOAD DUP7 DUP5 ADD MLOAD DUP3 MLOAD SWAP4 DUP5 MSTORE PUSH1 0x20 DUP5 ADD SWAP7 SWAP1 SWAP7 MSTORE DUP3 DUP3 ADD MSTORE SWAP2 DUP2 ADD SWAP4 SWAP1 SWAP4 MSTORE MLOAD PUSH1 0x0 DUP1 MLOAD PUSH1 0x20 PUSH2 0x581B DUP4 CODECOPY DUP2 MLOAD SWAP2 MSTORE SWAP3 DUP2 SWAP1 SUB SWAP1 SWAP2 ADD SWAP1 LOG1 PUSH2 0x1116 DUP6 CALLER DUP4 PUSH1 0x60 ADD MLOAD DUP5 PUSH1 0x40 ADD MLOAD PUSH2 0x33B6 JUMP JUMPDEST POP POP POP POP POP POP JUMP JUMPDEST PUSH1 0xC SLOAD DUP2 JUMP JUMPDEST PUSH1 0x9 SLOAD PUSH1 0x1 PUSH1 0x1 PUSH1 0xA0 SHL SUB AND DUP2 JUMP JUMPDEST PUSH1 0x1 PUSH1 0x1 PUSH1 0xA0 SHL SUB DUP2 AND PUSH1 0x0 SWAP1 DUP2 MSTORE PUSH1 0xE PUSH1 0x20 MSTORE PUSH1 0x40 DUP2 KECCAK256 PUSH1 0x3 ADD SLOAD PUSH1 0xFF AND PUSH1 0x4 DUP2 GT ISZERO PUSH2 0xD2B JUMPI INVALID JUMPDEST PUSH1 0x64 PUSH8 0xDE0B6B3A7640000 JUMPDEST DIV PUSH1 0x5 MUL DUP2 JUMP JUMPDEST PUSH2 0x3E8 PUSH8 0xDE0B6B3A7640000 PUSH2 0x1169 JUMP JUMPDEST PUSH1 0x0 PUSH2 0x118E PUSH1 0xC SLOAD PUSH2 0x34B9 JUMP JUMPDEST SWAP1 POP SWAP1 JUMP JUMPDEST PUSH9 0x1158E460913D00000 DUP2 JUMP JUMPDEST PUSH2 0x11A9 DUP2 PUSH2 0x34EF JUMP JUMPDEST PUSH1 0x40 DUP1 MLOAD PUSH1 0x1 DUP1 DUP3 MSTORE DUP2 DUP4 ADD SWAP1 SWAP3 MSTORE PUSH1 0x60 SWAP2 PUSH1 0x20 DUP1 DUP4 ADD SWAP1 DUP1 CALLDATASIZE DUP4 CALLDATACOPY ADD SWAP1 POP POP SWAP1 POP DUP2 DUP2 PUSH1 0x0 DUP2 MLOAD DUP2 LT PUSH2 0x11D9 JUMPI INVALID JUMPDEST PUSH1 0x20 MUL PUSH1 0x20 ADD ADD SWAP1 PUSH1 0x1 PUSH1 0x1 PUSH1 0xA0 SHL SUB AND SWAP1 DUP2 PUSH1 0x1 PUSH1 0x1 PUSH1 0xA0 SHL SUB AND DUP2 MSTORE POP POP PUSH2 0x1202 DUP2 PUSH2 0xD8E JUMP JUMPDEST POP POP JUMP JUMPDEST PUSH1 0x1 SLOAD PUSH1 0x1 PUSH1 0x1 PUSH1 0xA0 SHL SUB AND DUP2 JUMP JUMPDEST PUSH1 0x0 PUSH2 0xD2B PUSH2 0x1222 PUSH2 0x179A JUMP JUMPDEST DUP4 PUSH2 0x3557 JUMP JUMPDEST PUSH1 0x1 PUSH1 0x1 PUSH1 0xA0 SHL SUB AND PUSH1 0x0 SWAP1 DUP2 MSTORE PUSH1 0xE PUSH1 0x20 MSTORE PUSH1 0x40 SWAP1 KECCAK256 PUSH1 0x1 ADD SLOAD SWAP1 JUMP JUMPDEST PUSH1 0xC8 DUP2 JUMP JUMPDEST PUSH1 0x15 SLOAD SWAP1 JUMP JUMPDEST PUSH1 0x0 PUSH2 0xD2B DUP3 PUSH2 0x2CD9 JUMP JUMPDEST PUSH8 0x14D1120D7B160000 DUP2 JUMP JUMPDEST PUSH2 0x1270 PUSH2 0x29DA JUMP JUMPDEST DUP1 PUSH1 0x4 DUP2 GT ISZERO PUSH2 0x127C JUMPI INVALID JUMPDEST PUSH1 0x1 PUSH1 0x1 PUSH1 0xA0 SHL SUB DUP4 AND PUSH1 0x0 SWAP1 DUP2 MSTORE PUSH1 0xE PUSH1 0x20 MSTORE PUSH1 0x40 SWAP1 KECCAK256 PUSH1 0x3 ADD DUP1 SLOAD PUSH1 0xFF NOT AND PUSH1 0x1 DUP4 PUSH1 0x4 DUP2 GT ISZERO PUSH2 0x12AB JUMPI INVALID JUMPDEST MUL OR SWAP1 SSTORE POP POP POP JUMP JUMPDEST PUSH1 0x1 PUSH1 0x1 PUSH1 0xA0 SHL SUB DUP2 AND PUSH1 0x0 SWAP1 DUP2 MSTORE PUSH1 0x14 PUSH1 0x20 MSTORE PUSH1 0x40 DUP2 KECCAK256 SLOAD PUSH1 0x12 SLOAD DUP3 SWAP1 PUSH2 0x12E2 SWAP1 DUP4 PUSH4 0xFFFFFFFF PUSH2 0x2B47 AND JUMP JUMPDEST SWAP1 POP DUP1 ISZERO DUP1 PUSH2 0x131B JUMPI POP PUSH1 0x1 PUSH1 0x1 PUSH1 0x1 PUSH1 0xA0 SHL SUB DUP6 AND PUSH1 0x0 SWAP1 DUP2 MSTORE PUSH1 0xE PUSH1 0x20 MSTORE PUSH1 0x40 SWAP1 KECCAK256 PUSH1 0x3 ADD SLOAD PUSH1 0xFF AND PUSH1 0x4 DUP2 GT ISZERO PUSH2 0x1318 JUMPI INVALID JUMPDEST EQ ISZERO JUMPDEST ISZERO PUSH2 0x132B JUMPI PUSH1 0x0 SWAP3 POP POP POP PUSH2 0xD50 JUMP JUMPDEST PUSH1 0x1 PUSH1 0x1 PUSH1 0xA0 SHL SUB DUP5 AND PUSH1 0x0 SWAP1 DUP2 MSTORE PUSH1 0xE PUSH1 0x20 MSTORE PUSH1 0x40 DUP2 KECCAK256 PUSH1 0x2 ADD SLOAD SWAP1 PUSH2 0x1370 PUSH8 0xDE0B6B3A7640000 PUSH2 0x1364 DUP5 DUP7 PUSH4 0xFFFFFFFF PUSH2 0x3575 AND JUMP JUMPDEST SWAP1 PUSH4 0xFFFFFFFF PUSH2 0x35CE AND JUMP JUMPDEST SWAP7 SWAP6 POP POP POP POP POP POP JUMP JUMPDEST PUSH2 0x1382 PUSH2 0x29DA JUMP JUMPDEST PUSH1 0x0 PUSH2 0x138C PUSH2 0x360D JUMP JUMPDEST SWAP1 POP PUSH8 0xDE0B6B3A7640000 DUP2 GT ISZERO PUSH2 0x13A0 JUMPI INVALID JUMPDEST PUSH1 0xC DUP2 SWAP1 SSTORE PUSH1 0x40 DUP1 MLOAD DUP3 DUP2 MSTORE SWAP1 MLOAD PUSH1 0x0 DUP1 MLOAD PUSH1 0x20 PUSH2 0x5A59 DUP4 CODECOPY DUP2 MLOAD SWAP2 MSTORE SWAP2 DUP2 SWAP1 SUB PUSH1 0x20 ADD SWAP1 LOG1 PUSH2 0xCD6 PUSH2 0x3651 JUMP JUMPDEST PUSH1 0x3C DUP2 JUMP JUMPDEST PUSH1 0x0 PUSH2 0xD2B PUSH2 0x1222 PUSH2 0x29AD JUMP JUMPDEST PUSH1 0x1 PUSH1 0x1 PUSH1 0xA0 SHL SUB AND PUSH1 0x0 SWAP1 DUP2 MSTORE PUSH1 0xE PUSH1 0x20 MSTORE PUSH1 0x40 SWAP1 KECCAK256 PUSH1 0x2 ADD SLOAD SWAP1 JUMP JUMPDEST PUSH2 0x1406 PUSH2 0x56C4 JUMP JUMPDEST POP PUSH1 0x40 DUP1 MLOAD PUSH1 0xE0 DUP2 ADD DUP3 MSTORE PUSH1 0x0 DUP1 SLOAD PUSH1 0x1 PUSH1 0x1 PUSH1 0xA0 SHL SUB SWAP1 DUP2 AND DUP4 MSTORE PUSH1 0x1 SLOAD DUP2 AND PUSH1 0x20 DUP5 ADD MSTORE SWAP3 DUP3 ADD DUP2 SWAP1 MSTORE PUSH1 0x60 DUP3 ADD DUP2 SWAP1 MSTORE PUSH1 0xB SLOAD DUP4 AND PUSH1 0x80 DUP4 ADD MSTORE PUSH1 0xA0 DUP3 ADD DUP2 SWAP1 MSTORE PUSH1 0xC0 DUP3 ADD MSTORE PUSH1 0x5 SLOAD SWAP1 SWAP2 AND PUSH2 0x145D PUSH2 0x5647 JUMP JUMPDEST PUSH2 0x1465 PUSH2 0x5678 JUMP JUMPDEST PUSH1 0x2 PUSH1 0x0 SWAP1 SLOAD SWAP1 PUSH2 0x100 EXP SWAP1 DIV PUSH1 0x1 PUSH1 0x1 PUSH1 0xA0 SHL SUB AND PUSH1 0x1 PUSH1 0x1 PUSH1 0xA0 SHL SUB AND PUSH4 0xFDB11CF PUSH1 0x40 MLOAD DUP2 PUSH4 0xFFFFFFFF AND PUSH1 0xE0 SHL DUP2 MSTORE PUSH1 0x4 ADD PUSH1 0x20 PUSH1 0x40 MLOAD DUP1 DUP4 SUB DUP2 PUSH1 0x0 DUP8 DUP1 EXTCODESIZE ISZERO DUP1 ISZERO PUSH2 0x14B5 JUMPI PUSH1 0x0 DUP1 REVERT JUMPDEST POP GAS CALL ISZERO DUP1 ISZERO PUSH2 0x14C9 JUMPI RETURNDATASIZE PUSH1 0x0 DUP1 RETURNDATACOPY RETURNDATASIZE PUSH1 0x0 REVERT JUMPDEST POP POP POP POP PUSH1 0x40 MLOAD RETURNDATASIZE PUSH1 0x20 DUP2 LT ISZERO PUSH2 0x14DF JUMPI PUSH1 0x0 DUP1 REVERT JUMPDEST POP MLOAD DUP3 MSTORE PUSH1 0x40 DUP1 MLOAD PUSH4 0x26FCBC6B PUSH1 0xE2 SHL DUP2 MSTORE SWAP1 MLOAD PUSH1 0x1 PUSH1 0x1 PUSH1 0xA0 SHL SUB DUP6 AND SWAP2 PUSH4 0x9BF2F1AC SWAP2 PUSH1 0x4 DUP1 DUP4 ADD SWAP3 PUSH1 0x20 SWAP3 SWAP2 SWAP1 DUP3 SWAP1 SUB ADD DUP2 DUP7 DUP1 EXTCODESIZE ISZERO DUP1 ISZERO PUSH2 0x1523 JUMPI PUSH1 0x0 DUP1 REVERT JUMPDEST POP GAS STATICCALL ISZERO DUP1 ISZERO PUSH2 0x1537 JUMPI RETURNDATASIZE PUSH1 0x0 DUP1 RETURNDATACOPY RETURNDATASIZE PUSH1 0x0 REVERT JUMPDEST POP POP POP POP PUSH1 0x40 MLOAD RETURNDATASIZE PUSH1 0x20 DUP2 LT ISZERO PUSH2 0x154D JUMPI PUSH1 0x0 DUP1 REVERT JUMPDEST POP MLOAD PUSH1 0x20 DUP4 ADD MSTORE DUP2 MLOAD PUSH2 0x155F SWAP1 PUSH2 0x2CD9 JUMP JUMPDEST ISZERO DUP1 ISZERO PUSH1 0x40 DUP5 ADD MSTORE PUSH2 0x1586 JUMPI PUSH2 0x157F DUP5 DUP4 PUSH1 0x0 ADD MLOAD DUP5 PUSH1 0x20 ADD MLOAD DUP9 PUSH2 0x36AD JUMP JUMPDEST SWAP1 POP PUSH2 0x15A6 JUMP JUMPDEST PUSH2 0x15A3 DUP5 PUSH1 0x0 ADD MLOAD DUP6 PUSH1 0x20 ADD MLOAD DUP5 PUSH1 0x0 ADD MLOAD DUP6 PUSH1 0x20 ADD MLOAD DUP10 PUSH2 0x3A48 JUMP JUMPDEST SWAP1 POP JUMPDEST PUSH1 0x0 DUP2 PUSH1 0x20 ADD MLOAD GT PUSH2 0x15E9 JUMPI PUSH1 0x40 MLOAD PUSH3 0x461BCD PUSH1 0xE5 SHL DUP2 MSTORE PUSH1 0x4 ADD DUP1 DUP1 PUSH1 0x20 ADD DUP3 DUP2 SUB DUP3 MSTORE PUSH1 0x22 DUP2 MSTORE PUSH1 0x20 ADD DUP1 PUSH2 0x5AA3 PUSH1 0x22 SWAP2 CODECOPY PUSH1 0x40 ADD SWAP2 POP POP PUSH1 0x40 MLOAD DUP1 SWAP2 SUB SWAP1 REVERT JUMPDEST DUP3 PUSH1 0x1 PUSH1 0x1 PUSH1 0xA0 SHL SUB AND PUSH4 0x335525AD DUP3 PUSH1 0x80 ADD MLOAD DUP4 PUSH1 0xA0 ADD MLOAD PUSH1 0x40 MLOAD DUP4 PUSH4 0xFFFFFFFF AND PUSH1 0xE0 SHL DUP2 MSTORE PUSH1 0x4 ADD DUP1 DUP4 DUP2 MSTORE PUSH1 0x20 ADD DUP3 DUP2 MSTORE PUSH1 0x20 ADD SWAP3 POP POP POP PUSH1 0x0 PUSH1 0x40 MLOAD DUP1 DUP4 SUB DUP2 PUSH1 0x0 DUP8 DUP1 EXTCODESIZE ISZERO DUP1 ISZERO PUSH2 0x163F JUMPI PUSH1 0x0 DUP1 REVERT JUMPDEST POP GAS CALL ISZERO DUP1 ISZERO PUSH2 0x1653 JUMPI RETURNDATASIZE PUSH1 0x0 DUP1 RETURNDATACOPY RETURNDATASIZE PUSH1 0x0 REVERT JUMPDEST POP POP POP POP PUSH2 0x1673 DUP5 PUSH1 0x0 ADD MLOAD DUP6 PUSH1 0x20 ADD MLOAD DUP4 PUSH1 0xC0 ADD MLOAD DUP5 PUSH1 0xE0 ADD MLOAD PUSH2 0x2FEE JUMP JUMPDEST PUSH2 0x100 DUP2 ADD MLOAD ISZERO PUSH2 0x16F4 JUMPI DUP4 MLOAD PUSH1 0x7 SLOAD PUSH2 0x100 DUP4 ADD MLOAD PUSH1 0x40 DUP1 MLOAD PUSH4 0x64A197F3 PUSH1 0xE0 SHL DUP2 MSTORE PUSH1 0x1 PUSH1 0x1 PUSH1 0xA0 SHL SUB SWAP4 DUP5 AND PUSH1 0x4 DUP3 ADD MSTORE PUSH1 0x24 DUP2 ADD SWAP3 SWAP1 SWAP3 MSTORE MLOAD SWAP2 SWAP1 SWAP3 AND SWAP2 PUSH4 0x64A197F3 SWAP2 PUSH1 0x44 DUP1 DUP4 ADD SWAP3 PUSH1 0x0 SWAP3 SWAP2 SWAP1 DUP3 SWAP1 SUB ADD DUP2 DUP4 DUP8 DUP1 EXTCODESIZE ISZERO DUP1 ISZERO PUSH2 0x16DB JUMPI PUSH1 0x0 DUP1 REVERT JUMPDEST POP GAS CALL ISZERO DUP1 ISZERO PUSH2 0x16EF JUMPI RETURNDATASIZE PUSH1 0x0 DUP1 RETURNDATACOPY RETURNDATASIZE PUSH1 0x0 REVERT JUMPDEST POP POP POP POP JUMPDEST PUSH2 0x1706 DUP5 PUSH1 0x0 ADD MLOAD DUP3 PUSH1 0x40 ADD MLOAD PUSH2 0x326F JUMP JUMPDEST PUSH1 0x20 DUP2 ADD MLOAD PUSH1 0x60 DUP4 ADD MSTORE PUSH2 0x100 DUP2 ADD MLOAD PUSH1 0x40 DUP3 ADD MLOAD DUP3 MLOAD PUSH2 0x1732 SWAP3 SWAP2 PUSH2 0x10AD SWAP2 SWAP1 PUSH4 0xFFFFFFFF PUSH2 0x2B47 AND JUMP JUMPDEST PUSH1 0x80 DUP1 DUP5 ADD DUP3 SWAP1 MSTORE PUSH1 0x60 DUP1 DUP6 ADD MLOAD PUSH1 0x40 DUP1 DUP7 ADD MLOAD DUP7 DUP5 ADD MLOAD DUP3 MLOAD SWAP4 DUP5 MSTORE PUSH1 0x20 DUP5 ADD SWAP7 SWAP1 SWAP7 MSTORE DUP3 DUP3 ADD MSTORE SWAP2 DUP2 ADD SWAP4 SWAP1 SWAP4 MSTORE MLOAD PUSH1 0x0 DUP1 MLOAD PUSH1 0x20 PUSH2 0x581B DUP4 CODECOPY DUP2 MLOAD SWAP2 MSTORE SWAP3 DUP2 SWAP1 SUB SWAP1 SWAP2 ADD SWAP1 LOG1 PUSH2 0x1793 DUP5 PUSH1 0x0 ADD MLOAD CALLER DUP4 PUSH1 0x60 ADD MLOAD DUP5 PUSH1 0x40 ADD MLOAD PUSH2 0x33B6 JUMP JUMPDEST POP POP POP POP POP JUMP JUMPDEST PUSH1 0x0 PUSH2 0x118E PUSH2 0x17A7 PUSH2 0x360D JUMP JUMPDEST PUSH2 0x3B7A JUMP JUMPDEST PUSH1 0xE PUSH1 0x20 MSTORE PUSH1 0x0 SWAP1 DUP2 MSTORE PUSH1 0x40 SWAP1 KECCAK256 DUP1 SLOAD PUSH1 0x1 DUP3 ADD SLOAD PUSH1 0x2 DUP4 ADD SLOAD PUSH1 0x3 SWAP1 SWAP4 ADD SLOAD SWAP2 SWAP3 SWAP1 SWAP2 PUSH1 0xFF DUP2 AND SWAP1 PUSH2 0x100 SWAP1 DIV PUSH1 0x1 PUSH1 0x1 PUSH1 0x80 SHL SUB AND DUP6 JUMP JUMPDEST PUSH2 0x17EE PUSH2 0x1F3B JUMP JUMPDEST PUSH2 0x182D JUMPI PUSH1 0x40 DUP1 MLOAD PUSH3 0x461BCD PUSH1 0xE5 SHL DUP2 MSTORE PUSH1 0x20 PUSH1 0x4 DUP3 ADD DUP2 SWAP1 MSTORE PUSH1 0x24 DUP3 ADD MSTORE PUSH1 0x0 DUP1 MLOAD PUSH1 0x20 PUSH2 0x58C6 DUP4 CODECOPY DUP2 MLOAD SWAP2 MSTORE PUSH1 0x44 DUP3 ADD MSTORE SWAP1 MLOAD SWAP1 DUP2 SWAP1 SUB PUSH1 0x64 ADD SWAP1 REVERT JUMPDEST PUSH1 0x18 DUP1 SLOAD PUSH1 0x1 PUSH1 0x1 PUSH1 0xA0 SHL SUB NOT AND PUSH1 0x1 PUSH1 0x1 PUSH1 0xA0 SHL SUB SWAP3 SWAP1 SWAP3 AND SWAP2 SWAP1 SWAP2 OR SWAP1 SSTORE JUMP JUMPDEST PUSH1 0x0 PUSH2 0x1859 PUSH2 0x29DA JUMP JUMPDEST PUSH1 0x1 PUSH1 0x1 PUSH1 0xA0 SHL SUB DUP4 AND PUSH1 0x0 SWAP1 DUP2 MSTORE PUSH1 0xE PUSH1 0x20 MSTORE PUSH1 0x40 DUP2 KECCAK256 PUSH1 0x1 ADD SLOAD PUSH2 0x1885 SWAP1 DUP5 PUSH4 0xFFFFFFFF PUSH2 0x3BA1 AND JUMP JUMPDEST PUSH1 0x1 PUSH1 0x1 PUSH1 0xA0 SHL SUB DUP6 AND PUSH1 0x0 SWAP1 DUP2 MSTORE PUSH1 0xE PUSH1 0x20 MSTORE PUSH1 0x40 SWAP1 KECCAK256 PUSH1 0x1 ADD DUP2 SWAP1 SSTORE SWAP2 POP POP SWAP3 SWAP2 POP POP JUMP JUMPDEST PUSH1 0x18 SLOAD PUSH1 0x1 PUSH1 0x1 PUSH1 0xA0 SHL SUB AND CALLER EQ PUSH2 0x18C3 JUMPI PUSH1 0x0 DUP1 REVERT JUMPDEST PUSH1 0x2 DUP1 SLOAD PUSH1 0x1 PUSH1 0x1 PUSH1 0xA0 SHL SUB NOT AND PUSH1 0x1 PUSH1 0x1 PUSH1 0xA0 SHL SUB SWAP3 SWAP1 SWAP3 AND SWAP2 SWAP1 SWAP2 OR SWAP1 SSTORE JUMP JUMPDEST PUSH8 0xDE0B6B3A7640000 DUP2 JUMP JUMPDEST PUSH1 0x2 SLOAD PUSH1 0x1 PUSH1 0x1 PUSH1 0xA0 SHL SUB AND DUP2 JUMP JUMPDEST PUSH1 0x15 DUP2 DUP2 SLOAD DUP2 LT PUSH2 0x190D JUMPI INVALID JUMPDEST PUSH1 0x0 SWAP2 DUP3 MSTORE PUSH1 0x20 SWAP1 SWAP2 KECCAK256 ADD SLOAD PUSH1 0x1 PUSH1 0x1 PUSH1 0xA0 SHL SUB AND SWAP1 POP DUP2 JUMP JUMPDEST PUSH8 0xF43FC2C04EE0000 DUP2 JUMP JUMPDEST PUSH1 0x0 DUP1 SLOAD PUSH1 0x40 DUP1 MLOAD PUSH4 0x2F5A97E5 PUSH1 0xE1 SHL DUP2 MSTORE SWAP1 MLOAD DUP4 SWAP3 PUSH1 0x1 PUSH1 0x1 PUSH1 0xA0 SHL SUB AND SWAP2 PUSH4 0x5EB52FCA SWAP2 PUSH1 0x4 DUP1 DUP4 ADD SWAP3 PUSH1 0x20 SWAP3 SWAP2 SWAP1 DUP3 SWAP1 SUB ADD DUP2 DUP7 DUP1 EXTCODESIZE ISZERO DUP1 ISZERO PUSH2 0x1978 JUMPI PUSH1 0x0 DUP1 REVERT JUMPDEST POP GAS STATICCALL ISZERO DUP1 ISZERO PUSH2 0x198C JUMPI RETURNDATASIZE PUSH1 0x0 DUP1 RETURNDATACOPY RETURNDATASIZE PUSH1 0x0 REVERT JUMPDEST POP POP POP POP PUSH1 0x40 MLOAD RETURNDATASIZE PUSH1 0x20 DUP2 LT ISZERO PUSH2 0x19A2 JUMPI PUSH1 0x0 DUP1 REVERT JUMPDEST POP MLOAD PUSH1 0x1 SLOAD PUSH1 0x40 DUP1 MLOAD PUSH4 0x2F5A97E5 PUSH1 0xE1 SHL DUP2 MSTORE SWAP1 MLOAD SWAP3 SWAP4 POP PUSH1 0x0 SWAP3 PUSH1 0x1 PUSH1 0x1 PUSH1 0xA0 SHL SUB SWAP1 SWAP3 AND SWAP2 PUSH4 0x5EB52FCA SWAP2 PUSH1 0x4 DUP1 DUP3 ADD SWAP3 PUSH1 0x20 SWAP3 SWAP1 SWAP2 SWAP1 DUP3 SWAP1 SUB ADD DUP2 DUP7 DUP1 EXTCODESIZE ISZERO DUP1 ISZERO PUSH2 0x19EF JUMPI PUSH1 0x0 DUP1 REVERT JUMPDEST POP GAS STATICCALL ISZERO DUP1 ISZERO PUSH2 0x1A03 JUMPI RETURNDATASIZE PUSH1 0x0 DUP1 RETURNDATACOPY RETURNDATASIZE PUSH1 0x0 REVERT JUMPDEST POP POP POP POP PUSH1 0x40 MLOAD RETURNDATASIZE PUSH1 0x20 DUP2 LT ISZERO PUSH2 0x1A19 JUMPI PUSH1 0x0 DUP1 REVERT JUMPDEST POP MLOAD SWAP1 POP PUSH2 0x1A2D DUP3 DUP3 PUSH4 0xFFFFFFFF PUSH2 0x3BA1 AND JUMP JUMPDEST SWAP3 POP POP POP SWAP1 JUMP JUMPDEST PUSH1 0x16 SLOAD DUP2 JUMP JUMPDEST PUSH2 0x1A42 PUSH2 0x1F3B JUMP JUMPDEST PUSH2 0x1A81 JUMPI PUSH1 0x40 DUP1 MLOAD PUSH3 0x461BCD PUSH1 0xE5 SHL DUP2 MSTORE PUSH1 0x20 PUSH1 0x4 DUP3 ADD DUP2 SWAP1 MSTORE PUSH1 0x24 DUP3 ADD MSTORE PUSH1 0x0 DUP1 MLOAD PUSH1 0x20 PUSH2 0x58C6 DUP4 CODECOPY DUP2 MLOAD SWAP2 MSTORE PUSH1 0x44 DUP3 ADD MSTORE SWAP1 MLOAD SWAP1 DUP2 SWAP1 SUB PUSH1 0x64 ADD SWAP1 REVERT JUMPDEST PUSH2 0x1A8A DUP12 PUSH2 0x3BF9 JUMP JUMPDEST PUSH2 0x1A93 DUP11 PUSH2 0x3BF9 JUMP JUMPDEST PUSH2 0x1A9C DUP10 PUSH2 0x3BF9 JUMP JUMPDEST PUSH2 0x1AA5 DUP9 PUSH2 0x3BF9 JUMP JUMPDEST PUSH2 0x1AAE DUP8 PUSH2 0x3BF9 JUMP JUMPDEST PUSH2 0x1AB7 DUP7 PUSH2 0x3BF9 JUMP JUMPDEST PUSH2 0x1AC0 DUP6 PUSH2 0x3BF9 JUMP JUMPDEST PUSH2 0x1AC9 DUP5 PUSH2 0x3BF9 JUMP JUMPDEST PUSH2 0x1AD2 DUP4 PUSH2 0x3BF9 JUMP JUMPDEST PUSH2 0x1ADB DUP3 PUSH2 0x3BF9 JUMP JUMPDEST PUSH2 0x1AE4 DUP2 PUSH2 0x3BF9 JUMP JUMPDEST PUSH1 0x4 DUP1 SLOAD PUSH1 0x1 PUSH1 0x1 PUSH1 0xA0 SHL SUB NOT SWAP1 DUP2 AND PUSH1 0x1 PUSH1 0x1 PUSH1 0xA0 SHL SUB DUP15 DUP2 AND SWAP2 DUP3 OR SWAP1 SWAP4 SSTORE PUSH1 0x0 DUP1 SLOAD DUP4 AND DUP15 DUP6 AND OR SWAP1 SSTORE PUSH1 0x1 DUP1 SLOAD DUP4 AND DUP14 DUP6 AND OR SWAP1 SSTORE PUSH1 0x5 DUP1 SLOAD DUP4 AND DUP13 DUP6 AND OR SWAP1 SSTORE PUSH1 0x6 DUP1 SLOAD DUP4 AND DUP12 DUP6 AND OR SWAP1 SSTORE PUSH1 0x7 DUP1 SLOAD DUP4 AND DUP11 DUP6 AND OR SWAP1 SSTORE PUSH1 0x2 DUP1 SLOAD DUP4 AND DUP10 DUP6 AND OR SWAP1 SSTORE PUSH1 0x8 DUP1 SLOAD DUP4 AND DUP9 DUP6 AND OR SWAP1 SSTORE PUSH1 0xB DUP1 SLOAD DUP4 AND DUP8 DUP6 AND OR SWAP1 SSTORE PUSH1 0x9 DUP1 SLOAD DUP4 AND DUP7 DUP6 AND OR SWAP1 SSTORE PUSH1 0xA DUP1 SLOAD SWAP1 SWAP3 AND SWAP3 DUP5 AND SWAP3 SWAP1 SWAP3 OR SWAP1 SSTORE PUSH1 0x40 DUP1 MLOAD SWAP2 DUP3 MSTORE MLOAD PUSH32 0x3CA631FFCD2A9B5D9AE18543FC82F58EB4CA33AF9E6AB01B7A8E95331E6ED985 SWAP2 PUSH1 0x20 SWAP1 DUP3 SWAP1 SUB ADD SWAP1 LOG1 PUSH1 0x40 DUP1 MLOAD PUSH1 0x1 PUSH1 0x1 PUSH1 0xA0 SHL SUB DUP13 AND DUP2 MSTORE SWAP1 MLOAD PUSH32 0x78F058B189175430C48DC02699E3A0031EA4FF781536DC2FAB847DE4BABDD882 SWAP2 DUP2 SWAP1 SUB PUSH1 0x20 ADD SWAP1 LOG1 PUSH1 0x40 DUP1 MLOAD PUSH1 0x1 PUSH1 0x1 PUSH1 0xA0 SHL SUB DUP12 AND DUP2 MSTORE SWAP1 MLOAD PUSH32 0x5EE0CAE2F063ED938BB55046F6A932FB6AE792BF43624806BB90ABE68A50BE9B SWAP2 DUP2 SWAP1 SUB PUSH1 0x20 ADD SWAP1 LOG1 PUSH1 0x40 DUP1 MLOAD PUSH1 0x1 PUSH1 0x1 PUSH1 0xA0 SHL SUB DUP11 AND DUP2 MSTORE SWAP1 MLOAD PUSH32 0x82966D27EEA39B038EE0FA30CD16532BB24F6E65D31CB58FB227AA5766CDCC7F SWAP2 DUP2 SWAP1 SUB PUSH1 0x20 ADD SWAP1 LOG1 PUSH1 0x40 DUP1 MLOAD PUSH1 0x1 PUSH1 0x1 PUSH1 0xA0 SHL SUB DUP10 AND DUP2 MSTORE SWAP1 MLOAD PUSH32 0xCFB07D791FCAFC032B35837B50EB84B74DF518CF4CC287E8084F47630FA70FA0 SWAP2 DUP2 SWAP1 SUB PUSH1 0x20 ADD SWAP1 LOG1 PUSH1 0x40 DUP1 MLOAD PUSH1 0x1 PUSH1 0x1 PUSH1 0xA0 SHL SUB DUP9 AND DUP2 MSTORE SWAP1 MLOAD PUSH32 0xE67F36A6E961157D6EFF83B91F3AF5A62131CEB6F04954EF74F51C1C05E7F88D SWAP2 DUP2 SWAP1 SUB PUSH1 0x20 ADD SWAP1 LOG1 PUSH1 0x40 DUP1 MLOAD PUSH1 0x1 PUSH1 0x1 PUSH1 0xA0 SHL SUB DUP8 AND DUP2 MSTORE SWAP1 MLOAD PUSH32 0x8C537274438AA850A330284665D81A85DD38267D09E4050D416BFC94142DB264 SWAP2 DUP2 SWAP1 SUB PUSH1 0x20 ADD SWAP1 LOG1 PUSH1 0x40 DUP1 MLOAD PUSH1 0x1 PUSH1 0x1 PUSH1 0xA0 SHL SUB DUP7 AND DUP2 MSTORE SWAP1 MLOAD PUSH32 0x227EEC0EC317AF6AB1A9587FFA1C84332522EB4C583A908F89BABC05F8F339BD SWAP2 DUP2 SWAP1 SUB PUSH1 0x20 ADD SWAP1 LOG1 PUSH1 0x40 DUP1 MLOAD PUSH1 0x1 PUSH1 0x1 PUSH1 0xA0 SHL SUB DUP6 AND DUP2 MSTORE SWAP1 MLOAD PUSH32 0x65F4CF077BC01E4742EB5AD98326F6E95B63548EA24B17F8D5E823111FE78800 SWAP2 DUP2 SWAP1 SUB PUSH1 0x20 ADD SWAP1 LOG1 PUSH1 0x40 DUP1 MLOAD PUSH1 0x1 PUSH1 0x1 PUSH1 0xA0 SHL SUB DUP5 AND DUP2 MSTORE SWAP1 MLOAD PUSH32 0x2AC6E99201DDC1B6EAC6F8F28662D1ECAFEE131F6EB98C29DE54528A9888A7D1 SWAP2 DUP2 SWAP1 SUB PUSH1 0x20 ADD SWAP1 LOG1 PUSH1 0x40 DUP1 MLOAD PUSH1 0x1 PUSH1 0x1 PUSH1 0xA0 SHL SUB DUP4 AND DUP2 MSTORE SWAP1 MLOAD PUSH32 0x756EBC192164C295BBA134B5AACD72CC7AFF8098A670D1F0A5F6B3A0B4CE6707 SWAP2 DUP2 SWAP1 SUB PUSH1 0x20 ADD SWAP1 LOG1 PUSH2 0x1E14 PUSH2 0x3CA8 JUMP JUMPDEST POP POP POP POP POP POP POP POP POP POP POP JUMP JUMPDEST PUSH1 0x0 SLOAD PUSH1 0x1 PUSH1 0x1 PUSH1 0xA0 SHL SUB AND DUP2 JUMP JUMPDEST PUSH1 0x10 SLOAD DUP2 JUMP JUMPDEST PUSH2 0x1E3E PUSH2 0x29DA JUMP JUMPDEST PUSH2 0xCD6 DUP2 PUSH2 0x3CF2 JUMP JUMPDEST PUSH1 0x0 DUP1 SLOAD PUSH1 0x40 DUP1 MLOAD PUSH4 0xA7B61DF PUSH1 0xE1 SHL DUP2 MSTORE SWAP1 MLOAD DUP4 SWAP3 PUSH1 0x1 PUSH1 0x1 PUSH1 0xA0 SHL SUB AND SWAP2 PUSH4 0x14F6C3BE SWAP2 PUSH1 0x4 DUP1 DUP4 ADD SWAP3 PUSH1 0x20 SWAP3 SWAP2 SWAP1 DUP3 SWAP1 SUB ADD DUP2 DUP7 DUP1 EXTCODESIZE ISZERO DUP1 ISZERO PUSH2 0x1E8C JUMPI PUSH1 0x0 DUP1 REVERT JUMPDEST POP GAS STATICCALL ISZERO DUP1 ISZERO PUSH2 0x1EA0 JUMPI RETURNDATASIZE PUSH1 0x0 DUP1 RETURNDATACOPY RETURNDATASIZE PUSH1 0x0 REVERT JUMPDEST POP POP POP POP PUSH1 0x40 MLOAD RETURNDATASIZE PUSH1 0x20 DUP2 LT ISZERO PUSH2 0x1EB6 JUMPI PUSH1 0x0 DUP1 REVERT JUMPDEST POP MLOAD PUSH1 0x1 SLOAD PUSH1 0x40 DUP1 MLOAD PUSH4 0xA7B61DF PUSH1 0xE1 SHL DUP2 MSTORE SWAP1 MLOAD SWAP3 SWAP4 POP PUSH1 0x0 SWAP3 PUSH1 0x1 PUSH1 0x1 PUSH1 0xA0 SHL SUB SWAP1 SWAP3 AND SWAP2 PUSH4 0x14F6C3BE SWAP2 PUSH1 0x4 DUP1 DUP3 ADD SWAP3 PUSH1 0x20 SWAP3 SWAP1 SWAP2 SWAP1 DUP3 SWAP1 SUB ADD DUP2 DUP7 DUP1 EXTCODESIZE ISZERO DUP1 ISZERO PUSH2 0x19EF JUMPI PUSH1 0x0 DUP1 REVERT JUMPDEST PUSH1 0x18 SLOAD PUSH1 0x1 PUSH1 0x1 PUSH1 0xA0 SHL SUB AND CALLER EQ PUSH2 0x1F1A JUMPI PUSH1 0x0 DUP1 REVERT JUMPDEST PUSH1 0x18 DUP1 SLOAD PUSH1 0x1 PUSH1 0x1 PUSH1 0xA0 SHL SUB NOT AND SWAP1 SSTORE JUMP JUMPDEST PUSH1 0x3 SLOAD PUSH1 0x1 PUSH1 0x1 PUSH1 0xA0 SHL SUB AND SWAP1 JUMP JUMPDEST PUSH1 0x3 SLOAD PUSH1 0x1 PUSH1 0x1 PUSH1 0xA0 SHL SUB AND CALLER EQ SWAP1 JUMP JUMPDEST PUSH1 0x11 SLOAD DUP2 JUMP JUMPDEST PUSH1 0x0 PUSH2 0x1F5C PUSH2 0x29DA JUMP JUMPDEST PUSH1 0x1 PUSH1 0x1 PUSH1 0xA0 SHL SUB DUP4 AND PUSH1 0x0 SWAP1 DUP2 MSTORE PUSH1 0xE PUSH1 0x20 MSTORE PUSH1 0x40 DUP2 KECCAK256 SLOAD PUSH2 0xD0C SWAP1 DUP5 PUSH4 0xFFFFFFFF PUSH2 0x3BA1 AND JUMP JUMPDEST PUSH1 0x12 SLOAD DUP2 JUMP JUMPDEST PUSH1 0xA SLOAD PUSH1 0x1 PUSH1 0x1 PUSH1 0xA0 SHL SUB AND DUP2 JUMP JUMPDEST PUSH1 0x40 MLOAD DUP1 PUSH1 0x40 ADD PUSH1 0x40 MSTORE DUP1 PUSH1 0xC DUP2 MSTORE PUSH1 0x20 ADD PUSH12 0x2A3937BB32A6B0B730B3B2B9 PUSH1 0xA1 SHL DUP2 MSTORE POP DUP2 JUMP JUMPDEST PUSH1 0xB SLOAD PUSH1 0x1 PUSH1 0x1 PUSH1 0xA0 SHL SUB AND DUP2 JUMP JUMPDEST PUSH1 0x0 DUP1 PUSH1 0x0 PUSH2 0x1FDF DUP5 PUSH2 0x3D5D JUMP JUMPDEST SWAP2 POP SWAP2 POP PUSH1 0x0 PUSH2 0x1FEF DUP4 DUP4 PUSH2 0x3DE3 JUMP JUMPDEST SWAP6 SWAP5 POP POP POP POP POP JUMP JUMPDEST PUSH1 0x4 SLOAD PUSH1 0x1 PUSH1 0x1 PUSH1 0xA0 SHL SUB AND DUP2 JUMP JUMPDEST PUSH1 0x0 PUSH2 0xD2B DUP3 PUSH2 0x3E18 JUMP JUMPDEST PUSH1 0x8 SLOAD PUSH1 0x1 PUSH1 0x1 PUSH1 0xA0 SHL SUB AND DUP2 JUMP JUMPDEST PUSH1 0x1 PUSH1 0x1 PUSH1 0xA0 SHL SUB DUP2 AND PUSH1 0x0 SWAP1 DUP2 MSTORE PUSH1 0xE PUSH1 0x20 MSTORE PUSH1 0x40 DUP2 KECCAK256 DUP1 SLOAD PUSH1 0x1 SWAP1 SWAP2 ADD SLOAD SWAP1 SWAP2 DUP1 PUSH2 0x204D DUP6 PUSH2 0x297C JUMP JUMPDEST SWAP2 POP PUSH2 0x2058 DUP6 PUSH2 0x12B4 JUMP JUMPDEST SWAP1 POP PUSH2 0x206A DUP5 DUP4 PUSH4 0xFFFFFFFF PUSH2 0x3BA1 AND JUMP JUMPDEST SWAP4 POP PUSH2 0x207C DUP4 DUP3 PUSH4 0xFFFFFFFF PUSH2 0x3BA1 AND JUMP JUMPDEST SWAP3 POP SWAP2 SWAP4 POP SWAP2 SWAP4 JUMP JUMPDEST PUSH2 0x208D PUSH2 0x56C4 JUMP JUMPDEST POP PUSH1 0x40 DUP1 MLOAD PUSH1 0xE0 DUP2 ADD DUP3 MSTORE PUSH1 0x0 SLOAD PUSH1 0x1 PUSH1 0x1 PUSH1 0xA0 SHL SUB SWAP1 DUP2 AND DUP3 MSTORE PUSH1 0x1 SLOAD DUP2 AND PUSH1 0x20 DUP4 ADD MSTORE PUSH1 0x8 SLOAD DUP2 AND SWAP3 DUP3 ADD SWAP3 SWAP1 SWAP3 MSTORE PUSH1 0xA SLOAD DUP3 AND PUSH1 0x60 DUP3 ADD MSTORE PUSH1 0xB SLOAD DUP3 AND PUSH1 0x80 DUP3 ADD MSTORE PUSH1 0x7 SLOAD DUP3 AND PUSH1 0xA0 DUP3 ADD MSTORE PUSH1 0x6 SLOAD SWAP1 SWAP2 AND PUSH1 0xC0 DUP3 ADD MSTORE PUSH2 0x20EF PUSH2 0x5700 JUMP JUMPDEST PUSH2 0x20F8 DUP4 PUSH2 0x3E44 JUMP JUMPDEST PUSH2 0x2100 PUSH2 0x3E9E JUMP JUMPDEST PUSH1 0x2 PUSH1 0x0 SWAP1 SLOAD SWAP1 PUSH2 0x100 EXP SWAP1 DIV PUSH1 0x1 PUSH1 0x1 PUSH1 0xA0 SHL SUB AND PUSH1 0x1 PUSH1 0x1 PUSH1 0xA0 SHL SUB AND PUSH4 0xFDB11CF PUSH1 0x40 MLOAD DUP2 PUSH4 0xFFFFFFFF AND PUSH1 0xE0 SHL DUP2 MSTORE PUSH1 0x4 ADD PUSH1 0x20 PUSH1 0x40 MLOAD DUP1 DUP4 SUB DUP2 PUSH1 0x0 DUP8 DUP1 EXTCODESIZE ISZERO DUP1 ISZERO PUSH2 0x2150 JUMPI PUSH1 0x0 DUP1 REVERT JUMPDEST POP GAS CALL ISZERO DUP1 ISZERO PUSH2 0x2164 JUMPI RETURNDATASIZE PUSH1 0x0 DUP1 RETURNDATACOPY RETURNDATASIZE PUSH1 0x0 REVERT JUMPDEST POP POP POP POP PUSH1 0x40 MLOAD RETURNDATASIZE PUSH1 0x20 DUP2 LT ISZERO PUSH2 0x217A JUMPI PUSH1 0x0 DUP1 REVERT JUMPDEST POP MLOAD PUSH1 0xC0 DUP3 ADD DUP2 SWAP1 MSTORE PUSH2 0x218C SWAP1 PUSH2 0x3F62 JUMP JUMPDEST PUSH2 0x2195 DUP10 PUSH2 0x3FB1 JUMP JUMPDEST PUSH2 0x21A4 DUP3 PUSH1 0x40 ADD MLOAD CALLER DUP12 PUSH2 0x3FF0 JUMP JUMPDEST PUSH2 0x21AC PUSH2 0x1933 JUMP JUMPDEST PUSH1 0xE0 DUP3 ADD DUP2 SWAP1 MSTORE PUSH1 0x40 DUP1 DUP5 ADD MLOAD DUP2 MLOAD PUSH4 0x70A08231 PUSH1 0xE0 SHL DUP2 MSTORE CALLER PUSH1 0x4 DUP3 ADD MSTORE SWAP2 MLOAD PUSH1 0x1 PUSH1 0x1 PUSH1 0xA0 SHL SUB SWAP1 SWAP2 AND SWAP2 PUSH4 0x70A08231 SWAP2 PUSH1 0x24 DUP1 DUP4 ADD SWAP3 PUSH1 0x20 SWAP3 SWAP2 SWAP1 DUP3 SWAP1 SUB ADD DUP2 DUP7 DUP1 EXTCODESIZE ISZERO DUP1 ISZERO PUSH2 0x21FE JUMPI PUSH1 0x0 DUP1 REVERT JUMPDEST POP GAS STATICCALL ISZERO DUP1 ISZERO PUSH2 0x2212 JUMPI RETURNDATASIZE PUSH1 0x0 DUP1 RETURNDATACOPY RETURNDATASIZE PUSH1 0x0 REVERT JUMPDEST POP POP POP POP PUSH1 0x40 MLOAD RETURNDATASIZE PUSH1 0x20 DUP2 LT ISZERO PUSH2 0x2228 JUMPI PUSH1 0x0 DUP1 REVERT JUMPDEST POP MLOAD GT ISZERO PUSH2 0x2232 JUMPI INVALID JUMPDEST DUP9 DUP2 MSTORE PUSH1 0x80 DUP3 ADD MLOAD PUSH1 0xC0 DUP3 ADD MLOAD PUSH1 0x0 SWAP2 PUSH2 0x224D SWAP2 DUP12 SWAP1 PUSH2 0x40B0 JUMP JUMPDEST ISZERO PUSH2 0x2259 JUMPI POP DUP8 PUSH2 0x2383 JUMP JUMPDEST DUP3 PUSH1 0x80 ADD MLOAD PUSH1 0x1 PUSH1 0x1 PUSH1 0xA0 SHL SUB AND PUSH4 0x4D622831 PUSH1 0x40 MLOAD DUP2 PUSH4 0xFFFFFFFF AND PUSH1 0xE0 SHL DUP2 MSTORE PUSH1 0x4 ADD PUSH1 0x20 PUSH1 0x40 MLOAD DUP1 DUP4 SUB DUP2 DUP7 DUP1 EXTCODESIZE ISZERO DUP1 ISZERO PUSH2 0x2296 JUMPI PUSH1 0x0 DUP1 REVERT JUMPDEST POP GAS STATICCALL ISZERO DUP1 ISZERO PUSH2 0x22AA JUMPI RETURNDATASIZE PUSH1 0x0 DUP1 RETURNDATACOPY RETURNDATASIZE PUSH1 0x0 REVERT JUMPDEST POP POP POP POP PUSH1 0x40 MLOAD RETURNDATASIZE PUSH1 0x20 DUP2 LT ISZERO PUSH2 0x22C0 JUMPI PUSH1 0x0 DUP1 REVERT JUMPDEST POP MLOAD SWAP1 POP JUMPDEST PUSH1 0x1 PUSH1 0x1 PUSH1 0xA0 SHL SUB DUP2 AND ISZERO DUP1 ISZERO SWAP1 PUSH2 0x22F1 JUMPI POP PUSH8 0xF43FC2C04EE0000 PUSH2 0x22EF DUP3 DUP5 PUSH1 0xC0 ADD MLOAD PUSH2 0x2865 JUMP JUMPDEST LT JUMPDEST ISZERO PUSH2 0x2383 JUMPI DUP3 PUSH1 0x80 ADD MLOAD PUSH1 0x1 PUSH1 0x1 PUSH1 0xA0 SHL SUB AND PUSH4 0xB72703AC DUP3 PUSH1 0x40 MLOAD DUP3 PUSH4 0xFFFFFFFF AND PUSH1 0xE0 SHL DUP2 MSTORE PUSH1 0x4 ADD DUP1 DUP3 PUSH1 0x1 PUSH1 0x1 PUSH1 0xA0 SHL SUB AND PUSH1 0x1 PUSH1 0x1 PUSH1 0xA0 SHL SUB AND DUP2 MSTORE PUSH1 0x20 ADD SWAP2 POP POP PUSH1 0x20 PUSH1 0x40 MLOAD DUP1 DUP4 SUB DUP2 DUP7 DUP1 EXTCODESIZE ISZERO DUP1 ISZERO PUSH2 0x2350 JUMPI PUSH1 0x0 DUP1 REVERT JUMPDEST POP GAS STATICCALL ISZERO DUP1 ISZERO PUSH2 0x2364 JUMPI RETURNDATASIZE PUSH1 0x0 DUP1 RETURNDATACOPY RETURNDATASIZE PUSH1 0x0 REVERT JUMPDEST POP POP POP POP PUSH1 0x40 MLOAD RETURNDATASIZE PUSH1 0x20 DUP2 LT ISZERO PUSH2 0x237A JUMPI PUSH1 0x0 DUP1 REVERT JUMPDEST POP MLOAD SWAP1 POP PUSH2 0x22C5 JUMP JUMPDEST DUP5 PUSH2 0x238E JUMPI PUSH1 0x0 NOT SWAP5 POP JUMPDEST PUSH1 0x1 PUSH1 0x1 PUSH1 0xA0 SHL SUB DUP2 AND ISZERO DUP1 ISZERO SWAP1 PUSH2 0x23A6 JUMPI POP DUP2 MLOAD ISZERO ISZERO JUMPDEST DUP1 ISZERO PUSH2 0x23B2 JUMPI POP PUSH1 0x0 DUP6 GT JUMPDEST ISZERO PUSH2 0x24E6 JUMPI DUP5 DUP1 PUSH1 0x1 SWAP1 SUB SWAP6 POP POP PUSH1 0x0 DUP4 PUSH1 0x80 ADD MLOAD PUSH1 0x1 PUSH1 0x1 PUSH1 0xA0 SHL SUB AND PUSH4 0xB72703AC DUP4 PUSH1 0x40 MLOAD DUP3 PUSH4 0xFFFFFFFF AND PUSH1 0xE0 SHL DUP2 MSTORE PUSH1 0x4 ADD DUP1 DUP3 PUSH1 0x1 PUSH1 0x1 PUSH1 0xA0 SHL SUB AND PUSH1 0x1 PUSH1 0x1 PUSH1 0xA0 SHL SUB AND DUP2 MSTORE PUSH1 0x20 ADD SWAP2 POP POP PUSH1 0x20 PUSH1 0x40 MLOAD DUP1 DUP4 SUB DUP2 DUP7 DUP1 EXTCODESIZE ISZERO DUP1 ISZERO PUSH2 0x241C JUMPI PUSH1 0x0 DUP1 REVERT JUMPDEST POP GAS STATICCALL ISZERO DUP1 ISZERO PUSH2 0x2430 JUMPI RETURNDATASIZE PUSH1 0x0 DUP1 RETURNDATACOPY RETURNDATASIZE PUSH1 0x0 REVERT JUMPDEST POP POP POP POP PUSH1 0x40 MLOAD RETURNDATASIZE PUSH1 0x20 DUP2 LT ISZERO PUSH2 0x2446 JUMPI PUSH1 0x0 DUP1 REVERT JUMPDEST POP MLOAD DUP5 MLOAD PUSH1 0x20 DUP7 ADD MLOAD SWAP2 SWAP3 POP PUSH2 0x245C SWAP2 DUP5 PUSH2 0x2A25 JUMP JUMPDEST PUSH2 0x2464 PUSH2 0x5745 JUMP JUMPDEST PUSH2 0x247B DUP6 DUP5 DUP7 PUSH1 0x0 ADD MLOAD DUP8 PUSH1 0xC0 ADD MLOAD DUP15 DUP15 DUP15 PUSH2 0x4223 JUMP JUMPDEST SWAP1 POP DUP1 PUSH1 0x40 ADD MLOAD ISZERO PUSH2 0x248E JUMPI POP POP PUSH2 0x24E6 JUMP JUMPDEST DUP1 MLOAD PUSH1 0x20 DUP6 ADD MLOAD PUSH2 0x24A4 SWAP2 PUSH4 0xFFFFFFFF PUSH2 0x3BA1 AND JUMP JUMPDEST PUSH1 0x20 DUP1 DUP7 ADD SWAP2 SWAP1 SWAP2 MSTORE DUP2 ADD MLOAD PUSH1 0x40 DUP6 ADD MLOAD PUSH2 0x24C4 SWAP2 PUSH4 0xFFFFFFFF PUSH2 0x3BA1 AND JUMP JUMPDEST PUSH1 0x40 DUP6 ADD MSTORE DUP1 MLOAD DUP5 MLOAD PUSH2 0x24DC SWAP2 PUSH4 0xFFFFFFFF PUSH2 0x2B47 AND JUMP JUMPDEST DUP5 MSTORE POP SWAP1 POP PUSH2 0x238E JUMP JUMPDEST PUSH1 0x0 DUP3 PUSH1 0x40 ADD MLOAD GT PUSH2 0x2529 JUMPI PUSH1 0x40 MLOAD PUSH3 0x461BCD PUSH1 0xE5 SHL DUP2 MSTORE PUSH1 0x4 ADD DUP1 DUP1 PUSH1 0x20 ADD DUP3 DUP2 SUB DUP3 MSTORE PUSH1 0x29 DUP2 MSTORE PUSH1 0x20 ADD DUP1 PUSH2 0x57F2 PUSH1 0x29 SWAP2 CODECOPY PUSH1 0x40 ADD SWAP2 POP POP PUSH1 0x40 MLOAD DUP1 SWAP2 SUB SWAP1 REVERT JUMPDEST PUSH2 0x2540 DUP3 PUSH1 0x40 ADD MLOAD DUP4 PUSH1 0xC0 ADD MLOAD DUP5 PUSH1 0xE0 ADD MLOAD PUSH2 0x44D6 JUMP JUMPDEST POP PUSH2 0x254E DUP3 PUSH1 0x40 ADD MLOAD PUSH2 0x456C JUMP JUMPDEST PUSH1 0x60 DUP4 ADD DUP2 SWAP1 MSTORE PUSH1 0x40 DUP4 ADD MLOAD PUSH2 0x2565 SWAP2 SWAP1 DUP7 PUSH2 0x4579 JUMP JUMPDEST DUP3 PUSH1 0x0 ADD MLOAD PUSH1 0x1 PUSH1 0x1 PUSH1 0xA0 SHL SUB AND PUSH4 0x64A197F3 DUP5 PUSH1 0x60 ADD MLOAD DUP5 PUSH1 0x60 ADD MLOAD PUSH1 0x40 MLOAD DUP4 PUSH4 0xFFFFFFFF AND PUSH1 0xE0 SHL DUP2 MSTORE PUSH1 0x4 ADD DUP1 DUP4 PUSH1 0x1 PUSH1 0x1 PUSH1 0xA0 SHL SUB AND PUSH1 0x1 PUSH1 0x1 PUSH1 0xA0 SHL SUB AND DUP2 MSTORE PUSH1 0x20 ADD DUP3 DUP2 MSTORE PUSH1 0x20 ADD SWAP3 POP POP POP PUSH1 0x0 PUSH1 0x40 MLOAD DUP1 DUP4 SUB DUP2 PUSH1 0x0 DUP8 DUP1 EXTCODESIZE ISZERO DUP1 ISZERO PUSH2 0x25D1 JUMPI PUSH1 0x0 DUP1 REVERT JUMPDEST POP GAS CALL ISZERO DUP1 ISZERO PUSH2 0x25E5 JUMPI RETURNDATASIZE PUSH1 0x0 DUP1 RETURNDATACOPY RETURNDATASIZE PUSH1 0x0 REVERT JUMPDEST POP POP POP POP DUP3 PUSH1 0x60 ADD MLOAD PUSH1 0x1 PUSH1 0x1 PUSH1 0xA0 SHL SUB AND PUSH4 0x1E3E2A1A DUP4 PUSH1 0x60 ADD MLOAD PUSH1 0x40 MLOAD DUP3 PUSH4 0xFFFFFFFF AND PUSH1 0xE0 SHL DUP2 MSTORE PUSH1 0x4 ADD DUP1 DUP3 DUP2 MSTORE PUSH1 0x20 ADD SWAP2 POP POP PUSH1 0x0 PUSH1 0x40 MLOAD DUP1 DUP4 SUB DUP2 PUSH1 0x0 DUP8 DUP1 EXTCODESIZE ISZERO DUP1 ISZERO PUSH2 0x2637 JUMPI PUSH1 0x0 DUP1 REVERT JUMPDEST POP GAS CALL ISZERO DUP1 ISZERO PUSH2 0x264B JUMPI RETURNDATASIZE PUSH1 0x0 DUP1 RETURNDATACOPY RETURNDATASIZE PUSH1 0x0 REVERT JUMPDEST POP POP POP POP PUSH1 0x60 DUP3 ADD MLOAD PUSH1 0x40 DUP4 ADD MLOAD PUSH2 0x2662 SWAP2 PUSH2 0x2B47 JUMP JUMPDEST DUP3 PUSH1 0x80 ADD DUP2 DUP2 MSTORE POP POP PUSH32 0x43A3F4082A4DBC33D78E317D2497D3A730BC7FC3574159DCEA1056E62E5D9AD8 DUP11 DUP4 PUSH1 0x20 ADD MLOAD DUP5 PUSH1 0x40 ADD MLOAD DUP6 PUSH1 0x60 ADD MLOAD PUSH1 0x40 MLOAD DUP1 DUP6 DUP2 MSTORE PUSH1 0x20 ADD DUP5 DUP2 MSTORE PUSH1 0x20 ADD DUP4 DUP2 MSTORE PUSH1 0x20 ADD DUP3 DUP2 MSTORE PUSH1 0x20 ADD SWAP5 POP POP POP POP POP PUSH1 0x40 MLOAD DUP1 SWAP2 SUB SWAP1 LOG1 DUP3 PUSH1 0x40 ADD MLOAD PUSH1 0x1 PUSH1 0x1 PUSH1 0xA0 SHL SUB AND PUSH4 0x9DC29FAC CALLER DUP5 PUSH1 0x20 ADD MLOAD PUSH1 0x40 MLOAD DUP4 PUSH4 0xFFFFFFFF AND PUSH1 0xE0 SHL DUP2 MSTORE PUSH1 0x4 ADD DUP1 DUP4 PUSH1 0x1 PUSH1 0x1 PUSH1 0xA0 SHL SUB AND PUSH1 0x1 PUSH1 0x1 PUSH1 0xA0 SHL SUB AND DUP2 MSTORE PUSH1 0x20 ADD DUP3 DUP2 MSTORE PUSH1 0x20 ADD SWAP3 POP POP POP PUSH1 0x0 PUSH1 0x40 MLOAD DUP1 DUP4 SUB DUP2 PUSH1 0x0 DUP8 DUP1 EXTCODESIZE ISZERO DUP1 ISZERO PUSH2 0x272E JUMPI PUSH1 0x0 DUP1 REVERT JUMPDEST POP GAS CALL ISZERO DUP1 ISZERO PUSH2 0x2742 JUMPI RETURNDATASIZE PUSH1 0x0 DUP1 RETURNDATACOPY RETURNDATASIZE PUSH1 0x0 REVERT JUMPDEST POP POP POP POP DUP3 PUSH1 0x0 ADD MLOAD PUSH1 0x1 PUSH1 0x1 PUSH1 0xA0 SHL SUB AND PUSH4 0x38D995A8 DUP4 PUSH1 0x20 ADD MLOAD PUSH1 0x40 MLOAD DUP3 PUSH4 0xFFFFFFFF AND PUSH1 0xE0 SHL DUP2 MSTORE PUSH1 0x4 ADD DUP1 DUP3 DUP2 MSTORE PUSH1 0x20 ADD SWAP2 POP POP PUSH1 0x0 PUSH1 0x40 MLOAD DUP1 DUP4 SUB DUP2 PUSH1 0x0 DUP8 DUP1 EXTCODESIZE ISZERO DUP1 ISZERO PUSH2 0x2794 JUMPI PUSH1 0x0 DUP1 REVERT JUMPDEST POP GAS CALL ISZERO DUP1 ISZERO PUSH2 0x27A8 JUMPI RETURNDATASIZE PUSH1 0x0 DUP1 RETURNDATACOPY RETURNDATASIZE PUSH1 0x0 REVERT JUMPDEST POP POP DUP5 MLOAD PUSH1 0x80 DUP6 ADD MLOAD PUSH1 0x40 DUP1 MLOAD PUSH4 0x64A197F3 PUSH1 0xE0 SHL DUP2 MSTORE CALLER PUSH1 0x4 DUP3 ADD MSTORE PUSH1 0x24 DUP2 ADD SWAP3 SWAP1 SWAP3 MSTORE MLOAD PUSH1 0x1 PUSH1 0x1 PUSH1 0xA0 SHL SUB SWAP1 SWAP3 AND SWAP4 POP PUSH4 0x64A197F3 SWAP3 POP PUSH1 0x44 DUP1 DUP3 ADD SWAP3 PUSH1 0x0 SWAP3 SWAP1 SWAP2 SWAP1 DUP3 SWAP1 SUB ADD DUP2 DUP4 DUP8 DUP1 EXTCODESIZE ISZERO DUP1 ISZERO PUSH2 0x2803 JUMPI PUSH1 0x0 DUP1 REVERT JUMPDEST POP GAS CALL ISZERO DUP1 ISZERO PUSH2 0x2817 JUMPI RETURNDATASIZE PUSH1 0x0 DUP1 RETURNDATACOPY RETURNDATASIZE PUSH1 0x0 REVERT JUMPDEST POP POP POP POP POP POP POP POP POP POP POP POP POP POP JUMP JUMPDEST PUSH1 0xF SLOAD DUP2 JUMP JUMPDEST PUSH3 0x127500 DUP2 JUMP JUMPDEST PUSH1 0x0 PUSH2 0x118E PUSH2 0x2841 PUSH2 0x360D JUMP JUMPDEST PUSH2 0x34B9 JUMP JUMPDEST PUSH8 0xDDD4B8C6C7D70D8 DUP2 JUMP JUMPDEST PUSH2 0x285A PUSH2 0x29DA JUMP JUMPDEST PUSH2 0xCD6 DUP2 PUSH1 0x2 PUSH2 0x45EE JUMP JUMPDEST PUSH1 0x0 DUP1 PUSH1 0x0 PUSH2 0x2873 DUP6 PUSH2 0x3D5D JUMP JUMPDEST SWAP2 POP SWAP2 POP PUSH1 0x0 PUSH2 0x1370 DUP4 DUP4 DUP8 PUSH2 0x4707 JUMP JUMPDEST PUSH1 0xD SLOAD DUP2 JUMP JUMPDEST PUSH1 0x0 PUSH2 0x2894 PUSH2 0x29DA JUMP JUMPDEST PUSH1 0x1 PUSH1 0x1 PUSH1 0xA0 SHL SUB DUP4 AND PUSH1 0x0 SWAP1 DUP2 MSTORE PUSH1 0xE PUSH1 0x20 MSTORE PUSH1 0x40 DUP2 KECCAK256 PUSH1 0x1 ADD SLOAD PUSH2 0x1885 SWAP1 DUP5 PUSH4 0xFFFFFFFF PUSH2 0x2B47 AND JUMP JUMPDEST PUSH1 0x0 PUSH2 0xD2B PUSH2 0x28CD PUSH2 0x2834 JUMP JUMPDEST DUP4 PUSH2 0x4737 JUMP JUMPDEST PUSH1 0x1 PUSH1 0x1 PUSH1 0xA0 SHL SUB AND PUSH1 0x0 SWAP1 DUP2 MSTORE PUSH1 0xE PUSH1 0x20 MSTORE PUSH1 0x40 SWAP1 KECCAK256 SLOAD SWAP1 JUMP JUMPDEST PUSH1 0x0 PUSH1 0x15 DUP3 DUP2 SLOAD DUP2 LT PUSH2 0x28FD JUMPI INVALID JUMPDEST PUSH1 0x0 SWAP2 DUP3 MSTORE PUSH1 0x20 SWAP1 SWAP2 KECCAK256 ADD SLOAD PUSH1 0x1 PUSH1 0x1 PUSH1 0xA0 SHL SUB AND SWAP3 SWAP2 POP POP JUMP JUMPDEST PUSH1 0x13 SLOAD DUP2 JUMP JUMPDEST PUSH1 0x0 PUSH1 0x1 PUSH1 0x1 PUSH1 0x1 PUSH1 0xA0 SHL SUB DUP4 AND PUSH1 0x0 SWAP1 DUP2 MSTORE PUSH1 0xE PUSH1 0x20 MSTORE PUSH1 0x40 SWAP1 KECCAK256 PUSH1 0x3 ADD SLOAD PUSH1 0xFF AND PUSH1 0x4 DUP2 GT ISZERO PUSH2 0x294C JUMPI INVALID JUMPDEST EQ PUSH2 0x2959 JUMPI POP PUSH1 0x0 PUSH2 0xD50 JUMP JUMPDEST POP PUSH1 0x12 SLOAD PUSH1 0x1 PUSH1 0x1 PUSH1 0xA0 SHL SUB DUP3 AND PUSH1 0x0 SWAP1 DUP2 MSTORE PUSH1 0x14 PUSH1 0x20 MSTORE PUSH1 0x40 SWAP1 KECCAK256 SLOAD LT SWAP2 SWAP1 POP JUMP JUMPDEST PUSH1 0x1 PUSH1 0x1 PUSH1 0xA0 SHL SUB DUP2 AND PUSH1 0x0 SWAP1 DUP2 MSTORE PUSH1 0x14 PUSH1 0x20 MSTORE PUSH1 0x40 DUP2 KECCAK256 PUSH1 0x1 ADD SLOAD PUSH1 0x13 SLOAD DUP3 SWAP1 PUSH2 0x12E2 SWAP1 DUP4 PUSH4 0xFFFFFFFF PUSH2 0x2B47 AND JUMP JUMPDEST PUSH1 0x0 PUSH2 0x118E PUSH1 0xC SLOAD PUSH2 0x3B7A JUMP JUMPDEST PUSH1 0x18 SLOAD PUSH1 0x1 PUSH1 0x1 PUSH1 0xA0 SHL SUB AND DUP2 JUMP JUMPDEST PUSH2 0x29D1 PUSH2 0x29DA JUMP JUMPDEST PUSH2 0xCD6 DUP2 PUSH2 0x4796 JUMP JUMPDEST PUSH1 0x4 SLOAD PUSH1 0x1 PUSH1 0x1 PUSH1 0xA0 SHL SUB AND CALLER EQ PUSH2 0x2A23 JUMPI PUSH1 0x40 MLOAD PUSH3 0x461BCD PUSH1 0xE5 SHL DUP2 MSTORE PUSH1 0x4 ADD DUP1 DUP1 PUSH1 0x20 ADD DUP3 DUP2 SUB DUP3 MSTORE PUSH1 0x3B DUP2 MSTORE PUSH1 0x20 ADD DUP1 PUSH2 0x5954 PUSH1 0x3B SWAP2 CODECOPY PUSH1 0x40 ADD SWAP2 POP POP PUSH1 0x40 MLOAD DUP1 SWAP2 SUB SWAP1 REVERT JUMPDEST JUMP JUMPDEST PUSH2 0x2A2E DUP2 PUSH2 0x291E JUMP JUMPDEST ISZERO PUSH2 0x2B42 JUMPI PUSH2 0x2A3C DUP2 PUSH2 0x34EF JUMP JUMPDEST PUSH1 0x0 PUSH2 0x2A47 DUP3 PUSH2 0x12B4 JUMP JUMPDEST SWAP1 POP PUSH1 0x0 PUSH2 0x2A54 DUP4 PUSH2 0x297C JUMP JUMPDEST PUSH1 0x1 PUSH1 0x1 PUSH1 0xA0 SHL SUB DUP5 AND PUSH1 0x0 SWAP1 DUP2 MSTORE PUSH1 0xE PUSH1 0x20 MSTORE PUSH1 0x40 SWAP1 KECCAK256 PUSH1 0x1 ADD SLOAD SWAP1 SWAP2 POP PUSH2 0x2A83 SWAP1 DUP4 PUSH4 0xFFFFFFFF PUSH2 0x3BA1 AND JUMP JUMPDEST PUSH1 0x1 PUSH1 0x1 PUSH1 0xA0 SHL SUB DUP5 AND PUSH1 0x0 SWAP1 DUP2 MSTORE PUSH1 0xE PUSH1 0x20 MSTORE PUSH1 0x40 SWAP1 KECCAK256 PUSH1 0x1 DUP2 ADD SWAP2 SWAP1 SWAP2 SSTORE SLOAD PUSH2 0x2AB4 SWAP1 DUP3 PUSH4 0xFFFFFFFF PUSH2 0x3BA1 AND JUMP JUMPDEST PUSH1 0x1 PUSH1 0x1 PUSH1 0xA0 SHL SUB DUP5 AND PUSH1 0x0 SWAP1 DUP2 MSTORE PUSH1 0xE PUSH1 0x20 MSTORE PUSH1 0x40 SWAP1 KECCAK256 SSTORE PUSH2 0x2AD6 DUP4 PUSH2 0x3CF2 JUMP JUMPDEST PUSH2 0x2AE2 DUP6 DUP6 DUP4 DUP6 PUSH2 0x47E6 JUMP JUMPDEST PUSH1 0x1 PUSH1 0x1 PUSH1 0xA0 SHL SUB DUP4 AND PUSH1 0x0 DUP2 DUP2 MSTORE PUSH1 0xE PUSH1 0x20 SWAP1 DUP2 MSTORE PUSH1 0x40 DUP1 DUP4 KECCAK256 DUP1 SLOAD PUSH1 0x1 DUP3 ADD SLOAD PUSH1 0x2 SWAP1 SWAP3 ADD SLOAD DUP4 MLOAD SWAP2 DUP3 MSTORE SWAP4 DUP2 ADD SWAP2 SWAP1 SWAP2 MSTORE DUP1 DUP3 ADD SWAP3 SWAP1 SWAP3 MSTORE PUSH1 0x60 DUP3 ADD SWAP3 SWAP1 SWAP3 MSTORE SWAP1 MLOAD PUSH1 0x0 DUP1 MLOAD PUSH1 0x20 PUSH2 0x5934 DUP4 CODECOPY DUP2 MLOAD SWAP2 MSTORE SWAP2 DUP2 SWAP1 SUB PUSH1 0x80 ADD SWAP1 LOG2 POP POP JUMPDEST POP POP POP JUMP JUMPDEST PUSH1 0x0 PUSH2 0x2B89 DUP4 DUP4 PUSH1 0x40 MLOAD DUP1 PUSH1 0x40 ADD PUSH1 0x40 MSTORE DUP1 PUSH1 0x1E DUP2 MSTORE PUSH1 0x20 ADD PUSH32 0x536166654D6174683A207375627472616374696F6E206F766572666C6F770000 DUP2 MSTORE POP PUSH2 0x48E8 JUMP JUMPDEST SWAP4 SWAP3 POP POP POP JUMP JUMPDEST PUSH1 0x15 DUP1 SLOAD PUSH1 0x1 DUP1 DUP3 ADD DUP4 SSTORE PUSH1 0x0 DUP4 DUP2 MSTORE PUSH32 0x55F448FDEA98C4D29EB340757EF0A66CD03DBB9538908A6A81D96026B71EC475 SWAP1 SWAP3 ADD DUP1 SLOAD PUSH1 0x1 PUSH1 0x1 PUSH1 0xA0 SHL SUB NOT AND PUSH1 0x1 PUSH1 0x1 PUSH1 0xA0 SHL SUB DUP7 AND OR SWAP1 SSTORE SWAP2 SLOAD SWAP1 SWAP2 PUSH2 0x2BEB SWAP2 SWAP1 PUSH2 0x2B47 JUMP JUMPDEST PUSH1 0x1 PUSH1 0x1 PUSH1 0xA0 SHL SUB SWAP3 SWAP1 SWAP3 AND PUSH1 0x0 SWAP1 DUP2 MSTORE PUSH1 0xE PUSH1 0x20 MSTORE PUSH1 0x40 SWAP1 KECCAK256 PUSH1 0x3 ADD DUP1 SLOAD PUSH2 0x100 PUSH1 0x1 PUSH1 0x88 SHL SUB NOT AND PUSH2 0x100 PUSH1 0x1 PUSH1 0x1 PUSH1 0x80 SHL SUB DUP6 AND MUL OR SWAP1 SSTORE POP SWAP1 JUMP JUMPDEST PUSH1 0x1 PUSH1 0x1 PUSH1 0xA0 SHL SUB DUP2 AND PUSH1 0x0 SWAP1 DUP2 MSTORE PUSH1 0xE PUSH1 0x20 MSTORE PUSH1 0x40 DUP2 KECCAK256 PUSH1 0x1 ADD SLOAD DUP2 SWAP1 PUSH2 0x2C51 SWAP1 PUSH2 0x497F JUMP JUMPDEST PUSH1 0x1 PUSH1 0x1 PUSH1 0xA0 SHL SUB DUP5 AND PUSH1 0x0 SWAP1 DUP2 MSTORE PUSH1 0xE PUSH1 0x20 MSTORE PUSH1 0x40 SWAP1 KECCAK256 PUSH1 0x2 ADD DUP1 SLOAD SWAP1 DUP3 SWAP1 SSTORE PUSH1 0xF SLOAD SWAP2 SWAP3 POP SWAP1 PUSH2 0x2C9B SWAP1 DUP4 SWAP1 PUSH2 0x2C8F SWAP1 DUP5 PUSH4 0xFFFFFFFF PUSH2 0x2B47 AND JUMP JUMPDEST SWAP1 PUSH4 0xFFFFFFFF PUSH2 0x3BA1 AND JUMP JUMPDEST PUSH1 0xF DUP2 SWAP1 SSTORE PUSH1 0x40 DUP1 MLOAD SWAP2 DUP3 MSTORE MLOAD PUSH32 0x6BAC5E0EB3C44EB03A60AB11EC3A2C051771616AECADBCFFF2630AABAE520382 SWAP2 DUP2 SWAP1 SUB PUSH1 0x20 ADD SWAP1 LOG1 POP SWAP3 SWAP2 POP POP JUMP JUMPDEST PUSH1 0x0 DUP1 PUSH2 0x2CE5 DUP4 PUSH2 0x3E18 JUMP JUMPDEST PUSH8 0x14D1120D7B160000 GT SWAP4 SWAP3 POP POP POP JUMP JUMPDEST PUSH2 0x2CFE PUSH2 0x5678 JUMP JUMPDEST PUSH2 0x2D06 PUSH2 0x5768 JUMP JUMPDEST PUSH2 0x2D0E PUSH2 0x5678 JUMP JUMPDEST DUP5 DUP3 MSTORE PUSH1 0x0 PUSH1 0x80 DUP4 ADD MSTORE PUSH2 0x2D20 PUSH2 0x1933 JUMP JUMPDEST PUSH1 0xA0 DUP4 ADD MSTORE PUSH2 0x2D2D PUSH2 0x1E47 JUMP JUMPDEST PUSH1 0xC0 DUP4 ADD MSTORE PUSH1 0x0 PUSH1 0x20 DUP4 ADD MSTORE JUMPDEST DUP4 MLOAD DUP3 PUSH1 0x20 ADD MLOAD LT ISZERO PUSH2 0x2F1B JUMPI DUP4 DUP3 PUSH1 0x20 ADD MLOAD DUP2 MLOAD DUP2 LT PUSH2 0x2D57 JUMPI INVALID JUMPDEST PUSH1 0x20 SWAP1 DUP2 MUL SWAP2 SWAP1 SWAP2 ADD DUP2 ADD MLOAD PUSH1 0x1 PUSH1 0x1 PUSH1 0xA0 SHL SUB AND PUSH1 0x60 DUP5 ADD DUP2 SWAP1 MSTORE PUSH1 0x0 SWAP1 DUP2 MSTORE PUSH1 0xE SWAP1 SWAP2 MSTORE PUSH1 0x40 SWAP1 KECCAK256 PUSH1 0x3 ADD SLOAD PUSH1 0x1 SWAP1 PUSH1 0xFF AND PUSH1 0x4 DUP2 GT ISZERO PUSH2 0x2D96 JUMPI INVALID JUMPDEST EQ PUSH2 0x2DA0 JUMPI PUSH2 0x2F0B JUMP JUMPDEST PUSH2 0x2DAE DUP3 PUSH1 0x60 ADD MLOAD DUP8 PUSH2 0x2865 JUMP JUMPDEST PUSH1 0x40 DUP4 ADD MSTORE PUSH1 0x80 DUP3 ADD MLOAD PUSH2 0x2EAD JUMPI PUSH8 0xF43FC2C04EE0000 DUP3 PUSH1 0x40 ADD MLOAD LT ISZERO DUP1 ISZERO PUSH2 0x2DD7 JUMPI POP DUP2 MLOAD ISZERO JUMPDEST ISZERO PUSH2 0x2DE1 JUMPI PUSH2 0x2F0B JUMP JUMPDEST PUSH1 0x0 PUSH2 0x2DF6 DUP4 PUSH1 0xC0 ADD MLOAD DUP5 PUSH1 0xA0 ADD MLOAD DUP10 PUSH2 0x4707 JUMP JUMPDEST SWAP1 POP PUSH2 0x2E13 DUP10 DUP10 DUP6 PUSH1 0x60 ADD MLOAD DUP7 PUSH1 0x40 ADD MLOAD DUP8 PUSH1 0x0 ADD MLOAD DUP7 DUP14 PUSH2 0x49BB JUMP JUMPDEST PUSH1 0x80 DUP2 ADD MLOAD DUP5 MLOAD SWAP2 SWAP4 POP PUSH2 0x2E2D SWAP2 SWAP1 PUSH4 0xFFFFFFFF PUSH2 0x2B47 AND JUMP JUMPDEST DUP4 MSTORE PUSH1 0x80 DUP3 ADD MLOAD PUSH1 0xA0 DUP5 ADD MLOAD PUSH2 0x2E48 SWAP2 PUSH4 0xFFFFFFFF PUSH2 0x2B47 AND JUMP JUMPDEST DUP4 PUSH1 0xA0 ADD DUP2 DUP2 MSTORE POP POP PUSH2 0x2E7D DUP3 PUSH2 0x100 ADD MLOAD PUSH2 0x10AD DUP5 PUSH1 0x40 ADD MLOAD PUSH2 0x10AD DUP7 PUSH1 0xA0 ADD MLOAD DUP9 PUSH1 0xC0 ADD MLOAD PUSH2 0x2B47 SWAP1 SWAP2 SWAP1 PUSH4 0xFFFFFFFF AND JUMP JUMPDEST PUSH1 0xC0 DUP5 ADD MSTORE PUSH2 0x2E8C DUP5 DUP4 PUSH2 0x4CEE JUMP JUMPDEST SWAP4 POP PUSH2 0x2EA1 DUP4 PUSH1 0xC0 ADD MLOAD DUP5 PUSH1 0xA0 ADD MLOAD DUP10 PUSH2 0x4E05 JUMP JUMPDEST ISZERO PUSH1 0x80 DUP5 ADD MSTORE POP PUSH2 0x2F0B JUMP JUMPDEST DUP2 PUSH1 0x80 ADD MLOAD DUP1 ISZERO PUSH2 0x2EC9 JUMPI POP PUSH8 0xF43FC2C04EE0000 DUP3 PUSH1 0x40 ADD MLOAD LT JUMPDEST ISZERO PUSH2 0x2F0B JUMPI PUSH2 0x2EE2 DUP9 DUP9 DUP5 PUSH1 0x60 ADD MLOAD DUP6 PUSH1 0x0 ADD MLOAD PUSH2 0x4E26 JUMP JUMPDEST PUSH1 0x80 DUP2 ADD MLOAD DUP4 MLOAD SWAP2 SWAP3 POP PUSH2 0x2EFC SWAP2 SWAP1 PUSH4 0xFFFFFFFF PUSH2 0x2B47 AND JUMP JUMPDEST DUP3 MSTORE PUSH2 0x2F08 DUP4 DUP3 PUSH2 0x4CEE JUMP JUMPDEST SWAP3 POP JUMPDEST PUSH1 0x20 DUP3 ADD DUP1 MLOAD PUSH1 0x1 ADD SWAP1 MSTORE PUSH2 0x2D3A JUMP JUMPDEST POP POP SWAP6 SWAP5 POP POP POP POP POP JUMP JUMPDEST PUSH2 0x2F2E PUSH2 0x5678 JUMP JUMPDEST PUSH2 0x2F36 PUSH2 0x5768 JUMP JUMPDEST PUSH2 0x2F3E PUSH2 0x5678 JUMP JUMPDEST DUP5 DUP3 MSTORE PUSH1 0x0 PUSH1 0x20 DUP4 ADD MSTORE JUMPDEST DUP4 MLOAD DUP3 PUSH1 0x20 ADD MLOAD LT ISZERO PUSH2 0x2F1B JUMPI DUP4 DUP3 PUSH1 0x20 ADD MLOAD DUP2 MLOAD DUP2 LT PUSH2 0x2F66 JUMPI INVALID JUMPDEST PUSH1 0x20 SWAP1 DUP2 MUL SWAP2 SWAP1 SWAP2 ADD ADD MLOAD PUSH1 0x1 PUSH1 0x1 PUSH1 0xA0 SHL SUB AND PUSH1 0x60 DUP4 ADD DUP2 SWAP1 MSTORE PUSH2 0x2F8B SWAP1 DUP8 PUSH2 0x2865 JUMP JUMPDEST PUSH1 0x40 DUP4 ADD DUP2 SWAP1 MSTORE PUSH8 0xF43FC2C04EE0000 GT ISZERO PUSH2 0x2FDE JUMPI PUSH2 0x2FB5 DUP9 DUP9 DUP5 PUSH1 0x60 ADD MLOAD DUP6 PUSH1 0x0 ADD MLOAD PUSH2 0x4E26 JUMP JUMPDEST PUSH1 0x80 DUP2 ADD MLOAD DUP4 MLOAD SWAP2 SWAP3 POP PUSH2 0x2FCF SWAP2 SWAP1 PUSH4 0xFFFFFFFF PUSH2 0x2B47 AND JUMP JUMPDEST DUP3 MSTORE PUSH2 0x2FDB DUP4 DUP3 PUSH2 0x4CEE JUMP JUMPDEST SWAP3 POP JUMPDEST PUSH1 0x20 DUP3 ADD DUP1 MLOAD PUSH1 0x1 ADD SWAP1 MSTORE PUSH2 0x2F49 JUMP JUMPDEST DUP2 PUSH2 0x2FF8 JUMPI PUSH2 0x3269 JUMP JUMPDEST PUSH1 0x16 SLOAD PUSH1 0x0 SWAP1 PUSH2 0x301A SWAP1 PUSH2 0x2C8F DUP5 PUSH8 0xDE0B6B3A7640000 PUSH4 0xFFFFFFFF PUSH2 0x3575 AND JUMP JUMPDEST SWAP1 POP PUSH1 0x0 PUSH2 0x303F PUSH1 0x17 SLOAD PUSH2 0x2C8F PUSH8 0xDE0B6B3A7640000 DUP8 PUSH2 0x3575 SWAP1 SWAP2 SWAP1 PUSH4 0xFFFFFFFF AND JUMP JUMPDEST SWAP1 POP PUSH1 0x0 PUSH2 0x3058 PUSH1 0xF SLOAD DUP5 PUSH2 0x35CE SWAP1 SWAP2 SWAP1 PUSH4 0xFFFFFFFF AND JUMP JUMPDEST SWAP1 POP PUSH1 0x0 PUSH2 0x3071 PUSH1 0xF SLOAD DUP5 PUSH2 0x35CE SWAP1 SWAP2 SWAP1 PUSH4 0xFFFFFFFF AND JUMP JUMPDEST SWAP1 POP PUSH2 0x3098 PUSH2 0x308B PUSH1 0xF SLOAD DUP5 PUSH2 0x3575 SWAP1 SWAP2 SWAP1 PUSH4 0xFFFFFFFF AND JUMP JUMPDEST DUP6 SWAP1 PUSH4 0xFFFFFFFF PUSH2 0x2B47 AND JUMP JUMPDEST PUSH1 0x16 SSTORE PUSH1 0xF SLOAD PUSH2 0x30C0 SWAP1 PUSH2 0x30B3 SWAP1 DUP4 SWAP1 PUSH4 0xFFFFFFFF PUSH2 0x3575 AND JUMP JUMPDEST DUP5 SWAP1 PUSH4 0xFFFFFFFF PUSH2 0x2B47 AND JUMP JUMPDEST PUSH1 0x17 SSTORE PUSH1 0x12 SLOAD PUSH2 0x30D6 SWAP1 DUP4 PUSH4 0xFFFFFFFF PUSH2 0x3BA1 AND JUMP JUMPDEST PUSH1 0x12 SSTORE PUSH1 0x13 SLOAD PUSH2 0x30EC SWAP1 DUP3 PUSH4 0xFFFFFFFF PUSH2 0x3BA1 AND JUMP JUMPDEST PUSH1 0x13 DUP2 SWAP1 SSTORE PUSH1 0x12 SLOAD PUSH1 0x40 DUP1 MLOAD SWAP2 DUP3 MSTORE PUSH1 0x20 DUP3 ADD SWAP3 SWAP1 SWAP3 MSTORE DUP2 MLOAD PUSH32 0x9F8BC8AB0DAF5BCEEF75ECFD2085D1FCC6548C657EA970D9A23A60610D0737E3 SWAP3 SWAP2 DUP2 SWAP1 SUB SWAP1 SWAP2 ADD SWAP1 LOG1 DUP8 PUSH1 0x1 PUSH1 0x1 PUSH1 0xA0 SHL SUB AND PUSH4 0x38D995A8 DUP8 PUSH1 0x40 MLOAD DUP3 PUSH4 0xFFFFFFFF AND PUSH1 0xE0 SHL DUP2 MSTORE PUSH1 0x4 ADD DUP1 DUP3 DUP2 MSTORE PUSH1 0x20 ADD SWAP2 POP POP PUSH1 0x0 PUSH1 0x40 MLOAD DUP1 DUP4 SUB DUP2 PUSH1 0x0 DUP8 DUP1 EXTCODESIZE ISZERO DUP1 ISZERO PUSH2 0x3176 JUMPI PUSH1 0x0 DUP1 REVERT JUMPDEST POP GAS CALL ISZERO DUP1 ISZERO PUSH2 0x318A JUMPI RETURNDATASIZE PUSH1 0x0 DUP1 RETURNDATACOPY RETURNDATASIZE PUSH1 0x0 REVERT JUMPDEST POP POP POP POP DUP7 PUSH1 0x1 PUSH1 0x1 PUSH1 0xA0 SHL SUB AND PUSH4 0xCFB9329A DUP8 PUSH1 0x40 MLOAD DUP3 PUSH4 0xFFFFFFFF AND PUSH1 0xE0 SHL DUP2 MSTORE PUSH1 0x4 ADD DUP1 DUP3 DUP2 MSTORE PUSH1 0x20 ADD SWAP2 POP POP PUSH1 0x0 PUSH1 0x40 MLOAD DUP1 DUP4 SUB DUP2 PUSH1 0x0 DUP8 DUP1 EXTCODESIZE ISZERO DUP1 ISZERO PUSH2 0x31D4 JUMPI PUSH1 0x0 DUP1 REVERT JUMPDEST POP GAS CALL ISZERO DUP1 ISZERO PUSH2 0x31E8 JUMPI RETURNDATASIZE PUSH1 0x0 DUP1 RETURNDATACOPY RETURNDATASIZE PUSH1 0x0 REVERT JUMPDEST POP POP POP POP DUP8 PUSH1 0x1 PUSH1 0x1 PUSH1 0xA0 SHL SUB AND PUSH4 0x64A197F3 DUP9 DUP8 PUSH1 0x40 MLOAD DUP4 PUSH4 0xFFFFFFFF AND PUSH1 0xE0 SHL DUP2 MSTORE PUSH1 0x4 ADD DUP1 DUP4 PUSH1 0x1 PUSH1 0x1 PUSH1 0xA0 SHL SUB AND PUSH1 0x1 PUSH1 0x1 PUSH1 0xA0 SHL SUB AND DUP2 MSTORE PUSH1 0x20 ADD DUP3 DUP2 MSTORE PUSH1 0x20 ADD SWAP3 POP POP POP PUSH1 0x0 PUSH1 0x40 MLOAD DUP1 DUP4 SUB DUP2 PUSH1 0x0 DUP8 DUP1 EXTCODESIZE ISZERO DUP1 ISZERO PUSH2 0x324C JUMPI PUSH1 0x0 DUP1 REVERT JUMPDEST POP GAS CALL ISZERO DUP1 ISZERO PUSH2 0x3260 JUMPI RETURNDATASIZE PUSH1 0x0 DUP1 RETURNDATACOPY RETURNDATASIZE PUSH1 0x0 REVERT JUMPDEST POP POP POP POP POP POP POP POP JUMPDEST POP POP POP POP JUMP JUMPDEST PUSH1 0xF SLOAD PUSH1 0x10 DUP2 SWAP1 SSTORE POP PUSH1 0x0 DUP3 PUSH1 0x1 PUSH1 0x1 PUSH1 0xA0 SHL SUB AND PUSH4 0x14F6C3BE PUSH1 0x40 MLOAD DUP2 PUSH4 0xFFFFFFFF AND PUSH1 0xE0 SHL DUP2 MSTORE PUSH1 0x4 ADD PUSH1 0x20 PUSH1 0x40 MLOAD DUP1 DUP4 SUB DUP2 DUP7 DUP1 EXTCODESIZE ISZERO DUP1 ISZERO PUSH2 0x32B3 JUMPI PUSH1 0x0 DUP1 REVERT JUMPDEST POP GAS STATICCALL ISZERO DUP1 ISZERO PUSH2 0x32C7 JUMPI RETURNDATASIZE PUSH1 0x0 DUP1 RETURNDATACOPY RETURNDATASIZE PUSH1 0x0 REVERT JUMPDEST POP POP POP POP PUSH1 0x40 MLOAD RETURNDATASIZE PUSH1 0x20 DUP2 LT ISZERO PUSH2 0x32DD JUMPI PUSH1 0x0 DUP1 REVERT JUMPDEST POP MLOAD PUSH1 0x1 SLOAD PUSH1 0x40 DUP1 MLOAD PUSH4 0xA7B61DF PUSH1 0xE1 SHL DUP2 MSTORE SWAP1 MLOAD SWAP3 SWAP4 POP PUSH1 0x0 SWAP3 PUSH1 0x1 PUSH1 0x1 PUSH1 0xA0 SHL SUB SWAP1 SWAP3 AND SWAP2 PUSH4 0x14F6C3BE SWAP2 PUSH1 0x4 DUP1 DUP3 ADD SWAP3 PUSH1 0x20 SWAP3 SWAP1 SWAP2 SWAP1 DUP3 SWAP1 SUB ADD DUP2 DUP7 DUP1 EXTCODESIZE ISZERO DUP1 ISZERO PUSH2 0x332A JUMPI PUSH1 0x0 DUP1 REVERT JUMPDEST POP GAS STATICCALL ISZERO DUP1 ISZERO PUSH2 0x333E JUMPI RETURNDATASIZE PUSH1 0x0 DUP1 RETURNDATACOPY RETURNDATASIZE PUSH1 0x0 REVERT JUMPDEST POP POP POP POP PUSH1 0x40 MLOAD RETURNDATASIZE PUSH1 0x20 DUP2 LT ISZERO PUSH2 0x3354 JUMPI PUSH1 0x0 DUP1 REVERT JUMPDEST POP MLOAD SWAP1 POP PUSH2 0x336C DUP2 PUSH2 0x2C8F DUP5 DUP7 PUSH4 0xFFFFFFFF PUSH2 0x2B47 AND JUMP JUMPDEST PUSH1 0x11 DUP2 SWAP1 SSTORE PUSH1 0x10 SLOAD PUSH1 0x40 DUP1 MLOAD SWAP2 DUP3 MSTORE PUSH1 0x20 DUP3 ADD SWAP3 SWAP1 SWAP3 MSTORE DUP2 MLOAD PUSH32 0x51BF4C63EC3CBA9D03D43238ABBDD979DD91BD16D9895C74CEEA9118C7BAAF60 SWAP3 SWAP2 DUP2 SWAP1 SUB SWAP1 SWAP2 ADD SWAP1 LOG1 POP POP POP POP JUMP JUMPDEST DUP2 ISZERO PUSH2 0x3435 JUMPI PUSH1 0x8 SLOAD PUSH1 0x6 SLOAD PUSH1 0x40 DUP1 MLOAD PUSH4 0x1062C15F PUSH1 0xE1 SHL DUP2 MSTORE PUSH1 0x1 PUSH1 0x1 PUSH1 0xA0 SHL SUB SWAP3 DUP4 AND PUSH1 0x4 DUP3 ADD MSTORE DUP7 DUP4 AND PUSH1 0x24 DUP3 ADD MSTORE PUSH1 0x44 DUP2 ADD DUP7 SWAP1 MSTORE SWAP1 MLOAD SWAP2 SWAP1 SWAP3 AND SWAP2 PUSH4 0x20C582BE SWAP2 PUSH1 0x64 DUP1 DUP4 ADD SWAP3 PUSH1 0x0 SWAP3 SWAP2 SWAP1 DUP3 SWAP1 SUB ADD DUP2 DUP4 DUP8 DUP1 EXTCODESIZE ISZERO DUP1 ISZERO PUSH2 0x341C JUMPI PUSH1 0x0 DUP1 REVERT JUMPDEST POP GAS CALL ISZERO DUP1 ISZERO PUSH2 0x3430 JUMPI RETURNDATASIZE PUSH1 0x0 DUP1 RETURNDATACOPY RETURNDATASIZE PUSH1 0x0 REVERT JUMPDEST POP POP POP POP JUMPDEST DUP1 ISZERO PUSH2 0x3269 JUMPI DUP4 PUSH1 0x1 PUSH1 0x1 PUSH1 0xA0 SHL SUB AND PUSH4 0x64A197F3 DUP5 DUP4 PUSH1 0x40 MLOAD DUP4 PUSH4 0xFFFFFFFF AND PUSH1 0xE0 SHL DUP2 MSTORE PUSH1 0x4 ADD DUP1 DUP4 PUSH1 0x1 PUSH1 0x1 PUSH1 0xA0 SHL SUB AND PUSH1 0x1 PUSH1 0x1 PUSH1 0xA0 SHL SUB AND DUP2 MSTORE PUSH1 0x20 ADD DUP3 DUP2 MSTORE PUSH1 0x20 ADD SWAP3 POP POP POP PUSH1 0x0 PUSH1 0x40 MLOAD DUP1 DUP4 SUB DUP2 PUSH1 0x0 DUP8 DUP1 EXTCODESIZE ISZERO DUP1 ISZERO PUSH2 0x349B JUMPI PUSH1 0x0 DUP1 REVERT JUMPDEST POP GAS CALL ISZERO DUP1 ISZERO PUSH2 0x34AF JUMPI RETURNDATASIZE PUSH1 0x0 DUP1 RETURNDATACOPY RETURNDATASIZE PUSH1 0x0 REVERT JUMPDEST POP POP POP POP POP POP POP POP JUMP JUMPDEST PUSH1 0x0 PUSH2 0xD2B PUSH2 0x34E1 DUP4 PUSH2 0x3E8 PUSH8 0xDE0B6B3A7640000 JUMPDEST DIV PUSH1 0x5 MUL PUSH2 0x3BA1 SWAP1 SWAP2 SWAP1 PUSH4 0xFFFFFFFF AND JUMP JUMPDEST PUSH8 0xDE0B6B3A7640000 PUSH2 0x4F95 JUMP JUMPDEST PUSH1 0x1 PUSH1 0x1 PUSH1 0x1 PUSH1 0xA0 SHL SUB DUP3 AND PUSH1 0x0 SWAP1 DUP2 MSTORE PUSH1 0xE PUSH1 0x20 MSTORE PUSH1 0x40 SWAP1 KECCAK256 PUSH1 0x3 ADD SLOAD PUSH1 0xFF AND PUSH1 0x4 DUP2 GT ISZERO PUSH2 0x351B JUMPI INVALID JUMPDEST EQ PUSH2 0xCD6 JUMPI PUSH1 0x40 MLOAD PUSH3 0x461BCD PUSH1 0xE5 SHL DUP2 MSTORE PUSH1 0x4 ADD DUP1 DUP1 PUSH1 0x20 ADD DUP3 DUP2 SUB DUP3 MSTORE PUSH1 0x2F DUP2 MSTORE PUSH1 0x20 ADD DUP1 PUSH2 0x5AC5 PUSH1 0x2F SWAP2 CODECOPY PUSH1 0x40 ADD SWAP2 POP POP PUSH1 0x40 MLOAD DUP1 SWAP2 SUB SWAP1 REVERT JUMPDEST PUSH1 0x0 PUSH2 0x2B89 PUSH8 0xDE0B6B3A7640000 PUSH2 0x1364 DUP6 DUP6 PUSH4 0xFFFFFFFF PUSH2 0x3575 AND JUMP JUMPDEST PUSH1 0x0 DUP3 PUSH2 0x3584 JUMPI POP PUSH1 0x0 PUSH2 0xD2B JUMP JUMPDEST DUP3 DUP3 MUL DUP3 DUP5 DUP3 DUP2 PUSH2 0x3591 JUMPI INVALID JUMPDEST DIV EQ PUSH2 0x2B89 JUMPI PUSH1 0x40 MLOAD PUSH3 0x461BCD PUSH1 0xE5 SHL DUP2 MSTORE PUSH1 0x4 ADD DUP1 DUP1 PUSH1 0x20 ADD DUP3 DUP2 SUB DUP3 MSTORE PUSH1 0x21 DUP2 MSTORE PUSH1 0x20 ADD DUP1 PUSH2 0x58A5 PUSH1 0x21 SWAP2 CODECOPY PUSH1 0x40 ADD SWAP2 POP POP PUSH1 0x40 MLOAD DUP1 SWAP2 SUB SWAP1 REVERT JUMPDEST PUSH1 0x0 PUSH2 0x2B89 DUP4 DUP4 PUSH1 0x40 MLOAD DUP1 PUSH1 0x40 ADD PUSH1 0x40 MSTORE DUP1 PUSH1 0x1A DUP2 MSTORE PUSH1 0x20 ADD PUSH26 0x536166654D6174683A206469766973696F6E206279207A65726F PUSH1 0x30 SHL DUP2 MSTORE POP PUSH2 0x4FAB JUMP JUMPDEST PUSH1 0x0 DUP1 PUSH2 0x3618 PUSH2 0x5010 JUMP JUMPDEST SWAP1 POP PUSH1 0x0 PUSH2 0x362E PUSH8 0xDDD4B8C6C7D70D8 DUP4 PUSH2 0x502C JUMP JUMPDEST SWAP1 POP PUSH2 0x1A2D PUSH8 0xDE0B6B3A7640000 PUSH2 0x1364 DUP4 PUSH1 0xC SLOAD PUSH2 0x3575 SWAP1 SWAP2 SWAP1 PUSH4 0xFFFFFFFF AND JUMP JUMPDEST PUSH1 0x0 PUSH2 0x3668 PUSH1 0xD SLOAD TIMESTAMP PUSH2 0x2B47 SWAP1 SWAP2 SWAP1 PUSH4 0xFFFFFFFF AND JUMP JUMPDEST SWAP1 POP PUSH1 0x3C DUP2 LT PUSH2 0xCD6 JUMPI TIMESTAMP PUSH1 0xD DUP2 SWAP1 SSTORE PUSH1 0x40 DUP1 MLOAD SWAP2 DUP3 MSTORE MLOAD PUSH32 0x860F8D2F0C74DD487E89E2883E3B25B8159CE1E1B3433A291CBA7B82C508F3BC SWAP2 DUP2 SWAP1 SUB PUSH1 0x20 ADD SWAP1 LOG1 POP JUMP JUMPDEST PUSH2 0x36B5 PUSH2 0x5678 JUMP JUMPDEST PUSH2 0x36BD PUSH2 0x5768 JUMP JUMPDEST PUSH2 0x36C5 PUSH2 0x5678 JUMP JUMPDEST DUP5 DUP3 MSTORE PUSH1 0x0 PUSH1 0x80 DUP4 ADD MSTORE PUSH2 0x36D7 PUSH2 0x1933 JUMP JUMPDEST PUSH1 0xA0 DUP4 ADD MSTORE PUSH2 0x36E4 PUSH2 0x1E47 JUMP JUMPDEST DUP3 PUSH1 0xC0 ADD DUP2 DUP2 MSTORE POP POP DUP7 PUSH1 0x80 ADD MLOAD PUSH1 0x1 PUSH1 0x1 PUSH1 0xA0 SHL SUB AND PUSH4 0x4D622831 PUSH1 0x40 MLOAD DUP2 PUSH4 0xFFFFFFFF AND PUSH1 0xE0 SHL DUP2 MSTORE PUSH1 0x4 ADD PUSH1 0x20 PUSH1 0x40 MLOAD DUP1 DUP4 SUB DUP2 DUP7 DUP1 EXTCODESIZE ISZERO DUP1 ISZERO PUSH2 0x372A JUMPI PUSH1 0x0 DUP1 REVERT JUMPDEST POP GAS STATICCALL ISZERO DUP1 ISZERO PUSH2 0x373E JUMPI RETURNDATASIZE PUSH1 0x0 DUP1 RETURNDATACOPY RETURNDATASIZE PUSH1 0x0 REVERT JUMPDEST POP POP POP POP PUSH1 0x40 MLOAD RETURNDATASIZE PUSH1 0x20 DUP2 LT ISZERO PUSH2 0x3754 JUMPI PUSH1 0x0 DUP1 REVERT JUMPDEST POP MLOAD PUSH1 0x1 PUSH1 0x1 PUSH1 0xA0 SHL SUB SWAP1 DUP2 AND PUSH1 0x60 DUP5 ADD MSTORE PUSH1 0x80 DUP9 ADD MLOAD PUSH1 0x40 DUP1 MLOAD PUSH4 0x1E223143 PUSH1 0xE0 SHL DUP2 MSTORE SWAP1 MLOAD PUSH1 0x0 SWAP4 SWAP3 SWAP1 SWAP3 AND SWAP2 PUSH4 0x1E223143 SWAP2 PUSH1 0x4 DUP1 DUP3 ADD SWAP3 PUSH1 0x20 SWAP3 SWAP1 SWAP2 SWAP1 DUP3 SWAP1 SUB ADD DUP2 DUP7 DUP1 EXTCODESIZE ISZERO DUP1 ISZERO PUSH2 0x37A9 JUMPI PUSH1 0x0 DUP1 REVERT JUMPDEST POP GAS STATICCALL ISZERO DUP1 ISZERO PUSH2 0x37BD JUMPI RETURNDATASIZE PUSH1 0x0 DUP1 RETURNDATACOPY RETURNDATASIZE PUSH1 0x0 REVERT JUMPDEST POP POP POP POP PUSH1 0x40 MLOAD RETURNDATASIZE PUSH1 0x20 DUP2 LT ISZERO PUSH2 0x37D3 JUMPI PUSH1 0x0 DUP1 REVERT JUMPDEST POP MLOAD PUSH1 0x0 PUSH1 0x20 DUP6 ADD MSTORE SWAP1 POP JUMPDEST DUP5 DUP4 PUSH1 0x20 ADD MLOAD LT DUP1 ISZERO PUSH2 0x3808 JUMPI POP DUP1 PUSH1 0x1 PUSH1 0x1 PUSH1 0xA0 SHL SUB AND DUP4 PUSH1 0x60 ADD MLOAD PUSH1 0x1 PUSH1 0x1 PUSH1 0xA0 SHL SUB AND EQ ISZERO JUMPDEST ISZERO PUSH2 0x3A3D JUMPI PUSH1 0x0 DUP9 PUSH1 0x80 ADD MLOAD PUSH1 0x1 PUSH1 0x1 PUSH1 0xA0 SHL SUB AND PUSH4 0xB72703AC DUP6 PUSH1 0x60 ADD MLOAD PUSH1 0x40 MLOAD DUP3 PUSH4 0xFFFFFFFF AND PUSH1 0xE0 SHL DUP2 MSTORE PUSH1 0x4 ADD DUP1 DUP3 PUSH1 0x1 PUSH1 0x1 PUSH1 0xA0 SHL SUB AND PUSH1 0x1 PUSH1 0x1 PUSH1 0xA0 SHL SUB AND DUP2 MSTORE PUSH1 0x20 ADD SWAP2 POP POP PUSH1 0x20 PUSH1 0x40 MLOAD DUP1 DUP4 SUB DUP2 DUP7 DUP1 EXTCODESIZE ISZERO DUP1 ISZERO PUSH2 0x386D JUMPI PUSH1 0x0 DUP1 REVERT JUMPDEST POP GAS STATICCALL ISZERO DUP1 ISZERO PUSH2 0x3881 JUMPI RETURNDATASIZE PUSH1 0x0 DUP1 RETURNDATACOPY RETURNDATASIZE PUSH1 0x0 REVERT JUMPDEST POP POP POP POP PUSH1 0x40 MLOAD RETURNDATASIZE PUSH1 0x20 DUP2 LT ISZERO PUSH2 0x3897 JUMPI PUSH1 0x0 DUP1 REVERT JUMPDEST POP MLOAD PUSH1 0x60 DUP6 ADD MLOAD SWAP1 SWAP2 POP PUSH2 0x38AB SWAP1 DUP10 PUSH2 0x2865 JUMP JUMPDEST PUSH1 0x40 DUP6 ADD MSTORE PUSH1 0x80 DUP5 ADD MLOAD PUSH2 0x39AF JUMPI PUSH8 0xF43FC2C04EE0000 DUP5 PUSH1 0x40 ADD MLOAD LT ISZERO DUP1 ISZERO PUSH2 0x38D4 JUMPI POP DUP4 MLOAD ISZERO JUMPDEST ISZERO PUSH2 0x38DF JUMPI POP PUSH2 0x3A3D JUMP JUMPDEST PUSH1 0x0 PUSH2 0x38F4 DUP6 PUSH1 0xC0 ADD MLOAD DUP7 PUSH1 0xA0 ADD MLOAD DUP12 PUSH2 0x4707 JUMP JUMPDEST DUP11 MLOAD PUSH1 0x20 DUP13 ADD MLOAD PUSH1 0x60 DUP9 ADD MLOAD PUSH1 0x40 DUP10 ADD MLOAD DUP10 MLOAD SWAP5 SWAP6 POP PUSH2 0x3915 SWAP5 DUP7 DUP16 PUSH2 0x49BB JUMP JUMPDEST PUSH1 0x80 DUP2 ADD MLOAD DUP7 MLOAD SWAP2 SWAP6 POP PUSH2 0x392F SWAP2 SWAP1 PUSH4 0xFFFFFFFF PUSH2 0x2B47 AND JUMP JUMPDEST DUP6 MSTORE PUSH1 0x80 DUP5 ADD MLOAD PUSH1 0xA0 DUP7 ADD MLOAD PUSH2 0x394A SWAP2 PUSH4 0xFFFFFFFF PUSH2 0x2B47 AND JUMP JUMPDEST DUP6 PUSH1 0xA0 ADD DUP2 DUP2 MSTORE POP POP PUSH2 0x397F DUP5 PUSH2 0x100 ADD MLOAD PUSH2 0x10AD DUP7 PUSH1 0x40 ADD MLOAD PUSH2 0x10AD DUP9 PUSH1 0xA0 ADD MLOAD DUP11 PUSH1 0xC0 ADD MLOAD PUSH2 0x2B47 SWAP1 SWAP2 SWAP1 PUSH4 0xFFFFFFFF AND JUMP JUMPDEST PUSH1 0xC0 DUP7 ADD MSTORE PUSH2 0x398E DUP7 DUP6 PUSH2 0x4CEE JUMP JUMPDEST SWAP6 POP PUSH2 0x39A3 DUP6 PUSH1 0xC0 ADD MLOAD DUP7 PUSH1 0xA0 ADD MLOAD DUP12 PUSH2 0x4E05 JUMP JUMPDEST ISZERO PUSH1 0x80 DUP7 ADD MSTORE POP PUSH2 0x3A1F JUMP JUMPDEST DUP4 PUSH1 0x80 ADD MLOAD DUP1 ISZERO PUSH2 0x39CB JUMPI POP PUSH8 0xF43FC2C04EE0000 DUP5 PUSH1 0x40 ADD MLOAD LT JUMPDEST ISZERO PUSH2 0x3A19 JUMPI PUSH2 0x39EC DUP10 PUSH1 0x0 ADD MLOAD DUP11 PUSH1 0x20 ADD MLOAD DUP7 PUSH1 0x60 ADD MLOAD DUP8 PUSH1 0x0 ADD MLOAD PUSH2 0x4E26 JUMP JUMPDEST PUSH1 0x80 DUP2 ADD MLOAD DUP6 MLOAD SWAP2 SWAP5 POP PUSH2 0x3A06 SWAP2 SWAP1 PUSH4 0xFFFFFFFF PUSH2 0x2B47 AND JUMP JUMPDEST DUP5 MSTORE PUSH2 0x3A12 DUP6 DUP5 PUSH2 0x4CEE JUMP JUMPDEST SWAP5 POP PUSH2 0x3A1F JUMP JUMPDEST POP PUSH2 0x3A3D JUMP JUMPDEST PUSH1 0x1 PUSH1 0x1 PUSH1 0xA0 SHL SUB AND PUSH1 0x60 DUP5 ADD MSTORE PUSH1 0x20 DUP4 ADD DUP1 MLOAD PUSH1 0x1 ADD SWAP1 MSTORE PUSH2 0x37DF JUMP JUMPDEST POP POP POP SWAP5 SWAP4 POP POP POP POP JUMP JUMPDEST PUSH2 0x3A50 PUSH2 0x5678 JUMP JUMPDEST PUSH2 0x3A58 PUSH2 0x5768 JUMP JUMPDEST PUSH2 0x3A60 PUSH2 0x5678 JUMP JUMPDEST PUSH1 0xB SLOAD DUP6 DUP4 MSTORE PUSH1 0x0 PUSH1 0x20 DUP5 ADD MSTORE PUSH1 0x1 PUSH1 0x1 PUSH1 0xA0 SHL SUB AND JUMPDEST DUP5 DUP4 PUSH1 0x20 ADD MLOAD LT ISZERO PUSH2 0x3B6E JUMPI DUP1 PUSH1 0x1 PUSH1 0x1 PUSH1 0xA0 SHL SUB AND PUSH4 0x4D622831 PUSH1 0x40 MLOAD DUP2 PUSH4 0xFFFFFFFF AND PUSH1 0xE0 SHL DUP2 MSTORE PUSH1 0x4 ADD PUSH1 0x20 PUSH1 0x40 MLOAD DUP1 DUP4 SUB DUP2 DUP7 DUP1 EXTCODESIZE ISZERO DUP1 ISZERO PUSH2 0x3ABC JUMPI PUSH1 0x0 DUP1 REVERT JUMPDEST POP GAS STATICCALL ISZERO DUP1 ISZERO PUSH2 0x3AD0 JUMPI RETURNDATASIZE PUSH1 0x0 DUP1 RETURNDATACOPY RETURNDATASIZE PUSH1 0x0 REVERT JUMPDEST POP POP POP POP PUSH1 0x40 MLOAD RETURNDATASIZE PUSH1 0x20 DUP2 LT ISZERO PUSH2 0x3AE6 JUMPI PUSH1 0x0 DUP1 REVERT JUMPDEST POP MLOAD PUSH1 0x1 PUSH1 0x1 PUSH1 0xA0 SHL SUB AND PUSH1 0x60 DUP5 ADD DUP2 SWAP1 MSTORE PUSH2 0x3B02 SWAP1 DUP9 PUSH2 0x2865 JUMP JUMPDEST PUSH1 0x40 DUP5 ADD DUP2 SWAP1 MSTORE PUSH8 0xF43FC2C04EE0000 GT ISZERO PUSH2 0x3B59 JUMPI PUSH2 0x3B2C DUP10 DUP10 DUP6 PUSH1 0x60 ADD MLOAD DUP7 PUSH1 0x0 ADD MLOAD PUSH2 0x4E26 JUMP JUMPDEST PUSH1 0x80 DUP2 ADD MLOAD DUP5 MLOAD SWAP2 SWAP4 POP PUSH2 0x3B46 SWAP2 SWAP1 PUSH4 0xFFFFFFFF PUSH2 0x2B47 AND JUMP JUMPDEST DUP4 MSTORE PUSH2 0x3B52 DUP5 DUP4 PUSH2 0x4CEE JUMP JUMPDEST SWAP4 POP PUSH2 0x3B5E JUMP JUMPDEST PUSH2 0x3B6E JUMP JUMPDEST PUSH1 0x20 DUP4 ADD DUP1 MLOAD PUSH1 0x1 ADD SWAP1 MSTORE PUSH2 0x3A77 JUMP JUMPDEST POP POP POP SWAP6 SWAP5 POP POP POP POP POP JUMP JUMPDEST PUSH1 0x0 PUSH2 0xD2B PUSH2 0x3B94 DUP4 PUSH2 0x3E8 PUSH8 0xDE0B6B3A7640000 PUSH2 0x34CF JUMP JUMPDEST PUSH7 0xB1A2BC2EC50000 PUSH2 0x4F95 JUMP JUMPDEST PUSH1 0x0 DUP3 DUP3 ADD DUP4 DUP2 LT ISZERO PUSH2 0x2B89 JUMPI PUSH1 0x40 DUP1 MLOAD PUSH3 0x461BCD PUSH1 0xE5 SHL DUP2 MSTORE PUSH1 0x20 PUSH1 0x4 DUP3 ADD MSTORE PUSH1 0x1B PUSH1 0x24 DUP3 ADD MSTORE PUSH27 0x536166654D6174683A206164646974696F6E206F766572666C6F77 PUSH1 0x28 SHL PUSH1 0x44 DUP3 ADD MSTORE SWAP1 MLOAD SWAP1 DUP2 SWAP1 SUB PUSH1 0x64 ADD SWAP1 REVERT JUMPDEST PUSH1 0x1 PUSH1 0x1 PUSH1 0xA0 SHL SUB DUP2 AND PUSH2 0x3C54 JUMPI PUSH1 0x40 DUP1 MLOAD PUSH3 0x461BCD PUSH1 0xE5 SHL DUP2 MSTORE PUSH1 0x20 PUSH1 0x4 DUP3 ADD MSTORE PUSH1 0x1E PUSH1 0x24 DUP3 ADD MSTORE PUSH32 0x4163636F756E742063616E6E6F74206265207A65726F20616464726573730000 PUSH1 0x44 DUP3 ADD MSTORE SWAP1 MLOAD SWAP1 DUP2 SWAP1 SUB PUSH1 0x64 ADD SWAP1 REVERT JUMPDEST DUP1 EXTCODESIZE DUP1 PUSH2 0x1202 JUMPI PUSH1 0x40 DUP1 MLOAD PUSH3 0x461BCD PUSH1 0xE5 SHL DUP2 MSTORE PUSH1 0x20 PUSH1 0x4 DUP3 ADD DUP2 SWAP1 MSTORE PUSH1 0x24 DUP3 ADD MSTORE PUSH32 0x4163636F756E7420636F64652073697A652063616E6E6F74206265207A65726F PUSH1 0x44 DUP3 ADD MSTORE SWAP1 MLOAD SWAP1 DUP2 SWAP1 SUB PUSH1 0x64 ADD SWAP1 REVERT JUMPDEST PUSH1 0x3 SLOAD PUSH1 0x40 MLOAD PUSH1 0x0 SWAP2 PUSH1 0x1 PUSH1 0x1 PUSH1 0xA0 SHL SUB AND SWAP1 PUSH32 0x8BE0079C531659141344CD1FD0A4F28419497F9722A3DAAFE3B4186F6B6457E0 SWAP1 DUP4 SWAP1 LOG3 PUSH1 0x3 DUP1 SLOAD PUSH1 0x1 PUSH1 0x1 PUSH1 0xA0 SHL SUB NOT AND SWAP1 SSTORE JUMP JUMPDEST PUSH1 0x12 DUP1 SLOAD PUSH1 0x1 PUSH1 0x1 PUSH1 0xA0 SHL SUB DUP4 AND PUSH1 0x0 SWAP1 DUP2 MSTORE PUSH1 0x14 PUSH1 0x20 SWAP1 DUP2 MSTORE PUSH1 0x40 SWAP2 DUP3 SWAP1 KECCAK256 SWAP3 DUP4 SSTORE PUSH1 0x13 SLOAD PUSH1 0x1 SWAP1 SWAP4 ADD DUP4 SWAP1 SSTORE SWAP3 SLOAD DUP2 MLOAD SWAP1 DUP2 MSTORE SWAP3 DUP4 ADD SWAP2 SWAP1 SWAP2 MSTORE DUP1 MLOAD PUSH32 0xC437F324D85E369394148DD9D62F98F534B382E01ED3DD2EB98138FB6D3AB49A SWAP3 DUP2 SWAP1 SUB SWAP1 SWAP2 ADD SWAP1 LOG1 POP JUMP JUMPDEST PUSH1 0x0 DUP1 PUSH1 0x0 PUSH2 0x3D6B DUP5 PUSH2 0x12B4 JUMP JUMPDEST SWAP1 POP PUSH1 0x0 PUSH2 0x3D78 DUP6 PUSH2 0x297C JUMP JUMPDEST PUSH1 0x1 PUSH1 0x1 PUSH1 0xA0 SHL SUB DUP7 AND PUSH1 0x0 SWAP1 DUP2 MSTORE PUSH1 0xE PUSH1 0x20 MSTORE PUSH1 0x40 DUP2 KECCAK256 PUSH1 0x1 ADD SLOAD SWAP2 SWAP3 POP SWAP1 PUSH2 0x3DA8 SWAP1 DUP5 PUSH4 0xFFFFFFFF PUSH2 0x3BA1 AND JUMP JUMPDEST PUSH1 0x1 PUSH1 0x1 PUSH1 0xA0 SHL SUB DUP8 AND PUSH1 0x0 SWAP1 DUP2 MSTORE PUSH1 0xE PUSH1 0x20 MSTORE PUSH1 0x40 DUP2 KECCAK256 SLOAD SWAP2 SWAP3 POP SWAP1 PUSH2 0x3DD5 SWAP1 DUP5 PUSH4 0xFFFFFFFF PUSH2 0x3BA1 AND JUMP JUMPDEST SWAP2 SWAP6 POP SWAP1 SWAP4 POP POP POP POP SWAP2 POP SWAP2 JUMP JUMPDEST PUSH1 0x0 DUP2 ISZERO PUSH2 0x3E0F JUMPI PUSH2 0x3E08 DUP3 PUSH2 0x1364 DUP6 PUSH9 0x56BC75E2D63100000 PUSH4 0xFFFFFFFF PUSH2 0x3575 AND JUMP JUMPDEST SWAP1 POP PUSH2 0xD2B JUMP JUMPDEST POP PUSH1 0x0 NOT PUSH2 0xD2B JUMP JUMPDEST PUSH1 0x0 DUP1 PUSH2 0x3E23 PUSH2 0x1E47 JUMP JUMPDEST SWAP1 POP PUSH1 0x0 PUSH2 0x3E2F PUSH2 0x1933 JUMP JUMPDEST SWAP1 POP PUSH2 0x3E3C DUP3 DUP3 DUP7 PUSH2 0x4707 JUMP JUMPDEST SWAP5 SWAP4 POP POP POP POP JUMP JUMPDEST PUSH7 0x11C37937E08000 DUP2 LT DUP1 ISZERO SWAP1 PUSH2 0x3E63 JUMPI POP PUSH8 0xDE0B6B3A7640000 DUP2 GT ISZERO JUMPDEST PUSH2 0xCD6 JUMPI PUSH1 0x40 MLOAD PUSH3 0x461BCD PUSH1 0xE5 SHL DUP2 MSTORE PUSH1 0x4 ADD DUP1 DUP1 PUSH1 0x20 ADD DUP3 DUP2 SUB DUP3 MSTORE PUSH1 0x30 DUP2 MSTORE PUSH1 0x20 ADD DUP1 PUSH2 0x5A29 PUSH1 0x30 SWAP2 CODECOPY PUSH1 0x40 ADD SWAP2 POP POP PUSH1 0x40 MLOAD DUP1 SWAP2 SUB SWAP1 REVERT JUMPDEST PUSH1 0x9 SLOAD PUSH1 0x40 DUP1 MLOAD PUSH4 0x1E425BE1 PUSH1 0xE1 SHL DUP2 MSTORE SWAP1 MLOAD PUSH1 0x0 SWAP3 PUSH1 0x1 PUSH1 0x1 PUSH1 0xA0 SHL SUB AND SWAP2 PUSH4 0x3C84B7C2 SWAP2 PUSH1 0x4 DUP1 DUP4 ADD SWAP3 PUSH1 0x20 SWAP3 SWAP2 SWAP1 DUP3 SWAP1 SUB ADD DUP2 DUP7 DUP1 EXTCODESIZE ISZERO DUP1 ISZERO PUSH2 0x3EE3 JUMPI PUSH1 0x0 DUP1 REVERT JUMPDEST POP GAS STATICCALL ISZERO DUP1 ISZERO PUSH2 0x3EF7 JUMPI RETURNDATASIZE PUSH1 0x0 DUP1 RETURNDATACOPY RETURNDATASIZE PUSH1 0x0 REVERT JUMPDEST POP POP POP POP PUSH1 0x40 MLOAD RETURNDATASIZE PUSH1 0x20 DUP2 LT ISZERO PUSH2 0x3F0D JUMPI PUSH1 0x0 DUP1 REVERT JUMPDEST POP MLOAD SWAP1 POP PUSH2 0x3F24 DUP2 PUSH3 0x127500 PUSH4 0xFFFFFFFF PUSH2 0x3BA1 AND JUMP JUMPDEST TIMESTAMP LT ISZERO PUSH2 0xCD6 JUMPI PUSH1 0x40 MLOAD PUSH3 0x461BCD PUSH1 0xE5 SHL DUP2 MSTORE PUSH1 0x4 ADD DUP1 DUP1 PUSH1 0x20 ADD DUP3 DUP2 SUB DUP3 MSTORE PUSH1 0x40 DUP2 MSTORE PUSH1 0x20 ADD DUP1 PUSH2 0x5865 PUSH1 0x40 SWAP2 CODECOPY PUSH1 0x40 ADD SWAP2 POP POP PUSH1 0x40 MLOAD DUP1 SWAP2 SUB SWAP1 REVERT JUMPDEST PUSH8 0xF43FC2C04EE0000 PUSH2 0x3F74 DUP3 PUSH2 0x3E18 JUMP JUMPDEST LT ISZERO PUSH2 0xCD6 JUMPI PUSH1 0x40 MLOAD PUSH3 0x461BCD PUSH1 0xE5 SHL DUP2 MSTORE PUSH1 0x4 ADD DUP1 DUP1 PUSH1 0x20 ADD DUP3 DUP2 SUB DUP3 MSTORE PUSH1 0x2A DUP2 MSTORE PUSH1 0x20 ADD DUP1 PUSH2 0x5A79 PUSH1 0x2A SWAP2 CODECOPY PUSH1 0x40 ADD SWAP2 POP POP PUSH1 0x40 MLOAD DUP1 SWAP2 SUB SWAP1 REVERT JUMPDEST PUSH1 0x0 DUP2 GT PUSH2 0xCD6 JUMPI PUSH1 0x40 MLOAD PUSH3 0x461BCD PUSH1 0xE5 SHL DUP2 MSTORE PUSH1 0x4 ADD DUP1 DUP1 PUSH1 0x20 ADD DUP3 DUP2 SUB DUP3 MSTORE PUSH1 0x2E DUP2 MSTORE PUSH1 0x20 ADD DUP1 PUSH2 0x59C5 PUSH1 0x2E SWAP2 CODECOPY PUSH1 0x40 ADD SWAP2 POP POP PUSH1 0x40 MLOAD DUP1 SWAP2 SUB SWAP1 REVERT JUMPDEST DUP1 DUP4 PUSH1 0x1 PUSH1 0x1 PUSH1 0xA0 SHL SUB AND PUSH4 0x70A08231 DUP5 PUSH1 0x40 MLOAD DUP3 PUSH4 0xFFFFFFFF AND PUSH1 0xE0 SHL DUP2 MSTORE PUSH1 0x4 ADD DUP1 DUP3 PUSH1 0x1 PUSH1 0x1 PUSH1 0xA0 SHL SUB AND PUSH1 0x1 PUSH1 0x1 PUSH1 0xA0 SHL SUB AND DUP2 MSTORE PUSH1 0x20 ADD SWAP2 POP POP PUSH1 0x20 PUSH1 0x40 MLOAD DUP1 DUP4 SUB DUP2 DUP7 DUP1 EXTCODESIZE ISZERO DUP1 ISZERO PUSH2 0x4047 JUMPI PUSH1 0x0 DUP1 REVERT JUMPDEST POP GAS STATICCALL ISZERO DUP1 ISZERO PUSH2 0x405B JUMPI RETURNDATASIZE PUSH1 0x0 DUP1 RETURNDATACOPY RETURNDATASIZE PUSH1 0x0 REVERT JUMPDEST POP POP POP POP PUSH1 0x40 MLOAD RETURNDATASIZE PUSH1 0x20 DUP2 LT ISZERO PUSH2 0x4071 JUMPI PUSH1 0x0 DUP1 REVERT JUMPDEST POP MLOAD LT ISZERO PUSH2 0x2B42 JUMPI PUSH1 0x40 MLOAD PUSH3 0x461BCD PUSH1 0xE5 SHL DUP2 MSTORE PUSH1 0x4 ADD DUP1 DUP1 PUSH1 0x20 ADD DUP3 DUP2 SUB DUP3 MSTORE PUSH1 0x4E DUP2 MSTORE PUSH1 0x20 ADD DUP1 PUSH2 0x58E6 PUSH1 0x4E SWAP2 CODECOPY PUSH1 0x60 ADD SWAP2 POP POP PUSH1 0x40 MLOAD DUP1 SWAP2 SUB SWAP1 REVERT JUMPDEST PUSH1 0x0 PUSH1 0x1 PUSH1 0x1 PUSH1 0xA0 SHL SUB DUP4 AND ISZERO DUP1 PUSH2 0x4147 JUMPI POP DUP4 PUSH1 0x1 PUSH1 0x1 PUSH1 0xA0 SHL SUB AND PUSH4 0x5DBE47E8 DUP5 PUSH1 0x40 MLOAD DUP3 PUSH4 0xFFFFFFFF AND PUSH1 0xE0 SHL DUP2 MSTORE PUSH1 0x4 ADD DUP1 DUP3 PUSH1 0x1 PUSH1 0x1 PUSH1 0xA0 SHL SUB AND PUSH1 0x1 PUSH1 0x1 PUSH1 0xA0 SHL SUB AND DUP2 MSTORE PUSH1 0x20 ADD SWAP2 POP POP PUSH1 0x20 PUSH1 0x40 MLOAD DUP1 DUP4 SUB DUP2 DUP7 DUP1 EXTCODESIZE ISZERO DUP1 ISZERO PUSH2 0x4119 JUMPI PUSH1 0x0 DUP1 REVERT JUMPDEST POP GAS STATICCALL ISZERO DUP1 ISZERO PUSH2 0x412D JUMPI RETURNDATASIZE PUSH1 0x0 DUP1 RETURNDATACOPY RETURNDATASIZE PUSH1 0x0 REVERT JUMPDEST POP POP POP POP PUSH1 0x40 MLOAD RETURNDATASIZE PUSH1 0x20 DUP2 LT ISZERO PUSH2 0x4143 JUMPI PUSH1 0x0 DUP1 REVERT JUMPDEST POP MLOAD ISZERO JUMPDEST DUP1 PUSH2 0x4162 JUMPI POP PUSH8 0xF43FC2C04EE0000 PUSH2 0x4160 DUP5 DUP5 PUSH2 0x2865 JUMP JUMPDEST LT JUMPDEST ISZERO PUSH2 0x416F JUMPI POP PUSH1 0x0 PUSH2 0x2B89 JUMP JUMPDEST PUSH1 0x0 DUP5 PUSH1 0x1 PUSH1 0x1 PUSH1 0xA0 SHL SUB AND PUSH4 0x765E0159 DUP6 PUSH1 0x40 MLOAD DUP3 PUSH4 0xFFFFFFFF AND PUSH1 0xE0 SHL DUP2 MSTORE PUSH1 0x4 ADD DUP1 DUP3 PUSH1 0x1 PUSH1 0x1 PUSH1 0xA0 SHL SUB AND PUSH1 0x1 PUSH1 0x1 PUSH1 0xA0 SHL SUB AND DUP2 MSTORE PUSH1 0x20 ADD SWAP2 POP POP PUSH1 0x20 PUSH1 0x40 MLOAD DUP1 DUP4 SUB DUP2 DUP7 DUP1 EXTCODESIZE ISZERO DUP1 ISZERO PUSH2 0x41C7 JUMPI PUSH1 0x0 DUP1 REVERT JUMPDEST POP GAS STATICCALL ISZERO DUP1 ISZERO PUSH2 0x41DB JUMPI RETURNDATASIZE PUSH1 0x0 DUP1 RETURNDATACOPY RETURNDATASIZE PUSH1 0x0 REVERT JUMPDEST POP POP POP POP PUSH1 0x40 MLOAD RETURNDATASIZE PUSH1 0x20 DUP2 LT ISZERO PUSH2 0x41F1 JUMPI PUSH1 0x0 DUP1 REVERT JUMPDEST POP MLOAD SWAP1 POP PUSH1 0x1 PUSH1 0x1 PUSH1 0xA0 SHL SUB DUP2 AND ISZERO DUP1 PUSH2 0x1FEF JUMPI POP PUSH8 0xF43FC2C04EE0000 PUSH2 0x4219 DUP3 DUP6 PUSH2 0x2865 JUMP JUMPDEST LT SWAP6 SWAP5 POP POP POP POP POP JUMP JUMPDEST PUSH2 0x422B PUSH2 0x5745 JUMP JUMPDEST PUSH1 0x1 PUSH1 0x1 PUSH1 0xA0 SHL SUB DUP8 AND PUSH1 0x0 SWAP1 DUP2 MSTORE PUSH1 0xE PUSH1 0x20 MSTORE PUSH1 0x40 SWAP1 KECCAK256 SLOAD PUSH2 0x4268 SWAP1 DUP8 SWAP1 PUSH2 0x4263 SWAP1 PUSH9 0x1158E460913D00000 PUSH4 0xFFFFFFFF PUSH2 0x2B47 AND JUMP JUMPDEST PUSH2 0x4F95 JUMP JUMPDEST DUP1 DUP3 MSTORE PUSH2 0x4289 SWAP1 DUP7 SWAP1 PUSH2 0x1364 SWAP1 PUSH8 0xDE0B6B3A7640000 PUSH4 0xFFFFFFFF PUSH2 0x3575 AND JUMP JUMPDEST PUSH1 0x20 DUP1 DUP4 ADD SWAP2 SWAP1 SWAP2 MSTORE DUP2 MLOAD PUSH1 0x1 PUSH1 0x1 PUSH1 0xA0 SHL SUB DUP10 AND PUSH1 0x0 SWAP1 DUP2 MSTORE PUSH1 0xE SWAP1 SWAP3 MSTORE PUSH1 0x40 DUP3 KECCAK256 SLOAD PUSH2 0x42BC SWAP2 PUSH4 0xFFFFFFFF PUSH2 0x2B47 AND JUMP JUMPDEST PUSH1 0x20 DUP1 DUP5 ADD MLOAD PUSH1 0x1 PUSH1 0x1 PUSH1 0xA0 SHL SUB DUP12 AND PUSH1 0x0 SWAP1 DUP2 MSTORE PUSH1 0xE SWAP1 SWAP3 MSTORE PUSH1 0x40 DUP3 KECCAK256 PUSH1 0x1 ADD SLOAD SWAP3 SWAP4 POP SWAP1 SWAP2 PUSH2 0x42F2 SWAP2 PUSH4 0xFFFFFFFF PUSH2 0x2B47 AND JUMP JUMPDEST SWAP1 POP PUSH9 0x1158E460913D00000 DUP3 EQ ISZERO PUSH2 0x438B JUMPI PUSH2 0x430E DUP10 PUSH2 0x4796 JUMP JUMPDEST PUSH2 0x4319 DUP10 PUSH1 0x4 PUSH2 0x45EE JUMP JUMPDEST PUSH2 0x432E DUP11 DUP11 PUSH9 0x1158E460913D00000 DUP5 PUSH2 0x50D7 JUMP JUMPDEST DUP9 PUSH1 0x1 PUSH1 0x1 PUSH1 0xA0 SHL SUB AND PUSH1 0x0 DUP1 MLOAD PUSH1 0x20 PUSH2 0x5934 DUP4 CODECOPY DUP2 MLOAD SWAP2 MSTORE PUSH1 0x0 DUP1 PUSH1 0x0 PUSH1 0x3 PUSH1 0x40 MLOAD DUP1 DUP6 DUP2 MSTORE PUSH1 0x20 ADD DUP5 DUP2 MSTORE PUSH1 0x20 ADD DUP4 DUP2 MSTORE PUSH1 0x20 ADD DUP3 PUSH1 0x3 DUP2 GT ISZERO PUSH2 0x4370 JUMPI INVALID JUMPDEST PUSH1 0xFF AND DUP2 MSTORE PUSH1 0x20 ADD SWAP5 POP POP POP POP POP PUSH1 0x40 MLOAD DUP1 SWAP2 SUB SWAP1 LOG2 PUSH2 0x44C8 JUMP JUMPDEST PUSH1 0x0 PUSH2 0x4397 DUP3 DUP5 PUSH2 0x3DE3 JUMP JUMPDEST SWAP1 POP DUP5 DUP2 EQ ISZERO DUP1 PUSH2 0x43B8 JUMPI POP PUSH9 0x9C2007651B2500000 PUSH2 0x43B6 DUP5 PUSH2 0x528C JUMP JUMPDEST LT JUMPDEST ISZERO PUSH2 0x43CC JUMPI POP POP PUSH1 0x1 PUSH1 0x40 DUP4 ADD MSTORE POP PUSH2 0x44CB JUMP JUMPDEST PUSH1 0x80 DUP12 ADD MLOAD PUSH1 0x40 DUP1 MLOAD PUSH4 0x15F1093 PUSH1 0xE5 SHL DUP2 MSTORE PUSH1 0x1 PUSH1 0x1 PUSH1 0xA0 SHL SUB DUP14 DUP2 AND PUSH1 0x4 DUP4 ADD MSTORE PUSH1 0x24 DUP3 ADD DUP6 SWAP1 MSTORE DUP11 DUP2 AND PUSH1 0x44 DUP4 ADD MSTORE DUP10 DUP2 AND PUSH1 0x64 DUP4 ADD MSTORE SWAP2 MLOAD SWAP2 SWAP1 SWAP3 AND SWAP2 PUSH4 0x2BE21260 SWAP2 PUSH1 0x84 DUP1 DUP4 ADD SWAP3 PUSH1 0x0 SWAP3 SWAP2 SWAP1 DUP3 SWAP1 SUB ADD DUP2 DUP4 DUP8 DUP1 EXTCODESIZE ISZERO DUP1 ISZERO PUSH2 0x4433 JUMPI PUSH1 0x0 DUP1 REVERT JUMPDEST POP GAS CALL ISZERO DUP1 ISZERO PUSH2 0x4447 JUMPI RETURNDATASIZE PUSH1 0x0 DUP1 RETURNDATACOPY RETURNDATASIZE PUSH1 0x0 REVERT JUMPDEST POP POP POP PUSH1 0x1 PUSH1 0x1 PUSH1 0xA0 SHL SUB DUP12 AND PUSH1 0x0 SWAP1 DUP2 MSTORE PUSH1 0xE PUSH1 0x20 MSTORE PUSH1 0x40 SWAP1 KECCAK256 DUP5 DUP2 SSTORE PUSH1 0x1 ADD DUP4 SWAP1 SSTORE POP PUSH2 0x4475 DUP11 PUSH2 0x2C2A JUMP JUMPDEST POP PUSH1 0x1 PUSH1 0x1 PUSH1 0xA0 SHL SUB DUP11 AND PUSH1 0x0 DUP2 DUP2 MSTORE PUSH1 0xE PUSH1 0x20 SWAP1 DUP2 MSTORE PUSH1 0x40 SWAP2 DUP3 SWAP1 KECCAK256 PUSH1 0x2 ADD SLOAD DUP3 MLOAD DUP8 DUP2 MSTORE SWAP2 DUP3 ADD DUP7 SWAP1 MSTORE DUP2 DUP4 ADD MSTORE PUSH1 0x3 PUSH1 0x60 DUP3 ADD MSTORE SWAP1 MLOAD PUSH1 0x0 DUP1 MLOAD PUSH1 0x20 PUSH2 0x5934 DUP4 CODECOPY DUP2 MLOAD SWAP2 MSTORE SWAP2 DUP2 SWAP1 SUB PUSH1 0x80 ADD SWAP1 LOG2 POP JUMPDEST POP POP JUMPDEST SWAP8 SWAP7 POP POP POP POP POP POP POP JUMP JUMPDEST PUSH1 0x0 DUP1 PUSH2 0x44E1 PUSH2 0x360D JUMP JUMPDEST SWAP1 POP PUSH1 0x0 PUSH2 0x44F9 DUP5 PUSH2 0x1364 DUP9 DUP9 PUSH4 0xFFFFFFFF PUSH2 0x3575 AND JUMP JUMPDEST SWAP1 POP PUSH1 0x0 PUSH2 0x451E PUSH2 0x4511 DUP4 PUSH1 0x2 PUSH4 0xFFFFFFFF PUSH2 0x35CE AND JUMP JUMPDEST DUP5 SWAP1 PUSH4 0xFFFFFFFF PUSH2 0x3BA1 AND JUMP JUMPDEST SWAP1 POP PUSH2 0x4532 DUP2 PUSH8 0xDE0B6B3A7640000 PUSH2 0x4F95 JUMP JUMPDEST SWAP1 POP PUSH1 0x0 DUP2 GT PUSH2 0x453E JUMPI INVALID JUMPDEST PUSH1 0xC DUP2 SWAP1 SSTORE PUSH1 0x40 DUP1 MLOAD DUP3 DUP2 MSTORE SWAP1 MLOAD PUSH1 0x0 DUP1 MLOAD PUSH1 0x20 PUSH2 0x5A59 DUP4 CODECOPY DUP2 MLOAD SWAP2 MSTORE SWAP2 DUP2 SWAP1 SUB PUSH1 0x20 ADD SWAP1 LOG1 PUSH2 0x1370 PUSH2 0x3651 JUMP JUMPDEST PUSH1 0x0 PUSH2 0xD2B PUSH2 0x28CD PUSH2 0x1181 JUMP JUMPDEST PUSH1 0x0 PUSH2 0x4597 DUP4 PUSH2 0x1364 DUP7 PUSH8 0xDE0B6B3A7640000 PUSH4 0xFFFFFFFF PUSH2 0x3575 AND JUMP JUMPDEST SWAP1 POP DUP2 DUP2 GT ISZERO PUSH2 0x3269 JUMPI PUSH1 0x40 DUP1 MLOAD PUSH3 0x461BCD PUSH1 0xE5 SHL DUP2 MSTORE PUSH1 0x20 PUSH1 0x4 DUP3 ADD MSTORE PUSH1 0x1D PUSH1 0x24 DUP3 ADD MSTORE PUSH32 0x4665652065786365656465642070726F7669646564206D6178696D756D000000 PUSH1 0x44 DUP3 ADD MSTORE SWAP1 MLOAD SWAP1 DUP2 SWAP1 SUB PUSH1 0x64 ADD SWAP1 REVERT JUMPDEST PUSH1 0x0 DUP2 PUSH1 0x4 DUP2 GT ISZERO PUSH2 0x45FC JUMPI INVALID JUMPDEST EQ ISZERO DUP1 ISZERO PUSH2 0x4616 JUMPI POP PUSH1 0x1 DUP2 PUSH1 0x4 DUP2 GT ISZERO PUSH2 0x4613 JUMPI INVALID JUMPDEST EQ ISZERO JUMPDEST PUSH2 0x461C JUMPI INVALID JUMPDEST PUSH1 0x15 SLOAD PUSH2 0x4628 DUP2 PUSH2 0x52A7 JUMP JUMPDEST PUSH1 0x1 PUSH1 0x1 PUSH1 0xA0 SHL SUB DUP4 AND PUSH1 0x0 SWAP1 DUP2 MSTORE PUSH1 0xE PUSH1 0x20 MSTORE PUSH1 0x40 SWAP1 KECCAK256 PUSH1 0x3 ADD DUP1 SLOAD DUP4 SWAP2 SWAP1 PUSH1 0xFF NOT AND PUSH1 0x1 DUP4 PUSH1 0x4 DUP2 GT ISZERO PUSH2 0x465A JUMPI INVALID JUMPDEST MUL OR SWAP1 SSTORE POP PUSH1 0x1 PUSH1 0x1 PUSH1 0xA0 SHL SUB DUP4 AND PUSH1 0x0 SWAP1 DUP2 MSTORE PUSH1 0xE PUSH1 0x20 SWAP1 DUP2 MSTORE PUSH1 0x40 DUP1 DUP4 KECCAK256 PUSH1 0x1 DUP1 DUP3 ADD DUP6 SWAP1 SSTORE SWAP1 DUP5 SWAP1 SSTORE PUSH1 0x14 SWAP1 SWAP3 MSTORE DUP3 KECCAK256 DUP3 DUP2 SSTORE ADD SSTORE PUSH2 0x469C DUP4 DUP3 PUSH2 0x5360 JUMP JUMPDEST PUSH1 0xB SLOAD PUSH1 0x40 DUP1 MLOAD PUSH4 0x14849687 PUSH1 0xE1 SHL DUP2 MSTORE PUSH1 0x1 PUSH1 0x1 PUSH1 0xA0 SHL SUB DUP7 DUP2 AND PUSH1 0x4 DUP4 ADD MSTORE SWAP2 MLOAD SWAP2 SWAP1 SWAP3 AND SWAP2 PUSH4 0x29092D0E SWAP2 PUSH1 0x24 DUP1 DUP4 ADD SWAP3 PUSH1 0x0 SWAP3 SWAP2 SWAP1 DUP3 SWAP1 SUB ADD DUP2 DUP4 DUP8 DUP1 EXTCODESIZE ISZERO DUP1 ISZERO PUSH2 0x46EA JUMPI PUSH1 0x0 DUP1 REVERT JUMPDEST POP GAS CALL ISZERO DUP1 ISZERO PUSH2 0x46FE JUMPI RETURNDATASIZE PUSH1 0x0 DUP1 RETURNDATACOPY RETURNDATASIZE PUSH1 0x0 REVERT JUMPDEST POP POP POP POP POP POP POP JUMP JUMPDEST PUSH1 0x0 DUP3 ISZERO PUSH2 0x472E JUMPI PUSH1 0x0 PUSH2 0x4725 DUP5 PUSH2 0x1364 DUP8 DUP7 PUSH4 0xFFFFFFFF PUSH2 0x3575 AND JUMP JUMPDEST SWAP2 POP PUSH2 0x2B89 SWAP1 POP JUMP JUMPDEST POP PUSH1 0x0 NOT PUSH2 0x2B89 JUMP JUMPDEST PUSH1 0x0 DUP1 PUSH2 0x4756 PUSH8 0xDE0B6B3A7640000 PUSH2 0x1364 DUP7 DUP7 PUSH4 0xFFFFFFFF PUSH2 0x3575 AND JUMP JUMPDEST SWAP1 POP DUP3 DUP2 LT PUSH2 0x2B89 JUMPI PUSH1 0x40 MLOAD PUSH3 0x461BCD PUSH1 0xE5 SHL DUP2 MSTORE PUSH1 0x4 ADD DUP1 DUP1 PUSH1 0x20 ADD DUP3 DUP2 SUB DUP3 MSTORE PUSH1 0x36 DUP2 MSTORE PUSH1 0x20 ADD DUP1 PUSH2 0x59F3 PUSH1 0x36 SWAP2 CODECOPY PUSH1 0x40 ADD SWAP2 POP POP PUSH1 0x40 MLOAD DUP1 SWAP2 SUB SWAP1 REVERT JUMPDEST PUSH1 0x1 PUSH1 0x1 PUSH1 0xA0 SHL SUB DUP2 AND PUSH1 0x0 SWAP1 DUP2 MSTORE PUSH1 0xE PUSH1 0x20 MSTORE PUSH1 0x40 SWAP1 KECCAK256 PUSH1 0x2 ADD SLOAD PUSH1 0xF SLOAD PUSH2 0x47C5 SWAP1 DUP3 PUSH4 0xFFFFFFFF PUSH2 0x2B47 AND JUMP JUMPDEST PUSH1 0xF SSTORE POP PUSH1 0x1 PUSH1 0x1 PUSH1 0xA0 SHL SUB AND PUSH1 0x0 SWAP1 DUP2 MSTORE PUSH1 0xE PUSH1 0x20 MSTORE PUSH1 0x40 DUP2 KECCAK256 PUSH1 0x2 ADD SSTORE JUMP JUMPDEST DUP3 PUSH1 0x1 PUSH1 0x1 PUSH1 0xA0 SHL SUB AND PUSH4 0x38D995A8 DUP4 PUSH1 0x40 MLOAD DUP3 PUSH4 0xFFFFFFFF AND PUSH1 0xE0 SHL DUP2 MSTORE PUSH1 0x4 ADD DUP1 DUP3 DUP2 MSTORE PUSH1 0x20 ADD SWAP2 POP POP PUSH1 0x0 PUSH1 0x40 MLOAD DUP1 DUP4 SUB DUP2 PUSH1 0x0 DUP8 DUP1 EXTCODESIZE ISZERO DUP1 ISZERO PUSH2 0x482C JUMPI PUSH1 0x0 DUP1 REVERT JUMPDEST POP GAS CALL ISZERO DUP1 ISZERO PUSH2 0x4840 JUMPI RETURNDATASIZE PUSH1 0x0 DUP1 RETURNDATACOPY RETURNDATASIZE PUSH1 0x0 REVERT JUMPDEST POP POP POP POP DUP4 PUSH1 0x1 PUSH1 0x1 PUSH1 0xA0 SHL SUB AND PUSH4 0xCFB9329A DUP4 PUSH1 0x40 MLOAD DUP3 PUSH4 0xFFFFFFFF AND PUSH1 0xE0 SHL DUP2 MSTORE PUSH1 0x4 ADD DUP1 DUP3 DUP2 MSTORE PUSH1 0x20 ADD SWAP2 POP POP PUSH1 0x0 PUSH1 0x40 MLOAD DUP1 DUP4 SUB DUP2 PUSH1 0x0 DUP8 DUP1 EXTCODESIZE ISZERO DUP1 ISZERO PUSH2 0x488A JUMPI PUSH1 0x0 DUP1 REVERT JUMPDEST POP GAS CALL ISZERO DUP1 ISZERO PUSH2 0x489E JUMPI RETURNDATASIZE PUSH1 0x0 DUP1 RETURNDATACOPY RETURNDATASIZE PUSH1 0x0 REVERT JUMPDEST POP POP POP POP DUP3 PUSH1 0x1 PUSH1 0x1 PUSH1 0xA0 SHL SUB AND PUSH4 0xBE41205F DUP3 PUSH1 0x40 MLOAD DUP3 PUSH4 0xFFFFFFFF AND PUSH1 0xE0 SHL DUP2 MSTORE PUSH1 0x4 ADD DUP1 DUP3 DUP2 MSTORE PUSH1 0x20 ADD SWAP2 POP POP PUSH1 0x0 PUSH1 0x40 MLOAD DUP1 DUP4 SUB DUP2 PUSH1 0x0 DUP8 DUP1 EXTCODESIZE ISZERO DUP1 ISZERO PUSH2 0x349B JUMPI PUSH1 0x0 DUP1 REVERT JUMPDEST PUSH1 0x0 DUP2 DUP5 DUP5 GT ISZERO PUSH2 0x4977 JUMPI PUSH1 0x40 MLOAD PUSH3 0x461BCD PUSH1 0xE5 SHL DUP2 MSTORE PUSH1 0x4 ADD DUP1 DUP1 PUSH1 0x20 ADD DUP3 DUP2 SUB DUP3 MSTORE DUP4 DUP2 DUP2 MLOAD DUP2 MSTORE PUSH1 0x20 ADD SWAP2 POP DUP1 MLOAD SWAP1 PUSH1 0x20 ADD SWAP1 DUP1 DUP4 DUP4 PUSH1 0x0 JUMPDEST DUP4 DUP2 LT ISZERO PUSH2 0x493C JUMPI DUP2 DUP2 ADD MLOAD DUP4 DUP3 ADD MSTORE PUSH1 0x20 ADD PUSH2 0x4924 JUMP JUMPDEST POP POP POP POP SWAP1 POP SWAP1 DUP2 ADD SWAP1 PUSH1 0x1F AND DUP1 ISZERO PUSH2 0x4969 JUMPI DUP1 DUP3 SUB DUP1 MLOAD PUSH1 0x1 DUP4 PUSH1 0x20 SUB PUSH2 0x100 EXP SUB NOT AND DUP2 MSTORE PUSH1 0x20 ADD SWAP2 POP JUMPDEST POP SWAP3 POP POP POP PUSH1 0x40 MLOAD DUP1 SWAP2 SUB SWAP1 REVERT JUMPDEST POP POP POP SWAP1 SUB SWAP1 JUMP JUMPDEST PUSH1 0x0 DUP1 PUSH1 0x11 SLOAD PUSH1 0x0 EQ ISZERO PUSH2 0x4994 JUMPI POP DUP2 PUSH2 0xD2B JUMP JUMPDEST PUSH1 0x0 PUSH1 0x10 SLOAD GT PUSH2 0x49A0 JUMPI INVALID JUMPDEST PUSH2 0x2B89 PUSH1 0x11 SLOAD PUSH2 0x1364 PUSH1 0x10 SLOAD DUP7 PUSH2 0x3575 SWAP1 SWAP2 SWAP1 PUSH4 0xFFFFFFFF AND JUMP JUMPDEST PUSH2 0x49C3 PUSH2 0x5678 JUMP JUMPDEST PUSH2 0x49CB PUSH2 0x57B0 JUMP JUMPDEST PUSH1 0x15 SLOAD PUSH1 0x1 LT PUSH2 0x49DB JUMPI POP PUSH2 0x44CB JUMP JUMPDEST PUSH2 0x49E4 DUP8 PUSH2 0x2021 JUMP JUMPDEST PUSH1 0x40 DUP6 ADD MSTORE PUSH1 0x20 DUP5 DUP2 ADD SWAP2 SWAP1 SWAP2 MSTORE DUP5 ADD DUP2 SWAP1 MSTORE SWAP1 DUP4 MSTORE PUSH2 0x4A03 SWAP1 PUSH2 0x5507 JUMP JUMPDEST PUSH1 0x40 DUP4 ADD DUP2 SWAP1 MSTORE PUSH9 0x1158E460913D00000 PUSH1 0x60 DUP5 ADD MSTORE PUSH1 0x20 DUP4 ADD MLOAD PUSH2 0x4A2D SWAP2 PUSH4 0xFFFFFFFF PUSH2 0x2B47 AND JUMP JUMPDEST DUP2 MSTORE PUSH8 0xDE0B6B3A7640000 DUP7 GT PUSH2 0x4B35 JUMPI PUSH2 0x4A52 DUP10 DUP10 DUP4 PUSH1 0x20 ADD MLOAD DUP5 PUSH1 0x40 ADD MLOAD PUSH2 0x47E6 JUMP JUMPDEST PUSH2 0x4A5B DUP8 PUSH2 0x4796 JUMP JUMPDEST PUSH1 0x0 PUSH1 0x80 DUP4 ADD DUP2 SWAP1 MSTORE PUSH1 0xA0 DUP4 ADD MSTORE DUP2 MLOAD PUSH1 0xC0 DUP4 ADD MSTORE DUP1 MLOAD PUSH1 0xE0 DUP4 ADD MSTORE PUSH2 0x4A82 DUP8 PUSH1 0x3 PUSH2 0x45EE JUMP JUMPDEST DUP7 PUSH1 0x1 PUSH1 0x1 PUSH1 0xA0 SHL SUB AND PUSH1 0x0 DUP1 MLOAD PUSH1 0x20 PUSH2 0x57D2 DUP4 CODECOPY DUP2 MLOAD SWAP2 MSTORE DUP4 PUSH1 0x0 ADD MLOAD DUP5 PUSH1 0x20 ADD MLOAD PUSH1 0x2 PUSH1 0x40 MLOAD DUP1 DUP5 DUP2 MSTORE PUSH1 0x20 ADD DUP4 DUP2 MSTORE PUSH1 0x20 ADD DUP3 PUSH1 0x3 DUP2 GT ISZERO PUSH2 0x4AC3 JUMPI INVALID JUMPDEST PUSH1 0xFF AND DUP2 MSTORE PUSH1 0x20 ADD SWAP4 POP POP POP POP PUSH1 0x40 MLOAD DUP1 SWAP2 SUB SWAP1 LOG2 DUP7 PUSH1 0x1 PUSH1 0x1 PUSH1 0xA0 SHL SUB AND PUSH1 0x0 DUP1 MLOAD PUSH1 0x20 PUSH2 0x5934 DUP4 CODECOPY DUP2 MLOAD SWAP2 MSTORE PUSH1 0x0 DUP1 PUSH1 0x0 PUSH1 0x2 PUSH1 0x40 MLOAD DUP1 DUP6 DUP2 MSTORE PUSH1 0x20 ADD DUP5 DUP2 MSTORE PUSH1 0x20 ADD DUP4 DUP2 MSTORE PUSH1 0x20 ADD DUP3 PUSH1 0x3 DUP2 GT ISZERO PUSH2 0x4B1A JUMPI INVALID JUMPDEST PUSH1 0xFF AND DUP2 MSTORE PUSH1 0x20 ADD SWAP5 POP POP POP POP POP PUSH1 0x40 MLOAD DUP1 SWAP2 SUB SWAP1 LOG2 PUSH2 0x4CE2 JUMP JUMPDEST PUSH8 0xDE0B6B3A7640000 DUP7 GT DUP1 ISZERO PUSH2 0x4B53 JUMPI POP PUSH8 0xF43FC2C04EE0000 DUP7 LT JUMPDEST ISZERO PUSH2 0x4BA3 JUMPI PUSH2 0x4B6C DUP10 DUP10 DUP4 PUSH1 0x20 ADD MLOAD DUP5 PUSH1 0x40 ADD MLOAD PUSH2 0x47E6 JUMP JUMPDEST PUSH2 0x4B75 DUP8 PUSH2 0x4796 JUMP JUMPDEST DUP2 MLOAD DUP2 MLOAD PUSH2 0x4B84 SWAP2 SWAP1 DUP8 PUSH2 0x550E JUMP JUMPDEST PUSH1 0xE0 DUP7 ADD MSTORE PUSH1 0xC0 DUP6 ADD MSTORE PUSH1 0xA0 DUP5 ADD MSTORE PUSH1 0x80 DUP4 ADD MSTORE PUSH2 0x4A82 DUP8 PUSH1 0x3 PUSH2 0x45EE JUMP JUMPDEST PUSH8 0xF43FC2C04EE0000 DUP7 LT ISZERO DUP1 ISZERO PUSH2 0x4BBA JUMPI POP DUP4 DUP7 LT JUMPDEST DUP1 ISZERO PUSH2 0x4BC7 JUMPI POP DUP2 MLOAD DUP6 LT ISZERO JUMPDEST ISZERO PUSH2 0x4CD1 JUMPI PUSH2 0x4BE0 DUP10 DUP10 DUP4 PUSH1 0x20 ADD MLOAD DUP5 PUSH1 0x40 ADD MLOAD PUSH2 0x47E6 JUMP JUMPDEST DUP5 PUSH2 0x4BE7 JUMPI INVALID JUMPDEST PUSH2 0x4BF0 DUP8 PUSH2 0x4796 JUMP JUMPDEST PUSH2 0x4C03 DUP3 PUSH1 0x0 ADD MLOAD DUP4 PUSH1 0x20 ADD MLOAD DUP6 PUSH2 0x557A JUMP JUMPDEST SWAP2 POP PUSH2 0x4C10 DUP8 PUSH1 0x3 PUSH2 0x45EE JUMP JUMPDEST PUSH2 0x100 DUP3 ADD MLOAD ISZERO PUSH2 0x4C90 JUMPI PUSH1 0x7 SLOAD PUSH2 0x100 DUP4 ADD MLOAD PUSH1 0x40 DUP1 MLOAD PUSH4 0x3F10ABAB PUSH1 0xE0 SHL DUP2 MSTORE PUSH1 0x1 PUSH1 0x1 PUSH1 0xA0 SHL SUB DUP12 DUP2 AND PUSH1 0x4 DUP4 ADD MSTORE PUSH1 0x24 DUP3 ADD SWAP4 SWAP1 SWAP4 MSTORE SWAP1 MLOAD SWAP2 SWAP1 SWAP3 AND SWAP2 PUSH4 0x3F10ABAB SWAP2 PUSH1 0x44 DUP1 DUP4 ADD SWAP3 PUSH1 0x0 SWAP3 SWAP2 SWAP1 DUP3 SWAP1 SUB ADD DUP2 DUP4 DUP8 DUP1 EXTCODESIZE ISZERO DUP1 ISZERO PUSH2 0x4C77 JUMPI PUSH1 0x0 DUP1 REVERT JUMPDEST POP GAS CALL ISZERO DUP1 ISZERO PUSH2 0x4C8B JUMPI RETURNDATASIZE PUSH1 0x0 DUP1 RETURNDATACOPY RETURNDATASIZE PUSH1 0x0 REVERT JUMPDEST POP POP POP POP JUMPDEST DUP7 PUSH1 0x1 PUSH1 0x1 PUSH1 0xA0 SHL SUB AND PUSH1 0x0 DUP1 MLOAD PUSH1 0x20 PUSH2 0x57D2 DUP4 CODECOPY DUP2 MLOAD SWAP2 MSTORE DUP4 PUSH1 0x0 ADD MLOAD DUP5 PUSH1 0xA0 ADD MLOAD PUSH1 0x2 PUSH1 0x40 MLOAD DUP1 DUP5 DUP2 MSTORE PUSH1 0x20 ADD DUP4 DUP2 MSTORE PUSH1 0x20 ADD DUP3 PUSH1 0x3 DUP2 GT ISZERO PUSH2 0x4AC3 JUMPI INVALID JUMPDEST PUSH2 0x4CD9 PUSH2 0x5678 JUMP JUMPDEST SWAP2 POP PUSH2 0x44CB SWAP1 POP JUMP JUMPDEST POP SWAP8 SWAP7 POP POP POP POP POP POP POP JUMP JUMPDEST PUSH2 0x4CF6 PUSH2 0x5678 JUMP JUMPDEST PUSH1 0x40 DUP1 DUP4 ADD MLOAD SWAP1 DUP5 ADD MLOAD PUSH2 0x4D0F SWAP2 PUSH4 0xFFFFFFFF PUSH2 0x3BA1 AND JUMP JUMPDEST PUSH1 0x40 DUP3 ADD MSTORE PUSH1 0x60 DUP1 DUP4 ADD MLOAD SWAP1 DUP5 ADD MLOAD PUSH2 0x4D2D SWAP2 PUSH4 0xFFFFFFFF PUSH2 0x3BA1 AND JUMP JUMPDEST PUSH1 0x60 DUP3 ADD MSTORE DUP2 MLOAD PUSH1 0x20 DUP5 ADD MLOAD PUSH2 0x4D48 SWAP2 PUSH4 0xFFFFFFFF PUSH2 0x3BA1 AND JUMP JUMPDEST PUSH1 0x20 DUP1 DUP4 ADD SWAP2 SWAP1 SWAP2 MSTORE DUP3 ADD MLOAD DUP4 MLOAD PUSH2 0x4D65 SWAP2 PUSH4 0xFFFFFFFF PUSH2 0x3BA1 AND JUMP JUMPDEST DUP2 MSTORE PUSH1 0x80 DUP1 DUP4 ADD MLOAD SWAP1 DUP5 ADD MLOAD PUSH2 0x4D80 SWAP2 PUSH4 0xFFFFFFFF PUSH2 0x3BA1 AND JUMP JUMPDEST PUSH1 0x80 DUP3 ADD MSTORE PUSH1 0xA0 DUP1 DUP4 ADD MLOAD SWAP1 DUP5 ADD MLOAD PUSH2 0x4D9E SWAP2 PUSH4 0xFFFFFFFF PUSH2 0x3BA1 AND JUMP JUMPDEST PUSH1 0xA0 DUP3 ADD MSTORE PUSH1 0xC0 DUP1 DUP4 ADD MLOAD SWAP1 DUP5 ADD MLOAD PUSH2 0x4DBC SWAP2 PUSH4 0xFFFFFFFF PUSH2 0x3BA1 AND JUMP JUMPDEST PUSH1 0xC0 DUP3 ADD MSTORE PUSH1 0xE0 DUP1 DUP4 ADD MLOAD SWAP1 DUP5 ADD MLOAD PUSH2 0x4DDA SWAP2 PUSH4 0xFFFFFFFF PUSH2 0x3BA1 AND JUMP JUMPDEST PUSH1 0xE0 DUP3 ADD MSTORE PUSH2 0x100 DUP1 DUP4 ADD MLOAD SWAP1 DUP5 ADD MLOAD PUSH2 0x4DF9 SWAP2 PUSH4 0xFFFFFFFF PUSH2 0x3BA1 AND JUMP JUMPDEST PUSH2 0x100 DUP3 ADD MSTORE SWAP3 SWAP2 POP POP JUMP JUMPDEST PUSH1 0x0 DUP1 PUSH2 0x4E13 DUP6 DUP6 DUP6 PUSH2 0x4707 JUMP JUMPDEST PUSH8 0x14D1120D7B160000 GT SWAP6 SWAP5 POP POP POP POP POP JUMP JUMPDEST PUSH2 0x4E2E PUSH2 0x5678 JUMP JUMPDEST PUSH2 0x4E36 PUSH2 0x57B0 JUMP JUMPDEST PUSH2 0x4E3F DUP5 PUSH2 0x2021 JUMP JUMPDEST PUSH1 0x40 DUP6 ADD SWAP1 DUP2 MSTORE PUSH1 0x20 DUP6 DUP2 ADD SWAP3 DUP4 MSTORE DUP7 ADD SWAP3 SWAP1 SWAP3 MSTORE SWAP2 DUP5 MSTORE SWAP1 MLOAD SWAP1 MLOAD PUSH2 0x4E69 SWAP2 DUP9 SWAP2 DUP9 SWAP2 SWAP1 PUSH2 0x47E6 JUMP JUMPDEST PUSH2 0x4E72 DUP5 PUSH2 0x4796 JUMP JUMPDEST PUSH2 0x4E7F DUP3 PUSH1 0x20 ADD MLOAD PUSH2 0x5507 JUMP JUMPDEST PUSH1 0x40 DUP4 ADD DUP2 SWAP1 MSTORE PUSH9 0x1158E460913D00000 PUSH1 0x60 DUP5 ADD MSTORE PUSH1 0x20 DUP4 ADD MLOAD PUSH1 0x0 SWAP2 PUSH2 0x4EAD SWAP2 SWAP1 PUSH4 0xFFFFFFFF PUSH2 0x2B47 AND JUMP JUMPDEST SWAP1 POP PUSH2 0x4EBE DUP4 PUSH1 0x0 ADD MLOAD DUP3 DUP7 PUSH2 0x550E JUMP JUMPDEST PUSH1 0xE0 DUP8 ADD MSTORE PUSH1 0xC0 DUP7 ADD MSTORE PUSH1 0xA0 DUP6 ADD MSTORE PUSH1 0x80 DUP5 ADD MSTORE PUSH2 0x4EDD DUP6 PUSH1 0x3 PUSH2 0x45EE JUMP JUMPDEST DUP5 PUSH1 0x1 PUSH1 0x1 PUSH1 0xA0 SHL SUB AND PUSH1 0x0 DUP1 MLOAD PUSH1 0x20 PUSH2 0x57D2 DUP4 CODECOPY DUP2 MLOAD SWAP2 MSTORE DUP5 PUSH1 0x0 ADD MLOAD DUP6 PUSH1 0x20 ADD MLOAD PUSH1 0x1 PUSH1 0x40 MLOAD DUP1 DUP5 DUP2 MSTORE PUSH1 0x20 ADD DUP4 DUP2 MSTORE PUSH1 0x20 ADD DUP3 PUSH1 0x3 DUP2 GT ISZERO PUSH2 0x4F1E JUMPI INVALID JUMPDEST PUSH1 0xFF AND DUP2 MSTORE PUSH1 0x20 ADD SWAP4 POP POP POP POP PUSH1 0x40 MLOAD DUP1 SWAP2 SUB SWAP1 LOG2 DUP5 PUSH1 0x1 PUSH1 0x1 PUSH1 0xA0 SHL SUB AND PUSH1 0x0 DUP1 MLOAD PUSH1 0x20 PUSH2 0x5934 DUP4 CODECOPY DUP2 MLOAD SWAP2 MSTORE PUSH1 0x0 DUP1 PUSH1 0x0 PUSH1 0x1 PUSH1 0x40 MLOAD DUP1 DUP6 DUP2 MSTORE PUSH1 0x20 ADD DUP5 DUP2 MSTORE PUSH1 0x20 ADD DUP4 DUP2 MSTORE PUSH1 0x20 ADD DUP3 PUSH1 0x3 DUP2 GT ISZERO PUSH2 0x4F75 JUMPI INVALID JUMPDEST PUSH1 0xFF AND DUP2 MSTORE PUSH1 0x20 ADD SWAP5 POP POP POP POP POP PUSH1 0x40 MLOAD DUP1 SWAP2 SUB SWAP1 LOG2 POP POP SWAP5 SWAP4 POP POP POP POP JUMP JUMPDEST PUSH1 0x0 DUP2 DUP4 LT PUSH2 0x4FA4 JUMPI DUP2 PUSH2 0x2B89 JUMP JUMPDEST POP SWAP1 SWAP2 SWAP1 POP JUMP JUMPDEST PUSH1 0x0 DUP2 DUP4 PUSH2 0x4FFA JUMPI PUSH1 0x40 MLOAD PUSH3 0x461BCD PUSH1 0xE5 SHL DUP2 MSTORE PUSH1 0x20 PUSH1 0x4 DUP3 ADD DUP2 DUP2 MSTORE DUP4 MLOAD PUSH1 0x24 DUP5 ADD MSTORE DUP4 MLOAD SWAP1 SWAP3 DUP4 SWAP3 PUSH1 0x44 SWAP1 SWAP2 ADD SWAP2 SWAP1 DUP6 ADD SWAP1 DUP1 DUP4 DUP4 PUSH1 0x0 DUP4 ISZERO PUSH2 0x493C JUMPI DUP2 DUP2 ADD MLOAD DUP4 DUP3 ADD MSTORE PUSH1 0x20 ADD PUSH2 0x4924 JUMP JUMPDEST POP PUSH1 0x0 DUP4 DUP6 DUP2 PUSH2 0x5006 JUMPI INVALID JUMPDEST DIV SWAP6 SWAP5 POP POP POP POP POP JUMP JUMPDEST PUSH1 0x0 PUSH2 0x118E PUSH1 0x3C PUSH2 0x1364 PUSH1 0xD SLOAD TIMESTAMP PUSH2 0x2B47 SWAP1 SWAP2 SWAP1 PUSH4 0xFFFFFFFF AND JUMP JUMPDEST PUSH1 0x0 PUSH4 0x1F540500 DUP3 GT ISZERO PUSH2 0x5042 JUMPI PUSH4 0x1F540500 SWAP2 POP JUMPDEST DUP2 PUSH2 0x5056 JUMPI POP PUSH8 0xDE0B6B3A7640000 PUSH2 0xD2B JUMP JUMPDEST PUSH8 0xDE0B6B3A7640000 DUP4 DUP4 JUMPDEST PUSH1 0x1 DUP2 GT ISZERO PUSH2 0x50CD JUMPI PUSH1 0x2 DUP2 MOD PUSH2 0x5097 JUMPI PUSH2 0x507D DUP3 DUP4 PUSH2 0x5614 JUMP JUMPDEST SWAP2 POP PUSH2 0x5090 DUP2 PUSH1 0x2 PUSH4 0xFFFFFFFF PUSH2 0x35CE AND JUMP JUMPDEST SWAP1 POP PUSH2 0x50C8 JUMP JUMPDEST PUSH2 0x50A1 DUP3 DUP5 PUSH2 0x5614 JUMP JUMPDEST SWAP3 POP PUSH2 0x50AD DUP3 DUP4 PUSH2 0x5614 JUMP JUMPDEST SWAP2 POP PUSH2 0x50C5 PUSH1 0x2 PUSH2 0x1364 DUP4 PUSH1 0x1 PUSH4 0xFFFFFFFF PUSH2 0x2B47 AND JUMP JUMPDEST SWAP1 POP JUMPDEST PUSH2 0x5062 JUMP JUMPDEST PUSH2 0x1370 DUP3 DUP5 PUSH2 0x5614 JUMP JUMPDEST PUSH1 0x40 DUP1 DUP6 ADD MLOAD PUSH1 0x6 SLOAD DUP3 MLOAD PUSH4 0x2770A7EB PUSH1 0xE2 SHL DUP2 MSTORE PUSH1 0x1 PUSH1 0x1 PUSH1 0xA0 SHL SUB SWAP2 DUP3 AND PUSH1 0x4 DUP3 ADD MSTORE PUSH1 0x24 DUP2 ADD DUP7 SWAP1 MSTORE SWAP3 MLOAD SWAP2 AND SWAP2 PUSH4 0x9DC29FAC SWAP2 PUSH1 0x44 DUP1 DUP4 ADD SWAP3 PUSH1 0x0 SWAP3 SWAP2 SWAP1 DUP3 SWAP1 SUB ADD DUP2 DUP4 DUP8 DUP1 EXTCODESIZE ISZERO DUP1 ISZERO PUSH2 0x512E JUMPI PUSH1 0x0 DUP1 REVERT JUMPDEST POP GAS CALL ISZERO DUP1 ISZERO PUSH2 0x5142 JUMPI RETURNDATASIZE PUSH1 0x0 DUP1 RETURNDATACOPY RETURNDATASIZE PUSH1 0x0 REVERT JUMPDEST POP POP POP POP DUP4 PUSH1 0x0 ADD MLOAD PUSH1 0x1 PUSH1 0x1 PUSH1 0xA0 SHL SUB AND PUSH4 0x38D995A8 DUP4 PUSH1 0x40 MLOAD DUP3 PUSH4 0xFFFFFFFF AND PUSH1 0xE0 SHL DUP2 MSTORE PUSH1 0x4 ADD DUP1 DUP3 DUP2 MSTORE PUSH1 0x20 ADD SWAP2 POP POP PUSH1 0x0 PUSH1 0x40 MLOAD DUP1 DUP4 SUB DUP2 PUSH1 0x0 DUP8 DUP1 EXTCODESIZE ISZERO DUP1 ISZERO PUSH2 0x5190 JUMPI PUSH1 0x0 DUP1 REVERT JUMPDEST POP GAS CALL ISZERO DUP1 ISZERO PUSH2 0x51A4 JUMPI RETURNDATASIZE PUSH1 0x0 DUP1 RETURNDATACOPY RETURNDATASIZE PUSH1 0x0 REVERT JUMPDEST POP POP POP POP DUP4 PUSH1 0xA0 ADD MLOAD PUSH1 0x1 PUSH1 0x1 PUSH1 0xA0 SHL SUB AND PUSH4 0x3F10ABAB DUP5 DUP4 PUSH1 0x40 MLOAD DUP4 PUSH4 0xFFFFFFFF AND PUSH1 0xE0 SHL DUP2 MSTORE PUSH1 0x4 ADD DUP1 DUP4 PUSH1 0x1 PUSH1 0x1 PUSH1 0xA0 SHL SUB AND PUSH1 0x1 PUSH1 0x1 PUSH1 0xA0 SHL SUB AND DUP2 MSTORE PUSH1 0x20 ADD DUP3 DUP2 MSTORE PUSH1 0x20 ADD SWAP3 POP POP POP PUSH1 0x0 PUSH1 0x40 MLOAD DUP1 DUP4 SUB DUP2 PUSH1 0x0 DUP8 DUP1 EXTCODESIZE ISZERO DUP1 ISZERO PUSH2 0x520C JUMPI PUSH1 0x0 DUP1 REVERT JUMPDEST POP GAS CALL ISZERO DUP1 ISZERO PUSH2 0x5220 JUMPI RETURNDATASIZE PUSH1 0x0 DUP1 RETURNDATACOPY RETURNDATASIZE PUSH1 0x0 REVERT JUMPDEST POP POP POP POP DUP4 PUSH1 0x0 ADD MLOAD PUSH1 0x1 PUSH1 0x1 PUSH1 0xA0 SHL SUB AND PUSH4 0x64A197F3 DUP6 PUSH1 0xA0 ADD MLOAD DUP4 PUSH1 0x40 MLOAD DUP4 PUSH4 0xFFFFFFFF AND PUSH1 0xE0 SHL DUP2 MSTORE PUSH1 0x4 ADD DUP1 DUP4 PUSH1 0x1 PUSH1 0x1 PUSH1 0xA0 SHL SUB AND PUSH1 0x1 PUSH1 0x1 PUSH1 0xA0 SHL SUB AND DUP2 MSTORE PUSH1 0x20 ADD DUP3 DUP2 MSTORE PUSH1 0x20 ADD SWAP3 POP POP POP PUSH1 0x0 PUSH1 0x40 MLOAD DUP1 DUP4 SUB DUP2 PUSH1 0x0 DUP8 DUP1 EXTCODESIZE ISZERO DUP1 ISZERO PUSH2 0x349B JUMPI PUSH1 0x0 DUP1 REVERT JUMPDEST PUSH1 0x0 PUSH2 0xD2B DUP3 PUSH9 0x1158E460913D00000 PUSH4 0xFFFFFFFF PUSH2 0x2B47 AND JUMP JUMPDEST PUSH1 0x1 DUP2 GT DUP1 ISZERO PUSH2 0x5325 JUMPI POP PUSH1 0xB SLOAD PUSH1 0x40 DUP1 MLOAD PUSH4 0xDE8FA431 PUSH1 0xE0 SHL DUP2 MSTORE SWAP1 MLOAD PUSH1 0x1 SWAP3 PUSH1 0x1 PUSH1 0x1 PUSH1 0xA0 SHL SUB AND SWAP2 PUSH4 0xDE8FA431 SWAP2 PUSH1 0x4 DUP1 DUP4 ADD SWAP3 PUSH1 0x20 SWAP3 SWAP2 SWAP1 DUP3 SWAP1 SUB ADD DUP2 DUP7 DUP1 EXTCODESIZE ISZERO DUP1 ISZERO PUSH2 0x52F7 JUMPI PUSH1 0x0 DUP1 REVERT JUMPDEST POP GAS STATICCALL ISZERO DUP1 ISZERO PUSH2 0x530B JUMPI RETURNDATASIZE PUSH1 0x0 DUP1 RETURNDATACOPY RETURNDATASIZE PUSH1 0x0 REVERT JUMPDEST POP POP POP POP PUSH1 0x40 MLOAD RETURNDATASIZE PUSH1 0x20 DUP2 LT ISZERO PUSH2 0x5321 JUMPI PUSH1 0x0 DUP1 REVERT JUMPDEST POP MLOAD GT JUMPDEST PUSH2 0xCD6 JUMPI PUSH1 0x40 MLOAD PUSH3 0x461BCD PUSH1 0xE5 SHL DUP2 MSTORE PUSH1 0x4 ADD DUP1 DUP1 PUSH1 0x20 ADD DUP3 DUP2 SUB DUP3 MSTORE PUSH1 0x2A DUP2 MSTORE PUSH1 0x20 ADD DUP1 PUSH2 0x583B PUSH1 0x2A SWAP2 CODECOPY PUSH1 0x40 ADD SWAP2 POP POP PUSH1 0x40 MLOAD DUP1 SWAP2 SUB SWAP1 REVERT JUMPDEST PUSH1 0x1 PUSH1 0x1 PUSH1 0xA0 SHL SUB DUP3 AND PUSH1 0x0 SWAP1 DUP2 MSTORE PUSH1 0xE PUSH1 0x20 MSTORE PUSH1 0x40 DUP2 KECCAK256 PUSH1 0x3 ADD SLOAD PUSH1 0xFF AND SWAP1 DUP2 PUSH1 0x4 DUP2 GT ISZERO PUSH2 0x538C JUMPI INVALID JUMPDEST EQ ISZERO DUP1 ISZERO PUSH2 0x53A6 JUMPI POP PUSH1 0x1 DUP2 PUSH1 0x4 DUP2 GT ISZERO PUSH2 0x53A3 JUMPI INVALID JUMPDEST EQ ISZERO JUMPDEST PUSH2 0x53AC JUMPI INVALID JUMPDEST PUSH1 0x1 PUSH1 0x1 PUSH1 0xA0 SHL SUB DUP4 AND PUSH1 0x0 SWAP1 DUP2 MSTORE PUSH1 0xE PUSH1 0x20 MSTORE PUSH1 0x40 DUP2 KECCAK256 PUSH1 0x3 ADD SLOAD PUSH2 0x100 SWAP1 DIV PUSH1 0x1 PUSH1 0x1 PUSH1 0x80 SHL SUB AND SWAP1 DUP4 SWAP1 PUSH2 0x53E4 DUP3 PUSH1 0x1 PUSH2 0x2B47 JUMP JUMPDEST SWAP1 POP DUP1 DUP4 PUSH1 0x1 PUSH1 0x1 PUSH1 0x80 SHL SUB AND GT ISZERO PUSH2 0x53F9 JUMPI INVALID JUMPDEST PUSH1 0x0 PUSH1 0x15 DUP3 DUP2 SLOAD DUP2 LT PUSH2 0x5408 JUMPI INVALID JUMPDEST PUSH1 0x0 SWAP2 DUP3 MSTORE PUSH1 0x20 SWAP1 SWAP2 KECCAK256 ADD SLOAD PUSH1 0x15 DUP1 SLOAD PUSH1 0x1 PUSH1 0x1 PUSH1 0xA0 SHL SUB SWAP1 SWAP3 AND SWAP3 POP DUP3 SWAP2 PUSH1 0x1 PUSH1 0x1 PUSH1 0x80 SHL SUB DUP8 AND SWAP1 DUP2 LT PUSH2 0x543A JUMPI INVALID JUMPDEST PUSH1 0x0 SWAP2 DUP3 MSTORE PUSH1 0x20 DUP1 DUP4 KECCAK256 SWAP2 SWAP1 SWAP2 ADD DUP1 SLOAD PUSH1 0x1 PUSH1 0x1 PUSH1 0xA0 SHL SUB NOT AND PUSH1 0x1 PUSH1 0x1 PUSH1 0xA0 SHL SUB SWAP5 DUP6 AND OR SWAP1 SSTORE SWAP2 DUP4 AND DUP1 DUP3 MSTORE PUSH1 0xE DUP4 MSTORE PUSH1 0x40 SWAP2 DUP3 SWAP1 KECCAK256 PUSH1 0x3 ADD DUP1 SLOAD PUSH2 0x100 PUSH1 0x1 PUSH1 0x88 SHL SUB NOT AND PUSH2 0x100 PUSH1 0x1 PUSH1 0x1 PUSH1 0x80 SHL SUB DUP11 AND SWAP1 DUP2 MUL SWAP2 SWAP1 SWAP2 OR SWAP1 SWAP2 SSTORE DUP3 MLOAD SWAP2 DUP3 MSTORE SWAP3 DUP2 ADD SWAP3 SWAP1 SWAP3 MSTORE DUP1 MLOAD PUSH32 0x2B04AE5F7BE9CA7C103293A2AA15F3C339D15D6EDA53B721FEF7B0E609C831A SWAP3 DUP2 SWAP1 SUB SWAP1 SWAP2 ADD SWAP1 LOG1 PUSH1 0x15 DUP1 SLOAD DUP1 PUSH2 0x54DC JUMPI INVALID JUMPDEST PUSH1 0x0 DUP3 DUP2 MSTORE PUSH1 0x20 SWAP1 KECCAK256 DUP2 ADD PUSH1 0x0 NOT SWAP1 DUP2 ADD DUP1 SLOAD PUSH1 0x1 PUSH1 0x1 PUSH1 0xA0 SHL SUB NOT AND SWAP1 SSTORE ADD SWAP1 SSTORE POP POP POP POP POP POP POP JUMP JUMPDEST PUSH1 0xC8 SWAP1 DIV SWAP1 JUMP JUMPDEST PUSH1 0x0 DUP1 DUP1 DUP1 DUP5 ISZERO PUSH2 0x5564 JUMPI PUSH2 0x5523 DUP8 DUP7 PUSH2 0x4F95 JUMP JUMPDEST SWAP4 POP PUSH2 0x5539 DUP8 PUSH2 0x1364 DUP9 DUP8 PUSH4 0xFFFFFFFF PUSH2 0x3575 AND JUMP JUMPDEST SWAP3 POP PUSH2 0x554B DUP8 DUP6 PUSH4 0xFFFFFFFF PUSH2 0x2B47 AND JUMP JUMPDEST SWAP2 POP PUSH2 0x555D DUP7 DUP5 PUSH4 0xFFFFFFFF PUSH2 0x2B47 AND JUMP JUMPDEST SWAP1 POP PUSH2 0x5571 JUMP JUMPDEST POP PUSH1 0x0 SWAP3 POP DUP3 SWAP2 POP DUP6 SWAP1 POP DUP5 JUMPDEST SWAP4 POP SWAP4 POP SWAP4 POP SWAP4 JUMP JUMPDEST PUSH2 0x5582 PUSH2 0x5678 JUMP JUMPDEST DUP4 DUP2 MSTORE PUSH1 0x20 DUP2 ADD DUP4 SWAP1 MSTORE PUSH1 0x0 PUSH2 0x55AA DUP4 PUSH2 0x1364 DUP8 PUSH8 0xF43FC2C04EE0000 PUSH4 0xFFFFFFFF PUSH2 0x3575 AND JUMP JUMPDEST SWAP1 POP PUSH2 0x55B5 DUP2 PUSH2 0x5507 JUMP JUMPDEST PUSH1 0x40 DUP4 ADD DUP2 SWAP1 MSTORE PUSH9 0x1158E460913D00000 PUSH1 0x60 DUP5 ADD MSTORE PUSH1 0x80 DUP4 ADD DUP7 SWAP1 MSTORE PUSH2 0x55E3 SWAP1 DUP3 SWAP1 PUSH4 0xFFFFFFFF PUSH2 0x2B47 AND JUMP JUMPDEST PUSH1 0xA0 DUP4 ADD MSTORE PUSH2 0x55F8 DUP5 DUP3 PUSH4 0xFFFFFFFF PUSH2 0x2B47 AND JUMP JUMPDEST PUSH2 0x100 DUP4 ADD MSTORE POP PUSH1 0x0 PUSH1 0xC0 DUP3 ADD DUP2 SWAP1 MSTORE PUSH1 0xE0 DUP3 ADD MSTORE SWAP4 SWAP3 POP POP POP JUMP JUMPDEST PUSH1 0x0 DUP1 PUSH2 0x5627 DUP5 DUP5 PUSH4 0xFFFFFFFF PUSH2 0x3575 AND JUMP JUMPDEST SWAP1 POP PUSH2 0x3E3C PUSH8 0xDE0B6B3A7640000 PUSH2 0x1364 DUP4 PUSH8 0x6F05B59D3B20000 PUSH2 0x3BA1 JUMP JUMPDEST PUSH1 0x40 MLOAD DUP1 PUSH1 0xA0 ADD PUSH1 0x40 MSTORE DUP1 PUSH1 0x0 DUP2 MSTORE PUSH1 0x20 ADD PUSH1 0x0 DUP2 MSTORE PUSH1 0x20 ADD PUSH1 0x0 ISZERO ISZERO DUP2 MSTORE PUSH1 0x20 ADD PUSH1 0x0 DUP2 MSTORE PUSH1 0x20 ADD PUSH1 0x0 DUP2 MSTORE POP SWAP1 JUMP JUMPDEST PUSH1 0x40 MLOAD DUP1 PUSH2 0x120 ADD PUSH1 0x40 MSTORE DUP1 PUSH1 0x0 DUP2 MSTORE PUSH1 0x20 ADD PUSH1 0x0 DUP2 MSTORE PUSH1 0x20 ADD PUSH1 0x0 DUP2 MSTORE PUSH1 0x20 ADD PUSH1 0x0 DUP2 MSTORE PUSH1 0x20 ADD PUSH1 0x0 DUP2 MSTORE PUSH1 0x20 ADD PUSH1 0x0 DUP2 MSTORE PUSH1 0x20 ADD PUSH1 0x0 DUP2 MSTORE PUSH1 0x20 ADD PUSH1 0x0 DUP2 MSTORE PUSH1 0x20 ADD PUSH1 0x0 DUP2 MSTORE POP SWAP1 JUMP JUMPDEST PUSH1 0x40 DUP1 MLOAD PUSH1 0xE0 DUP2 ADD DUP3 MSTORE PUSH1 0x0 DUP1 DUP3 MSTORE PUSH1 0x20 DUP3 ADD DUP2 SWAP1 MSTORE SWAP2 DUP2 ADD DUP3 SWAP1 MSTORE PUSH1 0x60 DUP2 ADD DUP3 SWAP1 MSTORE PUSH1 0x80 DUP2 ADD DUP3 SWAP1 MSTORE PUSH1 0xA0 DUP2 ADD DUP3 SWAP1 MSTORE PUSH1 0xC0 DUP2 ADD SWAP2 SWAP1 SWAP2 MSTORE SWAP1 JUMP JUMPDEST PUSH1 0x40 MLOAD DUP1 PUSH2 0x100 ADD PUSH1 0x40 MSTORE DUP1 PUSH1 0x0 DUP2 MSTORE PUSH1 0x20 ADD PUSH1 0x0 DUP2 MSTORE PUSH1 0x20 ADD PUSH1 0x0 DUP2 MSTORE PUSH1 0x20 ADD PUSH1 0x0 DUP2 MSTORE PUSH1 0x20 ADD PUSH1 0x0 DUP2 MSTORE PUSH1 0x20 ADD PUSH1 0x0 DUP2 MSTORE PUSH1 0x20 ADD PUSH1 0x0 DUP2 MSTORE PUSH1 0x20 ADD PUSH1 0x0 DUP2 MSTORE POP SWAP1 JUMP JUMPDEST PUSH1 0x40 MLOAD DUP1 PUSH1 0x60 ADD PUSH1 0x40 MSTORE DUP1 PUSH1 0x0 DUP2 MSTORE PUSH1 0x20 ADD PUSH1 0x0 DUP2 MSTORE PUSH1 0x20 ADD PUSH1 0x0 ISZERO ISZERO DUP2 MSTORE POP SWAP1 JUMP JUMPDEST PUSH1 0x40 MLOAD DUP1 PUSH1 0xE0 ADD PUSH1 0x40 MSTORE DUP1 PUSH1 0x0 DUP2 MSTORE PUSH1 0x20 ADD PUSH1 0x0 DUP2 MSTORE PUSH1 0x20 ADD PUSH1 0x0 DUP2 MSTORE PUSH1 0x20 ADD PUSH1 0x0 PUSH1 0x1 PUSH1 0x1 PUSH1 0xA0 SHL SUB AND DUP2 MSTORE PUSH1 0x20 ADD PUSH1 0x0 ISZERO ISZERO DUP2 MSTORE PUSH1 0x20 ADD PUSH1 0x0 DUP2 MSTORE PUSH1 0x20 ADD PUSH1 0x0 DUP2 MSTORE POP SWAP1 JUMP JUMPDEST PUSH1 0x40 MLOAD DUP1 PUSH1 0x60 ADD PUSH1 0x40 MSTORE DUP1 PUSH1 0x0 DUP2 MSTORE PUSH1 0x20 ADD PUSH1 0x0 DUP2 MSTORE PUSH1 0x20 ADD PUSH1 0x0 DUP2 MSTORE POP SWAP1 JUMP INVALID 0xEA PUSH8 0x486ED7EBE3EEA8AB CALLER SWAP1 0xEF 0xD4 LOG3 0xC8 0xAA 0xE4 DUP12 0xE5 0xBE LOG2 PUSH30 0xF104A8AF786C40843454726F76654D616E616765723A20556E61626C6520 PUSH21 0x6F2072656465656D20616E7920616D6F756E744152 0xC7 RETURNDATASIZE 0xD2 PUSH2 0x4C4F SWAP16 0xC3 0x5E DUP13 SWAP13 CALL PUSH1 0x13 0xCD PC DUP13 PUSH22 0xB49A4C1673ECFFDCBCDA940354726F76654D616E6167 PUSH6 0x723A204F6E6C PUSH26 0x206F6E652074726F766520696E207468652073797374656D5472 PUSH16 0x76654D616E616765723A20526564656D PUSH17 0x74696F6E7320617265206E6F7420616C6C PUSH16 0x77656420647572696E6720626F6F7473 PUSH21 0x726170207068617365536166654D6174683A206D75 PUSH13 0x7469706C69636174696F6E206F PUSH23 0x6572666C6F774F776E61626C653A2063616C6C65722069 PUSH20 0x206E6F7420746865206F776E657254726F76654D PUSH2 0x6E61 PUSH8 0x65723A2052657175 PUSH6 0x737465642072 PUSH6 0x64656D707469 PUSH16 0x6E20616D6F756E74206D757374206265 KECCAK256 EXTCODECOPY RETURNDATASIZE KECCAK256 PUSH22 0x7365722773204C55534420746F6B656E2062616C616E PUSH4 0x65C3770D PUSH6 0x4ED33AEEA6BF GT 0xAC DUP15 CREATE 0x5D MUL 0xA6 LOG0 0x4E 0xD4 PUSH9 0x6DD2F624D853BBEC43 0xCC DUP12 SLOAD PUSH19 0x6F76654D616E616765723A2043616C6C657220 PUSH10 0x73206E6F742074686520 TIMESTAMP PUSH16 0x72726F7765724F7065726174696F6E73 KECCAK256 PUSH4 0x6F6E7472 PUSH2 0x6374 SLOAD PUSH19 0x6F76654D616E616765723A2043616C6C646174 PUSH2 0x2061 PUSH5 0x6472657373 KECCAK256 PUSH2 0x7272 PUSH2 0x7920 PUSH14 0x757374206E6F7420626520656D70 PUSH21 0x7954726F76654D616E616765723A20416D6F756E74 KECCAK256 PUSH14 0x7573742062652067726561746572 KECCAK256 PUSH21 0x68616E207A65726F54726F76654D616E616765723A KECCAK256 CHAINID PUSH6 0x6520776F756C PUSH5 0x2065617420 PUSH22 0x7020616C6C2072657475726E656420636F6C6C617465 PUSH19 0x616C4D6178206665652070657263656E746167 PUSH6 0x206D75737420 PUSH3 0x652062 PUSH6 0x747765656E20 ADDRESS 0x2E CALLDATALOAD 0x25 KECCAK256 PUSH2 0x6E64 KECCAK256 BALANCE ADDRESS ADDRESS 0x25 0xC4 SLOAD 0xEE SWAP12 PUSH23 0xC52F782A256AF821B857CA6E125D1E3333BCEDE402FEC2 0xBE 0xD9 PUSH1 0xC SLOAD PUSH19 0x6F76654D616E616765723A2043616E6E6F7420 PUSH19 0x656465656D207768656E20544352203C204D43 MSTORE SLOAD PUSH19 0x6F76654D616E616765723A206E6F7468696E67 KECCAK256 PUSH21 0x6F206C697175696461746554726F76654D616E6167 PUSH6 0x723A2054726F PUSH23 0x6520646F6573206E6F74206578697374206F7220697320 PUSH4 0x6C6F7365 PUSH5 0xA264697066 PUSH20 0x5822122073FF93655059D8153A9F30B0DB17DA1B DUP13 PUSH26 0xBC40EF42B477C1503A3CAE9081CB64736F6C634300060B003300 "
		},
		"gasEstimates": {
			"creation": {
				"codeDepositCost": "4667400",
				"executionCost": "27839",
				"totalCost": "4695239"
			},
			"external": {
				"BETA()": "220",
				"BOOTSTRAP_PERIOD()": "1606",
				"BORROWING_FEE_FLOOR()": "1964",
				"CCR()": "704",
				"DECIMAL_PRECISION()": "1364",
				"LUSD_GAS_COMPENSATION()": "528",
				"L_ETH()": "2142",
				"L_LUSDDebt()": "2626",
				"MAX_BORROWING_FEE()": "479",
				"MCR()": "1056",
				"MINUTE_DECAY_FACTOR()": "1650",
				"MIN_NET_DEBT()": "352",
				"NAME()": "infinite",
				"PERCENT_DIVISOR()": "638",
				"REDEMPTION_FEE_FLOOR()": "512",
				"SECONDS_IN_ONE_MINUTE()": "792",
				"TroveOwners(uint256)": "2806",
				"Troves(address)": "4455",
				"_100pct()": "990",
				"activePool()": "1983",
				"addTroveOwnerToArray(address)": "infinite",
				"admin()": "2753",
				"applyPendingRewards(address)": "infinite",
				"baseRate()": "1196",
				"batchLiquidateTroves(address[])": "infinite",
				"borrowerOperationsAddress()": "2313",
				"checkRecoveryMode(uint256)": "infinite",
				"closeTrove(address)": "infinite",
				"decayBaseRateFromBorrowing()": "infinite",
				"decreaseTroveColl(address,uint256)": "infinite",
				"decreaseTroveDebt(address,uint256)": "infinite",
				"defaultPool()": "1411",
				"getBorrowingFee(uint256)": "infinite",
				"getBorrowingFeeWithDecay(uint256)": "infinite",
				"getBorrowingRate()": "infinite",
				"getBorrowingRateWithDecay()": "infinite",
				"getCurrentICR(address,uint256)": "infinite",
				"getEntireDebtAndColl(address)": "infinite",
				"getEntireSystemColl()": "infinite",
				"getEntireSystemDebt()": "infinite",
				"getNominalICR(address)": "infinite",
				"getPendingETHReward(address)": "infinite",
				"getPendingLUSDDebtReward(address)": "infinite",
				"getRedemptionFeeWithDecay(uint256)": "infinite",
				"getRedemptionRate()": "infinite",
				"getRedemptionRateWithDecay()": "infinite",
				"getTCR(uint256)": "infinite",
				"getTroveColl(address)": "1566",
				"getTroveDebt(address)": "2726",
				"getTroveFromTroveOwnersArray(uint256)": "3581",
				"getTroveOwnersCount()": "1460",
				"getTroveStake(address)": "1786",
				"getTroveStatus(address)": "1432",
				"hasPendingRewards(address)": "4565",
				"increaseTroveColl(address,uint256)": "infinite",
				"increaseTroveDebt(address,uint256)": "infinite",
				"isOwner()": "2105",
				"lastETHError_Redistribution()": "1900",
				"lastFeeOperationTime()": "2516",
				"lastLUSDDebtError_Redistribution()": "998",
				"liquidate(address)": "infinite",
				"liquidateTroves(uint256)": "infinite",
				"lqtyStaking()": "2225",
				"lqtyToken()": "1257",
				"lusdToken()": "2357",
				"owner()": "2093",
				"priceFeed()": "1851",
				"redeemCollateral(uint256,address,address,address,uint256,uint256,uint256)": "infinite",
				"removeStake(address)": "infinite",
				"renounceAdmin()": "22848",
				"rewardSnapshots(address)": "2073",
				"setAddresses(address,address,address,address,address,address,address,address,address,address,address)": "infinite",
				"setAdmin(address)": "infinite",
				"setPriceFeed(address)": "22683",
				"setTroveStatus(address,uint256)": "infinite",
				"sortedTroves()": "2269",
				"stabilityPool()": "1015",
				"totalCollateralSnapshot()": "2098",
				"totalStakes()": "2384",
				"totalStakesSnapshot()": "1966",
				"updateStakeAndTotalStakes(address)": "infinite",
				"updateTroveRewardSnapshots(address)": "infinite"
			},
			"internal": {
				"_addLiquidationValuesToTotals(struct TroveManager.LiquidationTotals memory,struct TroveManager.LiquidationValues memory)": "infinite",
				"_addTroveOwnerToArray(address)": "infinite",
				"_applyPendingRewards(contract IActivePool,contract IDefaultPool,address)": "infinite",
				"_calcBorrowingFee(uint256,uint256)": "infinite",
				"_calcBorrowingRate(uint256)": "infinite",
				"_calcDecayedBaseRate()": "infinite",
				"_calcRedemptionFee(uint256,uint256)": "infinite",
				"_calcRedemptionRate(uint256)": "infinite",
				"_checkPotentialRecoveryMode(uint256,uint256,uint256)": "infinite",
				"_closeTrove(address,enum TroveManager.Status)": "infinite",
				"_computeNewStake(uint256)": "infinite",
				"_getCappedOffsetVals(uint256,uint256,uint256)": "infinite",
				"_getCurrentTroveAmounts(address)": "infinite",
				"_getOffsetAndRedistributionVals(uint256,uint256,uint256)": "infinite",
				"_getRedemptionFee(uint256)": "infinite",
				"_getTotalFromBatchLiquidate_RecoveryMode(contract IActivePool,contract IDefaultPool,uint256,uint256,address[] memory)": "infinite",
				"_getTotalsFromBatchLiquidate_NormalMode(contract IActivePool,contract IDefaultPool,uint256,uint256,address[] memory)": "infinite",
				"_getTotalsFromLiquidateTrovesSequence_NormalMode(contract IActivePool,contract IDefaultPool,uint256,uint256,uint256)": "infinite",
				"_getTotalsFromLiquidateTrovesSequence_RecoveryMode(struct TroveManager.ContractsCache memory,uint256,uint256,uint256)": "infinite",
				"_isValidFirstRedemptionHint(contract ISortedTroves,address,uint256)": "infinite",
				"_liquidateNormalMode(contract IActivePool,contract IDefaultPool,address,uint256)": "infinite",
				"_liquidateRecoveryMode(contract IActivePool,contract IDefaultPool,address,uint256,uint256,uint256,uint256)": "infinite",
				"_minutesPassedSinceLastFeeOp()": "infinite",
				"_movePendingTroveRewardsToActivePool(contract IActivePool,contract IDefaultPool,uint256,uint256)": "infinite",
				"_redeemCloseTrove(struct TroveManager.ContractsCache memory,address,uint256,uint256)": "infinite",
				"_redeemCollateralFromTrove(struct TroveManager.ContractsCache memory,address,uint256,uint256,address,address,uint256)": "infinite",
				"_redistributeDebtAndColl(contract IActivePool,contract IDefaultPool,uint256,uint256)": "infinite",
				"_removeStake(address)": "infinite",
				"_removeTroveOwner(address,uint256)": "infinite",
				"_requireAfterBootstrapPeriod()": "infinite",
				"_requireAmountGreaterThanZero(uint256)": "infinite",
				"_requireCallerIsBorrowerOperations()": "infinite",
				"_requireLUSDBalanceCoversRedemption(contract ILUSDToken,address,uint256)": "infinite",
				"_requireMoreThanOneTroveInSystem(uint256)": "infinite",
				"_requireTCRoverMCR(uint256)": "infinite",
				"_requireTroveIsActive(address)": "infinite",
				"_requireValidMaxFeePercentage(uint256)": "infinite",
				"_sendGasCompensation(contract IActivePool,address,uint256,uint256)": "infinite",
				"_updateBaseRateFromRedemption(uint256,uint256,uint256)": "infinite",
				"_updateLastFeeOpTime()": "infinite",
				"_updateStakeAndTotalStakes(address)": "infinite",
				"_updateSystemSnapshots_excludeCollRemainder(contract IActivePool,uint256)": "infinite",
				"_updateTroveRewardSnapshots(address)": "infinite"
			}
		},
		"methodIdentifiers": {
			"BETA()": "071a7541",
			"BOOTSTRAP_PERIOD()": "c35bc550",
			"BORROWING_FEE_FLOOR()": "f92d3433",
			"CCR()": "5733d58f",
			"DECIMAL_PRECISION()": "a20baee6",
			"LUSD_GAS_COMPENSATION()": "2e86bbd8",
			"L_ETH()": "9dd233d2",
			"L_LUSDDebt()": "dba1c5f2",
			"MAX_BORROWING_FEE()": "24092669",
			"MCR()": "794e5724",
			"MINUTE_DECAY_FACTOR()": "c7b55481",
			"MIN_NET_DEBT()": "1bf43555",
			"NAME()": "a3f4df7e",
			"PERCENT_DIVISOR()": "4870dd9a",
			"REDEMPTION_FEE_FLOOR()": "28d28b5b",
			"SECONDS_IN_ONE_MINUTE()": "61ec893d",
			"TroveOwners(uint256)": "756b253e",
			"Troves(address)": "6ef64338",
			"_100pct()": "72fe25aa",
			"activePool()": "7f7dde4a",
			"addTroveOwnerToArray(address)": "15d549f1",
			"admin()": "f851a440",
			"applyPendingRewards(address)": "0b076557",
			"baseRate()": "1f68f20a",
			"batchLiquidateTroves(address[])": "1e8b1c2b",
			"borrowerOperationsAddress()": "b7f8cf9b",
			"checkRecoveryMode(uint256)": "4e443d9e",
			"closeTrove(address)": "cbd138ae",
			"decayBaseRateFromBorrowing()": "5dba4c4a",
			"decreaseTroveColl(address,uint256)": "d3d6f843",
			"decreaseTroveDebt(address,uint256)": "12610e92",
			"defaultPool()": "3cc74225",
			"getBorrowingFee(uint256)": "631203b0",
			"getBorrowingFeeWithDecay(uint256)": "477d66cf",
			"getBorrowingRate()": "f36b2425",
			"getBorrowingRateWithDecay()": "66ca4a21",
			"getCurrentICR(address,uint256)": "d293c710",
			"getEntireDebtAndColl(address)": "b91af97c",
			"getEntireSystemColl()": "887105d3",
			"getEntireSystemDebt()": "795d26c3",
			"getNominalICR(address)": "b0d8e181",
			"getPendingETHReward(address)": "5d8c9609",
			"getPendingLUSDDebtReward(address)": "f34862de",
			"getRedemptionFeeWithDecay(uint256)": "d5b35635",
			"getRedemptionRate()": "2b11551a",
			"getRedemptionRateWithDecay()": "c52861f2",
			"getTCR(uint256)": "b82f263d",
			"getTroveColl(address)": "480cd578",
			"getTroveDebt(address)": "d66a2553",
			"getTroveFromTroveOwnersArray(uint256)": "d9a72444",
			"getTroveOwnersCount()": "49eefeee",
			"getTroveStake(address)": "64cee260",
			"getTroveStatus(address)": "21e37801",
			"hasPendingRewards(address)": "e2ac77b0",
			"increaseTroveColl(address,uint256)": "72423c17",
			"increaseTroveDebt(address,uint256)": "9976cf45",
			"isOwner()": "8f32d59b",
			"lastETHError_Redistribution()": "797250e3",
			"lastFeeOperationTime()": "d380a37c",
			"lastLUSDDebtError_Redistribution()": "060d49a3",
			"liquidate(address)": "2f865568",
			"liquidateTroves(uint256)": "653d46e7",
			"lqtyStaking()": "a3a64017",
			"lqtyToken()": "1f7af3c3",
			"lusdToken()": "b83f91a2",
			"owner()": "8da5cb5b",
			"priceFeed()": "741bef1a",
			"redeemCollateral(uint256,address,address,address,uint256,uint256,uint256)": "bcd37526",
			"removeStake(address)": "fe2ba848",
			"renounceAdmin()": "8bad0c0a",
			"rewardSnapshots(address)": "1673c79a",
			"setAddresses(address,address,address,address,address,address,address,address,address,address,address)": "7985c5e4",
			"setAdmin(address)": "704b6c02",
			"setPriceFeed(address)": "724e78da",
			"setTroveStatus(address,uint256)": "5d6b480f",
			"sortedTroves()": "ae918754",
			"stabilityPool()": "048c661d",
			"totalCollateralSnapshot()": "96d711ff",
			"totalStakes()": "bf9befb1",
			"totalStakesSnapshot()": "807d138d",
			"updateStakeAndTotalStakes(address)": "18f2817a",
			"updateTroveRewardSnapshots(address)": "82fe3eb9"
		}
	},
	"abi": [
		{
			"anonymous": false,
			"inputs": [
				{
					"indexed": false,
					"internalType": "address",
					"name": "_activePoolAddress",
					"type": "address"
				}
			],
			"name": "ActivePoolAddressChanged",
			"type": "event"
		},
		{
			"anonymous": false,
			"inputs": [
				{
					"indexed": false,
					"internalType": "uint256",
					"name": "_baseRate",
					"type": "uint256"
				}
			],
			"name": "BaseRateUpdated",
			"type": "event"
		},
		{
			"anonymous": false,
			"inputs": [
				{
					"indexed": false,
					"internalType": "address",
					"name": "_newBorrowerOperationsAddress",
					"type": "address"
				}
			],
			"name": "BorrowerOperationsAddressChanged",
			"type": "event"
		},
		{
			"anonymous": false,
			"inputs": [
				{
					"indexed": false,
					"internalType": "address",
					"name": "_collSurplusPoolAddress",
					"type": "address"
				}
			],
			"name": "CollSurplusPoolAddressChanged",
			"type": "event"
		},
		{
			"anonymous": false,
			"inputs": [
				{
					"indexed": false,
					"internalType": "address",
					"name": "_defaultPoolAddress",
					"type": "address"
				}
			],
			"name": "DefaultPoolAddressChanged",
			"type": "event"
		},
		{
			"anonymous": false,
			"inputs": [
				{
					"indexed": false,
					"internalType": "address",
					"name": "_gasPoolAddress",
					"type": "address"
				}
			],
			"name": "GasPoolAddressChanged",
			"type": "event"
		},
		{
			"anonymous": false,
			"inputs": [
				{
					"indexed": false,
					"internalType": "address",
					"name": "_lqtyStakingAddress",
					"type": "address"
				}
			],
			"name": "LQTYStakingAddressChanged",
			"type": "event"
		},
		{
			"anonymous": false,
			"inputs": [
				{
					"indexed": false,
					"internalType": "address",
					"name": "_lqtyTokenAddress",
					"type": "address"
				}
			],
			"name": "LQTYTokenAddressChanged",
			"type": "event"
		},
		{
			"anonymous": false,
			"inputs": [
				{
					"indexed": false,
					"internalType": "uint256",
					"name": "_L_ETH",
					"type": "uint256"
				},
				{
					"indexed": false,
					"internalType": "uint256",
					"name": "_L_LUSDDebt",
					"type": "uint256"
				}
			],
			"name": "LTermsUpdated",
			"type": "event"
		},
		{
			"anonymous": false,
			"inputs": [
				{
					"indexed": false,
					"internalType": "address",
					"name": "_newLUSDTokenAddress",
					"type": "address"
				}
			],
			"name": "LUSDTokenAddressChanged",
			"type": "event"
		},
		{
			"anonymous": false,
			"inputs": [
				{
					"indexed": false,
					"internalType": "uint256",
					"name": "_lastFeeOpTime",
					"type": "uint256"
				}
			],
			"name": "LastFeeOpTimeUpdated",
			"type": "event"
		},
		{
			"anonymous": false,
			"inputs": [
				{
					"indexed": false,
					"internalType": "uint256",
					"name": "_liquidatedDebt",
					"type": "uint256"
				},
				{
					"indexed": false,
					"internalType": "uint256",
					"name": "_liquidatedColl",
					"type": "uint256"
				},
				{
					"indexed": false,
					"internalType": "uint256",
					"name": "_collGasCompensation",
					"type": "uint256"
				},
				{
					"indexed": false,
					"internalType": "uint256",
					"name": "_LUSDGasCompensation",
					"type": "uint256"
				}
			],
			"name": "Liquidation",
			"type": "event"
		},
		{
			"anonymous": false,
			"inputs": [
				{
					"indexed": true,
					"internalType": "address",
					"name": "previousOwner",
					"type": "address"
				},
				{
					"indexed": true,
					"internalType": "address",
					"name": "newOwner",
					"type": "address"
				}
			],
			"name": "OwnershipTransferred",
			"type": "event"
		},
		{
			"anonymous": false,
			"inputs": [
				{
					"indexed": false,
					"internalType": "address",
					"name": "_newPriceFeedAddress",
					"type": "address"
				}
			],
			"name": "PriceFeedAddressChanged",
			"type": "event"
		},
		{
			"anonymous": false,
			"inputs": [
				{
					"indexed": false,
					"internalType": "uint256",
					"name": "_attemptedLUSDAmount",
					"type": "uint256"
				},
				{
					"indexed": false,
					"internalType": "uint256",
					"name": "_actualLUSDAmount",
					"type": "uint256"
				},
				{
					"indexed": false,
					"internalType": "uint256",
					"name": "_ETHSent",
					"type": "uint256"
				},
				{
					"indexed": false,
					"internalType": "uint256",
					"name": "_ETHFee",
					"type": "uint256"
				}
			],
			"name": "Redemption",
			"type": "event"
		},
		{
			"anonymous": false,
			"inputs": [
				{
					"indexed": false,
					"internalType": "address",
					"name": "_sortedTrovesAddress",
					"type": "address"
				}
			],
			"name": "SortedTrovesAddressChanged",
			"type": "event"
		},
		{
			"anonymous": false,
			"inputs": [
				{
					"indexed": false,
					"internalType": "address",
					"name": "_stabilityPoolAddress",
					"type": "address"
				}
			],
			"name": "StabilityPoolAddressChanged",
			"type": "event"
		},
		{
			"anonymous": false,
			"inputs": [
				{
					"indexed": false,
					"internalType": "uint256",
					"name": "_totalStakesSnapshot",
					"type": "uint256"
				},
				{
					"indexed": false,
					"internalType": "uint256",
					"name": "_totalCollateralSnapshot",
					"type": "uint256"
				}
			],
			"name": "SystemSnapshotsUpdated",
			"type": "event"
		},
		{
			"anonymous": false,
			"inputs": [
				{
					"indexed": false,
					"internalType": "uint256",
					"name": "_newTotalStakes",
					"type": "uint256"
				}
			],
			"name": "TotalStakesUpdated",
			"type": "event"
		},
		{
			"anonymous": false,
			"inputs": [
				{
					"indexed": false,
					"internalType": "address",
					"name": "_borrower",
					"type": "address"
				},
				{
					"indexed": false,
					"internalType": "uint256",
					"name": "_newIndex",
					"type": "uint256"
				}
			],
			"name": "TroveIndexUpdated",
			"type": "event"
		},
		{
			"anonymous": false,
			"inputs": [
				{
					"indexed": true,
					"internalType": "address",
					"name": "_borrower",
					"type": "address"
				},
				{
					"indexed": false,
					"internalType": "uint256",
					"name": "_debt",
					"type": "uint256"
				},
				{
					"indexed": false,
					"internalType": "uint256",
					"name": "_coll",
					"type": "uint256"
				},
				{
					"indexed": false,
					"internalType": "enum TroveManager.TroveManagerOperation",
					"name": "_operation",
					"type": "uint8"
				}
			],
			"name": "TroveLiquidated",
			"type": "event"
		},
		{
			"anonymous": false,
			"inputs": [
				{
					"indexed": false,
					"internalType": "uint256",
					"name": "_L_ETH",
					"type": "uint256"
				},
				{
					"indexed": false,
					"internalType": "uint256",
					"name": "_L_LUSDDebt",
					"type": "uint256"
				}
			],
			"name": "TroveSnapshotsUpdated",
			"type": "event"
		},
		{
			"anonymous": false,
			"inputs": [
				{
					"indexed": true,
					"internalType": "address",
					"name": "_borrower",
					"type": "address"
				},
				{
					"indexed": false,
					"internalType": "uint256",
					"name": "_debt",
					"type": "uint256"
				},
				{
					"indexed": false,
					"internalType": "uint256",
					"name": "_coll",
					"type": "uint256"
				},
				{
					"indexed": false,
					"internalType": "uint256",
					"name": "_stake",
					"type": "uint256"
				},
				{
					"indexed": false,
					"internalType": "enum TroveManager.TroveManagerOperation",
					"name": "_operation",
					"type": "uint8"
				}
			],
			"name": "TroveUpdated",
			"type": "event"
		},
		{
			"inputs": [],
			"name": "BETA",
			"outputs": [
				{
					"internalType": "uint256",
					"name": "",
					"type": "uint256"
				}
			],
			"stateMutability": "view",
			"type": "function"
		},
		{
			"inputs": [],
			"name": "BOOTSTRAP_PERIOD",
			"outputs": [
				{
					"internalType": "uint256",
					"name": "",
					"type": "uint256"
				}
			],
			"stateMutability": "view",
			"type": "function"
		},
		{
			"inputs": [],
			"name": "BORROWING_FEE_FLOOR",
			"outputs": [
				{
					"internalType": "uint256",
					"name": "",
					"type": "uint256"
				}
			],
			"stateMutability": "view",
			"type": "function"
		},
		{
			"inputs": [],
			"name": "CCR",
			"outputs": [
				{
					"internalType": "uint256",
					"name": "",
					"type": "uint256"
				}
			],
			"stateMutability": "view",
			"type": "function"
		},
		{
			"inputs": [],
			"name": "DECIMAL_PRECISION",
			"outputs": [
				{
					"internalType": "uint256",
					"name": "",
					"type": "uint256"
				}
			],
			"stateMutability": "view",
			"type": "function"
		},
		{
			"inputs": [],
			"name": "LUSD_GAS_COMPENSATION",
			"outputs": [
				{
					"internalType": "uint256",
					"name": "",
					"type": "uint256"
				}
			],
			"stateMutability": "view",
			"type": "function"
		},
		{
			"inputs": [],
			"name": "L_ETH",
			"outputs": [
				{
					"internalType": "uint256",
					"name": "",
					"type": "uint256"
				}
			],
			"stateMutability": "view",
			"type": "function"
		},
		{
			"inputs": [],
			"name": "L_LUSDDebt",
			"outputs": [
				{
					"internalType": "uint256",
					"name": "",
					"type": "uint256"
				}
			],
			"stateMutability": "view",
			"type": "function"
		},
		{
			"inputs": [],
			"name": "MAX_BORROWING_FEE",
			"outputs": [
				{
					"internalType": "uint256",
					"name": "",
					"type": "uint256"
				}
			],
			"stateMutability": "view",
			"type": "function"
		},
		{
			"inputs": [],
			"name": "MCR",
			"outputs": [
				{
					"internalType": "uint256",
					"name": "",
					"type": "uint256"
				}
			],
			"stateMutability": "view",
			"type": "function"
		},
		{
			"inputs": [],
			"name": "MINUTE_DECAY_FACTOR",
			"outputs": [
				{
					"internalType": "uint256",
					"name": "",
					"type": "uint256"
				}
			],
			"stateMutability": "view",
			"type": "function"
		},
		{
			"inputs": [],
			"name": "MIN_NET_DEBT",
			"outputs": [
				{
					"internalType": "uint256",
					"name": "",
					"type": "uint256"
				}
			],
			"stateMutability": "view",
			"type": "function"
		},
		{
			"inputs": [],
			"name": "NAME",
			"outputs": [
				{
					"internalType": "string",
					"name": "",
					"type": "string"
				}
			],
			"stateMutability": "view",
			"type": "function"
		},
		{
			"inputs": [],
			"name": "PERCENT_DIVISOR",
			"outputs": [
				{
					"internalType": "uint256",
					"name": "",
					"type": "uint256"
				}
			],
			"stateMutability": "view",
			"type": "function"
		},
		{
			"inputs": [],
			"name": "REDEMPTION_FEE_FLOOR",
			"outputs": [
				{
					"internalType": "uint256",
					"name": "",
					"type": "uint256"
				}
			],
			"stateMutability": "view",
			"type": "function"
		},
		{
			"inputs": [],
			"name": "SECONDS_IN_ONE_MINUTE",
			"outputs": [
				{
					"internalType": "uint256",
					"name": "",
					"type": "uint256"
				}
			],
			"stateMutability": "view",
			"type": "function"
		},
		{
			"inputs": [
				{
					"internalType": "uint256",
					"name": "",
					"type": "uint256"
				}
			],
			"name": "TroveOwners",
			"outputs": [
				{
					"internalType": "address",
					"name": "",
					"type": "address"
				}
			],
			"stateMutability": "view",
			"type": "function"
		},
		{
			"inputs": [
				{
					"internalType": "address",
					"name": "",
					"type": "address"
				}
			],
			"name": "Troves",
			"outputs": [
				{
					"internalType": "uint256",
					"name": "debt",
					"type": "uint256"
				},
				{
					"internalType": "uint256",
					"name": "coll",
					"type": "uint256"
				},
				{
					"internalType": "uint256",
					"name": "stake",
					"type": "uint256"
				},
				{
					"internalType": "enum TroveManager.Status",
					"name": "status",
					"type": "uint8"
				},
				{
					"internalType": "uint128",
					"name": "arrayIndex",
					"type": "uint128"
				}
			],
			"stateMutability": "view",
			"type": "function"
		},
		{
			"inputs": [],
			"name": "_100pct",
			"outputs": [
				{
					"internalType": "uint256",
					"name": "",
					"type": "uint256"
				}
			],
			"stateMutability": "view",
			"type": "function"
		},
		{
			"inputs": [],
			"name": "activePool",
			"outputs": [
				{
					"internalType": "contract IActivePool",
					"name": "",
					"type": "address"
				}
			],
			"stateMutability": "view",
			"type": "function"
		},
		{
			"inputs": [
				{
					"internalType": "address",
					"name": "_borrower",
					"type": "address"
				}
			],
			"name": "addTroveOwnerToArray",
			"outputs": [
				{
					"internalType": "uint256",
					"name": "index",
					"type": "uint256"
				}
			],
			"stateMutability": "nonpayable",
			"type": "function"
		},
		{
			"inputs": [],
			"name": "admin",
			"outputs": [
				{
					"internalType": "address",
					"name": "",
					"type": "address"
				}
			],
			"stateMutability": "view",
			"type": "function"
		},
		{
			"inputs": [
				{
					"internalType": "address",
					"name": "_borrower",
					"type": "address"
				}
			],
			"name": "applyPendingRewards",
			"outputs": [],
			"stateMutability": "nonpayable",
			"type": "function"
		},
		{
			"inputs": [],
			"name": "baseRate",
			"outputs": [
				{
					"internalType": "uint256",
					"name": "",
					"type": "uint256"
				}
			],
			"stateMutability": "view",
			"type": "function"
		},
		{
			"inputs": [
				{
					"internalType": "address[]",
					"name": "_troveArray",
					"type": "address[]"
				}
			],
			"name": "batchLiquidateTroves",
			"outputs": [],
			"stateMutability": "nonpayable",
			"type": "function"
		},
		{
			"inputs": [],
			"name": "borrowerOperationsAddress",
			"outputs": [
				{
					"internalType": "address",
					"name": "",
					"type": "address"
				}
			],
			"stateMutability": "view",
			"type": "function"
		},
		{
			"inputs": [
				{
					"internalType": "uint256",
					"name": "_price",
					"type": "uint256"
				}
			],
			"name": "checkRecoveryMode",
			"outputs": [
				{
					"internalType": "bool",
					"name": "",
					"type": "bool"
				}
			],
			"stateMutability": "view",
			"type": "function"
		},
		{
			"inputs": [
				{
					"internalType": "address",
					"name": "_borrower",
					"type": "address"
				}
			],
			"name": "closeTrove",
			"outputs": [],
			"stateMutability": "nonpayable",
			"type": "function"
		},
		{
			"inputs": [],
			"name": "decayBaseRateFromBorrowing",
			"outputs": [],
			"stateMutability": "nonpayable",
			"type": "function"
		},
		{
			"inputs": [
				{
					"internalType": "address",
					"name": "_borrower",
					"type": "address"
				},
				{
					"internalType": "uint256",
					"name": "_collDecrease",
					"type": "uint256"
				}
			],
			"name": "decreaseTroveColl",
			"outputs": [
				{
					"internalType": "uint256",
					"name": "",
					"type": "uint256"
				}
			],
			"stateMutability": "nonpayable",
			"type": "function"
		},
		{
			"inputs": [
				{
					"internalType": "address",
					"name": "_borrower",
					"type": "address"
				},
				{
					"internalType": "uint256",
					"name": "_debtDecrease",
					"type": "uint256"
				}
			],
			"name": "decreaseTroveDebt",
			"outputs": [
				{
					"internalType": "uint256",
					"name": "",
					"type": "uint256"
				}
			],
			"stateMutability": "nonpayable",
			"type": "function"
		},
		{
			"inputs": [],
			"name": "defaultPool",
			"outputs": [
				{
					"internalType": "contract IDefaultPool",
					"name": "",
					"type": "address"
				}
			],
			"stateMutability": "view",
			"type": "function"
		},
		{
			"inputs": [
				{
					"internalType": "uint256",
					"name": "_LUSDDebt",
					"type": "uint256"
				}
			],
			"name": "getBorrowingFee",
			"outputs": [
				{
					"internalType": "uint256",
					"name": "",
					"type": "uint256"
				}
			],
			"stateMutability": "view",
			"type": "function"
		},
		{
			"inputs": [
				{
					"internalType": "uint256",
					"name": "_LUSDDebt",
					"type": "uint256"
				}
			],
			"name": "getBorrowingFeeWithDecay",
			"outputs": [
				{
					"internalType": "uint256",
					"name": "",
					"type": "uint256"
				}
			],
			"stateMutability": "view",
			"type": "function"
		},
		{
			"inputs": [],
			"name": "getBorrowingRate",
			"outputs": [
				{
					"internalType": "uint256",
					"name": "",
					"type": "uint256"
				}
			],
			"stateMutability": "view",
			"type": "function"
		},
		{
			"inputs": [],
			"name": "getBorrowingRateWithDecay",
			"outputs": [
				{
					"internalType": "uint256",
					"name": "",
					"type": "uint256"
				}
			],
			"stateMutability": "view",
			"type": "function"
		},
		{
			"inputs": [
				{
					"internalType": "address",
					"name": "_borrower",
					"type": "address"
				},
				{
					"internalType": "uint256",
					"name": "_price",
					"type": "uint256"
				}
			],
			"name": "getCurrentICR",
			"outputs": [
				{
					"internalType": "uint256",
					"name": "",
					"type": "uint256"
				}
			],
			"stateMutability": "view",
			"type": "function"
		},
		{
			"inputs": [
				{
					"internalType": "address",
					"name": "_borrower",
					"type": "address"
				}
			],
			"name": "getEntireDebtAndColl",
			"outputs": [
				{
					"internalType": "uint256",
					"name": "debt",
					"type": "uint256"
				},
				{
					"internalType": "uint256",
					"name": "coll",
					"type": "uint256"
				},
				{
					"internalType": "uint256",
					"name": "pendingLUSDDebtReward",
					"type": "uint256"
				},
				{
					"internalType": "uint256",
					"name": "pendingETHReward",
					"type": "uint256"
				}
			],
			"stateMutability": "view",
			"type": "function"
		},
		{
			"inputs": [],
			"name": "getEntireSystemColl",
			"outputs": [
				{
					"internalType": "uint256",
					"name": "entireSystemColl",
					"type": "uint256"
				}
			],
			"stateMutability": "view",
			"type": "function"
		},
		{
			"inputs": [],
			"name": "getEntireSystemDebt",
			"outputs": [
				{
					"internalType": "uint256",
					"name": "entireSystemDebt",
					"type": "uint256"
				}
			],
			"stateMutability": "view",
			"type": "function"
		},
		{
			"inputs": [
				{
					"internalType": "address",
					"name": "_borrower",
					"type": "address"
				}
			],
			"name": "getNominalICR",
			"outputs": [
				{
					"internalType": "uint256",
					"name": "",
					"type": "uint256"
				}
			],
			"stateMutability": "view",
			"type": "function"
		},
		{
			"inputs": [
				{
					"internalType": "address",
					"name": "_borrower",
					"type": "address"
				}
			],
			"name": "getPendingETHReward",
			"outputs": [
				{
					"internalType": "uint256",
					"name": "",
					"type": "uint256"
				}
			],
			"stateMutability": "view",
			"type": "function"
		},
		{
			"inputs": [
				{
					"internalType": "address",
					"name": "_borrower",
					"type": "address"
				}
			],
			"name": "getPendingLUSDDebtReward",
			"outputs": [
				{
					"internalType": "uint256",
					"name": "",
					"type": "uint256"
				}
			],
			"stateMutability": "view",
			"type": "function"
		},
		{
			"inputs": [
				{
					"internalType": "uint256",
					"name": "_ETHDrawn",
					"type": "uint256"
				}
			],
			"name": "getRedemptionFeeWithDecay",
			"outputs": [
				{
					"internalType": "uint256",
					"name": "",
					"type": "uint256"
				}
			],
			"stateMutability": "view",
			"type": "function"
		},
		{
			"inputs": [],
			"name": "getRedemptionRate",
			"outputs": [
				{
					"internalType": "uint256",
					"name": "",
					"type": "uint256"
				}
			],
			"stateMutability": "view",
			"type": "function"
		},
		{
			"inputs": [],
			"name": "getRedemptionRateWithDecay",
			"outputs": [
				{
					"internalType": "uint256",
					"name": "",
					"type": "uint256"
				}
			],
			"stateMutability": "view",
			"type": "function"
		},
		{
			"inputs": [
				{
					"internalType": "uint256",
					"name": "_price",
					"type": "uint256"
				}
			],
			"name": "getTCR",
			"outputs": [
				{
					"internalType": "uint256",
					"name": "",
					"type": "uint256"
				}
			],
			"stateMutability": "view",
			"type": "function"
		},
		{
			"inputs": [
				{
					"internalType": "address",
					"name": "_borrower",
					"type": "address"
				}
			],
			"name": "getTroveColl",
			"outputs": [
				{
					"internalType": "uint256",
					"name": "",
					"type": "uint256"
				}
			],
			"stateMutability": "view",
			"type": "function"
		},
		{
			"inputs": [
				{
					"internalType": "address",
					"name": "_borrower",
					"type": "address"
				}
			],
			"name": "getTroveDebt",
			"outputs": [
				{
					"internalType": "uint256",
					"name": "",
					"type": "uint256"
				}
			],
			"stateMutability": "view",
			"type": "function"
		},
		{
			"inputs": [
				{
					"internalType": "uint256",
					"name": "_index",
					"type": "uint256"
				}
			],
			"name": "getTroveFromTroveOwnersArray",
			"outputs": [
				{
					"internalType": "address",
					"name": "",
					"type": "address"
				}
			],
			"stateMutability": "view",
			"type": "function"
		},
		{
			"inputs": [],
			"name": "getTroveOwnersCount",
			"outputs": [
				{
					"internalType": "uint256",
					"name": "",
					"type": "uint256"
				}
			],
			"stateMutability": "view",
			"type": "function"
		},
		{
			"inputs": [
				{
					"internalType": "address",
					"name": "_borrower",
					"type": "address"
				}
			],
			"name": "getTroveStake",
			"outputs": [
				{
					"internalType": "uint256",
					"name": "",
					"type": "uint256"
				}
			],
			"stateMutability": "view",
			"type": "function"
		},
		{
			"inputs": [
				{
					"internalType": "address",
					"name": "_borrower",
					"type": "address"
				}
			],
			"name": "getTroveStatus",
			"outputs": [
				{
					"internalType": "uint256",
					"name": "",
					"type": "uint256"
				}
			],
			"stateMutability": "view",
			"type": "function"
		},
		{
			"inputs": [
				{
					"internalType": "address",
					"name": "_borrower",
					"type": "address"
				}
			],
			"name": "hasPendingRewards",
			"outputs": [
				{
					"internalType": "bool",
					"name": "",
					"type": "bool"
				}
			],
			"stateMutability": "view",
			"type": "function"
		},
		{
			"inputs": [
				{
					"internalType": "address",
					"name": "_borrower",
					"type": "address"
				},
				{
					"internalType": "uint256",
					"name": "_collIncrease",
					"type": "uint256"
				}
			],
			"name": "increaseTroveColl",
			"outputs": [
				{
					"internalType": "uint256",
					"name": "",
					"type": "uint256"
				}
			],
			"stateMutability": "nonpayable",
			"type": "function"
		},
		{
			"inputs": [
				{
					"internalType": "address",
					"name": "_borrower",
					"type": "address"
				},
				{
					"internalType": "uint256",
					"name": "_debtIncrease",
					"type": "uint256"
				}
			],
			"name": "increaseTroveDebt",
			"outputs": [
				{
					"internalType": "uint256",
					"name": "",
					"type": "uint256"
				}
			],
			"stateMutability": "nonpayable",
			"type": "function"
		},
		{
			"inputs": [],
			"name": "isOwner",
			"outputs": [
				{
					"internalType": "bool",
					"name": "",
					"type": "bool"
				}
			],
			"stateMutability": "view",
			"type": "function"
		},
		{
			"inputs": [],
			"name": "lastETHError_Redistribution",
			"outputs": [
				{
					"internalType": "uint256",
					"name": "",
					"type": "uint256"
				}
			],
			"stateMutability": "view",
			"type": "function"
		},
		{
			"inputs": [],
			"name": "lastFeeOperationTime",
			"outputs": [
				{
					"internalType": "uint256",
					"name": "",
					"type": "uint256"
				}
			],
			"stateMutability": "view",
			"type": "function"
		},
		{
			"inputs": [],
			"name": "lastLUSDDebtError_Redistribution",
			"outputs": [
				{
					"internalType": "uint256",
					"name": "",
					"type": "uint256"
				}
			],
			"stateMutability": "view",
			"type": "function"
		},
		{
			"inputs": [
				{
					"internalType": "address",
					"name": "_borrower",
					"type": "address"
				}
			],
			"name": "liquidate",
			"outputs": [],
			"stateMutability": "nonpayable",
			"type": "function"
		},
		{
			"inputs": [
				{
					"internalType": "uint256",
					"name": "_n",
					"type": "uint256"
				}
			],
			"name": "liquidateTroves",
			"outputs": [],
			"stateMutability": "nonpayable",
			"type": "function"
		},
		{
			"inputs": [],
			"name": "lqtyStaking",
			"outputs": [
				{
					"internalType": "contract ILQTYStaking",
					"name": "",
					"type": "address"
				}
			],
			"stateMutability": "view",
			"type": "function"
		},
		{
			"inputs": [],
			"name": "lqtyToken",
			"outputs": [
				{
					"internalType": "contract ILQTYToken",
					"name": "",
					"type": "address"
				}
			],
			"stateMutability": "view",
			"type": "function"
		},
		{
			"inputs": [],
			"name": "lusdToken",
			"outputs": [
				{
					"internalType": "contract ILUSDToken",
					"name": "",
					"type": "address"
				}
			],
			"stateMutability": "view",
			"type": "function"
		},
		{
			"inputs": [],
			"name": "owner",
			"outputs": [
				{
					"internalType": "address",
					"name": "",
					"type": "address"
				}
			],
			"stateMutability": "view",
			"type": "function"
		},
		{
			"inputs": [],
			"name": "priceFeed",
			"outputs": [
				{
					"internalType": "contract IPriceFeed",
					"name": "",
					"type": "address"
				}
			],
			"stateMutability": "view",
			"type": "function"
		},
		{
			"inputs": [
				{
					"internalType": "uint256",
					"name": "_LUSDamount",
					"type": "uint256"
				},
				{
					"internalType": "address",
					"name": "_firstRedemptionHint",
					"type": "address"
				},
				{
					"internalType": "address",
					"name": "_upperPartialRedemptionHint",
					"type": "address"
				},
				{
					"internalType": "address",
					"name": "_lowerPartialRedemptionHint",
					"type": "address"
				},
				{
					"internalType": "uint256",
					"name": "_partialRedemptionHintNICR",
					"type": "uint256"
				},
				{
					"internalType": "uint256",
					"name": "_maxIterations",
					"type": "uint256"
				},
				{
					"internalType": "uint256",
					"name": "_maxFeePercentage",
					"type": "uint256"
				}
			],
			"name": "redeemCollateral",
			"outputs": [],
			"stateMutability": "nonpayable",
			"type": "function"
		},
		{
			"inputs": [
				{
					"internalType": "address",
					"name": "_borrower",
					"type": "address"
				}
			],
			"name": "removeStake",
			"outputs": [],
			"stateMutability": "nonpayable",
			"type": "function"
		},
		{
			"inputs": [],
			"name": "renounceAdmin",
			"outputs": [],
			"stateMutability": "nonpayable",
			"type": "function"
		},
		{
			"inputs": [
				{
					"internalType": "address",
					"name": "",
					"type": "address"
				}
			],
			"name": "rewardSnapshots",
			"outputs": [
				{
					"internalType": "uint256",
					"name": "ETH",
					"type": "uint256"
				},
				{
					"internalType": "uint256",
					"name": "LUSDDebt",
					"type": "uint256"
				}
			],
			"stateMutability": "view",
			"type": "function"
		},
		{
			"inputs": [
				{
					"internalType": "address",
					"name": "_borrowerOperationsAddress",
					"type": "address"
				},
				{
					"internalType": "address",
					"name": "_activePoolAddress",
					"type": "address"
				},
				{
					"internalType": "address",
					"name": "_defaultPoolAddress",
					"type": "address"
				},
				{
					"internalType": "address",
					"name": "_stabilityPoolAddress",
					"type": "address"
				},
				{
					"internalType": "address",
					"name": "_gasPoolAddress",
					"type": "address"
				},
				{
					"internalType": "address",
					"name": "_collSurplusPoolAddress",
					"type": "address"
				},
				{
					"internalType": "address",
					"name": "_priceFeedAddress",
					"type": "address"
				},
				{
					"internalType": "address",
					"name": "_lusdTokenAddress",
					"type": "address"
				},
				{
					"internalType": "address",
					"name": "_sortedTrovesAddress",
					"type": "address"
				},
				{
					"internalType": "address",
					"name": "_lqtyTokenAddress",
					"type": "address"
				},
				{
					"internalType": "address",
					"name": "_lqtyStakingAddress",
					"type": "address"
				}
			],
			"name": "setAddresses",
			"outputs": [],
			"stateMutability": "nonpayable",
			"type": "function"
		},
		{
			"inputs": [
				{
					"internalType": "address",
					"name": "_admin",
					"type": "address"
				}
			],
			"name": "setAdmin",
			"outputs": [],
			"stateMutability": "nonpayable",
			"type": "function"
		},
		{
			"inputs": [
				{
					"internalType": "address",
					"name": "_priceFeedAddress",
					"type": "address"
				}
			],
			"name": "setPriceFeed",
			"outputs": [],
			"stateMutability": "nonpayable",
			"type": "function"
		},
		{
			"inputs": [
				{
					"internalType": "address",
					"name": "_borrower",
					"type": "address"
				},
				{
					"internalType": "uint256",
					"name": "_num",
					"type": "uint256"
				}
			],
			"name": "setTroveStatus",
			"outputs": [],
			"stateMutability": "nonpayable",
			"type": "function"
		},
		{
			"inputs": [],
			"name": "sortedTroves",
			"outputs": [
				{
					"internalType": "contract ISortedTroves",
					"name": "",
					"type": "address"
				}
			],
			"stateMutability": "view",
			"type": "function"
		},
		{
			"inputs": [],
			"name": "stabilityPool",
			"outputs": [
				{
					"internalType": "contract IStabilityPool",
					"name": "",
					"type": "address"
				}
			],
			"stateMutability": "view",
			"type": "function"
		},
		{
			"inputs": [],
			"name": "totalCollateralSnapshot",
			"outputs": [
				{
					"internalType": "uint256",
					"name": "",
					"type": "uint256"
				}
			],
			"stateMutability": "view",
			"type": "function"
		},
		{
			"inputs": [],
			"name": "totalStakes",
			"outputs": [
				{
					"internalType": "uint256",
					"name": "",
					"type": "uint256"
				}
			],
			"stateMutability": "view",
			"type": "function"
		},
		{
			"inputs": [],
			"name": "totalStakesSnapshot",
			"outputs": [
				{
					"internalType": "uint256",
					"name": "",
					"type": "uint256"
				}
			],
			"stateMutability": "view",
			"type": "function"
		},
		{
			"inputs": [
				{
					"internalType": "address",
					"name": "_borrower",
					"type": "address"
				}
			],
			"name": "updateStakeAndTotalStakes",
			"outputs": [
				{
					"internalType": "uint256",
					"name": "",
					"type": "uint256"
				}
			],
			"stateMutability": "nonpayable",
			"type": "function"
		},
		{
			"inputs": [
				{
					"internalType": "address",
					"name": "_borrower",
					"type": "address"
				}
			],
			"name": "updateTroveRewardSnapshots",
			"outputs": [],
			"stateMutability": "nonpayable",
			"type": "function"
		}
	]
}