{
	"data": {
		"bytecode": {
			"linkReferences": {},
			"object": "608060405234801561001057600080fd5b50600380546001600160a01b031916339081179091556040516000907f8be0079c531659141344cd1fd0a4f28419497f9722a3daafe3b4186f6b6457e0908290a3615a0f80620000616000396000f3fe608060405234801561001057600080fd5b50600436106104b75760003560e01c8063794e572411610278578063b82f263d1161015c578063d3d6f843116100ce578063e2ac77b011610092578063e2ac77b014610a9e578063f34862de14610ab1578063f36b242514610ac4578063f851a44014610acc578063f92d3433146105f7578063fe2ba84814610adf57600080fd5b8063d3d6f84314610a33578063d5b3563514610a46578063d66a255314610a59578063d9a7244414610a82578063dba1c5f214610a9557600080fd5b8063c35bc55011610120578063c35bc550146109e5578063c52861f2146109ed578063c7b55481146109f5578063cbd138ae14610a04578063d293c71014610a17578063d380a37c14610a2a57600080fd5b8063b82f263d14610970578063b83f91a214610983578063b91af97c14610996578063bcd37526146109c9578063bf9befb1146109dc57600080fd5b80638da5cb5b116101f5578063a20baee6116101b9578063a20baee6146107f3578063a3a64017146108ec578063a3f4df7e146108ff578063ae91875414610937578063b0d8e1811461094a578063b7f8cf9b1461095d57600080fd5b80638da5cb5b146108a35780638f32d59b146108b457806396d711ff146108c75780639976cf45146108d05780639dd233d2146108e357600080fd5b8063807d138d1161023c578063807d138d1461086e57806381c376ce1461087757806382fe3eb914610880578063887105d3146108935780638bad0c0a1461089b57600080fd5b8063794e572414610828578063795d26c314610837578063797250e31461083f5780637985c5e4146108485780637f7dde4a1461085b57600080fd5b8063477d66cf1161039f578063631203b01161031c578063704b6c02116102e0578063704b6c02146107ba57806372423c17146107cd578063724e78da146107e057806372fe25aa146107f3578063741bef1a14610802578063756b253e1461081557600080fd5b8063631203b01461070757806364cee2601461071a578063653d46e71461074657806366ca4a21146107595780636ef643381461076157600080fd5b80635733d58f116103635780635733d58f146106c25780635d6b480f146106d15780635d8c9609146106e45780635dba4c4a146106f757806361ec893d146106ff57600080fd5b8063477d66cf14610650578063480cd578146106635780634870dd9a1461068f57806349eefeee146106975780634e443d9e1461069f57600080fd5b80631f68f20a1161043857806328d28b5b116103fc57806328d28b5b146105f75780632b11551a146105ff5780632e86bbd8146106075780632f865568146106175780633afc9a2f1461062a5780633cc742251461063d57600080fd5b80631f68f20a146105b85780631f7af3c3146105c15780632160fee3146105d457806321e37801146105dc57806324092669146105ef57600080fd5b806315d549f11161047f57806315d549f1146105335780631673c79a1461054657806318f2817a146105825780631bf43555146105955780631e8b1c2b146105a557600080fd5b8063048c661d146104bc578063060d49a3146104ec578063071a7541146105035780630b0765571461050b57806312610e9214610520575b600080fd5b6005546104cf906001600160a01b031681565b6040516001600160a01b0390911681526020015b60405180910390f35b6104f560175481565b6040519081526020016104e3565b6104f5600281565b61051e610519366004615481565b610af2565b005b6104f561052e36600461549e565b610b1a565b6104f5610541366004615481565b610b6d565b61056d610554366004615481565b6014602052600090815260409020805460019091015482565b604080519283526020830191909152016104e3565b6104f5610590366004615481565b610b8f565b6104f56809c2007651b250000081565b61051e6105b33660046154e0565b610ba2565b6104f5600c5481565b6009546104cf906001600160a01b031681565b6104f5610f66565b6104f56105ea366004615481565b610f87565b6104f5610fb7565b6104f5610fd5565b6104f5610fe9565b6104f56801158e460913d0000081565b61051e610625366004615481565b610ffb565b61051e6106383660046155a5565b611067565b6001546104cf906001600160a01b031681565b6104f561065e3660046155a5565b6110fa565b6104f5610671366004615481565b6001600160a01b03166000908152600e602052604090206001015490565b6104f560c881565b6015546104f5565b6106b26106ad3660046155a5565b61110d565b60405190151581526020016104e3565b6104f56714d1120d7b16000081565b61051e6106df36600461549e565b611118565b6104f56106f2366004615481565b611170565b61051e61122b565b6104f5603c81565b6104f56107153660046155a5565b611297565b6104f5610728366004615481565b6001600160a01b03166000908152600e602052604090206002015490565b61051e6107543660046155a5565b6112a4565b6104f5611642565b6107a961076f366004615481565b600e6020526000908152604090208054600182015460028301546003909301549192909160ff81169061010090046001600160801b031685565b6040516104e39594939291906155d4565b61051e6107c8366004615481565b611654565b6104f56107db36600461549e565b6116d0565b61051e6107ee366004615481565b611728565b6104f5670de0b6b3a764000081565b6002546104cf906001600160a01b031681565b6104cf6108233660046155a5565b611761565b6104f5670f43fc2c04ee000081565b6104f561178b565b6104f560165481565b61051e610856366004615618565b611887565b6000546104cf906001600160a01b031681565b6104f560105481565b6104f560185481565b61051e61088e366004615481565b611ca3565b6104f5611cb4565b61051e611d79565b6003546001600160a01b03166104cf565b6003546001600160a01b031633146106b2565b6104f560115481565b6104f56108de36600461549e565b611da2565b6104f560125481565b600a546104cf906001600160a01b031681565b61092a6040518060400160405280600c81526020016b2a3937bb32a6b0b730b3b2b960a11b81525081565b6040516104e391906156f6565b600b546104cf906001600160a01b031681565b6104f5610958366004615481565b611dd0565b6004546104cf906001600160a01b031681565b6104f561097e3660046155a5565b611df7565b6008546104cf906001600160a01b031681565b6109a96109a4366004615481565b611e02565b6040805194855260208501939093529183015260608201526080016104e3565b61051e6109d7366004615744565b611e5a565b6104f5600f5481565b6104f5600081565b6104f5612603565b6104f5670ddd4b8c6c7d70d881565b61051e610a12366004615481565b612615565b6104f5610a2536600461549e565b612628565b6104f5600d5481565b6104f5610a4136600461549e565b612647565b6104f5610a543660046155a5565b612678565b6104f5610a67366004615481565b6001600160a01b03166000908152600e602052604090205490565b6104cf610a903660046155a5565b61268b565b6104f560135481565b6106b2610aac366004615481565b6126bb565b6104f5610abf366004615481565b61271e565b6104f561274a565b6019546104cf906001600160a01b031681565b61051e610aed366004615481565b612757565b610afa612768565b600054600154610b17916001600160a01b039081169116836127ea565b50565b6000610b24612768565b6001600160a01b0383166000908152600e6020526040812054610b489084906157c8565b6001600160a01b0385166000908152600e602052604090208190559150505b92915050565b6000610b77612768565b610b80826128f2565b6001600160801b031692915050565b6000610b99612768565b610b678261298b565b8051600003610c175760405162461bcd60e51b815260206004820152603660248201527f54726f76654d616e616765723a2043616c6c646174612061646472657373206160448201527572726179206d757374206e6f7420626520656d70747960501b60648201526084015b60405180910390fd5b600080546001546005546040805160a081018252858152602081018690529081018590526060810185905260808101949094526001600160a01b0392831693918316921690610c646153c8565b600260009054906101000a90046001600160a01b03166001600160a01b0316630fdb11cf6040518163ffffffff1660e01b81526004016020604051808303816000875af1158015610cb9573d6000803e3d6000fd5b505050506040513d601f19601f82011682018060405250810190610cdd91906157db565b826000018181525050826001600160a01b0316639bf2f1ac6040518163ffffffff1660e01b8152600401602060405180830381865afa158015610d24573d6000803e3d6000fd5b505050506040513d601f19601f82011682018060405250810190610d4891906157db565b60208301528151610d5890612a30565b1580156040840152610d8057610d798585846000015185602001518a612a4d565b9050610d98565b610d958585846000015185602001518a612c7a565b90505b6000816020015111610dbc5760405162461bcd60e51b8152600401610c0e906157f4565b608081015160a082015160405163335525ad60e01b81526001600160a01b0386169263335525ad92610df992600401918252602082015260400190565b600060405180830381600087803b158015610e1357600080fd5b505af1158015610e27573d6000803e3d6000fd5b50505050610e3f85858360c001518460e00151612d49565b61010081015115610eb6576007546101008201516040516364a197f360e01b81526001600160a01b03888116936364a197f393610e83939290911691600401615836565b600060405180830381600087803b158015610e9d57600080fd5b505af1158015610eb1573d6000803e3d6000fd5b505050505b610ec4858260400151612f75565b6020810151606083015261010081015160408201518251610ee591906157c8565b610eef91906157c8565b6080838101829052606080850151604085810151868401518251938452602084019690965290820152908101929092527f4152c73dd2614c4f9fc35e8c9cf16013cd588c75b49a4c1673ecffdcbcda9403910160405180910390a1610f5e8533836060015184604001516130c0565b505050505050565b610f796064670de0b6b3a7640000615865565b610f84906003615879565b81565b6001600160a01b0381166000908152600e602052604081206003015460ff166004811115610b6757610b676155be565b610fca6064670de0b6b3a7640000615865565b610f84906005615879565b610fca6103e8670de0b6b3a7640000615865565b6000610ff6600c546131a3565b905090565b611004816131e0565b60408051600180825281830190925260009160208083019080368337019050509050818160008151811061103a5761103a615890565b60200260200101906001600160a01b031690816001600160a01b03168152505061106381610ba2565b5050565b6019546001600160a01b0316331461107e57600080fd5b6110916064670de0b6b3a7640000615865565b61109c906003615879565b8111156110f55760405162461bcd60e51b815260206004820152602160248201527f54726f76654d616e616765723a20496e76616c696420726577617264207261746044820152606560f81b6064820152608401610c0e565b601855565b6000610b67611107611642565b83613277565b6000610b6782612a30565b611120612768565b806004811115611132576111326155be565b6001600160a01b0383166000908152600e60205260409020600301805460ff19166001836004811115611167576111676155be565b02179055505050565b6001600160a01b03811660009081526014602052604081205460125482906111999083906157c8565b90508015806111d8575060016001600160a01b0385166000908152600e602052604090206003015460ff1660048111156111d5576111d56155be565b14155b156111e7575060009392505050565b6001600160a01b0384166000908152600e602052604081206002015490670de0b6b3a76400006112178484615879565b6112219190615865565b9695505050505050565b611233612768565b600061123d61329d565b9050670de0b6b3a7640000811115611257576112576158a6565b600c8190556040518181527fc454ee9b76c52f782a256af821b857ca6e125d1e3333bcede402fec2bed9600c9060200160405180910390a1610b176132e1565b6000610b6761110761274a565b6040805160e081018252600080546001600160a01b03908116835260015481166020808501919091528385018390526060808501849052600b54831660808087019190915260a080870186905260c0870186905260055488519182018952868252938101869052968701859052908601849052850192909252919291169061132a6153c8565b600260009054906101000a90046001600160a01b03166001600160a01b0316630fdb11cf6040518163ffffffff1660e01b81526004016020604051808303816000875af115801561137f573d6000803e3d6000fd5b505050506040513d601f19601f820116820180604052508101906113a391906157db565b826000018181525050826001600160a01b0316639bf2f1ac6040518163ffffffff1660e01b8152600401602060405180830381865afa1580156113ea573d6000803e3d6000fd5b505050506040513d601f19601f8201168201806040525081019061140e91906157db565b6020830152815161141e90612a30565b15801560408401526114455761143e848360000151846020015188613338565b9050611465565b6114628460000151856020015184600001518560200151896136bd565b90505b60008160200151116114895760405162461bcd60e51b8152600401610c0e906157f4565b608081015160a082015160405163335525ad60e01b81526001600160a01b0386169263335525ad926114c692600401918252602082015260400190565b600060405180830381600087803b1580156114e057600080fd5b505af11580156114f4573d6000803e3d6000fd5b50505050611514846000015185602001518360c001518460e00151612d49565b6101008101511561158b5783516007546101008301516040516364a197f360e01b81526001600160a01b03938416936364a197f39361155893911691600401615836565b600060405180830381600087803b15801561157257600080fd5b505af1158015611586573d6000803e3d6000fd5b505050505b61159d84600001518260400151612f75565b60208101516060830152610100810151604082015182516115be91906157c8565b6115c891906157c8565b6080838101829052606080850151604085810151868401518251938452602084019690965290820152908101929092527f4152c73dd2614c4f9fc35e8c9cf16013cd588c75b49a4c1673ecffdcbcda9403910160405180910390a161163b846000015133836060015184604001516130c0565b5050505050565b6000610ff661164f61329d565b6137ed565b6003546001600160a01b031633146116ae5760405162461bcd60e51b815260206004820181905260248201527f4f776e61626c653a2063616c6c6572206973206e6f7420746865206f776e65726044820152606401610c0e565b601980546001600160a01b0319166001600160a01b0392909216919091179055565b60006116da612768565b6001600160a01b0383166000908152600e60205260408120600101546117019084906158bc565b6001600160a01b0385166000908152600e6020526040902060010181905591505092915050565b6019546001600160a01b0316331461173f57600080fd5b600280546001600160a01b0319166001600160a01b0392909216919091179055565b6015818154811061177157600080fd5b6000918252602090912001546001600160a01b0316905081565b6000805460408051632f5a97e560e11b8152905183926001600160a01b031691635eb52fca9160048083019260209291908290030181865afa1580156117d5573d6000803e3d6000fd5b505050506040513d601f19601f820116820180604052508101906117f991906157db565b90506000600160009054906101000a90046001600160a01b03166001600160a01b0316635eb52fca6040518163ffffffff1660e01b8152600401602060405180830381865afa158015611850573d6000803e3d6000fd5b505050506040513d601f19601f8201168201806040525081019061187491906157db565b9050611880828261383f565b9250505090565b6003546001600160a01b031633146118e15760405162461bcd60e51b815260206004820181905260248201527f4f776e61626c653a2063616c6c6572206973206e6f7420746865206f776e65726044820152606401610c0e565b6118ea8b61389e565b6118f38a61389e565b6118fc8961389e565b6119058861389e565b61190e8761389e565b6119178661389e565b6119208561389e565b6119298461389e565b6119328361389e565b61193b8261389e565b6119448161389e565b600480546001600160a01b03199081166001600160a01b038e8116919091179092556000805482168d84161790556001805482168c84161790556005805482168b84161790556006805482168a8416179055600780548216898416179055600280548216888416179055600880548216878416179055600b80548216868416179055600980548216858416179055600a8054909116838316179055601954166119fa57601980546001600160a01b031916331790555b6040516001600160a01b038c1681527f3ca631ffcd2a9b5d9ae18543fc82f58eb4ca33af9e6ab01b7a8e95331e6ed9859060200160405180910390a16040516001600160a01b038b1681527f78f058b189175430c48dc02699e3a0031ea4ff781536dc2fab847de4babdd8829060200160405180910390a16040516001600160a01b038a1681527f5ee0cae2f063ed938bb55046f6a932fb6ae792bf43624806bb90abe68a50be9b9060200160405180910390a16040516001600160a01b03891681527f82966d27eea39b038ee0fa30cd16532bb24f6e65d31cb58fb227aa5766cdcc7f9060200160405180910390a16040516001600160a01b03881681527fcfb07d791fcafc032b35837b50eb84b74df518cf4cc287e8084f47630fa70fa09060200160405180910390a16040516001600160a01b03871681527fe67f36a6e961157d6eff83b91f3af5a62131ceb6f04954ef74f51c1c05e7f88d9060200160405180910390a16040516001600160a01b03861681527f8c537274438aa850a330284665d81a85dd38267d09e4050d416bfc94142db2649060200160405180910390a16040516001600160a01b03851681527f227eec0ec317af6ab1a9587ffa1c84332522eb4c583a908f89babc05f8f339bd9060200160405180910390a16040516001600160a01b03841681527f65f4cf077bc01e4742eb5ad98326f6e95b63548ea24b17f8d5e823111fe788009060200160405180910390a16040516001600160a01b03831681527f2ac6e99201ddc1b6eac6f8f28662d1ecafee131f6eb98c29de54528a9888a7d19060200160405180910390a16040516001600160a01b03821681527f756ebc192164c295bba134b5aacd72cc7aff8098a670d1f0a5f6b3a0b4ce67079060200160405180910390a1611c96613943565b5050505050505050505050565b611cab612768565b610b178161398d565b6000805460408051630a7b61df60e11b8152905183926001600160a01b0316916314f6c3be9160048083019260209291908290030181865afa158015611cfe573d6000803e3d6000fd5b505050506040513d601f19601f82011682018060405250810190611d2291906157db565b90506000600160009054906101000a90046001600160a01b03166001600160a01b03166314f6c3be6040518163ffffffff1660e01b8152600401602060405180830381865afa158015611850573d6000803e3d6000fd5b6019546001600160a01b03163314611d9057600080fd5b601980546001600160a01b0319169055565b6000611dac612768565b6001600160a01b0383166000908152600e6020526040812054610b489084906158bc565b6000806000611dde846139f1565b915091506000611dee8383613a6d565b95945050505050565b6000610b6782613aa2565b6001600160a01b0381166000908152600e602052604081208054600190910154909180611e2e8561271e565b9150611e3985611170565b9050611e4582856158bc565b9350611e5181846158bc565b92509193509193565b6040805160e08082018352600080546001600160a01b0390811684526001548116602080860191909152600854821685870152600a548216606080870191909152600b548316608080880191909152600754841660a08089019190915260065490941660c080890191909152885161010081018a5286815293840186905297830185905290820184905281018390529081018290529384018190529083015290611f0383613ace565b611f0b613b95565b600260009054906101000a90046001600160a01b03166001600160a01b0316630fdb11cf6040518163ffffffff1660e01b81526004016020604051808303816000875af1158015611f60573d6000803e3d6000fd5b505050506040513d601f19601f82011682018060405250810190611f8491906157db565b60c08201819052611f9490613c87565b611f9d89613cfa565b611fac8260400151338b613d61565b611fb461178b565b60e0820181905260408381015190516370a0823160e01b81523360048201526001600160a01b03909116906370a0823190602401602060405180830381865afa158015612005573d6000803e3d6000fd5b505050506040513d601f19601f8201168201806040525081019061202991906157db565b1115612037576120376158a6565b888152608082015160c0820151600091612052918b90613e59565b1561205e57508761216f565b82608001516001600160a01b0316634d6228316040518163ffffffff1660e01b8152600401602060405180830381865afa1580156120a0573d6000803e3d6000fd5b505050506040513d601f19601f820116820180604052508101906120c491906158cf565b90505b6001600160a01b038116158015906120f35750670f43fc2c04ee00006120f1828460c00151612628565b105b1561216f576080830151604051632dc9c0eb60e21b81526001600160a01b0383811660048301529091169063b72703ac90602401602060405180830381865afa158015612144573d6000803e3d6000fd5b505050506040513d601f19601f8201168201806040525081019061216891906158cf565b90506120c7565b8460000361217d5760001994505b6001600160a01b038116158015906121955750815115155b80156121a15750600085115b156122b057846121b0816158ec565b6080850151604051632dc9c0eb60e21b81526001600160a01b0385811660048301529298506000935091169063b72703ac90602401602060405180830381865afa158015612202573d6000803e3d6000fd5b505050506040513d601f19601f8201168201806040525081019061222691906158cf565b905061223b84600001518560200151846127ea565b6000612254858486600001518760c001518e8e8e613f9e565b90508060400151156122675750506122b0565b8051602085015161227891906158bc565b602080860191909152810151604085015161229391906158bc565b6040850152805184516122a691906157c8565b845250905061217d565b60008260400151116123165760405162461bcd60e51b815260206004820152602960248201527f54726f76654d616e616765723a20556e61626c6520746f2072656465656d20616044820152681b9e48185b5bdd5b9d60ba1b6064820152608401610c0e565b61232d82604001518360c001518460e00151614239565b5061233b82604001516142dc565b60608301526040820151600090612351906142e9565b905061237183606001518261236691906158bc565b846040015187614310565b8351606080860151908501516040516364a197f360e01b81526001600160a01b03909316926364a197f3926123aa929091600401615836565b600060405180830381600087803b1580156123c457600080fd5b505af11580156123d8573d6000803e3d6000fd5b5050505083606001516001600160a01b0316631e3e2a1a84606001516040518263ffffffff1660e01b815260040161241291815260200190565b600060405180830381600087803b15801561242c57600080fd5b505af1158015612440573d6000803e3d6000fd5b5050506060840151604085015161245792506157c8565b8360800181815250507f43a3f4082a4dbc33d78e317d2497d3a730bc7fc3574159dcea1056e62e5d9ad88b8460200151856040015186606001516040516124b7949392919093845260208401929092526040830152606082015260800190565b60405180910390a183604001516001600160a01b0316639dc29fac3385602001516040518363ffffffff1660e01b81526004016124f5929190615836565b600060405180830381600087803b15801561250f57600080fd5b505af1158015612523573d6000803e3d6000fd5b50508551602086015160405163071b32b560e31b81526001600160a01b0390921693506338d995a8925061255d9160040190815260200190565b600060405180830381600087803b15801561257757600080fd5b505af115801561258b573d6000803e3d6000fd5b5050855160808601516040516364a197f360e01b81526001600160a01b0390921693506364a197f392506125c491339190600401615836565b600060405180830381600087803b1580156125de57600080fd5b505af11580156125f2573d6000803e3d6000fd5b505050505050505050505050505050565b6000610ff661261061329d565b6131a3565b61261d612768565b610b1781600261437a565b6000806000612636856139f1565b9150915060006112218383876144a4565b6000612651612768565b6001600160a01b0383166000908152600e60205260408120600101546117019084906157c8565b6000610b67612685612603565b836144ce565b6000601582815481106126a0576126a0615890565b6000918252602090912001546001600160a01b031692915050565b600060016001600160a01b0383166000908152600e602052604090206003015460ff1660048111156126ef576126ef6155be565b146126fc57506000919050565b506012546001600160a01b039091166000908152601460205260409020541090565b6001600160a01b03811660009081526014602052604081206001015460135482906111999083906157c8565b6000610ff6600c546137ed565b61275f612768565b610b178161455e565b6004546001600160a01b031633146127e85760405162461bcd60e51b815260206004820152603b60248201527f54726f76654d616e616765723a2043616c6c6572206973206e6f74207468652060448201527f426f72726f7765724f7065726174696f6e7320636f6e747261637400000000006064820152608401610c0e565b565b6127f3816126bb565b156128ed57612801816131e0565b600061280c82611170565b905060006128198361271e565b6001600160a01b0384166000908152600e60205260409020600101549091506128439083906158bc565b6001600160a01b0384166000908152600e6020526040902060018101919091555461286f9082906158bc565b6001600160a01b0384166000908152600e60205260409020556128918361398d565b61289d858583856145a9565b6001600160a01b0383166000818152600e60205260408082208054600182015460029092015492516000805160206159ba833981519152946128e29492939291615917565b60405180910390a250505b505050565b601580546001808201835560008381527f55f448fdea98c4d29eb340757ef0a66cd03dbb9538908a6a81d96026b71ec47590920180546001600160a01b0319166001600160a01b0386161790559154909161294c916157c8565b6001600160a01b03929092166000908152600e602052604090206003018054610100600160881b0319166101006001600160801b038516021790555090565b6001600160a01b0381166000908152600e602052604081206001015481906129b29061468a565b6001600160a01b0384166000908152600e60205260409020600201805490829055600f549192509082906129e79083906157c8565b6129f191906158bc565b600f8190556040519081527f6bac5e0eb3c44eb03a60ab11ec3a2c051771616aecadbcfff2630aabae5203829060200160405180910390a15092915050565b600080612a3c83613aa2565b6714d1120d7b160000119392505050565b612a556153c8565b612a5d615414565b612a656153c8565b84825260006080830152612a7761178b565b60a0830152612a84611cb4565b60c0830152600060208301525b835182602001511015612c6f5783826020015181518110612ab457612ab4615890565b6020908102919091018101516001600160a01b0316606084018190526000908152600e909152604090206003015460019060ff166004811115612af957612af96155be565b03612c5757612b0c826060015187612628565b60408301526080820151612c0057670f43fc2c04ee0000826040015110158015612b3557508151155b612c57576000612b4e8360c001518460a00151896144a4565b9050612b6b8989856060015186604001518760000151868d6146c0565b60808101518451919350612b7e916157c8565b8352608082015160a0840151612b9491906157c8565b8360a001818152505081610100015182604001518360a001518560c00151612bbc91906157c8565b612bc691906157c8565b612bd091906157c8565b60c0840152612bdf84836149df565b9350612bf48360c001518460a0015189614ac9565b15608084015250612c57565b81608001518015612c1c5750670f43fc2c04ee00008260400151105b15612c5757612c35888884606001518560000151614aea565b60808101518351919250612c48916157c8565b8252612c5483826149df565b92505b60208201805190612c6782615939565b905250612a91565b505095945050505050565b612c826153c8565b612c8a615414565b612c926153c8565b848252600060208301525b835182602001511015612c6f5783826020015181518110612cc057612cc0615890565b60209081029190910101516001600160a01b031660608301819052612ce59087612628565b60408301819052670f43fc2c04ee00001115612d3157612d0f888884606001518560000151614aea565b60808101518351919250612d22916157c8565b8252612d2e83826149df565b92505b60208201805190612d4182615939565b905250612c9d565b8115612f6f57601654600090612d67670de0b6b3a764000084615879565b612d7191906158bc565b90506000601754670de0b6b3a764000085612d8c9190615879565b612d9691906158bc565b90506000600f5483612da89190615865565b90506000600f5483612dba9190615865565b9050600f5482612dca9190615879565b612dd490856157c8565b601655600f54612de49082615879565b612dee90846157c8565b601755601254612dff9083906158bc565b601255601354612e109082906158bc565b60138190556012546040517f9f8bc8ab0daf5bceef75ecfd2085d1fcc6548c657ea970d9a23a60610d0737e392612e4e928252602082015260400190565b60405180910390a160405163071b32b560e31b8152600481018790526001600160a01b038916906338d995a890602401600060405180830381600087803b158015612e9857600080fd5b505af1158015612eac573d6000803e3d6000fd5b50506040516367dc994d60e11b8152600481018990526001600160a01b038a16925063cfb9329a9150602401600060405180830381600087803b158015612ef257600080fd5b505af1158015612f06573d6000803e3d6000fd5b50506040516364a197f360e01b81526001600160a01b038b1692506364a197f39150612f38908a908990600401615836565b600060405180830381600087803b158015612f5257600080fd5b505af1158015612f66573d6000803e3d6000fd5b50505050505050505b50505050565b600f546010819055506000826001600160a01b03166314f6c3be6040518163ffffffff1660e01b8152600401602060405180830381865afa158015612fbe573d6000803e3d6000fd5b505050506040513d601f19601f82011682018060405250810190612fe291906157db565b90506000600160009054906101000a90046001600160a01b03166001600160a01b03166314f6c3be6040518163ffffffff1660e01b8152600401602060405180830381865afa158015613039573d6000803e3d6000fd5b505050506040513d601f19601f8201168201806040525081019061305d91906157db565b90508061306a84846157c8565b61307491906158bc565b60118190556010546040517f51bf4c63ec3cba9d03d43238abbdd979dd91bd16d9895c74ceea9118c7baaf60926130b2928252602082015260400190565b60405180910390a150505050565b811561313757600854600654604051631062c15f60e11b81526001600160a01b0391821660048201528582166024820152604481018590529116906320c582be90606401600060405180830381600087803b15801561311e57600080fd5b505af1158015613132573d6000803e3d6000fd5b505050505b8015612f6f576040516364a197f360e01b81526001600160a01b038516906364a197f39061316b9086908590600401615836565b600060405180830381600087803b15801561318557600080fd5b505af1158015613199573d6000803e3d6000fd5b5050505050505050565b6000610b67826131bd6103e8670de0b6b3a7640000615865565b6131c8906005615879565b6131d291906158bc565b670de0b6b3a7640000614c43565b60016001600160a01b0382166000908152600e602052604090206003015460ff166004811115613212576132126155be565b14610b175760405162461bcd60e51b815260206004820152602f60248201527f54726f76654d616e616765723a2054726f766520646f6573206e6f742065786960448201526e1cdd081bdc881a5cc818db1bdcd959608a1b6064820152608401610c0e565b6000670de0b6b3a764000061328c8385615879565b6132969190615865565b9392505050565b6000806132a8614c59565b905060006132be670ddd4b8c6c7d70d883614c75565b9050670de0b6b3a764000081600c546132d79190615879565b6118809190615865565b6000600d54426132f191906157c8565b9050603c8110610b175742600d8190556040519081527f860f8d2f0c74dd487e89e2883e3b25b8159ce1e1b3433a291cba7b82c508f3bc906020015b60405180910390a150565b6133406153c8565b613348615414565b6133506153c8565b8482526000608083015261336261178b565b60a083015261336f611cb4565b8260c001818152505086608001516001600160a01b0316634d6228316040518163ffffffff1660e01b8152600401602060405180830381865afa1580156133ba573d6000803e3d6000fd5b505050506040513d601f19601f820116820180604052508101906133de91906158cf565b82606001906001600160a01b031690816001600160a01b031681525050600087608001516001600160a01b0316631e2231436040518163ffffffff1660e01b8152600401602060405180830381865afa15801561343f573d6000803e3d6000fd5b505050506040513d601f19601f8201168201806040525081019061346391906158cf565b6000602085015290505b8483602001511080156134965750806001600160a01b031683606001516001600160a01b031614155b156136b25760808801516060840151604051632dc9c0eb60e21b81526001600160a01b039182166004820152600092919091169063b72703ac90602401602060405180830381865afa1580156134f0573d6000803e3d6000fd5b505050506040513d601f19601f8201168201806040525081019061351491906158cf565b9050613524846060015189612628565b6040850152608084015161362357670f43fc2c04ee000084604001511015801561354d57508351155b1561355857506136b2565b600061356d8560c001518660a001518b6144a4565b8a5160208c015160608801516040890151895194955061358e94868f6146c0565b608081015186519195506135a1916157c8565b8552608084015160a08601516135b791906157c8565b8560a001818152505083610100015184604001518560a001518760c001516135df91906157c8565b6135e991906157c8565b6135f391906157c8565b60c086015261360286856149df565b95506136178560c001518660a001518b614ac9565b1560808601525061368c565b8360800151801561363f5750670f43fc2c04ee00008460400151105b156136865761366089600001518a6020015186606001518760000151614aea565b60808101518551919450613673916157c8565b845261367f85846149df565b945061368c565b506136b2565b6001600160a01b03166060840152602083018051906136aa82615939565b90525061346d565b505050949350505050565b6136c56153c8565b6136cd615414565b6136d56153c8565b600b54858352600060208401526001600160a01b03165b84836020015110156137e157806001600160a01b0316634d6228316040518163ffffffff1660e01b8152600401602060405180830381865afa158015613736573d6000803e3d6000fd5b505050506040513d601f19601f8201168201806040525081019061375a91906158cf565b6001600160a01b0316606084018190526137749088612628565b60408401819052670f43fc2c04ee000011156137c45761379e898985606001518660000151614aea565b608081015184519193506137b1916157c8565b83526137bd84836149df565b93506137c9565b6137e1565b602083018051906137d982615939565b9052506136ec565b50505095945050505050565b6000610b67826138076103e8670de0b6b3a7640000615865565b613812906005615879565b61381c91906158bc565b61382f6064670de0b6b3a7640000615865565b61383a906005615879565b614c43565b60008061384c83856158bc565b9050838110156132965760405162461bcd60e51b815260206004820152601b60248201527f536166654d6174683a206164646974696f6e206f766572666c6f7700000000006044820152606401610c0e565b6001600160a01b0381166138f45760405162461bcd60e51b815260206004820152601e60248201527f4163636f756e742063616e6e6f74206265207a65726f206164647265737300006044820152606401610c0e565b803b806110635760405162461bcd60e51b815260206004820181905260248201527f4163636f756e7420636f64652073697a652063616e6e6f74206265207a65726f6044820152606401610c0e565b6003546040516000916001600160a01b0316907f8be0079c531659141344cd1fd0a4f28419497f9722a3daafe3b4186f6b6457e0908390a3600380546001600160a01b0319169055565b601280546001600160a01b038316600090815260146020526040908190209182556013546001909201829055915491517fc437f324d85e369394148dd9d62f98f534b382e01ed3dd2eb98138fb6d3ab49a9261332d92908252602082015260400190565b60008060006139ff84611170565b90506000613a0c8561271e565b6001600160a01b0386166000908152600e602052604081206001015491925090613a379084906158bc565b6001600160a01b0387166000908152600e602052604081205491925090613a5f9084906158bc565b919791965090945050505050565b60008115613a9957613a9282613a8c8568056bc75e2d63100000614d19565b90614d9b565b9050610b67565b50600019610b67565b600080613aad611cb4565b90506000613ab961178b565b9050613ac68282866144a4565b949350505050565b601854613ae56103e8670de0b6b3a7640000615865565b613af0906005615879565b613afa91906158bc565b8110158015613b115750670de0b6b3a76400008111155b610b175760405162461bcd60e51b815260206004820152604960248201527f4d6178206665652070657263656e74616765206d75737420626520626574776560448201527f656e2028302e3525202b20726564656d7074696f6e526577617264526174652960648201526820616e64203130302560b81b608482015260a401610c0e565b60095460408051631e425be160e11b815290516000926001600160a01b031691633c84b7c29160048083019260209291908290030181865afa158015613bdf573d6000803e3d6000fd5b505050506040513d601f19601f82011682018060405250810190613c0391906157db565b9050613c106000826158bc565b421015610b17576040805162461bcd60e51b81526020600482015260248101919091527f54726f76654d616e616765723a20526564656d7074696f6e7320617265206e6f60448201527f7420616c6c6f77656420647572696e6720626f6f7473747261702070686173656064820152608401610c0e565b670f43fc2c04ee0000613c9982613aa2565b1015610b175760405162461bcd60e51b815260206004820152602a60248201527f54726f76654d616e616765723a2043616e6e6f742072656465656d207768656e604482015269102a21a9101e1026a1a960b11b6064820152608401610c0e565b60008111610b175760405162461bcd60e51b815260206004820152602e60248201527f54726f76654d616e616765723a20416d6f756e74206d7573742062652067726560448201526d61746572207468616e207a65726f60901b6064820152608401610c0e565b6040516370a0823160e01b81526001600160a01b0383811660048301528291908516906370a0823190602401602060405180830381865afa158015613daa573d6000803e3d6000fd5b505050506040513d601f19601f82011682018060405250810190613dce91906157db565b10156128ed5760405162461bcd60e51b815260206004820152604e60248201527f54726f76654d616e616765723a2052657175657374656420726564656d70746960448201527f6f6e20616d6f756e74206d757374206265203c3d20757365722773204c55534460648201526d20746f6b656e2062616c616e636560901b608482015260a401610c0e565b60006001600160a01b0383161580613ed85750604051630bb7c8fd60e31b81526001600160a01b038481166004830152851690635dbe47e890602401602060405180830381865afa158015613eb2573d6000803e3d6000fd5b505050506040513d601f19601f82011682018060405250810190613ed69190615952565b155b80613ef35750670f43fc2c04ee0000613ef18484612628565b105b15613f0057506000613296565b60405163765e015960e01b81526001600160a01b0384811660048301526000919086169063765e015990602401602060405180830381865afa158015613f4a573d6000803e3d6000fd5b505050506040513d601f19601f82011682018060405250810190613f6e91906158cf565b90506001600160a01b0381161580611dee5750670f43fc2c04ee0000613f948285612628565b1095945050505050565b613fc4604051806060016040528060008152602001600081526020016000151581525090565b6001600160a01b0387166000908152600e6020526040902054613ff790879061383a906801158e460913d00000906157c8565b8152601854859061401090670de0b6b3a76400006157c8565b825161401c9190615879565b6140269190615865565b60208083019190915281516001600160a01b0389166000908152600e909252604082205461405491906157c8565b6020808401516001600160a01b038b166000908152600e9092526040822060010154929350909161408591906157c8565b90506801158e460913d0000082036140fd576140a08961455e565b6140ab89600461437a565b6140c08a8a6801158e460913d0000084614ddd565b886001600160a01b03166000805160206159ba833981519152600080600060036040516140f09493929190615917565b60405180910390a261422b565b60006141098284613a6d565b9050848114158061412a57506809c2007651b250000061412884614f3c565b105b1561413e575050600160408301525061422e565b60808b015160405163015f109360e51b81526001600160a01b038c81166004830152602482018490528981166044830152888116606483015290911690632be2126090608401600060405180830381600087803b15801561419e57600080fd5b505af11580156141b2573d6000803e3d6000fd5b5050506001600160a01b038b166000908152600e60205260409020848155600101839055506141e08a61298b565b506001600160a01b038a166000818152600e6020526040908190206002015490516000805160206159ba833981519152916142219187918791600390615917565b60405180910390a2505b50505b979650505050505050565b60008061424461329d565b90506000836142538688615879565b61425d9190615865565b9050600061426c600283615865565b61427690846158bc565b905061428a81670de0b6b3a7640000614c43565b90506000811161429c5761429c6158a6565b600c8190556040518181527fc454ee9b76c52f782a256af821b857ca6e125d1e3333bcede402fec2bed9600c9060200160405180910390a16112216132e1565b6000610b67612685610fe9565b600080601854670de0b6b3a764000061430291906157c8565b8360185461328c9190615879565b600061432883613a8c86670de0b6b3a7640000614d19565b905081811115612f6f5760405162461bcd60e51b815260206004820152601d60248201527f4665652065786365656465642070726f7669646564206d6178696d756d0000006044820152606401610c0e565b600081600481111561438e5761438e6155be565b141580156143ae575060018160048111156143ab576143ab6155be565b14155b6143ba576143ba6158a6565b6015546143c681614f51565b6001600160a01b0383166000908152600e60205260409020600301805483919060ff191660018360048111156143fe576143fe6155be565b02179055506001600160a01b0383166000908152600e60209081526040808320600180820185905590849055601490925282208281550155614440838261502b565b600b54604051631484968760e11b81526001600160a01b038581166004830152909116906329092d0e90602401600060405180830381600087803b15801561448757600080fd5b505af115801561449b573d6000803e3d6000fd5b50505050505050565b600082156144c55760006144bc84613a8c8786614d19565b91506132969050565b50600019613296565b600080670de0b6b3a76400006144e48486615879565b6144ee9190615865565b90508281106132965760405162461bcd60e51b815260206004820152603660248201527f54726f76654d616e616765723a2046656520776f756c642065617420757020616044820152751b1b081c995d1d5c9b99590818dbdb1b185d195c985b60521b6064820152608401610c0e565b6001600160a01b0381166000908152600e6020526040902060020154600f546145889082906157c8565b600f55506001600160a01b03166000908152600e6020526040812060020155565b60405163071b32b560e31b8152600481018390526001600160a01b038416906338d995a890602401600060405180830381600087803b1580156145eb57600080fd5b505af11580156145ff573d6000803e3d6000fd5b50506040516367dc994d60e11b8152600481018590526001600160a01b038716925063cfb9329a9150602401600060405180830381600087803b15801561464557600080fd5b505af1158015614659573d6000803e3d6000fd5b505060405163be41205f60e01b8152600481018490526001600160a01b038616925063be41205f915060240161316b565b60008060115460000361469e575081610b67565b6000601054116146b0576146b06158a6565b60115460105461328c9085615879565b6146c86153c8565b6146ec60405180606001604052806000815260200160008152602001600081525090565b6015546001106146fc575061422e565b61470587611e02565b60408501526020848101919091528401819052908352614724906151fb565b604083018190526801158e460913d000006060840152602083015161474991906157c8565b8152670de0b6b3a764000086116148265761476e8989836020015184604001516145a9565b6147778761455e565b60006080830181905260a0830152815160c0830152805160e083015261479e87600361437a565b815160208301516040516001600160a01b038a16927fea67486ed7ebe3eea8ab3390efd4a3c8aae48be5bea27df104a8af786c408434926147e192600290615974565b60405180910390a2866001600160a01b03166000805160206159ba833981519152600080600060026040516148199493929190615917565b60405180910390a26149d3565b670de0b6b3a7640000861180156148445750670f43fc2c04ee000086105b156148945761485d8989836020015184604001516145a9565b6148668761455e565b81518151614875919087615208565b60e086015260c085015260a0840152608083015261479e87600361437a565b670f43fc2c04ee000086101580156148ab57508386105b80156148b8575081518510155b156149c2576148d18989836020015184604001516145a9565b846000036148e1576148e16158a6565b6148ea8761455e565b6148fd8260000151836020015185615269565b915061490a87600361437a565b6101008201511561497f57600754610100830151604051633f10abab60e01b81526001600160a01b0390921691633f10abab9161494c918b9190600401615836565b600060405180830381600087803b15801561496657600080fd5b505af115801561497a573d6000803e3d6000fd5b505050505b815160a08301516040516001600160a01b038a16927fea67486ed7ebe3eea8ab3390efd4a3c8aae48be5bea27df104a8af786c408434926147e192600290615974565b6149ca6153c8565b915061422e9050565b50979650505050505050565b6149e76153c8565b816040015183604001516149fb91906158bc565b604082015260608083015190840151614a1491906158bc565b606082015281516020840151614a2a91906158bc565b6020808301919091528201518351614a4291906158bc565b815260808083015190840151614a5891906158bc565b608082015260a08083015190840151614a7191906158bc565b60a082015260c08083015190840151614a8a91906158bc565b60c082015260e08083015190840151614aa391906158bc565b60e08201526101008083015190840151614abd91906158bc565b61010082015292915050565b600080614ad78585856144a4565b6714d1120d7b1600001195945050505050565b614af26153c8565b614b1660405180606001604052806000815260200160008152602001600081525090565b614b1f84611e02565b60408501908152602085810192835286019290925291845290519051614b499188918891906145a9565b614b528461455e565b614b5f82602001516151fb565b604083018190526801158e460913d0000060608401526020830151600091614b86916157c8565b9050614b9783600001518286615208565b60e087015260c086015260a08501526080840152614bb685600361437a565b825160208401516040516001600160a01b038816927fea67486ed7ebe3eea8ab3390efd4a3c8aae48be5bea27df104a8af786c40843492614bf992600190615974565b60405180910390a2846001600160a01b03166000805160206159ba83398151915260008060006001604051614c319493929190615917565b60405180910390a25050949350505050565b6000818310614c525781613296565b5090919050565b6000603c600d5442614c6b91906157c8565b610ff69190615865565b6000631f540500821115614c8b57631f54050091505b81600003614ca25750670de0b6b3a7640000610b67565b670de0b6b3a764000083835b6001811115614d0f57614cc260028261598f565b600003614ce757614cd382836152f7565b9150614ce0816002614d9b565b9050614cae565b614cf182846152f7565b9250614cfd82836152f7565b9150614ce06002613a8c836001615327565b61122182846152f7565b600082600003614d2b57506000610b67565b6000614d378385615879565b905082614d448583615865565b146132965760405162461bcd60e51b815260206004820152602160248201527f536166654d6174683a206d756c7469706c69636174696f6e206f766572666c6f6044820152607760f81b6064820152608401610c0e565b600061329683836040518060400160405280601a81526020017f536166654d6174683a206469766973696f6e206279207a65726f000000000000815250615369565b6040808501516006549151632770a7eb60e21b81526001600160a01b0391821692639dc29fac92614e15929116908690600401615836565b600060405180830381600087803b158015614e2f57600080fd5b505af1158015614e43573d6000803e3d6000fd5b5050855160405163071b32b560e31b8152600481018690526001600160a01b0390911692506338d995a89150602401600060405180830381600087803b158015614e8c57600080fd5b505af1158015614ea0573d6000803e3d6000fd5b505050508360a001516001600160a01b0316633f10abab84836040518363ffffffff1660e01b8152600401614ed6929190615836565b600060405180830381600087803b158015614ef057600080fd5b505af1158015614f04573d6000803e3d6000fd5b5050855160a08701516040516364a197f360e01b81526001600160a01b0390921693506364a197f3925061316b918590600401615836565b6000610b67826801158e460913d00000615327565b600181118015614fcc5750600b546040805163de8fa43160e01b815290516001926001600160a01b03169163de8fa4319160048083019260209291908290030181865afa158015614fa6573d6000803e3d6000fd5b505050506040513d601f19601f82011682018060405250810190614fca91906157db565b115b610b175760405162461bcd60e51b815260206004820152602a60248201527f54726f76654d616e616765723a204f6e6c79206f6e652074726f766520696e206044820152697468652073797374656d60b01b6064820152608401610c0e565b6001600160a01b0382166000908152600e602052604081206003015460ff169081600481111561505d5761505d6155be565b1415801561507d5750600181600481111561507a5761507a6155be565b14155b615089576150896158a6565b6001600160a01b0383166000908152600e602052604081206003015461010090046001600160801b03169083906150c16001836157c8565b905080836001600160801b031611156150dc576150dc6158a6565b6000601582815481106150f1576150f1615890565b600091825260209091200154601580546001600160a01b03909216925082916001600160801b03871690811061512957615129615890565b600091825260208083209190910180546001600160a01b0319166001600160a01b03948516179055918316808252600e83526040918290206003018054610100600160881b0319166101006001600160801b038a16908102919091179091558251918252928101929092527f02b04ae5f7be9ca7c103293a2aa15f3c339d15d6eda53b721fef7b0e609c831a910160405180910390a160158054806151d0576151d06159a3565b600082815260209020810160001990810180546001600160a01b031916905501905550505050505050565b6000610b6760c883615865565b600080808084156152535761521d8786614c43565b93508661522a8588615879565b6152349190615865565b925061524084886157c8565b915061524c83876157c8565b9050615260565b5060009250829150859050845b93509350935093565b6152716153c8565b83815260208101839052600082615290670f43fc2c04ee000087615879565b61529a9190615865565b90506152a5816151fb565b604083018190526801158e460913d000006060840152608083018690526152cc90826157c8565b60a08301526152db81856157c8565b61010083015250600060c0820181905260e08201529392505050565b6000806153048484614d19565b9050613ac6670de0b6b3a7640000613a8c615320600283615865565b849061383f565b600061329683836040518060400160405280601e81526020017f536166654d6174683a207375627472616374696f6e206f766572666c6f770000815250615397565b6000818361538a5760405162461bcd60e51b8152600401610c0e91906156f6565b506000611dee8486615865565b600081848411156153bb5760405162461bcd60e51b8152600401610c0e91906156f6565b506000611dee84866157c8565b6040518061012001604052806000815260200160008152602001600081526020016000815260200160008152602001600081526020016000815260200160008152602001600081525090565b6040518060e0016040528060008152602001600081526020016000815260200160006001600160a01b0316815260200160001515815260200160008152602001600081525090565b6001600160a01b0381168114610b1757600080fd5b803561547c8161545c565b919050565b60006020828403121561549357600080fd5b81356132968161545c565b600080604083850312156154b157600080fd5b82356154bc8161545c565b946020939093013593505050565b634e487b7160e01b600052604160045260246000fd5b600060208083850312156154f357600080fd5b823567ffffffffffffffff8082111561550b57600080fd5b818501915085601f83011261551f57600080fd5b813581811115615531576155316154ca565b8060051b604051601f19603f83011681018181108582111715615556576155566154ca565b60405291825284820192508381018501918883111561557457600080fd5b938501935b828510156155995761558a85615471565b84529385019392850192615579565b98975050505050505050565b6000602082840312156155b757600080fd5b5035919050565b634e487b7160e01b600052602160045260246000fd5b858152602081018590526040810184905260a08101600584106155f9576155f96155be565b8360608301526001600160801b03831660808301529695505050505050565b60008060008060008060008060008060006101608c8e03121561563a57600080fd5b8b356156458161545c565b9a5060208c01356156558161545c565b995060408c01356156658161545c565b985060608c01356156758161545c565b975060808c01356156858161545c565b965060a08c01356156958161545c565b955060c08c01356156a58161545c565b945060e08c01356156b58161545c565b93506101008c01356156c68161545c565b92506156d56101208d01615471565b91506156e46101408d01615471565b90509295989b509295989b9093969950565b600060208083528351808285015260005b8181101561572357858101830151858201604001528201615707565b506000604082860101526040601f19601f8301168501019250505092915050565b600080600080600080600060e0888a03121561575f57600080fd5b8735965060208801356157718161545c565b955060408801356157818161545c565b945060608801356157918161545c565b9699959850939660808101359560a0820135955060c0909101359350915050565b634e487b7160e01b600052601160045260246000fd5b81810381811115610b6757610b676157b2565b6000602082840312156157ed57600080fd5b5051919050565b60208082526022908201527f54726f76654d616e616765723a206e6f7468696e6720746f206c697175696461604082015261746560f01b606082015260800190565b6001600160a01b03929092168252602082015260400190565b634e487b7160e01b600052601260045260246000fd5b6000826158745761587461584f565b500490565b8082028115828204841417610b6757610b676157b2565b634e487b7160e01b600052603260045260246000fd5b634e487b7160e01b600052600160045260246000fd5b80820180821115610b6757610b676157b2565b6000602082840312156158e157600080fd5b81516132968161545c565b6000816158fb576158fb6157b2565b506000190190565b60048110615913576159136155be565b9052565b848152602081018490526040810183905260808101611dee6060830184615903565b60006001820161594b5761594b6157b2565b5060010190565b60006020828403121561596457600080fd5b8151801515811461329657600080fd5b8381526020810183905260608101613ac66040830184615903565b60008261599e5761599e61584f565b500690565b634e487b7160e01b600052603160045260246000fdfec3770d654ed33aeea6bf11ac8ef05d02a6a04ed4686dd2f624d853bbec43cc8ba26469706673582212200ccdc4008ce35ff0adb499873c7ab78fcd9e478074f2328e96c5e201f1950ca064736f6c63430008140033",
			"opcodes": "PUSH1 0x80 PUSH1 0x40 MSTORE CALLVALUE DUP1 ISZERO PUSH2 0x10 JUMPI PUSH1 0x0 DUP1 REVERT JUMPDEST POP PUSH1 0x3 DUP1 SLOAD PUSH1 0x1 PUSH1 0x1 PUSH1 0xA0 SHL SUB NOT AND CALLER SWAP1 DUP2 OR SWAP1 SWAP2 SSTORE PUSH1 0x40 MLOAD PUSH1 0x0 SWAP1 PUSH32 0x8BE0079C531659141344CD1FD0A4F28419497F9722A3DAAFE3B4186F6B6457E0 SWAP1 DUP3 SWAP1 LOG3 PUSH2 0x5A0F DUP1 PUSH3 0x61 PUSH1 0x0 CODECOPY PUSH1 0x0 RETURN INVALID PUSH1 0x80 PUSH1 0x40 MSTORE CALLVALUE DUP1 ISZERO PUSH2 0x10 JUMPI PUSH1 0x0 DUP1 REVERT JUMPDEST POP PUSH1 0x4 CALLDATASIZE LT PUSH2 0x4B7 JUMPI PUSH1 0x0 CALLDATALOAD PUSH1 0xE0 SHR DUP1 PUSH4 0x794E5724 GT PUSH2 0x278 JUMPI DUP1 PUSH4 0xB82F263D GT PUSH2 0x15C JUMPI DUP1 PUSH4 0xD3D6F843 GT PUSH2 0xCE JUMPI DUP1 PUSH4 0xE2AC77B0 GT PUSH2 0x92 JUMPI DUP1 PUSH4 0xE2AC77B0 EQ PUSH2 0xA9E JUMPI DUP1 PUSH4 0xF34862DE EQ PUSH2 0xAB1 JUMPI DUP1 PUSH4 0xF36B2425 EQ PUSH2 0xAC4 JUMPI DUP1 PUSH4 0xF851A440 EQ PUSH2 0xACC JUMPI DUP1 PUSH4 0xF92D3433 EQ PUSH2 0x5F7 JUMPI DUP1 PUSH4 0xFE2BA848 EQ PUSH2 0xADF JUMPI PUSH1 0x0 DUP1 REVERT JUMPDEST DUP1 PUSH4 0xD3D6F843 EQ PUSH2 0xA33 JUMPI DUP1 PUSH4 0xD5B35635 EQ PUSH2 0xA46 JUMPI DUP1 PUSH4 0xD66A2553 EQ PUSH2 0xA59 JUMPI DUP1 PUSH4 0xD9A72444 EQ PUSH2 0xA82 JUMPI DUP1 PUSH4 0xDBA1C5F2 EQ PUSH2 0xA95 JUMPI PUSH1 0x0 DUP1 REVERT JUMPDEST DUP1 PUSH4 0xC35BC550 GT PUSH2 0x120 JUMPI DUP1 PUSH4 0xC35BC550 EQ PUSH2 0x9E5 JUMPI DUP1 PUSH4 0xC52861F2 EQ PUSH2 0x9ED JUMPI DUP1 PUSH4 0xC7B55481 EQ PUSH2 0x9F5 JUMPI DUP1 PUSH4 0xCBD138AE EQ PUSH2 0xA04 JUMPI DUP1 PUSH4 0xD293C710 EQ PUSH2 0xA17 JUMPI DUP1 PUSH4 0xD380A37C EQ PUSH2 0xA2A JUMPI PUSH1 0x0 DUP1 REVERT JUMPDEST DUP1 PUSH4 0xB82F263D EQ PUSH2 0x970 JUMPI DUP1 PUSH4 0xB83F91A2 EQ PUSH2 0x983 JUMPI DUP1 PUSH4 0xB91AF97C EQ PUSH2 0x996 JUMPI DUP1 PUSH4 0xBCD37526 EQ PUSH2 0x9C9 JUMPI DUP1 PUSH4 0xBF9BEFB1 EQ PUSH2 0x9DC JUMPI PUSH1 0x0 DUP1 REVERT JUMPDEST DUP1 PUSH4 0x8DA5CB5B GT PUSH2 0x1F5 JUMPI DUP1 PUSH4 0xA20BAEE6 GT PUSH2 0x1B9 JUMPI DUP1 PUSH4 0xA20BAEE6 EQ PUSH2 0x7F3 JUMPI DUP1 PUSH4 0xA3A64017 EQ PUSH2 0x8EC JUMPI DUP1 PUSH4 0xA3F4DF7E EQ PUSH2 0x8FF JUMPI DUP1 PUSH4 0xAE918754 EQ PUSH2 0x937 JUMPI DUP1 PUSH4 0xB0D8E181 EQ PUSH2 0x94A JUMPI DUP1 PUSH4 0xB7F8CF9B EQ PUSH2 0x95D JUMPI PUSH1 0x0 DUP1 REVERT JUMPDEST DUP1 PUSH4 0x8DA5CB5B EQ PUSH2 0x8A3 JUMPI DUP1 PUSH4 0x8F32D59B EQ PUSH2 0x8B4 JUMPI DUP1 PUSH4 0x96D711FF EQ PUSH2 0x8C7 JUMPI DUP1 PUSH4 0x9976CF45 EQ PUSH2 0x8D0 JUMPI DUP1 PUSH4 0x9DD233D2 EQ PUSH2 0x8E3 JUMPI PUSH1 0x0 DUP1 REVERT JUMPDEST DUP1 PUSH4 0x807D138D GT PUSH2 0x23C JUMPI DUP1 PUSH4 0x807D138D EQ PUSH2 0x86E JUMPI DUP1 PUSH4 0x81C376CE EQ PUSH2 0x877 JUMPI DUP1 PUSH4 0x82FE3EB9 EQ PUSH2 0x880 JUMPI DUP1 PUSH4 0x887105D3 EQ PUSH2 0x893 JUMPI DUP1 PUSH4 0x8BAD0C0A EQ PUSH2 0x89B JUMPI PUSH1 0x0 DUP1 REVERT JUMPDEST DUP1 PUSH4 0x794E5724 EQ PUSH2 0x828 JUMPI DUP1 PUSH4 0x795D26C3 EQ PUSH2 0x837 JUMPI DUP1 PUSH4 0x797250E3 EQ PUSH2 0x83F JUMPI DUP1 PUSH4 0x7985C5E4 EQ PUSH2 0x848 JUMPI DUP1 PUSH4 0x7F7DDE4A EQ PUSH2 0x85B JUMPI PUSH1 0x0 DUP1 REVERT JUMPDEST DUP1 PUSH4 0x477D66CF GT PUSH2 0x39F JUMPI DUP1 PUSH4 0x631203B0 GT PUSH2 0x31C JUMPI DUP1 PUSH4 0x704B6C02 GT PUSH2 0x2E0 JUMPI DUP1 PUSH4 0x704B6C02 EQ PUSH2 0x7BA JUMPI DUP1 PUSH4 0x72423C17 EQ PUSH2 0x7CD JUMPI DUP1 PUSH4 0x724E78DA EQ PUSH2 0x7E0 JUMPI DUP1 PUSH4 0x72FE25AA EQ PUSH2 0x7F3 JUMPI DUP1 PUSH4 0x741BEF1A EQ PUSH2 0x802 JUMPI DUP1 PUSH4 0x756B253E EQ PUSH2 0x815 JUMPI PUSH1 0x0 DUP1 REVERT JUMPDEST DUP1 PUSH4 0x631203B0 EQ PUSH2 0x707 JUMPI DUP1 PUSH4 0x64CEE260 EQ PUSH2 0x71A JUMPI DUP1 PUSH4 0x653D46E7 EQ PUSH2 0x746 JUMPI DUP1 PUSH4 0x66CA4A21 EQ PUSH2 0x759 JUMPI DUP1 PUSH4 0x6EF64338 EQ PUSH2 0x761 JUMPI PUSH1 0x0 DUP1 REVERT JUMPDEST DUP1 PUSH4 0x5733D58F GT PUSH2 0x363 JUMPI DUP1 PUSH4 0x5733D58F EQ PUSH2 0x6C2 JUMPI DUP1 PUSH4 0x5D6B480F EQ PUSH2 0x6D1 JUMPI DUP1 PUSH4 0x5D8C9609 EQ PUSH2 0x6E4 JUMPI DUP1 PUSH4 0x5DBA4C4A EQ PUSH2 0x6F7 JUMPI DUP1 PUSH4 0x61EC893D EQ PUSH2 0x6FF JUMPI PUSH1 0x0 DUP1 REVERT JUMPDEST DUP1 PUSH4 0x477D66CF EQ PUSH2 0x650 JUMPI DUP1 PUSH4 0x480CD578 EQ PUSH2 0x663 JUMPI DUP1 PUSH4 0x4870DD9A EQ PUSH2 0x68F JUMPI DUP1 PUSH4 0x49EEFEEE EQ PUSH2 0x697 JUMPI DUP1 PUSH4 0x4E443D9E EQ PUSH2 0x69F JUMPI PUSH1 0x0 DUP1 REVERT JUMPDEST DUP1 PUSH4 0x1F68F20A GT PUSH2 0x438 JUMPI DUP1 PUSH4 0x28D28B5B GT PUSH2 0x3FC JUMPI DUP1 PUSH4 0x28D28B5B EQ PUSH2 0x5F7 JUMPI DUP1 PUSH4 0x2B11551A EQ PUSH2 0x5FF JUMPI DUP1 PUSH4 0x2E86BBD8 EQ PUSH2 0x607 JUMPI DUP1 PUSH4 0x2F865568 EQ PUSH2 0x617 JUMPI DUP1 PUSH4 0x3AFC9A2F EQ PUSH2 0x62A JUMPI DUP1 PUSH4 0x3CC74225 EQ PUSH2 0x63D JUMPI PUSH1 0x0 DUP1 REVERT JUMPDEST DUP1 PUSH4 0x1F68F20A EQ PUSH2 0x5B8 JUMPI DUP1 PUSH4 0x1F7AF3C3 EQ PUSH2 0x5C1 JUMPI DUP1 PUSH4 0x2160FEE3 EQ PUSH2 0x5D4 JUMPI DUP1 PUSH4 0x21E37801 EQ PUSH2 0x5DC JUMPI DUP1 PUSH4 0x24092669 EQ PUSH2 0x5EF JUMPI PUSH1 0x0 DUP1 REVERT JUMPDEST DUP1 PUSH4 0x15D549F1 GT PUSH2 0x47F JUMPI DUP1 PUSH4 0x15D549F1 EQ PUSH2 0x533 JUMPI DUP1 PUSH4 0x1673C79A EQ PUSH2 0x546 JUMPI DUP1 PUSH4 0x18F2817A EQ PUSH2 0x582 JUMPI DUP1 PUSH4 0x1BF43555 EQ PUSH2 0x595 JUMPI DUP1 PUSH4 0x1E8B1C2B EQ PUSH2 0x5A5 JUMPI PUSH1 0x0 DUP1 REVERT JUMPDEST DUP1 PUSH4 0x48C661D EQ PUSH2 0x4BC JUMPI DUP1 PUSH4 0x60D49A3 EQ PUSH2 0x4EC JUMPI DUP1 PUSH4 0x71A7541 EQ PUSH2 0x503 JUMPI DUP1 PUSH4 0xB076557 EQ PUSH2 0x50B JUMPI DUP1 PUSH4 0x12610E92 EQ PUSH2 0x520 JUMPI JUMPDEST PUSH1 0x0 DUP1 REVERT JUMPDEST PUSH1 0x5 SLOAD PUSH2 0x4CF SWAP1 PUSH1 0x1 PUSH1 0x1 PUSH1 0xA0 SHL SUB AND DUP2 JUMP JUMPDEST PUSH1 0x40 MLOAD PUSH1 0x1 PUSH1 0x1 PUSH1 0xA0 SHL SUB SWAP1 SWAP2 AND DUP2 MSTORE PUSH1 0x20 ADD JUMPDEST PUSH1 0x40 MLOAD DUP1 SWAP2 SUB SWAP1 RETURN JUMPDEST PUSH2 0x4F5 PUSH1 0x17 SLOAD DUP2 JUMP JUMPDEST PUSH1 0x40 MLOAD SWAP1 DUP2 MSTORE PUSH1 0x20 ADD PUSH2 0x4E3 JUMP JUMPDEST PUSH2 0x4F5 PUSH1 0x2 DUP2 JUMP JUMPDEST PUSH2 0x51E PUSH2 0x519 CALLDATASIZE PUSH1 0x4 PUSH2 0x5481 JUMP JUMPDEST PUSH2 0xAF2 JUMP JUMPDEST STOP JUMPDEST PUSH2 0x4F5 PUSH2 0x52E CALLDATASIZE PUSH1 0x4 PUSH2 0x549E JUMP JUMPDEST PUSH2 0xB1A JUMP JUMPDEST PUSH2 0x4F5 PUSH2 0x541 CALLDATASIZE PUSH1 0x4 PUSH2 0x5481 JUMP JUMPDEST PUSH2 0xB6D JUMP JUMPDEST PUSH2 0x56D PUSH2 0x554 CALLDATASIZE PUSH1 0x4 PUSH2 0x5481 JUMP JUMPDEST PUSH1 0x14 PUSH1 0x20 MSTORE PUSH1 0x0 SWAP1 DUP2 MSTORE PUSH1 0x40 SWAP1 KECCAK256 DUP1 SLOAD PUSH1 0x1 SWAP1 SWAP2 ADD SLOAD DUP3 JUMP JUMPDEST PUSH1 0x40 DUP1 MLOAD SWAP3 DUP4 MSTORE PUSH1 0x20 DUP4 ADD SWAP2 SWAP1 SWAP2 MSTORE ADD PUSH2 0x4E3 JUMP JUMPDEST PUSH2 0x4F5 PUSH2 0x590 CALLDATASIZE PUSH1 0x4 PUSH2 0x5481 JUMP JUMPDEST PUSH2 0xB8F JUMP JUMPDEST PUSH2 0x4F5 PUSH9 0x9C2007651B2500000 DUP2 JUMP JUMPDEST PUSH2 0x51E PUSH2 0x5B3 CALLDATASIZE PUSH1 0x4 PUSH2 0x54E0 JUMP JUMPDEST PUSH2 0xBA2 JUMP JUMPDEST PUSH2 0x4F5 PUSH1 0xC SLOAD DUP2 JUMP JUMPDEST PUSH1 0x9 SLOAD PUSH2 0x4CF SWAP1 PUSH1 0x1 PUSH1 0x1 PUSH1 0xA0 SHL SUB AND DUP2 JUMP JUMPDEST PUSH2 0x4F5 PUSH2 0xF66 JUMP JUMPDEST PUSH2 0x4F5 PUSH2 0x5EA CALLDATASIZE PUSH1 0x4 PUSH2 0x5481 JUMP JUMPDEST PUSH2 0xF87 JUMP JUMPDEST PUSH2 0x4F5 PUSH2 0xFB7 JUMP JUMPDEST PUSH2 0x4F5 PUSH2 0xFD5 JUMP JUMPDEST PUSH2 0x4F5 PUSH2 0xFE9 JUMP JUMPDEST PUSH2 0x4F5 PUSH9 0x1158E460913D00000 DUP2 JUMP JUMPDEST PUSH2 0x51E PUSH2 0x625 CALLDATASIZE PUSH1 0x4 PUSH2 0x5481 JUMP JUMPDEST PUSH2 0xFFB JUMP JUMPDEST PUSH2 0x51E PUSH2 0x638 CALLDATASIZE PUSH1 0x4 PUSH2 0x55A5 JUMP JUMPDEST PUSH2 0x1067 JUMP JUMPDEST PUSH1 0x1 SLOAD PUSH2 0x4CF SWAP1 PUSH1 0x1 PUSH1 0x1 PUSH1 0xA0 SHL SUB AND DUP2 JUMP JUMPDEST PUSH2 0x4F5 PUSH2 0x65E CALLDATASIZE PUSH1 0x4 PUSH2 0x55A5 JUMP JUMPDEST PUSH2 0x10FA JUMP JUMPDEST PUSH2 0x4F5 PUSH2 0x671 CALLDATASIZE PUSH1 0x4 PUSH2 0x5481 JUMP JUMPDEST PUSH1 0x1 PUSH1 0x1 PUSH1 0xA0 SHL SUB AND PUSH1 0x0 SWAP1 DUP2 MSTORE PUSH1 0xE PUSH1 0x20 MSTORE PUSH1 0x40 SWAP1 KECCAK256 PUSH1 0x1 ADD SLOAD SWAP1 JUMP JUMPDEST PUSH2 0x4F5 PUSH1 0xC8 DUP2 JUMP JUMPDEST PUSH1 0x15 SLOAD PUSH2 0x4F5 JUMP JUMPDEST PUSH2 0x6B2 PUSH2 0x6AD CALLDATASIZE PUSH1 0x4 PUSH2 0x55A5 JUMP JUMPDEST PUSH2 0x110D JUMP JUMPDEST PUSH1 0x40 MLOAD SWAP1 ISZERO ISZERO DUP2 MSTORE PUSH1 0x20 ADD PUSH2 0x4E3 JUMP JUMPDEST PUSH2 0x4F5 PUSH8 0x14D1120D7B160000 DUP2 JUMP JUMPDEST PUSH2 0x51E PUSH2 0x6DF CALLDATASIZE PUSH1 0x4 PUSH2 0x549E JUMP JUMPDEST PUSH2 0x1118 JUMP JUMPDEST PUSH2 0x4F5 PUSH2 0x6F2 CALLDATASIZE PUSH1 0x4 PUSH2 0x5481 JUMP JUMPDEST PUSH2 0x1170 JUMP JUMPDEST PUSH2 0x51E PUSH2 0x122B JUMP JUMPDEST PUSH2 0x4F5 PUSH1 0x3C DUP2 JUMP JUMPDEST PUSH2 0x4F5 PUSH2 0x715 CALLDATASIZE PUSH1 0x4 PUSH2 0x55A5 JUMP JUMPDEST PUSH2 0x1297 JUMP JUMPDEST PUSH2 0x4F5 PUSH2 0x728 CALLDATASIZE PUSH1 0x4 PUSH2 0x5481 JUMP JUMPDEST PUSH1 0x1 PUSH1 0x1 PUSH1 0xA0 SHL SUB AND PUSH1 0x0 SWAP1 DUP2 MSTORE PUSH1 0xE PUSH1 0x20 MSTORE PUSH1 0x40 SWAP1 KECCAK256 PUSH1 0x2 ADD SLOAD SWAP1 JUMP JUMPDEST PUSH2 0x51E PUSH2 0x754 CALLDATASIZE PUSH1 0x4 PUSH2 0x55A5 JUMP JUMPDEST PUSH2 0x12A4 JUMP JUMPDEST PUSH2 0x4F5 PUSH2 0x1642 JUMP JUMPDEST PUSH2 0x7A9 PUSH2 0x76F CALLDATASIZE PUSH1 0x4 PUSH2 0x5481 JUMP JUMPDEST PUSH1 0xE PUSH1 0x20 MSTORE PUSH1 0x0 SWAP1 DUP2 MSTORE PUSH1 0x40 SWAP1 KECCAK256 DUP1 SLOAD PUSH1 0x1 DUP3 ADD SLOAD PUSH1 0x2 DUP4 ADD SLOAD PUSH1 0x3 SWAP1 SWAP4 ADD SLOAD SWAP2 SWAP3 SWAP1 SWAP2 PUSH1 0xFF DUP2 AND SWAP1 PUSH2 0x100 SWAP1 DIV PUSH1 0x1 PUSH1 0x1 PUSH1 0x80 SHL SUB AND DUP6 JUMP JUMPDEST PUSH1 0x40 MLOAD PUSH2 0x4E3 SWAP6 SWAP5 SWAP4 SWAP3 SWAP2 SWAP1 PUSH2 0x55D4 JUMP JUMPDEST PUSH2 0x51E PUSH2 0x7C8 CALLDATASIZE PUSH1 0x4 PUSH2 0x5481 JUMP JUMPDEST PUSH2 0x1654 JUMP JUMPDEST PUSH2 0x4F5 PUSH2 0x7DB CALLDATASIZE PUSH1 0x4 PUSH2 0x549E JUMP JUMPDEST PUSH2 0x16D0 JUMP JUMPDEST PUSH2 0x51E PUSH2 0x7EE CALLDATASIZE PUSH1 0x4 PUSH2 0x5481 JUMP JUMPDEST PUSH2 0x1728 JUMP JUMPDEST PUSH2 0x4F5 PUSH8 0xDE0B6B3A7640000 DUP2 JUMP JUMPDEST PUSH1 0x2 SLOAD PUSH2 0x4CF SWAP1 PUSH1 0x1 PUSH1 0x1 PUSH1 0xA0 SHL SUB AND DUP2 JUMP JUMPDEST PUSH2 0x4CF PUSH2 0x823 CALLDATASIZE PUSH1 0x4 PUSH2 0x55A5 JUMP JUMPDEST PUSH2 0x1761 JUMP JUMPDEST PUSH2 0x4F5 PUSH8 0xF43FC2C04EE0000 DUP2 JUMP JUMPDEST PUSH2 0x4F5 PUSH2 0x178B JUMP JUMPDEST PUSH2 0x4F5 PUSH1 0x16 SLOAD DUP2 JUMP JUMPDEST PUSH2 0x51E PUSH2 0x856 CALLDATASIZE PUSH1 0x4 PUSH2 0x5618 JUMP JUMPDEST PUSH2 0x1887 JUMP JUMPDEST PUSH1 0x0 SLOAD PUSH2 0x4CF SWAP1 PUSH1 0x1 PUSH1 0x1 PUSH1 0xA0 SHL SUB AND DUP2 JUMP JUMPDEST PUSH2 0x4F5 PUSH1 0x10 SLOAD DUP2 JUMP JUMPDEST PUSH2 0x4F5 PUSH1 0x18 SLOAD DUP2 JUMP JUMPDEST PUSH2 0x51E PUSH2 0x88E CALLDATASIZE PUSH1 0x4 PUSH2 0x5481 JUMP JUMPDEST PUSH2 0x1CA3 JUMP JUMPDEST PUSH2 0x4F5 PUSH2 0x1CB4 JUMP JUMPDEST PUSH2 0x51E PUSH2 0x1D79 JUMP JUMPDEST PUSH1 0x3 SLOAD PUSH1 0x1 PUSH1 0x1 PUSH1 0xA0 SHL SUB AND PUSH2 0x4CF JUMP JUMPDEST PUSH1 0x3 SLOAD PUSH1 0x1 PUSH1 0x1 PUSH1 0xA0 SHL SUB AND CALLER EQ PUSH2 0x6B2 JUMP JUMPDEST PUSH2 0x4F5 PUSH1 0x11 SLOAD DUP2 JUMP JUMPDEST PUSH2 0x4F5 PUSH2 0x8DE CALLDATASIZE PUSH1 0x4 PUSH2 0x549E JUMP JUMPDEST PUSH2 0x1DA2 JUMP JUMPDEST PUSH2 0x4F5 PUSH1 0x12 SLOAD DUP2 JUMP JUMPDEST PUSH1 0xA SLOAD PUSH2 0x4CF SWAP1 PUSH1 0x1 PUSH1 0x1 PUSH1 0xA0 SHL SUB AND DUP2 JUMP JUMPDEST PUSH2 0x92A PUSH1 0x40 MLOAD DUP1 PUSH1 0x40 ADD PUSH1 0x40 MSTORE DUP1 PUSH1 0xC DUP2 MSTORE PUSH1 0x20 ADD PUSH12 0x2A3937BB32A6B0B730B3B2B9 PUSH1 0xA1 SHL DUP2 MSTORE POP DUP2 JUMP JUMPDEST PUSH1 0x40 MLOAD PUSH2 0x4E3 SWAP2 SWAP1 PUSH2 0x56F6 JUMP JUMPDEST PUSH1 0xB SLOAD PUSH2 0x4CF SWAP1 PUSH1 0x1 PUSH1 0x1 PUSH1 0xA0 SHL SUB AND DUP2 JUMP JUMPDEST PUSH2 0x4F5 PUSH2 0x958 CALLDATASIZE PUSH1 0x4 PUSH2 0x5481 JUMP JUMPDEST PUSH2 0x1DD0 JUMP JUMPDEST PUSH1 0x4 SLOAD PUSH2 0x4CF SWAP1 PUSH1 0x1 PUSH1 0x1 PUSH1 0xA0 SHL SUB AND DUP2 JUMP JUMPDEST PUSH2 0x4F5 PUSH2 0x97E CALLDATASIZE PUSH1 0x4 PUSH2 0x55A5 JUMP JUMPDEST PUSH2 0x1DF7 JUMP JUMPDEST PUSH1 0x8 SLOAD PUSH2 0x4CF SWAP1 PUSH1 0x1 PUSH1 0x1 PUSH1 0xA0 SHL SUB AND DUP2 JUMP JUMPDEST PUSH2 0x9A9 PUSH2 0x9A4 CALLDATASIZE PUSH1 0x4 PUSH2 0x5481 JUMP JUMPDEST PUSH2 0x1E02 JUMP JUMPDEST PUSH1 0x40 DUP1 MLOAD SWAP5 DUP6 MSTORE PUSH1 0x20 DUP6 ADD SWAP4 SWAP1 SWAP4 MSTORE SWAP2 DUP4 ADD MSTORE PUSH1 0x60 DUP3 ADD MSTORE PUSH1 0x80 ADD PUSH2 0x4E3 JUMP JUMPDEST PUSH2 0x51E PUSH2 0x9D7 CALLDATASIZE PUSH1 0x4 PUSH2 0x5744 JUMP JUMPDEST PUSH2 0x1E5A JUMP JUMPDEST PUSH2 0x4F5 PUSH1 0xF SLOAD DUP2 JUMP JUMPDEST PUSH2 0x4F5 PUSH1 0x0 DUP2 JUMP JUMPDEST PUSH2 0x4F5 PUSH2 0x2603 JUMP JUMPDEST PUSH2 0x4F5 PUSH8 0xDDD4B8C6C7D70D8 DUP2 JUMP JUMPDEST PUSH2 0x51E PUSH2 0xA12 CALLDATASIZE PUSH1 0x4 PUSH2 0x5481 JUMP JUMPDEST PUSH2 0x2615 JUMP JUMPDEST PUSH2 0x4F5 PUSH2 0xA25 CALLDATASIZE PUSH1 0x4 PUSH2 0x549E JUMP JUMPDEST PUSH2 0x2628 JUMP JUMPDEST PUSH2 0x4F5 PUSH1 0xD SLOAD DUP2 JUMP JUMPDEST PUSH2 0x4F5 PUSH2 0xA41 CALLDATASIZE PUSH1 0x4 PUSH2 0x549E JUMP JUMPDEST PUSH2 0x2647 JUMP JUMPDEST PUSH2 0x4F5 PUSH2 0xA54 CALLDATASIZE PUSH1 0x4 PUSH2 0x55A5 JUMP JUMPDEST PUSH2 0x2678 JUMP JUMPDEST PUSH2 0x4F5 PUSH2 0xA67 CALLDATASIZE PUSH1 0x4 PUSH2 0x5481 JUMP JUMPDEST PUSH1 0x1 PUSH1 0x1 PUSH1 0xA0 SHL SUB AND PUSH1 0x0 SWAP1 DUP2 MSTORE PUSH1 0xE PUSH1 0x20 MSTORE PUSH1 0x40 SWAP1 KECCAK256 SLOAD SWAP1 JUMP JUMPDEST PUSH2 0x4CF PUSH2 0xA90 CALLDATASIZE PUSH1 0x4 PUSH2 0x55A5 JUMP JUMPDEST PUSH2 0x268B JUMP JUMPDEST PUSH2 0x4F5 PUSH1 0x13 SLOAD DUP2 JUMP JUMPDEST PUSH2 0x6B2 PUSH2 0xAAC CALLDATASIZE PUSH1 0x4 PUSH2 0x5481 JUMP JUMPDEST PUSH2 0x26BB JUMP JUMPDEST PUSH2 0x4F5 PUSH2 0xABF CALLDATASIZE PUSH1 0x4 PUSH2 0x5481 JUMP JUMPDEST PUSH2 0x271E JUMP JUMPDEST PUSH2 0x4F5 PUSH2 0x274A JUMP JUMPDEST PUSH1 0x19 SLOAD PUSH2 0x4CF SWAP1 PUSH1 0x1 PUSH1 0x1 PUSH1 0xA0 SHL SUB AND DUP2 JUMP JUMPDEST PUSH2 0x51E PUSH2 0xAED CALLDATASIZE PUSH1 0x4 PUSH2 0x5481 JUMP JUMPDEST PUSH2 0x2757 JUMP JUMPDEST PUSH2 0xAFA PUSH2 0x2768 JUMP JUMPDEST PUSH1 0x0 SLOAD PUSH1 0x1 SLOAD PUSH2 0xB17 SWAP2 PUSH1 0x1 PUSH1 0x1 PUSH1 0xA0 SHL SUB SWAP1 DUP2 AND SWAP2 AND DUP4 PUSH2 0x27EA JUMP JUMPDEST POP JUMP JUMPDEST PUSH1 0x0 PUSH2 0xB24 PUSH2 0x2768 JUMP JUMPDEST PUSH1 0x1 PUSH1 0x1 PUSH1 0xA0 SHL SUB DUP4 AND PUSH1 0x0 SWAP1 DUP2 MSTORE PUSH1 0xE PUSH1 0x20 MSTORE PUSH1 0x40 DUP2 KECCAK256 SLOAD PUSH2 0xB48 SWAP1 DUP5 SWAP1 PUSH2 0x57C8 JUMP JUMPDEST PUSH1 0x1 PUSH1 0x1 PUSH1 0xA0 SHL SUB DUP6 AND PUSH1 0x0 SWAP1 DUP2 MSTORE PUSH1 0xE PUSH1 0x20 MSTORE PUSH1 0x40 SWAP1 KECCAK256 DUP2 SWAP1 SSTORE SWAP2 POP POP JUMPDEST SWAP3 SWAP2 POP POP JUMP JUMPDEST PUSH1 0x0 PUSH2 0xB77 PUSH2 0x2768 JUMP JUMPDEST PUSH2 0xB80 DUP3 PUSH2 0x28F2 JUMP JUMPDEST PUSH1 0x1 PUSH1 0x1 PUSH1 0x80 SHL SUB AND SWAP3 SWAP2 POP POP JUMP JUMPDEST PUSH1 0x0 PUSH2 0xB99 PUSH2 0x2768 JUMP JUMPDEST PUSH2 0xB67 DUP3 PUSH2 0x298B JUMP JUMPDEST DUP1 MLOAD PUSH1 0x0 SUB PUSH2 0xC17 JUMPI PUSH1 0x40 MLOAD PUSH3 0x461BCD PUSH1 0xE5 SHL DUP2 MSTORE PUSH1 0x20 PUSH1 0x4 DUP3 ADD MSTORE PUSH1 0x36 PUSH1 0x24 DUP3 ADD MSTORE PUSH32 0x54726F76654D616E616765723A2043616C6C6461746120616464726573732061 PUSH1 0x44 DUP3 ADD MSTORE PUSH22 0x72726179206D757374206E6F7420626520656D707479 PUSH1 0x50 SHL PUSH1 0x64 DUP3 ADD MSTORE PUSH1 0x84 ADD JUMPDEST PUSH1 0x40 MLOAD DUP1 SWAP2 SUB SWAP1 REVERT JUMPDEST PUSH1 0x0 DUP1 SLOAD PUSH1 0x1 SLOAD PUSH1 0x5 SLOAD PUSH1 0x40 DUP1 MLOAD PUSH1 0xA0 DUP2 ADD DUP3 MSTORE DUP6 DUP2 MSTORE PUSH1 0x20 DUP2 ADD DUP7 SWAP1 MSTORE SWAP1 DUP2 ADD DUP6 SWAP1 MSTORE PUSH1 0x60 DUP2 ADD DUP6 SWAP1 MSTORE PUSH1 0x80 DUP2 ADD SWAP5 SWAP1 SWAP5 MSTORE PUSH1 0x1 PUSH1 0x1 PUSH1 0xA0 SHL SUB SWAP3 DUP4 AND SWAP4 SWAP2 DUP4 AND SWAP3 AND SWAP1 PUSH2 0xC64 PUSH2 0x53C8 JUMP JUMPDEST PUSH1 0x2 PUSH1 0x0 SWAP1 SLOAD SWAP1 PUSH2 0x100 EXP SWAP1 DIV PUSH1 0x1 PUSH1 0x1 PUSH1 0xA0 SHL SUB AND PUSH1 0x1 PUSH1 0x1 PUSH1 0xA0 SHL SUB AND PUSH4 0xFDB11CF PUSH1 0x40 MLOAD DUP2 PUSH4 0xFFFFFFFF AND PUSH1 0xE0 SHL DUP2 MSTORE PUSH1 0x4 ADD PUSH1 0x20 PUSH1 0x40 MLOAD DUP1 DUP4 SUB DUP2 PUSH1 0x0 DUP8 GAS CALL ISZERO DUP1 ISZERO PUSH2 0xCB9 JUMPI RETURNDATASIZE PUSH1 0x0 DUP1 RETURNDATACOPY RETURNDATASIZE PUSH1 0x0 REVERT JUMPDEST POP POP POP POP PUSH1 0x40 MLOAD RETURNDATASIZE PUSH1 0x1F NOT PUSH1 0x1F DUP3 ADD AND DUP3 ADD DUP1 PUSH1 0x40 MSTORE POP DUP2 ADD SWAP1 PUSH2 0xCDD SWAP2 SWAP1 PUSH2 0x57DB JUMP JUMPDEST DUP3 PUSH1 0x0 ADD DUP2 DUP2 MSTORE POP POP DUP3 PUSH1 0x1 PUSH1 0x1 PUSH1 0xA0 SHL SUB AND PUSH4 0x9BF2F1AC PUSH1 0x40 MLOAD DUP2 PUSH4 0xFFFFFFFF AND PUSH1 0xE0 SHL DUP2 MSTORE PUSH1 0x4 ADD PUSH1 0x20 PUSH1 0x40 MLOAD DUP1 DUP4 SUB DUP2 DUP7 GAS STATICCALL ISZERO DUP1 ISZERO PUSH2 0xD24 JUMPI RETURNDATASIZE PUSH1 0x0 DUP1 RETURNDATACOPY RETURNDATASIZE PUSH1 0x0 REVERT JUMPDEST POP POP POP POP PUSH1 0x40 MLOAD RETURNDATASIZE PUSH1 0x1F NOT PUSH1 0x1F DUP3 ADD AND DUP3 ADD DUP1 PUSH1 0x40 MSTORE POP DUP2 ADD SWAP1 PUSH2 0xD48 SWAP2 SWAP1 PUSH2 0x57DB JUMP JUMPDEST PUSH1 0x20 DUP4 ADD MSTORE DUP2 MLOAD PUSH2 0xD58 SWAP1 PUSH2 0x2A30 JUMP JUMPDEST ISZERO DUP1 ISZERO PUSH1 0x40 DUP5 ADD MSTORE PUSH2 0xD80 JUMPI PUSH2 0xD79 DUP6 DUP6 DUP5 PUSH1 0x0 ADD MLOAD DUP6 PUSH1 0x20 ADD MLOAD DUP11 PUSH2 0x2A4D JUMP JUMPDEST SWAP1 POP PUSH2 0xD98 JUMP JUMPDEST PUSH2 0xD95 DUP6 DUP6 DUP5 PUSH1 0x0 ADD MLOAD DUP6 PUSH1 0x20 ADD MLOAD DUP11 PUSH2 0x2C7A JUMP JUMPDEST SWAP1 POP JUMPDEST PUSH1 0x0 DUP2 PUSH1 0x20 ADD MLOAD GT PUSH2 0xDBC JUMPI PUSH1 0x40 MLOAD PUSH3 0x461BCD PUSH1 0xE5 SHL DUP2 MSTORE PUSH1 0x4 ADD PUSH2 0xC0E SWAP1 PUSH2 0x57F4 JUMP JUMPDEST PUSH1 0x80 DUP2 ADD MLOAD PUSH1 0xA0 DUP3 ADD MLOAD PUSH1 0x40 MLOAD PUSH4 0x335525AD PUSH1 0xE0 SHL DUP2 MSTORE PUSH1 0x1 PUSH1 0x1 PUSH1 0xA0 SHL SUB DUP7 AND SWAP3 PUSH4 0x335525AD SWAP3 PUSH2 0xDF9 SWAP3 PUSH1 0x4 ADD SWAP2 DUP3 MSTORE PUSH1 0x20 DUP3 ADD MSTORE PUSH1 0x40 ADD SWAP1 JUMP JUMPDEST PUSH1 0x0 PUSH1 0x40 MLOAD DUP1 DUP4 SUB DUP2 PUSH1 0x0 DUP8 DUP1 EXTCODESIZE ISZERO DUP1 ISZERO PUSH2 0xE13 JUMPI PUSH1 0x0 DUP1 REVERT JUMPDEST POP GAS CALL ISZERO DUP1 ISZERO PUSH2 0xE27 JUMPI RETURNDATASIZE PUSH1 0x0 DUP1 RETURNDATACOPY RETURNDATASIZE PUSH1 0x0 REVERT JUMPDEST POP POP POP POP PUSH2 0xE3F DUP6 DUP6 DUP4 PUSH1 0xC0 ADD MLOAD DUP5 PUSH1 0xE0 ADD MLOAD PUSH2 0x2D49 JUMP JUMPDEST PUSH2 0x100 DUP2 ADD MLOAD ISZERO PUSH2 0xEB6 JUMPI PUSH1 0x7 SLOAD PUSH2 0x100 DUP3 ADD MLOAD PUSH1 0x40 MLOAD PUSH4 0x64A197F3 PUSH1 0xE0 SHL DUP2 MSTORE PUSH1 0x1 PUSH1 0x1 PUSH1 0xA0 SHL SUB DUP9 DUP2 AND SWAP4 PUSH4 0x64A197F3 SWAP4 PUSH2 0xE83 SWAP4 SWAP3 SWAP1 SWAP2 AND SWAP2 PUSH1 0x4 ADD PUSH2 0x5836 JUMP JUMPDEST PUSH1 0x0 PUSH1 0x40 MLOAD DUP1 DUP4 SUB DUP2 PUSH1 0x0 DUP8 DUP1 EXTCODESIZE ISZERO DUP1 ISZERO PUSH2 0xE9D JUMPI PUSH1 0x0 DUP1 REVERT JUMPDEST POP GAS CALL ISZERO DUP1 ISZERO PUSH2 0xEB1 JUMPI RETURNDATASIZE PUSH1 0x0 DUP1 RETURNDATACOPY RETURNDATASIZE PUSH1 0x0 REVERT JUMPDEST POP POP POP POP JUMPDEST PUSH2 0xEC4 DUP6 DUP3 PUSH1 0x40 ADD MLOAD PUSH2 0x2F75 JUMP JUMPDEST PUSH1 0x20 DUP2 ADD MLOAD PUSH1 0x60 DUP4 ADD MSTORE PUSH2 0x100 DUP2 ADD MLOAD PUSH1 0x40 DUP3 ADD MLOAD DUP3 MLOAD PUSH2 0xEE5 SWAP2 SWAP1 PUSH2 0x57C8 JUMP JUMPDEST PUSH2 0xEEF SWAP2 SWAP1 PUSH2 0x57C8 JUMP JUMPDEST PUSH1 0x80 DUP4 DUP2 ADD DUP3 SWAP1 MSTORE PUSH1 0x60 DUP1 DUP6 ADD MLOAD PUSH1 0x40 DUP6 DUP2 ADD MLOAD DUP7 DUP5 ADD MLOAD DUP3 MLOAD SWAP4 DUP5 MSTORE PUSH1 0x20 DUP5 ADD SWAP7 SWAP1 SWAP7 MSTORE SWAP1 DUP3 ADD MSTORE SWAP1 DUP2 ADD SWAP3 SWAP1 SWAP3 MSTORE PUSH32 0x4152C73DD2614C4F9FC35E8C9CF16013CD588C75B49A4C1673ECFFDCBCDA9403 SWAP2 ADD PUSH1 0x40 MLOAD DUP1 SWAP2 SUB SWAP1 LOG1 PUSH2 0xF5E DUP6 CALLER DUP4 PUSH1 0x60 ADD MLOAD DUP5 PUSH1 0x40 ADD MLOAD PUSH2 0x30C0 JUMP JUMPDEST POP POP POP POP POP POP JUMP JUMPDEST PUSH2 0xF79 PUSH1 0x64 PUSH8 0xDE0B6B3A7640000 PUSH2 0x5865 JUMP JUMPDEST PUSH2 0xF84 SWAP1 PUSH1 0x3 PUSH2 0x5879 JUMP JUMPDEST DUP2 JUMP JUMPDEST PUSH1 0x1 PUSH1 0x1 PUSH1 0xA0 SHL SUB DUP2 AND PUSH1 0x0 SWAP1 DUP2 MSTORE PUSH1 0xE PUSH1 0x20 MSTORE PUSH1 0x40 DUP2 KECCAK256 PUSH1 0x3 ADD SLOAD PUSH1 0xFF AND PUSH1 0x4 DUP2 GT ISZERO PUSH2 0xB67 JUMPI PUSH2 0xB67 PUSH2 0x55BE JUMP JUMPDEST PUSH2 0xFCA PUSH1 0x64 PUSH8 0xDE0B6B3A7640000 PUSH2 0x5865 JUMP JUMPDEST PUSH2 0xF84 SWAP1 PUSH1 0x5 PUSH2 0x5879 JUMP JUMPDEST PUSH2 0xFCA PUSH2 0x3E8 PUSH8 0xDE0B6B3A7640000 PUSH2 0x5865 JUMP JUMPDEST PUSH1 0x0 PUSH2 0xFF6 PUSH1 0xC SLOAD PUSH2 0x31A3 JUMP JUMPDEST SWAP1 POP SWAP1 JUMP JUMPDEST PUSH2 0x1004 DUP2 PUSH2 0x31E0 JUMP JUMPDEST PUSH1 0x40 DUP1 MLOAD PUSH1 0x1 DUP1 DUP3 MSTORE DUP2 DUP4 ADD SWAP1 SWAP3 MSTORE PUSH1 0x0 SWAP2 PUSH1 0x20 DUP1 DUP4 ADD SWAP1 DUP1 CALLDATASIZE DUP4 CALLDATACOPY ADD SWAP1 POP POP SWAP1 POP DUP2 DUP2 PUSH1 0x0 DUP2 MLOAD DUP2 LT PUSH2 0x103A JUMPI PUSH2 0x103A PUSH2 0x5890 JUMP JUMPDEST PUSH1 0x20 MUL PUSH1 0x20 ADD ADD SWAP1 PUSH1 0x1 PUSH1 0x1 PUSH1 0xA0 SHL SUB AND SWAP1 DUP2 PUSH1 0x1 PUSH1 0x1 PUSH1 0xA0 SHL SUB AND DUP2 MSTORE POP POP PUSH2 0x1063 DUP2 PUSH2 0xBA2 JUMP JUMPDEST POP POP JUMP JUMPDEST PUSH1 0x19 SLOAD PUSH1 0x1 PUSH1 0x1 PUSH1 0xA0 SHL SUB AND CALLER EQ PUSH2 0x107E JUMPI PUSH1 0x0 DUP1 REVERT JUMPDEST PUSH2 0x1091 PUSH1 0x64 PUSH8 0xDE0B6B3A7640000 PUSH2 0x5865 JUMP JUMPDEST PUSH2 0x109C SWAP1 PUSH1 0x3 PUSH2 0x5879 JUMP JUMPDEST DUP2 GT ISZERO PUSH2 0x10F5 JUMPI PUSH1 0x40 MLOAD PUSH3 0x461BCD PUSH1 0xE5 SHL DUP2 MSTORE PUSH1 0x20 PUSH1 0x4 DUP3 ADD MSTORE PUSH1 0x21 PUSH1 0x24 DUP3 ADD MSTORE PUSH32 0x54726F76654D616E616765723A20496E76616C69642072657761726420726174 PUSH1 0x44 DUP3 ADD MSTORE PUSH1 0x65 PUSH1 0xF8 SHL PUSH1 0x64 DUP3 ADD MSTORE PUSH1 0x84 ADD PUSH2 0xC0E JUMP JUMPDEST PUSH1 0x18 SSTORE JUMP JUMPDEST PUSH1 0x0 PUSH2 0xB67 PUSH2 0x1107 PUSH2 0x1642 JUMP JUMPDEST DUP4 PUSH2 0x3277 JUMP JUMPDEST PUSH1 0x0 PUSH2 0xB67 DUP3 PUSH2 0x2A30 JUMP JUMPDEST PUSH2 0x1120 PUSH2 0x2768 JUMP JUMPDEST DUP1 PUSH1 0x4 DUP2 GT ISZERO PUSH2 0x1132 JUMPI PUSH2 0x1132 PUSH2 0x55BE JUMP JUMPDEST PUSH1 0x1 PUSH1 0x1 PUSH1 0xA0 SHL SUB DUP4 AND PUSH1 0x0 SWAP1 DUP2 MSTORE PUSH1 0xE PUSH1 0x20 MSTORE PUSH1 0x40 SWAP1 KECCAK256 PUSH1 0x3 ADD DUP1 SLOAD PUSH1 0xFF NOT AND PUSH1 0x1 DUP4 PUSH1 0x4 DUP2 GT ISZERO PUSH2 0x1167 JUMPI PUSH2 0x1167 PUSH2 0x55BE JUMP JUMPDEST MUL OR SWAP1 SSTORE POP POP POP JUMP JUMPDEST PUSH1 0x1 PUSH1 0x1 PUSH1 0xA0 SHL SUB DUP2 AND PUSH1 0x0 SWAP1 DUP2 MSTORE PUSH1 0x14 PUSH1 0x20 MSTORE PUSH1 0x40 DUP2 KECCAK256 SLOAD PUSH1 0x12 SLOAD DUP3 SWAP1 PUSH2 0x1199 SWAP1 DUP4 SWAP1 PUSH2 0x57C8 JUMP JUMPDEST SWAP1 POP DUP1 ISZERO DUP1 PUSH2 0x11D8 JUMPI POP PUSH1 0x1 PUSH1 0x1 PUSH1 0x1 PUSH1 0xA0 SHL SUB DUP6 AND PUSH1 0x0 SWAP1 DUP2 MSTORE PUSH1 0xE PUSH1 0x20 MSTORE PUSH1 0x40 SWAP1 KECCAK256 PUSH1 0x3 ADD SLOAD PUSH1 0xFF AND PUSH1 0x4 DUP2 GT ISZERO PUSH2 0x11D5 JUMPI PUSH2 0x11D5 PUSH2 0x55BE JUMP JUMPDEST EQ ISZERO JUMPDEST ISZERO PUSH2 0x11E7 JUMPI POP PUSH1 0x0 SWAP4 SWAP3 POP POP POP JUMP JUMPDEST PUSH1 0x1 PUSH1 0x1 PUSH1 0xA0 SHL SUB DUP5 AND PUSH1 0x0 SWAP1 DUP2 MSTORE PUSH1 0xE PUSH1 0x20 MSTORE PUSH1 0x40 DUP2 KECCAK256 PUSH1 0x2 ADD SLOAD SWAP1 PUSH8 0xDE0B6B3A7640000 PUSH2 0x1217 DUP5 DUP5 PUSH2 0x5879 JUMP JUMPDEST PUSH2 0x1221 SWAP2 SWAP1 PUSH2 0x5865 JUMP JUMPDEST SWAP7 SWAP6 POP POP POP POP POP POP JUMP JUMPDEST PUSH2 0x1233 PUSH2 0x2768 JUMP JUMPDEST PUSH1 0x0 PUSH2 0x123D PUSH2 0x329D JUMP JUMPDEST SWAP1 POP PUSH8 0xDE0B6B3A7640000 DUP2 GT ISZERO PUSH2 0x1257 JUMPI PUSH2 0x1257 PUSH2 0x58A6 JUMP JUMPDEST PUSH1 0xC DUP2 SWAP1 SSTORE PUSH1 0x40 MLOAD DUP2 DUP2 MSTORE PUSH32 0xC454EE9B76C52F782A256AF821B857CA6E125D1E3333BCEDE402FEC2BED9600C SWAP1 PUSH1 0x20 ADD PUSH1 0x40 MLOAD DUP1 SWAP2 SUB SWAP1 LOG1 PUSH2 0xB17 PUSH2 0x32E1 JUMP JUMPDEST PUSH1 0x0 PUSH2 0xB67 PUSH2 0x1107 PUSH2 0x274A JUMP JUMPDEST PUSH1 0x40 DUP1 MLOAD PUSH1 0xE0 DUP2 ADD DUP3 MSTORE PUSH1 0x0 DUP1 SLOAD PUSH1 0x1 PUSH1 0x1 PUSH1 0xA0 SHL SUB SWAP1 DUP2 AND DUP4 MSTORE PUSH1 0x1 SLOAD DUP2 AND PUSH1 0x20 DUP1 DUP6 ADD SWAP2 SWAP1 SWAP2 MSTORE DUP4 DUP6 ADD DUP4 SWAP1 MSTORE PUSH1 0x60 DUP1 DUP6 ADD DUP5 SWAP1 MSTORE PUSH1 0xB SLOAD DUP4 AND PUSH1 0x80 DUP1 DUP8 ADD SWAP2 SWAP1 SWAP2 MSTORE PUSH1 0xA0 DUP1 DUP8 ADD DUP7 SWAP1 MSTORE PUSH1 0xC0 DUP8 ADD DUP7 SWAP1 MSTORE PUSH1 0x5 SLOAD DUP9 MLOAD SWAP2 DUP3 ADD DUP10 MSTORE DUP7 DUP3 MSTORE SWAP4 DUP2 ADD DUP7 SWAP1 MSTORE SWAP7 DUP8 ADD DUP6 SWAP1 MSTORE SWAP1 DUP7 ADD DUP5 SWAP1 MSTORE DUP6 ADD SWAP3 SWAP1 SWAP3 MSTORE SWAP2 SWAP3 SWAP2 AND SWAP1 PUSH2 0x132A PUSH2 0x53C8 JUMP JUMPDEST PUSH1 0x2 PUSH1 0x0 SWAP1 SLOAD SWAP1 PUSH2 0x100 EXP SWAP1 DIV PUSH1 0x1 PUSH1 0x1 PUSH1 0xA0 SHL SUB AND PUSH1 0x1 PUSH1 0x1 PUSH1 0xA0 SHL SUB AND PUSH4 0xFDB11CF PUSH1 0x40 MLOAD DUP2 PUSH4 0xFFFFFFFF AND PUSH1 0xE0 SHL DUP2 MSTORE PUSH1 0x4 ADD PUSH1 0x20 PUSH1 0x40 MLOAD DUP1 DUP4 SUB DUP2 PUSH1 0x0 DUP8 GAS CALL ISZERO DUP1 ISZERO PUSH2 0x137F JUMPI RETURNDATASIZE PUSH1 0x0 DUP1 RETURNDATACOPY RETURNDATASIZE PUSH1 0x0 REVERT JUMPDEST POP POP POP POP PUSH1 0x40 MLOAD RETURNDATASIZE PUSH1 0x1F NOT PUSH1 0x1F DUP3 ADD AND DUP3 ADD DUP1 PUSH1 0x40 MSTORE POP DUP2 ADD SWAP1 PUSH2 0x13A3 SWAP2 SWAP1 PUSH2 0x57DB JUMP JUMPDEST DUP3 PUSH1 0x0 ADD DUP2 DUP2 MSTORE POP POP DUP3 PUSH1 0x1 PUSH1 0x1 PUSH1 0xA0 SHL SUB AND PUSH4 0x9BF2F1AC PUSH1 0x40 MLOAD DUP2 PUSH4 0xFFFFFFFF AND PUSH1 0xE0 SHL DUP2 MSTORE PUSH1 0x4 ADD PUSH1 0x20 PUSH1 0x40 MLOAD DUP1 DUP4 SUB DUP2 DUP7 GAS STATICCALL ISZERO DUP1 ISZERO PUSH2 0x13EA JUMPI RETURNDATASIZE PUSH1 0x0 DUP1 RETURNDATACOPY RETURNDATASIZE PUSH1 0x0 REVERT JUMPDEST POP POP POP POP PUSH1 0x40 MLOAD RETURNDATASIZE PUSH1 0x1F NOT PUSH1 0x1F DUP3 ADD AND DUP3 ADD DUP1 PUSH1 0x40 MSTORE POP DUP2 ADD SWAP1 PUSH2 0x140E SWAP2 SWAP1 PUSH2 0x57DB JUMP JUMPDEST PUSH1 0x20 DUP4 ADD MSTORE DUP2 MLOAD PUSH2 0x141E SWAP1 PUSH2 0x2A30 JUMP JUMPDEST ISZERO DUP1 ISZERO PUSH1 0x40 DUP5 ADD MSTORE PUSH2 0x1445 JUMPI PUSH2 0x143E DUP5 DUP4 PUSH1 0x0 ADD MLOAD DUP5 PUSH1 0x20 ADD MLOAD DUP9 PUSH2 0x3338 JUMP JUMPDEST SWAP1 POP PUSH2 0x1465 JUMP JUMPDEST PUSH2 0x1462 DUP5 PUSH1 0x0 ADD MLOAD DUP6 PUSH1 0x20 ADD MLOAD DUP5 PUSH1 0x0 ADD MLOAD DUP6 PUSH1 0x20 ADD MLOAD DUP10 PUSH2 0x36BD JUMP JUMPDEST SWAP1 POP JUMPDEST PUSH1 0x0 DUP2 PUSH1 0x20 ADD MLOAD GT PUSH2 0x1489 JUMPI PUSH1 0x40 MLOAD PUSH3 0x461BCD PUSH1 0xE5 SHL DUP2 MSTORE PUSH1 0x4 ADD PUSH2 0xC0E SWAP1 PUSH2 0x57F4 JUMP JUMPDEST PUSH1 0x80 DUP2 ADD MLOAD PUSH1 0xA0 DUP3 ADD MLOAD PUSH1 0x40 MLOAD PUSH4 0x335525AD PUSH1 0xE0 SHL DUP2 MSTORE PUSH1 0x1 PUSH1 0x1 PUSH1 0xA0 SHL SUB DUP7 AND SWAP3 PUSH4 0x335525AD SWAP3 PUSH2 0x14C6 SWAP3 PUSH1 0x4 ADD SWAP2 DUP3 MSTORE PUSH1 0x20 DUP3 ADD MSTORE PUSH1 0x40 ADD SWAP1 JUMP JUMPDEST PUSH1 0x0 PUSH1 0x40 MLOAD DUP1 DUP4 SUB DUP2 PUSH1 0x0 DUP8 DUP1 EXTCODESIZE ISZERO DUP1 ISZERO PUSH2 0x14E0 JUMPI PUSH1 0x0 DUP1 REVERT JUMPDEST POP GAS CALL ISZERO DUP1 ISZERO PUSH2 0x14F4 JUMPI RETURNDATASIZE PUSH1 0x0 DUP1 RETURNDATACOPY RETURNDATASIZE PUSH1 0x0 REVERT JUMPDEST POP POP POP POP PUSH2 0x1514 DUP5 PUSH1 0x0 ADD MLOAD DUP6 PUSH1 0x20 ADD MLOAD DUP4 PUSH1 0xC0 ADD MLOAD DUP5 PUSH1 0xE0 ADD MLOAD PUSH2 0x2D49 JUMP JUMPDEST PUSH2 0x100 DUP2 ADD MLOAD ISZERO PUSH2 0x158B JUMPI DUP4 MLOAD PUSH1 0x7 SLOAD PUSH2 0x100 DUP4 ADD MLOAD PUSH1 0x40 MLOAD PUSH4 0x64A197F3 PUSH1 0xE0 SHL DUP2 MSTORE PUSH1 0x1 PUSH1 0x1 PUSH1 0xA0 SHL SUB SWAP4 DUP5 AND SWAP4 PUSH4 0x64A197F3 SWAP4 PUSH2 0x1558 SWAP4 SWAP2 AND SWAP2 PUSH1 0x4 ADD PUSH2 0x5836 JUMP JUMPDEST PUSH1 0x0 PUSH1 0x40 MLOAD DUP1 DUP4 SUB DUP2 PUSH1 0x0 DUP8 DUP1 EXTCODESIZE ISZERO DUP1 ISZERO PUSH2 0x1572 JUMPI PUSH1 0x0 DUP1 REVERT JUMPDEST POP GAS CALL ISZERO DUP1 ISZERO PUSH2 0x1586 JUMPI RETURNDATASIZE PUSH1 0x0 DUP1 RETURNDATACOPY RETURNDATASIZE PUSH1 0x0 REVERT JUMPDEST POP POP POP POP JUMPDEST PUSH2 0x159D DUP5 PUSH1 0x0 ADD MLOAD DUP3 PUSH1 0x40 ADD MLOAD PUSH2 0x2F75 JUMP JUMPDEST PUSH1 0x20 DUP2 ADD MLOAD PUSH1 0x60 DUP4 ADD MSTORE PUSH2 0x100 DUP2 ADD MLOAD PUSH1 0x40 DUP3 ADD MLOAD DUP3 MLOAD PUSH2 0x15BE SWAP2 SWAP1 PUSH2 0x57C8 JUMP JUMPDEST PUSH2 0x15C8 SWAP2 SWAP1 PUSH2 0x57C8 JUMP JUMPDEST PUSH1 0x80 DUP4 DUP2 ADD DUP3 SWAP1 MSTORE PUSH1 0x60 DUP1 DUP6 ADD MLOAD PUSH1 0x40 DUP6 DUP2 ADD MLOAD DUP7 DUP5 ADD MLOAD DUP3 MLOAD SWAP4 DUP5 MSTORE PUSH1 0x20 DUP5 ADD SWAP7 SWAP1 SWAP7 MSTORE SWAP1 DUP3 ADD MSTORE SWAP1 DUP2 ADD SWAP3 SWAP1 SWAP3 MSTORE PUSH32 0x4152C73DD2614C4F9FC35E8C9CF16013CD588C75B49A4C1673ECFFDCBCDA9403 SWAP2 ADD PUSH1 0x40 MLOAD DUP1 SWAP2 SUB SWAP1 LOG1 PUSH2 0x163B DUP5 PUSH1 0x0 ADD MLOAD CALLER DUP4 PUSH1 0x60 ADD MLOAD DUP5 PUSH1 0x40 ADD MLOAD PUSH2 0x30C0 JUMP JUMPDEST POP POP POP POP POP JUMP JUMPDEST PUSH1 0x0 PUSH2 0xFF6 PUSH2 0x164F PUSH2 0x329D JUMP JUMPDEST PUSH2 0x37ED JUMP JUMPDEST PUSH1 0x3 SLOAD PUSH1 0x1 PUSH1 0x1 PUSH1 0xA0 SHL SUB AND CALLER EQ PUSH2 0x16AE JUMPI PUSH1 0x40 MLOAD PUSH3 0x461BCD PUSH1 0xE5 SHL DUP2 MSTORE PUSH1 0x20 PUSH1 0x4 DUP3 ADD DUP2 SWAP1 MSTORE PUSH1 0x24 DUP3 ADD MSTORE PUSH32 0x4F776E61626C653A2063616C6C6572206973206E6F7420746865206F776E6572 PUSH1 0x44 DUP3 ADD MSTORE PUSH1 0x64 ADD PUSH2 0xC0E JUMP JUMPDEST PUSH1 0x19 DUP1 SLOAD PUSH1 0x1 PUSH1 0x1 PUSH1 0xA0 SHL SUB NOT AND PUSH1 0x1 PUSH1 0x1 PUSH1 0xA0 SHL SUB SWAP3 SWAP1 SWAP3 AND SWAP2 SWAP1 SWAP2 OR SWAP1 SSTORE JUMP JUMPDEST PUSH1 0x0 PUSH2 0x16DA PUSH2 0x2768 JUMP JUMPDEST PUSH1 0x1 PUSH1 0x1 PUSH1 0xA0 SHL SUB DUP4 AND PUSH1 0x0 SWAP1 DUP2 MSTORE PUSH1 0xE PUSH1 0x20 MSTORE PUSH1 0x40 DUP2 KECCAK256 PUSH1 0x1 ADD SLOAD PUSH2 0x1701 SWAP1 DUP5 SWAP1 PUSH2 0x58BC JUMP JUMPDEST PUSH1 0x1 PUSH1 0x1 PUSH1 0xA0 SHL SUB DUP6 AND PUSH1 0x0 SWAP1 DUP2 MSTORE PUSH1 0xE PUSH1 0x20 MSTORE PUSH1 0x40 SWAP1 KECCAK256 PUSH1 0x1 ADD DUP2 SWAP1 SSTORE SWAP2 POP POP SWAP3 SWAP2 POP POP JUMP JUMPDEST PUSH1 0x19 SLOAD PUSH1 0x1 PUSH1 0x1 PUSH1 0xA0 SHL SUB AND CALLER EQ PUSH2 0x173F JUMPI PUSH1 0x0 DUP1 REVERT JUMPDEST PUSH1 0x2 DUP1 SLOAD PUSH1 0x1 PUSH1 0x1 PUSH1 0xA0 SHL SUB NOT AND PUSH1 0x1 PUSH1 0x1 PUSH1 0xA0 SHL SUB SWAP3 SWAP1 SWAP3 AND SWAP2 SWAP1 SWAP2 OR SWAP1 SSTORE JUMP JUMPDEST PUSH1 0x15 DUP2 DUP2 SLOAD DUP2 LT PUSH2 0x1771 JUMPI PUSH1 0x0 DUP1 REVERT JUMPDEST PUSH1 0x0 SWAP2 DUP3 MSTORE PUSH1 0x20 SWAP1 SWAP2 KECCAK256 ADD SLOAD PUSH1 0x1 PUSH1 0x1 PUSH1 0xA0 SHL SUB AND SWAP1 POP DUP2 JUMP JUMPDEST PUSH1 0x0 DUP1 SLOAD PUSH1 0x40 DUP1 MLOAD PUSH4 0x2F5A97E5 PUSH1 0xE1 SHL DUP2 MSTORE SWAP1 MLOAD DUP4 SWAP3 PUSH1 0x1 PUSH1 0x1 PUSH1 0xA0 SHL SUB AND SWAP2 PUSH4 0x5EB52FCA SWAP2 PUSH1 0x4 DUP1 DUP4 ADD SWAP3 PUSH1 0x20 SWAP3 SWAP2 SWAP1 DUP3 SWAP1 SUB ADD DUP2 DUP7 GAS STATICCALL ISZERO DUP1 ISZERO PUSH2 0x17D5 JUMPI RETURNDATASIZE PUSH1 0x0 DUP1 RETURNDATACOPY RETURNDATASIZE PUSH1 0x0 REVERT JUMPDEST POP POP POP POP PUSH1 0x40 MLOAD RETURNDATASIZE PUSH1 0x1F NOT PUSH1 0x1F DUP3 ADD AND DUP3 ADD DUP1 PUSH1 0x40 MSTORE POP DUP2 ADD SWAP1 PUSH2 0x17F9 SWAP2 SWAP1 PUSH2 0x57DB JUMP JUMPDEST SWAP1 POP PUSH1 0x0 PUSH1 0x1 PUSH1 0x0 SWAP1 SLOAD SWAP1 PUSH2 0x100 EXP SWAP1 DIV PUSH1 0x1 PUSH1 0x1 PUSH1 0xA0 SHL SUB AND PUSH1 0x1 PUSH1 0x1 PUSH1 0xA0 SHL SUB AND PUSH4 0x5EB52FCA PUSH1 0x40 MLOAD DUP2 PUSH4 0xFFFFFFFF AND PUSH1 0xE0 SHL DUP2 MSTORE PUSH1 0x4 ADD PUSH1 0x20 PUSH1 0x40 MLOAD DUP1 DUP4 SUB DUP2 DUP7 GAS STATICCALL ISZERO DUP1 ISZERO PUSH2 0x1850 JUMPI RETURNDATASIZE PUSH1 0x0 DUP1 RETURNDATACOPY RETURNDATASIZE PUSH1 0x0 REVERT JUMPDEST POP POP POP POP PUSH1 0x40 MLOAD RETURNDATASIZE PUSH1 0x1F NOT PUSH1 0x1F DUP3 ADD AND DUP3 ADD DUP1 PUSH1 0x40 MSTORE POP DUP2 ADD SWAP1 PUSH2 0x1874 SWAP2 SWAP1 PUSH2 0x57DB JUMP JUMPDEST SWAP1 POP PUSH2 0x1880 DUP3 DUP3 PUSH2 0x383F JUMP JUMPDEST SWAP3 POP POP POP SWAP1 JUMP JUMPDEST PUSH1 0x3 SLOAD PUSH1 0x1 PUSH1 0x1 PUSH1 0xA0 SHL SUB AND CALLER EQ PUSH2 0x18E1 JUMPI PUSH1 0x40 MLOAD PUSH3 0x461BCD PUSH1 0xE5 SHL DUP2 MSTORE PUSH1 0x20 PUSH1 0x4 DUP3 ADD DUP2 SWAP1 MSTORE PUSH1 0x24 DUP3 ADD MSTORE PUSH32 0x4F776E61626C653A2063616C6C6572206973206E6F7420746865206F776E6572 PUSH1 0x44 DUP3 ADD MSTORE PUSH1 0x64 ADD PUSH2 0xC0E JUMP JUMPDEST PUSH2 0x18EA DUP12 PUSH2 0x389E JUMP JUMPDEST PUSH2 0x18F3 DUP11 PUSH2 0x389E JUMP JUMPDEST PUSH2 0x18FC DUP10 PUSH2 0x389E JUMP JUMPDEST PUSH2 0x1905 DUP9 PUSH2 0x389E JUMP JUMPDEST PUSH2 0x190E DUP8 PUSH2 0x389E JUMP JUMPDEST PUSH2 0x1917 DUP7 PUSH2 0x389E JUMP JUMPDEST PUSH2 0x1920 DUP6 PUSH2 0x389E JUMP JUMPDEST PUSH2 0x1929 DUP5 PUSH2 0x389E JUMP JUMPDEST PUSH2 0x1932 DUP4 PUSH2 0x389E JUMP JUMPDEST PUSH2 0x193B DUP3 PUSH2 0x389E JUMP JUMPDEST PUSH2 0x1944 DUP2 PUSH2 0x389E JUMP JUMPDEST PUSH1 0x4 DUP1 SLOAD PUSH1 0x1 PUSH1 0x1 PUSH1 0xA0 SHL SUB NOT SWAP1 DUP2 AND PUSH1 0x1 PUSH1 0x1 PUSH1 0xA0 SHL SUB DUP15 DUP2 AND SWAP2 SWAP1 SWAP2 OR SWAP1 SWAP3 SSTORE PUSH1 0x0 DUP1 SLOAD DUP3 AND DUP14 DUP5 AND OR SWAP1 SSTORE PUSH1 0x1 DUP1 SLOAD DUP3 AND DUP13 DUP5 AND OR SWAP1 SSTORE PUSH1 0x5 DUP1 SLOAD DUP3 AND DUP12 DUP5 AND OR SWAP1 SSTORE PUSH1 0x6 DUP1 SLOAD DUP3 AND DUP11 DUP5 AND OR SWAP1 SSTORE PUSH1 0x7 DUP1 SLOAD DUP3 AND DUP10 DUP5 AND OR SWAP1 SSTORE PUSH1 0x2 DUP1 SLOAD DUP3 AND DUP9 DUP5 AND OR SWAP1 SSTORE PUSH1 0x8 DUP1 SLOAD DUP3 AND DUP8 DUP5 AND OR SWAP1 SSTORE PUSH1 0xB DUP1 SLOAD DUP3 AND DUP7 DUP5 AND OR SWAP1 SSTORE PUSH1 0x9 DUP1 SLOAD DUP3 AND DUP6 DUP5 AND OR SWAP1 SSTORE PUSH1 0xA DUP1 SLOAD SWAP1 SWAP2 AND DUP4 DUP4 AND OR SWAP1 SSTORE PUSH1 0x19 SLOAD AND PUSH2 0x19FA JUMPI PUSH1 0x19 DUP1 SLOAD PUSH1 0x1 PUSH1 0x1 PUSH1 0xA0 SHL SUB NOT AND CALLER OR SWAP1 SSTORE JUMPDEST PUSH1 0x40 MLOAD PUSH1 0x1 PUSH1 0x1 PUSH1 0xA0 SHL SUB DUP13 AND DUP2 MSTORE PUSH32 0x3CA631FFCD2A9B5D9AE18543FC82F58EB4CA33AF9E6AB01B7A8E95331E6ED985 SWAP1 PUSH1 0x20 ADD PUSH1 0x40 MLOAD DUP1 SWAP2 SUB SWAP1 LOG1 PUSH1 0x40 MLOAD PUSH1 0x1 PUSH1 0x1 PUSH1 0xA0 SHL SUB DUP12 AND DUP2 MSTORE PUSH32 0x78F058B189175430C48DC02699E3A0031EA4FF781536DC2FAB847DE4BABDD882 SWAP1 PUSH1 0x20 ADD PUSH1 0x40 MLOAD DUP1 SWAP2 SUB SWAP1 LOG1 PUSH1 0x40 MLOAD PUSH1 0x1 PUSH1 0x1 PUSH1 0xA0 SHL SUB DUP11 AND DUP2 MSTORE PUSH32 0x5EE0CAE2F063ED938BB55046F6A932FB6AE792BF43624806BB90ABE68A50BE9B SWAP1 PUSH1 0x20 ADD PUSH1 0x40 MLOAD DUP1 SWAP2 SUB SWAP1 LOG1 PUSH1 0x40 MLOAD PUSH1 0x1 PUSH1 0x1 PUSH1 0xA0 SHL SUB DUP10 AND DUP2 MSTORE PUSH32 0x82966D27EEA39B038EE0FA30CD16532BB24F6E65D31CB58FB227AA5766CDCC7F SWAP1 PUSH1 0x20 ADD PUSH1 0x40 MLOAD DUP1 SWAP2 SUB SWAP1 LOG1 PUSH1 0x40 MLOAD PUSH1 0x1 PUSH1 0x1 PUSH1 0xA0 SHL SUB DUP9 AND DUP2 MSTORE PUSH32 0xCFB07D791FCAFC032B35837B50EB84B74DF518CF4CC287E8084F47630FA70FA0 SWAP1 PUSH1 0x20 ADD PUSH1 0x40 MLOAD DUP1 SWAP2 SUB SWAP1 LOG1 PUSH1 0x40 MLOAD PUSH1 0x1 PUSH1 0x1 PUSH1 0xA0 SHL SUB DUP8 AND DUP2 MSTORE PUSH32 0xE67F36A6E961157D6EFF83B91F3AF5A62131CEB6F04954EF74F51C1C05E7F88D SWAP1 PUSH1 0x20 ADD PUSH1 0x40 MLOAD DUP1 SWAP2 SUB SWAP1 LOG1 PUSH1 0x40 MLOAD PUSH1 0x1 PUSH1 0x1 PUSH1 0xA0 SHL SUB DUP7 AND DUP2 MSTORE PUSH32 0x8C537274438AA850A330284665D81A85DD38267D09E4050D416BFC94142DB264 SWAP1 PUSH1 0x20 ADD PUSH1 0x40 MLOAD DUP1 SWAP2 SUB SWAP1 LOG1 PUSH1 0x40 MLOAD PUSH1 0x1 PUSH1 0x1 PUSH1 0xA0 SHL SUB DUP6 AND DUP2 MSTORE PUSH32 0x227EEC0EC317AF6AB1A9587FFA1C84332522EB4C583A908F89BABC05F8F339BD SWAP1 PUSH1 0x20 ADD PUSH1 0x40 MLOAD DUP1 SWAP2 SUB SWAP1 LOG1 PUSH1 0x40 MLOAD PUSH1 0x1 PUSH1 0x1 PUSH1 0xA0 SHL SUB DUP5 AND DUP2 MSTORE PUSH32 0x65F4CF077BC01E4742EB5AD98326F6E95B63548EA24B17F8D5E823111FE78800 SWAP1 PUSH1 0x20 ADD PUSH1 0x40 MLOAD DUP1 SWAP2 SUB SWAP1 LOG1 PUSH1 0x40 MLOAD PUSH1 0x1 PUSH1 0x1 PUSH1 0xA0 SHL SUB DUP4 AND DUP2 MSTORE PUSH32 0x2AC6E99201DDC1B6EAC6F8F28662D1ECAFEE131F6EB98C29DE54528A9888A7D1 SWAP1 PUSH1 0x20 ADD PUSH1 0x40 MLOAD DUP1 SWAP2 SUB SWAP1 LOG1 PUSH1 0x40 MLOAD PUSH1 0x1 PUSH1 0x1 PUSH1 0xA0 SHL SUB DUP3 AND DUP2 MSTORE PUSH32 0x756EBC192164C295BBA134B5AACD72CC7AFF8098A670D1F0A5F6B3A0B4CE6707 SWAP1 PUSH1 0x20 ADD PUSH1 0x40 MLOAD DUP1 SWAP2 SUB SWAP1 LOG1 PUSH2 0x1C96 PUSH2 0x3943 JUMP JUMPDEST POP POP POP POP POP POP POP POP POP POP POP JUMP JUMPDEST PUSH2 0x1CAB PUSH2 0x2768 JUMP JUMPDEST PUSH2 0xB17 DUP2 PUSH2 0x398D JUMP JUMPDEST PUSH1 0x0 DUP1 SLOAD PUSH1 0x40 DUP1 MLOAD PUSH4 0xA7B61DF PUSH1 0xE1 SHL DUP2 MSTORE SWAP1 MLOAD DUP4 SWAP3 PUSH1 0x1 PUSH1 0x1 PUSH1 0xA0 SHL SUB AND SWAP2 PUSH4 0x14F6C3BE SWAP2 PUSH1 0x4 DUP1 DUP4 ADD SWAP3 PUSH1 0x20 SWAP3 SWAP2 SWAP1 DUP3 SWAP1 SUB ADD DUP2 DUP7 GAS STATICCALL ISZERO DUP1 ISZERO PUSH2 0x1CFE JUMPI RETURNDATASIZE PUSH1 0x0 DUP1 RETURNDATACOPY RETURNDATASIZE PUSH1 0x0 REVERT JUMPDEST POP POP POP POP PUSH1 0x40 MLOAD RETURNDATASIZE PUSH1 0x1F NOT PUSH1 0x1F DUP3 ADD AND DUP3 ADD DUP1 PUSH1 0x40 MSTORE POP DUP2 ADD SWAP1 PUSH2 0x1D22 SWAP2 SWAP1 PUSH2 0x57DB JUMP JUMPDEST SWAP1 POP PUSH1 0x0 PUSH1 0x1 PUSH1 0x0 SWAP1 SLOAD SWAP1 PUSH2 0x100 EXP SWAP1 DIV PUSH1 0x1 PUSH1 0x1 PUSH1 0xA0 SHL SUB AND PUSH1 0x1 PUSH1 0x1 PUSH1 0xA0 SHL SUB AND PUSH4 0x14F6C3BE PUSH1 0x40 MLOAD DUP2 PUSH4 0xFFFFFFFF AND PUSH1 0xE0 SHL DUP2 MSTORE PUSH1 0x4 ADD PUSH1 0x20 PUSH1 0x40 MLOAD DUP1 DUP4 SUB DUP2 DUP7 GAS STATICCALL ISZERO DUP1 ISZERO PUSH2 0x1850 JUMPI RETURNDATASIZE PUSH1 0x0 DUP1 RETURNDATACOPY RETURNDATASIZE PUSH1 0x0 REVERT JUMPDEST PUSH1 0x19 SLOAD PUSH1 0x1 PUSH1 0x1 PUSH1 0xA0 SHL SUB AND CALLER EQ PUSH2 0x1D90 JUMPI PUSH1 0x0 DUP1 REVERT JUMPDEST PUSH1 0x19 DUP1 SLOAD PUSH1 0x1 PUSH1 0x1 PUSH1 0xA0 SHL SUB NOT AND SWAP1 SSTORE JUMP JUMPDEST PUSH1 0x0 PUSH2 0x1DAC PUSH2 0x2768 JUMP JUMPDEST PUSH1 0x1 PUSH1 0x1 PUSH1 0xA0 SHL SUB DUP4 AND PUSH1 0x0 SWAP1 DUP2 MSTORE PUSH1 0xE PUSH1 0x20 MSTORE PUSH1 0x40 DUP2 KECCAK256 SLOAD PUSH2 0xB48 SWAP1 DUP5 SWAP1 PUSH2 0x58BC JUMP JUMPDEST PUSH1 0x0 DUP1 PUSH1 0x0 PUSH2 0x1DDE DUP5 PUSH2 0x39F1 JUMP JUMPDEST SWAP2 POP SWAP2 POP PUSH1 0x0 PUSH2 0x1DEE DUP4 DUP4 PUSH2 0x3A6D JUMP JUMPDEST SWAP6 SWAP5 POP POP POP POP POP JUMP JUMPDEST PUSH1 0x0 PUSH2 0xB67 DUP3 PUSH2 0x3AA2 JUMP JUMPDEST PUSH1 0x1 PUSH1 0x1 PUSH1 0xA0 SHL SUB DUP2 AND PUSH1 0x0 SWAP1 DUP2 MSTORE PUSH1 0xE PUSH1 0x20 MSTORE PUSH1 0x40 DUP2 KECCAK256 DUP1 SLOAD PUSH1 0x1 SWAP1 SWAP2 ADD SLOAD SWAP1 SWAP2 DUP1 PUSH2 0x1E2E DUP6 PUSH2 0x271E JUMP JUMPDEST SWAP2 POP PUSH2 0x1E39 DUP6 PUSH2 0x1170 JUMP JUMPDEST SWAP1 POP PUSH2 0x1E45 DUP3 DUP6 PUSH2 0x58BC JUMP JUMPDEST SWAP4 POP PUSH2 0x1E51 DUP2 DUP5 PUSH2 0x58BC JUMP JUMPDEST SWAP3 POP SWAP2 SWAP4 POP SWAP2 SWAP4 JUMP JUMPDEST PUSH1 0x40 DUP1 MLOAD PUSH1 0xE0 DUP1 DUP3 ADD DUP4 MSTORE PUSH1 0x0 DUP1 SLOAD PUSH1 0x1 PUSH1 0x1 PUSH1 0xA0 SHL SUB SWAP1 DUP2 AND DUP5 MSTORE PUSH1 0x1 SLOAD DUP2 AND PUSH1 0x20 DUP1 DUP7 ADD SWAP2 SWAP1 SWAP2 MSTORE PUSH1 0x8 SLOAD DUP3 AND DUP6 DUP8 ADD MSTORE PUSH1 0xA SLOAD DUP3 AND PUSH1 0x60 DUP1 DUP8 ADD SWAP2 SWAP1 SWAP2 MSTORE PUSH1 0xB SLOAD DUP4 AND PUSH1 0x80 DUP1 DUP9 ADD SWAP2 SWAP1 SWAP2 MSTORE PUSH1 0x7 SLOAD DUP5 AND PUSH1 0xA0 DUP1 DUP10 ADD SWAP2 SWAP1 SWAP2 MSTORE PUSH1 0x6 SLOAD SWAP1 SWAP5 AND PUSH1 0xC0 DUP1 DUP10 ADD SWAP2 SWAP1 SWAP2 MSTORE DUP9 MLOAD PUSH2 0x100 DUP2 ADD DUP11 MSTORE DUP7 DUP2 MSTORE SWAP4 DUP5 ADD DUP7 SWAP1 MSTORE SWAP8 DUP4 ADD DUP6 SWAP1 MSTORE SWAP1 DUP3 ADD DUP5 SWAP1 MSTORE DUP2 ADD DUP4 SWAP1 MSTORE SWAP1 DUP2 ADD DUP3 SWAP1 MSTORE SWAP4 DUP5 ADD DUP2 SWAP1 MSTORE SWAP1 DUP4 ADD MSTORE SWAP1 PUSH2 0x1F03 DUP4 PUSH2 0x3ACE JUMP JUMPDEST PUSH2 0x1F0B PUSH2 0x3B95 JUMP JUMPDEST PUSH1 0x2 PUSH1 0x0 SWAP1 SLOAD SWAP1 PUSH2 0x100 EXP SWAP1 DIV PUSH1 0x1 PUSH1 0x1 PUSH1 0xA0 SHL SUB AND PUSH1 0x1 PUSH1 0x1 PUSH1 0xA0 SHL SUB AND PUSH4 0xFDB11CF PUSH1 0x40 MLOAD DUP2 PUSH4 0xFFFFFFFF AND PUSH1 0xE0 SHL DUP2 MSTORE PUSH1 0x4 ADD PUSH1 0x20 PUSH1 0x40 MLOAD DUP1 DUP4 SUB DUP2 PUSH1 0x0 DUP8 GAS CALL ISZERO DUP1 ISZERO PUSH2 0x1F60 JUMPI RETURNDATASIZE PUSH1 0x0 DUP1 RETURNDATACOPY RETURNDATASIZE PUSH1 0x0 REVERT JUMPDEST POP POP POP POP PUSH1 0x40 MLOAD RETURNDATASIZE PUSH1 0x1F NOT PUSH1 0x1F DUP3 ADD AND DUP3 ADD DUP1 PUSH1 0x40 MSTORE POP DUP2 ADD SWAP1 PUSH2 0x1F84 SWAP2 SWAP1 PUSH2 0x57DB JUMP JUMPDEST PUSH1 0xC0 DUP3 ADD DUP2 SWAP1 MSTORE PUSH2 0x1F94 SWAP1 PUSH2 0x3C87 JUMP JUMPDEST PUSH2 0x1F9D DUP10 PUSH2 0x3CFA JUMP JUMPDEST PUSH2 0x1FAC DUP3 PUSH1 0x40 ADD MLOAD CALLER DUP12 PUSH2 0x3D61 JUMP JUMPDEST PUSH2 0x1FB4 PUSH2 0x178B JUMP JUMPDEST PUSH1 0xE0 DUP3 ADD DUP2 SWAP1 MSTORE PUSH1 0x40 DUP4 DUP2 ADD MLOAD SWAP1 MLOAD PUSH4 0x70A08231 PUSH1 0xE0 SHL DUP2 MSTORE CALLER PUSH1 0x4 DUP3 ADD MSTORE PUSH1 0x1 PUSH1 0x1 PUSH1 0xA0 SHL SUB SWAP1 SWAP2 AND SWAP1 PUSH4 0x70A08231 SWAP1 PUSH1 0x24 ADD PUSH1 0x20 PUSH1 0x40 MLOAD DUP1 DUP4 SUB DUP2 DUP7 GAS STATICCALL ISZERO DUP1 ISZERO PUSH2 0x2005 JUMPI RETURNDATASIZE PUSH1 0x0 DUP1 RETURNDATACOPY RETURNDATASIZE PUSH1 0x0 REVERT JUMPDEST POP POP POP POP PUSH1 0x40 MLOAD RETURNDATASIZE PUSH1 0x1F NOT PUSH1 0x1F DUP3 ADD AND DUP3 ADD DUP1 PUSH1 0x40 MSTORE POP DUP2 ADD SWAP1 PUSH2 0x2029 SWAP2 SWAP1 PUSH2 0x57DB JUMP JUMPDEST GT ISZERO PUSH2 0x2037 JUMPI PUSH2 0x2037 PUSH2 0x58A6 JUMP JUMPDEST DUP9 DUP2 MSTORE PUSH1 0x80 DUP3 ADD MLOAD PUSH1 0xC0 DUP3 ADD MLOAD PUSH1 0x0 SWAP2 PUSH2 0x2052 SWAP2 DUP12 SWAP1 PUSH2 0x3E59 JUMP JUMPDEST ISZERO PUSH2 0x205E JUMPI POP DUP8 PUSH2 0x216F JUMP JUMPDEST DUP3 PUSH1 0x80 ADD MLOAD PUSH1 0x1 PUSH1 0x1 PUSH1 0xA0 SHL SUB AND PUSH4 0x4D622831 PUSH1 0x40 MLOAD DUP2 PUSH4 0xFFFFFFFF AND PUSH1 0xE0 SHL DUP2 MSTORE PUSH1 0x4 ADD PUSH1 0x20 PUSH1 0x40 MLOAD DUP1 DUP4 SUB DUP2 DUP7 GAS STATICCALL ISZERO DUP1 ISZERO PUSH2 0x20A0 JUMPI RETURNDATASIZE PUSH1 0x0 DUP1 RETURNDATACOPY RETURNDATASIZE PUSH1 0x0 REVERT JUMPDEST POP POP POP POP PUSH1 0x40 MLOAD RETURNDATASIZE PUSH1 0x1F NOT PUSH1 0x1F DUP3 ADD AND DUP3 ADD DUP1 PUSH1 0x40 MSTORE POP DUP2 ADD SWAP1 PUSH2 0x20C4 SWAP2 SWAP1 PUSH2 0x58CF JUMP JUMPDEST SWAP1 POP JUMPDEST PUSH1 0x1 PUSH1 0x1 PUSH1 0xA0 SHL SUB DUP2 AND ISZERO DUP1 ISZERO SWAP1 PUSH2 0x20F3 JUMPI POP PUSH8 0xF43FC2C04EE0000 PUSH2 0x20F1 DUP3 DUP5 PUSH1 0xC0 ADD MLOAD PUSH2 0x2628 JUMP JUMPDEST LT JUMPDEST ISZERO PUSH2 0x216F JUMPI PUSH1 0x80 DUP4 ADD MLOAD PUSH1 0x40 MLOAD PUSH4 0x2DC9C0EB PUSH1 0xE2 SHL DUP2 MSTORE PUSH1 0x1 PUSH1 0x1 PUSH1 0xA0 SHL SUB DUP4 DUP2 AND PUSH1 0x4 DUP4 ADD MSTORE SWAP1 SWAP2 AND SWAP1 PUSH4 0xB72703AC SWAP1 PUSH1 0x24 ADD PUSH1 0x20 PUSH1 0x40 MLOAD DUP1 DUP4 SUB DUP2 DUP7 GAS STATICCALL ISZERO DUP1 ISZERO PUSH2 0x2144 JUMPI RETURNDATASIZE PUSH1 0x0 DUP1 RETURNDATACOPY RETURNDATASIZE PUSH1 0x0 REVERT JUMPDEST POP POP POP POP PUSH1 0x40 MLOAD RETURNDATASIZE PUSH1 0x1F NOT PUSH1 0x1F DUP3 ADD AND DUP3 ADD DUP1 PUSH1 0x40 MSTORE POP DUP2 ADD SWAP1 PUSH2 0x2168 SWAP2 SWAP1 PUSH2 0x58CF JUMP JUMPDEST SWAP1 POP PUSH2 0x20C7 JUMP JUMPDEST DUP5 PUSH1 0x0 SUB PUSH2 0x217D JUMPI PUSH1 0x0 NOT SWAP5 POP JUMPDEST PUSH1 0x1 PUSH1 0x1 PUSH1 0xA0 SHL SUB DUP2 AND ISZERO DUP1 ISZERO SWAP1 PUSH2 0x2195 JUMPI POP DUP2 MLOAD ISZERO ISZERO JUMPDEST DUP1 ISZERO PUSH2 0x21A1 JUMPI POP PUSH1 0x0 DUP6 GT JUMPDEST ISZERO PUSH2 0x22B0 JUMPI DUP5 PUSH2 0x21B0 DUP2 PUSH2 0x58EC JUMP JUMPDEST PUSH1 0x80 DUP6 ADD MLOAD PUSH1 0x40 MLOAD PUSH4 0x2DC9C0EB PUSH1 0xE2 SHL DUP2 MSTORE PUSH1 0x1 PUSH1 0x1 PUSH1 0xA0 SHL SUB DUP6 DUP2 AND PUSH1 0x4 DUP4 ADD MSTORE SWAP3 SWAP9 POP PUSH1 0x0 SWAP4 POP SWAP2 AND SWAP1 PUSH4 0xB72703AC SWAP1 PUSH1 0x24 ADD PUSH1 0x20 PUSH1 0x40 MLOAD DUP1 DUP4 SUB DUP2 DUP7 GAS STATICCALL ISZERO DUP1 ISZERO PUSH2 0x2202 JUMPI RETURNDATASIZE PUSH1 0x0 DUP1 RETURNDATACOPY RETURNDATASIZE PUSH1 0x0 REVERT JUMPDEST POP POP POP POP PUSH1 0x40 MLOAD RETURNDATASIZE PUSH1 0x1F NOT PUSH1 0x1F DUP3 ADD AND DUP3 ADD DUP1 PUSH1 0x40 MSTORE POP DUP2 ADD SWAP1 PUSH2 0x2226 SWAP2 SWAP1 PUSH2 0x58CF JUMP JUMPDEST SWAP1 POP PUSH2 0x223B DUP5 PUSH1 0x0 ADD MLOAD DUP6 PUSH1 0x20 ADD MLOAD DUP5 PUSH2 0x27EA JUMP JUMPDEST PUSH1 0x0 PUSH2 0x2254 DUP6 DUP5 DUP7 PUSH1 0x0 ADD MLOAD DUP8 PUSH1 0xC0 ADD MLOAD DUP15 DUP15 DUP15 PUSH2 0x3F9E JUMP JUMPDEST SWAP1 POP DUP1 PUSH1 0x40 ADD MLOAD ISZERO PUSH2 0x2267 JUMPI POP POP PUSH2 0x22B0 JUMP JUMPDEST DUP1 MLOAD PUSH1 0x20 DUP6 ADD MLOAD PUSH2 0x2278 SWAP2 SWAP1 PUSH2 0x58BC JUMP JUMPDEST PUSH1 0x20 DUP1 DUP7 ADD SWAP2 SWAP1 SWAP2 MSTORE DUP2 ADD MLOAD PUSH1 0x40 DUP6 ADD MLOAD PUSH2 0x2293 SWAP2 SWAP1 PUSH2 0x58BC JUMP JUMPDEST PUSH1 0x40 DUP6 ADD MSTORE DUP1 MLOAD DUP5 MLOAD PUSH2 0x22A6 SWAP2 SWAP1 PUSH2 0x57C8 JUMP JUMPDEST DUP5 MSTORE POP SWAP1 POP PUSH2 0x217D JUMP JUMPDEST PUSH1 0x0 DUP3 PUSH1 0x40 ADD MLOAD GT PUSH2 0x2316 JUMPI PUSH1 0x40 MLOAD PUSH3 0x461BCD PUSH1 0xE5 SHL DUP2 MSTORE PUSH1 0x20 PUSH1 0x4 DUP3 ADD MSTORE PUSH1 0x29 PUSH1 0x24 DUP3 ADD MSTORE PUSH32 0x54726F76654D616E616765723A20556E61626C6520746F2072656465656D2061 PUSH1 0x44 DUP3 ADD MSTORE PUSH9 0x1B9E48185B5BDD5B9D PUSH1 0xBA SHL PUSH1 0x64 DUP3 ADD MSTORE PUSH1 0x84 ADD PUSH2 0xC0E JUMP JUMPDEST PUSH2 0x232D DUP3 PUSH1 0x40 ADD MLOAD DUP4 PUSH1 0xC0 ADD MLOAD DUP5 PUSH1 0xE0 ADD MLOAD PUSH2 0x4239 JUMP JUMPDEST POP PUSH2 0x233B DUP3 PUSH1 0x40 ADD MLOAD PUSH2 0x42DC JUMP JUMPDEST PUSH1 0x60 DUP4 ADD MSTORE PUSH1 0x40 DUP3 ADD MLOAD PUSH1 0x0 SWAP1 PUSH2 0x2351 SWAP1 PUSH2 0x42E9 JUMP JUMPDEST SWAP1 POP PUSH2 0x2371 DUP4 PUSH1 0x60 ADD MLOAD DUP3 PUSH2 0x2366 SWAP2 SWAP1 PUSH2 0x58BC JUMP JUMPDEST DUP5 PUSH1 0x40 ADD MLOAD DUP8 PUSH2 0x4310 JUMP JUMPDEST DUP4 MLOAD PUSH1 0x60 DUP1 DUP7 ADD MLOAD SWAP1 DUP6 ADD MLOAD PUSH1 0x40 MLOAD PUSH4 0x64A197F3 PUSH1 0xE0 SHL DUP2 MSTORE PUSH1 0x1 PUSH1 0x1 PUSH1 0xA0 SHL SUB SWAP1 SWAP4 AND SWAP3 PUSH4 0x64A197F3 SWAP3 PUSH2 0x23AA SWAP3 SWAP1 SWAP2 PUSH1 0x4 ADD PUSH2 0x5836 JUMP JUMPDEST PUSH1 0x0 PUSH1 0x40 MLOAD DUP1 DUP4 SUB DUP2 PUSH1 0x0 DUP8 DUP1 EXTCODESIZE ISZERO DUP1 ISZERO PUSH2 0x23C4 JUMPI PUSH1 0x0 DUP1 REVERT JUMPDEST POP GAS CALL ISZERO DUP1 ISZERO PUSH2 0x23D8 JUMPI RETURNDATASIZE PUSH1 0x0 DUP1 RETURNDATACOPY RETURNDATASIZE PUSH1 0x0 REVERT JUMPDEST POP POP POP POP DUP4 PUSH1 0x60 ADD MLOAD PUSH1 0x1 PUSH1 0x1 PUSH1 0xA0 SHL SUB AND PUSH4 0x1E3E2A1A DUP5 PUSH1 0x60 ADD MLOAD PUSH1 0x40 MLOAD DUP3 PUSH4 0xFFFFFFFF AND PUSH1 0xE0 SHL DUP2 MSTORE PUSH1 0x4 ADD PUSH2 0x2412 SWAP2 DUP2 MSTORE PUSH1 0x20 ADD SWAP1 JUMP JUMPDEST PUSH1 0x0 PUSH1 0x40 MLOAD DUP1 DUP4 SUB DUP2 PUSH1 0x0 DUP8 DUP1 EXTCODESIZE ISZERO DUP1 ISZERO PUSH2 0x242C JUMPI PUSH1 0x0 DUP1 REVERT JUMPDEST POP GAS CALL ISZERO DUP1 ISZERO PUSH2 0x2440 JUMPI RETURNDATASIZE PUSH1 0x0 DUP1 RETURNDATACOPY RETURNDATASIZE PUSH1 0x0 REVERT JUMPDEST POP POP POP PUSH1 0x60 DUP5 ADD MLOAD PUSH1 0x40 DUP6 ADD MLOAD PUSH2 0x2457 SWAP3 POP PUSH2 0x57C8 JUMP JUMPDEST DUP4 PUSH1 0x80 ADD DUP2 DUP2 MSTORE POP POP PUSH32 0x43A3F4082A4DBC33D78E317D2497D3A730BC7FC3574159DCEA1056E62E5D9AD8 DUP12 DUP5 PUSH1 0x20 ADD MLOAD DUP6 PUSH1 0x40 ADD MLOAD DUP7 PUSH1 0x60 ADD MLOAD PUSH1 0x40 MLOAD PUSH2 0x24B7 SWAP5 SWAP4 SWAP3 SWAP2 SWAP1 SWAP4 DUP5 MSTORE PUSH1 0x20 DUP5 ADD SWAP3 SWAP1 SWAP3 MSTORE PUSH1 0x40 DUP4 ADD MSTORE PUSH1 0x60 DUP3 ADD MSTORE PUSH1 0x80 ADD SWAP1 JUMP JUMPDEST PUSH1 0x40 MLOAD DUP1 SWAP2 SUB SWAP1 LOG1 DUP4 PUSH1 0x40 ADD MLOAD PUSH1 0x1 PUSH1 0x1 PUSH1 0xA0 SHL SUB AND PUSH4 0x9DC29FAC CALLER DUP6 PUSH1 0x20 ADD MLOAD PUSH1 0x40 MLOAD DUP4 PUSH4 0xFFFFFFFF AND PUSH1 0xE0 SHL DUP2 MSTORE PUSH1 0x4 ADD PUSH2 0x24F5 SWAP3 SWAP2 SWAP1 PUSH2 0x5836 JUMP JUMPDEST PUSH1 0x0 PUSH1 0x40 MLOAD DUP1 DUP4 SUB DUP2 PUSH1 0x0 DUP8 DUP1 EXTCODESIZE ISZERO DUP1 ISZERO PUSH2 0x250F JUMPI PUSH1 0x0 DUP1 REVERT JUMPDEST POP GAS CALL ISZERO DUP1 ISZERO PUSH2 0x2523 JUMPI RETURNDATASIZE PUSH1 0x0 DUP1 RETURNDATACOPY RETURNDATASIZE PUSH1 0x0 REVERT JUMPDEST POP POP DUP6 MLOAD PUSH1 0x20 DUP7 ADD MLOAD PUSH1 0x40 MLOAD PUSH4 0x71B32B5 PUSH1 0xE3 SHL DUP2 MSTORE PUSH1 0x1 PUSH1 0x1 PUSH1 0xA0 SHL SUB SWAP1 SWAP3 AND SWAP4 POP PUSH4 0x38D995A8 SWAP3 POP PUSH2 0x255D SWAP2 PUSH1 0x4 ADD SWAP1 DUP2 MSTORE PUSH1 0x20 ADD SWAP1 JUMP JUMPDEST PUSH1 0x0 PUSH1 0x40 MLOAD DUP1 DUP4 SUB DUP2 PUSH1 0x0 DUP8 DUP1 EXTCODESIZE ISZERO DUP1 ISZERO PUSH2 0x2577 JUMPI PUSH1 0x0 DUP1 REVERT JUMPDEST POP GAS CALL ISZERO DUP1 ISZERO PUSH2 0x258B JUMPI RETURNDATASIZE PUSH1 0x0 DUP1 RETURNDATACOPY RETURNDATASIZE PUSH1 0x0 REVERT JUMPDEST POP POP DUP6 MLOAD PUSH1 0x80 DUP7 ADD MLOAD PUSH1 0x40 MLOAD PUSH4 0x64A197F3 PUSH1 0xE0 SHL DUP2 MSTORE PUSH1 0x1 PUSH1 0x1 PUSH1 0xA0 SHL SUB SWAP1 SWAP3 AND SWAP4 POP PUSH4 0x64A197F3 SWAP3 POP PUSH2 0x25C4 SWAP2 CALLER SWAP2 SWAP1 PUSH1 0x4 ADD PUSH2 0x5836 JUMP JUMPDEST PUSH1 0x0 PUSH1 0x40 MLOAD DUP1 DUP4 SUB DUP2 PUSH1 0x0 DUP8 DUP1 EXTCODESIZE ISZERO DUP1 ISZERO PUSH2 0x25DE JUMPI PUSH1 0x0 DUP1 REVERT JUMPDEST POP GAS CALL ISZERO DUP1 ISZERO PUSH2 0x25F2 JUMPI RETURNDATASIZE PUSH1 0x0 DUP1 RETURNDATACOPY RETURNDATASIZE PUSH1 0x0 REVERT JUMPDEST POP POP POP POP POP POP POP POP POP POP POP POP POP POP POP JUMP JUMPDEST PUSH1 0x0 PUSH2 0xFF6 PUSH2 0x2610 PUSH2 0x329D JUMP JUMPDEST PUSH2 0x31A3 JUMP JUMPDEST PUSH2 0x261D PUSH2 0x2768 JUMP JUMPDEST PUSH2 0xB17 DUP2 PUSH1 0x2 PUSH2 0x437A JUMP JUMPDEST PUSH1 0x0 DUP1 PUSH1 0x0 PUSH2 0x2636 DUP6 PUSH2 0x39F1 JUMP JUMPDEST SWAP2 POP SWAP2 POP PUSH1 0x0 PUSH2 0x1221 DUP4 DUP4 DUP8 PUSH2 0x44A4 JUMP JUMPDEST PUSH1 0x0 PUSH2 0x2651 PUSH2 0x2768 JUMP JUMPDEST PUSH1 0x1 PUSH1 0x1 PUSH1 0xA0 SHL SUB DUP4 AND PUSH1 0x0 SWAP1 DUP2 MSTORE PUSH1 0xE PUSH1 0x20 MSTORE PUSH1 0x40 DUP2 KECCAK256 PUSH1 0x1 ADD SLOAD PUSH2 0x1701 SWAP1 DUP5 SWAP1 PUSH2 0x57C8 JUMP JUMPDEST PUSH1 0x0 PUSH2 0xB67 PUSH2 0x2685 PUSH2 0x2603 JUMP JUMPDEST DUP4 PUSH2 0x44CE JUMP JUMPDEST PUSH1 0x0 PUSH1 0x15 DUP3 DUP2 SLOAD DUP2 LT PUSH2 0x26A0 JUMPI PUSH2 0x26A0 PUSH2 0x5890 JUMP JUMPDEST PUSH1 0x0 SWAP2 DUP3 MSTORE PUSH1 0x20 SWAP1 SWAP2 KECCAK256 ADD SLOAD PUSH1 0x1 PUSH1 0x1 PUSH1 0xA0 SHL SUB AND SWAP3 SWAP2 POP POP JUMP JUMPDEST PUSH1 0x0 PUSH1 0x1 PUSH1 0x1 PUSH1 0x1 PUSH1 0xA0 SHL SUB DUP4 AND PUSH1 0x0 SWAP1 DUP2 MSTORE PUSH1 0xE PUSH1 0x20 MSTORE PUSH1 0x40 SWAP1 KECCAK256 PUSH1 0x3 ADD SLOAD PUSH1 0xFF AND PUSH1 0x4 DUP2 GT ISZERO PUSH2 0x26EF JUMPI PUSH2 0x26EF PUSH2 0x55BE JUMP JUMPDEST EQ PUSH2 0x26FC JUMPI POP PUSH1 0x0 SWAP2 SWAP1 POP JUMP JUMPDEST POP PUSH1 0x12 SLOAD PUSH1 0x1 PUSH1 0x1 PUSH1 0xA0 SHL SUB SWAP1 SWAP2 AND PUSH1 0x0 SWAP1 DUP2 MSTORE PUSH1 0x14 PUSH1 0x20 MSTORE PUSH1 0x40 SWAP1 KECCAK256 SLOAD LT SWAP1 JUMP JUMPDEST PUSH1 0x1 PUSH1 0x1 PUSH1 0xA0 SHL SUB DUP2 AND PUSH1 0x0 SWAP1 DUP2 MSTORE PUSH1 0x14 PUSH1 0x20 MSTORE PUSH1 0x40 DUP2 KECCAK256 PUSH1 0x1 ADD SLOAD PUSH1 0x13 SLOAD DUP3 SWAP1 PUSH2 0x1199 SWAP1 DUP4 SWAP1 PUSH2 0x57C8 JUMP JUMPDEST PUSH1 0x0 PUSH2 0xFF6 PUSH1 0xC SLOAD PUSH2 0x37ED JUMP JUMPDEST PUSH2 0x275F PUSH2 0x2768 JUMP JUMPDEST PUSH2 0xB17 DUP2 PUSH2 0x455E JUMP JUMPDEST PUSH1 0x4 SLOAD PUSH1 0x1 PUSH1 0x1 PUSH1 0xA0 SHL SUB AND CALLER EQ PUSH2 0x27E8 JUMPI PUSH1 0x40 MLOAD PUSH3 0x461BCD PUSH1 0xE5 SHL DUP2 MSTORE PUSH1 0x20 PUSH1 0x4 DUP3 ADD MSTORE PUSH1 0x3B PUSH1 0x24 DUP3 ADD MSTORE PUSH32 0x54726F76654D616E616765723A2043616C6C6572206973206E6F742074686520 PUSH1 0x44 DUP3 ADD MSTORE PUSH32 0x426F72726F7765724F7065726174696F6E7320636F6E74726163740000000000 PUSH1 0x64 DUP3 ADD MSTORE PUSH1 0x84 ADD PUSH2 0xC0E JUMP JUMPDEST JUMP JUMPDEST PUSH2 0x27F3 DUP2 PUSH2 0x26BB JUMP JUMPDEST ISZERO PUSH2 0x28ED JUMPI PUSH2 0x2801 DUP2 PUSH2 0x31E0 JUMP JUMPDEST PUSH1 0x0 PUSH2 0x280C DUP3 PUSH2 0x1170 JUMP JUMPDEST SWAP1 POP PUSH1 0x0 PUSH2 0x2819 DUP4 PUSH2 0x271E JUMP JUMPDEST PUSH1 0x1 PUSH1 0x1 PUSH1 0xA0 SHL SUB DUP5 AND PUSH1 0x0 SWAP1 DUP2 MSTORE PUSH1 0xE PUSH1 0x20 MSTORE PUSH1 0x40 SWAP1 KECCAK256 PUSH1 0x1 ADD SLOAD SWAP1 SWAP2 POP PUSH2 0x2843 SWAP1 DUP4 SWAP1 PUSH2 0x58BC JUMP JUMPDEST PUSH1 0x1 PUSH1 0x1 PUSH1 0xA0 SHL SUB DUP5 AND PUSH1 0x0 SWAP1 DUP2 MSTORE PUSH1 0xE PUSH1 0x20 MSTORE PUSH1 0x40 SWAP1 KECCAK256 PUSH1 0x1 DUP2 ADD SWAP2 SWAP1 SWAP2 SSTORE SLOAD PUSH2 0x286F SWAP1 DUP3 SWAP1 PUSH2 0x58BC JUMP JUMPDEST PUSH1 0x1 PUSH1 0x1 PUSH1 0xA0 SHL SUB DUP5 AND PUSH1 0x0 SWAP1 DUP2 MSTORE PUSH1 0xE PUSH1 0x20 MSTORE PUSH1 0x40 SWAP1 KECCAK256 SSTORE PUSH2 0x2891 DUP4 PUSH2 0x398D JUMP JUMPDEST PUSH2 0x289D DUP6 DUP6 DUP4 DUP6 PUSH2 0x45A9 JUMP JUMPDEST PUSH1 0x1 PUSH1 0x1 PUSH1 0xA0 SHL SUB DUP4 AND PUSH1 0x0 DUP2 DUP2 MSTORE PUSH1 0xE PUSH1 0x20 MSTORE PUSH1 0x40 DUP1 DUP3 KECCAK256 DUP1 SLOAD PUSH1 0x1 DUP3 ADD SLOAD PUSH1 0x2 SWAP1 SWAP3 ADD SLOAD SWAP3 MLOAD PUSH1 0x0 DUP1 MLOAD PUSH1 0x20 PUSH2 0x59BA DUP4 CODECOPY DUP2 MLOAD SWAP2 MSTORE SWAP5 PUSH2 0x28E2 SWAP5 SWAP3 SWAP4 SWAP3 SWAP2 PUSH2 0x5917 JUMP JUMPDEST PUSH1 0x40 MLOAD DUP1 SWAP2 SUB SWAP1 LOG2 POP POP JUMPDEST POP POP POP JUMP JUMPDEST PUSH1 0x15 DUP1 SLOAD PUSH1 0x1 DUP1 DUP3 ADD DUP4 SSTORE PUSH1 0x0 DUP4 DUP2 MSTORE PUSH32 0x55F448FDEA98C4D29EB340757EF0A66CD03DBB9538908A6A81D96026B71EC475 SWAP1 SWAP3 ADD DUP1 SLOAD PUSH1 0x1 PUSH1 0x1 PUSH1 0xA0 SHL SUB NOT AND PUSH1 0x1 PUSH1 0x1 PUSH1 0xA0 SHL SUB DUP7 AND OR SWAP1 SSTORE SWAP2 SLOAD SWAP1 SWAP2 PUSH2 0x294C SWAP2 PUSH2 0x57C8 JUMP JUMPDEST PUSH1 0x1 PUSH1 0x1 PUSH1 0xA0 SHL SUB SWAP3 SWAP1 SWAP3 AND PUSH1 0x0 SWAP1 DUP2 MSTORE PUSH1 0xE PUSH1 0x20 MSTORE PUSH1 0x40 SWAP1 KECCAK256 PUSH1 0x3 ADD DUP1 SLOAD PUSH2 0x100 PUSH1 0x1 PUSH1 0x88 SHL SUB NOT AND PUSH2 0x100 PUSH1 0x1 PUSH1 0x1 PUSH1 0x80 SHL SUB DUP6 AND MUL OR SWAP1 SSTORE POP SWAP1 JUMP JUMPDEST PUSH1 0x1 PUSH1 0x1 PUSH1 0xA0 SHL SUB DUP2 AND PUSH1 0x0 SWAP1 DUP2 MSTORE PUSH1 0xE PUSH1 0x20 MSTORE PUSH1 0x40 DUP2 KECCAK256 PUSH1 0x1 ADD SLOAD DUP2 SWAP1 PUSH2 0x29B2 SWAP1 PUSH2 0x468A JUMP JUMPDEST PUSH1 0x1 PUSH1 0x1 PUSH1 0xA0 SHL SUB DUP5 AND PUSH1 0x0 SWAP1 DUP2 MSTORE PUSH1 0xE PUSH1 0x20 MSTORE PUSH1 0x40 SWAP1 KECCAK256 PUSH1 0x2 ADD DUP1 SLOAD SWAP1 DUP3 SWAP1 SSTORE PUSH1 0xF SLOAD SWAP2 SWAP3 POP SWAP1 DUP3 SWAP1 PUSH2 0x29E7 SWAP1 DUP4 SWAP1 PUSH2 0x57C8 JUMP JUMPDEST PUSH2 0x29F1 SWAP2 SWAP1 PUSH2 0x58BC JUMP JUMPDEST PUSH1 0xF DUP2 SWAP1 SSTORE PUSH1 0x40 MLOAD SWAP1 DUP2 MSTORE PUSH32 0x6BAC5E0EB3C44EB03A60AB11EC3A2C051771616AECADBCFFF2630AABAE520382 SWAP1 PUSH1 0x20 ADD PUSH1 0x40 MLOAD DUP1 SWAP2 SUB SWAP1 LOG1 POP SWAP3 SWAP2 POP POP JUMP JUMPDEST PUSH1 0x0 DUP1 PUSH2 0x2A3C DUP4 PUSH2 0x3AA2 JUMP JUMPDEST PUSH8 0x14D1120D7B160000 GT SWAP4 SWAP3 POP POP POP JUMP JUMPDEST PUSH2 0x2A55 PUSH2 0x53C8 JUMP JUMPDEST PUSH2 0x2A5D PUSH2 0x5414 JUMP JUMPDEST PUSH2 0x2A65 PUSH2 0x53C8 JUMP JUMPDEST DUP5 DUP3 MSTORE PUSH1 0x0 PUSH1 0x80 DUP4 ADD MSTORE PUSH2 0x2A77 PUSH2 0x178B JUMP JUMPDEST PUSH1 0xA0 DUP4 ADD MSTORE PUSH2 0x2A84 PUSH2 0x1CB4 JUMP JUMPDEST PUSH1 0xC0 DUP4 ADD MSTORE PUSH1 0x0 PUSH1 0x20 DUP4 ADD MSTORE JUMPDEST DUP4 MLOAD DUP3 PUSH1 0x20 ADD MLOAD LT ISZERO PUSH2 0x2C6F JUMPI DUP4 DUP3 PUSH1 0x20 ADD MLOAD DUP2 MLOAD DUP2 LT PUSH2 0x2AB4 JUMPI PUSH2 0x2AB4 PUSH2 0x5890 JUMP JUMPDEST PUSH1 0x20 SWAP1 DUP2 MUL SWAP2 SWAP1 SWAP2 ADD DUP2 ADD MLOAD PUSH1 0x1 PUSH1 0x1 PUSH1 0xA0 SHL SUB AND PUSH1 0x60 DUP5 ADD DUP2 SWAP1 MSTORE PUSH1 0x0 SWAP1 DUP2 MSTORE PUSH1 0xE SWAP1 SWAP2 MSTORE PUSH1 0x40 SWAP1 KECCAK256 PUSH1 0x3 ADD SLOAD PUSH1 0x1 SWAP1 PUSH1 0xFF AND PUSH1 0x4 DUP2 GT ISZERO PUSH2 0x2AF9 JUMPI PUSH2 0x2AF9 PUSH2 0x55BE JUMP JUMPDEST SUB PUSH2 0x2C57 JUMPI PUSH2 0x2B0C DUP3 PUSH1 0x60 ADD MLOAD DUP8 PUSH2 0x2628 JUMP JUMPDEST PUSH1 0x40 DUP4 ADD MSTORE PUSH1 0x80 DUP3 ADD MLOAD PUSH2 0x2C00 JUMPI PUSH8 0xF43FC2C04EE0000 DUP3 PUSH1 0x40 ADD MLOAD LT ISZERO DUP1 ISZERO PUSH2 0x2B35 JUMPI POP DUP2 MLOAD ISZERO JUMPDEST PUSH2 0x2C57 JUMPI PUSH1 0x0 PUSH2 0x2B4E DUP4 PUSH1 0xC0 ADD MLOAD DUP5 PUSH1 0xA0 ADD MLOAD DUP10 PUSH2 0x44A4 JUMP JUMPDEST SWAP1 POP PUSH2 0x2B6B DUP10 DUP10 DUP6 PUSH1 0x60 ADD MLOAD DUP7 PUSH1 0x40 ADD MLOAD DUP8 PUSH1 0x0 ADD MLOAD DUP7 DUP14 PUSH2 0x46C0 JUMP JUMPDEST PUSH1 0x80 DUP2 ADD MLOAD DUP5 MLOAD SWAP2 SWAP4 POP PUSH2 0x2B7E SWAP2 PUSH2 0x57C8 JUMP JUMPDEST DUP4 MSTORE PUSH1 0x80 DUP3 ADD MLOAD PUSH1 0xA0 DUP5 ADD MLOAD PUSH2 0x2B94 SWAP2 SWAP1 PUSH2 0x57C8 JUMP JUMPDEST DUP4 PUSH1 0xA0 ADD DUP2 DUP2 MSTORE POP POP DUP2 PUSH2 0x100 ADD MLOAD DUP3 PUSH1 0x40 ADD MLOAD DUP4 PUSH1 0xA0 ADD MLOAD DUP6 PUSH1 0xC0 ADD MLOAD PUSH2 0x2BBC SWAP2 SWAP1 PUSH2 0x57C8 JUMP JUMPDEST PUSH2 0x2BC6 SWAP2 SWAP1 PUSH2 0x57C8 JUMP JUMPDEST PUSH2 0x2BD0 SWAP2 SWAP1 PUSH2 0x57C8 JUMP JUMPDEST PUSH1 0xC0 DUP5 ADD MSTORE PUSH2 0x2BDF DUP5 DUP4 PUSH2 0x49DF JUMP JUMPDEST SWAP4 POP PUSH2 0x2BF4 DUP4 PUSH1 0xC0 ADD MLOAD DUP5 PUSH1 0xA0 ADD MLOAD DUP10 PUSH2 0x4AC9 JUMP JUMPDEST ISZERO PUSH1 0x80 DUP5 ADD MSTORE POP PUSH2 0x2C57 JUMP JUMPDEST DUP2 PUSH1 0x80 ADD MLOAD DUP1 ISZERO PUSH2 0x2C1C JUMPI POP PUSH8 0xF43FC2C04EE0000 DUP3 PUSH1 0x40 ADD MLOAD LT JUMPDEST ISZERO PUSH2 0x2C57 JUMPI PUSH2 0x2C35 DUP9 DUP9 DUP5 PUSH1 0x60 ADD MLOAD DUP6 PUSH1 0x0 ADD MLOAD PUSH2 0x4AEA JUMP JUMPDEST PUSH1 0x80 DUP2 ADD MLOAD DUP4 MLOAD SWAP2 SWAP3 POP PUSH2 0x2C48 SWAP2 PUSH2 0x57C8 JUMP JUMPDEST DUP3 MSTORE PUSH2 0x2C54 DUP4 DUP3 PUSH2 0x49DF JUMP JUMPDEST SWAP3 POP JUMPDEST PUSH1 0x20 DUP3 ADD DUP1 MLOAD SWAP1 PUSH2 0x2C67 DUP3 PUSH2 0x5939 JUMP JUMPDEST SWAP1 MSTORE POP PUSH2 0x2A91 JUMP JUMPDEST POP POP SWAP6 SWAP5 POP POP POP POP POP JUMP JUMPDEST PUSH2 0x2C82 PUSH2 0x53C8 JUMP JUMPDEST PUSH2 0x2C8A PUSH2 0x5414 JUMP JUMPDEST PUSH2 0x2C92 PUSH2 0x53C8 JUMP JUMPDEST DUP5 DUP3 MSTORE PUSH1 0x0 PUSH1 0x20 DUP4 ADD MSTORE JUMPDEST DUP4 MLOAD DUP3 PUSH1 0x20 ADD MLOAD LT ISZERO PUSH2 0x2C6F JUMPI DUP4 DUP3 PUSH1 0x20 ADD MLOAD DUP2 MLOAD DUP2 LT PUSH2 0x2CC0 JUMPI PUSH2 0x2CC0 PUSH2 0x5890 JUMP JUMPDEST PUSH1 0x20 SWAP1 DUP2 MUL SWAP2 SWAP1 SWAP2 ADD ADD MLOAD PUSH1 0x1 PUSH1 0x1 PUSH1 0xA0 SHL SUB AND PUSH1 0x60 DUP4 ADD DUP2 SWAP1 MSTORE PUSH2 0x2CE5 SWAP1 DUP8 PUSH2 0x2628 JUMP JUMPDEST PUSH1 0x40 DUP4 ADD DUP2 SWAP1 MSTORE PUSH8 0xF43FC2C04EE0000 GT ISZERO PUSH2 0x2D31 JUMPI PUSH2 0x2D0F DUP9 DUP9 DUP5 PUSH1 0x60 ADD MLOAD DUP6 PUSH1 0x0 ADD MLOAD PUSH2 0x4AEA JUMP JUMPDEST PUSH1 0x80 DUP2 ADD MLOAD DUP4 MLOAD SWAP2 SWAP3 POP PUSH2 0x2D22 SWAP2 PUSH2 0x57C8 JUMP JUMPDEST DUP3 MSTORE PUSH2 0x2D2E DUP4 DUP3 PUSH2 0x49DF JUMP JUMPDEST SWAP3 POP JUMPDEST PUSH1 0x20 DUP3 ADD DUP1 MLOAD SWAP1 PUSH2 0x2D41 DUP3 PUSH2 0x5939 JUMP JUMPDEST SWAP1 MSTORE POP PUSH2 0x2C9D JUMP JUMPDEST DUP2 ISZERO PUSH2 0x2F6F JUMPI PUSH1 0x16 SLOAD PUSH1 0x0 SWAP1 PUSH2 0x2D67 PUSH8 0xDE0B6B3A7640000 DUP5 PUSH2 0x5879 JUMP JUMPDEST PUSH2 0x2D71 SWAP2 SWAP1 PUSH2 0x58BC JUMP JUMPDEST SWAP1 POP PUSH1 0x0 PUSH1 0x17 SLOAD PUSH8 0xDE0B6B3A7640000 DUP6 PUSH2 0x2D8C SWAP2 SWAP1 PUSH2 0x5879 JUMP JUMPDEST PUSH2 0x2D96 SWAP2 SWAP1 PUSH2 0x58BC JUMP JUMPDEST SWAP1 POP PUSH1 0x0 PUSH1 0xF SLOAD DUP4 PUSH2 0x2DA8 SWAP2 SWAP1 PUSH2 0x5865 JUMP JUMPDEST SWAP1 POP PUSH1 0x0 PUSH1 0xF SLOAD DUP4 PUSH2 0x2DBA SWAP2 SWAP1 PUSH2 0x5865 JUMP JUMPDEST SWAP1 POP PUSH1 0xF SLOAD DUP3 PUSH2 0x2DCA SWAP2 SWAP1 PUSH2 0x5879 JUMP JUMPDEST PUSH2 0x2DD4 SWAP1 DUP6 PUSH2 0x57C8 JUMP JUMPDEST PUSH1 0x16 SSTORE PUSH1 0xF SLOAD PUSH2 0x2DE4 SWAP1 DUP3 PUSH2 0x5879 JUMP JUMPDEST PUSH2 0x2DEE SWAP1 DUP5 PUSH2 0x57C8 JUMP JUMPDEST PUSH1 0x17 SSTORE PUSH1 0x12 SLOAD PUSH2 0x2DFF SWAP1 DUP4 SWAP1 PUSH2 0x58BC JUMP JUMPDEST PUSH1 0x12 SSTORE PUSH1 0x13 SLOAD PUSH2 0x2E10 SWAP1 DUP3 SWAP1 PUSH2 0x58BC JUMP JUMPDEST PUSH1 0x13 DUP2 SWAP1 SSTORE PUSH1 0x12 SLOAD PUSH1 0x40 MLOAD PUSH32 0x9F8BC8AB0DAF5BCEEF75ECFD2085D1FCC6548C657EA970D9A23A60610D0737E3 SWAP3 PUSH2 0x2E4E SWAP3 DUP3 MSTORE PUSH1 0x20 DUP3 ADD MSTORE PUSH1 0x40 ADD SWAP1 JUMP JUMPDEST PUSH1 0x40 MLOAD DUP1 SWAP2 SUB SWAP1 LOG1 PUSH1 0x40 MLOAD PUSH4 0x71B32B5 PUSH1 0xE3 SHL DUP2 MSTORE PUSH1 0x4 DUP2 ADD DUP8 SWAP1 MSTORE PUSH1 0x1 PUSH1 0x1 PUSH1 0xA0 SHL SUB DUP10 AND SWAP1 PUSH4 0x38D995A8 SWAP1 PUSH1 0x24 ADD PUSH1 0x0 PUSH1 0x40 MLOAD DUP1 DUP4 SUB DUP2 PUSH1 0x0 DUP8 DUP1 EXTCODESIZE ISZERO DUP1 ISZERO PUSH2 0x2E98 JUMPI PUSH1 0x0 DUP1 REVERT JUMPDEST POP GAS CALL ISZERO DUP1 ISZERO PUSH2 0x2EAC JUMPI RETURNDATASIZE PUSH1 0x0 DUP1 RETURNDATACOPY RETURNDATASIZE PUSH1 0x0 REVERT JUMPDEST POP POP PUSH1 0x40 MLOAD PUSH4 0x67DC994D PUSH1 0xE1 SHL DUP2 MSTORE PUSH1 0x4 DUP2 ADD DUP10 SWAP1 MSTORE PUSH1 0x1 PUSH1 0x1 PUSH1 0xA0 SHL SUB DUP11 AND SWAP3 POP PUSH4 0xCFB9329A SWAP2 POP PUSH1 0x24 ADD PUSH1 0x0 PUSH1 0x40 MLOAD DUP1 DUP4 SUB DUP2 PUSH1 0x0 DUP8 DUP1 EXTCODESIZE ISZERO DUP1 ISZERO PUSH2 0x2EF2 JUMPI PUSH1 0x0 DUP1 REVERT JUMPDEST POP GAS CALL ISZERO DUP1 ISZERO PUSH2 0x2F06 JUMPI RETURNDATASIZE PUSH1 0x0 DUP1 RETURNDATACOPY RETURNDATASIZE PUSH1 0x0 REVERT JUMPDEST POP POP PUSH1 0x40 MLOAD PUSH4 0x64A197F3 PUSH1 0xE0 SHL DUP2 MSTORE PUSH1 0x1 PUSH1 0x1 PUSH1 0xA0 SHL SUB DUP12 AND SWAP3 POP PUSH4 0x64A197F3 SWAP2 POP PUSH2 0x2F38 SWAP1 DUP11 SWAP1 DUP10 SWAP1 PUSH1 0x4 ADD PUSH2 0x5836 JUMP JUMPDEST PUSH1 0x0 PUSH1 0x40 MLOAD DUP1 DUP4 SUB DUP2 PUSH1 0x0 DUP8 DUP1 EXTCODESIZE ISZERO DUP1 ISZERO PUSH2 0x2F52 JUMPI PUSH1 0x0 DUP1 REVERT JUMPDEST POP GAS CALL ISZERO DUP1 ISZERO PUSH2 0x2F66 JUMPI RETURNDATASIZE PUSH1 0x0 DUP1 RETURNDATACOPY RETURNDATASIZE PUSH1 0x0 REVERT JUMPDEST POP POP POP POP POP POP POP POP JUMPDEST POP POP POP POP JUMP JUMPDEST PUSH1 0xF SLOAD PUSH1 0x10 DUP2 SWAP1 SSTORE POP PUSH1 0x0 DUP3 PUSH1 0x1 PUSH1 0x1 PUSH1 0xA0 SHL SUB AND PUSH4 0x14F6C3BE PUSH1 0x40 MLOAD DUP2 PUSH4 0xFFFFFFFF AND PUSH1 0xE0 SHL DUP2 MSTORE PUSH1 0x4 ADD PUSH1 0x20 PUSH1 0x40 MLOAD DUP1 DUP4 SUB DUP2 DUP7 GAS STATICCALL ISZERO DUP1 ISZERO PUSH2 0x2FBE JUMPI RETURNDATASIZE PUSH1 0x0 DUP1 RETURNDATACOPY RETURNDATASIZE PUSH1 0x0 REVERT JUMPDEST POP POP POP POP PUSH1 0x40 MLOAD RETURNDATASIZE PUSH1 0x1F NOT PUSH1 0x1F DUP3 ADD AND DUP3 ADD DUP1 PUSH1 0x40 MSTORE POP DUP2 ADD SWAP1 PUSH2 0x2FE2 SWAP2 SWAP1 PUSH2 0x57DB JUMP JUMPDEST SWAP1 POP PUSH1 0x0 PUSH1 0x1 PUSH1 0x0 SWAP1 SLOAD SWAP1 PUSH2 0x100 EXP SWAP1 DIV PUSH1 0x1 PUSH1 0x1 PUSH1 0xA0 SHL SUB AND PUSH1 0x1 PUSH1 0x1 PUSH1 0xA0 SHL SUB AND PUSH4 0x14F6C3BE PUSH1 0x40 MLOAD DUP2 PUSH4 0xFFFFFFFF AND PUSH1 0xE0 SHL DUP2 MSTORE PUSH1 0x4 ADD PUSH1 0x20 PUSH1 0x40 MLOAD DUP1 DUP4 SUB DUP2 DUP7 GAS STATICCALL ISZERO DUP1 ISZERO PUSH2 0x3039 JUMPI RETURNDATASIZE PUSH1 0x0 DUP1 RETURNDATACOPY RETURNDATASIZE PUSH1 0x0 REVERT JUMPDEST POP POP POP POP PUSH1 0x40 MLOAD RETURNDATASIZE PUSH1 0x1F NOT PUSH1 0x1F DUP3 ADD AND DUP3 ADD DUP1 PUSH1 0x40 MSTORE POP DUP2 ADD SWAP1 PUSH2 0x305D SWAP2 SWAP1 PUSH2 0x57DB JUMP JUMPDEST SWAP1 POP DUP1 PUSH2 0x306A DUP5 DUP5 PUSH2 0x57C8 JUMP JUMPDEST PUSH2 0x3074 SWAP2 SWAP1 PUSH2 0x58BC JUMP JUMPDEST PUSH1 0x11 DUP2 SWAP1 SSTORE PUSH1 0x10 SLOAD PUSH1 0x40 MLOAD PUSH32 0x51BF4C63EC3CBA9D03D43238ABBDD979DD91BD16D9895C74CEEA9118C7BAAF60 SWAP3 PUSH2 0x30B2 SWAP3 DUP3 MSTORE PUSH1 0x20 DUP3 ADD MSTORE PUSH1 0x40 ADD SWAP1 JUMP JUMPDEST PUSH1 0x40 MLOAD DUP1 SWAP2 SUB SWAP1 LOG1 POP POP POP POP JUMP JUMPDEST DUP2 ISZERO PUSH2 0x3137 JUMPI PUSH1 0x8 SLOAD PUSH1 0x6 SLOAD PUSH1 0x40 MLOAD PUSH4 0x1062C15F PUSH1 0xE1 SHL DUP2 MSTORE PUSH1 0x1 PUSH1 0x1 PUSH1 0xA0 SHL SUB SWAP2 DUP3 AND PUSH1 0x4 DUP3 ADD MSTORE DUP6 DUP3 AND PUSH1 0x24 DUP3 ADD MSTORE PUSH1 0x44 DUP2 ADD DUP6 SWAP1 MSTORE SWAP2 AND SWAP1 PUSH4 0x20C582BE SWAP1 PUSH1 0x64 ADD PUSH1 0x0 PUSH1 0x40 MLOAD DUP1 DUP4 SUB DUP2 PUSH1 0x0 DUP8 DUP1 EXTCODESIZE ISZERO DUP1 ISZERO PUSH2 0x311E JUMPI PUSH1 0x0 DUP1 REVERT JUMPDEST POP GAS CALL ISZERO DUP1 ISZERO PUSH2 0x3132 JUMPI RETURNDATASIZE PUSH1 0x0 DUP1 RETURNDATACOPY RETURNDATASIZE PUSH1 0x0 REVERT JUMPDEST POP POP POP POP JUMPDEST DUP1 ISZERO PUSH2 0x2F6F JUMPI PUSH1 0x40 MLOAD PUSH4 0x64A197F3 PUSH1 0xE0 SHL DUP2 MSTORE PUSH1 0x1 PUSH1 0x1 PUSH1 0xA0 SHL SUB DUP6 AND SWAP1 PUSH4 0x64A197F3 SWAP1 PUSH2 0x316B SWAP1 DUP7 SWAP1 DUP6 SWAP1 PUSH1 0x4 ADD PUSH2 0x5836 JUMP JUMPDEST PUSH1 0x0 PUSH1 0x40 MLOAD DUP1 DUP4 SUB DUP2 PUSH1 0x0 DUP8 DUP1 EXTCODESIZE ISZERO DUP1 ISZERO PUSH2 0x3185 JUMPI PUSH1 0x0 DUP1 REVERT JUMPDEST POP GAS CALL ISZERO DUP1 ISZERO PUSH2 0x3199 JUMPI RETURNDATASIZE PUSH1 0x0 DUP1 RETURNDATACOPY RETURNDATASIZE PUSH1 0x0 REVERT JUMPDEST POP POP POP POP POP POP POP POP JUMP JUMPDEST PUSH1 0x0 PUSH2 0xB67 DUP3 PUSH2 0x31BD PUSH2 0x3E8 PUSH8 0xDE0B6B3A7640000 PUSH2 0x5865 JUMP JUMPDEST PUSH2 0x31C8 SWAP1 PUSH1 0x5 PUSH2 0x5879 JUMP JUMPDEST PUSH2 0x31D2 SWAP2 SWAP1 PUSH2 0x58BC JUMP JUMPDEST PUSH8 0xDE0B6B3A7640000 PUSH2 0x4C43 JUMP JUMPDEST PUSH1 0x1 PUSH1 0x1 PUSH1 0x1 PUSH1 0xA0 SHL SUB DUP3 AND PUSH1 0x0 SWAP1 DUP2 MSTORE PUSH1 0xE PUSH1 0x20 MSTORE PUSH1 0x40 SWAP1 KECCAK256 PUSH1 0x3 ADD SLOAD PUSH1 0xFF AND PUSH1 0x4 DUP2 GT ISZERO PUSH2 0x3212 JUMPI PUSH2 0x3212 PUSH2 0x55BE JUMP JUMPDEST EQ PUSH2 0xB17 JUMPI PUSH1 0x40 MLOAD PUSH3 0x461BCD PUSH1 0xE5 SHL DUP2 MSTORE PUSH1 0x20 PUSH1 0x4 DUP3 ADD MSTORE PUSH1 0x2F PUSH1 0x24 DUP3 ADD MSTORE PUSH32 0x54726F76654D616E616765723A2054726F766520646F6573206E6F7420657869 PUSH1 0x44 DUP3 ADD MSTORE PUSH15 0x1CDD081BDC881A5CC818DB1BDCD959 PUSH1 0x8A SHL PUSH1 0x64 DUP3 ADD MSTORE PUSH1 0x84 ADD PUSH2 0xC0E JUMP JUMPDEST PUSH1 0x0 PUSH8 0xDE0B6B3A7640000 PUSH2 0x328C DUP4 DUP6 PUSH2 0x5879 JUMP JUMPDEST PUSH2 0x3296 SWAP2 SWAP1 PUSH2 0x5865 JUMP JUMPDEST SWAP4 SWAP3 POP POP POP JUMP JUMPDEST PUSH1 0x0 DUP1 PUSH2 0x32A8 PUSH2 0x4C59 JUMP JUMPDEST SWAP1 POP PUSH1 0x0 PUSH2 0x32BE PUSH8 0xDDD4B8C6C7D70D8 DUP4 PUSH2 0x4C75 JUMP JUMPDEST SWAP1 POP PUSH8 0xDE0B6B3A7640000 DUP2 PUSH1 0xC SLOAD PUSH2 0x32D7 SWAP2 SWAP1 PUSH2 0x5879 JUMP JUMPDEST PUSH2 0x1880 SWAP2 SWAP1 PUSH2 0x5865 JUMP JUMPDEST PUSH1 0x0 PUSH1 0xD SLOAD TIMESTAMP PUSH2 0x32F1 SWAP2 SWAP1 PUSH2 0x57C8 JUMP JUMPDEST SWAP1 POP PUSH1 0x3C DUP2 LT PUSH2 0xB17 JUMPI TIMESTAMP PUSH1 0xD DUP2 SWAP1 SSTORE PUSH1 0x40 MLOAD SWAP1 DUP2 MSTORE PUSH32 0x860F8D2F0C74DD487E89E2883E3B25B8159CE1E1B3433A291CBA7B82C508F3BC SWAP1 PUSH1 0x20 ADD JUMPDEST PUSH1 0x40 MLOAD DUP1 SWAP2 SUB SWAP1 LOG1 POP JUMP JUMPDEST PUSH2 0x3340 PUSH2 0x53C8 JUMP JUMPDEST PUSH2 0x3348 PUSH2 0x5414 JUMP JUMPDEST PUSH2 0x3350 PUSH2 0x53C8 JUMP JUMPDEST DUP5 DUP3 MSTORE PUSH1 0x0 PUSH1 0x80 DUP4 ADD MSTORE PUSH2 0x3362 PUSH2 0x178B JUMP JUMPDEST PUSH1 0xA0 DUP4 ADD MSTORE PUSH2 0x336F PUSH2 0x1CB4 JUMP JUMPDEST DUP3 PUSH1 0xC0 ADD DUP2 DUP2 MSTORE POP POP DUP7 PUSH1 0x80 ADD MLOAD PUSH1 0x1 PUSH1 0x1 PUSH1 0xA0 SHL SUB AND PUSH4 0x4D622831 PUSH1 0x40 MLOAD DUP2 PUSH4 0xFFFFFFFF AND PUSH1 0xE0 SHL DUP2 MSTORE PUSH1 0x4 ADD PUSH1 0x20 PUSH1 0x40 MLOAD DUP1 DUP4 SUB DUP2 DUP7 GAS STATICCALL ISZERO DUP1 ISZERO PUSH2 0x33BA JUMPI RETURNDATASIZE PUSH1 0x0 DUP1 RETURNDATACOPY RETURNDATASIZE PUSH1 0x0 REVERT JUMPDEST POP POP POP POP PUSH1 0x40 MLOAD RETURNDATASIZE PUSH1 0x1F NOT PUSH1 0x1F DUP3 ADD AND DUP3 ADD DUP1 PUSH1 0x40 MSTORE POP DUP2 ADD SWAP1 PUSH2 0x33DE SWAP2 SWAP1 PUSH2 0x58CF JUMP JUMPDEST DUP3 PUSH1 0x60 ADD SWAP1 PUSH1 0x1 PUSH1 0x1 PUSH1 0xA0 SHL SUB AND SWAP1 DUP2 PUSH1 0x1 PUSH1 0x1 PUSH1 0xA0 SHL SUB AND DUP2 MSTORE POP POP PUSH1 0x0 DUP8 PUSH1 0x80 ADD MLOAD PUSH1 0x1 PUSH1 0x1 PUSH1 0xA0 SHL SUB AND PUSH4 0x1E223143 PUSH1 0x40 MLOAD DUP2 PUSH4 0xFFFFFFFF AND PUSH1 0xE0 SHL DUP2 MSTORE PUSH1 0x4 ADD PUSH1 0x20 PUSH1 0x40 MLOAD DUP1 DUP4 SUB DUP2 DUP7 GAS STATICCALL ISZERO DUP1 ISZERO PUSH2 0x343F JUMPI RETURNDATASIZE PUSH1 0x0 DUP1 RETURNDATACOPY RETURNDATASIZE PUSH1 0x0 REVERT JUMPDEST POP POP POP POP PUSH1 0x40 MLOAD RETURNDATASIZE PUSH1 0x1F NOT PUSH1 0x1F DUP3 ADD AND DUP3 ADD DUP1 PUSH1 0x40 MSTORE POP DUP2 ADD SWAP1 PUSH2 0x3463 SWAP2 SWAP1 PUSH2 0x58CF JUMP JUMPDEST PUSH1 0x0 PUSH1 0x20 DUP6 ADD MSTORE SWAP1 POP JUMPDEST DUP5 DUP4 PUSH1 0x20 ADD MLOAD LT DUP1 ISZERO PUSH2 0x3496 JUMPI POP DUP1 PUSH1 0x1 PUSH1 0x1 PUSH1 0xA0 SHL SUB AND DUP4 PUSH1 0x60 ADD MLOAD PUSH1 0x1 PUSH1 0x1 PUSH1 0xA0 SHL SUB AND EQ ISZERO JUMPDEST ISZERO PUSH2 0x36B2 JUMPI PUSH1 0x80 DUP9 ADD MLOAD PUSH1 0x60 DUP5 ADD MLOAD PUSH1 0x40 MLOAD PUSH4 0x2DC9C0EB PUSH1 0xE2 SHL DUP2 MSTORE PUSH1 0x1 PUSH1 0x1 PUSH1 0xA0 SHL SUB SWAP2 DUP3 AND PUSH1 0x4 DUP3 ADD MSTORE PUSH1 0x0 SWAP3 SWAP2 SWAP1 SWAP2 AND SWAP1 PUSH4 0xB72703AC SWAP1 PUSH1 0x24 ADD PUSH1 0x20 PUSH1 0x40 MLOAD DUP1 DUP4 SUB DUP2 DUP7 GAS STATICCALL ISZERO DUP1 ISZERO PUSH2 0x34F0 JUMPI RETURNDATASIZE PUSH1 0x0 DUP1 RETURNDATACOPY RETURNDATASIZE PUSH1 0x0 REVERT JUMPDEST POP POP POP POP PUSH1 0x40 MLOAD RETURNDATASIZE PUSH1 0x1F NOT PUSH1 0x1F DUP3 ADD AND DUP3 ADD DUP1 PUSH1 0x40 MSTORE POP DUP2 ADD SWAP1 PUSH2 0x3514 SWAP2 SWAP1 PUSH2 0x58CF JUMP JUMPDEST SWAP1 POP PUSH2 0x3524 DUP5 PUSH1 0x60 ADD MLOAD DUP10 PUSH2 0x2628 JUMP JUMPDEST PUSH1 0x40 DUP6 ADD MSTORE PUSH1 0x80 DUP5 ADD MLOAD PUSH2 0x3623 JUMPI PUSH8 0xF43FC2C04EE0000 DUP5 PUSH1 0x40 ADD MLOAD LT ISZERO DUP1 ISZERO PUSH2 0x354D JUMPI POP DUP4 MLOAD ISZERO JUMPDEST ISZERO PUSH2 0x3558 JUMPI POP PUSH2 0x36B2 JUMP JUMPDEST PUSH1 0x0 PUSH2 0x356D DUP6 PUSH1 0xC0 ADD MLOAD DUP7 PUSH1 0xA0 ADD MLOAD DUP12 PUSH2 0x44A4 JUMP JUMPDEST DUP11 MLOAD PUSH1 0x20 DUP13 ADD MLOAD PUSH1 0x60 DUP9 ADD MLOAD PUSH1 0x40 DUP10 ADD MLOAD DUP10 MLOAD SWAP5 SWAP6 POP PUSH2 0x358E SWAP5 DUP7 DUP16 PUSH2 0x46C0 JUMP JUMPDEST PUSH1 0x80 DUP2 ADD MLOAD DUP7 MLOAD SWAP2 SWAP6 POP PUSH2 0x35A1 SWAP2 PUSH2 0x57C8 JUMP JUMPDEST DUP6 MSTORE PUSH1 0x80 DUP5 ADD MLOAD PUSH1 0xA0 DUP7 ADD MLOAD PUSH2 0x35B7 SWAP2 SWAP1 PUSH2 0x57C8 JUMP JUMPDEST DUP6 PUSH1 0xA0 ADD DUP2 DUP2 MSTORE POP POP DUP4 PUSH2 0x100 ADD MLOAD DUP5 PUSH1 0x40 ADD MLOAD DUP6 PUSH1 0xA0 ADD MLOAD DUP8 PUSH1 0xC0 ADD MLOAD PUSH2 0x35DF SWAP2 SWAP1 PUSH2 0x57C8 JUMP JUMPDEST PUSH2 0x35E9 SWAP2 SWAP1 PUSH2 0x57C8 JUMP JUMPDEST PUSH2 0x35F3 SWAP2 SWAP1 PUSH2 0x57C8 JUMP JUMPDEST PUSH1 0xC0 DUP7 ADD MSTORE PUSH2 0x3602 DUP7 DUP6 PUSH2 0x49DF JUMP JUMPDEST SWAP6 POP PUSH2 0x3617 DUP6 PUSH1 0xC0 ADD MLOAD DUP7 PUSH1 0xA0 ADD MLOAD DUP12 PUSH2 0x4AC9 JUMP JUMPDEST ISZERO PUSH1 0x80 DUP7 ADD MSTORE POP PUSH2 0x368C JUMP JUMPDEST DUP4 PUSH1 0x80 ADD MLOAD DUP1 ISZERO PUSH2 0x363F JUMPI POP PUSH8 0xF43FC2C04EE0000 DUP5 PUSH1 0x40 ADD MLOAD LT JUMPDEST ISZERO PUSH2 0x3686 JUMPI PUSH2 0x3660 DUP10 PUSH1 0x0 ADD MLOAD DUP11 PUSH1 0x20 ADD MLOAD DUP7 PUSH1 0x60 ADD MLOAD DUP8 PUSH1 0x0 ADD MLOAD PUSH2 0x4AEA JUMP JUMPDEST PUSH1 0x80 DUP2 ADD MLOAD DUP6 MLOAD SWAP2 SWAP5 POP PUSH2 0x3673 SWAP2 PUSH2 0x57C8 JUMP JUMPDEST DUP5 MSTORE PUSH2 0x367F DUP6 DUP5 PUSH2 0x49DF JUMP JUMPDEST SWAP5 POP PUSH2 0x368C JUMP JUMPDEST POP PUSH2 0x36B2 JUMP JUMPDEST PUSH1 0x1 PUSH1 0x1 PUSH1 0xA0 SHL SUB AND PUSH1 0x60 DUP5 ADD MSTORE PUSH1 0x20 DUP4 ADD DUP1 MLOAD SWAP1 PUSH2 0x36AA DUP3 PUSH2 0x5939 JUMP JUMPDEST SWAP1 MSTORE POP PUSH2 0x346D JUMP JUMPDEST POP POP POP SWAP5 SWAP4 POP POP POP POP JUMP JUMPDEST PUSH2 0x36C5 PUSH2 0x53C8 JUMP JUMPDEST PUSH2 0x36CD PUSH2 0x5414 JUMP JUMPDEST PUSH2 0x36D5 PUSH2 0x53C8 JUMP JUMPDEST PUSH1 0xB SLOAD DUP6 DUP4 MSTORE PUSH1 0x0 PUSH1 0x20 DUP5 ADD MSTORE PUSH1 0x1 PUSH1 0x1 PUSH1 0xA0 SHL SUB AND JUMPDEST DUP5 DUP4 PUSH1 0x20 ADD MLOAD LT ISZERO PUSH2 0x37E1 JUMPI DUP1 PUSH1 0x1 PUSH1 0x1 PUSH1 0xA0 SHL SUB AND PUSH4 0x4D622831 PUSH1 0x40 MLOAD DUP2 PUSH4 0xFFFFFFFF AND PUSH1 0xE0 SHL DUP2 MSTORE PUSH1 0x4 ADD PUSH1 0x20 PUSH1 0x40 MLOAD DUP1 DUP4 SUB DUP2 DUP7 GAS STATICCALL ISZERO DUP1 ISZERO PUSH2 0x3736 JUMPI RETURNDATASIZE PUSH1 0x0 DUP1 RETURNDATACOPY RETURNDATASIZE PUSH1 0x0 REVERT JUMPDEST POP POP POP POP PUSH1 0x40 MLOAD RETURNDATASIZE PUSH1 0x1F NOT PUSH1 0x1F DUP3 ADD AND DUP3 ADD DUP1 PUSH1 0x40 MSTORE POP DUP2 ADD SWAP1 PUSH2 0x375A SWAP2 SWAP1 PUSH2 0x58CF JUMP JUMPDEST PUSH1 0x1 PUSH1 0x1 PUSH1 0xA0 SHL SUB AND PUSH1 0x60 DUP5 ADD DUP2 SWAP1 MSTORE PUSH2 0x3774 SWAP1 DUP9 PUSH2 0x2628 JUMP JUMPDEST PUSH1 0x40 DUP5 ADD DUP2 SWAP1 MSTORE PUSH8 0xF43FC2C04EE0000 GT ISZERO PUSH2 0x37C4 JUMPI PUSH2 0x379E DUP10 DUP10 DUP6 PUSH1 0x60 ADD MLOAD DUP7 PUSH1 0x0 ADD MLOAD PUSH2 0x4AEA JUMP JUMPDEST PUSH1 0x80 DUP2 ADD MLOAD DUP5 MLOAD SWAP2 SWAP4 POP PUSH2 0x37B1 SWAP2 PUSH2 0x57C8 JUMP JUMPDEST DUP4 MSTORE PUSH2 0x37BD DUP5 DUP4 PUSH2 0x49DF JUMP JUMPDEST SWAP4 POP PUSH2 0x37C9 JUMP JUMPDEST PUSH2 0x37E1 JUMP JUMPDEST PUSH1 0x20 DUP4 ADD DUP1 MLOAD SWAP1 PUSH2 0x37D9 DUP3 PUSH2 0x5939 JUMP JUMPDEST SWAP1 MSTORE POP PUSH2 0x36EC JUMP JUMPDEST POP POP POP SWAP6 SWAP5 POP POP POP POP POP JUMP JUMPDEST PUSH1 0x0 PUSH2 0xB67 DUP3 PUSH2 0x3807 PUSH2 0x3E8 PUSH8 0xDE0B6B3A7640000 PUSH2 0x5865 JUMP JUMPDEST PUSH2 0x3812 SWAP1 PUSH1 0x5 PUSH2 0x5879 JUMP JUMPDEST PUSH2 0x381C SWAP2 SWAP1 PUSH2 0x58BC JUMP JUMPDEST PUSH2 0x382F PUSH1 0x64 PUSH8 0xDE0B6B3A7640000 PUSH2 0x5865 JUMP JUMPDEST PUSH2 0x383A SWAP1 PUSH1 0x5 PUSH2 0x5879 JUMP JUMPDEST PUSH2 0x4C43 JUMP JUMPDEST PUSH1 0x0 DUP1 PUSH2 0x384C DUP4 DUP6 PUSH2 0x58BC JUMP JUMPDEST SWAP1 POP DUP4 DUP2 LT ISZERO PUSH2 0x3296 JUMPI PUSH1 0x40 MLOAD PUSH3 0x461BCD PUSH1 0xE5 SHL DUP2 MSTORE PUSH1 0x20 PUSH1 0x4 DUP3 ADD MSTORE PUSH1 0x1B PUSH1 0x24 DUP3 ADD MSTORE PUSH32 0x536166654D6174683A206164646974696F6E206F766572666C6F770000000000 PUSH1 0x44 DUP3 ADD MSTORE PUSH1 0x64 ADD PUSH2 0xC0E JUMP JUMPDEST PUSH1 0x1 PUSH1 0x1 PUSH1 0xA0 SHL SUB DUP2 AND PUSH2 0x38F4 JUMPI PUSH1 0x40 MLOAD PUSH3 0x461BCD PUSH1 0xE5 SHL DUP2 MSTORE PUSH1 0x20 PUSH1 0x4 DUP3 ADD MSTORE PUSH1 0x1E PUSH1 0x24 DUP3 ADD MSTORE PUSH32 0x4163636F756E742063616E6E6F74206265207A65726F20616464726573730000 PUSH1 0x44 DUP3 ADD MSTORE PUSH1 0x64 ADD PUSH2 0xC0E JUMP JUMPDEST DUP1 EXTCODESIZE DUP1 PUSH2 0x1063 JUMPI PUSH1 0x40 MLOAD PUSH3 0x461BCD PUSH1 0xE5 SHL DUP2 MSTORE PUSH1 0x20 PUSH1 0x4 DUP3 ADD DUP2 SWAP1 MSTORE PUSH1 0x24 DUP3 ADD MSTORE PUSH32 0x4163636F756E7420636F64652073697A652063616E6E6F74206265207A65726F PUSH1 0x44 DUP3 ADD MSTORE PUSH1 0x64 ADD PUSH2 0xC0E JUMP JUMPDEST PUSH1 0x3 SLOAD PUSH1 0x40 MLOAD PUSH1 0x0 SWAP2 PUSH1 0x1 PUSH1 0x1 PUSH1 0xA0 SHL SUB AND SWAP1 PUSH32 0x8BE0079C531659141344CD1FD0A4F28419497F9722A3DAAFE3B4186F6B6457E0 SWAP1 DUP4 SWAP1 LOG3 PUSH1 0x3 DUP1 SLOAD PUSH1 0x1 PUSH1 0x1 PUSH1 0xA0 SHL SUB NOT AND SWAP1 SSTORE JUMP JUMPDEST PUSH1 0x12 DUP1 SLOAD PUSH1 0x1 PUSH1 0x1 PUSH1 0xA0 SHL SUB DUP4 AND PUSH1 0x0 SWAP1 DUP2 MSTORE PUSH1 0x14 PUSH1 0x20 MSTORE PUSH1 0x40 SWAP1 DUP2 SWAP1 KECCAK256 SWAP2 DUP3 SSTORE PUSH1 0x13 SLOAD PUSH1 0x1 SWAP1 SWAP3 ADD DUP3 SWAP1 SSTORE SWAP2 SLOAD SWAP2 MLOAD PUSH32 0xC437F324D85E369394148DD9D62F98F534B382E01ED3DD2EB98138FB6D3AB49A SWAP3 PUSH2 0x332D SWAP3 SWAP1 DUP3 MSTORE PUSH1 0x20 DUP3 ADD MSTORE PUSH1 0x40 ADD SWAP1 JUMP JUMPDEST PUSH1 0x0 DUP1 PUSH1 0x0 PUSH2 0x39FF DUP5 PUSH2 0x1170 JUMP JUMPDEST SWAP1 POP PUSH1 0x0 PUSH2 0x3A0C DUP6 PUSH2 0x271E JUMP JUMPDEST PUSH1 0x1 PUSH1 0x1 PUSH1 0xA0 SHL SUB DUP7 AND PUSH1 0x0 SWAP1 DUP2 MSTORE PUSH1 0xE PUSH1 0x20 MSTORE PUSH1 0x40 DUP2 KECCAK256 PUSH1 0x1 ADD SLOAD SWAP2 SWAP3 POP SWAP1 PUSH2 0x3A37 SWAP1 DUP5 SWAP1 PUSH2 0x58BC JUMP JUMPDEST PUSH1 0x1 PUSH1 0x1 PUSH1 0xA0 SHL SUB DUP8 AND PUSH1 0x0 SWAP1 DUP2 MSTORE PUSH1 0xE PUSH1 0x20 MSTORE PUSH1 0x40 DUP2 KECCAK256 SLOAD SWAP2 SWAP3 POP SWAP1 PUSH2 0x3A5F SWAP1 DUP5 SWAP1 PUSH2 0x58BC JUMP JUMPDEST SWAP2 SWAP8 SWAP2 SWAP7 POP SWAP1 SWAP5 POP POP POP POP POP JUMP JUMPDEST PUSH1 0x0 DUP2 ISZERO PUSH2 0x3A99 JUMPI PUSH2 0x3A92 DUP3 PUSH2 0x3A8C DUP6 PUSH9 0x56BC75E2D63100000 PUSH2 0x4D19 JUMP JUMPDEST SWAP1 PUSH2 0x4D9B JUMP JUMPDEST SWAP1 POP PUSH2 0xB67 JUMP JUMPDEST POP PUSH1 0x0 NOT PUSH2 0xB67 JUMP JUMPDEST PUSH1 0x0 DUP1 PUSH2 0x3AAD PUSH2 0x1CB4 JUMP JUMPDEST SWAP1 POP PUSH1 0x0 PUSH2 0x3AB9 PUSH2 0x178B JUMP JUMPDEST SWAP1 POP PUSH2 0x3AC6 DUP3 DUP3 DUP7 PUSH2 0x44A4 JUMP JUMPDEST SWAP5 SWAP4 POP POP POP POP JUMP JUMPDEST PUSH1 0x18 SLOAD PUSH2 0x3AE5 PUSH2 0x3E8 PUSH8 0xDE0B6B3A7640000 PUSH2 0x5865 JUMP JUMPDEST PUSH2 0x3AF0 SWAP1 PUSH1 0x5 PUSH2 0x5879 JUMP JUMPDEST PUSH2 0x3AFA SWAP2 SWAP1 PUSH2 0x58BC JUMP JUMPDEST DUP2 LT ISZERO DUP1 ISZERO PUSH2 0x3B11 JUMPI POP PUSH8 0xDE0B6B3A7640000 DUP2 GT ISZERO JUMPDEST PUSH2 0xB17 JUMPI PUSH1 0x40 MLOAD PUSH3 0x461BCD PUSH1 0xE5 SHL DUP2 MSTORE PUSH1 0x20 PUSH1 0x4 DUP3 ADD MSTORE PUSH1 0x49 PUSH1 0x24 DUP3 ADD MSTORE PUSH32 0x4D6178206665652070657263656E74616765206D757374206265206265747765 PUSH1 0x44 DUP3 ADD MSTORE PUSH32 0x656E2028302E3525202B20726564656D7074696F6E5265776172645261746529 PUSH1 0x64 DUP3 ADD MSTORE PUSH9 0x20616E642031303025 PUSH1 0xB8 SHL PUSH1 0x84 DUP3 ADD MSTORE PUSH1 0xA4 ADD PUSH2 0xC0E JUMP JUMPDEST PUSH1 0x9 SLOAD PUSH1 0x40 DUP1 MLOAD PUSH4 0x1E425BE1 PUSH1 0xE1 SHL DUP2 MSTORE SWAP1 MLOAD PUSH1 0x0 SWAP3 PUSH1 0x1 PUSH1 0x1 PUSH1 0xA0 SHL SUB AND SWAP2 PUSH4 0x3C84B7C2 SWAP2 PUSH1 0x4 DUP1 DUP4 ADD SWAP3 PUSH1 0x20 SWAP3 SWAP2 SWAP1 DUP3 SWAP1 SUB ADD DUP2 DUP7 GAS STATICCALL ISZERO DUP1 ISZERO PUSH2 0x3BDF JUMPI RETURNDATASIZE PUSH1 0x0 DUP1 RETURNDATACOPY RETURNDATASIZE PUSH1 0x0 REVERT JUMPDEST POP POP POP POP PUSH1 0x40 MLOAD RETURNDATASIZE PUSH1 0x1F NOT PUSH1 0x1F DUP3 ADD AND DUP3 ADD DUP1 PUSH1 0x40 MSTORE POP DUP2 ADD SWAP1 PUSH2 0x3C03 SWAP2 SWAP1 PUSH2 0x57DB JUMP JUMPDEST SWAP1 POP PUSH2 0x3C10 PUSH1 0x0 DUP3 PUSH2 0x58BC JUMP JUMPDEST TIMESTAMP LT ISZERO PUSH2 0xB17 JUMPI PUSH1 0x40 DUP1 MLOAD PUSH3 0x461BCD PUSH1 0xE5 SHL DUP2 MSTORE PUSH1 0x20 PUSH1 0x4 DUP3 ADD MSTORE PUSH1 0x24 DUP2 ADD SWAP2 SWAP1 SWAP2 MSTORE PUSH32 0x54726F76654D616E616765723A20526564656D7074696F6E7320617265206E6F PUSH1 0x44 DUP3 ADD MSTORE PUSH32 0x7420616C6C6F77656420647572696E6720626F6F747374726170207068617365 PUSH1 0x64 DUP3 ADD MSTORE PUSH1 0x84 ADD PUSH2 0xC0E JUMP JUMPDEST PUSH8 0xF43FC2C04EE0000 PUSH2 0x3C99 DUP3 PUSH2 0x3AA2 JUMP JUMPDEST LT ISZERO PUSH2 0xB17 JUMPI PUSH1 0x40 MLOAD PUSH3 0x461BCD PUSH1 0xE5 SHL DUP2 MSTORE PUSH1 0x20 PUSH1 0x4 DUP3 ADD MSTORE PUSH1 0x2A PUSH1 0x24 DUP3 ADD MSTORE PUSH32 0x54726F76654D616E616765723A2043616E6E6F742072656465656D207768656E PUSH1 0x44 DUP3 ADD MSTORE PUSH10 0x102A21A9101E1026A1A9 PUSH1 0xB1 SHL PUSH1 0x64 DUP3 ADD MSTORE PUSH1 0x84 ADD PUSH2 0xC0E JUMP JUMPDEST PUSH1 0x0 DUP2 GT PUSH2 0xB17 JUMPI PUSH1 0x40 MLOAD PUSH3 0x461BCD PUSH1 0xE5 SHL DUP2 MSTORE PUSH1 0x20 PUSH1 0x4 DUP3 ADD MSTORE PUSH1 0x2E PUSH1 0x24 DUP3 ADD MSTORE PUSH32 0x54726F76654D616E616765723A20416D6F756E74206D75737420626520677265 PUSH1 0x44 DUP3 ADD MSTORE PUSH14 0x61746572207468616E207A65726F PUSH1 0x90 SHL PUSH1 0x64 DUP3 ADD MSTORE PUSH1 0x84 ADD PUSH2 0xC0E JUMP JUMPDEST PUSH1 0x40 MLOAD PUSH4 0x70A08231 PUSH1 0xE0 SHL DUP2 MSTORE PUSH1 0x1 PUSH1 0x1 PUSH1 0xA0 SHL SUB DUP4 DUP2 AND PUSH1 0x4 DUP4 ADD MSTORE DUP3 SWAP2 SWAP1 DUP6 AND SWAP1 PUSH4 0x70A08231 SWAP1 PUSH1 0x24 ADD PUSH1 0x20 PUSH1 0x40 MLOAD DUP1 DUP4 SUB DUP2 DUP7 GAS STATICCALL ISZERO DUP1 ISZERO PUSH2 0x3DAA JUMPI RETURNDATASIZE PUSH1 0x0 DUP1 RETURNDATACOPY RETURNDATASIZE PUSH1 0x0 REVERT JUMPDEST POP POP POP POP PUSH1 0x40 MLOAD RETURNDATASIZE PUSH1 0x1F NOT PUSH1 0x1F DUP3 ADD AND DUP3 ADD DUP1 PUSH1 0x40 MSTORE POP DUP2 ADD SWAP1 PUSH2 0x3DCE SWAP2 SWAP1 PUSH2 0x57DB JUMP JUMPDEST LT ISZERO PUSH2 0x28ED JUMPI PUSH1 0x40 MLOAD PUSH3 0x461BCD PUSH1 0xE5 SHL DUP2 MSTORE PUSH1 0x20 PUSH1 0x4 DUP3 ADD MSTORE PUSH1 0x4E PUSH1 0x24 DUP3 ADD MSTORE PUSH32 0x54726F76654D616E616765723A2052657175657374656420726564656D707469 PUSH1 0x44 DUP3 ADD MSTORE PUSH32 0x6F6E20616D6F756E74206D757374206265203C3D20757365722773204C555344 PUSH1 0x64 DUP3 ADD MSTORE PUSH14 0x20746F6B656E2062616C616E6365 PUSH1 0x90 SHL PUSH1 0x84 DUP3 ADD MSTORE PUSH1 0xA4 ADD PUSH2 0xC0E JUMP JUMPDEST PUSH1 0x0 PUSH1 0x1 PUSH1 0x1 PUSH1 0xA0 SHL SUB DUP4 AND ISZERO DUP1 PUSH2 0x3ED8 JUMPI POP PUSH1 0x40 MLOAD PUSH4 0xBB7C8FD PUSH1 0xE3 SHL DUP2 MSTORE PUSH1 0x1 PUSH1 0x1 PUSH1 0xA0 SHL SUB DUP5 DUP2 AND PUSH1 0x4 DUP4 ADD MSTORE DUP6 AND SWAP1 PUSH4 0x5DBE47E8 SWAP1 PUSH1 0x24 ADD PUSH1 0x20 PUSH1 0x40 MLOAD DUP1 DUP4 SUB DUP2 DUP7 GAS STATICCALL ISZERO DUP1 ISZERO PUSH2 0x3EB2 JUMPI RETURNDATASIZE PUSH1 0x0 DUP1 RETURNDATACOPY RETURNDATASIZE PUSH1 0x0 REVERT JUMPDEST POP POP POP POP PUSH1 0x40 MLOAD RETURNDATASIZE PUSH1 0x1F NOT PUSH1 0x1F DUP3 ADD AND DUP3 ADD DUP1 PUSH1 0x40 MSTORE POP DUP2 ADD SWAP1 PUSH2 0x3ED6 SWAP2 SWAP1 PUSH2 0x5952 JUMP JUMPDEST ISZERO JUMPDEST DUP1 PUSH2 0x3EF3 JUMPI POP PUSH8 0xF43FC2C04EE0000 PUSH2 0x3EF1 DUP5 DUP5 PUSH2 0x2628 JUMP JUMPDEST LT JUMPDEST ISZERO PUSH2 0x3F00 JUMPI POP PUSH1 0x0 PUSH2 0x3296 JUMP JUMPDEST PUSH1 0x40 MLOAD PUSH4 0x765E0159 PUSH1 0xE0 SHL DUP2 MSTORE PUSH1 0x1 PUSH1 0x1 PUSH1 0xA0 SHL SUB DUP5 DUP2 AND PUSH1 0x4 DUP4 ADD MSTORE PUSH1 0x0 SWAP2 SWAP1 DUP7 AND SWAP1 PUSH4 0x765E0159 SWAP1 PUSH1 0x24 ADD PUSH1 0x20 PUSH1 0x40 MLOAD DUP1 DUP4 SUB DUP2 DUP7 GAS STATICCALL ISZERO DUP1 ISZERO PUSH2 0x3F4A JUMPI RETURNDATASIZE PUSH1 0x0 DUP1 RETURNDATACOPY RETURNDATASIZE PUSH1 0x0 REVERT JUMPDEST POP POP POP POP PUSH1 0x40 MLOAD RETURNDATASIZE PUSH1 0x1F NOT PUSH1 0x1F DUP3 ADD AND DUP3 ADD DUP1 PUSH1 0x40 MSTORE POP DUP2 ADD SWAP1 PUSH2 0x3F6E SWAP2 SWAP1 PUSH2 0x58CF JUMP JUMPDEST SWAP1 POP PUSH1 0x1 PUSH1 0x1 PUSH1 0xA0 SHL SUB DUP2 AND ISZERO DUP1 PUSH2 0x1DEE JUMPI POP PUSH8 0xF43FC2C04EE0000 PUSH2 0x3F94 DUP3 DUP6 PUSH2 0x2628 JUMP JUMPDEST LT SWAP6 SWAP5 POP POP POP POP POP JUMP JUMPDEST PUSH2 0x3FC4 PUSH1 0x40 MLOAD DUP1 PUSH1 0x60 ADD PUSH1 0x40 MSTORE DUP1 PUSH1 0x0 DUP2 MSTORE PUSH1 0x20 ADD PUSH1 0x0 DUP2 MSTORE PUSH1 0x20 ADD PUSH1 0x0 ISZERO ISZERO DUP2 MSTORE POP SWAP1 JUMP JUMPDEST PUSH1 0x1 PUSH1 0x1 PUSH1 0xA0 SHL SUB DUP8 AND PUSH1 0x0 SWAP1 DUP2 MSTORE PUSH1 0xE PUSH1 0x20 MSTORE PUSH1 0x40 SWAP1 KECCAK256 SLOAD PUSH2 0x3FF7 SWAP1 DUP8 SWAP1 PUSH2 0x383A SWAP1 PUSH9 0x1158E460913D00000 SWAP1 PUSH2 0x57C8 JUMP JUMPDEST DUP2 MSTORE PUSH1 0x18 SLOAD DUP6 SWAP1 PUSH2 0x4010 SWAP1 PUSH8 0xDE0B6B3A7640000 PUSH2 0x57C8 JUMP JUMPDEST DUP3 MLOAD PUSH2 0x401C SWAP2 SWAP1 PUSH2 0x5879 JUMP JUMPDEST PUSH2 0x4026 SWAP2 SWAP1 PUSH2 0x5865 JUMP JUMPDEST PUSH1 0x20 DUP1 DUP4 ADD SWAP2 SWAP1 SWAP2 MSTORE DUP2 MLOAD PUSH1 0x1 PUSH1 0x1 PUSH1 0xA0 SHL SUB DUP10 AND PUSH1 0x0 SWAP1 DUP2 MSTORE PUSH1 0xE SWAP1 SWAP3 MSTORE PUSH1 0x40 DUP3 KECCAK256 SLOAD PUSH2 0x4054 SWAP2 SWAP1 PUSH2 0x57C8 JUMP JUMPDEST PUSH1 0x20 DUP1 DUP5 ADD MLOAD PUSH1 0x1 PUSH1 0x1 PUSH1 0xA0 SHL SUB DUP12 AND PUSH1 0x0 SWAP1 DUP2 MSTORE PUSH1 0xE SWAP1 SWAP3 MSTORE PUSH1 0x40 DUP3 KECCAK256 PUSH1 0x1 ADD SLOAD SWAP3 SWAP4 POP SWAP1 SWAP2 PUSH2 0x4085 SWAP2 SWAP1 PUSH2 0x57C8 JUMP JUMPDEST SWAP1 POP PUSH9 0x1158E460913D00000 DUP3 SUB PUSH2 0x40FD JUMPI PUSH2 0x40A0 DUP10 PUSH2 0x455E JUMP JUMPDEST PUSH2 0x40AB DUP10 PUSH1 0x4 PUSH2 0x437A JUMP JUMPDEST PUSH2 0x40C0 DUP11 DUP11 PUSH9 0x1158E460913D00000 DUP5 PUSH2 0x4DDD JUMP JUMPDEST DUP9 PUSH1 0x1 PUSH1 0x1 PUSH1 0xA0 SHL SUB AND PUSH1 0x0 DUP1 MLOAD PUSH1 0x20 PUSH2 0x59BA DUP4 CODECOPY DUP2 MLOAD SWAP2 MSTORE PUSH1 0x0 DUP1 PUSH1 0x0 PUSH1 0x3 PUSH1 0x40 MLOAD PUSH2 0x40F0 SWAP5 SWAP4 SWAP3 SWAP2 SWAP1 PUSH2 0x5917 JUMP JUMPDEST PUSH1 0x40 MLOAD DUP1 SWAP2 SUB SWAP1 LOG2 PUSH2 0x422B JUMP JUMPDEST PUSH1 0x0 PUSH2 0x4109 DUP3 DUP5 PUSH2 0x3A6D JUMP JUMPDEST SWAP1 POP DUP5 DUP2 EQ ISZERO DUP1 PUSH2 0x412A JUMPI POP PUSH9 0x9C2007651B2500000 PUSH2 0x4128 DUP5 PUSH2 0x4F3C JUMP JUMPDEST LT JUMPDEST ISZERO PUSH2 0x413E JUMPI POP POP PUSH1 0x1 PUSH1 0x40 DUP4 ADD MSTORE POP PUSH2 0x422E JUMP JUMPDEST PUSH1 0x80 DUP12 ADD MLOAD PUSH1 0x40 MLOAD PUSH4 0x15F1093 PUSH1 0xE5 SHL DUP2 MSTORE PUSH1 0x1 PUSH1 0x1 PUSH1 0xA0 SHL SUB DUP13 DUP2 AND PUSH1 0x4 DUP4 ADD MSTORE PUSH1 0x24 DUP3 ADD DUP5 SWAP1 MSTORE DUP10 DUP2 AND PUSH1 0x44 DUP4 ADD MSTORE DUP9 DUP2 AND PUSH1 0x64 DUP4 ADD MSTORE SWAP1 SWAP2 AND SWAP1 PUSH4 0x2BE21260 SWAP1 PUSH1 0x84 ADD PUSH1 0x0 PUSH1 0x40 MLOAD DUP1 DUP4 SUB DUP2 PUSH1 0x0 DUP8 DUP1 EXTCODESIZE ISZERO DUP1 ISZERO PUSH2 0x419E JUMPI PUSH1 0x0 DUP1 REVERT JUMPDEST POP GAS CALL ISZERO DUP1 ISZERO PUSH2 0x41B2 JUMPI RETURNDATASIZE PUSH1 0x0 DUP1 RETURNDATACOPY RETURNDATASIZE PUSH1 0x0 REVERT JUMPDEST POP POP POP PUSH1 0x1 PUSH1 0x1 PUSH1 0xA0 SHL SUB DUP12 AND PUSH1 0x0 SWAP1 DUP2 MSTORE PUSH1 0xE PUSH1 0x20 MSTORE PUSH1 0x40 SWAP1 KECCAK256 DUP5 DUP2 SSTORE PUSH1 0x1 ADD DUP4 SWAP1 SSTORE POP PUSH2 0x41E0 DUP11 PUSH2 0x298B JUMP JUMPDEST POP PUSH1 0x1 PUSH1 0x1 PUSH1 0xA0 SHL SUB DUP11 AND PUSH1 0x0 DUP2 DUP2 MSTORE PUSH1 0xE PUSH1 0x20 MSTORE PUSH1 0x40 SWAP1 DUP2 SWAP1 KECCAK256 PUSH1 0x2 ADD SLOAD SWAP1 MLOAD PUSH1 0x0 DUP1 MLOAD PUSH1 0x20 PUSH2 0x59BA DUP4 CODECOPY DUP2 MLOAD SWAP2 MSTORE SWAP2 PUSH2 0x4221 SWAP2 DUP8 SWAP2 DUP8 SWAP2 PUSH1 0x3 SWAP1 PUSH2 0x5917 JUMP JUMPDEST PUSH1 0x40 MLOAD DUP1 SWAP2 SUB SWAP1 LOG2 POP JUMPDEST POP POP JUMPDEST SWAP8 SWAP7 POP POP POP POP POP POP POP JUMP JUMPDEST PUSH1 0x0 DUP1 PUSH2 0x4244 PUSH2 0x329D JUMP JUMPDEST SWAP1 POP PUSH1 0x0 DUP4 PUSH2 0x4253 DUP7 DUP9 PUSH2 0x5879 JUMP JUMPDEST PUSH2 0x425D SWAP2 SWAP1 PUSH2 0x5865 JUMP JUMPDEST SWAP1 POP PUSH1 0x0 PUSH2 0x426C PUSH1 0x2 DUP4 PUSH2 0x5865 JUMP JUMPDEST PUSH2 0x4276 SWAP1 DUP5 PUSH2 0x58BC JUMP JUMPDEST SWAP1 POP PUSH2 0x428A DUP2 PUSH8 0xDE0B6B3A7640000 PUSH2 0x4C43 JUMP JUMPDEST SWAP1 POP PUSH1 0x0 DUP2 GT PUSH2 0x429C JUMPI PUSH2 0x429C PUSH2 0x58A6 JUMP JUMPDEST PUSH1 0xC DUP2 SWAP1 SSTORE PUSH1 0x40 MLOAD DUP2 DUP2 MSTORE PUSH32 0xC454EE9B76C52F782A256AF821B857CA6E125D1E3333BCEDE402FEC2BED9600C SWAP1 PUSH1 0x20 ADD PUSH1 0x40 MLOAD DUP1 SWAP2 SUB SWAP1 LOG1 PUSH2 0x1221 PUSH2 0x32E1 JUMP JUMPDEST PUSH1 0x0 PUSH2 0xB67 PUSH2 0x2685 PUSH2 0xFE9 JUMP JUMPDEST PUSH1 0x0 DUP1 PUSH1 0x18 SLOAD PUSH8 0xDE0B6B3A7640000 PUSH2 0x4302 SWAP2 SWAP1 PUSH2 0x57C8 JUMP JUMPDEST DUP4 PUSH1 0x18 SLOAD PUSH2 0x328C SWAP2 SWAP1 PUSH2 0x5879 JUMP JUMPDEST PUSH1 0x0 PUSH2 0x4328 DUP4 PUSH2 0x3A8C DUP7 PUSH8 0xDE0B6B3A7640000 PUSH2 0x4D19 JUMP JUMPDEST SWAP1 POP DUP2 DUP2 GT ISZERO PUSH2 0x2F6F JUMPI PUSH1 0x40 MLOAD PUSH3 0x461BCD PUSH1 0xE5 SHL DUP2 MSTORE PUSH1 0x20 PUSH1 0x4 DUP3 ADD MSTORE PUSH1 0x1D PUSH1 0x24 DUP3 ADD MSTORE PUSH32 0x4665652065786365656465642070726F7669646564206D6178696D756D000000 PUSH1 0x44 DUP3 ADD MSTORE PUSH1 0x64 ADD PUSH2 0xC0E JUMP JUMPDEST PUSH1 0x0 DUP2 PUSH1 0x4 DUP2 GT ISZERO PUSH2 0x438E JUMPI PUSH2 0x438E PUSH2 0x55BE JUMP JUMPDEST EQ ISZERO DUP1 ISZERO PUSH2 0x43AE JUMPI POP PUSH1 0x1 DUP2 PUSH1 0x4 DUP2 GT ISZERO PUSH2 0x43AB JUMPI PUSH2 0x43AB PUSH2 0x55BE JUMP JUMPDEST EQ ISZERO JUMPDEST PUSH2 0x43BA JUMPI PUSH2 0x43BA PUSH2 0x58A6 JUMP JUMPDEST PUSH1 0x15 SLOAD PUSH2 0x43C6 DUP2 PUSH2 0x4F51 JUMP JUMPDEST PUSH1 0x1 PUSH1 0x1 PUSH1 0xA0 SHL SUB DUP4 AND PUSH1 0x0 SWAP1 DUP2 MSTORE PUSH1 0xE PUSH1 0x20 MSTORE PUSH1 0x40 SWAP1 KECCAK256 PUSH1 0x3 ADD DUP1 SLOAD DUP4 SWAP2 SWAP1 PUSH1 0xFF NOT AND PUSH1 0x1 DUP4 PUSH1 0x4 DUP2 GT ISZERO PUSH2 0x43FE JUMPI PUSH2 0x43FE PUSH2 0x55BE JUMP JUMPDEST MUL OR SWAP1 SSTORE POP PUSH1 0x1 PUSH1 0x1 PUSH1 0xA0 SHL SUB DUP4 AND PUSH1 0x0 SWAP1 DUP2 MSTORE PUSH1 0xE PUSH1 0x20 SWAP1 DUP2 MSTORE PUSH1 0x40 DUP1 DUP4 KECCAK256 PUSH1 0x1 DUP1 DUP3 ADD DUP6 SWAP1 SSTORE SWAP1 DUP5 SWAP1 SSTORE PUSH1 0x14 SWAP1 SWAP3 MSTORE DUP3 KECCAK256 DUP3 DUP2 SSTORE ADD SSTORE PUSH2 0x4440 DUP4 DUP3 PUSH2 0x502B JUMP JUMPDEST PUSH1 0xB SLOAD PUSH1 0x40 MLOAD PUSH4 0x14849687 PUSH1 0xE1 SHL DUP2 MSTORE PUSH1 0x1 PUSH1 0x1 PUSH1 0xA0 SHL SUB DUP6 DUP2 AND PUSH1 0x4 DUP4 ADD MSTORE SWAP1 SWAP2 AND SWAP1 PUSH4 0x29092D0E SWAP1 PUSH1 0x24 ADD PUSH1 0x0 PUSH1 0x40 MLOAD DUP1 DUP4 SUB DUP2 PUSH1 0x0 DUP8 DUP1 EXTCODESIZE ISZERO DUP1 ISZERO PUSH2 0x4487 JUMPI PUSH1 0x0 DUP1 REVERT JUMPDEST POP GAS CALL ISZERO DUP1 ISZERO PUSH2 0x449B JUMPI RETURNDATASIZE PUSH1 0x0 DUP1 RETURNDATACOPY RETURNDATASIZE PUSH1 0x0 REVERT JUMPDEST POP POP POP POP POP POP POP JUMP JUMPDEST PUSH1 0x0 DUP3 ISZERO PUSH2 0x44C5 JUMPI PUSH1 0x0 PUSH2 0x44BC DUP5 PUSH2 0x3A8C DUP8 DUP7 PUSH2 0x4D19 JUMP JUMPDEST SWAP2 POP PUSH2 0x3296 SWAP1 POP JUMP JUMPDEST POP PUSH1 0x0 NOT PUSH2 0x3296 JUMP JUMPDEST PUSH1 0x0 DUP1 PUSH8 0xDE0B6B3A7640000 PUSH2 0x44E4 DUP5 DUP7 PUSH2 0x5879 JUMP JUMPDEST PUSH2 0x44EE SWAP2 SWAP1 PUSH2 0x5865 JUMP JUMPDEST SWAP1 POP DUP3 DUP2 LT PUSH2 0x3296 JUMPI PUSH1 0x40 MLOAD PUSH3 0x461BCD PUSH1 0xE5 SHL DUP2 MSTORE PUSH1 0x20 PUSH1 0x4 DUP3 ADD MSTORE PUSH1 0x36 PUSH1 0x24 DUP3 ADD MSTORE PUSH32 0x54726F76654D616E616765723A2046656520776F756C64206561742075702061 PUSH1 0x44 DUP3 ADD MSTORE PUSH22 0x1B1B081C995D1D5C9B99590818DBDB1B185D195C985B PUSH1 0x52 SHL PUSH1 0x64 DUP3 ADD MSTORE PUSH1 0x84 ADD PUSH2 0xC0E JUMP JUMPDEST PUSH1 0x1 PUSH1 0x1 PUSH1 0xA0 SHL SUB DUP2 AND PUSH1 0x0 SWAP1 DUP2 MSTORE PUSH1 0xE PUSH1 0x20 MSTORE PUSH1 0x40 SWAP1 KECCAK256 PUSH1 0x2 ADD SLOAD PUSH1 0xF SLOAD PUSH2 0x4588 SWAP1 DUP3 SWAP1 PUSH2 0x57C8 JUMP JUMPDEST PUSH1 0xF SSTORE POP PUSH1 0x1 PUSH1 0x1 PUSH1 0xA0 SHL SUB AND PUSH1 0x0 SWAP1 DUP2 MSTORE PUSH1 0xE PUSH1 0x20 MSTORE PUSH1 0x40 DUP2 KECCAK256 PUSH1 0x2 ADD SSTORE JUMP JUMPDEST PUSH1 0x40 MLOAD PUSH4 0x71B32B5 PUSH1 0xE3 SHL DUP2 MSTORE PUSH1 0x4 DUP2 ADD DUP4 SWAP1 MSTORE PUSH1 0x1 PUSH1 0x1 PUSH1 0xA0 SHL SUB DUP5 AND SWAP1 PUSH4 0x38D995A8 SWAP1 PUSH1 0x24 ADD PUSH1 0x0 PUSH1 0x40 MLOAD DUP1 DUP4 SUB DUP2 PUSH1 0x0 DUP8 DUP1 EXTCODESIZE ISZERO DUP1 ISZERO PUSH2 0x45EB JUMPI PUSH1 0x0 DUP1 REVERT JUMPDEST POP GAS CALL ISZERO DUP1 ISZERO PUSH2 0x45FF JUMPI RETURNDATASIZE PUSH1 0x0 DUP1 RETURNDATACOPY RETURNDATASIZE PUSH1 0x0 REVERT JUMPDEST POP POP PUSH1 0x40 MLOAD PUSH4 0x67DC994D PUSH1 0xE1 SHL DUP2 MSTORE PUSH1 0x4 DUP2 ADD DUP6 SWAP1 MSTORE PUSH1 0x1 PUSH1 0x1 PUSH1 0xA0 SHL SUB DUP8 AND SWAP3 POP PUSH4 0xCFB9329A SWAP2 POP PUSH1 0x24 ADD PUSH1 0x0 PUSH1 0x40 MLOAD DUP1 DUP4 SUB DUP2 PUSH1 0x0 DUP8 DUP1 EXTCODESIZE ISZERO DUP1 ISZERO PUSH2 0x4645 JUMPI PUSH1 0x0 DUP1 REVERT JUMPDEST POP GAS CALL ISZERO DUP1 ISZERO PUSH2 0x4659 JUMPI RETURNDATASIZE PUSH1 0x0 DUP1 RETURNDATACOPY RETURNDATASIZE PUSH1 0x0 REVERT JUMPDEST POP POP PUSH1 0x40 MLOAD PUSH4 0xBE41205F PUSH1 0xE0 SHL DUP2 MSTORE PUSH1 0x4 DUP2 ADD DUP5 SWAP1 MSTORE PUSH1 0x1 PUSH1 0x1 PUSH1 0xA0 SHL SUB DUP7 AND SWAP3 POP PUSH4 0xBE41205F SWAP2 POP PUSH1 0x24 ADD PUSH2 0x316B JUMP JUMPDEST PUSH1 0x0 DUP1 PUSH1 0x11 SLOAD PUSH1 0x0 SUB PUSH2 0x469E JUMPI POP DUP2 PUSH2 0xB67 JUMP JUMPDEST PUSH1 0x0 PUSH1 0x10 SLOAD GT PUSH2 0x46B0 JUMPI PUSH2 0x46B0 PUSH2 0x58A6 JUMP JUMPDEST PUSH1 0x11 SLOAD PUSH1 0x10 SLOAD PUSH2 0x328C SWAP1 DUP6 PUSH2 0x5879 JUMP JUMPDEST PUSH2 0x46C8 PUSH2 0x53C8 JUMP JUMPDEST PUSH2 0x46EC PUSH1 0x40 MLOAD DUP1 PUSH1 0x60 ADD PUSH1 0x40 MSTORE DUP1 PUSH1 0x0 DUP2 MSTORE PUSH1 0x20 ADD PUSH1 0x0 DUP2 MSTORE PUSH1 0x20 ADD PUSH1 0x0 DUP2 MSTORE POP SWAP1 JUMP JUMPDEST PUSH1 0x15 SLOAD PUSH1 0x1 LT PUSH2 0x46FC JUMPI POP PUSH2 0x422E JUMP JUMPDEST PUSH2 0x4705 DUP8 PUSH2 0x1E02 JUMP JUMPDEST PUSH1 0x40 DUP6 ADD MSTORE PUSH1 0x20 DUP5 DUP2 ADD SWAP2 SWAP1 SWAP2 MSTORE DUP5 ADD DUP2 SWAP1 MSTORE SWAP1 DUP4 MSTORE PUSH2 0x4724 SWAP1 PUSH2 0x51FB JUMP JUMPDEST PUSH1 0x40 DUP4 ADD DUP2 SWAP1 MSTORE PUSH9 0x1158E460913D00000 PUSH1 0x60 DUP5 ADD MSTORE PUSH1 0x20 DUP4 ADD MLOAD PUSH2 0x4749 SWAP2 SWAP1 PUSH2 0x57C8 JUMP JUMPDEST DUP2 MSTORE PUSH8 0xDE0B6B3A7640000 DUP7 GT PUSH2 0x4826 JUMPI PUSH2 0x476E DUP10 DUP10 DUP4 PUSH1 0x20 ADD MLOAD DUP5 PUSH1 0x40 ADD MLOAD PUSH2 0x45A9 JUMP JUMPDEST PUSH2 0x4777 DUP8 PUSH2 0x455E JUMP JUMPDEST PUSH1 0x0 PUSH1 0x80 DUP4 ADD DUP2 SWAP1 MSTORE PUSH1 0xA0 DUP4 ADD MSTORE DUP2 MLOAD PUSH1 0xC0 DUP4 ADD MSTORE DUP1 MLOAD PUSH1 0xE0 DUP4 ADD MSTORE PUSH2 0x479E DUP8 PUSH1 0x3 PUSH2 0x437A JUMP JUMPDEST DUP2 MLOAD PUSH1 0x20 DUP4 ADD MLOAD PUSH1 0x40 MLOAD PUSH1 0x1 PUSH1 0x1 PUSH1 0xA0 SHL SUB DUP11 AND SWAP3 PUSH32 0xEA67486ED7EBE3EEA8AB3390EFD4A3C8AAE48BE5BEA27DF104A8AF786C408434 SWAP3 PUSH2 0x47E1 SWAP3 PUSH1 0x2 SWAP1 PUSH2 0x5974 JUMP JUMPDEST PUSH1 0x40 MLOAD DUP1 SWAP2 SUB SWAP1 LOG2 DUP7 PUSH1 0x1 PUSH1 0x1 PUSH1 0xA0 SHL SUB AND PUSH1 0x0 DUP1 MLOAD PUSH1 0x20 PUSH2 0x59BA DUP4 CODECOPY DUP2 MLOAD SWAP2 MSTORE PUSH1 0x0 DUP1 PUSH1 0x0 PUSH1 0x2 PUSH1 0x40 MLOAD PUSH2 0x4819 SWAP5 SWAP4 SWAP3 SWAP2 SWAP1 PUSH2 0x5917 JUMP JUMPDEST PUSH1 0x40 MLOAD DUP1 SWAP2 SUB SWAP1 LOG2 PUSH2 0x49D3 JUMP JUMPDEST PUSH8 0xDE0B6B3A7640000 DUP7 GT DUP1 ISZERO PUSH2 0x4844 JUMPI POP PUSH8 0xF43FC2C04EE0000 DUP7 LT JUMPDEST ISZERO PUSH2 0x4894 JUMPI PUSH2 0x485D DUP10 DUP10 DUP4 PUSH1 0x20 ADD MLOAD DUP5 PUSH1 0x40 ADD MLOAD PUSH2 0x45A9 JUMP JUMPDEST PUSH2 0x4866 DUP8 PUSH2 0x455E JUMP JUMPDEST DUP2 MLOAD DUP2 MLOAD PUSH2 0x4875 SWAP2 SWAP1 DUP8 PUSH2 0x5208 JUMP JUMPDEST PUSH1 0xE0 DUP7 ADD MSTORE PUSH1 0xC0 DUP6 ADD MSTORE PUSH1 0xA0 DUP5 ADD MSTORE PUSH1 0x80 DUP4 ADD MSTORE PUSH2 0x479E DUP8 PUSH1 0x3 PUSH2 0x437A JUMP JUMPDEST PUSH8 0xF43FC2C04EE0000 DUP7 LT ISZERO DUP1 ISZERO PUSH2 0x48AB JUMPI POP DUP4 DUP7 LT JUMPDEST DUP1 ISZERO PUSH2 0x48B8 JUMPI POP DUP2 MLOAD DUP6 LT ISZERO JUMPDEST ISZERO PUSH2 0x49C2 JUMPI PUSH2 0x48D1 DUP10 DUP10 DUP4 PUSH1 0x20 ADD MLOAD DUP5 PUSH1 0x40 ADD MLOAD PUSH2 0x45A9 JUMP JUMPDEST DUP5 PUSH1 0x0 SUB PUSH2 0x48E1 JUMPI PUSH2 0x48E1 PUSH2 0x58A6 JUMP JUMPDEST PUSH2 0x48EA DUP8 PUSH2 0x455E JUMP JUMPDEST PUSH2 0x48FD DUP3 PUSH1 0x0 ADD MLOAD DUP4 PUSH1 0x20 ADD MLOAD DUP6 PUSH2 0x5269 JUMP JUMPDEST SWAP2 POP PUSH2 0x490A DUP8 PUSH1 0x3 PUSH2 0x437A JUMP JUMPDEST PUSH2 0x100 DUP3 ADD MLOAD ISZERO PUSH2 0x497F JUMPI PUSH1 0x7 SLOAD PUSH2 0x100 DUP4 ADD MLOAD PUSH1 0x40 MLOAD PUSH4 0x3F10ABAB PUSH1 0xE0 SHL DUP2 MSTORE PUSH1 0x1 PUSH1 0x1 PUSH1 0xA0 SHL SUB SWAP1 SWAP3 AND SWAP2 PUSH4 0x3F10ABAB SWAP2 PUSH2 0x494C SWAP2 DUP12 SWAP2 SWAP1 PUSH1 0x4 ADD PUSH2 0x5836 JUMP JUMPDEST PUSH1 0x0 PUSH1 0x40 MLOAD DUP1 DUP4 SUB DUP2 PUSH1 0x0 DUP8 DUP1 EXTCODESIZE ISZERO DUP1 ISZERO PUSH2 0x4966 JUMPI PUSH1 0x0 DUP1 REVERT JUMPDEST POP GAS CALL ISZERO DUP1 ISZERO PUSH2 0x497A JUMPI RETURNDATASIZE PUSH1 0x0 DUP1 RETURNDATACOPY RETURNDATASIZE PUSH1 0x0 REVERT JUMPDEST POP POP POP POP JUMPDEST DUP2 MLOAD PUSH1 0xA0 DUP4 ADD MLOAD PUSH1 0x40 MLOAD PUSH1 0x1 PUSH1 0x1 PUSH1 0xA0 SHL SUB DUP11 AND SWAP3 PUSH32 0xEA67486ED7EBE3EEA8AB3390EFD4A3C8AAE48BE5BEA27DF104A8AF786C408434 SWAP3 PUSH2 0x47E1 SWAP3 PUSH1 0x2 SWAP1 PUSH2 0x5974 JUMP JUMPDEST PUSH2 0x49CA PUSH2 0x53C8 JUMP JUMPDEST SWAP2 POP PUSH2 0x422E SWAP1 POP JUMP JUMPDEST POP SWAP8 SWAP7 POP POP POP POP POP POP POP JUMP JUMPDEST PUSH2 0x49E7 PUSH2 0x53C8 JUMP JUMPDEST DUP2 PUSH1 0x40 ADD MLOAD DUP4 PUSH1 0x40 ADD MLOAD PUSH2 0x49FB SWAP2 SWAP1 PUSH2 0x58BC JUMP JUMPDEST PUSH1 0x40 DUP3 ADD MSTORE PUSH1 0x60 DUP1 DUP4 ADD MLOAD SWAP1 DUP5 ADD MLOAD PUSH2 0x4A14 SWAP2 SWAP1 PUSH2 0x58BC JUMP JUMPDEST PUSH1 0x60 DUP3 ADD MSTORE DUP2 MLOAD PUSH1 0x20 DUP5 ADD MLOAD PUSH2 0x4A2A SWAP2 SWAP1 PUSH2 0x58BC JUMP JUMPDEST PUSH1 0x20 DUP1 DUP4 ADD SWAP2 SWAP1 SWAP2 MSTORE DUP3 ADD MLOAD DUP4 MLOAD PUSH2 0x4A42 SWAP2 SWAP1 PUSH2 0x58BC JUMP JUMPDEST DUP2 MSTORE PUSH1 0x80 DUP1 DUP4 ADD MLOAD SWAP1 DUP5 ADD MLOAD PUSH2 0x4A58 SWAP2 SWAP1 PUSH2 0x58BC JUMP JUMPDEST PUSH1 0x80 DUP3 ADD MSTORE PUSH1 0xA0 DUP1 DUP4 ADD MLOAD SWAP1 DUP5 ADD MLOAD PUSH2 0x4A71 SWAP2 SWAP1 PUSH2 0x58BC JUMP JUMPDEST PUSH1 0xA0 DUP3 ADD MSTORE PUSH1 0xC0 DUP1 DUP4 ADD MLOAD SWAP1 DUP5 ADD MLOAD PUSH2 0x4A8A SWAP2 SWAP1 PUSH2 0x58BC JUMP JUMPDEST PUSH1 0xC0 DUP3 ADD MSTORE PUSH1 0xE0 DUP1 DUP4 ADD MLOAD SWAP1 DUP5 ADD MLOAD PUSH2 0x4AA3 SWAP2 SWAP1 PUSH2 0x58BC JUMP JUMPDEST PUSH1 0xE0 DUP3 ADD MSTORE PUSH2 0x100 DUP1 DUP4 ADD MLOAD SWAP1 DUP5 ADD MLOAD PUSH2 0x4ABD SWAP2 SWAP1 PUSH2 0x58BC JUMP JUMPDEST PUSH2 0x100 DUP3 ADD MSTORE SWAP3 SWAP2 POP POP JUMP JUMPDEST PUSH1 0x0 DUP1 PUSH2 0x4AD7 DUP6 DUP6 DUP6 PUSH2 0x44A4 JUMP JUMPDEST PUSH8 0x14D1120D7B160000 GT SWAP6 SWAP5 POP POP POP POP POP JUMP JUMPDEST PUSH2 0x4AF2 PUSH2 0x53C8 JUMP JUMPDEST PUSH2 0x4B16 PUSH1 0x40 MLOAD DUP1 PUSH1 0x60 ADD PUSH1 0x40 MSTORE DUP1 PUSH1 0x0 DUP2 MSTORE PUSH1 0x20 ADD PUSH1 0x0 DUP2 MSTORE PUSH1 0x20 ADD PUSH1 0x0 DUP2 MSTORE POP SWAP1 JUMP JUMPDEST PUSH2 0x4B1F DUP5 PUSH2 0x1E02 JUMP JUMPDEST PUSH1 0x40 DUP6 ADD SWAP1 DUP2 MSTORE PUSH1 0x20 DUP6 DUP2 ADD SWAP3 DUP4 MSTORE DUP7 ADD SWAP3 SWAP1 SWAP3 MSTORE SWAP2 DUP5 MSTORE SWAP1 MLOAD SWAP1 MLOAD PUSH2 0x4B49 SWAP2 DUP9 SWAP2 DUP9 SWAP2 SWAP1 PUSH2 0x45A9 JUMP JUMPDEST PUSH2 0x4B52 DUP5 PUSH2 0x455E JUMP JUMPDEST PUSH2 0x4B5F DUP3 PUSH1 0x20 ADD MLOAD PUSH2 0x51FB JUMP JUMPDEST PUSH1 0x40 DUP4 ADD DUP2 SWAP1 MSTORE PUSH9 0x1158E460913D00000 PUSH1 0x60 DUP5 ADD MSTORE PUSH1 0x20 DUP4 ADD MLOAD PUSH1 0x0 SWAP2 PUSH2 0x4B86 SWAP2 PUSH2 0x57C8 JUMP JUMPDEST SWAP1 POP PUSH2 0x4B97 DUP4 PUSH1 0x0 ADD MLOAD DUP3 DUP7 PUSH2 0x5208 JUMP JUMPDEST PUSH1 0xE0 DUP8 ADD MSTORE PUSH1 0xC0 DUP7 ADD MSTORE PUSH1 0xA0 DUP6 ADD MSTORE PUSH1 0x80 DUP5 ADD MSTORE PUSH2 0x4BB6 DUP6 PUSH1 0x3 PUSH2 0x437A JUMP JUMPDEST DUP3 MLOAD PUSH1 0x20 DUP5 ADD MLOAD PUSH1 0x40 MLOAD PUSH1 0x1 PUSH1 0x1 PUSH1 0xA0 SHL SUB DUP9 AND SWAP3 PUSH32 0xEA67486ED7EBE3EEA8AB3390EFD4A3C8AAE48BE5BEA27DF104A8AF786C408434 SWAP3 PUSH2 0x4BF9 SWAP3 PUSH1 0x1 SWAP1 PUSH2 0x5974 JUMP JUMPDEST PUSH1 0x40 MLOAD DUP1 SWAP2 SUB SWAP1 LOG2 DUP5 PUSH1 0x1 PUSH1 0x1 PUSH1 0xA0 SHL SUB AND PUSH1 0x0 DUP1 MLOAD PUSH1 0x20 PUSH2 0x59BA DUP4 CODECOPY DUP2 MLOAD SWAP2 MSTORE PUSH1 0x0 DUP1 PUSH1 0x0 PUSH1 0x1 PUSH1 0x40 MLOAD PUSH2 0x4C31 SWAP5 SWAP4 SWAP3 SWAP2 SWAP1 PUSH2 0x5917 JUMP JUMPDEST PUSH1 0x40 MLOAD DUP1 SWAP2 SUB SWAP1 LOG2 POP POP SWAP5 SWAP4 POP POP POP POP JUMP JUMPDEST PUSH1 0x0 DUP2 DUP4 LT PUSH2 0x4C52 JUMPI DUP2 PUSH2 0x3296 JUMP JUMPDEST POP SWAP1 SWAP2 SWAP1 POP JUMP JUMPDEST PUSH1 0x0 PUSH1 0x3C PUSH1 0xD SLOAD TIMESTAMP PUSH2 0x4C6B SWAP2 SWAP1 PUSH2 0x57C8 JUMP JUMPDEST PUSH2 0xFF6 SWAP2 SWAP1 PUSH2 0x5865 JUMP JUMPDEST PUSH1 0x0 PUSH4 0x1F540500 DUP3 GT ISZERO PUSH2 0x4C8B JUMPI PUSH4 0x1F540500 SWAP2 POP JUMPDEST DUP2 PUSH1 0x0 SUB PUSH2 0x4CA2 JUMPI POP PUSH8 0xDE0B6B3A7640000 PUSH2 0xB67 JUMP JUMPDEST PUSH8 0xDE0B6B3A7640000 DUP4 DUP4 JUMPDEST PUSH1 0x1 DUP2 GT ISZERO PUSH2 0x4D0F JUMPI PUSH2 0x4CC2 PUSH1 0x2 DUP3 PUSH2 0x598F JUMP JUMPDEST PUSH1 0x0 SUB PUSH2 0x4CE7 JUMPI PUSH2 0x4CD3 DUP3 DUP4 PUSH2 0x52F7 JUMP JUMPDEST SWAP2 POP PUSH2 0x4CE0 DUP2 PUSH1 0x2 PUSH2 0x4D9B JUMP JUMPDEST SWAP1 POP PUSH2 0x4CAE JUMP JUMPDEST PUSH2 0x4CF1 DUP3 DUP5 PUSH2 0x52F7 JUMP JUMPDEST SWAP3 POP PUSH2 0x4CFD DUP3 DUP4 PUSH2 0x52F7 JUMP JUMPDEST SWAP2 POP PUSH2 0x4CE0 PUSH1 0x2 PUSH2 0x3A8C DUP4 PUSH1 0x1 PUSH2 0x5327 JUMP JUMPDEST PUSH2 0x1221 DUP3 DUP5 PUSH2 0x52F7 JUMP JUMPDEST PUSH1 0x0 DUP3 PUSH1 0x0 SUB PUSH2 0x4D2B JUMPI POP PUSH1 0x0 PUSH2 0xB67 JUMP JUMPDEST PUSH1 0x0 PUSH2 0x4D37 DUP4 DUP6 PUSH2 0x5879 JUMP JUMPDEST SWAP1 POP DUP3 PUSH2 0x4D44 DUP6 DUP4 PUSH2 0x5865 JUMP JUMPDEST EQ PUSH2 0x3296 JUMPI PUSH1 0x40 MLOAD PUSH3 0x461BCD PUSH1 0xE5 SHL DUP2 MSTORE PUSH1 0x20 PUSH1 0x4 DUP3 ADD MSTORE PUSH1 0x21 PUSH1 0x24 DUP3 ADD MSTORE PUSH32 0x536166654D6174683A206D756C7469706C69636174696F6E206F766572666C6F PUSH1 0x44 DUP3 ADD MSTORE PUSH1 0x77 PUSH1 0xF8 SHL PUSH1 0x64 DUP3 ADD MSTORE PUSH1 0x84 ADD PUSH2 0xC0E JUMP JUMPDEST PUSH1 0x0 PUSH2 0x3296 DUP4 DUP4 PUSH1 0x40 MLOAD DUP1 PUSH1 0x40 ADD PUSH1 0x40 MSTORE DUP1 PUSH1 0x1A DUP2 MSTORE PUSH1 0x20 ADD PUSH32 0x536166654D6174683A206469766973696F6E206279207A65726F000000000000 DUP2 MSTORE POP PUSH2 0x5369 JUMP JUMPDEST PUSH1 0x40 DUP1 DUP6 ADD MLOAD PUSH1 0x6 SLOAD SWAP2 MLOAD PUSH4 0x2770A7EB PUSH1 0xE2 SHL DUP2 MSTORE PUSH1 0x1 PUSH1 0x1 PUSH1 0xA0 SHL SUB SWAP2 DUP3 AND SWAP3 PUSH4 0x9DC29FAC SWAP3 PUSH2 0x4E15 SWAP3 SWAP2 AND SWAP1 DUP7 SWAP1 PUSH1 0x4 ADD PUSH2 0x5836 JUMP JUMPDEST PUSH1 0x0 PUSH1 0x40 MLOAD DUP1 DUP4 SUB DUP2 PUSH1 0x0 DUP8 DUP1 EXTCODESIZE ISZERO DUP1 ISZERO PUSH2 0x4E2F JUMPI PUSH1 0x0 DUP1 REVERT JUMPDEST POP GAS CALL ISZERO DUP1 ISZERO PUSH2 0x4E43 JUMPI RETURNDATASIZE PUSH1 0x0 DUP1 RETURNDATACOPY RETURNDATASIZE PUSH1 0x0 REVERT JUMPDEST POP POP DUP6 MLOAD PUSH1 0x40 MLOAD PUSH4 0x71B32B5 PUSH1 0xE3 SHL DUP2 MSTORE PUSH1 0x4 DUP2 ADD DUP7 SWAP1 MSTORE PUSH1 0x1 PUSH1 0x1 PUSH1 0xA0 SHL SUB SWAP1 SWAP2 AND SWAP3 POP PUSH4 0x38D995A8 SWAP2 POP PUSH1 0x24 ADD PUSH1 0x0 PUSH1 0x40 MLOAD DUP1 DUP4 SUB DUP2 PUSH1 0x0 DUP8 DUP1 EXTCODESIZE ISZERO DUP1 ISZERO PUSH2 0x4E8C JUMPI PUSH1 0x0 DUP1 REVERT JUMPDEST POP GAS CALL ISZERO DUP1 ISZERO PUSH2 0x4EA0 JUMPI RETURNDATASIZE PUSH1 0x0 DUP1 RETURNDATACOPY RETURNDATASIZE PUSH1 0x0 REVERT JUMPDEST POP POP POP POP DUP4 PUSH1 0xA0 ADD MLOAD PUSH1 0x1 PUSH1 0x1 PUSH1 0xA0 SHL SUB AND PUSH4 0x3F10ABAB DUP5 DUP4 PUSH1 0x40 MLOAD DUP4 PUSH4 0xFFFFFFFF AND PUSH1 0xE0 SHL DUP2 MSTORE PUSH1 0x4 ADD PUSH2 0x4ED6 SWAP3 SWAP2 SWAP1 PUSH2 0x5836 JUMP JUMPDEST PUSH1 0x0 PUSH1 0x40 MLOAD DUP1 DUP4 SUB DUP2 PUSH1 0x0 DUP8 DUP1 EXTCODESIZE ISZERO DUP1 ISZERO PUSH2 0x4EF0 JUMPI PUSH1 0x0 DUP1 REVERT JUMPDEST POP GAS CALL ISZERO DUP1 ISZERO PUSH2 0x4F04 JUMPI RETURNDATASIZE PUSH1 0x0 DUP1 RETURNDATACOPY RETURNDATASIZE PUSH1 0x0 REVERT JUMPDEST POP POP DUP6 MLOAD PUSH1 0xA0 DUP8 ADD MLOAD PUSH1 0x40 MLOAD PUSH4 0x64A197F3 PUSH1 0xE0 SHL DUP2 MSTORE PUSH1 0x1 PUSH1 0x1 PUSH1 0xA0 SHL SUB SWAP1 SWAP3 AND SWAP4 POP PUSH4 0x64A197F3 SWAP3 POP PUSH2 0x316B SWAP2 DUP6 SWAP1 PUSH1 0x4 ADD PUSH2 0x5836 JUMP JUMPDEST PUSH1 0x0 PUSH2 0xB67 DUP3 PUSH9 0x1158E460913D00000 PUSH2 0x5327 JUMP JUMPDEST PUSH1 0x1 DUP2 GT DUP1 ISZERO PUSH2 0x4FCC JUMPI POP PUSH1 0xB SLOAD PUSH1 0x40 DUP1 MLOAD PUSH4 0xDE8FA431 PUSH1 0xE0 SHL DUP2 MSTORE SWAP1 MLOAD PUSH1 0x1 SWAP3 PUSH1 0x1 PUSH1 0x1 PUSH1 0xA0 SHL SUB AND SWAP2 PUSH4 0xDE8FA431 SWAP2 PUSH1 0x4 DUP1 DUP4 ADD SWAP3 PUSH1 0x20 SWAP3 SWAP2 SWAP1 DUP3 SWAP1 SUB ADD DUP2 DUP7 GAS STATICCALL ISZERO DUP1 ISZERO PUSH2 0x4FA6 JUMPI RETURNDATASIZE PUSH1 0x0 DUP1 RETURNDATACOPY RETURNDATASIZE PUSH1 0x0 REVERT JUMPDEST POP POP POP POP PUSH1 0x40 MLOAD RETURNDATASIZE PUSH1 0x1F NOT PUSH1 0x1F DUP3 ADD AND DUP3 ADD DUP1 PUSH1 0x40 MSTORE POP DUP2 ADD SWAP1 PUSH2 0x4FCA SWAP2 SWAP1 PUSH2 0x57DB JUMP JUMPDEST GT JUMPDEST PUSH2 0xB17 JUMPI PUSH1 0x40 MLOAD PUSH3 0x461BCD PUSH1 0xE5 SHL DUP2 MSTORE PUSH1 0x20 PUSH1 0x4 DUP3 ADD MSTORE PUSH1 0x2A PUSH1 0x24 DUP3 ADD MSTORE PUSH32 0x54726F76654D616E616765723A204F6E6C79206F6E652074726F766520696E20 PUSH1 0x44 DUP3 ADD MSTORE PUSH10 0x7468652073797374656D PUSH1 0xB0 SHL PUSH1 0x64 DUP3 ADD MSTORE PUSH1 0x84 ADD PUSH2 0xC0E JUMP JUMPDEST PUSH1 0x1 PUSH1 0x1 PUSH1 0xA0 SHL SUB DUP3 AND PUSH1 0x0 SWAP1 DUP2 MSTORE PUSH1 0xE PUSH1 0x20 MSTORE PUSH1 0x40 DUP2 KECCAK256 PUSH1 0x3 ADD SLOAD PUSH1 0xFF AND SWAP1 DUP2 PUSH1 0x4 DUP2 GT ISZERO PUSH2 0x505D JUMPI PUSH2 0x505D PUSH2 0x55BE JUMP JUMPDEST EQ ISZERO DUP1 ISZERO PUSH2 0x507D JUMPI POP PUSH1 0x1 DUP2 PUSH1 0x4 DUP2 GT ISZERO PUSH2 0x507A JUMPI PUSH2 0x507A PUSH2 0x55BE JUMP JUMPDEST EQ ISZERO JUMPDEST PUSH2 0x5089 JUMPI PUSH2 0x5089 PUSH2 0x58A6 JUMP JUMPDEST PUSH1 0x1 PUSH1 0x1 PUSH1 0xA0 SHL SUB DUP4 AND PUSH1 0x0 SWAP1 DUP2 MSTORE PUSH1 0xE PUSH1 0x20 MSTORE PUSH1 0x40 DUP2 KECCAK256 PUSH1 0x3 ADD SLOAD PUSH2 0x100 SWAP1 DIV PUSH1 0x1 PUSH1 0x1 PUSH1 0x80 SHL SUB AND SWAP1 DUP4 SWAP1 PUSH2 0x50C1 PUSH1 0x1 DUP4 PUSH2 0x57C8 JUMP JUMPDEST SWAP1 POP DUP1 DUP4 PUSH1 0x1 PUSH1 0x1 PUSH1 0x80 SHL SUB AND GT ISZERO PUSH2 0x50DC JUMPI PUSH2 0x50DC PUSH2 0x58A6 JUMP JUMPDEST PUSH1 0x0 PUSH1 0x15 DUP3 DUP2 SLOAD DUP2 LT PUSH2 0x50F1 JUMPI PUSH2 0x50F1 PUSH2 0x5890 JUMP JUMPDEST PUSH1 0x0 SWAP2 DUP3 MSTORE PUSH1 0x20 SWAP1 SWAP2 KECCAK256 ADD SLOAD PUSH1 0x15 DUP1 SLOAD PUSH1 0x1 PUSH1 0x1 PUSH1 0xA0 SHL SUB SWAP1 SWAP3 AND SWAP3 POP DUP3 SWAP2 PUSH1 0x1 PUSH1 0x1 PUSH1 0x80 SHL SUB DUP8 AND SWAP1 DUP2 LT PUSH2 0x5129 JUMPI PUSH2 0x5129 PUSH2 0x5890 JUMP JUMPDEST PUSH1 0x0 SWAP2 DUP3 MSTORE PUSH1 0x20 DUP1 DUP4 KECCAK256 SWAP2 SWAP1 SWAP2 ADD DUP1 SLOAD PUSH1 0x1 PUSH1 0x1 PUSH1 0xA0 SHL SUB NOT AND PUSH1 0x1 PUSH1 0x1 PUSH1 0xA0 SHL SUB SWAP5 DUP6 AND OR SWAP1 SSTORE SWAP2 DUP4 AND DUP1 DUP3 MSTORE PUSH1 0xE DUP4 MSTORE PUSH1 0x40 SWAP2 DUP3 SWAP1 KECCAK256 PUSH1 0x3 ADD DUP1 SLOAD PUSH2 0x100 PUSH1 0x1 PUSH1 0x88 SHL SUB NOT AND PUSH2 0x100 PUSH1 0x1 PUSH1 0x1 PUSH1 0x80 SHL SUB DUP11 AND SWAP1 DUP2 MUL SWAP2 SWAP1 SWAP2 OR SWAP1 SWAP2 SSTORE DUP3 MLOAD SWAP2 DUP3 MSTORE SWAP3 DUP2 ADD SWAP3 SWAP1 SWAP3 MSTORE PUSH32 0x2B04AE5F7BE9CA7C103293A2AA15F3C339D15D6EDA53B721FEF7B0E609C831A SWAP2 ADD PUSH1 0x40 MLOAD DUP1 SWAP2 SUB SWAP1 LOG1 PUSH1 0x15 DUP1 SLOAD DUP1 PUSH2 0x51D0 JUMPI PUSH2 0x51D0 PUSH2 0x59A3 JUMP JUMPDEST PUSH1 0x0 DUP3 DUP2 MSTORE PUSH1 0x20 SWAP1 KECCAK256 DUP2 ADD PUSH1 0x0 NOT SWAP1 DUP2 ADD DUP1 SLOAD PUSH1 0x1 PUSH1 0x1 PUSH1 0xA0 SHL SUB NOT AND SWAP1 SSTORE ADD SWAP1 SSTORE POP POP POP POP POP POP POP JUMP JUMPDEST PUSH1 0x0 PUSH2 0xB67 PUSH1 0xC8 DUP4 PUSH2 0x5865 JUMP JUMPDEST PUSH1 0x0 DUP1 DUP1 DUP1 DUP5 ISZERO PUSH2 0x5253 JUMPI PUSH2 0x521D DUP8 DUP7 PUSH2 0x4C43 JUMP JUMPDEST SWAP4 POP DUP7 PUSH2 0x522A DUP6 DUP9 PUSH2 0x5879 JUMP JUMPDEST PUSH2 0x5234 SWAP2 SWAP1 PUSH2 0x5865 JUMP JUMPDEST SWAP3 POP PUSH2 0x5240 DUP5 DUP9 PUSH2 0x57C8 JUMP JUMPDEST SWAP2 POP PUSH2 0x524C DUP4 DUP8 PUSH2 0x57C8 JUMP JUMPDEST SWAP1 POP PUSH2 0x5260 JUMP JUMPDEST POP PUSH1 0x0 SWAP3 POP DUP3 SWAP2 POP DUP6 SWAP1 POP DUP5 JUMPDEST SWAP4 POP SWAP4 POP SWAP4 POP SWAP4 JUMP JUMPDEST PUSH2 0x5271 PUSH2 0x53C8 JUMP JUMPDEST DUP4 DUP2 MSTORE PUSH1 0x20 DUP2 ADD DUP4 SWAP1 MSTORE PUSH1 0x0 DUP3 PUSH2 0x5290 PUSH8 0xF43FC2C04EE0000 DUP8 PUSH2 0x5879 JUMP JUMPDEST PUSH2 0x529A SWAP2 SWAP1 PUSH2 0x5865 JUMP JUMPDEST SWAP1 POP PUSH2 0x52A5 DUP2 PUSH2 0x51FB JUMP JUMPDEST PUSH1 0x40 DUP4 ADD DUP2 SWAP1 MSTORE PUSH9 0x1158E460913D00000 PUSH1 0x60 DUP5 ADD MSTORE PUSH1 0x80 DUP4 ADD DUP7 SWAP1 MSTORE PUSH2 0x52CC SWAP1 DUP3 PUSH2 0x57C8 JUMP JUMPDEST PUSH1 0xA0 DUP4 ADD MSTORE PUSH2 0x52DB DUP2 DUP6 PUSH2 0x57C8 JUMP JUMPDEST PUSH2 0x100 DUP4 ADD MSTORE POP PUSH1 0x0 PUSH1 0xC0 DUP3 ADD DUP2 SWAP1 MSTORE PUSH1 0xE0 DUP3 ADD MSTORE SWAP4 SWAP3 POP POP POP JUMP JUMPDEST PUSH1 0x0 DUP1 PUSH2 0x5304 DUP5 DUP5 PUSH2 0x4D19 JUMP JUMPDEST SWAP1 POP PUSH2 0x3AC6 PUSH8 0xDE0B6B3A7640000 PUSH2 0x3A8C PUSH2 0x5320 PUSH1 0x2 DUP4 PUSH2 0x5865 JUMP JUMPDEST DUP5 SWAP1 PUSH2 0x383F JUMP JUMPDEST PUSH1 0x0 PUSH2 0x3296 DUP4 DUP4 PUSH1 0x40 MLOAD DUP1 PUSH1 0x40 ADD PUSH1 0x40 MSTORE DUP1 PUSH1 0x1E DUP2 MSTORE PUSH1 0x20 ADD PUSH32 0x536166654D6174683A207375627472616374696F6E206F766572666C6F770000 DUP2 MSTORE POP PUSH2 0x5397 JUMP JUMPDEST PUSH1 0x0 DUP2 DUP4 PUSH2 0x538A JUMPI PUSH1 0x40 MLOAD PUSH3 0x461BCD PUSH1 0xE5 SHL DUP2 MSTORE PUSH1 0x4 ADD PUSH2 0xC0E SWAP2 SWAP1 PUSH2 0x56F6 JUMP JUMPDEST POP PUSH1 0x0 PUSH2 0x1DEE DUP5 DUP7 PUSH2 0x5865 JUMP JUMPDEST PUSH1 0x0 DUP2 DUP5 DUP5 GT ISZERO PUSH2 0x53BB JUMPI PUSH1 0x40 MLOAD PUSH3 0x461BCD PUSH1 0xE5 SHL DUP2 MSTORE PUSH1 0x4 ADD PUSH2 0xC0E SWAP2 SWAP1 PUSH2 0x56F6 JUMP JUMPDEST POP PUSH1 0x0 PUSH2 0x1DEE DUP5 DUP7 PUSH2 0x57C8 JUMP JUMPDEST PUSH1 0x40 MLOAD DUP1 PUSH2 0x120 ADD PUSH1 0x40 MSTORE DUP1 PUSH1 0x0 DUP2 MSTORE PUSH1 0x20 ADD PUSH1 0x0 DUP2 MSTORE PUSH1 0x20 ADD PUSH1 0x0 DUP2 MSTORE PUSH1 0x20 ADD PUSH1 0x0 DUP2 MSTORE PUSH1 0x20 ADD PUSH1 0x0 DUP2 MSTORE PUSH1 0x20 ADD PUSH1 0x0 DUP2 MSTORE PUSH1 0x20 ADD PUSH1 0x0 DUP2 MSTORE PUSH1 0x20 ADD PUSH1 0x0 DUP2 MSTORE PUSH1 0x20 ADD PUSH1 0x0 DUP2 MSTORE POP SWAP1 JUMP JUMPDEST PUSH1 0x40 MLOAD DUP1 PUSH1 0xE0 ADD PUSH1 0x40 MSTORE DUP1 PUSH1 0x0 DUP2 MSTORE PUSH1 0x20 ADD PUSH1 0x0 DUP2 MSTORE PUSH1 0x20 ADD PUSH1 0x0 DUP2 MSTORE PUSH1 0x20 ADD PUSH1 0x0 PUSH1 0x1 PUSH1 0x1 PUSH1 0xA0 SHL SUB AND DUP2 MSTORE PUSH1 0x20 ADD PUSH1 0x0 ISZERO ISZERO DUP2 MSTORE PUSH1 0x20 ADD PUSH1 0x0 DUP2 MSTORE PUSH1 0x20 ADD PUSH1 0x0 DUP2 MSTORE POP SWAP1 JUMP JUMPDEST PUSH1 0x1 PUSH1 0x1 PUSH1 0xA0 SHL SUB DUP2 AND DUP2 EQ PUSH2 0xB17 JUMPI PUSH1 0x0 DUP1 REVERT JUMPDEST DUP1 CALLDATALOAD PUSH2 0x547C DUP2 PUSH2 0x545C JUMP JUMPDEST SWAP2 SWAP1 POP JUMP JUMPDEST PUSH1 0x0 PUSH1 0x20 DUP3 DUP5 SUB SLT ISZERO PUSH2 0x5493 JUMPI PUSH1 0x0 DUP1 REVERT JUMPDEST DUP2 CALLDATALOAD PUSH2 0x3296 DUP2 PUSH2 0x545C JUMP JUMPDEST PUSH1 0x0 DUP1 PUSH1 0x40 DUP4 DUP6 SUB SLT ISZERO PUSH2 0x54B1 JUMPI PUSH1 0x0 DUP1 REVERT JUMPDEST DUP3 CALLDATALOAD PUSH2 0x54BC DUP2 PUSH2 0x545C JUMP JUMPDEST SWAP5 PUSH1 0x20 SWAP4 SWAP1 SWAP4 ADD CALLDATALOAD SWAP4 POP POP POP JUMP JUMPDEST PUSH4 0x4E487B71 PUSH1 0xE0 SHL PUSH1 0x0 MSTORE PUSH1 0x41 PUSH1 0x4 MSTORE PUSH1 0x24 PUSH1 0x0 REVERT JUMPDEST PUSH1 0x0 PUSH1 0x20 DUP1 DUP4 DUP6 SUB SLT ISZERO PUSH2 0x54F3 JUMPI PUSH1 0x0 DUP1 REVERT JUMPDEST DUP3 CALLDATALOAD PUSH8 0xFFFFFFFFFFFFFFFF DUP1 DUP3 GT ISZERO PUSH2 0x550B JUMPI PUSH1 0x0 DUP1 REVERT JUMPDEST DUP2 DUP6 ADD SWAP2 POP DUP6 PUSH1 0x1F DUP4 ADD SLT PUSH2 0x551F JUMPI PUSH1 0x0 DUP1 REVERT JUMPDEST DUP2 CALLDATALOAD DUP2 DUP2 GT ISZERO PUSH2 0x5531 JUMPI PUSH2 0x5531 PUSH2 0x54CA JUMP JUMPDEST DUP1 PUSH1 0x5 SHL PUSH1 0x40 MLOAD PUSH1 0x1F NOT PUSH1 0x3F DUP4 ADD AND DUP2 ADD DUP2 DUP2 LT DUP6 DUP3 GT OR ISZERO PUSH2 0x5556 JUMPI PUSH2 0x5556 PUSH2 0x54CA JUMP JUMPDEST PUSH1 0x40 MSTORE SWAP2 DUP3 MSTORE DUP5 DUP3 ADD SWAP3 POP DUP4 DUP2 ADD DUP6 ADD SWAP2 DUP9 DUP4 GT ISZERO PUSH2 0x5574 JUMPI PUSH1 0x0 DUP1 REVERT JUMPDEST SWAP4 DUP6 ADD SWAP4 JUMPDEST DUP3 DUP6 LT ISZERO PUSH2 0x5599 JUMPI PUSH2 0x558A DUP6 PUSH2 0x5471 JUMP JUMPDEST DUP5 MSTORE SWAP4 DUP6 ADD SWAP4 SWAP3 DUP6 ADD SWAP3 PUSH2 0x5579 JUMP JUMPDEST SWAP9 SWAP8 POP POP POP POP POP POP POP POP JUMP JUMPDEST PUSH1 0x0 PUSH1 0x20 DUP3 DUP5 SUB SLT ISZERO PUSH2 0x55B7 JUMPI PUSH1 0x0 DUP1 REVERT JUMPDEST POP CALLDATALOAD SWAP2 SWAP1 POP JUMP JUMPDEST PUSH4 0x4E487B71 PUSH1 0xE0 SHL PUSH1 0x0 MSTORE PUSH1 0x21 PUSH1 0x4 MSTORE PUSH1 0x24 PUSH1 0x0 REVERT JUMPDEST DUP6 DUP2 MSTORE PUSH1 0x20 DUP2 ADD DUP6 SWAP1 MSTORE PUSH1 0x40 DUP2 ADD DUP5 SWAP1 MSTORE PUSH1 0xA0 DUP2 ADD PUSH1 0x5 DUP5 LT PUSH2 0x55F9 JUMPI PUSH2 0x55F9 PUSH2 0x55BE JUMP JUMPDEST DUP4 PUSH1 0x60 DUP4 ADD MSTORE PUSH1 0x1 PUSH1 0x1 PUSH1 0x80 SHL SUB DUP4 AND PUSH1 0x80 DUP4 ADD MSTORE SWAP7 SWAP6 POP POP POP POP POP POP JUMP JUMPDEST PUSH1 0x0 DUP1 PUSH1 0x0 DUP1 PUSH1 0x0 DUP1 PUSH1 0x0 DUP1 PUSH1 0x0 DUP1 PUSH1 0x0 PUSH2 0x160 DUP13 DUP15 SUB SLT ISZERO PUSH2 0x563A JUMPI PUSH1 0x0 DUP1 REVERT JUMPDEST DUP12 CALLDATALOAD PUSH2 0x5645 DUP2 PUSH2 0x545C JUMP JUMPDEST SWAP11 POP PUSH1 0x20 DUP13 ADD CALLDATALOAD PUSH2 0x5655 DUP2 PUSH2 0x545C JUMP JUMPDEST SWAP10 POP PUSH1 0x40 DUP13 ADD CALLDATALOAD PUSH2 0x5665 DUP2 PUSH2 0x545C JUMP JUMPDEST SWAP9 POP PUSH1 0x60 DUP13 ADD CALLDATALOAD PUSH2 0x5675 DUP2 PUSH2 0x545C JUMP JUMPDEST SWAP8 POP PUSH1 0x80 DUP13 ADD CALLDATALOAD PUSH2 0x5685 DUP2 PUSH2 0x545C JUMP JUMPDEST SWAP7 POP PUSH1 0xA0 DUP13 ADD CALLDATALOAD PUSH2 0x5695 DUP2 PUSH2 0x545C JUMP JUMPDEST SWAP6 POP PUSH1 0xC0 DUP13 ADD CALLDATALOAD PUSH2 0x56A5 DUP2 PUSH2 0x545C JUMP JUMPDEST SWAP5 POP PUSH1 0xE0 DUP13 ADD CALLDATALOAD PUSH2 0x56B5 DUP2 PUSH2 0x545C JUMP JUMPDEST SWAP4 POP PUSH2 0x100 DUP13 ADD CALLDATALOAD PUSH2 0x56C6 DUP2 PUSH2 0x545C JUMP JUMPDEST SWAP3 POP PUSH2 0x56D5 PUSH2 0x120 DUP14 ADD PUSH2 0x5471 JUMP JUMPDEST SWAP2 POP PUSH2 0x56E4 PUSH2 0x140 DUP14 ADD PUSH2 0x5471 JUMP JUMPDEST SWAP1 POP SWAP3 SWAP6 SWAP9 SWAP12 POP SWAP3 SWAP6 SWAP9 SWAP12 SWAP1 SWAP4 SWAP7 SWAP10 POP JUMP JUMPDEST PUSH1 0x0 PUSH1 0x20 DUP1 DUP4 MSTORE DUP4 MLOAD DUP1 DUP3 DUP6 ADD MSTORE PUSH1 0x0 JUMPDEST DUP2 DUP2 LT ISZERO PUSH2 0x5723 JUMPI DUP6 DUP2 ADD DUP4 ADD MLOAD DUP6 DUP3 ADD PUSH1 0x40 ADD MSTORE DUP3 ADD PUSH2 0x5707 JUMP JUMPDEST POP PUSH1 0x0 PUSH1 0x40 DUP3 DUP7 ADD ADD MSTORE PUSH1 0x40 PUSH1 0x1F NOT PUSH1 0x1F DUP4 ADD AND DUP6 ADD ADD SWAP3 POP POP POP SWAP3 SWAP2 POP POP JUMP JUMPDEST PUSH1 0x0 DUP1 PUSH1 0x0 DUP1 PUSH1 0x0 DUP1 PUSH1 0x0 PUSH1 0xE0 DUP9 DUP11 SUB SLT ISZERO PUSH2 0x575F JUMPI PUSH1 0x0 DUP1 REVERT JUMPDEST DUP8 CALLDATALOAD SWAP7 POP PUSH1 0x20 DUP9 ADD CALLDATALOAD PUSH2 0x5771 DUP2 PUSH2 0x545C JUMP JUMPDEST SWAP6 POP PUSH1 0x40 DUP9 ADD CALLDATALOAD PUSH2 0x5781 DUP2 PUSH2 0x545C JUMP JUMPDEST SWAP5 POP PUSH1 0x60 DUP9 ADD CALLDATALOAD PUSH2 0x5791 DUP2 PUSH2 0x545C JUMP JUMPDEST SWAP7 SWAP10 SWAP6 SWAP9 POP SWAP4 SWAP7 PUSH1 0x80 DUP2 ADD CALLDATALOAD SWAP6 PUSH1 0xA0 DUP3 ADD CALLDATALOAD SWAP6 POP PUSH1 0xC0 SWAP1 SWAP2 ADD CALLDATALOAD SWAP4 POP SWAP2 POP POP JUMP JUMPDEST PUSH4 0x4E487B71 PUSH1 0xE0 SHL PUSH1 0x0 MSTORE PUSH1 0x11 PUSH1 0x4 MSTORE PUSH1 0x24 PUSH1 0x0 REVERT JUMPDEST DUP2 DUP2 SUB DUP2 DUP2 GT ISZERO PUSH2 0xB67 JUMPI PUSH2 0xB67 PUSH2 0x57B2 JUMP JUMPDEST PUSH1 0x0 PUSH1 0x20 DUP3 DUP5 SUB SLT ISZERO PUSH2 0x57ED JUMPI PUSH1 0x0 DUP1 REVERT JUMPDEST POP MLOAD SWAP2 SWAP1 POP JUMP JUMPDEST PUSH1 0x20 DUP1 DUP3 MSTORE PUSH1 0x22 SWAP1 DUP3 ADD MSTORE PUSH32 0x54726F76654D616E616765723A206E6F7468696E6720746F206C697175696461 PUSH1 0x40 DUP3 ADD MSTORE PUSH2 0x7465 PUSH1 0xF0 SHL PUSH1 0x60 DUP3 ADD MSTORE PUSH1 0x80 ADD SWAP1 JUMP JUMPDEST PUSH1 0x1 PUSH1 0x1 PUSH1 0xA0 SHL SUB SWAP3 SWAP1 SWAP3 AND DUP3 MSTORE PUSH1 0x20 DUP3 ADD MSTORE PUSH1 0x40 ADD SWAP1 JUMP JUMPDEST PUSH4 0x4E487B71 PUSH1 0xE0 SHL PUSH1 0x0 MSTORE PUSH1 0x12 PUSH1 0x4 MSTORE PUSH1 0x24 PUSH1 0x0 REVERT JUMPDEST PUSH1 0x0 DUP3 PUSH2 0x5874 JUMPI PUSH2 0x5874 PUSH2 0x584F JUMP JUMPDEST POP DIV SWAP1 JUMP JUMPDEST DUP1 DUP3 MUL DUP2 ISZERO DUP3 DUP3 DIV DUP5 EQ OR PUSH2 0xB67 JUMPI PUSH2 0xB67 PUSH2 0x57B2 JUMP JUMPDEST PUSH4 0x4E487B71 PUSH1 0xE0 SHL PUSH1 0x0 MSTORE PUSH1 0x32 PUSH1 0x4 MSTORE PUSH1 0x24 PUSH1 0x0 REVERT JUMPDEST PUSH4 0x4E487B71 PUSH1 0xE0 SHL PUSH1 0x0 MSTORE PUSH1 0x1 PUSH1 0x4 MSTORE PUSH1 0x24 PUSH1 0x0 REVERT JUMPDEST DUP1 DUP3 ADD DUP1 DUP3 GT ISZERO PUSH2 0xB67 JUMPI PUSH2 0xB67 PUSH2 0x57B2 JUMP JUMPDEST PUSH1 0x0 PUSH1 0x20 DUP3 DUP5 SUB SLT ISZERO PUSH2 0x58E1 JUMPI PUSH1 0x0 DUP1 REVERT JUMPDEST DUP2 MLOAD PUSH2 0x3296 DUP2 PUSH2 0x545C JUMP JUMPDEST PUSH1 0x0 DUP2 PUSH2 0x58FB JUMPI PUSH2 0x58FB PUSH2 0x57B2 JUMP JUMPDEST POP PUSH1 0x0 NOT ADD SWAP1 JUMP JUMPDEST PUSH1 0x4 DUP2 LT PUSH2 0x5913 JUMPI PUSH2 0x5913 PUSH2 0x55BE JUMP JUMPDEST SWAP1 MSTORE JUMP JUMPDEST DUP5 DUP2 MSTORE PUSH1 0x20 DUP2 ADD DUP5 SWAP1 MSTORE PUSH1 0x40 DUP2 ADD DUP4 SWAP1 MSTORE PUSH1 0x80 DUP2 ADD PUSH2 0x1DEE PUSH1 0x60 DUP4 ADD DUP5 PUSH2 0x5903 JUMP JUMPDEST PUSH1 0x0 PUSH1 0x1 DUP3 ADD PUSH2 0x594B JUMPI PUSH2 0x594B PUSH2 0x57B2 JUMP JUMPDEST POP PUSH1 0x1 ADD SWAP1 JUMP JUMPDEST PUSH1 0x0 PUSH1 0x20 DUP3 DUP5 SUB SLT ISZERO PUSH2 0x5964 JUMPI PUSH1 0x0 DUP1 REVERT JUMPDEST DUP2 MLOAD DUP1 ISZERO ISZERO DUP2 EQ PUSH2 0x3296 JUMPI PUSH1 0x0 DUP1 REVERT JUMPDEST DUP4 DUP2 MSTORE PUSH1 0x20 DUP2 ADD DUP4 SWAP1 MSTORE PUSH1 0x60 DUP2 ADD PUSH2 0x3AC6 PUSH1 0x40 DUP4 ADD DUP5 PUSH2 0x5903 JUMP JUMPDEST PUSH1 0x0 DUP3 PUSH2 0x599E JUMPI PUSH2 0x599E PUSH2 0x584F JUMP JUMPDEST POP MOD SWAP1 JUMP JUMPDEST PUSH4 0x4E487B71 PUSH1 0xE0 SHL PUSH1 0x0 MSTORE PUSH1 0x31 PUSH1 0x4 MSTORE PUSH1 0x24 PUSH1 0x0 REVERT INVALID 0xC3 PUSH24 0xD654ED33AEEA6BF11AC8EF05D02A6A04ED4686DD2F624D8 MSTORE8 0xBB 0xEC NUMBER 0xCC DUP12 LOG2 PUSH5 0x6970667358 0x22 SLT KECCAK256 0xC 0xCD 0xC4 STOP DUP13 0xE3 PUSH0 CREATE 0xAD 0xB4 SWAP10 DUP8 EXTCODECOPY PUSH27 0xB78FCD9E478074F2328E96C5E201F1950CA064736F6C6343000814 STOP CALLER "
		},
		"gasEstimates": {
			"creation": {
				"codeDepositCost": "4611000",
				"executionCost": "31160",
				"totalCost": "4642160"
			},
			"external": {
				"BETA()": "309",
				"BOOTSTRAP_PERIOD()": "262",
				"BORROWING_FEE_FLOOR()": "509",
				"CCR()": "263",
				"DECIMAL_PRECISION()": "262",
				"LUSD_GAS_COMPENSATION()": "307",
				"L_ETH()": "2451",
				"L_LUSDDebt()": "2450",
				"MAX_BORROWING_FEE()": "512",
				"MAX_REDEMPTION_REWARD()": "468",
				"MCR()": "264",
				"MINUTE_DECAY_FACTOR()": "306",
				"MIN_NET_DEBT()": "330",
				"NAME()": "infinite",
				"PERCENT_DIVISOR()": "308",
				"REDEMPTION_FEE_FLOOR()": "423",
				"SECONDS_IN_ONE_MINUTE()": "351",
				"TroveOwners(uint256)": "4780",
				"Troves(address)": "9225",
				"_100pct()": "328",
				"activePool()": "2483",
				"addTroveOwnerToArray(address)": "77687",
				"admin()": "2458",
				"applyPendingRewards(address)": "infinite",
				"baseRate()": "2364",
				"batchLiquidateTroves(address[])": "infinite",
				"borrowerOperationsAddress()": "2503",
				"checkRecoveryMode(uint256)": "infinite",
				"closeTrove(address)": "infinite",
				"decayBaseRateFromBorrowing()": "infinite",
				"decreaseTroveColl(address,uint256)": "27101",
				"decreaseTroveDebt(address,uint256)": "infinite",
				"defaultPool()": "2504",
				"getBorrowingFee(uint256)": "infinite",
				"getBorrowingFeeWithDecay(uint256)": "infinite",
				"getBorrowingRate()": "infinite",
				"getBorrowingRateWithDecay()": "infinite",
				"getCurrentICR(address,uint256)": "infinite",
				"getEntireDebtAndColl(address)": "infinite",
				"getEntireSystemColl()": "infinite",
				"getEntireSystemDebt()": "infinite",
				"getNominalICR(address)": "infinite",
				"getPendingETHReward(address)": "infinite",
				"getPendingLUSDDebtReward(address)": "infinite",
				"getRedemptionFeeWithDecay(uint256)": "infinite",
				"getRedemptionRate()": "infinite",
				"getRedemptionRateWithDecay()": "infinite",
				"getTCR(uint256)": "infinite",
				"getTroveColl(address)": "2628",
				"getTroveDebt(address)": "2642",
				"getTroveFromTroveOwnersArray(uint256)": "4741",
				"getTroveOwnersCount()": "2427",
				"getTroveStake(address)": "2627",
				"getTroveStatus(address)": "2726",
				"hasPendingRewards(address)": "6980",
				"increaseTroveColl(address,uint256)": "27123",
				"increaseTroveDebt(address,uint256)": "infinite",
				"isOwner()": "2411",
				"lastETHError_Redistribution()": "2408",
				"lastFeeOperationTime()": "2472",
				"lastLUSDDebtError_Redistribution()": "2387",
				"liquidate(address)": "infinite",
				"liquidateTroves(uint256)": "infinite",
				"lqtyStaking()": "2415",
				"lqtyToken()": "2417",
				"lusdToken()": "2416",
				"owner()": "2388",
				"priceFeed()": "2481",
				"redeemCollateral(uint256,address,address,address,uint256,uint256,uint256)": "infinite",
				"redemptionRewardRate()": "2385",
				"removeStake(address)": "infinite",
				"renounceAdmin()": "26670",
				"rewardSnapshots(address)": "4743",
				"setAddresses(address,address,address,address,address,address,address,address,address,address,address)": "infinite",
				"setAdmin(address)": "26772",
				"setPriceFeed(address)": "26816",
				"setRedemptionReward(uint256)": "24794",
				"setTroveStatus(address,uint256)": "26957",
				"sortedTroves()": "2459",
				"stabilityPool()": "2396",
				"totalCollateralSnapshot()": "2407",
				"totalStakes()": "2451",
				"totalStakesSnapshot()": "2363",
				"updateStakeAndTotalStakes(address)": "infinite",
				"updateTroveRewardSnapshots(address)": "infinite"
			},
			"internal": {
				"_addLiquidationValuesToTotals(struct TroveManager.LiquidationTotals memory,struct TroveManager.LiquidationValues memory)": "infinite",
				"_addTroveOwnerToArray(address)": "75058",
				"_applyPendingRewards(contract IActivePool,contract IDefaultPool,address)": "infinite",
				"_calcBorrowingFee(uint256,uint256)": "178",
				"_calcBorrowingRate(uint256)": "infinite",
				"_calcDecayedBaseRate()": "infinite",
				"_calcRedemptionFee(uint256,uint256)": "infinite",
				"_calcRedemptionRate(uint256)": "infinite",
				"_checkPotentialRecoveryMode(uint256,uint256,uint256)": "infinite",
				"_closeTrove(address,enum TroveManager.Status)": "infinite",
				"_computeNewStake(uint256)": "8641",
				"_getCappedOffsetVals(uint256,uint256,uint256)": "infinite",
				"_getCurrentTroveAmounts(address)": "infinite",
				"_getOffsetAndRedistributionVals(uint256,uint256,uint256)": "infinite",
				"_getRedemptionFee(uint256)": "infinite",
				"_getTotalFromBatchLiquidate_RecoveryMode(contract IActivePool,contract IDefaultPool,uint256,uint256,address[] memory)": "infinite",
				"_getTotalsFromBatchLiquidate_NormalMode(contract IActivePool,contract IDefaultPool,uint256,uint256,address[] memory)": "infinite",
				"_getTotalsFromLiquidateTrovesSequence_NormalMode(contract IActivePool,contract IDefaultPool,uint256,uint256,uint256)": "infinite",
				"_getTotalsFromLiquidateTrovesSequence_RecoveryMode(struct TroveManager.ContractsCache memory,uint256,uint256,uint256)": "infinite",
				"_getTroveOwnerRewardFees(uint256)": "infinite",
				"_isValidFirstRedemptionHint(contract ISortedTroves,address,uint256)": "infinite",
				"_liquidateNormalMode(contract IActivePool,contract IDefaultPool,address,uint256)": "infinite",
				"_liquidateRecoveryMode(contract IActivePool,contract IDefaultPool,address,uint256,uint256,uint256,uint256)": "infinite",
				"_minutesPassedSinceLastFeeOp()": "2263",
				"_movePendingTroveRewardsToActivePool(contract IActivePool,contract IDefaultPool,uint256,uint256)": "infinite",
				"_redeemCloseTrove(struct TroveManager.ContractsCache memory,address,uint256,uint256)": "infinite",
				"_redeemCollateralFromTrove(struct TroveManager.ContractsCache memory,address,uint256,uint256,address,address,uint256)": "infinite",
				"_redistributeDebtAndColl(contract IActivePool,contract IDefaultPool,uint256,uint256)": "infinite",
				"_removeStake(address)": "31590",
				"_removeTroveOwner(address,uint256)": "infinite",
				"_requireAfterBootstrapPeriod()": "infinite",
				"_requireAmountGreaterThanZero(uint256)": "infinite",
				"_requireCallerIsBorrowerOperations()": "infinite",
				"_requireLUSDBalanceCoversRedemption(contract ILUSDToken,address,uint256)": "infinite",
				"_requireMoreThanOneTroveInSystem(uint256)": "infinite",
				"_requireTCRoverMCR(uint256)": "infinite",
				"_requireTroveIsActive(address)": "infinite",
				"_requireValidMaxFeePercentage(uint256)": "infinite",
				"_sendGasCompensation(contract IActivePool,address,uint256,uint256)": "infinite",
				"_updateBaseRateFromRedemption(uint256,uint256,uint256)": "infinite",
				"_updateLastFeeOpTime()": "infinite",
				"_updateStakeAndTotalStakes(address)": "infinite",
				"_updateSystemSnapshots_excludeCollRemainder(contract IActivePool,uint256)": "infinite",
				"_updateTroveRewardSnapshots(address)": "infinite"
			}
		},
		"methodIdentifiers": {
			"BETA()": "071a7541",
			"BOOTSTRAP_PERIOD()": "c35bc550",
			"BORROWING_FEE_FLOOR()": "f92d3433",
			"CCR()": "5733d58f",
			"DECIMAL_PRECISION()": "a20baee6",
			"LUSD_GAS_COMPENSATION()": "2e86bbd8",
			"L_ETH()": "9dd233d2",
			"L_LUSDDebt()": "dba1c5f2",
			"MAX_BORROWING_FEE()": "24092669",
			"MAX_REDEMPTION_REWARD()": "2160fee3",
			"MCR()": "794e5724",
			"MINUTE_DECAY_FACTOR()": "c7b55481",
			"MIN_NET_DEBT()": "1bf43555",
			"NAME()": "a3f4df7e",
			"PERCENT_DIVISOR()": "4870dd9a",
			"REDEMPTION_FEE_FLOOR()": "28d28b5b",
			"SECONDS_IN_ONE_MINUTE()": "61ec893d",
			"TroveOwners(uint256)": "756b253e",
			"Troves(address)": "6ef64338",
			"_100pct()": "72fe25aa",
			"activePool()": "7f7dde4a",
			"addTroveOwnerToArray(address)": "15d549f1",
			"admin()": "f851a440",
			"applyPendingRewards(address)": "0b076557",
			"baseRate()": "1f68f20a",
			"batchLiquidateTroves(address[])": "1e8b1c2b",
			"borrowerOperationsAddress()": "b7f8cf9b",
			"checkRecoveryMode(uint256)": "4e443d9e",
			"closeTrove(address)": "cbd138ae",
			"decayBaseRateFromBorrowing()": "5dba4c4a",
			"decreaseTroveColl(address,uint256)": "d3d6f843",
			"decreaseTroveDebt(address,uint256)": "12610e92",
			"defaultPool()": "3cc74225",
			"getBorrowingFee(uint256)": "631203b0",
			"getBorrowingFeeWithDecay(uint256)": "477d66cf",
			"getBorrowingRate()": "f36b2425",
			"getBorrowingRateWithDecay()": "66ca4a21",
			"getCurrentICR(address,uint256)": "d293c710",
			"getEntireDebtAndColl(address)": "b91af97c",
			"getEntireSystemColl()": "887105d3",
			"getEntireSystemDebt()": "795d26c3",
			"getNominalICR(address)": "b0d8e181",
			"getPendingETHReward(address)": "5d8c9609",
			"getPendingLUSDDebtReward(address)": "f34862de",
			"getRedemptionFeeWithDecay(uint256)": "d5b35635",
			"getRedemptionRate()": "2b11551a",
			"getRedemptionRateWithDecay()": "c52861f2",
			"getTCR(uint256)": "b82f263d",
			"getTroveColl(address)": "480cd578",
			"getTroveDebt(address)": "d66a2553",
			"getTroveFromTroveOwnersArray(uint256)": "d9a72444",
			"getTroveOwnersCount()": "49eefeee",
			"getTroveStake(address)": "64cee260",
			"getTroveStatus(address)": "21e37801",
			"hasPendingRewards(address)": "e2ac77b0",
			"increaseTroveColl(address,uint256)": "72423c17",
			"increaseTroveDebt(address,uint256)": "9976cf45",
			"isOwner()": "8f32d59b",
			"lastETHError_Redistribution()": "797250e3",
			"lastFeeOperationTime()": "d380a37c",
			"lastLUSDDebtError_Redistribution()": "060d49a3",
			"liquidate(address)": "2f865568",
			"liquidateTroves(uint256)": "653d46e7",
			"lqtyStaking()": "a3a64017",
			"lqtyToken()": "1f7af3c3",
			"lusdToken()": "b83f91a2",
			"owner()": "8da5cb5b",
			"priceFeed()": "741bef1a",
			"redeemCollateral(uint256,address,address,address,uint256,uint256,uint256)": "bcd37526",
			"redemptionRewardRate()": "81c376ce",
			"removeStake(address)": "fe2ba848",
			"renounceAdmin()": "8bad0c0a",
			"rewardSnapshots(address)": "1673c79a",
			"setAddresses(address,address,address,address,address,address,address,address,address,address,address)": "7985c5e4",
			"setAdmin(address)": "704b6c02",
			"setPriceFeed(address)": "724e78da",
			"setRedemptionReward(uint256)": "3afc9a2f",
			"setTroveStatus(address,uint256)": "5d6b480f",
			"sortedTroves()": "ae918754",
			"stabilityPool()": "048c661d",
			"totalCollateralSnapshot()": "96d711ff",
			"totalStakes()": "bf9befb1",
			"totalStakesSnapshot()": "807d138d",
			"updateStakeAndTotalStakes(address)": "18f2817a",
			"updateTroveRewardSnapshots(address)": "82fe3eb9"
		}
	},
	"abi": [
		{
			"anonymous": false,
			"inputs": [
				{
					"indexed": false,
					"internalType": "address",
					"name": "_activePoolAddress",
					"type": "address"
				}
			],
			"name": "ActivePoolAddressChanged",
			"type": "event"
		},
		{
			"anonymous": false,
			"inputs": [
				{
					"indexed": false,
					"internalType": "uint256",
					"name": "_baseRate",
					"type": "uint256"
				}
			],
			"name": "BaseRateUpdated",
			"type": "event"
		},
		{
			"anonymous": false,
			"inputs": [
				{
					"indexed": false,
					"internalType": "address",
					"name": "_newBorrowerOperationsAddress",
					"type": "address"
				}
			],
			"name": "BorrowerOperationsAddressChanged",
			"type": "event"
		},
		{
			"anonymous": false,
			"inputs": [
				{
					"indexed": false,
					"internalType": "address",
					"name": "_collSurplusPoolAddress",
					"type": "address"
				}
			],
			"name": "CollSurplusPoolAddressChanged",
			"type": "event"
		},
		{
			"anonymous": false,
			"inputs": [
				{
					"indexed": false,
					"internalType": "address",
					"name": "_defaultPoolAddress",
					"type": "address"
				}
			],
			"name": "DefaultPoolAddressChanged",
			"type": "event"
		},
		{
			"anonymous": false,
			"inputs": [
				{
					"indexed": false,
					"internalType": "address",
					"name": "_gasPoolAddress",
					"type": "address"
				}
			],
			"name": "GasPoolAddressChanged",
			"type": "event"
		},
		{
			"anonymous": false,
			"inputs": [
				{
					"indexed": false,
					"internalType": "address",
					"name": "_lqtyStakingAddress",
					"type": "address"
				}
			],
			"name": "LQTYStakingAddressChanged",
			"type": "event"
		},
		{
			"anonymous": false,
			"inputs": [
				{
					"indexed": false,
					"internalType": "address",
					"name": "_lqtyTokenAddress",
					"type": "address"
				}
			],
			"name": "LQTYTokenAddressChanged",
			"type": "event"
		},
		{
			"anonymous": false,
			"inputs": [
				{
					"indexed": false,
					"internalType": "uint256",
					"name": "_L_ETH",
					"type": "uint256"
				},
				{
					"indexed": false,
					"internalType": "uint256",
					"name": "_L_LUSDDebt",
					"type": "uint256"
				}
			],
			"name": "LTermsUpdated",
			"type": "event"
		},
		{
			"anonymous": false,
			"inputs": [
				{
					"indexed": false,
					"internalType": "address",
					"name": "_newLUSDTokenAddress",
					"type": "address"
				}
			],
			"name": "LUSDTokenAddressChanged",
			"type": "event"
		},
		{
			"anonymous": false,
			"inputs": [
				{
					"indexed": false,
					"internalType": "uint256",
					"name": "_lastFeeOpTime",
					"type": "uint256"
				}
			],
			"name": "LastFeeOpTimeUpdated",
			"type": "event"
		},
		{
			"anonymous": false,
			"inputs": [
				{
					"indexed": false,
					"internalType": "uint256",
					"name": "_liquidatedDebt",
					"type": "uint256"
				},
				{
					"indexed": false,
					"internalType": "uint256",
					"name": "_liquidatedColl",
					"type": "uint256"
				},
				{
					"indexed": false,
					"internalType": "uint256",
					"name": "_collGasCompensation",
					"type": "uint256"
				},
				{
					"indexed": false,
					"internalType": "uint256",
					"name": "_LUSDGasCompensation",
					"type": "uint256"
				}
			],
			"name": "Liquidation",
			"type": "event"
		},
		{
			"anonymous": false,
			"inputs": [
				{
					"indexed": true,
					"internalType": "address",
					"name": "previousOwner",
					"type": "address"
				},
				{
					"indexed": true,
					"internalType": "address",
					"name": "newOwner",
					"type": "address"
				}
			],
			"name": "OwnershipTransferred",
			"type": "event"
		},
		{
			"anonymous": false,
			"inputs": [
				{
					"indexed": false,
					"internalType": "address",
					"name": "_newPriceFeedAddress",
					"type": "address"
				}
			],
			"name": "PriceFeedAddressChanged",
			"type": "event"
		},
		{
			"anonymous": false,
			"inputs": [
				{
					"indexed": false,
					"internalType": "uint256",
					"name": "_attemptedLUSDAmount",
					"type": "uint256"
				},
				{
					"indexed": false,
					"internalType": "uint256",
					"name": "_actualLUSDAmount",
					"type": "uint256"
				},
				{
					"indexed": false,
					"internalType": "uint256",
					"name": "_ETHSent",
					"type": "uint256"
				},
				{
					"indexed": false,
					"internalType": "uint256",
					"name": "_ETHFee",
					"type": "uint256"
				}
			],
			"name": "Redemption",
			"type": "event"
		},
		{
			"anonymous": false,
			"inputs": [
				{
					"indexed": false,
					"internalType": "address",
					"name": "_sortedTrovesAddress",
					"type": "address"
				}
			],
			"name": "SortedTrovesAddressChanged",
			"type": "event"
		},
		{
			"anonymous": false,
			"inputs": [
				{
					"indexed": false,
					"internalType": "address",
					"name": "_stabilityPoolAddress",
					"type": "address"
				}
			],
			"name": "StabilityPoolAddressChanged",
			"type": "event"
		},
		{
			"anonymous": false,
			"inputs": [
				{
					"indexed": false,
					"internalType": "uint256",
					"name": "_totalStakesSnapshot",
					"type": "uint256"
				},
				{
					"indexed": false,
					"internalType": "uint256",
					"name": "_totalCollateralSnapshot",
					"type": "uint256"
				}
			],
			"name": "SystemSnapshotsUpdated",
			"type": "event"
		},
		{
			"anonymous": false,
			"inputs": [
				{
					"indexed": false,
					"internalType": "uint256",
					"name": "_newTotalStakes",
					"type": "uint256"
				}
			],
			"name": "TotalStakesUpdated",
			"type": "event"
		},
		{
			"anonymous": false,
			"inputs": [
				{
					"indexed": false,
					"internalType": "address",
					"name": "_borrower",
					"type": "address"
				},
				{
					"indexed": false,
					"internalType": "uint256",
					"name": "_newIndex",
					"type": "uint256"
				}
			],
			"name": "TroveIndexUpdated",
			"type": "event"
		},
		{
			"anonymous": false,
			"inputs": [
				{
					"indexed": true,
					"internalType": "address",
					"name": "_borrower",
					"type": "address"
				},
				{
					"indexed": false,
					"internalType": "uint256",
					"name": "_debt",
					"type": "uint256"
				},
				{
					"indexed": false,
					"internalType": "uint256",
					"name": "_coll",
					"type": "uint256"
				},
				{
					"indexed": false,
					"internalType": "uint8",
					"name": "operation",
					"type": "uint8"
				}
			],
			"name": "TroveLiquidated",
			"type": "event"
		},
		{
			"anonymous": false,
			"inputs": [
				{
					"indexed": true,
					"internalType": "address",
					"name": "_borrower",
					"type": "address"
				},
				{
					"indexed": false,
					"internalType": "uint256",
					"name": "_debt",
					"type": "uint256"
				},
				{
					"indexed": false,
					"internalType": "uint256",
					"name": "_coll",
					"type": "uint256"
				},
				{
					"indexed": false,
					"internalType": "enum TroveManager.TroveManagerOperation",
					"name": "_operation",
					"type": "uint8"
				}
			],
			"name": "TroveLiquidated",
			"type": "event"
		},
		{
			"anonymous": false,
			"inputs": [
				{
					"indexed": false,
					"internalType": "uint256",
					"name": "_L_ETH",
					"type": "uint256"
				},
				{
					"indexed": false,
					"internalType": "uint256",
					"name": "_L_LUSDDebt",
					"type": "uint256"
				}
			],
			"name": "TroveSnapshotsUpdated",
			"type": "event"
		},
		{
			"anonymous": false,
			"inputs": [
				{
					"indexed": true,
					"internalType": "address",
					"name": "_borrower",
					"type": "address"
				},
				{
					"indexed": false,
					"internalType": "uint256",
					"name": "_debt",
					"type": "uint256"
				},
				{
					"indexed": false,
					"internalType": "uint256",
					"name": "_coll",
					"type": "uint256"
				},
				{
					"indexed": false,
					"internalType": "uint256",
					"name": "stake",
					"type": "uint256"
				},
				{
					"indexed": false,
					"internalType": "uint8",
					"name": "operation",
					"type": "uint8"
				}
			],
			"name": "TroveUpdated",
			"type": "event"
		},
		{
			"anonymous": false,
			"inputs": [
				{
					"indexed": true,
					"internalType": "address",
					"name": "_borrower",
					"type": "address"
				},
				{
					"indexed": false,
					"internalType": "uint256",
					"name": "_debt",
					"type": "uint256"
				},
				{
					"indexed": false,
					"internalType": "uint256",
					"name": "_coll",
					"type": "uint256"
				},
				{
					"indexed": false,
					"internalType": "uint256",
					"name": "_stake",
					"type": "uint256"
				},
				{
					"indexed": false,
					"internalType": "enum TroveManager.TroveManagerOperation",
					"name": "_operation",
					"type": "uint8"
				}
			],
			"name": "TroveUpdated",
			"type": "event"
		},
		{
			"inputs": [],
			"name": "BETA",
			"outputs": [
				{
					"internalType": "uint256",
					"name": "",
					"type": "uint256"
				}
			],
			"stateMutability": "view",
			"type": "function"
		},
		{
			"inputs": [],
			"name": "BOOTSTRAP_PERIOD",
			"outputs": [
				{
					"internalType": "uint256",
					"name": "",
					"type": "uint256"
				}
			],
			"stateMutability": "view",
			"type": "function"
		},
		{
			"inputs": [],
			"name": "BORROWING_FEE_FLOOR",
			"outputs": [
				{
					"internalType": "uint256",
					"name": "",
					"type": "uint256"
				}
			],
			"stateMutability": "view",
			"type": "function"
		},
		{
			"inputs": [],
			"name": "CCR",
			"outputs": [
				{
					"internalType": "uint256",
					"name": "",
					"type": "uint256"
				}
			],
			"stateMutability": "view",
			"type": "function"
		},
		{
			"inputs": [],
			"name": "DECIMAL_PRECISION",
			"outputs": [
				{
					"internalType": "uint256",
					"name": "",
					"type": "uint256"
				}
			],
			"stateMutability": "view",
			"type": "function"
		},
		{
			"inputs": [],
			"name": "LUSD_GAS_COMPENSATION",
			"outputs": [
				{
					"internalType": "uint256",
					"name": "",
					"type": "uint256"
				}
			],
			"stateMutability": "view",
			"type": "function"
		},
		{
			"inputs": [],
			"name": "L_ETH",
			"outputs": [
				{
					"internalType": "uint256",
					"name": "",
					"type": "uint256"
				}
			],
			"stateMutability": "view",
			"type": "function"
		},
		{
			"inputs": [],
			"name": "L_LUSDDebt",
			"outputs": [
				{
					"internalType": "uint256",
					"name": "",
					"type": "uint256"
				}
			],
			"stateMutability": "view",
			"type": "function"
		},
		{
			"inputs": [],
			"name": "MAX_BORROWING_FEE",
			"outputs": [
				{
					"internalType": "uint256",
					"name": "",
					"type": "uint256"
				}
			],
			"stateMutability": "view",
			"type": "function"
		},
		{
			"inputs": [],
			"name": "MAX_REDEMPTION_REWARD",
			"outputs": [
				{
					"internalType": "uint256",
					"name": "",
					"type": "uint256"
				}
			],
			"stateMutability": "view",
			"type": "function"
		},
		{
			"inputs": [],
			"name": "MCR",
			"outputs": [
				{
					"internalType": "uint256",
					"name": "",
					"type": "uint256"
				}
			],
			"stateMutability": "view",
			"type": "function"
		},
		{
			"inputs": [],
			"name": "MINUTE_DECAY_FACTOR",
			"outputs": [
				{
					"internalType": "uint256",
					"name": "",
					"type": "uint256"
				}
			],
			"stateMutability": "view",
			"type": "function"
		},
		{
			"inputs": [],
			"name": "MIN_NET_DEBT",
			"outputs": [
				{
					"internalType": "uint256",
					"name": "",
					"type": "uint256"
				}
			],
			"stateMutability": "view",
			"type": "function"
		},
		{
			"inputs": [],
			"name": "NAME",
			"outputs": [
				{
					"internalType": "string",
					"name": "",
					"type": "string"
				}
			],
			"stateMutability": "view",
			"type": "function"
		},
		{
			"inputs": [],
			"name": "PERCENT_DIVISOR",
			"outputs": [
				{
					"internalType": "uint256",
					"name": "",
					"type": "uint256"
				}
			],
			"stateMutability": "view",
			"type": "function"
		},
		{
			"inputs": [],
			"name": "REDEMPTION_FEE_FLOOR",
			"outputs": [
				{
					"internalType": "uint256",
					"name": "",
					"type": "uint256"
				}
			],
			"stateMutability": "view",
			"type": "function"
		},
		{
			"inputs": [],
			"name": "SECONDS_IN_ONE_MINUTE",
			"outputs": [
				{
					"internalType": "uint256",
					"name": "",
					"type": "uint256"
				}
			],
			"stateMutability": "view",
			"type": "function"
		},
		{
			"inputs": [
				{
					"internalType": "uint256",
					"name": "",
					"type": "uint256"
				}
			],
			"name": "TroveOwners",
			"outputs": [
				{
					"internalType": "address",
					"name": "",
					"type": "address"
				}
			],
			"stateMutability": "view",
			"type": "function"
		},
		{
			"inputs": [
				{
					"internalType": "address",
					"name": "",
					"type": "address"
				}
			],
			"name": "Troves",
			"outputs": [
				{
					"internalType": "uint256",
					"name": "debt",
					"type": "uint256"
				},
				{
					"internalType": "uint256",
					"name": "coll",
					"type": "uint256"
				},
				{
					"internalType": "uint256",
					"name": "stake",
					"type": "uint256"
				},
				{
					"internalType": "enum TroveManager.Status",
					"name": "status",
					"type": "uint8"
				},
				{
					"internalType": "uint128",
					"name": "arrayIndex",
					"type": "uint128"
				}
			],
			"stateMutability": "view",
			"type": "function"
		},
		{
			"inputs": [],
			"name": "_100pct",
			"outputs": [
				{
					"internalType": "uint256",
					"name": "",
					"type": "uint256"
				}
			],
			"stateMutability": "view",
			"type": "function"
		},
		{
			"inputs": [],
			"name": "activePool",
			"outputs": [
				{
					"internalType": "contract IActivePool",
					"name": "",
					"type": "address"
				}
			],
			"stateMutability": "view",
			"type": "function"
		},
		{
			"inputs": [
				{
					"internalType": "address",
					"name": "_borrower",
					"type": "address"
				}
			],
			"name": "addTroveOwnerToArray",
			"outputs": [
				{
					"internalType": "uint256",
					"name": "index",
					"type": "uint256"
				}
			],
			"stateMutability": "nonpayable",
			"type": "function"
		},
		{
			"inputs": [],
			"name": "admin",
			"outputs": [
				{
					"internalType": "address",
					"name": "",
					"type": "address"
				}
			],
			"stateMutability": "view",
			"type": "function"
		},
		{
			"inputs": [
				{
					"internalType": "address",
					"name": "_borrower",
					"type": "address"
				}
			],
			"name": "applyPendingRewards",
			"outputs": [],
			"stateMutability": "nonpayable",
			"type": "function"
		},
		{
			"inputs": [],
			"name": "baseRate",
			"outputs": [
				{
					"internalType": "uint256",
					"name": "",
					"type": "uint256"
				}
			],
			"stateMutability": "view",
			"type": "function"
		},
		{
			"inputs": [
				{
					"internalType": "address[]",
					"name": "_troveArray",
					"type": "address[]"
				}
			],
			"name": "batchLiquidateTroves",
			"outputs": [],
			"stateMutability": "nonpayable",
			"type": "function"
		},
		{
			"inputs": [],
			"name": "borrowerOperationsAddress",
			"outputs": [
				{
					"internalType": "address",
					"name": "",
					"type": "address"
				}
			],
			"stateMutability": "view",
			"type": "function"
		},
		{
			"inputs": [
				{
					"internalType": "uint256",
					"name": "_price",
					"type": "uint256"
				}
			],
			"name": "checkRecoveryMode",
			"outputs": [
				{
					"internalType": "bool",
					"name": "",
					"type": "bool"
				}
			],
			"stateMutability": "view",
			"type": "function"
		},
		{
			"inputs": [
				{
					"internalType": "address",
					"name": "_borrower",
					"type": "address"
				}
			],
			"name": "closeTrove",
			"outputs": [],
			"stateMutability": "nonpayable",
			"type": "function"
		},
		{
			"inputs": [],
			"name": "decayBaseRateFromBorrowing",
			"outputs": [],
			"stateMutability": "nonpayable",
			"type": "function"
		},
		{
			"inputs": [
				{
					"internalType": "address",
					"name": "_borrower",
					"type": "address"
				},
				{
					"internalType": "uint256",
					"name": "_collDecrease",
					"type": "uint256"
				}
			],
			"name": "decreaseTroveColl",
			"outputs": [
				{
					"internalType": "uint256",
					"name": "",
					"type": "uint256"
				}
			],
			"stateMutability": "nonpayable",
			"type": "function"
		},
		{
			"inputs": [
				{
					"internalType": "address",
					"name": "_borrower",
					"type": "address"
				},
				{
					"internalType": "uint256",
					"name": "_debtDecrease",
					"type": "uint256"
				}
			],
			"name": "decreaseTroveDebt",
			"outputs": [
				{
					"internalType": "uint256",
					"name": "",
					"type": "uint256"
				}
			],
			"stateMutability": "nonpayable",
			"type": "function"
		},
		{
			"inputs": [],
			"name": "defaultPool",
			"outputs": [
				{
					"internalType": "contract IDefaultPool",
					"name": "",
					"type": "address"
				}
			],
			"stateMutability": "view",
			"type": "function"
		},
		{
			"inputs": [
				{
					"internalType": "uint256",
					"name": "_LUSDDebt",
					"type": "uint256"
				}
			],
			"name": "getBorrowingFee",
			"outputs": [
				{
					"internalType": "uint256",
					"name": "",
					"type": "uint256"
				}
			],
			"stateMutability": "view",
			"type": "function"
		},
		{
			"inputs": [
				{
					"internalType": "uint256",
					"name": "_LUSDDebt",
					"type": "uint256"
				}
			],
			"name": "getBorrowingFeeWithDecay",
			"outputs": [
				{
					"internalType": "uint256",
					"name": "",
					"type": "uint256"
				}
			],
			"stateMutability": "view",
			"type": "function"
		},
		{
			"inputs": [],
			"name": "getBorrowingRate",
			"outputs": [
				{
					"internalType": "uint256",
					"name": "",
					"type": "uint256"
				}
			],
			"stateMutability": "view",
			"type": "function"
		},
		{
			"inputs": [],
			"name": "getBorrowingRateWithDecay",
			"outputs": [
				{
					"internalType": "uint256",
					"name": "",
					"type": "uint256"
				}
			],
			"stateMutability": "view",
			"type": "function"
		},
		{
			"inputs": [
				{
					"internalType": "address",
					"name": "_borrower",
					"type": "address"
				},
				{
					"internalType": "uint256",
					"name": "_price",
					"type": "uint256"
				}
			],
			"name": "getCurrentICR",
			"outputs": [
				{
					"internalType": "uint256",
					"name": "",
					"type": "uint256"
				}
			],
			"stateMutability": "view",
			"type": "function"
		},
		{
			"inputs": [
				{
					"internalType": "address",
					"name": "_borrower",
					"type": "address"
				}
			],
			"name": "getEntireDebtAndColl",
			"outputs": [
				{
					"internalType": "uint256",
					"name": "debt",
					"type": "uint256"
				},
				{
					"internalType": "uint256",
					"name": "coll",
					"type": "uint256"
				},
				{
					"internalType": "uint256",
					"name": "pendingLUSDDebtReward",
					"type": "uint256"
				},
				{
					"internalType": "uint256",
					"name": "pendingETHReward",
					"type": "uint256"
				}
			],
			"stateMutability": "view",
			"type": "function"
		},
		{
			"inputs": [],
			"name": "getEntireSystemColl",
			"outputs": [
				{
					"internalType": "uint256",
					"name": "entireSystemColl",
					"type": "uint256"
				}
			],
			"stateMutability": "view",
			"type": "function"
		},
		{
			"inputs": [],
			"name": "getEntireSystemDebt",
			"outputs": [
				{
					"internalType": "uint256",
					"name": "entireSystemDebt",
					"type": "uint256"
				}
			],
			"stateMutability": "view",
			"type": "function"
		},
		{
			"inputs": [
				{
					"internalType": "address",
					"name": "_borrower",
					"type": "address"
				}
			],
			"name": "getNominalICR",
			"outputs": [
				{
					"internalType": "uint256",
					"name": "",
					"type": "uint256"
				}
			],
			"stateMutability": "view",
			"type": "function"
		},
		{
			"inputs": [
				{
					"internalType": "address",
					"name": "_borrower",
					"type": "address"
				}
			],
			"name": "getPendingETHReward",
			"outputs": [
				{
					"internalType": "uint256",
					"name": "",
					"type": "uint256"
				}
			],
			"stateMutability": "view",
			"type": "function"
		},
		{
			"inputs": [
				{
					"internalType": "address",
					"name": "_borrower",
					"type": "address"
				}
			],
			"name": "getPendingLUSDDebtReward",
			"outputs": [
				{
					"internalType": "uint256",
					"name": "",
					"type": "uint256"
				}
			],
			"stateMutability": "view",
			"type": "function"
		},
		{
			"inputs": [
				{
					"internalType": "uint256",
					"name": "_ETHDrawn",
					"type": "uint256"
				}
			],
			"name": "getRedemptionFeeWithDecay",
			"outputs": [
				{
					"internalType": "uint256",
					"name": "",
					"type": "uint256"
				}
			],
			"stateMutability": "view",
			"type": "function"
		},
		{
			"inputs": [],
			"name": "getRedemptionRate",
			"outputs": [
				{
					"internalType": "uint256",
					"name": "",
					"type": "uint256"
				}
			],
			"stateMutability": "view",
			"type": "function"
		},
		{
			"inputs": [],
			"name": "getRedemptionRateWithDecay",
			"outputs": [
				{
					"internalType": "uint256",
					"name": "",
					"type": "uint256"
				}
			],
			"stateMutability": "view",
			"type": "function"
		},
		{
			"inputs": [
				{
					"internalType": "uint256",
					"name": "_price",
					"type": "uint256"
				}
			],
			"name": "getTCR",
			"outputs": [
				{
					"internalType": "uint256",
					"name": "",
					"type": "uint256"
				}
			],
			"stateMutability": "view",
			"type": "function"
		},
		{
			"inputs": [
				{
					"internalType": "address",
					"name": "_borrower",
					"type": "address"
				}
			],
			"name": "getTroveColl",
			"outputs": [
				{
					"internalType": "uint256",
					"name": "",
					"type": "uint256"
				}
			],
			"stateMutability": "view",
			"type": "function"
		},
		{
			"inputs": [
				{
					"internalType": "address",
					"name": "_borrower",
					"type": "address"
				}
			],
			"name": "getTroveDebt",
			"outputs": [
				{
					"internalType": "uint256",
					"name": "",
					"type": "uint256"
				}
			],
			"stateMutability": "view",
			"type": "function"
		},
		{
			"inputs": [
				{
					"internalType": "uint256",
					"name": "_index",
					"type": "uint256"
				}
			],
			"name": "getTroveFromTroveOwnersArray",
			"outputs": [
				{
					"internalType": "address",
					"name": "",
					"type": "address"
				}
			],
			"stateMutability": "view",
			"type": "function"
		},
		{
			"inputs": [],
			"name": "getTroveOwnersCount",
			"outputs": [
				{
					"internalType": "uint256",
					"name": "",
					"type": "uint256"
				}
			],
			"stateMutability": "view",
			"type": "function"
		},
		{
			"inputs": [
				{
					"internalType": "address",
					"name": "_borrower",
					"type": "address"
				}
			],
			"name": "getTroveStake",
			"outputs": [
				{
					"internalType": "uint256",
					"name": "",
					"type": "uint256"
				}
			],
			"stateMutability": "view",
			"type": "function"
		},
		{
			"inputs": [
				{
					"internalType": "address",
					"name": "_borrower",
					"type": "address"
				}
			],
			"name": "getTroveStatus",
			"outputs": [
				{
					"internalType": "uint256",
					"name": "",
					"type": "uint256"
				}
			],
			"stateMutability": "view",
			"type": "function"
		},
		{
			"inputs": [
				{
					"internalType": "address",
					"name": "_borrower",
					"type": "address"
				}
			],
			"name": "hasPendingRewards",
			"outputs": [
				{
					"internalType": "bool",
					"name": "",
					"type": "bool"
				}
			],
			"stateMutability": "view",
			"type": "function"
		},
		{
			"inputs": [
				{
					"internalType": "address",
					"name": "_borrower",
					"type": "address"
				},
				{
					"internalType": "uint256",
					"name": "_collIncrease",
					"type": "uint256"
				}
			],
			"name": "increaseTroveColl",
			"outputs": [
				{
					"internalType": "uint256",
					"name": "",
					"type": "uint256"
				}
			],
			"stateMutability": "nonpayable",
			"type": "function"
		},
		{
			"inputs": [
				{
					"internalType": "address",
					"name": "_borrower",
					"type": "address"
				},
				{
					"internalType": "uint256",
					"name": "_debtIncrease",
					"type": "uint256"
				}
			],
			"name": "increaseTroveDebt",
			"outputs": [
				{
					"internalType": "uint256",
					"name": "",
					"type": "uint256"
				}
			],
			"stateMutability": "nonpayable",
			"type": "function"
		},
		{
			"inputs": [],
			"name": "isOwner",
			"outputs": [
				{
					"internalType": "bool",
					"name": "",
					"type": "bool"
				}
			],
			"stateMutability": "view",
			"type": "function"
		},
		{
			"inputs": [],
			"name": "lastETHError_Redistribution",
			"outputs": [
				{
					"internalType": "uint256",
					"name": "",
					"type": "uint256"
				}
			],
			"stateMutability": "view",
			"type": "function"
		},
		{
			"inputs": [],
			"name": "lastFeeOperationTime",
			"outputs": [
				{
					"internalType": "uint256",
					"name": "",
					"type": "uint256"
				}
			],
			"stateMutability": "view",
			"type": "function"
		},
		{
			"inputs": [],
			"name": "lastLUSDDebtError_Redistribution",
			"outputs": [
				{
					"internalType": "uint256",
					"name": "",
					"type": "uint256"
				}
			],
			"stateMutability": "view",
			"type": "function"
		},
		{
			"inputs": [
				{
					"internalType": "address",
					"name": "_borrower",
					"type": "address"
				}
			],
			"name": "liquidate",
			"outputs": [],
			"stateMutability": "nonpayable",
			"type": "function"
		},
		{
			"inputs": [
				{
					"internalType": "uint256",
					"name": "_n",
					"type": "uint256"
				}
			],
			"name": "liquidateTroves",
			"outputs": [],
			"stateMutability": "nonpayable",
			"type": "function"
		},
		{
			"inputs": [],
			"name": "lqtyStaking",
			"outputs": [
				{
					"internalType": "contract ILQTYStaking",
					"name": "",
					"type": "address"
				}
			],
			"stateMutability": "view",
			"type": "function"
		},
		{
			"inputs": [],
			"name": "lqtyToken",
			"outputs": [
				{
					"internalType": "contract ILQTYToken",
					"name": "",
					"type": "address"
				}
			],
			"stateMutability": "view",
			"type": "function"
		},
		{
			"inputs": [],
			"name": "lusdToken",
			"outputs": [
				{
					"internalType": "contract ILUSDToken",
					"name": "",
					"type": "address"
				}
			],
			"stateMutability": "view",
			"type": "function"
		},
		{
			"inputs": [],
			"name": "owner",
			"outputs": [
				{
					"internalType": "address",
					"name": "",
					"type": "address"
				}
			],
			"stateMutability": "view",
			"type": "function"
		},
		{
			"inputs": [],
			"name": "priceFeed",
			"outputs": [
				{
					"internalType": "contract IPriceFeed",
					"name": "",
					"type": "address"
				}
			],
			"stateMutability": "view",
			"type": "function"
		},
		{
			"inputs": [
				{
					"internalType": "uint256",
					"name": "_LUSDamount",
					"type": "uint256"
				},
				{
					"internalType": "address",
					"name": "_firstRedemptionHint",
					"type": "address"
				},
				{
					"internalType": "address",
					"name": "_upperPartialRedemptionHint",
					"type": "address"
				},
				{
					"internalType": "address",
					"name": "_lowerPartialRedemptionHint",
					"type": "address"
				},
				{
					"internalType": "uint256",
					"name": "_partialRedemptionHintNICR",
					"type": "uint256"
				},
				{
					"internalType": "uint256",
					"name": "_maxIterations",
					"type": "uint256"
				},
				{
					"internalType": "uint256",
					"name": "_maxFeePercentage",
					"type": "uint256"
				}
			],
			"name": "redeemCollateral",
			"outputs": [],
			"stateMutability": "nonpayable",
			"type": "function"
		},
		{
			"inputs": [],
			"name": "redemptionRewardRate",
			"outputs": [
				{
					"internalType": "uint256",
					"name": "",
					"type": "uint256"
				}
			],
			"stateMutability": "view",
			"type": "function"
		},
		{
			"inputs": [
				{
					"internalType": "address",
					"name": "_borrower",
					"type": "address"
				}
			],
			"name": "removeStake",
			"outputs": [],
			"stateMutability": "nonpayable",
			"type": "function"
		},
		{
			"inputs": [],
			"name": "renounceAdmin",
			"outputs": [],
			"stateMutability": "nonpayable",
			"type": "function"
		},
		{
			"inputs": [
				{
					"internalType": "address",
					"name": "",
					"type": "address"
				}
			],
			"name": "rewardSnapshots",
			"outputs": [
				{
					"internalType": "uint256",
					"name": "ETH",
					"type": "uint256"
				},
				{
					"internalType": "uint256",
					"name": "LUSDDebt",
					"type": "uint256"
				}
			],
			"stateMutability": "view",
			"type": "function"
		},
		{
			"inputs": [
				{
					"internalType": "address",
					"name": "_borrowerOperationsAddress",
					"type": "address"
				},
				{
					"internalType": "address",
					"name": "_activePoolAddress",
					"type": "address"
				},
				{
					"internalType": "address",
					"name": "_defaultPoolAddress",
					"type": "address"
				},
				{
					"internalType": "address",
					"name": "_stabilityPoolAddress",
					"type": "address"
				},
				{
					"internalType": "address",
					"name": "_gasPoolAddress",
					"type": "address"
				},
				{
					"internalType": "address",
					"name": "_collSurplusPoolAddress",
					"type": "address"
				},
				{
					"internalType": "address",
					"name": "_priceFeedAddress",
					"type": "address"
				},
				{
					"internalType": "address",
					"name": "_lusdTokenAddress",
					"type": "address"
				},
				{
					"internalType": "address",
					"name": "_sortedTrovesAddress",
					"type": "address"
				},
				{
					"internalType": "address",
					"name": "_lqtyTokenAddress",
					"type": "address"
				},
				{
					"internalType": "address",
					"name": "_lqtyStakingAddress",
					"type": "address"
				}
			],
			"name": "setAddresses",
			"outputs": [],
			"stateMutability": "nonpayable",
			"type": "function"
		},
		{
			"inputs": [
				{
					"internalType": "address",
					"name": "_admin",
					"type": "address"
				}
			],
			"name": "setAdmin",
			"outputs": [],
			"stateMutability": "nonpayable",
			"type": "function"
		},
		{
			"inputs": [
				{
					"internalType": "address",
					"name": "_priceFeedAddress",
					"type": "address"
				}
			],
			"name": "setPriceFeed",
			"outputs": [],
			"stateMutability": "nonpayable",
			"type": "function"
		},
		{
			"inputs": [
				{
					"internalType": "uint256",
					"name": "_redemptionRewardRate",
					"type": "uint256"
				}
			],
			"name": "setRedemptionReward",
			"outputs": [],
			"stateMutability": "nonpayable",
			"type": "function"
		},
		{
			"inputs": [
				{
					"internalType": "address",
					"name": "_borrower",
					"type": "address"
				},
				{
					"internalType": "uint256",
					"name": "_num",
					"type": "uint256"
				}
			],
			"name": "setTroveStatus",
			"outputs": [],
			"stateMutability": "nonpayable",
			"type": "function"
		},
		{
			"inputs": [],
			"name": "sortedTroves",
			"outputs": [
				{
					"internalType": "contract ISortedTroves",
					"name": "",
					"type": "address"
				}
			],
			"stateMutability": "view",
			"type": "function"
		},
		{
			"inputs": [],
			"name": "stabilityPool",
			"outputs": [
				{
					"internalType": "contract IStabilityPool",
					"name": "",
					"type": "address"
				}
			],
			"stateMutability": "view",
			"type": "function"
		},
		{
			"inputs": [],
			"name": "totalCollateralSnapshot",
			"outputs": [
				{
					"internalType": "uint256",
					"name": "",
					"type": "uint256"
				}
			],
			"stateMutability": "view",
			"type": "function"
		},
		{
			"inputs": [],
			"name": "totalStakes",
			"outputs": [
				{
					"internalType": "uint256",
					"name": "",
					"type": "uint256"
				}
			],
			"stateMutability": "view",
			"type": "function"
		},
		{
			"inputs": [],
			"name": "totalStakesSnapshot",
			"outputs": [
				{
					"internalType": "uint256",
					"name": "",
					"type": "uint256"
				}
			],
			"stateMutability": "view",
			"type": "function"
		},
		{
			"inputs": [
				{
					"internalType": "address",
					"name": "_borrower",
					"type": "address"
				}
			],
			"name": "updateStakeAndTotalStakes",
			"outputs": [
				{
					"internalType": "uint256",
					"name": "",
					"type": "uint256"
				}
			],
			"stateMutability": "nonpayable",
			"type": "function"
		},
		{
			"inputs": [
				{
					"internalType": "address",
					"name": "_borrower",
					"type": "address"
				}
			],
			"name": "updateTroveRewardSnapshots",
			"outputs": [],
			"stateMutability": "nonpayable",
			"type": "function"
		}
	]
}