{
	"data": {
		"bytecode": {
			"linkReferences": {},
			"object": "60a060405234801561001057600080fd5b50600080546001600160a01b0319163390811782556040519091907f8be0079c531659141344cd1fd0a4f28419497f9722a3daafe3b4186f6b6457e0908290a342608052608051610db761006e600039806108d25250610db76000f3fe608060405234801561001057600080fd5b50600436106101125760003560e01c80630b622ab2146101175780630fc83da31461013b5780631f7af3c314610155578063392e53cd1461015d57806346ad34d9146101795780634c42f3fe146101815780634e5c9957146101ac578063614d2ab6146101b457806361ec893d146101e05780636a7923b2146101e85780637c2c0916146101f05780638da5cb5b146101f85780638f32d59b1461020057806390107afe146102085780639623e9ac14610236578063a20baee61461023e578063a3f4df7e14610246578063b140384b146102c3578063e7a7250a146102cb578063eacdaabc146102d3578063ecda10f5146102db578063f7c618c1146102e3575b600080fd5b61011f6102eb565b604080516001600160a01b039092168252519081900360200190f35b6101436102fa565b60408051918252519081900360200190f35b61011f6102ff565b61016561030e565b604080519115158252519081900360200190f35b61014361031c565b6101aa6004803603606081101561019757600080fd5b5080359060208101359060400135610409565b005b61014361060f565b6101aa600480360360408110156101ca57600080fd5b506001600160a01b038135169060200135610614565b6101436106e8565b6101436106ed565b6101436106f3565b61011f6106f9565b610165610708565b6101aa6004803603604081101561021e57600080fd5b506001600160a01b0381358116916020013516610719565b61014361087c565b610143610882565b61024e61088e565b6040805160208082528351818301528351919283929083019185019080838360005b83811015610288578181015183820152602001610270565b50505050905090810190601f1680156102b55780820380516001836020036101000a031916815260200191505b509250505060405180910390f35b6101436108bb565b6101656108c1565b6101436108ca565b6101436108d0565b61011f6108f4565b6003546001600160a01b031681565b600181565b6002546001600160a01b031681565b600954610100900460ff1681565b6000610326610903565b600654429060009082118015610343575060095460ff1615156001145b15610403576000600754831061038e576009805460ff19169055600854600654600754610387929161037b919063ffffffff61094e16565b9063ffffffff61099916565b90506103ac565b6103a960085461037b6006548661094e90919063ffffffff16565b90505b6005546103c090829063ffffffff61094e16565b600582905560048290556040805183815290519193507f033068abf93bdec23e781d0a3b3f3e688bfa8471c68b629ad68652cdc63a6e49919081900360200190a1505b91505090565b610411610708565b610450576040805162461bcd60e51b81526020600482018190526024820152600080516020610cc6833981519152604482015290519081900360640190fd5b600954610100900460ff166104965760405162461bcd60e51b8152600401808060200182810382526026815260200180610d0c6026913960400191505060405180910390fd5b600154604080516370a0823160e01b815230600482015290516000926001600160a01b0316916370a08231916024808301926020929190829003018186803b1580156104e157600080fd5b505afa1580156104f5573d6000803e3d6000fd5b505050506040513d602081101561050b57600080fd5b505190508381101561054e5760405162461bcd60e51b8152600401808060200182810382526031815260200180610c956031913960400191505060405180910390fd5b4283101561058d5760405162461bcd60e51b815260040180806020018281038252603b815260200180610c39603b913960400191505060405180910390fd5b8382106105cb5760405162461bcd60e51b815260040180806020018281038252602d815260200180610d55602d913960400191505060405180910390fd5b60068390556105f26105e3858463ffffffff6109f216565b6006549063ffffffff610a3116565b60075550600855505060006005556009805460ff19166001179055565b600081565b61061c610903565b600954610100900460ff166106625760405162461bcd60e51b8152600401808060200182810382526026815260200180610d0c6026913960400191505060405180910390fd5b6001546040805163a9059cbb60e01b81526001600160a01b038581166004830152602482018590529151919092169163a9059cbb9160448083019260209291908290030181600087803b1580156106b857600080fd5b505af11580156106cc573d6000803e3d6000fd5b505050506040513d60208110156106e257600080fd5b50505050565b603c81565b60065481565b60055481565b6000546001600160a01b031690565b6000546001600160a01b0316331490565b610721610708565b610760576040805162461bcd60e51b81526020600482018190526024820152600080516020610cc6833981519152604482015290519081900360640190fd5b600954610100900460ff16156107a75760405162461bcd60e51b8152600401808060200182810382526026815260200180610ce66026913960400191505060405180910390fd5b6107b082610a89565b6107b981610a89565b600180546001600160a01b038085166001600160a01b031992831681179384905560028054841694831694909417909355600380549185169190921617905560408051918252517fb0c89119a7c10e4c2d02306921ba368ac83d0e4b302337916017485c2791bec59181900360200190a1600354604080516001600160a01b039092168252517f45c53611bc8ba9e11f4f8173bda9e3faf89c395ddb83f9a55230b156828db3159181900360200190a150506009805461ff001916610100179055565b60075481565b670de0b6b3a764000081565b60405180604001604052806011815260200170436f6d6d756e69747949737375616e636560781b81525081565b60045481565b60095460ff1681565b60085481565b7f000000000000000000000000000000000000000000000000000000000000000081565b6001546001600160a01b031681565b6003546001600160a01b0316331461094c5760405162461bcd60e51b8152600401808060200182810382526023815260200180610d326023913960400191505060405180910390fd5b565b600061099083836040518060400160405280601e81526020017f536166654d6174683a207375627472616374696f6e206f766572666c6f770000815250610b3c565b90505b92915050565b6000826109a857506000610993565b828202828482816109b557fe5b04146109905760405162461bcd60e51b8152600401808060200182810382526021815260200180610c746021913960400191505060405180910390fd5b600061099083836040518060400160405280601a815260200179536166654d6174683a206469766973696f6e206279207a65726f60301b815250610bd3565b600082820183811015610990576040805162461bcd60e51b815260206004820152601b60248201527a536166654d6174683a206164646974696f6e206f766572666c6f7760281b604482015290519081900360640190fd5b6001600160a01b038116610ae4576040805162461bcd60e51b815260206004820152601e60248201527f4163636f756e742063616e6e6f74206265207a65726f20616464726573730000604482015290519081900360640190fd5b803b80610b38576040805162461bcd60e51b815260206004820181905260248201527f4163636f756e7420636f64652073697a652063616e6e6f74206265207a65726f604482015290519081900360640190fd5b5050565b60008184841115610bcb5760405162461bcd60e51b81526004018080602001828103825283818151815260200191508051906020019080838360005b83811015610b90578181015183820152602001610b78565b50505050905090810190601f168015610bbd5780820380516001836020036101000a031916815260200191505b509250505060405180910390fd5b505050900390565b60008183610c225760405162461bcd60e51b8152602060048201818152835160248401528351909283926044909101919085019080838360008315610b90578181015183820152602001610b78565b506000838581610c2e57fe5b049594505050505056fe436f6d6d756e69747949737375616e63653a20526577617264732073746172742074696d652063616e6e6f7420626520696e207468652070617374536166654d6174683a206d756c7469706c69636174696f6e206f766572666c6f77436f6d6d756e69747949737375616e63653a20496e73756666696369656e74207265776172647320617661696c61626c654f776e61626c653a2063616c6c6572206973206e6f7420746865206f776e6572436f6d6d756e69747949737375616e63653a20616c726561647920696e697469616c697a6564436f6d6d756e69747949737375616e63653a204e6f742079657420696e697469616c697a6564436f6d6d756e69747949737375616e63653a2063616c6c6572206973206e6f74205350436f6d6d756e69747949737375616e63653a20496e76616c6964207265776172647320706572207365636f6e64a2646970667358221220587219e5fe00353c89a1d823c852ee873074bc3b54e7077799ff7eb20b6d7f5764736f6c634300060b0033",
			"opcodes": "PUSH1 0xA0 PUSH1 0x40 MSTORE CALLVALUE DUP1 ISZERO PUSH2 0x10 JUMPI PUSH1 0x0 DUP1 REVERT JUMPDEST POP PUSH1 0x0 DUP1 SLOAD PUSH1 0x1 PUSH1 0x1 PUSH1 0xA0 SHL SUB NOT AND CALLER SWAP1 DUP2 OR DUP3 SSTORE PUSH1 0x40 MLOAD SWAP1 SWAP2 SWAP1 PUSH32 0x8BE0079C531659141344CD1FD0A4F28419497F9722A3DAAFE3B4186F6B6457E0 SWAP1 DUP3 SWAP1 LOG3 TIMESTAMP PUSH1 0x80 MSTORE PUSH1 0x80 MLOAD PUSH2 0xDB7 PUSH2 0x6E PUSH1 0x0 CODECOPY DUP1 PUSH2 0x8D2 MSTORE POP PUSH2 0xDB7 PUSH1 0x0 RETURN INVALID PUSH1 0x80 PUSH1 0x40 MSTORE CALLVALUE DUP1 ISZERO PUSH2 0x10 JUMPI PUSH1 0x0 DUP1 REVERT JUMPDEST POP PUSH1 0x4 CALLDATASIZE LT PUSH2 0x112 JUMPI PUSH1 0x0 CALLDATALOAD PUSH1 0xE0 SHR DUP1 PUSH4 0xB622AB2 EQ PUSH2 0x117 JUMPI DUP1 PUSH4 0xFC83DA3 EQ PUSH2 0x13B JUMPI DUP1 PUSH4 0x1F7AF3C3 EQ PUSH2 0x155 JUMPI DUP1 PUSH4 0x392E53CD EQ PUSH2 0x15D JUMPI DUP1 PUSH4 0x46AD34D9 EQ PUSH2 0x179 JUMPI DUP1 PUSH4 0x4C42F3FE EQ PUSH2 0x181 JUMPI DUP1 PUSH4 0x4E5C9957 EQ PUSH2 0x1AC JUMPI DUP1 PUSH4 0x614D2AB6 EQ PUSH2 0x1B4 JUMPI DUP1 PUSH4 0x61EC893D EQ PUSH2 0x1E0 JUMPI DUP1 PUSH4 0x6A7923B2 EQ PUSH2 0x1E8 JUMPI DUP1 PUSH4 0x7C2C0916 EQ PUSH2 0x1F0 JUMPI DUP1 PUSH4 0x8DA5CB5B EQ PUSH2 0x1F8 JUMPI DUP1 PUSH4 0x8F32D59B EQ PUSH2 0x200 JUMPI DUP1 PUSH4 0x90107AFE EQ PUSH2 0x208 JUMPI DUP1 PUSH4 0x9623E9AC EQ PUSH2 0x236 JUMPI DUP1 PUSH4 0xA20BAEE6 EQ PUSH2 0x23E JUMPI DUP1 PUSH4 0xA3F4DF7E EQ PUSH2 0x246 JUMPI DUP1 PUSH4 0xB140384B EQ PUSH2 0x2C3 JUMPI DUP1 PUSH4 0xE7A7250A EQ PUSH2 0x2CB JUMPI DUP1 PUSH4 0xEACDAABC EQ PUSH2 0x2D3 JUMPI DUP1 PUSH4 0xECDA10F5 EQ PUSH2 0x2DB JUMPI DUP1 PUSH4 0xF7C618C1 EQ PUSH2 0x2E3 JUMPI JUMPDEST PUSH1 0x0 DUP1 REVERT JUMPDEST PUSH2 0x11F PUSH2 0x2EB JUMP JUMPDEST PUSH1 0x40 DUP1 MLOAD PUSH1 0x1 PUSH1 0x1 PUSH1 0xA0 SHL SUB SWAP1 SWAP3 AND DUP3 MSTORE MLOAD SWAP1 DUP2 SWAP1 SUB PUSH1 0x20 ADD SWAP1 RETURN JUMPDEST PUSH2 0x143 PUSH2 0x2FA JUMP JUMPDEST PUSH1 0x40 DUP1 MLOAD SWAP2 DUP3 MSTORE MLOAD SWAP1 DUP2 SWAP1 SUB PUSH1 0x20 ADD SWAP1 RETURN JUMPDEST PUSH2 0x11F PUSH2 0x2FF JUMP JUMPDEST PUSH2 0x165 PUSH2 0x30E JUMP JUMPDEST PUSH1 0x40 DUP1 MLOAD SWAP2 ISZERO ISZERO DUP3 MSTORE MLOAD SWAP1 DUP2 SWAP1 SUB PUSH1 0x20 ADD SWAP1 RETURN JUMPDEST PUSH2 0x143 PUSH2 0x31C JUMP JUMPDEST PUSH2 0x1AA PUSH1 0x4 DUP1 CALLDATASIZE SUB PUSH1 0x60 DUP2 LT ISZERO PUSH2 0x197 JUMPI PUSH1 0x0 DUP1 REVERT JUMPDEST POP DUP1 CALLDATALOAD SWAP1 PUSH1 0x20 DUP2 ADD CALLDATALOAD SWAP1 PUSH1 0x40 ADD CALLDATALOAD PUSH2 0x409 JUMP JUMPDEST STOP JUMPDEST PUSH2 0x143 PUSH2 0x60F JUMP JUMPDEST PUSH2 0x1AA PUSH1 0x4 DUP1 CALLDATASIZE SUB PUSH1 0x40 DUP2 LT ISZERO PUSH2 0x1CA JUMPI PUSH1 0x0 DUP1 REVERT JUMPDEST POP PUSH1 0x1 PUSH1 0x1 PUSH1 0xA0 SHL SUB DUP2 CALLDATALOAD AND SWAP1 PUSH1 0x20 ADD CALLDATALOAD PUSH2 0x614 JUMP JUMPDEST PUSH2 0x143 PUSH2 0x6E8 JUMP JUMPDEST PUSH2 0x143 PUSH2 0x6ED JUMP JUMPDEST PUSH2 0x143 PUSH2 0x6F3 JUMP JUMPDEST PUSH2 0x11F PUSH2 0x6F9 JUMP JUMPDEST PUSH2 0x165 PUSH2 0x708 JUMP JUMPDEST PUSH2 0x1AA PUSH1 0x4 DUP1 CALLDATASIZE SUB PUSH1 0x40 DUP2 LT ISZERO PUSH2 0x21E JUMPI PUSH1 0x0 DUP1 REVERT JUMPDEST POP PUSH1 0x1 PUSH1 0x1 PUSH1 0xA0 SHL SUB DUP2 CALLDATALOAD DUP2 AND SWAP2 PUSH1 0x20 ADD CALLDATALOAD AND PUSH2 0x719 JUMP JUMPDEST PUSH2 0x143 PUSH2 0x87C JUMP JUMPDEST PUSH2 0x143 PUSH2 0x882 JUMP JUMPDEST PUSH2 0x24E PUSH2 0x88E JUMP JUMPDEST PUSH1 0x40 DUP1 MLOAD PUSH1 0x20 DUP1 DUP3 MSTORE DUP4 MLOAD DUP2 DUP4 ADD MSTORE DUP4 MLOAD SWAP2 SWAP3 DUP4 SWAP3 SWAP1 DUP4 ADD SWAP2 DUP6 ADD SWAP1 DUP1 DUP4 DUP4 PUSH1 0x0 JUMPDEST DUP4 DUP2 LT ISZERO PUSH2 0x288 JUMPI DUP2 DUP2 ADD MLOAD DUP4 DUP3 ADD MSTORE PUSH1 0x20 ADD PUSH2 0x270 JUMP JUMPDEST POP POP POP POP SWAP1 POP SWAP1 DUP2 ADD SWAP1 PUSH1 0x1F AND DUP1 ISZERO PUSH2 0x2B5 JUMPI DUP1 DUP3 SUB DUP1 MLOAD PUSH1 0x1 DUP4 PUSH1 0x20 SUB PUSH2 0x100 EXP SUB NOT AND DUP2 MSTORE PUSH1 0x20 ADD SWAP2 POP JUMPDEST POP SWAP3 POP POP POP PUSH1 0x40 MLOAD DUP1 SWAP2 SUB SWAP1 RETURN JUMPDEST PUSH2 0x143 PUSH2 0x8BB JUMP JUMPDEST PUSH2 0x165 PUSH2 0x8C1 JUMP JUMPDEST PUSH2 0x143 PUSH2 0x8CA JUMP JUMPDEST PUSH2 0x143 PUSH2 0x8D0 JUMP JUMPDEST PUSH2 0x11F PUSH2 0x8F4 JUMP JUMPDEST PUSH1 0x3 SLOAD PUSH1 0x1 PUSH1 0x1 PUSH1 0xA0 SHL SUB AND DUP2 JUMP JUMPDEST PUSH1 0x1 DUP2 JUMP JUMPDEST PUSH1 0x2 SLOAD PUSH1 0x1 PUSH1 0x1 PUSH1 0xA0 SHL SUB AND DUP2 JUMP JUMPDEST PUSH1 0x9 SLOAD PUSH2 0x100 SWAP1 DIV PUSH1 0xFF AND DUP2 JUMP JUMPDEST PUSH1 0x0 PUSH2 0x326 PUSH2 0x903 JUMP JUMPDEST PUSH1 0x6 SLOAD TIMESTAMP SWAP1 PUSH1 0x0 SWAP1 DUP3 GT DUP1 ISZERO PUSH2 0x343 JUMPI POP PUSH1 0x9 SLOAD PUSH1 0xFF AND ISZERO ISZERO PUSH1 0x1 EQ JUMPDEST ISZERO PUSH2 0x403 JUMPI PUSH1 0x0 PUSH1 0x7 SLOAD DUP4 LT PUSH2 0x38E JUMPI PUSH1 0x9 DUP1 SLOAD PUSH1 0xFF NOT AND SWAP1 SSTORE PUSH1 0x8 SLOAD PUSH1 0x6 SLOAD PUSH1 0x7 SLOAD PUSH2 0x387 SWAP3 SWAP2 PUSH2 0x37B SWAP2 SWAP1 PUSH4 0xFFFFFFFF PUSH2 0x94E AND JUMP JUMPDEST SWAP1 PUSH4 0xFFFFFFFF PUSH2 0x999 AND JUMP JUMPDEST SWAP1 POP PUSH2 0x3AC JUMP JUMPDEST PUSH2 0x3A9 PUSH1 0x8 SLOAD PUSH2 0x37B PUSH1 0x6 SLOAD DUP7 PUSH2 0x94E SWAP1 SWAP2 SWAP1 PUSH4 0xFFFFFFFF AND JUMP JUMPDEST SWAP1 POP JUMPDEST PUSH1 0x5 SLOAD PUSH2 0x3C0 SWAP1 DUP3 SWAP1 PUSH4 0xFFFFFFFF PUSH2 0x94E AND JUMP JUMPDEST PUSH1 0x5 DUP3 SWAP1 SSTORE PUSH1 0x4 DUP3 SWAP1 SSTORE PUSH1 0x40 DUP1 MLOAD DUP4 DUP2 MSTORE SWAP1 MLOAD SWAP2 SWAP4 POP PUSH32 0x33068ABF93BDEC23E781D0A3B3F3E688BFA8471C68B629AD68652CDC63A6E49 SWAP2 SWAP1 DUP2 SWAP1 SUB PUSH1 0x20 ADD SWAP1 LOG1 POP JUMPDEST SWAP2 POP POP SWAP1 JUMP JUMPDEST PUSH2 0x411 PUSH2 0x708 JUMP JUMPDEST PUSH2 0x450 JUMPI PUSH1 0x40 DUP1 MLOAD PUSH3 0x461BCD PUSH1 0xE5 SHL DUP2 MSTORE PUSH1 0x20 PUSH1 0x4 DUP3 ADD DUP2 SWAP1 MSTORE PUSH1 0x24 DUP3 ADD MSTORE PUSH1 0x0 DUP1 MLOAD PUSH1 0x20 PUSH2 0xCC6 DUP4 CODECOPY DUP2 MLOAD SWAP2 MSTORE PUSH1 0x44 DUP3 ADD MSTORE SWAP1 MLOAD SWAP1 DUP2 SWAP1 SUB PUSH1 0x64 ADD SWAP1 REVERT JUMPDEST PUSH1 0x9 SLOAD PUSH2 0x100 SWAP1 DIV PUSH1 0xFF AND PUSH2 0x496 JUMPI PUSH1 0x40 MLOAD PUSH3 0x461BCD PUSH1 0xE5 SHL DUP2 MSTORE PUSH1 0x4 ADD DUP1 DUP1 PUSH1 0x20 ADD DUP3 DUP2 SUB DUP3 MSTORE PUSH1 0x26 DUP2 MSTORE PUSH1 0x20 ADD DUP1 PUSH2 0xD0C PUSH1 0x26 SWAP2 CODECOPY PUSH1 0x40 ADD SWAP2 POP POP PUSH1 0x40 MLOAD DUP1 SWAP2 SUB SWAP1 REVERT JUMPDEST PUSH1 0x1 SLOAD PUSH1 0x40 DUP1 MLOAD PUSH4 0x70A08231 PUSH1 0xE0 SHL DUP2 MSTORE ADDRESS PUSH1 0x4 DUP3 ADD MSTORE SWAP1 MLOAD PUSH1 0x0 SWAP3 PUSH1 0x1 PUSH1 0x1 PUSH1 0xA0 SHL SUB AND SWAP2 PUSH4 0x70A08231 SWAP2 PUSH1 0x24 DUP1 DUP4 ADD SWAP3 PUSH1 0x20 SWAP3 SWAP2 SWAP1 DUP3 SWAP1 SUB ADD DUP2 DUP7 DUP1 EXTCODESIZE ISZERO DUP1 ISZERO PUSH2 0x4E1 JUMPI PUSH1 0x0 DUP1 REVERT JUMPDEST POP GAS STATICCALL ISZERO DUP1 ISZERO PUSH2 0x4F5 JUMPI RETURNDATASIZE PUSH1 0x0 DUP1 RETURNDATACOPY RETURNDATASIZE PUSH1 0x0 REVERT JUMPDEST POP POP POP POP PUSH1 0x40 MLOAD RETURNDATASIZE PUSH1 0x20 DUP2 LT ISZERO PUSH2 0x50B JUMPI PUSH1 0x0 DUP1 REVERT JUMPDEST POP MLOAD SWAP1 POP DUP4 DUP2 LT ISZERO PUSH2 0x54E JUMPI PUSH1 0x40 MLOAD PUSH3 0x461BCD PUSH1 0xE5 SHL DUP2 MSTORE PUSH1 0x4 ADD DUP1 DUP1 PUSH1 0x20 ADD DUP3 DUP2 SUB DUP3 MSTORE PUSH1 0x31 DUP2 MSTORE PUSH1 0x20 ADD DUP1 PUSH2 0xC95 PUSH1 0x31 SWAP2 CODECOPY PUSH1 0x40 ADD SWAP2 POP POP PUSH1 0x40 MLOAD DUP1 SWAP2 SUB SWAP1 REVERT JUMPDEST TIMESTAMP DUP4 LT ISZERO PUSH2 0x58D JUMPI PUSH1 0x40 MLOAD PUSH3 0x461BCD PUSH1 0xE5 SHL DUP2 MSTORE PUSH1 0x4 ADD DUP1 DUP1 PUSH1 0x20 ADD DUP3 DUP2 SUB DUP3 MSTORE PUSH1 0x3B DUP2 MSTORE PUSH1 0x20 ADD DUP1 PUSH2 0xC39 PUSH1 0x3B SWAP2 CODECOPY PUSH1 0x40 ADD SWAP2 POP POP PUSH1 0x40 MLOAD DUP1 SWAP2 SUB SWAP1 REVERT JUMPDEST DUP4 DUP3 LT PUSH2 0x5CB JUMPI PUSH1 0x40 MLOAD PUSH3 0x461BCD PUSH1 0xE5 SHL DUP2 MSTORE PUSH1 0x4 ADD DUP1 DUP1 PUSH1 0x20 ADD DUP3 DUP2 SUB DUP3 MSTORE PUSH1 0x2D DUP2 MSTORE PUSH1 0x20 ADD DUP1 PUSH2 0xD55 PUSH1 0x2D SWAP2 CODECOPY PUSH1 0x40 ADD SWAP2 POP POP PUSH1 0x40 MLOAD DUP1 SWAP2 SUB SWAP1 REVERT JUMPDEST PUSH1 0x6 DUP4 SWAP1 SSTORE PUSH2 0x5F2 PUSH2 0x5E3 DUP6 DUP5 PUSH4 0xFFFFFFFF PUSH2 0x9F2 AND JUMP JUMPDEST PUSH1 0x6 SLOAD SWAP1 PUSH4 0xFFFFFFFF PUSH2 0xA31 AND JUMP JUMPDEST PUSH1 0x7 SSTORE POP PUSH1 0x8 SSTORE POP POP PUSH1 0x0 PUSH1 0x5 SSTORE PUSH1 0x9 DUP1 SLOAD PUSH1 0xFF NOT AND PUSH1 0x1 OR SWAP1 SSTORE JUMP JUMPDEST PUSH1 0x0 DUP2 JUMP JUMPDEST PUSH2 0x61C PUSH2 0x903 JUMP JUMPDEST PUSH1 0x9 SLOAD PUSH2 0x100 SWAP1 DIV PUSH1 0xFF AND PUSH2 0x662 JUMPI PUSH1 0x40 MLOAD PUSH3 0x461BCD PUSH1 0xE5 SHL DUP2 MSTORE PUSH1 0x4 ADD DUP1 DUP1 PUSH1 0x20 ADD DUP3 DUP2 SUB DUP3 MSTORE PUSH1 0x26 DUP2 MSTORE PUSH1 0x20 ADD DUP1 PUSH2 0xD0C PUSH1 0x26 SWAP2 CODECOPY PUSH1 0x40 ADD SWAP2 POP POP PUSH1 0x40 MLOAD DUP1 SWAP2 SUB SWAP1 REVERT JUMPDEST PUSH1 0x1 SLOAD PUSH1 0x40 DUP1 MLOAD PUSH4 0xA9059CBB PUSH1 0xE0 SHL DUP2 MSTORE PUSH1 0x1 PUSH1 0x1 PUSH1 0xA0 SHL SUB DUP6 DUP2 AND PUSH1 0x4 DUP4 ADD MSTORE PUSH1 0x24 DUP3 ADD DUP6 SWAP1 MSTORE SWAP2 MLOAD SWAP2 SWAP1 SWAP3 AND SWAP2 PUSH4 0xA9059CBB SWAP2 PUSH1 0x44 DUP1 DUP4 ADD SWAP3 PUSH1 0x20 SWAP3 SWAP2 SWAP1 DUP3 SWAP1 SUB ADD DUP2 PUSH1 0x0 DUP8 DUP1 EXTCODESIZE ISZERO DUP1 ISZERO PUSH2 0x6B8 JUMPI PUSH1 0x0 DUP1 REVERT JUMPDEST POP GAS CALL ISZERO DUP1 ISZERO PUSH2 0x6CC JUMPI RETURNDATASIZE PUSH1 0x0 DUP1 RETURNDATACOPY RETURNDATASIZE PUSH1 0x0 REVERT JUMPDEST POP POP POP POP PUSH1 0x40 MLOAD RETURNDATASIZE PUSH1 0x20 DUP2 LT ISZERO PUSH2 0x6E2 JUMPI PUSH1 0x0 DUP1 REVERT JUMPDEST POP POP POP POP JUMP JUMPDEST PUSH1 0x3C DUP2 JUMP JUMPDEST PUSH1 0x6 SLOAD DUP2 JUMP JUMPDEST PUSH1 0x5 SLOAD DUP2 JUMP JUMPDEST PUSH1 0x0 SLOAD PUSH1 0x1 PUSH1 0x1 PUSH1 0xA0 SHL SUB AND SWAP1 JUMP JUMPDEST PUSH1 0x0 SLOAD PUSH1 0x1 PUSH1 0x1 PUSH1 0xA0 SHL SUB AND CALLER EQ SWAP1 JUMP JUMPDEST PUSH2 0x721 PUSH2 0x708 JUMP JUMPDEST PUSH2 0x760 JUMPI PUSH1 0x40 DUP1 MLOAD PUSH3 0x461BCD PUSH1 0xE5 SHL DUP2 MSTORE PUSH1 0x20 PUSH1 0x4 DUP3 ADD DUP2 SWAP1 MSTORE PUSH1 0x24 DUP3 ADD MSTORE PUSH1 0x0 DUP1 MLOAD PUSH1 0x20 PUSH2 0xCC6 DUP4 CODECOPY DUP2 MLOAD SWAP2 MSTORE PUSH1 0x44 DUP3 ADD MSTORE SWAP1 MLOAD SWAP1 DUP2 SWAP1 SUB PUSH1 0x64 ADD SWAP1 REVERT JUMPDEST PUSH1 0x9 SLOAD PUSH2 0x100 SWAP1 DIV PUSH1 0xFF AND ISZERO PUSH2 0x7A7 JUMPI PUSH1 0x40 MLOAD PUSH3 0x461BCD PUSH1 0xE5 SHL DUP2 MSTORE PUSH1 0x4 ADD DUP1 DUP1 PUSH1 0x20 ADD DUP3 DUP2 SUB DUP3 MSTORE PUSH1 0x26 DUP2 MSTORE PUSH1 0x20 ADD DUP1 PUSH2 0xCE6 PUSH1 0x26 SWAP2 CODECOPY PUSH1 0x40 ADD SWAP2 POP POP PUSH1 0x40 MLOAD DUP1 SWAP2 SUB SWAP1 REVERT JUMPDEST PUSH2 0x7B0 DUP3 PUSH2 0xA89 JUMP JUMPDEST PUSH2 0x7B9 DUP2 PUSH2 0xA89 JUMP JUMPDEST PUSH1 0x1 DUP1 SLOAD PUSH1 0x1 PUSH1 0x1 PUSH1 0xA0 SHL SUB DUP1 DUP6 AND PUSH1 0x1 PUSH1 0x1 PUSH1 0xA0 SHL SUB NOT SWAP3 DUP4 AND DUP2 OR SWAP4 DUP5 SWAP1 SSTORE PUSH1 0x2 DUP1 SLOAD DUP5 AND SWAP5 DUP4 AND SWAP5 SWAP1 SWAP5 OR SWAP1 SWAP4 SSTORE PUSH1 0x3 DUP1 SLOAD SWAP2 DUP6 AND SWAP2 SWAP1 SWAP3 AND OR SWAP1 SSTORE PUSH1 0x40 DUP1 MLOAD SWAP2 DUP3 MSTORE MLOAD PUSH32 0xB0C89119A7C10E4C2D02306921BA368AC83D0E4B302337916017485C2791BEC5 SWAP2 DUP2 SWAP1 SUB PUSH1 0x20 ADD SWAP1 LOG1 PUSH1 0x3 SLOAD PUSH1 0x40 DUP1 MLOAD PUSH1 0x1 PUSH1 0x1 PUSH1 0xA0 SHL SUB SWAP1 SWAP3 AND DUP3 MSTORE MLOAD PUSH32 0x45C53611BC8BA9E11F4F8173BDA9E3FAF89C395DDB83F9A55230B156828DB315 SWAP2 DUP2 SWAP1 SUB PUSH1 0x20 ADD SWAP1 LOG1 POP POP PUSH1 0x9 DUP1 SLOAD PUSH2 0xFF00 NOT AND PUSH2 0x100 OR SWAP1 SSTORE JUMP JUMPDEST PUSH1 0x7 SLOAD DUP2 JUMP JUMPDEST PUSH8 0xDE0B6B3A7640000 DUP2 JUMP JUMPDEST PUSH1 0x40 MLOAD DUP1 PUSH1 0x40 ADD PUSH1 0x40 MSTORE DUP1 PUSH1 0x11 DUP2 MSTORE PUSH1 0x20 ADD PUSH17 0x436F6D6D756E69747949737375616E6365 PUSH1 0x78 SHL DUP2 MSTORE POP DUP2 JUMP JUMPDEST PUSH1 0x4 SLOAD DUP2 JUMP JUMPDEST PUSH1 0x9 SLOAD PUSH1 0xFF AND DUP2 JUMP JUMPDEST PUSH1 0x8 SLOAD DUP2 JUMP JUMPDEST PUSH32 0x0 DUP2 JUMP JUMPDEST PUSH1 0x1 SLOAD PUSH1 0x1 PUSH1 0x1 PUSH1 0xA0 SHL SUB AND DUP2 JUMP JUMPDEST PUSH1 0x3 SLOAD PUSH1 0x1 PUSH1 0x1 PUSH1 0xA0 SHL SUB AND CALLER EQ PUSH2 0x94C JUMPI PUSH1 0x40 MLOAD PUSH3 0x461BCD PUSH1 0xE5 SHL DUP2 MSTORE PUSH1 0x4 ADD DUP1 DUP1 PUSH1 0x20 ADD DUP3 DUP2 SUB DUP3 MSTORE PUSH1 0x23 DUP2 MSTORE PUSH1 0x20 ADD DUP1 PUSH2 0xD32 PUSH1 0x23 SWAP2 CODECOPY PUSH1 0x40 ADD SWAP2 POP POP PUSH1 0x40 MLOAD DUP1 SWAP2 SUB SWAP1 REVERT JUMPDEST JUMP JUMPDEST PUSH1 0x0 PUSH2 0x990 DUP4 DUP4 PUSH1 0x40 MLOAD DUP1 PUSH1 0x40 ADD PUSH1 0x40 MSTORE DUP1 PUSH1 0x1E DUP2 MSTORE PUSH1 0x20 ADD PUSH32 0x536166654D6174683A207375627472616374696F6E206F766572666C6F770000 DUP2 MSTORE POP PUSH2 0xB3C JUMP JUMPDEST SWAP1 POP JUMPDEST SWAP3 SWAP2 POP POP JUMP JUMPDEST PUSH1 0x0 DUP3 PUSH2 0x9A8 JUMPI POP PUSH1 0x0 PUSH2 0x993 JUMP JUMPDEST DUP3 DUP3 MUL DUP3 DUP5 DUP3 DUP2 PUSH2 0x9B5 JUMPI INVALID JUMPDEST DIV EQ PUSH2 0x990 JUMPI PUSH1 0x40 MLOAD PUSH3 0x461BCD PUSH1 0xE5 SHL DUP2 MSTORE PUSH1 0x4 ADD DUP1 DUP1 PUSH1 0x20 ADD DUP3 DUP2 SUB DUP3 MSTORE PUSH1 0x21 DUP2 MSTORE PUSH1 0x20 ADD DUP1 PUSH2 0xC74 PUSH1 0x21 SWAP2 CODECOPY PUSH1 0x40 ADD SWAP2 POP POP PUSH1 0x40 MLOAD DUP1 SWAP2 SUB SWAP1 REVERT JUMPDEST PUSH1 0x0 PUSH2 0x990 DUP4 DUP4 PUSH1 0x40 MLOAD DUP1 PUSH1 0x40 ADD PUSH1 0x40 MSTORE DUP1 PUSH1 0x1A DUP2 MSTORE PUSH1 0x20 ADD PUSH26 0x536166654D6174683A206469766973696F6E206279207A65726F PUSH1 0x30 SHL DUP2 MSTORE POP PUSH2 0xBD3 JUMP JUMPDEST PUSH1 0x0 DUP3 DUP3 ADD DUP4 DUP2 LT ISZERO PUSH2 0x990 JUMPI PUSH1 0x40 DUP1 MLOAD PUSH3 0x461BCD PUSH1 0xE5 SHL DUP2 MSTORE PUSH1 0x20 PUSH1 0x4 DUP3 ADD MSTORE PUSH1 0x1B PUSH1 0x24 DUP3 ADD MSTORE PUSH27 0x536166654D6174683A206164646974696F6E206F766572666C6F77 PUSH1 0x28 SHL PUSH1 0x44 DUP3 ADD MSTORE SWAP1 MLOAD SWAP1 DUP2 SWAP1 SUB PUSH1 0x64 ADD SWAP1 REVERT JUMPDEST PUSH1 0x1 PUSH1 0x1 PUSH1 0xA0 SHL SUB DUP2 AND PUSH2 0xAE4 JUMPI PUSH1 0x40 DUP1 MLOAD PUSH3 0x461BCD PUSH1 0xE5 SHL DUP2 MSTORE PUSH1 0x20 PUSH1 0x4 DUP3 ADD MSTORE PUSH1 0x1E PUSH1 0x24 DUP3 ADD MSTORE PUSH32 0x4163636F756E742063616E6E6F74206265207A65726F20616464726573730000 PUSH1 0x44 DUP3 ADD MSTORE SWAP1 MLOAD SWAP1 DUP2 SWAP1 SUB PUSH1 0x64 ADD SWAP1 REVERT JUMPDEST DUP1 EXTCODESIZE DUP1 PUSH2 0xB38 JUMPI PUSH1 0x40 DUP1 MLOAD PUSH3 0x461BCD PUSH1 0xE5 SHL DUP2 MSTORE PUSH1 0x20 PUSH1 0x4 DUP3 ADD DUP2 SWAP1 MSTORE PUSH1 0x24 DUP3 ADD MSTORE PUSH32 0x4163636F756E7420636F64652073697A652063616E6E6F74206265207A65726F PUSH1 0x44 DUP3 ADD MSTORE SWAP1 MLOAD SWAP1 DUP2 SWAP1 SUB PUSH1 0x64 ADD SWAP1 REVERT JUMPDEST POP POP JUMP JUMPDEST PUSH1 0x0 DUP2 DUP5 DUP5 GT ISZERO PUSH2 0xBCB JUMPI PUSH1 0x40 MLOAD PUSH3 0x461BCD PUSH1 0xE5 SHL DUP2 MSTORE PUSH1 0x4 ADD DUP1 DUP1 PUSH1 0x20 ADD DUP3 DUP2 SUB DUP3 MSTORE DUP4 DUP2 DUP2 MLOAD DUP2 MSTORE PUSH1 0x20 ADD SWAP2 POP DUP1 MLOAD SWAP1 PUSH1 0x20 ADD SWAP1 DUP1 DUP4 DUP4 PUSH1 0x0 JUMPDEST DUP4 DUP2 LT ISZERO PUSH2 0xB90 JUMPI DUP2 DUP2 ADD MLOAD DUP4 DUP3 ADD MSTORE PUSH1 0x20 ADD PUSH2 0xB78 JUMP JUMPDEST POP POP POP POP SWAP1 POP SWAP1 DUP2 ADD SWAP1 PUSH1 0x1F AND DUP1 ISZERO PUSH2 0xBBD JUMPI DUP1 DUP3 SUB DUP1 MLOAD PUSH1 0x1 DUP4 PUSH1 0x20 SUB PUSH2 0x100 EXP SUB NOT AND DUP2 MSTORE PUSH1 0x20 ADD SWAP2 POP JUMPDEST POP SWAP3 POP POP POP PUSH1 0x40 MLOAD DUP1 SWAP2 SUB SWAP1 REVERT JUMPDEST POP POP POP SWAP1 SUB SWAP1 JUMP JUMPDEST PUSH1 0x0 DUP2 DUP4 PUSH2 0xC22 JUMPI PUSH1 0x40 MLOAD PUSH3 0x461BCD PUSH1 0xE5 SHL DUP2 MSTORE PUSH1 0x20 PUSH1 0x4 DUP3 ADD DUP2 DUP2 MSTORE DUP4 MLOAD PUSH1 0x24 DUP5 ADD MSTORE DUP4 MLOAD SWAP1 SWAP3 DUP4 SWAP3 PUSH1 0x44 SWAP1 SWAP2 ADD SWAP2 SWAP1 DUP6 ADD SWAP1 DUP1 DUP4 DUP4 PUSH1 0x0 DUP4 ISZERO PUSH2 0xB90 JUMPI DUP2 DUP2 ADD MLOAD DUP4 DUP3 ADD MSTORE PUSH1 0x20 ADD PUSH2 0xB78 JUMP JUMPDEST POP PUSH1 0x0 DUP4 DUP6 DUP2 PUSH2 0xC2E JUMPI INVALID JUMPDEST DIV SWAP6 SWAP5 POP POP POP POP POP JUMP INVALID NUMBER PUSH16 0x6D6D756E69747949737375616E63653A KECCAK256 MSTORE PUSH6 0x776172647320 PUSH20 0x746172742074696D652063616E6E6F7420626520 PUSH10 0x6E207468652070617374 MSTORE8 PUSH2 0x6665 0x4D PUSH2 0x7468 GASPRICE KECCAK256 PUSH14 0x756C7469706C69636174696F6E20 PUSH16 0x766572666C6F77436F6D6D756E697479 0x49 PUSH20 0x7375616E63653A20496E73756666696369656E74 KECCAK256 PUSH19 0x65776172647320617661696C61626C654F776E PUSH2 0x626C PUSH6 0x3A2063616C6C PUSH6 0x72206973206E PUSH16 0x7420746865206F776E6572436F6D6D75 PUSH15 0x69747949737375616E63653A20616C PUSH19 0x6561647920696E697469616C697A6564436F6D PUSH14 0x756E69747949737375616E63653A KECCAK256 0x4E PUSH16 0x742079657420696E697469616C697A65 PUSH5 0x436F6D6D75 PUSH15 0x69747949737375616E63653A206361 PUSH13 0x6C6572206973206E6F74205350 NUMBER PUSH16 0x6D6D756E69747949737375616E63653A KECCAK256 0x49 PUSH15 0x76616C696420726577617264732070 PUSH6 0x72207365636F PUSH15 0x64A2646970667358221220587219E5 INVALID STOP CALLDATALOAD EXTCODECOPY DUP10 LOG1 0xD8 0x23 0xC8 MSTORE 0xEE DUP8 ADDRESS PUSH21 0xBC3B54E7077799FF7EB20B6D7F5764736F6C634300 MOD SIGNEXTEND STOP CALLER "
		},
		"gasEstimates": {
			"creation": {
				"codeDepositCost": "702200",
				"executionCost": "infinite",
				"totalCost": "infinite"
			},
			"external": {
				"DECIMAL_PRECISION()": "506",
				"ISSUANCE_FACTOR()": "198",
				"LQTYSupplyCap()": "308",
				"NAME()": "infinite",
				"SECONDS_IN_ONE_MINUTE()": "352",
				"deploymentTime()": "infinite",
				"isInitialized()": "1065",
				"isOwner()": "1269",
				"issueLQTY()": "infinite",
				"lqtyToken()": "1059",
				"owner()": "1257",
				"rewardToken()": "1477",
				"rewardsAvailable()": "1384",
				"rewardsEndTime()": "1284",
				"rewardsPerSecond()": "1394",
				"rewardsStartTime()": "1174",
				"sendLQTY(address,uint256)": "infinite",
				"setAddresses(address,address)": "infinite",
				"setRewardsToken(uint256,uint256,uint256)": "infinite",
				"stabilityPoolAddress()": "1015",
				"totalLQTYIssued()": "1350",
				"totalRewardsIssued()": "1196"
			},
			"internal": {
				"_requireCallerIsStabilityPool()": "infinite"
			}
		},
		"methodIdentifiers": {
			"DECIMAL_PRECISION()": "a20baee6",
			"ISSUANCE_FACTOR()": "0fc83da3",
			"LQTYSupplyCap()": "4e5c9957",
			"NAME()": "a3f4df7e",
			"SECONDS_IN_ONE_MINUTE()": "61ec893d",
			"deploymentTime()": "ecda10f5",
			"isInitialized()": "392e53cd",
			"isOwner()": "8f32d59b",
			"issueLQTY()": "46ad34d9",
			"lqtyToken()": "1f7af3c3",
			"owner()": "8da5cb5b",
			"rewardToken()": "f7c618c1",
			"rewardsAvailable()": "e7a7250a",
			"rewardsEndTime()": "9623e9ac",
			"rewardsPerSecond()": "eacdaabc",
			"rewardsStartTime()": "6a7923b2",
			"sendLQTY(address,uint256)": "614d2ab6",
			"setAddresses(address,address)": "90107afe",
			"setRewardsToken(uint256,uint256,uint256)": "4c42f3fe",
			"stabilityPoolAddress()": "0b622ab2",
			"totalLQTYIssued()": "b140384b",
			"totalRewardsIssued()": "7c2c0916"
		}
	},
	"abi": [
		{
			"inputs": [],
			"stateMutability": "nonpayable",
			"type": "constructor"
		},
		{
			"anonymous": false,
			"inputs": [
				{
					"indexed": false,
					"internalType": "address",
					"name": "_rewardsTokenAddress",
					"type": "address"
				}
			],
			"name": "LQTYTokenAddressSet",
			"type": "event"
		},
		{
			"anonymous": false,
			"inputs": [
				{
					"indexed": true,
					"internalType": "address",
					"name": "previousOwner",
					"type": "address"
				},
				{
					"indexed": true,
					"internalType": "address",
					"name": "newOwner",
					"type": "address"
				}
			],
			"name": "OwnershipTransferred",
			"type": "event"
		},
		{
			"anonymous": false,
			"inputs": [
				{
					"indexed": false,
					"internalType": "address",
					"name": "_stabilityPoolAddress",
					"type": "address"
				}
			],
			"name": "StabilityPoolAddressSet",
			"type": "event"
		},
		{
			"anonymous": false,
			"inputs": [
				{
					"indexed": false,
					"internalType": "uint256",
					"name": "_totalRewardsIssued",
					"type": "uint256"
				}
			],
			"name": "TotalLQTYIssuedUpdated",
			"type": "event"
		},
		{
			"inputs": [],
			"name": "DECIMAL_PRECISION",
			"outputs": [
				{
					"internalType": "uint256",
					"name": "",
					"type": "uint256"
				}
			],
			"stateMutability": "view",
			"type": "function"
		},
		{
			"inputs": [],
			"name": "ISSUANCE_FACTOR",
			"outputs": [
				{
					"internalType": "uint256",
					"name": "",
					"type": "uint256"
				}
			],
			"stateMutability": "view",
			"type": "function"
		},
		{
			"inputs": [],
			"name": "LQTYSupplyCap",
			"outputs": [
				{
					"internalType": "uint256",
					"name": "",
					"type": "uint256"
				}
			],
			"stateMutability": "view",
			"type": "function"
		},
		{
			"inputs": [],
			"name": "NAME",
			"outputs": [
				{
					"internalType": "string",
					"name": "",
					"type": "string"
				}
			],
			"stateMutability": "view",
			"type": "function"
		},
		{
			"inputs": [],
			"name": "SECONDS_IN_ONE_MINUTE",
			"outputs": [
				{
					"internalType": "uint256",
					"name": "",
					"type": "uint256"
				}
			],
			"stateMutability": "view",
			"type": "function"
		},
		{
			"inputs": [],
			"name": "deploymentTime",
			"outputs": [
				{
					"internalType": "uint256",
					"name": "",
					"type": "uint256"
				}
			],
			"stateMutability": "view",
			"type": "function"
		},
		{
			"inputs": [],
			"name": "isInitialized",
			"outputs": [
				{
					"internalType": "bool",
					"name": "",
					"type": "bool"
				}
			],
			"stateMutability": "view",
			"type": "function"
		},
		{
			"inputs": [],
			"name": "isOwner",
			"outputs": [
				{
					"internalType": "bool",
					"name": "",
					"type": "bool"
				}
			],
			"stateMutability": "view",
			"type": "function"
		},
		{
			"inputs": [],
			"name": "issueLQTY",
			"outputs": [
				{
					"internalType": "uint256",
					"name": "",
					"type": "uint256"
				}
			],
			"stateMutability": "nonpayable",
			"type": "function"
		},
		{
			"inputs": [],
			"name": "lqtyToken",
			"outputs": [
				{
					"internalType": "contract IERC20",
					"name": "",
					"type": "address"
				}
			],
			"stateMutability": "view",
			"type": "function"
		},
		{
			"inputs": [],
			"name": "owner",
			"outputs": [
				{
					"internalType": "address",
					"name": "",
					"type": "address"
				}
			],
			"stateMutability": "view",
			"type": "function"
		},
		{
			"inputs": [],
			"name": "rewardToken",
			"outputs": [
				{
					"internalType": "contract IERC20",
					"name": "",
					"type": "address"
				}
			],
			"stateMutability": "view",
			"type": "function"
		},
		{
			"inputs": [],
			"name": "rewardsAvailable",
			"outputs": [
				{
					"internalType": "bool",
					"name": "",
					"type": "bool"
				}
			],
			"stateMutability": "view",
			"type": "function"
		},
		{
			"inputs": [],
			"name": "rewardsEndTime",
			"outputs": [
				{
					"internalType": "uint256",
					"name": "",
					"type": "uint256"
				}
			],
			"stateMutability": "view",
			"type": "function"
		},
		{
			"inputs": [],
			"name": "rewardsPerSecond",
			"outputs": [
				{
					"internalType": "uint256",
					"name": "",
					"type": "uint256"
				}
			],
			"stateMutability": "view",
			"type": "function"
		},
		{
			"inputs": [],
			"name": "rewardsStartTime",
			"outputs": [
				{
					"internalType": "uint256",
					"name": "",
					"type": "uint256"
				}
			],
			"stateMutability": "view",
			"type": "function"
		},
		{
			"inputs": [
				{
					"internalType": "address",
					"name": "_account",
					"type": "address"
				},
				{
					"internalType": "uint256",
					"name": "_amount",
					"type": "uint256"
				}
			],
			"name": "sendLQTY",
			"outputs": [],
			"stateMutability": "nonpayable",
			"type": "function"
		},
		{
			"inputs": [
				{
					"internalType": "address",
					"name": "_rewardsTokenAddress",
					"type": "address"
				},
				{
					"internalType": "address",
					"name": "_stabilityPoolAddress",
					"type": "address"
				}
			],
			"name": "setAddresses",
			"outputs": [],
			"stateMutability": "nonpayable",
			"type": "function"
		},
		{
			"inputs": [
				{
					"internalType": "uint256",
					"name": "_amount",
					"type": "uint256"
				},
				{
					"internalType": "uint256",
					"name": "_startTime",
					"type": "uint256"
				},
				{
					"internalType": "uint256",
					"name": "_rewardsPerSecond",
					"type": "uint256"
				}
			],
			"name": "setRewardsToken",
			"outputs": [],
			"stateMutability": "nonpayable",
			"type": "function"
		},
		{
			"inputs": [],
			"name": "stabilityPoolAddress",
			"outputs": [
				{
					"internalType": "address",
					"name": "",
					"type": "address"
				}
			],
			"stateMutability": "view",
			"type": "function"
		},
		{
			"inputs": [],
			"name": "totalLQTYIssued",
			"outputs": [
				{
					"internalType": "uint256",
					"name": "",
					"type": "uint256"
				}
			],
			"stateMutability": "view",
			"type": "function"
		},
		{
			"inputs": [],
			"name": "totalRewardsIssued",
			"outputs": [
				{
					"internalType": "uint256",
					"name": "",
					"type": "uint256"
				}
			],
			"stateMutability": "view",
			"type": "function"
		}
	]
}