{
	"data": {
		"bytecode": {
			"linkReferences": {},
			"object": "60a060405234801561001057600080fd5b50600080546001600160a01b0319163390811782556040519091907f8be0079c531659141344cd1fd0a4f28419497f9722a3daafe3b4186f6b6457e0908290a342608052608051610d8761006f60003960006102c40152610d876000f3fe608060405234801561001057600080fd5b50600436106101425760003560e01c80638da5cb5b116100b8578063a3f4df7e1161007c578063a3f4df7e14610263578063b140384b146102a0578063e7a7250a146102a9578063eacdaabc146102b6578063ecda10f5146102bf578063f7c618c1146102e657600080fd5b80638da5cb5b146102145780638f32d59b1461022557806390107afe146102385780639623e9ac1461024b578063a20baee61461025457600080fd5b80634c42f3fe1161010a5780634c42f3fe146101ca5780634e5c9957146101df578063614d2ab6146101e757806361ec893d146101fa5780636a7923b2146102025780637c2c09161461020b57600080fd5b80630b622ab2146101475780630fc83da3146101775780631f7af3c31461018d578063392e53cd146101a057806346ad34d9146101c2575b600080fd5b60035461015a906001600160a01b031681565b6040516001600160a01b0390911681526020015b60405180910390f35b61017f600181565b60405190815260200161016e565b60025461015a906001600160a01b031681565b6009546101b290610100900460ff1681565b604051901515815260200161016e565b61017f6102f9565b6101dd6101d8366004610b68565b6103d5565b005b61017f600081565b6101dd6101f5366004610bb0565b610647565b61017f603c81565b61017f60065481565b61017f60055481565b6000546001600160a01b031661015a565b6000546001600160a01b031633146101b2565b6101dd610246366004610bda565b6106f2565b61017f60075481565b61017f670de0b6b3a764000081565b61029360405180604001604052806011815260200170436f6d6d756e69747949737375616e636560781b81525081565b60405161016e9190610c0d565b61017f60045481565b6009546101b29060ff1681565b61017f60085481565b61017f7f000000000000000000000000000000000000000000000000000000000000000081565b60015461015a906001600160a01b031681565b6000610303610883565b6000429050600081600654108015610322575060095460ff1615156001145b156103cf5760006007548310610361576009805460ff1916905560085460065460075461035a929161035491906108eb565b90610934565b905061037f565b61037c600854610354600654866108eb90919063ffffffff16565b90505b60055461038d9082906108eb565b600582905560048290556040518281529092507f033068abf93bdec23e781d0a3b3f3e688bfa8471c68b629ad68652cdc63a6e499060200160405180910390a1505b92915050565b6000546001600160a01b031633146104345760405162461bcd60e51b815260206004820181905260248201527f4f776e61626c653a2063616c6c6572206973206e6f7420746865206f776e657260448201526064015b60405180910390fd5b600954610100900460ff1661045b5760405162461bcd60e51b815260040161042b90610c5b565b6001546040516370a0823160e01b81523060048201526000916001600160a01b0316906370a0823190602401602060405180830381865afa1580156104a4573d6000803e3d6000fd5b505050506040513d601f19601f820116820180604052508101906104c89190610ca1565b9050838110156105345760405162461bcd60e51b815260206004820152603160248201527f436f6d6d756e69747949737375616e63653a20496e73756666696369656e74206044820152707265776172647320617661696c61626c6560781b606482015260840161042b565b428310156105aa5760405162461bcd60e51b815260206004820152603b60248201527f436f6d6d756e69747949737375616e63653a205265776172647320737461727460448201527f2074696d652063616e6e6f7420626520696e2074686520706173740000000000606482015260840161042b565b83821061060f5760405162461bcd60e51b815260206004820152602d60248201527f436f6d6d756e69747949737375616e63653a20496e76616c696420726577617260448201526c191cc81c195c881cd958dbdb99609a1b606482015260840161042b565b600683905561062a61062185846109b6565b600654906109f8565b60075550600855505060006005556009805460ff19166001179055565b61064f610883565b600954610100900460ff166106765760405162461bcd60e51b815260040161042b90610c5b565b60015460405163a9059cbb60e01b81526001600160a01b038481166004830152602482018490529091169063a9059cbb906044016020604051808303816000875af11580156106c9573d6000803e3d6000fd5b505050506040513d601f19601f820116820180604052508101906106ed9190610cba565b505050565b6000546001600160a01b0316331461074c5760405162461bcd60e51b815260206004820181905260248201527f4f776e61626c653a2063616c6c6572206973206e6f7420746865206f776e6572604482015260640161042b565b600954610100900460ff16156107b35760405162461bcd60e51b815260206004820152602660248201527f436f6d6d756e69747949737375616e63653a20616c726561647920696e697469604482015265185b1a5e995960d21b606482015260840161042b565b6107bc82610a57565b6107c581610a57565b600180546001600160a01b038481166001600160a01b031992831681179093556002805483168417905560038054918516919092161790556040519081527fb0c89119a7c10e4c2d02306921ba368ac83d0e4b302337916017485c2791bec59060200160405180910390a16003546040516001600160a01b0390911681527f45c53611bc8ba9e11f4f8173bda9e3faf89c395ddb83f9a55230b156828db3159060200160405180910390a150506009805461ff001916610100179055565b6003546001600160a01b031633146108e95760405162461bcd60e51b815260206004820152602360248201527f436f6d6d756e69747949737375616e63653a2063616c6c6572206973206e6f7460448201526202053560ec1b606482015260840161042b565b565b600061092d83836040518060400160405280601e81526020017f536166654d6174683a207375627472616374696f6e206f766572666c6f770000815250610b00565b9392505050565b600082600003610946575060006103cf565b60006109528385610cf2565b90508261095f8583610d09565b1461092d5760405162461bcd60e51b815260206004820152602160248201527f536166654d6174683a206d756c7469706c69636174696f6e206f766572666c6f6044820152607760f81b606482015260840161042b565b600061092d83836040518060400160405280601a81526020017f536166654d6174683a206469766973696f6e206279207a65726f000000000000815250610b3a565b600080610a058385610d2b565b90508381101561092d5760405162461bcd60e51b815260206004820152601b60248201527f536166654d6174683a206164646974696f6e206f766572666c6f770000000000604482015260640161042b565b6001600160a01b038116610aad5760405162461bcd60e51b815260206004820152601e60248201527f4163636f756e742063616e6e6f74206265207a65726f20616464726573730000604482015260640161042b565b803b80610afc5760405162461bcd60e51b815260206004820181905260248201527f4163636f756e7420636f64652073697a652063616e6e6f74206265207a65726f604482015260640161042b565b5050565b60008184841115610b245760405162461bcd60e51b815260040161042b9190610c0d565b506000610b318486610d3e565b95945050505050565b60008183610b5b5760405162461bcd60e51b815260040161042b9190610c0d565b506000610b318486610d09565b600080600060608486031215610b7d57600080fd5b505081359360208301359350604090920135919050565b80356001600160a01b0381168114610bab57600080fd5b919050565b60008060408385031215610bc357600080fd5b610bcc83610b94565b946020939093013593505050565b60008060408385031215610bed57600080fd5b610bf683610b94565b9150610c0460208401610b94565b90509250929050565b600060208083528351808285015260005b81811015610c3a57858101830151858201604001528201610c1e565b506000604082860101526040601f19601f8301168501019250505092915050565b60208082526026908201527f436f6d6d756e69747949737375616e63653a204e6f742079657420696e697469604082015265185b1a5e995960d21b606082015260800190565b600060208284031215610cb357600080fd5b5051919050565b600060208284031215610ccc57600080fd5b8151801515811461092d57600080fd5b634e487b7160e01b600052601160045260246000fd5b80820281158282048414176103cf576103cf610cdc565b600082610d2657634e487b7160e01b600052601260045260246000fd5b500490565b808201808211156103cf576103cf610cdc565b818103818111156103cf576103cf610cdc56fea2646970667358221220a2097782cb09ba18b3da0e98a42f39a3f4721a686bfc35123fca7b0c9307e25664736f6c63430008140033",
			"opcodes": "PUSH1 0xA0 PUSH1 0x40 MSTORE CALLVALUE DUP1 ISZERO PUSH2 0x10 JUMPI PUSH1 0x0 DUP1 REVERT JUMPDEST POP PUSH1 0x0 DUP1 SLOAD PUSH1 0x1 PUSH1 0x1 PUSH1 0xA0 SHL SUB NOT AND CALLER SWAP1 DUP2 OR DUP3 SSTORE PUSH1 0x40 MLOAD SWAP1 SWAP2 SWAP1 PUSH32 0x8BE0079C531659141344CD1FD0A4F28419497F9722A3DAAFE3B4186F6B6457E0 SWAP1 DUP3 SWAP1 LOG3 TIMESTAMP PUSH1 0x80 MSTORE PUSH1 0x80 MLOAD PUSH2 0xD87 PUSH2 0x6F PUSH1 0x0 CODECOPY PUSH1 0x0 PUSH2 0x2C4 ADD MSTORE PUSH2 0xD87 PUSH1 0x0 RETURN INVALID PUSH1 0x80 PUSH1 0x40 MSTORE CALLVALUE DUP1 ISZERO PUSH2 0x10 JUMPI PUSH1 0x0 DUP1 REVERT JUMPDEST POP PUSH1 0x4 CALLDATASIZE LT PUSH2 0x142 JUMPI PUSH1 0x0 CALLDATALOAD PUSH1 0xE0 SHR DUP1 PUSH4 0x8DA5CB5B GT PUSH2 0xB8 JUMPI DUP1 PUSH4 0xA3F4DF7E GT PUSH2 0x7C JUMPI DUP1 PUSH4 0xA3F4DF7E EQ PUSH2 0x263 JUMPI DUP1 PUSH4 0xB140384B EQ PUSH2 0x2A0 JUMPI DUP1 PUSH4 0xE7A7250A EQ PUSH2 0x2A9 JUMPI DUP1 PUSH4 0xEACDAABC EQ PUSH2 0x2B6 JUMPI DUP1 PUSH4 0xECDA10F5 EQ PUSH2 0x2BF JUMPI DUP1 PUSH4 0xF7C618C1 EQ PUSH2 0x2E6 JUMPI PUSH1 0x0 DUP1 REVERT JUMPDEST DUP1 PUSH4 0x8DA5CB5B EQ PUSH2 0x214 JUMPI DUP1 PUSH4 0x8F32D59B EQ PUSH2 0x225 JUMPI DUP1 PUSH4 0x90107AFE EQ PUSH2 0x238 JUMPI DUP1 PUSH4 0x9623E9AC EQ PUSH2 0x24B JUMPI DUP1 PUSH4 0xA20BAEE6 EQ PUSH2 0x254 JUMPI PUSH1 0x0 DUP1 REVERT JUMPDEST DUP1 PUSH4 0x4C42F3FE GT PUSH2 0x10A JUMPI DUP1 PUSH4 0x4C42F3FE EQ PUSH2 0x1CA JUMPI DUP1 PUSH4 0x4E5C9957 EQ PUSH2 0x1DF JUMPI DUP1 PUSH4 0x614D2AB6 EQ PUSH2 0x1E7 JUMPI DUP1 PUSH4 0x61EC893D EQ PUSH2 0x1FA JUMPI DUP1 PUSH4 0x6A7923B2 EQ PUSH2 0x202 JUMPI DUP1 PUSH4 0x7C2C0916 EQ PUSH2 0x20B JUMPI PUSH1 0x0 DUP1 REVERT JUMPDEST DUP1 PUSH4 0xB622AB2 EQ PUSH2 0x147 JUMPI DUP1 PUSH4 0xFC83DA3 EQ PUSH2 0x177 JUMPI DUP1 PUSH4 0x1F7AF3C3 EQ PUSH2 0x18D JUMPI DUP1 PUSH4 0x392E53CD EQ PUSH2 0x1A0 JUMPI DUP1 PUSH4 0x46AD34D9 EQ PUSH2 0x1C2 JUMPI JUMPDEST PUSH1 0x0 DUP1 REVERT JUMPDEST PUSH1 0x3 SLOAD PUSH2 0x15A SWAP1 PUSH1 0x1 PUSH1 0x1 PUSH1 0xA0 SHL SUB AND DUP2 JUMP JUMPDEST PUSH1 0x40 MLOAD PUSH1 0x1 PUSH1 0x1 PUSH1 0xA0 SHL SUB SWAP1 SWAP2 AND DUP2 MSTORE PUSH1 0x20 ADD JUMPDEST PUSH1 0x40 MLOAD DUP1 SWAP2 SUB SWAP1 RETURN JUMPDEST PUSH2 0x17F PUSH1 0x1 DUP2 JUMP JUMPDEST PUSH1 0x40 MLOAD SWAP1 DUP2 MSTORE PUSH1 0x20 ADD PUSH2 0x16E JUMP JUMPDEST PUSH1 0x2 SLOAD PUSH2 0x15A SWAP1 PUSH1 0x1 PUSH1 0x1 PUSH1 0xA0 SHL SUB AND DUP2 JUMP JUMPDEST PUSH1 0x9 SLOAD PUSH2 0x1B2 SWAP1 PUSH2 0x100 SWAP1 DIV PUSH1 0xFF AND DUP2 JUMP JUMPDEST PUSH1 0x40 MLOAD SWAP1 ISZERO ISZERO DUP2 MSTORE PUSH1 0x20 ADD PUSH2 0x16E JUMP JUMPDEST PUSH2 0x17F PUSH2 0x2F9 JUMP JUMPDEST PUSH2 0x1DD PUSH2 0x1D8 CALLDATASIZE PUSH1 0x4 PUSH2 0xB68 JUMP JUMPDEST PUSH2 0x3D5 JUMP JUMPDEST STOP JUMPDEST PUSH2 0x17F PUSH1 0x0 DUP2 JUMP JUMPDEST PUSH2 0x1DD PUSH2 0x1F5 CALLDATASIZE PUSH1 0x4 PUSH2 0xBB0 JUMP JUMPDEST PUSH2 0x647 JUMP JUMPDEST PUSH2 0x17F PUSH1 0x3C DUP2 JUMP JUMPDEST PUSH2 0x17F PUSH1 0x6 SLOAD DUP2 JUMP JUMPDEST PUSH2 0x17F PUSH1 0x5 SLOAD DUP2 JUMP JUMPDEST PUSH1 0x0 SLOAD PUSH1 0x1 PUSH1 0x1 PUSH1 0xA0 SHL SUB AND PUSH2 0x15A JUMP JUMPDEST PUSH1 0x0 SLOAD PUSH1 0x1 PUSH1 0x1 PUSH1 0xA0 SHL SUB AND CALLER EQ PUSH2 0x1B2 JUMP JUMPDEST PUSH2 0x1DD PUSH2 0x246 CALLDATASIZE PUSH1 0x4 PUSH2 0xBDA JUMP JUMPDEST PUSH2 0x6F2 JUMP JUMPDEST PUSH2 0x17F PUSH1 0x7 SLOAD DUP2 JUMP JUMPDEST PUSH2 0x17F PUSH8 0xDE0B6B3A7640000 DUP2 JUMP JUMPDEST PUSH2 0x293 PUSH1 0x40 MLOAD DUP1 PUSH1 0x40 ADD PUSH1 0x40 MSTORE DUP1 PUSH1 0x11 DUP2 MSTORE PUSH1 0x20 ADD PUSH17 0x436F6D6D756E69747949737375616E6365 PUSH1 0x78 SHL DUP2 MSTORE POP DUP2 JUMP JUMPDEST PUSH1 0x40 MLOAD PUSH2 0x16E SWAP2 SWAP1 PUSH2 0xC0D JUMP JUMPDEST PUSH2 0x17F PUSH1 0x4 SLOAD DUP2 JUMP JUMPDEST PUSH1 0x9 SLOAD PUSH2 0x1B2 SWAP1 PUSH1 0xFF AND DUP2 JUMP JUMPDEST PUSH2 0x17F PUSH1 0x8 SLOAD DUP2 JUMP JUMPDEST PUSH2 0x17F PUSH32 0x0 DUP2 JUMP JUMPDEST PUSH1 0x1 SLOAD PUSH2 0x15A SWAP1 PUSH1 0x1 PUSH1 0x1 PUSH1 0xA0 SHL SUB AND DUP2 JUMP JUMPDEST PUSH1 0x0 PUSH2 0x303 PUSH2 0x883 JUMP JUMPDEST PUSH1 0x0 TIMESTAMP SWAP1 POP PUSH1 0x0 DUP2 PUSH1 0x6 SLOAD LT DUP1 ISZERO PUSH2 0x322 JUMPI POP PUSH1 0x9 SLOAD PUSH1 0xFF AND ISZERO ISZERO PUSH1 0x1 EQ JUMPDEST ISZERO PUSH2 0x3CF JUMPI PUSH1 0x0 PUSH1 0x7 SLOAD DUP4 LT PUSH2 0x361 JUMPI PUSH1 0x9 DUP1 SLOAD PUSH1 0xFF NOT AND SWAP1 SSTORE PUSH1 0x8 SLOAD PUSH1 0x6 SLOAD PUSH1 0x7 SLOAD PUSH2 0x35A SWAP3 SWAP2 PUSH2 0x354 SWAP2 SWAP1 PUSH2 0x8EB JUMP JUMPDEST SWAP1 PUSH2 0x934 JUMP JUMPDEST SWAP1 POP PUSH2 0x37F JUMP JUMPDEST PUSH2 0x37C PUSH1 0x8 SLOAD PUSH2 0x354 PUSH1 0x6 SLOAD DUP7 PUSH2 0x8EB SWAP1 SWAP2 SWAP1 PUSH4 0xFFFFFFFF AND JUMP JUMPDEST SWAP1 POP JUMPDEST PUSH1 0x5 SLOAD PUSH2 0x38D SWAP1 DUP3 SWAP1 PUSH2 0x8EB JUMP JUMPDEST PUSH1 0x5 DUP3 SWAP1 SSTORE PUSH1 0x4 DUP3 SWAP1 SSTORE PUSH1 0x40 MLOAD DUP3 DUP2 MSTORE SWAP1 SWAP3 POP PUSH32 0x33068ABF93BDEC23E781D0A3B3F3E688BFA8471C68B629AD68652CDC63A6E49 SWAP1 PUSH1 0x20 ADD PUSH1 0x40 MLOAD DUP1 SWAP2 SUB SWAP1 LOG1 POP JUMPDEST SWAP3 SWAP2 POP POP JUMP JUMPDEST PUSH1 0x0 SLOAD PUSH1 0x1 PUSH1 0x1 PUSH1 0xA0 SHL SUB AND CALLER EQ PUSH2 0x434 JUMPI PUSH1 0x40 MLOAD PUSH3 0x461BCD PUSH1 0xE5 SHL DUP2 MSTORE PUSH1 0x20 PUSH1 0x4 DUP3 ADD DUP2 SWAP1 MSTORE PUSH1 0x24 DUP3 ADD MSTORE PUSH32 0x4F776E61626C653A2063616C6C6572206973206E6F7420746865206F776E6572 PUSH1 0x44 DUP3 ADD MSTORE PUSH1 0x64 ADD JUMPDEST PUSH1 0x40 MLOAD DUP1 SWAP2 SUB SWAP1 REVERT JUMPDEST PUSH1 0x9 SLOAD PUSH2 0x100 SWAP1 DIV PUSH1 0xFF AND PUSH2 0x45B JUMPI PUSH1 0x40 MLOAD PUSH3 0x461BCD PUSH1 0xE5 SHL DUP2 MSTORE PUSH1 0x4 ADD PUSH2 0x42B SWAP1 PUSH2 0xC5B JUMP JUMPDEST PUSH1 0x1 SLOAD PUSH1 0x40 MLOAD PUSH4 0x70A08231 PUSH1 0xE0 SHL DUP2 MSTORE ADDRESS PUSH1 0x4 DUP3 ADD MSTORE PUSH1 0x0 SWAP2 PUSH1 0x1 PUSH1 0x1 PUSH1 0xA0 SHL SUB AND SWAP1 PUSH4 0x70A08231 SWAP1 PUSH1 0x24 ADD PUSH1 0x20 PUSH1 0x40 MLOAD DUP1 DUP4 SUB DUP2 DUP7 GAS STATICCALL ISZERO DUP1 ISZERO PUSH2 0x4A4 JUMPI RETURNDATASIZE PUSH1 0x0 DUP1 RETURNDATACOPY RETURNDATASIZE PUSH1 0x0 REVERT JUMPDEST POP POP POP POP PUSH1 0x40 MLOAD RETURNDATASIZE PUSH1 0x1F NOT PUSH1 0x1F DUP3 ADD AND DUP3 ADD DUP1 PUSH1 0x40 MSTORE POP DUP2 ADD SWAP1 PUSH2 0x4C8 SWAP2 SWAP1 PUSH2 0xCA1 JUMP JUMPDEST SWAP1 POP DUP4 DUP2 LT ISZERO PUSH2 0x534 JUMPI PUSH1 0x40 MLOAD PUSH3 0x461BCD PUSH1 0xE5 SHL DUP2 MSTORE PUSH1 0x20 PUSH1 0x4 DUP3 ADD MSTORE PUSH1 0x31 PUSH1 0x24 DUP3 ADD MSTORE PUSH32 0x436F6D6D756E69747949737375616E63653A20496E73756666696369656E7420 PUSH1 0x44 DUP3 ADD MSTORE PUSH17 0x7265776172647320617661696C61626C65 PUSH1 0x78 SHL PUSH1 0x64 DUP3 ADD MSTORE PUSH1 0x84 ADD PUSH2 0x42B JUMP JUMPDEST TIMESTAMP DUP4 LT ISZERO PUSH2 0x5AA JUMPI PUSH1 0x40 MLOAD PUSH3 0x461BCD PUSH1 0xE5 SHL DUP2 MSTORE PUSH1 0x20 PUSH1 0x4 DUP3 ADD MSTORE PUSH1 0x3B PUSH1 0x24 DUP3 ADD MSTORE PUSH32 0x436F6D6D756E69747949737375616E63653A2052657761726473207374617274 PUSH1 0x44 DUP3 ADD MSTORE PUSH32 0x2074696D652063616E6E6F7420626520696E2074686520706173740000000000 PUSH1 0x64 DUP3 ADD MSTORE PUSH1 0x84 ADD PUSH2 0x42B JUMP JUMPDEST DUP4 DUP3 LT PUSH2 0x60F JUMPI PUSH1 0x40 MLOAD PUSH3 0x461BCD PUSH1 0xE5 SHL DUP2 MSTORE PUSH1 0x20 PUSH1 0x4 DUP3 ADD MSTORE PUSH1 0x2D PUSH1 0x24 DUP3 ADD MSTORE PUSH32 0x436F6D6D756E69747949737375616E63653A20496E76616C6964207265776172 PUSH1 0x44 DUP3 ADD MSTORE PUSH13 0x191CC81C195C881CD958DBDB99 PUSH1 0x9A SHL PUSH1 0x64 DUP3 ADD MSTORE PUSH1 0x84 ADD PUSH2 0x42B JUMP JUMPDEST PUSH1 0x6 DUP4 SWAP1 SSTORE PUSH2 0x62A PUSH2 0x621 DUP6 DUP5 PUSH2 0x9B6 JUMP JUMPDEST PUSH1 0x6 SLOAD SWAP1 PUSH2 0x9F8 JUMP JUMPDEST PUSH1 0x7 SSTORE POP PUSH1 0x8 SSTORE POP POP PUSH1 0x0 PUSH1 0x5 SSTORE PUSH1 0x9 DUP1 SLOAD PUSH1 0xFF NOT AND PUSH1 0x1 OR SWAP1 SSTORE JUMP JUMPDEST PUSH2 0x64F PUSH2 0x883 JUMP JUMPDEST PUSH1 0x9 SLOAD PUSH2 0x100 SWAP1 DIV PUSH1 0xFF AND PUSH2 0x676 JUMPI PUSH1 0x40 MLOAD PUSH3 0x461BCD PUSH1 0xE5 SHL DUP2 MSTORE PUSH1 0x4 ADD PUSH2 0x42B SWAP1 PUSH2 0xC5B JUMP JUMPDEST PUSH1 0x1 SLOAD PUSH1 0x40 MLOAD PUSH4 0xA9059CBB PUSH1 0xE0 SHL DUP2 MSTORE PUSH1 0x1 PUSH1 0x1 PUSH1 0xA0 SHL SUB DUP5 DUP2 AND PUSH1 0x4 DUP4 ADD MSTORE PUSH1 0x24 DUP3 ADD DUP5 SWAP1 MSTORE SWAP1 SWAP2 AND SWAP1 PUSH4 0xA9059CBB SWAP1 PUSH1 0x44 ADD PUSH1 0x20 PUSH1 0x40 MLOAD DUP1 DUP4 SUB DUP2 PUSH1 0x0 DUP8 GAS CALL ISZERO DUP1 ISZERO PUSH2 0x6C9 JUMPI RETURNDATASIZE PUSH1 0x0 DUP1 RETURNDATACOPY RETURNDATASIZE PUSH1 0x0 REVERT JUMPDEST POP POP POP POP PUSH1 0x40 MLOAD RETURNDATASIZE PUSH1 0x1F NOT PUSH1 0x1F DUP3 ADD AND DUP3 ADD DUP1 PUSH1 0x40 MSTORE POP DUP2 ADD SWAP1 PUSH2 0x6ED SWAP2 SWAP1 PUSH2 0xCBA JUMP JUMPDEST POP POP POP JUMP JUMPDEST PUSH1 0x0 SLOAD PUSH1 0x1 PUSH1 0x1 PUSH1 0xA0 SHL SUB AND CALLER EQ PUSH2 0x74C JUMPI PUSH1 0x40 MLOAD PUSH3 0x461BCD PUSH1 0xE5 SHL DUP2 MSTORE PUSH1 0x20 PUSH1 0x4 DUP3 ADD DUP2 SWAP1 MSTORE PUSH1 0x24 DUP3 ADD MSTORE PUSH32 0x4F776E61626C653A2063616C6C6572206973206E6F7420746865206F776E6572 PUSH1 0x44 DUP3 ADD MSTORE PUSH1 0x64 ADD PUSH2 0x42B JUMP JUMPDEST PUSH1 0x9 SLOAD PUSH2 0x100 SWAP1 DIV PUSH1 0xFF AND ISZERO PUSH2 0x7B3 JUMPI PUSH1 0x40 MLOAD PUSH3 0x461BCD PUSH1 0xE5 SHL DUP2 MSTORE PUSH1 0x20 PUSH1 0x4 DUP3 ADD MSTORE PUSH1 0x26 PUSH1 0x24 DUP3 ADD MSTORE PUSH32 0x436F6D6D756E69747949737375616E63653A20616C726561647920696E697469 PUSH1 0x44 DUP3 ADD MSTORE PUSH6 0x185B1A5E9959 PUSH1 0xD2 SHL PUSH1 0x64 DUP3 ADD MSTORE PUSH1 0x84 ADD PUSH2 0x42B JUMP JUMPDEST PUSH2 0x7BC DUP3 PUSH2 0xA57 JUMP JUMPDEST PUSH2 0x7C5 DUP2 PUSH2 0xA57 JUMP JUMPDEST PUSH1 0x1 DUP1 SLOAD PUSH1 0x1 PUSH1 0x1 PUSH1 0xA0 SHL SUB DUP5 DUP2 AND PUSH1 0x1 PUSH1 0x1 PUSH1 0xA0 SHL SUB NOT SWAP3 DUP4 AND DUP2 OR SWAP1 SWAP4 SSTORE PUSH1 0x2 DUP1 SLOAD DUP4 AND DUP5 OR SWAP1 SSTORE PUSH1 0x3 DUP1 SLOAD SWAP2 DUP6 AND SWAP2 SWAP1 SWAP3 AND OR SWAP1 SSTORE PUSH1 0x40 MLOAD SWAP1 DUP2 MSTORE PUSH32 0xB0C89119A7C10E4C2D02306921BA368AC83D0E4B302337916017485C2791BEC5 SWAP1 PUSH1 0x20 ADD PUSH1 0x40 MLOAD DUP1 SWAP2 SUB SWAP1 LOG1 PUSH1 0x3 SLOAD PUSH1 0x40 MLOAD PUSH1 0x1 PUSH1 0x1 PUSH1 0xA0 SHL SUB SWAP1 SWAP2 AND DUP2 MSTORE PUSH32 0x45C53611BC8BA9E11F4F8173BDA9E3FAF89C395DDB83F9A55230B156828DB315 SWAP1 PUSH1 0x20 ADD PUSH1 0x40 MLOAD DUP1 SWAP2 SUB SWAP1 LOG1 POP POP PUSH1 0x9 DUP1 SLOAD PUSH2 0xFF00 NOT AND PUSH2 0x100 OR SWAP1 SSTORE JUMP JUMPDEST PUSH1 0x3 SLOAD PUSH1 0x1 PUSH1 0x1 PUSH1 0xA0 SHL SUB AND CALLER EQ PUSH2 0x8E9 JUMPI PUSH1 0x40 MLOAD PUSH3 0x461BCD PUSH1 0xE5 SHL DUP2 MSTORE PUSH1 0x20 PUSH1 0x4 DUP3 ADD MSTORE PUSH1 0x23 PUSH1 0x24 DUP3 ADD MSTORE PUSH32 0x436F6D6D756E69747949737375616E63653A2063616C6C6572206973206E6F74 PUSH1 0x44 DUP3 ADD MSTORE PUSH3 0x20535 PUSH1 0xEC SHL PUSH1 0x64 DUP3 ADD MSTORE PUSH1 0x84 ADD PUSH2 0x42B JUMP JUMPDEST JUMP JUMPDEST PUSH1 0x0 PUSH2 0x92D DUP4 DUP4 PUSH1 0x40 MLOAD DUP1 PUSH1 0x40 ADD PUSH1 0x40 MSTORE DUP1 PUSH1 0x1E DUP2 MSTORE PUSH1 0x20 ADD PUSH32 0x536166654D6174683A207375627472616374696F6E206F766572666C6F770000 DUP2 MSTORE POP PUSH2 0xB00 JUMP JUMPDEST SWAP4 SWAP3 POP POP POP JUMP JUMPDEST PUSH1 0x0 DUP3 PUSH1 0x0 SUB PUSH2 0x946 JUMPI POP PUSH1 0x0 PUSH2 0x3CF JUMP JUMPDEST PUSH1 0x0 PUSH2 0x952 DUP4 DUP6 PUSH2 0xCF2 JUMP JUMPDEST SWAP1 POP DUP3 PUSH2 0x95F DUP6 DUP4 PUSH2 0xD09 JUMP JUMPDEST EQ PUSH2 0x92D JUMPI PUSH1 0x40 MLOAD PUSH3 0x461BCD PUSH1 0xE5 SHL DUP2 MSTORE PUSH1 0x20 PUSH1 0x4 DUP3 ADD MSTORE PUSH1 0x21 PUSH1 0x24 DUP3 ADD MSTORE PUSH32 0x536166654D6174683A206D756C7469706C69636174696F6E206F766572666C6F PUSH1 0x44 DUP3 ADD MSTORE PUSH1 0x77 PUSH1 0xF8 SHL PUSH1 0x64 DUP3 ADD MSTORE PUSH1 0x84 ADD PUSH2 0x42B JUMP JUMPDEST PUSH1 0x0 PUSH2 0x92D DUP4 DUP4 PUSH1 0x40 MLOAD DUP1 PUSH1 0x40 ADD PUSH1 0x40 MSTORE DUP1 PUSH1 0x1A DUP2 MSTORE PUSH1 0x20 ADD PUSH32 0x536166654D6174683A206469766973696F6E206279207A65726F000000000000 DUP2 MSTORE POP PUSH2 0xB3A JUMP JUMPDEST PUSH1 0x0 DUP1 PUSH2 0xA05 DUP4 DUP6 PUSH2 0xD2B JUMP JUMPDEST SWAP1 POP DUP4 DUP2 LT ISZERO PUSH2 0x92D JUMPI PUSH1 0x40 MLOAD PUSH3 0x461BCD PUSH1 0xE5 SHL DUP2 MSTORE PUSH1 0x20 PUSH1 0x4 DUP3 ADD MSTORE PUSH1 0x1B PUSH1 0x24 DUP3 ADD MSTORE PUSH32 0x536166654D6174683A206164646974696F6E206F766572666C6F770000000000 PUSH1 0x44 DUP3 ADD MSTORE PUSH1 0x64 ADD PUSH2 0x42B JUMP JUMPDEST PUSH1 0x1 PUSH1 0x1 PUSH1 0xA0 SHL SUB DUP2 AND PUSH2 0xAAD JUMPI PUSH1 0x40 MLOAD PUSH3 0x461BCD PUSH1 0xE5 SHL DUP2 MSTORE PUSH1 0x20 PUSH1 0x4 DUP3 ADD MSTORE PUSH1 0x1E PUSH1 0x24 DUP3 ADD MSTORE PUSH32 0x4163636F756E742063616E6E6F74206265207A65726F20616464726573730000 PUSH1 0x44 DUP3 ADD MSTORE PUSH1 0x64 ADD PUSH2 0x42B JUMP JUMPDEST DUP1 EXTCODESIZE DUP1 PUSH2 0xAFC JUMPI PUSH1 0x40 MLOAD PUSH3 0x461BCD PUSH1 0xE5 SHL DUP2 MSTORE PUSH1 0x20 PUSH1 0x4 DUP3 ADD DUP2 SWAP1 MSTORE PUSH1 0x24 DUP3 ADD MSTORE PUSH32 0x4163636F756E7420636F64652073697A652063616E6E6F74206265207A65726F PUSH1 0x44 DUP3 ADD MSTORE PUSH1 0x64 ADD PUSH2 0x42B JUMP JUMPDEST POP POP JUMP JUMPDEST PUSH1 0x0 DUP2 DUP5 DUP5 GT ISZERO PUSH2 0xB24 JUMPI PUSH1 0x40 MLOAD PUSH3 0x461BCD PUSH1 0xE5 SHL DUP2 MSTORE PUSH1 0x4 ADD PUSH2 0x42B SWAP2 SWAP1 PUSH2 0xC0D JUMP JUMPDEST POP PUSH1 0x0 PUSH2 0xB31 DUP5 DUP7 PUSH2 0xD3E JUMP JUMPDEST SWAP6 SWAP5 POP POP POP POP POP JUMP JUMPDEST PUSH1 0x0 DUP2 DUP4 PUSH2 0xB5B JUMPI PUSH1 0x40 MLOAD PUSH3 0x461BCD PUSH1 0xE5 SHL DUP2 MSTORE PUSH1 0x4 ADD PUSH2 0x42B SWAP2 SWAP1 PUSH2 0xC0D JUMP JUMPDEST POP PUSH1 0x0 PUSH2 0xB31 DUP5 DUP7 PUSH2 0xD09 JUMP JUMPDEST PUSH1 0x0 DUP1 PUSH1 0x0 PUSH1 0x60 DUP5 DUP7 SUB SLT ISZERO PUSH2 0xB7D JUMPI PUSH1 0x0 DUP1 REVERT JUMPDEST POP POP DUP2 CALLDATALOAD SWAP4 PUSH1 0x20 DUP4 ADD CALLDATALOAD SWAP4 POP PUSH1 0x40 SWAP1 SWAP3 ADD CALLDATALOAD SWAP2 SWAP1 POP JUMP JUMPDEST DUP1 CALLDATALOAD PUSH1 0x1 PUSH1 0x1 PUSH1 0xA0 SHL SUB DUP2 AND DUP2 EQ PUSH2 0xBAB JUMPI PUSH1 0x0 DUP1 REVERT JUMPDEST SWAP2 SWAP1 POP JUMP JUMPDEST PUSH1 0x0 DUP1 PUSH1 0x40 DUP4 DUP6 SUB SLT ISZERO PUSH2 0xBC3 JUMPI PUSH1 0x0 DUP1 REVERT JUMPDEST PUSH2 0xBCC DUP4 PUSH2 0xB94 JUMP JUMPDEST SWAP5 PUSH1 0x20 SWAP4 SWAP1 SWAP4 ADD CALLDATALOAD SWAP4 POP POP POP JUMP JUMPDEST PUSH1 0x0 DUP1 PUSH1 0x40 DUP4 DUP6 SUB SLT ISZERO PUSH2 0xBED JUMPI PUSH1 0x0 DUP1 REVERT JUMPDEST PUSH2 0xBF6 DUP4 PUSH2 0xB94 JUMP JUMPDEST SWAP2 POP PUSH2 0xC04 PUSH1 0x20 DUP5 ADD PUSH2 0xB94 JUMP JUMPDEST SWAP1 POP SWAP3 POP SWAP3 SWAP1 POP JUMP JUMPDEST PUSH1 0x0 PUSH1 0x20 DUP1 DUP4 MSTORE DUP4 MLOAD DUP1 DUP3 DUP6 ADD MSTORE PUSH1 0x0 JUMPDEST DUP2 DUP2 LT ISZERO PUSH2 0xC3A JUMPI DUP6 DUP2 ADD DUP4 ADD MLOAD DUP6 DUP3 ADD PUSH1 0x40 ADD MSTORE DUP3 ADD PUSH2 0xC1E JUMP JUMPDEST POP PUSH1 0x0 PUSH1 0x40 DUP3 DUP7 ADD ADD MSTORE PUSH1 0x40 PUSH1 0x1F NOT PUSH1 0x1F DUP4 ADD AND DUP6 ADD ADD SWAP3 POP POP POP SWAP3 SWAP2 POP POP JUMP JUMPDEST PUSH1 0x20 DUP1 DUP3 MSTORE PUSH1 0x26 SWAP1 DUP3 ADD MSTORE PUSH32 0x436F6D6D756E69747949737375616E63653A204E6F742079657420696E697469 PUSH1 0x40 DUP3 ADD MSTORE PUSH6 0x185B1A5E9959 PUSH1 0xD2 SHL PUSH1 0x60 DUP3 ADD MSTORE PUSH1 0x80 ADD SWAP1 JUMP JUMPDEST PUSH1 0x0 PUSH1 0x20 DUP3 DUP5 SUB SLT ISZERO PUSH2 0xCB3 JUMPI PUSH1 0x0 DUP1 REVERT JUMPDEST POP MLOAD SWAP2 SWAP1 POP JUMP JUMPDEST PUSH1 0x0 PUSH1 0x20 DUP3 DUP5 SUB SLT ISZERO PUSH2 0xCCC JUMPI PUSH1 0x0 DUP1 REVERT JUMPDEST DUP2 MLOAD DUP1 ISZERO ISZERO DUP2 EQ PUSH2 0x92D JUMPI PUSH1 0x0 DUP1 REVERT JUMPDEST PUSH4 0x4E487B71 PUSH1 0xE0 SHL PUSH1 0x0 MSTORE PUSH1 0x11 PUSH1 0x4 MSTORE PUSH1 0x24 PUSH1 0x0 REVERT JUMPDEST DUP1 DUP3 MUL DUP2 ISZERO DUP3 DUP3 DIV DUP5 EQ OR PUSH2 0x3CF JUMPI PUSH2 0x3CF PUSH2 0xCDC JUMP JUMPDEST PUSH1 0x0 DUP3 PUSH2 0xD26 JUMPI PUSH4 0x4E487B71 PUSH1 0xE0 SHL PUSH1 0x0 MSTORE PUSH1 0x12 PUSH1 0x4 MSTORE PUSH1 0x24 PUSH1 0x0 REVERT JUMPDEST POP DIV SWAP1 JUMP JUMPDEST DUP1 DUP3 ADD DUP1 DUP3 GT ISZERO PUSH2 0x3CF JUMPI PUSH2 0x3CF PUSH2 0xCDC JUMP JUMPDEST DUP2 DUP2 SUB DUP2 DUP2 GT ISZERO PUSH2 0x3CF JUMPI PUSH2 0x3CF PUSH2 0xCDC JUMP INVALID LOG2 PUSH5 0x6970667358 0x22 SLT KECCAK256 LOG2 MULMOD PUSH24 0x82CB09BA18B3DA0E98A42F39A3F4721A686BFC35123FCA7B 0xC SWAP4 SMOD 0xE2 JUMP PUSH5 0x736F6C6343 STOP ADDMOD EQ STOP CALLER "
		},
		"gasEstimates": {
			"creation": {
				"codeDepositCost": "692600",
				"executionCost": "infinite",
				"totalCost": "infinite"
			},
			"external": {
				"DECIMAL_PRECISION()": "306",
				"ISSUANCE_FACTOR()": "241",
				"LQTYSupplyCap()": "240",
				"NAME()": "infinite",
				"SECONDS_IN_ONE_MINUTE()": "284",
				"deploymentTime()": "infinite",
				"isInitialized()": "2411",
				"isOwner()": "2366",
				"issueLQTY()": "infinite",
				"lqtyToken()": "2394",
				"owner()": "2343",
				"rewardToken()": "2458",
				"rewardsAvailable()": "2376",
				"rewardsEndTime()": "2384",
				"rewardsPerSecond()": "2383",
				"rewardsStartTime()": "2406",
				"sendLQTY(address,uint256)": "infinite",
				"setAddresses(address,address)": "infinite",
				"setRewardsToken(uint256,uint256,uint256)": "infinite",
				"stabilityPoolAddress()": "2350",
				"totalLQTYIssued()": "2339",
				"totalRewardsIssued()": "2428"
			},
			"internal": {
				"_requireCallerIsStabilityPool()": "infinite"
			}
		},
		"methodIdentifiers": {
			"DECIMAL_PRECISION()": "a20baee6",
			"ISSUANCE_FACTOR()": "0fc83da3",
			"LQTYSupplyCap()": "4e5c9957",
			"NAME()": "a3f4df7e",
			"SECONDS_IN_ONE_MINUTE()": "61ec893d",
			"deploymentTime()": "ecda10f5",
			"isInitialized()": "392e53cd",
			"isOwner()": "8f32d59b",
			"issueLQTY()": "46ad34d9",
			"lqtyToken()": "1f7af3c3",
			"owner()": "8da5cb5b",
			"rewardToken()": "f7c618c1",
			"rewardsAvailable()": "e7a7250a",
			"rewardsEndTime()": "9623e9ac",
			"rewardsPerSecond()": "eacdaabc",
			"rewardsStartTime()": "6a7923b2",
			"sendLQTY(address,uint256)": "614d2ab6",
			"setAddresses(address,address)": "90107afe",
			"setRewardsToken(uint256,uint256,uint256)": "4c42f3fe",
			"stabilityPoolAddress()": "0b622ab2",
			"totalLQTYIssued()": "b140384b",
			"totalRewardsIssued()": "7c2c0916"
		}
	},
	"abi": [
		{
			"inputs": [],
			"stateMutability": "nonpayable",
			"type": "constructor"
		},
		{
			"anonymous": false,
			"inputs": [
				{
					"indexed": false,
					"internalType": "address",
					"name": "_lqtyTokenAddress",
					"type": "address"
				}
			],
			"name": "LQTYTokenAddressSet",
			"type": "event"
		},
		{
			"anonymous": false,
			"inputs": [
				{
					"indexed": true,
					"internalType": "address",
					"name": "previousOwner",
					"type": "address"
				},
				{
					"indexed": true,
					"internalType": "address",
					"name": "newOwner",
					"type": "address"
				}
			],
			"name": "OwnershipTransferred",
			"type": "event"
		},
		{
			"anonymous": false,
			"inputs": [
				{
					"indexed": false,
					"internalType": "address",
					"name": "_stabilityPoolAddress",
					"type": "address"
				}
			],
			"name": "StabilityPoolAddressSet",
			"type": "event"
		},
		{
			"anonymous": false,
			"inputs": [
				{
					"indexed": false,
					"internalType": "uint256",
					"name": "_totalLQTYIssued",
					"type": "uint256"
				}
			],
			"name": "TotalLQTYIssuedUpdated",
			"type": "event"
		},
		{
			"inputs": [],
			"name": "DECIMAL_PRECISION",
			"outputs": [
				{
					"internalType": "uint256",
					"name": "",
					"type": "uint256"
				}
			],
			"stateMutability": "view",
			"type": "function"
		},
		{
			"inputs": [],
			"name": "ISSUANCE_FACTOR",
			"outputs": [
				{
					"internalType": "uint256",
					"name": "",
					"type": "uint256"
				}
			],
			"stateMutability": "view",
			"type": "function"
		},
		{
			"inputs": [],
			"name": "LQTYSupplyCap",
			"outputs": [
				{
					"internalType": "uint256",
					"name": "",
					"type": "uint256"
				}
			],
			"stateMutability": "view",
			"type": "function"
		},
		{
			"inputs": [],
			"name": "NAME",
			"outputs": [
				{
					"internalType": "string",
					"name": "",
					"type": "string"
				}
			],
			"stateMutability": "view",
			"type": "function"
		},
		{
			"inputs": [],
			"name": "SECONDS_IN_ONE_MINUTE",
			"outputs": [
				{
					"internalType": "uint256",
					"name": "",
					"type": "uint256"
				}
			],
			"stateMutability": "view",
			"type": "function"
		},
		{
			"inputs": [],
			"name": "deploymentTime",
			"outputs": [
				{
					"internalType": "uint256",
					"name": "",
					"type": "uint256"
				}
			],
			"stateMutability": "view",
			"type": "function"
		},
		{
			"inputs": [],
			"name": "isInitialized",
			"outputs": [
				{
					"internalType": "bool",
					"name": "",
					"type": "bool"
				}
			],
			"stateMutability": "view",
			"type": "function"
		},
		{
			"inputs": [],
			"name": "isOwner",
			"outputs": [
				{
					"internalType": "bool",
					"name": "",
					"type": "bool"
				}
			],
			"stateMutability": "view",
			"type": "function"
		},
		{
			"inputs": [],
			"name": "issueLQTY",
			"outputs": [
				{
					"internalType": "uint256",
					"name": "",
					"type": "uint256"
				}
			],
			"stateMutability": "nonpayable",
			"type": "function"
		},
		{
			"inputs": [],
			"name": "lqtyToken",
			"outputs": [
				{
					"internalType": "contract IERC20",
					"name": "",
					"type": "address"
				}
			],
			"stateMutability": "view",
			"type": "function"
		},
		{
			"inputs": [],
			"name": "owner",
			"outputs": [
				{
					"internalType": "address",
					"name": "",
					"type": "address"
				}
			],
			"stateMutability": "view",
			"type": "function"
		},
		{
			"inputs": [],
			"name": "rewardToken",
			"outputs": [
				{
					"internalType": "contract IERC20",
					"name": "",
					"type": "address"
				}
			],
			"stateMutability": "view",
			"type": "function"
		},
		{
			"inputs": [],
			"name": "rewardsAvailable",
			"outputs": [
				{
					"internalType": "bool",
					"name": "",
					"type": "bool"
				}
			],
			"stateMutability": "view",
			"type": "function"
		},
		{
			"inputs": [],
			"name": "rewardsEndTime",
			"outputs": [
				{
					"internalType": "uint256",
					"name": "",
					"type": "uint256"
				}
			],
			"stateMutability": "view",
			"type": "function"
		},
		{
			"inputs": [],
			"name": "rewardsPerSecond",
			"outputs": [
				{
					"internalType": "uint256",
					"name": "",
					"type": "uint256"
				}
			],
			"stateMutability": "view",
			"type": "function"
		},
		{
			"inputs": [],
			"name": "rewardsStartTime",
			"outputs": [
				{
					"internalType": "uint256",
					"name": "",
					"type": "uint256"
				}
			],
			"stateMutability": "view",
			"type": "function"
		},
		{
			"inputs": [
				{
					"internalType": "address",
					"name": "_account",
					"type": "address"
				},
				{
					"internalType": "uint256",
					"name": "_amount",
					"type": "uint256"
				}
			],
			"name": "sendLQTY",
			"outputs": [],
			"stateMutability": "nonpayable",
			"type": "function"
		},
		{
			"inputs": [
				{
					"internalType": "address",
					"name": "_rewardsTokenAddress",
					"type": "address"
				},
				{
					"internalType": "address",
					"name": "_stabilityPoolAddress",
					"type": "address"
				}
			],
			"name": "setAddresses",
			"outputs": [],
			"stateMutability": "nonpayable",
			"type": "function"
		},
		{
			"inputs": [
				{
					"internalType": "uint256",
					"name": "_amount",
					"type": "uint256"
				},
				{
					"internalType": "uint256",
					"name": "_startTime",
					"type": "uint256"
				},
				{
					"internalType": "uint256",
					"name": "_rewardsPerSecond",
					"type": "uint256"
				}
			],
			"name": "setRewardsToken",
			"outputs": [],
			"stateMutability": "nonpayable",
			"type": "function"
		},
		{
			"inputs": [],
			"name": "stabilityPoolAddress",
			"outputs": [
				{
					"internalType": "address",
					"name": "",
					"type": "address"
				}
			],
			"stateMutability": "view",
			"type": "function"
		},
		{
			"inputs": [],
			"name": "totalLQTYIssued",
			"outputs": [
				{
					"internalType": "uint256",
					"name": "",
					"type": "uint256"
				}
			],
			"stateMutability": "view",
			"type": "function"
		},
		{
			"inputs": [],
			"name": "totalRewardsIssued",
			"outputs": [
				{
					"internalType": "uint256",
					"name": "",
					"type": "uint256"
				}
			],
			"stateMutability": "view",
			"type": "function"
		}
	]
}